{
  "contractName": "Lucky7Store",
  "abi": [
    {
      "constant": false,
      "inputs": [
        {
          "name": "_newValue",
          "type": "uint256"
        }
      ],
      "name": "setInitialLucky7TicketPosition",
      "outputs": [],
      "payable": false,
      "stateMutability": "nonpayable",
      "type": "function"
    },
    {
      "constant": true,
      "inputs": [
        {
          "name": "",
          "type": "uint256"
        }
      ],
      "name": "lucky7TicketID",
      "outputs": [
        {
          "name": "",
          "type": "uint256"
        }
      ],
      "payable": false,
      "stateMutability": "view",
      "type": "function"
    },
    {
      "constant": true,
      "inputs": [],
      "name": "lastSecondPrizeAmount",
      "outputs": [
        {
          "name": "",
          "type": "uint256"
        }
      ],
      "payable": false,
      "stateMutability": "view",
      "type": "function"
    },
    {
      "constant": false,
      "inputs": [
        {
          "name": "_newValue",
          "type": "uint256"
        }
      ],
      "name": "setIndexForLucky7Array",
      "outputs": [],
      "payable": false,
      "stateMutability": "nonpayable",
      "type": "function"
    },
    {
      "constant": true,
      "inputs": [
        {
          "name": "",
          "type": "uint256"
        }
      ],
      "name": "lucky7TicketOwner",
      "outputs": [
        {
          "name": "",
          "type": "address"
        }
      ],
      "payable": false,
      "stateMutability": "view",
      "type": "function"
    },
    {
      "constant": false,
      "inputs": [],
      "name": "_orderLucky7Tickets",
      "outputs": [],
      "payable": false,
      "stateMutability": "nonpayable",
      "type": "function"
    },
    {
      "constant": false,
      "inputs": [
        {
          "name": "_ticketOwner",
          "type": "address"
        }
      ],
      "name": "_askForMuParameter",
      "outputs": [],
      "payable": false,
      "stateMutability": "nonpayable",
      "type": "function"
    },
    {
      "constant": false,
      "inputs": [
        {
          "name": "myid",
          "type": "bytes32"
        },
        {
          "name": "result",
          "type": "string"
        }
      ],
      "name": "__callback",
      "outputs": [],
      "payable": false,
      "stateMutability": "nonpayable",
      "type": "function"
    },
    {
      "constant": true,
      "inputs": [],
      "name": "settingLucky7Numbers",
      "outputs": [
        {
          "name": "",
          "type": "bool"
        }
      ],
      "payable": false,
      "stateMutability": "view",
      "type": "function"
    },
    {
      "constant": false,
      "inputs": [
        {
          "name": "_ticketID",
          "type": "uint256"
        }
      ],
      "name": "_checkForLucky7Ticket",
      "outputs": [],
      "payable": false,
      "stateMutability": "nonpayable",
      "type": "function"
    },
    {
      "constant": true,
      "inputs": [],
      "name": "n",
      "outputs": [
        {
          "name": "",
          "type": "string"
        }
      ],
      "payable": false,
      "stateMutability": "view",
      "type": "function"
    },
    {
      "constant": false,
      "inputs": [
        {
          "name": "myid",
          "type": "bytes32"
        },
        {
          "name": "result",
          "type": "string"
        },
        {
          "name": "proof",
          "type": "bytes"
        }
      ],
      "name": "__callback",
      "outputs": [],
      "payable": false,
      "stateMutability": "nonpayable",
      "type": "function"
    },
    {
      "constant": false,
      "inputs": [],
      "name": "toggleLucky7Setting",
      "outputs": [],
      "payable": false,
      "stateMutability": "nonpayable",
      "type": "function"
    },
    {
      "constant": false,
      "inputs": [],
      "name": "withdraw",
      "outputs": [],
      "payable": false,
      "stateMutability": "nonpayable",
      "type": "function"
    },
    {
      "constant": false,
      "inputs": [],
      "name": "setNewGame",
      "outputs": [],
      "payable": false,
      "stateMutability": "nonpayable",
      "type": "function"
    },
    {
      "constant": false,
      "inputs": [
        {
          "name": "_newAddress",
          "type": "address"
        }
      ],
      "name": "modifyEnterpriseWallet",
      "outputs": [],
      "payable": false,
      "stateMutability": "nonpayable",
      "type": "function"
    },
    {
      "constant": true,
      "inputs": [
        {
          "name": "",
          "type": "address"
        }
      ],
      "name": "userValues",
      "outputs": [
        {
          "name": "mu",
          "type": "string"
        },
        {
          "name": "i",
          "type": "string"
        },
        {
          "name": "ticketValue",
          "type": "uint256"
        },
        {
          "name": "muReady",
          "type": "bool"
        },
        {
          "name": "iReady",
          "type": "bool"
        },
        {
          "name": "userPaidTicket",
          "type": "bool"
        }
      ],
      "payable": false,
      "stateMutability": "view",
      "type": "function"
    },
    {
      "constant": true,
      "inputs": [],
      "name": "b",
      "outputs": [
        {
          "name": "",
          "type": "string"
        }
      ],
      "payable": false,
      "stateMutability": "view",
      "type": "function"
    },
    {
      "constant": true,
      "inputs": [],
      "name": "oraclizeGasLimit",
      "outputs": [
        {
          "name": "",
          "type": "uint256"
        }
      ],
      "payable": false,
      "stateMutability": "view",
      "type": "function"
    },
    {
      "constant": false,
      "inputs": [
        {
          "name": "_newOAR",
          "type": "address"
        }
      ],
      "name": "changeOAR",
      "outputs": [],
      "payable": false,
      "stateMutability": "nonpayable",
      "type": "function"
    },
    {
      "constant": true,
      "inputs": [],
      "name": "numberOfLucky7Numbers",
      "outputs": [
        {
          "name": "",
          "type": "uint256"
        }
      ],
      "payable": false,
      "stateMutability": "view",
      "type": "function"
    },
    {
      "constant": false,
      "inputs": [
        {
          "name": "_id",
          "type": "uint256"
        },
        {
          "name": "_mu",
          "type": "string"
        },
        {
          "name": "_i",
          "type": "string"
        },
        {
          "name": "_ticketValue",
          "type": "uint256"
        },
        {
          "name": "_drawNumber",
          "type": "uint256"
        }
      ],
      "name": "insertCustomizedLucky7Number",
      "outputs": [],
      "payable": false,
      "stateMutability": "nonpayable",
      "type": "function"
    },
    {
      "constant": false,
      "inputs": [],
      "name": "renounceOwnership",
      "outputs": [],
      "payable": false,
      "stateMutability": "nonpayable",
      "type": "function"
    },
    {
      "constant": true,
      "inputs": [],
      "name": "enterpriseWallet",
      "outputs": [
        {
          "name": "",
          "type": "address"
        }
      ],
      "payable": false,
      "stateMutability": "view",
      "type": "function"
    },
    {
      "constant": false,
      "inputs": [],
      "name": "_orderLucky7Numbers",
      "outputs": [],
      "payable": false,
      "stateMutability": "nonpayable",
      "type": "function"
    },
    {
      "constant": false,
      "inputs": [
        {
          "name": "_ticketOwner",
          "type": "address"
        }
      ],
      "name": "_generateTicket",
      "outputs": [],
      "payable": false,
      "stateMutability": "nonpayable",
      "type": "function"
    },
    {
      "constant": true,
      "inputs": [],
      "name": "lastSecondPrizeWinner",
      "outputs": [
        {
          "name": "",
          "type": "address"
        }
      ],
      "payable": false,
      "stateMutability": "view",
      "type": "function"
    },
    {
      "constant": false,
      "inputs": [
        {
          "name": "_newValue",
          "type": "uint256"
        }
      ],
      "name": "modifyOraclizeGasLimit",
      "outputs": [],
      "payable": false,
      "stateMutability": "nonpayable",
      "type": "function"
    },
    {
      "constant": false,
      "inputs": [],
      "name": "destroy",
      "outputs": [],
      "payable": false,
      "stateMutability": "nonpayable",
      "type": "function"
    },
    {
      "constant": true,
      "inputs": [
        {
          "name": "",
          "type": "uint256"
        }
      ],
      "name": "ExactLucky7TicketValue",
      "outputs": [
        {
          "name": "",
          "type": "uint256"
        }
      ],
      "payable": false,
      "stateMutability": "view",
      "type": "function"
    },
    {
      "constant": false,
      "inputs": [
        {
          "name": "_newValue",
          "type": "uint256"
        }
      ],
      "name": "modifyGenerateTicketPrice",
      "outputs": [],
      "payable": false,
      "stateMutability": "nonpayable",
      "type": "function"
    },
    {
      "constant": true,
      "inputs": [
        {
          "name": "",
          "type": "uint256"
        }
      ],
      "name": "ExactLucky7TicketID",
      "outputs": [
        {
          "name": "",
          "type": "uint256"
        }
      ],
      "payable": false,
      "stateMutability": "view",
      "type": "function"
    },
    {
      "constant": true,
      "inputs": [],
      "name": "owner",
      "outputs": [
        {
          "name": "",
          "type": "address"
        }
      ],
      "payable": false,
      "stateMutability": "view",
      "type": "function"
    },
    {
      "constant": false,
      "inputs": [],
      "name": "_generateLucky7Number",
      "outputs": [],
      "payable": false,
      "stateMutability": "nonpayable",
      "type": "function"
    },
    {
      "constant": true,
      "inputs": [
        {
          "name": "",
          "type": "uint256"
        }
      ],
      "name": "lucky7NumbersArray",
      "outputs": [
        {
          "name": "mu",
          "type": "string"
        },
        {
          "name": "i",
          "type": "string"
        },
        {
          "name": "ticketValue",
          "type": "uint256"
        },
        {
          "name": "drawID",
          "type": "uint256"
        }
      ],
      "payable": false,
      "stateMutability": "view",
      "type": "function"
    },
    {
      "constant": true,
      "inputs": [],
      "name": "lastFirstPrizeWinner",
      "outputs": [
        {
          "name": "",
          "type": "address"
        }
      ],
      "payable": false,
      "stateMutability": "view",
      "type": "function"
    },
    {
      "constant": true,
      "inputs": [],
      "name": "lastFirstPrizeAmount",
      "outputs": [
        {
          "name": "",
          "type": "uint256"
        }
      ],
      "payable": false,
      "stateMutability": "view",
      "type": "function"
    },
    {
      "constant": true,
      "inputs": [],
      "name": "oraclizeCustomGasPrice",
      "outputs": [
        {
          "name": "",
          "type": "uint256"
        }
      ],
      "payable": false,
      "stateMutability": "view",
      "type": "function"
    },
    {
      "constant": true,
      "inputs": [],
      "name": "p",
      "outputs": [
        {
          "name": "",
          "type": "string"
        }
      ],
      "payable": false,
      "stateMutability": "view",
      "type": "function"
    },
    {
      "constant": true,
      "inputs": [
        {
          "name": "",
          "type": "uint256"
        }
      ],
      "name": "ticketsArray",
      "outputs": [
        {
          "name": "mu",
          "type": "string"
        },
        {
          "name": "i",
          "type": "string"
        },
        {
          "name": "ticketValue",
          "type": "uint256"
        },
        {
          "name": "owner",
          "type": "address"
        },
        {
          "name": "drawID",
          "type": "uint256"
        }
      ],
      "payable": false,
      "stateMutability": "view",
      "type": "function"
    },
    {
      "constant": true,
      "inputs": [],
      "name": "j",
      "outputs": [
        {
          "name": "",
          "type": "string"
        }
      ],
      "payable": false,
      "stateMutability": "view",
      "type": "function"
    },
    {
      "constant": false,
      "inputs": [
        {
          "name": "_mu",
          "type": "string"
        },
        {
          "name": "_i",
          "type": "string"
        },
        {
          "name": "_ticketValue",
          "type": "uint256"
        },
        {
          "name": "_ticketOwner",
          "type": "address"
        },
        {
          "name": "_drawNumber",
          "type": "uint256"
        }
      ],
      "name": "insertCustomizedTicket",
      "outputs": [
        {
          "name": "",
          "type": "uint256"
        }
      ],
      "payable": false,
      "stateMutability": "nonpayable",
      "type": "function"
    },
    {
      "constant": true,
      "inputs": [],
      "name": "initialLucky7TicketPosition",
      "outputs": [
        {
          "name": "",
          "type": "uint256"
        }
      ],
      "payable": false,
      "stateMutability": "view",
      "type": "function"
    },
    {
      "constant": false,
      "inputs": [
        {
          "name": "_newValue",
          "type": "uint256"
        }
      ],
      "name": "modifySellTicketPrice",
      "outputs": [],
      "payable": false,
      "stateMutability": "nonpayable",
      "type": "function"
    },
    {
      "constant": false,
      "inputs": [],
      "name": "_cleanMappings",
      "outputs": [],
      "payable": false,
      "stateMutability": "nonpayable",
      "type": "function"
    },
    {
      "constant": true,
      "inputs": [],
      "name": "indexForLucky7Array",
      "outputs": [
        {
          "name": "",
          "type": "uint256"
        }
      ],
      "payable": false,
      "stateMutability": "view",
      "type": "function"
    },
    {
      "constant": true,
      "inputs": [
        {
          "name": "",
          "type": "uint256"
        }
      ],
      "name": "lucky7TicketsArray",
      "outputs": [
        {
          "name": "difference",
          "type": "uint256"
        },
        {
          "name": "owner",
          "type": "address"
        },
        {
          "name": "ticketID",
          "type": "uint256"
        },
        {
          "name": "ticketValue",
          "type": "uint256"
        },
        {
          "name": "lucky7Number",
          "type": "uint256"
        },
        {
          "name": "lucky7NumberID",
          "type": "uint256"
        },
        {
          "name": "drawID",
          "type": "uint256"
        }
      ],
      "payable": false,
      "stateMutability": "view",
      "type": "function"
    },
    {
      "constant": false,
      "inputs": [
        {
          "name": "_newValue",
          "type": "uint256"
        }
      ],
      "name": "modifyNumberOfLucky7Numbers",
      "outputs": [],
      "payable": false,
      "stateMutability": "nonpayable",
      "type": "function"
    },
    {
      "constant": false,
      "inputs": [
        {
          "name": "_newValue",
          "type": "uint256"
        }
      ],
      "name": "modifyOraclizeCustomGasPrice",
      "outputs": [],
      "payable": false,
      "stateMutability": "nonpayable",
      "type": "function"
    },
    {
      "constant": true,
      "inputs": [],
      "name": "generateTicketPrice",
      "outputs": [
        {
          "name": "",
          "type": "uint256"
        }
      ],
      "payable": false,
      "stateMutability": "view",
      "type": "function"
    },
    {
      "constant": true,
      "inputs": [],
      "name": "drawNumber",
      "outputs": [
        {
          "name": "",
          "type": "uint256"
        }
      ],
      "payable": false,
      "stateMutability": "view",
      "type": "function"
    },
    {
      "constant": true,
      "inputs": [],
      "name": "indexForExactLucky7Ticket",
      "outputs": [
        {
          "name": "",
          "type": "uint256"
        }
      ],
      "payable": false,
      "stateMutability": "view",
      "type": "function"
    },
    {
      "constant": false,
      "inputs": [
        {
          "name": "_ticketOwner",
          "type": "address"
        }
      ],
      "name": "_askForTicket",
      "outputs": [],
      "payable": false,
      "stateMutability": "nonpayable",
      "type": "function"
    },
    {
      "constant": true,
      "inputs": [],
      "name": "sellTicketPrice",
      "outputs": [
        {
          "name": "",
          "type": "uint256"
        }
      ],
      "payable": false,
      "stateMutability": "view",
      "type": "function"
    },
    {
      "constant": true,
      "inputs": [
        {
          "name": "",
          "type": "uint256"
        }
      ],
      "name": "lucky7TicketDifference",
      "outputs": [
        {
          "name": "",
          "type": "uint256"
        }
      ],
      "payable": false,
      "stateMutability": "view",
      "type": "function"
    },
    {
      "constant": true,
      "inputs": [
        {
          "name": "",
          "type": "uint256"
        }
      ],
      "name": "ExactLucky7TicketOwner",
      "outputs": [
        {
          "name": "",
          "type": "address"
        }
      ],
      "payable": false,
      "stateMutability": "view",
      "type": "function"
    },
    {
      "constant": false,
      "inputs": [
        {
          "name": "_newOwner",
          "type": "address"
        }
      ],
      "name": "transferOwnership",
      "outputs": [],
      "payable": false,
      "stateMutability": "nonpayable",
      "type": "function"
    },
    {
      "constant": true,
      "inputs": [
        {
          "name": "",
          "type": "address"
        }
      ],
      "name": "pendingWithdrawals",
      "outputs": [
        {
          "name": "",
          "type": "uint256"
        }
      ],
      "payable": false,
      "stateMutability": "view",
      "type": "function"
    },
    {
      "constant": false,
      "inputs": [],
      "name": "_deliverPrizes",
      "outputs": [],
      "payable": false,
      "stateMutability": "nonpayable",
      "type": "function"
    },
    {
      "constant": false,
      "inputs": [
        {
          "name": "_recipient",
          "type": "address"
        }
      ],
      "name": "destroyAndSend",
      "outputs": [],
      "payable": false,
      "stateMutability": "nonpayable",
      "type": "function"
    },
    {
      "constant": true,
      "inputs": [],
      "name": "currentTicketID",
      "outputs": [
        {
          "name": "",
          "type": "uint256"
        }
      ],
      "payable": false,
      "stateMutability": "view",
      "type": "function"
    },
    {
      "constant": true,
      "inputs": [],
      "name": "lastThirdPrizeAmount",
      "outputs": [
        {
          "name": "",
          "type": "uint256"
        }
      ],
      "payable": false,
      "stateMutability": "view",
      "type": "function"
    },
    {
      "constant": true,
      "inputs": [],
      "name": "lastThirdPrizeWinner",
      "outputs": [
        {
          "name": "",
          "type": "address"
        }
      ],
      "payable": false,
      "stateMutability": "view",
      "type": "function"
    },
    {
      "constant": false,
      "inputs": [
        {
          "name": "_ticketOwner",
          "type": "address"
        }
      ],
      "name": "_askForIParameter",
      "outputs": [],
      "payable": false,
      "stateMutability": "nonpayable",
      "type": "function"
    },
    {
      "inputs": [],
      "payable": true,
      "stateMutability": "payable",
      "type": "constructor"
    },
    {
      "payable": true,
      "stateMutability": "payable",
      "type": "fallback"
    },
    {
      "anonymous": false,
      "inputs": [
        {
          "indexed": false,
          "name": "description",
          "type": "string"
        }
      ],
      "name": "NewOraclizeQuery",
      "type": "event"
    },
    {
      "anonymous": false,
      "inputs": [
        {
          "indexed": false,
          "name": "muParameter",
          "type": "string"
        }
      ],
      "name": "NewMuReceived",
      "type": "event"
    },
    {
      "anonymous": false,
      "inputs": [
        {
          "indexed": false,
          "name": "iParameter",
          "type": "string"
        }
      ],
      "name": "NewIReceived",
      "type": "event"
    },
    {
      "anonymous": false,
      "inputs": [
        {
          "indexed": false,
          "name": "newTicket",
          "type": "string"
        }
      ],
      "name": "NewTicketReceived",
      "type": "event"
    },
    {
      "anonymous": false,
      "inputs": [
        {
          "indexed": false,
          "name": "description",
          "type": "string"
        }
      ],
      "name": "NewWolframQuery",
      "type": "event"
    },
    {
      "anonymous": false,
      "inputs": [
        {
          "indexed": false,
          "name": "ticketID",
          "type": "uint256"
        }
      ],
      "name": "NewLucky7Ticket",
      "type": "event"
    },
    {
      "anonymous": false,
      "inputs": [
        {
          "indexed": false,
          "name": "value",
          "type": "uint256"
        }
      ],
      "name": "NewLucky7Number",
      "type": "event"
    },
    {
      "anonymous": false,
      "inputs": [
        {
          "indexed": false,
          "name": "describe",
          "type": "string"
        },
        {
          "indexed": false,
          "name": "_oldValue",
          "type": "uint256"
        },
        {
          "indexed": false,
          "name": "_newValue",
          "type": "uint256"
        }
      ],
      "name": "numberModified",
      "type": "event"
    },
    {
      "anonymous": false,
      "inputs": [
        {
          "indexed": false,
          "name": "describe",
          "type": "string"
        },
        {
          "indexed": false,
          "name": "_oldValue",
          "type": "string"
        },
        {
          "indexed": false,
          "name": "_newValue",
          "type": "string"
        }
      ],
      "name": "parameterModified",
      "type": "event"
    },
    {
      "anonymous": false,
      "inputs": [
        {
          "indexed": false,
          "name": "describe",
          "type": "string"
        },
        {
          "indexed": false,
          "name": "_oldValue",
          "type": "address"
        },
        {
          "indexed": false,
          "name": "_newValue",
          "type": "address"
        }
      ],
      "name": "walletModified",
      "type": "event"
    },
    {
      "anonymous": false,
      "inputs": [
        {
          "indexed": true,
          "name": "previousOwner",
          "type": "address"
        }
      ],
      "name": "OwnershipRenounced",
      "type": "event"
    },
    {
      "anonymous": false,
      "inputs": [
        {
          "indexed": true,
          "name": "previousOwner",
          "type": "address"
        },
        {
          "indexed": true,
          "name": "newOwner",
          "type": "address"
        }
      ],
      "name": "OwnershipTransferred",
      "type": "event"
    },
    {
      "constant": false,
      "inputs": [],
      "name": "sellRandomTicket",
      "outputs": [],
      "payable": true,
      "stateMutability": "payable",
      "type": "function"
    },
    {
      "constant": false,
      "inputs": [],
      "name": "generateRandomTicket",
      "outputs": [],
      "payable": true,
      "stateMutability": "payable",
      "type": "function"
    },
    {
      "constant": false,
      "inputs": [],
      "name": "sellGeneratedTicket",
      "outputs": [],
      "payable": true,
      "stateMutability": "payable",
      "type": "function"
    }
  ],
  "bytecode": "0x60c0604052600160808190527f310000000000000000000000000000000000000000000000000000000000000060a09081526200003e919081620001db565b506040805180820190915260018082527f380000000000000000000000000000000000000000000000000000000000000060209092019182526200008591600291620001db565b506040805180820190915260058082527f31303030300000000000000000000000000000000000000000000000000000006020909201918252620000cc91600391620001db565b506040805180820190915260028082527f323000000000000000000000000000000000000000000000000000000000000060209092019182526200011391600491620001db565b50600760058190556611c37937e08000600655662aa1efb94e00009055620493e060085563ee6b280060095560008054600a8054600160a060020a0319908116600160a060020a038416179091556010805460ff191660011790556039839055603a839055603b839055603c839055603d839055603e805482169055603f80548216905560408054821690556041839055604283905560438390559081163317909155600b805490911673d1a269d9b0dfb66cfdaf89cf0c6e6f8df0615ad017905562000280565b828054600181600116156101000203166002900490600052602060002090601f016020900481019282601f106200021e57805160ff19168380011785556200024e565b828001600101855582156200024e579182015b828111156200024e57825182559160200191906001019062000231565b506200025c92915062000260565b5090565b6200027d91905b808211156200025c576000815560010162000267565b90565b6158f580620002906000396000f3006080604052600436106102fd5763ffffffff60e060020a6000350416630b8ec74081146102ff5780630d0a4b7f1461030757806310cd4b8a1461031f57806315968e56146103495780631827f45d1461035e5780631c3ed1d3146103765780631cf4c3d1146103aa5780631ded3bec146103bf57806323d370ba146103c757806327dc297e146103e85780632caf9eee146104465780632de729eb1461046f5780632e52d6061461048757806338bbfa501461051157806339df3f4f146105ad5780633ccfd60b146105c257806340014911146105d757806349f6b030146105ec5780634acfd9b81461060d5780634df7e3d01461072c57806350b9c42814610741578063580709511461075657806359f9fe82146107775780635fff9ae31461078c578063715018a61461083157806372c3477d14610846578063741606b51461084e57806375edd2571461086357806377d8a830146108785780637fd4ecde14610899578063809fc153146108ae57806383197ef0146108c65780638a1dd740146108db5780638aa5fafa146108f35780638ce3da3c1461090b5780638da5cb5b1461092357806390c31c4c1461093857806396853e131461094d578063980d988c14610a515780639932f11914610a665780639ac2bf9114610a7b5780639ae8886a14610a90578063b4f8eadd14610aa5578063b582ec5f14610bb8578063bb4127e814610bcd578063bb49516b14610c79578063bcb740ab14610c8e578063c53d6e4714610ca6578063c56969ab14610cbb578063c629dad914610cd0578063c71f04ac14610d28578063d383e86214610d40578063d566bcf014610d58578063d80ffb2014610d6d578063d84ca03a14610d82578063ddc110fa14610d97578063e5663c4814610db8578063e802ae1414610dcd578063eaaa680a14610de5578063f2fde38b14610dfd578063f3f4370314610e1e578063f405228914610e3f578063f5074f4114610e54578063f53c7d0814610e75578063f5ac6a1114610e8a578063fc22d3e414610e9f578063fd9be1b214610eb4575b005b6102fd610ed5565b34801561031357600080fd5b506102fd600435611091565b34801561032b57600080fd5b506103376004356110ad565b60408051918252519081900360200190f35b34801561035557600080fd5b506103376110bf565b34801561036a57600080fd5b506102fd6004356110c5565b34801561038257600080fd5b5061038e6004356110e1565b60408051600160a060020a039092168252519081900360200190f35b3480156103b657600080fd5b506102fd6110fc565b6102fd6114d6565b3480156103d357600080fd5b506102fd600160a060020a0360043516611545565b3480156103f457600080fd5b5060408051602060046024803582810135601f81018590048502860185019096528585526102fd9583359536956044949193909101919081908401838280828437509497506116579650505050505050565b34801561045257600080fd5b5061045b611c08565b604080519115158252519081900360200190f35b34801561047b57600080fd5b506102fd600435611c11565b34801561049357600080fd5b5061049c611f70565b6040805160208082528351818301528351919283929083019185019080838360005b838110156104d65781810151838201526020016104be565b50505050905090810190601f1680156105035780820380516001836020036101000a031916815260200191505b509250505060405180910390f35b34801561051d57600080fd5b5060408051602060046024803582810135601f81018590048502860185019096528585526102fd95833595369560449491939091019190819084018382808284375050604080516020601f89358b018035918201839004830284018301909452808352979a999881019791965091820194509250829150840183828082843750949750611ffb9650505050505050565b3480156105b957600080fd5b506102fd612000565b3480156105ce57600080fd5b506102fd61202b565b3480156105e357600080fd5b506102fd61206c565b3480156105f857600080fd5b506102fd600160a060020a03600435166120be565b34801561061957600080fd5b5061062e600160a060020a036004351661216d565b604080519081018590528315156060820152821515608082015281151560a082015260c08082528751908201528651819060208083019160e08401918b019080838360005b8381101561068b578181015183820152602001610673565b50505050905090810190601f1680156106b85780820380516001836020036101000a031916815260200191505b5083810382528851815288516020918201918a019080838360005b838110156106eb5781810151838201526020016106d3565b50505050905090810190601f1680156107185780820380516001836020036101000a031916815260200191505b509850505050505050505060405180910390f35b34801561073857600080fd5b5061049c6122cd565b34801561074d57600080fd5b50610337612327565b34801561076257600080fd5b506102fd600160a060020a036004351661232d565b34801561078357600080fd5b5061033761234f565b34801561079857600080fd5b5060408051602060046024803582810135601f81018590048502860185019096528585526102fd95833595369560449491939091019190819084018382808284375050604080516020601f89358b018035918201839004830284018301909452808352979a9998810197919650918201945092508291508401838280828437509497505084359550505060209092013591506123559050565b34801561083d57600080fd5b506102fd6123f1565b6102fd612450565b34801561085a57600080fd5b5061038e61248c565b34801561086f57600080fd5b506102fd61249b565b34801561088457600080fd5b506102fd600160a060020a03600435166128dd565b3480156108a557600080fd5b5061038e6128ef565b3480156108ba57600080fd5b506102fd6004356128fe565b3480156108d257600080fd5b506102fd61297f565b3480156108e757600080fd5b506103376004356129a4565b3480156108ff57600080fd5b506102fd6004356129b6565b34801561091757600080fd5b50610337600435612a37565b34801561092f57600080fd5b5061038e612a49565b34801561094457600080fd5b506102fd612a58565b34801561095957600080fd5b50610965600435612acf565b604051808060200180602001858152602001848152602001838103835287818151815260200191508051906020019080838360005b838110156109b257818101518382015260200161099a565b50505050905090810190601f1680156109df5780820380516001836020036101000a031916815260200191505b50838103825286518152865160209182019188019080838360005b83811015610a125781810151838201526020016109fa565b50505050905090810190601f168015610a3f5780820380516001836020036101000a031916815260200191505b50965050505050505060405180910390f35b348015610a5d57600080fd5b5061038e612c1b565b348015610a7257600080fd5b50610337612c2a565b348015610a8757600080fd5b50610337612c30565b348015610a9c57600080fd5b5061049c612c36565b348015610ab157600080fd5b50610abd600435612c91565b60408051908101849052600160a060020a03831660608201526080810182905260a08082528651908201528551819060208083019160c08401918a019080838360005b83811015610b18578181015183820152602001610b00565b50505050905090810190601f168015610b455780820380516001836020036101000a031916815260200191505b50838103825287518152875160209182019189019080838360005b83811015610b78578181015183820152602001610b60565b50505050905090810190601f168015610ba55780820380516001836020036101000a031916815260200191505b5097505050505050505060405180910390f35b348015610bc457600080fd5b5061049c612dfe565b348015610bd957600080fd5b506040805160206004803580820135601f810184900484028501840190955284845261033794369492936024939284019190819084018382808284375050604080516020601f89358b018035918201839004830284018301909452808352979a99988101979196509182019450925082915084018382808284375094975050843595505050506020820135600160a060020a031691604001359050612e59565b348015610c8557600080fd5b50610337612f5a565b348015610c9a57600080fd5b506102fd600435612f60565b348015610cb257600080fd5b506102fd612fe1565b348015610cc757600080fd5b5061033761314c565b348015610cdc57600080fd5b50610ce8600435613152565b60408051978852600160a060020a039096166020880152868601949094526060860192909252608085015260a084015260c0830152519081900360e00190f35b348015610d3457600080fd5b506102fd6004356131a9565b348015610d4c57600080fd5b506102fd60043561322a565b348015610d6457600080fd5b506103376132d1565b348015610d7957600080fd5b506103376132d7565b348015610d8e57600080fd5b506103376132dd565b348015610da357600080fd5b506102fd600160a060020a03600435166132e3565b348015610dc457600080fd5b506103376133ca565b348015610dd957600080fd5b506103376004356133d0565b348015610df157600080fd5b5061038e6004356133e2565b348015610e0957600080fd5b506102fd600160a060020a03600435166133fd565b348015610e2a57600080fd5b50610337600160a060020a036004351661341d565b348015610e4b57600080fd5b506102fd61342f565b348015610e6057600080fd5b506102fd600160a060020a036004351661383f565b348015610e8157600080fd5b50610337613862565b348015610e9657600080fd5b50610337613868565b348015610eab57600080fd5b5061038e61386e565b348015610ec057600080fd5b506102fd600160a060020a036004351661387d565b6007543390341015610ee657600080fd5b600160a060020a0381166000908152602f60205260409020600301805462ff000019166201000017905560105460ff1615610f2057600080fd5b60408051336000908152602f6020529190912080547fc5d2460186f7233c927e7db2dcc703c0e500b653ca82273b7bfad8045d85a470929081908390600261010060018316150260001901909116048015610fb25780601f10610f90576101008083540402835291820191610fb2565b820191906000526020600020905b815481529060010190602001808311610f9e575b50509150506040518091039020600019161415801561107a575060408051336000908152602f60205291909120600190810180547fc5d2460186f7233c927e7db2dcc703c0e500b653ca82273b7bfad8045d85a4709391928291849160026101009183161591909102600019019091160480156110665780601f10611044576101008083540402835291820191611066565b820191906000526020600020905b815481529060010190602001808311611052575b505091505060405180910390206000191614155b151561108557600080fd5b61108e336132e3565b50565b600054600160a060020a031633146110a857600080fd5b603c55565b60356020526000908152604090205481565b60425481565b600054600160a060020a031633146110dc57600080fd5b603a55565b603460205260009081526040902054600160a060020a031681565b61110461572c565b60008054819081908190600160a060020a0316331461112257600080fd5b600092505b600554831015611254576040805160e0810182526000858152603360209081528382205483528682526034815283822054600160a060020a031681840152868252603580825284832054948401859052918790525260128054601193606084019291811061119157fe5b90600052602060002090600502016002015481526020016013866007811015156111b757fe5b600490810291909101600290810154835260208084018990526039546040948501528554600180820188556000978852968290208651600790920201908155908501518187018054600160a060020a031916600160a060020a0390921691909117905592840151908301556060830151600383015560808301519082015560a0820151600582015560c09091015160069091015590920191611127565b603c5491505b603c54600554018210156114cf5781935060118281548110151561127a57fe5b60009182526020918290206040805160e081018252600790930290910180548352600180820154600160a060020a0316948401949094526002810154918301919091526003810154606083015260048101546080830152600581015460a08301526006015460c08201529550820190505b603c54600554018110156113a457601180548290811061130757fe5b60009182526020909120600790910201548551111561139c57601180548290811061132e57fe5b60009182526020918290206040805160e0810182526007909302909101805483526001810154600160a060020a0316938301939093526002830154908201526003820154606082015260048201546080820152600582015460a082015260069091015460c082015294509250825b6001016112eb565b8382146114c45760118054839081106113b957fe5b90600052602060002090600702016011858154811015156113d657fe5b6000918252602090912082546007909202019081556001808301549082018054600160a060020a031916600160a060020a0390921691909117905560028083015490820155600380830154908201556004808301549082015560058083015490820155600691820154910155601180548691908490811061145357fe5b600091825260209182902083516007929092020190815590820151600182018054600160a060020a031916600160a060020a0390921691909117905560408201516002820155606082015160038201556080820151600482015560a0820151600582015560c0909101516006909101555b60019091019061125a565b5050505050565b60075433903410156114e757600080fd5b600160a060020a0381166000908152602f60205260408082206003908101805462ff00001916620100001790553380845291909220909101805461ffff1916905560105460ff161561153857600080fd5b611541336128dd565b5050565b6000611552600954613991565b604080516020808252808201527f41736b696e6720666f722061206e6577206d7520706172616d657465722e2e2e8183015290517f096835e36c2ccea88ff2b3aca87dfc938b977e52ea656873ff76a8dba50d4d349181900360600190a16116276040805190810160405280600c81526020017f576f6c6672616d416c70686100000000000000000000000000000000000000008152506040805190810160405280600f81526020017f342072616e646f6d206e756d6265720000000000000000000000000000000000815250600854613b79565b60009081526030602052604090208054600160a060020a031916600160a060020a03939093169290921790915550565b61165f613f7e565b600160a060020a0316331461167357600080fd5b600082815260306020526040902054600160a060020a0316158015906116c15750600082815260306020908152604080832054600160a060020a03168352602f90915290206003015460ff16155b1561185e57600082815260306020908152604080832054600160a060020a03168352602f825290912082516116f892840190615773565b507f6a28dd23c76ba6cc6f4f148a0e2e0e147d8b876cb74ec1e5e2b8e9a8119eb702816040518080602001828103825283818151815260200191508051906020019080838360005b83811015611758578181015183820152602001611740565b50505050905090810190601f1680156117855780820380516001836020036101000a031916815260200191505b509250505060405180910390a160008281526030602090815260408083208054600160a060020a039081168552602f9093528184206003908101805460ff191660019081179091559154909316845292200154610100900460ff1615151480156118335750600082815260306020908152604080832054600160a060020a03168352602f90915290206003015460ff6201000090910416151560011480611833575060105460ff1615156001145b156118595760008281526030602052604090205461185990600160a060020a03166132e3565b611541565b600082815260316020526040902054600160a060020a0316158015906118b15750600082815260316020908152604080832054600160a060020a03168352602f909152902060030154610100900460ff16155b15611a4c57600082815260316020908152604080832054600160a060020a03168352602f825290912082516118ee92600190920191840190615773565b507f716a554dec57e3a217a923b974660c0c8ebee07b09b1ac7d4a3a8f328d10cc89816040518080602001828103825283818151815260200191508051906020019080838360005b8381101561194e578181015183820152602001611936565b50505050905090810190601f16801561197b5780820380516001836020036101000a031916815260200191505b509250505060405180910390a160008281526031602090815260408083208054600160a060020a039081168552602f9093528184206003908101805461ff00191661010017905590549092168352909120015460ff1615156001148015611a265750600082815260316020908152604080832054600160a060020a03168352602f90915290206003015460ff6201000090910416151560011480611a26575060105460ff1615156001145b156118595760008281526031602052604090205461185990600160a060020a03166132e3565b600082815260326020526040902054600160a060020a031615801590611ab65750600082815260326020908152604080832054600160a060020a03168352602f90915290206003015460ff6201000090910416151560011480611ab6575060105460ff1615156001145b1561154157611ac481614174565b600083815260326020908152604080832054600160a060020a03168352602f825280832060020193909355825181815284518183015284517f0efef3a277391dda0d5747fd15566e85fcd8a4fb588d9853173841e45cc5ae8a9486949293849391840192908601918190849084905b83811015611b4b578181015183820152602001611b33565b50505050905090810190601f168015611b785780820380516001836020036101000a031916815260200191505b509250505060405180910390a1600082815260326020908152604080832054600160a060020a03168352602f9091529020600301805462ff00001916905560105460ff16151560011415611be75760008281526032602052604090205461185990600160a060020a0316614187565b60008281526032602052604090205461154190600160a060020a03166143e8565b60105460ff1681565b6000806000806013600160055403600781101515611c2b57fe5b6004020160020154601286815481101515611c4257fe5b9060005260206000209060050201600201541115611cb157600554600019019350611caa60138560078110611c7357fe5b6004020160020154601287815481101515611c8a57fe5b90600052602060002090600502016002015461462390919063ffffffff16565b9250611df7565b6015546012805487908110611cc257fe5b9060005260206000209060050201600201541015611d275760009350611caa601286815481101515611cf057fe5b906000526020600020906005020160020154601386600781101515611d1157fe5b600402016002015461462390919063ffffffff16565b60138460078110611d3457fe5b6004020160020154601286815481101515611d4b57fe5b9060005260206000209060050201600201541115611d6e57600190930192611d27565b60138460078110611d7b57fe5b6004020160020154601286815481101515611d9257fe5b9060005260206000209060050201600201541415611db35760009250611df7565b611dc76013600019860160078110611c7357fe5b9150611ddb601286815481101515611cf057fe5b905081811115611df357600184039350819250611df7565b8092505b600084815260346020526040902054600160a060020a03161580611e28575060008481526033602052604090205483105b15611ec3576012805486908110611e3b57fe5b60009182526020808320600360059093020191909101548683526034825260408084208054600160a060020a031916600160a060020a0390931692909217909155603382528083208690556035825291829020879055815187815291517fed4436a39d9a77d0c6c3be4f0e28f018750eb25c5c2d30ded16ef07ced4c00719281900390910190a15b8215156114cf576012805486908110611ed857fe5b6000918252602080832060036005909302019190910154603b548352603790915260409091208054600160a060020a031916600160a060020a039092169190911790556012805486908110611f2957fe5b6000918252602080832060026005909302019190910154603b8054845260368352604080852092909255805484526038909252909120869055805460010190555050505050565b6002805460408051602060018416156101000260001901909316849004601f81018490048402820184019092528181529291830182828015611ff35780601f10611fc857610100808354040283529160200191611ff3565b820191906000526020600020905b815481529060010190602001808311611fd657829003601f168201915b505050505081565b505050565b600054600160a060020a0316331461201757600080fd5b6010805460ff19811660ff90911615179055565b33600081815260446020526040808220805490839055905190929183156108fc02918491818181858888f19350505050158015611541573d6000803e3d6000fd5b600054600160a060020a0316331461208357600080fd5b61208b612000565b6120936110fc565b61209b61342f565b6120a3612fe1565b6039805460010190819055600554603c805491909202019055565b60008054600160a060020a031633146120d657600080fd5b50600a8054600160a060020a03838116600160a060020a0319831681179093556040805191909216602082018190528183019390935260608082526019908201527f456e74657270726973652077616c6c6574206368616e67656400000000000000608082015290517f223db053947bb148de510715d3c7d8ccd72bdd376752fd735ee7bd0bd0ece5bf9181900360a00190a15050565b602f6020908152600091825260409182902080548351601f600260001961010060018616150201909316929092049182018490048402810184019094528084529092918391908301828280156122045780601f106121d957610100808354040283529160200191612204565b820191906000526020600020905b8154815290600101906020018083116121e757829003601f168201915b505050505090806001018054600181600116156101000203166002900480601f0160208091040260200160405190810160405280929190818152602001828054600181600116156101000203166002900480156122a25780601f10612277576101008083540402835291602001916122a2565b820191906000526020600020905b81548152906001019060200180831161228557829003601f168201915b50505050600283015460039093015491929160ff808216925061010082048116916201000090041686565b60018054604080516020600284861615610100026000190190941693909304601f81018490048402820184019092528181529291830182828015611ff35780601f10611fc857610100808354040283529160200191611ff3565b60085481565b600b8054600160a060020a031916600160a060020a0392909216919091179055565b60055481565b600054600160a060020a0316331461236c57600080fd5b6040805160808101825285815260208101859052908101839052606081018290526013866007811061239a57fe5b6004020160008201518160000190805190602001906123ba929190615773565b5060208281015180516123d39260018501920190615773565b50604082015160028201556060909101516003909101555050505050565b600054600160a060020a0316331461240857600080fd5b60008054604051600160a060020a03909116917ff8df31144d9c2f0f6b59d69b8b98abd5459d07f2742c4df920b25aae33c6482091a260008054600160a060020a0319169055565b600654339034101561246157600080fd5b336000818152602f60205260409020600301805461ffff1916905560105460ff161561153857600080fd5b600a54600160a060020a031681565b6124a36157f1565b6000805481908190600160a060020a031633146124bf57600080fd5b5060005b6005548110156128d757915081601381600781106124dd57fe5b6040805160049290920292909201805460a06020601f60026000196101006001871615020190941693909304928301819004028401810190945260808301818152929391928492909184918401828280156125795780601f1061254e57610100808354040283529160200191612579565b820191906000526020600020905b81548152906001019060200180831161255c57829003601f168201915b50505050508152602001600182018054600181600116156101000203166002900480601f01602080910402602001604051908101604052809291908181526020018280546001816001161561010002031660029004801561261b5780601f106125f05761010080835404028352916020019161261b565b820191906000526020600020905b8154815290600101906020018083116125fe57829003601f168201915b505050505081526020016002820154815260200160038201548152505093508060010191505b6005548210156127e4576013826007811061265857fe5b6004020160020154846040015111156127d9576013826007811061267857fe5b6040805160049290920292909201805460a06020601f60026000196101006001871615020190941693909304928301819004028401810190945260808301818152929391928492909184918401828280156127145780601f106126e957610100808354040283529160200191612714565b820191906000526020600020905b8154815290600101906020018083116126f757829003601f168201915b50505050508152602001600182018054600181600116156101000203166002900480601f0160208091040260200160405190810160405280929190818152602001828054600181600116156101000203166002900480156127b65780601f1061278b576101008083540402835291602001916127b6565b820191906000526020600020905b81548152906001019060200180831161279957829003601f168201915b505050505081526020016002820154815260200160038201548152505093508192505b600190910190612641565b8281146128cf57601381600781106127f857fe5b600402016013846007811061280957fe5b600402016000820181600001908054600181600116156101000203166002900461283492919061581a565b506001820181600101908054600181600116156101000203166002900461285c92919061581a565b5060028281015490820155600391820154910155836013826007811061287e57fe5b60040201600082015181600001908051906020019061289e929190615773565b5060208281015180516128b79260018501920190615773565b50604082015160028201556060909101516003909101555b6001016124c3565b50505050565b6128e681611545565b61108e8161387d565b603f54600160a060020a031681565b60008054600160a060020a0316331461291657600080fd5b50600880549082905560408051602081018390528082018490526060808252601a908201527f4f7261636c697a6520676173206c696d6974206368616e676564000000000000608082015290516000805160206158aa8339815191529181900360a00190a15050565b600054600160a060020a0316331461299657600080fd5b600054600160a060020a0316ff5b60366020526000908152604090205481565b60008054600160a060020a031633146129ce57600080fd5b50600680549082905560408051602081018390528082018490526060808252601d908201527f47656e6572617465207469636b6574207072696365206368616e676564000000608082015290516000805160206158aa8339815191529181900360a00190a15050565b60386020526000908152604090205481565b600054600160a060020a031681565b600054600160a060020a03163314612a6f57600080fd5b60105460ff161515600114612a8357600080fd5b600554603a541415612aa957612a9761249b565b6000603a55612aa4612000565b612acd565b306000818152602f60205260409020600301805461ffff19169055612acd906128dd565b565b60138160078110612adc57fe5b60040201805460408051602060026001851615610100026000190190941693909304601f81018490048402820184019092528181529293508391830182828015612b675780601f10612b3c57610100808354040283529160200191612b67565b820191906000526020600020905b815481529060010190602001808311612b4a57829003601f168201915b505050505090806001018054600181600116156101000203166002900480601f016020809104026020016040519081016040528092919081815260200182805460018160011615610100020316600290048015612c055780601f10612bda57610100808354040283529160200191612c05565b820191906000526020600020905b815481529060010190602001808311612be857829003601f168201915b5050505050908060020154908060030154905084565b603e54600160a060020a031681565b60415481565b60095481565b6003805460408051602060026001851615610100026000190190941693909304601f81018490048402820184019092528181529291830182828015611ff35780601f10611fc857610100808354040283529160200191611ff3565b6012805482908110612c9f57fe5b60009182526020918290206005919091020180546040805160026001841615610100026000190190931692909204601f810185900485028301850190915280825291935091839190830182828015612d385780601f10612d0d57610100808354040283529160200191612d38565b820191906000526020600020905b815481529060010190602001808311612d1b57829003601f168201915b505050505090806001018054600181600116156101000203166002900480601f016020809104026020016040519081016040528092919081815260200182805460018160011615610100020316600290048015612dd65780601f10612dab57610100808354040283529160200191612dd6565b820191906000526020600020905b815481529060010190602001808311612db957829003601f168201915b505050506002830154600384015460049094015492939092600160a060020a03909116915085565b6004805460408051602060026001851615610100026000190190941693909304601f81018490048402820184019092528181529291830182828015611ff35780601f10611fc857610100808354040283529160200191611ff3565b600080548190600160a060020a03163314612e7357600080fd5b6040805160a0810182528881526020808201899052918101879052600160a060020a03861660608201526080810185905260128054600181810180845560009390935283518051919593949360059093027fbb8a6a4669ba250d26cd7a459eca9d215f8307e33aebe50379bc5a3617ec34440192612ef692849290910190615773565b506020828101518051612f0f9260018501920190615773565b50604082015160028201556060820151600382018054600160a060020a031916600160a060020a0390921691909117905560809091015160049091015503603d555095945050505050565b603c5481565b60008054600160a060020a03163314612f7857600080fd5b506007805490829055604080516020810183905280820184905260608082526019908201527f53656c6c207469636b6574207072696365206368616e67656400000000000000608082015290516000805160206158aa8339815191529181900360a00190a15050565b60005b600554811015613144576000818152603360209081526040808320839055603482528083208054600160a060020a031916905560358252808320929092558151808301909252600182527f3000000000000000000000000000000000000000000000000000000000000000908201526013826007811061306057fe5b60040201600001908051906020019061307a929190615773565b5060408051808201909152600181527f30000000000000000000000000000000000000000000000000000000000000006020820152601382600781106130bc57fe5b6004020160010190805190602001906130d6929190615773565b506000601382600781106130e657fe5b600402016002018190555060395460138260078110151561310357fe5b60040201600301556000818152603660209081526040808320839055603782528083208054600160a060020a03191690556038909152812055600101612fe4565b506000603b55565b603a5481565b601180548290811061316057fe5b60009182526020909120600790910201805460018201546002830154600384015460048501546005860154600690960154949650600160a060020a039093169491939092919087565b60008054600160a060020a031633146131c157600080fd5b506005805490829055604080516020810183905280820184905260608082526019908201527f53656c6c207469636b6574207072696365206368616e67656400000000000000608082015290516000805160206158aa8339815191529181900360a00190a15050565b60008054600160a060020a0316331461324257600080fd5b506009805490829055604080516020810183905280820184905260608082526021908201527f4f7261636c697a6520637573746f6d20676173207072696365206368616e676560808201527f640000000000000000000000000000000000000000000000000000000000000060a082015290516000805160206158aa8339815191529181900360c00190a15050565b60065481565b60395481565b603b5481565b60006132f0600954613991565b604080516020808252601a908201527f41736b696e6720666f722061206e6577207469636b65742e2e2e0000000000008183015290517f096835e36c2ccea88ff2b3aca87dfc938b977e52ea656873ff76a8dba50d4d349181900360600190a161339a6040805190810160405280600c81526020017f576f6c6672616d416c706861000000000000000000000000000000000000000081525061339284614635565b600854613b79565b60009081526032602052604090208054600160a060020a031916600160a060020a03939093169290921790915550565b60075481565b60336020526000908152604090205481565b603760205260009081526040902054600160a060020a031681565b600054600160a060020a0316331461341457600080fd5b61108e81614f64565b60446020526000908152604090205481565b6000805481908190819081908190600160a060020a0316331461345157600080fd5b603e54600160a060020a03908116600090815260446020526040808220829055603f5483168252808220829055805490921681529081205561349b3031600763ffffffff614fd416565b95506134ae86600a63ffffffff614ffd16565b95506134c186600663ffffffff614fd416565b94506134d486600363ffffffff614fd416565b93506134e786600163ffffffff614fd416565b92506134fa85600a63ffffffff614ffd16565b945061350d84600a63ffffffff614ffd16565b935061352083600a63ffffffff614ffd16565b9250603c5491505b603c54600554018210156136085760118054600091908490811061354857fe5b6000918252602090912060016007909202010154600160a060020a0316146135fd57846044600060118581548110151561357e57fe5b6000918252602080832060016007909302019190910154600160a060020a03168352820192909252604001902080549091019055604185905560118054839081106135c557fe5b6000918252602090912060016007909202010154603e8054600160a060020a031916600160a060020a03909216919091179055613608565b600190910190613528565b6001909101905b603c54600554018210156136ef5760118054600091908490811061362f57fe5b6000918252602090912060016007909202010154600160a060020a0316146136e457836044600060118581548110151561366557fe5b6000918252602080832060016007909302019190910154600160a060020a03168352820192909252604001902080549091019055604284905560118054839081106136ac57fe5b6000918252602090912060016007909202010154603f8054600160a060020a031916600160a060020a039092169190911790556136ef565b60019091019061360f565b6001909101905b603c54600554018210156137d65760118054600091908490811061371657fe5b6000918252602090912060016007909202010154600160a060020a0316146137cb57826044600060118581548110151561374c57fe5b6000918252602080832060016007909302019190910154600160a060020a031683528201929092526040019020805490910190556043839055601180548390811061379357fe5b600091825260209091206001600790920201015460408054600160a060020a031916600160a060020a039092169190911790556137d6565b6001909101906136f6565b6137e83031600363ffffffff614fd416565b90506137fb81600a63ffffffff614ffd16565b600a54604051919250600160a060020a03169082156108fc029083906000818181858888f19350505050158015613836573d6000803e3d6000fd5b50505050505050565b600054600160a060020a0316331461385657600080fd5b80600160a060020a0316ff5b603d5481565b60435481565b604054600160a060020a031681565b600061388a600954613991565b604080516020808252601f908201527f41736b696e6720666f722061206e6577206920706172616d657465722e2e2e008183015290517f096835e36c2ccea88ff2b3aca87dfc938b977e52ea656873ff76a8dba50d4d349181900360600190a16139616040805190810160405280600c81526020017f576f6c6672616d416c70686100000000000000000000000000000000000000008152506040805190810160405280600f81526020017f342072616e646f6d206e756d6265720000000000000000000000000000000000815250600854613b79565b60009081526031602052604090208054600160a060020a031916600160a060020a03939093169290921790915550565b600b54600160a060020a031615806139bb5750600b546139b990600160a060020a0316615012565b155b156139cc576139ca6000615016565b505b600b60009054906101000a9004600160a060020a0316600160a060020a03166338cc48316040518163ffffffff1660e060020a028152600401602060405180830381600087803b158015613a1f57600080fd5b505af1158015613a33573d6000803e3d6000fd5b505050506040513d6020811015613a4957600080fd5b5051600c54600160a060020a03908116911614613aff57600b60009054906101000a9004600160a060020a0316600160a060020a03166338cc48316040518163ffffffff1660e060020a028152600401602060405180830381600087803b158015613ab357600080fd5b505af1158015613ac7573d6000803e3d6000fd5b505050506040513d6020811015613add57600080fd5b5051600c8054600160a060020a031916600160a060020a039092169190911790555b600c54604080517fca6ad1e4000000000000000000000000000000000000000000000000000000008152600481018490529051600160a060020a039092169163ca6ad1e49160248082019260009290919082900301818387803b158015613b6557600080fd5b505af11580156114cf573d6000803e3d6000fd5b600b546000908190600160a060020a03161580613ba85750600b54613ba690600160a060020a0316615012565b155b15613bb957613bb76000615016565b505b600b60009054906101000a9004600160a060020a0316600160a060020a03166338cc48316040518163ffffffff1660e060020a028152600401602060405180830381600087803b158015613c0c57600080fd5b505af1158015613c20573d6000803e3d6000fd5b505050506040513d6020811015613c3657600080fd5b5051600c54600160a060020a03908116911614613cec57600b60009054906101000a9004600160a060020a0316600160a060020a03166338cc48316040518163ffffffff1660e060020a028152600401602060405180830381600087803b158015613ca057600080fd5b505af1158015613cb4573d6000803e3d6000fd5b505050506040513d6020811015613cca57600080fd5b5051600c8054600160a060020a031916600160a060020a039092169190911790555b600c54604080517f2ef3accc0000000000000000000000000000000000000000000000000000000081526024810186905260048101918252875160448201528751600160a060020a0390931692632ef3accc9289928892829160640190602086019080838360005b83811015613d6c578181015183820152602001613d54565b50505050905090810190601f168015613d995780820380516001836020036101000a031916815260200191505b509350505050602060405180830381600087803b158015613db957600080fd5b505af1158015613dcd573d6000803e3d6000fd5b505050506040513d6020811015613de357600080fd5b50519050670de0b6b3a76400003a840201811115613e045760009150613f76565b600c546040517fc51be90f00000000000000000000000000000000000000000000000000000000815260006004820181815260648301879052608060248401908152895160848501528951600160a060020a039095169463c51be90f948794938c938c938c93604481019160a49091019060208801908083838c5b83811015613e97578181015183820152602001613e7f565b50505050905090810190601f168015613ec45780820380516001836020036101000a031916815260200191505b50838103825285518152855160209182019187019080838360005b83811015613ef7578181015183820152602001613edf565b50505050905090810190601f168015613f245780820380516001836020036101000a031916815260200191505b5096505050505050506020604051808303818588803b158015613f4657600080fd5b505af1158015613f5a573d6000803e3d6000fd5b50505050506040513d6020811015613f7157600080fd5b505191505b509392505050565b600b54600090600160a060020a03161580613fab5750600b54613fa990600160a060020a0316615012565b155b15613fbc57613fba6000615016565b505b600b60009054906101000a9004600160a060020a0316600160a060020a03166338cc48316040518163ffffffff1660e060020a028152600401602060405180830381600087803b15801561400f57600080fd5b505af1158015614023573d6000803e3d6000fd5b505050506040513d602081101561403957600080fd5b5051600c54600160a060020a039081169116146140ef57600b60009054906101000a9004600160a060020a0316600160a060020a03166338cc48316040518163ffffffff1660e060020a028152600401602060405180830381600087803b1580156140a357600080fd5b505af11580156140b7573d6000803e3d6000fd5b505050506040513d60208110156140cd57600080fd5b5051600c8054600160a060020a031916600160a060020a039092169190911790555b600c60009054906101000a9004600160a060020a0316600160a060020a031663c281d19e6040518163ffffffff1660e060020a028152600401602060405180830381600087803b15801561414257600080fd5b505af1158015614156573d6000803e3d6000fd5b505050506040513d602081101561416c57600080fd5b505190505b90565b6000614181826000615020565b92915050565b60408051600160a060020a0383166000908152602f602090815290839020805460026001821615610100026000190190911604601f8101839004909202830160a09081019094526080830182815292938493929084018282801561422c5780601f106142015761010080835404028352916020019161422c565b820191906000526020600020905b81548152906001019060200180831161420f57829003601f168201915b50505050508152602001602f600084600160a060020a0316600160a060020a031681526020019081526020016000206001018054600181600116156101000203166002900480601f0160208091040260200160405190810160405280929190818152602001828054600181600116156101000203166002900480156142f25780601f106142c7576101008083540402835291602001916142f2565b820191906000526020600020905b8154815290600101906020018083116142d557829003601f168201915b5050509183525050600160a060020a0383166000908152602f60209081526040918290206002015490830152603954910152603a546013906007811061433457fe5b600402016000820151816000019080519060200190614354929190615773565b50602082810151805161436d9260018501920190615773565b50604082810151600280840191909155606090930151600390920191909155603a80546001019055600160a060020a0383166000908152602f60209081529082902090920154815190815290517fec2692b386f7e992f219e405f018eeaf8da1b95736760596812e564f2e709cfd929181900390910190a150565b60408051600160a060020a0383166000908152602f602090815283822080546002600180831615610100026000190190921604601f8101849004909302850160c090810190965260a08501838152939590946012949093849391928401828280156144945780601f1061446957610100808354040283529160200191614494565b820191906000526020600020905b81548152906001019060200180831161447757829003601f168201915b50505050508152602001602f600087600160a060020a0316600160a060020a031681526020019081526020016000206001018054600181600116156101000203166002900480601f01602080910402602001604051908101604052809291908181526020018280546001816001161561010002031660029004801561455a5780601f1061452f5761010080835404028352916020019161455a565b820191906000526020600020905b81548152906001019060200180831161453d57829003601f168201915b5050509183525050600160a060020a0386166000818152602f60209081526040808320600201548286015284019290925260395460609093019290925283546001810180865594835291819020835180516005909402909101926145c19284920190615773565b5060208281015180516145da9260018501920190615773565b50604082015160028201556060820151600382018054600160a060020a031916600160a060020a0390921691909117905560809091015160049091015503905061154181611c11565b60008282111561462f57fe5b50900390565b604080518082018252600c81527f286d6f642828312f2831305e000000000000000000000000000000000000000060208083019190915260028054845160018216156101000260001901909116829004601f8101849004840282018401909552848152606094859461480c94909391908301828280156146f65780601f106146cb576101008083540402835291602001916146f6565b820191906000526020600020905b8154815290600101906020018083116146d957829003601f168201915b505060408051808201825260018082527f2d00000000000000000000000000000000000000000000000000000000000000602080840191909152600160a060020a038d166000908152602f825284902080548551600294821615610100026000190190911693909304601f81018390048302840183019095528483529296509094509092508301828280156147cc5780601f106147a1576101008083540402835291602001916147cc565b820191906000526020600020905b8154815290600101906020018083116147af57829003601f168201915b50505050506040805190810160405280600681526020017f29292a31305e0000000000000000000000000000000000000000000000000000815250615192565b60038054604080516020601f600260001961010060018816150201909516949094049384018190048102820181019092528281529394506149a09385939092909183018282801561489e5780601f106148735761010080835404028352916020019161489e565b820191906000526020600020905b81548152906001019060200180831161488157829003601f168201915b5050604080518082018252600581527f2c31305e2800000000000000000000000000000000000000000000000000000060208083019190915260048054845160026001831615610100026000190190921691909104601f81018490048402820184019095528481529296509194509092508301828280156149605780601f1061493557610100808354040283529160200191614960565b820191906000526020600020905b81548152906001019060200180831161494357829003601f168201915b50505050506040805190810160405280600181526020017f2b00000000000000000000000000000000000000000000000000000000000000815250615192565b9050614b6181602f600086600160a060020a0316600160a060020a031681526020019081526020016000206001018054600181600116156101000203166002900480601f016020809104026020016040519081016040528092919081815260200182805460018160011615610100020316600290048015614a625780601f10614a3757610100808354040283529160200191614a62565b820191906000526020600020905b815481529060010190602001808311614a4557829003601f168201915b5050604080518082018252600e81527f29292d6d6f642828312f2831305e00000000000000000000000000000000000060208083019190915260028054845160018216156101000260001901909116829004601f8101849004840282018401909552848152929650919450909250830182828015614b215780601f10614af657610100808354040283529160200191614b21565b820191906000526020600020905b815481529060010190602001808311614b0457829003601f168201915b50505050506040805190810160405280600181526020017f2d00000000000000000000000000000000000000000000000000000000000000815250615192565b600160a060020a0384166000908152602f602090815260409182902080548351601f60026000196101006001861615020190931692909204918201849004840281018401909452808452939450614d0893859392830182828015614c065780601f10614bdb57610100808354040283529160200191614c06565b820191906000526020600020905b815481529060010190602001808311614be957829003601f168201915b5050604080518082018252600681527f29292a31305e000000000000000000000000000000000000000000000000000060208083019190915260038054845160026001831615610100026000190190921691909104601f8101849004840282018401909552848152929650919450909250830182828015614cc85780601f10614c9d57610100808354040283529160200191614cc8565b820191906000526020600020905b815481529060010190602001808311614cab57829003601f168201915b50505050506040805190810160405280600481526020017f2c31305e00000000000000000000000000000000000000000000000000000000815250615192565b60408051808201825260018082527f2800000000000000000000000000000000000000000000000000000000000000602080840191909152600160a060020a0388166000908152602f8252849020820180548551600294821615610100026000190190911693909304601f8101839004830284018301909552848352949550614ec39486949091830182828015614de05780601f10614db557610100808354040283529160200191614de0565b820191906000526020600020905b815481529060010190602001808311614dc357829003601f168201915b5050604080518082018252600781527f2929292f31305e00000000000000000000000000000000000000000000000000602080830191909152600160a060020a038d166000908152602f8252839020600190810180548551600293821615610100026000190190911692909204601f81018490048402830184019095528482529296509450909250830182828015614eb95780601f10614e8e57610100808354040283529160200191614eb9565b820191906000526020600020905b815481529060010190602001808311614e9c57829003601f168201915b5050505050615192565b90507f261af219212047633bb60c8d0cc7e33d217c38edf6fa7e53acb97a3f94180de5816040518080602001828103825283818151815260200191508051906020019080838360005b83811015614f24578181015183820152602001614f0c565b50505050905090810190601f168015614f515780820380516001836020036101000a031916815260200191505b509250505060405180910390a192915050565b600160a060020a0381161515614f7957600080fd5b60008054604051600160a060020a03808516939216917f8be0079c531659141344cd1fd0a4f28419497f9722a3daafe3b4186f6b6457e091a360008054600160a060020a031916600160a060020a0392909216919091179055565b6000821515614fe557506000614181565b50818102818382811515614ff557fe5b041461418157fe5b6000818381151561500a57fe5b049392505050565b3b90565b60006141816153f3565b6000828180805b83518110156151755783517f30000000000000000000000000000000000000000000000000000000000000009085908390811061506057fe5b90602001015160f860020a900460f860020a02600160f860020a031916101580156150d6575083517f3900000000000000000000000000000000000000000000000000000000000000908590839081106150b657fe5b90602001015160f860020a900460f860020a02600160f860020a03191611155b1561512f5781156150f5578515156150ed57615175565b600019909501945b600a830292506030848281518110151561510b57fe5b90602001015160f860020a900460f860020a0260f860020a9004038301925061516d565b838181518110151561513d57fe5b90602001015160f860020a900460f860020a02600160f860020a031916602e60f860020a02141561516d57600191505b600101615027565b60008611156151875785600a0a830292505b509095945050505050565b6060806060806060806060806000808e98508d97508c96508b95508a94508451865188518a518c51010101016040519080825280601f01601f1916602001820160405280156151eb578160200160208202803883390190505b50935083925060009150600090505b885181101561525857888181518110151561521157fe5b90602001015160f860020a900460f860020a02838380600101945081518110151561523857fe5b906020010190600160f860020a031916908160001a9053506001016151fa565b5060005b87518110156152ba57878181518110151561527357fe5b90602001015160f860020a900460f860020a02838380600101945081518110151561529a57fe5b906020010190600160f860020a031916908160001a90535060010161525c565b5060005b865181101561531c5786818151811015156152d557fe5b90602001015160f860020a900460f860020a0283838060010194508151811015156152fc57fe5b906020010190600160f860020a031916908160001a9053506001016152be565b5060005b855181101561537e57858181518110151561533757fe5b90602001015160f860020a900460f860020a02838380600101945081518110151561535e57fe5b906020010190600160f860020a031916908160001a905350600101615320565b5060005b84518110156153e057848181518110151561539957fe5b90602001015160f860020a900460f860020a0283838060010194508151811015156153c057fe5b906020010190600160f860020a031916908160001a905350600101615382565b50909d9c50505050505050505050505050565b600080615413731d3b2638a7cc9f2cb3d298a3da7a90b67e5506ed615012565b111561548357600b8054600160a060020a031916731d3b2638a7cc9f2cb3d298a3da7a90b67e5506ed178155604080518082019091529081527f6574685f6d61696e6e6574000000000000000000000000000000000000000000602082015261547b90615719565b506001614171565b60006154a273c03a2615d5efaf5f49f60b7bb6583eaec212fdf1615012565b111561550b57600b8054600160a060020a03191673c03a2615d5efaf5f49f60b7bb6583eaec212fdf117905560408051808201909152600c81527f6574685f726f707374656e330000000000000000000000000000000000000000602082015261547b90615719565b600061552a73b7a07bcf2ba2f2703b24c0691b5278999c59ac7e615012565b111561559357600b8054600160a060020a03191673b7a07bcf2ba2f2703b24c0691b5278999c59ac7e17905560408051808201909152600981527f6574685f6b6f76616e0000000000000000000000000000000000000000000000602082015261547b90615719565b60006155b273146500cfd35b22e4a392fe0adc06de1a1368ed48615012565b111561561a57600b8054600160a060020a03191673146500cfd35b22e4a392fe0adc06de1a1368ed48178155604080518082019091529081527f6574685f72696e6b656279000000000000000000000000000000000000000000602082015261547b90615719565b6000615639736f485c8bf6fc43ea212e93bbf8ce046c7f1cb475615012565b111561566d5750600b8054600160a060020a031916736f485c8bf6fc43ea212e93bbf8ce046c7f1cb4751790556001614171565b600061568c7320e12a1f859b3feae5fb2a0a32c18f5a65555bbf615012565b11156156c05750600b8054600160a060020a0319167320e12a1f859b3feae5fb2a0a32c18f5a65555bbf1790556001614171565b60006156df7351efaf4c8b3c9afbd5ab9f4bbc82784ab6ef8faa615012565b11156157135750600b8054600160a060020a0319167351efaf4c8b3c9afbd5ab9f4bbc82784ab6ef8faa1790556001614171565b50600090565b805161154190600d906020840190615773565b60e060405190810160405280600081526020016000600160a060020a0316815260200160008152602001600081526020016000815260200160008152602001600081525090565b828054600181600116156101000203166002900490600052602060002090601f016020900481019282601f106157b457805160ff19168380011785556157e1565b828001600101855582156157e1579182015b828111156157e15782518255916020019190600101906157c6565b506157ed92915061588f565b5090565b608060405190810160405280606081526020016060815260200160008152602001600081525090565b828054600181600116156101000203166002900490600052602060002090601f016020900481019282601f1061585357805485556157e1565b828001600101855582156157e157600052602060002091601f016020900482015b828111156157e1578254825591600101919060010190615874565b61417191905b808211156157ed576000815560010161589556009bc068999fb1a0aac007a9b44ca6322a376441f42706bf5163600bb3d1a73164a165627a7a72305820a61d1a0b4536bb6755206675d574117523e7d4a6af997e267ff4ebbbe9461a3b0029",
  "source": "/**\n  * @author Matias Barrios\n  * @version 1.0\n  */\n\n/** @title Lucky7Store. \n  * This contract contains all the functions to generate and sell tickets to the users.\n  * The front end interacts with this functions to make the necessary transactions to play the game.\n*/\n\npragma solidity ^0.4.20;\nimport \"./Lucky7Ballot.sol\";\nimport \"./Destructible.sol\";\n\ncontract Lucky7Store is Lucky7Ballot, Destructible{\n    /** @dev Constructor to make the contract payable\n      */\n    function Lucky7Store() payable public{\n        \n    }\n    /** @dev userBoughtTicket is a modifier to check if the user paid the necessary amount to buy a ticket.\n      */\n    modifier userBoughtTicket(address _ticketOwner){\n        require(msg.value >= sellTicketPrice);\n        userValues[_ticketOwner].userPaidTicket = true;\n        _;\n    }\n    \n    /** @dev userBoughtParameters is a modifier to check if the user paid the necessary amount to buy parameters, i.e. generate a ticket without buying it.\n      */\n    modifier userBoughtParameters(address _ticketOwner){\n        require(msg.value >= generateTicketPrice);\n        _;\n    }\n    \n    /** @dev setParametersToReady is a modifier to set the muReady and iReady booleans of the UserParametersValue of the Lucky7TicketFactory to false.\n      * This way, the user can call for new parameters or buy ticket without being rejected by teh oraclize's callback function of the Lucky7TicketFactory contract.\n      */\n    modifier setParametersToReady(address _ticketOwner){\n        userValues[_ticketOwner].muReady = false;\n        userValues[_ticketOwner].iReady = false;\n        _;\n    }\n    \n    /** @dev sellingIsActive is a modifier which acts as a circuit breaker. If the settingLucky7Number is true, i.e. the game is in setting Lucky7Numbers phase, then\n      * the users aren't allowed to buy tickets because the Lucky7Number are getting setted. Once the last Lucky7Number is setted and all them are ordered through the\n      * _orderLucky7Numbers function of the Lucky7Ballot contract, the settingLucky7Numbers is setted to false, which means that users are then allowed to buy tickets.\n      */\n    modifier sellingIsActive {\n        require(settingLucky7Numbers==false);\n        _;\n    }\n    //------------------------\n    \n    /** @dev sellRandomTicket is a function used to sell a random ticket to the user. It checks if the user sent the correct amount and if the game is not\n      * in the setting Lucky7Numbers phase. If so, then sets the user muReady and iReady of the UserParameters value of the Lucky7TicketFactory contract to false and \n      calls the _generateTicket function of the Lucky7TicketFactory contract with the msg.sender as the owner.\n      */\n    function sellRandomTicket() \n        public\n        payable \n        userBoughtTicket(msg.sender)\n        setParametersToReady(msg.sender)\n        sellingIsActive\n    {\n        _generateTicket(msg.sender);\n    }\n    \n    /** @dev generateRandomTicket is a function used to sell a parameters to the user without selling the ticket. It checks if the user sent the correct amount and \n      * if the game is not in the setting Lucky7Numbers phase. If so, then sets the user muReady and iReady of the UserParameters struct of the Lucky7TicketFactory \n      * contract to false and calls the _askForMuParameter and _askForIParamater functions of the Lucky7TicketFactory contract with the msg.sender as the owner.\n      */\n    function generateRandomTicket() \n        public \n        payable \n        userBoughtParameters(msg.sender)\n        setParametersToReady(msg.sender)\n        sellingIsActive\n    {\n        _generateTicket(msg.sender);\n    }\n    \n    /** @dev sellGeneratedTicket is a function used to sell the ticket generated through the parameters the user already bought. \n      * It checks if the user sent the correct amount and if the game is not in the setting Lucky7Numbers phase. \n      * If so, then sets the user muReady and iReady of the UserParameters struct of the Lucky7TicketFactory contract to false \n      * and calls the _generateTicket function of the Lucky7TicketFactory contract with the msg.sender as the owner.\n      */\n    function sellGeneratedTicket() \n        public \n        payable \n        userBoughtTicket(msg.sender)\n        sellingIsActive\n    {\n        require(keccak256(userValues[msg.sender].mu)!=keccak256('') && keccak256(userValues[msg.sender].i)!=keccak256(''));\n        _askForTicket(msg.sender);\n    }\n    \n    function () public payable{\n        \n    }\n}   \n                                           \n",
  "sourcePath": "/Users/matiasbarrios/Desktop/Proyecto Consensys/luckyseven/contracts/Lucky7Store.sol",
  "compiler": {
    "name": "solc",
    "version": "0.4.24+commit.e67f0147.Emscripten.clang"
  },
  "schemaVersion": "2.0.1",
  "updatedAt": "2018-08-27T17:51:20.653Z"
}