{
  "contractName": "Lucky7Ballot",
  "abi": [
    {
      "constant": false,
      "inputs": [
        {
          "name": "_newValue",
          "type": "string"
        }
      ],
      "name": "modifyParameterN",
      "outputs": [],
      "payable": false,
      "stateMutability": "nonpayable",
      "type": "function"
    },
    {
      "constant": true,
      "inputs": [
        {
          "name": "",
          "type": "uint256"
        }
      ],
      "name": "lucky7TicketID",
      "outputs": [
        {
          "name": "",
          "type": "uint256"
        }
      ],
      "payable": false,
      "stateMutability": "view",
      "type": "function"
    },
    {
      "constant": true,
      "inputs": [
        {
          "name": "",
          "type": "uint256"
        }
      ],
      "name": "lucky7TicketOwner",
      "outputs": [
        {
          "name": "",
          "type": "address"
        }
      ],
      "payable": false,
      "stateMutability": "view",
      "type": "function"
    },
    {
      "constant": false,
      "inputs": [
        {
          "name": "_ticketOwner",
          "type": "address"
        }
      ],
      "name": "_askForMuParameter",
      "outputs": [],
      "payable": false,
      "stateMutability": "nonpayable",
      "type": "function"
    },
    {
      "constant": false,
      "inputs": [
        {
          "name": "myid",
          "type": "bytes32"
        },
        {
          "name": "result",
          "type": "string"
        }
      ],
      "name": "__callback",
      "outputs": [],
      "payable": false,
      "stateMutability": "nonpayable",
      "type": "function"
    },
    {
      "constant": true,
      "inputs": [],
      "name": "settingLucky7Numbers",
      "outputs": [
        {
          "name": "",
          "type": "bool"
        }
      ],
      "payable": false,
      "stateMutability": "view",
      "type": "function"
    },
    {
      "constant": false,
      "inputs": [
        {
          "name": "_ticketID",
          "type": "uint256"
        }
      ],
      "name": "_checkForLucky7Ticket",
      "outputs": [],
      "payable": false,
      "stateMutability": "nonpayable",
      "type": "function"
    },
    {
      "constant": true,
      "inputs": [],
      "name": "n",
      "outputs": [
        {
          "name": "",
          "type": "string"
        }
      ],
      "payable": false,
      "stateMutability": "view",
      "type": "function"
    },
    {
      "constant": false,
      "inputs": [
        {
          "name": "myid",
          "type": "bytes32"
        },
        {
          "name": "result",
          "type": "string"
        },
        {
          "name": "proof",
          "type": "bytes"
        }
      ],
      "name": "__callback",
      "outputs": [],
      "payable": false,
      "stateMutability": "nonpayable",
      "type": "function"
    },
    {
      "constant": true,
      "inputs": [
        {
          "name": "",
          "type": "uint256"
        }
      ],
      "name": "lucky7Tickets",
      "outputs": [
        {
          "name": "difference",
          "type": "uint256"
        },
        {
          "name": "owner",
          "type": "address"
        },
        {
          "name": "ticketID",
          "type": "uint256"
        },
        {
          "name": "ticketValue",
          "type": "uint256"
        },
        {
          "name": "lucky7Number",
          "type": "uint256"
        },
        {
          "name": "lucky7NumberID",
          "type": "uint256"
        },
        {
          "name": "drawID",
          "type": "uint256"
        }
      ],
      "payable": false,
      "stateMutability": "view",
      "type": "function"
    },
    {
      "constant": false,
      "inputs": [],
      "name": "toggleLucky7Setting",
      "outputs": [],
      "payable": false,
      "stateMutability": "nonpayable",
      "type": "function"
    },
    {
      "constant": false,
      "inputs": [
        {
          "name": "_newValue",
          "type": "string"
        }
      ],
      "name": "modifyParameterJ",
      "outputs": [],
      "payable": false,
      "stateMutability": "nonpayable",
      "type": "function"
    },
    {
      "constant": true,
      "inputs": [
        {
          "name": "",
          "type": "uint256"
        }
      ],
      "name": "lucky7Numbers",
      "outputs": [
        {
          "name": "mu",
          "type": "string"
        },
        {
          "name": "i",
          "type": "string"
        },
        {
          "name": "ticketValue",
          "type": "uint256"
        },
        {
          "name": "drawID",
          "type": "uint256"
        }
      ],
      "payable": false,
      "stateMutability": "view",
      "type": "function"
    },
    {
      "constant": true,
      "inputs": [
        {
          "name": "",
          "type": "address"
        }
      ],
      "name": "userValues",
      "outputs": [
        {
          "name": "mu",
          "type": "string"
        },
        {
          "name": "i",
          "type": "string"
        },
        {
          "name": "ticketValue",
          "type": "uint256"
        },
        {
          "name": "muReady",
          "type": "bool"
        },
        {
          "name": "iReady",
          "type": "bool"
        },
        {
          "name": "userPaidTicket",
          "type": "bool"
        }
      ],
      "payable": false,
      "stateMutability": "view",
      "type": "function"
    },
    {
      "constant": true,
      "inputs": [],
      "name": "b",
      "outputs": [
        {
          "name": "",
          "type": "string"
        }
      ],
      "payable": false,
      "stateMutability": "view",
      "type": "function"
    },
    {
      "constant": true,
      "inputs": [
        {
          "name": "",
          "type": "uint256"
        }
      ],
      "name": "tickets",
      "outputs": [
        {
          "name": "mu",
          "type": "string"
        },
        {
          "name": "i",
          "type": "string"
        },
        {
          "name": "ticketValue",
          "type": "uint256"
        },
        {
          "name": "owner",
          "type": "address"
        },
        {
          "name": "drawID",
          "type": "uint256"
        }
      ],
      "payable": false,
      "stateMutability": "view",
      "type": "function"
    },
    {
      "constant": true,
      "inputs": [],
      "name": "oraclizeGasLimit",
      "outputs": [
        {
          "name": "",
          "type": "uint256"
        }
      ],
      "payable": false,
      "stateMutability": "view",
      "type": "function"
    },
    {
      "constant": true,
      "inputs": [],
      "name": "numberOfLucky7Numbers",
      "outputs": [
        {
          "name": "",
          "type": "uint256"
        }
      ],
      "payable": false,
      "stateMutability": "view",
      "type": "function"
    },
    {
      "constant": false,
      "inputs": [],
      "name": "renounceOwnership",
      "outputs": [],
      "payable": false,
      "stateMutability": "nonpayable",
      "type": "function"
    },
    {
      "constant": true,
      "inputs": [],
      "name": "enterpriseWallet",
      "outputs": [
        {
          "name": "",
          "type": "address"
        }
      ],
      "payable": false,
      "stateMutability": "view",
      "type": "function"
    },
    {
      "constant": false,
      "inputs": [
        {
          "name": "_ticketOwner",
          "type": "address"
        }
      ],
      "name": "_generateTicket",
      "outputs": [],
      "payable": false,
      "stateMutability": "nonpayable",
      "type": "function"
    },
    {
      "constant": false,
      "inputs": [
        {
          "name": "_newValue",
          "type": "uint256"
        }
      ],
      "name": "modifyOraclizeGasLimit",
      "outputs": [],
      "payable": false,
      "stateMutability": "nonpayable",
      "type": "function"
    },
    {
      "constant": false,
      "inputs": [
        {
          "name": "_newValue",
          "type": "string"
        }
      ],
      "name": "modifyParameterB",
      "outputs": [],
      "payable": false,
      "stateMutability": "nonpayable",
      "type": "function"
    },
    {
      "constant": false,
      "inputs": [
        {
          "name": "_newValue",
          "type": "uint256"
        }
      ],
      "name": "modifyGenerateTicketPrice",
      "outputs": [],
      "payable": false,
      "stateMutability": "nonpayable",
      "type": "function"
    },
    {
      "constant": true,
      "inputs": [],
      "name": "numberOfWinners",
      "outputs": [
        {
          "name": "",
          "type": "uint256"
        }
      ],
      "payable": false,
      "stateMutability": "view",
      "type": "function"
    },
    {
      "constant": true,
      "inputs": [],
      "name": "owner",
      "outputs": [
        {
          "name": "",
          "type": "address"
        }
      ],
      "payable": false,
      "stateMutability": "view",
      "type": "function"
    },
    {
      "constant": false,
      "inputs": [
        {
          "name": "_newAddress",
          "type": "address"
        }
      ],
      "name": "modifyEnterprisePrize",
      "outputs": [],
      "payable": false,
      "stateMutability": "nonpayable",
      "type": "function"
    },
    {
      "constant": true,
      "inputs": [],
      "name": "oraclizeCustomGasPrice",
      "outputs": [
        {
          "name": "",
          "type": "uint256"
        }
      ],
      "payable": false,
      "stateMutability": "view",
      "type": "function"
    },
    {
      "constant": true,
      "inputs": [],
      "name": "p",
      "outputs": [
        {
          "name": "",
          "type": "string"
        }
      ],
      "payable": false,
      "stateMutability": "view",
      "type": "function"
    },
    {
      "constant": false,
      "inputs": [
        {
          "name": "_newValue",
          "type": "string"
        }
      ],
      "name": "modifyParameterP",
      "outputs": [],
      "payable": false,
      "stateMutability": "nonpayable",
      "type": "function"
    },
    {
      "constant": true,
      "inputs": [],
      "name": "j",
      "outputs": [
        {
          "name": "",
          "type": "string"
        }
      ],
      "payable": false,
      "stateMutability": "view",
      "type": "function"
    },
    {
      "constant": true,
      "inputs": [],
      "name": "initialLucky7TicketPosition",
      "outputs": [
        {
          "name": "",
          "type": "uint256"
        }
      ],
      "payable": false,
      "stateMutability": "view",
      "type": "function"
    },
    {
      "constant": false,
      "inputs": [
        {
          "name": "_newValue",
          "type": "uint256"
        }
      ],
      "name": "modifySellTicketPrice",
      "outputs": [],
      "payable": false,
      "stateMutability": "nonpayable",
      "type": "function"
    },
    {
      "constant": true,
      "inputs": [],
      "name": "indexForLucky7Array",
      "outputs": [
        {
          "name": "",
          "type": "uint256"
        }
      ],
      "payable": false,
      "stateMutability": "view",
      "type": "function"
    },
    {
      "constant": false,
      "inputs": [
        {
          "name": "_newValue",
          "type": "uint256"
        }
      ],
      "name": "modifyNumberOfLucky7Numbers",
      "outputs": [],
      "payable": false,
      "stateMutability": "nonpayable",
      "type": "function"
    },
    {
      "constant": false,
      "inputs": [
        {
          "name": "_newValue",
          "type": "uint256"
        }
      ],
      "name": "modifyNumberOfWinners",
      "outputs": [],
      "payable": false,
      "stateMutability": "nonpayable",
      "type": "function"
    },
    {
      "constant": false,
      "inputs": [
        {
          "name": "_newValue",
          "type": "uint256"
        }
      ],
      "name": "modifyOraclizeCustomGasPrice",
      "outputs": [],
      "payable": false,
      "stateMutability": "nonpayable",
      "type": "function"
    },
    {
      "constant": true,
      "inputs": [],
      "name": "generateTicketPrice",
      "outputs": [
        {
          "name": "",
          "type": "uint256"
        }
      ],
      "payable": false,
      "stateMutability": "view",
      "type": "function"
    },
    {
      "constant": true,
      "inputs": [],
      "name": "drawNumber",
      "outputs": [
        {
          "name": "",
          "type": "uint256"
        }
      ],
      "payable": false,
      "stateMutability": "view",
      "type": "function"
    },
    {
      "constant": false,
      "inputs": [
        {
          "name": "_ticketOwner",
          "type": "address"
        }
      ],
      "name": "_askForTicket",
      "outputs": [],
      "payable": false,
      "stateMutability": "nonpayable",
      "type": "function"
    },
    {
      "constant": true,
      "inputs": [],
      "name": "sellTicketPrice",
      "outputs": [
        {
          "name": "",
          "type": "uint256"
        }
      ],
      "payable": false,
      "stateMutability": "view",
      "type": "function"
    },
    {
      "constant": true,
      "inputs": [
        {
          "name": "",
          "type": "uint256"
        }
      ],
      "name": "lucky7TicketDifference",
      "outputs": [
        {
          "name": "",
          "type": "uint256"
        }
      ],
      "payable": false,
      "stateMutability": "view",
      "type": "function"
    },
    {
      "constant": false,
      "inputs": [
        {
          "name": "_newOwner",
          "type": "address"
        }
      ],
      "name": "transferOwnership",
      "outputs": [],
      "payable": false,
      "stateMutability": "nonpayable",
      "type": "function"
    },
    {
      "constant": false,
      "inputs": [
        {
          "name": "_ticketOwner",
          "type": "address"
        }
      ],
      "name": "_askForIParameter",
      "outputs": [],
      "payable": false,
      "stateMutability": "nonpayable",
      "type": "function"
    },
    {
      "inputs": [],
      "payable": true,
      "stateMutability": "payable",
      "type": "constructor"
    },
    {
      "payable": true,
      "stateMutability": "payable",
      "type": "fallback"
    },
    {
      "anonymous": false,
      "inputs": [
        {
          "indexed": false,
          "name": "description",
          "type": "string"
        }
      ],
      "name": "newOraclizeQuery",
      "type": "event"
    },
    {
      "anonymous": false,
      "inputs": [
        {
          "indexed": false,
          "name": "parameterOwner",
          "type": "address"
        },
        {
          "indexed": false,
          "name": "muParameter",
          "type": "string"
        }
      ],
      "name": "newMuReceived",
      "type": "event"
    },
    {
      "anonymous": false,
      "inputs": [
        {
          "indexed": false,
          "name": "parameterOwner",
          "type": "address"
        },
        {
          "indexed": false,
          "name": "iParameter",
          "type": "string"
        }
      ],
      "name": "newIReceived",
      "type": "event"
    },
    {
      "anonymous": false,
      "inputs": [
        {
          "indexed": false,
          "name": "parameterOwner",
          "type": "address"
        },
        {
          "indexed": false,
          "name": "newTicket",
          "type": "string"
        }
      ],
      "name": "newTicketReceived",
      "type": "event"
    },
    {
      "anonymous": false,
      "inputs": [
        {
          "indexed": false,
          "name": "feeType",
          "type": "string"
        },
        {
          "indexed": false,
          "name": "_oldValue",
          "type": "uint256"
        },
        {
          "indexed": false,
          "name": "_newValue",
          "type": "uint256"
        }
      ],
      "name": "numberModified",
      "type": "event"
    },
    {
      "anonymous": false,
      "inputs": [
        {
          "indexed": false,
          "name": "parameter",
          "type": "string"
        },
        {
          "indexed": false,
          "name": "_oldValue",
          "type": "string"
        },
        {
          "indexed": false,
          "name": "_newValue",
          "type": "string"
        }
      ],
      "name": "parameterModified",
      "type": "event"
    },
    {
      "anonymous": false,
      "inputs": [
        {
          "indexed": false,
          "name": "parameter",
          "type": "string"
        },
        {
          "indexed": false,
          "name": "_oldValue",
          "type": "address"
        },
        {
          "indexed": false,
          "name": "_newValue",
          "type": "address"
        }
      ],
      "name": "walletModified",
      "type": "event"
    },
    {
      "anonymous": false,
      "inputs": [
        {
          "indexed": true,
          "name": "previousOwner",
          "type": "address"
        }
      ],
      "name": "OwnershipRenounced",
      "type": "event"
    },
    {
      "anonymous": false,
      "inputs": [
        {
          "indexed": true,
          "name": "previousOwner",
          "type": "address"
        },
        {
          "indexed": true,
          "name": "newOwner",
          "type": "address"
        }
      ],
      "name": "OwnershipTransferred",
      "type": "event"
    },
    {
      "constant": false,
      "inputs": [],
      "name": "_generateLucky7Number",
      "outputs": [],
      "payable": false,
      "stateMutability": "nonpayable",
      "type": "function"
    },
    {
      "constant": false,
      "inputs": [],
      "name": "setNewGame",
      "outputs": [],
      "payable": false,
      "stateMutability": "nonpayable",
      "type": "function"
    },
    {
      "constant": false,
      "inputs": [],
      "name": "_orderLucky7Numbers",
      "outputs": [],
      "payable": false,
      "stateMutability": "nonpayable",
      "type": "function"
    },
    {
      "constant": false,
      "inputs": [],
      "name": "_orderLucky7Tickets",
      "outputs": [],
      "payable": false,
      "stateMutability": "nonpayable",
      "type": "function"
    },
    {
      "constant": false,
      "inputs": [],
      "name": "_deliverPrizes",
      "outputs": [],
      "payable": false,
      "stateMutability": "nonpayable",
      "type": "function"
    }
  ],
  "bytecode": "0x60c0604052600160808190527f310000000000000000000000000000000000000000000000000000000000000060a0908152620000409160069190620001b9565b506040805180820190915260018082527f380000000000000000000000000000000000000000000000000000000000000060209092019182526200008791600791620001b9565b506040805180820190915260058082527f31303030300000000000000000000000000000000000000000000000000000006020909201918252620000ce91600891620001b9565b506040805180820190915260028082527f323000000000000000000000000000000000000000000000000000000000000060209092019182526200011591600991620001b9565b506007600a556003600b556611c37937e08000600c55662aa1efb94e0000600d55620493e0600e5563ee6b2800600f5560108054600160a060020a031990811673265a5c3dd46ec82e2744f1d0e9fb4ed75d56132a179091556000601181905560128190556013805460ff191660011790556039819055600580548316331790558054909116736f485c8bf6fc43ea212e93bbf8ce046c7f1cb4751790556200025e565b828054600181600116156101000203166002900490600052602060002090601f016020900481019282601f10620001fc57805160ff19168380011785556200022c565b828001600101855582156200022c579182015b828111156200022c5782518255916020019190600101906200020f565b506200023a9291506200023e565b5090565b6200025b91905b808211156200023a576000815560010162000245565b90565b6150a2806200026e6000396000f3006080604052600436106102375763ffffffff60e060020a6000350416630cc38b2b811461023957806310cd4b8a146102925780631c3ed1d3146102bc5780631cf4c3d1146102f057806323d370ba1461030557806327dc297e146103265780632caf9eee146103845780632de729eb146103ad5780632e52d606146103c557806338bbfa501461044f578063396fb422146104eb57806339df3f4f146105435780633bb7daf4146105585780633eba3466146105b157806340014911146106b55780634acfd9b8146106ca5780634df7e3d0146107e957806350b44712146107fe57806350b9c4281461091157806359f9fe8214610926578063715018a61461093b578063741606b51461095057806375edd2571461096557806377d8a8301461097a578063809fc1531461099b57806383bb7bb7146109b35780638aa5fafa14610a0c5780638acfaca914610a245780638da5cb5b14610a3957806390c31c4c14610a4e57806396701ce914610a635780639ac2bf9114610a845780639ae8886a14610a995780639dec38ab14610aae578063b582ec5f14610b07578063bb49516b14610b1c578063bcb740ab14610b31578063c56969ab14610b49578063c71f04ac14610b31578063c90cdc7e14610b5e578063d383e86214610b76578063d566bcf014610b8e578063d80ffb2014610ba3578063ddc110fa14610bb8578063e5663c4814610bd9578063e802ae1414610bee578063f2fde38b14610c06578063f405228914610c27578063fd9be1b214610c3c575b005b34801561024557600080fd5b506040805160206004803580820135601f8101849004840285018401909552848452610237943694929360249392840191908190840183828082843750949750610c5d9650505050505050565b34801561029e57600080fd5b506102aa600435610e45565b60408051918252519081900360200190f35b3480156102c857600080fd5b506102d4600435610e57565b60408051600160a060020a039092168252519081900360200190f35b3480156102fc57600080fd5b50610237610e72565b34801561031157600080fd5b50610237600160a060020a0360043516611248565b34801561033257600080fd5b5060408051602060046024803582810135601f810185900485028601850190965285855261023795833595369560449491939091019190819084018382808284375094975061135a9650505050505050565b34801561039057600080fd5b50610399611971565b604080519115158252519081900360200190f35b3480156103b957600080fd5b5061023760043561197a565b3480156103d157600080fd5b506103da611bbc565b6040805160208082528351818301528351919283929083019185019080838360005b838110156104145781810151838201526020016103fc565b50505050905090810190601f1680156104415780820380516001836020036101000a031916815260200191505b509250505060405180910390f35b34801561045b57600080fd5b5060408051602060046024803582810135601f810185900485028601850190965285855261023795833595369560449491939091019190819084018382808284375050604080516020601f89358b018035918201839004830284018301909452808352979a999881019791965091820194509250829150840183828082843750949750611c4a9650505050505050565b3480156104f757600080fd5b50610503600435611c4f565b60408051978852600160a060020a039096166020880152868601949094526060860192909252608085015260a084015260c0830152519081900360e00190f35b34801561054f57600080fd5b50610237611ca6565b34801561056457600080fd5b506040805160206004803580820135601f8101849004840285018401909552848452610237943694929360249392840191908190840183828082843750949750611cd19650505050505050565b3480156105bd57600080fd5b506105c9600435611e17565b604051808060200180602001858152602001848152602001838103835287818151815260200191508051906020019080838360005b838110156106165781810151838201526020016105fe565b50505050905090810190601f1680156106435780820380516001836020036101000a031916815260200191505b50838103825286518152865160209182019188019080838360005b8381101561067657818101518382015260200161065e565b50505050905090810190601f1680156106a35780820380516001836020036101000a031916815260200191505b50965050505050505060405180910390f35b3480156106c157600080fd5b50610237611f63565b3480156106d657600080fd5b506106eb600160a060020a0360043516611f9e565b604080519081018590528315156060820152821515608082015281151560a082015260c08082528751908201528651819060208083019160e08401918b019080838360005b83811015610748578181015183820152602001610730565b50505050905090810190601f1680156107755780820380516001836020036101000a031916815260200191505b5083810382528851815288516020918201918a019080838360005b838110156107a8578181015183820152602001610790565b50505050905090810190601f1680156107d55780820380516001836020036101000a031916815260200191505b509850505050505050505060405180910390f35b3480156107f557600080fd5b506103da6120fe565b34801561080a57600080fd5b50610816600435612159565b60408051908101849052600160a060020a03831660608201526080810182905260a08082528651908201528551819060208083019160c08401918a019080838360005b83811015610871578181015183820152602001610859565b50505050905090810190601f16801561089e5780820380516001836020036101000a031916815260200191505b50838103825287518152875160209182019189019080838360005b838110156108d15781810151838201526020016108b9565b50505050905090810190601f1680156108fe5780820380516001836020036101000a031916815260200191505b5097505050505050505060405180910390f35b34801561091d57600080fd5b506102aa6122c6565b34801561093257600080fd5b506102aa6122cc565b34801561094757600080fd5b506102376122d2565b34801561095c57600080fd5b506102d4612333565b34801561097157600080fd5b50610237612342565b34801561098657600080fd5b50610237600160a060020a0360043516612780565b3480156109a757600080fd5b50610237600435612795565b3480156109bf57600080fd5b506040805160206004803580820135601f81018490048402850184019095528484526102379436949293602493928401919081908401838280828437509497506128189650505050505050565b348015610a1857600080fd5b5061023760043561295e565b348015610a3057600080fd5b506102aa6129e1565b348015610a4557600080fd5b506102d46129e7565b348015610a5a57600080fd5b506102376129f6565b348015610a6f57600080fd5b50610237600160a060020a0360043516612a57565b348015610a9057600080fd5b506102aa612b08565b348015610aa557600080fd5b506103da612b0e565b348015610aba57600080fd5b506040805160206004803580820135601f8101849004840285018401909552848452610237943694929360249392840191908190840183828082843750949750612b699650505050505050565b348015610b1357600080fd5b506103da612caf565b348015610b2857600080fd5b506102aa612d0a565b348015610b3d57600080fd5b50610237600435612d10565b348015610b5557600080fd5b506102aa612d93565b348015610b6a57600080fd5b50610237600435612d99565b348015610b8257600080fd5b50610237600435612e1c565b348015610b9a57600080fd5b506102aa612ec5565b348015610baf57600080fd5b506102aa612ecb565b348015610bc457600080fd5b50610237600160a060020a0360043516612ed1565b348015610be557600080fd5b506102aa612fb8565b348015610bfa57600080fd5b506102aa600435612fbe565b348015610c1257600080fd5b50610237600160a060020a0360043516612fd0565b348015610c3357600080fd5b50610237612ff0565b348015610c4857600080fd5b50610237600160a060020a0360043516613423565b600554606090600160a060020a03163314610c7757600080fd5b6007805460408051602060026001851615610100026000190190941693909304601f81018490048402820184019092528181529291830182828015610cfd5780601f10610cd257610100808354040283529160200191610cfd565b820191906000526020600020905b815481529060010190602001808311610ce057829003601f168201915b50508551939450610d1993600793506020870192509050614eb9565b50600080516020615057833981519152818360405180806020018060200180602001848103845260148152602001807f506172616d65746572206e206d6f646966696564000000000000000000000000815250602001848103835286818151815260200191508051906020019080838360005b83811015610da4578181015183820152602001610d8c565b50505050905090810190601f168015610dd15780820380516001836020036101000a031916815260200191505b50848103825285518152855160209182019187019080838360005b83811015610e04578181015183820152602001610dec565b50505050905090810190601f168015610e315780820380516001836020036101000a031916815260200191505b509550505050505060405180910390a15050565b60386020526000908152604090205481565b603760205260009081526040902054600160a060020a031681565b610e7a614f37565b60055460009081908190600160a060020a03163314610e9857600080fd5b5060005b600a54811015610fc6576040805160e0810182526000838152603660209081528382205483528482526037815283822054600160a060020a0316818401528482526038808252848320549484018590529185905252601580546014936060840192918110610f0657fe5b9060005260206000209060050201600201548152602001601684600781101515610f2c57fe5b600490810291909101600290810154835260208084018790526011546040948501528554600180820188556000978852968290208651600790920201908155908501518187018054600160a060020a031916600160a060020a0390921691909117905592840151908301556060830151600383015560808301519082015560a0820151600582015560c09091015160069091015501610e9c565b506039545b603954600a540181101561124257809250601481815481101515610feb57fe5b60009182526020918290206040805160e081018252600790930290910180548352600180820154600160a060020a0316948401949094526002810154918301919091526003810154606083015260048101546080830152600581015460a08301526006015460c08201529450810191505b603954600a540182101561111a57601480548390811061107857fe5b60009182526020909120600790910201548451111561110f57601480548390811061109f57fe5b60009182526020918290206040805160e0810182526007909302909101805483526001810154600160a060020a0316938301939093526002830154908201526003820154606082015260048201546080820152600582015460a082015260069091015460c0820152935090915081905b60019091019061105c565b82811461123a57601480548290811061112f57fe5b906000526020600020906007020160148481548110151561114c57fe5b6000918252602090912082546007909202019081556001808301549082018054600160a060020a031916600160a060020a039092169190911790556002808301549082015560038083015490820155600480830154908201556005808301549082015560069182015491015560148054859190839081106111c957fe5b600091825260209182902083516007929092020190815590820151600182018054600160a060020a031916600160a060020a0390921691909117905560408201516002820155606082015160038201556080820151600482015560a0820151600582015560c0909101516006909101555b600101610fcb565b50505050565b6000611255600f54613537565b604080516020808252808201527f41736b696e6720666f722061206e6577206d7520706172616d657465722e2e2e8183015290517f46cb989ef9cef13e930e3b7f286225a086e716a90d63e0b7da85d310a9db0c9a9181900360600190a161132a6040805190810160405280600c81526020017f576f6c6672616d416c70686100000000000000000000000000000000000000008152506040805190810160405280600f81526020017f342072616e646f6d206e756d6265720000000000000000000000000000000000815250600e5461371d565b60009081526033602052604090208054600160a060020a031916600160a060020a03939093169290921790915550565b611362613b1e565b600160a060020a0316331461137657600080fd5b600082815260336020526040902054600160a060020a0316158015906113c45750600082815260336020908152604080832054600160a060020a03168352603290915290206003015460ff16155b1561158657600082815260336020908152604080832054600160a060020a031683526032825290912082516113fb92840190614eb9565b506000828152603360209081526040808320548151600160a060020a0390911680825281840183815286519383019390935285517f47eedbcfd0da23d2413b78bd7807ecbde2a9754fa0dc19185984a244d9cd773a959194879492606085019291860191908190849084905b8381101561147f578181015183820152602001611467565b50505050905090810190601f1680156114ac5780820380516001836020036101000a031916815260200191505b50935050505060405180910390a160008281526033602090815260408083208054600160a060020a03908116855260329093528184206003908101805460ff191660019081179091559154909316845292200154610100900460ff16151514801561155b5750600082815260336020908152604080832054600160a060020a03168352603290915290206003015460ff620100009091041615156001148061155b575060135460ff1615156001145b156115815760008281526033602052604090205461158190600160a060020a0316612ed1565b61196d565b600082815260346020526040902054600160a060020a0316158015906115d95750600082815260346020908152604080832054600160a060020a031683526032909152902060030154610100900460ff16155b1561179957600082815260346020908152604080832054600160a060020a0316835260328252909120825161161692600190920191840190614eb9565b506000828152603460209081526040808320548151600160a060020a0390911680825281840183815286519383019390935285517f493aa57ad5f18480f956f6979e26052f3c3e9b6f4985b1331bfa696904e10cd5959194879492606085019291860191908190849084905b8381101561169a578181015183820152602001611682565b50505050905090810190601f1680156116c75780820380516001836020036101000a031916815260200191505b50935050505060405180910390a160008281526034602090815260408083208054600160a060020a03908116855260329093528184206003908101805461ff00191661010017905590549092168352909120015460ff16151560011480156117735750600082815260346020908152604080832054600160a060020a03168352603290915290206003015460ff6201000090910416151560011480611773575060135460ff1615156001145b156115815760008281526034602052604090205461158190600160a060020a0316612ed1565b600082815260356020526040902054600160a060020a0316158015906118035750600082815260356020908152604080832054600160a060020a03168352603290915290206003015460ff6201000090910416151560011480611803575060135460ff1615156001145b1561196d5761181181613d10565b60008381526035602081815260408084208054600160a060020a039081168652603284528286206002019690965587855292825291548251941680855284820183815286519386019390935285517f3c6507a39df055ecbb0672078b29c556fa529767da7d5676e77478914e3b5987959194879492936060850192908601918190849084905b838110156118af578181015183820152602001611897565b50505050905090810190601f1680156118dc5780820380516001836020036101000a031916815260200191505b50935050505060405180910390a1600082815260356020908152604080832054600160a060020a0316835260329091529020600301805462ff00001916905560135460ff1615156001141561194c5760008281526035602052604090205461158190600160a060020a0316613d23565b60008281526035602052604090205461196d90600160a060020a0316613f2c565b5050565b60135460ff1681565b60008060008060166001600a540360078110151561199457fe5b60040201600201546015868154811015156119ab57fe5b9060005260206000209060050201600201541115611a1a57600a54600019019350611a13601685600781106119dc57fe5b60040201600201546015878154811015156119f357fe5b90600052602060002090600502016002015461416790919063ffffffff16565b9250611b1b565b6018546015805487908110611a2b57fe5b9060005260206000209060050201600201541015611a905760009350611a13601586815481101515611a5957fe5b906000526020600020906005020160020154601686600781101515611a7a57fe5b600402016002015461416790919063ffffffff16565b60168460078110611a9d57fe5b6004020160020154601586815481101515611ab457fe5b9060005260206000209060050201600201541115611ad757600190930192611a90565b611aeb60166000198601600781106119dc57fe5b9150611aff601586815481101515611a5957fe5b905081811115611b1757600184039350819250611b1b565b8092505b600084815260376020526040902054600160a060020a03161580611b4c575060008481526036602052604090205483105b15611bb5576015805486908110611b5f57fe5b60009182526020808320600360059093020191909101548683526037825260408084208054600160a060020a031916600160a060020a039093169290921790915560368252808320869055603890915290208590555b5050505050565b6007805460408051602060026001851615610100026000190190941693909304601f81018490048402820184019092528181529291830182828015611c425780601f10611c1757610100808354040283529160200191611c42565b820191906000526020600020905b815481529060010190602001808311611c2557829003601f168201915b505050505081565b505050565b6014805482908110611c5d57fe5b60009182526020909120600790910201805460018201546002830154600384015460048501546005860154600690960154949650600160a060020a039093169491939092919087565b600554600160a060020a03163314611cbd57600080fd5b6013805460ff19811660ff90911615179055565b600554606090600160a060020a03163314611ceb57600080fd5b6009805460408051602060026001851615610100026000190190941693909304601f81018490048402820184019092528181529291830182828015611d715780601f10611d4657610100808354040283529160200191611d71565b820191906000526020600020905b815481529060010190602001808311611d5457829003601f168201915b50508551939450611d8d93600993506020870192509050614eb9565b50600080516020615057833981519152818360405180806020018060200180602001848103845260148152602001807f506172616d65746572206a206d6f6469666965640000000000000000000000008152506020018481038352868181518152602001915080519060200190808383600083811015610da4578181015183820152602001610d8c565b60168160078110611e2457fe5b60040201805460408051602060026001851615610100026000190190941693909304601f81018490048402820184019092528181529293508391830182828015611eaf5780601f10611e8457610100808354040283529160200191611eaf565b820191906000526020600020905b815481529060010190602001808311611e9257829003601f168201915b505050505090806001018054600181600116156101000203166002900480601f016020809104026020016040519081016040528092919081815260200182805460018160011615610100020316600290048015611f4d5780601f10611f2257610100808354040283529160200191611f4d565b820191906000526020600020905b815481529060010190602001808311611f3057829003601f168201915b5050505050908060020154908060030154905084565b600554600160a060020a03163314611f7a57600080fd5b600a5460115402603955611f8c611ca6565b611f94610e72565b611f9c612ff0565b565b60326020908152600091825260409182902080548351601f600260001961010060018616150201909316929092049182018490048402810184019094528084529092918391908301828280156120355780601f1061200a57610100808354040283529160200191612035565b820191906000526020600020905b81548152906001019060200180831161201857829003601f168201915b505050505090806001018054600181600116156101000203166002900480601f0160208091040260200160405190810160405280929190818152602001828054600181600116156101000203166002900480156120d35780601f106120a8576101008083540402835291602001916120d3565b820191906000526020600020905b8154815290600101906020018083116120b657829003601f168201915b50505050600283015460039093015491929160ff808216925061010082048116916201000090041686565b6006805460408051602060026001851615610100026000190190941693909304601f81018490048402820184019092528181529291830182828015611c425780601f10611c1757610100808354040283529160200191611c42565b601580548290811061216757fe5b60009182526020918290206005919091020180546040805160026001841615610100026000190190931692909204601f8101859004850283018501909152808252919350918391908301828280156122005780601f106121d557610100808354040283529160200191612200565b820191906000526020600020905b8154815290600101906020018083116121e357829003601f168201915b505050505090806001018054600181600116156101000203166002900480601f01602080910402602001604051908101604052809291908181526020018280546001816001161561010002031660029004801561229e5780601f106122735761010080835404028352916020019161229e565b820191906000526020600020905b81548152906001019060200180831161228157829003601f168201915b505050506002830154600384015460049094015492939092600160a060020a03909116915085565b600e5481565b600a5481565b600554600160a060020a031633146122e957600080fd5b600554604051600160a060020a03909116907ff8df31144d9c2f0f6b59d69b8b98abd5459d07f2742c4df920b25aae33c6482090600090a260058054600160a060020a0319169055565b601054600160a060020a031681565b61234a614f7e565b60055460009081908190600160a060020a0316331461236857600080fd5b5060005b600a54811015611242579150816016816007811061238657fe5b6040805160049290920292909201805460a06020601f60026000196101006001871615020190941693909304928301819004028401810190945260808301818152929391928492909184918401828280156124225780601f106123f757610100808354040283529160200191612422565b820191906000526020600020905b81548152906001019060200180831161240557829003601f168201915b50505050508152602001600182018054600181600116156101000203166002900480601f0160208091040260200160405190810160405280929190818152602001828054600181600116156101000203166002900480156124c45780601f10612499576101008083540402835291602001916124c4565b820191906000526020600020905b8154815290600101906020018083116124a757829003601f168201915b505050505081526020016002820154815260200160038201548152505093508060010191505b600a5482101561268d576016826007811061250157fe5b600402016002015484604001511115612682576016826007811061252157fe5b6040805160049290920292909201805460a06020601f60026000196101006001871615020190941693909304928301819004028401810190945260808301818152929391928492909184918401828280156125bd5780601f10612592576101008083540402835291602001916125bd565b820191906000526020600020905b8154815290600101906020018083116125a057829003601f168201915b50505050508152602001600182018054600181600116156101000203166002900480601f01602080910402602001604051908101604052809291908181526020018280546001816001161561010002031660029004801561265f5780601f106126345761010080835404028352916020019161265f565b820191906000526020600020905b81548152906001019060200180831161264257829003601f168201915b505050505081526020016002820154815260200160038201548152505093508192505b6001909101906124ea565b82811461277857601681600781106126a157fe5b60040201601684600781106126b257fe5b60040201600082018160000190805460018160011615610100020316600290046126dd929190614fa7565b5060018201816001019080546001816001161561010002031660029004612705929190614fa7565b5060028281015490820155600391820154910155836016826007811061272757fe5b600402016000820151816000019080519060200190612747929190614eb9565b5060208281015180516127609260018501920190614eb9565b50604082015160028201556060909101516003909101555b60010161236c565b61278981611248565b61279281613423565b50565b600554600090600160a060020a031633146127af57600080fd5b50600e80549082905560408051602081018390528082018490526060808252601a908201527f4f7261636c697a6520676173206c696d6974206368616e676564000000000000608082015290516000805160206150378339815191529181900360a00190a15050565b600554606090600160a060020a0316331461283257600080fd5b6006805460408051602060026001851615610100026000190190941693909304601f810184900484028201840190925281815292918301828280156128b85780601f1061288d576101008083540402835291602001916128b8565b820191906000526020600020905b81548152906001019060200180831161289b57829003601f168201915b505085519394506128d493600693506020870192509050614eb9565b50600080516020615057833981519152818360405180806020018060200180602001848103845260148152602001807f506172616d657465722062206d6f6469666965640000000000000000000000008152506020018481038352868181518152602001915080519060200190808383600083811015610da4578181015183820152602001610d8c565b600554600090600160a060020a0316331461297857600080fd5b50600c80549082905560408051602081018390528082018490526060808252601d908201527f47656e6572617465207469636b6574207072696365206368616e676564000000608082015290516000805160206150378339815191529181900360a00190a15050565b600b5481565b600554600160a060020a031681565b600554600160a060020a03163314612a0d57600080fd5b600a546012541415612a3357612a21612342565b6000601255612a2e611ca6565b611f9c565b306000818152603260205260409020600301805461ffff19169055611f9c90612780565b600554600090600160a060020a03163314612a7157600080fd5b5060108054600160a060020a03838116600160a060020a0319831681179093556040805191909216602082018190528183019390935260608082526019908201527f456e74657270726973652077616c6c6574206368616e67656400000000000000608082015290517f223db053947bb148de510715d3c7d8ccd72bdd376752fd735ee7bd0bd0ece5bf9181900360a00190a15050565b600f5481565b6008805460408051602060026001851615610100026000190190941693909304601f81018490048402820184019092528181529291830182828015611c425780601f10611c1757610100808354040283529160200191611c42565b600554606090600160a060020a03163314612b8357600080fd5b6008805460408051602060026001851615610100026000190190941693909304601f81018490048402820184019092528181529291830182828015612c095780601f10612bde57610100808354040283529160200191612c09565b820191906000526020600020905b815481529060010190602001808311612bec57829003601f168201915b50508551939450612c2593600893506020870192509050614eb9565b50600080516020615057833981519152818360405180806020018060200180602001848103845260148152602001807f506172616d657465722070206d6f6469666965640000000000000000000000008152506020018481038352868181518152602001915080519060200190808383600083811015610da4578181015183820152602001610d8c565b6009805460408051602060026001851615610100026000190190941693909304601f81018490048402820184019092528181529291830182828015611c425780601f10611c1757610100808354040283529160200191611c42565b60395481565b600554600090600160a060020a03163314612d2a57600080fd5b50600d805490829055604080516020810183905280820184905260608082526019908201527f53656c6c207469636b6574207072696365206368616e67656400000000000000608082015290516000805160206150378339815191529181900360a00190a15050565b60125481565b600554600090600160a060020a03163314612db357600080fd5b50600b805490829055604080516020810183905280820184905260608082526019908201527f4e756d626572206f662077696e6e657273206368616e67656400000000000000608082015290516000805160206150378339815191529181900360a00190a15050565b600554600090600160a060020a03163314612e3657600080fd5b50600f805490829055604080516020810183905280820184905260608082526021908201527f4f7261636c697a6520637573746f6d20676173207072696365206368616e676560808201527f640000000000000000000000000000000000000000000000000000000000000060a082015290516000805160206150378339815191529181900360c00190a15050565b600c5481565b60115481565b6000612ede600f54613537565b604080516020808252601a908201527f41736b696e6720666f722061206e6577207469636b65742e2e2e0000000000008183015290517f46cb989ef9cef13e930e3b7f286225a086e716a90d63e0b7da85d310a9db0c9a9181900360600190a1612f886040805190810160405280600c81526020017f576f6c6672616d416c7068610000000000000000000000000000000000000000815250612f8084614179565b600e5461371d565b60009081526035602052604090208054600160a060020a031916600160a060020a03939093169290921790915550565b600d5481565b60366020526000908152604090205481565b600554600160a060020a03163314612fe757600080fd5b612792816146ca565b6005546000908190819081908190600160a060020a0316331461301257600080fd5b6130243031600763ffffffff61473b16565b945061303785600a63ffffffff61476416565b945061304a85600663ffffffff61473b16565b935061305d85600363ffffffff61473b16565b925061307085600163ffffffff61473b16565b915061308384600a63ffffffff61476416565b935061309683600a63ffffffff61476416565b92506130a982600a63ffffffff61476416565b915060395490505b603954600a5401811015613157576014805460009190839081106130d157fe5b6000918252602090912060016007909202010154600160a060020a03161461314f57601480548290811061310157fe5b60009182526020822060016007909202010154604051600160a060020a039091169186156108fc02918791818181858888f19350505050158015613149573d6000803e3d6000fd5b50613157565b6001016130b1565b6001015b603954600a54018110156132015760148054600091908390811061317b57fe5b6000918252602090912060016007909202010154600160a060020a0316146131f95760148054829081106131ab57fe5b60009182526020822060016007909202010154604051600160a060020a039091169185156108fc02918691818181858888f193505050501580156131f3573d6000803e3d6000fd5b50613201565b60010161315b565b6001015b603954600a54018110156132ab5760148054600091908390811061322557fe5b6000918252602090912060016007909202010154600160a060020a0316146132a357601480548290811061325557fe5b60009182526020822060016007909202010154604051600160a060020a039091169184156108fc02918591818181858888f1935050505015801561329d573d6000803e3d6000fd5b506132ab565b600101613205565b601180546001019055601054604051600160a060020a0390911690303180156108fc02916000818181858888f193505050501580156132ee573d6000803e3d6000fd5b50600090505b600a54811015611bb55760008181526037602090815260408083208054600160a060020a03191690556036825280832083905560388252808320929092558151808301909252600182527f3000000000000000000000000000000000000000000000000000000000000000908201526016826007811061337057fe5b60040201600001908051906020019061338a929190614eb9565b5060408051808201909152600181527f30000000000000000000000000000000000000000000000000000000000000006020820152601682600781106133cc57fe5b6004020160010190805190602001906133e6929190614eb9565b506000601682600781106133f657fe5b600402016002018190555060115460168260078110151561341357fe5b60040201600301556001016132f4565b6000613430600f54613537565b604080516020808252601f908201527f41736b696e6720666f722061206e6577206920706172616d657465722e2e2e008183015290517f46cb989ef9cef13e930e3b7f286225a086e716a90d63e0b7da85d310a9db0c9a9181900360600190a16135076040805190810160405280600c81526020017f576f6c6672616d416c70686100000000000000000000000000000000000000008152506040805190810160405280600f81526020017f342072616e646f6d206e756d6265720000000000000000000000000000000000815250600e5461371d565b60009081526034602052604090208054600160a060020a031916600160a060020a03939093169290921790915550565b600054600160a060020a03161580613561575060005461355f90600160a060020a0316614779565b155b1561357257613570600061477d565b505b6000809054906101000a9004600160a060020a0316600160a060020a03166338cc48316040518163ffffffff1660e060020a028152600401602060405180830381600087803b1580156135c457600080fd5b505af11580156135d8573d6000803e3d6000fd5b505050506040513d60208110156135ee57600080fd5b5051600154600160a060020a039081169116146136a3576000809054906101000a9004600160a060020a0316600160a060020a03166338cc48316040518163ffffffff1660e060020a028152600401602060405180830381600087803b15801561365757600080fd5b505af115801561366b573d6000803e3d6000fd5b505050506040513d602081101561368157600080fd5b505160018054600160a060020a031916600160a060020a039092169190911790555b600154604080517fca6ad1e4000000000000000000000000000000000000000000000000000000008152600481018490529051600160a060020a039092169163ca6ad1e49160248082019260009290919082900301818387803b15801561370957600080fd5b505af1158015611bb5573d6000803e3d6000fd5b600080548190600160a060020a0316158061374a575060005461374890600160a060020a0316614779565b155b1561375b57613759600061477d565b505b6000809054906101000a9004600160a060020a0316600160a060020a03166338cc48316040518163ffffffff1660e060020a028152600401602060405180830381600087803b1580156137ad57600080fd5b505af11580156137c1573d6000803e3d6000fd5b505050506040513d60208110156137d757600080fd5b5051600154600160a060020a0390811691161461388c576000809054906101000a9004600160a060020a0316600160a060020a03166338cc48316040518163ffffffff1660e060020a028152600401602060405180830381600087803b15801561384057600080fd5b505af1158015613854573d6000803e3d6000fd5b505050506040513d602081101561386a57600080fd5b505160018054600160a060020a031916600160a060020a039092169190911790555b600154604080517f2ef3accc0000000000000000000000000000000000000000000000000000000081526024810186905260048101918252875160448201528751600160a060020a0390931692632ef3accc9289928892829160640190602086019080838360005b8381101561390c5781810151838201526020016138f4565b50505050905090810190601f1680156139395780820380516001836020036101000a031916815260200191505b509350505050602060405180830381600087803b15801561395957600080fd5b505af115801561396d573d6000803e3d6000fd5b505050506040513d602081101561398357600080fd5b50519050670de0b6b3a76400003a8402018111156139a45760009150613b16565b6001546040517fc51be90f00000000000000000000000000000000000000000000000000000000815260006004820181815260648301879052608060248401908152895160848501528951600160a060020a039095169463c51be90f948794938c938c938c93604481019160a49091019060208801908083838c5b83811015613a37578181015183820152602001613a1f565b50505050905090810190601f168015613a645780820380516001836020036101000a031916815260200191505b50838103825285518152855160209182019187019080838360005b83811015613a97578181015183820152602001613a7f565b50505050905090810190601f168015613ac45780820380516001836020036101000a031916815260200191505b5096505050505050506020604051808303818588803b158015613ae657600080fd5b505af1158015613afa573d6000803e3d6000fd5b50505050506040513d6020811015613b1157600080fd5b505191505b509392505050565b60008054600160a060020a03161580613b495750600054613b4790600160a060020a0316614779565b155b15613b5a57613b58600061477d565b505b6000809054906101000a9004600160a060020a0316600160a060020a03166338cc48316040518163ffffffff1660e060020a028152600401602060405180830381600087803b158015613bac57600080fd5b505af1158015613bc0573d6000803e3d6000fd5b505050506040513d6020811015613bd657600080fd5b5051600154600160a060020a03908116911614613c8b576000809054906101000a9004600160a060020a0316600160a060020a03166338cc48316040518163ffffffff1660e060020a028152600401602060405180830381600087803b158015613c3f57600080fd5b505af1158015613c53573d6000803e3d6000fd5b505050506040513d6020811015613c6957600080fd5b505160018054600160a060020a031916600160a060020a039092169190911790555b600160009054906101000a9004600160a060020a0316600160a060020a031663c281d19e6040518163ffffffff1660e060020a028152600401602060405180830381600087803b158015613cde57600080fd5b505af1158015613cf2573d6000803e3d6000fd5b505050506040513d6020811015613d0857600080fd5b505190505b90565b6000613d1d826000614787565b92915050565b60408051600160a060020a03831660009081526032602090815290839020805460026001821615610100026000190190911604601f8101839004909202830160a090810190945260808301828152929384939290840182828015613dc85780601f10613d9d57610100808354040283529160200191613dc8565b820191906000526020600020905b815481529060010190602001808311613dab57829003601f168201915b505050505081526020016032600084600160a060020a0316600160a060020a031681526020019081526020016000206001018054600181600116156101000203166002900480601f016020809104026020016040519081016040528092919081815260200182805460018160011615610100020316600290048015613e8e5780601f10613e6357610100808354040283529160200191613e8e565b820191906000526020600020905b815481529060010190602001808311613e7157829003601f168201915b5050509183525050600160a060020a038316600090815260326020908152604091829020600201549083015260115491015260125460169060078110613ed057fe5b600402016000820151816000019080519060200190613ef0929190614eb9565b506020828101518051613f099260018501920190614eb9565b506040820151600282015560609091015160039091015550601280546001019055565b60408051600160a060020a03831660009081526032602090815283822080546002600180831615610100026000190190921604601f8101849004909302850160c090810190965260a0850183815293959094601594909384939192840182828015613fd85780601f10613fad57610100808354040283529160200191613fd8565b820191906000526020600020905b815481529060010190602001808311613fbb57829003601f168201915b505050505081526020016032600087600160a060020a0316600160a060020a031681526020019081526020016000206001018054600181600116156101000203166002900480601f01602080910402602001604051908101604052809291908181526020018280546001816001161561010002031660029004801561409e5780601f106140735761010080835404028352916020019161409e565b820191906000526020600020905b81548152906001019060200180831161408157829003601f168201915b5050509183525050600160a060020a0386166000818152603260209081526040808320600201548286015284019290925260115460609093019290925283546001810180865594835291819020835180516005909402909101926141059284920190614eb9565b50602082810151805161411e9260018501920190614eb9565b50604082015160028201556060820151600382018054600160a060020a031916600160a060020a0390921691909117905560809091015160049091015503905061196d8161197a565b60008282111561417357fe5b50900390565b604080518082018252600b81527f6d6f642828312f2831305e000000000000000000000000000000000000000000602080830191909152600780548451601f60026000196101006001861615020190931692909204918201849004840281018401909552808552606094859485946143559491939083018282801561423f5780601f106142145761010080835404028352916020019161423f565b820191906000526020600020905b81548152906001019060200180831161422257829003601f168201915b505060408051808201825260018082527f2d00000000000000000000000000000000000000000000000000000000000000602080840191909152600160a060020a038e1660009081526032825284902080548551600294821615610100026000190190911693909304601f81018390048302840183019095528483529296509094509092508301828280156143155780601f106142ea57610100808354040283529160200191614315565b820191906000526020600020905b8154815290600101906020018083116142f857829003601f168201915b50505050506040805190810160405280601081526020017f29292a31305e31303030302c31305e28000000000000000000000000000000008152506148f9565b60098054604080516020601f600260001961010060018816150201909516949094049384018190048102820181019092528281529395506144ff938693909290918301828280156143e75780601f106143bc576101008083540402835291602001916143e7565b820191906000526020600020905b8154815290600101906020018083116143ca57829003601f168201915b505060408051808201825260018082527f2b00000000000000000000000000000000000000000000000000000000000000602080840191909152600160a060020a038e16600090815260328252849020820180548551600294821615610100026000190190911693909304601f81018390048302840183019095528483529296509094509092508301828280156144bf5780601f10614494576101008083540402835291602001916144bf565b820191906000526020600020905b8154815290600101906020018083116144a257829003601f168201915b50505050506040805190810160405280600281526020017f29290000000000000000000000000000000000000000000000000000000000008152506148f9565b60408051808201825260018082527f2d00000000000000000000000000000000000000000000000000000000000000602080840191909152600160a060020a038916600090815260328252849020820180548551600294821615610100026000190190911693909304601f81018390048302840183019095528483529495506145ad9486948893928301828280156144bf5780601f10614494576101008083540402835291602001916144bf565b60408051808201825260018082527f280000000000000000000000000000000000000000000000000000000000000060208084019190915283518085018552600581527f292f31305e00000000000000000000000000000000000000000000000000000081830152600160a060020a038a16600090815260328352859020830180548651600295821615610100026000190190911694909404601f81018490048402850184019096528584529596506146c295939487949193928301828280156146b85780601f1061468d576101008083540402835291602001916146b8565b820191906000526020600020905b81548152906001019060200180831161469b57829003601f168201915b5050505050614b5a565b949350505050565b600160a060020a03811615156146df57600080fd5b600554604051600160a060020a038084169216907f8be0079c531659141344cd1fd0a4f28419497f9722a3daafe3b4186f6b6457e090600090a360058054600160a060020a031916600160a060020a0392909216919091179055565b600082151561474c57506000613d1d565b5081810281838281151561475c57fe5b0414613d1d57fe5b6000818381151561477157fe5b049392505050565b3b90565b6000613d1d614b82565b6000828180805b83518110156148dc5783517f3000000000000000000000000000000000000000000000000000000000000000908590839081106147c757fe5b90602001015160f860020a900460f860020a02600160f860020a0319161015801561483d575083517f39000000000000000000000000000000000000000000000000000000000000009085908390811061481d57fe5b90602001015160f860020a900460f860020a02600160f860020a03191611155b1561489657811561485c57851515614854576148dc565b600019909501945b600a830292506030848281518110151561487257fe5b90602001015160f860020a900460f860020a0260f860020a900403830192506148d4565b83818151811015156148a457fe5b90602001015160f860020a900460f860020a02600160f860020a031916602e60f860020a0214156148d457600191505b60010161478e565b60008611156148ee5785600a0a830292505b509095945050505050565b6060806060806060806060806000808e98508d97508c96508b95508a94508451865188518a518c51010101016040519080825280601f01601f191660200182016040528015614952578160200160208202803883390190505b50935083925060009150600090505b88518110156149bf57888181518110151561497857fe5b90602001015160f860020a900460f860020a02838380600101945081518110151561499f57fe5b906020010190600160f860020a031916908160001a905350600101614961565b5060005b8751811015614a215787818151811015156149da57fe5b90602001015160f860020a900460f860020a028383806001019450815181101515614a0157fe5b906020010190600160f860020a031916908160001a9053506001016149c3565b5060005b8651811015614a83578681815181101515614a3c57fe5b90602001015160f860020a900460f860020a028383806001019450815181101515614a6357fe5b906020010190600160f860020a031916908160001a905350600101614a25565b5060005b8551811015614ae5578581815181101515614a9e57fe5b90602001015160f860020a900460f860020a028383806001019450815181101515614ac557fe5b906020010190600160f860020a031916908160001a905350600101614a87565b5060005b8451811015614b47578481815181101515614b0057fe5b90602001015160f860020a900460f860020a028383806001019450815181101515614b2757fe5b906020010190600160f860020a031916908160001a905350600101614ae9565b50909d9c50505050505050505050505050565b6060614b798585858560206040519081016040528060008152506148f9565b95945050505050565b600080614ba2731d3b2638a7cc9f2cb3d298a3da7a90b67e5506ed614779565b1115614c135760008054600160a060020a031916731d3b2638a7cc9f2cb3d298a3da7a90b67e5506ed17905560408051808201909152600b81527f6574685f6d61696e6e65740000000000000000000000000000000000000000006020820152614c0b90614eaa565b506001613d0d565b6000614c3273c03a2615d5efaf5f49f60b7bb6583eaec212fdf1614779565b1115614c9b5760008054600160a060020a03191673c03a2615d5efaf5f49f60b7bb6583eaec212fdf117905560408051808201909152600c81527f6574685f726f707374656e3300000000000000000000000000000000000000006020820152614c0b90614eaa565b6000614cba73b7a07bcf2ba2f2703b24c0691b5278999c59ac7e614779565b1115614d235760008054600160a060020a03191673b7a07bcf2ba2f2703b24c0691b5278999c59ac7e17905560408051808201909152600981527f6574685f6b6f76616e00000000000000000000000000000000000000000000006020820152614c0b90614eaa565b6000614d4273146500cfd35b22e4a392fe0adc06de1a1368ed48614779565b1115614dab5760008054600160a060020a03191673146500cfd35b22e4a392fe0adc06de1a1368ed4817905560408051808201909152600b81527f6574685f72696e6b6562790000000000000000000000000000000000000000006020820152614c0b90614eaa565b6000614dca736f485c8bf6fc43ea212e93bbf8ce046c7f1cb475614779565b1115614dfe575060008054600160a060020a031916736f485c8bf6fc43ea212e93bbf8ce046c7f1cb4751790556001613d0d565b6000614e1d7320e12a1f859b3feae5fb2a0a32c18f5a65555bbf614779565b1115614e51575060008054600160a060020a0319167320e12a1f859b3feae5fb2a0a32c18f5a65555bbf1790556001613d0d565b6000614e707351efaf4c8b3c9afbd5ab9f4bbc82784ab6ef8faa614779565b1115614ea4575060008054600160a060020a0319167351efaf4c8b3c9afbd5ab9f4bbc82784ab6ef8faa1790556001613d0d565b50600090565b805161196d9060029060208401905b828054600181600116156101000203166002900490600052602060002090601f016020900481019282601f10614efa57805160ff1916838001178555614f27565b82800160010185558215614f27579182015b82811115614f27578251825591602001919060010190614f0c565b50614f3392915061501c565b5090565b60e060405190810160405280600081526020016000600160a060020a0316815260200160008152602001600081526020016000815260200160008152602001600081525090565b608060405190810160405280606081526020016060815260200160008152602001600081525090565b828054600181600116156101000203166002900490600052602060002090601f016020900481019282601f10614fe05780548555614f27565b82800160010185558215614f2757600052602060002091601f016020900482015b82811115614f27578254825591600101919060010190615001565b613d0d91905b80821115614f33576000815560010161502256009bc068999fb1a0aac007a9b44ca6322a376441f42706bf5163600bb3d1a731647ecbd54b3baea533cf57ef049f9e04554be6a660d6dacd477488066eedf27beea165627a7a72305820e9b3513c95559f888f10b51429b3bec862c7aba0ca2b03a322d2342de58383c40029",
  "source": "pragma solidity ^0.4.20;\n\nimport \"./Lucky7TicketFactory.sol\";\n\ncontract Lucky7Ballot is Lucky7TicketFactory{\n    \n    \n    uint public initialLucky7TicketPosition=0;\n    \n    function Lucky7Ballot() payable {\n        \n    }\n    \n    \n    function _generateLucky7Number() public onlyOwner{\n        if(indexForLucky7Array == numberOfLucky7Numbers){\n            _orderLucky7Numbers();\n            indexForLucky7Array = 0;\n            toggleLucky7Setting();\n        }\n        else{\n            userValues[this].muReady = false;\n            userValues[this].iReady = false;\n            _generateTicket(this);\n        }\n    }\n    \n    function setNewGame()                                      \n        public \n        onlyOwner \n    {\n        //Set initial index for Lucky7Tickets\n        initialLucky7TicketPosition=drawNumber*numberOfLucky7Numbers;\n        //Increase drawNumber\n        //Set on Lucky7NumbersSetting\n        toggleLucky7Setting();\n        //Deliver Prizes\n        //Deliver lot for enterprise\n        _orderLucky7Tickets();\n        _deliverPrizes();\n    }\n    \n    function _orderLucky7Numbers() public onlyOwner{\n        Lucky7Number memory smallest;\n        uint aux;\n        uint j;\n        uint i;\n        for(i=0; i<numberOfLucky7Numbers; i++){\n            aux = i;\n            smallest = lucky7Numbers[i];\n            for (j=i+1; j<numberOfLucky7Numbers; j++){\n                if(smallest.ticketValue>lucky7Numbers[j].ticketValue){\n                    smallest = lucky7Numbers[j];\n                    aux = j;\n                }\n            }\n            if(aux!=i){\n                lucky7Numbers[aux]=lucky7Numbers[i];\n                lucky7Numbers[i] = smallest;\n            }\n        }\n    }\n    \n    function _orderLucky7Tickets() public onlyOwner{\n        Lucky7Ticket memory smallest;\n        uint aux;\n        uint j;\n        uint i;\n        for (i=0; i<numberOfLucky7Numbers; i++){\n            lucky7Tickets.push(\n                Lucky7Ticket(\n                    lucky7TicketDifference[i],\n                    lucky7TicketOwner[i],\n                    lucky7TicketID[i],\n                    tickets[lucky7TicketID[i]].ticketValue,\n                    lucky7Numbers[i].ticketValue,\n                    i,\n                    drawNumber)\n                    );\n        }\n        for(i=initialLucky7TicketPosition; i<numberOfLucky7Numbers+initialLucky7TicketPosition; i++){\n            aux = i;\n            smallest = lucky7Tickets[i];\n            for (j=i+1; j<numberOfLucky7Numbers+initialLucky7TicketPosition; j++){\n                if(smallest.difference>lucky7Tickets[j].difference){\n                    smallest = lucky7Tickets[j];\n                    aux = j;\n                }\n            }\n            if(aux!=i){\n                lucky7Tickets[aux]=lucky7Tickets[i];\n                lucky7Tickets[i] = smallest;\n            }\n        }\n    }\n    \n    function _deliverPrizes() public onlyOwner{\n        uint winnersPrize = this.balance.mul(7);\n        winnersPrize = winnersPrize.div(10);\n        uint firstPrize = winnersPrize.mul(6);\n        uint secondPrize = winnersPrize.mul(3);\n        uint thirdPrize = winnersPrize.mul(1);\n        firstPrize = firstPrize.div(10);\n        secondPrize = secondPrize.div(10);\n        thirdPrize = thirdPrize.div(10);\n        uint i;\n        for(i=initialLucky7TicketPosition; i<numberOfLucky7Numbers+initialLucky7TicketPosition; i++){\n            if(lucky7Tickets[i].owner!=address(0x0)){\n                lucky7Tickets[i].owner.transfer(firstPrize);\n                break;\n            }\n        }\n        \n        for(i++; i<numberOfLucky7Numbers+initialLucky7TicketPosition; i++){\n            if(lucky7Tickets[i].owner!=address(0x0)){\n                lucky7Tickets[i].owner.transfer(secondPrize);\n                break;\n            }\n        }\n        \n        for(i++; i<numberOfLucky7Numbers+initialLucky7TicketPosition; i++){\n            if(lucky7Tickets[i].owner!=address(0x0)){\n                lucky7Tickets[i].owner.transfer(thirdPrize);\n                break;\n            }\n        }\n        drawNumber++;\n        enterpriseWallet.transfer(this.balance);\n        for(i=0; i<numberOfLucky7Numbers; i++){\n            lucky7TicketOwner[i] = address(0x0);\n            lucky7TicketDifference[i] = 0;\n            lucky7TicketID[i] = 0;\n            lucky7Numbers[i].mu=\"0\";\n            lucky7Numbers[i].i=\"0\";\n            lucky7Numbers[i].ticketValue=0;\n            lucky7Numbers[i].drawID=drawNumber;\n        }\n    }\n    \n    function () public payable {\n        \n    }\n}",
  "sourcePath": "/Users/matiasbarrios/Desktop/Proyecto Consensys/luckyseven/contracts/Lucky7Ballot.sol",
  "compiler": {
    "name": "solc",
    "version": "0.4.24+commit.e67f0147.Emscripten.clang"
  },
  "schemaVersion": "2.0.1",
  "updatedAt": "2018-08-15T23:52:00.392Z"
}