{
  "contractName": "Lucky7Storage",
  "abi": [
    {
      "constant": true,
      "inputs": [
        {
          "name": "_operator",
          "type": "address"
        },
        {
          "name": "_role",
          "type": "string"
        }
      ],
      "name": "checkRole",
      "outputs": [],
      "payable": false,
      "stateMutability": "view",
      "type": "function"
    },
    {
      "constant": true,
      "inputs": [
        {
          "name": "",
          "type": "uint256"
        }
      ],
      "name": "lucky7TicketID",
      "outputs": [
        {
          "name": "",
          "type": "uint256"
        }
      ],
      "payable": false,
      "stateMutability": "view",
      "type": "function"
    },
    {
      "constant": true,
      "inputs": [],
      "name": "lastSecondPrizeAmount",
      "outputs": [
        {
          "name": "",
          "type": "uint256"
        }
      ],
      "payable": false,
      "stateMutability": "view",
      "type": "function"
    },
    {
      "constant": true,
      "inputs": [],
      "name": "ROLE_WHITELISTED",
      "outputs": [
        {
          "name": "",
          "type": "string"
        }
      ],
      "payable": false,
      "stateMutability": "view",
      "type": "function"
    },
    {
      "constant": true,
      "inputs": [
        {
          "name": "",
          "type": "uint256"
        }
      ],
      "name": "lucky7TicketOwner",
      "outputs": [
        {
          "name": "",
          "type": "address"
        }
      ],
      "payable": false,
      "stateMutability": "view",
      "type": "function"
    },
    {
      "constant": true,
      "inputs": [
        {
          "name": "_operator",
          "type": "address"
        },
        {
          "name": "_role",
          "type": "string"
        }
      ],
      "name": "hasRole",
      "outputs": [
        {
          "name": "",
          "type": "bool"
        }
      ],
      "payable": false,
      "stateMutability": "view",
      "type": "function"
    },
    {
      "constant": false,
      "inputs": [
        {
          "name": "_operators",
          "type": "address[]"
        }
      ],
      "name": "removeAddressesFromWhitelist",
      "outputs": [],
      "payable": false,
      "stateMutability": "nonpayable",
      "type": "function"
    },
    {
      "constant": false,
      "inputs": [
        {
          "name": "_operator",
          "type": "address"
        }
      ],
      "name": "removeAddressFromWhitelist",
      "outputs": [],
      "payable": false,
      "stateMutability": "nonpayable",
      "type": "function"
    },
    {
      "constant": true,
      "inputs": [],
      "name": "lastFifthPrizeWinner",
      "outputs": [
        {
          "name": "",
          "type": "address"
        }
      ],
      "payable": false,
      "stateMutability": "view",
      "type": "function"
    },
    {
      "constant": true,
      "inputs": [],
      "name": "lastFourthPrizeWinner",
      "outputs": [
        {
          "name": "",
          "type": "address"
        }
      ],
      "payable": false,
      "stateMutability": "view",
      "type": "function"
    },
    {
      "constant": true,
      "inputs": [],
      "name": "numberOfLucky7Numbers",
      "outputs": [
        {
          "name": "",
          "type": "uint256"
        }
      ],
      "payable": false,
      "stateMutability": "view",
      "type": "function"
    },
    {
      "constant": true,
      "inputs": [],
      "name": "lastFifthPrizeAmount",
      "outputs": [
        {
          "name": "",
          "type": "uint256"
        }
      ],
      "payable": false,
      "stateMutability": "view",
      "type": "function"
    },
    {
      "constant": false,
      "inputs": [],
      "name": "renounceOwnership",
      "outputs": [],
      "payable": false,
      "stateMutability": "nonpayable",
      "type": "function"
    },
    {
      "constant": false,
      "inputs": [
        {
          "name": "_operator",
          "type": "address"
        }
      ],
      "name": "addAddressToWhitelist",
      "outputs": [],
      "payable": false,
      "stateMutability": "nonpayable",
      "type": "function"
    },
    {
      "constant": true,
      "inputs": [],
      "name": "lastSecondPrizeWinner",
      "outputs": [
        {
          "name": "",
          "type": "address"
        }
      ],
      "payable": false,
      "stateMutability": "view",
      "type": "function"
    },
    {
      "constant": true,
      "inputs": [
        {
          "name": "",
          "type": "uint256"
        }
      ],
      "name": "ExactLucky7TicketValue",
      "outputs": [
        {
          "name": "",
          "type": "uint256"
        }
      ],
      "payable": false,
      "stateMutability": "view",
      "type": "function"
    },
    {
      "constant": true,
      "inputs": [
        {
          "name": "",
          "type": "uint256"
        }
      ],
      "name": "ExactLucky7TicketID",
      "outputs": [
        {
          "name": "",
          "type": "uint256"
        }
      ],
      "payable": false,
      "stateMutability": "view",
      "type": "function"
    },
    {
      "constant": true,
      "inputs": [],
      "name": "owner",
      "outputs": [
        {
          "name": "",
          "type": "address"
        }
      ],
      "payable": false,
      "stateMutability": "view",
      "type": "function"
    },
    {
      "constant": true,
      "inputs": [
        {
          "name": "",
          "type": "uint256"
        }
      ],
      "name": "lucky7NumbersArray",
      "outputs": [
        {
          "name": "mu",
          "type": "string"
        },
        {
          "name": "i",
          "type": "string"
        },
        {
          "name": "ticketValue",
          "type": "uint256"
        },
        {
          "name": "drawID",
          "type": "uint256"
        }
      ],
      "payable": false,
      "stateMutability": "view",
      "type": "function"
    },
    {
      "constant": true,
      "inputs": [],
      "name": "lastFirstPrizeWinner",
      "outputs": [
        {
          "name": "",
          "type": "address"
        }
      ],
      "payable": false,
      "stateMutability": "view",
      "type": "function"
    },
    {
      "constant": true,
      "inputs": [],
      "name": "lastFirstPrizeAmount",
      "outputs": [
        {
          "name": "",
          "type": "uint256"
        }
      ],
      "payable": false,
      "stateMutability": "view",
      "type": "function"
    },
    {
      "constant": true,
      "inputs": [
        {
          "name": "_operator",
          "type": "address"
        }
      ],
      "name": "whitelist",
      "outputs": [
        {
          "name": "",
          "type": "bool"
        }
      ],
      "payable": false,
      "stateMutability": "view",
      "type": "function"
    },
    {
      "constant": true,
      "inputs": [
        {
          "name": "",
          "type": "uint256"
        }
      ],
      "name": "ticketsArray",
      "outputs": [
        {
          "name": "mu",
          "type": "string"
        },
        {
          "name": "i",
          "type": "string"
        },
        {
          "name": "ticketValue",
          "type": "uint256"
        },
        {
          "name": "owner",
          "type": "address"
        },
        {
          "name": "drawID",
          "type": "uint256"
        }
      ],
      "payable": false,
      "stateMutability": "view",
      "type": "function"
    },
    {
      "constant": true,
      "inputs": [],
      "name": "initialLucky7TicketPosition",
      "outputs": [
        {
          "name": "",
          "type": "uint256"
        }
      ],
      "payable": false,
      "stateMutability": "view",
      "type": "function"
    },
    {
      "constant": true,
      "inputs": [],
      "name": "indexForLucky7Array",
      "outputs": [
        {
          "name": "",
          "type": "uint256"
        }
      ],
      "payable": false,
      "stateMutability": "view",
      "type": "function"
    },
    {
      "constant": true,
      "inputs": [
        {
          "name": "",
          "type": "uint256"
        }
      ],
      "name": "lucky7TicketsArray",
      "outputs": [
        {
          "name": "difference",
          "type": "uint256"
        },
        {
          "name": "owner",
          "type": "address"
        },
        {
          "name": "ticketID",
          "type": "uint256"
        },
        {
          "name": "ticketValue",
          "type": "uint256"
        },
        {
          "name": "lucky7Number",
          "type": "uint256"
        },
        {
          "name": "lucky7NumberID",
          "type": "uint256"
        },
        {
          "name": "drawID",
          "type": "uint256"
        }
      ],
      "payable": false,
      "stateMutability": "view",
      "type": "function"
    },
    {
      "constant": true,
      "inputs": [],
      "name": "lastSixthPrizeWinner",
      "outputs": [
        {
          "name": "",
          "type": "address"
        }
      ],
      "payable": false,
      "stateMutability": "view",
      "type": "function"
    },
    {
      "constant": true,
      "inputs": [],
      "name": "lastSixthPrizeAmount",
      "outputs": [
        {
          "name": "",
          "type": "uint256"
        }
      ],
      "payable": false,
      "stateMutability": "view",
      "type": "function"
    },
    {
      "constant": true,
      "inputs": [],
      "name": "drawNumber",
      "outputs": [
        {
          "name": "",
          "type": "uint256"
        }
      ],
      "payable": false,
      "stateMutability": "view",
      "type": "function"
    },
    {
      "constant": true,
      "inputs": [],
      "name": "indexForExactLucky7Ticket",
      "outputs": [
        {
          "name": "",
          "type": "uint256"
        }
      ],
      "payable": false,
      "stateMutability": "view",
      "type": "function"
    },
    {
      "constant": false,
      "inputs": [
        {
          "name": "_operators",
          "type": "address[]"
        }
      ],
      "name": "addAddressesToWhitelist",
      "outputs": [],
      "payable": false,
      "stateMutability": "nonpayable",
      "type": "function"
    },
    {
      "constant": true,
      "inputs": [],
      "name": "lastSeventhPrizeAmount",
      "outputs": [
        {
          "name": "",
          "type": "uint256"
        }
      ],
      "payable": false,
      "stateMutability": "view",
      "type": "function"
    },
    {
      "constant": true,
      "inputs": [
        {
          "name": "",
          "type": "uint256"
        }
      ],
      "name": "lucky7TicketDifference",
      "outputs": [
        {
          "name": "",
          "type": "uint256"
        }
      ],
      "payable": false,
      "stateMutability": "view",
      "type": "function"
    },
    {
      "constant": true,
      "inputs": [
        {
          "name": "",
          "type": "uint256"
        }
      ],
      "name": "ExactLucky7TicketOwner",
      "outputs": [
        {
          "name": "",
          "type": "address"
        }
      ],
      "payable": false,
      "stateMutability": "view",
      "type": "function"
    },
    {
      "constant": true,
      "inputs": [],
      "name": "lastFourthPrizeAmount",
      "outputs": [
        {
          "name": "",
          "type": "uint256"
        }
      ],
      "payable": false,
      "stateMutability": "view",
      "type": "function"
    },
    {
      "constant": false,
      "inputs": [
        {
          "name": "_newOwner",
          "type": "address"
        }
      ],
      "name": "transferOwnership",
      "outputs": [],
      "payable": false,
      "stateMutability": "nonpayable",
      "type": "function"
    },
    {
      "constant": true,
      "inputs": [
        {
          "name": "",
          "type": "address"
        }
      ],
      "name": "pendingWithdrawals",
      "outputs": [
        {
          "name": "",
          "type": "uint256"
        }
      ],
      "payable": false,
      "stateMutability": "view",
      "type": "function"
    },
    {
      "constant": true,
      "inputs": [],
      "name": "currentTicketID",
      "outputs": [
        {
          "name": "",
          "type": "uint256"
        }
      ],
      "payable": false,
      "stateMutability": "view",
      "type": "function"
    },
    {
      "constant": true,
      "inputs": [],
      "name": "lastThirdPrizeAmount",
      "outputs": [
        {
          "name": "",
          "type": "uint256"
        }
      ],
      "payable": false,
      "stateMutability": "view",
      "type": "function"
    },
    {
      "constant": true,
      "inputs": [],
      "name": "lastSeventhPrizeWinner",
      "outputs": [
        {
          "name": "",
          "type": "address"
        }
      ],
      "payable": false,
      "stateMutability": "view",
      "type": "function"
    },
    {
      "constant": true,
      "inputs": [],
      "name": "lastThirdPrizeWinner",
      "outputs": [
        {
          "name": "",
          "type": "address"
        }
      ],
      "payable": false,
      "stateMutability": "view",
      "type": "function"
    },
    {
      "anonymous": false,
      "inputs": [
        {
          "indexed": false,
          "name": "ticketID",
          "type": "uint256"
        }
      ],
      "name": "NewLucky7Ticket",
      "type": "event"
    },
    {
      "anonymous": false,
      "inputs": [
        {
          "indexed": false,
          "name": "value",
          "type": "uint256"
        }
      ],
      "name": "NewLucky7Number",
      "type": "event"
    },
    {
      "anonymous": false,
      "inputs": [
        {
          "indexed": true,
          "name": "operator",
          "type": "address"
        },
        {
          "indexed": false,
          "name": "role",
          "type": "string"
        }
      ],
      "name": "RoleAdded",
      "type": "event"
    },
    {
      "anonymous": false,
      "inputs": [
        {
          "indexed": true,
          "name": "operator",
          "type": "address"
        },
        {
          "indexed": false,
          "name": "role",
          "type": "string"
        }
      ],
      "name": "RoleRemoved",
      "type": "event"
    },
    {
      "anonymous": false,
      "inputs": [
        {
          "indexed": true,
          "name": "previousOwner",
          "type": "address"
        }
      ],
      "name": "OwnershipRenounced",
      "type": "event"
    },
    {
      "anonymous": false,
      "inputs": [
        {
          "indexed": true,
          "name": "previousOwner",
          "type": "address"
        },
        {
          "indexed": true,
          "name": "newOwner",
          "type": "address"
        }
      ],
      "name": "OwnershipTransferred",
      "type": "event"
    },
    {
      "constant": false,
      "inputs": [
        {
          "name": "_ticketID",
          "type": "uint256"
        }
      ],
      "name": "_checkForLucky7Ticket",
      "outputs": [],
      "payable": false,
      "stateMutability": "nonpayable",
      "type": "function"
    },
    {
      "constant": false,
      "inputs": [],
      "name": "_orderLucky7Numbers",
      "outputs": [],
      "payable": false,
      "stateMutability": "nonpayable",
      "type": "function"
    },
    {
      "constant": false,
      "inputs": [],
      "name": "_orderLucky7Tickets",
      "outputs": [],
      "payable": false,
      "stateMutability": "nonpayable",
      "type": "function"
    },
    {
      "constant": false,
      "inputs": [
        {
          "name": "_mu",
          "type": "string"
        },
        {
          "name": "_i",
          "type": "string"
        },
        {
          "name": "_ticketValue",
          "type": "uint256"
        },
        {
          "name": "_owner",
          "type": "address"
        }
      ],
      "name": "storageTicket",
      "outputs": [
        {
          "name": "",
          "type": "uint256"
        }
      ],
      "payable": false,
      "stateMutability": "nonpayable",
      "type": "function"
    },
    {
      "constant": false,
      "inputs": [
        {
          "name": "_mu",
          "type": "string"
        },
        {
          "name": "_i",
          "type": "string"
        },
        {
          "name": "_ticketValue",
          "type": "uint256"
        }
      ],
      "name": "storageLucky7Number",
      "outputs": [],
      "payable": false,
      "stateMutability": "nonpayable",
      "type": "function"
    },
    {
      "constant": false,
      "inputs": [],
      "name": "_cleanMappings",
      "outputs": [],
      "payable": false,
      "stateMutability": "nonpayable",
      "type": "function"
    },
    {
      "constant": false,
      "inputs": [
        {
          "name": "_firstPrize",
          "type": "uint256"
        },
        {
          "name": "_secondPrize",
          "type": "uint256"
        },
        {
          "name": "_thirdPrize",
          "type": "uint256"
        },
        {
          "name": "_fourthPrize",
          "type": "uint256"
        },
        {
          "name": "_fifthPrize",
          "type": "uint256"
        },
        {
          "name": "_sixthPrize",
          "type": "uint256"
        },
        {
          "name": "_seventhPrize",
          "type": "uint256"
        }
      ],
      "name": "setWinners",
      "outputs": [],
      "payable": false,
      "stateMutability": "nonpayable",
      "type": "function"
    },
    {
      "constant": false,
      "inputs": [],
      "name": "setIndexForLucky7ArrayToZero",
      "outputs": [],
      "payable": false,
      "stateMutability": "nonpayable",
      "type": "function"
    },
    {
      "constant": false,
      "inputs": [
        {
          "name": "_withdrawalOwner",
          "type": "address"
        }
      ],
      "name": "setPendingWithdrawalToZero",
      "outputs": [],
      "payable": false,
      "stateMutability": "nonpayable",
      "type": "function"
    },
    {
      "constant": false,
      "inputs": [
        {
          "name": "_id",
          "type": "uint256"
        },
        {
          "name": "_mu",
          "type": "string"
        },
        {
          "name": "_i",
          "type": "string"
        },
        {
          "name": "_ticketValue",
          "type": "uint256"
        },
        {
          "name": "_drawNumber",
          "type": "uint256"
        }
      ],
      "name": "insertCustomizedLucky7Number",
      "outputs": [],
      "payable": false,
      "stateMutability": "nonpayable",
      "type": "function"
    },
    {
      "constant": false,
      "inputs": [
        {
          "name": "_mu",
          "type": "string"
        },
        {
          "name": "_i",
          "type": "string"
        },
        {
          "name": "_ticketValue",
          "type": "uint256"
        },
        {
          "name": "_ticketOwner",
          "type": "address"
        },
        {
          "name": "_drawNumber",
          "type": "uint256"
        }
      ],
      "name": "insertCustomizedTicket",
      "outputs": [
        {
          "name": "",
          "type": "uint256"
        }
      ],
      "payable": false,
      "stateMutability": "nonpayable",
      "type": "function"
    },
    {
      "constant": false,
      "inputs": [
        {
          "name": "_newValue",
          "type": "uint256"
        }
      ],
      "name": "setIndexForLucky7Array",
      "outputs": [],
      "payable": false,
      "stateMutability": "nonpayable",
      "type": "function"
    },
    {
      "constant": false,
      "inputs": [
        {
          "name": "_newValue",
          "type": "uint256"
        }
      ],
      "name": "setInitialLucky7TicketPosition",
      "outputs": [],
      "payable": false,
      "stateMutability": "nonpayable",
      "type": "function"
    }
  ],
  "bytecode": "0x608060405260006027819055602881905560298190556002602a55602b819055602c819055602d819055602e819055602f819055603081905560318190556032819055603381905560348054600160a060020a031990811690915560358054821690556036805482169055603780548216905560388054821690556039805482169055603a80548216905581541633179055613051806100a06000396000f3006080604052600436106102875763ffffffff7c01000000000000000000000000000000000000000000000000000000006000350416630988ca8c811461028c5780630d0a4b7f146102f557806310cd4b8a1461030d57806315968e56146103375780631827f45d1461034c57806318b919e9146103645780631c3ed1d3146103ee5780631cf4c3d114610422578063217fe6c61461043757806324953eaa146104b2578063286dd3f5146105075780632de729eb1461052857806337d42c4e146105405780635053cbe11461055557806359f9fe821461056a5780635d0462aa1461057f5780635fff9ae314610594578063715018a61461063957806375edd2571461064e5780637b9417c8146106635780637fd4ecde146106845780638a1dd740146106995780638ce3da3c146106b15780638da5cb5b146106c95780638df3dc86146106de57806396853e13146106f3578063980d988c146107f75780639932f1191461080c5780639b19251a146108215780639e6a1b0414610842578063a9c52d79146108db578063b4f8eadd146108fc578063bb4127e814610a0f578063bb49516b14610abb578063bdaaf43214610ad0578063c53d6e4714610afa578063c56969ab14610b0f578063c629dad914610b24578063c6a99dc414610b7c578063ce47d84b14610b91578063d6efcd4014610ba6578063d80ffb2014610c4e578063d84ca03a14610c63578063e2ec6ec314610c78578063e3514b5914610ccd578063e802ae1414610ce2578063eaaa680a14610cfa578063f06cf78014610d12578063f2fde38b14610d27578063f3f4370314610d48578063f53c7d0814610d69578063f5ac6a1114610d7e578063f62440ca14610d93578063fc22d3e414610da8575b600080fd5b34801561029857600080fd5b5060408051602060046024803582810135601f81018590048502860185019096528585526102f3958335600160a060020a0316953695604494919390910191908190840183828082843750949750610dbd9650505050505050565b005b34801561030157600080fd5b506102f3600435610e2b565b34801561031957600080fd5b50610325600435610e47565b60408051918252519081900360200190f35b34801561034357600080fd5b50610325610e59565b34801561035857600080fd5b506102f3600435610e5f565b34801561037057600080fd5b50610379610e7b565b6040805160208082528351818301528351919283929083019185019080838360005b838110156103b357818101518382015260200161039b565b50505050905090810190601f1680156103e05780820380516001836020036101000a031916815260200191505b509250505060405180910390f35b3480156103fa57600080fd5b50610406600435610ea0565b60408051600160a060020a039092168252519081900360200190f35b34801561042e57600080fd5b506102f3610ebb565b34801561044357600080fd5b5060408051602060046024803582810135601f810185900485028601850190965285855261049e958335600160a060020a03169536956044949193909101919081908401838280828437509497506112799650505050505050565b604080519115158252519081900360200190f35b3480156104be57600080fd5b50604080516020600480358082013583810280860185019096528085526102f3953695939460249493850192918291850190849080828437509497506112ec9650505050505050565b34801561051357600080fd5b506102f3600160a060020a0360043516611339565b34801561053457600080fd5b506102f3600435611380565b34801561054c57600080fd5b506104066116da565b34801561056157600080fd5b506104066116e9565b34801561057657600080fd5b506103256116f8565b34801561058b57600080fd5b506103256116fe565b3480156105a057600080fd5b5060408051602060046024803582810135601f81018590048502860185019096528585526102f395833595369560449491939091019190819084018382808284375050604080516020601f89358b018035918201839004830284018301909452808352979a9998810197919650918201945092508291508401838280828437509497505084359550505060209092013591506117049050565b34801561064557600080fd5b506102f36117a0565b34801561065a57600080fd5b506102f36117ff565b34801561066f57600080fd5b506102f3600160a060020a0360043516611c28565b34801561069057600080fd5b50610406611c6c565b3480156106a557600080fd5b50610325600435611c7b565b3480156106bd57600080fd5b50610325600435611c8d565b3480156106d557600080fd5b50610406611c9f565b3480156106ea57600080fd5b506102f3611cae565b3480156106ff57600080fd5b5061070b600435611cb5565b604051808060200180602001858152602001848152602001838103835287818151815260200191508051906020019080838360005b83811015610758578181015183820152602001610740565b50505050905090810190601f1680156107855780820380516001836020036101000a031916815260200191505b50838103825286518152865160209182019188019080838360005b838110156107b85781810151838201526020016107a0565b50505050905090810190601f1680156107e55780820380516001836020036101000a031916815260200191505b50965050505050505060405180910390f35b34801561080357600080fd5b50610406611e01565b34801561081857600080fd5b50610325611e10565b34801561082d57600080fd5b5061049e600160a060020a0360043516611e16565b34801561084e57600080fd5b506040805160206004803580820135601f81018490048402850184019095528484526102f394369492936024939284019190819084018382808284375050604080516020601f89358b018035918201839004830284018301909452808352979a9998810197919650918201945092508291508401838280828437509497505093359450611e4b9350505050565b3480156108e757600080fd5b506102f3600160a060020a0360043516611f0d565b34801561090857600080fd5b50610914600435611f27565b60408051908101849052600160a060020a03831660608201526080810182905260a08082528651908201528551819060208083019160c08401918a019080838360005b8381101561096f578181015183820152602001610957565b50505050905090810190601f16801561099c5780820380516001836020036101000a031916815260200191505b50838103825287518152875160209182019189019080838360005b838110156109cf5781810151838201526020016109b7565b50505050905090810190601f1680156109fc5780820380516001836020036101000a031916815260200191505b5097505050505050505060405180910390f35b348015610a1b57600080fd5b506040805160206004803580820135601f810184900484028501840190955284845261032594369492936024939284019190819084018382808284375050604080516020601f89358b018035918201839004830284018301909452808352979a99988101979196509182019450925082915084018382808284375094975050843595505050506020820135600160a060020a031691604001359050612094565b348015610ac757600080fd5b50610325612195565b348015610adc57600080fd5b506102f360043560243560443560643560843560a43560c43561219b565b348015610b0657600080fd5b506102f36127c2565b348015610b1b57600080fd5b50610325612944565b348015610b3057600080fd5b50610b3c60043561294a565b60408051978852600160a060020a039096166020880152868601949094526060860192909252608085015260a084015260c0830152519081900360e00190f35b348015610b8857600080fd5b506104066129a1565b348015610b9d57600080fd5b506103256129b0565b348015610bb257600080fd5b506040805160206004803580820135601f810184900484028501840190955284845261032594369492936024939284019190819084018382808284375050604080516020601f89358b018035918201839004830284018301909452808352979a9998810197919650918201945092508291508401838280828437509497505084359550505050602090910135600160a060020a031690506129b6565b348015610c5a57600080fd5b50610325612a99565b348015610c6f57600080fd5b50610325612a9f565b348015610c8457600080fd5b50604080516020600480358082013583810280860185019096528085526102f395369593946024949385019291829185019084908082843750949750612aa59650505050505050565b348015610cd957600080fd5b50610325612af2565b348015610cee57600080fd5b50610325600435612af8565b348015610d0657600080fd5b50610406600435612b09565b348015610d1e57600080fd5b50610325612b24565b348015610d3357600080fd5b506102f3600160a060020a0360043516612b2a565b348015610d5457600080fd5b50610325600160a060020a0360043516612b4a565b348015610d7557600080fd5b50610325612b5c565b348015610d8a57600080fd5b50610325612b62565b348015610d9f57600080fd5b50610406612b68565b348015610db457600080fd5b50610406612b77565b610e27826001836040518082805190602001908083835b60208310610df35780518252601f199092019160209182019101610dd4565b51815160209384036101000a6000190180199092169116179052920194855250604051938490030190922092915050612b86565b5050565b600054600160a060020a03163314610e4257600080fd5b602b55565b60226020526000908152604090205481565b602e5481565b600054600160a060020a03163314610e7657600080fd5b602855565b6040805180820190915260098152600080516020613006833981519152602082015281565b602160205260009081526040902054600160a060020a031681565b610ec3612e66565b60008080805b602a54831015610ff4576040805160e081018252600085815260208080528382205483528682526021815283822054600160a060020a0316818401528682526022808252848320549484018590529187905252600380546002936060840192918110610f3157fe5b9060005260206000209060050201600201548152602001600486600781101515610f5757fe5b600490810291909101600290810154835260208084018990526027546040948501528554600180820188556000978852968290208651600790920201908155908501518187018054600160a060020a031916600160a060020a0390921691909117905592840151908301556060830151600383015560808301519082015560a0820151600582015560c09091015160069091015590920191610ec9565b602b5491505b602b54602a54018210156112725781935060028281548110151561101a57fe5b60009182526020918290206040805160e081018252600790930290910180548352600180820154600160a060020a0316948401949094526002810154918301919091526003810154606083015260048101546080830152600581015460a08301526006015460c08201529550820190505b602b54602a54018110156111445760028054829081106110a757fe5b60009182526020909120600790910201548551111561113c5760028054829081106110ce57fe5b60009182526020918290206040805160e0810182526007909302909101805483526001810154600160a060020a0316938301939093526002830154908201526003820154606082015260048201546080820152600582015460a082015260069091015460c082015294509250825b60010161108b565b83821461126757600280548390811061115957fe5b906000526020600020906007020160028581548110151561117657fe5b6000918252602090912082546007909202019081556001808301549082018054600160a060020a031916600160a060020a039092169190911790556002808301548183015560038084015490830155600480840154908301556005808401549083015560069283015492909101919091558054869190849081106111f657fe5b600091825260209182902083516007929092020190815590820151600182018054600160a060020a031916600160a060020a0390921691909117905560408201516002820155606082015160038201556080820151600482015560a0820151600582015560c0909101516006909101555b600190910190610ffa565b5050505050565b60006112e5836001846040518082805190602001908083835b602083106112b15780518252601f199092019160209182019101611292565b51815160209384036101000a6000190180199092169116179052920194855250604051938490030190922092915050612b9b565b9392505050565b60008054600160a060020a0316331461130457600080fd5b5060005b8151811015610e2757611331828281518110151561132257fe5b90602001906020020151611339565b600101611308565b600054600160a060020a0316331461135057600080fd5b61137d81604080519081016040528060098152602001600080516020613006833981519152815250612bba565b50565b60008060008060046001602a540360078110151561139a57fe5b60040201600201546003868154811015156113b157fe5b906000526020600020906005020160020154111561142057602a54600019019350611419600485600781106113e257fe5b60040201600201546003878154811015156113f957fe5b906000526020600020906005020160020154612ccb90919063ffffffff16565b9250611566565b600654600380548790811061143157fe5b9060005260206000209060050201600201541015611496576000935061141960038681548110151561145f57fe5b90600052602060002090600502016002015460048660078110151561148057fe5b6004020160020154612ccb90919063ffffffff16565b600484600781106114a357fe5b60040201600201546003868154811015156114ba57fe5b90600052602060002090600502016002015411156114dd57600190930192611496565b600484600781106114ea57fe5b600402016002015460038681548110151561150157fe5b90600052602060002090600502016002015414156115225760009250611566565b61153660046000198601600781106113e257fe5b915061154a60038681548110151561145f57fe5b90508181111561156257600184039350819250611566565b8092505b600084815260216020526040902054600160a060020a031615806115965750600084815260208052604090205483105b156116305760038054869081106115a957fe5b60009182526020808320600360059093020191909101548683526021825260408084208054600160a060020a031916600160a060020a03909316929092179091558180528083208690556022825291829020879055815187815291517fed4436a39d9a77d0c6c3be4f0e28f018750eb25c5c2d30ded16ef07ced4c00719281900390910190a15b82151561127257600380548690811061164557fe5b6000918252602080832060036005909302018201546029548452602590915260409092208054600160a060020a031916600160a060020a039093169290921790915580548690811061169357fe5b600091825260208083206002600590930201919091015460298054845260248352604080852092909255805484526026909252909120869055805460010190555050505050565b603854600160a060020a031681565b603754600160a060020a031681565b602a5481565b60315481565b600054600160a060020a0316331461171b57600080fd5b6040805160808101825285815260208101859052908101839052606081018290526004866007811061174957fe5b600402016000820151816000019080519060200190611769929190612ead565b5060208281015180516117829260018501920190612ead565b50604082015160028201556060909101516003909101555050505050565b600054600160a060020a031633146117b757600080fd5b60008054604051600160a060020a03909116917ff8df31144d9c2f0f6b59d69b8b98abd5459d07f2742c4df920b25aae33c6482091a260008054600160a060020a0319169055565b611807612f2b565b600080805b602a54811015611c22579150816004816007811061182657fe5b6040805160049290920292909201805460a06020601f60026000196101006001871615020190941693909304928301819004028401810190945260808301818152929391928492909184918401828280156118c25780601f10611897576101008083540402835291602001916118c2565b820191906000526020600020905b8154815290600101906020018083116118a557829003601f168201915b50505050508152602001600182018054600181600116156101000203166002900480601f0160208091040260200160405190810160405280929190818152602001828054600181600116156101000203166002900480156119645780601f1061193957610100808354040283529160200191611964565b820191906000526020600020905b81548152906001019060200180831161194757829003601f168201915b505050505081526020016002820154815260200160038201548152505093508060010191505b602a54821015611b2d57600482600781106119a157fe5b600402016002015484604001511115611b2257600482600781106119c157fe5b6040805160049290920292909201805460a06020601f6002600019610100600187161502019094169390930492830181900402840181019094526080830181815292939192849290918491840182828015611a5d5780601f10611a3257610100808354040283529160200191611a5d565b820191906000526020600020905b815481529060010190602001808311611a4057829003601f168201915b50505050508152602001600182018054600181600116156101000203166002900480601f016020809104026020016040519081016040528092919081815260200182805460018160011615610100020316600290048015611aff5780601f10611ad457610100808354040283529160200191611aff565b820191906000526020600020905b815481529060010190602001808311611ae257829003601f168201915b505050505081526020016002820154815260200160038201548152505093508192505b60019091019061198a565b828114611c1a5760048160078110611b4157fe5b60040201600484600781101515611b5457fe5b6004020160008201816000019080546001816001161561010002031660029004611b7f929190612f54565b5060018201816001019080546001816001161561010002031660029004611ba7929190612f54565b50600282810154908201556003918201549101558360048260078110611bc957fe5b600402016000820151816000019080519060200190611be9929190612ead565b506020828101518051611c029260018501920190612ead565b50604082015160028201556060909101516003909101555b60010161180c565b50505050565b600054600160a060020a03163314611c3f57600080fd5b61137d81604080519081016040528060098152602001600080516020613006833981519152815250612cdd565b603554600160a060020a031681565b60246020526000908152604090205481565b60266020526000908152604090205481565b600054600160a060020a031681565b6000602855565b60048160078110611cc257fe5b60040201805460408051602060026001851615610100026000190190941693909304601f81018490048402820184019092528181529293508391830182828015611d4d5780601f10611d2257610100808354040283529160200191611d4d565b820191906000526020600020905b815481529060010190602001808311611d3057829003601f168201915b505050505090806001018054600181600116156101000203166002900480601f016020809104026020016040519081016040528092919081815260200182805460018160011615610100020316600290048015611deb5780601f10611dc057610100808354040283529160200191611deb565b820191906000526020600020905b815481529060010190602001808311611dce57829003601f168201915b5050505050908060020154908060030154905084565b603454600160a060020a031681565b602d5481565b6000611e4582604080519081016040528060098152602001600080516020613006833981519152815250611279565b92915050565b6040805160808101825284815260208101849052908101829052602754606082015260285460049060078110611e7d57fe5b600402016000820151816000019080519060200190611e9d929190612ead565b506020828101518051611eb69260018501920190612ead565b506040828101516002830155606090920151600390910155602880546001019055805182815290517fec2692b386f7e992f219e405f018eeaf8da1b95736760596812e564f2e709cfd9181900360200190a1505050565b600160a060020a0316600090815260236020526040812055565b6003805482908110611f3557fe5b60009182526020918290206005919091020180546040805160026001841615610100026000190190931692909204601f810185900485028301850190915280825291935091839190830182828015611fce5780601f10611fa357610100808354040283529160200191611fce565b820191906000526020600020905b815481529060010190602001808311611fb157829003601f168201915b505050505090806001018054600181600116156101000203166002900480601f01602080910402602001604051908101604052809291908181526020018280546001816001161561010002031660029004801561206c5780601f106120415761010080835404028352916020019161206c565b820191906000526020600020905b81548152906001019060200180831161204f57829003601f168201915b505050506002830154600384015460049094015492939092600160a060020a03909116915085565b600080548190600160a060020a031633146120ae57600080fd5b6040805160a0810182528881526020808201899052918101879052600160a060020a03861660608201526080810185905260038054600181810180845560009390935283518051919593949360059093027fc2575a0e9e593c00f959f8c92f12db2869c3395a3b0502d05e2516446f71f85b019261213192849290910190612ead565b50602082810151805161214a9260018501920190612ead565b50604082015160028201556060820151600382018054600160a060020a031916600160a060020a0390921691909117905560809091015160049091015503602c555095945050505050565b602b5481565b60006121a5612fc9565b603454600160a060020a039081166000908152602360205260408082208290556035548316825280822082905560365483168252808220829055603754831682528082208290556038548316825280822082905560395483168252808220829055603a54909216815290812055602b5491505b602b54602a54018210156122dd5760028054600091908490811061223857fe5b6000918252602090912060016007909202010154600160a060020a0316146122d257600280548390811061226857fe5b6000918252602090912060016007909202010154600160a060020a03168152602d899055600280548390811061229a57fe5b600091825260209091206001600790920201015460348054600160a060020a031916600160a060020a039092169190911790556122dd565b600190910190612218565b6001909101905b602b54602a54018210156123ac5760028054600091908490811061230457fe5b6000918252602090912060016007909202010154600160a060020a0316146123a157600280548390811061233457fe5b600091825260209182902060079091020160010154600160a060020a031690820152602e889055600280548390811061236957fe5b600091825260209091206001600790920201015460358054600160a060020a031916600160a060020a039092169190911790556123ac565b6001909101906122e4565b6001909101905b602b54602a540182101561247b576002805460009190849081106123d357fe5b6000918252602090912060016007909202010154600160a060020a03161461247057600280548390811061240357fe5b6000918252602090912060079091020160010154600160a060020a03166040820152602f879055600280548390811061243857fe5b600091825260209091206001600790920201015460368054600160a060020a031916600160a060020a0390921691909117905561247b565b6001909101906123b3565b6001909101905b602b54602a540182101561254a576002805460009190849081106124a257fe5b6000918252602090912060016007909202010154600160a060020a03161461253f5760028054839081106124d257fe5b6000918252602090912060079091020160010154600160a060020a031660608201526030869055600280548390811061250757fe5b600091825260209091206001600790920201015460378054600160a060020a031916600160a060020a0390921691909117905561254a565b600190910190612482565b6001909101905b602b54602a54018210156126195760028054600091908490811061257157fe5b6000918252602090912060016007909202010154600160a060020a03161461260e5760028054839081106125a157fe5b6000918252602090912060079091020160010154600160a060020a03166080820152603185905560028054839081106125d657fe5b600091825260209091206001600790920201015460388054600160a060020a031916600160a060020a03909216919091179055612619565b600190910190612551565b6001909101905b602b54602a54018210156126e85760028054600091908490811061264057fe5b6000918252602090912060016007909202010154600160a060020a0316146126dd57600280548390811061267057fe5b6000918252602090912060079091020160010154600160a060020a031660a0820152603284905560028054839081106126a557fe5b600091825260209091206001600790920201015460398054600160a060020a031916600160a060020a039092169190911790556126e8565b600190910190612620565b6001909101905b602b54602a54018210156127b75760028054600091908490811061270f57fe5b6000918252602090912060016007909202010154600160a060020a0316146127ac57600280548390811061273f57fe5b6000918252602090912060079091020160010154600160a060020a031660c08201526033839055600280548390811061277457fe5b6000918252602090912060016007909202010154603a8054600160a060020a031916600160a060020a039092169190911790556127b7565b6001909101906126ef565b505050505050505050565b60005b602a5481101561292357600081815260208080526040808320839055602182528083208054600160a060020a031916905560228252808320929092558151808301909252600182527f3000000000000000000000000000000000000000000000000000000000000000908201526004826007811061283f57fe5b600402016000019080519060200190612859929190612ead565b5060408051808201909152600181527f300000000000000000000000000000000000000000000000000000000000000060208201526004826007811061289b57fe5b6004020160010190805190602001906128b5929190612ead565b506000600482600781106128c557fe5b60040201600201819055506027546004826007811015156128e257fe5b60040201600301556000818152602460209081526040808320839055602582528083208054600160a060020a031916905560269091528120556001016127c5565b5060006029556027805460010190819055602a54602b805491909202019055565b60285481565b600280548290811061295857fe5b60009182526020909120600790910201805460018201546002830154600384015460048501546005860154600690960154949650600160a060020a039093169491939092919087565b603954600160a060020a031681565b60325481565b6040805160a0810182528581526020808201869052918101849052600160a060020a0383166060820152602754608082015260038054600181810180845560009384528451805194968796939592946005027fc2575a0e9e593c00f959f8c92f12db2869c3395a3b0502d05e2516446f71f85b0192612a389284920190612ead565b506020828101518051612a519260018501920190612ead565b50604082015160028201556060820151600382018054600160a060020a031916600160a060020a03909216919091179055608090910151600490910155039695505050505050565b60275481565b60295481565b60008054600160a060020a03163314612abd57600080fd5b5060005b8151811015610e2757612aea8282815181101515612adb57fe5b90602001906020020151611c28565b600101612ac1565b60335481565b602080526000908152604090205481565b602560205260009081526040902054600160a060020a031681565b60305481565b600054600160a060020a03163314612b4157600080fd5b61137d81612daf565b60236020526000908152604090205481565b602c5481565b602f5481565b603a54600160a060020a031681565b603654600160a060020a031681565b612b908282612b9b565b1515610e2757600080fd5b600160a060020a03166000908152602091909152604090205460ff1690565b612c24826001836040518082805190602001908083835b60208310612bf05780518252601f199092019160209182019101612bd1565b51815160209384036101000a6000190180199092169116179052920194855250604051938490030190922092915050612e1f565b81600160a060020a03167fd211483f91fc6eff862467f8de606587a30c8fc9981056f051b897a418df803a826040518080602001828103825283818151815260200191508051906020019080838360005b83811015612c8d578181015183820152602001612c75565b50505050905090810190601f168015612cba5780820380516001836020036101000a031916815260200191505b509250505060405180910390a25050565b600082821115612cd757fe5b50900390565b612d47826001836040518082805190602001908083835b60208310612d135780518252601f199092019160209182019101612cf4565b51815160209384036101000a6000190180199092169116179052920194855250604051938490030190922092915050612e41565b81600160a060020a03167fbfec83d64eaa953f2708271a023ab9ee82057f8f3578d548c1a4ba0b5b7004898260405180806020018281038252838181518152602001915080519060200190808383600083811015612c8d578181015183820152602001612c75565b600160a060020a0381161515612dc457600080fd5b60008054604051600160a060020a03808516939216917f8be0079c531659141344cd1fd0a4f28419497f9722a3daafe3b4186f6b6457e091a360008054600160a060020a031916600160a060020a0392909216919091179055565b600160a060020a0316600090815260209190915260409020805460ff19169055565b600160a060020a0316600090815260209190915260409020805460ff19166001179055565b60e060405190810160405280600081526020016000600160a060020a0316815260200160008152602001600081526020016000815260200160008152602001600081525090565b828054600181600116156101000203166002900490600052602060002090601f016020900481019282601f10612eee57805160ff1916838001178555612f1b565b82800160010185558215612f1b579182015b82811115612f1b578251825591602001919060010190612f00565b50612f27929150612fe8565b5090565b608060405190810160405280606081526020016060815260200160008152602001600081525090565b828054600181600116156101000203166002900490600052602060002090601f016020900481019282601f10612f8d5780548555612f1b565b82800160010185558215612f1b57600052602060002091601f016020900482015b82811115612f1b578254825591600101919060010190612fae565b60e0604051908101604052806007906020820280388339509192915050565b61300291905b80821115612f275760008155600101612fee565b90560077686974656c6973740000000000000000000000000000000000000000000000a165627a7a72305820e9a513b2438601519b190e228f535aa113f7d6cebc7dcf5bb5ad6088664a084e0029",
  "source": "/**\n  * @author Matias Barrios\n  * @version 1.0\n  */\n\n\n/** @title Lucky7Storage. \n  * This contract is meant to storage all the important information of the game, i.e. Tickets, Lucky7Numbers and Lucky7Tickets related info.\n  */\n\npragma solidity ^0.4.20;\n\nimport \"openzeppelin-solidity/contracts/math/SafeMath.sol\";\nimport \"openzeppelin-solidity/contracts/access/Whitelist.sol\";\nimport \"./Lucky7Library.sol\";\n\ncontract Lucky7Storage is Whitelist{\n\n    using SafeMath for uint256;\n\n    /** \n    ---------------------------------------- EVENTS ----------------------------------------\n    */\n    /**@dev The events are used mainly for testing purposes\n      */\n    event NewLucky7Ticket(uint ticketID);\n    event NewLucky7Number(uint value);\n\n    /** \n    ---------------------------------------- STRUCTS ----------------------------------------\n    */\n\n    /** @pdev Ticket is a struct to store information of the tickets. It information is stored permanently through the tickets array.\n      * @param mu is a parameter of the pseudo-random number generator (PRNG).\n      * @param i is a parameter of the pseudo-random number generator (PRNG).\n      * @param ticketValue is the value of ticket.\n      * @param owner is the owner of the ticket.\n      * @param drawID is the number of the draw for this ticket, i.e. the game where this ticket was emitted.\n      */\n    struct Ticket{\n        string mu;\n        string i;\n        uint ticketValue;\n        address owner;\n        uint drawID;\n    }\n    \n    /** @dev Lucky7Number is a struct to store the information of the Lucky7Numbers. Is used for the lucky7Numbers array\n      * and it information is erased when a new game is setted, i.e. it information is replaced with the Lucky7Numbers information\n      * of the new game.\n      * @param mu is a parameter of the pseudo-random number generator (PRNG).\n      * @param i is a parameter of the pseudo-random number generator (PRNG).\n      * @param ticketValue is the value of the Lucky7Number.\n      * @param drawID is the number of the draw for this Lucky7Number, i.e. the game where this Lucky7Number was emitted. \n      */\n    struct Lucky7Number{\n        string mu;\n        string i;\n        uint ticketValue;\n        uint drawID;\n    }\n    \n    /** @dev Lucky7Ticket is a struct to store the information of the Lucky7Tickets. Is used once a new game is setted, and it store the information of the final\n      * Lucky7Tickets permanently.\n      * @param difference is the difference (in absolute value) of the ticket with the Lucky7Number.\n      * @param owner is the owner of the Lucky7Ticket.\n      * @param ticketID is the ticket ID of the ticket which was selected as Lucky7Ticket. Is helpful to look up in the ticketID mapping to verify\n      * past games and results.\n      * @param ticketValue is the value of the ticket associated to this Lucky7Ticket.\n      * @param lucky7Number is the value of the Lucky7Number associated to this Lucky7Ticket.\n      * @param lucky7NumberID is the ID of the Lucky7Number associated to this Lucky7Ticket, i.e. if 0 is the first Lucky7Number of the draw.\n      * @param drawID is the number of the draw for this Lucky7Ticket, i.e. the game where this Lucky7Ticket was emitted.\n      */\n    struct Lucky7Ticket{\n        uint difference;\n        address owner;\n        uint ticketID;\n        uint ticketValue;\n        uint lucky7Number;\n        uint lucky7NumberID;\n        uint drawID;\n    }\n    \n    /** \n    ---------------------------------------- ARRAYS ----------------------------------------\n    */\n\n    /** @dev The next two arrays are used to store information of the game permanently.\n      * @param lucky7TicketsArray stores the Lucky7Tickets once a new game is setted.\n      * @param ticketsArray stores the tickets everytime a user buys a ticket.\n      */\n    Lucky7Ticket[] public lucky7TicketsArray;\n    Ticket[] public ticketsArray;\n    \n    /** @param lucky7NumbersArray stores the Lucky7Numbers for the current draw. Once a new game is called, it is cleand to 0 to be reused. \n      */\n    Lucky7Number[7] public lucky7NumbersArray;\n\n    /** \n    ---------------------------------------- MAPPINGS ----------------------------------------\n    */\n\n    /** @dev The next three mapping are used to state the Lucky7Ticket values while a game is on course. This is because is expensive to look up on the Lucky7Ticket\n      * struct everytime a new ticket is inserted in the tickets array.\n      * They all maps from the lucky7NumberID, i.e. the id of the Lucky7Number of the current game. \n      * @param lucky7TicketDifference points to an uint which is the difference between the Lucky7Number of it _KeyType and the ticket selected as Lucky7Ticket, \n      * e.g. lucky7TicketDifference[0] is the difference between the first Lucky7Number with the ticket which was selected as his Lucky7Ticket.\n      * @param lucky7TicketOwner points to the address of the owner of the Lucky7Ticket associated to the Lucky7Number of it _KeyType, \n      * e.g. lucky7TicketOwner[0] is the owner of the Lucky7Ticket associated to the first Lucky7Number.\n      * @param lucky7TicketID points to the id of the ticket which was selected as Lucky7Ticket for the Lucky7Number of it _KeyType, \n      * e.g. lucky7TicketID[0] is the ticketID of the ticket owned by lucky7TicketOwner[0], with a difference of lucky7TicketDiffference[0] with the Lucky7Number[0].\n      */\n    mapping (uint => uint) public lucky7TicketDifference;\n    mapping (uint => address) public lucky7TicketOwner;\n    mapping (uint => uint) public lucky7TicketID;\n    mapping (address => uint) public pendingWithdrawals;\n\n    /** @dev The next three mappings are used to storage ExactLucky7Ticket, i.e. tickets which difference with a Lucky7Number is 0 \n      * They follow the same logic as the previous three mapings. They're setted for future development, because this project is meant to emit tokens and ExactLucky7Tickets\n      * are going to be specially awarded.\n      * They're cleaned to 0 everytime a new game is setted.\n      */\n    mapping (uint => uint) public ExactLucky7TicketValue;\n    mapping (uint => address) public ExactLucky7TicketOwner;\n    mapping (uint => uint) public ExactLucky7TicketID;\n\n    /** \n    ---------------------------------------- UINTS ----------------------------------------\n    */\n\n    /** @param drawNumber is the number of the current draw. Is used to help storage Lucky7Tickets, look up for current game winners and others functions.\n      * Is incremented by 1 everytime a new game is setted.\n      * @param indexForLucky7Array is a uint used to count the number of Lucky7Numbers generated everytime a new game is setted. Is used to know if all the Lucky7Numbers \n      * were setted, and if they did, order them by them values in ascendant order and let users start buying tickets. Is setted to 0 after all this process.\n      * @param indexForExactLucky7Ticket is a uint which increments everytime a ExactLucky7Ticket is detected and stored. It's used to look up in in the ExactLucky7 mappings\n      * and is cleaned to 0 everytime a new game is setted.\n      */\n    uint public drawNumber = 0;\n    uint public indexForLucky7Array = 0;\n    uint public indexForExactLucky7Ticket = 0;\n\n    /** @param numberOfLucky7Numbers is the parameter that indicates the number of Lucky7Numbers which are going to be generated\n      * before letting users start buying a ticket. Is used for other functions to shutdown a circuit breaker, lookup in arrays and\n      * order the Lucky7Numbers\n      */\n    uint public numberOfLucky7Numbers = 2;\n\n    /** @param initialLucky7TicketPosition is a uint used for the _orderLucky7Tickets function of this contract. \n      * Because is necessary to store the information of previous games permanently is necessary then to know what it the starting point to store in the \n      * lucky7TicketsArray array of the Lucky77TicketFactory.sol contract. \n      * This way, the _orderLucky7Tickets function starts storing in the \"initialLucky7TicketPosition\" and finish storing in the \n      * \"numberOfLucky7Numbers+initialLucky7TicketPosition\" position of the lucky7TicketsArray array. \n      * Defaults to 0, and is getting incremented by \"numberOfLucky7Numbers\" value every time the setNewGame function of this contract is called.\n      * @param currentTicketID is a uint which points to the position in the ticketsArray array of the Lucky7TicketFactory contract where was pushed the last ticket\n      * inserted by the insertCustomizedTicket function of this contract. That function and this parameter are used for testing purposes only.\n      * @param lastFirstPrizeWinner is and address which stores the address of the last first prize winner. Is setted on the _deliverPrizes function of this contract \n      * and is used to set to 0 the amount of the prize for the last first prize winner before start delivering prizes for security reasons.\n      * @param lastSecondPrizeWinner is and address which stores the address of the last second prize winner. Is setted on the _deliverPrizes function of this contract \n      * and is used to set to 0 the amount of the prize for the last second prize winner before start delivering prizes for security reasons.\n      * @param lastThirdPrizeWinner is and address which stores the address of the last third prize winner. Is setted on the _deliverPrizes function of this contract \n      * and is used to set to 0 the amount of the prize for the last third prize winner before start delivering prizes for security reasons.\n      * @param lastFirstPrizeAmount is and uint which stores the amount of the last first prize. Is setted on the _deliverPrizes function of this contract.\n      * @param lastSecondPrizeAmount is and uint which stores the uint of the last second prize winner. Is setted on the _deliverPrizes function of this contract.\n      * @param lastThirdPrizeAmount is and uint which stores the uint of the last third prize winner. Is setted on the _deliverPrizes function of this contract.\n      * @param pendingWithdrawals is a mapping that points from an address to an uint. Is used for the _deliverPrizes function of this contract to store the \n      * the correspondent prize with the correspondent winner. The prizes are setted to 0 every time the _deliverPrizes function is called for security reasons.\n      * To claim a prize, user have to call the withdraw function of this contract, so the prize is delivered and the amount for him prize is setted to 0 again.\n      \n      */\n    uint public initialLucky7TicketPosition = 0;\n    uint public currentTicketID = 0;\n    uint public lastFirstPrizeAmount = 0;\n    uint public lastSecondPrizeAmount = 0;\n    uint public lastThirdPrizeAmount = 0;\n    uint public lastFourthPrizeAmount = 0;\n    uint public lastFifthPrizeAmount = 0;\n    uint public lastSixthPrizeAmount = 0;\n    uint public lastSeventhPrizeAmount = 0;\n\n    /** \n    ---------------------------------------- ADDRESSES ----------------------------------------\n    */\n\n    address public lastFirstPrizeWinner = address(0);\n    address public lastSecondPrizeWinner = address(0);\n    address public lastThirdPrizeWinner = address(0);\n    address public lastFourthPrizeWinner = address(0);\n    address public lastFifthPrizeWinner = address(0);\n    address public lastSixthPrizeWinner = address(0);\n    address public lastSeventhPrizeWinner = address(0);\n\n    /** \n    ---------------------------------------- ORDER AND CHECK FUNCTIONS ----------------------------------------\n    */\n\n     /** @dev _checkForLucky7Ticket is a function that check if a ticket recently inserted in the ticketsArray is a Lucky7Ticket.\n      * @param _ticketID is the ticket which is going to be checked.\n      * At this point, the Lucky7Numbers are ordered by them values in ascedant order.\n      * This function uses the SafeMath library to avoid integer underflow or overflow, or to check that the difference is not 0, which is a special case.\n      */\n    function _checkForLucky7Ticket(uint _ticketID) \n        public\n    {\n        uint i;\n        uint difference;\n        /** @dev First it checks if the ticket is bigger than the last Lucky7Number.\n          * If so, sets the auxiliary parameter i to the id of the last Lucky7Number, numberOfLucky7Numbers-1 in this case. Don't confuse with the i parameter of the PRNG.\n          * Then the difference between them is obtained through the sub function of the SafeMath library, knowing that the ticket is bigger than the last Lucky7Number.\n          */\n        if(ticketsArray[_ticketID].ticketValue>lucky7NumbersArray[numberOfLucky7Numbers-1].ticketValue){\n            i = numberOfLucky7Numbers-1;\n            difference = ticketsArray[_ticketID].ticketValue.sub(lucky7NumbersArray[i].ticketValue);\n            \n        }\n        /** @dev If it is not bigger than the last Lucky7Number, then checks if it is smaller thant the first Lucky7Number.\n          * If so, sets the auxiliary parameter i to the id of the first Lucky7Number, 0 in this case. Don't confuse with the i parameter of the PRNG.\n          * Then the difference between them is obtained through the sub function of the SafeMath library, knowing that the ticket is smaller than the first Lucky7Number.\n          */\n        else if (ticketsArray[_ticketID].ticketValue<lucky7NumbersArray[0].ticketValue){\n            i = 0;\n            difference = lucky7NumbersArray[i].ticketValue.sub(ticketsArray[_ticketID].ticketValue);\n        }\n\n        /** @dev If none of the above fits, then the ticket could be bigger or equal than the first Lucky7Number or smaller or equal than the last Lucky7Number.\n          * The function proceeds then to look which is it interval,i.e. it should be between two Lucky7Numbers or equal to one Lucky7Number.\n          */\n        else{\n            /** @dev The function then proceed to increment i until the ticket is bigger than the Lucky7Number[i].\n              */\n            while(ticketsArray[_ticketID].ticketValue>lucky7NumbersArray[i].ticketValue){ \n                i++;\n            }\n            /** @dev If the ticket and the correspondent Lucky7Numbers are equal, then the ticket is a ExactLucky7Ticket\n              */\n            if(ticketsArray[_ticketID].ticketValue==lucky7NumbersArray[i].ticketValue){\n                difference = 0;\n            }\n            else{\n                /** @dev If not, then it will have to check if the Lucky7Number above or below the ticket is closer\n                  * if the below Lucky7Number is closer to the ticket than the above Lucky7Number (if(upperLucky7NumberDifference>lowerLucky7NumberDifference)) then the \n                  * correspondent candidate to Lucky7Ticket is the Lucky7Number which is below the ticket.\n                  * Else, the above Lucky7Number is the correspondent candidate.\n                  * Then saves the value of difference.\n                  */\n                uint lowerLucky7NumberDifference = ticketsArray[_ticketID].ticketValue.sub(lucky7NumbersArray[i-1].ticketValue);\n                uint upperLucky7NumberDifference = lucky7NumbersArray[i].ticketValue.sub(ticketsArray[_ticketID].ticketValue);\n                \n                if(upperLucky7NumberDifference>lowerLucky7NumberDifference){\n                    i=i-1;\n                    difference = lowerLucky7NumberDifference;\n                }\n                else{\n                    difference = upperLucky7NumberDifference;\n                }\n            }\n        }\n        /** @dev Now the function proceed to check if it is in fact a Lucky7Ticket.\n          * If the Lucky7Ticket[i] hasn't an owner, then the ticket is automatically assigned as Lucky7Ticket.\n          * If it has an owner, then check if the difference is smaller than the difference of the current owner.\n          * If it is smaller, then the ticket is a Lucky7Ticket and is stored in the Lucky7Ticket mappings.\n          * Then an event is emitted.\n          */\n        if(lucky7TicketOwner[i] == address(0x0) || difference<lucky7TicketDifference[i]){\n            lucky7TicketOwner[i] = ticketsArray[_ticketID].owner;\n            lucky7TicketDifference[i] = difference;\n            lucky7TicketID[i] = _ticketID;\n            emit NewLucky7Ticket(_ticketID);\n        }\n        /** @dev Then, checks if it's a ExactLucky7Ticket.\n          * Due to the high entropy of the PRNG is pretty unfeasible to get an ExactLucky7Ticket without having the same mu and i parameters than the\n          * Lucky7Number. The probability of having two identical ExactLucky7Tickets in the same game is even lower.\n          * If in determinated unfortunate case an user gets a ExacyLucky7Ticket which is already occupied, then it will not replace the old one.\n          * That's why is necessary to storage all the ExactLucky7Tickets to award them specially, e.g. giving them tokens according to some rules, which would be\n          * specified in future developments.\n          * The next step, then, is to check if it is indeed a ExactLucky7Ticket. If so, then store the information in the ExactLucky7Tickets mappings and increment\n          * indexForExactLucky7Ticket by 1.\n          */\n        if(difference == 0){\n            ExactLucky7TicketOwner[indexForExactLucky7Ticket] = ticketsArray[_ticketID].owner;\n            ExactLucky7TicketValue[indexForExactLucky7Ticket] = ticketsArray[_ticketID].ticketValue;\n            ExactLucky7TicketID[indexForExactLucky7Ticket] = _ticketID;\n            indexForExactLucky7Ticket++;\n        }\n    }\n    \n    \n    /** @dev _orderLucky7Numbers is a function designed to order the Lucky7Numbers. It is called from the _generateLucky7Number function of this contract (above function).\n      * First, it generates 4 auxiliary parameters; a Lucky7Number struct called smallest, and aux, j and i which are uint initiated to 0.\n      * Then it loops over the Lucky7Numbers array, comparing the i Lucky7Number value with the i+1, i+2, i+3 until reachs the numberOfLucky7Numbers-1 value. \n      * If none of them is smaller than it, then jumps to the next Lucky7Number. It then starts comparing it (the i+1 for this case) with the subsequents number. If one of \n      * them is smaller, changes positions and starts comparing the new one with the subsequents. \n      */\n    function _orderLucky7Numbers() \n        public \n        // onlyOwner\n    {\n        Lucky7Number memory smallest;\n        uint aux;\n        uint j;\n        uint i;\n        for(i=0; i<numberOfLucky7Numbers; i++){\n            /** @dev At this point, aux is going to be ever equal to i and smallest is the Lucky7Number which is going to be compared with the next.\n              */\n            aux = i;\n            smallest = lucky7NumbersArray[i];\n            for (j=i+1; j<numberOfLucky7Numbers; j++){\n                /** @dev At this point, the function starts comparing \"smallest\" with the next to it, j+1 in this case.\n                  * If \"smallest\" is not smaller than the next ticketValue (or Lucky7Number[j] value), then it saves the value of the new \"smallest\" value, \n                  * and saves aux as the j value.\n                  */\n                if(smallest.ticketValue>lucky7NumbersArray[j].ticketValue){\n                    smallest = lucky7NumbersArray[j];\n                    aux = j;\n                }\n            }\n\n            /** @dev Once the previous loop is finished, i.e. the comparison of \"smallest\" with all the other above it, it checks if aux changed.\n              * If it changed, it means that there was one Lucky7Number which value was lower than \"smallest\", and change the position of \"smallest\" with the Lucky7Number[j]\n              * which is actually smalller than \"smallest\". This way, in next hopes former \"smallest\" Lucky7Number is going to be compared again until it fits the state of\n              * \"smallest than every Lucky7Number above itself\"\n              */\n            if(aux!=i){\n                lucky7NumbersArray[aux]=lucky7NumbersArray[i];\n                lucky7NumbersArray[i] = smallest;\n            }\n        }\n    }\n    /** @dev _orderLucky7Tickets is a function designed to store and order the Lucky7Tickets according to its difference in asceding order.\n      * First, it stores all the current Lucky7Ticket values, i.e. lucky7TicketDifference, lucky7TicketOwner and lucky7TicketID mappings from the Lucky7TicketFactory contract,\n      * the ticketValue associated to it, the Lucky7Number and Lucky7NumberID (first, second, third) associated to it, and the drawID. This is thought to be capable of verify\n      * in the future possible problems delivering prizes.\n      * Then, it order the Lucky7Tickets depending on them difference value of the Lucky7Ticket struct of the Lucky7TicketFactory contract. The order logic is the same defined\n      * in the _orderLucky7Numbers function of this contract (the above function).\n      */\n    function _orderLucky7Tickets() \n        public \n        // onlyOwner\n    {\n        Lucky7Ticket memory smallest;\n        uint aux;\n        uint i;\n        uint j;\n        uint k;\n        for (i=0; i<numberOfLucky7Numbers; i++){\n            lucky7TicketsArray.push(\n                /** @dev The Lucky7Ticket struct is as follows:   \n                  *     struct Lucky7Ticket{\n                  *         uint difference;\n                  *         address owner;\n                  *         uint ticketID;\n                  *         uint ticketValue;\n                  *         uint lucky7Number;\n                  *         uint lucky7NumberID;\n                  *         uint drawID;\n                  *     }  \n                  */\n                Lucky7Ticket(\n                    lucky7TicketDifference[i],\n                    lucky7TicketOwner[i],\n                    lucky7TicketID[i],\n                    ticketsArray[lucky7TicketID[i]].ticketValue,\n                    lucky7NumbersArray[i].ticketValue,\n                    i,\n                    drawNumber)\n                    );\n        }\n        for(j=initialLucky7TicketPosition; j<numberOfLucky7Numbers+initialLucky7TicketPosition; j++){\n            aux = j;\n            smallest = lucky7TicketsArray[j];\n            for (k=j+1; k<numberOfLucky7Numbers+initialLucky7TicketPosition; k++){\n                if(smallest.difference>lucky7TicketsArray[k].difference){\n                    smallest = lucky7TicketsArray[k];\n                    aux = k;\n                }\n            }\n            if(aux!=j){\n                lucky7TicketsArray[aux]=lucky7TicketsArray[j];\n                lucky7TicketsArray[j] = smallest;\n\n            }\n        }\n    }\n\n    /** \n    ---------------------------------------- STORAGE FUNCTIONS ----------------------------------------\n    */\n\n    /** @dev Storage functions.\n    *  Functions created to be called through other contracts to storage data in this contract.\n    */\n\n    function storageTicket(string _mu, string _i, uint _ticketValue, address _owner)\n        public    \n        //onlyOwner\n        returns(uint)\n    {\n        uint id = ticketsArray.push(Ticket(_mu, _i,_ticketValue,_owner,drawNumber)) - 1;\n        return id;\n    }\n\n    function storageLucky7Number(string _mu, string _i, uint _ticketValue)\n        public \n        //onlyOwner\n    {\n        lucky7NumbersArray[indexForLucky7Array] = Lucky7Number(_mu, _i, _ticketValue, drawNumber);\n        indexForLucky7Array++;\n        emit NewLucky7Number(_ticketValue);\n    }\n\n    /** \n    ---------------------------------------- BALLOT FUNCTIONS ----------------------------------------\n    */\n\n    /** @dev _cleanMappings is a function used by the setNewGame function of this contract to clean the necessary mappings, \n      * i.e. lucky7TicketDifference, lucky7TicketOwner, lucky7TicketID, lucky7NumbersArray, ExactLucky7TicketValue, ExactLucky7TicketOwner and\n      * ExactLucky7TicketID. This, because for new games the old winners needs to been cleaned up.\n      */\n    //Should clean \n    function _cleanMappings() \n        public\n    {\n        for(uint i=0; i<numberOfLucky7Numbers; i++){\n            lucky7TicketDifference[i]=0;\n            lucky7TicketOwner[i]=0;\n            lucky7TicketID[i]=0;\n            lucky7NumbersArray[i].mu=\"0\";\n            lucky7NumbersArray[i].i=\"0\";\n            lucky7NumbersArray[i].ticketValue=0;\n            lucky7NumbersArray[i].drawID=drawNumber;\n            ExactLucky7TicketValue[i]=0;\n            ExactLucky7TicketOwner[i]=0;\n            ExactLucky7TicketID[i]=0;\n        }\n        indexForExactLucky7Ticket =0;\n        drawNumber++;\n        initialLucky7TicketPosition+=drawNumber*numberOfLucky7Numbers;\n    }\n\n    function setWinners(uint _firstPrize, uint _secondPrize, uint _thirdPrize, uint _fourthPrize, uint _fifthPrize, uint _sixthPrize, uint _seventhPrize)   \n        public \n        // onlyOwner \n    {\n        pendingWithdrawals[lastFirstPrizeWinner] = 0;\n        pendingWithdrawals[lastSecondPrizeWinner] = 0;\n        pendingWithdrawals[lastThirdPrizeWinner] = 0;\n        pendingWithdrawals[lastFourthPrizeWinner] = 0;\n        pendingWithdrawals[lastFifthPrizeWinner] = 0;\n        pendingWithdrawals[lastSixthPrizeWinner] = 0;\n        pendingWithdrawals[lastSeventhPrizeWinner] = 0;\n        uint i;\n        address[7] memory winners;\n        for(i=initialLucky7TicketPosition; i<numberOfLucky7Numbers+initialLucky7TicketPosition; i++){\n            if(lucky7TicketsArray[i].owner!=address(0x0)){\n                winners[0]=lucky7TicketsArray[i].owner;\n                lastFirstPrizeAmount = _firstPrize;\n                lastFirstPrizeWinner = lucky7TicketsArray[i].owner;\n                break;\n            }\n        }\n        \n        for(i++; i<numberOfLucky7Numbers+initialLucky7TicketPosition; i++){\n            if(lucky7TicketsArray[i].owner!=address(0x0)){\n                winners[1]=lucky7TicketsArray[i].owner;\n                lastSecondPrizeAmount = _secondPrize;\n                lastSecondPrizeWinner = lucky7TicketsArray[i].owner;\n                break;\n            }\n        }\n        \n        for(i++; i<numberOfLucky7Numbers+initialLucky7TicketPosition; i++){\n            if(lucky7TicketsArray[i].owner!=address(0x0)){\n                winners[2]=lucky7TicketsArray[i].owner;\n                lastThirdPrizeAmount = _thirdPrize;\n                lastThirdPrizeWinner = lucky7TicketsArray[i].owner;\n                break;\n            }\n        }\n\n        for(i++; i<numberOfLucky7Numbers+initialLucky7TicketPosition; i++){\n            if(lucky7TicketsArray[i].owner!=address(0x0)){\n                winners[3]=lucky7TicketsArray[i].owner;\n                lastFourthPrizeAmount = _fourthPrize;\n                lastFourthPrizeWinner = lucky7TicketsArray[i].owner;\n                break;\n            }\n        }\n\n        for(i++; i<numberOfLucky7Numbers+initialLucky7TicketPosition; i++){\n            if(lucky7TicketsArray[i].owner!=address(0x0)){\n                winners[4]=lucky7TicketsArray[i].owner;\n                lastFifthPrizeAmount = _fifthPrize;\n                lastFifthPrizeWinner = lucky7TicketsArray[i].owner;\n                break;\n            }\n        }\n\n        for(i++; i<numberOfLucky7Numbers+initialLucky7TicketPosition; i++){\n            if(lucky7TicketsArray[i].owner!=address(0x0)){\n                winners[5]=lucky7TicketsArray[i].owner;\n                lastSixthPrizeAmount = _sixthPrize;\n                lastSixthPrizeWinner = lucky7TicketsArray[i].owner;\n                break;\n            }\n        }\n\n        for(i++; i<numberOfLucky7Numbers+initialLucky7TicketPosition; i++){\n            if(lucky7TicketsArray[i].owner!=address(0x0)){\n                winners[6]=lucky7TicketsArray[i].owner;\n                lastSeventhPrizeAmount = _seventhPrize;\n                lastSeventhPrizeWinner = lucky7TicketsArray[i].owner;\n                break;\n            }\n        }\n    }\n\n    function setIndexForLucky7ArrayToZero() \n        public \n        // onlyOwner\n    {\n        indexForLucky7Array = 0;\n    }\n    \n    function setPendingWithdrawalToZero(address _withdrawalOwner) \n        public \n        // onlyOwner\n    {\n        pendingWithdrawals[_withdrawalOwner] = 0;\n    }\n\n\n    /** \n    ---------------------------------------- TEST FUNCTIONS ----------------------------------------\n    */\n\n    /** @dev This four functions are purely designed for testing purposes and are going to be erased when the contract\n      * is deployed to test or main net. They're straight forward and don't need any explanaiton.\n      * They're setted to onlyOwner to be sure that, in case of forgetting to erase them, no user is capable to use them\n      * maliciously.\n      */\n    function insertCustomizedLucky7Number(uint _id, string _mu, string _i, uint _ticketValue,uint _drawNumber) \n        public \n        onlyOwner\n    {\n        lucky7NumbersArray[_id] = Lucky7Number(_mu, _i, _ticketValue, _drawNumber);\n    }\n    \n    function insertCustomizedTicket(string _mu, string _i, uint _ticketValue,address _ticketOwner, uint _drawNumber) \n        public \n        onlyOwner \n        returns (uint)\n    {\n        uint id = ticketsArray.push(Ticket(_mu,_i,_ticketValue,_ticketOwner,_drawNumber)) - 1;\n        currentTicketID = id;\n    }\n    \n    function setIndexForLucky7Array(uint _newValue) \n        public \n        onlyOwner\n    {\n        indexForLucky7Array = _newValue;\n    }\n\n    function setInitialLucky7TicketPosition(uint _newValue) \n        public \n        onlyOwner\n    {\n        initialLucky7TicketPosition = _newValue;\n    }\n    \n}",
  "sourcePath": "/Users/matiasbarrios/Desktop/Proyecto Consensys/luckyseven/contracts/Lucky7Storage.sol",
  "compiler": {
    "name": "solc",
    "version": "0.4.24+commit.e67f0147.Emscripten.clang"
  },
  "schemaVersion": "2.0.1",
  "updatedAt": "2018-09-29T02:01:41.994Z"
}