{
  "contractName": "Lucky7Ballot",
  "abi": [
    {
      "constant": false,
      "inputs": [],
      "name": "renounceOwnership",
      "outputs": [],
      "payable": false,
      "stateMutability": "nonpayable",
      "type": "function"
    },
    {
      "constant": true,
      "inputs": [],
      "name": "owner",
      "outputs": [
        {
          "name": "",
          "type": "address"
        }
      ],
      "payable": false,
      "stateMutability": "view",
      "type": "function"
    },
    {
      "constant": false,
      "inputs": [
        {
          "name": "_newOwner",
          "type": "address"
        }
      ],
      "name": "transferOwnership",
      "outputs": [],
      "payable": false,
      "stateMutability": "nonpayable",
      "type": "function"
    },
    {
      "payable": true,
      "stateMutability": "payable",
      "type": "fallback"
    },
    {
      "anonymous": false,
      "inputs": [
        {
          "indexed": true,
          "name": "previousOwner",
          "type": "address"
        }
      ],
      "name": "OwnershipRenounced",
      "type": "event"
    },
    {
      "anonymous": false,
      "inputs": [
        {
          "indexed": true,
          "name": "previousOwner",
          "type": "address"
        },
        {
          "indexed": true,
          "name": "newOwner",
          "type": "address"
        }
      ],
      "name": "OwnershipTransferred",
      "type": "event"
    },
    {
      "constant": false,
      "inputs": [
        {
          "name": "_lucky7AdminAddress",
          "type": "address"
        },
        {
          "name": "_lucky7StorageAddress",
          "type": "address"
        },
        {
          "name": "_lucky7TicketFactoryAddress",
          "type": "address"
        }
      ],
      "name": "constructor",
      "outputs": [],
      "payable": true,
      "stateMutability": "payable",
      "type": "function"
    },
    {
      "constant": false,
      "inputs": [],
      "name": "setNewGame",
      "outputs": [],
      "payable": false,
      "stateMutability": "nonpayable",
      "type": "function"
    },
    {
      "constant": false,
      "inputs": [],
      "name": "_deliverPrizes",
      "outputs": [],
      "payable": false,
      "stateMutability": "nonpayable",
      "type": "function"
    },
    {
      "constant": false,
      "inputs": [],
      "name": "withdraw",
      "outputs": [],
      "payable": false,
      "stateMutability": "nonpayable",
      "type": "function"
    }
  ],
  "bytecode": "0x608060405260008054600160a060020a03191633179055610833806100256000396000f3006080604052600436106100695763ffffffff60e060020a6000350416633ccfd60b811461006b57806340014911146100805780636dd23b5b14610095578063715018a6146100b55780638da5cb5b146100ca578063f2fde38b146100fb578063f40522891461011c575b005b34801561007757600080fd5b50610069610131565b34801561008c57600080fd5b50610069610275565b610069600160a060020a03600435811690602435811690604435166103c8565b3480156100c157600080fd5b50610069610414565b3480156100d657600080fd5b506100df610480565b60408051600160a060020a039092168252519081900360200190f35b34801561010757600080fd5b50610069600160a060020a036004351661048f565b34801561012857600080fd5b506100696104b2565b600254604080517ff3f437030000000000000000000000000000000000000000000000000000000081523360048201529051600160a060020a0390921691600091839163f3f437039160248082019260209290919082900301818787803b15801561019b57600080fd5b505af11580156101af573d6000803e3d6000fd5b505050506040513d60208110156101c557600080fd5b5051604080517fa9c52d790000000000000000000000000000000000000000000000000000000081523360048201529051919250600160a060020a0384169163a9c52d799160248082019260009290919082900301818387803b15801561022b57600080fd5b505af115801561023f573d6000803e3d6000fd5b505060405133925083156108fc02915083906000818181858888f19350505050158015610270573d6000803e3d6000fd5b505050565b600080548190600160a060020a0316331461028f57600080fd5b5050600354600254604080517f39df3f4f0000000000000000000000000000000000000000000000000000000081529051600160a060020a03938416939092169183916339df3f4f91600480830192600092919082900301818387803b1580156102f857600080fd5b505af115801561030c573d6000803e3d6000fd5b5050505080600160a060020a0316631cf4c3d16040518163ffffffff1660e060020a028152600401600060405180830381600087803b15801561034e57600080fd5b505af1158015610362573d6000803e3d6000fd5b5050505061036e6104b2565b80600160a060020a031663c53d6e476040518163ffffffff1660e060020a028152600401600060405180830381600087803b1580156103ac57600080fd5b505af11580156103c0573d6000803e3d6000fd5b505050505050565b60018054600160a060020a0394851673ffffffffffffffffffffffffffffffffffffffff1991821617909155600380549285169282169290921790915560028054929093169116179055565b600054600160a060020a0316331461042b57600080fd5b60008054604051600160a060020a03909116917ff8df31144d9c2f0f6b59d69b8b98abd5459d07f2742c4df920b25aae33c6482091a26000805473ffffffffffffffffffffffffffffffffffffffff19169055565b600054600160a060020a031681565b600054600160a060020a031633146104a657600080fd5b6104af81610746565b50565b600080548190819081908190819081908190819081908190600160a060020a031633146104de57600080fd5b6104f03031600763ffffffff6107c316565b9a506105038b606463ffffffff6107f216565b9a506105168b601963ffffffff6107c316565b99506105298b601563ffffffff6107c316565b985061053c8b601263ffffffff6107c316565b975061054f8b600e63ffffffff6107c316565b96506105628b600b63ffffffff6107c316565b95506105758b600763ffffffff6107c316565b94506105888b600463ffffffff6107c316565b600254604080517fbdaaf432000000000000000000000000000000000000000000000000000000008152600481018e9052602481018d9052604481018c9052606481018b9052608481018a905260a4810189905260c481018490529051929650600160a060020a039091169450849163bdaaf4329160e48082019260009290919082900301818387803b15801561061e57600080fd5b505af1158015610632573d6000803e3d6000fd5b5050600154604080517f27748805000000000000000000000000000000000000000000000000000000008152600160a060020a0390921660048301525173__Lucky7Library_________________________9350632774880592506024808301926020929190829003018186803b1580156106ac57600080fd5b505af41580156106c0573d6000803e3d6000fd5b505050506040513d60208110156106d657600080fd5b505191506106ec3031601e63ffffffff6107c316565b90506106ff81606463ffffffff6107f216565b604051909150600160a060020a0383169082156108fc029083906000818181858888f19350505050158015610738573d6000803e3d6000fd5b505050505050505050505050565b600160a060020a038116151561075b57600080fd5b60008054604051600160a060020a03808516939216917f8be0079c531659141344cd1fd0a4f28419497f9722a3daafe3b4186f6b6457e091a36000805473ffffffffffffffffffffffffffffffffffffffff1916600160a060020a0392909216919091179055565b60008215156107d4575060006107ec565b508181028183828115156107e457fe5b04146107ec57fe5b92915050565b600081838115156107ff57fe5b0493925050505600a165627a7a7230582051e19dd0a982bb424e7e59f2e65b55d4e96f626df97bfa738f95435368cc9c3b0029",
  "source": "/**\n  * @author Matias Barrios\n  * @version 1.0\n  */\n\n/** @title Lucky7Ballot. \n  * This contract contains all the functions to start a new game and deliver prizes.\n  * Particularly contains function that have the business logic for generating Lucky7Numbers and Lucky7Tickets, order them, deliver prizes and clean necessary arrays.\n*/\n\npragma solidity ^0.4.20;\n\nimport \"./Lucky7Library.sol\";\nimport \"./Lucky7Admin.sol\";\nimport \"./Lucky7Storage.sol\";\nimport \"openzeppelin-solidity/contracts/ownership/Ownable.sol\";\nimport \"openzeppelin-solidity/contracts/math/SafeMath.sol\";\n\ncontract Lucky7Ballot is Ownable{\n\n    using SafeMath for uint256;\n    /** @dev Address of the contracts to call functions\n      */\n    address lucky7AdminAddress;\n    address lucky7StorageAddress;\n    address lucky7TicketFactoryAddress;\n    \n    function constructor(address _lucky7AdminAddress, address _lucky7StorageAddress, address _lucky7TicketFactoryAddress) payable public{\n        lucky7AdminAddress = _lucky7AdminAddress;\n        lucky7TicketFactoryAddress = _lucky7TicketFactoryAddress;\n        lucky7StorageAddress = _lucky7StorageAddress;\n    }\n\n    /** @dev setNewGame is a function designed to call all the functions necessary to start a new game. First, it activate the settingLucky7Numbers circuit breaker.\n      * Then it stores and order the Lucky7Tickets in ascendante order depending on them difference values through the _orderLucky7Tickets. \n      * Then it set the prizes for the last winners to 0 (for security reasons), look up for Lucky7Tickets with owners different than 0 and update the \n      * pendingWithdrawals for the first, second and third winnner, deliver the prize for the enterprise, clean the necessary mappings and arrays (ExactLucky7Ticket and\n      * lucky7NumbersArray), increase the drawNumber parameter to differentiate the Lucky7Tickets and Tickets from each different game in the future, and update the value\n      * of the initialLucky7TicketPosition to store the Lucky7Tickets for every game correctly.\n      */\n    function setNewGame()                                      \n        public \n        onlyOwner \n    {\n        Lucky7TicketFactory lucky7TicketFactoryContract = Lucky7TicketFactory(lucky7TicketFactoryAddress);\n        Lucky7Storage lucky7StorageContract = Lucky7Storage(lucky7StorageAddress);\n        lucky7TicketFactoryContract.toggleLucky7Setting();\n        lucky7StorageContract._orderLucky7Tickets();\n        _deliverPrizes();\n        lucky7StorageContract._cleanMappings();\n    }\n    \n    /** @dev _deliverPrizes is a function designed to complete the business logic of the deliver prizes phase.\n      * First, it takes the balance of prizes of the previous winners to 0 for security reasons (explained in the paper of the project).\n      * Then it proceeds to calculate the amount of the prizes. The winners lot is 70% of the accumulated earnings,i.e. 70% of the contract balance.\n      * Of that amount:\n      * First prize: 25%\n      * Second prize: 21% \n      * Third prize: 18%\n      * Fourth prize: 14%\n      * Fifth prize: 11%\n      * Sixth prize: 7%\n      * Seventh prize: 4%\n      * The function then proceeds to check if, starting in the initialLucky7TicketPosition (the first Lucky7Ticket of the current game ordered by difference in ascending order)\n      * belongs to a user, i.e. it address is not 0. If it's different than 0, then sets the prize for that address to the first prize amount on the pendingWithdrawals mapping, \n      * saves it adddress in lastFirstPrizeWinner to set it prize to 0 in the next new game setting and breaks the loop to deliver the second place prize.\n      * It is not automatically delivered to the first prize winner to avoid DoS with (Unexpected) revert attack, i.e. one or more of the winners address isn't\n      * capable of receiving ether and cut the transaction, stucking the contract function to deliver prizes to real winners.\n      * After update the pendingWithdrawals mapping for payment for the first prize winner, it proceeds the same way with the second and third winner, to finally deliver the\n      * enterprise prize automatically, because is a known address and is first setted as the owner of the contract. \n      */\n    function _deliverPrizes() \n        public \n        onlyOwner\n    {\n        uint winnersPrize = address(this).balance.mul(7);\n        winnersPrize = winnersPrize.div(100);\n        uint firstPrize = winnersPrize.mul(25);\n        uint secondPrize = winnersPrize.mul(21);\n        uint thirdPrize = winnersPrize.mul(18);\n        uint fourthPrize = winnersPrize.mul(14);\n        uint fifthPrize = winnersPrize.mul(11);\n        uint sixthPrize = winnersPrize.mul(7);\n        uint seventhPrize = winnersPrize.mul(4);\n        Lucky7Storage lucky7StorageContract = Lucky7Storage(lucky7StorageAddress);\n        lucky7StorageContract.setWinners(firstPrize,secondPrize,thirdPrize,fourthPrize,fifthPrize,sixthPrize,seventhPrize);\n\n        address enterpriseWallet = Lucky7Library.enterpriseWallet(lucky7AdminAddress);\n        uint enterprisePrize = address(this).balance.mul(30);\n        enterprisePrize = enterprisePrize.div(100);\n        enterpriseWallet.transfer(enterprisePrize);\n    }\n\n    /** @dev withdraw is a function used for winners to claim them prices. It is updated in the _deliverPrizesFunction of this contract to\n      * state the owners of the first, second and third prize. It is used to avoid DoS with (Unexpected) revert attack.\n      */\n    function withdraw() \n        public \n    {\n        Lucky7Storage lucky7StorageContract = Lucky7Storage(lucky7StorageAddress);\n        uint amount = lucky7StorageContract.pendingWithdrawals(msg.sender);\n        lucky7StorageContract.setPendingWithdrawalToZero(msg.sender);\n        msg.sender.transfer(amount);\n    }\n\n    \n    /** @dev Fallback function to make this contract payable.\n      */\n    function () public payable {\n        \n    }\n}",
  "sourcePath": "/Users/matiasbarrios/Desktop/Proyecto Consensys/luckyseven/contracts/Lucky7Ballot.sol",
  "compiler": {
    "name": "solc",
    "version": "0.4.24+commit.e67f0147.Emscripten.clang"
  },
  "schemaVersion": "2.0.1",
  "updatedAt": "2018-09-29T01:54:39.656Z"
}