{
  "contractName": "Lucky7Store",
  "abi": [
    {
      "constant": true,
      "inputs": [],
      "name": "getlucky7Numbers",
      "outputs": [
        {
          "name": "",
          "type": "uint256[7]"
        }
      ],
      "payable": false,
      "stateMutability": "view",
      "type": "function"
    },
    {
      "constant": false,
      "inputs": [
        {
          "name": "_newValue",
          "type": "string"
        }
      ],
      "name": "modifyParameterN",
      "outputs": [],
      "payable": false,
      "stateMutability": "nonpayable",
      "type": "function"
    },
    {
      "constant": true,
      "inputs": [
        {
          "name": "",
          "type": "uint256"
        }
      ],
      "name": "lucky7TicketID",
      "outputs": [
        {
          "name": "",
          "type": "uint256"
        }
      ],
      "payable": false,
      "stateMutability": "view",
      "type": "function"
    },
    {
      "constant": true,
      "inputs": [
        {
          "name": "",
          "type": "uint256"
        }
      ],
      "name": "lucky7TicketOwner",
      "outputs": [
        {
          "name": "",
          "type": "address"
        }
      ],
      "payable": false,
      "stateMutability": "view",
      "type": "function"
    },
    {
      "constant": false,
      "inputs": [],
      "name": "_orderLucky7Tickets",
      "outputs": [],
      "payable": false,
      "stateMutability": "nonpayable",
      "type": "function"
    },
    {
      "constant": false,
      "inputs": [
        {
          "name": "_ticketOwner",
          "type": "address"
        }
      ],
      "name": "_askForMuParameter",
      "outputs": [],
      "payable": true,
      "stateMutability": "payable",
      "type": "function"
    },
    {
      "constant": false,
      "inputs": [
        {
          "name": "myid",
          "type": "bytes32"
        },
        {
          "name": "result",
          "type": "string"
        }
      ],
      "name": "__callback",
      "outputs": [],
      "payable": false,
      "stateMutability": "nonpayable",
      "type": "function"
    },
    {
      "constant": true,
      "inputs": [],
      "name": "settingLucky7Numbers",
      "outputs": [
        {
          "name": "",
          "type": "bool"
        }
      ],
      "payable": false,
      "stateMutability": "view",
      "type": "function"
    },
    {
      "constant": false,
      "inputs": [
        {
          "name": "_ticketID",
          "type": "uint256"
        }
      ],
      "name": "_checkForLucky7Ticket",
      "outputs": [],
      "payable": false,
      "stateMutability": "nonpayable",
      "type": "function"
    },
    {
      "constant": true,
      "inputs": [],
      "name": "n",
      "outputs": [
        {
          "name": "",
          "type": "string"
        }
      ],
      "payable": false,
      "stateMutability": "view",
      "type": "function"
    },
    {
      "constant": false,
      "inputs": [
        {
          "name": "myid",
          "type": "bytes32"
        },
        {
          "name": "result",
          "type": "string"
        },
        {
          "name": "proof",
          "type": "bytes"
        }
      ],
      "name": "__callback",
      "outputs": [],
      "payable": false,
      "stateMutability": "nonpayable",
      "type": "function"
    },
    {
      "constant": true,
      "inputs": [
        {
          "name": "",
          "type": "uint256"
        }
      ],
      "name": "lucky7Tickets",
      "outputs": [
        {
          "name": "difference",
          "type": "uint256"
        },
        {
          "name": "owner",
          "type": "address"
        },
        {
          "name": "ticketID",
          "type": "uint256"
        },
        {
          "name": "ticketValue",
          "type": "uint256"
        },
        {
          "name": "lucky7Number",
          "type": "uint256"
        },
        {
          "name": "lucky7NumberID",
          "type": "uint256"
        },
        {
          "name": "drawID",
          "type": "uint256"
        }
      ],
      "payable": false,
      "stateMutability": "view",
      "type": "function"
    },
    {
      "constant": false,
      "inputs": [],
      "name": "toggleLucky7Setting",
      "outputs": [],
      "payable": false,
      "stateMutability": "nonpayable",
      "type": "function"
    },
    {
      "constant": false,
      "inputs": [
        {
          "name": "_newValue",
          "type": "string"
        }
      ],
      "name": "modifyParameterJ",
      "outputs": [],
      "payable": false,
      "stateMutability": "nonpayable",
      "type": "function"
    },
    {
      "constant": false,
      "inputs": [],
      "name": "withdraw",
      "outputs": [],
      "payable": false,
      "stateMutability": "nonpayable",
      "type": "function"
    },
    {
      "constant": true,
      "inputs": [
        {
          "name": "",
          "type": "uint256"
        }
      ],
      "name": "lucky7Numbers",
      "outputs": [
        {
          "name": "mu",
          "type": "string"
        },
        {
          "name": "i",
          "type": "string"
        },
        {
          "name": "ticketValue",
          "type": "uint256"
        },
        {
          "name": "drawID",
          "type": "uint256"
        }
      ],
      "payable": false,
      "stateMutability": "view",
      "type": "function"
    },
    {
      "constant": false,
      "inputs": [],
      "name": "setNewGame",
      "outputs": [],
      "payable": false,
      "stateMutability": "nonpayable",
      "type": "function"
    },
    {
      "constant": false,
      "inputs": [
        {
          "name": "_newAddress",
          "type": "address"
        }
      ],
      "name": "modifyEnterpriseWallet",
      "outputs": [],
      "payable": false,
      "stateMutability": "nonpayable",
      "type": "function"
    },
    {
      "constant": true,
      "inputs": [
        {
          "name": "",
          "type": "address"
        }
      ],
      "name": "userValues",
      "outputs": [
        {
          "name": "mu",
          "type": "string"
        },
        {
          "name": "i",
          "type": "string"
        },
        {
          "name": "ticketValue",
          "type": "uint256"
        },
        {
          "name": "muReady",
          "type": "bool"
        },
        {
          "name": "iReady",
          "type": "bool"
        },
        {
          "name": "userPaidTicket",
          "type": "bool"
        }
      ],
      "payable": false,
      "stateMutability": "view",
      "type": "function"
    },
    {
      "constant": true,
      "inputs": [],
      "name": "b",
      "outputs": [
        {
          "name": "",
          "type": "string"
        }
      ],
      "payable": false,
      "stateMutability": "view",
      "type": "function"
    },
    {
      "constant": true,
      "inputs": [
        {
          "name": "",
          "type": "uint256"
        }
      ],
      "name": "tickets",
      "outputs": [
        {
          "name": "mu",
          "type": "string"
        },
        {
          "name": "i",
          "type": "string"
        },
        {
          "name": "ticketValue",
          "type": "uint256"
        },
        {
          "name": "owner",
          "type": "address"
        },
        {
          "name": "drawID",
          "type": "uint256"
        }
      ],
      "payable": false,
      "stateMutability": "view",
      "type": "function"
    },
    {
      "constant": true,
      "inputs": [],
      "name": "oraclizeGasLimit",
      "outputs": [
        {
          "name": "",
          "type": "uint256"
        }
      ],
      "payable": false,
      "stateMutability": "view",
      "type": "function"
    },
    {
      "constant": true,
      "inputs": [],
      "name": "numberOfLucky7Numbers",
      "outputs": [
        {
          "name": "",
          "type": "uint256"
        }
      ],
      "payable": false,
      "stateMutability": "view",
      "type": "function"
    },
    {
      "constant": true,
      "inputs": [],
      "name": "getlucky7Tickets",
      "outputs": [
        {
          "name": "",
          "type": "uint256[7]"
        }
      ],
      "payable": false,
      "stateMutability": "view",
      "type": "function"
    },
    {
      "constant": false,
      "inputs": [
        {
          "name": "_id",
          "type": "uint256"
        },
        {
          "name": "_mu",
          "type": "string"
        },
        {
          "name": "_i",
          "type": "string"
        },
        {
          "name": "_ticketValue",
          "type": "uint256"
        },
        {
          "name": "_drawNumber",
          "type": "uint256"
        }
      ],
      "name": "insertCustomizedLucky7Number",
      "outputs": [],
      "payable": false,
      "stateMutability": "nonpayable",
      "type": "function"
    },
    {
      "constant": false,
      "inputs": [],
      "name": "renounceOwnership",
      "outputs": [],
      "payable": false,
      "stateMutability": "nonpayable",
      "type": "function"
    },
    {
      "constant": true,
      "inputs": [],
      "name": "enterpriseWallet",
      "outputs": [
        {
          "name": "",
          "type": "address"
        }
      ],
      "payable": false,
      "stateMutability": "view",
      "type": "function"
    },
    {
      "constant": false,
      "inputs": [],
      "name": "_orderLucky7Numbers",
      "outputs": [],
      "payable": false,
      "stateMutability": "nonpayable",
      "type": "function"
    },
    {
      "constant": false,
      "inputs": [
        {
          "name": "_ticketOwner",
          "type": "address"
        }
      ],
      "name": "_generateTicket",
      "outputs": [],
      "payable": false,
      "stateMutability": "nonpayable",
      "type": "function"
    },
    {
      "constant": false,
      "inputs": [
        {
          "name": "_newValue",
          "type": "uint256"
        }
      ],
      "name": "modifyOraclizeGasLimit",
      "outputs": [],
      "payable": false,
      "stateMutability": "nonpayable",
      "type": "function"
    },
    {
      "constant": false,
      "inputs": [],
      "name": "destroy",
      "outputs": [],
      "payable": false,
      "stateMutability": "nonpayable",
      "type": "function"
    },
    {
      "constant": false,
      "inputs": [
        {
          "name": "_newValue",
          "type": "string"
        }
      ],
      "name": "modifyParameterB",
      "outputs": [],
      "payable": false,
      "stateMutability": "nonpayable",
      "type": "function"
    },
    {
      "constant": false,
      "inputs": [
        {
          "name": "_newValue",
          "type": "uint256"
        }
      ],
      "name": "modifyGenerateTicketPrice",
      "outputs": [],
      "payable": false,
      "stateMutability": "nonpayable",
      "type": "function"
    },
    {
      "constant": true,
      "inputs": [],
      "name": "owner",
      "outputs": [
        {
          "name": "",
          "type": "address"
        }
      ],
      "payable": false,
      "stateMutability": "view",
      "type": "function"
    },
    {
      "constant": false,
      "inputs": [],
      "name": "_generateLucky7Number",
      "outputs": [],
      "payable": false,
      "stateMutability": "nonpayable",
      "type": "function"
    },
    {
      "constant": true,
      "inputs": [],
      "name": "oraclizeCustomGasPrice",
      "outputs": [
        {
          "name": "",
          "type": "uint256"
        }
      ],
      "payable": false,
      "stateMutability": "view",
      "type": "function"
    },
    {
      "constant": true,
      "inputs": [],
      "name": "p",
      "outputs": [
        {
          "name": "",
          "type": "string"
        }
      ],
      "payable": false,
      "stateMutability": "view",
      "type": "function"
    },
    {
      "constant": false,
      "inputs": [
        {
          "name": "_newValue",
          "type": "string"
        }
      ],
      "name": "modifyParameterP",
      "outputs": [],
      "payable": false,
      "stateMutability": "nonpayable",
      "type": "function"
    },
    {
      "constant": true,
      "inputs": [],
      "name": "j",
      "outputs": [
        {
          "name": "",
          "type": "string"
        }
      ],
      "payable": false,
      "stateMutability": "view",
      "type": "function"
    },
    {
      "constant": true,
      "inputs": [],
      "name": "balance",
      "outputs": [
        {
          "name": "",
          "type": "uint256"
        }
      ],
      "payable": false,
      "stateMutability": "view",
      "type": "function"
    },
    {
      "constant": false,
      "inputs": [
        {
          "name": "_mu",
          "type": "string"
        },
        {
          "name": "_i",
          "type": "string"
        },
        {
          "name": "_ticketValue",
          "type": "uint256"
        },
        {
          "name": "_ticketOwner",
          "type": "address"
        },
        {
          "name": "_drawNumber",
          "type": "uint256"
        }
      ],
      "name": "insertCustomizedTicket",
      "outputs": [
        {
          "name": "",
          "type": "uint256"
        }
      ],
      "payable": false,
      "stateMutability": "nonpayable",
      "type": "function"
    },
    {
      "constant": true,
      "inputs": [],
      "name": "initialLucky7TicketPosition",
      "outputs": [
        {
          "name": "",
          "type": "uint256"
        }
      ],
      "payable": false,
      "stateMutability": "view",
      "type": "function"
    },
    {
      "constant": false,
      "inputs": [
        {
          "name": "_newValue",
          "type": "uint256"
        }
      ],
      "name": "modifySellTicketPrice",
      "outputs": [],
      "payable": false,
      "stateMutability": "nonpayable",
      "type": "function"
    },
    {
      "constant": true,
      "inputs": [],
      "name": "indexForLucky7Array",
      "outputs": [
        {
          "name": "",
          "type": "uint256"
        }
      ],
      "payable": false,
      "stateMutability": "view",
      "type": "function"
    },
    {
      "constant": false,
      "inputs": [
        {
          "name": "_newValue",
          "type": "uint256"
        }
      ],
      "name": "modifyNumberOfLucky7Numbers",
      "outputs": [],
      "payable": false,
      "stateMutability": "nonpayable",
      "type": "function"
    },
    {
      "constant": false,
      "inputs": [
        {
          "name": "_newValue",
          "type": "uint256"
        }
      ],
      "name": "modifyOraclizeCustomGasPrice",
      "outputs": [],
      "payable": false,
      "stateMutability": "nonpayable",
      "type": "function"
    },
    {
      "constant": true,
      "inputs": [],
      "name": "generateTicketPrice",
      "outputs": [
        {
          "name": "",
          "type": "uint256"
        }
      ],
      "payable": false,
      "stateMutability": "view",
      "type": "function"
    },
    {
      "constant": true,
      "inputs": [],
      "name": "drawNumber",
      "outputs": [
        {
          "name": "",
          "type": "uint256"
        }
      ],
      "payable": false,
      "stateMutability": "view",
      "type": "function"
    },
    {
      "constant": false,
      "inputs": [
        {
          "name": "_ticketOwner",
          "type": "address"
        }
      ],
      "name": "_askForTicket",
      "outputs": [],
      "payable": false,
      "stateMutability": "nonpayable",
      "type": "function"
    },
    {
      "constant": true,
      "inputs": [],
      "name": "sellTicketPrice",
      "outputs": [
        {
          "name": "",
          "type": "uint256"
        }
      ],
      "payable": false,
      "stateMutability": "view",
      "type": "function"
    },
    {
      "constant": true,
      "inputs": [
        {
          "name": "",
          "type": "uint256"
        }
      ],
      "name": "lucky7TicketDifference",
      "outputs": [
        {
          "name": "",
          "type": "uint256"
        }
      ],
      "payable": false,
      "stateMutability": "view",
      "type": "function"
    },
    {
      "constant": false,
      "inputs": [
        {
          "name": "_newOwner",
          "type": "address"
        }
      ],
      "name": "transferOwnership",
      "outputs": [],
      "payable": false,
      "stateMutability": "nonpayable",
      "type": "function"
    },
    {
      "constant": true,
      "inputs": [
        {
          "name": "",
          "type": "address"
        }
      ],
      "name": "pendingWithdrawals",
      "outputs": [
        {
          "name": "",
          "type": "uint256"
        }
      ],
      "payable": false,
      "stateMutability": "view",
      "type": "function"
    },
    {
      "constant": false,
      "inputs": [],
      "name": "_deliverPrizes",
      "outputs": [],
      "payable": false,
      "stateMutability": "nonpayable",
      "type": "function"
    },
    {
      "constant": false,
      "inputs": [
        {
          "name": "_recipient",
          "type": "address"
        }
      ],
      "name": "destroyAndSend",
      "outputs": [],
      "payable": false,
      "stateMutability": "nonpayable",
      "type": "function"
    },
    {
      "constant": false,
      "inputs": [
        {
          "name": "_ticketOwner",
          "type": "address"
        }
      ],
      "name": "_askForIParameter",
      "outputs": [],
      "payable": false,
      "stateMutability": "nonpayable",
      "type": "function"
    },
    {
      "inputs": [],
      "payable": true,
      "stateMutability": "payable",
      "type": "constructor"
    },
    {
      "payable": true,
      "stateMutability": "payable",
      "type": "fallback"
    },
    {
      "anonymous": false,
      "inputs": [
        {
          "indexed": false,
          "name": "description",
          "type": "string"
        }
      ],
      "name": "NewOraclizeQuery",
      "type": "event"
    },
    {
      "anonymous": false,
      "inputs": [
        {
          "indexed": false,
          "name": "muParameter",
          "type": "string"
        }
      ],
      "name": "NewMuReceived",
      "type": "event"
    },
    {
      "anonymous": false,
      "inputs": [
        {
          "indexed": false,
          "name": "iParameter",
          "type": "string"
        }
      ],
      "name": "NewIReceived",
      "type": "event"
    },
    {
      "anonymous": false,
      "inputs": [
        {
          "indexed": false,
          "name": "newTicket",
          "type": "string"
        }
      ],
      "name": "NewTicketReceived",
      "type": "event"
    },
    {
      "anonymous": false,
      "inputs": [
        {
          "indexed": false,
          "name": "description",
          "type": "string"
        }
      ],
      "name": "NewWolframQuery",
      "type": "event"
    },
    {
      "anonymous": false,
      "inputs": [
        {
          "indexed": false,
          "name": "ticketID",
          "type": "uint256"
        }
      ],
      "name": "NewLucky7Ticket",
      "type": "event"
    },
    {
      "anonymous": false,
      "inputs": [
        {
          "indexed": false,
          "name": "value",
          "type": "uint256"
        }
      ],
      "name": "NewLucky7Number",
      "type": "event"
    },
    {
      "anonymous": false,
      "inputs": [
        {
          "indexed": false,
          "name": "feeType",
          "type": "string"
        },
        {
          "indexed": false,
          "name": "_oldValue",
          "type": "uint256"
        },
        {
          "indexed": false,
          "name": "_newValue",
          "type": "uint256"
        }
      ],
      "name": "numberModified",
      "type": "event"
    },
    {
      "anonymous": false,
      "inputs": [
        {
          "indexed": false,
          "name": "parameter",
          "type": "string"
        },
        {
          "indexed": false,
          "name": "_oldValue",
          "type": "string"
        },
        {
          "indexed": false,
          "name": "_newValue",
          "type": "string"
        }
      ],
      "name": "parameterModified",
      "type": "event"
    },
    {
      "anonymous": false,
      "inputs": [
        {
          "indexed": false,
          "name": "parameter",
          "type": "string"
        },
        {
          "indexed": false,
          "name": "_oldValue",
          "type": "address"
        },
        {
          "indexed": false,
          "name": "_newValue",
          "type": "address"
        }
      ],
      "name": "walletModified",
      "type": "event"
    },
    {
      "anonymous": false,
      "inputs": [
        {
          "indexed": true,
          "name": "previousOwner",
          "type": "address"
        }
      ],
      "name": "OwnershipRenounced",
      "type": "event"
    },
    {
      "anonymous": false,
      "inputs": [
        {
          "indexed": true,
          "name": "previousOwner",
          "type": "address"
        },
        {
          "indexed": true,
          "name": "newOwner",
          "type": "address"
        }
      ],
      "name": "OwnershipTransferred",
      "type": "event"
    },
    {
      "constant": false,
      "inputs": [],
      "name": "sellRandomTicket",
      "outputs": [],
      "payable": true,
      "stateMutability": "payable",
      "type": "function"
    },
    {
      "constant": false,
      "inputs": [],
      "name": "generateRandomTicket",
      "outputs": [],
      "payable": true,
      "stateMutability": "payable",
      "type": "function"
    },
    {
      "constant": false,
      "inputs": [],
      "name": "sellGeneratedTicket",
      "outputs": [],
      "payable": true,
      "stateMutability": "payable",
      "type": "function"
    }
  ],
  "bytecode": "0x60c0604052600160808190527f310000000000000000000000000000000000000000000000000000000000000060a09081526200003e919081620001aa565b506040805180820190915260018082527f380000000000000000000000000000000000000000000000000000000000000060209092019182526200008591600291620001aa565b506040805180820190915260058082527f31303030300000000000000000000000000000000000000000000000000000006020909201918252620000cc91600391620001aa565b506040805180820190915260028082527f323000000000000000000000000000000000000000000000000000000000000060209092019182526200011391600491620001aa565b50600760058190556611c37937e08000600655662aa1efb94e00009055620493e060085563ee6b280060095560008054600a8054600160a060020a0319908116600160a060020a03841617909155601083905560118390556012805460ff1916600117905560388390559081163317909155600b805490911673de6ddb95052e8072de64d814077148b95e43e1e01790556200024f565b828054600181600116156101000203166002900490600052602060002090601f016020900481019282601f10620001ed57805160ff19168380011785556200021d565b828001600101855582156200021d579182015b828111156200021d57825182559160200191906001019062000200565b506200022b9291506200022f565b5090565b6200024c91905b808211156200022b576000815560010162000236565b90565b615cc2806200025f6000396000f3006080604052600436106102a55763ffffffff60e060020a60003504166301591f1381146102a75780630b8ec740146102f45780630cc38b2b146102fc57806310cd4b8a146103555780631c3ed1d31461037f5780631cf4c3d1146103b35780631ded3bec146103c857806323d370ba146103d057806327dc297e146103e45780632caf9eee146104425780632de729eb1461046b5780632e52d6061461048357806338bbfa501461050d578063396fb422146105a957806339df3f4f146106015780633bb7daf4146106165780633ccfd60b1461066f5780633eba346614610684578063400149111461078857806349f6b0301461079d5780634acfd9b8146107be5780634df7e3d0146108dd57806350b44712146108f257806350b9c42814610a0557806359f9fe8214610a1a5780635edbc36b14610a2f5780635fff9ae314610a44578063715018a614610ae957806372c3477d14610afe578063741606b514610b0657806375edd25714610b1b57806377d8a83014610b30578063809fc15314610b5157806383197ef014610b6957806383bb7bb714610b7e5780638aa5fafa14610bd75780638da5cb5b14610bef57806390c31c4c14610c045780639ac2bf9114610c195780639ae8886a14610c2e5780639dec38ab14610c43578063b582ec5f14610c9c578063b69ef8a814610cb1578063bb4127e814610cc6578063bb49516b14610d72578063bcb740ab14610d87578063c56969ab14610d9f578063c71f04ac14610db4578063d383e86214610dcc578063d566bcf014610de4578063d80ffb2014610df9578063ddc110fa14610e0e578063e5663c4814610e2f578063e802ae1414610e44578063f2fde38b14610e5c578063f3f4370314610e7d578063f405228914610e9e578063f5074f4114610eb3578063fd9be1b214610ed4575b005b3480156102b357600080fd5b506102bc610ef5565b604051808260e080838360005b838110156102e15781810151838201526020016102c9565b5050505090500191505060405180910390f35b6102a5610f6c565b34801561030857600080fd5b506040805160206004803580820135601f81018490048402850184019095528484526102a59436949293602493928401919081908401838280828437509497506111289650505050505050565b34801561036157600080fd5b5061036d60043561130d565b60408051918252519081900360200190f35b34801561038b57600080fd5b5061039760043561131f565b60408051600160a060020a039092168252519081900360200190f35b3480156103bf57600080fd5b506102a561133a565b6102a561170e565b6102a5600160a060020a036004351661177d565b3480156103f057600080fd5b5060408051602060046024803582810135601f81018590048502860185019096528585526102a595833595369560449491939091019190819084018382808284375094975061188f9650505050505050565b34801561044e57600080fd5b50610457611e40565b604080519115158252519081900360200190f35b34801561047757600080fd5b506102a5600435611e49565b34801561048f57600080fd5b506104986120bd565b6040805160208082528351818301528351919283929083019185019080838360005b838110156104d25781810151838201526020016104ba565b50505050905090810190601f1680156104ff5780820380516001836020036101000a031916815260200191505b509250505060405180910390f35b34801561051957600080fd5b5060408051602060046024803582810135601f81018590048502860185019096528585526102a595833595369560449491939091019190819084018382808284375050604080516020601f89358b018035918201839004830284018301909452808352979a9998810197919650918201945092508291508401838280828437509497506121489650505050505050565b3480156105b557600080fd5b506105c160043561214d565b60408051978852600160a060020a039096166020880152868601949094526060860192909252608085015260a084015260c0830152519081900360e00190f35b34801561060d57600080fd5b506102a56121a4565b34801561062257600080fd5b506040805160206004803580820135601f81018490048402850184019095528484526102a59436949293602493928401919081908401838280828437509497506121cf9650505050505050565b34801561067b57600080fd5b506102a5612315565b34801561069057600080fd5b5061069c600435612356565b604051808060200180602001858152602001848152602001838103835287818151815260200191508051906020019080838360005b838110156106e95781810151838201526020016106d1565b50505050905090810190601f1680156107165780820380516001836020036101000a031916815260200191505b50838103825286518152865160209182019188019080838360005b83811015610749578181015183820152602001610731565b50505050905090810190601f1680156107765780820380516001836020036101000a031916815260200191505b50965050505050505060405180910390f35b34801561079457600080fd5b506102a56124a2565b3480156107a957600080fd5b506102a5600160a060020a03600435166124dd565b3480156107ca57600080fd5b506107df600160a060020a036004351661258c565b604080519081018590528315156060820152821515608082015281151560a082015260c08082528751908201528651819060208083019160e08401918b019080838360005b8381101561083c578181015183820152602001610824565b50505050905090810190601f1680156108695780820380516001836020036101000a031916815260200191505b5083810382528851815288516020918201918a019080838360005b8381101561089c578181015183820152602001610884565b50505050905090810190601f1680156108c95780820380516001836020036101000a031916815260200191505b509850505050505050505060405180910390f35b3480156108e957600080fd5b506104986126ec565b3480156108fe57600080fd5b5061090a600435612746565b60408051908101849052600160a060020a03831660608201526080810182905260a08082528651908201528551819060208083019160c08401918a019080838360005b8381101561096557818101518382015260200161094d565b50505050905090810190601f1680156109925780820380516001836020036101000a031916815260200191505b50838103825287518152875160209182019189019080838360005b838110156109c55781810151838201526020016109ad565b50505050905090810190601f1680156109f25780820380516001836020036101000a031916815260200191505b5097505050505050505060405180910390f35b348015610a1157600080fd5b5061036d6128b3565b348015610a2657600080fd5b5061036d6128b9565b348015610a3b57600080fd5b506102bc6128bf565b348015610a5057600080fd5b5060408051602060046024803582810135601f81018590048502860185019096528585526102a595833595369560449491939091019190819084018382808284375050604080516020601f89358b018035918201839004830284018301909452808352979a9998810197919650918201945092508291508401838280828437509497505084359550505060209092013591506129509050565b348015610af557600080fd5b506102a56129ec565b6102a5612a4b565b348015610b1257600080fd5b50610397612a99565b348015610b2757600080fd5b506102a5612aa8565b348015610b3c57600080fd5b506102a5600160a060020a0360043516612ee4565b348015610b5d57600080fd5b506102a5600435612ef6565b348015610b7557600080fd5b506102a5612f77565b348015610b8a57600080fd5b506040805160206004803580820135601f81018490048402850184019095528484526102a5943694929360249392840191908190840183828082843750949750612f9c9650505050505050565b348015610be357600080fd5b506102a56004356130e1565b348015610bfb57600080fd5b50610397613162565b348015610c1057600080fd5b506102a5613171565b348015610c2557600080fd5b5061036d6131d2565b348015610c3a57600080fd5b506104986131d8565b348015610c4f57600080fd5b506040805160206004803580820135601f81018490048402850184019095528484526102a59436949293602493928401919081908401838280828437509497506132339650505050505050565b348015610ca857600080fd5b50610498613379565b348015610cbd57600080fd5b5061036d6133d4565b348015610cd257600080fd5b506040805160206004803580820135601f810184900484028501840190955284845261036d94369492936024939284019190819084018382808284375050604080516020601f89358b018035918201839004830284018301909452808352979a99988101979196509182019450925082915084018382808284375094975050843595505050506020820135600160a060020a0316916040013590506133f3565b348015610d7e57600080fd5b5061036d6134f3565b348015610d9357600080fd5b506102a56004356134f9565b348015610dab57600080fd5b5061036d61357a565b348015610dc057600080fd5b506102a5600435613580565b348015610dd857600080fd5b506102a5600435613601565b348015610df057600080fd5b5061036d6136a8565b348015610e0557600080fd5b5061036d6136ae565b348015610e1a57600080fd5b506102a5600160a060020a03600435166136b4565b348015610e3b57600080fd5b5061036d61379b565b348015610e5057600080fd5b5061036d6004356137a1565b348015610e6857600080fd5b506102a5600160a060020a03600435166137b3565b348015610e8957600080fd5b5061036d600160a060020a03600435166137d3565b348015610eaa57600080fd5b506102a56137e5565b348015610ebf57600080fd5b506102a5600160a060020a0360043516613be9565b348015610ee057600080fd5b506102a5600160a060020a0360043516613c0c565b610efd615aba565b6000805b600554811015610f385760158160078110610f1857fe5b60040201600201548282600781101515610f2e57fe5b0155600101610f01565b6040805160e081019182905290839060079082845b815481526020019060010190808311610f4d5750505050509250505090565b6007543390341015610f7d57600080fd5b600160a060020a0381166000908152603160205260409020600301805462ff000019166201000017905560125460ff1615610fb757600080fd5b6040805133600090815260316020529190912080547fc5d2460186f7233c927e7db2dcc703c0e500b653ca82273b7bfad8045d85a4709290819083906002610100600183161502600019019091160480156110495780601f10611027576101008083540402835291820191611049565b820191906000526020600020905b815481529060010190602001808311611035575b505091505060405180910390206000191614158015611111575060408051336000908152603160205291909120600190810180547fc5d2460186f7233c927e7db2dcc703c0e500b653ca82273b7bfad8045d85a4709391928291849160026101009183161591909102600019019091160480156110fd5780601f106110db5761010080835404028352918201916110fd565b820191906000526020600020905b8154815290600101906020018083116110e9575b505091505060405180910390206000191614155b151561111c57600080fd5b611125336136b4565b50565b600054606090600160a060020a0316331461114257600080fd5b6002805460408051602060018416156101000260001901909316849004601f810184900484028201840190925281815292918301828280156111c55780601f1061119a576101008083540402835291602001916111c5565b820191906000526020600020905b8154815290600101906020018083116111a857829003601f168201915b505085519394506111e193600293506020870192509050615ad9565b50600080516020615c77833981519152818360405180806020018060200180602001848103845260148152602001807f506172616d65746572206e206d6f646966696564000000000000000000000000815250602001848103835286818151815260200191508051906020019080838360005b8381101561126c578181015183820152602001611254565b50505050905090810190601f1680156112995780820380516001836020036101000a031916815260200191505b50848103825285518152855160209182019187019080838360005b838110156112cc5781810151838201526020016112b4565b50505050905090810190601f1680156112f95780820380516001836020036101000a031916815260200191505b509550505050505060405180910390a15050565b60376020526000908152604090205481565b603660205260009081526040902054600160a060020a031681565b611342615b57565b6000805481908190600160a060020a0316331461135e57600080fd5b5060005b60055481101561148c576040805160e0810182526000838152603560209081528382205483528482526036815283822054600160a060020a03168184015284825260378082528483205494840185905291859052526014805460139360608401929181106113cc57fe5b90600052602060002090600502016002015481526020016015846007811015156113f257fe5b600490810291909101600290810154835260208084018790526010546040948501528554600180820188556000978852968290208651600790920201908155908501518187018054600160a060020a031916600160a060020a0390921691909117905592840151908301556060830151600383015560808301519082015560a0820151600582015560c09091015160069091015501611362565b506038545b60385460055401811015611708578092506013818154811015156114b157fe5b60009182526020918290206040805160e081018252600790930290910180548352600180820154600160a060020a0316948401949094526002810154918301919091526003810154606083015260048101546080830152600581015460a08301526006015460c08201529450810191505b603854600554018210156115e057601380548390811061153e57fe5b6000918252602090912060079091020154845111156115d557601380548390811061156557fe5b60009182526020918290206040805160e0810182526007909302909101805483526001810154600160a060020a0316938301939093526002830154908201526003820154606082015260048201546080820152600582015460a082015260069091015460c0820152935090915081905b600190910190611522565b8281146117005760138054829081106115f557fe5b906000526020600020906007020160138481548110151561161257fe5b6000918252602090912082546007909202019081556001808301549082018054600160a060020a031916600160a060020a0390921691909117905560028083015490820155600380830154908201556004808301549082015560058083015490820155600691820154910155601380548591908390811061168f57fe5b600091825260209182902083516007929092020190815590820151600182018054600160a060020a031916600160a060020a0390921691909117905560408201516002820155606082015160038201556080820151600482015560a0820151600582015560c0909101516006909101555b600101611491565b50505050565b600754339034101561171f57600080fd5b600160a060020a0381166000908152603160205260408082206003908101805462ff00001916620100001790553380845291909220909101805461ffff1916905560125460ff161561177057600080fd5b61177933612ee4565b5050565b600061178a600954613d20565b604080516020808252808201527f41736b696e6720666f722061206e6577206d7520706172616d657465722e2e2e8183015290517f096835e36c2ccea88ff2b3aca87dfc938b977e52ea656873ff76a8dba50d4d349181900360600190a161185f6040805190810160405280600c81526020017f576f6c6672616d416c70686100000000000000000000000000000000000000008152506040805190810160405280600f81526020017f342072616e646f6d206e756d6265720000000000000000000000000000000000815250600854613f08565b60009081526032602052604090208054600160a060020a031916600160a060020a03939093169290921790915550565b61189761430d565b600160a060020a031633146118ab57600080fd5b600082815260326020526040902054600160a060020a0316158015906118f95750600082815260326020908152604080832054600160a060020a03168352603190915290206003015460ff16155b15611a9657600082815260326020908152604080832054600160a060020a0316835260318252909120825161193092840190615ad9565b507f6a28dd23c76ba6cc6f4f148a0e2e0e147d8b876cb74ec1e5e2b8e9a8119eb702816040518080602001828103825283818151815260200191508051906020019080838360005b83811015611990578181015183820152602001611978565b50505050905090810190601f1680156119bd5780820380516001836020036101000a031916815260200191505b509250505060405180910390a160008281526032602090815260408083208054600160a060020a03908116855260319093528184206003908101805460ff191660019081179091559154909316845292200154610100900460ff161515148015611a6b5750600082815260326020908152604080832054600160a060020a03168352603190915290206003015460ff6201000090910416151560011480611a6b575060125460ff1615156001145b15611a9157600082815260326020526040902054611a9190600160a060020a03166136b4565b611779565b600082815260336020526040902054600160a060020a031615801590611ae95750600082815260336020908152604080832054600160a060020a031683526031909152902060030154610100900460ff16155b15611c8457600082815260336020908152604080832054600160a060020a03168352603182529091208251611b2692600190920191840190615ad9565b507f716a554dec57e3a217a923b974660c0c8ebee07b09b1ac7d4a3a8f328d10cc89816040518080602001828103825283818151815260200191508051906020019080838360005b83811015611b86578181015183820152602001611b6e565b50505050905090810190601f168015611bb35780820380516001836020036101000a031916815260200191505b509250505060405180910390a160008281526033602090815260408083208054600160a060020a03908116855260319093528184206003908101805461ff00191661010017905590549092168352909120015460ff1615156001148015611c5e5750600082815260336020908152604080832054600160a060020a03168352603190915290206003015460ff6201000090910416151560011480611c5e575060125460ff1615156001145b15611a9157600082815260336020526040902054611a9190600160a060020a03166136b4565b600082815260346020526040902054600160a060020a031615801590611cee5750600082815260346020908152604080832054600160a060020a03168352603190915290206003015460ff6201000090910416151560011480611cee575060125460ff1615156001145b1561177957611cfc81614502565b600083815260346020908152604080832054600160a060020a031683526031825280832060020193909355825181815284518183015284517f0efef3a277391dda0d5747fd15566e85fcd8a4fb588d9853173841e45cc5ae8a9486949293849391840192908601918190849084905b83811015611d83578181015183820152602001611d6b565b50505050905090810190601f168015611db05780820380516001836020036101000a031916815260200191505b509250505060405180910390a1600082815260346020908152604080832054600160a060020a0316835260319091529020600301805462ff00001916905560125460ff16151560011415611e1f57600082815260346020526040902054611a9190600160a060020a0316614515565b60008281526034602052604090205461177990600160a060020a0316614776565b60125460ff1681565b6000806000806015600160055403600781101515611e6357fe5b6004020160020154601486815481101515611e7a57fe5b9060005260206000209060050201600201541115611ee957600554600019019350611ee260158560078110611eab57fe5b6004020160020154601487815481101515611ec257fe5b9060005260206000209060050201600201546149b190919063ffffffff16565b9250611fea565b6017546014805487908110611efa57fe5b9060005260206000209060050201600201541015611f5f5760009350611ee2601486815481101515611f2857fe5b906000526020600020906005020160020154601586600781101515611f4957fe5b60040201600201546149b190919063ffffffff16565b60158460078110611f6c57fe5b6004020160020154601486815481101515611f8357fe5b9060005260206000209060050201600201541115611fa657600190930192611f5f565b611fba6015600019860160078110611eab57fe5b9150611fce601486815481101515611f2857fe5b905081811115611fe657600184039350819250611fea565b8092505b600084815260366020526040902054600160a060020a0316158061201b575060008481526035602052604090205483105b156120b657601480548690811061202e57fe5b60009182526020808320600360059093020191909101548683526036825260408084208054600160a060020a031916600160a060020a0390931692909217909155603582528083208690556037825291829020879055815187815291517fed4436a39d9a77d0c6c3be4f0e28f018750eb25c5c2d30ded16ef07ced4c00719281900390910190a15b5050505050565b6002805460408051602060018416156101000260001901909316849004601f810184900484028201840190925281815292918301828280156121405780601f1061211557610100808354040283529160200191612140565b820191906000526020600020905b81548152906001019060200180831161212357829003601f168201915b505050505081565b505050565b601380548290811061215b57fe5b60009182526020909120600790910201805460018201546002830154600384015460048501546005860154600690960154949650600160a060020a039093169491939092919087565b600054600160a060020a031633146121bb57600080fd5b6012805460ff19811660ff90911615179055565b600054606090600160a060020a031633146121e957600080fd5b6004805460408051602060026001851615610100026000190190941693909304601f8101849004840282018401909252818152929183018282801561226f5780601f106122445761010080835404028352916020019161226f565b820191906000526020600020905b81548152906001019060200180831161225257829003601f168201915b5050855193945061228b93600493506020870192509050615ad9565b50600080516020615c77833981519152818360405180806020018060200180602001848103845260148152602001807f506172616d65746572206a206d6f646966696564000000000000000000000000815250602001848103835286818151815260200191508051906020019080838360008381101561126c578181015183820152602001611254565b33600081815260396020526040808220805490839055905190929183156108fc02918491818181858888f19350505050158015611779573d6000803e3d6000fd5b6015816007811061236357fe5b60040201805460408051602060026001851615610100026000190190941693909304601f810184900484028201840190925281815292935083918301828280156123ee5780601f106123c3576101008083540402835291602001916123ee565b820191906000526020600020905b8154815290600101906020018083116123d157829003601f168201915b505050505090806001018054600181600116156101000203166002900480601f01602080910402602001604051908101604052809291908181526020018280546001816001161561010002031660029004801561248c5780601f106124615761010080835404028352916020019161248c565b820191906000526020600020905b81548152906001019060200180831161246f57829003601f168201915b5050505050908060020154908060030154905084565b600054600160a060020a031633146124b957600080fd5b600554601054026038556124cb6121a4565b6124d361133a565b6124db6137e5565b565b60008054600160a060020a031633146124f557600080fd5b50600a8054600160a060020a03838116600160a060020a0319831681179093556040805191909216602082018190528183019390935260608082526019908201527f456e74657270726973652077616c6c6574206368616e67656400000000000000608082015290517f223db053947bb148de510715d3c7d8ccd72bdd376752fd735ee7bd0bd0ece5bf9181900360a00190a15050565b60316020908152600091825260409182902080548351601f600260001961010060018616150201909316929092049182018490048402810184019094528084529092918391908301828280156126235780601f106125f857610100808354040283529160200191612623565b820191906000526020600020905b81548152906001019060200180831161260657829003601f168201915b505050505090806001018054600181600116156101000203166002900480601f0160208091040260200160405190810160405280929190818152602001828054600181600116156101000203166002900480156126c15780601f10612696576101008083540402835291602001916126c1565b820191906000526020600020905b8154815290600101906020018083116126a457829003601f168201915b50505050600283015460039093015491929160ff808216925061010082048116916201000090041686565b60018054604080516020600284861615610100026000190190941693909304601f810184900484028201840190925281815292918301828280156121405780601f1061211557610100808354040283529160200191612140565b601480548290811061275457fe5b60009182526020918290206005919091020180546040805160026001841615610100026000190190931692909204601f8101859004850283018501909152808252919350918391908301828280156127ed5780601f106127c2576101008083540402835291602001916127ed565b820191906000526020600020905b8154815290600101906020018083116127d057829003601f168201915b505050505090806001018054600181600116156101000203166002900480601f01602080910402602001604051908101604052809291908181526020018280546001816001161561010002031660029004801561288b5780601f106128605761010080835404028352916020019161288b565b820191906000526020600020905b81548152906001019060200180831161286e57829003601f168201915b505050506002830154600384015460049094015492939092600160a060020a03909116915085565b60085481565b60055481565b6128c7615aba565b6000805b600554811015610f3857600081815260366020526040902054600160a060020a0316156129375760008181526037602052604090205460148054909190811061291057fe5b906000526020600020906005020160020154828260078110151561293057fe5b0155612948565b600082826007811061294557fe5b01555b6001016128cb565b600054600160a060020a0316331461296757600080fd5b6040805160808101825285815260208101859052908101839052606081018290526015866007811061299557fe5b6004020160008201518160000190805190602001906129b5929190615ad9565b5060208281015180516129ce9260018501920190615ad9565b50604082015160028201556060909101516003909101555050505050565b600054600160a060020a03163314612a0357600080fd5b60008054604051600160a060020a03909116917ff8df31144d9c2f0f6b59d69b8b98abd5459d07f2742c4df920b25aae33c6482091a260008054600160a060020a0319169055565b6006543390341015612a5c57600080fd5b336000818152603160205260409020600301805461ffff1916905560125460ff1615612a8757600080fd5b612a903361177d565b61177933613c0c565b600a54600160a060020a031681565b612ab0615b9e565b6000805481908190600160a060020a03163314612acc57600080fd5b5060005b6005548110156117085791508160158160078110612aea57fe5b6040805160049290920292909201805460a06020601f6002600019610100600187161502019094169390930492830181900402840181019094526080830181815292939192849290918491840182828015612b865780601f10612b5b57610100808354040283529160200191612b86565b820191906000526020600020905b815481529060010190602001808311612b6957829003601f168201915b50505050508152602001600182018054600181600116156101000203166002900480601f016020809104026020016040519081016040528092919081815260200182805460018160011615610100020316600290048015612c285780601f10612bfd57610100808354040283529160200191612c28565b820191906000526020600020905b815481529060010190602001808311612c0b57829003601f168201915b505050505081526020016002820154815260200160038201548152505093508060010191505b600554821015612df15760158260078110612c6557fe5b600402016002015484604001511115612de65760158260078110612c8557fe5b6040805160049290920292909201805460a06020601f6002600019610100600187161502019094169390930492830181900402840181019094526080830181815292939192849290918491840182828015612d215780601f10612cf657610100808354040283529160200191612d21565b820191906000526020600020905b815481529060010190602001808311612d0457829003601f168201915b50505050508152602001600182018054600181600116156101000203166002900480601f016020809104026020016040519081016040528092919081815260200182805460018160011615610100020316600290048015612dc35780601f10612d9857610100808354040283529160200191612dc3565b820191906000526020600020905b815481529060010190602001808311612da657829003601f168201915b505050505081526020016002820154815260200160038201548152505093508192505b600190910190612c4e565b828114612edc5760158160078110612e0557fe5b6004020160158460078110612e1657fe5b6004020160008201816000019080546001816001161561010002031660029004612e41929190615bc7565b5060018201816001019080546001816001161561010002031660029004612e69929190615bc7565b50600282810154908201556003918201549101558360158260078110612e8b57fe5b600402016000820151816000019080519060200190612eab929190615ad9565b506020828101518051612ec49260018501920190615ad9565b50604082015160028201556060909101516003909101555b600101612ad0565b612eed8161177d565b61112581613c0c565b60008054600160a060020a03163314612f0e57600080fd5b50600880549082905560408051602081018390528082018490526060808252601a908201527f4f7261636c697a6520676173206c696d6974206368616e67656400000000000060808201529051600080516020615c578339815191529181900360a00190a15050565b600054600160a060020a03163314612f8e57600080fd5b600054600160a060020a0316ff5b600054606090600160a060020a03163314612fb657600080fd5b60018054604080516020600284861615610100026000190190941693909304601f8101849004840282018401909252818152929183018282801561303b5780601f106130105761010080835404028352916020019161303b565b820191906000526020600020905b81548152906001019060200180831161301e57829003601f168201915b5050855193945061305793600193506020870192509050615ad9565b50600080516020615c77833981519152818360405180806020018060200180602001848103845260148152602001807f506172616d657465722062206d6f646966696564000000000000000000000000815250602001848103835286818151815260200191508051906020019080838360008381101561126c578181015183820152602001611254565b60008054600160a060020a031633146130f957600080fd5b50600680549082905560408051602081018390528082018490526060808252601d908201527f47656e6572617465207469636b6574207072696365206368616e67656400000060808201529051600080516020615c578339815191529181900360a00190a15050565b600054600160a060020a031681565b600054600160a060020a0316331461318857600080fd5b60055460115414156131ae5761319c612aa8565b60006011556131a96121a4565b6124db565b306000818152603160205260409020600301805461ffff191690556124db90612ee4565b60095481565b6003805460408051602060026001851615610100026000190190941693909304601f810184900484028201840190925281815292918301828280156121405780601f1061211557610100808354040283529160200191612140565b600054606090600160a060020a0316331461324d57600080fd5b6003805460408051602060026001851615610100026000190190941693909304601f810184900484028201840190925281815292918301828280156132d35780601f106132a8576101008083540402835291602001916132d3565b820191906000526020600020905b8154815290600101906020018083116132b657829003601f168201915b505085519394506132ef93600393506020870192509050615ad9565b50600080516020615c77833981519152818360405180806020018060200180602001848103845260148152602001807f506172616d657465722070206d6f646966696564000000000000000000000000815250602001848103835286818151815260200191508051906020019080838360008381101561126c578181015183820152602001611254565b6004805460408051602060026001851615610100026000190190941693909304601f810184900484028201840190925281815292918301828280156121405780601f1061211557610100808354040283529160200191612140565b60008054600160a060020a031633146133ec57600080fd5b5030315b90565b600080548190600160a060020a0316331461340d57600080fd5b6040805160a0810182528881526020808201899052918101879052600160a060020a0386166060820152601054608082015260148054600181810180845560009390935283518051919593949360059093027fce6d7b5282bd9a3661ae061feed1dbda4e52ab073b1f9285be6e155d9c38d4ec019261349192849290910190615ad9565b5060208281015180516134aa9260018501920190615ad9565b50604082015160028201556060820151600382018054600160a060020a031916600160a060020a0390921691909117905560809091015160049091015503979650505050505050565b60385481565b60008054600160a060020a0316331461351157600080fd5b506007805490829055604080516020810183905280820184905260608082526019908201527f53656c6c207469636b6574207072696365206368616e6765640000000000000060808201529051600080516020615c578339815191529181900360a00190a15050565b60115481565b60008054600160a060020a0316331461359857600080fd5b506005805490829055604080516020810183905280820184905260608082526019908201527f53656c6c207469636b6574207072696365206368616e6765640000000000000060808201529051600080516020615c578339815191529181900360a00190a15050565b60008054600160a060020a0316331461361957600080fd5b506009805490829055604080516020810183905280820184905260608082526021908201527f4f7261636c697a6520637573746f6d20676173207072696365206368616e676560808201527f640000000000000000000000000000000000000000000000000000000000000060a08201529051600080516020615c578339815191529181900360c00190a15050565b60065481565b60105481565b60006136c1600954613d20565b604080516020808252601a908201527f41736b696e6720666f722061206e6577207469636b65742e2e2e0000000000008183015290517f096835e36c2ccea88ff2b3aca87dfc938b977e52ea656873ff76a8dba50d4d349181900360600190a161376b6040805190810160405280600c81526020017f576f6c6672616d416c7068610000000000000000000000000000000000000000815250613763846149c3565b600854613f08565b60009081526034602052604090208054600160a060020a031916600160a060020a03939093169290921790915550565b60075481565b60356020526000908152604090205481565b600054600160a060020a031633146137ca57600080fd5b611125816152f2565b60396020526000908152604090205481565b600080548190819081908190600160a060020a0316331461380557600080fd5b6138173031600763ffffffff61536216565b945061382a85600a63ffffffff61538b16565b945061383d85600663ffffffff61536216565b935061385085600363ffffffff61536216565b925061386385600163ffffffff61536216565b915061387684600a63ffffffff61538b16565b935061388983600a63ffffffff61538b16565b925061389c82600a63ffffffff61538b16565b915060385490505b6038546005540181101561393b576013805460009190839081106138c457fe5b6000918252602090912060016007909202010154600160a060020a0316146139335783603960006013848154811015156138fa57fe5b6000918252602080832060016007909302019190910154600160a060020a0316835282019290925260400190208054909101905561393b565b6001016138a4565b6001015b603854600554018110156139d65760138054600091908390811061395f57fe5b6000918252602090912060016007909202010154600160a060020a0316146139ce57826039600060138481548110151561399557fe5b6000918252602080832060016007909302019190910154600160a060020a031683528201929092526040019020805490910190556139d6565b60010161393f565b6001015b60385460055401811015613a71576013805460009190839081106139fa57fe5b6000918252602090912060016007909202010154600160a060020a031614613a69578160396000601384815481101515613a3057fe5b6000918252602080832060016007909302019190910154600160a060020a03168352820192909252604001902080549091019055613a71565b6001016139da565b601080546001019055600a54604051600160a060020a0390911690303180156108fc02916000818181858888f19350505050158015613ab4573d6000803e3d6000fd5b50600090505b6005548110156120b65760008181526036602090815260408083208054600160a060020a03191690556035825280832083905560378252808320929092558151808301909252600182527f30000000000000000000000000000000000000000000000000000000000000009082015260158260078110613b3657fe5b600402016000019080519060200190613b50929190615ad9565b5060408051808201909152600181527f3000000000000000000000000000000000000000000000000000000000000000602082015260158260078110613b9257fe5b600402016001019080519060200190613bac929190615ad9565b50600060158260078110613bbc57fe5b6004020160020181905550601054601582600781101515613bd957fe5b6004020160030155600101613aba565b600054600160a060020a03163314613c0057600080fd5b80600160a060020a0316ff5b6000613c19600954613d20565b604080516020808252601f908201527f41736b696e6720666f722061206e6577206920706172616d657465722e2e2e008183015290517f096835e36c2ccea88ff2b3aca87dfc938b977e52ea656873ff76a8dba50d4d349181900360600190a1613cf06040805190810160405280600c81526020017f576f6c6672616d416c70686100000000000000000000000000000000000000008152506040805190810160405280600f81526020017f342072616e646f6d206e756d6265720000000000000000000000000000000000815250600854613f08565b60009081526033602052604090208054600160a060020a031916600160a060020a03939093169290921790915550565b600b54600160a060020a03161580613d4a5750600b54613d4890600160a060020a03166153a0565b155b15613d5b57613d5960006153a4565b505b600b60009054906101000a9004600160a060020a0316600160a060020a03166338cc48316040518163ffffffff1660e060020a028152600401602060405180830381600087803b158015613dae57600080fd5b505af1158015613dc2573d6000803e3d6000fd5b505050506040513d6020811015613dd857600080fd5b5051600c54600160a060020a03908116911614613e8e57600b60009054906101000a9004600160a060020a0316600160a060020a03166338cc48316040518163ffffffff1660e060020a028152600401602060405180830381600087803b158015613e4257600080fd5b505af1158015613e56573d6000803e3d6000fd5b505050506040513d6020811015613e6c57600080fd5b5051600c8054600160a060020a031916600160a060020a039092169190911790555b600c54604080517fca6ad1e4000000000000000000000000000000000000000000000000000000008152600481018490529051600160a060020a039092169163ca6ad1e49160248082019260009290919082900301818387803b158015613ef457600080fd5b505af11580156120b6573d6000803e3d6000fd5b600b546000908190600160a060020a03161580613f375750600b54613f3590600160a060020a03166153a0565b155b15613f4857613f4660006153a4565b505b600b60009054906101000a9004600160a060020a0316600160a060020a03166338cc48316040518163ffffffff1660e060020a028152600401602060405180830381600087803b158015613f9b57600080fd5b505af1158015613faf573d6000803e3d6000fd5b505050506040513d6020811015613fc557600080fd5b5051600c54600160a060020a0390811691161461407b57600b60009054906101000a9004600160a060020a0316600160a060020a03166338cc48316040518163ffffffff1660e060020a028152600401602060405180830381600087803b15801561402f57600080fd5b505af1158015614043573d6000803e3d6000fd5b505050506040513d602081101561405957600080fd5b5051600c8054600160a060020a031916600160a060020a039092169190911790555b600c54604080517f2ef3accc0000000000000000000000000000000000000000000000000000000081526024810186905260048101918252875160448201528751600160a060020a0390931692632ef3accc9289928892829160640190602086019080838360005b838110156140fb5781810151838201526020016140e3565b50505050905090810190601f1680156141285780820380516001836020036101000a031916815260200191505b509350505050602060405180830381600087803b15801561414857600080fd5b505af115801561415c573d6000803e3d6000fd5b505050506040513d602081101561417257600080fd5b50519050670de0b6b3a76400003a8402018111156141935760009150614305565b600c546040517fc51be90f00000000000000000000000000000000000000000000000000000000815260006004820181815260648301879052608060248401908152895160848501528951600160a060020a039095169463c51be90f948794938c938c938c93604481019160a49091019060208801908083838c5b8381101561422657818101518382015260200161420e565b50505050905090810190601f1680156142535780820380516001836020036101000a031916815260200191505b50838103825285518152855160209182019187019080838360005b8381101561428657818101518382015260200161426e565b50505050905090810190601f1680156142b35780820380516001836020036101000a031916815260200191505b5096505050505050506020604051808303818588803b1580156142d557600080fd5b505af11580156142e9573d6000803e3d6000fd5b50505050506040513d602081101561430057600080fd5b505191505b509392505050565b600b54600090600160a060020a0316158061433a5750600b5461433890600160a060020a03166153a0565b155b1561434b5761434960006153a4565b505b600b60009054906101000a9004600160a060020a0316600160a060020a03166338cc48316040518163ffffffff1660e060020a028152600401602060405180830381600087803b15801561439e57600080fd5b505af11580156143b2573d6000803e3d6000fd5b505050506040513d60208110156143c857600080fd5b5051600c54600160a060020a0390811691161461447e57600b60009054906101000a9004600160a060020a0316600160a060020a03166338cc48316040518163ffffffff1660e060020a028152600401602060405180830381600087803b15801561443257600080fd5b505af1158015614446573d6000803e3d6000fd5b505050506040513d602081101561445c57600080fd5b5051600c8054600160a060020a031916600160a060020a039092169190911790555b600c60009054906101000a9004600160a060020a0316600160a060020a031663c281d19e6040518163ffffffff1660e060020a028152600401602060405180830381600087803b1580156144d157600080fd5b505af11580156144e5573d6000803e3d6000fd5b505050506040513d60208110156144fb57600080fd5b5051905090565b600061450f8260006153ae565b92915050565b60408051600160a060020a03831660009081526031602090815290839020805460026001821615610100026000190190911604601f8101839004909202830160a0908101909452608083018281529293849392908401828280156145ba5780601f1061458f576101008083540402835291602001916145ba565b820191906000526020600020905b81548152906001019060200180831161459d57829003601f168201915b505050505081526020016031600084600160a060020a0316600160a060020a031681526020019081526020016000206001018054600181600116156101000203166002900480601f0160208091040260200160405190810160405280929190818152602001828054600181600116156101000203166002900480156146805780601f1061465557610100808354040283529160200191614680565b820191906000526020600020905b81548152906001019060200180831161466357829003601f168201915b5050509183525050600160a060020a0383166000908152603160209081526040918290206002015490830152601054910152601154601590600781106146c257fe5b6004020160008201518160000190805190602001906146e2929190615ad9565b5060208281015180516146fb9260018501920190615ad9565b50604082810151600280840191909155606090930151600390920191909155601180546001019055600160a060020a0383166000908152603160209081529082902090920154815190815290517fec2692b386f7e992f219e405f018eeaf8da1b95736760596812e564f2e709cfd929181900390910190a150565b60408051600160a060020a03831660009081526031602090815283822080546002600180831615610100026000190190921604601f8101849004909302850160c090810190965260a08501838152939590946014949093849391928401828280156148225780601f106147f757610100808354040283529160200191614822565b820191906000526020600020905b81548152906001019060200180831161480557829003601f168201915b505050505081526020016031600087600160a060020a0316600160a060020a031681526020019081526020016000206001018054600181600116156101000203166002900480601f0160208091040260200160405190810160405280929190818152602001828054600181600116156101000203166002900480156148e85780601f106148bd576101008083540402835291602001916148e8565b820191906000526020600020905b8154815290600101906020018083116148cb57829003601f168201915b5050509183525050600160a060020a03861660008181526031602090815260408083206002015482860152840192909252601054606090930192909252835460018101808655948352918190208351805160059094029091019261494f9284920190615ad9565b5060208281015180516149689260018501920190615ad9565b50604082015160028201556060820151600382018054600160a060020a031916600160a060020a0390921691909117905560809091015160049091015503905061177981611e49565b6000828211156149bd57fe5b50900390565b604080518082018252600c81527f286d6f642828312f2831305e000000000000000000000000000000000000000060208083019190915260028054845160018216156101000260001901909116829004601f81018490048402820184019095528481526060948594614b9a9490939190830182828015614a845780601f10614a5957610100808354040283529160200191614a84565b820191906000526020600020905b815481529060010190602001808311614a6757829003601f168201915b505060408051808201825260018082527f2d00000000000000000000000000000000000000000000000000000000000000602080840191909152600160a060020a038d1660009081526031825284902080548551600294821615610100026000190190911693909304601f8101839004830284018301909552848352929650909450909250830182828015614b5a5780601f10614b2f57610100808354040283529160200191614b5a565b820191906000526020600020905b815481529060010190602001808311614b3d57829003601f168201915b50505050506040805190810160405280600681526020017f29292a31305e0000000000000000000000000000000000000000000000000000815250615520565b60038054604080516020601f60026000196101006001881615020190951694909404938401819004810282018101909252828152939450614d2e93859390929091830182828015614c2c5780601f10614c0157610100808354040283529160200191614c2c565b820191906000526020600020905b815481529060010190602001808311614c0f57829003601f168201915b5050604080518082018252600581527f2c31305e2800000000000000000000000000000000000000000000000000000060208083019190915260048054845160026001831615610100026000190190921691909104601f8101849004840282018401909552848152929650919450909250830182828015614cee5780601f10614cc357610100808354040283529160200191614cee565b820191906000526020600020905b815481529060010190602001808311614cd157829003601f168201915b50505050506040805190810160405280600181526020017f2b00000000000000000000000000000000000000000000000000000000000000815250615520565b9050614eef816031600086600160a060020a0316600160a060020a031681526020019081526020016000206001018054600181600116156101000203166002900480601f016020809104026020016040519081016040528092919081815260200182805460018160011615610100020316600290048015614df05780601f10614dc557610100808354040283529160200191614df0565b820191906000526020600020905b815481529060010190602001808311614dd357829003601f168201915b5050604080518082018252600e81527f29292d6d6f642828312f2831305e00000000000000000000000000000000000060208083019190915260028054845160018216156101000260001901909116829004601f8101849004840282018401909552848152929650919450909250830182828015614eaf5780601f10614e8457610100808354040283529160200191614eaf565b820191906000526020600020905b815481529060010190602001808311614e9257829003601f168201915b50505050506040805190810160405280600181526020017f2d00000000000000000000000000000000000000000000000000000000000000815250615520565b600160a060020a03841660009081526031602090815260409182902080548351601f6002600019610100600186161502019093169290920491820184900484028101840190945280845293945061509693859392830182828015614f945780601f10614f6957610100808354040283529160200191614f94565b820191906000526020600020905b815481529060010190602001808311614f7757829003601f168201915b5050604080518082018252600681527f29292a31305e000000000000000000000000000000000000000000000000000060208083019190915260038054845160026001831615610100026000190190921691909104601f81018490048402820184019095528481529296509194509092508301828280156150565780601f1061502b57610100808354040283529160200191615056565b820191906000526020600020905b81548152906001019060200180831161503957829003601f168201915b50505050506040805190810160405280600481526020017f2c31305e00000000000000000000000000000000000000000000000000000000815250615520565b60408051808201825260018082527f2800000000000000000000000000000000000000000000000000000000000000602080840191909152600160a060020a038816600090815260318252849020820180548551600294821615610100026000190190911693909304601f8101839004830284018301909552848352949550615251948694909183018282801561516e5780601f106151435761010080835404028352916020019161516e565b820191906000526020600020905b81548152906001019060200180831161515157829003601f168201915b5050604080518082018252600781527f2929292f31305e00000000000000000000000000000000000000000000000000602080830191909152600160a060020a038d16600090815260318252839020600190810180548551600293821615610100026000190190911692909204601f810184900484028301840190955284825292965094509092508301828280156152475780601f1061521c57610100808354040283529160200191615247565b820191906000526020600020905b81548152906001019060200180831161522a57829003601f168201915b5050505050615520565b90507f261af219212047633bb60c8d0cc7e33d217c38edf6fa7e53acb97a3f94180de5816040518080602001828103825283818151815260200191508051906020019080838360005b838110156152b257818101518382015260200161529a565b50505050905090810190601f1680156152df5780820380516001836020036101000a031916815260200191505b509250505060405180910390a192915050565b600160a060020a038116151561530757600080fd5b60008054604051600160a060020a03808516939216917f8be0079c531659141344cd1fd0a4f28419497f9722a3daafe3b4186f6b6457e091a360008054600160a060020a031916600160a060020a0392909216919091179055565b60008215156153735750600061450f565b5081810281838281151561538357fe5b041461450f57fe5b6000818381151561539857fe5b049392505050565b3b90565b600061450f615781565b6000828180805b83518110156155035783517f3000000000000000000000000000000000000000000000000000000000000000908590839081106153ee57fe5b90602001015160f860020a900460f860020a02600160f860020a03191610158015615464575083517f39000000000000000000000000000000000000000000000000000000000000009085908390811061544457fe5b90602001015160f860020a900460f860020a02600160f860020a03191611155b156154bd5781156154835785151561547b57615503565b600019909501945b600a830292506030848281518110151561549957fe5b90602001015160f860020a900460f860020a0260f860020a900403830192506154fb565b83818151811015156154cb57fe5b90602001015160f860020a900460f860020a02600160f860020a031916602e60f860020a0214156154fb57600191505b6001016153b5565b60008611156155155785600a0a830292505b509095945050505050565b6060806060806060806060806000808e98508d97508c96508b95508a94508451865188518a518c51010101016040519080825280601f01601f191660200182016040528015615579578160200160208202803883390190505b50935083925060009150600090505b88518110156155e657888181518110151561559f57fe5b90602001015160f860020a900460f860020a0283838060010194508151811015156155c657fe5b906020010190600160f860020a031916908160001a905350600101615588565b5060005b875181101561564857878181518110151561560157fe5b90602001015160f860020a900460f860020a02838380600101945081518110151561562857fe5b906020010190600160f860020a031916908160001a9053506001016155ea565b5060005b86518110156156aa57868181518110151561566357fe5b90602001015160f860020a900460f860020a02838380600101945081518110151561568a57fe5b906020010190600160f860020a031916908160001a90535060010161564c565b5060005b855181101561570c5785818151811015156156c557fe5b90602001015160f860020a900460f860020a0283838060010194508151811015156156ec57fe5b906020010190600160f860020a031916908160001a9053506001016156ae565b5060005b845181101561576e57848181518110151561572757fe5b90602001015160f860020a900460f860020a02838380600101945081518110151561574e57fe5b906020010190600160f860020a031916908160001a905350600101615710565b50909d9c50505050505050505050505050565b6000806157a1731d3b2638a7cc9f2cb3d298a3da7a90b67e5506ed6153a0565b111561581157600b8054600160a060020a031916731d3b2638a7cc9f2cb3d298a3da7a90b67e5506ed178155604080518082019091529081527f6574685f6d61696e6e6574000000000000000000000000000000000000000000602082015261580990615aa7565b5060016133f0565b600061583073c03a2615d5efaf5f49f60b7bb6583eaec212fdf16153a0565b111561589957600b8054600160a060020a03191673c03a2615d5efaf5f49f60b7bb6583eaec212fdf117905560408051808201909152600c81527f6574685f726f707374656e330000000000000000000000000000000000000000602082015261580990615aa7565b60006158b873b7a07bcf2ba2f2703b24c0691b5278999c59ac7e6153a0565b111561592157600b8054600160a060020a03191673b7a07bcf2ba2f2703b24c0691b5278999c59ac7e17905560408051808201909152600981527f6574685f6b6f76616e0000000000000000000000000000000000000000000000602082015261580990615aa7565b600061594073146500cfd35b22e4a392fe0adc06de1a1368ed486153a0565b11156159a857600b8054600160a060020a03191673146500cfd35b22e4a392fe0adc06de1a1368ed48178155604080518082019091529081527f6574685f72696e6b656279000000000000000000000000000000000000000000602082015261580990615aa7565b60006159c7736f485c8bf6fc43ea212e93bbf8ce046c7f1cb4756153a0565b11156159fb5750600b8054600160a060020a031916736f485c8bf6fc43ea212e93bbf8ce046c7f1cb47517905560016133f0565b6000615a1a7320e12a1f859b3feae5fb2a0a32c18f5a65555bbf6153a0565b1115615a4e5750600b8054600160a060020a0319167320e12a1f859b3feae5fb2a0a32c18f5a65555bbf17905560016133f0565b6000615a6d7351efaf4c8b3c9afbd5ab9f4bbc82784ab6ef8faa6153a0565b1115615aa15750600b8054600160a060020a0319167351efaf4c8b3c9afbd5ab9f4bbc82784ab6ef8faa17905560016133f0565b50600090565b805161177990600d906020840190615ad9565b60e0604051908101604052806007906020820280388339509192915050565b828054600181600116156101000203166002900490600052602060002090601f016020900481019282601f10615b1a57805160ff1916838001178555615b47565b82800160010185558215615b47579182015b82811115615b47578251825591602001919060010190615b2c565b50615b53929150615c3c565b5090565b60e060405190810160405280600081526020016000600160a060020a0316815260200160008152602001600081526020016000815260200160008152602001600081525090565b608060405190810160405280606081526020016060815260200160008152602001600081525090565b828054600181600116156101000203166002900490600052602060002090601f016020900481019282601f10615c005780548555615b47565b82800160010185558215615b4757600052602060002091601f016020900482015b82811115615b47578254825591600101919060010190615c21565b6133f091905b80821115615b535760008155600101615c4256009bc068999fb1a0aac007a9b44ca6322a376441f42706bf5163600bb3d1a731647ecbd54b3baea533cf57ef049f9e04554be6a660d6dacd477488066eedf27beea165627a7a72305820e7e6a77ffc28efde30c5174838f3a4351e76f8a54af76748cb3048ed911f45eb0029",
  "source": "pragma solidity ^0.4.20;\nimport \"./Lucky7Ballot.sol\";\nimport \"./Destructible.sol\";\n\ncontract Lucky7Store is Lucky7Ballot, Destructible{\n    \n    using SafeMath for uint256;\n    \n    function Lucky7Store() payable public{\n        \n    }\n    \n    modifier userBoughtTicket(address _ticketOwner){\n        require(msg.value >= sellTicketPrice);\n        userValues[_ticketOwner].userPaidTicket = true;\n        _;\n    }\n    \n    modifier userBoughtParameters(address _ticketOwner){\n        require(msg.value >= generateTicketPrice);\n        _;\n    }\n    \n    \n    modifier setParametersToReady(address _ticketOwner){\n        userValues[_ticketOwner].muReady = false;\n        userValues[_ticketOwner].iReady = false;\n        _;\n    }\n    \n    //Circuit breakers--------\n    \n    modifier sellingIsActive {\n        require(settingLucky7Numbers==false);\n        _;\n    }\n    //------------------------\n    \n    \n    function sellRandomTicket() \n        public\n        payable \n        userBoughtTicket(msg.sender)\n        setParametersToReady(msg.sender)\n        sellingIsActive\n    {\n        _generateTicket(msg.sender);\n    }\n    \n    function generateRandomTicket() \n        public \n        payable \n        userBoughtParameters(msg.sender)\n        setParametersToReady(msg.sender)\n        sellingIsActive\n    {\n        _askForMuParameter(msg.sender);\n        _askForIParameter(msg.sender);\n    }\n    \n    function sellGeneratedTicket() \n        public \n        payable \n        userBoughtTicket(msg.sender)\n        sellingIsActive\n    {\n        require(keccak256(userValues[msg.sender].mu)!=keccak256('') && keccak256(userValues[msg.sender].i)!=keccak256(''));\n        _askForTicket(msg.sender);\n    }\n    \n    function () public payable{\n        \n    }\n}   \n                                           \n",
  "sourcePath": "/Users/matiasbarrios/Desktop/Proyecto Consensys/luckyseven/contracts/Lucky7Store.sol",
  "compiler": {
    "name": "solc",
    "version": "0.4.24+commit.e67f0147.Emscripten.clang"
  },
  "schemaVersion": "2.0.1",
  "updatedAt": "2018-08-25T01:06:24.297Z"
}