{
  "contractName": "Lucky7",
  "abi": [
    {
      "constant": false,
      "inputs": [
        {
          "name": "myid",
          "type": "bytes32"
        },
        {
          "name": "result",
          "type": "string"
        }
      ],
      "name": "__callback",
      "outputs": [],
      "payable": false,
      "stateMutability": "nonpayable",
      "type": "function"
    },
    {
      "constant": false,
      "inputs": [
        {
          "name": "myid",
          "type": "bytes32"
        },
        {
          "name": "result",
          "type": "string"
        },
        {
          "name": "proof",
          "type": "bytes"
        }
      ],
      "name": "__callback",
      "outputs": [],
      "payable": false,
      "stateMutability": "nonpayable",
      "type": "function"
    },
    {
      "constant": true,
      "inputs": [
        {
          "name": "",
          "type": "address"
        }
      ],
      "name": "userValues",
      "outputs": [
        {
          "name": "mu",
          "type": "string"
        },
        {
          "name": "i",
          "type": "string"
        },
        {
          "name": "ticketValue",
          "type": "string"
        }
      ],
      "payable": false,
      "stateMutability": "view",
      "type": "function"
    },
    {
      "constant": true,
      "inputs": [],
      "name": "contractOwner",
      "outputs": [
        {
          "name": "",
          "type": "address"
        }
      ],
      "payable": false,
      "stateMutability": "view",
      "type": "function"
    },
    {
      "inputs": [],
      "payable": true,
      "stateMutability": "payable",
      "type": "constructor"
    },
    {
      "anonymous": false,
      "inputs": [
        {
          "indexed": false,
          "name": "description",
          "type": "string"
        }
      ],
      "name": "newOraclizeQuery",
      "type": "event"
    },
    {
      "anonymous": false,
      "inputs": [
        {
          "indexed": false,
          "name": "currentParameter",
          "type": "string"
        },
        {
          "indexed": false,
          "name": "parameterValue",
          "type": "string"
        }
      ],
      "name": "newResponse",
      "type": "event"
    },
    {
      "constant": true,
      "inputs": [
        {
          "name": "_userID",
          "type": "address"
        }
      ],
      "name": "getUserMuParameterValue",
      "outputs": [
        {
          "name": "",
          "type": "string"
        }
      ],
      "payable": false,
      "stateMutability": "view",
      "type": "function"
    },
    {
      "constant": true,
      "inputs": [
        {
          "name": "_userID",
          "type": "address"
        }
      ],
      "name": "getUserIParameterValue",
      "outputs": [
        {
          "name": "",
          "type": "string"
        }
      ],
      "payable": false,
      "stateMutability": "view",
      "type": "function"
    },
    {
      "constant": true,
      "inputs": [
        {
          "name": "_userID",
          "type": "address"
        }
      ],
      "name": "getUserTicketValue",
      "outputs": [
        {
          "name": "",
          "type": "string"
        }
      ],
      "payable": false,
      "stateMutability": "view",
      "type": "function"
    },
    {
      "constant": false,
      "inputs": [],
      "name": "askForMuParameter",
      "outputs": [],
      "payable": true,
      "stateMutability": "payable",
      "type": "function"
    },
    {
      "constant": false,
      "inputs": [],
      "name": "askForIParameter",
      "outputs": [],
      "payable": true,
      "stateMutability": "payable",
      "type": "function"
    },
    {
      "constant": false,
      "inputs": [],
      "name": "askForBothParameters",
      "outputs": [],
      "payable": true,
      "stateMutability": "payable",
      "type": "function"
    },
    {
      "constant": false,
      "inputs": [],
      "name": "askForTicket",
      "outputs": [],
      "payable": true,
      "stateMutability": "payable",
      "type": "function"
    }
  ],
  "bytecode": "0x608060405233600560006101000a81548173ffffffffffffffffffffffffffffffffffffffff021916908373ffffffffffffffffffffffffffffffffffffffff160217905550610eca806100546000396000f3006080604052600436106100af576000357c0100000000000000000000000000000000000000000000000000000000900463ffffffff16806327dc297e146100b457806338bbfa501461012b5780634acfd9b8146101e85780635acf03671461037c5780635bf10ded1461038657806370b18e991461044257806388179956146104fe5780639d1e04fe146105ba5780639e2dc9b2146105c4578063b90510be146105ce578063ce606ee0146105d8575b600080fd5b3480156100c057600080fd5b506101296004803603810190808035600019169060200190929190803590602001908201803590602001908080601f016020809104026020016040519081016040528093929190818152602001838380828437820191505050505050919291929050505061062f565b005b34801561013757600080fd5b506101e66004803603810190808035600019169060200190929190803590602001908201803590602001908080601f0160208091040260200160405190810160405280939291908181526020018383808284378201915050505050509192919290803590602001908201803590602001908080601f0160208091040260200160405190810160405280939291908181526020018383808284378201915050505050509192919290505050610672565b005b3480156101f457600080fd5b50610229600480360381019080803573ffffffffffffffffffffffffffffffffffffffff169060200190929190505050610677565b60405180806020018060200180602001848103845287818151815260200191508051906020019080838360005b83811015610271578082015181840152602081019050610256565b50505050905090810190601f16801561029e5780820380516001836020036101000a031916815260200191505b50848103835286818151815260200191508051906020019080838360005b838110156102d75780820151818401526020810190506102bc565b50505050905090810190601f1680156103045780820380516001836020036101000a031916815260200191505b50848103825285818151815260200191508051906020019080838360005b8381101561033d578082015181840152602081019050610322565b50505050905090810190601f16801561036a5780820380516001836020036101000a031916815260200191505b50965050505050505060405180910390f35b610384610869565b005b34801561039257600080fd5b506103c7600480360381019080803573ffffffffffffffffffffffffffffffffffffffff16906020019092919050505061090f565b6040518080602001828103825283818151815260200191508051906020019080838360005b838110156104075780820151818401526020810190506103ec565b50505050905090810190601f1680156104345780820380516001836020036101000a031916815260200191505b509250505060405180910390f35b34801561044e57600080fd5b50610483600480360381019080803573ffffffffffffffffffffffffffffffffffffffff1690602001909291905050506109f3565b6040518080602001828103825283818151815260200191508051906020019080838360005b838110156104c35780820151818401526020810190506104a8565b50505050905090810190601f1680156104f05780820380516001836020036101000a031916815260200191505b509250505060405180910390f35b34801561050a57600080fd5b5061053f600480360381019080803573ffffffffffffffffffffffffffffffffffffffff169060200190929190505050610ad7565b6040518080602001828103825283818151815260200191508051906020019080838360005b8381101561057f578082015181840152602081019050610564565b50505050905090810190601f1680156105ac5780820380516001836020036101000a031916815260200191505b509250505060405180910390f35b6105c2610b16565b005b6105cc610ba4565b005b6105d6610c32565b005b3480156105e457600080fd5b506105ed610d4c565b604051808273ffffffffffffffffffffffffffffffffffffffff1673ffffffffffffffffffffffffffffffffffffffff16815260200191505060405180910390f35b61066e828260006040519080825280601f01601f1916602001820160405280156106685781602001602082028038833980820191505090505b50610672565b5050565b505050565b6006602052806000526040600020600091509050806000018054600181600116156101000203166002900480601f0160208091040260200160405190810160405280929190818152602001828054600181600116156101000203166002900480156107235780601f106106f857610100808354040283529160200191610723565b820191906000526020600020905b81548152906001019060200180831161070657829003601f168201915b505050505090806001018054600181600116156101000203166002900480601f0160208091040260200160405190810160405280929190818152602001828054600181600116156101000203166002900480156107c15780601f10610796576101008083540402835291602001916107c1565b820191906000526020600020905b8154815290600101906020018083116107a457829003601f168201915b505050505090806002018054600181600116156101000203166002900480601f01602080910402602001604051908101604052809291908181526020018280546001816001161561010002031660029004801561085f5780601f106108345761010080835404028352916020019161085f565b820191906000526020600020905b81548152906001019060200180831161084257829003601f168201915b5050505050905083565b600660003373ffffffffffffffffffffffffffffffffffffffff1673ffffffffffffffffffffffffffffffffffffffff168152602001908152602001600020600001600660003373ffffffffffffffffffffffffffffffffffffffff1673ffffffffffffffffffffffffffffffffffffffff168152602001908152602001600020600201908054600181600116156101000203166002900461090c929190610d72565b50565b6060600660008373ffffffffffffffffffffffffffffffffffffffff1673ffffffffffffffffffffffffffffffffffffffff1681526020019081526020016000206001018054600181600116156101000203166002900480601f0160208091040260200160405190810160405280929190818152602001828054600181600116156101000203166002900480156109e75780601f106109bc576101008083540402835291602001916109e7565b820191906000526020600020905b8154815290600101906020018083116109ca57829003601f168201915b50505050509050919050565b6060600660008373ffffffffffffffffffffffffffffffffffffffff1673ffffffffffffffffffffffffffffffffffffffff1681526020019081526020016000206002018054600181600116156101000203166002900480601f016020809104026020016040519081016040528092919081815260200182805460018160011615610100020316600290048015610acb5780601f10610aa057610100808354040283529160200191610acb565b820191906000526020600020905b815481529060010190602001808311610aae57829003601f168201915b50505050509050919050565b60606040805190810160405280600181526020017f31000000000000000000000000000000000000000000000000000000000000008152509050919050565b6040805190810160405280600181526020017f3200000000000000000000000000000000000000000000000000000000000000815250600660003373ffffffffffffffffffffffffffffffffffffffff1673ffffffffffffffffffffffffffffffffffffffff1681526020019081526020016000206001019080519060200190610ba1929190610df9565b50565b6040805190810160405280600181526020017f3800000000000000000000000000000000000000000000000000000000000000815250600660003373ffffffffffffffffffffffffffffffffffffffff1673ffffffffffffffffffffffffffffffffffffffff1681526020019081526020016000206000019080519060200190610c2f929190610df9565b50565b6040805190810160405280600181526020017f3300000000000000000000000000000000000000000000000000000000000000815250600660003373ffffffffffffffffffffffffffffffffffffffff1673ffffffffffffffffffffffffffffffffffffffff1681526020019081526020016000206000019080519060200190610cbd929190610df9565b506040805190810160405280600181526020017f3400000000000000000000000000000000000000000000000000000000000000815250600660003373ffffffffffffffffffffffffffffffffffffffff1673ffffffffffffffffffffffffffffffffffffffff1681526020019081526020016000206001019080519060200190610d49929190610df9565b50565b600560009054906101000a900473ffffffffffffffffffffffffffffffffffffffff1681565b828054600181600116156101000203166002900490600052602060002090601f016020900481019282601f10610dab5780548555610de8565b82800160010185558215610de857600052602060002091601f016020900482015b82811115610de7578254825591600101919060010190610dcc565b5b509050610df59190610e79565b5090565b828054600181600116156101000203166002900490600052602060002090601f016020900481019282601f10610e3a57805160ff1916838001178555610e68565b82800160010185558215610e68579182015b82811115610e67578251825591602001919060010190610e4c565b5b509050610e759190610e79565b5090565b610e9b91905b80821115610e97576000816000905550600101610e7f565b5090565b905600a165627a7a7230582081d41846379e314903ea2aa80b1da3aeca07c4b5de3f1ebb1bdfcbd99c19d7a20029",
  "source": "pragma solidity ^0.4.20;\nimport \"./usingOraclize.sol\";\n\ncontract Lucky7 is usingOraclize{\n    address public contractOwner;\n    string constant b = \"1\";\n    string constant n = \"8\";\n    string constant p = \"1000\"; \n    string constant j = \"20\";\n        \n    struct userParametersValue{\n        string mu;\n        string i;\n        string ticketValue;\n    }\n    \n    mapping (address => userParametersValue) public userValues;\n    mapping (bytes32 => address) muParameterID;\n    mapping (bytes32 => address) iParameterID;\n    mapping (bytes32 => address) ticketID;\n    \n    event newOraclizeQuery(string description);\n    event newResponse(string currentParameter,string parameterValue);\n    \n    constructor () public payable{\n        contractOwner = msg.sender;\n    }\n\n    function getUserMuParameterValue(address _userID) public view returns(string){\n        return b;\n        \n    }\n\n    function getUserIParameterValue(address _userID) public view returns (string){\n        return userValues[_userID].i;\n    }\n\n    function getUserTicketValue(address _userID) public view returns (string){\n        return userValues[_userID].ticketValue;\n    }\n\n    function askForMuParameter() public payable{\n        // newOraclizeQuery(\"Asking for a new mu parameter...\");\n        // bytes32 muID = oraclize_query(\"WolframAlpha\",\"3 random number\");\n        // muParameterID[muID] = _parametersOwner;\n        //muParameterID[muID] = msg.sender;\n        userValues[msg.sender].mu = \"8\";\n    }\n\n    function askForIParameter() public payable{\n        // newOraclizeQuery(\"Asking for a new i parameter...\");\n        // bytes32 iID = oraclize_query(\"WolframAlpha\",\"3 random number\");\n        // //iParameterID[iID] = _parametersOwner;\n        // iParameterID[iID] = msg.sender;\n        userValues[msg.sender].i = \"2\";\n    }\n    \n    function askForBothParameters() public payable{\n        // newOraclizeQuery(\"Asking for a i and mu parameter...\");\n        // bytes32 muID = oraclize_query(\"WolframAlpha\",\"3 random number\");\n        // //muParameterID[muID] = _parametersOwner;\n        // muParameterID[muID] = msg.sender;\n        // bytes32 iID = oraclize_query(\"WolframAlpha\",\"3 random number\");\n        // iParameterID[iID] = msg.sender;\n        userValues[msg.sender].mu = \"3\";\n        userValues[msg.sender].i = \"4\";\n    }\n    \n    function askForTicket() public payable {\n        // newOraclizeQuery(\"Asking for a new ticket...\");\n        // bytes32 userTicketID = oraclize_query(\"WolframAlpha\",setTicketQuery(_parametersOwner));\n        // ticketID[userTicketID] = _parametersOwner;\n        userValues[msg.sender].ticketValue = userValues[msg.sender].mu;\n    }\n    \n    /*function __callback(bytes32 myid, string result) {\n        if (msg.sender != oraclize_cbAddress()) throw;\n        if(muParameterID[myid]!=0 && keccak256(userValues[muParameterID[myid]].mu)==keccak256(\"\")){\n            userValues[muParameterID[myid]].mu=result;\n        }\n        else if (iParameterID[myid]!=0 && keccak256(userValues[iParameterID[myid]].i)==keccak256(\"\")){\n            userValues[iParameterID[myid]].i=result;\n        }\n        else if (ticketID[myid]!=0){\n            userValues[ticketID[myid]].ticketValue=result;\n        }\n    }\n    \n    function setTicketQuery(address _parametersOwner) returns (string){\n        string memory queryWolframA;\n        string memory queryWolframB;\n        //This line => mod((1/(10^n-mu))*10^217,10^(    \n        queryWolframA = strConcat(\"mod((1/(10^\",n,\"-\",userValues[_parametersOwner].mu,\"))*10^1000,10^(\");\n        //This line => mod((1/(10^n-mu))*10^1000,10^(j+i))\n        queryWolframB = strConcat(queryWolframA,j,\"+\",userValues[_parametersOwner].i,\"))\");\n        //This line => mod((1/(10^n-mu))*10^1000,10^(j+i))-mod((1/(10^n-mu))*10^1000,10^(i))\n        queryWolframB = strConcat(queryWolframB,\"-\",queryWolframA,userValues[_parametersOwner].i,\"))\");\n        //This line => (mod((1/(10^n-mu))*10^1000,10^(j+i))-mod((1/(10^n-mu))*10^1000,10^(i)))/10^i\n        return strConcat(\"(\",queryWolframB,\")/10^\",userValues[_parametersOwner].i);\n    }*/\n}   \n                                           \n",
  "sourcePath": "/Users/matiasbarrios/Desktop/Proyecto Consensys/luckyseven/contracts/Lucky7.sol",
  "compiler": {
    "name": "solc",
    "version": "0.4.24+commit.e67f0147.Emscripten.clang"
  },
  "schemaVersion": "2.0.1",
  "updatedAt": "2018-07-27T21:21:53.183Z"
}