{
  "contractName": "Lucky7FrontEndFunctions",
  "abi": [
    {
      "constant": false,
      "inputs": [],
      "name": "sellGeneratedTicket",
      "outputs": [],
      "payable": true,
      "stateMutability": "payable",
      "type": "function"
    },
    {
      "constant": false,
      "inputs": [
        {
          "name": "_newValue",
          "type": "uint256"
        }
      ],
      "name": "setInitialLucky7TicketPosition",
      "outputs": [],
      "payable": false,
      "stateMutability": "nonpayable",
      "type": "function"
    },
    {
      "constant": true,
      "inputs": [
        {
          "name": "",
          "type": "uint256"
        }
      ],
      "name": "lucky7TicketID",
      "outputs": [
        {
          "name": "",
          "type": "uint256"
        }
      ],
      "payable": false,
      "stateMutability": "view",
      "type": "function"
    },
    {
      "constant": false,
      "inputs": [
        {
          "name": "_newValue",
          "type": "uint256"
        }
      ],
      "name": "setIndexForLucky7Array",
      "outputs": [],
      "payable": false,
      "stateMutability": "nonpayable",
      "type": "function"
    },
    {
      "constant": true,
      "inputs": [
        {
          "name": "",
          "type": "uint256"
        }
      ],
      "name": "lucky7TicketOwner",
      "outputs": [
        {
          "name": "",
          "type": "address"
        }
      ],
      "payable": false,
      "stateMutability": "view",
      "type": "function"
    },
    {
      "constant": false,
      "inputs": [],
      "name": "_orderLucky7Tickets",
      "outputs": [],
      "payable": false,
      "stateMutability": "nonpayable",
      "type": "function"
    },
    {
      "constant": false,
      "inputs": [],
      "name": "sellRandomTicket",
      "outputs": [],
      "payable": true,
      "stateMutability": "payable",
      "type": "function"
    },
    {
      "constant": false,
      "inputs": [
        {
          "name": "_ticketOwner",
          "type": "address"
        }
      ],
      "name": "_askForMuParameter",
      "outputs": [],
      "payable": false,
      "stateMutability": "nonpayable",
      "type": "function"
    },
    {
      "constant": false,
      "inputs": [
        {
          "name": "myid",
          "type": "bytes32"
        },
        {
          "name": "result",
          "type": "string"
        }
      ],
      "name": "__callback",
      "outputs": [],
      "payable": false,
      "stateMutability": "nonpayable",
      "type": "function"
    },
    {
      "constant": true,
      "inputs": [],
      "name": "settingLucky7Numbers",
      "outputs": [
        {
          "name": "",
          "type": "bool"
        }
      ],
      "payable": false,
      "stateMutability": "view",
      "type": "function"
    },
    {
      "constant": false,
      "inputs": [
        {
          "name": "_ticketID",
          "type": "uint256"
        }
      ],
      "name": "_checkForLucky7Ticket",
      "outputs": [],
      "payable": false,
      "stateMutability": "nonpayable",
      "type": "function"
    },
    {
      "constant": true,
      "inputs": [],
      "name": "n",
      "outputs": [
        {
          "name": "",
          "type": "string"
        }
      ],
      "payable": false,
      "stateMutability": "view",
      "type": "function"
    },
    {
      "constant": false,
      "inputs": [
        {
          "name": "myid",
          "type": "bytes32"
        },
        {
          "name": "result",
          "type": "string"
        },
        {
          "name": "proof",
          "type": "bytes"
        }
      ],
      "name": "__callback",
      "outputs": [],
      "payable": false,
      "stateMutability": "nonpayable",
      "type": "function"
    },
    {
      "constant": false,
      "inputs": [],
      "name": "toggleLucky7Setting",
      "outputs": [],
      "payable": false,
      "stateMutability": "nonpayable",
      "type": "function"
    },
    {
      "constant": false,
      "inputs": [],
      "name": "withdraw",
      "outputs": [],
      "payable": false,
      "stateMutability": "nonpayable",
      "type": "function"
    },
    {
      "constant": false,
      "inputs": [],
      "name": "setNewGame",
      "outputs": [],
      "payable": false,
      "stateMutability": "nonpayable",
      "type": "function"
    },
    {
      "constant": false,
      "inputs": [
        {
          "name": "_newAddress",
          "type": "address"
        }
      ],
      "name": "modifyEnterpriseWallet",
      "outputs": [],
      "payable": false,
      "stateMutability": "nonpayable",
      "type": "function"
    },
    {
      "constant": true,
      "inputs": [
        {
          "name": "",
          "type": "address"
        }
      ],
      "name": "userValues",
      "outputs": [
        {
          "name": "mu",
          "type": "string"
        },
        {
          "name": "i",
          "type": "string"
        },
        {
          "name": "ticketValue",
          "type": "uint256"
        },
        {
          "name": "muReady",
          "type": "bool"
        },
        {
          "name": "iReady",
          "type": "bool"
        },
        {
          "name": "userPaidTicket",
          "type": "bool"
        }
      ],
      "payable": false,
      "stateMutability": "view",
      "type": "function"
    },
    {
      "constant": true,
      "inputs": [],
      "name": "b",
      "outputs": [
        {
          "name": "",
          "type": "string"
        }
      ],
      "payable": false,
      "stateMutability": "view",
      "type": "function"
    },
    {
      "constant": true,
      "inputs": [],
      "name": "oraclizeGasLimit",
      "outputs": [
        {
          "name": "",
          "type": "uint256"
        }
      ],
      "payable": false,
      "stateMutability": "view",
      "type": "function"
    },
    {
      "constant": false,
      "inputs": [
        {
          "name": "_newOAR",
          "type": "address"
        }
      ],
      "name": "changeOAR",
      "outputs": [],
      "payable": false,
      "stateMutability": "nonpayable",
      "type": "function"
    },
    {
      "constant": true,
      "inputs": [],
      "name": "numberOfLucky7Numbers",
      "outputs": [
        {
          "name": "",
          "type": "uint256"
        }
      ],
      "payable": false,
      "stateMutability": "view",
      "type": "function"
    },
    {
      "constant": false,
      "inputs": [
        {
          "name": "_id",
          "type": "uint256"
        },
        {
          "name": "_mu",
          "type": "string"
        },
        {
          "name": "_i",
          "type": "string"
        },
        {
          "name": "_ticketValue",
          "type": "uint256"
        },
        {
          "name": "_drawNumber",
          "type": "uint256"
        }
      ],
      "name": "insertCustomizedLucky7Number",
      "outputs": [],
      "payable": false,
      "stateMutability": "nonpayable",
      "type": "function"
    },
    {
      "constant": false,
      "inputs": [],
      "name": "renounceOwnership",
      "outputs": [],
      "payable": false,
      "stateMutability": "nonpayable",
      "type": "function"
    },
    {
      "constant": false,
      "inputs": [],
      "name": "generateRandomTicket",
      "outputs": [],
      "payable": true,
      "stateMutability": "payable",
      "type": "function"
    },
    {
      "constant": true,
      "inputs": [],
      "name": "enterpriseWallet",
      "outputs": [
        {
          "name": "",
          "type": "address"
        }
      ],
      "payable": false,
      "stateMutability": "view",
      "type": "function"
    },
    {
      "constant": false,
      "inputs": [],
      "name": "_orderLucky7Numbers",
      "outputs": [],
      "payable": false,
      "stateMutability": "nonpayable",
      "type": "function"
    },
    {
      "constant": false,
      "inputs": [
        {
          "name": "_ticketOwner",
          "type": "address"
        }
      ],
      "name": "_generateTicket",
      "outputs": [],
      "payable": false,
      "stateMutability": "nonpayable",
      "type": "function"
    },
    {
      "constant": true,
      "inputs": [],
      "name": "lastSecondPrizeWinner",
      "outputs": [
        {
          "name": "",
          "type": "address"
        }
      ],
      "payable": false,
      "stateMutability": "view",
      "type": "function"
    },
    {
      "constant": false,
      "inputs": [
        {
          "name": "_newValue",
          "type": "uint256"
        }
      ],
      "name": "modifyOraclizeGasLimit",
      "outputs": [],
      "payable": false,
      "stateMutability": "nonpayable",
      "type": "function"
    },
    {
      "constant": false,
      "inputs": [],
      "name": "destroy",
      "outputs": [],
      "payable": false,
      "stateMutability": "nonpayable",
      "type": "function"
    },
    {
      "constant": true,
      "inputs": [
        {
          "name": "",
          "type": "uint256"
        }
      ],
      "name": "ExactLucky7TicketValue",
      "outputs": [
        {
          "name": "",
          "type": "uint256"
        }
      ],
      "payable": false,
      "stateMutability": "view",
      "type": "function"
    },
    {
      "constant": false,
      "inputs": [
        {
          "name": "_newValue",
          "type": "uint256"
        }
      ],
      "name": "modifyGenerateTicketPrice",
      "outputs": [],
      "payable": false,
      "stateMutability": "nonpayable",
      "type": "function"
    },
    {
      "constant": true,
      "inputs": [
        {
          "name": "",
          "type": "uint256"
        }
      ],
      "name": "ExactLucky7TicketID",
      "outputs": [
        {
          "name": "",
          "type": "uint256"
        }
      ],
      "payable": false,
      "stateMutability": "view",
      "type": "function"
    },
    {
      "constant": true,
      "inputs": [],
      "name": "owner",
      "outputs": [
        {
          "name": "",
          "type": "address"
        }
      ],
      "payable": false,
      "stateMutability": "view",
      "type": "function"
    },
    {
      "constant": false,
      "inputs": [],
      "name": "_generateLucky7Number",
      "outputs": [],
      "payable": false,
      "stateMutability": "nonpayable",
      "type": "function"
    },
    {
      "constant": true,
      "inputs": [
        {
          "name": "",
          "type": "uint256"
        }
      ],
      "name": "lucky7NumbersArray",
      "outputs": [
        {
          "name": "mu",
          "type": "string"
        },
        {
          "name": "i",
          "type": "string"
        },
        {
          "name": "ticketValue",
          "type": "uint256"
        },
        {
          "name": "drawID",
          "type": "uint256"
        }
      ],
      "payable": false,
      "stateMutability": "view",
      "type": "function"
    },
    {
      "constant": true,
      "inputs": [],
      "name": "lastFirstPrizeWinner",
      "outputs": [
        {
          "name": "",
          "type": "address"
        }
      ],
      "payable": false,
      "stateMutability": "view",
      "type": "function"
    },
    {
      "constant": true,
      "inputs": [],
      "name": "oraclizeCustomGasPrice",
      "outputs": [
        {
          "name": "",
          "type": "uint256"
        }
      ],
      "payable": false,
      "stateMutability": "view",
      "type": "function"
    },
    {
      "constant": true,
      "inputs": [],
      "name": "p",
      "outputs": [
        {
          "name": "",
          "type": "string"
        }
      ],
      "payable": false,
      "stateMutability": "view",
      "type": "function"
    },
    {
      "constant": true,
      "inputs": [
        {
          "name": "",
          "type": "uint256"
        }
      ],
      "name": "ticketsArray",
      "outputs": [
        {
          "name": "mu",
          "type": "string"
        },
        {
          "name": "i",
          "type": "string"
        },
        {
          "name": "ticketValue",
          "type": "uint256"
        },
        {
          "name": "owner",
          "type": "address"
        },
        {
          "name": "drawID",
          "type": "uint256"
        }
      ],
      "payable": false,
      "stateMutability": "view",
      "type": "function"
    },
    {
      "constant": true,
      "inputs": [],
      "name": "j",
      "outputs": [
        {
          "name": "",
          "type": "string"
        }
      ],
      "payable": false,
      "stateMutability": "view",
      "type": "function"
    },
    {
      "constant": false,
      "inputs": [
        {
          "name": "_mu",
          "type": "string"
        },
        {
          "name": "_i",
          "type": "string"
        },
        {
          "name": "_ticketValue",
          "type": "uint256"
        },
        {
          "name": "_ticketOwner",
          "type": "address"
        },
        {
          "name": "_drawNumber",
          "type": "uint256"
        }
      ],
      "name": "insertCustomizedTicket",
      "outputs": [
        {
          "name": "",
          "type": "uint256"
        }
      ],
      "payable": false,
      "stateMutability": "nonpayable",
      "type": "function"
    },
    {
      "constant": true,
      "inputs": [],
      "name": "initialLucky7TicketPosition",
      "outputs": [
        {
          "name": "",
          "type": "uint256"
        }
      ],
      "payable": false,
      "stateMutability": "view",
      "type": "function"
    },
    {
      "constant": false,
      "inputs": [
        {
          "name": "_newValue",
          "type": "uint256"
        }
      ],
      "name": "modifySellTicketPrice",
      "outputs": [],
      "payable": false,
      "stateMutability": "nonpayable",
      "type": "function"
    },
    {
      "constant": false,
      "inputs": [],
      "name": "_cleanMappings",
      "outputs": [],
      "payable": false,
      "stateMutability": "nonpayable",
      "type": "function"
    },
    {
      "constant": true,
      "inputs": [],
      "name": "indexForLucky7Array",
      "outputs": [
        {
          "name": "",
          "type": "uint256"
        }
      ],
      "payable": false,
      "stateMutability": "view",
      "type": "function"
    },
    {
      "constant": true,
      "inputs": [
        {
          "name": "",
          "type": "uint256"
        }
      ],
      "name": "lucky7TicketsArray",
      "outputs": [
        {
          "name": "difference",
          "type": "uint256"
        },
        {
          "name": "owner",
          "type": "address"
        },
        {
          "name": "ticketID",
          "type": "uint256"
        },
        {
          "name": "ticketValue",
          "type": "uint256"
        },
        {
          "name": "lucky7Number",
          "type": "uint256"
        },
        {
          "name": "lucky7NumberID",
          "type": "uint256"
        },
        {
          "name": "drawID",
          "type": "uint256"
        }
      ],
      "payable": false,
      "stateMutability": "view",
      "type": "function"
    },
    {
      "constant": false,
      "inputs": [
        {
          "name": "_newValue",
          "type": "uint256"
        }
      ],
      "name": "modifyNumberOfLucky7Numbers",
      "outputs": [],
      "payable": false,
      "stateMutability": "nonpayable",
      "type": "function"
    },
    {
      "constant": false,
      "inputs": [
        {
          "name": "_newValue",
          "type": "uint256"
        }
      ],
      "name": "modifyOraclizeCustomGasPrice",
      "outputs": [],
      "payable": false,
      "stateMutability": "nonpayable",
      "type": "function"
    },
    {
      "constant": true,
      "inputs": [],
      "name": "generateTicketPrice",
      "outputs": [
        {
          "name": "",
          "type": "uint256"
        }
      ],
      "payable": false,
      "stateMutability": "view",
      "type": "function"
    },
    {
      "constant": true,
      "inputs": [],
      "name": "drawNumber",
      "outputs": [
        {
          "name": "",
          "type": "uint256"
        }
      ],
      "payable": false,
      "stateMutability": "view",
      "type": "function"
    },
    {
      "constant": true,
      "inputs": [],
      "name": "indexForExactLucky7Ticket",
      "outputs": [
        {
          "name": "",
          "type": "uint256"
        }
      ],
      "payable": false,
      "stateMutability": "view",
      "type": "function"
    },
    {
      "constant": false,
      "inputs": [
        {
          "name": "_ticketOwner",
          "type": "address"
        }
      ],
      "name": "_askForTicket",
      "outputs": [],
      "payable": false,
      "stateMutability": "nonpayable",
      "type": "function"
    },
    {
      "constant": true,
      "inputs": [],
      "name": "sellTicketPrice",
      "outputs": [
        {
          "name": "",
          "type": "uint256"
        }
      ],
      "payable": false,
      "stateMutability": "view",
      "type": "function"
    },
    {
      "constant": true,
      "inputs": [
        {
          "name": "",
          "type": "uint256"
        }
      ],
      "name": "lucky7TicketDifference",
      "outputs": [
        {
          "name": "",
          "type": "uint256"
        }
      ],
      "payable": false,
      "stateMutability": "view",
      "type": "function"
    },
    {
      "constant": true,
      "inputs": [
        {
          "name": "",
          "type": "uint256"
        }
      ],
      "name": "ExactLucky7TicketOwner",
      "outputs": [
        {
          "name": "",
          "type": "address"
        }
      ],
      "payable": false,
      "stateMutability": "view",
      "type": "function"
    },
    {
      "constant": false,
      "inputs": [
        {
          "name": "_newOwner",
          "type": "address"
        }
      ],
      "name": "transferOwnership",
      "outputs": [],
      "payable": false,
      "stateMutability": "nonpayable",
      "type": "function"
    },
    {
      "constant": true,
      "inputs": [
        {
          "name": "",
          "type": "address"
        }
      ],
      "name": "pendingWithdrawals",
      "outputs": [
        {
          "name": "",
          "type": "uint256"
        }
      ],
      "payable": false,
      "stateMutability": "view",
      "type": "function"
    },
    {
      "constant": false,
      "inputs": [],
      "name": "_deliverPrizes",
      "outputs": [],
      "payable": false,
      "stateMutability": "nonpayable",
      "type": "function"
    },
    {
      "constant": false,
      "inputs": [
        {
          "name": "_recipient",
          "type": "address"
        }
      ],
      "name": "destroyAndSend",
      "outputs": [],
      "payable": false,
      "stateMutability": "nonpayable",
      "type": "function"
    },
    {
      "constant": true,
      "inputs": [],
      "name": "currentTicketID",
      "outputs": [
        {
          "name": "",
          "type": "uint256"
        }
      ],
      "payable": false,
      "stateMutability": "view",
      "type": "function"
    },
    {
      "constant": true,
      "inputs": [],
      "name": "lastThirdPrizeWinner",
      "outputs": [
        {
          "name": "",
          "type": "address"
        }
      ],
      "payable": false,
      "stateMutability": "view",
      "type": "function"
    },
    {
      "constant": false,
      "inputs": [
        {
          "name": "_ticketOwner",
          "type": "address"
        }
      ],
      "name": "_askForIParameter",
      "outputs": [],
      "payable": false,
      "stateMutability": "nonpayable",
      "type": "function"
    },
    {
      "inputs": [],
      "payable": true,
      "stateMutability": "payable",
      "type": "constructor"
    },
    {
      "payable": true,
      "stateMutability": "payable",
      "type": "fallback"
    },
    {
      "anonymous": false,
      "inputs": [
        {
          "indexed": false,
          "name": "description",
          "type": "string"
        }
      ],
      "name": "NewOraclizeQuery",
      "type": "event"
    },
    {
      "anonymous": false,
      "inputs": [
        {
          "indexed": false,
          "name": "muParameter",
          "type": "string"
        }
      ],
      "name": "NewMuReceived",
      "type": "event"
    },
    {
      "anonymous": false,
      "inputs": [
        {
          "indexed": false,
          "name": "iParameter",
          "type": "string"
        }
      ],
      "name": "NewIReceived",
      "type": "event"
    },
    {
      "anonymous": false,
      "inputs": [
        {
          "indexed": false,
          "name": "newTicket",
          "type": "string"
        }
      ],
      "name": "NewTicketReceived",
      "type": "event"
    },
    {
      "anonymous": false,
      "inputs": [
        {
          "indexed": false,
          "name": "description",
          "type": "string"
        }
      ],
      "name": "NewWolframQuery",
      "type": "event"
    },
    {
      "anonymous": false,
      "inputs": [
        {
          "indexed": false,
          "name": "ticketID",
          "type": "uint256"
        }
      ],
      "name": "NewLucky7Ticket",
      "type": "event"
    },
    {
      "anonymous": false,
      "inputs": [
        {
          "indexed": false,
          "name": "value",
          "type": "uint256"
        }
      ],
      "name": "NewLucky7Number",
      "type": "event"
    },
    {
      "anonymous": false,
      "inputs": [
        {
          "indexed": false,
          "name": "describe",
          "type": "string"
        },
        {
          "indexed": false,
          "name": "_oldValue",
          "type": "uint256"
        },
        {
          "indexed": false,
          "name": "_newValue",
          "type": "uint256"
        }
      ],
      "name": "numberModified",
      "type": "event"
    },
    {
      "anonymous": false,
      "inputs": [
        {
          "indexed": false,
          "name": "describe",
          "type": "string"
        },
        {
          "indexed": false,
          "name": "_oldValue",
          "type": "string"
        },
        {
          "indexed": false,
          "name": "_newValue",
          "type": "string"
        }
      ],
      "name": "parameterModified",
      "type": "event"
    },
    {
      "anonymous": false,
      "inputs": [
        {
          "indexed": false,
          "name": "describe",
          "type": "string"
        },
        {
          "indexed": false,
          "name": "_oldValue",
          "type": "address"
        },
        {
          "indexed": false,
          "name": "_newValue",
          "type": "address"
        }
      ],
      "name": "walletModified",
      "type": "event"
    },
    {
      "anonymous": false,
      "inputs": [
        {
          "indexed": true,
          "name": "previousOwner",
          "type": "address"
        }
      ],
      "name": "OwnershipRenounced",
      "type": "event"
    },
    {
      "anonymous": false,
      "inputs": [
        {
          "indexed": true,
          "name": "previousOwner",
          "type": "address"
        },
        {
          "indexed": true,
          "name": "newOwner",
          "type": "address"
        }
      ],
      "name": "OwnershipTransferred",
      "type": "event"
    },
    {
      "constant": true,
      "inputs": [],
      "name": "getBalance",
      "outputs": [
        {
          "name": "",
          "type": "uint256"
        }
      ],
      "payable": false,
      "stateMutability": "view",
      "type": "function"
    },
    {
      "constant": true,
      "inputs": [],
      "name": "getlucky7Numbers",
      "outputs": [
        {
          "name": "",
          "type": "uint256[7]"
        }
      ],
      "payable": false,
      "stateMutability": "view",
      "type": "function"
    },
    {
      "constant": true,
      "inputs": [],
      "name": "getlucky7Tickets",
      "outputs": [
        {
          "name": "",
          "type": "uint256[7]"
        }
      ],
      "payable": false,
      "stateMutability": "view",
      "type": "function"
    },
    {
      "constant": true,
      "inputs": [],
      "name": "getLucky7TicketDifference",
      "outputs": [
        {
          "name": "",
          "type": "uint256[7]"
        }
      ],
      "payable": false,
      "stateMutability": "view",
      "type": "function"
    },
    {
      "constant": true,
      "inputs": [],
      "name": "getLucky7TicketOwner",
      "outputs": [
        {
          "name": "",
          "type": "address[7]"
        }
      ],
      "payable": false,
      "stateMutability": "view",
      "type": "function"
    }
  ],
  "bytecode": "0x60c0604052600160808190527f310000000000000000000000000000000000000000000000000000000000000060a09081526200003e919081620001cc565b506040805180820190915260018082527f380000000000000000000000000000000000000000000000000000000000000060209092019182526200008591600291620001cc565b506040805180820190915260058082527f31303030300000000000000000000000000000000000000000000000000000006020909201918252620000cc91600391620001cc565b506040805180820190915260028082527f323000000000000000000000000000000000000000000000000000000000000060209092019182526200011391600491620001cc565b50600760058190556611c37937e08000600655662aa1efb94e00009055620493e060085563ee6b280060095560008054600a8054600160a060020a0319908116600160a060020a038416179091556010805460ff191660011790556039839055603a839055603b839055603c839055603d839055603e805482169055603f80548216905560408054821690559081163317909155600b805490911673d1a269d9b0dfb66cfdaf89cf0c6e6f8df0615ad017905562000271565b828054600181600116156101000203166002900490600052602060002090601f016020900481019282601f106200020f57805160ff19168380011785556200023f565b828001600101855582156200023f579182015b828111156200023f57825182559160200191906001019062000222565b506200024d92915062000251565b5090565b6200026e91905b808211156200024d576000815560010162000258565b90565b615b4080620002816000396000f3006080604052600436106103135763ffffffff60e060020a60003504166301591f13811461031557806301f84bcd146103625780630b8ec740146103775780630d0a4b7f1461037f57806310cd4b8a1461039757806312065fe0146103c15780631827f45d146103d65780631c3ed1d3146103ee5780631cf4c3d1146104225780631ded3bec1461043757806323d370ba1461043f57806327dc297e146104605780632caf9eee146104be5780632de729eb146104e75780632e52d606146104ff57806338bbfa501461058957806339df3f4f146106255780633ccfd60b1461063a578063400149111461064f57806349f6b030146106645780634acfd9b8146106855780634df7e3d0146107a457806350b9c428146107b957806358070951146107ce57806359f9fe82146107ef5780635edbc36b146108045780635fff9ae314610819578063715018a6146108be57806372c3477d146108d3578063741606b5146108db57806375edd257146108f057806377d8a830146109055780637fd4ecde14610926578063809fc1531461093b57806383197ef0146109535780638a1dd740146109685780638aa5fafa146109805780638ce3da3c146109985780638da5cb5b146109b057806390c31c4c146109c557806396853e13146109da578063980d988c14610ade5780639ac2bf9114610af35780639ae8886a14610b08578063a6b0d87314610b1d578063b4f8eadd14610b32578063b582ec5f14610c45578063bb4127e814610c5a578063bb49516b14610d06578063bcb740ab14610d1b578063c53d6e4714610d33578063c56969ab14610d48578063c629dad914610d5d578063c71f04ac14610db5578063d383e86214610dcd578063d566bcf014610de5578063d80ffb2014610dfa578063d84ca03a14610e0f578063ddc110fa14610e24578063e5663c4814610e45578063e802ae1414610e5a578063eaaa680a14610e72578063f2fde38b14610e8a578063f3f4370314610eab578063f405228914610ecc578063f5074f4114610ee1578063f53c7d0814610f02578063fc22d3e414610f17578063fd9be1b214610f2c575b005b34801561032157600080fd5b5061032a610f4d565b604051808260e080838360005b8381101561034f578181015183820152602001610337565b5050505090500191505060405180910390f35b34801561036e57600080fd5b5061032a610fa0565b610313611023565b34801561038b57600080fd5b506103136004356111df565b3480156103a357600080fd5b506103af6004356111fb565b60408051918252519081900360200190f35b3480156103cd57600080fd5b506103af61120d565b3480156103e257600080fd5b50610313600435611213565b3480156103fa57600080fd5b5061040660043561122f565b60408051600160a060020a039092168252519081900360200190f35b34801561042e57600080fd5b5061031361124a565b610313611624565b34801561044b57600080fd5b50610313600160a060020a0360043516611693565b34801561046c57600080fd5b5060408051602060046024803582810135601f81018590048502860185019096528585526103139583359536956044949193909101919081908401838280828437509497506117a59650505050505050565b3480156104ca57600080fd5b506104d3611d56565b604080519115158252519081900360200190f35b3480156104f357600080fd5b50610313600435611d5f565b34801561050b57600080fd5b506105146120be565b6040805160208082528351818301528351919283929083019185019080838360005b8381101561054e578181015183820152602001610536565b50505050905090810190601f16801561057b5780820380516001836020036101000a031916815260200191505b509250505060405180910390f35b34801561059557600080fd5b5060408051602060046024803582810135601f810185900485028601850190965285855261031395833595369560449491939091019190819084018382808284375050604080516020601f89358b018035918201839004830284018301909452808352979a9998810197919650918201945092508291508401838280828437509497506121499650505050505050565b34801561063157600080fd5b5061031361214e565b34801561064657600080fd5b50610313612179565b34801561065b57600080fd5b506103136121ba565b34801561067057600080fd5b50610313600160a060020a036004351661220c565b34801561069157600080fd5b506106a6600160a060020a03600435166122bb565b604080519081018590528315156060820152821515608082015281151560a082015260c08082528751908201528651819060208083019160e08401918b019080838360005b838110156107035781810151838201526020016106eb565b50505050905090810190601f1680156107305780820380516001836020036101000a031916815260200191505b5083810382528851815288516020918201918a019080838360005b8381101561076357818101518382015260200161074b565b50505050905090810190601f1680156107905780820380516001836020036101000a031916815260200191505b509850505050505050505060405180910390f35b3480156107b057600080fd5b5061051461241b565b3480156107c557600080fd5b506103af612475565b3480156107da57600080fd5b50610313600160a060020a036004351661247b565b3480156107fb57600080fd5b506103af61249d565b34801561081057600080fd5b5061032a6124a3565b34801561082557600080fd5b5060408051602060046024803582810135601f810185900485028601850190965285855261031395833595369560449491939091019190819084018382808284375050604080516020601f89358b018035918201839004830284018301909452808352979a9998810197919650918201945092508291508401838280828437509497505084359550505060209092013591506125419050565b3480156108ca57600080fd5b506103136125dd565b61031361263c565b3480156108e757600080fd5b50610406612678565b3480156108fc57600080fd5b50610313612687565b34801561091157600080fd5b50610313600160a060020a0360043516612ac9565b34801561093257600080fd5b50610406612adb565b34801561094757600080fd5b50610313600435612aea565b34801561095f57600080fd5b50610313612b6b565b34801561097457600080fd5b506103af600435612b90565b34801561098c57600080fd5b50610313600435612ba2565b3480156109a457600080fd5b506103af600435612c23565b3480156109bc57600080fd5b50610406612c35565b3480156109d157600080fd5b50610313612c44565b3480156109e657600080fd5b506109f2600435612cbb565b604051808060200180602001858152602001848152602001838103835287818151815260200191508051906020019080838360005b83811015610a3f578181015183820152602001610a27565b50505050905090810190601f168015610a6c5780820380516001836020036101000a031916815260200191505b50838103825286518152865160209182019188019080838360005b83811015610a9f578181015183820152602001610a87565b50505050905090810190601f168015610acc5780820380516001836020036101000a031916815260200191505b50965050505050505060405180910390f35b348015610aea57600080fd5b50610406612e07565b348015610aff57600080fd5b506103af612e16565b348015610b1457600080fd5b50610514612e1c565b348015610b2957600080fd5b5061032a612e77565b348015610b3e57600080fd5b50610b4a600435612ed3565b60408051908101849052600160a060020a03831660608201526080810182905260a08082528651908201528551819060208083019160c08401918a019080838360005b83811015610ba5578181015183820152602001610b8d565b50505050905090810190601f168015610bd25780820380516001836020036101000a031916815260200191505b50838103825287518152875160209182019189019080838360005b83811015610c05578181015183820152602001610bed565b50505050905090810190601f168015610c325780820380516001836020036101000a031916815260200191505b5097505050505050505060405180910390f35b348015610c5157600080fd5b50610514613040565b348015610c6657600080fd5b506040805160206004803580820135601f81018490048402850184019095528484526103af94369492936024939284019190819084018382808284375050604080516020601f89358b018035918201839004830284018301909452808352979a99988101979196509182019450925082915084018382808284375094975050843595505050506020820135600160a060020a03169160400135905061309b565b348015610d1257600080fd5b506103af61319c565b348015610d2757600080fd5b506103136004356131a2565b348015610d3f57600080fd5b50610313613223565b348015610d5457600080fd5b506103af61338e565b348015610d6957600080fd5b50610d75600435613394565b60408051978852600160a060020a039096166020880152868601949094526060860192909252608085015260a084015260c0830152519081900360e00190f35b348015610dc157600080fd5b506103136004356133eb565b348015610dd957600080fd5b5061031360043561346c565b348015610df157600080fd5b506103af613513565b348015610e0657600080fd5b506103af613519565b348015610e1b57600080fd5b506103af61351f565b348015610e3057600080fd5b50610313600160a060020a0360043516613525565b348015610e5157600080fd5b506103af61360c565b348015610e6657600080fd5b506103af600435613612565b348015610e7e57600080fd5b50610406600435613624565b348015610e9657600080fd5b50610313600160a060020a036004351661363f565b348015610eb757600080fd5b506103af600160a060020a036004351661365f565b348015610ed857600080fd5b50610313613671565b348015610eed57600080fd5b50610313600160a060020a0360043516613a72565b348015610f0e57600080fd5b506103af613a95565b348015610f2357600080fd5b50610406613a9b565b348015610f3857600080fd5b50610313600160a060020a0360043516613aaa565b610f55615958565b610f5d615958565b60005b600554811015610f9a5760138160078110610f7757fe5b60040201600201548282600781101515610f8d57fe5b6020020152600101610f60565b50919050565b610fa8615958565b610fb0615958565b60005b600554811015610f9a57600081815260346020526040902054600160a060020a031615610fff57600081815260336020526040902054828260078110610ff557fe5b602002015261101b565b6806b14e9f812f366c3b82826007811061101557fe5b60200201525b600101610fb3565b600754339034101561103457600080fd5b600160a060020a0381166000908152602f60205260409020600301805462ff000019166201000017905560105460ff161561106e57600080fd5b60408051336000908152602f6020529190912080547fc5d2460186f7233c927e7db2dcc703c0e500b653ca82273b7bfad8045d85a4709290819083906002610100600183161502600019019091160480156111005780601f106110de576101008083540402835291820191611100565b820191906000526020600020905b8154815290600101906020018083116110ec575b5050915050604051809103902060001916141580156111c8575060408051336000908152602f60205291909120600190810180547fc5d2460186f7233c927e7db2dcc703c0e500b653ca82273b7bfad8045d85a4709391928291849160026101009183161591909102600019019091160480156111b45780601f106111925761010080835404028352918201916111b4565b820191906000526020600020905b8154815290600101906020018083116111a0575b505091505060405180910390206000191614155b15156111d357600080fd5b6111dc33613525565b50565b600054600160a060020a031633146111f657600080fd5b603c55565b60356020526000908152604090205481565b30315b90565b600054600160a060020a0316331461122a57600080fd5b603a55565b603460205260009081526040902054600160a060020a031681565b611252615977565b60008054819081908190600160a060020a0316331461127057600080fd5b600092505b6005548310156113a2576040805160e0810182526000858152603360209081528382205483528682526034815283822054600160a060020a03168184015286825260358082528483205494840185905291879052526012805460119360608401929181106112df57fe5b906000526020600020906005020160020154815260200160138660078110151561130557fe5b600490810291909101600290810154835260208084018990526039546040948501528554600180820188556000978852968290208651600790920201908155908501518187018054600160a060020a031916600160a060020a0390921691909117905592840151908301556060830151600383015560808301519082015560a0820151600582015560c09091015160069091015590920191611275565b603c5491505b603c546005540182101561161d578193506011828154811015156113c857fe5b60009182526020918290206040805160e081018252600790930290910180548352600180820154600160a060020a0316948401949094526002810154918301919091526003810154606083015260048101546080830152600581015460a08301526006015460c08201529550820190505b603c54600554018110156114f257601180548290811061145557fe5b6000918252602090912060079091020154855111156114ea57601180548290811061147c57fe5b60009182526020918290206040805160e0810182526007909302909101805483526001810154600160a060020a0316938301939093526002830154908201526003820154606082015260048201546080820152600582015460a082015260069091015460c082015294509250825b600101611439565b83821461161257601180548390811061150757fe5b906000526020600020906007020160118581548110151561152457fe5b6000918252602090912082546007909202019081556001808301549082018054600160a060020a031916600160a060020a039092169190911790556002808301549082015560038083015490820155600480830154908201556005808301549082015560069182015491015560118054869190849081106115a157fe5b600091825260209182902083516007929092020190815590820151600182018054600160a060020a031916600160a060020a0390921691909117905560408201516002820155606082015160038201556080820151600482015560a0820151600582015560c0909101516006909101555b6001909101906113a8565b5050505050565b600754339034101561163557600080fd5b600160a060020a0381166000908152602f60205260408082206003908101805462ff00001916620100001790553380845291909220909101805461ffff1916905560105460ff161561168657600080fd5b61168f33612ac9565b5050565b60006116a0600954613bbe565b604080516020808252808201527f41736b696e6720666f722061206e6577206d7520706172616d657465722e2e2e8183015290517f096835e36c2ccea88ff2b3aca87dfc938b977e52ea656873ff76a8dba50d4d349181900360600190a16117756040805190810160405280600c81526020017f576f6c6672616d416c70686100000000000000000000000000000000000000008152506040805190810160405280600f81526020017f342072616e646f6d206e756d6265720000000000000000000000000000000000815250600854613da6565b60009081526030602052604090208054600160a060020a031916600160a060020a03939093169290921790915550565b6117ad6141ab565b600160a060020a031633146117c157600080fd5b600082815260306020526040902054600160a060020a03161580159061180f5750600082815260306020908152604080832054600160a060020a03168352602f90915290206003015460ff16155b156119ac57600082815260306020908152604080832054600160a060020a03168352602f82529091208251611846928401906159be565b507f6a28dd23c76ba6cc6f4f148a0e2e0e147d8b876cb74ec1e5e2b8e9a8119eb702816040518080602001828103825283818151815260200191508051906020019080838360005b838110156118a657818101518382015260200161188e565b50505050905090810190601f1680156118d35780820380516001836020036101000a031916815260200191505b509250505060405180910390a160008281526030602090815260408083208054600160a060020a039081168552602f9093528184206003908101805460ff191660019081179091559154909316845292200154610100900460ff1615151480156119815750600082815260306020908152604080832054600160a060020a03168352602f90915290206003015460ff6201000090910416151560011480611981575060105460ff1615156001145b156119a7576000828152603060205260409020546119a790600160a060020a0316613525565b61168f565b600082815260316020526040902054600160a060020a0316158015906119ff5750600082815260316020908152604080832054600160a060020a03168352602f909152902060030154610100900460ff16155b15611b9a57600082815260316020908152604080832054600160a060020a03168352602f82529091208251611a3c926001909201918401906159be565b507f716a554dec57e3a217a923b974660c0c8ebee07b09b1ac7d4a3a8f328d10cc89816040518080602001828103825283818151815260200191508051906020019080838360005b83811015611a9c578181015183820152602001611a84565b50505050905090810190601f168015611ac95780820380516001836020036101000a031916815260200191505b509250505060405180910390a160008281526031602090815260408083208054600160a060020a039081168552602f9093528184206003908101805461ff00191661010017905590549092168352909120015460ff1615156001148015611b745750600082815260316020908152604080832054600160a060020a03168352602f90915290206003015460ff6201000090910416151560011480611b74575060105460ff1615156001145b156119a7576000828152603160205260409020546119a790600160a060020a0316613525565b600082815260326020526040902054600160a060020a031615801590611c045750600082815260326020908152604080832054600160a060020a03168352602f90915290206003015460ff6201000090910416151560011480611c04575060105460ff1615156001145b1561168f57611c12816143a0565b600083815260326020908152604080832054600160a060020a03168352602f825280832060020193909355825181815284518183015284517f0efef3a277391dda0d5747fd15566e85fcd8a4fb588d9853173841e45cc5ae8a9486949293849391840192908601918190849084905b83811015611c99578181015183820152602001611c81565b50505050905090810190601f168015611cc65780820380516001836020036101000a031916815260200191505b509250505060405180910390a1600082815260326020908152604080832054600160a060020a03168352602f9091529020600301805462ff00001916905560105460ff16151560011415611d35576000828152603260205260409020546119a790600160a060020a03166143b3565b60008281526032602052604090205461168f90600160a060020a0316614614565b60105460ff1681565b6000806000806013600160055403600781101515611d7957fe5b6004020160020154601286815481101515611d9057fe5b9060005260206000209060050201600201541115611dff57600554600019019350611df860138560078110611dc157fe5b6004020160020154601287815481101515611dd857fe5b90600052602060002090600502016002015461484f90919063ffffffff16565b9250611f45565b6015546012805487908110611e1057fe5b9060005260206000209060050201600201541015611e755760009350611df8601286815481101515611e3e57fe5b906000526020600020906005020160020154601386600781101515611e5f57fe5b600402016002015461484f90919063ffffffff16565b60138460078110611e8257fe5b6004020160020154601286815481101515611e9957fe5b9060005260206000209060050201600201541115611ebc57600190930192611e75565b60138460078110611ec957fe5b6004020160020154601286815481101515611ee057fe5b9060005260206000209060050201600201541415611f015760009250611f45565b611f156013600019860160078110611dc157fe5b9150611f29601286815481101515611e3e57fe5b905081811115611f4157600184039350819250611f45565b8092505b600084815260346020526040902054600160a060020a03161580611f76575060008481526033602052604090205483105b15612011576012805486908110611f8957fe5b60009182526020808320600360059093020191909101548683526034825260408084208054600160a060020a031916600160a060020a0390931692909217909155603382528083208690556035825291829020879055815187815291517fed4436a39d9a77d0c6c3be4f0e28f018750eb25c5c2d30ded16ef07ced4c00719281900390910190a15b82151561161d57601280548690811061202657fe5b6000918252602080832060036005909302019190910154603b548352603790915260409091208054600160a060020a031916600160a060020a03909216919091179055601280548690811061207757fe5b6000918252602080832060026005909302019190910154603b8054845260368352604080852092909255805484526038909252909120869055805460010190555050505050565b6002805460408051602060018416156101000260001901909316849004601f810184900484028201840190925281815292918301828280156121415780601f1061211657610100808354040283529160200191612141565b820191906000526020600020905b81548152906001019060200180831161212457829003601f168201915b505050505081565b505050565b600054600160a060020a0316331461216557600080fd5b6010805460ff19811660ff90911615179055565b33600081815260416020526040808220805490839055905190929183156108fc02918491818181858888f1935050505015801561168f573d6000803e3d6000fd5b600054600160a060020a031633146121d157600080fd5b6121d961214e565b6121e161124a565b6121e9613671565b6121f1613223565b6039805460010190819055600554603c805491909202019055565b60008054600160a060020a0316331461222457600080fd5b50600a8054600160a060020a03838116600160a060020a0319831681179093556040805191909216602082018190528183019390935260608082526019908201527f456e74657270726973652077616c6c6574206368616e67656400000000000000608082015290517f223db053947bb148de510715d3c7d8ccd72bdd376752fd735ee7bd0bd0ece5bf9181900360a00190a15050565b602f6020908152600091825260409182902080548351601f600260001961010060018616150201909316929092049182018490048402810184019094528084529092918391908301828280156123525780601f1061232757610100808354040283529160200191612352565b820191906000526020600020905b81548152906001019060200180831161233557829003601f168201915b505050505090806001018054600181600116156101000203166002900480601f0160208091040260200160405190810160405280929190818152602001828054600181600116156101000203166002900480156123f05780601f106123c5576101008083540402835291602001916123f0565b820191906000526020600020905b8154815290600101906020018083116123d357829003601f168201915b50505050600283015460039093015491929160ff808216925061010082048116916201000090041686565b60018054604080516020600284861615610100026000190190941693909304601f810184900484028201840190925281815292918301828280156121415780601f1061211657610100808354040283529160200191612141565b60085481565b600b8054600160a060020a031916600160a060020a0392909216919091179055565b60055481565b6124ab615958565b6124b3615958565b60005b600554811015610f9a57600081815260346020526040902054600160a060020a031615612525576000818152603560205260409020546012805490919081106124fb57fe5b906000526020600020906005020160020154828260078110151561251b57fe5b6020020152612539565b600082826007811061253357fe5b60200201525b6001016124b6565b600054600160a060020a0316331461255857600080fd5b6040805160808101825285815260208101859052908101839052606081018290526013866007811061258657fe5b6004020160008201518160000190805190602001906125a69291906159be565b5060208281015180516125bf92600185019201906159be565b50604082015160028201556060909101516003909101555050505050565b600054600160a060020a031633146125f457600080fd5b60008054604051600160a060020a03909116917ff8df31144d9c2f0f6b59d69b8b98abd5459d07f2742c4df920b25aae33c6482091a260008054600160a060020a0319169055565b600654339034101561264d57600080fd5b336000818152602f60205260409020600301805461ffff1916905560105460ff161561168657600080fd5b600a54600160a060020a031681565b61268f615a3c565b6000805481908190600160a060020a031633146126ab57600080fd5b5060005b600554811015612ac357915081601381600781106126c957fe5b6040805160049290920292909201805460a06020601f60026000196101006001871615020190941693909304928301819004028401810190945260808301818152929391928492909184918401828280156127655780601f1061273a57610100808354040283529160200191612765565b820191906000526020600020905b81548152906001019060200180831161274857829003601f168201915b50505050508152602001600182018054600181600116156101000203166002900480601f0160208091040260200160405190810160405280929190818152602001828054600181600116156101000203166002900480156128075780601f106127dc57610100808354040283529160200191612807565b820191906000526020600020905b8154815290600101906020018083116127ea57829003601f168201915b505050505081526020016002820154815260200160038201548152505093508060010191505b6005548210156129d0576013826007811061284457fe5b6004020160020154846040015111156129c5576013826007811061286457fe5b6040805160049290920292909201805460a06020601f60026000196101006001871615020190941693909304928301819004028401810190945260808301818152929391928492909184918401828280156129005780601f106128d557610100808354040283529160200191612900565b820191906000526020600020905b8154815290600101906020018083116128e357829003601f168201915b50505050508152602001600182018054600181600116156101000203166002900480601f0160208091040260200160405190810160405280929190818152602001828054600181600116156101000203166002900480156129a25780601f10612977576101008083540402835291602001916129a2565b820191906000526020600020905b81548152906001019060200180831161298557829003601f168201915b505050505081526020016002820154815260200160038201548152505093508192505b60019091019061282d565b828114612abb57601381600781106129e457fe5b60040201601384600781106129f557fe5b6004020160008201816000019080546001816001161561010002031660029004612a20929190615a65565b5060018201816001019080546001816001161561010002031660029004612a48929190615a65565b50600282810154908201556003918201549101558360138260078110612a6a57fe5b600402016000820151816000019080519060200190612a8a9291906159be565b506020828101518051612aa392600185019201906159be565b50604082015160028201556060909101516003909101555b6001016126af565b50505050565b612ad281611693565b6111dc81613aaa565b603f54600160a060020a031681565b60008054600160a060020a03163314612b0257600080fd5b50600880549082905560408051602081018390528082018490526060808252601a908201527f4f7261636c697a6520676173206c696d6974206368616e67656400000000000060808201529051600080516020615af58339815191529181900360a00190a15050565b600054600160a060020a03163314612b8257600080fd5b600054600160a060020a0316ff5b60366020526000908152604090205481565b60008054600160a060020a03163314612bba57600080fd5b50600680549082905560408051602081018390528082018490526060808252601d908201527f47656e6572617465207469636b6574207072696365206368616e67656400000060808201529051600080516020615af58339815191529181900360a00190a15050565b60386020526000908152604090205481565b600054600160a060020a031681565b600054600160a060020a03163314612c5b57600080fd5b60105460ff161515600114612c6f57600080fd5b600554603a541415612c9557612c83612687565b6000603a55612c9061214e565b612cb9565b306000818152602f60205260409020600301805461ffff19169055612cb990612ac9565b565b60138160078110612cc857fe5b60040201805460408051602060026001851615610100026000190190941693909304601f81018490048402820184019092528181529293508391830182828015612d535780601f10612d2857610100808354040283529160200191612d53565b820191906000526020600020905b815481529060010190602001808311612d3657829003601f168201915b505050505090806001018054600181600116156101000203166002900480601f016020809104026020016040519081016040528092919081815260200182805460018160011615610100020316600290048015612df15780601f10612dc657610100808354040283529160200191612df1565b820191906000526020600020905b815481529060010190602001808311612dd457829003601f168201915b5050505050908060020154908060030154905084565b603e54600160a060020a031681565b60095481565b6003805460408051602060026001851615610100026000190190941693909304601f810184900484028201840190925281815292918301828280156121415780601f1061211657610100808354040283529160200191612141565b612e7f615958565b612e87615958565b60005b600554811015610f9a57600081815260346020526040902054600160a060020a0316828260078110612eb857fe5b600160a060020a039092166020929092020152600101612e8a565b6012805482908110612ee157fe5b60009182526020918290206005919091020180546040805160026001841615610100026000190190931692909204601f810185900485028301850190915280825291935091839190830182828015612f7a5780601f10612f4f57610100808354040283529160200191612f7a565b820191906000526020600020905b815481529060010190602001808311612f5d57829003601f168201915b505050505090806001018054600181600116156101000203166002900480601f0160208091040260200160405190810160405280929190818152602001828054600181600116156101000203166002900480156130185780601f10612fed57610100808354040283529160200191613018565b820191906000526020600020905b815481529060010190602001808311612ffb57829003601f168201915b505050506002830154600384015460049094015492939092600160a060020a03909116915085565b6004805460408051602060026001851615610100026000190190941693909304601f810184900484028201840190925281815292918301828280156121415780601f1061211657610100808354040283529160200191612141565b600080548190600160a060020a031633146130b557600080fd5b6040805160a0810182528881526020808201899052918101879052600160a060020a03861660608201526080810185905260128054600181810180845560009390935283518051919593949360059093027fbb8a6a4669ba250d26cd7a459eca9d215f8307e33aebe50379bc5a3617ec34440192613138928492909101906159be565b50602082810151805161315192600185019201906159be565b50604082015160028201556060820151600382018054600160a060020a031916600160a060020a0390921691909117905560809091015160049091015503603d555095945050505050565b603c5481565b60008054600160a060020a031633146131ba57600080fd5b506007805490829055604080516020810183905280820184905260608082526019908201527f53656c6c207469636b6574207072696365206368616e6765640000000000000060808201529051600080516020615af58339815191529181900360a00190a15050565b60005b600554811015613386576000818152603360209081526040808320839055603482528083208054600160a060020a031916905560358252808320929092558151808301909252600182527f300000000000000000000000000000000000000000000000000000000000000090820152601382600781106132a257fe5b6004020160000190805190602001906132bc9291906159be565b5060408051808201909152600181527f30000000000000000000000000000000000000000000000000000000000000006020820152601382600781106132fe57fe5b6004020160010190805190602001906133189291906159be565b5060006013826007811061332857fe5b600402016002018190555060395460138260078110151561334557fe5b60040201600301556000818152603660209081526040808320839055603782528083208054600160a060020a03191690556038909152812055600101613226565b506000603b55565b603a5481565b60118054829081106133a257fe5b60009182526020909120600790910201805460018201546002830154600384015460048501546005860154600690960154949650600160a060020a039093169491939092919087565b60008054600160a060020a0316331461340357600080fd5b506005805490829055604080516020810183905280820184905260608082526019908201527f53656c6c207469636b6574207072696365206368616e6765640000000000000060808201529051600080516020615af58339815191529181900360a00190a15050565b60008054600160a060020a0316331461348457600080fd5b506009805490829055604080516020810183905280820184905260608082526021908201527f4f7261636c697a6520637573746f6d20676173207072696365206368616e676560808201527f640000000000000000000000000000000000000000000000000000000000000060a08201529051600080516020615af58339815191529181900360c00190a15050565b60065481565b60395481565b603b5481565b6000613532600954613bbe565b604080516020808252601a908201527f41736b696e6720666f722061206e6577207469636b65742e2e2e0000000000008183015290517f096835e36c2ccea88ff2b3aca87dfc938b977e52ea656873ff76a8dba50d4d349181900360600190a16135dc6040805190810160405280600c81526020017f576f6c6672616d416c70686100000000000000000000000000000000000000008152506135d484614861565b600854613da6565b60009081526032602052604090208054600160a060020a031916600160a060020a03939093169290921790915550565b60075481565b60336020526000908152604090205481565b603760205260009081526040902054600160a060020a031681565b600054600160a060020a0316331461365657600080fd5b6111dc81615190565b60416020526000908152604090205481565b6000805481908190819081908190600160a060020a0316331461369357600080fd5b603e54600160a060020a03908116600090815260416020526040808220829055603f548316825280822082905580549092168152908120556136dd3031600763ffffffff61520016565b95506136f086600a63ffffffff61522916565b955061370386600663ffffffff61520016565b945061371686600363ffffffff61520016565b935061372986600163ffffffff61520016565b925061373c85600a63ffffffff61522916565b945061374f84600a63ffffffff61522916565b935061376283600a63ffffffff61522916565b9250603c5491505b603c54600554018210156138455760118054600091908490811061378a57fe5b6000918252602090912060016007909202010154600160a060020a03161461383a5784604160006011858154811015156137c057fe5b6000918252602080832060016007909302019190910154600160a060020a03168352820192909252604001902080549091019055601180548390811061380257fe5b6000918252602090912060016007909202010154603e8054600160a060020a031916600160a060020a03909216919091179055613845565b60019091019061376a565b6001909101905b603c54600554018210156139275760118054600091908490811061386c57fe5b6000918252602090912060016007909202010154600160a060020a03161461391c5783604160006011858154811015156138a257fe5b6000918252602080832060016007909302019190910154600160a060020a0316835282019290925260400190208054909101905560118054839081106138e457fe5b6000918252602090912060016007909202010154603f8054600160a060020a031916600160a060020a03909216919091179055613927565b60019091019061384c565b6001909101905b603c5460055401821015613a095760118054600091908490811061394e57fe5b6000918252602090912060016007909202010154600160a060020a0316146139fe57826041600060118581548110151561398457fe5b6000918252602080832060016007909302019190910154600160a060020a0316835282019290925260400190208054909101905560118054839081106139c657fe5b600091825260209091206001600790920201015460408054600160a060020a031916600160a060020a03909216919091179055613a09565b60019091019061392e565b613a1b3031600363ffffffff61520016565b9050613a2e81600a63ffffffff61522916565b600a54604051919250600160a060020a03169082156108fc029083906000818181858888f19350505050158015613a69573d6000803e3d6000fd5b50505050505050565b600054600160a060020a03163314613a8957600080fd5b80600160a060020a0316ff5b603d5481565b604054600160a060020a031681565b6000613ab7600954613bbe565b604080516020808252601f908201527f41736b696e6720666f722061206e6577206920706172616d657465722e2e2e008183015290517f096835e36c2ccea88ff2b3aca87dfc938b977e52ea656873ff76a8dba50d4d349181900360600190a1613b8e6040805190810160405280600c81526020017f576f6c6672616d416c70686100000000000000000000000000000000000000008152506040805190810160405280600f81526020017f342072616e646f6d206e756d6265720000000000000000000000000000000000815250600854613da6565b60009081526031602052604090208054600160a060020a031916600160a060020a03939093169290921790915550565b600b54600160a060020a03161580613be85750600b54613be690600160a060020a031661523e565b155b15613bf957613bf76000615242565b505b600b60009054906101000a9004600160a060020a0316600160a060020a03166338cc48316040518163ffffffff1660e060020a028152600401602060405180830381600087803b158015613c4c57600080fd5b505af1158015613c60573d6000803e3d6000fd5b505050506040513d6020811015613c7657600080fd5b5051600c54600160a060020a03908116911614613d2c57600b60009054906101000a9004600160a060020a0316600160a060020a03166338cc48316040518163ffffffff1660e060020a028152600401602060405180830381600087803b158015613ce057600080fd5b505af1158015613cf4573d6000803e3d6000fd5b505050506040513d6020811015613d0a57600080fd5b5051600c8054600160a060020a031916600160a060020a039092169190911790555b600c54604080517fca6ad1e4000000000000000000000000000000000000000000000000000000008152600481018490529051600160a060020a039092169163ca6ad1e49160248082019260009290919082900301818387803b158015613d9257600080fd5b505af115801561161d573d6000803e3d6000fd5b600b546000908190600160a060020a03161580613dd55750600b54613dd390600160a060020a031661523e565b155b15613de657613de46000615242565b505b600b60009054906101000a9004600160a060020a0316600160a060020a03166338cc48316040518163ffffffff1660e060020a028152600401602060405180830381600087803b158015613e3957600080fd5b505af1158015613e4d573d6000803e3d6000fd5b505050506040513d6020811015613e6357600080fd5b5051600c54600160a060020a03908116911614613f1957600b60009054906101000a9004600160a060020a0316600160a060020a03166338cc48316040518163ffffffff1660e060020a028152600401602060405180830381600087803b158015613ecd57600080fd5b505af1158015613ee1573d6000803e3d6000fd5b505050506040513d6020811015613ef757600080fd5b5051600c8054600160a060020a031916600160a060020a039092169190911790555b600c54604080517f2ef3accc0000000000000000000000000000000000000000000000000000000081526024810186905260048101918252875160448201528751600160a060020a0390931692632ef3accc9289928892829160640190602086019080838360005b83811015613f99578181015183820152602001613f81565b50505050905090810190601f168015613fc65780820380516001836020036101000a031916815260200191505b509350505050602060405180830381600087803b158015613fe657600080fd5b505af1158015613ffa573d6000803e3d6000fd5b505050506040513d602081101561401057600080fd5b50519050670de0b6b3a76400003a84020181111561403157600091506141a3565b600c546040517fc51be90f00000000000000000000000000000000000000000000000000000000815260006004820181815260648301879052608060248401908152895160848501528951600160a060020a039095169463c51be90f948794938c938c938c93604481019160a49091019060208801908083838c5b838110156140c45781810151838201526020016140ac565b50505050905090810190601f1680156140f15780820380516001836020036101000a031916815260200191505b50838103825285518152855160209182019187019080838360005b8381101561412457818101518382015260200161410c565b50505050905090810190601f1680156141515780820380516001836020036101000a031916815260200191505b5096505050505050506020604051808303818588803b15801561417357600080fd5b505af1158015614187573d6000803e3d6000fd5b50505050506040513d602081101561419e57600080fd5b505191505b509392505050565b600b54600090600160a060020a031615806141d85750600b546141d690600160a060020a031661523e565b155b156141e9576141e76000615242565b505b600b60009054906101000a9004600160a060020a0316600160a060020a03166338cc48316040518163ffffffff1660e060020a028152600401602060405180830381600087803b15801561423c57600080fd5b505af1158015614250573d6000803e3d6000fd5b505050506040513d602081101561426657600080fd5b5051600c54600160a060020a0390811691161461431c57600b60009054906101000a9004600160a060020a0316600160a060020a03166338cc48316040518163ffffffff1660e060020a028152600401602060405180830381600087803b1580156142d057600080fd5b505af11580156142e4573d6000803e3d6000fd5b505050506040513d60208110156142fa57600080fd5b5051600c8054600160a060020a031916600160a060020a039092169190911790555b600c60009054906101000a9004600160a060020a0316600160a060020a031663c281d19e6040518163ffffffff1660e060020a028152600401602060405180830381600087803b15801561436f57600080fd5b505af1158015614383573d6000803e3d6000fd5b505050506040513d602081101561439957600080fd5b5051905090565b60006143ad82600061524c565b92915050565b60408051600160a060020a0383166000908152602f602090815290839020805460026001821615610100026000190190911604601f8101839004909202830160a0908101909452608083018281529293849392908401828280156144585780601f1061442d57610100808354040283529160200191614458565b820191906000526020600020905b81548152906001019060200180831161443b57829003601f168201915b50505050508152602001602f600084600160a060020a0316600160a060020a031681526020019081526020016000206001018054600181600116156101000203166002900480601f01602080910402602001604051908101604052809291908181526020018280546001816001161561010002031660029004801561451e5780601f106144f35761010080835404028352916020019161451e565b820191906000526020600020905b81548152906001019060200180831161450157829003601f168201915b5050509183525050600160a060020a0383166000908152602f60209081526040918290206002015490830152603954910152603a546013906007811061456057fe5b6004020160008201518160000190805190602001906145809291906159be565b50602082810151805161459992600185019201906159be565b50604082810151600280840191909155606090930151600390920191909155603a80546001019055600160a060020a0383166000908152602f60209081529082902090920154815190815290517fec2692b386f7e992f219e405f018eeaf8da1b95736760596812e564f2e709cfd929181900390910190a150565b60408051600160a060020a0383166000908152602f602090815283822080546002600180831615610100026000190190921604601f8101849004909302850160c090810190965260a08501838152939590946012949093849391928401828280156146c05780601f10614695576101008083540402835291602001916146c0565b820191906000526020600020905b8154815290600101906020018083116146a357829003601f168201915b50505050508152602001602f600087600160a060020a0316600160a060020a031681526020019081526020016000206001018054600181600116156101000203166002900480601f0160208091040260200160405190810160405280929190818152602001828054600181600116156101000203166002900480156147865780601f1061475b57610100808354040283529160200191614786565b820191906000526020600020905b81548152906001019060200180831161476957829003601f168201915b5050509183525050600160a060020a0386166000818152602f60209081526040808320600201548286015284019290925260395460609093019290925283546001810180865594835291819020835180516005909402909101926147ed92849201906159be565b50602082810151805161480692600185019201906159be565b50604082015160028201556060820151600382018054600160a060020a031916600160a060020a0390921691909117905560809091015160049091015503905061168f81611d5f565b60008282111561485b57fe5b50900390565b604080518082018252600c81527f286d6f642828312f2831305e000000000000000000000000000000000000000060208083019190915260028054845160018216156101000260001901909116829004601f81018490048402820184019095528481526060948594614a3894909391908301828280156149225780601f106148f757610100808354040283529160200191614922565b820191906000526020600020905b81548152906001019060200180831161490557829003601f168201915b505060408051808201825260018082527f2d00000000000000000000000000000000000000000000000000000000000000602080840191909152600160a060020a038d166000908152602f825284902080548551600294821615610100026000190190911693909304601f81018390048302840183019095528483529296509094509092508301828280156149f85780601f106149cd576101008083540402835291602001916149f8565b820191906000526020600020905b8154815290600101906020018083116149db57829003601f168201915b50505050506040805190810160405280600681526020017f29292a31305e00000000000000000000000000000000000000000000000000008152506153be565b60038054604080516020601f60026000196101006001881615020190951694909404938401819004810282018101909252828152939450614bcc93859390929091830182828015614aca5780601f10614a9f57610100808354040283529160200191614aca565b820191906000526020600020905b815481529060010190602001808311614aad57829003601f168201915b5050604080518082018252600581527f2c31305e2800000000000000000000000000000000000000000000000000000060208083019190915260048054845160026001831615610100026000190190921691909104601f8101849004840282018401909552848152929650919450909250830182828015614b8c5780601f10614b6157610100808354040283529160200191614b8c565b820191906000526020600020905b815481529060010190602001808311614b6f57829003601f168201915b50505050506040805190810160405280600181526020017f2b000000000000000000000000000000000000000000000000000000000000008152506153be565b9050614d8d81602f600086600160a060020a0316600160a060020a031681526020019081526020016000206001018054600181600116156101000203166002900480601f016020809104026020016040519081016040528092919081815260200182805460018160011615610100020316600290048015614c8e5780601f10614c6357610100808354040283529160200191614c8e565b820191906000526020600020905b815481529060010190602001808311614c7157829003601f168201915b5050604080518082018252600e81527f29292d6d6f642828312f2831305e00000000000000000000000000000000000060208083019190915260028054845160018216156101000260001901909116829004601f8101849004840282018401909552848152929650919450909250830182828015614d4d5780601f10614d2257610100808354040283529160200191614d4d565b820191906000526020600020905b815481529060010190602001808311614d3057829003601f168201915b50505050506040805190810160405280600181526020017f2d000000000000000000000000000000000000000000000000000000000000008152506153be565b600160a060020a0384166000908152602f602090815260409182902080548351601f60026000196101006001861615020190931692909204918201849004840281018401909452808452939450614f3493859392830182828015614e325780601f10614e0757610100808354040283529160200191614e32565b820191906000526020600020905b815481529060010190602001808311614e1557829003601f168201915b5050604080518082018252600681527f29292a31305e000000000000000000000000000000000000000000000000000060208083019190915260038054845160026001831615610100026000190190921691909104601f8101849004840282018401909552848152929650919450909250830182828015614ef45780601f10614ec957610100808354040283529160200191614ef4565b820191906000526020600020905b815481529060010190602001808311614ed757829003601f168201915b50505050506040805190810160405280600481526020017f2c31305e000000000000000000000000000000000000000000000000000000008152506153be565b60408051808201825260018082527f2800000000000000000000000000000000000000000000000000000000000000602080840191909152600160a060020a0388166000908152602f8252849020820180548551600294821615610100026000190190911693909304601f81018390048302840183019095528483529495506150ef948694909183018282801561500c5780601f10614fe15761010080835404028352916020019161500c565b820191906000526020600020905b815481529060010190602001808311614fef57829003601f168201915b5050604080518082018252600781527f2929292f31305e00000000000000000000000000000000000000000000000000602080830191909152600160a060020a038d166000908152602f8252839020600190810180548551600293821615610100026000190190911692909204601f810184900484028301840190955284825292965094509092508301828280156150e55780601f106150ba576101008083540402835291602001916150e5565b820191906000526020600020905b8154815290600101906020018083116150c857829003601f168201915b50505050506153be565b90507f261af219212047633bb60c8d0cc7e33d217c38edf6fa7e53acb97a3f94180de5816040518080602001828103825283818151815260200191508051906020019080838360005b83811015615150578181015183820152602001615138565b50505050905090810190601f16801561517d5780820380516001836020036101000a031916815260200191505b509250505060405180910390a192915050565b600160a060020a03811615156151a557600080fd5b60008054604051600160a060020a03808516939216917f8be0079c531659141344cd1fd0a4f28419497f9722a3daafe3b4186f6b6457e091a360008054600160a060020a031916600160a060020a0392909216919091179055565b6000821515615211575060006143ad565b5081810281838281151561522157fe5b04146143ad57fe5b6000818381151561523657fe5b049392505050565b3b90565b60006143ad61561f565b6000828180805b83518110156153a15783517f30000000000000000000000000000000000000000000000000000000000000009085908390811061528c57fe5b90602001015160f860020a900460f860020a02600160f860020a03191610158015615302575083517f3900000000000000000000000000000000000000000000000000000000000000908590839081106152e257fe5b90602001015160f860020a900460f860020a02600160f860020a03191611155b1561535b57811561532157851515615319576153a1565b600019909501945b600a830292506030848281518110151561533757fe5b90602001015160f860020a900460f860020a0260f860020a90040383019250615399565b838181518110151561536957fe5b90602001015160f860020a900460f860020a02600160f860020a031916602e60f860020a02141561539957600191505b600101615253565b60008611156153b35785600a0a830292505b509095945050505050565b6060806060806060806060806000808e98508d97508c96508b95508a94508451865188518a518c51010101016040519080825280601f01601f191660200182016040528015615417578160200160208202803883390190505b50935083925060009150600090505b885181101561548457888181518110151561543d57fe5b90602001015160f860020a900460f860020a02838380600101945081518110151561546457fe5b906020010190600160f860020a031916908160001a905350600101615426565b5060005b87518110156154e657878181518110151561549f57fe5b90602001015160f860020a900460f860020a0283838060010194508151811015156154c657fe5b906020010190600160f860020a031916908160001a905350600101615488565b5060005b865181101561554857868181518110151561550157fe5b90602001015160f860020a900460f860020a02838380600101945081518110151561552857fe5b906020010190600160f860020a031916908160001a9053506001016154ea565b5060005b85518110156155aa57858181518110151561556357fe5b90602001015160f860020a900460f860020a02838380600101945081518110151561558a57fe5b906020010190600160f860020a031916908160001a90535060010161554c565b5060005b845181101561560c5784818151811015156155c557fe5b90602001015160f860020a900460f860020a0283838060010194508151811015156155ec57fe5b906020010190600160f860020a031916908160001a9053506001016155ae565b50909d9c50505050505050505050505050565b60008061563f731d3b2638a7cc9f2cb3d298a3da7a90b67e5506ed61523e565b11156156af57600b8054600160a060020a031916731d3b2638a7cc9f2cb3d298a3da7a90b67e5506ed178155604080518082019091529081527f6574685f6d61696e6e657400000000000000000000000000000000000000000060208201526156a790615945565b506001611210565b60006156ce73c03a2615d5efaf5f49f60b7bb6583eaec212fdf161523e565b111561573757600b8054600160a060020a03191673c03a2615d5efaf5f49f60b7bb6583eaec212fdf117905560408051808201909152600c81527f6574685f726f707374656e33000000000000000000000000000000000000000060208201526156a790615945565b600061575673b7a07bcf2ba2f2703b24c0691b5278999c59ac7e61523e565b11156157bf57600b8054600160a060020a03191673b7a07bcf2ba2f2703b24c0691b5278999c59ac7e17905560408051808201909152600981527f6574685f6b6f76616e000000000000000000000000000000000000000000000060208201526156a790615945565b60006157de73146500cfd35b22e4a392fe0adc06de1a1368ed4861523e565b111561584657600b8054600160a060020a03191673146500cfd35b22e4a392fe0adc06de1a1368ed48178155604080518082019091529081527f6574685f72696e6b65627900000000000000000000000000000000000000000060208201526156a790615945565b6000615865736f485c8bf6fc43ea212e93bbf8ce046c7f1cb47561523e565b11156158995750600b8054600160a060020a031916736f485c8bf6fc43ea212e93bbf8ce046c7f1cb4751790556001611210565b60006158b87320e12a1f859b3feae5fb2a0a32c18f5a65555bbf61523e565b11156158ec5750600b8054600160a060020a0319167320e12a1f859b3feae5fb2a0a32c18f5a65555bbf1790556001611210565b600061590b7351efaf4c8b3c9afbd5ab9f4bbc82784ab6ef8faa61523e565b111561593f5750600b8054600160a060020a0319167351efaf4c8b3c9afbd5ab9f4bbc82784ab6ef8faa1790556001611210565b50600090565b805161168f90600d9060208401906159be565b60e0604051908101604052806007906020820280388339509192915050565b60e060405190810160405280600081526020016000600160a060020a0316815260200160008152602001600081526020016000815260200160008152602001600081525090565b828054600181600116156101000203166002900490600052602060002090601f016020900481019282601f106159ff57805160ff1916838001178555615a2c565b82800160010185558215615a2c579182015b82811115615a2c578251825591602001919060010190615a11565b50615a38929150615ada565b5090565b608060405190810160405280606081526020016060815260200160008152602001600081525090565b828054600181600116156101000203166002900490600052602060002090601f016020900481019282601f10615a9e5780548555615a2c565b82800160010185558215615a2c57600052602060002091601f016020900482015b82811115615a2c578254825591600101919060010190615abf565b61121091905b80821115615a385760008155600101615ae056009bc068999fb1a0aac007a9b44ca6322a376441f42706bf5163600bb3d1a73164a165627a7a72305820a86da1838e710863a983d27205657db82b5c860082d6141f1006f04586d2d8200029",
  "source": "/**\n  * @author Matias Barrios\n  * @version 1.0\n  */\n\n/** @title Lucky7FrontFunctions. \n  * This contract contains all the functions to interact with front end.\n  * Is not going to be tested.\n*/\n\npragma solidity ^0.4.20;\n\nimport \"./Lucky7Store.sol\";\n\ncontract Lucky7FrontEndFunctions is Lucky7Store{\n    function Lucky7FrontEndFunctions() payable {\n        \n    }\n\n    /** @dev Function to get the contract balance\n    */\n    function getBalance() public view returns(uint){\n        return address(this).balance;\n    }\n    /** @dev Function to get the lucky7NumbersArray, i.e. the array which contains the Lucky7Numbers\n      */\n    function getlucky7Numbers() public view returns (uint[7]) {\n        uint[7] memory luckySevenNumbers;\n        for(uint i=0; i<numberOfLucky7Numbers; i++){\n            luckySevenNumbers[i]=lucky7NumbersArray[i].ticketValue;\n        }\n        return luckySevenNumbers;\n    }\n    \n    /** @dev Function to get the lucky7Tickets, i.e. the mapping which contains the Lucky7Tickets\n      * @return an array containing the value of the Lucky7Ticket, i.e. the value of the user ticket\n      */\n    function getlucky7Tickets() public view returns (uint[7]) {\n        uint[7] memory luckySevenTickets;\n        for(uint i=0; i<numberOfLucky7Numbers; i++){\n            if(lucky7TicketOwner[i]!=address(0x0)){\n                luckySevenTickets[i] = ticketsArray[lucky7TicketID[i]].ticketValue;\n            }\n            else{\n                luckySevenTickets[i]=0;\n            }\n        }\n        return luckySevenTickets;\n    }\n\n    /** @dev Function to get the lucky7TicketDiffernce, i.e. the mapping which contains the difference between\n      * Lucky7Tickets[i] and Lucky7Number[i] in absolut value\n      * @return an array containing those differences\n      */\n    function getLucky7TicketDifference() public view returns (uint[7]) {\n        uint[7] memory luckySevenTicketDifference;\n        for(uint i=0; i<numberOfLucky7Numbers; i++){\n            if(lucky7TicketOwner[i]!=address(0x0)){\n                luckySevenTicketDifference[i] = lucky7TicketDifference[i];\n            }\n            else{\n                luckySevenTicketDifference[i]=123456789012345678907;\n            }\n        }\n        return luckySevenTicketDifference;\n    }\n\n    /** @dev Function to get the lucky7TicketOwner, i.e. the mapping which contains the owners\n      * of the Lucky7Tickets\n      * @return an array containing those differences\n      */\n    function getLucky7TicketOwner() public view returns (address[7]) {\n        address[7] memory luckySevenTicketOwner;\n        for(uint i=0; i<numberOfLucky7Numbers; i++){\n            luckySevenTicketOwner[i] = lucky7TicketOwner[i];\n        }\n        return luckySevenTicketOwner;\n    }\n}",
  "sourcePath": "/Users/matiasbarrios/Desktop/Proyecto Consensys/luckyseven/contracts/Lucky7FrontEndFunctions.sol",
  "compiler": {
    "name": "solc",
    "version": "0.4.24+commit.e67f0147.Emscripten.clang"
  },
  "schemaVersion": "2.0.1",
  "updatedAt": "2018-08-27T14:28:24.836Z"
}