{
  "contractName": "Lucky7Admin",
  "abi": [
    {
      "constant": true,
      "inputs": [],
      "name": "n",
      "outputs": [
        {
          "name": "",
          "type": "string"
        }
      ],
      "payable": false,
      "stateMutability": "view",
      "type": "function"
    },
    {
      "constant": true,
      "inputs": [],
      "name": "b",
      "outputs": [
        {
          "name": "",
          "type": "string"
        }
      ],
      "payable": false,
      "stateMutability": "view",
      "type": "function"
    },
    {
      "constant": true,
      "inputs": [],
      "name": "oraclizeGasLimit",
      "outputs": [
        {
          "name": "",
          "type": "uint256"
        }
      ],
      "payable": false,
      "stateMutability": "view",
      "type": "function"
    },
    {
      "constant": true,
      "inputs": [],
      "name": "numberOfLucky7Numbers",
      "outputs": [
        {
          "name": "",
          "type": "uint256"
        }
      ],
      "payable": false,
      "stateMutability": "view",
      "type": "function"
    },
    {
      "constant": false,
      "inputs": [],
      "name": "renounceOwnership",
      "outputs": [],
      "payable": false,
      "stateMutability": "nonpayable",
      "type": "function"
    },
    {
      "constant": true,
      "inputs": [],
      "name": "enterpriseWallet",
      "outputs": [
        {
          "name": "",
          "type": "address"
        }
      ],
      "payable": false,
      "stateMutability": "view",
      "type": "function"
    },
    {
      "constant": true,
      "inputs": [],
      "name": "numberOfWinners",
      "outputs": [
        {
          "name": "",
          "type": "uint256"
        }
      ],
      "payable": false,
      "stateMutability": "view",
      "type": "function"
    },
    {
      "constant": true,
      "inputs": [],
      "name": "owner",
      "outputs": [
        {
          "name": "",
          "type": "address"
        }
      ],
      "payable": false,
      "stateMutability": "view",
      "type": "function"
    },
    {
      "constant": true,
      "inputs": [],
      "name": "oraclizeCustomGasPrice",
      "outputs": [
        {
          "name": "",
          "type": "uint256"
        }
      ],
      "payable": false,
      "stateMutability": "view",
      "type": "function"
    },
    {
      "constant": true,
      "inputs": [],
      "name": "p",
      "outputs": [
        {
          "name": "",
          "type": "string"
        }
      ],
      "payable": false,
      "stateMutability": "view",
      "type": "function"
    },
    {
      "constant": true,
      "inputs": [],
      "name": "j",
      "outputs": [
        {
          "name": "",
          "type": "string"
        }
      ],
      "payable": false,
      "stateMutability": "view",
      "type": "function"
    },
    {
      "constant": true,
      "inputs": [],
      "name": "generateTicketPrice",
      "outputs": [
        {
          "name": "",
          "type": "uint256"
        }
      ],
      "payable": false,
      "stateMutability": "view",
      "type": "function"
    },
    {
      "constant": true,
      "inputs": [],
      "name": "sellTicketPrice",
      "outputs": [
        {
          "name": "",
          "type": "uint256"
        }
      ],
      "payable": false,
      "stateMutability": "view",
      "type": "function"
    },
    {
      "constant": false,
      "inputs": [
        {
          "name": "_newOwner",
          "type": "address"
        }
      ],
      "name": "transferOwnership",
      "outputs": [],
      "payable": false,
      "stateMutability": "nonpayable",
      "type": "function"
    },
    {
      "anonymous": false,
      "inputs": [
        {
          "indexed": false,
          "name": "feeType",
          "type": "string"
        },
        {
          "indexed": false,
          "name": "_oldValue",
          "type": "uint256"
        },
        {
          "indexed": false,
          "name": "_newValue",
          "type": "uint256"
        }
      ],
      "name": "numberModified",
      "type": "event"
    },
    {
      "anonymous": false,
      "inputs": [
        {
          "indexed": false,
          "name": "parameter",
          "type": "string"
        },
        {
          "indexed": false,
          "name": "_oldValue",
          "type": "string"
        },
        {
          "indexed": false,
          "name": "_newValue",
          "type": "string"
        }
      ],
      "name": "parameterModified",
      "type": "event"
    },
    {
      "anonymous": false,
      "inputs": [
        {
          "indexed": false,
          "name": "parameter",
          "type": "string"
        },
        {
          "indexed": false,
          "name": "_oldValue",
          "type": "address"
        },
        {
          "indexed": false,
          "name": "_newValue",
          "type": "address"
        }
      ],
      "name": "walletModified",
      "type": "event"
    },
    {
      "anonymous": false,
      "inputs": [
        {
          "indexed": true,
          "name": "previousOwner",
          "type": "address"
        }
      ],
      "name": "OwnershipRenounced",
      "type": "event"
    },
    {
      "anonymous": false,
      "inputs": [
        {
          "indexed": true,
          "name": "previousOwner",
          "type": "address"
        },
        {
          "indexed": true,
          "name": "newOwner",
          "type": "address"
        }
      ],
      "name": "OwnershipTransferred",
      "type": "event"
    },
    {
      "constant": false,
      "inputs": [
        {
          "name": "_newValue",
          "type": "uint256"
        }
      ],
      "name": "modifyNumberOfLucky7Numbers",
      "outputs": [],
      "payable": false,
      "stateMutability": "nonpayable",
      "type": "function"
    },
    {
      "constant": false,
      "inputs": [
        {
          "name": "_newValue",
          "type": "uint256"
        }
      ],
      "name": "modifyNumberOfWinners",
      "outputs": [],
      "payable": false,
      "stateMutability": "nonpayable",
      "type": "function"
    },
    {
      "constant": false,
      "inputs": [
        {
          "name": "_newValue",
          "type": "uint256"
        }
      ],
      "name": "modifySellTicketPrice",
      "outputs": [],
      "payable": false,
      "stateMutability": "nonpayable",
      "type": "function"
    },
    {
      "constant": false,
      "inputs": [
        {
          "name": "_newValue",
          "type": "uint256"
        }
      ],
      "name": "modifyGenerateTicketPrice",
      "outputs": [],
      "payable": false,
      "stateMutability": "nonpayable",
      "type": "function"
    },
    {
      "constant": false,
      "inputs": [
        {
          "name": "_newValue",
          "type": "uint256"
        }
      ],
      "name": "modifyOraclizeGasLimit",
      "outputs": [],
      "payable": false,
      "stateMutability": "nonpayable",
      "type": "function"
    },
    {
      "constant": false,
      "inputs": [
        {
          "name": "_newValue",
          "type": "uint256"
        }
      ],
      "name": "modifyOraclizeCustomGasPrice",
      "outputs": [],
      "payable": false,
      "stateMutability": "nonpayable",
      "type": "function"
    },
    {
      "constant": false,
      "inputs": [
        {
          "name": "_newValue",
          "type": "string"
        }
      ],
      "name": "modifyParameterB",
      "outputs": [],
      "payable": false,
      "stateMutability": "nonpayable",
      "type": "function"
    },
    {
      "constant": false,
      "inputs": [
        {
          "name": "_newValue",
          "type": "string"
        }
      ],
      "name": "modifyParameterN",
      "outputs": [],
      "payable": false,
      "stateMutability": "nonpayable",
      "type": "function"
    },
    {
      "constant": false,
      "inputs": [
        {
          "name": "_newValue",
          "type": "string"
        }
      ],
      "name": "modifyParameterP",
      "outputs": [],
      "payable": false,
      "stateMutability": "nonpayable",
      "type": "function"
    },
    {
      "constant": false,
      "inputs": [
        {
          "name": "_newValue",
          "type": "string"
        }
      ],
      "name": "modifyParameterJ",
      "outputs": [],
      "payable": false,
      "stateMutability": "nonpayable",
      "type": "function"
    },
    {
      "constant": false,
      "inputs": [
        {
          "name": "_newAddress",
          "type": "address"
        }
      ],
      "name": "modifyEnterprisePrize",
      "outputs": [],
      "payable": false,
      "stateMutability": "nonpayable",
      "type": "function"
    },
    {
      "constant": true,
      "inputs": [],
      "name": "balance",
      "outputs": [
        {
          "name": "",
          "type": "uint256"
        }
      ],
      "payable": false,
      "stateMutability": "view",
      "type": "function"
    }
  ],
  "bytecode": "0x60c0604052600160808190527f310000000000000000000000000000000000000000000000000000000000000060a09081526200003e91908162000171565b506040805180820190915260018082527f38000000000000000000000000000000000000000000000000000000000000006020909201918252620000859160029162000171565b506040805180820190915260058082527f31303030300000000000000000000000000000000000000000000000000000006020909201918252620000cc9160039162000171565b506040805180820190915260028082527f32300000000000000000000000000000000000000000000000000000000000006020909201918252620001139160049162000171565b506007600581905560036006556611c37937e080009055662aa1efb94e0000600855620493e060095563ee6b2800600a5560008054600b8054600160a060020a0319908116600160a060020a03841617909155163317905562000216565b828054600181600116156101000203166002900490600052602060002090601f016020900481019282601f10620001b457805160ff1916838001178555620001e4565b82800160010185558215620001e4579182015b82811115620001e4578251825591602001919060010190620001c7565b50620001f2929150620001f6565b5090565b6200021391905b80821115620001f25760008155600101620001fd565b90565b61130380620002266000396000f3006080604052600436106101535763ffffffff7c01000000000000000000000000000000000000000000000000000000006000350416630cc38b2b81146101585780632e52d606146101b35780633bb7daf41461023d5780634df7e3d01461029657806350b9c428146102ab57806359f9fe82146102d2578063715018a6146102e7578063741606b5146102fc578063809fc1531461032d57806383bb7bb7146103455780638aa5fafa1461039e5780638acfaca9146103b65780638da5cb5b146103cb57806396701ce9146103e05780639ac2bf91146104015780639ae8886a146104165780639dec38ab1461042b578063b582ec5f14610484578063b69ef8a814610499578063bcb740ab146104ae578063c71f04ac146104c6578063c90cdc7e146104de578063d383e862146104f6578063d566bcf01461050e578063e5663c4814610523578063f2fde38b14610538575b600080fd5b34801561016457600080fd5b506040805160206004803580820135601f81018490048402850184019095528484526101b19436949293602493928401919081908401838280828437509497506105599650505050505050565b005b3480156101bf57600080fd5b506101c861073e565b6040805160208082528351818301528351919283929083019185019080838360005b838110156102025781810151838201526020016101ea565b50505050905090810190601f16801561022f5780820380516001836020036101000a031916815260200191505b509250505060405180910390f35b34801561024957600080fd5b506040805160206004803580820135601f81018490048402850184019095528484526101b19436949293602493928401919081908401838280828437509497506107c99650505050505050565b3480156102a257600080fd5b506101c861090f565b3480156102b757600080fd5b506102c0610969565b60408051918252519081900360200190f35b3480156102de57600080fd5b506102c061096f565b3480156102f357600080fd5b506101b1610975565b34801561030857600080fd5b506103116109e1565b60408051600160a060020a039092168252519081900360200190f35b34801561033957600080fd5b506101b16004356109f0565b34801561035157600080fd5b506040805160206004803580820135601f81018490048402850184019095528484526101b1943694929360249392840191908190840183828082843750949750610a719650505050505050565b3480156103aa57600080fd5b506101b1600435610bb6565b3480156103c257600080fd5b506102c0610c37565b3480156103d757600080fd5b50610311610c3d565b3480156103ec57600080fd5b506101b1600160a060020a0360043516610c4c565b34801561040d57600080fd5b506102c0610d08565b34801561042257600080fd5b506101c8610d0e565b34801561043757600080fd5b506040805160206004803580820135601f81018490048402850184019095528484526101b1943694929360249392840191908190840183828082843750949750610d699650505050505050565b34801561049057600080fd5b506101c8610eaf565b3480156104a557600080fd5b506102c0610f0a565b3480156104ba57600080fd5b506101b1600435610f29565b3480156104d257600080fd5b506101b1600435610faa565b3480156104ea57600080fd5b506101b160043561102b565b34801561050257600080fd5b506101b16004356110ac565b34801561051a57600080fd5b506102c0611153565b34801561052f57600080fd5b506102c0611159565b34801561054457600080fd5b506101b1600160a060020a036004351661115f565b600054606090600160a060020a0316331461057357600080fd5b6002805460408051602060018416156101000260001901909316849004601f810184900484028201840190925281815292918301828280156105f65780601f106105cb576101008083540402835291602001916105f6565b820191906000526020600020905b8154815290600101906020018083116105d957829003601f168201915b50508551939450610612936002935060208701925090506111ff565b506000805160206112b8833981519152818360405180806020018060200180602001848103845260148152602001807f506172616d65746572206e206d6f646966696564000000000000000000000000815250602001848103835286818151815260200191508051906020019080838360005b8381101561069d578181015183820152602001610685565b50505050905090810190601f1680156106ca5780820380516001836020036101000a031916815260200191505b50848103825285518152855160209182019187019080838360005b838110156106fd5781810151838201526020016106e5565b50505050905090810190601f16801561072a5780820380516001836020036101000a031916815260200191505b509550505050505060405180910390a15050565b6002805460408051602060018416156101000260001901909316849004601f810184900484028201840190925281815292918301828280156107c15780601f10610796576101008083540402835291602001916107c1565b820191906000526020600020905b8154815290600101906020018083116107a457829003601f168201915b505050505081565b600054606090600160a060020a031633146107e357600080fd5b6004805460408051602060026001851615610100026000190190941693909304601f810184900484028201840190925281815292918301828280156108695780601f1061083e57610100808354040283529160200191610869565b820191906000526020600020905b81548152906001019060200180831161084c57829003601f168201915b50508551939450610885936004935060208701925090506111ff565b506000805160206112b8833981519152818360405180806020018060200180602001848103845260148152602001807f506172616d65746572206a206d6f646966696564000000000000000000000000815250602001848103835286818151815260200191508051906020019080838360008381101561069d578181015183820152602001610685565b60018054604080516020600284861615610100026000190190941693909304601f810184900484028201840190925281815292918301828280156107c15780601f10610796576101008083540402835291602001916107c1565b60095481565b60055481565b600054600160a060020a0316331461098c57600080fd5b60008054604051600160a060020a03909116917ff8df31144d9c2f0f6b59d69b8b98abd5459d07f2742c4df920b25aae33c6482091a26000805473ffffffffffffffffffffffffffffffffffffffff19169055565b600b54600160a060020a031681565b60008054600160a060020a03163314610a0857600080fd5b50600980549082905560408051602081018390528082018490526060808252601a908201527f4f7261636c697a6520676173206c696d6974206368616e676564000000000000608082015290516000805160206112988339815191529181900360a00190a15050565b600054606090600160a060020a03163314610a8b57600080fd5b60018054604080516020600284861615610100026000190190941693909304601f81018490048402820184019092528181529291830182828015610b105780601f10610ae557610100808354040283529160200191610b10565b820191906000526020600020905b815481529060010190602001808311610af357829003601f168201915b50508551939450610b2c936001935060208701925090506111ff565b506000805160206112b8833981519152818360405180806020018060200180602001848103845260148152602001807f506172616d657465722062206d6f646966696564000000000000000000000000815250602001848103835286818151815260200191508051906020019080838360008381101561069d578181015183820152602001610685565b60008054600160a060020a03163314610bce57600080fd5b50600780549082905560408051602081018390528082018490526060808252601d908201527f47656e6572617465207469636b6574207072696365206368616e676564000000608082015290516000805160206112988339815191529181900360a00190a15050565b60065481565b600054600160a060020a031681565b60008054600160a060020a03163314610c6457600080fd5b50600b8054600160a060020a0383811673ffffffffffffffffffffffffffffffffffffffff19831681179093556040805191909216602082018190528183019390935260608082526019908201527f456e74657270726973652077616c6c6574206368616e67656400000000000000608082015290517f223db053947bb148de510715d3c7d8ccd72bdd376752fd735ee7bd0bd0ece5bf9181900360a00190a15050565b600a5481565b6003805460408051602060026001851615610100026000190190941693909304601f810184900484028201840190925281815292918301828280156107c15780601f10610796576101008083540402835291602001916107c1565b600054606090600160a060020a03163314610d8357600080fd5b6003805460408051602060026001851615610100026000190190941693909304601f81018490048402820184019092528181529291830182828015610e095780601f10610dde57610100808354040283529160200191610e09565b820191906000526020600020905b815481529060010190602001808311610dec57829003601f168201915b50508551939450610e25936003935060208701925090506111ff565b506000805160206112b8833981519152818360405180806020018060200180602001848103845260148152602001807f506172616d657465722070206d6f646966696564000000000000000000000000815250602001848103835286818151815260200191508051906020019080838360008381101561069d578181015183820152602001610685565b6004805460408051602060026001851615610100026000190190941693909304601f810184900484028201840190925281815292918301828280156107c15780601f10610796576101008083540402835291602001916107c1565b60008054600160a060020a03163314610f2257600080fd5b5030315b90565b60008054600160a060020a03163314610f4157600080fd5b506008805490829055604080516020810183905280820184905260608082526019908201527f53656c6c207469636b6574207072696365206368616e67656400000000000000608082015290516000805160206112988339815191529181900360a00190a15050565b60008054600160a060020a03163314610fc257600080fd5b506005805490829055604080516020810183905280820184905260608082526019908201527f53656c6c207469636b6574207072696365206368616e67656400000000000000608082015290516000805160206112988339815191529181900360a00190a15050565b60008054600160a060020a0316331461104357600080fd5b506006805490829055604080516020810183905280820184905260608082526019908201527f4e756d626572206f662077696e6e657273206368616e67656400000000000000608082015290516000805160206112988339815191529181900360a00190a15050565b60008054600160a060020a031633146110c457600080fd5b50600a805490829055604080516020810183905280820184905260608082526021908201527f4f7261636c697a6520637573746f6d20676173207072696365206368616e676560808201527f640000000000000000000000000000000000000000000000000000000000000060a082015290516000805160206112988339815191529181900360c00190a15050565b60075481565b60085481565b600054600160a060020a0316331461117657600080fd5b61117f81611182565b50565b600160a060020a038116151561119757600080fd5b60008054604051600160a060020a03808516939216917f8be0079c531659141344cd1fd0a4f28419497f9722a3daafe3b4186f6b6457e091a36000805473ffffffffffffffffffffffffffffffffffffffff1916600160a060020a0392909216919091179055565b828054600181600116156101000203166002900490600052602060002090601f016020900481019282601f1061124057805160ff191683800117855561126d565b8280016001018555821561126d579182015b8281111561126d578251825591602001919060010190611252565b5061127992915061127d565b5090565b610f2691905b80821115611279576000815560010161128356009bc068999fb1a0aac007a9b44ca6322a376441f42706bf5163600bb3d1a731647ecbd54b3baea533cf57ef049f9e04554be6a660d6dacd477488066eedf27beea165627a7a723058204098706973cf1f93327b2004f109d758a98309cf6a16a6864f036983998118910029",
  "source": "pragma solidity ^0.4.20;\nimport \"./Ownable.sol\";\nimport \"./SafeMath.sol\";\n\n\ncontract Lucky7Admin is Ownable{\n    using SafeMath for uint256;\n    \n    event numberModified(string feeType, uint _oldValue, uint _newValue);\n    event parameterModified(string parameter, string _oldValue, string _newValue);\n    event walletModified(string parameter, address _oldValue, address _newValue);\n\n    \n    string public b = \"1\";\n    string public n = \"8\";\n    string public p = \"10000\"; \n    string public j = \"20\";\n    \n    uint public numberOfLucky7Numbers = 7;\n    uint public numberOfWinners = 3;\n    \n    uint public generateTicketPrice = 0.005 ether;\n    uint public sellTicketPrice = 0.012 ether;\n    uint public oraclizeGasLimit = 300000 wei;\n    uint public oraclizeCustomGasPrice = 4000000000 wei;\n    address public enterpriseWallet = owner;\n    \n    function modifyNumberOfLucky7Numbers(uint _newValue) public onlyOwner{\n        uint oldValue = numberOfLucky7Numbers;\n        numberOfLucky7Numbers = _newValue;\n        numberModified(\"Sell ticket price changed\", oldValue, _newValue);\n    }\n    \n    function modifyNumberOfWinners(uint _newValue) public onlyOwner{\n        uint oldValue = numberOfWinners;\n        numberOfWinners = _newValue;\n        numberModified(\"Number of winners changed\", oldValue, _newValue);\n    }\n    \n    function modifySellTicketPrice(uint _newValue) public onlyOwner{\n        uint oldValue = sellTicketPrice;\n        sellTicketPrice = _newValue;\n        numberModified(\"Sell ticket price changed\", oldValue, _newValue);\n    }\n    \n    function modifyGenerateTicketPrice(uint _newValue) public onlyOwner{\n        uint oldValue = generateTicketPrice;\n        generateTicketPrice = _newValue;\n        numberModified(\"Generate ticket price changed\", oldValue, _newValue);\n        \n    }\n    \n    function modifyOraclizeGasLimit(uint _newValue) public onlyOwner{\n        uint oldValue = oraclizeGasLimit;\n        oraclizeGasLimit = _newValue;\n        numberModified(\"Oraclize gas limit changed\", oldValue, _newValue);\n    }\n    \n    function modifyOraclizeCustomGasPrice(uint _newValue) public onlyOwner{\n        uint oldValue = oraclizeCustomGasPrice;\n        oraclizeCustomGasPrice = _newValue;\n        numberModified(\"Oraclize custom gas price changed\", oldValue, _newValue);\n    }\n    \n    function modifyParameterB(string _newValue) public onlyOwner{\n        string memory oldValue = b;\n        b = _newValue;\n        parameterModified(\"Parameter b modified\", oldValue, _newValue);\n    }\n    \n    function modifyParameterN(string _newValue) public onlyOwner{\n        string memory oldValue = n;\n        n = _newValue;\n        parameterModified(\"Parameter n modified\", oldValue, _newValue);\n    }\n    \n    function modifyParameterP(string _newValue) public onlyOwner{\n        string memory oldValue = p;\n        p = _newValue;\n        parameterModified(\"Parameter p modified\", oldValue, _newValue);\n    }\n    \n    function modifyParameterJ(string _newValue) public onlyOwner{\n        string memory oldValue = j;\n        j = _newValue;\n        parameterModified(\"Parameter j modified\", oldValue, _newValue);\n    }\n    \n    function modifyEnterprisePrize(address _newAddress) public onlyOwner{\n        address oldAddress = enterpriseWallet;\n        enterpriseWallet = _newAddress;\n        walletModified(\"Enterprise wallet changed\", oldAddress, _newAddress);\n    }\n    \n    function balance() public view onlyOwner returns(uint256){\n        return address(this).balance;\n    }\n}   \n                                           \n",
  "sourcePath": "/Users/matiasbarrios/Desktop/Proyecto Consensys/luckyseven/contracts/Lucky7Admin.sol",
  "compiler": {
    "name": "solc",
    "version": "0.4.24+commit.e67f0147.Emscripten.clang"
  },
  "schemaVersion": "2.0.1",
  "updatedAt": "2018-08-24T13:16:41.254Z"
}