{
  "contractName": "Lucky7Ballot",
  "abi": [
    {
      "constant": false,
      "inputs": [
        {
          "name": "_newValue",
          "type": "string"
        }
      ],
      "name": "modifyParameterN",
      "outputs": [],
      "payable": false,
      "stateMutability": "nonpayable",
      "type": "function"
    },
    {
      "constant": true,
      "inputs": [
        {
          "name": "",
          "type": "uint256"
        }
      ],
      "name": "lucky7TicketID",
      "outputs": [
        {
          "name": "",
          "type": "uint256"
        }
      ],
      "payable": false,
      "stateMutability": "view",
      "type": "function"
    },
    {
      "constant": true,
      "inputs": [
        {
          "name": "",
          "type": "uint256"
        }
      ],
      "name": "lucky7TicketOwner",
      "outputs": [
        {
          "name": "",
          "type": "address"
        }
      ],
      "payable": false,
      "stateMutability": "view",
      "type": "function"
    },
    {
      "constant": false,
      "inputs": [
        {
          "name": "_ticketOwner",
          "type": "address"
        }
      ],
      "name": "_askForMuParameter",
      "outputs": [],
      "payable": false,
      "stateMutability": "nonpayable",
      "type": "function"
    },
    {
      "constant": false,
      "inputs": [
        {
          "name": "myid",
          "type": "bytes32"
        },
        {
          "name": "result",
          "type": "string"
        }
      ],
      "name": "__callback",
      "outputs": [],
      "payable": false,
      "stateMutability": "nonpayable",
      "type": "function"
    },
    {
      "constant": true,
      "inputs": [],
      "name": "settingLucky7Numbers",
      "outputs": [
        {
          "name": "",
          "type": "bool"
        }
      ],
      "payable": false,
      "stateMutability": "view",
      "type": "function"
    },
    {
      "constant": false,
      "inputs": [
        {
          "name": "_ticketID",
          "type": "uint256"
        }
      ],
      "name": "_checkForLucky7Ticket",
      "outputs": [],
      "payable": false,
      "stateMutability": "nonpayable",
      "type": "function"
    },
    {
      "constant": true,
      "inputs": [],
      "name": "n",
      "outputs": [
        {
          "name": "",
          "type": "string"
        }
      ],
      "payable": false,
      "stateMutability": "view",
      "type": "function"
    },
    {
      "constant": false,
      "inputs": [
        {
          "name": "myid",
          "type": "bytes32"
        },
        {
          "name": "result",
          "type": "string"
        },
        {
          "name": "proof",
          "type": "bytes"
        }
      ],
      "name": "__callback",
      "outputs": [],
      "payable": false,
      "stateMutability": "nonpayable",
      "type": "function"
    },
    {
      "constant": true,
      "inputs": [
        {
          "name": "",
          "type": "uint256"
        }
      ],
      "name": "lucky7Tickets",
      "outputs": [
        {
          "name": "difference",
          "type": "uint256"
        },
        {
          "name": "owner",
          "type": "address"
        },
        {
          "name": "ticketID",
          "type": "uint256"
        },
        {
          "name": "ticketValue",
          "type": "uint256"
        },
        {
          "name": "lucky7Number",
          "type": "uint256"
        },
        {
          "name": "lucky7NumberID",
          "type": "uint256"
        },
        {
          "name": "drawID",
          "type": "uint256"
        }
      ],
      "payable": false,
      "stateMutability": "view",
      "type": "function"
    },
    {
      "constant": false,
      "inputs": [],
      "name": "toggleLucky7Setting",
      "outputs": [],
      "payable": false,
      "stateMutability": "nonpayable",
      "type": "function"
    },
    {
      "constant": false,
      "inputs": [
        {
          "name": "_newValue",
          "type": "string"
        }
      ],
      "name": "modifyParameterJ",
      "outputs": [],
      "payable": false,
      "stateMutability": "nonpayable",
      "type": "function"
    },
    {
      "constant": true,
      "inputs": [
        {
          "name": "",
          "type": "uint256"
        }
      ],
      "name": "lucky7Numbers",
      "outputs": [
        {
          "name": "mu",
          "type": "string"
        },
        {
          "name": "i",
          "type": "string"
        },
        {
          "name": "ticketValue",
          "type": "uint256"
        },
        {
          "name": "drawID",
          "type": "uint256"
        }
      ],
      "payable": false,
      "stateMutability": "view",
      "type": "function"
    },
    {
      "constant": true,
      "inputs": [
        {
          "name": "",
          "type": "address"
        }
      ],
      "name": "userValues",
      "outputs": [
        {
          "name": "mu",
          "type": "string"
        },
        {
          "name": "i",
          "type": "string"
        },
        {
          "name": "ticketValue",
          "type": "uint256"
        },
        {
          "name": "muReady",
          "type": "bool"
        },
        {
          "name": "iReady",
          "type": "bool"
        },
        {
          "name": "userPaidTicket",
          "type": "bool"
        }
      ],
      "payable": false,
      "stateMutability": "view",
      "type": "function"
    },
    {
      "constant": true,
      "inputs": [],
      "name": "b",
      "outputs": [
        {
          "name": "",
          "type": "string"
        }
      ],
      "payable": false,
      "stateMutability": "view",
      "type": "function"
    },
    {
      "constant": true,
      "inputs": [
        {
          "name": "",
          "type": "uint256"
        }
      ],
      "name": "tickets",
      "outputs": [
        {
          "name": "mu",
          "type": "string"
        },
        {
          "name": "i",
          "type": "string"
        },
        {
          "name": "ticketValue",
          "type": "uint256"
        },
        {
          "name": "owner",
          "type": "address"
        },
        {
          "name": "drawID",
          "type": "uint256"
        }
      ],
      "payable": false,
      "stateMutability": "view",
      "type": "function"
    },
    {
      "constant": true,
      "inputs": [],
      "name": "oraclizeGasLimit",
      "outputs": [
        {
          "name": "",
          "type": "uint256"
        }
      ],
      "payable": false,
      "stateMutability": "view",
      "type": "function"
    },
    {
      "constant": true,
      "inputs": [],
      "name": "numberOfLucky7Numbers",
      "outputs": [
        {
          "name": "",
          "type": "uint256"
        }
      ],
      "payable": false,
      "stateMutability": "view",
      "type": "function"
    },
    {
      "constant": false,
      "inputs": [],
      "name": "renounceOwnership",
      "outputs": [],
      "payable": false,
      "stateMutability": "nonpayable",
      "type": "function"
    },
    {
      "constant": true,
      "inputs": [],
      "name": "enterpriseWallet",
      "outputs": [
        {
          "name": "",
          "type": "address"
        }
      ],
      "payable": false,
      "stateMutability": "view",
      "type": "function"
    },
    {
      "constant": false,
      "inputs": [
        {
          "name": "_ticketOwner",
          "type": "address"
        }
      ],
      "name": "_generateTicket",
      "outputs": [],
      "payable": false,
      "stateMutability": "nonpayable",
      "type": "function"
    },
    {
      "constant": false,
      "inputs": [
        {
          "name": "_newValue",
          "type": "uint256"
        }
      ],
      "name": "modifyOraclizeGasLimit",
      "outputs": [],
      "payable": false,
      "stateMutability": "nonpayable",
      "type": "function"
    },
    {
      "constant": false,
      "inputs": [
        {
          "name": "_newValue",
          "type": "string"
        }
      ],
      "name": "modifyParameterB",
      "outputs": [],
      "payable": false,
      "stateMutability": "nonpayable",
      "type": "function"
    },
    {
      "constant": false,
      "inputs": [
        {
          "name": "_newValue",
          "type": "uint256"
        }
      ],
      "name": "modifyGenerateTicketPrice",
      "outputs": [],
      "payable": false,
      "stateMutability": "nonpayable",
      "type": "function"
    },
    {
      "constant": true,
      "inputs": [],
      "name": "numberOfWinners",
      "outputs": [
        {
          "name": "",
          "type": "uint256"
        }
      ],
      "payable": false,
      "stateMutability": "view",
      "type": "function"
    },
    {
      "constant": true,
      "inputs": [],
      "name": "owner",
      "outputs": [
        {
          "name": "",
          "type": "address"
        }
      ],
      "payable": false,
      "stateMutability": "view",
      "type": "function"
    },
    {
      "constant": false,
      "inputs": [
        {
          "name": "_newAddress",
          "type": "address"
        }
      ],
      "name": "modifyEnterprisePrize",
      "outputs": [],
      "payable": false,
      "stateMutability": "nonpayable",
      "type": "function"
    },
    {
      "constant": true,
      "inputs": [],
      "name": "oraclizeCustomGasPrice",
      "outputs": [
        {
          "name": "",
          "type": "uint256"
        }
      ],
      "payable": false,
      "stateMutability": "view",
      "type": "function"
    },
    {
      "constant": true,
      "inputs": [],
      "name": "p",
      "outputs": [
        {
          "name": "",
          "type": "string"
        }
      ],
      "payable": false,
      "stateMutability": "view",
      "type": "function"
    },
    {
      "constant": false,
      "inputs": [
        {
          "name": "_newValue",
          "type": "string"
        }
      ],
      "name": "modifyParameterP",
      "outputs": [],
      "payable": false,
      "stateMutability": "nonpayable",
      "type": "function"
    },
    {
      "constant": true,
      "inputs": [],
      "name": "j",
      "outputs": [
        {
          "name": "",
          "type": "string"
        }
      ],
      "payable": false,
      "stateMutability": "view",
      "type": "function"
    },
    {
      "constant": true,
      "inputs": [],
      "name": "balance",
      "outputs": [
        {
          "name": "",
          "type": "uint256"
        }
      ],
      "payable": false,
      "stateMutability": "view",
      "type": "function"
    },
    {
      "constant": true,
      "inputs": [],
      "name": "initialLucky7TicketPosition",
      "outputs": [
        {
          "name": "",
          "type": "uint256"
        }
      ],
      "payable": false,
      "stateMutability": "view",
      "type": "function"
    },
    {
      "constant": false,
      "inputs": [
        {
          "name": "_newValue",
          "type": "uint256"
        }
      ],
      "name": "modifySellTicketPrice",
      "outputs": [],
      "payable": false,
      "stateMutability": "nonpayable",
      "type": "function"
    },
    {
      "constant": true,
      "inputs": [],
      "name": "indexForLucky7Array",
      "outputs": [
        {
          "name": "",
          "type": "uint256"
        }
      ],
      "payable": false,
      "stateMutability": "view",
      "type": "function"
    },
    {
      "constant": false,
      "inputs": [
        {
          "name": "_newValue",
          "type": "uint256"
        }
      ],
      "name": "modifyNumberOfLucky7Numbers",
      "outputs": [],
      "payable": false,
      "stateMutability": "nonpayable",
      "type": "function"
    },
    {
      "constant": false,
      "inputs": [
        {
          "name": "_newValue",
          "type": "uint256"
        }
      ],
      "name": "modifyNumberOfWinners",
      "outputs": [],
      "payable": false,
      "stateMutability": "nonpayable",
      "type": "function"
    },
    {
      "constant": false,
      "inputs": [
        {
          "name": "_newValue",
          "type": "uint256"
        }
      ],
      "name": "modifyOraclizeCustomGasPrice",
      "outputs": [],
      "payable": false,
      "stateMutability": "nonpayable",
      "type": "function"
    },
    {
      "constant": true,
      "inputs": [],
      "name": "generateTicketPrice",
      "outputs": [
        {
          "name": "",
          "type": "uint256"
        }
      ],
      "payable": false,
      "stateMutability": "view",
      "type": "function"
    },
    {
      "constant": true,
      "inputs": [],
      "name": "drawNumber",
      "outputs": [
        {
          "name": "",
          "type": "uint256"
        }
      ],
      "payable": false,
      "stateMutability": "view",
      "type": "function"
    },
    {
      "constant": false,
      "inputs": [
        {
          "name": "_ticketOwner",
          "type": "address"
        }
      ],
      "name": "_askForTicket",
      "outputs": [],
      "payable": false,
      "stateMutability": "nonpayable",
      "type": "function"
    },
    {
      "constant": true,
      "inputs": [],
      "name": "sellTicketPrice",
      "outputs": [
        {
          "name": "",
          "type": "uint256"
        }
      ],
      "payable": false,
      "stateMutability": "view",
      "type": "function"
    },
    {
      "constant": true,
      "inputs": [
        {
          "name": "",
          "type": "uint256"
        }
      ],
      "name": "lucky7TicketDifference",
      "outputs": [
        {
          "name": "",
          "type": "uint256"
        }
      ],
      "payable": false,
      "stateMutability": "view",
      "type": "function"
    },
    {
      "constant": false,
      "inputs": [
        {
          "name": "_newOwner",
          "type": "address"
        }
      ],
      "name": "transferOwnership",
      "outputs": [],
      "payable": false,
      "stateMutability": "nonpayable",
      "type": "function"
    },
    {
      "constant": true,
      "inputs": [
        {
          "name": "",
          "type": "address"
        }
      ],
      "name": "pendingWithdrawals",
      "outputs": [
        {
          "name": "",
          "type": "uint256"
        }
      ],
      "payable": false,
      "stateMutability": "view",
      "type": "function"
    },
    {
      "constant": false,
      "inputs": [
        {
          "name": "_ticketOwner",
          "type": "address"
        }
      ],
      "name": "_askForIParameter",
      "outputs": [],
      "payable": false,
      "stateMutability": "nonpayable",
      "type": "function"
    },
    {
      "inputs": [],
      "payable": true,
      "stateMutability": "payable",
      "type": "constructor"
    },
    {
      "payable": true,
      "stateMutability": "payable",
      "type": "fallback"
    },
    {
      "anonymous": false,
      "inputs": [
        {
          "indexed": false,
          "name": "description",
          "type": "string"
        }
      ],
      "name": "newOraclizeQuery",
      "type": "event"
    },
    {
      "anonymous": false,
      "inputs": [
        {
          "indexed": false,
          "name": "parameterOwner",
          "type": "address"
        },
        {
          "indexed": false,
          "name": "muParameter",
          "type": "string"
        }
      ],
      "name": "newMuReceived",
      "type": "event"
    },
    {
      "anonymous": false,
      "inputs": [
        {
          "indexed": false,
          "name": "parameterOwner",
          "type": "address"
        },
        {
          "indexed": false,
          "name": "iParameter",
          "type": "string"
        }
      ],
      "name": "newIReceived",
      "type": "event"
    },
    {
      "anonymous": false,
      "inputs": [
        {
          "indexed": false,
          "name": "parameterOwner",
          "type": "address"
        },
        {
          "indexed": false,
          "name": "newTicket",
          "type": "string"
        }
      ],
      "name": "newTicketReceived",
      "type": "event"
    },
    {
      "anonymous": false,
      "inputs": [
        {
          "indexed": false,
          "name": "feeType",
          "type": "string"
        },
        {
          "indexed": false,
          "name": "_oldValue",
          "type": "uint256"
        },
        {
          "indexed": false,
          "name": "_newValue",
          "type": "uint256"
        }
      ],
      "name": "numberModified",
      "type": "event"
    },
    {
      "anonymous": false,
      "inputs": [
        {
          "indexed": false,
          "name": "parameter",
          "type": "string"
        },
        {
          "indexed": false,
          "name": "_oldValue",
          "type": "string"
        },
        {
          "indexed": false,
          "name": "_newValue",
          "type": "string"
        }
      ],
      "name": "parameterModified",
      "type": "event"
    },
    {
      "anonymous": false,
      "inputs": [
        {
          "indexed": false,
          "name": "parameter",
          "type": "string"
        },
        {
          "indexed": false,
          "name": "_oldValue",
          "type": "address"
        },
        {
          "indexed": false,
          "name": "_newValue",
          "type": "address"
        }
      ],
      "name": "walletModified",
      "type": "event"
    },
    {
      "anonymous": false,
      "inputs": [
        {
          "indexed": true,
          "name": "previousOwner",
          "type": "address"
        }
      ],
      "name": "OwnershipRenounced",
      "type": "event"
    },
    {
      "anonymous": false,
      "inputs": [
        {
          "indexed": true,
          "name": "previousOwner",
          "type": "address"
        },
        {
          "indexed": true,
          "name": "newOwner",
          "type": "address"
        }
      ],
      "name": "OwnershipTransferred",
      "type": "event"
    },
    {
      "constant": false,
      "inputs": [],
      "name": "_generateLucky7Number",
      "outputs": [],
      "payable": false,
      "stateMutability": "nonpayable",
      "type": "function"
    },
    {
      "constant": false,
      "inputs": [],
      "name": "setNewGame",
      "outputs": [],
      "payable": false,
      "stateMutability": "nonpayable",
      "type": "function"
    },
    {
      "constant": false,
      "inputs": [],
      "name": "_orderLucky7Numbers",
      "outputs": [],
      "payable": false,
      "stateMutability": "nonpayable",
      "type": "function"
    },
    {
      "constant": false,
      "inputs": [],
      "name": "_orderLucky7Tickets",
      "outputs": [],
      "payable": false,
      "stateMutability": "nonpayable",
      "type": "function"
    },
    {
      "constant": false,
      "inputs": [],
      "name": "_deliverPrizes",
      "outputs": [],
      "payable": false,
      "stateMutability": "nonpayable",
      "type": "function"
    },
    {
      "constant": false,
      "inputs": [],
      "name": "withdraw",
      "outputs": [],
      "payable": false,
      "stateMutability": "nonpayable",
      "type": "function"
    },
    {
      "constant": true,
      "inputs": [],
      "name": "getlucky7Numbers",
      "outputs": [
        {
          "name": "",
          "type": "uint256[7]"
        }
      ],
      "payable": false,
      "stateMutability": "view",
      "type": "function"
    },
    {
      "constant": true,
      "inputs": [],
      "name": "getlucky7Tickets",
      "outputs": [
        {
          "name": "",
          "type": "uint256[7]"
        }
      ],
      "payable": false,
      "stateMutability": "view",
      "type": "function"
    }
  ],
  "bytecode": "0x60c0604052600160808190527f310000000000000000000000000000000000000000000000000000000000000060a0908152620000409160069190620001b0565b506040805180820190915260018082527f380000000000000000000000000000000000000000000000000000000000000060209092019182526200008791600791620001b0565b506040805180820190915260058082527f31303030300000000000000000000000000000000000000000000000000000006020909201918252620000ce91600891620001b0565b506040805180820190915260028082527f323000000000000000000000000000000000000000000000000000000000000060209092019182526200011591600991620001b0565b506007600a556003600b556611c37937e08000600c55662aa1efb94e0000600d55620493e0600e5563ee6b2800600f556005805460108054600160a060020a0319908116600160a060020a038416179091556000601181905560128190556013805460ff19166001179055603981905591811633179092558054909116736f485c8bf6fc43ea212e93bbf8ce046c7f1cb47517905562000255565b828054600181600116156101000203166002900490600052602060002090601f016020900481019282601f10620001f357805160ff191683800117855562000223565b8280016001018555821562000223579182015b828111156200022357825182559160200191906001019062000206565b506200023192915062000235565b5090565b6200025291905b808211156200023157600081556001016200023c565b90565b61539280620002656000396000f30060806040526004361061026e5763ffffffff60e060020a60003504166301591f1381146102705780630cc38b2b146102bd57806310cd4b8a146103165780631c3ed1d3146103405780631cf4c3d11461037457806323d370ba1461038957806327dc297e146103aa5780632caf9eee146104085780632de729eb146104315780632e52d6061461044957806338bbfa50146104d3578063396fb4221461056f57806339df3f4f146105c75780633bb7daf4146105dc5780633ccfd60b146106355780633eba34661461064a578063400149111461074e5780634acfd9b8146107635780634df7e3d01461088257806350b447121461089757806350b9c428146109aa57806359f9fe82146109bf5780635edbc36b146109d4578063715018a6146109e9578063741606b5146109fe57806375edd25714610a1357806377d8a83014610a28578063809fc15314610a4957806383bb7bb714610a615780638aa5fafa14610aba5780638acfaca914610ad25780638da5cb5b14610ae757806390c31c4c14610afc57806396701ce914610b115780639ac2bf9114610b325780639ae8886a14610b475780639dec38ab14610b5c578063b582ec5f14610bb5578063b69ef8a814610bca578063bb49516b14610bdf578063bcb740ab14610bf4578063c56969ab14610c0c578063c71f04ac14610c21578063c90cdc7e14610c39578063d383e86214610c51578063d566bcf014610c69578063d80ffb2014610c7e578063ddc110fa14610c93578063e5663c4814610cb4578063e802ae1414610cc9578063f2fde38b14610ce1578063f3f4370314610d02578063f405228914610d23578063fd9be1b214610d38575b005b34801561027c57600080fd5b50610285610d59565b604051808260e080838360005b838110156102aa578181015183820152602001610292565b5050505090500191505060405180910390f35b3480156102c957600080fd5b506040805160206004803580820135601f810184900484028501840190955284845261026e943694929360249392840191908190840183828082843750949750610dd09650505050505050565b34801561032257600080fd5b5061032e600435610fb8565b60408051918252519081900360200190f35b34801561034c57600080fd5b50610358600435610fca565b60408051600160a060020a039092168252519081900360200190f35b34801561038057600080fd5b5061026e610fe5565b34801561039557600080fd5b5061026e600160a060020a03600435166113bb565b3480156103b657600080fd5b5060408051602060046024803582810135601f810185900485028601850190965285855261026e9583359536956044949193909101919081908401838280828437509497506114cd9650505050505050565b34801561041457600080fd5b5061041d611ae4565b604080519115158252519081900360200190f35b34801561043d57600080fd5b5061026e600435611aed565b34801561045557600080fd5b5061045e611d2f565b6040805160208082528351818301528351919283929083019185019080838360005b83811015610498578181015183820152602001610480565b50505050905090810190601f1680156104c55780820380516001836020036101000a031916815260200191505b509250505060405180910390f35b3480156104df57600080fd5b5060408051602060046024803582810135601f810185900485028601850190965285855261026e95833595369560449491939091019190819084018382808284375050604080516020601f89358b018035918201839004830284018301909452808352979a999881019791965091820194509250829150840183828082843750949750611dbd9650505050505050565b34801561057b57600080fd5b50610587600435611dc2565b60408051978852600160a060020a039096166020880152868601949094526060860192909252608085015260a084015260c0830152519081900360e00190f35b3480156105d357600080fd5b5061026e611e19565b3480156105e857600080fd5b506040805160206004803580820135601f810184900484028501840190955284845261026e943694929360249392840191908190840183828082843750949750611e449650505050505050565b34801561064157600080fd5b5061026e611f8a565b34801561065657600080fd5b50610662600435611fcb565b604051808060200180602001858152602001848152602001838103835287818151815260200191508051906020019080838360005b838110156106af578181015183820152602001610697565b50505050905090810190601f1680156106dc5780820380516001836020036101000a031916815260200191505b50838103825286518152865160209182019188019080838360005b8381101561070f5781810151838201526020016106f7565b50505050905090810190601f16801561073c5780820380516001836020036101000a031916815260200191505b50965050505050505060405180910390f35b34801561075a57600080fd5b5061026e612117565b34801561076f57600080fd5b50610784600160a060020a0360043516612152565b604080519081018590528315156060820152821515608082015281151560a082015260c08082528751908201528651819060208083019160e08401918b019080838360005b838110156107e15781810151838201526020016107c9565b50505050905090810190601f16801561080e5780820380516001836020036101000a031916815260200191505b5083810382528851815288516020918201918a019080838360005b83811015610841578181015183820152602001610829565b50505050905090810190601f16801561086e5780820380516001836020036101000a031916815260200191505b509850505050505050505060405180910390f35b34801561088e57600080fd5b5061045e6122b2565b3480156108a357600080fd5b506108af60043561230d565b60408051908101849052600160a060020a03831660608201526080810182905260a08082528651908201528551819060208083019160c08401918a019080838360005b8381101561090a5781810151838201526020016108f2565b50505050905090810190601f1680156109375780820380516001836020036101000a031916815260200191505b50838103825287518152875160209182019189019080838360005b8381101561096a578181015183820152602001610952565b50505050905090810190601f1680156109975780820380516001836020036101000a031916815260200191505b5097505050505050505060405180910390f35b3480156109b657600080fd5b5061032e61247a565b3480156109cb57600080fd5b5061032e612480565b3480156109e057600080fd5b50610285612486565b3480156109f557600080fd5b5061026e612517565b348015610a0a57600080fd5b50610358612578565b348015610a1f57600080fd5b5061026e612587565b348015610a3457600080fd5b5061026e600160a060020a03600435166129c5565b348015610a5557600080fd5b5061026e6004356129da565b348015610a6d57600080fd5b506040805160206004803580820135601f810184900484028501840190955284845261026e943694929360249392840191908190840183828082843750949750612a5d9650505050505050565b348015610ac657600080fd5b5061026e600435612ba3565b348015610ade57600080fd5b5061032e612c26565b348015610af357600080fd5b50610358612c2c565b348015610b0857600080fd5b5061026e612c3b565b348015610b1d57600080fd5b5061026e600160a060020a0360043516612c9c565b348015610b3e57600080fd5b5061032e612d4d565b348015610b5357600080fd5b5061045e612d53565b348015610b6857600080fd5b506040805160206004803580820135601f810184900484028501840190955284845261026e943694929360249392840191908190840183828082843750949750612dae9650505050505050565b348015610bc157600080fd5b5061045e612ef4565b348015610bd657600080fd5b5061032e612f4f565b348015610beb57600080fd5b5061032e612f70565b348015610c0057600080fd5b5061026e600435612f76565b348015610c1857600080fd5b5061032e612ff9565b348015610c2d57600080fd5b5061026e600435612fff565b348015610c4557600080fd5b5061026e600435613082565b348015610c5d57600080fd5b5061026e600435613105565b348015610c7557600080fd5b5061032e6131ae565b348015610c8a57600080fd5b5061032e6131b4565b348015610c9f57600080fd5b5061026e600160a060020a03600435166131ba565b348015610cc057600080fd5b5061032e6132a1565b348015610cd557600080fd5b5061032e6004356132a7565b348015610ced57600080fd5b5061026e600160a060020a03600435166132b9565b348015610d0e57600080fd5b5061032e600160a060020a03600435166132d9565b348015610d2f57600080fd5b5061026e6132eb565b348015610d4457600080fd5b5061026e600160a060020a03600435166136f1565b610d6161518a565b6000805b600a54811015610d9c5760168160078110610d7c57fe5b60040201600201548282600781101515610d9257fe5b0155600101610d65565b6040805160e081019182905290839060079082845b815481526020019060010190808311610db15750505050509250505090565b600554606090600160a060020a03163314610dea57600080fd5b6007805460408051602060026001851615610100026000190190941693909304601f81018490048402820184019092528181529291830182828015610e705780601f10610e4557610100808354040283529160200191610e70565b820191906000526020600020905b815481529060010190602001808311610e5357829003601f168201915b50508551939450610e8c936007935060208701925090506151a9565b50600080516020615347833981519152818360405180806020018060200180602001848103845260148152602001807f506172616d65746572206e206d6f646966696564000000000000000000000000815250602001848103835286818151815260200191508051906020019080838360005b83811015610f17578181015183820152602001610eff565b50505050905090810190601f168015610f445780820380516001836020036101000a031916815260200191505b50848103825285518152855160209182019187019080838360005b83811015610f77578181015183820152602001610f5f565b50505050905090810190601f168015610fa45780820380516001836020036101000a031916815260200191505b509550505050505060405180910390a15050565b60386020526000908152604090205481565b603760205260009081526040902054600160a060020a031681565b610fed615227565b60055460009081908190600160a060020a0316331461100b57600080fd5b5060005b600a54811015611139576040805160e0810182526000838152603660209081528382205483528482526037815283822054600160a060020a031681840152848252603880825284832054948401859052918590525260158054601493606084019291811061107957fe5b906000526020600020906005020160020154815260200160168460078110151561109f57fe5b600490810291909101600290810154835260208084018790526011546040948501528554600180820188556000978852968290208651600790920201908155908501518187018054600160a060020a031916600160a060020a0390921691909117905592840151908301556060830151600383015560808301519082015560a0820151600582015560c0909101516006909101550161100f565b506039545b603954600a54018110156113b55780925060148181548110151561115e57fe5b60009182526020918290206040805160e081018252600790930290910180548352600180820154600160a060020a0316948401949094526002810154918301919091526003810154606083015260048101546080830152600581015460a08301526006015460c08201529450810191505b603954600a540182101561128d5760148054839081106111eb57fe5b60009182526020909120600790910201548451111561128257601480548390811061121257fe5b60009182526020918290206040805160e0810182526007909302909101805483526001810154600160a060020a0316938301939093526002830154908201526003820154606082015260048201546080820152600582015460a082015260069091015460c0820152935090915081905b6001909101906111cf565b8281146113ad5760148054829081106112a257fe5b90600052602060002090600702016014848154811015156112bf57fe5b6000918252602090912082546007909202019081556001808301549082018054600160a060020a031916600160a060020a0390921691909117905560028083015490820155600380830154908201556004808301549082015560058083015490820155600691820154910155601480548591908390811061133c57fe5b600091825260209182902083516007929092020190815590820151600182018054600160a060020a031916600160a060020a0390921691909117905560408201516002820155606082015160038201556080820151600482015560a0820151600582015560c0909101516006909101555b60010161113e565b50505050565b60006113c8600f54613805565b604080516020808252808201527f41736b696e6720666f722061206e6577206d7520706172616d657465722e2e2e8183015290517f46cb989ef9cef13e930e3b7f286225a086e716a90d63e0b7da85d310a9db0c9a9181900360600190a161149d6040805190810160405280600c81526020017f576f6c6672616d416c70686100000000000000000000000000000000000000008152506040805190810160405280600f81526020017f342072616e646f6d206e756d6265720000000000000000000000000000000000815250600e546139eb565b60009081526033602052604090208054600160a060020a031916600160a060020a03939093169290921790915550565b6114d5613dec565b600160a060020a031633146114e957600080fd5b600082815260336020526040902054600160a060020a0316158015906115375750600082815260336020908152604080832054600160a060020a03168352603290915290206003015460ff16155b156116f957600082815260336020908152604080832054600160a060020a0316835260328252909120825161156e928401906151a9565b506000828152603360209081526040808320548151600160a060020a0390911680825281840183815286519383019390935285517f47eedbcfd0da23d2413b78bd7807ecbde2a9754fa0dc19185984a244d9cd773a959194879492606085019291860191908190849084905b838110156115f25781810151838201526020016115da565b50505050905090810190601f16801561161f5780820380516001836020036101000a031916815260200191505b50935050505060405180910390a160008281526033602090815260408083208054600160a060020a03908116855260329093528184206003908101805460ff191660019081179091559154909316845292200154610100900460ff1615151480156116ce5750600082815260336020908152604080832054600160a060020a03168352603290915290206003015460ff62010000909104161515600114806116ce575060135460ff1615156001145b156116f4576000828152603360205260409020546116f490600160a060020a03166131ba565b611ae0565b600082815260346020526040902054600160a060020a03161580159061174c5750600082815260346020908152604080832054600160a060020a031683526032909152902060030154610100900460ff16155b1561190c57600082815260346020908152604080832054600160a060020a03168352603282529091208251611789926001909201918401906151a9565b506000828152603460209081526040808320548151600160a060020a0390911680825281840183815286519383019390935285517f493aa57ad5f18480f956f6979e26052f3c3e9b6f4985b1331bfa696904e10cd5959194879492606085019291860191908190849084905b8381101561180d5781810151838201526020016117f5565b50505050905090810190601f16801561183a5780820380516001836020036101000a031916815260200191505b50935050505060405180910390a160008281526034602090815260408083208054600160a060020a03908116855260329093528184206003908101805461ff00191661010017905590549092168352909120015460ff16151560011480156118e65750600082815260346020908152604080832054600160a060020a03168352603290915290206003015460ff62010000909104161515600114806118e6575060135460ff1615156001145b156116f4576000828152603460205260409020546116f490600160a060020a03166131ba565b600082815260356020526040902054600160a060020a0316158015906119765750600082815260356020908152604080832054600160a060020a03168352603290915290206003015460ff6201000090910416151560011480611976575060135460ff1615156001145b15611ae05761198481613fdd565b60008381526035602081815260408084208054600160a060020a039081168652603284528286206002019690965587855292825291548251941680855284820183815286519386019390935285517f3c6507a39df055ecbb0672078b29c556fa529767da7d5676e77478914e3b5987959194879492936060850192908601918190849084905b83811015611a22578181015183820152602001611a0a565b50505050905090810190601f168015611a4f5780820380516001836020036101000a031916815260200191505b50935050505060405180910390a1600082815260356020908152604080832054600160a060020a0316835260329091529020600301805462ff00001916905560135460ff16151560011415611abf576000828152603560205260409020546116f490600160a060020a0316613ff0565b600082815260356020526040902054611ae090600160a060020a03166141f9565b5050565b60135460ff1681565b60008060008060166001600a5403600781101515611b0757fe5b6004020160020154601586815481101515611b1e57fe5b9060005260206000209060050201600201541115611b8d57600a54600019019350611b8660168560078110611b4f57fe5b6004020160020154601587815481101515611b6657fe5b90600052602060002090600502016002015461443490919063ffffffff16565b9250611c8e565b6018546015805487908110611b9e57fe5b9060005260206000209060050201600201541015611c035760009350611b86601586815481101515611bcc57fe5b906000526020600020906005020160020154601686600781101515611bed57fe5b600402016002015461443490919063ffffffff16565b60168460078110611c1057fe5b6004020160020154601586815481101515611c2757fe5b9060005260206000209060050201600201541115611c4a57600190930192611c03565b611c5e6016600019860160078110611b4f57fe5b9150611c72601586815481101515611bcc57fe5b905081811115611c8a57600184039350819250611c8e565b8092505b600084815260376020526040902054600160a060020a03161580611cbf575060008481526036602052604090205483105b15611d28576015805486908110611cd257fe5b60009182526020808320600360059093020191909101548683526037825260408084208054600160a060020a031916600160a060020a039093169290921790915560368252808320869055603890915290208590555b5050505050565b6007805460408051602060026001851615610100026000190190941693909304601f81018490048402820184019092528181529291830182828015611db55780601f10611d8a57610100808354040283529160200191611db5565b820191906000526020600020905b815481529060010190602001808311611d9857829003601f168201915b505050505081565b505050565b6014805482908110611dd057fe5b60009182526020909120600790910201805460018201546002830154600384015460048501546005860154600690960154949650600160a060020a039093169491939092919087565b600554600160a060020a03163314611e3057600080fd5b6013805460ff19811660ff90911615179055565b600554606090600160a060020a03163314611e5e57600080fd5b6009805460408051602060026001851615610100026000190190941693909304601f81018490048402820184019092528181529291830182828015611ee45780601f10611eb957610100808354040283529160200191611ee4565b820191906000526020600020905b815481529060010190602001808311611ec757829003601f168201915b50508551939450611f00936009935060208701925090506151a9565b50600080516020615347833981519152818360405180806020018060200180602001848103845260148152602001807f506172616d65746572206a206d6f6469666965640000000000000000000000008152506020018481038352868181518152602001915080519060200190808383600083811015610f17578181015183820152602001610eff565b336000818152603a6020526040808220805490839055905190929183156108fc02918491818181858888f19350505050158015611ae0573d6000803e3d6000fd5b60168160078110611fd857fe5b60040201805460408051602060026001851615610100026000190190941693909304601f810184900484028201840190925281815292935083918301828280156120635780601f1061203857610100808354040283529160200191612063565b820191906000526020600020905b81548152906001019060200180831161204657829003601f168201915b505050505090806001018054600181600116156101000203166002900480601f0160208091040260200160405190810160405280929190818152602001828054600181600116156101000203166002900480156121015780601f106120d657610100808354040283529160200191612101565b820191906000526020600020905b8154815290600101906020018083116120e457829003601f168201915b5050505050908060020154908060030154905084565b600554600160a060020a0316331461212e57600080fd5b600a5460115402603955612140611e19565b612148610fe5565b6121506132eb565b565b60326020908152600091825260409182902080548351601f600260001961010060018616150201909316929092049182018490048402810184019094528084529092918391908301828280156121e95780601f106121be576101008083540402835291602001916121e9565b820191906000526020600020905b8154815290600101906020018083116121cc57829003601f168201915b505050505090806001018054600181600116156101000203166002900480601f0160208091040260200160405190810160405280929190818152602001828054600181600116156101000203166002900480156122875780601f1061225c57610100808354040283529160200191612287565b820191906000526020600020905b81548152906001019060200180831161226a57829003601f168201915b50505050600283015460039093015491929160ff808216925061010082048116916201000090041686565b6006805460408051602060026001851615610100026000190190941693909304601f81018490048402820184019092528181529291830182828015611db55780601f10611d8a57610100808354040283529160200191611db5565b601580548290811061231b57fe5b60009182526020918290206005919091020180546040805160026001841615610100026000190190931692909204601f8101859004850283018501909152808252919350918391908301828280156123b45780601f10612389576101008083540402835291602001916123b4565b820191906000526020600020905b81548152906001019060200180831161239757829003601f168201915b505050505090806001018054600181600116156101000203166002900480601f0160208091040260200160405190810160405280929190818152602001828054600181600116156101000203166002900480156124525780601f1061242757610100808354040283529160200191612452565b820191906000526020600020905b81548152906001019060200180831161243557829003601f168201915b505050506002830154600384015460049094015492939092600160a060020a03909116915085565b600e5481565b600a5481565b61248e61518a565b6000805b600a54811015610d9c57600081815260376020526040902054600160a060020a0316156124fe576000818152603860205260409020546015805490919081106124d757fe5b90600052602060002090600502016002015482826007811015156124f757fe5b015561250f565b600082826007811061250c57fe5b01555b600101612492565b600554600160a060020a0316331461252e57600080fd5b600554604051600160a060020a03909116907ff8df31144d9c2f0f6b59d69b8b98abd5459d07f2742c4df920b25aae33c6482090600090a260058054600160a060020a0319169055565b601054600160a060020a031681565b61258f61526e565b60055460009081908190600160a060020a031633146125ad57600080fd5b5060005b600a548110156113b557915081601681600781106125cb57fe5b6040805160049290920292909201805460a06020601f60026000196101006001871615020190941693909304928301819004028401810190945260808301818152929391928492909184918401828280156126675780601f1061263c57610100808354040283529160200191612667565b820191906000526020600020905b81548152906001019060200180831161264a57829003601f168201915b50505050508152602001600182018054600181600116156101000203166002900480601f0160208091040260200160405190810160405280929190818152602001828054600181600116156101000203166002900480156127095780601f106126de57610100808354040283529160200191612709565b820191906000526020600020905b8154815290600101906020018083116126ec57829003601f168201915b505050505081526020016002820154815260200160038201548152505093508060010191505b600a548210156128d2576016826007811061274657fe5b6004020160020154846040015111156128c7576016826007811061276657fe5b6040805160049290920292909201805460a06020601f60026000196101006001871615020190941693909304928301819004028401810190945260808301818152929391928492909184918401828280156128025780601f106127d757610100808354040283529160200191612802565b820191906000526020600020905b8154815290600101906020018083116127e557829003601f168201915b50505050508152602001600182018054600181600116156101000203166002900480601f0160208091040260200160405190810160405280929190818152602001828054600181600116156101000203166002900480156128a45780601f10612879576101008083540402835291602001916128a4565b820191906000526020600020905b81548152906001019060200180831161288757829003601f168201915b505050505081526020016002820154815260200160038201548152505093508192505b60019091019061272f565b8281146129bd57601681600781106128e657fe5b60040201601684600781106128f757fe5b6004020160008201816000019080546001816001161561010002031660029004612922929190615297565b506001820181600101908054600181600116156101000203166002900461294a929190615297565b5060028281015490820155600391820154910155836016826007811061296c57fe5b60040201600082015181600001908051906020019061298c9291906151a9565b5060208281015180516129a592600185019201906151a9565b50604082015160028201556060909101516003909101555b6001016125b1565b6129ce816113bb565b6129d7816136f1565b50565b600554600090600160a060020a031633146129f457600080fd5b50600e80549082905560408051602081018390528082018490526060808252601a908201527f4f7261636c697a6520676173206c696d6974206368616e676564000000000000608082015290516000805160206153278339815191529181900360a00190a15050565b600554606090600160a060020a03163314612a7757600080fd5b6006805460408051602060026001851615610100026000190190941693909304601f81018490048402820184019092528181529291830182828015612afd5780601f10612ad257610100808354040283529160200191612afd565b820191906000526020600020905b815481529060010190602001808311612ae057829003601f168201915b50508551939450612b19936006935060208701925090506151a9565b50600080516020615347833981519152818360405180806020018060200180602001848103845260148152602001807f506172616d657465722062206d6f6469666965640000000000000000000000008152506020018481038352868181518152602001915080519060200190808383600083811015610f17578181015183820152602001610eff565b600554600090600160a060020a03163314612bbd57600080fd5b50600c80549082905560408051602081018390528082018490526060808252601d908201527f47656e6572617465207469636b6574207072696365206368616e676564000000608082015290516000805160206153278339815191529181900360a00190a15050565b600b5481565b600554600160a060020a031681565b600554600160a060020a03163314612c5257600080fd5b600a546012541415612c7857612c66612587565b6000601255612c73611e19565b612150565b306000818152603260205260409020600301805461ffff19169055612150906129c5565b600554600090600160a060020a03163314612cb657600080fd5b5060108054600160a060020a03838116600160a060020a0319831681179093556040805191909216602082018190528183019390935260608082526019908201527f456e74657270726973652077616c6c6574206368616e67656400000000000000608082015290517f223db053947bb148de510715d3c7d8ccd72bdd376752fd735ee7bd0bd0ece5bf9181900360a00190a15050565b600f5481565b6008805460408051602060026001851615610100026000190190941693909304601f81018490048402820184019092528181529291830182828015611db55780601f10611d8a57610100808354040283529160200191611db5565b600554606090600160a060020a03163314612dc857600080fd5b6008805460408051602060026001851615610100026000190190941693909304601f81018490048402820184019092528181529291830182828015612e4e5780601f10612e2357610100808354040283529160200191612e4e565b820191906000526020600020905b815481529060010190602001808311612e3157829003601f168201915b50508551939450612e6a936008935060208701925090506151a9565b50600080516020615347833981519152818360405180806020018060200180602001848103845260148152602001807f506172616d657465722070206d6f6469666965640000000000000000000000008152506020018481038352868181518152602001915080519060200190808383600083811015610f17578181015183820152602001610eff565b6009805460408051602060026001851615610100026000190190941693909304601f81018490048402820184019092528181529291830182828015611db55780601f10611d8a57610100808354040283529160200191611db5565b600554600090600160a060020a03163314612f6957600080fd5b5030315b90565b60395481565b600554600090600160a060020a03163314612f9057600080fd5b50600d805490829055604080516020810183905280820184905260608082526019908201527f53656c6c207469636b6574207072696365206368616e67656400000000000000608082015290516000805160206153278339815191529181900360a00190a15050565b60125481565b600554600090600160a060020a0316331461301957600080fd5b50600a805490829055604080516020810183905280820184905260608082526019908201527f53656c6c207469636b6574207072696365206368616e67656400000000000000608082015290516000805160206153278339815191529181900360a00190a15050565b600554600090600160a060020a0316331461309c57600080fd5b50600b805490829055604080516020810183905280820184905260608082526019908201527f4e756d626572206f662077696e6e657273206368616e67656400000000000000608082015290516000805160206153278339815191529181900360a00190a15050565b600554600090600160a060020a0316331461311f57600080fd5b50600f805490829055604080516020810183905280820184905260608082526021908201527f4f7261636c697a6520637573746f6d20676173207072696365206368616e676560808201527f640000000000000000000000000000000000000000000000000000000000000060a082015290516000805160206153278339815191529181900360c00190a15050565b600c5481565b60115481565b60006131c7600f54613805565b604080516020808252601a908201527f41736b696e6720666f722061206e6577207469636b65742e2e2e0000000000008183015290517f46cb989ef9cef13e930e3b7f286225a086e716a90d63e0b7da85d310a9db0c9a9181900360600190a16132716040805190810160405280600c81526020017f576f6c6672616d416c706861000000000000000000000000000000000000000081525061326984614446565b600e546139eb565b60009081526035602052604090208054600160a060020a031916600160a060020a03939093169290921790915550565b600d5481565b60366020526000908152604090205481565b600554600160a060020a031633146132d057600080fd5b6129d781614997565b603a6020526000908152604090205481565b6005546000908190819081908190600160a060020a0316331461330d57600080fd5b61331f3031600763ffffffff614a0816565b945061333285600a63ffffffff614a3116565b945061334585600663ffffffff614a0816565b935061335885600363ffffffff614a0816565b925061336b85600163ffffffff614a0816565b915061337e84600a63ffffffff614a3116565b935061339183600a63ffffffff614a3116565b92506133a482600a63ffffffff614a3116565b915060395490505b603954600a5401811015613443576014805460009190839081106133cc57fe5b6000918252602090912060016007909202010154600160a060020a03161461343b5783603a600060148481548110151561340257fe5b6000918252602080832060016007909302019190910154600160a060020a03168352820192909252604001902080549091019055613443565b6001016133ac565b6001015b603954600a54018110156134de5760148054600091908390811061346757fe5b6000918252602090912060016007909202010154600160a060020a0316146134d65782603a600060148481548110151561349d57fe5b6000918252602080832060016007909302019190910154600160a060020a031683528201929092526040019020805490910190556134de565b600101613447565b6001015b603954600a54018110156135795760148054600091908390811061350257fe5b6000918252602090912060016007909202010154600160a060020a0316146135715781603a600060148481548110151561353857fe5b6000918252602080832060016007909302019190910154600160a060020a03168352820192909252604001902080549091019055613579565b6001016134e2565b601180546001019055601054604051600160a060020a0390911690303180156108fc02916000818181858888f193505050501580156135bc573d6000803e3d6000fd5b50600090505b600a54811015611d285760008181526037602090815260408083208054600160a060020a03191690556036825280832083905560388252808320929092558151808301909252600182527f3000000000000000000000000000000000000000000000000000000000000000908201526016826007811061363e57fe5b6004020160000190805190602001906136589291906151a9565b5060408051808201909152600181527f300000000000000000000000000000000000000000000000000000000000000060208201526016826007811061369a57fe5b6004020160010190805190602001906136b49291906151a9565b506000601682600781106136c457fe5b60040201600201819055506011546016826007811015156136e157fe5b60040201600301556001016135c2565b60006136fe600f54613805565b604080516020808252601f908201527f41736b696e6720666f722061206e6577206920706172616d657465722e2e2e008183015290517f46cb989ef9cef13e930e3b7f286225a086e716a90d63e0b7da85d310a9db0c9a9181900360600190a16137d56040805190810160405280600c81526020017f576f6c6672616d416c70686100000000000000000000000000000000000000008152506040805190810160405280600f81526020017f342072616e646f6d206e756d6265720000000000000000000000000000000000815250600e546139eb565b60009081526034602052604090208054600160a060020a031916600160a060020a03939093169290921790915550565b600054600160a060020a0316158061382f575060005461382d90600160a060020a0316614a46565b155b156138405761383e6000614a4a565b505b6000809054906101000a9004600160a060020a0316600160a060020a03166338cc48316040518163ffffffff1660e060020a028152600401602060405180830381600087803b15801561389257600080fd5b505af11580156138a6573d6000803e3d6000fd5b505050506040513d60208110156138bc57600080fd5b5051600154600160a060020a03908116911614613971576000809054906101000a9004600160a060020a0316600160a060020a03166338cc48316040518163ffffffff1660e060020a028152600401602060405180830381600087803b15801561392557600080fd5b505af1158015613939573d6000803e3d6000fd5b505050506040513d602081101561394f57600080fd5b505160018054600160a060020a031916600160a060020a039092169190911790555b600154604080517fca6ad1e4000000000000000000000000000000000000000000000000000000008152600481018490529051600160a060020a039092169163ca6ad1e49160248082019260009290919082900301818387803b1580156139d757600080fd5b505af1158015611d28573d6000803e3d6000fd5b600080548190600160a060020a03161580613a185750600054613a1690600160a060020a0316614a46565b155b15613a2957613a276000614a4a565b505b6000809054906101000a9004600160a060020a0316600160a060020a03166338cc48316040518163ffffffff1660e060020a028152600401602060405180830381600087803b158015613a7b57600080fd5b505af1158015613a8f573d6000803e3d6000fd5b505050506040513d6020811015613aa557600080fd5b5051600154600160a060020a03908116911614613b5a576000809054906101000a9004600160a060020a0316600160a060020a03166338cc48316040518163ffffffff1660e060020a028152600401602060405180830381600087803b158015613b0e57600080fd5b505af1158015613b22573d6000803e3d6000fd5b505050506040513d6020811015613b3857600080fd5b505160018054600160a060020a031916600160a060020a039092169190911790555b600154604080517f2ef3accc0000000000000000000000000000000000000000000000000000000081526024810186905260048101918252875160448201528751600160a060020a0390931692632ef3accc9289928892829160640190602086019080838360005b83811015613bda578181015183820152602001613bc2565b50505050905090810190601f168015613c075780820380516001836020036101000a031916815260200191505b509350505050602060405180830381600087803b158015613c2757600080fd5b505af1158015613c3b573d6000803e3d6000fd5b505050506040513d6020811015613c5157600080fd5b50519050670de0b6b3a76400003a840201811115613c725760009150613de4565b6001546040517fc51be90f00000000000000000000000000000000000000000000000000000000815260006004820181815260648301879052608060248401908152895160848501528951600160a060020a039095169463c51be90f948794938c938c938c93604481019160a49091019060208801908083838c5b83811015613d05578181015183820152602001613ced565b50505050905090810190601f168015613d325780820380516001836020036101000a031916815260200191505b50838103825285518152855160209182019187019080838360005b83811015613d65578181015183820152602001613d4d565b50505050905090810190601f168015613d925780820380516001836020036101000a031916815260200191505b5096505050505050506020604051808303818588803b158015613db457600080fd5b505af1158015613dc8573d6000803e3d6000fd5b50505050506040513d6020811015613ddf57600080fd5b505191505b509392505050565b60008054600160a060020a03161580613e175750600054613e1590600160a060020a0316614a46565b155b15613e2857613e266000614a4a565b505b6000809054906101000a9004600160a060020a0316600160a060020a03166338cc48316040518163ffffffff1660e060020a028152600401602060405180830381600087803b158015613e7a57600080fd5b505af1158015613e8e573d6000803e3d6000fd5b505050506040513d6020811015613ea457600080fd5b5051600154600160a060020a03908116911614613f59576000809054906101000a9004600160a060020a0316600160a060020a03166338cc48316040518163ffffffff1660e060020a028152600401602060405180830381600087803b158015613f0d57600080fd5b505af1158015613f21573d6000803e3d6000fd5b505050506040513d6020811015613f3757600080fd5b505160018054600160a060020a031916600160a060020a039092169190911790555b600160009054906101000a9004600160a060020a0316600160a060020a031663c281d19e6040518163ffffffff1660e060020a028152600401602060405180830381600087803b158015613fac57600080fd5b505af1158015613fc0573d6000803e3d6000fd5b505050506040513d6020811015613fd657600080fd5b5051905090565b6000613fea826000614a54565b92915050565b60408051600160a060020a03831660009081526032602090815290839020805460026001821615610100026000190190911604601f8101839004909202830160a0908101909452608083018281529293849392908401828280156140955780601f1061406a57610100808354040283529160200191614095565b820191906000526020600020905b81548152906001019060200180831161407857829003601f168201915b505050505081526020016032600084600160a060020a0316600160a060020a031681526020019081526020016000206001018054600181600116156101000203166002900480601f01602080910402602001604051908101604052809291908181526020018280546001816001161561010002031660029004801561415b5780601f106141305761010080835404028352916020019161415b565b820191906000526020600020905b81548152906001019060200180831161413e57829003601f168201915b5050509183525050600160a060020a03831660009081526032602090815260409182902060020154908301526011549101526012546016906007811061419d57fe5b6004020160008201518160000190805190602001906141bd9291906151a9565b5060208281015180516141d692600185019201906151a9565b506040820151600282015560609091015160039091015550601280546001019055565b60408051600160a060020a03831660009081526032602090815283822080546002600180831615610100026000190190921604601f8101849004909302850160c090810190965260a08501838152939590946015949093849391928401828280156142a55780601f1061427a576101008083540402835291602001916142a5565b820191906000526020600020905b81548152906001019060200180831161428857829003601f168201915b505050505081526020016032600087600160a060020a0316600160a060020a031681526020019081526020016000206001018054600181600116156101000203166002900480601f01602080910402602001604051908101604052809291908181526020018280546001816001161561010002031660029004801561436b5780601f106143405761010080835404028352916020019161436b565b820191906000526020600020905b81548152906001019060200180831161434e57829003601f168201915b5050509183525050600160a060020a0386166000818152603260209081526040808320600201548286015284019290925260115460609093019290925283546001810180865594835291819020835180516005909402909101926143d292849201906151a9565b5060208281015180516143eb92600185019201906151a9565b50604082015160028201556060820151600382018054600160a060020a031916600160a060020a03909216919091179055608090910151600490910155039050611ae081611aed565b60008282111561444057fe5b50900390565b604080518082018252600b81527f6d6f642828312f2831305e000000000000000000000000000000000000000000602080830191909152600780548451601f60026000196101006001861615020190931692909204918201849004840281018401909552808552606094859485946146229491939083018282801561450c5780601f106144e15761010080835404028352916020019161450c565b820191906000526020600020905b8154815290600101906020018083116144ef57829003601f168201915b505060408051808201825260018082527f2d00000000000000000000000000000000000000000000000000000000000000602080840191909152600160a060020a038e1660009081526032825284902080548551600294821615610100026000190190911693909304601f81018390048302840183019095528483529296509094509092508301828280156145e25780601f106145b7576101008083540402835291602001916145e2565b820191906000526020600020905b8154815290600101906020018083116145c557829003601f168201915b50505050506040805190810160405280601081526020017f29292a31305e31303030302c31305e2800000000000000000000000000000000815250614bc6565b60098054604080516020601f600260001961010060018816150201909516949094049384018190048102820181019092528281529395506147cc938693909290918301828280156146b45780601f10614689576101008083540402835291602001916146b4565b820191906000526020600020905b81548152906001019060200180831161469757829003601f168201915b505060408051808201825260018082527f2b00000000000000000000000000000000000000000000000000000000000000602080840191909152600160a060020a038e16600090815260328252849020820180548551600294821615610100026000190190911693909304601f810183900483028401830190955284835292965090945090925083018282801561478c5780601f106147615761010080835404028352916020019161478c565b820191906000526020600020905b81548152906001019060200180831161476f57829003601f168201915b50505050506040805190810160405280600281526020017f2929000000000000000000000000000000000000000000000000000000000000815250614bc6565b60408051808201825260018082527f2d00000000000000000000000000000000000000000000000000000000000000602080840191909152600160a060020a038916600090815260328252849020820180548551600294821615610100026000190190911693909304601f810183900483028401830190955284835294955061487a94869488939283018282801561478c5780601f106147615761010080835404028352916020019161478c565b60408051808201825260018082527f280000000000000000000000000000000000000000000000000000000000000060208084019190915283518085018552600581527f292f31305e00000000000000000000000000000000000000000000000000000081830152600160a060020a038a16600090815260328352859020830180548651600295821615610100026000190190911694909404601f810184900484028501840190965285845295965061498f95939487949193928301828280156149855780601f1061495a57610100808354040283529160200191614985565b820191906000526020600020905b81548152906001019060200180831161496857829003601f168201915b5050505050614e27565b949350505050565b600160a060020a03811615156149ac57600080fd5b600554604051600160a060020a038084169216907f8be0079c531659141344cd1fd0a4f28419497f9722a3daafe3b4186f6b6457e090600090a360058054600160a060020a031916600160a060020a0392909216919091179055565b6000821515614a1957506000613fea565b50818102818382811515614a2957fe5b0414613fea57fe5b60008183811515614a3e57fe5b049392505050565b3b90565b6000613fea614e4f565b6000828180805b8351811015614ba95783517f300000000000000000000000000000000000000000000000000000000000000090859083908110614a9457fe5b90602001015160f860020a900460f860020a02600160f860020a03191610158015614b0a575083517f390000000000000000000000000000000000000000000000000000000000000090859083908110614aea57fe5b90602001015160f860020a900460f860020a02600160f860020a03191611155b15614b63578115614b2957851515614b2157614ba9565b600019909501945b600a8302925060308482815181101515614b3f57fe5b90602001015160f860020a900460f860020a0260f860020a90040383019250614ba1565b8381815181101515614b7157fe5b90602001015160f860020a900460f860020a02600160f860020a031916602e60f860020a021415614ba157600191505b600101614a5b565b6000861115614bbb5785600a0a830292505b509095945050505050565b6060806060806060806060806000808e98508d97508c96508b95508a94508451865188518a518c51010101016040519080825280601f01601f191660200182016040528015614c1f578160200160208202803883390190505b50935083925060009150600090505b8851811015614c8c578881815181101515614c4557fe5b90602001015160f860020a900460f860020a028383806001019450815181101515614c6c57fe5b906020010190600160f860020a031916908160001a905350600101614c2e565b5060005b8751811015614cee578781815181101515614ca757fe5b90602001015160f860020a900460f860020a028383806001019450815181101515614cce57fe5b906020010190600160f860020a031916908160001a905350600101614c90565b5060005b8651811015614d50578681815181101515614d0957fe5b90602001015160f860020a900460f860020a028383806001019450815181101515614d3057fe5b906020010190600160f860020a031916908160001a905350600101614cf2565b5060005b8551811015614db2578581815181101515614d6b57fe5b90602001015160f860020a900460f860020a028383806001019450815181101515614d9257fe5b906020010190600160f860020a031916908160001a905350600101614d54565b5060005b8451811015614e14578481815181101515614dcd57fe5b90602001015160f860020a900460f860020a028383806001019450815181101515614df457fe5b906020010190600160f860020a031916908160001a905350600101614db6565b50909d9c50505050505050505050505050565b6060614e46858585856020604051908101604052806000815250614bc6565b95945050505050565b600080614e6f731d3b2638a7cc9f2cb3d298a3da7a90b67e5506ed614a46565b1115614ee05760008054600160a060020a031916731d3b2638a7cc9f2cb3d298a3da7a90b67e5506ed17905560408051808201909152600b81527f6574685f6d61696e6e65740000000000000000000000000000000000000000006020820152614ed890615177565b506001612f6d565b6000614eff73c03a2615d5efaf5f49f60b7bb6583eaec212fdf1614a46565b1115614f685760008054600160a060020a03191673c03a2615d5efaf5f49f60b7bb6583eaec212fdf117905560408051808201909152600c81527f6574685f726f707374656e3300000000000000000000000000000000000000006020820152614ed890615177565b6000614f8773b7a07bcf2ba2f2703b24c0691b5278999c59ac7e614a46565b1115614ff05760008054600160a060020a03191673b7a07bcf2ba2f2703b24c0691b5278999c59ac7e17905560408051808201909152600981527f6574685f6b6f76616e00000000000000000000000000000000000000000000006020820152614ed890615177565b600061500f73146500cfd35b22e4a392fe0adc06de1a1368ed48614a46565b11156150785760008054600160a060020a03191673146500cfd35b22e4a392fe0adc06de1a1368ed4817905560408051808201909152600b81527f6574685f72696e6b6562790000000000000000000000000000000000000000006020820152614ed890615177565b6000615097736f485c8bf6fc43ea212e93bbf8ce046c7f1cb475614a46565b11156150cb575060008054600160a060020a031916736f485c8bf6fc43ea212e93bbf8ce046c7f1cb4751790556001612f6d565b60006150ea7320e12a1f859b3feae5fb2a0a32c18f5a65555bbf614a46565b111561511e575060008054600160a060020a0319167320e12a1f859b3feae5fb2a0a32c18f5a65555bbf1790556001612f6d565b600061513d7351efaf4c8b3c9afbd5ab9f4bbc82784ab6ef8faa614a46565b1115615171575060008054600160a060020a0319167351efaf4c8b3c9afbd5ab9f4bbc82784ab6ef8faa1790556001612f6d565b50600090565b8051611ae09060029060208401906151a9565b60e0604051908101604052806007906020820280388339509192915050565b828054600181600116156101000203166002900490600052602060002090601f016020900481019282601f106151ea57805160ff1916838001178555615217565b82800160010185558215615217579182015b828111156152175782518255916020019190600101906151fc565b5061522392915061530c565b5090565b60e060405190810160405280600081526020016000600160a060020a0316815260200160008152602001600081526020016000815260200160008152602001600081525090565b608060405190810160405280606081526020016060815260200160008152602001600081525090565b828054600181600116156101000203166002900490600052602060002090601f016020900481019282601f106152d05780548555615217565b8280016001018555821561521757600052602060002091601f016020900482015b828111156152175782548255916001019190600101906152f1565b612f6d91905b80821115615223576000815560010161531256009bc068999fb1a0aac007a9b44ca6322a376441f42706bf5163600bb3d1a731647ecbd54b3baea533cf57ef049f9e04554be6a660d6dacd477488066eedf27beea165627a7a723058203f2b885d934944fbc170ecf8f9587f1c7f500e3ced65af40d759cfe64dd5989d0029",
  "source": "pragma solidity ^0.4.20;\n\nimport \"./Lucky7TicketFactory.sol\";\n\ncontract Lucky7Ballot is Lucky7TicketFactory{\n    \n    \n    uint public initialLucky7TicketPosition=0;\n    mapping (address => uint) public pendingWithdrawals;\n\n\n    function Lucky7Ballot() payable {\n        \n    }\n    \n    function _generateLucky7Number() public onlyOwner{\n        if(indexForLucky7Array == numberOfLucky7Numbers){\n            _orderLucky7Numbers();\n            indexForLucky7Array = 0;\n            toggleLucky7Setting();\n        }\n        else{\n            userValues[this].muReady = false;\n            userValues[this].iReady = false;\n            _generateTicket(this);\n        }\n    }\n    \n    function setNewGame()                                      \n        public \n        onlyOwner \n    {\n        //Set initial index for Lucky7Tickets\n        initialLucky7TicketPosition=drawNumber*numberOfLucky7Numbers;\n        //Increase drawNumber\n        //Set on Lucky7NumbersSetting\n        toggleLucky7Setting();\n        //Deliver Prizes\n        //Deliver lot for enterprise\n        _orderLucky7Tickets();\n        _deliverPrizes();\n    }\n    \n    function _orderLucky7Numbers() public onlyOwner{\n        Lucky7Number memory smallest;\n        uint aux;\n        uint j;\n        uint i;\n        for(i=0; i<numberOfLucky7Numbers; i++){\n            aux = i;\n            smallest = lucky7Numbers[i];\n            for (j=i+1; j<numberOfLucky7Numbers; j++){\n                if(smallest.ticketValue>lucky7Numbers[j].ticketValue){\n                    smallest = lucky7Numbers[j];\n                    aux = j;\n                }\n            }\n            if(aux!=i){\n                lucky7Numbers[aux]=lucky7Numbers[i];\n                lucky7Numbers[i] = smallest;\n            }\n        }\n    }\n    \n    function _orderLucky7Tickets() public onlyOwner{\n        Lucky7Ticket memory smallest;\n        uint aux;\n        uint j;\n        uint i;\n        for (i=0; i<numberOfLucky7Numbers; i++){\n            lucky7Tickets.push(\n                Lucky7Ticket(\n                    lucky7TicketDifference[i],\n                    lucky7TicketOwner[i],\n                    lucky7TicketID[i],\n                    tickets[lucky7TicketID[i]].ticketValue,\n                    lucky7Numbers[i].ticketValue,\n                    i,\n                    drawNumber)\n                    );\n        }\n        for(i=initialLucky7TicketPosition; i<numberOfLucky7Numbers+initialLucky7TicketPosition; i++){\n            aux = i;\n            smallest = lucky7Tickets[i];\n            for (j=i+1; j<numberOfLucky7Numbers+initialLucky7TicketPosition; j++){\n                if(smallest.difference>lucky7Tickets[j].difference){\n                    smallest = lucky7Tickets[j];\n                    aux = j;\n                }\n            }\n            if(aux!=i){\n                lucky7Tickets[aux]=lucky7Tickets[i];\n                lucky7Tickets[i] = smallest;\n            }\n        }\n    }\n\n    function _deliverPrizes() public onlyOwner{\n        uint winnersPrize = address(this).balance.mul(7);\n        winnersPrize = winnersPrize.div(10);\n        uint firstPrize = winnersPrize.mul(6);\n        uint secondPrize = winnersPrize.mul(3);\n        uint thirdPrize = winnersPrize.mul(1);\n        firstPrize = firstPrize.div(10);\n        secondPrize = secondPrize.div(10);\n        thirdPrize = thirdPrize.div(10);\n        uint i;\n        for(i=initialLucky7TicketPosition; i<numberOfLucky7Numbers+initialLucky7TicketPosition; i++){\n            if(lucky7Tickets[i].owner!=address(0x0)){\n                pendingWithdrawals[lucky7Tickets[i].owner] += firstPrize;\n                break;\n            }\n        }\n        \n        for(i++; i<numberOfLucky7Numbers+initialLucky7TicketPosition; i++){\n            if(lucky7Tickets[i].owner!=address(0x0)){\n                pendingWithdrawals[lucky7Tickets[i].owner] += secondPrize;\n                break;\n            }\n        }\n        \n        for(i++; i<numberOfLucky7Numbers+initialLucky7TicketPosition; i++){\n            if(lucky7Tickets[i].owner!=address(0x0)){\n                pendingWithdrawals[lucky7Tickets[i].owner] += thirdPrize;\n                break;\n            }\n        }\n        drawNumber++;\n        enterpriseWallet.transfer(address(this).balance);\n        for(i=0; i<numberOfLucky7Numbers; i++){\n            lucky7TicketOwner[i] = address(0x0);\n            lucky7TicketDifference[i] = 0;\n            lucky7TicketID[i] = 0;\n            lucky7Numbers[i].mu=\"0\";\n            lucky7Numbers[i].i=\"0\";\n            lucky7Numbers[i].ticketValue=0;\n            lucky7Numbers[i].drawID=drawNumber;\n        }\n    }\n    \n    function withdraw() public {\n        uint amount = pendingWithdrawals[msg.sender];\n        pendingWithdrawals[msg.sender] = 0;\n        msg.sender.transfer(amount);\n    }\n\n    function getlucky7Numbers() public view returns (uint[7]) {\n        uint[7] luckySevenNumbers;\n        for(uint i=0; i<numberOfLucky7Numbers; i++){\n            luckySevenNumbers[i]=lucky7Numbers[i].ticketValue;\n        }\n        return luckySevenNumbers;\n    }\n\n    function getlucky7Tickets() public view returns (uint[7]) {\n        uint[7] luckySevenTickets;\n        for(uint i=0; i<numberOfLucky7Numbers; i++){\n            if(lucky7TicketOwner[i]!=address(0x0)){\n                luckySevenTickets[i] = tickets[lucky7TicketID[i]].ticketValue;\n            }\n            else{\n                luckySevenTickets[i]=0;\n            }\n        }\n        return luckySevenTickets;\n    }\n\n    function () public payable {\n        \n    }\n}",
  "sourcePath": "/Users/matiasbarrios/Desktop/Proyecto Consensys/luckyseven/contracts/Lucky7Ballot.sol",
  "compiler": {
    "name": "solc",
    "version": "0.4.24+commit.e67f0147.Emscripten.clang"
  },
  "schemaVersion": "2.0.1",
  "updatedAt": "2018-08-24T13:16:41.270Z"
}