{
  "contractName": "Lucky7TicketFactory",
  "abi": [
    {
      "constant": true,
      "inputs": [
        {
          "name": "",
          "type": "uint256"
        }
      ],
      "name": "lucky7TicketID",
      "outputs": [
        {
          "name": "",
          "type": "uint256"
        }
      ],
      "payable": false,
      "stateMutability": "view",
      "type": "function"
    },
    {
      "constant": true,
      "inputs": [
        {
          "name": "",
          "type": "uint256"
        }
      ],
      "name": "lucky7TicketOwner",
      "outputs": [
        {
          "name": "",
          "type": "address"
        }
      ],
      "payable": false,
      "stateMutability": "view",
      "type": "function"
    },
    {
      "constant": true,
      "inputs": [],
      "name": "settingLucky7Numbers",
      "outputs": [
        {
          "name": "",
          "type": "bool"
        }
      ],
      "payable": false,
      "stateMutability": "view",
      "type": "function"
    },
    {
      "constant": true,
      "inputs": [],
      "name": "n",
      "outputs": [
        {
          "name": "",
          "type": "string"
        }
      ],
      "payable": false,
      "stateMutability": "view",
      "type": "function"
    },
    {
      "constant": false,
      "inputs": [
        {
          "name": "_newAddress",
          "type": "address"
        }
      ],
      "name": "modifyEnterpriseWallet",
      "outputs": [],
      "payable": false,
      "stateMutability": "nonpayable",
      "type": "function"
    },
    {
      "constant": true,
      "inputs": [
        {
          "name": "",
          "type": "address"
        }
      ],
      "name": "userValues",
      "outputs": [
        {
          "name": "mu",
          "type": "string"
        },
        {
          "name": "i",
          "type": "string"
        },
        {
          "name": "ticketValue",
          "type": "uint256"
        },
        {
          "name": "muReady",
          "type": "bool"
        },
        {
          "name": "iReady",
          "type": "bool"
        },
        {
          "name": "userPaidTicket",
          "type": "bool"
        }
      ],
      "payable": false,
      "stateMutability": "view",
      "type": "function"
    },
    {
      "constant": true,
      "inputs": [],
      "name": "b",
      "outputs": [
        {
          "name": "",
          "type": "string"
        }
      ],
      "payable": false,
      "stateMutability": "view",
      "type": "function"
    },
    {
      "constant": true,
      "inputs": [],
      "name": "oraclizeGasLimit",
      "outputs": [
        {
          "name": "",
          "type": "uint256"
        }
      ],
      "payable": false,
      "stateMutability": "view",
      "type": "function"
    },
    {
      "constant": true,
      "inputs": [],
      "name": "numberOfLucky7Numbers",
      "outputs": [
        {
          "name": "",
          "type": "uint256"
        }
      ],
      "payable": false,
      "stateMutability": "view",
      "type": "function"
    },
    {
      "constant": false,
      "inputs": [],
      "name": "renounceOwnership",
      "outputs": [],
      "payable": false,
      "stateMutability": "nonpayable",
      "type": "function"
    },
    {
      "constant": true,
      "inputs": [],
      "name": "enterpriseWallet",
      "outputs": [
        {
          "name": "",
          "type": "address"
        }
      ],
      "payable": false,
      "stateMutability": "view",
      "type": "function"
    },
    {
      "constant": false,
      "inputs": [
        {
          "name": "_newValue",
          "type": "uint256"
        }
      ],
      "name": "modifyOraclizeGasLimit",
      "outputs": [],
      "payable": false,
      "stateMutability": "nonpayable",
      "type": "function"
    },
    {
      "constant": true,
      "inputs": [
        {
          "name": "",
          "type": "uint256"
        }
      ],
      "name": "ExactLucky7TicketValue",
      "outputs": [
        {
          "name": "",
          "type": "uint256"
        }
      ],
      "payable": false,
      "stateMutability": "view",
      "type": "function"
    },
    {
      "constant": false,
      "inputs": [
        {
          "name": "_newValue",
          "type": "uint256"
        }
      ],
      "name": "modifyGenerateTicketPrice",
      "outputs": [],
      "payable": false,
      "stateMutability": "nonpayable",
      "type": "function"
    },
    {
      "constant": true,
      "inputs": [
        {
          "name": "",
          "type": "uint256"
        }
      ],
      "name": "ExactLucky7TicketID",
      "outputs": [
        {
          "name": "",
          "type": "uint256"
        }
      ],
      "payable": false,
      "stateMutability": "view",
      "type": "function"
    },
    {
      "constant": true,
      "inputs": [],
      "name": "owner",
      "outputs": [
        {
          "name": "",
          "type": "address"
        }
      ],
      "payable": false,
      "stateMutability": "view",
      "type": "function"
    },
    {
      "constant": true,
      "inputs": [
        {
          "name": "",
          "type": "uint256"
        }
      ],
      "name": "lucky7NumbersArray",
      "outputs": [
        {
          "name": "mu",
          "type": "string"
        },
        {
          "name": "i",
          "type": "string"
        },
        {
          "name": "ticketValue",
          "type": "uint256"
        },
        {
          "name": "drawID",
          "type": "uint256"
        }
      ],
      "payable": false,
      "stateMutability": "view",
      "type": "function"
    },
    {
      "constant": true,
      "inputs": [],
      "name": "oraclizeCustomGasPrice",
      "outputs": [
        {
          "name": "",
          "type": "uint256"
        }
      ],
      "payable": false,
      "stateMutability": "view",
      "type": "function"
    },
    {
      "constant": true,
      "inputs": [],
      "name": "p",
      "outputs": [
        {
          "name": "",
          "type": "string"
        }
      ],
      "payable": false,
      "stateMutability": "view",
      "type": "function"
    },
    {
      "constant": true,
      "inputs": [
        {
          "name": "",
          "type": "uint256"
        }
      ],
      "name": "ticketsArray",
      "outputs": [
        {
          "name": "mu",
          "type": "string"
        },
        {
          "name": "i",
          "type": "string"
        },
        {
          "name": "ticketValue",
          "type": "uint256"
        },
        {
          "name": "owner",
          "type": "address"
        },
        {
          "name": "drawID",
          "type": "uint256"
        }
      ],
      "payable": false,
      "stateMutability": "view",
      "type": "function"
    },
    {
      "constant": true,
      "inputs": [],
      "name": "j",
      "outputs": [
        {
          "name": "",
          "type": "string"
        }
      ],
      "payable": false,
      "stateMutability": "view",
      "type": "function"
    },
    {
      "constant": false,
      "inputs": [
        {
          "name": "_newValue",
          "type": "uint256"
        }
      ],
      "name": "modifySellTicketPrice",
      "outputs": [],
      "payable": false,
      "stateMutability": "nonpayable",
      "type": "function"
    },
    {
      "constant": true,
      "inputs": [],
      "name": "indexForLucky7Array",
      "outputs": [
        {
          "name": "",
          "type": "uint256"
        }
      ],
      "payable": false,
      "stateMutability": "view",
      "type": "function"
    },
    {
      "constant": true,
      "inputs": [
        {
          "name": "",
          "type": "uint256"
        }
      ],
      "name": "lucky7TicketsArray",
      "outputs": [
        {
          "name": "difference",
          "type": "uint256"
        },
        {
          "name": "owner",
          "type": "address"
        },
        {
          "name": "ticketID",
          "type": "uint256"
        },
        {
          "name": "ticketValue",
          "type": "uint256"
        },
        {
          "name": "lucky7Number",
          "type": "uint256"
        },
        {
          "name": "lucky7NumberID",
          "type": "uint256"
        },
        {
          "name": "drawID",
          "type": "uint256"
        }
      ],
      "payable": false,
      "stateMutability": "view",
      "type": "function"
    },
    {
      "constant": false,
      "inputs": [
        {
          "name": "_newValue",
          "type": "uint256"
        }
      ],
      "name": "modifyNumberOfLucky7Numbers",
      "outputs": [],
      "payable": false,
      "stateMutability": "nonpayable",
      "type": "function"
    },
    {
      "constant": false,
      "inputs": [
        {
          "name": "_newValue",
          "type": "uint256"
        }
      ],
      "name": "modifyOraclizeCustomGasPrice",
      "outputs": [],
      "payable": false,
      "stateMutability": "nonpayable",
      "type": "function"
    },
    {
      "constant": true,
      "inputs": [],
      "name": "generateTicketPrice",
      "outputs": [
        {
          "name": "",
          "type": "uint256"
        }
      ],
      "payable": false,
      "stateMutability": "view",
      "type": "function"
    },
    {
      "constant": true,
      "inputs": [],
      "name": "drawNumber",
      "outputs": [
        {
          "name": "",
          "type": "uint256"
        }
      ],
      "payable": false,
      "stateMutability": "view",
      "type": "function"
    },
    {
      "constant": true,
      "inputs": [],
      "name": "indexForExactLucky7Ticket",
      "outputs": [
        {
          "name": "",
          "type": "uint256"
        }
      ],
      "payable": false,
      "stateMutability": "view",
      "type": "function"
    },
    {
      "constant": true,
      "inputs": [],
      "name": "sellTicketPrice",
      "outputs": [
        {
          "name": "",
          "type": "uint256"
        }
      ],
      "payable": false,
      "stateMutability": "view",
      "type": "function"
    },
    {
      "constant": true,
      "inputs": [
        {
          "name": "",
          "type": "uint256"
        }
      ],
      "name": "lucky7TicketDifference",
      "outputs": [
        {
          "name": "",
          "type": "uint256"
        }
      ],
      "payable": false,
      "stateMutability": "view",
      "type": "function"
    },
    {
      "constant": true,
      "inputs": [
        {
          "name": "",
          "type": "uint256"
        }
      ],
      "name": "ExactLucky7TicketOwner",
      "outputs": [
        {
          "name": "",
          "type": "address"
        }
      ],
      "payable": false,
      "stateMutability": "view",
      "type": "function"
    },
    {
      "constant": false,
      "inputs": [
        {
          "name": "_newOwner",
          "type": "address"
        }
      ],
      "name": "transferOwnership",
      "outputs": [],
      "payable": false,
      "stateMutability": "nonpayable",
      "type": "function"
    },
    {
      "inputs": [],
      "payable": true,
      "stateMutability": "payable",
      "type": "constructor"
    },
    {
      "payable": true,
      "stateMutability": "payable",
      "type": "fallback"
    },
    {
      "anonymous": false,
      "inputs": [
        {
          "indexed": false,
          "name": "description",
          "type": "string"
        }
      ],
      "name": "NewOraclizeQuery",
      "type": "event"
    },
    {
      "anonymous": false,
      "inputs": [
        {
          "indexed": false,
          "name": "muParameter",
          "type": "string"
        }
      ],
      "name": "NewMuReceived",
      "type": "event"
    },
    {
      "anonymous": false,
      "inputs": [
        {
          "indexed": false,
          "name": "iParameter",
          "type": "string"
        }
      ],
      "name": "NewIReceived",
      "type": "event"
    },
    {
      "anonymous": false,
      "inputs": [
        {
          "indexed": false,
          "name": "newTicket",
          "type": "string"
        }
      ],
      "name": "NewTicketReceived",
      "type": "event"
    },
    {
      "anonymous": false,
      "inputs": [
        {
          "indexed": false,
          "name": "description",
          "type": "string"
        }
      ],
      "name": "NewWolframQuery",
      "type": "event"
    },
    {
      "anonymous": false,
      "inputs": [
        {
          "indexed": false,
          "name": "ticketID",
          "type": "uint256"
        }
      ],
      "name": "NewLucky7Ticket",
      "type": "event"
    },
    {
      "anonymous": false,
      "inputs": [
        {
          "indexed": false,
          "name": "value",
          "type": "uint256"
        }
      ],
      "name": "NewLucky7Number",
      "type": "event"
    },
    {
      "anonymous": false,
      "inputs": [
        {
          "indexed": false,
          "name": "describe",
          "type": "string"
        },
        {
          "indexed": false,
          "name": "_oldValue",
          "type": "uint256"
        },
        {
          "indexed": false,
          "name": "_newValue",
          "type": "uint256"
        }
      ],
      "name": "numberModified",
      "type": "event"
    },
    {
      "anonymous": false,
      "inputs": [
        {
          "indexed": false,
          "name": "describe",
          "type": "string"
        },
        {
          "indexed": false,
          "name": "_oldValue",
          "type": "string"
        },
        {
          "indexed": false,
          "name": "_newValue",
          "type": "string"
        }
      ],
      "name": "parameterModified",
      "type": "event"
    },
    {
      "anonymous": false,
      "inputs": [
        {
          "indexed": false,
          "name": "describe",
          "type": "string"
        },
        {
          "indexed": false,
          "name": "_oldValue",
          "type": "address"
        },
        {
          "indexed": false,
          "name": "_newValue",
          "type": "address"
        }
      ],
      "name": "walletModified",
      "type": "event"
    },
    {
      "anonymous": false,
      "inputs": [
        {
          "indexed": true,
          "name": "previousOwner",
          "type": "address"
        }
      ],
      "name": "OwnershipRenounced",
      "type": "event"
    },
    {
      "anonymous": false,
      "inputs": [
        {
          "indexed": true,
          "name": "previousOwner",
          "type": "address"
        },
        {
          "indexed": true,
          "name": "newOwner",
          "type": "address"
        }
      ],
      "name": "OwnershipTransferred",
      "type": "event"
    },
    {
      "constant": false,
      "inputs": [
        {
          "name": "_newOAR",
          "type": "address"
        }
      ],
      "name": "changeOAR",
      "outputs": [],
      "payable": false,
      "stateMutability": "nonpayable",
      "type": "function"
    },
    {
      "constant": false,
      "inputs": [],
      "name": "toggleLucky7Setting",
      "outputs": [],
      "payable": false,
      "stateMutability": "nonpayable",
      "type": "function"
    },
    {
      "constant": false,
      "inputs": [
        {
          "name": "_ticketOwner",
          "type": "address"
        }
      ],
      "name": "_askForMuParameter",
      "outputs": [],
      "payable": false,
      "stateMutability": "nonpayable",
      "type": "function"
    },
    {
      "constant": false,
      "inputs": [
        {
          "name": "_ticketOwner",
          "type": "address"
        }
      ],
      "name": "_askForIParameter",
      "outputs": [],
      "payable": false,
      "stateMutability": "nonpayable",
      "type": "function"
    },
    {
      "constant": false,
      "inputs": [
        {
          "name": "_ticketOwner",
          "type": "address"
        }
      ],
      "name": "_askForTicket",
      "outputs": [],
      "payable": false,
      "stateMutability": "nonpayable",
      "type": "function"
    },
    {
      "constant": false,
      "inputs": [
        {
          "name": "_ticketOwner",
          "type": "address"
        }
      ],
      "name": "_generateTicket",
      "outputs": [],
      "payable": false,
      "stateMutability": "nonpayable",
      "type": "function"
    },
    {
      "constant": false,
      "inputs": [
        {
          "name": "_ticketID",
          "type": "uint256"
        }
      ],
      "name": "_checkForLucky7Ticket",
      "outputs": [],
      "payable": false,
      "stateMutability": "nonpayable",
      "type": "function"
    },
    {
      "constant": false,
      "inputs": [
        {
          "name": "myid",
          "type": "bytes32"
        },
        {
          "name": "result",
          "type": "string"
        }
      ],
      "name": "__callback",
      "outputs": [],
      "payable": false,
      "stateMutability": "nonpayable",
      "type": "function"
    },
    {
      "constant": false,
      "inputs": [
        {
          "name": "myid",
          "type": "bytes32"
        },
        {
          "name": "result",
          "type": "string"
        },
        {
          "name": "proof",
          "type": "bytes"
        }
      ],
      "name": "__callback",
      "outputs": [],
      "payable": false,
      "stateMutability": "nonpayable",
      "type": "function"
    }
  ],
  "bytecode": "0x60c0604052600160808190527f310000000000000000000000000000000000000000000000000000000000000060a09081526200003e919081620001aa565b506040805180820190915260018082527f380000000000000000000000000000000000000000000000000000000000000060209092019182526200008591600291620001aa565b506040805180820190915260058082527f31303030300000000000000000000000000000000000000000000000000000006020909201918252620000cc91600391620001aa565b506040805180820190915260028082527f323000000000000000000000000000000000000000000000000000000000000060209092019182526200011391600491620001aa565b50600760058190556611c37937e08000600655662aa1efb94e00009055620493e060085563ee6b280060095560008054600a8054600160a060020a0319908116600160a060020a038416179091556010805460ff191660011790556039839055603a839055603b8390559081163317909155600b805490911673d1a269d9b0dfb66cfdaf89cf0c6e6f8df0615ad01790556200024f565b828054600181600116156101000203166002900490600052602060002090601f016020900481019282601f10620001ed57805160ff19168380011785556200021d565b828001600101855582156200021d579182015b828111156200021d57825182559160200191906001019062000200565b506200022b9291506200022f565b5090565b6200024c91905b808211156200022b576000815560010162000236565b90565b614016806200025f6000396000f3006080604052600436106101ea5763ffffffff60e060020a60003504166310cd4b8a81146101ec5780631c3ed1d31461021657806323d370ba1461024a57806327dc297e1461026b5780632caf9eee146102c95780632de729eb146102f25780632e52d6061461030a57806338bbfa501461039457806339df3f4f1461043057806349f6b030146104455780634acfd9b8146104665780634df7e3d01461058557806350b9c4281461059a57806358070951146105af57806359f9fe82146105d0578063715018a6146105e5578063741606b5146105fa57806377d8a8301461060f578063809fc153146106305780638a1dd740146106485780638aa5fafa146106605780638ce3da3c146106785780638da5cb5b1461069057806396853e13146106a55780639ac2bf91146107a95780639ae8886a146107be578063b4f8eadd146107d3578063b582ec5f146108e6578063bcb740ab146108fb578063c56969ab14610913578063c629dad914610928578063c71f04ac14610980578063d383e86214610998578063d566bcf0146109b0578063d80ffb20146109c5578063d84ca03a146109da578063ddc110fa146109ef578063e5663c4814610a10578063e802ae1414610a25578063eaaa680a14610a3d578063f2fde38b14610a55578063fd9be1b214610a76575b005b3480156101f857600080fd5b50610204600435610a97565b60408051918252519081900360200190f35b34801561022257600080fd5b5061022e600435610aa9565b60408051600160a060020a039092168252519081900360200190f35b34801561025657600080fd5b506101ea600160a060020a0360043516610ac4565b34801561027757600080fd5b5060408051602060046024803582810135601f81018590048502860185019096528585526101ea958335953695604494919390910191908190840183828082843750949750610bd69650505050505050565b3480156102d557600080fd5b506102de61118b565b604080519115158252519081900360200190f35b3480156102fe57600080fd5b506101ea600435611194565b34801561031657600080fd5b5061031f6114f4565b6040805160208082528351818301528351919283929083019185019080838360005b83811015610359578181015183820152602001610341565b50505050905090810190601f1680156103865780820380516001836020036101000a031916815260200191505b509250505060405180910390f35b3480156103a057600080fd5b5060408051602060046024803582810135601f81018590048502860185019096528585526101ea95833595369560449491939091019190819084018382808284375050604080516020601f89358b018035918201839004830284018301909452808352979a99988101979196509182019450925082915084018382808284375094975061157f9650505050505050565b34801561043c57600080fd5b506101ea611584565b34801561045157600080fd5b506101ea600160a060020a03600435166115af565b34801561047257600080fd5b50610487600160a060020a036004351661165e565b604080519081018590528315156060820152821515608082015281151560a082015260c08082528751908201528651819060208083019160e08401918b019080838360005b838110156104e45781810151838201526020016104cc565b50505050905090810190601f1680156105115780820380516001836020036101000a031916815260200191505b5083810382528851815288516020918201918a019080838360005b8381101561054457818101518382015260200161052c565b50505050905090810190601f1680156105715780820380516001836020036101000a031916815260200191505b509850505050505050505060405180910390f35b34801561059157600080fd5b5061031f6117be565b3480156105a657600080fd5b50610204611818565b3480156105bb57600080fd5b506101ea600160a060020a036004351661181e565b3480156105dc57600080fd5b50610204611840565b3480156105f157600080fd5b506101ea611846565b34801561060657600080fd5b5061022e6118a5565b34801561061b57600080fd5b506101ea600160a060020a03600435166118b4565b34801561063c57600080fd5b506101ea6004356118c9565b34801561065457600080fd5b5061020460043561194a565b34801561066c57600080fd5b506101ea60043561195c565b34801561068457600080fd5b506102046004356119dd565b34801561069c57600080fd5b5061022e6119ef565b3480156106b157600080fd5b506106bd6004356119fe565b604051808060200180602001858152602001848152602001838103835287818151815260200191508051906020019080838360005b8381101561070a5781810151838201526020016106f2565b50505050905090810190601f1680156107375780820380516001836020036101000a031916815260200191505b50838103825286518152865160209182019188019080838360005b8381101561076a578181015183820152602001610752565b50505050905090810190601f1680156107975780820380516001836020036101000a031916815260200191505b50965050505050505060405180910390f35b3480156107b557600080fd5b50610204611b4a565b3480156107ca57600080fd5b5061031f611b50565b3480156107df57600080fd5b506107eb600435611bab565b60408051908101849052600160a060020a03831660608201526080810182905260a08082528651908201528551819060208083019160c08401918a019080838360005b8381101561084657818101518382015260200161082e565b50505050905090810190601f1680156108735780820380516001836020036101000a031916815260200191505b50838103825287518152875160209182019189019080838360005b838110156108a657818101518382015260200161088e565b50505050905090810190601f1680156108d35780820380516001836020036101000a031916815260200191505b5097505050505050505060405180910390f35b3480156108f257600080fd5b5061031f611d18565b34801561090757600080fd5b506101ea600435611d73565b34801561091f57600080fd5b50610204611df4565b34801561093457600080fd5b50610940600435611dfa565b60408051978852600160a060020a039096166020880152868601949094526060860192909252608085015260a084015260c0830152519081900360e00190f35b34801561098c57600080fd5b506101ea600435611e51565b3480156109a457600080fd5b506101ea600435611ed2565b3480156109bc57600080fd5b50610204611f79565b3480156109d157600080fd5b50610204611f7f565b3480156109e657600080fd5b50610204611f85565b3480156109fb57600080fd5b506101ea600160a060020a0360043516611f8b565b348015610a1c57600080fd5b50610204612072565b348015610a3157600080fd5b50610204600435612078565b348015610a4957600080fd5b5061022e60043561208a565b348015610a6157600080fd5b506101ea600160a060020a03600435166120a5565b348015610a8257600080fd5b506101ea600160a060020a03600435166120c5565b60356020526000908152604090205481565b603460205260009081526040902054600160a060020a031681565b6000610ad16009546121d9565b604080516020808252808201527f41736b696e6720666f722061206e6577206d7520706172616d657465722e2e2e8183015290517f096835e36c2ccea88ff2b3aca87dfc938b977e52ea656873ff76a8dba50d4d349181900360600190a1610ba66040805190810160405280600c81526020017f576f6c6672616d416c70686100000000000000000000000000000000000000008152506040805190810160405280600f81526020017f342072616e646f6d206e756d62657200000000000000000000000000000000008152506008546123c1565b60009081526030602052604090208054600160a060020a031916600160a060020a03939093169290921790915550565b610bde6127c6565b600160a060020a03163314610bf257600080fd5b600082815260306020526040902054600160a060020a031615801590610c405750600082815260306020908152604080832054600160a060020a03168352602f90915290206003015460ff16155b15610ddd57600082815260306020908152604080832054600160a060020a03168352602f82529091208251610c7792840190613f32565b507f6a28dd23c76ba6cc6f4f148a0e2e0e147d8b876cb74ec1e5e2b8e9a8119eb702816040518080602001828103825283818151815260200191508051906020019080838360005b83811015610cd7578181015183820152602001610cbf565b50505050905090810190601f168015610d045780820380516001836020036101000a031916815260200191505b509250505060405180910390a160008281526030602090815260408083208054600160a060020a039081168552602f9093528184206003908101805460ff191660019081179091559154909316845292200154610100900460ff161515148015610db25750600082815260306020908152604080832054600160a060020a03168352602f90915290206003015460ff6201000090910416151560011480610db2575060105460ff1615156001145b15610dd857600082815260306020526040902054610dd890600160a060020a0316611f8b565b611187565b600082815260316020526040902054600160a060020a031615801590610e305750600082815260316020908152604080832054600160a060020a03168352602f909152902060030154610100900460ff16155b15610fcb57600082815260316020908152604080832054600160a060020a03168352602f82529091208251610e6d92600190920191840190613f32565b507f716a554dec57e3a217a923b974660c0c8ebee07b09b1ac7d4a3a8f328d10cc89816040518080602001828103825283818151815260200191508051906020019080838360005b83811015610ecd578181015183820152602001610eb5565b50505050905090810190601f168015610efa5780820380516001836020036101000a031916815260200191505b509250505060405180910390a160008281526031602090815260408083208054600160a060020a039081168552602f9093528184206003908101805461ff00191661010017905590549092168352909120015460ff1615156001148015610fa55750600082815260316020908152604080832054600160a060020a03168352602f90915290206003015460ff6201000090910416151560011480610fa5575060105460ff1615156001145b15610dd857600082815260316020526040902054610dd890600160a060020a0316611f8b565b600082815260326020526040902054600160a060020a0316158015906110355750600082815260326020908152604080832054600160a060020a03168352602f90915290206003015460ff6201000090910416151560011480611035575060105460ff1615156001145b1561118757611043816129bc565b600083815260326020908152604080832054600160a060020a03168352602f825280832060020193909355825181815284518183015284517f0efef3a277391dda0d5747fd15566e85fcd8a4fb588d9853173841e45cc5ae8a9486949293849391840192908601918190849084905b838110156110ca5781810151838201526020016110b2565b50505050905090810190601f1680156110f75780820380516001836020036101000a031916815260200191505b509250505060405180910390a1600082815260326020908152604080832054600160a060020a03168352602f9091529020600301805462ff00001916905560105460ff1615156001141561116657600082815260326020526040902054610dd890600160a060020a03166129cf565b60008281526032602052604090205461118790600160a060020a0316612c30565b5050565b60105460ff1681565b60008060008060136001600554036007811015156111ae57fe5b60040201600201546012868154811015156111c557fe5b90600052602060002090600502016002015411156112345760055460001901935061122d601385600781106111f657fe5b600402016002015460128781548110151561120d57fe5b906000526020600020906005020160020154612e6b90919063ffffffff16565b925061137a565b601554601280548790811061124557fe5b90600052602060002090600502016002015410156112aa576000935061122d60128681548110151561127357fe5b90600052602060002090600502016002015460138660078110151561129457fe5b6004020160020154612e6b90919063ffffffff16565b601384600781106112b757fe5b60040201600201546012868154811015156112ce57fe5b90600052602060002090600502016002015411156112f1576001909301926112aa565b601384600781106112fe57fe5b600402016002015460128681548110151561131557fe5b9060005260206000209060050201600201541415611336576000925061137a565b61134a60136000198601600781106111f657fe5b915061135e60128681548110151561127357fe5b9050818111156113765760018403935081925061137a565b8092505b600084815260346020526040902054600160a060020a031615806113ab575060008481526033602052604090205483105b156114465760128054869081106113be57fe5b60009182526020808320600360059093020191909101548683526034825260408084208054600160a060020a031916600160a060020a0390931692909217909155603382528083208690556035825291829020879055815187815291517fed4436a39d9a77d0c6c3be4f0e28f018750eb25c5c2d30ded16ef07ced4c00719281900390910190a15b8215156114ed57601280548690811061145b57fe5b6000918252602080832060036005909302019190910154603b548352603790915260409091208054600160a060020a031916600160a060020a0390921691909117905560128054869081106114ac57fe5b6000918252602080832060026005909302019190910154603b8054845260368352604080852092909255805484526038909252909120869055805460010190555b5050505050565b6002805460408051602060018416156101000260001901909316849004601f810184900484028201840190925281815292918301828280156115775780601f1061154c57610100808354040283529160200191611577565b820191906000526020600020905b81548152906001019060200180831161155a57829003601f168201915b505050505081565b505050565b600054600160a060020a0316331461159b57600080fd5b6010805460ff19811660ff90911615179055565b60008054600160a060020a031633146115c757600080fd5b50600a8054600160a060020a03838116600160a060020a0319831681179093556040805191909216602082018190528183019390935260608082526019908201527f456e74657270726973652077616c6c6574206368616e67656400000000000000608082015290517f223db053947bb148de510715d3c7d8ccd72bdd376752fd735ee7bd0bd0ece5bf9181900360a00190a15050565b602f6020908152600091825260409182902080548351601f600260001961010060018616150201909316929092049182018490048402810184019094528084529092918391908301828280156116f55780601f106116ca576101008083540402835291602001916116f5565b820191906000526020600020905b8154815290600101906020018083116116d857829003601f168201915b505050505090806001018054600181600116156101000203166002900480601f0160208091040260200160405190810160405280929190818152602001828054600181600116156101000203166002900480156117935780601f1061176857610100808354040283529160200191611793565b820191906000526020600020905b81548152906001019060200180831161177657829003601f168201915b50505050600283015460039093015491929160ff808216925061010082048116916201000090041686565b60018054604080516020600284861615610100026000190190941693909304601f810184900484028201840190925281815292918301828280156115775780601f1061154c57610100808354040283529160200191611577565b60085481565b600b8054600160a060020a031916600160a060020a0392909216919091179055565b60055481565b600054600160a060020a0316331461185d57600080fd5b60008054604051600160a060020a03909116917ff8df31144d9c2f0f6b59d69b8b98abd5459d07f2742c4df920b25aae33c6482091a260008054600160a060020a0319169055565b600a54600160a060020a031681565b6118bd81610ac4565b6118c6816120c5565b50565b60008054600160a060020a031633146118e157600080fd5b50600880549082905560408051602081018390528082018490526060808252601a908201527f4f7261636c697a6520676173206c696d6974206368616e67656400000000000060808201529051600080516020613fcb8339815191529181900360a00190a15050565b60366020526000908152604090205481565b60008054600160a060020a0316331461197457600080fd5b50600680549082905560408051602081018390528082018490526060808252601d908201527f47656e6572617465207469636b6574207072696365206368616e67656400000060808201529051600080516020613fcb8339815191529181900360a00190a15050565b60386020526000908152604090205481565b600054600160a060020a031681565b60138160078110611a0b57fe5b60040201805460408051602060026001851615610100026000190190941693909304601f81018490048402820184019092528181529293508391830182828015611a965780601f10611a6b57610100808354040283529160200191611a96565b820191906000526020600020905b815481529060010190602001808311611a7957829003601f168201915b505050505090806001018054600181600116156101000203166002900480601f016020809104026020016040519081016040528092919081815260200182805460018160011615610100020316600290048015611b345780601f10611b0957610100808354040283529160200191611b34565b820191906000526020600020905b815481529060010190602001808311611b1757829003601f168201915b5050505050908060020154908060030154905084565b60095481565b6003805460408051602060026001851615610100026000190190941693909304601f810184900484028201840190925281815292918301828280156115775780601f1061154c57610100808354040283529160200191611577565b6012805482908110611bb957fe5b60009182526020918290206005919091020180546040805160026001841615610100026000190190931692909204601f810185900485028301850190915280825291935091839190830182828015611c525780601f10611c2757610100808354040283529160200191611c52565b820191906000526020600020905b815481529060010190602001808311611c3557829003601f168201915b505050505090806001018054600181600116156101000203166002900480601f016020809104026020016040519081016040528092919081815260200182805460018160011615610100020316600290048015611cf05780601f10611cc557610100808354040283529160200191611cf0565b820191906000526020600020905b815481529060010190602001808311611cd357829003601f168201915b505050506002830154600384015460049094015492939092600160a060020a03909116915085565b6004805460408051602060026001851615610100026000190190941693909304601f810184900484028201840190925281815292918301828280156115775780601f1061154c57610100808354040283529160200191611577565b60008054600160a060020a03163314611d8b57600080fd5b506007805490829055604080516020810183905280820184905260608082526019908201527f53656c6c207469636b6574207072696365206368616e6765640000000000000060808201529051600080516020613fcb8339815191529181900360a00190a15050565b603a5481565b6011805482908110611e0857fe5b60009182526020909120600790910201805460018201546002830154600384015460048501546005860154600690960154949650600160a060020a039093169491939092919087565b60008054600160a060020a03163314611e6957600080fd5b506005805490829055604080516020810183905280820184905260608082526019908201527f53656c6c207469636b6574207072696365206368616e6765640000000000000060808201529051600080516020613fcb8339815191529181900360a00190a15050565b60008054600160a060020a03163314611eea57600080fd5b506009805490829055604080516020810183905280820184905260608082526021908201527f4f7261636c697a6520637573746f6d20676173207072696365206368616e676560808201527f640000000000000000000000000000000000000000000000000000000000000060a08201529051600080516020613fcb8339815191529181900360c00190a15050565b60065481565b60395481565b603b5481565b6000611f986009546121d9565b604080516020808252601a908201527f41736b696e6720666f722061206e6577207469636b65742e2e2e0000000000008183015290517f096835e36c2ccea88ff2b3aca87dfc938b977e52ea656873ff76a8dba50d4d349181900360600190a16120426040805190810160405280600c81526020017f576f6c6672616d416c706861000000000000000000000000000000000000000081525061203a84612e7d565b6008546123c1565b60009081526032602052604090208054600160a060020a031916600160a060020a03939093169290921790915550565b60075481565b60336020526000908152604090205481565b603760205260009081526040902054600160a060020a031681565b600054600160a060020a031633146120bc57600080fd5b6118c6816137ac565b60006120d26009546121d9565b604080516020808252601f908201527f41736b696e6720666f722061206e6577206920706172616d657465722e2e2e008183015290517f096835e36c2ccea88ff2b3aca87dfc938b977e52ea656873ff76a8dba50d4d349181900360600190a16121a96040805190810160405280600c81526020017f576f6c6672616d416c70686100000000000000000000000000000000000000008152506040805190810160405280600f81526020017f342072616e646f6d206e756d62657200000000000000000000000000000000008152506008546123c1565b60009081526031602052604090208054600160a060020a031916600160a060020a03939093169290921790915550565b600b54600160a060020a031615806122035750600b5461220190600160a060020a031661381c565b155b15612214576122126000613820565b505b600b60009054906101000a9004600160a060020a0316600160a060020a03166338cc48316040518163ffffffff1660e060020a028152600401602060405180830381600087803b15801561226757600080fd5b505af115801561227b573d6000803e3d6000fd5b505050506040513d602081101561229157600080fd5b5051600c54600160a060020a0390811691161461234757600b60009054906101000a9004600160a060020a0316600160a060020a03166338cc48316040518163ffffffff1660e060020a028152600401602060405180830381600087803b1580156122fb57600080fd5b505af115801561230f573d6000803e3d6000fd5b505050506040513d602081101561232557600080fd5b5051600c8054600160a060020a031916600160a060020a039092169190911790555b600c54604080517fca6ad1e4000000000000000000000000000000000000000000000000000000008152600481018490529051600160a060020a039092169163ca6ad1e49160248082019260009290919082900301818387803b1580156123ad57600080fd5b505af11580156114ed573d6000803e3d6000fd5b600b546000908190600160a060020a031615806123f05750600b546123ee90600160a060020a031661381c565b155b15612401576123ff6000613820565b505b600b60009054906101000a9004600160a060020a0316600160a060020a03166338cc48316040518163ffffffff1660e060020a028152600401602060405180830381600087803b15801561245457600080fd5b505af1158015612468573d6000803e3d6000fd5b505050506040513d602081101561247e57600080fd5b5051600c54600160a060020a0390811691161461253457600b60009054906101000a9004600160a060020a0316600160a060020a03166338cc48316040518163ffffffff1660e060020a028152600401602060405180830381600087803b1580156124e857600080fd5b505af11580156124fc573d6000803e3d6000fd5b505050506040513d602081101561251257600080fd5b5051600c8054600160a060020a031916600160a060020a039092169190911790555b600c54604080517f2ef3accc0000000000000000000000000000000000000000000000000000000081526024810186905260048101918252875160448201528751600160a060020a0390931692632ef3accc9289928892829160640190602086019080838360005b838110156125b457818101518382015260200161259c565b50505050905090810190601f1680156125e15780820380516001836020036101000a031916815260200191505b509350505050602060405180830381600087803b15801561260157600080fd5b505af1158015612615573d6000803e3d6000fd5b505050506040513d602081101561262b57600080fd5b50519050670de0b6b3a76400003a84020181111561264c57600091506127be565b600c546040517fc51be90f00000000000000000000000000000000000000000000000000000000815260006004820181815260648301879052608060248401908152895160848501528951600160a060020a039095169463c51be90f948794938c938c938c93604481019160a49091019060208801908083838c5b838110156126df5781810151838201526020016126c7565b50505050905090810190601f16801561270c5780820380516001836020036101000a031916815260200191505b50838103825285518152855160209182019187019080838360005b8381101561273f578181015183820152602001612727565b50505050905090810190601f16801561276c5780820380516001836020036101000a031916815260200191505b5096505050505050506020604051808303818588803b15801561278e57600080fd5b505af11580156127a2573d6000803e3d6000fd5b50505050506040513d60208110156127b957600080fd5b505191505b509392505050565b600b54600090600160a060020a031615806127f35750600b546127f190600160a060020a031661381c565b155b15612804576128026000613820565b505b600b60009054906101000a9004600160a060020a0316600160a060020a03166338cc48316040518163ffffffff1660e060020a028152600401602060405180830381600087803b15801561285757600080fd5b505af115801561286b573d6000803e3d6000fd5b505050506040513d602081101561288157600080fd5b5051600c54600160a060020a0390811691161461293757600b60009054906101000a9004600160a060020a0316600160a060020a03166338cc48316040518163ffffffff1660e060020a028152600401602060405180830381600087803b1580156128eb57600080fd5b505af11580156128ff573d6000803e3d6000fd5b505050506040513d602081101561291557600080fd5b5051600c8054600160a060020a031916600160a060020a039092169190911790555b600c60009054906101000a9004600160a060020a0316600160a060020a031663c281d19e6040518163ffffffff1660e060020a028152600401602060405180830381600087803b15801561298a57600080fd5b505af115801561299e573d6000803e3d6000fd5b505050506040513d60208110156129b457600080fd5b505190505b90565b60006129c982600061382a565b92915050565b60408051600160a060020a0383166000908152602f602090815290839020805460026001821615610100026000190190911604601f8101839004909202830160a090810190945260808301828152929384939290840182828015612a745780601f10612a4957610100808354040283529160200191612a74565b820191906000526020600020905b815481529060010190602001808311612a5757829003601f168201915b50505050508152602001602f600084600160a060020a0316600160a060020a031681526020019081526020016000206001018054600181600116156101000203166002900480601f016020809104026020016040519081016040528092919081815260200182805460018160011615610100020316600290048015612b3a5780601f10612b0f57610100808354040283529160200191612b3a565b820191906000526020600020905b815481529060010190602001808311612b1d57829003601f168201915b5050509183525050600160a060020a0383166000908152602f60209081526040918290206002015490830152603954910152603a5460139060078110612b7c57fe5b600402016000820151816000019080519060200190612b9c929190613f32565b506020828101518051612bb59260018501920190613f32565b50604082810151600280840191909155606090930151600390920191909155603a80546001019055600160a060020a0383166000908152602f60209081529082902090920154815190815290517fec2692b386f7e992f219e405f018eeaf8da1b95736760596812e564f2e709cfd929181900390910190a150565b60408051600160a060020a0383166000908152602f602090815283822080546002600180831615610100026000190190921604601f8101849004909302850160c090810190965260a0850183815293959094601294909384939192840182828015612cdc5780601f10612cb157610100808354040283529160200191612cdc565b820191906000526020600020905b815481529060010190602001808311612cbf57829003601f168201915b50505050508152602001602f600087600160a060020a0316600160a060020a031681526020019081526020016000206001018054600181600116156101000203166002900480601f016020809104026020016040519081016040528092919081815260200182805460018160011615610100020316600290048015612da25780601f10612d7757610100808354040283529160200191612da2565b820191906000526020600020905b815481529060010190602001808311612d8557829003601f168201915b5050509183525050600160a060020a0386166000818152602f6020908152604080832060020154828601528401929092526039546060909301929092528354600181018086559483529181902083518051600590940290910192612e099284920190613f32565b506020828101518051612e229260018501920190613f32565b50604082015160028201556060820151600382018054600160a060020a031916600160a060020a0390921691909117905560809091015160049091015503905061118781611194565b600082821115612e7757fe5b50900390565b604080518082018252600c81527f286d6f642828312f2831305e000000000000000000000000000000000000000060208083019190915260028054845160018216156101000260001901909116829004601f810184900484028201840190955284815260609485946130549490939190830182828015612f3e5780601f10612f1357610100808354040283529160200191612f3e565b820191906000526020600020905b815481529060010190602001808311612f2157829003601f168201915b505060408051808201825260018082527f2d00000000000000000000000000000000000000000000000000000000000000602080840191909152600160a060020a038d166000908152602f825284902080548551600294821615610100026000190190911693909304601f81018390048302840183019095528483529296509094509092508301828280156130145780601f10612fe957610100808354040283529160200191613014565b820191906000526020600020905b815481529060010190602001808311612ff757829003601f168201915b50505050506040805190810160405280600681526020017f29292a31305e000000000000000000000000000000000000000000000000000081525061399c565b60038054604080516020601f600260001961010060018816150201909516949094049384018190048102820181019092528281529394506131e8938593909290918301828280156130e65780601f106130bb576101008083540402835291602001916130e6565b820191906000526020600020905b8154815290600101906020018083116130c957829003601f168201915b5050604080518082018252600581527f2c31305e2800000000000000000000000000000000000000000000000000000060208083019190915260048054845160026001831615610100026000190190921691909104601f81018490048402820184019095528481529296509194509092508301828280156131a85780601f1061317d576101008083540402835291602001916131a8565b820191906000526020600020905b81548152906001019060200180831161318b57829003601f168201915b50505050506040805190810160405280600181526020017f2b0000000000000000000000000000000000000000000000000000000000000081525061399c565b90506133a981602f600086600160a060020a0316600160a060020a031681526020019081526020016000206001018054600181600116156101000203166002900480601f0160208091040260200160405190810160405280929190818152602001828054600181600116156101000203166002900480156132aa5780601f1061327f576101008083540402835291602001916132aa565b820191906000526020600020905b81548152906001019060200180831161328d57829003601f168201915b5050604080518082018252600e81527f29292d6d6f642828312f2831305e00000000000000000000000000000000000060208083019190915260028054845160018216156101000260001901909116829004601f81018490048402820184019095528481529296509194509092508301828280156133695780601f1061333e57610100808354040283529160200191613369565b820191906000526020600020905b81548152906001019060200180831161334c57829003601f168201915b50505050506040805190810160405280600181526020017f2d0000000000000000000000000000000000000000000000000000000000000081525061399c565b600160a060020a0384166000908152602f602090815260409182902080548351601f600260001961010060018616150201909316929092049182018490048402810184019094528084529394506135509385939283018282801561344e5780601f106134235761010080835404028352916020019161344e565b820191906000526020600020905b81548152906001019060200180831161343157829003601f168201915b5050604080518082018252600681527f29292a31305e000000000000000000000000000000000000000000000000000060208083019190915260038054845160026001831615610100026000190190921691909104601f81018490048402820184019095528481529296509194509092508301828280156135105780601f106134e557610100808354040283529160200191613510565b820191906000526020600020905b8154815290600101906020018083116134f357829003601f168201915b50505050506040805190810160405280600481526020017f2c31305e0000000000000000000000000000000000000000000000000000000081525061399c565b60408051808201825260018082527f2800000000000000000000000000000000000000000000000000000000000000602080840191909152600160a060020a0388166000908152602f8252849020820180548551600294821615610100026000190190911693909304601f810183900483028401830190955284835294955061370b94869490918301828280156136285780601f106135fd57610100808354040283529160200191613628565b820191906000526020600020905b81548152906001019060200180831161360b57829003601f168201915b5050604080518082018252600781527f2929292f31305e00000000000000000000000000000000000000000000000000602080830191909152600160a060020a038d166000908152602f8252839020600190810180548551600293821615610100026000190190911692909204601f810184900484028301840190955284825292965094509092508301828280156137015780601f106136d657610100808354040283529160200191613701565b820191906000526020600020905b8154815290600101906020018083116136e457829003601f168201915b505050505061399c565b90507f261af219212047633bb60c8d0cc7e33d217c38edf6fa7e53acb97a3f94180de5816040518080602001828103825283818151815260200191508051906020019080838360005b8381101561376c578181015183820152602001613754565b50505050905090810190601f1680156137995780820380516001836020036101000a031916815260200191505b509250505060405180910390a192915050565b600160a060020a03811615156137c157600080fd5b60008054604051600160a060020a03808516939216917f8be0079c531659141344cd1fd0a4f28419497f9722a3daafe3b4186f6b6457e091a360008054600160a060020a031916600160a060020a0392909216919091179055565b3b90565b60006129c9613bfd565b6000828180805b835181101561397f5783517f30000000000000000000000000000000000000000000000000000000000000009085908390811061386a57fe5b90602001015160f860020a900460f860020a02600160f860020a031916101580156138e0575083517f3900000000000000000000000000000000000000000000000000000000000000908590839081106138c057fe5b90602001015160f860020a900460f860020a02600160f860020a03191611155b156139395781156138ff578515156138f75761397f565b600019909501945b600a830292506030848281518110151561391557fe5b90602001015160f860020a900460f860020a0260f860020a90040383019250613977565b838181518110151561394757fe5b90602001015160f860020a900460f860020a02600160f860020a031916602e60f860020a02141561397757600191505b600101613831565b60008611156139915785600a0a830292505b509095945050505050565b6060806060806060806060806000808e98508d97508c96508b95508a94508451865188518a518c51010101016040519080825280601f01601f1916602001820160405280156139f5578160200160208202803883390190505b50935083925060009150600090505b8851811015613a62578881815181101515613a1b57fe5b90602001015160f860020a900460f860020a028383806001019450815181101515613a4257fe5b906020010190600160f860020a031916908160001a905350600101613a04565b5060005b8751811015613ac4578781815181101515613a7d57fe5b90602001015160f860020a900460f860020a028383806001019450815181101515613aa457fe5b906020010190600160f860020a031916908160001a905350600101613a66565b5060005b8651811015613b26578681815181101515613adf57fe5b90602001015160f860020a900460f860020a028383806001019450815181101515613b0657fe5b906020010190600160f860020a031916908160001a905350600101613ac8565b5060005b8551811015613b88578581815181101515613b4157fe5b90602001015160f860020a900460f860020a028383806001019450815181101515613b6857fe5b906020010190600160f860020a031916908160001a905350600101613b2a565b5060005b8451811015613bea578481815181101515613ba357fe5b90602001015160f860020a900460f860020a028383806001019450815181101515613bca57fe5b906020010190600160f860020a031916908160001a905350600101613b8c565b50909d9c50505050505050505050505050565b600080613c1d731d3b2638a7cc9f2cb3d298a3da7a90b67e5506ed61381c565b1115613c8d57600b8054600160a060020a031916731d3b2638a7cc9f2cb3d298a3da7a90b67e5506ed178155604080518082019091529081527f6574685f6d61696e6e65740000000000000000000000000000000000000000006020820152613c8590613f23565b5060016129b9565b6000613cac73c03a2615d5efaf5f49f60b7bb6583eaec212fdf161381c565b1115613d1557600b8054600160a060020a03191673c03a2615d5efaf5f49f60b7bb6583eaec212fdf117905560408051808201909152600c81527f6574685f726f707374656e3300000000000000000000000000000000000000006020820152613c8590613f23565b6000613d3473b7a07bcf2ba2f2703b24c0691b5278999c59ac7e61381c565b1115613d9d57600b8054600160a060020a03191673b7a07bcf2ba2f2703b24c0691b5278999c59ac7e17905560408051808201909152600981527f6574685f6b6f76616e00000000000000000000000000000000000000000000006020820152613c8590613f23565b6000613dbc73146500cfd35b22e4a392fe0adc06de1a1368ed4861381c565b1115613e2457600b8054600160a060020a03191673146500cfd35b22e4a392fe0adc06de1a1368ed48178155604080518082019091529081527f6574685f72696e6b6562790000000000000000000000000000000000000000006020820152613c8590613f23565b6000613e43736f485c8bf6fc43ea212e93bbf8ce046c7f1cb47561381c565b1115613e775750600b8054600160a060020a031916736f485c8bf6fc43ea212e93bbf8ce046c7f1cb47517905560016129b9565b6000613e967320e12a1f859b3feae5fb2a0a32c18f5a65555bbf61381c565b1115613eca5750600b8054600160a060020a0319167320e12a1f859b3feae5fb2a0a32c18f5a65555bbf17905560016129b9565b6000613ee97351efaf4c8b3c9afbd5ab9f4bbc82784ab6ef8faa61381c565b1115613f1d5750600b8054600160a060020a0319167351efaf4c8b3c9afbd5ab9f4bbc82784ab6ef8faa17905560016129b9565b50600090565b805161118790600d9060208401905b828054600181600116156101000203166002900490600052602060002090601f016020900481019282601f10613f7357805160ff1916838001178555613fa0565b82800160010185558215613fa0579182015b82811115613fa0578251825591602001919060010190613f85565b50613fac929150613fb0565b5090565b6129b991905b80821115613fac5760008155600101613fb656009bc068999fb1a0aac007a9b44ca6322a376441f42706bf5163600bb3d1a73164a165627a7a723058203c79c6b67f9ed75f992a3f5752d57a9674d348963641cadd7725a5ec496aa7640029",
  "source": "/**\n  * @author Matias Barrios\n  * @version 1.0\n  */\n\n/** @title Lucky7TicketFactor. \n  * This contract contains all the functions to generate tickets and Lucky7Numbers.\n  * Inherits from Lucky7Admin and usingOraclize to do the oraclize querys. \n*/\n\npragma solidity ^0.4.20;\nimport \"./usingOraclize.sol\";\nimport \"./Lucky7Admin.sol\";\n\ncontract Lucky7TicketFactory is Lucky7Admin, usingOraclize{\n    /** @dev SafeMath library is used for the _checkForLucky7Ticket of this contract. \n      */\n    using SafeMath for uint256;\n    \n    /** @dev The constructor needs to set the OAR, Oraclize Address Resolver\n      * OAR is the Oraclize Address Resolver to use oraclize on localhost\n      */\n    function Lucky7TicketFactory() payable{\n        OAR = OraclizeAddrResolverI(0xd1a269d9b0dfb66cfdaf89cf0c6e6f8df0615ad0);\n    }\n    \n    /** @dev This function is to change the OAR without compiling again and deploying again\n      * Used only for testing purposes.\n      */\n    function changeOAR(address _newOAR){\n        OAR = OraclizeAddrResolverI(_newOAR);\n    }\n    \n    /**@dev The events are used mainly for testing purposes\n      */\n    event NewOraclizeQuery(string description);\n    event NewMuReceived(string muParameter);\n    event NewIReceived(string iParameter);\n    event NewTicketReceived(string newTicket);\n    event NewWolframQuery(string description);\n    event NewLucky7Ticket(uint ticketID);\n    event NewLucky7Number(uint value);\n    \n    /** @dev This modifier is used to set the gas price on the functions which do oraclize querys.\n      *  It uses the oraclizeCustomGasPrice of the Lucky7Admin contract.\n      */\n    modifier oraclizeGasPriceCustomized{\n        oraclize_setCustomGasPrice(oraclizeCustomGasPrice);\n        _;\n    }\n\n    /** @param settingLucky7Numbers is a circuit breaker to stop users of buying tickets while the game is getting setted\n      *i.e. when a new game is started, previous winners are erased, the Lucky7Numbers are getting setted and prizes are delivered.\n      */\n    bool public settingLucky7Numbers = true;\n    \n    /** @dev Function to toggle the settingLucky7Numbers to stop users to buy tickets. \n      */\n    function toggleLucky7Setting() public onlyOwner{\n        settingLucky7Numbers = !settingLucky7Numbers;\n    }\n\n    /** @dev UserParametersValue is a struct where the values of the user ticket is stored temporarily.\n      * While the user is just generating (not buying) tickets, the values of this struct for each user are going to change.\n      * Once the user buys a ticket, all the parameters of this struct are used to generate a ticket and store it in the tickets array.\n      * where they will be stored permanently.\n      * @param mu is a parameter of the pseudo-random number generator (PRNG).\n      * @param i is a parameter of the pseudo-random number generator (PRNG).\n      * @param ticketValue is the value of the last buyed ticket of the user.\n      * @param muReady is a boolean value used for the oraclize's callback function to verify if the mu parameter for the current ticket was already setted.\n      * @param iReady is a boolean value used for the oraclize's callback function to verify if the i parameter for the current ticket was already setted.\n      * @param userPaidTicket is a boolean value to verify if the user which is calling for the oraclize query actually paid for the ticket or is just generating\n      * parameters to choose a ticket.\n    */\n    struct UserParametersValue{\n        string mu;\n        string i;\n        uint ticketValue;\n        bool muReady;\n        bool iReady;\n        bool userPaidTicket;\n    }\n    \n    /** @pdev Ticket is a struct to store information of the tickets. It information is stored permanently through the tickets array.\n      * @param mu is a parameter of the pseudo-random number generator (PRNG).\n      * @param i is a parameter of the pseudo-random number generator (PRNG).\n      * @param ticketValue is the value of ticket.\n      * @param owner is the owner of the ticket.\n      * @param drawID is the number of the draw for this ticket, i.e. the game where this ticket was emitted.\n      */\n    struct Ticket{\n        string mu;\n        string i;\n        uint ticketValue;\n        address owner;\n        uint drawID;\n    }\n    \n    /** @dev Lucky7Number is a struct to store the information of the Lucky7Numbers. Is used for the lucky7Numbers array\n      * and it information is erased when a new game is setted, i.e. it information is replaced with the Lucky7Numbers information\n      * of the new game.\n      * @param mu is a parameter of the pseudo-random number generator (PRNG).\n      * @param i is a parameter of the pseudo-random number generator (PRNG).\n      * @param ticketValue is the value of the Lucky7Number.\n      * @param drawID is the number of the draw for this Lucky7Number, i.e. the game where this Lucky7Number was emitted. \n      */\n    struct Lucky7Number{\n        string mu;\n        string i;\n        uint ticketValue;\n        uint drawID;\n    }\n    \n    /** @dev Lucky7Ticket is a struct to store the information of the Lucky7Tickets. Is used once a new game is setted, and it store the information of the final\n      * Lucky7Tickets permanently.\n      * @param difference is the difference (in absolute value) of the ticket with the Lucky7Number.\n      * @param owner is the owner of the Lucky7Ticket.\n      * @param ticketID is the ticket ID of the ticket which was selected as Lucky7Ticket. Is helpful to look up in the ticketID mapping to verify\n      * past games and results.\n      * @param ticketValue is the value of the ticket associated to this Lucky7Ticket.\n      * @param lucky7Number is the value of the Lucky7Number associated to this Lucky7Ticket.\n      * @param lucky7NumberID is the ID of the Lucky7Number associated to this Lucky7Ticket, i.e. if 0 is the first Lucky7Number of the draw.\n      * @param drawID is the number of the draw for this Lucky7Ticket, i.e. the game where this Lucky7Ticket was emitted.\n      */\n    struct Lucky7Ticket{\n        uint difference;\n        address owner;\n        uint ticketID;\n        uint ticketValue;\n        uint lucky7Number;\n        uint lucky7NumberID;\n        uint drawID;\n    }\n    \n    /** @dev The next two arrays are used to store information of the game permanently.\n      * @param lucky7TicketsArray stores the Lucky7Tickets once a new game is setted.\n      * @param ticketsArray stores the tickets everytime a user buys a ticket.\n      */\n    Lucky7Ticket[] public lucky7TicketsArray;\n    Ticket[] public ticketsArray;\n    \n    /** @param lucky7NumbersArray stores the Lucky7Numbers for the current draw. Once a new game is called, it is cleand to 0 to be reused. \n      */\n    Lucky7Number[7] public lucky7NumbersArray;\n\n    /** @dev Because addresses are not correlatives, is better to use a mapping. \n      * @param userValues maps from the user address to it UserParametersValue struct.\n      */\n    mapping (address => UserParametersValue) public userValues;\n\n    /** @dev The next three mapping are used for the functions which do oraclize querys to being identified in the oraclize's callback function\n      * as mu parameter, i parameter or a ticket.\n      * @param muParameterID maps from a bytes32 generated everytime the oraclize_query function is called and points to the address of the user which did the call.\n      * @param iParameterID maps from a bytes32 generated everytime the oraclize_query function is called and points to the address of the user which did the call.\n      * @param newTicketID maps from a bytes32 generated everytime the oraclize_query function is called and points to the address of the user which did the call.\n      */\n    mapping (bytes32 => address) muParameterID;\n    mapping (bytes32 => address) iParameterID;\n    mapping (bytes32 => address) newTicketID;\n\n    /** @dev The next three mapping are used to state the Lucky7Ticket values while a game is on course. This is because is expensive to look up on the Lucky7Ticket\n      * struct everytime a new ticket is inserted in the tickets array.\n      * They all maps from the lucky7NumberID, i.e. the id of the Lucky7Number of the current game. \n      * @param lucky7TicketDifference points to an uint which is the difference between the Lucky7Number of it _KeyType and the ticket selected as Lucky7Ticket, \n      * e.g. lucky7TicketDifference[0] is the difference between the first Lucky7Number with the ticket which was selected as his Lucky7Ticket.\n      * @param lucky7TicketOwner points to the address of the owner of the Lucky7Ticket associated to the Lucky7Number of it _KeyType, \n      * e.g. lucky7TicketOwner[0] is the owner of the Lucky7Ticket associated to the first Lucky7Number.\n      * @param lucky7TicketID points to the id of the ticket which was selected as Lucky7Ticket for the Lucky7Number of it _KeyType, \n      * e.g. lucky7TicketID[0] is the ticketID of the ticket owned by lucky7TicketOwner[0], with a difference of lucky7TicketDiffference[0] with the Lucky7Number[0].\n      */\n    mapping (uint => uint) public lucky7TicketDifference;\n    mapping (uint => address) public lucky7TicketOwner;\n    mapping (uint => uint) public lucky7TicketID;\n\n    /** @dev The next three mappings are used to storage ExactLucky7Ticket, i.e. tickets which difference with a Lucky7Number is 0 \n      * They follow the same logic as the previous three mapings. They're setted for future development, because this project is meant to emit tokens and ExactLucky7Tickets\n      * are going to be specially awarded.\n      * They're cleaned to 0 everytime a new game is setted.\n      */\n    mapping (uint => uint) public ExactLucky7TicketValue;\n    mapping (uint => address) public ExactLucky7TicketOwner;\n    mapping (uint => uint) public ExactLucky7TicketID;\n\n    /** @param drawNumber is the number of the current draw. Is used to help storage Lucky7Tickets, look up for current game winners and others functions.\n      * Is incremented by 1 everytime a new game is setted.\n      * @param indexForLucky7Array is a uint used to count the number of Lucky7Numbers generated everytime a new game is setted. Is used to know if all the Lucky7Numbers \n      * were setted, and if they did, order them by them values in ascendant order and let users start buying tickets. Is setted to 0 after all this process.\n      * @param indexForExactLucky7Ticket is a uint which increments everytime a ExactLucky7Ticket is detected and stored. It's used to look up in in the ExactLucky7 mappings\n      * and is cleaned to 0 everytime a new game is setted.\n      */\n    uint public drawNumber = 0;\n    uint public indexForLucky7Array = 0;\n    uint public indexForExactLucky7Ticket = 0;\n    \n    /** @dev _askForMuParameter is a function to ask for a new mu parameter through an oraclize query.\n      * @param _ticketOwner is the address of the user which is calling this function through a generation of new parameters or by buying a new random ticket.\n      * First, it emit an event to register the query. Then it do the query and save the bytes32 value generated to the muID.\n      * Finally it associate this muID with the _ticketOwner through the muParameterID mapping, so the oraclize's callback function know it is a mu petition and it belongs to the _ticketOwner user.\n      */\n    function _askForMuParameter(address _ticketOwner) public oraclizeGasPriceCustomized{\n        emit NewOraclizeQuery(\"Asking for a new mu parameter...\");\n        bytes32 muID = oraclize_query(\"WolframAlpha\",\"4 random number\",oraclizeGasLimit);\n        muParameterID[muID] = _ticketOwner;\n    }\n\n    /** @dev _askForIParameter is a function to ask for a new I parameter through an oraclize query.\n      * @param _ticketOwner is the address of the user which is calling this function through a generation of new parameters or by buying a new random ticket.\n      * First, it emit an event to register the query. Then it do the query and save the bytes32 value generated to the iID.\n      * Finally it associate this iID with the _ticketOwner through the iParameterID mapping, so the oraclize's callback function know it is a i petition and it belongs to the _ticketOwner user.\n      */\n    function _askForIParameter(address _ticketOwner) public oraclizeGasPriceCustomized{\n        emit NewOraclizeQuery(\"Asking for a new i parameter...\");\n        bytes32 iID = oraclize_query(\"WolframAlpha\",\"4 random number\",oraclizeGasLimit);\n        iParameterID[iID] = _ticketOwner;\n    }\n    \n    /** @dev _askForTicket is a function to ask for a new ticket through an oraclize query.\n      * @param _ticketOwner is the address of the user which is calling this function through by buying a new random ticket or buying the ticket generated by it parameters.\n      * First, it emit an event to register the query. Then it do the query and save the bytes32 value generated to the userTicketID.\n      * Finally it associate this userTicketID with the _ticketOwner through the newTicketID mapping, so the oraclize's callback function know it \n      * is a ticket petition and it belongs to the _ticketOwner user. Inside the oraclize_query function it calls the _setTicketQuery function, so it generate the query \n      * depending on the UserParametersValue struct of the _ticketOwner user.\n      */\n    function _askForTicket(address _ticketOwner) public oraclizeGasPriceCustomized{\n        emit NewOraclizeQuery(\"Asking for a new ticket...\");\n        bytes32 userTicketID = oraclize_query(\"WolframAlpha\", _setTicketQuery(_ticketOwner), oraclizeGasLimit);\n        newTicketID[userTicketID] = _ticketOwner;\n    }\n\n    /** @dev _setTicketQuery is a function which sets the query to ask for a ticket to WolframAlpha through oraclize.\n      * @param _parametersOwner is the address of the user which is going to receive the ticket, e.g. a user asking for a ticket or the admin of the contract when calling for a\n      * Lucky7Number. The final shape of the query is (mod((1/(10^n-mu))*10^p,10^(j+i))-mod((1/(10^n-mu))*10^p,10^(i)))/10^i, and this function uses the strConcat function of\n      * the usingOraclize contract to concat the parts with the parameters of the user.\n      * Every line explains how the query is getting it shape. The meaning of this query is going to be explained on the paper of the project.\n      */\n    function _setTicketQuery(address _parametersOwner) internal returns (string){\n        string memory queryWolfram;\n        //This line => (mod((1/(10^n-mu))*10^    \n        queryWolfram = strConcat(\"(mod((1/(10^\",n,\"-\",userValues[_parametersOwner].mu,\"))*10^\");\n        //This line => (mod((1/(10^n-mu))*10^p,10^(j+\n        queryWolfram = strConcat(queryWolfram,p,\",10^(\",j,\"+\");\n        //This line => (mod((1/(10^n-mu))*10^p,10^(j+i))-mod((1/(10^n-\n        queryWolfram = strConcat(queryWolfram,userValues[_parametersOwner].i,\"))-mod((1/(10^\",n,\"-\");\n        //This line => (mod((1/(10^n-mu))*10^p,10^(j+i))-mod((1/(10^n-mu))*10^p,10^\n        queryWolfram = strConcat(queryWolfram,userValues[_parametersOwner].mu,\"))*10^\",p,\",10^\");\n        //This line => (mod((1/(10^n-mu))*10^p,10^(j+i))-mod((1/(10^n-mu))*10^p,10^(i)))/10^i\n        queryWolfram = strConcat(queryWolfram,\"(\",userValues[_parametersOwner].i,\")))/10^\",userValues[_parametersOwner].i);\n        emit NewWolframQuery(queryWolfram);\n        return queryWolfram;\n    }\n\n    /** @dev _generateTicket is used for another contract. Invokes _askForMuParameter and _askForIparameter\n      */\n    function _generateTicket(address _ticketOwner) public {\n        _askForMuParameter(_ticketOwner);\n        _askForIParameter(_ticketOwner);\n    }\n    \n    /** @dev _insertTicket inserts a ticket in the ticketsArray array.\n      * @param _ticketOwner is the owner of the ticket already generated. It uses the UserParametersValue struct values and the drawNumber value.\n      * Then it call the _checkForLucky7Ticket function to check if the inserted ticket is a Lucky7Ticket.\n      * Because a push return the size of the array, is necessary to decrement the id value in 1 to check the current ticket. \n      */\n    function _insertTicket(address _ticketOwner) internal {\n        uint id = ticketsArray.push(Ticket(userValues[_ticketOwner].mu,userValues[_ticketOwner].i,userValues[_ticketOwner].ticketValue,_ticketOwner,drawNumber)) - 1;\n        _checkForLucky7Ticket(id);\n    }\n\n    /** @dev _insertLucky7Number inserts a Lucky7Number in the lucky7NumbersArray array.\n      * @param _ticketOwner is the owner, but in this case is the owner of the contract. This is setted this way to take advantage of the UserParametersValue struct\n      * and store it the same way the tickets are stored. Once stored, the indexForLucky7Array is incremented by 1, so next time this function is called, the next\n      * Lucky7Number don't replace the last inserted. \n      * Then an event is emited.\n      */\n    function _insertLucky7Number(address _ticketOwner) internal {\n        lucky7NumbersArray[indexForLucky7Array] = Lucky7Number(userValues[_ticketOwner].mu,userValues[_ticketOwner].i,userValues[_ticketOwner].ticketValue,drawNumber);\n        indexForLucky7Array++;\n        emit NewLucky7Number(userValues[_ticketOwner].ticketValue);\n    }\n    \n    /** @dev _checkForLucky7Ticket is a function that check if a ticket recently inserted in the ticketsArray is a Lucky7Ticket.\n      * @param _ticketID is the ticket which is going to be checked.\n      * At this point, the Lucky7Numbers are ordered by them values in ascedant order.\n      * This function uses the SafeMath library to avoid integer underflow or overflow, or to check that the difference is not 0, which is a special case.\n      */\n    function _checkForLucky7Ticket(uint _ticketID) public{\n        uint i;\n        uint difference;\n        /** @dev First it checks if the ticket is bigger than the last Lucky7Number.\n          * If so, sets the auxiliary parameter i to the id of the last Lucky7Number, numberOfLucky7Numbers-1 in this case. Don't confuse with the i parameter of the PRNG.\n          * Then the difference between them is obtained through the sub function of the SafeMath library, knowing that the ticket is bigger than the last Lucky7Number.\n          */\n        if(ticketsArray[_ticketID].ticketValue>lucky7NumbersArray[numberOfLucky7Numbers-1].ticketValue){\n            i = numberOfLucky7Numbers-1;\n            difference = ticketsArray[_ticketID].ticketValue.sub(lucky7NumbersArray[i].ticketValue);\n            \n        }\n        /** @dev If it is not bigger than the last Lucky7Number, then checks if it is smaller thant the first Lucky7Number.\n          * If so, sets the auxiliary parameter i to the id of the first Lucky7Number, 0 in this case. Don't confuse with the i parameter of the PRNG.\n          * Then the difference between them is obtained through the sub function of the SafeMath library, knowing that the ticket is smaller than the first Lucky7Number.\n          */\n        else if (ticketsArray[_ticketID].ticketValue<lucky7NumbersArray[0].ticketValue){\n            i = 0;\n            difference = lucky7NumbersArray[i].ticketValue.sub(ticketsArray[_ticketID].ticketValue);\n        }\n\n        /** @dev If none of the above fits, then the ticket could be bigger or equal than the first Lucky7Number or smaller or equal than the last Lucky7Number.\n          * The function proceeds then to look which is it interval,i.e. it should be between two Lucky7Numbers or equal to one Lucky7Number.\n          */\n        else{\n            /** @dev The function then proceed to increment i until the ticket is bigger than the Lucky7Number[i].\n              */\n            while(ticketsArray[_ticketID].ticketValue>lucky7NumbersArray[i].ticketValue){ \n                i++;\n            }\n            /** @dev If the ticket and the correspondent Lucky7Numbers are equal, then the ticket is a ExactLucky7Ticket\n              */\n            if(ticketsArray[_ticketID].ticketValue==lucky7NumbersArray[i].ticketValue){\n                difference = 0;\n            }\n            else{\n                /** @dev If not, then it will have to check if the Lucky7Number above or below the ticket is closer\n                  * if the below Lucky7Number is closer to the ticket than the above Lucky7Number (if(upperLucky7NumberDifference>lowerLucky7NumberDifference)) then the \n                  * correspondent candidate to Lucky7Ticket is the Lucky7Number which is below the ticket.\n                  * Else, the above Lucky7Number is the correspondent candidate.\n                  * Then saves the value of difference.\n                  */\n                uint lowerLucky7NumberDifference = ticketsArray[_ticketID].ticketValue.sub(lucky7NumbersArray[i-1].ticketValue);\n                uint upperLucky7NumberDifference = lucky7NumbersArray[i].ticketValue.sub(ticketsArray[_ticketID].ticketValue);\n                \n                if(upperLucky7NumberDifference>lowerLucky7NumberDifference){\n                    i=i-1;\n                    difference = lowerLucky7NumberDifference;\n                }\n                else{\n                    difference = upperLucky7NumberDifference;\n                }\n            }\n        }\n        /** @dev Now the function proceed to check if it is in fact a Lucky7Ticket.\n          * If the Lucky7Ticket[i] hasn't an owner, then the ticket is automatically assigned as Lucky7Ticket.\n          * If it has an owner, then check if the difference is smaller than the difference of the current owner.\n          * If it is smaller, then the ticket is a Lucky7Ticket and is stored in the Lucky7Ticket mappings.\n          * Then an event is emitted.\n          */\n        if(lucky7TicketOwner[i] == address(0x0) || difference<lucky7TicketDifference[i]){\n            lucky7TicketOwner[i] = ticketsArray[_ticketID].owner;\n            lucky7TicketDifference[i] = difference;\n            lucky7TicketID[i] = _ticketID;\n            emit NewLucky7Ticket(_ticketID);\n        }\n        /** @dev Then, checks if it's a ExactLucky7Ticket.\n          * Due to the high entropy of the PRNG is pretty unfeasible to get an ExactLucky7Ticket without having the same mu and i parameters than the\n          * Lucky7Number. The probability of having two identical ExactLucky7Tickets in the same game is even lower.\n          * If in determinated unfortunate case an user gets a ExacyLucky7Ticket which is already occupied, then it will not replace the old one.\n          * That's why is necessary to storage all the ExactLucky7Tickets to award them specially, e.g. giving them tokens according to some rules, which would be\n          * specified in future developments.\n          * The next step, then, is to check if it is indeed a ExactLucky7Ticket. If so, then store the information in the ExactLucky7Tickets mappings and increment\n          * indexForExactLucky7Ticket by 1.\n          */\n        if(difference == 0){\n            ExactLucky7TicketOwner[indexForExactLucky7Ticket] = ticketsArray[_ticketID].owner;\n            ExactLucky7TicketValue[indexForExactLucky7Ticket] = ticketsArray[_ticketID].ticketValue;\n            ExactLucky7TicketID[indexForExactLucky7Ticket] = _ticketID;\n            indexForExactLucky7Ticket++;\n        }\n    }\n    \n    /** @dev __callback is a function used for oraclize to send back the query emitted to oraclize.\n      * @param myid is the id of the query, same as the muID, iID or userTicketID of the _askForMuParameter, _askForIParameter and _askForTicket functions above.\n      * @param result is the result of the query.\n      * Once the query is resolved, oraclize sends back the answer, and the function check that the one calling the function is indeed a oraclize contract. \n      */\n    function __callback(bytes32 myid, string result) public{\n        require(msg.sender == oraclize_cbAddress());\n        /** @dev First, the function checks if there's an muParameterID value associated to myid,i.e. the response is a mu parameter of the  \n          * \"muParameterID[myid]\" user (remember that muParameterID[] maps from an bytes32, the id, to an user address).\n          * Then it will check if the muReady boolean of the user's UserParametersValue struct is setted to false (explained in later contracts).\n          * If so, stores the result as the mu parameter of the user's UserParametersValue struct, emits an event and set the muReady of the struct to true.\n          * Then checks if the iReady boolen is setted to true. If so, it means that the user already recieved both parameters and is ready to generate a new ticket.\n          * To do so, the function checks if the user already paid for the ticket through checking if the userPaidTicket boolean of the user's UserParametersValue struct\n          * is true, or if the settingLucky7Numbers circuit breaker is on, which means that currently the game is in the setting Lucky7Numbers phase.\n          * In any of those cases, the function calls the _askForTicketFunction for the \"muParameterID[myid]\" user.\n          */\n        if(muParameterID[myid]!=0 && userValues[muParameterID[myid]].muReady==false){\n            userValues[muParameterID[myid]].mu=result;\n            emit NewMuReceived(result);\n            userValues[muParameterID[myid]].muReady=true;\n            if(userValues[muParameterID[myid]].iReady == true && (userValues[muParameterID[myid]].userPaidTicket==true || settingLucky7Numbers==true )){\n                _askForTicket(muParameterID[myid]);\n            }\n        }\n\n        /** @dev If above don't fit, then checks if the result is the i parameter of the user and proceeds the same way, checking if already have the mu parameter setted,\n          * and if the user paid for the ticket or the game is in the setting Lucky7Number phase.\n          */\n        else if (iParameterID[myid]!=0 && userValues[iParameterID[myid]].iReady==false){\n            userValues[iParameterID[myid]].i=result;\n            emit NewIReceived(result);\n            userValues[iParameterID[myid]].iReady=true;\n            if(userValues[iParameterID[myid]].muReady == true && (userValues[iParameterID[myid]].userPaidTicket==true || settingLucky7Numbers==true )){\n                _askForTicket(iParameterID[myid]);\n            }\n        }\n\n        /** @dev If not, then proceed the same way as above, but once the ticket is inserted and the event is emitted, the userPaidTicket of the user's UserValuesStruct is \n          * setted to 0, marking that the ticket thet user paid is already stored and it have to pay again if it wants to buy another ticket.\n          * Finally, it checks if the game is currently in the setting Lucky7Numbers phase. If so, calls the _insertLucky7Number function, else it calls the \n          * _insertTicket function, both explained above.\n          */\n        else if (newTicketID[myid]!=0 &&  (userValues[newTicketID[myid]].userPaidTicket==true || settingLucky7Numbers==true )){\n            userValues[newTicketID[myid]].ticketValue=parseInt(result);\n            emit NewTicketReceived(result);\n            userValues[newTicketID[myid]].userPaidTicket=false;\n            if(settingLucky7Numbers==true){\n                _insertLucky7Number(newTicketID[myid]);\n            }\n            else{\n                _insertTicket(newTicketID[myid]);\n            }\n        }\n    }\n\n    function() public payable{}\n} ",
  "sourcePath": "/Users/matiasbarrios/Desktop/Proyecto Consensys/luckyseven/contracts/Lucky7TicketFactory.sol",
  "compiler": {
    "name": "solc",
    "version": "0.4.24+commit.e67f0147.Emscripten.clang"
  },
  "schemaVersion": "2.0.1",
  "updatedAt": "2018-08-27T14:28:25.017Z"
}