{
  "contractName": "Lucky7Ballot",
  "abi": [
    {
      "constant": true,
      "inputs": [
        {
          "name": "",
          "type": "uint256"
        }
      ],
      "name": "lucky7TicketID",
      "outputs": [
        {
          "name": "",
          "type": "uint256"
        }
      ],
      "payable": false,
      "stateMutability": "view",
      "type": "function"
    },
    {
      "constant": true,
      "inputs": [
        {
          "name": "",
          "type": "uint256"
        }
      ],
      "name": "lucky7TicketOwner",
      "outputs": [
        {
          "name": "",
          "type": "address"
        }
      ],
      "payable": false,
      "stateMutability": "view",
      "type": "function"
    },
    {
      "constant": false,
      "inputs": [
        {
          "name": "_ticketOwner",
          "type": "address"
        }
      ],
      "name": "_askForMuParameter",
      "outputs": [],
      "payable": false,
      "stateMutability": "nonpayable",
      "type": "function"
    },
    {
      "constant": false,
      "inputs": [
        {
          "name": "myid",
          "type": "bytes32"
        },
        {
          "name": "result",
          "type": "string"
        }
      ],
      "name": "__callback",
      "outputs": [],
      "payable": false,
      "stateMutability": "nonpayable",
      "type": "function"
    },
    {
      "constant": true,
      "inputs": [],
      "name": "settingLucky7Numbers",
      "outputs": [
        {
          "name": "",
          "type": "bool"
        }
      ],
      "payable": false,
      "stateMutability": "view",
      "type": "function"
    },
    {
      "constant": false,
      "inputs": [
        {
          "name": "_ticketID",
          "type": "uint256"
        }
      ],
      "name": "_checkForLucky7Ticket",
      "outputs": [],
      "payable": false,
      "stateMutability": "nonpayable",
      "type": "function"
    },
    {
      "constant": true,
      "inputs": [],
      "name": "n",
      "outputs": [
        {
          "name": "",
          "type": "string"
        }
      ],
      "payable": false,
      "stateMutability": "view",
      "type": "function"
    },
    {
      "constant": false,
      "inputs": [
        {
          "name": "myid",
          "type": "bytes32"
        },
        {
          "name": "result",
          "type": "string"
        },
        {
          "name": "proof",
          "type": "bytes"
        }
      ],
      "name": "__callback",
      "outputs": [],
      "payable": false,
      "stateMutability": "nonpayable",
      "type": "function"
    },
    {
      "constant": false,
      "inputs": [],
      "name": "toggleLucky7Setting",
      "outputs": [],
      "payable": false,
      "stateMutability": "nonpayable",
      "type": "function"
    },
    {
      "constant": false,
      "inputs": [
        {
          "name": "_newAddress",
          "type": "address"
        }
      ],
      "name": "modifyEnterpriseWallet",
      "outputs": [],
      "payable": false,
      "stateMutability": "nonpayable",
      "type": "function"
    },
    {
      "constant": true,
      "inputs": [
        {
          "name": "",
          "type": "address"
        }
      ],
      "name": "userValues",
      "outputs": [
        {
          "name": "mu",
          "type": "string"
        },
        {
          "name": "i",
          "type": "string"
        },
        {
          "name": "ticketValue",
          "type": "uint256"
        },
        {
          "name": "muReady",
          "type": "bool"
        },
        {
          "name": "iReady",
          "type": "bool"
        },
        {
          "name": "userPaidTicket",
          "type": "bool"
        }
      ],
      "payable": false,
      "stateMutability": "view",
      "type": "function"
    },
    {
      "constant": true,
      "inputs": [],
      "name": "b",
      "outputs": [
        {
          "name": "",
          "type": "string"
        }
      ],
      "payable": false,
      "stateMutability": "view",
      "type": "function"
    },
    {
      "constant": true,
      "inputs": [],
      "name": "oraclizeGasLimit",
      "outputs": [
        {
          "name": "",
          "type": "uint256"
        }
      ],
      "payable": false,
      "stateMutability": "view",
      "type": "function"
    },
    {
      "constant": false,
      "inputs": [
        {
          "name": "_newOAR",
          "type": "address"
        }
      ],
      "name": "changeOAR",
      "outputs": [],
      "payable": false,
      "stateMutability": "nonpayable",
      "type": "function"
    },
    {
      "constant": true,
      "inputs": [],
      "name": "numberOfLucky7Numbers",
      "outputs": [
        {
          "name": "",
          "type": "uint256"
        }
      ],
      "payable": false,
      "stateMutability": "view",
      "type": "function"
    },
    {
      "constant": false,
      "inputs": [],
      "name": "renounceOwnership",
      "outputs": [],
      "payable": false,
      "stateMutability": "nonpayable",
      "type": "function"
    },
    {
      "constant": true,
      "inputs": [],
      "name": "enterpriseWallet",
      "outputs": [
        {
          "name": "",
          "type": "address"
        }
      ],
      "payable": false,
      "stateMutability": "view",
      "type": "function"
    },
    {
      "constant": false,
      "inputs": [
        {
          "name": "_ticketOwner",
          "type": "address"
        }
      ],
      "name": "_generateTicket",
      "outputs": [],
      "payable": false,
      "stateMutability": "nonpayable",
      "type": "function"
    },
    {
      "constant": true,
      "inputs": [],
      "name": "lastSecondPrizeWinner",
      "outputs": [
        {
          "name": "",
          "type": "address"
        }
      ],
      "payable": false,
      "stateMutability": "view",
      "type": "function"
    },
    {
      "constant": false,
      "inputs": [
        {
          "name": "_newValue",
          "type": "uint256"
        }
      ],
      "name": "modifyOraclizeGasLimit",
      "outputs": [],
      "payable": false,
      "stateMutability": "nonpayable",
      "type": "function"
    },
    {
      "constant": true,
      "inputs": [
        {
          "name": "",
          "type": "uint256"
        }
      ],
      "name": "ExactLucky7TicketValue",
      "outputs": [
        {
          "name": "",
          "type": "uint256"
        }
      ],
      "payable": false,
      "stateMutability": "view",
      "type": "function"
    },
    {
      "constant": false,
      "inputs": [
        {
          "name": "_newValue",
          "type": "uint256"
        }
      ],
      "name": "modifyGenerateTicketPrice",
      "outputs": [],
      "payable": false,
      "stateMutability": "nonpayable",
      "type": "function"
    },
    {
      "constant": true,
      "inputs": [
        {
          "name": "",
          "type": "uint256"
        }
      ],
      "name": "ExactLucky7TicketID",
      "outputs": [
        {
          "name": "",
          "type": "uint256"
        }
      ],
      "payable": false,
      "stateMutability": "view",
      "type": "function"
    },
    {
      "constant": true,
      "inputs": [],
      "name": "owner",
      "outputs": [
        {
          "name": "",
          "type": "address"
        }
      ],
      "payable": false,
      "stateMutability": "view",
      "type": "function"
    },
    {
      "constant": true,
      "inputs": [
        {
          "name": "",
          "type": "uint256"
        }
      ],
      "name": "lucky7NumbersArray",
      "outputs": [
        {
          "name": "mu",
          "type": "string"
        },
        {
          "name": "i",
          "type": "string"
        },
        {
          "name": "ticketValue",
          "type": "uint256"
        },
        {
          "name": "drawID",
          "type": "uint256"
        }
      ],
      "payable": false,
      "stateMutability": "view",
      "type": "function"
    },
    {
      "constant": true,
      "inputs": [],
      "name": "lastFirstPrizeWinner",
      "outputs": [
        {
          "name": "",
          "type": "address"
        }
      ],
      "payable": false,
      "stateMutability": "view",
      "type": "function"
    },
    {
      "constant": true,
      "inputs": [],
      "name": "oraclizeCustomGasPrice",
      "outputs": [
        {
          "name": "",
          "type": "uint256"
        }
      ],
      "payable": false,
      "stateMutability": "view",
      "type": "function"
    },
    {
      "constant": true,
      "inputs": [],
      "name": "p",
      "outputs": [
        {
          "name": "",
          "type": "string"
        }
      ],
      "payable": false,
      "stateMutability": "view",
      "type": "function"
    },
    {
      "constant": true,
      "inputs": [
        {
          "name": "",
          "type": "uint256"
        }
      ],
      "name": "ticketsArray",
      "outputs": [
        {
          "name": "mu",
          "type": "string"
        },
        {
          "name": "i",
          "type": "string"
        },
        {
          "name": "ticketValue",
          "type": "uint256"
        },
        {
          "name": "owner",
          "type": "address"
        },
        {
          "name": "drawID",
          "type": "uint256"
        }
      ],
      "payable": false,
      "stateMutability": "view",
      "type": "function"
    },
    {
      "constant": true,
      "inputs": [],
      "name": "j",
      "outputs": [
        {
          "name": "",
          "type": "string"
        }
      ],
      "payable": false,
      "stateMutability": "view",
      "type": "function"
    },
    {
      "constant": true,
      "inputs": [],
      "name": "initialLucky7TicketPosition",
      "outputs": [
        {
          "name": "",
          "type": "uint256"
        }
      ],
      "payable": false,
      "stateMutability": "view",
      "type": "function"
    },
    {
      "constant": false,
      "inputs": [
        {
          "name": "_newValue",
          "type": "uint256"
        }
      ],
      "name": "modifySellTicketPrice",
      "outputs": [],
      "payable": false,
      "stateMutability": "nonpayable",
      "type": "function"
    },
    {
      "constant": true,
      "inputs": [],
      "name": "indexForLucky7Array",
      "outputs": [
        {
          "name": "",
          "type": "uint256"
        }
      ],
      "payable": false,
      "stateMutability": "view",
      "type": "function"
    },
    {
      "constant": true,
      "inputs": [
        {
          "name": "",
          "type": "uint256"
        }
      ],
      "name": "lucky7TicketsArray",
      "outputs": [
        {
          "name": "difference",
          "type": "uint256"
        },
        {
          "name": "owner",
          "type": "address"
        },
        {
          "name": "ticketID",
          "type": "uint256"
        },
        {
          "name": "ticketValue",
          "type": "uint256"
        },
        {
          "name": "lucky7Number",
          "type": "uint256"
        },
        {
          "name": "lucky7NumberID",
          "type": "uint256"
        },
        {
          "name": "drawID",
          "type": "uint256"
        }
      ],
      "payable": false,
      "stateMutability": "view",
      "type": "function"
    },
    {
      "constant": false,
      "inputs": [
        {
          "name": "_newValue",
          "type": "uint256"
        }
      ],
      "name": "modifyNumberOfLucky7Numbers",
      "outputs": [],
      "payable": false,
      "stateMutability": "nonpayable",
      "type": "function"
    },
    {
      "constant": false,
      "inputs": [
        {
          "name": "_newValue",
          "type": "uint256"
        }
      ],
      "name": "modifyOraclizeCustomGasPrice",
      "outputs": [],
      "payable": false,
      "stateMutability": "nonpayable",
      "type": "function"
    },
    {
      "constant": true,
      "inputs": [],
      "name": "generateTicketPrice",
      "outputs": [
        {
          "name": "",
          "type": "uint256"
        }
      ],
      "payable": false,
      "stateMutability": "view",
      "type": "function"
    },
    {
      "constant": true,
      "inputs": [],
      "name": "drawNumber",
      "outputs": [
        {
          "name": "",
          "type": "uint256"
        }
      ],
      "payable": false,
      "stateMutability": "view",
      "type": "function"
    },
    {
      "constant": true,
      "inputs": [],
      "name": "indexForExactLucky7Ticket",
      "outputs": [
        {
          "name": "",
          "type": "uint256"
        }
      ],
      "payable": false,
      "stateMutability": "view",
      "type": "function"
    },
    {
      "constant": false,
      "inputs": [
        {
          "name": "_ticketOwner",
          "type": "address"
        }
      ],
      "name": "_askForTicket",
      "outputs": [],
      "payable": false,
      "stateMutability": "nonpayable",
      "type": "function"
    },
    {
      "constant": true,
      "inputs": [],
      "name": "sellTicketPrice",
      "outputs": [
        {
          "name": "",
          "type": "uint256"
        }
      ],
      "payable": false,
      "stateMutability": "view",
      "type": "function"
    },
    {
      "constant": true,
      "inputs": [
        {
          "name": "",
          "type": "uint256"
        }
      ],
      "name": "lucky7TicketDifference",
      "outputs": [
        {
          "name": "",
          "type": "uint256"
        }
      ],
      "payable": false,
      "stateMutability": "view",
      "type": "function"
    },
    {
      "constant": true,
      "inputs": [
        {
          "name": "",
          "type": "uint256"
        }
      ],
      "name": "ExactLucky7TicketOwner",
      "outputs": [
        {
          "name": "",
          "type": "address"
        }
      ],
      "payable": false,
      "stateMutability": "view",
      "type": "function"
    },
    {
      "constant": false,
      "inputs": [
        {
          "name": "_newOwner",
          "type": "address"
        }
      ],
      "name": "transferOwnership",
      "outputs": [],
      "payable": false,
      "stateMutability": "nonpayable",
      "type": "function"
    },
    {
      "constant": true,
      "inputs": [
        {
          "name": "",
          "type": "address"
        }
      ],
      "name": "pendingWithdrawals",
      "outputs": [
        {
          "name": "",
          "type": "uint256"
        }
      ],
      "payable": false,
      "stateMutability": "view",
      "type": "function"
    },
    {
      "constant": true,
      "inputs": [],
      "name": "currentTicketID",
      "outputs": [
        {
          "name": "",
          "type": "uint256"
        }
      ],
      "payable": false,
      "stateMutability": "view",
      "type": "function"
    },
    {
      "constant": true,
      "inputs": [],
      "name": "lastThirdPrizeWinner",
      "outputs": [
        {
          "name": "",
          "type": "address"
        }
      ],
      "payable": false,
      "stateMutability": "view",
      "type": "function"
    },
    {
      "constant": false,
      "inputs": [
        {
          "name": "_ticketOwner",
          "type": "address"
        }
      ],
      "name": "_askForIParameter",
      "outputs": [],
      "payable": false,
      "stateMutability": "nonpayable",
      "type": "function"
    },
    {
      "inputs": [],
      "payable": true,
      "stateMutability": "payable",
      "type": "constructor"
    },
    {
      "payable": true,
      "stateMutability": "payable",
      "type": "fallback"
    },
    {
      "anonymous": false,
      "inputs": [
        {
          "indexed": false,
          "name": "description",
          "type": "string"
        }
      ],
      "name": "NewOraclizeQuery",
      "type": "event"
    },
    {
      "anonymous": false,
      "inputs": [
        {
          "indexed": false,
          "name": "muParameter",
          "type": "string"
        }
      ],
      "name": "NewMuReceived",
      "type": "event"
    },
    {
      "anonymous": false,
      "inputs": [
        {
          "indexed": false,
          "name": "iParameter",
          "type": "string"
        }
      ],
      "name": "NewIReceived",
      "type": "event"
    },
    {
      "anonymous": false,
      "inputs": [
        {
          "indexed": false,
          "name": "newTicket",
          "type": "string"
        }
      ],
      "name": "NewTicketReceived",
      "type": "event"
    },
    {
      "anonymous": false,
      "inputs": [
        {
          "indexed": false,
          "name": "description",
          "type": "string"
        }
      ],
      "name": "NewWolframQuery",
      "type": "event"
    },
    {
      "anonymous": false,
      "inputs": [
        {
          "indexed": false,
          "name": "ticketID",
          "type": "uint256"
        }
      ],
      "name": "NewLucky7Ticket",
      "type": "event"
    },
    {
      "anonymous": false,
      "inputs": [
        {
          "indexed": false,
          "name": "value",
          "type": "uint256"
        }
      ],
      "name": "NewLucky7Number",
      "type": "event"
    },
    {
      "anonymous": false,
      "inputs": [
        {
          "indexed": false,
          "name": "describe",
          "type": "string"
        },
        {
          "indexed": false,
          "name": "_oldValue",
          "type": "uint256"
        },
        {
          "indexed": false,
          "name": "_newValue",
          "type": "uint256"
        }
      ],
      "name": "numberModified",
      "type": "event"
    },
    {
      "anonymous": false,
      "inputs": [
        {
          "indexed": false,
          "name": "describe",
          "type": "string"
        },
        {
          "indexed": false,
          "name": "_oldValue",
          "type": "string"
        },
        {
          "indexed": false,
          "name": "_newValue",
          "type": "string"
        }
      ],
      "name": "parameterModified",
      "type": "event"
    },
    {
      "anonymous": false,
      "inputs": [
        {
          "indexed": false,
          "name": "describe",
          "type": "string"
        },
        {
          "indexed": false,
          "name": "_oldValue",
          "type": "address"
        },
        {
          "indexed": false,
          "name": "_newValue",
          "type": "address"
        }
      ],
      "name": "walletModified",
      "type": "event"
    },
    {
      "anonymous": false,
      "inputs": [
        {
          "indexed": true,
          "name": "previousOwner",
          "type": "address"
        }
      ],
      "name": "OwnershipRenounced",
      "type": "event"
    },
    {
      "anonymous": false,
      "inputs": [
        {
          "indexed": true,
          "name": "previousOwner",
          "type": "address"
        },
        {
          "indexed": true,
          "name": "newOwner",
          "type": "address"
        }
      ],
      "name": "OwnershipTransferred",
      "type": "event"
    },
    {
      "constant": false,
      "inputs": [],
      "name": "setNewGame",
      "outputs": [],
      "payable": false,
      "stateMutability": "nonpayable",
      "type": "function"
    },
    {
      "constant": false,
      "inputs": [],
      "name": "_generateLucky7Number",
      "outputs": [],
      "payable": false,
      "stateMutability": "nonpayable",
      "type": "function"
    },
    {
      "constant": false,
      "inputs": [],
      "name": "_orderLucky7Numbers",
      "outputs": [],
      "payable": false,
      "stateMutability": "nonpayable",
      "type": "function"
    },
    {
      "constant": false,
      "inputs": [],
      "name": "_orderLucky7Tickets",
      "outputs": [],
      "payable": false,
      "stateMutability": "nonpayable",
      "type": "function"
    },
    {
      "constant": false,
      "inputs": [],
      "name": "_deliverPrizes",
      "outputs": [],
      "payable": false,
      "stateMutability": "nonpayable",
      "type": "function"
    },
    {
      "constant": false,
      "inputs": [],
      "name": "_cleanMappings",
      "outputs": [],
      "payable": false,
      "stateMutability": "nonpayable",
      "type": "function"
    },
    {
      "constant": false,
      "inputs": [],
      "name": "withdraw",
      "outputs": [],
      "payable": false,
      "stateMutability": "nonpayable",
      "type": "function"
    },
    {
      "constant": false,
      "inputs": [
        {
          "name": "_id",
          "type": "uint256"
        },
        {
          "name": "_mu",
          "type": "string"
        },
        {
          "name": "_i",
          "type": "string"
        },
        {
          "name": "_ticketValue",
          "type": "uint256"
        },
        {
          "name": "_drawNumber",
          "type": "uint256"
        }
      ],
      "name": "insertCustomizedLucky7Number",
      "outputs": [],
      "payable": false,
      "stateMutability": "nonpayable",
      "type": "function"
    },
    {
      "constant": false,
      "inputs": [
        {
          "name": "_mu",
          "type": "string"
        },
        {
          "name": "_i",
          "type": "string"
        },
        {
          "name": "_ticketValue",
          "type": "uint256"
        },
        {
          "name": "_ticketOwner",
          "type": "address"
        },
        {
          "name": "_drawNumber",
          "type": "uint256"
        }
      ],
      "name": "insertCustomizedTicket",
      "outputs": [
        {
          "name": "",
          "type": "uint256"
        }
      ],
      "payable": false,
      "stateMutability": "nonpayable",
      "type": "function"
    },
    {
      "constant": false,
      "inputs": [
        {
          "name": "_newValue",
          "type": "uint256"
        }
      ],
      "name": "setIndexForLucky7Array",
      "outputs": [],
      "payable": false,
      "stateMutability": "nonpayable",
      "type": "function"
    },
    {
      "constant": false,
      "inputs": [
        {
          "name": "_newValue",
          "type": "uint256"
        }
      ],
      "name": "setInitialLucky7TicketPosition",
      "outputs": [],
      "payable": false,
      "stateMutability": "nonpayable",
      "type": "function"
    }
  ],
  "bytecode": "0x60c0604052600160808190527f310000000000000000000000000000000000000000000000000000000000000060a09081526200003e919081620001cc565b506040805180820190915260018082527f380000000000000000000000000000000000000000000000000000000000000060209092019182526200008591600291620001cc565b506040805180820190915260058082527f31303030300000000000000000000000000000000000000000000000000000006020909201918252620000cc91600391620001cc565b506040805180820190915260028082527f323000000000000000000000000000000000000000000000000000000000000060209092019182526200011391600491620001cc565b50600760058190556611c37937e08000600655662aa1efb94e00009055620493e060085563ee6b280060095560008054600a8054600160a060020a0319908116600160a060020a038416179091556010805460ff191660011790556039839055603a839055603b839055603c839055603d839055603e805482169055603f80548216905560408054821690559081163317909155600b805490911673d1a269d9b0dfb66cfdaf89cf0c6e6f8df0615ad017905562000271565b828054600181600116156101000203166002900490600052602060002090601f016020900481019282601f106200020f57805160ff19168380011785556200023f565b828001600101855582156200023f579182015b828111156200023f57825182559160200191906001019062000222565b506200024d92915062000251565b5090565b6200026e91905b808211156200024d576000815560010162000258565b90565b61554780620002816000396000f3006080604052600436106102a55763ffffffff60e060020a6000350416630d0a4b7f81146102a757806310cd4b8a146102bf5780631827f45d146102e95780631c3ed1d3146103015780631cf4c3d11461033557806323d370ba1461034a57806327dc297e1461036b5780632caf9eee146103c95780632de729eb146103f25780632e52d6061461040a57806338bbfa501461049457806339df3f4f146105305780633ccfd60b14610545578063400149111461055a57806349f6b0301461056f5780634acfd9b8146105905780634df7e3d0146106af57806350b9c428146106c457806358070951146106d957806359f9fe82146106fa5780635fff9ae31461070f578063715018a6146107b4578063741606b5146107c957806375edd257146107de57806377d8a830146107f35780637fd4ecde14610814578063809fc153146108295780638a1dd740146108415780638aa5fafa146108595780638ce3da3c146108715780638da5cb5b1461088957806390c31c4c1461089e57806396853e13146108b3578063980d988c146109b75780639ac2bf91146109cc5780639ae8886a146109e1578063b4f8eadd146109f6578063b582ec5f14610b09578063bb4127e814610b1e578063bb49516b14610bca578063bcb740ab14610bdf578063c53d6e4714610bf7578063c56969ab14610c0c578063c629dad914610c21578063c71f04ac14610c79578063d383e86214610c91578063d566bcf014610ca9578063d80ffb2014610cbe578063d84ca03a14610cd3578063ddc110fa14610ce8578063e5663c4814610d09578063e802ae1414610d1e578063eaaa680a14610d36578063f2fde38b14610d4e578063f3f4370314610d6f578063f405228914610d90578063f53c7d0814610da5578063fc22d3e414610dba578063fd9be1b214610dcf575b005b3480156102b357600080fd5b506102a5600435610df0565b3480156102cb57600080fd5b506102d7600435610e0c565b60408051918252519081900360200190f35b3480156102f557600080fd5b506102a5600435610e1e565b34801561030d57600080fd5b50610319600435610e3a565b60408051600160a060020a039092168252519081900360200190f35b34801561034157600080fd5b506102a5610e55565b34801561035657600080fd5b506102a5600160a060020a036004351661122f565b34801561037757600080fd5b5060408051602060046024803582810135601f81018590048502860185019096528585526102a59583359536956044949193909101919081908401838280828437509497506113419650505050505050565b3480156103d557600080fd5b506103de6118f6565b604080519115158252519081900360200190f35b3480156103fe57600080fd5b506102a56004356118ff565b34801561041657600080fd5b5061041f611c5e565b6040805160208082528351818301528351919283929083019185019080838360005b83811015610459578181015183820152602001610441565b50505050905090810190601f1680156104865780820380516001836020036101000a031916815260200191505b509250505060405180910390f35b3480156104a057600080fd5b5060408051602060046024803582810135601f81018590048502860185019096528585526102a595833595369560449491939091019190819084018382808284375050604080516020601f89358b018035918201839004830284018301909452808352979a999881019791965091820194509250829150840183828082843750949750611ce99650505050505050565b34801561053c57600080fd5b506102a5611cee565b34801561055157600080fd5b506102a5611d19565b34801561056657600080fd5b506102a5611d5a565b34801561057b57600080fd5b506102a5600160a060020a0360043516611dac565b34801561059c57600080fd5b506105b1600160a060020a0360043516611e5b565b604080519081018590528315156060820152821515608082015281151560a082015260c08082528751908201528651819060208083019160e08401918b019080838360005b8381101561060e5781810151838201526020016105f6565b50505050905090810190601f16801561063b5780820380516001836020036101000a031916815260200191505b5083810382528851815288516020918201918a019080838360005b8381101561066e578181015183820152602001610656565b50505050905090810190601f16801561069b5780820380516001836020036101000a031916815260200191505b509850505050505050505060405180910390f35b3480156106bb57600080fd5b5061041f611fbb565b3480156106d057600080fd5b506102d7612015565b3480156106e557600080fd5b506102a5600160a060020a036004351661201b565b34801561070657600080fd5b506102d761203d565b34801561071b57600080fd5b5060408051602060046024803582810135601f81018590048502860185019096528585526102a595833595369560449491939091019190819084018382808284375050604080516020601f89358b018035918201839004830284018301909452808352979a9998810197919650918201945092508291508401838280828437509497505084359550505060209092013591506120439050565b3480156107c057600080fd5b506102a56120df565b3480156107d557600080fd5b5061031961213e565b3480156107ea57600080fd5b506102a561214d565b3480156107ff57600080fd5b506102a5600160a060020a036004351661258f565b34801561082057600080fd5b506103196125a4565b34801561083557600080fd5b506102a56004356125b3565b34801561084d57600080fd5b506102d7600435612634565b34801561086557600080fd5b506102a5600435612646565b34801561087d57600080fd5b506102d76004356126c7565b34801561089557600080fd5b506103196126d9565b3480156108aa57600080fd5b506102a56126e8565b3480156108bf57600080fd5b506108cb60043561275f565b604051808060200180602001858152602001848152602001838103835287818151815260200191508051906020019080838360005b83811015610918578181015183820152602001610900565b50505050905090810190601f1680156109455780820380516001836020036101000a031916815260200191505b50838103825286518152865160209182019188019080838360005b83811015610978578181015183820152602001610960565b50505050905090810190601f1680156109a55780820380516001836020036101000a031916815260200191505b50965050505050505060405180910390f35b3480156109c357600080fd5b506103196128ab565b3480156109d857600080fd5b506102d76128ba565b3480156109ed57600080fd5b5061041f6128c0565b348015610a0257600080fd5b50610a0e60043561291b565b60408051908101849052600160a060020a03831660608201526080810182905260a08082528651908201528551819060208083019160c08401918a019080838360005b83811015610a69578181015183820152602001610a51565b50505050905090810190601f168015610a965780820380516001836020036101000a031916815260200191505b50838103825287518152875160209182019189019080838360005b83811015610ac9578181015183820152602001610ab1565b50505050905090810190601f168015610af65780820380516001836020036101000a031916815260200191505b5097505050505050505060405180910390f35b348015610b1557600080fd5b5061041f612a88565b348015610b2a57600080fd5b506040805160206004803580820135601f81018490048402850184019095528484526102d794369492936024939284019190819084018382808284375050604080516020601f89358b018035918201839004830284018301909452808352979a99988101979196509182019450925082915084018382808284375094975050843595505050506020820135600160a060020a031691604001359050612ae3565b348015610bd657600080fd5b506102d7612be4565b348015610beb57600080fd5b506102a5600435612bea565b348015610c0357600080fd5b506102a5612c6b565b348015610c1857600080fd5b506102d7612dd6565b348015610c2d57600080fd5b50610c39600435612ddc565b60408051978852600160a060020a039096166020880152868601949094526060860192909252608085015260a084015260c0830152519081900360e00190f35b348015610c8557600080fd5b506102a5600435612e33565b348015610c9d57600080fd5b506102a5600435612eb4565b348015610cb557600080fd5b506102d7612f5b565b348015610cca57600080fd5b506102d7612f61565b348015610cdf57600080fd5b506102d7612f67565b348015610cf457600080fd5b506102a5600160a060020a0360043516612f6d565b348015610d1557600080fd5b506102d7613054565b348015610d2a57600080fd5b506102d760043561305a565b348015610d4257600080fd5b5061031960043561306c565b348015610d5a57600080fd5b506102a5600160a060020a0360043516613087565b348015610d7b57600080fd5b506102d7600160a060020a03600435166130a7565b348015610d9c57600080fd5b506102a56130b9565b348015610db157600080fd5b506102d76134ba565b348015610dc657600080fd5b506103196134c0565b348015610ddb57600080fd5b506102a5600160a060020a03600435166134cf565b600054600160a060020a03163314610e0757600080fd5b603c55565b60356020526000908152604090205481565b600054600160a060020a03163314610e3557600080fd5b603a55565b603460205260009081526040902054600160a060020a031681565b610e5d61537e565b60008054819081908190600160a060020a03163314610e7b57600080fd5b600092505b600554831015610fad576040805160e0810182526000858152603360209081528382205483528682526034815283822054600160a060020a0316818401528682526035808252848320549484018590529187905252601280546011936060840192918110610eea57fe5b9060005260206000209060050201600201548152602001601386600781101515610f1057fe5b600490810291909101600290810154835260208084018990526039546040948501528554600180820188556000978852968290208651600790920201908155908501518187018054600160a060020a031916600160a060020a0390921691909117905592840151908301556060830151600383015560808301519082015560a0820151600582015560c09091015160069091015590920191610e80565b603c5491505b603c546005540182101561122857819350601182815481101515610fd357fe5b60009182526020918290206040805160e081018252600790930290910180548352600180820154600160a060020a0316948401949094526002810154918301919091526003810154606083015260048101546080830152600581015460a08301526006015460c08201529550820190505b603c54600554018110156110fd57601180548290811061106057fe5b6000918252602090912060079091020154855111156110f557601180548290811061108757fe5b60009182526020918290206040805160e0810182526007909302909101805483526001810154600160a060020a0316938301939093526002830154908201526003820154606082015260048201546080820152600582015460a082015260069091015460c082015294509250825b600101611044565b83821461121d57601180548390811061111257fe5b906000526020600020906007020160118581548110151561112f57fe5b6000918252602090912082546007909202019081556001808301549082018054600160a060020a031916600160a060020a039092169190911790556002808301549082015560038083015490820155600480830154908201556005808301549082015560069182015491015560118054869190849081106111ac57fe5b600091825260209182902083516007929092020190815590820151600182018054600160a060020a031916600160a060020a0390921691909117905560408201516002820155606082015160038201556080820151600482015560a0820151600582015560c0909101516006909101555b600190910190610fb3565b5050505050565b600061123c6009546135e3565b604080516020808252808201527f41736b696e6720666f722061206e6577206d7520706172616d657465722e2e2e8183015290517f096835e36c2ccea88ff2b3aca87dfc938b977e52ea656873ff76a8dba50d4d349181900360600190a16113116040805190810160405280600c81526020017f576f6c6672616d416c70686100000000000000000000000000000000000000008152506040805190810160405280600f81526020017f342072616e646f6d206e756d62657200000000000000000000000000000000008152506008546137cb565b60009081526030602052604090208054600160a060020a031916600160a060020a03939093169290921790915550565b611349613bd0565b600160a060020a0316331461135d57600080fd5b600082815260306020526040902054600160a060020a0316158015906113ab5750600082815260306020908152604080832054600160a060020a03168352602f90915290206003015460ff16155b1561154857600082815260306020908152604080832054600160a060020a03168352602f825290912082516113e2928401906153c5565b507f6a28dd23c76ba6cc6f4f148a0e2e0e147d8b876cb74ec1e5e2b8e9a8119eb702816040518080602001828103825283818151815260200191508051906020019080838360005b8381101561144257818101518382015260200161142a565b50505050905090810190601f16801561146f5780820380516001836020036101000a031916815260200191505b509250505060405180910390a160008281526030602090815260408083208054600160a060020a039081168552602f9093528184206003908101805460ff191660019081179091559154909316845292200154610100900460ff16151514801561151d5750600082815260306020908152604080832054600160a060020a03168352602f90915290206003015460ff620100009091041615156001148061151d575060105460ff1615156001145b156115435760008281526030602052604090205461154390600160a060020a0316612f6d565b6118f2565b600082815260316020526040902054600160a060020a03161580159061159b5750600082815260316020908152604080832054600160a060020a03168352602f909152902060030154610100900460ff16155b1561173657600082815260316020908152604080832054600160a060020a03168352602f825290912082516115d8926001909201918401906153c5565b507f716a554dec57e3a217a923b974660c0c8ebee07b09b1ac7d4a3a8f328d10cc89816040518080602001828103825283818151815260200191508051906020019080838360005b83811015611638578181015183820152602001611620565b50505050905090810190601f1680156116655780820380516001836020036101000a031916815260200191505b509250505060405180910390a160008281526031602090815260408083208054600160a060020a039081168552602f9093528184206003908101805461ff00191661010017905590549092168352909120015460ff16151560011480156117105750600082815260316020908152604080832054600160a060020a03168352602f90915290206003015460ff6201000090910416151560011480611710575060105460ff1615156001145b156115435760008281526031602052604090205461154390600160a060020a0316612f6d565b600082815260326020526040902054600160a060020a0316158015906117a05750600082815260326020908152604080832054600160a060020a03168352602f90915290206003015460ff62010000909104161515600114806117a0575060105460ff1615156001145b156118f2576117ae81613dc6565b600083815260326020908152604080832054600160a060020a03168352602f825280832060020193909355825181815284518183015284517f0efef3a277391dda0d5747fd15566e85fcd8a4fb588d9853173841e45cc5ae8a9486949293849391840192908601918190849084905b8381101561183557818101518382015260200161181d565b50505050905090810190601f1680156118625780820380516001836020036101000a031916815260200191505b509250505060405180910390a1600082815260326020908152604080832054600160a060020a03168352602f9091529020600301805462ff00001916905560105460ff161515600114156118d15760008281526032602052604090205461154390600160a060020a0316613dd9565b6000828152603260205260409020546118f290600160a060020a031661403a565b5050565b60105460ff1681565b600080600080601360016005540360078110151561191957fe5b600402016002015460128681548110151561193057fe5b906000526020600020906005020160020154111561199f576005546000190193506119986013856007811061196157fe5b600402016002015460128781548110151561197857fe5b90600052602060002090600502016002015461427590919063ffffffff16565b9250611ae5565b60155460128054879081106119b057fe5b9060005260206000209060050201600201541015611a1557600093506119986012868154811015156119de57fe5b9060005260206000209060050201600201546013866007811015156119ff57fe5b600402016002015461427590919063ffffffff16565b60138460078110611a2257fe5b6004020160020154601286815481101515611a3957fe5b9060005260206000209060050201600201541115611a5c57600190930192611a15565b60138460078110611a6957fe5b6004020160020154601286815481101515611a8057fe5b9060005260206000209060050201600201541415611aa15760009250611ae5565b611ab5601360001986016007811061196157fe5b9150611ac96012868154811015156119de57fe5b905081811115611ae157600184039350819250611ae5565b8092505b600084815260346020526040902054600160a060020a03161580611b16575060008481526033602052604090205483105b15611bb1576012805486908110611b2957fe5b60009182526020808320600360059093020191909101548683526034825260408084208054600160a060020a031916600160a060020a0390931692909217909155603382528083208690556035825291829020879055815187815291517fed4436a39d9a77d0c6c3be4f0e28f018750eb25c5c2d30ded16ef07ced4c00719281900390910190a15b821515611228576012805486908110611bc657fe5b6000918252602080832060036005909302019190910154603b548352603790915260409091208054600160a060020a031916600160a060020a039092169190911790556012805486908110611c1757fe5b6000918252602080832060026005909302019190910154603b8054845260368352604080852092909255805484526038909252909120869055805460010190555050505050565b6002805460408051602060018416156101000260001901909316849004601f81018490048402820184019092528181529291830182828015611ce15780601f10611cb657610100808354040283529160200191611ce1565b820191906000526020600020905b815481529060010190602001808311611cc457829003601f168201915b505050505081565b505050565b600054600160a060020a03163314611d0557600080fd5b6010805460ff19811660ff90911615179055565b33600081815260416020526040808220805490839055905190929183156108fc02918491818181858888f193505050501580156118f2573d6000803e3d6000fd5b600054600160a060020a03163314611d7157600080fd5b611d79611cee565b611d81610e55565b611d896130b9565b611d91612c6b565b6039805460010190819055600554603c805491909202019055565b60008054600160a060020a03163314611dc457600080fd5b50600a8054600160a060020a03838116600160a060020a0319831681179093556040805191909216602082018190528183019390935260608082526019908201527f456e74657270726973652077616c6c6574206368616e67656400000000000000608082015290517f223db053947bb148de510715d3c7d8ccd72bdd376752fd735ee7bd0bd0ece5bf9181900360a00190a15050565b602f6020908152600091825260409182902080548351601f60026000196101006001861615020190931692909204918201849004840281018401909452808452909291839190830182828015611ef25780601f10611ec757610100808354040283529160200191611ef2565b820191906000526020600020905b815481529060010190602001808311611ed557829003601f168201915b505050505090806001018054600181600116156101000203166002900480601f016020809104026020016040519081016040528092919081815260200182805460018160011615610100020316600290048015611f905780601f10611f6557610100808354040283529160200191611f90565b820191906000526020600020905b815481529060010190602001808311611f7357829003601f168201915b50505050600283015460039093015491929160ff808216925061010082048116916201000090041686565b60018054604080516020600284861615610100026000190190941693909304601f81018490048402820184019092528181529291830182828015611ce15780601f10611cb657610100808354040283529160200191611ce1565b60085481565b600b8054600160a060020a031916600160a060020a0392909216919091179055565b60055481565b600054600160a060020a0316331461205a57600080fd5b6040805160808101825285815260208101859052908101839052606081018290526013866007811061208857fe5b6004020160008201518160000190805190602001906120a89291906153c5565b5060208281015180516120c192600185019201906153c5565b50604082015160028201556060909101516003909101555050505050565b600054600160a060020a031633146120f657600080fd5b60008054604051600160a060020a03909116917ff8df31144d9c2f0f6b59d69b8b98abd5459d07f2742c4df920b25aae33c6482091a260008054600160a060020a0319169055565b600a54600160a060020a031681565b612155615443565b6000805481908190600160a060020a0316331461217157600080fd5b5060005b600554811015612589579150816013816007811061218f57fe5b6040805160049290920292909201805460a06020601f600260001961010060018716150201909416939093049283018190040284018101909452608083018181529293919284929091849184018282801561222b5780601f106122005761010080835404028352916020019161222b565b820191906000526020600020905b81548152906001019060200180831161220e57829003601f168201915b50505050508152602001600182018054600181600116156101000203166002900480601f0160208091040260200160405190810160405280929190818152602001828054600181600116156101000203166002900480156122cd5780601f106122a2576101008083540402835291602001916122cd565b820191906000526020600020905b8154815290600101906020018083116122b057829003601f168201915b505050505081526020016002820154815260200160038201548152505093508060010191505b600554821015612496576013826007811061230a57fe5b60040201600201548460400151111561248b576013826007811061232a57fe5b6040805160049290920292909201805460a06020601f60026000196101006001871615020190941693909304928301819004028401810190945260808301818152929391928492909184918401828280156123c65780601f1061239b576101008083540402835291602001916123c6565b820191906000526020600020905b8154815290600101906020018083116123a957829003601f168201915b50505050508152602001600182018054600181600116156101000203166002900480601f0160208091040260200160405190810160405280929190818152602001828054600181600116156101000203166002900480156124685780601f1061243d57610100808354040283529160200191612468565b820191906000526020600020905b81548152906001019060200180831161244b57829003601f168201915b505050505081526020016002820154815260200160038201548152505093508192505b6001909101906122f3565b82811461258157601381600781106124aa57fe5b60040201601384600781106124bb57fe5b60040201600082018160000190805460018160011615610100020316600290046124e692919061546c565b506001820181600101908054600181600116156101000203166002900461250e92919061546c565b5060028281015490820155600391820154910155836013826007811061253057fe5b6004020160008201518160000190805190602001906125509291906153c5565b50602082810151805161256992600185019201906153c5565b50604082015160028201556060909101516003909101555b600101612175565b50505050565b6125988161122f565b6125a1816134cf565b50565b603f54600160a060020a031681565b60008054600160a060020a031633146125cb57600080fd5b50600880549082905560408051602081018390528082018490526060808252601a908201527f4f7261636c697a6520676173206c696d6974206368616e676564000000000000608082015290516000805160206154fc8339815191529181900360a00190a15050565b60366020526000908152604090205481565b60008054600160a060020a0316331461265e57600080fd5b50600680549082905560408051602081018390528082018490526060808252601d908201527f47656e6572617465207469636b6574207072696365206368616e676564000000608082015290516000805160206154fc8339815191529181900360a00190a15050565b60386020526000908152604090205481565b600054600160a060020a031681565b600054600160a060020a031633146126ff57600080fd5b60105460ff16151560011461271357600080fd5b600554603a5414156127395761272761214d565b6000603a55612734611cee565b61275d565b306000818152602f60205260409020600301805461ffff1916905561275d9061258f565b565b6013816007811061276c57fe5b60040201805460408051602060026001851615610100026000190190941693909304601f810184900484028201840190925281815292935083918301828280156127f75780601f106127cc576101008083540402835291602001916127f7565b820191906000526020600020905b8154815290600101906020018083116127da57829003601f168201915b505050505090806001018054600181600116156101000203166002900480601f0160208091040260200160405190810160405280929190818152602001828054600181600116156101000203166002900480156128955780601f1061286a57610100808354040283529160200191612895565b820191906000526020600020905b81548152906001019060200180831161287857829003601f168201915b5050505050908060020154908060030154905084565b603e54600160a060020a031681565b60095481565b6003805460408051602060026001851615610100026000190190941693909304601f81018490048402820184019092528181529291830182828015611ce15780601f10611cb657610100808354040283529160200191611ce1565b601280548290811061292957fe5b60009182526020918290206005919091020180546040805160026001841615610100026000190190931692909204601f8101859004850283018501909152808252919350918391908301828280156129c25780601f10612997576101008083540402835291602001916129c2565b820191906000526020600020905b8154815290600101906020018083116129a557829003601f168201915b505050505090806001018054600181600116156101000203166002900480601f016020809104026020016040519081016040528092919081815260200182805460018160011615610100020316600290048015612a605780601f10612a3557610100808354040283529160200191612a60565b820191906000526020600020905b815481529060010190602001808311612a4357829003601f168201915b505050506002830154600384015460049094015492939092600160a060020a03909116915085565b6004805460408051602060026001851615610100026000190190941693909304601f81018490048402820184019092528181529291830182828015611ce15780601f10611cb657610100808354040283529160200191611ce1565b600080548190600160a060020a03163314612afd57600080fd5b6040805160a0810182528881526020808201899052918101879052600160a060020a03861660608201526080810185905260128054600181810180845560009390935283518051919593949360059093027fbb8a6a4669ba250d26cd7a459eca9d215f8307e33aebe50379bc5a3617ec34440192612b80928492909101906153c5565b506020828101518051612b9992600185019201906153c5565b50604082015160028201556060820151600382018054600160a060020a031916600160a060020a0390921691909117905560809091015160049091015503603d555095945050505050565b603c5481565b60008054600160a060020a03163314612c0257600080fd5b506007805490829055604080516020810183905280820184905260608082526019908201527f53656c6c207469636b6574207072696365206368616e67656400000000000000608082015290516000805160206154fc8339815191529181900360a00190a15050565b60005b600554811015612dce576000818152603360209081526040808320839055603482528083208054600160a060020a031916905560358252808320929092558151808301909252600182527f30000000000000000000000000000000000000000000000000000000000000009082015260138260078110612cea57fe5b600402016000019080519060200190612d049291906153c5565b5060408051808201909152600181527f3000000000000000000000000000000000000000000000000000000000000000602082015260138260078110612d4657fe5b600402016001019080519060200190612d609291906153c5565b50600060138260078110612d7057fe5b6004020160020181905550603954601382600781101515612d8d57fe5b60040201600301556000818152603660209081526040808320839055603782528083208054600160a060020a03191690556038909152812055600101612c6e565b506000603b55565b603a5481565b6011805482908110612dea57fe5b60009182526020909120600790910201805460018201546002830154600384015460048501546005860154600690960154949650600160a060020a039093169491939092919087565b60008054600160a060020a03163314612e4b57600080fd5b506005805490829055604080516020810183905280820184905260608082526019908201527f53656c6c207469636b6574207072696365206368616e67656400000000000000608082015290516000805160206154fc8339815191529181900360a00190a15050565b60008054600160a060020a03163314612ecc57600080fd5b506009805490829055604080516020810183905280820184905260608082526021908201527f4f7261636c697a6520637573746f6d20676173207072696365206368616e676560808201527f640000000000000000000000000000000000000000000000000000000000000060a082015290516000805160206154fc8339815191529181900360c00190a15050565b60065481565b60395481565b603b5481565b6000612f7a6009546135e3565b604080516020808252601a908201527f41736b696e6720666f722061206e6577207469636b65742e2e2e0000000000008183015290517f096835e36c2ccea88ff2b3aca87dfc938b977e52ea656873ff76a8dba50d4d349181900360600190a16130246040805190810160405280600c81526020017f576f6c6672616d416c706861000000000000000000000000000000000000000081525061301c84614287565b6008546137cb565b60009081526032602052604090208054600160a060020a031916600160a060020a03939093169290921790915550565b60075481565b60336020526000908152604090205481565b603760205260009081526040902054600160a060020a031681565b600054600160a060020a0316331461309e57600080fd5b6125a181614bb6565b60416020526000908152604090205481565b6000805481908190819081908190600160a060020a031633146130db57600080fd5b603e54600160a060020a03908116600090815260416020526040808220829055603f548316825280822082905580549092168152908120556131253031600763ffffffff614c2616565b955061313886600a63ffffffff614c4f16565b955061314b86600663ffffffff614c2616565b945061315e86600363ffffffff614c2616565b935061317186600163ffffffff614c2616565b925061318485600a63ffffffff614c4f16565b945061319784600a63ffffffff614c4f16565b93506131aa83600a63ffffffff614c4f16565b9250603c5491505b603c546005540182101561328d576011805460009190849081106131d257fe5b6000918252602090912060016007909202010154600160a060020a03161461328257846041600060118581548110151561320857fe5b6000918252602080832060016007909302019190910154600160a060020a03168352820192909252604001902080549091019055601180548390811061324a57fe5b6000918252602090912060016007909202010154603e8054600160a060020a031916600160a060020a0390921691909117905561328d565b6001909101906131b2565b6001909101905b603c546005540182101561336f576011805460009190849081106132b457fe5b6000918252602090912060016007909202010154600160a060020a0316146133645783604160006011858154811015156132ea57fe5b6000918252602080832060016007909302019190910154600160a060020a03168352820192909252604001902080549091019055601180548390811061332c57fe5b6000918252602090912060016007909202010154603f8054600160a060020a031916600160a060020a0390921691909117905561336f565b600190910190613294565b6001909101905b603c54600554018210156134515760118054600091908490811061339657fe5b6000918252602090912060016007909202010154600160a060020a0316146134465782604160006011858154811015156133cc57fe5b6000918252602080832060016007909302019190910154600160a060020a03168352820192909252604001902080549091019055601180548390811061340e57fe5b600091825260209091206001600790920201015460408054600160a060020a031916600160a060020a03909216919091179055613451565b600190910190613376565b6134633031600363ffffffff614c2616565b905061347681600a63ffffffff614c4f16565b600a54604051919250600160a060020a03169082156108fc029083906000818181858888f193505050501580156134b1573d6000803e3d6000fd5b50505050505050565b603d5481565b604054600160a060020a031681565b60006134dc6009546135e3565b604080516020808252601f908201527f41736b696e6720666f722061206e6577206920706172616d657465722e2e2e008183015290517f096835e36c2ccea88ff2b3aca87dfc938b977e52ea656873ff76a8dba50d4d349181900360600190a16135b36040805190810160405280600c81526020017f576f6c6672616d416c70686100000000000000000000000000000000000000008152506040805190810160405280600f81526020017f342072616e646f6d206e756d62657200000000000000000000000000000000008152506008546137cb565b60009081526031602052604090208054600160a060020a031916600160a060020a03939093169290921790915550565b600b54600160a060020a0316158061360d5750600b5461360b90600160a060020a0316614c64565b155b1561361e5761361c6000614c68565b505b600b60009054906101000a9004600160a060020a0316600160a060020a03166338cc48316040518163ffffffff1660e060020a028152600401602060405180830381600087803b15801561367157600080fd5b505af1158015613685573d6000803e3d6000fd5b505050506040513d602081101561369b57600080fd5b5051600c54600160a060020a0390811691161461375157600b60009054906101000a9004600160a060020a0316600160a060020a03166338cc48316040518163ffffffff1660e060020a028152600401602060405180830381600087803b15801561370557600080fd5b505af1158015613719573d6000803e3d6000fd5b505050506040513d602081101561372f57600080fd5b5051600c8054600160a060020a031916600160a060020a039092169190911790555b600c54604080517fca6ad1e4000000000000000000000000000000000000000000000000000000008152600481018490529051600160a060020a039092169163ca6ad1e49160248082019260009290919082900301818387803b1580156137b757600080fd5b505af1158015611228573d6000803e3d6000fd5b600b546000908190600160a060020a031615806137fa5750600b546137f890600160a060020a0316614c64565b155b1561380b576138096000614c68565b505b600b60009054906101000a9004600160a060020a0316600160a060020a03166338cc48316040518163ffffffff1660e060020a028152600401602060405180830381600087803b15801561385e57600080fd5b505af1158015613872573d6000803e3d6000fd5b505050506040513d602081101561388857600080fd5b5051600c54600160a060020a0390811691161461393e57600b60009054906101000a9004600160a060020a0316600160a060020a03166338cc48316040518163ffffffff1660e060020a028152600401602060405180830381600087803b1580156138f257600080fd5b505af1158015613906573d6000803e3d6000fd5b505050506040513d602081101561391c57600080fd5b5051600c8054600160a060020a031916600160a060020a039092169190911790555b600c54604080517f2ef3accc0000000000000000000000000000000000000000000000000000000081526024810186905260048101918252875160448201528751600160a060020a0390931692632ef3accc9289928892829160640190602086019080838360005b838110156139be5781810151838201526020016139a6565b50505050905090810190601f1680156139eb5780820380516001836020036101000a031916815260200191505b509350505050602060405180830381600087803b158015613a0b57600080fd5b505af1158015613a1f573d6000803e3d6000fd5b505050506040513d6020811015613a3557600080fd5b50519050670de0b6b3a76400003a840201811115613a565760009150613bc8565b600c546040517fc51be90f00000000000000000000000000000000000000000000000000000000815260006004820181815260648301879052608060248401908152895160848501528951600160a060020a039095169463c51be90f948794938c938c938c93604481019160a49091019060208801908083838c5b83811015613ae9578181015183820152602001613ad1565b50505050905090810190601f168015613b165780820380516001836020036101000a031916815260200191505b50838103825285518152855160209182019187019080838360005b83811015613b49578181015183820152602001613b31565b50505050905090810190601f168015613b765780820380516001836020036101000a031916815260200191505b5096505050505050506020604051808303818588803b158015613b9857600080fd5b505af1158015613bac573d6000803e3d6000fd5b50505050506040513d6020811015613bc357600080fd5b505191505b509392505050565b600b54600090600160a060020a03161580613bfd5750600b54613bfb90600160a060020a0316614c64565b155b15613c0e57613c0c6000614c68565b505b600b60009054906101000a9004600160a060020a0316600160a060020a03166338cc48316040518163ffffffff1660e060020a028152600401602060405180830381600087803b158015613c6157600080fd5b505af1158015613c75573d6000803e3d6000fd5b505050506040513d6020811015613c8b57600080fd5b5051600c54600160a060020a03908116911614613d4157600b60009054906101000a9004600160a060020a0316600160a060020a03166338cc48316040518163ffffffff1660e060020a028152600401602060405180830381600087803b158015613cf557600080fd5b505af1158015613d09573d6000803e3d6000fd5b505050506040513d6020811015613d1f57600080fd5b5051600c8054600160a060020a031916600160a060020a039092169190911790555b600c60009054906101000a9004600160a060020a0316600160a060020a031663c281d19e6040518163ffffffff1660e060020a028152600401602060405180830381600087803b158015613d9457600080fd5b505af1158015613da8573d6000803e3d6000fd5b505050506040513d6020811015613dbe57600080fd5b505190505b90565b6000613dd3826000614c72565b92915050565b60408051600160a060020a0383166000908152602f602090815290839020805460026001821615610100026000190190911604601f8101839004909202830160a090810190945260808301828152929384939290840182828015613e7e5780601f10613e5357610100808354040283529160200191613e7e565b820191906000526020600020905b815481529060010190602001808311613e6157829003601f168201915b50505050508152602001602f600084600160a060020a0316600160a060020a031681526020019081526020016000206001018054600181600116156101000203166002900480601f016020809104026020016040519081016040528092919081815260200182805460018160011615610100020316600290048015613f445780601f10613f1957610100808354040283529160200191613f44565b820191906000526020600020905b815481529060010190602001808311613f2757829003601f168201915b5050509183525050600160a060020a0383166000908152602f60209081526040918290206002015490830152603954910152603a5460139060078110613f8657fe5b600402016000820151816000019080519060200190613fa69291906153c5565b506020828101518051613fbf92600185019201906153c5565b50604082810151600280840191909155606090930151600390920191909155603a80546001019055600160a060020a0383166000908152602f60209081529082902090920154815190815290517fec2692b386f7e992f219e405f018eeaf8da1b95736760596812e564f2e709cfd929181900390910190a150565b60408051600160a060020a0383166000908152602f602090815283822080546002600180831615610100026000190190921604601f8101849004909302850160c090810190965260a08501838152939590946012949093849391928401828280156140e65780601f106140bb576101008083540402835291602001916140e6565b820191906000526020600020905b8154815290600101906020018083116140c957829003601f168201915b50505050508152602001602f600087600160a060020a0316600160a060020a031681526020019081526020016000206001018054600181600116156101000203166002900480601f0160208091040260200160405190810160405280929190818152602001828054600181600116156101000203166002900480156141ac5780601f10614181576101008083540402835291602001916141ac565b820191906000526020600020905b81548152906001019060200180831161418f57829003601f168201915b5050509183525050600160a060020a0386166000818152602f602090815260408083206002015482860152840192909252603954606090930192909252835460018101808655948352918190208351805160059094029091019261421392849201906153c5565b50602082810151805161422c92600185019201906153c5565b50604082015160028201556060820151600382018054600160a060020a031916600160a060020a039092169190911790556080909101516004909101550390506118f2816118ff565b60008282111561428157fe5b50900390565b604080518082018252600c81527f286d6f642828312f2831305e000000000000000000000000000000000000000060208083019190915260028054845160018216156101000260001901909116829004601f8101849004840282018401909552848152606094859461445e94909391908301828280156143485780601f1061431d57610100808354040283529160200191614348565b820191906000526020600020905b81548152906001019060200180831161432b57829003601f168201915b505060408051808201825260018082527f2d00000000000000000000000000000000000000000000000000000000000000602080840191909152600160a060020a038d166000908152602f825284902080548551600294821615610100026000190190911693909304601f810183900483028401830190955284835292965090945090925083018282801561441e5780601f106143f35761010080835404028352916020019161441e565b820191906000526020600020905b81548152906001019060200180831161440157829003601f168201915b50505050506040805190810160405280600681526020017f29292a31305e0000000000000000000000000000000000000000000000000000815250614de4565b60038054604080516020601f600260001961010060018816150201909516949094049384018190048102820181019092528281529394506145f2938593909290918301828280156144f05780601f106144c5576101008083540402835291602001916144f0565b820191906000526020600020905b8154815290600101906020018083116144d357829003601f168201915b5050604080518082018252600581527f2c31305e2800000000000000000000000000000000000000000000000000000060208083019190915260048054845160026001831615610100026000190190921691909104601f81018490048402820184019095528481529296509194509092508301828280156145b25780601f10614587576101008083540402835291602001916145b2565b820191906000526020600020905b81548152906001019060200180831161459557829003601f168201915b50505050506040805190810160405280600181526020017f2b00000000000000000000000000000000000000000000000000000000000000815250614de4565b90506147b381602f600086600160a060020a0316600160a060020a031681526020019081526020016000206001018054600181600116156101000203166002900480601f0160208091040260200160405190810160405280929190818152602001828054600181600116156101000203166002900480156146b45780601f10614689576101008083540402835291602001916146b4565b820191906000526020600020905b81548152906001019060200180831161469757829003601f168201915b5050604080518082018252600e81527f29292d6d6f642828312f2831305e00000000000000000000000000000000000060208083019190915260028054845160018216156101000260001901909116829004601f81018490048402820184019095528481529296509194509092508301828280156147735780601f1061474857610100808354040283529160200191614773565b820191906000526020600020905b81548152906001019060200180831161475657829003601f168201915b50505050506040805190810160405280600181526020017f2d00000000000000000000000000000000000000000000000000000000000000815250614de4565b600160a060020a0384166000908152602f602090815260409182902080548351601f6002600019610100600186161502019093169290920491820184900484028101840190945280845293945061495a938593928301828280156148585780601f1061482d57610100808354040283529160200191614858565b820191906000526020600020905b81548152906001019060200180831161483b57829003601f168201915b5050604080518082018252600681527f29292a31305e000000000000000000000000000000000000000000000000000060208083019190915260038054845160026001831615610100026000190190921691909104601f810184900484028201840190955284815292965091945090925083018282801561491a5780601f106148ef5761010080835404028352916020019161491a565b820191906000526020600020905b8154815290600101906020018083116148fd57829003601f168201915b50505050506040805190810160405280600481526020017f2c31305e00000000000000000000000000000000000000000000000000000000815250614de4565b60408051808201825260018082527f2800000000000000000000000000000000000000000000000000000000000000602080840191909152600160a060020a0388166000908152602f8252849020820180548551600294821615610100026000190190911693909304601f8101839004830284018301909552848352949550614b159486949091830182828015614a325780601f10614a0757610100808354040283529160200191614a32565b820191906000526020600020905b815481529060010190602001808311614a1557829003601f168201915b5050604080518082018252600781527f2929292f31305e00000000000000000000000000000000000000000000000000602080830191909152600160a060020a038d166000908152602f8252839020600190810180548551600293821615610100026000190190911692909204601f81018490048402830184019095528482529296509450909250830182828015614b0b5780601f10614ae057610100808354040283529160200191614b0b565b820191906000526020600020905b815481529060010190602001808311614aee57829003601f168201915b5050505050614de4565b90507f261af219212047633bb60c8d0cc7e33d217c38edf6fa7e53acb97a3f94180de5816040518080602001828103825283818151815260200191508051906020019080838360005b83811015614b76578181015183820152602001614b5e565b50505050905090810190601f168015614ba35780820380516001836020036101000a031916815260200191505b509250505060405180910390a192915050565b600160a060020a0381161515614bcb57600080fd5b60008054604051600160a060020a03808516939216917f8be0079c531659141344cd1fd0a4f28419497f9722a3daafe3b4186f6b6457e091a360008054600160a060020a031916600160a060020a0392909216919091179055565b6000821515614c3757506000613dd3565b50818102818382811515614c4757fe5b0414613dd357fe5b60008183811515614c5c57fe5b049392505050565b3b90565b6000613dd3615045565b6000828180805b8351811015614dc75783517f300000000000000000000000000000000000000000000000000000000000000090859083908110614cb257fe5b90602001015160f860020a900460f860020a02600160f860020a03191610158015614d28575083517f390000000000000000000000000000000000000000000000000000000000000090859083908110614d0857fe5b90602001015160f860020a900460f860020a02600160f860020a03191611155b15614d81578115614d4757851515614d3f57614dc7565b600019909501945b600a8302925060308482815181101515614d5d57fe5b90602001015160f860020a900460f860020a0260f860020a90040383019250614dbf565b8381815181101515614d8f57fe5b90602001015160f860020a900460f860020a02600160f860020a031916602e60f860020a021415614dbf57600191505b600101614c79565b6000861115614dd95785600a0a830292505b509095945050505050565b6060806060806060806060806000808e98508d97508c96508b95508a94508451865188518a518c51010101016040519080825280601f01601f191660200182016040528015614e3d578160200160208202803883390190505b50935083925060009150600090505b8851811015614eaa578881815181101515614e6357fe5b90602001015160f860020a900460f860020a028383806001019450815181101515614e8a57fe5b906020010190600160f860020a031916908160001a905350600101614e4c565b5060005b8751811015614f0c578781815181101515614ec557fe5b90602001015160f860020a900460f860020a028383806001019450815181101515614eec57fe5b906020010190600160f860020a031916908160001a905350600101614eae565b5060005b8651811015614f6e578681815181101515614f2757fe5b90602001015160f860020a900460f860020a028383806001019450815181101515614f4e57fe5b906020010190600160f860020a031916908160001a905350600101614f10565b5060005b8551811015614fd0578581815181101515614f8957fe5b90602001015160f860020a900460f860020a028383806001019450815181101515614fb057fe5b906020010190600160f860020a031916908160001a905350600101614f72565b5060005b8451811015615032578481815181101515614feb57fe5b90602001015160f860020a900460f860020a02838380600101945081518110151561501257fe5b906020010190600160f860020a031916908160001a905350600101614fd4565b50909d9c50505050505050505050505050565b600080615065731d3b2638a7cc9f2cb3d298a3da7a90b67e5506ed614c64565b11156150d557600b8054600160a060020a031916731d3b2638a7cc9f2cb3d298a3da7a90b67e5506ed178155604080518082019091529081527f6574685f6d61696e6e657400000000000000000000000000000000000000000060208201526150cd9061536b565b506001613dc3565b60006150f473c03a2615d5efaf5f49f60b7bb6583eaec212fdf1614c64565b111561515d57600b8054600160a060020a03191673c03a2615d5efaf5f49f60b7bb6583eaec212fdf117905560408051808201909152600c81527f6574685f726f707374656e33000000000000000000000000000000000000000060208201526150cd9061536b565b600061517c73b7a07bcf2ba2f2703b24c0691b5278999c59ac7e614c64565b11156151e557600b8054600160a060020a03191673b7a07bcf2ba2f2703b24c0691b5278999c59ac7e17905560408051808201909152600981527f6574685f6b6f76616e000000000000000000000000000000000000000000000060208201526150cd9061536b565b600061520473146500cfd35b22e4a392fe0adc06de1a1368ed48614c64565b111561526c57600b8054600160a060020a03191673146500cfd35b22e4a392fe0adc06de1a1368ed48178155604080518082019091529081527f6574685f72696e6b65627900000000000000000000000000000000000000000060208201526150cd9061536b565b600061528b736f485c8bf6fc43ea212e93bbf8ce046c7f1cb475614c64565b11156152bf5750600b8054600160a060020a031916736f485c8bf6fc43ea212e93bbf8ce046c7f1cb4751790556001613dc3565b60006152de7320e12a1f859b3feae5fb2a0a32c18f5a65555bbf614c64565b11156153125750600b8054600160a060020a0319167320e12a1f859b3feae5fb2a0a32c18f5a65555bbf1790556001613dc3565b60006153317351efaf4c8b3c9afbd5ab9f4bbc82784ab6ef8faa614c64565b11156153655750600b8054600160a060020a0319167351efaf4c8b3c9afbd5ab9f4bbc82784ab6ef8faa1790556001613dc3565b50600090565b80516118f290600d9060208401906153c5565b60e060405190810160405280600081526020016000600160a060020a0316815260200160008152602001600081526020016000815260200160008152602001600081525090565b828054600181600116156101000203166002900490600052602060002090601f016020900481019282601f1061540657805160ff1916838001178555615433565b82800160010185558215615433579182015b82811115615433578251825591602001919060010190615418565b5061543f9291506154e1565b5090565b608060405190810160405280606081526020016060815260200160008152602001600081525090565b828054600181600116156101000203166002900490600052602060002090601f016020900481019282601f106154a55780548555615433565b8280016001018555821561543357600052602060002091601f016020900482015b828111156154335782548255916001019190600101906154c6565b613dc391905b8082111561543f57600081556001016154e756009bc068999fb1a0aac007a9b44ca6322a376441f42706bf5163600bb3d1a73164a165627a7a723058202f8ccdc82f57c3910bad735eb67201480566a5ed7f24fd5d0c71180ee87ad12f0029",
  "source": "/**\n  * @author Matias Barrios\n  * @version 1.0\n  */\n\n/** @title Lucky7Ballot. \n  * This contract contains all the functions to start a new game and deliver prizes.\n  * Particularly contains function that have the business logic for generating Lucky7Numbers and Lucky7Tickets, order them, deliver prizes and clean necessary arrays.\n*/\n\npragma solidity ^0.4.20;\n\nimport \"./Lucky7TicketFactory.sol\";\n\ncontract Lucky7Ballot is Lucky7TicketFactory{\n    function Lucky7Ballot() payable {\n        \n    }\n\n    /** @dev This modifier is meant to block the Lucky7Number generation when the game is on course\n      * Is used to block the action of the _generateLucky7Number function of this contract if the circuit breaker\n      * is not \n      */\n    modifier gameNotInCourse(){\n        require(settingLucky7Numbers==true);\n        _;\n    }\n    /** @param initialLucky7TicketPosition is a uint used for the _orderLucky7Tickets function of this contract. \n      * Because is necessary to store the information of previous games permanently is necessary then to know what it the starting point to store in the \n      * lucky7TicketsArray array of the Lucky77TicketFactory.sol contract. \n      * This way, the _orderLucky7Tickets function starts storing in the \"initialLucky7TicketPosition\" and finish storing in the \n      * \"numberOfLucky7Numbers+initialLucky7TicketPosition\" position of the lucky7TicketsArray array. \n      * Defaults to 0, and is getting incremented by \"numberOfLucky7Numbers\" value every time the setNewGame function of this contract is called.\n      * @param currentTicketID is a uint which points to the position in the ticketsArray array of the Lucky7TicketFactory contract where was pushed the last ticket\n      * inserted by the insertCustomizedTicket function of this contract. That function and this parameter are used for testing purposes only.\n      * @param lastFirstParameter is and address which stores the address of the last first prize winner. Is setted on the _deliverPrizes function of this contract \n      * and is used to set to 0 the amount of the prize for the last first prize winner before start delivering prizes for security reasons.\n      * @param lastSecondParameter is and address which stores the address of the last second prize winner. Is setted on the _deliverPrizes function of this contract \n      * and is used to set to 0 the amount of the prize for the last second prize winner before start delivering prizes for security reasons.\n      * @param lastThirdParameter is and address which stores the address of the last third prize winner. Is setted on the _deliverPrizes function of this contract \n      * and is used to set to 0 the amount of the prize for the last third prize winner before start delivering prizes for security reasons.\n      * @param pendingWithdrawals is a mapping that points from an address to an uint. Is used for the _deliverPrizes function of this contract to store the \n      * the correspondent prize with the correspondent winner. The prizes are setted to 0 every time the _deliverPrizes function is called for security reasons.\n      * To claim a prize, user have to call the withdraw function of this contract, so the prize is delivered and the amount for him prize is setted to 0 again.\n      */\n    uint public initialLucky7TicketPosition = 0;\n    uint public currentTicketID = 0;\n    address public lastFirstPrizeWinner = address(0);\n    address public lastSecondPrizeWinner = address(0);\n    address public lastThirdPrizeWinner = address(0);\n    mapping (address => uint) public pendingWithdrawals;\n\n    /** @dev setNewGame is a function designed to call all the functions necessary to start a new game. First, it activate the settingLucky7Numbers circuit breaker.\n      * Then it stores and order the Lucky7Tickets in ascendante order depending on them difference values through the _orderLucky7Tickets. \n      * Then it set the prizes for the last winners to 0 (for security reasons), look up for Lucky7Tickets with owners different than 0 and update the \n      * pendingWithdrawals for the first, second and third winnner, deliver the prize for the enterprise, clean the necessary mappings and arrays (ExactLucky7Ticket and\n      * lucky7NumbersArray), increase the drawNumber parameter to differentiate the Lucky7Tickets and Tickets from each different game in the future, and update the value\n      * of the initialLucky7TicketPosition to store the Lucky7Tickets for every game correctly.\n      */\n    function setNewGame()                                      \n        public \n        onlyOwner \n    {\n        toggleLucky7Setting();\n        _orderLucky7Tickets();\n        _deliverPrizes();\n        _cleanMappings();\n        drawNumber++;\n        initialLucky7TicketPosition+=drawNumber*numberOfLucky7Numbers;\n    }\n    \n    /** @dev _generateLucky7Number is the function that is actually used to generate the Lucky7Numbers. It have the business logic for generating the Lucky7Numbers, i.e. if \n      * the indexForLucky7Array is different than the numberOfLucky7Numbers, then sets the muReady and iReady booleans of the UserParametersValue struct of the \n      * Lucky7TicketFactory contract to true and calls for the _askForMuParameter and _askForIParameter function of the Lucky7TicketFactory contract. This way it can ask for both mu and i parameters\n      * to oraclize and when the oraclize respond with both, ask for a ticket which is going to be a Lucky7Number.\n      * If the indexForLucky7Array is equal to the numberOfLucky7Numbers, then proceed to order the Lucky7Numbers through the _orderLucky7Numbers function of this contract.\n      * Then it sets the indexForLucky7Array to 0 so the next time a new game is setted, this function starts storing the Lucky7Numbers from the position 0, to finally shut off\n      * the settingLucky7Numbers circuit breaker to allow users to start buying tickets.\n      */\n    function _generateLucky7Number() public onlyOwner gameNotInCourse{\n        if(indexForLucky7Array == numberOfLucky7Numbers){\n            _orderLucky7Numbers();\n            indexForLucky7Array = 0;\n            toggleLucky7Setting();\n        }\n        else{\n            userValues[this].muReady = false;\n            userValues[this].iReady = false;\n            _generateTicket(this);\n        }\n    }\n    \n    /** @dev _orderLucky7Numbers is a function designed to order the Lucky7Numbers. It is called from the _generateLucky7Number function of this contract (above function).\n      * First, it generates 4 auxiliary parameters; a Lucky7Number struct called smallest, and aux, j and i which are uint initiated to 0.\n      * Then it loops over the Lucky7Numbers array, comparing the i Lucky7Number value with the i+1, i+2, i+3 until reachs the numberOfLucky7Numbers-1 value. \n      * If none of them is smaller than it, then jumps to the next Lucky7Number. It then starts comparing it (the i+1 for this case) with the subsequents number. If one of \n      * them is smaller, changes positions and starts comparing the new one with the subsequents. \n      */\n    function _orderLucky7Numbers() public onlyOwner{\n        Lucky7Number memory smallest;\n        uint aux;\n        uint j;\n        uint i;\n        for(i=0; i<numberOfLucky7Numbers; i++){\n            /** @dev At this point, aux is going to be ever equal to i and smallest is the Lucky7Number which is going to be compared with the next.\n              */\n            aux = i;\n            smallest = lucky7NumbersArray[i];\n            for (j=i+1; j<numberOfLucky7Numbers; j++){\n                /** @dev At this point, the function starts comparing \"smallest\" with the next to it, j+1 in this case.\n                  * If \"smallest\" is not smaller than the next ticketValue (or Lucky7Number[j] value), then it saves the value of the new \"smallest\" value, \n                  * and saves aux as the j value.\n                  */\n                if(smallest.ticketValue>lucky7NumbersArray[j].ticketValue){\n                    smallest = lucky7NumbersArray[j];\n                    aux = j;\n                }\n            }\n\n            /** @dev Once the previous loop is finished, i.e. the comparison of \"smallest\" with all the other above it, it checks if aux changed.\n              * If it changed, it means that there was one Lucky7Number which value was lower than \"smallest\", and change the position of \"smallest\" with the Lucky7Number[j]\n              * which is actually smalller than \"smallest\". This way, in next hopes former \"smallest\" Lucky7Number is going to be compared again until it fits the state of\n              * \"smallest than every Lucky7Number above itself\"\n              */\n            if(aux!=i){\n                lucky7NumbersArray[aux]=lucky7NumbersArray[i];\n                lucky7NumbersArray[i] = smallest;\n            }\n        }\n    }\n    /** @dev _orderLucky7Tickets is a function designed to store and order the Lucky7Tickets according to its difference in asceding order.\n      * First, it stores all the current Lucky7Ticket values, i.e. lucky7TicketDifference, lucky7TicketOwner and lucky7TicketID mappings from the Lucky7TicketFactory contract,\n      * the ticketValue associated to it, the Lucky7Number and Lucky7NumberID (first, second, third) associated to it, and the drawID. This is thought to be capable of verify\n      * in the future possible problems delivering prizes.\n      * Then, it order the Lucky7Tickets depending on them difference value of the Lucky7Ticket struct of the Lucky7TicketFactory contract. The order logic is the same defined\n      * in the _orderLucky7Numbers function of this contract (the above function).\n      */\n    function _orderLucky7Tickets() public onlyOwner{\n        Lucky7Ticket memory smallest;\n        uint aux;\n        uint i;\n        uint j;\n        uint k;\n        for (i=0; i<numberOfLucky7Numbers; i++){\n            lucky7TicketsArray.push(\n                /** @dev The Lucky7Ticket struct is as follows:   \n                  *     struct Lucky7Ticket{\n                  *         uint difference;\n                  *         address owner;\n                  *         uint ticketID;\n                  *         uint ticketValue;\n                  *         uint lucky7Number;\n                  *         uint lucky7NumberID;\n                  *         uint drawID;\n                  *     }  \n                  */\n                Lucky7Ticket(\n                    lucky7TicketDifference[i],\n                    lucky7TicketOwner[i],\n                    lucky7TicketID[i],\n                    ticketsArray[lucky7TicketID[i]].ticketValue,\n                    lucky7NumbersArray[i].ticketValue,\n                    i,\n                    drawNumber)\n                    );\n        }\n        for(j=initialLucky7TicketPosition; j<numberOfLucky7Numbers+initialLucky7TicketPosition; j++){\n            aux = j;\n            smallest = lucky7TicketsArray[j];\n            for (k=j+1; k<numberOfLucky7Numbers+initialLucky7TicketPosition; k++){\n                if(smallest.difference>lucky7TicketsArray[k].difference){\n                    smallest = lucky7TicketsArray[k];\n                    aux = k;\n                }\n            }\n            if(aux!=j){\n                lucky7TicketsArray[aux]=lucky7TicketsArray[j];\n                lucky7TicketsArray[j] = smallest;\n\n            }\n        }\n    }\n    /** @dev _deliverPrizes is a function designed to complete the business logic of the deliver prizes phase.\n      * First, it takes the balance of prizes of the previous winners to 0 for security reasons (explained in the paper of the project).\n      * Then it proceeds to calculate the amount of the prizes. The winners lot is 70% of the accumulated earnings,i.e. 70% of the contract balance.\n      * Of that amount, 60% is for the first prize, 30% is for the second prize and 10% for the third prize.\n      * The function then proceeds to check if, starting in the initialLucky7TicketPosition (the first Lucky7Ticket of the current game ordered by difference in ascending order)\n      * belongs to a user, i.e. it address is not 0. If it's different than 0, then sets the prize for that address to the first prize amount on the pendingWithdrawals mapping, \n      * saves it adddress in lastFirstPrizeWinner to set it prize to 0 in the next new game setting and breaks the loop to deliver the second place prize.\n      * It is not automatically delivered to the first prize winner to avoid DoS with (Unexpected) revert attack, i.e. one or more of the winners address isn't\n      * capable of receiving ether and cut the transaction, stucking the contract function to deliver prizes to real winners.\n      * After update the pendingWithdrawals mapping for payment for the first prize winner, it proceeds the same way with the second and third winner, to finally deliver the\n      * enterprise prize automatically, because is a known address and is first setted as the owner of the contract. \n      */\n    function _deliverPrizes() public onlyOwner{\n        pendingWithdrawals[lastFirstPrizeWinner] = 0;\n        pendingWithdrawals[lastSecondPrizeWinner] = 0;\n        pendingWithdrawals[lastThirdPrizeWinner] = 0;\n        uint winnersPrize = address(this).balance.mul(7);\n        winnersPrize = winnersPrize.div(10);\n        uint firstPrize = winnersPrize.mul(6);\n        uint secondPrize = winnersPrize.mul(3);\n        uint thirdPrize = winnersPrize.mul(1);\n        firstPrize = firstPrize.div(10);\n        secondPrize = secondPrize.div(10);\n        thirdPrize = thirdPrize.div(10);\n        uint i;\n        for(i=initialLucky7TicketPosition; i<numberOfLucky7Numbers+initialLucky7TicketPosition; i++){\n            if(lucky7TicketsArray[i].owner!=address(0x0)){\n                pendingWithdrawals[lucky7TicketsArray[i].owner] += firstPrize;\n                lastFirstPrizeWinner = lucky7TicketsArray[i].owner;\n                break;\n            }\n        }\n        \n        for(i++; i<numberOfLucky7Numbers+initialLucky7TicketPosition; i++){\n            if(lucky7TicketsArray[i].owner!=address(0x0)){\n                pendingWithdrawals[lucky7TicketsArray[i].owner] += secondPrize;\n                lastSecondPrizeWinner = lucky7TicketsArray[i].owner;\n                break;\n            }\n        }\n        \n        for(i++; i<numberOfLucky7Numbers+initialLucky7TicketPosition; i++){\n            if(lucky7TicketsArray[i].owner!=address(0x0)){\n                pendingWithdrawals[lucky7TicketsArray[i].owner] += thirdPrize;\n                lastThirdPrizeWinner = lucky7TicketsArray[i].owner;\n                break;\n            }\n        }\n        uint enterprisePrize = address(this).balance.mul(3);\n        enterprisePrize = enterprisePrize.div(10);\n        enterpriseWallet.transfer(enterprisePrize);\n    }\n\n    /** @dev _cleanMappings is a function used by the setNewGame function of this contract to clean the necessary mappings, \n      * i.e. lucky7TicketDifference, lucky7TicketOwner, lucky7TicketID, lucky7NumbersArray, ExactLucky7TicketValue, ExactLucky7TicketOwner and\n      * ExactLucky7TicketID. This, because for new games the old winners needs to been cleaned up.\n      */\n    //Should clean \n    function _cleanMappings() public{\n        for(uint i=0; i<numberOfLucky7Numbers; i++){\n            lucky7TicketDifference[i]=0;\n            lucky7TicketOwner[i]=0;\n            lucky7TicketID[i]=0;\n            lucky7NumbersArray[i].mu=\"0\";\n            lucky7NumbersArray[i].i=\"0\";\n            lucky7NumbersArray[i].ticketValue=0;\n            lucky7NumbersArray[i].drawID=drawNumber;\n            ExactLucky7TicketValue[i]=0;\n            ExactLucky7TicketOwner[i]=0;\n            ExactLucky7TicketID[i]=0;\n        }\n        indexForExactLucky7Ticket =0;\n    }\n    /** @dev withdraw is a function used for winners to claim them prices. It is updated in the _deliverPrizesFunction of this contract to\n      * state the owners of the first, second and third prize. It is used to avoid DoS with (Unexpected) revert attack.\n      */\n    function withdraw() public {\n        uint amount = pendingWithdrawals[msg.sender];\n        pendingWithdrawals[msg.sender] = 0;\n        msg.sender.transfer(amount);\n    }\n\n    /** @dev This four functions are purely designed for testing purposes and are going to be erased when the contract\n      * is deployed to test or main net. They're straight forward and don't need any explanaiton.\n      * They're setted to onlyOwner to be sure that, in case of forgetting to erase them, no user is capable to use them\n      * maliciously.\n      */\n    function insertCustomizedLucky7Number(uint _id, string _mu, string _i, uint _ticketValue,uint _drawNumber) public onlyOwner{\n        lucky7NumbersArray[_id] = Lucky7Number(_mu, _i, _ticketValue, _drawNumber);\n    }\n    \n    function insertCustomizedTicket(string _mu, string _i, uint _ticketValue,address _ticketOwner, uint _drawNumber) \n        public \n        onlyOwner \n        returns (uint){\n            uint id = ticketsArray.push(Ticket(_mu,_i,_ticketValue,_ticketOwner,_drawNumber)) - 1;\n            currentTicketID = id;\n        }\n    \n    function setIndexForLucky7Array(uint _newValue) public onlyOwner{\n        indexForLucky7Array = _newValue;\n    }\n\n    function setInitialLucky7TicketPosition(uint _newValue) public onlyOwner{\n        initialLucky7TicketPosition = _newValue;\n    }\n    \n    /** @dev Fallback function to make this contract payable.\n      */\n    function () public payable {\n        \n    }\n}",
  "sourcePath": "/Users/matiasbarrios/Desktop/Proyecto Consensys/luckyseven/contracts/Lucky7Ballot.sol",
  "compiler": {
    "name": "solc",
    "version": "0.4.24+commit.e67f0147.Emscripten.clang"
  },
  "schemaVersion": "2.0.1",
  "updatedAt": "2018-08-27T14:28:24.993Z"
}