{
  "contractName": "Lucky7TicketFactory",
  "abi": [
    {
      "constant": true,
      "inputs": [],
      "name": "settingLucky7Numbers",
      "outputs": [
        {
          "name": "",
          "type": "bool"
        }
      ],
      "payable": false,
      "stateMutability": "view",
      "type": "function"
    },
    {
      "constant": true,
      "inputs": [],
      "name": "lucky7AdminAddress",
      "outputs": [
        {
          "name": "",
          "type": "address"
        }
      ],
      "payable": false,
      "stateMutability": "view",
      "type": "function"
    },
    {
      "constant": true,
      "inputs": [
        {
          "name": "",
          "type": "address"
        }
      ],
      "name": "userValues",
      "outputs": [
        {
          "name": "mu",
          "type": "string"
        },
        {
          "name": "i",
          "type": "string"
        },
        {
          "name": "ticketValue",
          "type": "uint256"
        },
        {
          "name": "muReady",
          "type": "bool"
        },
        {
          "name": "iReady",
          "type": "bool"
        },
        {
          "name": "userPaidTicket",
          "type": "bool"
        }
      ],
      "payable": false,
      "stateMutability": "view",
      "type": "function"
    },
    {
      "constant": false,
      "inputs": [],
      "name": "renounceOwnership",
      "outputs": [],
      "payable": false,
      "stateMutability": "nonpayable",
      "type": "function"
    },
    {
      "constant": true,
      "inputs": [],
      "name": "owner",
      "outputs": [
        {
          "name": "",
          "type": "address"
        }
      ],
      "payable": false,
      "stateMutability": "view",
      "type": "function"
    },
    {
      "constant": false,
      "inputs": [
        {
          "name": "_newOwner",
          "type": "address"
        }
      ],
      "name": "transferOwnership",
      "outputs": [],
      "payable": false,
      "stateMutability": "nonpayable",
      "type": "function"
    },
    {
      "constant": true,
      "inputs": [],
      "name": "lucky7StorageAddress",
      "outputs": [
        {
          "name": "",
          "type": "address"
        }
      ],
      "payable": false,
      "stateMutability": "view",
      "type": "function"
    },
    {
      "inputs": [
        {
          "name": "_lucky7AdminAddress",
          "type": "address"
        },
        {
          "name": "_lucky7StorageAddress",
          "type": "address"
        }
      ],
      "payable": true,
      "stateMutability": "payable",
      "type": "constructor"
    },
    {
      "payable": true,
      "stateMutability": "payable",
      "type": "fallback"
    },
    {
      "anonymous": false,
      "inputs": [
        {
          "indexed": false,
          "name": "description",
          "type": "string"
        }
      ],
      "name": "NewOraclizeQuery",
      "type": "event"
    },
    {
      "anonymous": false,
      "inputs": [
        {
          "indexed": false,
          "name": "muParameter",
          "type": "string"
        }
      ],
      "name": "NewMuReceived",
      "type": "event"
    },
    {
      "anonymous": false,
      "inputs": [
        {
          "indexed": false,
          "name": "iParameter",
          "type": "string"
        }
      ],
      "name": "NewIReceived",
      "type": "event"
    },
    {
      "anonymous": false,
      "inputs": [
        {
          "indexed": false,
          "name": "newTicket",
          "type": "string"
        }
      ],
      "name": "NewTicketReceived",
      "type": "event"
    },
    {
      "anonymous": false,
      "inputs": [
        {
          "indexed": false,
          "name": "description",
          "type": "string"
        }
      ],
      "name": "NewWolframQuery",
      "type": "event"
    },
    {
      "anonymous": false,
      "inputs": [
        {
          "indexed": false,
          "name": "value",
          "type": "uint256"
        }
      ],
      "name": "NewValue",
      "type": "event"
    },
    {
      "anonymous": false,
      "inputs": [
        {
          "indexed": true,
          "name": "previousOwner",
          "type": "address"
        }
      ],
      "name": "OwnershipRenounced",
      "type": "event"
    },
    {
      "anonymous": false,
      "inputs": [
        {
          "indexed": true,
          "name": "previousOwner",
          "type": "address"
        },
        {
          "indexed": true,
          "name": "newOwner",
          "type": "address"
        }
      ],
      "name": "OwnershipTransferred",
      "type": "event"
    },
    {
      "constant": false,
      "inputs": [
        {
          "name": "_newOAR",
          "type": "address"
        }
      ],
      "name": "changeOAR",
      "outputs": [],
      "payable": false,
      "stateMutability": "nonpayable",
      "type": "function"
    },
    {
      "constant": false,
      "inputs": [],
      "name": "toggleLucky7Setting",
      "outputs": [],
      "payable": false,
      "stateMutability": "nonpayable",
      "type": "function"
    },
    {
      "constant": false,
      "inputs": [
        {
          "name": "_ticketOwner",
          "type": "address"
        }
      ],
      "name": "_askForMuParameter",
      "outputs": [],
      "payable": false,
      "stateMutability": "nonpayable",
      "type": "function"
    },
    {
      "constant": false,
      "inputs": [
        {
          "name": "_ticketOwner",
          "type": "address"
        }
      ],
      "name": "_askForIParameter",
      "outputs": [],
      "payable": false,
      "stateMutability": "nonpayable",
      "type": "function"
    },
    {
      "constant": false,
      "inputs": [
        {
          "name": "_ticketOwner",
          "type": "address"
        }
      ],
      "name": "_askForTicket",
      "outputs": [],
      "payable": false,
      "stateMutability": "nonpayable",
      "type": "function"
    },
    {
      "constant": false,
      "inputs": [
        {
          "name": "_ticketOwner",
          "type": "address"
        }
      ],
      "name": "_generateTicket",
      "outputs": [],
      "payable": false,
      "stateMutability": "nonpayable",
      "type": "function"
    },
    {
      "constant": false,
      "inputs": [],
      "name": "_generateLucky7Number",
      "outputs": [],
      "payable": false,
      "stateMutability": "nonpayable",
      "type": "function"
    },
    {
      "constant": false,
      "inputs": [
        {
          "name": "myid",
          "type": "bytes32"
        },
        {
          "name": "result",
          "type": "string"
        },
        {
          "name": "proof",
          "type": "bytes"
        }
      ],
      "name": "__callback",
      "outputs": [],
      "payable": false,
      "stateMutability": "nonpayable",
      "type": "function"
    },
    {
      "constant": false,
      "inputs": [
        {
          "name": "myid",
          "type": "bytes32"
        },
        {
          "name": "result",
          "type": "string"
        }
      ],
      "name": "__callback",
      "outputs": [],
      "payable": false,
      "stateMutability": "nonpayable",
      "type": "function"
    },
    {
      "constant": false,
      "inputs": [
        {
          "name": "_ticketOwner",
          "type": "address"
        }
      ],
      "name": "bothToFalse",
      "outputs": [],
      "payable": false,
      "stateMutability": "nonpayable",
      "type": "function"
    },
    {
      "constant": false,
      "inputs": [
        {
          "name": "_ticketOwner",
          "type": "address"
        }
      ],
      "name": "paidTicketToTrue",
      "outputs": [],
      "payable": false,
      "stateMutability": "nonpayable",
      "type": "function"
    },
    {
      "constant": true,
      "inputs": [
        {
          "name": "_ticketOwner",
          "type": "address"
        }
      ],
      "name": "userParametersEmpty",
      "outputs": [
        {
          "name": "",
          "type": "bool"
        }
      ],
      "payable": false,
      "stateMutability": "view",
      "type": "function"
    }
  ],
  "bytecode": "0x608060408181526007805460a060020a60ff021916740100000000000000000000000000000000000000001790558061358f83398101604052805160209091015160058054600160a060020a03199081163317909155600080548216736f485c8bf6fc43ea212e93bbf8ce046c7f1cb47517905560068054600160a060020a03948516908316179055600780549390921692169190911790556134e8806100a76000396000f3006080604052600436106100ed5763ffffffff60e060020a6000350416632005058d81146100ef57806323d370ba1461011057806327dc297e146101315780632caf9eee1461018f5780632db3e7da146101b85780632de7412d146101e957806338bbfa501461020a57806339df3f4f146102a65780634acfd9b8146102bb57806358070951146103da578063715018a6146103fb5780637282d8a81461041057806377d8a830146104315780638da5cb5b1461045257806390c31c4c14610467578063ddc110fa1461047c578063f2fde38b1461049d578063fb0dcaff146104be578063fd9be1b2146104d3575b005b3480156100fb57600080fd5b506100ed600160a060020a03600435166104f4565b34801561011c57600080fd5b506100ed600160a060020a036004351661051f565b34801561013d57600080fd5b5060408051602060046024803582810135601f81018590048502860185019096528585526100ed9583359536956044949193909101919081908401838280828437509497506107b29650505050505050565b34801561019b57600080fd5b506101a46110af565b604080519115158252519081900360200190f35b3480156101c457600080fd5b506101cd6110bf565b60408051600160a060020a039092168252519081900360200190f35b3480156101f557600080fd5b506101a4600160a060020a03600435166110ce565b34801561021657600080fd5b5060408051602060046024803582810135601f81018590048502860185019096528585526100ed95833595369560449491939091019190819084018382808284375050604080516020601f89358b018035918201839004830284018301909452808352979a9998810197919650918201945092508291508401838280828437509497506110aa9650505050505050565b3480156102b257600080fd5b506100ed61124d565b3480156102c757600080fd5b506102dc600160a060020a0360043516611296565b604080519081018590528315156060820152821515608082015281151560a082015260c08082528751908201528651819060208083019160e08401918b019080838360005b83811015610339578181015183820152602001610321565b50505050905090810190601f1680156103665780820380516001836020036101000a031916815260200191505b5083810382528851815288516020918201918a019080838360005b83811015610399578181015183820152602001610381565b50505050905090810190601f1680156103c65780820380516001836020036101000a031916815260200191505b509850505050505050505060405180910390f35b3480156103e657600080fd5b506100ed600160a060020a03600435166113f6565b34801561040757600080fd5b506100ed611418565b34801561041c57600080fd5b506100ed600160a060020a0360043516611479565b34801561043d57600080fd5b506100ed600160a060020a036004351661149e565b34801561045e57600080fd5b506101cd6114b3565b34801561047357600080fd5b506100ed6114c2565b34801561048857600080fd5b506100ed600160a060020a0360043516611731565b3480156104a957600080fd5b506100ed600160a060020a0360043516611966565b3480156104ca57600080fd5b506101cd611986565b3480156104df57600080fd5b506100ed600160a060020a0360043516611995565b600160a060020a03166000908152600860205260409020600301805462ff0000191662010000179055565b600654604080517fc50f7fbd000000000000000000000000000000000000000000000000000000008152600160a060020a039092166004830152516000918291829173__Lucky7Library_________________________9163c50f7fbd91602480820192602092909190829003018186803b15801561059d57600080fd5b505af41580156105b1573d6000803e3d6000fd5b505050506040513d60208110156105c757600080fd5b505190506105d481611bf7565b600654604080517f23913b85000000000000000000000000000000000000000000000000000000008152600160a060020a0390921660048301525173__Lucky7Library_________________________916323913b85916024808301926020929190829003018186803b15801561064a57600080fd5b505af415801561065e573d6000803e3d6000fd5b505050506040513d602081101561067457600080fd5b50516040805182815290519194507fac3e966f295f2d5312f973dc6d42f30a6dc1c1f76ab8ee91cc8ca5dad1fa60fd919081900360200190a1604080516020808252808201527f41736b696e6720666f722061206e6577206d7520706172616d657465722e2e2e8183015290517f096835e36c2ccea88ff2b3aca87dfc938b977e52ea656873ff76a8dba50d4d349181900360600190a16107806040805190810160405280600c81526020017f576f6c6672616d416c70686100000000000000000000000000000000000000008152506040805190810160405280600f81526020017f342072616e646f6d206e756d626572000000000000000000000000000000000081525085611ddd565b60009081526009602052604090208054600160a060020a031916600160a060020a039590951694909417909355505050565b60006107bc6121de565b600160a060020a031633146107d057600080fd5b600083815260096020526040902054600160a060020a03161580159061081e5750600083815260096020908152604080832054600160a060020a03168352600890915290206003015460ff16155b156109c257600083815260096020908152604080832054600160a060020a0316835260088252909120835161085592850190613424565b507f6a28dd23c76ba6cc6f4f148a0e2e0e147d8b876cb74ec1e5e2b8e9a8119eb702826040518080602001828103825283818151815260200191508051906020019080838360005b838110156108b557818101518382015260200161089d565b50505050905090810190601f1680156108e25780820380516001836020036101000a031916815260200191505b509250505060405180910390a160008381526009602090815260408083208054600160a060020a03908116855260089093528184206003908101805460ff191660019081179091559154909316845292200154610100900460ff1615151480156109975750600083815260096020908152604080832054600160a060020a03168352600890915290206003015460ff6201000090910416151560011480610997575060075460a060020a900460ff1615156001145b156109bd576000838152600960205260409020546109bd90600160a060020a0316611731565b6110aa565b6000838152600a6020526040902054600160a060020a031615801590610a1557506000838152600a6020908152604080832054600160a060020a031683526008909152902060030154610100900460ff16155b15610bb7576000838152600a6020908152604080832054600160a060020a03168352600882529091208351610a5292600190920191850190613424565b507f716a554dec57e3a217a923b974660c0c8ebee07b09b1ac7d4a3a8f328d10cc89826040518080602001828103825283818151815260200191508051906020019080838360005b83811015610ab2578181015183820152602001610a9a565b50505050905090810190601f168015610adf5780820380516001836020036101000a031916815260200191505b509250505060405180910390a16000838152600a602090815260408083208054600160a060020a03908116855260089093528184206003908101805461ff00191661010017905590549092168352909120015460ff1615156001148015610b9157506000838152600a6020908152604080832054600160a060020a03168352600890915290206003015460ff6201000090910416151560011480610b91575060075460a060020a900460ff1615156001145b156109bd576000838152600a60205260409020546109bd90600160a060020a0316611731565b6000838152600b6020526040902054600160a060020a031615801590610c2857506000838152600b6020908152604080832054600160a060020a03168352600890915290206003015460ff6201000090910416151560011480610c28575060075460a060020a900460ff1615156001145b156110aa5750600754600160a060020a0316610c43826123d0565b6000848152600b6020908152604080832054600160a060020a031683526008825280832060020193909355825181815285518183015285517f0efef3a277391dda0d5747fd15566e85fcd8a4fb588d9853173841e45cc5ae8a9487949293849391840192908601918190849084905b83811015610cca578181015183820152602001610cb2565b50505050905090810190601f168015610cf75780820380516001836020036101000a031916815260200191505b509250505060405180910390a16000838152600b6020908152604080832054600160a060020a0316835260089091529020600301805462ff00001916905560075460a060020a900460ff16151560011415610eeb576000838152600b6020908152604080832054600160a060020a03908116845260089092529182902060028082015493517f9e6a1b040000000000000000000000000000000000000000000000000000000081526044810185905260606004820190815283546001808216156101000260001901909116939093046064830181905294871695639e6a1b0495938501939092829160248201916084019087908015610e375780601f10610e0c57610100808354040283529160200191610e37565b820191906000526020600020905b815481529060010190602001808311610e1a57829003601f168201915b5050838103825285546002600019610100600184161502019091160480825260209091019086908015610eab5780601f10610e8057610100808354040283529160200191610eab565b820191906000526020600020905b815481529060010190602001808311610e8e57829003601f168201915b505095505050505050600060405180830381600087803b158015610ece57600080fd5b505af1158015610ee2573d6000803e3d6000fd5b505050506110aa565b6000838152600b6020818152604080842054600160a060020a0390811680865260088452828620600280820154978b90529590945291517fd6efcd4000000000000000000000000000000000000000000000000000000000815260448101869052606481018390526080600482019081528454600181811615610100026000190190911696909604608483018190529288169663d6efcd4096860194909390928291602482019160a4019088908015610fe55780601f10610fba57610100808354040283529160200191610fe5565b820191906000526020600020905b815481529060010190602001808311610fc857829003601f168201915b50508381038252865460026000196101006001841615020190911604808252602090910190879080156110595780601f1061102e57610100808354040283529160200191611059565b820191906000526020600020905b81548152906001019060200180831161103c57829003601f168201915b50509650505050505050602060405180830381600087803b15801561107d57600080fd5b505af1158015611091573d6000803e3d6000fd5b505050506040513d60208110156110a757600080fd5b50505b505050565b60075460a060020a900460ff1681565b600654600160a060020a031681565b60408051600160a060020a0383166000908152600860205291822080547fc5d2460186f7233c927e7db2dcc703c0e500b653ca82273b7bfad8045d85a4709290819083906002610100600183161502600019019091160480156111685780601f10611146576101008083540402835291820191611168565b820191906000526020600020905b815481529060010190602001808311611154575b5050915050604051809103902060001916148015611237575060408051600160a060020a0384166000908152600860205291909120600190810180547fc5d2460186f7233c927e7db2dcc703c0e500b653ca82273b7bfad8045d85a4709391928291849160026101009183161591909102600019019091160480156112245780601f10611202576101008083540402835291820191611224565b820191906000526020600020905b815481529060010190602001808311611210575b5050915050604051809103902060001916145b1561124457506001611248565b5060005b919050565b600554600160a060020a0316331461126457600080fd5b6007805474ff000000000000000000000000000000000000000019811660a060020a9182900460ff1615909102179055565b60086020908152600091825260409182902080548351601f6002600019610100600186161502019093169290920491820184900484028101840190945280845290929183919083018282801561132d5780601f106113025761010080835404028352916020019161132d565b820191906000526020600020905b81548152906001019060200180831161131057829003601f168201915b505050505090806001018054600181600116156101000203166002900480601f0160208091040260200160405190810160405280929190818152602001828054600181600116156101000203166002900480156113cb5780601f106113a0576101008083540402835291602001916113cb565b820191906000526020600020905b8154815290600101906020018083116113ae57829003601f168201915b50505050600283015460039093015491929160ff808216925061010082048116916201000090041686565b60008054600160a060020a031916600160a060020a0392909216919091179055565b600554600160a060020a0316331461142f57600080fd5b600554604051600160a060020a03909116907ff8df31144d9c2f0f6b59d69b8b98abd5459d07f2742c4df920b25aae33c6482090600090a260058054600160a060020a0319169055565b600160a060020a03166000908152600860205260409020600301805461ffff19169055565b6114a78161051f565b6114b081611995565b50565b600554600160a060020a031681565b6007546000908190819060a060020a900460ff1615156001146114e457600080fd5b600754604080517fdbc6ac88000000000000000000000000000000000000000000000000000000008152600160a060020a0390921660048301525173__Lucky7Library_________________________9163dbc6ac88916024808301926020929190829003018186803b15801561155a57600080fd5b505af415801561156e573d6000803e3d6000fd5b505050506040513d602081101561158457600080fd5b5051600754604080517f3d579ff8000000000000000000000000000000000000000000000000000000008152600160a060020a0390921660048301525191945073__Lucky7Library_________________________91633d579ff891602480820192602092909190829003018186803b15801561160057600080fd5b505af4158015611614573d6000803e3d6000fd5b505050506040513d602081101561162a57600080fd5b505191508282141561170d5750600754604080517f75edd2570000000000000000000000000000000000000000000000000000000081529051600160a060020a039092169182916375edd25791600480830192600092919082900301818387803b15801561169757600080fd5b505af11580156116ab573d6000803e3d6000fd5b5050505080600160a060020a0316638df3dc866040518163ffffffff1660e060020a028152600401600060405180830381600087803b1580156116ed57600080fd5b505af1158015611701573d6000803e3d6000fd5b505050506109bd61124d565b306000818152600860205260409020600301805461ffff191690556110aa9061149e565b600654604080517fc50f7fbd000000000000000000000000000000000000000000000000000000008152600160a060020a039092166004830152516000918291829173__Lucky7Library_________________________9163c50f7fbd91602480820192602092909190829003018186803b1580156117af57600080fd5b505af41580156117c3573d6000803e3d6000fd5b505050506040513d60208110156117d957600080fd5b505190506117e681611bf7565b600654604080517f23913b85000000000000000000000000000000000000000000000000000000008152600160a060020a0390921660048301525173__Lucky7Library_________________________916323913b85916024808301926020929190829003018186803b15801561185c57600080fd5b505af4158015611870573d6000803e3d6000fd5b505050506040513d602081101561188657600080fd5b5051604080516020808252601a908201527f41736b696e6720666f722061206e6577207469636b65742e2e2e0000000000008183015290519194507f096835e36c2ccea88ff2b3aca87dfc938b977e52ea656873ff76a8dba50d4d34919081900360600190a16119346040805190810160405280600c81526020017f576f6c6672616d416c706861000000000000000000000000000000000000000081525061192e866123e3565b85611ddd565b6000908152600b602052604090208054600160a060020a031916600160a060020a039590951694909417909355505050565b600554600160a060020a0316331461197d57600080fd5b6114b081612c93565b600754600160a060020a031681565b600654604080517fc50f7fbd000000000000000000000000000000000000000000000000000000008152600160a060020a039092166004830152516000918291829173__Lucky7Library_________________________9163c50f7fbd91602480820192602092909190829003018186803b158015611a1357600080fd5b505af4158015611a27573d6000803e3d6000fd5b505050506040513d6020811015611a3d57600080fd5b50519050611a4a81611bf7565b600654604080517f23913b85000000000000000000000000000000000000000000000000000000008152600160a060020a0390921660048301525173__Lucky7Library_________________________916323913b85916024808301926020929190829003018186803b158015611ac057600080fd5b505af4158015611ad4573d6000803e3d6000fd5b505050506040513d6020811015611aea57600080fd5b5051604080516020808252601f908201527f41736b696e6720666f722061206e6577206920706172616d657465722e2e2e008183015290519194507f096835e36c2ccea88ff2b3aca87dfc938b977e52ea656873ff76a8dba50d4d34919081900360600190a1611bc56040805190810160405280600c81526020017f576f6c6672616d416c70686100000000000000000000000000000000000000008152506040805190810160405280600f81526020017f342072616e646f6d206e756d626572000000000000000000000000000000000081525085611ddd565b6000908152600a602052604090208054600160a060020a031916600160a060020a039590951694909417909355505050565b600054600160a060020a03161580611c215750600054611c1f90600160a060020a0316612d04565b155b15611c3257611c306000612d08565b505b6000809054906101000a9004600160a060020a0316600160a060020a03166338cc48316040518163ffffffff1660e060020a028152600401602060405180830381600087803b158015611c8457600080fd5b505af1158015611c98573d6000803e3d6000fd5b505050506040513d6020811015611cae57600080fd5b5051600154600160a060020a03908116911614611d63576000809054906101000a9004600160a060020a0316600160a060020a03166338cc48316040518163ffffffff1660e060020a028152600401602060405180830381600087803b158015611d1757600080fd5b505af1158015611d2b573d6000803e3d6000fd5b505050506040513d6020811015611d4157600080fd5b505160018054600160a060020a031916600160a060020a039092169190911790555b600154604080517fca6ad1e4000000000000000000000000000000000000000000000000000000008152600481018490529051600160a060020a039092169163ca6ad1e49160248082019260009290919082900301818387803b158015611dc957600080fd5b505af11580156110a7573d6000803e3d6000fd5b600080548190600160a060020a03161580611e0a5750600054611e0890600160a060020a0316612d04565b155b15611e1b57611e196000612d08565b505b6000809054906101000a9004600160a060020a0316600160a060020a03166338cc48316040518163ffffffff1660e060020a028152600401602060405180830381600087803b158015611e6d57600080fd5b505af1158015611e81573d6000803e3d6000fd5b505050506040513d6020811015611e9757600080fd5b5051600154600160a060020a03908116911614611f4c576000809054906101000a9004600160a060020a0316600160a060020a03166338cc48316040518163ffffffff1660e060020a028152600401602060405180830381600087803b158015611f0057600080fd5b505af1158015611f14573d6000803e3d6000fd5b505050506040513d6020811015611f2a57600080fd5b505160018054600160a060020a031916600160a060020a039092169190911790555b600154604080517f2ef3accc0000000000000000000000000000000000000000000000000000000081526024810186905260048101918252875160448201528751600160a060020a0390931692632ef3accc9289928892829160640190602086019080838360005b83811015611fcc578181015183820152602001611fb4565b50505050905090810190601f168015611ff95780820380516001836020036101000a031916815260200191505b509350505050602060405180830381600087803b15801561201957600080fd5b505af115801561202d573d6000803e3d6000fd5b505050506040513d602081101561204357600080fd5b50519050670de0b6b3a76400003a84020181111561206457600091506121d6565b6001546040517fc51be90f00000000000000000000000000000000000000000000000000000000815260006004820181815260648301879052608060248401908152895160848501528951600160a060020a039095169463c51be90f948794938c938c938c93604481019160a49091019060208801908083838c5b838110156120f75781810151838201526020016120df565b50505050905090810190601f1680156121245780820380516001836020036101000a031916815260200191505b50838103825285518152855160209182019187019080838360005b8381101561215757818101518382015260200161213f565b50505050905090810190601f1680156121845780820380516001836020036101000a031916815260200191505b5096505050505050506020604051808303818588803b1580156121a657600080fd5b505af11580156121ba573d6000803e3d6000fd5b50505050506040513d60208110156121d157600080fd5b505191505b509392505050565b60008054600160a060020a03161580612209575060005461220790600160a060020a0316612d04565b155b1561221a576122186000612d08565b505b6000809054906101000a9004600160a060020a0316600160a060020a03166338cc48316040518163ffffffff1660e060020a028152600401602060405180830381600087803b15801561226c57600080fd5b505af1158015612280573d6000803e3d6000fd5b505050506040513d602081101561229657600080fd5b5051600154600160a060020a0390811691161461234b576000809054906101000a9004600160a060020a0316600160a060020a03166338cc48316040518163ffffffff1660e060020a028152600401602060405180830381600087803b1580156122ff57600080fd5b505af1158015612313573d6000803e3d6000fd5b505050506040513d602081101561232957600080fd5b505160018054600160a060020a031916600160a060020a039092169190911790555b600160009054906101000a9004600160a060020a0316600160a060020a031663c281d19e6040518163ffffffff1660e060020a028152600401602060405180830381600087803b15801561239e57600080fd5b505af11580156123b2573d6000803e3d6000fd5b505050506040513d60208110156123c857600080fd5b505190505b90565b60006123dd826000612d12565b92915050565b600654604080517f59c96c11000000000000000000000000000000000000000000000000000000008152600160a060020a039092166004830152516060918291829182918291829173__Lucky7Library_________________________916359c96c11916024808301926000929190829003018186803b15801561246657600080fd5b505af415801561247a573d6000803e3d6000fd5b505050506040513d6000823e601f3d908101601f1916820160405260808110156124a357600080fd5b8101908080516401000000008111156124bb57600080fd5b820160208101848111156124ce57600080fd5b81516401000000008111828201871017156124e857600080fd5b5050929190602001805164010000000081111561250457600080fd5b8201602081018481111561251757600080fd5b815164010000000081118282018710171561253157600080fd5b5050929190602001805164010000000081111561254d57600080fd5b8201602081018481111561256057600080fd5b815164010000000081118282018710171561257a57600080fd5b5050929190602001805164010000000081111561259657600080fd5b820160208101848111156125a957600080fd5b81516401000000008111828201871017156125c357600080fd5b5050929190505050809550819650829750839850505050506127476040805190810160405280600c81526020017f286d6f642828312f2831305e0000000000000000000000000000000000000000815250856040805190810160405280600181526020017f2d00000000000000000000000000000000000000000000000000000000000000815250600860008c600160a060020a0316600160a060020a031681526020019081526020016000206000018054600181600116156101000203166002900480601f0160208091040260200160405190810160405280929190818152602001828054600181600116156101000203166002900480156127075780601f106126dc57610100808354040283529160200191612707565b820191906000526020600020905b8154815290600101906020018083116126ea57829003601f168201915b50505050506040805190810160405280600681526020017f29292a31305e0000000000000000000000000000000000000000000000000000815250612e84565b90506127c081846040805190810160405280600581526020017f2c31305e28000000000000000000000000000000000000000000000000000000815250856040805190810160405280600181526020017f2b00000000000000000000000000000000000000000000000000000000000000815250612e84565b90506128f981600860008a600160a060020a0316600160a060020a031681526020019081526020016000206001018054600181600116156101000203166002900480601f0160208091040260200160405190810160405280929190818152602001828054600181600116156101000203166002900480156128825780601f1061285757610100808354040283529160200191612882565b820191906000526020600020905b81548152906001019060200180831161286557829003601f168201915b50505050506040805190810160405280600e81526020017f29292d6d6f642828312f2831305e000000000000000000000000000000000000815250876040805190810160405280600181526020017f2d00000000000000000000000000000000000000000000000000000000000000815250612e84565b600160a060020a03881660009081526008602090815260409182902080548351601f60026000196101006001861615020190931692909204918201849004840281018401909452808452939450612a159385939283018282801561299e5780601f106129735761010080835404028352916020019161299e565b820191906000526020600020905b81548152906001019060200180831161298157829003601f168201915b50505050506040805190810160405280600681526020017f29292a31305e0000000000000000000000000000000000000000000000000000815250866040805190810160405280600481526020017f2c31305e00000000000000000000000000000000000000000000000000000000815250612e84565b60408051808201825260018082527f2800000000000000000000000000000000000000000000000000000000000000602080840191909152600160a060020a038c16600090815260088252849020820180548551600294821615610100026000190190911693909304601f8101839004830284018301909552848352949550612bee9486949091830182828015612aed5780601f10612ac257610100808354040283529160200191612aed565b820191906000526020600020905b815481529060010190602001808311612ad057829003601f168201915b50505050506040805190810160405280600781526020017f2929292f31305e00000000000000000000000000000000000000000000000000815250600860008d600160a060020a0316600160a060020a031681526020019081526020016000206001018054600181600116156101000203166002900480601f016020809104026020016040519081016040528092919081815260200182805460018160011615610100020316600290048015612be45780601f10612bb957610100808354040283529160200191612be4565b820191906000526020600020905b815481529060010190602001808311612bc757829003601f168201915b5050505050612e84565b90507f261af219212047633bb60c8d0cc7e33d217c38edf6fa7e53acb97a3f94180de5816040518080602001828103825283818151815260200191508051906020019080838360005b83811015612c4f578181015183820152602001612c37565b50505050905090810190601f168015612c7c5780820380516001836020036101000a031916815260200191505b509250505060405180910390a19695505050505050565b600160a060020a0381161515612ca857600080fd5b600554604051600160a060020a038084169216907f8be0079c531659141344cd1fd0a4f28419497f9722a3daafe3b4186f6b6457e090600090a360058054600160a060020a031916600160a060020a0392909216919091179055565b3b90565b60006123dd6130e5565b6000828180805b8351811015612e675783517f300000000000000000000000000000000000000000000000000000000000000090859083908110612d5257fe5b90602001015160f860020a900460f860020a02600160f860020a03191610158015612dc8575083517f390000000000000000000000000000000000000000000000000000000000000090859083908110612da857fe5b90602001015160f860020a900460f860020a02600160f860020a03191611155b15612e21578115612de757851515612ddf57612e67565b600019909501945b600a8302925060308482815181101515612dfd57fe5b90602001015160f860020a900460f860020a0260f860020a90040383019250612e5f565b8381815181101515612e2f57fe5b90602001015160f860020a900460f860020a02600160f860020a031916602e60f860020a021415612e5f57600191505b600101612d19565b6000861115612e795785600a0a830292505b509095945050505050565b6060806060806060806060806000808e98508d97508c96508b95508a94508451865188518a518c51010101016040519080825280601f01601f191660200182016040528015612edd578160200160208202803883390190505b50935083925060009150600090505b8851811015612f4a578881815181101515612f0357fe5b90602001015160f860020a900460f860020a028383806001019450815181101515612f2a57fe5b906020010190600160f860020a031916908160001a905350600101612eec565b5060005b8751811015612fac578781815181101515612f6557fe5b90602001015160f860020a900460f860020a028383806001019450815181101515612f8c57fe5b906020010190600160f860020a031916908160001a905350600101612f4e565b5060005b865181101561300e578681815181101515612fc757fe5b90602001015160f860020a900460f860020a028383806001019450815181101515612fee57fe5b906020010190600160f860020a031916908160001a905350600101612fb0565b5060005b855181101561307057858181518110151561302957fe5b90602001015160f860020a900460f860020a02838380600101945081518110151561305057fe5b906020010190600160f860020a031916908160001a905350600101613012565b5060005b84518110156130d257848181518110151561308b57fe5b90602001015160f860020a900460f860020a0283838060010194508151811015156130b257fe5b906020010190600160f860020a031916908160001a905350600101613074565b50909d9c50505050505050505050505050565b600080613105731d3b2638a7cc9f2cb3d298a3da7a90b67e5506ed612d04565b11156131765760008054600160a060020a031916731d3b2638a7cc9f2cb3d298a3da7a90b67e5506ed17905560408051808201909152600b81527f6574685f6d61696e6e6574000000000000000000000000000000000000000000602082015261316e9061340d565b5060016123cd565b600061319573c03a2615d5efaf5f49f60b7bb6583eaec212fdf1612d04565b11156131fe5760008054600160a060020a03191673c03a2615d5efaf5f49f60b7bb6583eaec212fdf117905560408051808201909152600c81527f6574685f726f707374656e330000000000000000000000000000000000000000602082015261316e9061340d565b600061321d73b7a07bcf2ba2f2703b24c0691b5278999c59ac7e612d04565b11156132865760008054600160a060020a03191673b7a07bcf2ba2f2703b24c0691b5278999c59ac7e17905560408051808201909152600981527f6574685f6b6f76616e0000000000000000000000000000000000000000000000602082015261316e9061340d565b60006132a573146500cfd35b22e4a392fe0adc06de1a1368ed48612d04565b111561330e5760008054600160a060020a03191673146500cfd35b22e4a392fe0adc06de1a1368ed4817905560408051808201909152600b81527f6574685f72696e6b656279000000000000000000000000000000000000000000602082015261316e9061340d565b600061332d736f485c8bf6fc43ea212e93bbf8ce046c7f1cb475612d04565b1115613361575060008054600160a060020a031916736f485c8bf6fc43ea212e93bbf8ce046c7f1cb47517905560016123cd565b60006133807320e12a1f859b3feae5fb2a0a32c18f5a65555bbf612d04565b11156133b4575060008054600160a060020a0319167320e12a1f859b3feae5fb2a0a32c18f5a65555bbf17905560016123cd565b60006133d37351efaf4c8b3c9afbd5ab9f4bbc82784ab6ef8faa612d04565b1115613407575060008054600160a060020a0319167351efaf4c8b3c9afbd5ab9f4bbc82784ab6ef8faa17905560016123cd565b50600090565b8051613420906002906020840190613424565b5050565b828054600181600116156101000203166002900490600052602060002090601f016020900481019282601f1061346557805160ff1916838001178555613492565b82800160010185558215613492579182015b82811115613492578251825591602001919060010190613477565b5061349e9291506134a2565b5090565b6123cd91905b8082111561349e57600081556001016134a85600a165627a7a723058202f7f46bf4501cfbc28780e791cc6a1ea1dc4cac71732065d8704b754010e54a30029",
  "source": "/**\n  * @author Matias Barrios\n  * @version 1.0\n  */\n\n/** @title Lucky7TicketFactor. \n  * This contract contains all the functions to generate tickets and Lucky7Numbers.\n  * Inherits from Lucky7Admin and usingOraclize to do the oraclize querys. \n*/\n\npragma solidity ^0.4.20;\nimport \"./usingOraclize.sol\";\nimport \"./Lucky7Admin.sol\";\nimport \"./Lucky7Storage.sol\";\nimport \"./Lucky7Library.sol\";\nimport \"openzeppelin-solidity/contracts/math/SafeMath.sol\";\nimport \"openzeppelin-solidity/contracts/ownership/Ownable.sol\";\n\n\ncontract Lucky7TicketFactory is usingOraclize,Ownable{\n    /** @dev SafeMath library is used for the _checkForLucky7Ticket of this contract. \n        @dev Lucky7Library is a library used to get values from other contracts.\n      */\n    using Lucky7Library for *;\n    using SafeMath for uint256;\n    \n    /** @dev Address of the Lucky7Storage contract\n      */\n    address public lucky7AdminAddress;\n    address public lucky7StorageAddress;\n    /** @dev The constructor needs to set the OAR, Oraclize Address Resolver\n      * OAR is the Oraclize Address Resolver to use oraclize on localhost\n      */\n    function Lucky7TicketFactory(address _lucky7AdminAddress,address _lucky7StorageAddress) public payable{\n        OAR = OraclizeAddrResolverI(0x6f485C8BF6fc43eA212E93BBF8ce046C7f1cb475);\n        lucky7AdminAddress = _lucky7AdminAddress;\n        lucky7StorageAddress = _lucky7StorageAddress;\n    }\n\n    /** @dev This function is to change the OAR without compiling again and deploying again\n      * Used only for testing purposes.\n      */\n    function changeOAR(address _newOAR)\n        public\n        //onlyOwner\n    {\n        OAR = OraclizeAddrResolverI(_newOAR);\n    }\n\n    /**@dev The events are used mainly for testing purposes\n      */\n    event NewOraclizeQuery(string description);\n    event NewMuReceived(string muParameter);\n    event NewIReceived(string iParameter);\n    event NewTicketReceived(string newTicket);\n    event NewWolframQuery(string description);\n    event NewValue(uint value);\n    \n    /** @dev This modifier is used to set the gas price on the functions which do oraclize querys.\n      *  It uses the oraclizeCustomGasPrice of the Lucky7Admin contract.\n      */\n    modifier oraclizeGasPriceCustomized{\n        uint oraclizeCustomGasPrice = Lucky7Library.oraclizeCustomGasPrice(lucky7AdminAddress);\n        oraclize_setCustomGasPrice(oraclizeCustomGasPrice);\n        _;\n    }\n\n    /** @dev This modifier is meant to block the Lucky7Number generation when the game is on course\n      * Is used to block the action of the _generateLucky7Number function of this contract if the circuit breaker\n      * is not \n      */\n    modifier gameNotInCourse(){\n        require(settingLucky7Numbers==true);\n        _;\n    }\n\n    /** @param settingLucky7Numbers is a circuit breaker to stop users of buying tickets while the game is getting setted\n      *i.e. when a new game is started, previous winners are erased, the Lucky7Numbers are getting setted and prizes are delivered.\n      */\n    bool public settingLucky7Numbers = true;\n    \n    /** @dev Function to toggle the settingLucky7Numbers to stop users to buy tickets. \n      */\n    function toggleLucky7Setting() public onlyOwner{\n        settingLucky7Numbers = !settingLucky7Numbers;\n    }\n\n    /** @dev UserParametersValue is a struct where the values of the user ticket is stored temporarily.\n      * While the user is just generating (not buying) tickets, the values of this struct for each user are going to change.\n      * Once the user buys a ticket, all the parameters of this struct are used to generate a ticket and store it in the tickets array.\n      * where they will be stored permanently.\n      * @param mu is a parameter of the pseudo-random number generator (PRNG).\n      * @param i is a parameter of the pseudo-random number generator (PRNG).\n      * @param ticketValue is the value of the last buyed ticket of the user.\n      * @param muReady is a boolean value used for the oraclize's callback function to verify if the mu parameter for the current ticket was already setted.\n      * @param iReady is a boolean value used for the oraclize's callback function to verify if the i parameter for the current ticket was already setted.\n      * @param userPaidTicket is a boolean value to verify if the user which is calling for the oraclize query actually paid for the ticket or is just generating\n      * parameters to choose a ticket.\n      * @param userState is an enum to let other contracts verify that the info for the user is not empty.\n    */\n    struct UserParametersValue{\n        string mu;\n        string i;\n        uint ticketValue;\n        bool muReady;\n        bool iReady;\n        bool userPaidTicket;\n    }\n    \n    /** @dev Because addresses are not correlatives, is better to use a mapping. \n      * @param userValues maps from the user address to it UserParametersValue struct.\n      */\n    mapping (address => UserParametersValue) public userValues;\n\n\n    /** @dev The next three mapping are used for the functions which do oraclize querys to being identified in the oraclize's callback function\n      * as mu parameter, i parameter or a ticket.\n      * @param muParameterID maps from a bytes32 generated everytime the oraclize_query function is called and points to the address of the user which did the call.\n      * @param iParameterID maps from a bytes32 generated everytime the oraclize_query function is called and points to the address of the user which did the call.\n      * @param newTicketID maps from a bytes32 generated everytime the oraclize_query function is called and points to the address of the user which did the call.\n      */\n    mapping (bytes32 => address) muParameterID;\n    mapping (bytes32 => address) iParameterID;\n    mapping (bytes32 => address) newTicketID;\n\n    \n    /** @dev _askForMuParameter is a function to ask for a new mu parameter through an oraclize query.\n      * @param _ticketOwner is the address of the user which is calling this function through a generation of new parameters or by buying a new random ticket.\n      * First, it emit an event to register the query. Then it do the query and save the bytes32 value generated to the muID.\n      * Finally it associate this muID with the _ticketOwner through the muParameterID mapping, so the oraclize's callback function know it is a mu petition and it belongs to the _ticketOwner user.\n      */\n    function _askForMuParameter(address _ticketOwner) \n        public \n        oraclizeGasPriceCustomized\n    {\n        uint oraclizeGasLimit = Lucky7Library.oraclizeGasLimit(lucky7AdminAddress);\n        emit NewValue(oraclizeGasLimit);\n        emit NewOraclizeQuery(\"Asking for a new mu parameter...\");\n        bytes32 muID = oraclize_query(\"WolframAlpha\",\"4 random number\",oraclizeGasLimit);\n        muParameterID[muID] = _ticketOwner;\n    }\n\n    /** @dev _askForIParameter is a function to ask for a new I parameter through an oraclize query.\n      * @param _ticketOwner is the address of the user which is calling this function through a generation of new parameters or by buying a new random ticket.\n      * First, it emit an event to register the query. Then it do the query and save the bytes32 value generated to the iID.\n      * Finally it associate this iID with the _ticketOwner through the iParameterID mapping, so the oraclize's callback function know it is a i petition and it belongs to the _ticketOwner user.\n      */\n    function _askForIParameter(address _ticketOwner) \n        public \n        oraclizeGasPriceCustomized\n    {\n        uint oraclizeGasLimit = Lucky7Library.oraclizeGasLimit(lucky7AdminAddress);\n        emit NewOraclizeQuery(\"Asking for a new i parameter...\");\n        bytes32 iID = oraclize_query(\"WolframAlpha\",\"4 random number\",oraclizeGasLimit);\n        iParameterID[iID] = _ticketOwner;\n    }\n    \n    /** @dev _askForTicket is a function to ask for a new ticket through an oraclize query.\n      * @param _ticketOwner is the address of the user which is calling this function through by buying a new random ticket or buying the ticket generated by it parameters.\n      * First, it emit an event to register the query. Then it do the query and save the bytes32 value generated to the userTicketID.\n      * Finally it associate this userTicketID with the _ticketOwner through the newTicketID mapping, so the oraclize's callback function know it \n      * is a ticket petition and it belongs to the _ticketOwner user. Inside the oraclize_query function it calls the _setTicketQuery function, so it generate the query \n      * depending on the UserParametersValue struct of the _ticketOwner user.\n      */\n    function _askForTicket(address _ticketOwner) \n        public \n        oraclizeGasPriceCustomized\n    {\n        uint oraclizeGasLimit = Lucky7Library.oraclizeGasLimit(lucky7AdminAddress);\n        emit NewOraclizeQuery(\"Asking for a new ticket...\");\n        bytes32 userTicketID = oraclize_query(\"WolframAlpha\", _setTicketQuery(_ticketOwner), oraclizeGasLimit);\n        newTicketID[userTicketID] = _ticketOwner;\n    }\n\n    /** @dev _setTicketQuery is a function which sets the query to ask for a ticket to WolframAlpha through oraclize.\n      * @param _parametersOwner is the address of the user which is going to receive the ticket, e.g. a user asking for a ticket or the admin of the contract when calling for a\n      * Lucky7Number. The final shape of the query is (mod((1/(10^n-mu))*10^p,10^(j+i))-mod((1/(10^n-mu))*10^p,10^(i)))/10^i, and this function uses the strConcat function of\n      * the usingOraclize contract to concat the parts with the parameters of the user.\n      * Every line explains how the query is getting it shape. The meaning of this query is going to be explained on the paper of the project.\n      */\n    function _setTicketQuery(address _parametersOwner) \n        internal \n        returns (string)\n    {\n        string memory b;\n        string memory n;\n        string memory p;\n        string memory j;\n        (b,n,p,j) = Lucky7Library.getParameters(lucky7AdminAddress);\n        string memory queryWolfram;\n        //This line => (mod((1/(10^n-mu))*10^    \n        queryWolfram = strConcat(\"(mod((1/(10^\",n,\"-\",userValues[_parametersOwner].mu,\"))*10^\");\n        //This line => (mod((1/(10^n-mu))*10^p,10^(j+\n        queryWolfram = strConcat(queryWolfram,p,\",10^(\",j,\"+\");\n        //This line => (mod((1/(10^n-mu))*10^p,10^(j+i))-mod((1/(10^n-\n        queryWolfram = strConcat(queryWolfram,userValues[_parametersOwner].i,\"))-mod((1/(10^\",n,\"-\");\n        //This line => (mod((1/(10^n-mu))*10^p,10^(j+i))-mod((1/(10^n-mu))*10^p,10^\n        queryWolfram = strConcat(queryWolfram,userValues[_parametersOwner].mu,\"))*10^\",p,\",10^\");\n        //This line => (mod((1/(10^n-mu))*10^p,10^(j+i))-mod((1/(10^n-mu))*10^p,10^(i)))/10^i\n        queryWolfram = strConcat(queryWolfram,\"(\",userValues[_parametersOwner].i,\")))/10^\",userValues[_parametersOwner].i);\n        emit NewWolframQuery(queryWolfram);\n        return queryWolfram;\n    }\n\n    /** @dev _generateTicket is used for another contract. Invokes _askForMuParameter and _askForIparameter\n      */\n    function _generateTicket(address _ticketOwner) \n        public\n        //onlyOwner \n    {\n        _askForMuParameter(_ticketOwner);\n        _askForIParameter(_ticketOwner);\n    }\n    \n    /** @dev _generateLucky7Number is the function that is actually used to generate the Lucky7Numbers. It have the business logic for generating the Lucky7Numbers, i.e. if \n      * the indexForLucky7Array is different than the numberOfLucky7Numbers, then sets the muReady and iReady booleans of the UserParametersValue struct of the \n      * Lucky7TicketFactory contract to true and calls for the _askForMuParameter and _askForIParameter function of the Lucky7TicketFactory contract. This way it can ask for both mu and i parameters\n      * to oraclize and when the oraclize respond with both, ask for a ticket which is going to be a Lucky7Number.\n      * If the indexForLucky7Array is equal to the numberOfLucky7Numbers, then proceed to order the Lucky7Numbers through the _orderLucky7Numbers function of this contract.\n      * Then it sets the indexForLucky7Array to 0 so the next time a new game is setted, this function starts storing the Lucky7Numbers from the position 0, to finally shut off\n      * the settingLucky7Numbers circuit breaker to allow users to start buying tickets.\n      */\n    function _generateLucky7Number() \n        public \n        // onlyOwner \n        gameNotInCourse\n    {\n        uint indexForLucky7Array = Lucky7Library.indexForLucky7Array(lucky7StorageAddress);\n        uint numberOfLucky7Numbers = Lucky7Library.numberOfLucky7Numbers(lucky7StorageAddress);\n        if(indexForLucky7Array == numberOfLucky7Numbers){\n            Lucky7Storage lucky7StorageContract = Lucky7Storage(lucky7StorageAddress);\n            lucky7StorageContract._orderLucky7Numbers();\n            lucky7StorageContract.setIndexForLucky7ArrayToZero();\n            toggleLucky7Setting();\n        }\n        else{\n            userValues[this].muReady = false;\n            userValues[this].iReady = false;\n            _generateTicket(this);\n        }\n    }\n\n    /** @dev __callback is a function used for oraclize to send back the query emitted to oraclize.\n      * @param myid is the id of the query, same as the muID, iID or userTicketID of the _askForMuParameter, _askForIParameter and _askForTicket functions above.\n      * @param result is the result of the query.\n      * Once the query is resolved, oraclize sends back the answer, and the function check that the one calling the function is indeed a oraclize contract. \n      */\n    function __callback(bytes32 myid, string result) public{\n        require(msg.sender == oraclize_cbAddress());\n        /** @dev First, the function checks if there's an muParameterID value associated to myid,i.e. the response is a mu parameter of the  \n          * \"muParameterID[myid]\" user (remember that muParameterID[] maps from an bytes32, the id, to an user address).\n          * Then it will check if the muReady boolean of the user's UserParametersValue struct is setted to false (explained in later contracts).\n          * If so, stores the result as the mu parameter of the user's UserParametersValue struct, emits an event and set the muReady of the struct to true.\n          * Then checks if the iReady boolen is setted to true. If so, it means that the user already recieved both parameters and is ready to generate a new ticket.\n          * To do so, the function checks if the user already paid for the ticket through checking if the userPaidTicket boolean of the user's UserParametersValue struct\n          * is true, or if the settingLucky7Numbers circuit breaker is on, which means that currently the game is in the setting Lucky7Numbers phase.\n          * In any of those cases, the function calls the _askForTicketFunction for the \"muParameterID[myid]\" user.\n          */\n        if(muParameterID[myid]!=0 && userValues[muParameterID[myid]].muReady==false){\n            userValues[muParameterID[myid]].mu=result;\n            emit NewMuReceived(result);\n            userValues[muParameterID[myid]].muReady=true;\n            if(userValues[muParameterID[myid]].iReady == true && (userValues[muParameterID[myid]].userPaidTicket==true || settingLucky7Numbers==true )){\n                _askForTicket(muParameterID[myid]);\n            }\n        }\n\n        /** @dev If above don't fit, then checks if the result is the i parameter of the user and proceeds the same way, checking if already have the mu parameter setted,\n          * and if the user paid for the ticket or the game is in the setting Lucky7Number phase.\n          */\n        else if (iParameterID[myid]!=0 && userValues[iParameterID[myid]].iReady==false){\n            userValues[iParameterID[myid]].i=result;\n            emit NewIReceived(result);\n            userValues[iParameterID[myid]].iReady=true;\n            if(userValues[iParameterID[myid]].muReady == true && (userValues[iParameterID[myid]].userPaidTicket==true || settingLucky7Numbers==true )){\n                _askForTicket(iParameterID[myid]);\n            }\n        }\n\n        /** @dev If not, then proceed the same way as above, but once the ticket is inserted and the event is emitted, the userPaidTicket of the user's UserValuesStruct is \n          * setted to 0, marking that the ticket thet user paid is already stored and it have to pay again if it wants to buy another ticket.\n          * Finally, it checks if the game is currently in the setting Lucky7Numbers phase. If so, calls the storageLuckyNumber function, else it calls the \n          * storageTicket function. Both functions are on the Lucky7Storage contract.\n          */\n        else if (newTicketID[myid]!=0 &&  (userValues[newTicketID[myid]].userPaidTicket==true || settingLucky7Numbers==true )){\n            Lucky7Storage lucky7StorageContract = Lucky7Storage(lucky7StorageAddress);\n            userValues[newTicketID[myid]].ticketValue=parseInt(result);\n            emit NewTicketReceived(result);\n            userValues[newTicketID[myid]].userPaidTicket=false;\n            if(settingLucky7Numbers==true){\n                lucky7StorageContract.storageLucky7Number(\n                    userValues[newTicketID[myid]].mu, \n                    userValues[newTicketID[myid]].i, \n                    userValues[newTicketID[myid]].ticketValue\n                    );\n            }\n            else{\n                lucky7StorageContract.storageTicket(\n                    userValues[newTicketID[myid]].mu, \n                    userValues[newTicketID[myid]].i, \n                    userValues[newTicketID[myid]].ticketValue,\n                    newTicketID[myid]\n                    );\n            }\n        }\n    }\n\n    /** @dev Functions to set booleans of the UsersParametersValue to true or false \n      */\n\n    function bothToFalse(address _ticketOwner)\n        public\n        //onlyOwner\n    {\n        userValues[_ticketOwner].muReady = false;\n        userValues[_ticketOwner].iReady = false;\n    }\n\n    function paidTicketToTrue(address _ticketOwner)\n        public\n        //onlyOwner\n    {\n        userValues[_ticketOwner].userPaidTicket = true;\n    \n    }\n\n    function userParametersEmpty(address _ticketOwner)\n        public\n        view\n        returns(bool)\n    {\n        if(keccak256(userValues[_ticketOwner].mu)==keccak256(\"\") && keccak256(userValues[_ticketOwner].i)==keccak256(\"\")){\n            return true;\n        }\n        else {\n            return false;\n        }\n    }\n    function() public payable{}\n} ",
  "sourcePath": "/Users/matiasbarrios/Desktop/Proyecto Consensys/luckyseven/contracts/Lucky7TicketFactory.sol",
  "compiler": {
    "name": "solc",
    "version": "0.4.24+commit.e67f0147.Emscripten.clang"
  },
  "schemaVersion": "2.0.1",
  "updatedAt": "2018-09-29T02:01:41.952Z"
}