{
  "contractName": "Lucky7Store",
  "abi": [
    {
      "constant": false,
      "inputs": [
        {
          "name": "_newValue",
          "type": "string"
        }
      ],
      "name": "modifyParameterN",
      "outputs": [],
      "payable": false,
      "stateMutability": "nonpayable",
      "type": "function"
    },
    {
      "constant": true,
      "inputs": [
        {
          "name": "",
          "type": "uint256"
        }
      ],
      "name": "lucky7TicketID",
      "outputs": [
        {
          "name": "",
          "type": "uint256"
        }
      ],
      "payable": false,
      "stateMutability": "view",
      "type": "function"
    },
    {
      "constant": true,
      "inputs": [
        {
          "name": "",
          "type": "uint256"
        }
      ],
      "name": "lucky7TicketOwner",
      "outputs": [
        {
          "name": "",
          "type": "address"
        }
      ],
      "payable": false,
      "stateMutability": "view",
      "type": "function"
    },
    {
      "constant": false,
      "inputs": [],
      "name": "_orderLucky7Tickets",
      "outputs": [],
      "payable": false,
      "stateMutability": "nonpayable",
      "type": "function"
    },
    {
      "constant": false,
      "inputs": [
        {
          "name": "myid",
          "type": "bytes32"
        },
        {
          "name": "result",
          "type": "string"
        }
      ],
      "name": "__callback",
      "outputs": [],
      "payable": false,
      "stateMutability": "nonpayable",
      "type": "function"
    },
    {
      "constant": true,
      "inputs": [
        {
          "name": "",
          "type": "uint256"
        }
      ],
      "name": "ticketToOwner",
      "outputs": [
        {
          "name": "",
          "type": "address"
        }
      ],
      "payable": false,
      "stateMutability": "view",
      "type": "function"
    },
    {
      "constant": false,
      "inputs": [
        {
          "name": "_ticketID",
          "type": "uint256"
        }
      ],
      "name": "_checkForLucky7Ticket",
      "outputs": [
        {
          "name": "",
          "type": "uint256"
        }
      ],
      "payable": false,
      "stateMutability": "nonpayable",
      "type": "function"
    },
    {
      "constant": false,
      "inputs": [
        {
          "name": "myid",
          "type": "bytes32"
        },
        {
          "name": "result",
          "type": "string"
        },
        {
          "name": "proof",
          "type": "bytes"
        }
      ],
      "name": "__callback",
      "outputs": [],
      "payable": false,
      "stateMutability": "nonpayable",
      "type": "function"
    },
    {
      "constant": true,
      "inputs": [
        {
          "name": "",
          "type": "uint256"
        }
      ],
      "name": "lucky7Tickets",
      "outputs": [
        {
          "name": "difference",
          "type": "uint256"
        },
        {
          "name": "owner",
          "type": "address"
        },
        {
          "name": "ticketID",
          "type": "uint256"
        },
        {
          "name": "ticketValue",
          "type": "uint256"
        },
        {
          "name": "lucky7Number",
          "type": "uint256"
        }
      ],
      "payable": false,
      "stateMutability": "view",
      "type": "function"
    },
    {
      "constant": false,
      "inputs": [],
      "name": "toggleLucky7Setting",
      "outputs": [],
      "payable": false,
      "stateMutability": "nonpayable",
      "type": "function"
    },
    {
      "constant": false,
      "inputs": [
        {
          "name": "_newValue",
          "type": "string"
        }
      ],
      "name": "modifyParameterJ",
      "outputs": [],
      "payable": false,
      "stateMutability": "nonpayable",
      "type": "function"
    },
    {
      "constant": true,
      "inputs": [
        {
          "name": "",
          "type": "uint256"
        }
      ],
      "name": "lucky7Numbers",
      "outputs": [
        {
          "name": "mu",
          "type": "string"
        },
        {
          "name": "i",
          "type": "string"
        },
        {
          "name": "ticketValue",
          "type": "uint256"
        },
        {
          "name": "drawID",
          "type": "uint256"
        }
      ],
      "payable": false,
      "stateMutability": "view",
      "type": "function"
    },
    {
      "constant": true,
      "inputs": [
        {
          "name": "",
          "type": "address"
        }
      ],
      "name": "userValues",
      "outputs": [
        {
          "name": "mu",
          "type": "string"
        },
        {
          "name": "i",
          "type": "string"
        },
        {
          "name": "ticketValue",
          "type": "uint256"
        },
        {
          "name": "muReady",
          "type": "bool"
        },
        {
          "name": "iReady",
          "type": "bool"
        },
        {
          "name": "userPaidTicket",
          "type": "bool"
        }
      ],
      "payable": false,
      "stateMutability": "view",
      "type": "function"
    },
    {
      "constant": true,
      "inputs": [
        {
          "name": "",
          "type": "uint256"
        }
      ],
      "name": "tickets",
      "outputs": [
        {
          "name": "mu",
          "type": "string"
        },
        {
          "name": "i",
          "type": "string"
        },
        {
          "name": "ticketValue",
          "type": "uint256"
        },
        {
          "name": "owner",
          "type": "address"
        },
        {
          "name": "drawID",
          "type": "uint256"
        }
      ],
      "payable": false,
      "stateMutability": "view",
      "type": "function"
    },
    {
      "constant": false,
      "inputs": [],
      "name": "renounceOwnership",
      "outputs": [],
      "payable": false,
      "stateMutability": "nonpayable",
      "type": "function"
    },
    {
      "constant": false,
      "inputs": [],
      "name": "_orderLucky7Numbers",
      "outputs": [],
      "payable": false,
      "stateMutability": "nonpayable",
      "type": "function"
    },
    {
      "constant": false,
      "inputs": [
        {
          "name": "_newValue",
          "type": "uint256"
        }
      ],
      "name": "modifyOraclizeGasLimit",
      "outputs": [],
      "payable": false,
      "stateMutability": "nonpayable",
      "type": "function"
    },
    {
      "constant": false,
      "inputs": [
        {
          "name": "_newValue",
          "type": "string"
        }
      ],
      "name": "modifyParameterB",
      "outputs": [],
      "payable": false,
      "stateMutability": "nonpayable",
      "type": "function"
    },
    {
      "constant": false,
      "inputs": [
        {
          "name": "_newValue",
          "type": "uint256"
        }
      ],
      "name": "modifyGenerateTicketPrice",
      "outputs": [],
      "payable": false,
      "stateMutability": "nonpayable",
      "type": "function"
    },
    {
      "constant": true,
      "inputs": [],
      "name": "owner",
      "outputs": [
        {
          "name": "",
          "type": "address"
        }
      ],
      "payable": false,
      "stateMutability": "view",
      "type": "function"
    },
    {
      "constant": false,
      "inputs": [
        {
          "name": "_ticketOwner",
          "type": "address"
        }
      ],
      "name": "_askForParameters",
      "outputs": [],
      "payable": false,
      "stateMutability": "nonpayable",
      "type": "function"
    },
    {
      "constant": false,
      "inputs": [],
      "name": "_generateLucky7Number",
      "outputs": [],
      "payable": true,
      "stateMutability": "payable",
      "type": "function"
    },
    {
      "constant": false,
      "inputs": [
        {
          "name": "_newAddress",
          "type": "address"
        }
      ],
      "name": "modifyEnterprisePrize",
      "outputs": [],
      "payable": false,
      "stateMutability": "nonpayable",
      "type": "function"
    },
    {
      "constant": false,
      "inputs": [
        {
          "name": "_newValue",
          "type": "string"
        }
      ],
      "name": "modifyParameterP",
      "outputs": [],
      "payable": false,
      "stateMutability": "nonpayable",
      "type": "function"
    },
    {
      "constant": false,
      "inputs": [],
      "name": "_startLucky7NumbersGeneration",
      "outputs": [],
      "payable": true,
      "stateMutability": "payable",
      "type": "function"
    },
    {
      "constant": false,
      "inputs": [
        {
          "name": "_newValue",
          "type": "uint256"
        }
      ],
      "name": "modifySellTicketPrice",
      "outputs": [],
      "payable": false,
      "stateMutability": "nonpayable",
      "type": "function"
    },
    {
      "constant": false,
      "inputs": [
        {
          "name": "_newValue",
          "type": "uint256"
        }
      ],
      "name": "modifyNumberOfLucky7Numbers",
      "outputs": [],
      "payable": false,
      "stateMutability": "nonpayable",
      "type": "function"
    },
    {
      "constant": false,
      "inputs": [
        {
          "name": "_newValue",
          "type": "uint256"
        }
      ],
      "name": "modifyNumberOfWinners",
      "outputs": [],
      "payable": false,
      "stateMutability": "nonpayable",
      "type": "function"
    },
    {
      "constant": false,
      "inputs": [
        {
          "name": "_newValue",
          "type": "uint256"
        }
      ],
      "name": "modifyOraclizeCustomGasPrice",
      "outputs": [],
      "payable": false,
      "stateMutability": "nonpayable",
      "type": "function"
    },
    {
      "constant": false,
      "inputs": [
        {
          "name": "_ticketOwner",
          "type": "address"
        }
      ],
      "name": "_askForTicket",
      "outputs": [],
      "payable": false,
      "stateMutability": "nonpayable",
      "type": "function"
    },
    {
      "constant": true,
      "inputs": [
        {
          "name": "",
          "type": "uint256"
        }
      ],
      "name": "lucky7TicketDifference",
      "outputs": [
        {
          "name": "",
          "type": "uint256"
        }
      ],
      "payable": false,
      "stateMutability": "view",
      "type": "function"
    },
    {
      "constant": true,
      "inputs": [
        {
          "name": "",
          "type": "uint256"
        }
      ],
      "name": "ExactLucky7TicketOwner",
      "outputs": [
        {
          "name": "",
          "type": "address"
        }
      ],
      "payable": false,
      "stateMutability": "view",
      "type": "function"
    },
    {
      "constant": false,
      "inputs": [
        {
          "name": "_newOwner",
          "type": "address"
        }
      ],
      "name": "transferOwnership",
      "outputs": [],
      "payable": false,
      "stateMutability": "nonpayable",
      "type": "function"
    },
    {
      "constant": false,
      "inputs": [],
      "name": "_deliverPrizes",
      "outputs": [],
      "payable": false,
      "stateMutability": "nonpayable",
      "type": "function"
    },
    {
      "constant": false,
      "inputs": [],
      "name": "test",
      "outputs": [],
      "payable": true,
      "stateMutability": "payable",
      "type": "function"
    },
    {
      "anonymous": false,
      "inputs": [
        {
          "indexed": false,
          "name": "feeType",
          "type": "string"
        },
        {
          "indexed": false,
          "name": "_oldValue",
          "type": "uint256"
        },
        {
          "indexed": false,
          "name": "_newValue",
          "type": "uint256"
        }
      ],
      "name": "numberModified",
      "type": "event"
    },
    {
      "anonymous": false,
      "inputs": [
        {
          "indexed": false,
          "name": "parameter",
          "type": "string"
        },
        {
          "indexed": false,
          "name": "_oldValue",
          "type": "string"
        },
        {
          "indexed": false,
          "name": "_newValue",
          "type": "string"
        }
      ],
      "name": "parameterModified",
      "type": "event"
    },
    {
      "anonymous": false,
      "inputs": [
        {
          "indexed": false,
          "name": "parameter",
          "type": "string"
        },
        {
          "indexed": false,
          "name": "_oldValue",
          "type": "address"
        },
        {
          "indexed": false,
          "name": "_newValue",
          "type": "address"
        }
      ],
      "name": "walletModified",
      "type": "event"
    },
    {
      "anonymous": false,
      "inputs": [
        {
          "indexed": true,
          "name": "previousOwner",
          "type": "address"
        }
      ],
      "name": "OwnershipRenounced",
      "type": "event"
    },
    {
      "anonymous": false,
      "inputs": [
        {
          "indexed": true,
          "name": "previousOwner",
          "type": "address"
        },
        {
          "indexed": true,
          "name": "newOwner",
          "type": "address"
        }
      ],
      "name": "OwnershipTransferred",
      "type": "event"
    },
    {
      "constant": false,
      "inputs": [],
      "name": "sellRandomTicket",
      "outputs": [],
      "payable": true,
      "stateMutability": "payable",
      "type": "function"
    },
    {
      "constant": false,
      "inputs": [],
      "name": "generateTicket",
      "outputs": [],
      "payable": true,
      "stateMutability": "payable",
      "type": "function"
    },
    {
      "constant": false,
      "inputs": [],
      "name": "sellTicket",
      "outputs": [],
      "payable": true,
      "stateMutability": "payable",
      "type": "function"
    },
    {
      "constant": false,
      "inputs": [],
      "name": "setNewLucky7Numbers",
      "outputs": [],
      "payable": true,
      "stateMutability": "payable",
      "type": "function"
    }
  ],
  "bytecode": "0x60806040526040805190810160405280600181526020017f310000000000000000000000000000000000000000000000000000000000000081525060069080519060200190620000519291906200022c565b506040805190810160405280600181526020017f3800000000000000000000000000000000000000000000000000000000000000815250600790805190602001906200009f9291906200022c565b506040805190810160405280600481526020017f313030300000000000000000000000000000000000000000000000000000000081525060089080519060200190620000ed9291906200022c565b506040805190810160405280600281526020017f3230000000000000000000000000000000000000000000000000000000000000815250600990805190602001906200013b9291906200022c565b506007600a556003600b55660110d9316ec000600c55660aa87bee538000600d55624c4b40600e5563ee6b2800600f5573265a5c3dd46ec82e2744f1d0e9fb4ed75d56132a601060006101000a81548173ffffffffffffffffffffffffffffffffffffffff021916908373ffffffffffffffffffffffffffffffffffffffff160217905550600060115560006012556001601360006101000a81548160ff02191690831515021790555033600560006101000a81548173ffffffffffffffffffffffffffffffffffffffff021916908373ffffffffffffffffffffffffffffffffffffffff160217905550620002db565b828054600181600116156101000203166002900490600052602060002090601f016020900481019282601f106200026f57805160ff1916838001178555620002a0565b82800160010185558215620002a0579182015b828111156200029f57825182559160200191906001019062000282565b5b509050620002af9190620002b3565b5090565b620002d891905b80821115620002d4576000816000905550600101620002ba565b5090565b90565b618d0080620002eb6000396000f3006080604052600436106101e3576000357c0100000000000000000000000000000000000000000000000000000000900463ffffffff1680630cc38b2b146101e857806310cd4b8a146102515780631c3ed1d3146102925780631cf4c3d1146102ff5780631ded3bec1461031657806327dc297e146103205780632b08e824146103975780632de729eb1461040457806338bbfa5014610445578063396fb4221461050257806339df3f4f1461058b5780633bb7daf4146105a25780633eba34661461060b5780634acfd9b81461072b57806350b447121461087b5780635865946e146109ce578063715018a6146109d857806375edd257146109ef578063809fc15314610a0657806383bb7bb714610a335780638aa5fafa14610a9c5780638da5cb5b14610ac95780638f7e4d9b14610b2057806390c31c4c14610b6357806391f6cfe214610b6d57806396701ce914610b775780639dec38ab14610bba578063ab59ff2614610c23578063bcb740ab14610c2d578063c71f04ac14610c5a578063c90cdc7e14610c87578063d383e86214610cb4578063ddc110fa14610ce1578063e802ae1414610d24578063eaaa680a14610d65578063f2fde38b14610dd2578063f405228914610e15578063f8a8fd6d14610e2c578063fc3b3bd914610e36575b600080fd5b3480156101f457600080fd5b5061024f600480360381019080803590602001908201803590602001908080601f0160208091040260200160405190810160405280939291908181526020018383808284378201915050505050509192919290505050610e40565b005b34801561025d57600080fd5b5061027c60048036038101908080359060200190929190505050611098565b6040518082815260200191505060405180910390f35b34801561029e57600080fd5b506102bd600480360381019080803590602001909291905050506110b0565b604051808273ffffffffffffffffffffffffffffffffffffffff1673ffffffffffffffffffffffffffffffffffffffff16815260200191505060405180910390f35b34801561030b57600080fd5b506103146110e3565b005b61031e61153f565b005b34801561032c57600080fd5b506103956004803603810190808035600019169060200190929190803590602001908201803590602001908080601f0160208091040260200160405190810160405280939291908181526020018383808284378201915050505050509192919290505050611692565b005b3480156103a357600080fd5b506103c260048036038101908080359060200190929190505050612123565b604051808273ffffffffffffffffffffffffffffffffffffffff1673ffffffffffffffffffffffffffffffffffffffff16815260200191505060405180910390f35b34801561041057600080fd5b5061042f60048036038101908080359060200190929190505050612156565b6040518082815260200191505060405180910390f35b34801561045157600080fd5b506105006004803603810190808035600019169060200190929190803590602001908201803590602001908080601f0160208091040260200160405190810160405280939291908181526020018383808284378201915050505050509192919290803590602001908201803590602001908080601f01602080910402602001604051908101604052809392919081815260200183838082843782019150505050505091929192905050506125e8565b005b34801561050e57600080fd5b5061052d600480360381019080803590602001909291905050506125ed565b604051808681526020018573ffffffffffffffffffffffffffffffffffffffff1673ffffffffffffffffffffffffffffffffffffffff1681526020018481526020018381526020018281526020019550505050505060405180910390f35b34801561059757600080fd5b506105a0612648565b005b3480156105ae57600080fd5b50610609600480360381019080803590602001908201803590602001908080601f01602080910402602001604051908101604052809392919081815260200183838082843782019150505050505091929192905050506126d0565b005b34801561061757600080fd5b5061063660048036038101908080359060200190929190505050612928565b604051808060200180602001858152602001848152602001838103835287818151815260200191508051906020019080838360005b8381101561068657808201518184015260208101905061066b565b50505050905090810190601f1680156106b35780820380516001836020036101000a031916815260200191505b50838103825286818151815260200191508051906020019080838360005b838110156106ec5780820151818401526020810190506106d1565b50505050905090810190601f1680156107195780820380516001836020036101000a031916815260200191505b50965050505050505060405180910390f35b34801561073757600080fd5b5061076c600480360381019080803573ffffffffffffffffffffffffffffffffffffffff169060200190929190505050612a8d565b604051808060200180602001878152602001861515151581526020018515151515815260200184151515158152602001838103835289818151815260200191508051906020019080838360005b838110156107d45780820151818401526020810190506107b9565b50505050905090810190601f1680156108015780820380516001836020036101000a031916815260200191505b50838103825288818151815260200191508051906020019080838360005b8381101561083a57808201518184015260208101905061081f565b50505050905090810190601f1680156108675780820380516001836020036101000a031916815260200191505b509850505050505050505060405180910390f35b34801561088757600080fd5b506108a660048036038101908080359060200190929190505050612c20565b6040518080602001806020018681526020018573ffffffffffffffffffffffffffffffffffffffff1673ffffffffffffffffffffffffffffffffffffffff168152602001848152602001838103835288818151815260200191508051906020019080838360005b8381101561092857808201518184015260208101905061090d565b50505050905090810190601f1680156109555780820380516001836020036101000a031916815260200191505b50838103825287818151815260200191508051906020019080838360005b8381101561098e578082015181840152602081019050610973565b50505050905090810190601f1680156109bb5780820380516001836020036101000a031916815260200191505b5097505050505050505060405180910390f35b6109d6612db5565b005b3480156109e457600080fd5b506109ed612e3d565b005b3480156109fb57600080fd5b50610a04612f42565b005b348015610a1257600080fd5b50610a3160048036038101908080359060200190929190505050613406565b005b348015610a3f57600080fd5b50610a9a600480360381019080803590602001908201803590602001908080601f01602080910402602001604051908101604052809392919081815260200183838082843782019150505050505091929192905050506134ec565b005b348015610aa857600080fd5b50610ac760048036038101908080359060200190929190505050613744565b005b348015610ad557600080fd5b50610ade61382a565b604051808273ffffffffffffffffffffffffffffffffffffffff1673ffffffffffffffffffffffffffffffffffffffff16815260200191505060405180910390f35b348015610b2c57600080fd5b50610b61600480360381019080803573ffffffffffffffffffffffffffffffffffffffff169060200190929190505050613850565b005b610b6b613a09565b005b610b75613b48565b005b348015610b8357600080fd5b50610bb8600480360381019080803573ffffffffffffffffffffffffffffffffffffffff169060200190929190505050613c40565b005b348015610bc657600080fd5b50610c21600480360381019080803590602001908201803590602001908080601f0160208091040260200160405190810160405280939291908181526020018383808284378201915050505050509192919290505050613dd8565b005b610c2b614030565b005b348015610c3957600080fd5b50610c586004803603810190808035906020019092919050505061409e565b005b348015610c6657600080fd5b50610c8560048036038101908080359060200190929190505050614184565b005b348015610c9357600080fd5b50610cb26004803603810190808035906020019092919050505061426a565b005b348015610cc057600080fd5b50610cdf60048036038101908080359060200190929190505050614350565b005b348015610ced57600080fd5b50610d22600480360381019080803573ffffffffffffffffffffffffffffffffffffffff16906020019092919050505061445c565b005b348015610d3057600080fd5b50610d4f60048036038101908080359060200190929190505050614513565b6040518082815260200191505060405180910390f35b348015610d7157600080fd5b50610d906004803603810190808035906020019092919050505061452b565b604051808273ffffffffffffffffffffffffffffffffffffffff1673ffffffffffffffffffffffffffffffffffffffff16815260200191505060405180910390f35b348015610dde57600080fd5b50610e13600480360381019080803573ffffffffffffffffffffffffffffffffffffffff16906020019092919050505061455e565b005b348015610e2157600080fd5b50610e2a6145c6565b005b610e346148f7565b005b610e3e616135565b005b6060600560009054906101000a900473ffffffffffffffffffffffffffffffffffffffff1673ffffffffffffffffffffffffffffffffffffffff163373ffffffffffffffffffffffffffffffffffffffff16141515610e9e57600080fd5b60078054600181600116156101000203166002900480601f016020809104026020016040519081016040528092919081815260200182805460018160011615610100020316600290048015610f345780601f10610f0957610100808354040283529160200191610f34565b820191906000526020600020905b815481529060010190602001808311610f1757829003601f168201915b505050505090508160079080519060200190610f51929190618ab9565b507f7ecbd54b3baea533cf57ef049f9e04554be6a660d6dacd477488066eedf27bee818360405180806020018060200180602001848103845260148152602001807f506172616d65746572206e206d6f646966696564000000000000000000000000815250602001848103835286818151815260200191508051906020019080838360005b83811015610ff1578082015181840152602081019050610fd6565b50505050905090810190601f16801561101e5780820380516001836020036101000a031916815260200191505b50848103825285818151815260200191508051906020019080838360005b8381101561105757808201518184015260208101905061103c565b50505050905090810190601f1680156110845780820380516001836020036101000a031916815260200191505b509550505050505060405180910390a15050565b605c6020528060005260406000206000915090505481565b605b6020528060005260406000206000915054906101000a900473ffffffffffffffffffffffffffffffffffffffff1681565b6110eb618b39565b6000806000600560009054906101000a900473ffffffffffffffffffffffffffffffffffffffff1673ffffffffffffffffffffffffffffffffffffffff163373ffffffffffffffffffffffffffffffffffffffff1614151561114c57600080fd5b60009250600090505b600a5481101561125057605a60008281526020019081526020016000205460318260078110151561118257fe5b6005020160000181905550605b600082815260200190815260200160002060009054906101000a900473ffffffffffffffffffffffffffffffffffffffff166031826007811015156111d057fe5b6005020160010160006101000a81548173ffffffffffffffffffffffffffffffffffffffff021916908373ffffffffffffffffffffffffffffffffffffffff160217905550605c60008281526020019081526020016000205460318260078110151561123857fe5b60050201600201819055508080600101915050611155565b600090505b600a548110156115395780925060318160078110151561127157fe5b6005020160a06040519081016040529081600082015481526020016001820160009054906101000a900473ffffffffffffffffffffffffffffffffffffffff1673ffffffffffffffffffffffffffffffffffffffff1673ffffffffffffffffffffffffffffffffffffffff168152602001600282015481526020016003820154815260200160048201548152505093506001810191505b600a548210156113e45760318260078110151561132157fe5b6005020160000154846000015111156113d75760318260078110151561134357fe5b6005020160a06040519081016040529081600082015481526020016001820160009054906101000a900473ffffffffffffffffffffffffffffffffffffffff1673ffffffffffffffffffffffffffffffffffffffff1673ffffffffffffffffffffffffffffffffffffffff168152602001600282015481526020016003820154815260200160048201548152505093508192505b8180600101925050611308565b808314151561152c576031816007811015156113fc57fe5b6005020160318460078110151561140f57fe5b60050201600082015481600001556001820160009054906101000a900473ffffffffffffffffffffffffffffffffffffffff168160010160006101000a81548173ffffffffffffffffffffffffffffffffffffffff021916908373ffffffffffffffffffffffffffffffffffffffff160217905550600282015481600201556003820154816003015560048201548160040155905050836031826007811015156114b557fe5b600502016000820151816000015560208201518160010160006101000a81548173ffffffffffffffffffffffffffffffffffffffff021916908373ffffffffffffffffffffffffffffffffffffffff1602179055506040820151816002015560608201518160030155608082015181600401559050505b8080600101915050611255565b50505050565b33600d54341015151561155157600080fd5b6001605660008373ffffffffffffffffffffffffffffffffffffffff1673ffffffffffffffffffffffffffffffffffffffff16815260200190815260200160002060030160026101000a81548160ff021916908315150217905550336000605660008373ffffffffffffffffffffffffffffffffffffffff1673ffffffffffffffffffffffffffffffffffffffff16815260200190815260200160002060030160006101000a81548160ff0219169083151502179055506000605660008373ffffffffffffffffffffffffffffffffffffffff1673ffffffffffffffffffffffffffffffffffffffff16815260200190815260200160002060030160016101000a81548160ff02191690831515021790555060001515601360009054906101000a900460ff16151514151561168557600080fd5b61168e33613850565b5050565b61169a61636d565b73ffffffffffffffffffffffffffffffffffffffff163373ffffffffffffffffffffffffffffffffffffffff161415156116d357600080fd5b600060576000846000191660001916815260200190815260200160002060009054906101000a900473ffffffffffffffffffffffffffffffffffffffff1673ffffffffffffffffffffffffffffffffffffffff16141580156117c35750600015156056600060576000866000191660001916815260200190815260200160002060009054906101000a900473ffffffffffffffffffffffffffffffffffffffff1673ffffffffffffffffffffffffffffffffffffffff1673ffffffffffffffffffffffffffffffffffffffff16815260200190815260200160002060030160009054906101000a900460ff161515145b15611a8957806056600060576000866000191660001916815260200190815260200160002060009054906101000a900473ffffffffffffffffffffffffffffffffffffffff1673ffffffffffffffffffffffffffffffffffffffff1673ffffffffffffffffffffffffffffffffffffffff1681526020019081526020016000206000019080519060200190611859929190618ab9565b5060016056600060576000866000191660001916815260200190815260200160002060009054906101000a900473ffffffffffffffffffffffffffffffffffffffff1673ffffffffffffffffffffffffffffffffffffffff1673ffffffffffffffffffffffffffffffffffffffff16815260200190815260200160002060030160006101000a81548160ff021916908315150217905550600115156056600060576000866000191660001916815260200190815260200160002060009054906101000a900473ffffffffffffffffffffffffffffffffffffffff1673ffffffffffffffffffffffffffffffffffffffff1673ffffffffffffffffffffffffffffffffffffffff16815260200190815260200160002060030160019054906101000a900460ff161515148015611a3a5750600115156056600060576000866000191660001916815260200190815260200160002060009054906101000a900473ffffffffffffffffffffffffffffffffffffffff1673ffffffffffffffffffffffffffffffffffffffff1673ffffffffffffffffffffffffffffffffffffffff16815260200190815260200160002060030160029054906101000a900460ff1615151480611a39575060011515601360009054906101000a900460ff161515145b5b15611a8457611a8360576000846000191660001916815260200190815260200160002060009054906101000a900473ffffffffffffffffffffffffffffffffffffffff1661445c565b5b61211f565b600060586000846000191660001916815260200190815260200160002060009054906101000a900473ffffffffffffffffffffffffffffffffffffffff1673ffffffffffffffffffffffffffffffffffffffff1614158015611b795750600015156056600060586000866000191660001916815260200190815260200160002060009054906101000a900473ffffffffffffffffffffffffffffffffffffffff1673ffffffffffffffffffffffffffffffffffffffff1673ffffffffffffffffffffffffffffffffffffffff16815260200190815260200160002060030160019054906101000a900460ff161515145b15611e3f57806056600060586000866000191660001916815260200190815260200160002060009054906101000a900473ffffffffffffffffffffffffffffffffffffffff1673ffffffffffffffffffffffffffffffffffffffff1673ffffffffffffffffffffffffffffffffffffffff1681526020019081526020016000206001019080519060200190611c0f929190618ab9565b5060016056600060586000866000191660001916815260200190815260200160002060009054906101000a900473ffffffffffffffffffffffffffffffffffffffff1673ffffffffffffffffffffffffffffffffffffffff1673ffffffffffffffffffffffffffffffffffffffff16815260200190815260200160002060030160016101000a81548160ff021916908315150217905550600115156056600060586000866000191660001916815260200190815260200160002060009054906101000a900473ffffffffffffffffffffffffffffffffffffffff1673ffffffffffffffffffffffffffffffffffffffff1673ffffffffffffffffffffffffffffffffffffffff16815260200190815260200160002060030160009054906101000a900460ff161515148015611df05750600115156056600060586000866000191660001916815260200190815260200160002060009054906101000a900473ffffffffffffffffffffffffffffffffffffffff1673ffffffffffffffffffffffffffffffffffffffff1673ffffffffffffffffffffffffffffffffffffffff16815260200190815260200160002060030160029054906101000a900460ff1615151480611def575060011515601360009054906101000a900460ff161515145b5b15611e3a57611e3960586000846000191660001916815260200190815260200160002060009054906101000a900473ffffffffffffffffffffffffffffffffffffffff1661445c565b5b61211e565b600060596000846000191660001916815260200190815260200160002060009054906101000a900473ffffffffffffffffffffffffffffffffffffffff1673ffffffffffffffffffffffffffffffffffffffff1614158015611f4d5750600115156056600060596000866000191660001916815260200190815260200160002060009054906101000a900473ffffffffffffffffffffffffffffffffffffffff1673ffffffffffffffffffffffffffffffffffffffff1673ffffffffffffffffffffffffffffffffffffffff16815260200190815260200160002060030160029054906101000a900460ff1615151480611f4c575060011515601360009054906101000a900460ff161515145b5b1561211d57611f5b816166cb565b6056600060596000866000191660001916815260200190815260200160002060009054906101000a900473ffffffffffffffffffffffffffffffffffffffff1673ffffffffffffffffffffffffffffffffffffffff1673ffffffffffffffffffffffffffffffffffffffff1681526020019081526020016000206002018190555060006056600060596000866000191660001916815260200190815260200160002060009054906101000a900473ffffffffffffffffffffffffffffffffffffffff1673ffffffffffffffffffffffffffffffffffffffff1673ffffffffffffffffffffffffffffffffffffffff16815260200190815260200160002060030160026101000a81548160ff02191690831515021790555060011515601360009054906101000a900460ff16151514156120d7576120d260596000846000191660001916815260200190815260200160002060009054906101000a900473ffffffffffffffffffffffffffffffffffffffff166166df565b61211c565b61211b60596000846000191660001916815260200190815260200160002060009054906101000a900473ffffffffffffffffffffffffffffffffffffffff16616974565b5b5b5b5b5050565b60546020528060005260406000206000915054906101000a900473ffffffffffffffffffffffffffffffffffffffff1681565b600080600080600060156001600a540360078110151561217257fe5b600402016002015460148781548110151561218957fe5b90600052602060002090600502016002015411156122be576001600a540393506121f26015856007811015156121bb57fe5b60040201600201546014888154811015156121d257fe5b906000526020600020906005020160020154616d2490919063ffffffff16565b9250600073ffffffffffffffffffffffffffffffffffffffff16605b600086815260200190815260200160002060009054906101000a900473ffffffffffffffffffffffffffffffffffffffff1673ffffffffffffffffffffffffffffffffffffffff1614806122745750605a60008581526020019081526020016000205483105b156122b9576122b8846054600089815260200190815260200160002060009054906101000a900473ffffffffffffffffffffffffffffffffffffffff168589616d3d565b5b6125dc565b601560006007811015156122ce57fe5b60040201600201546014878154811015156122e557fe5b9060005260206000209060050201600201541015612416576000935061234a60148781548110151561231357fe5b90600052602060002090600502016002015460158660078110151561233457fe5b6004020160020154616d2490919063ffffffff16565b9250600073ffffffffffffffffffffffffffffffffffffffff16605b600086815260200190815260200160002060009054906101000a900473ffffffffffffffffffffffffffffffffffffffff1673ffffffffffffffffffffffffffffffffffffffff1614806123cc5750605a60008581526020019081526020016000205483105b1561241157612410846054600089815260200190815260200160002060009054906101000a900473ffffffffffffffffffffffffffffffffffffffff168589616d3d565b5b6125db565b5b60158460078110151561242657fe5b600402016002015460148781548110151561243d57fe5b9060005260206000209060050201600201541115612462578380600101945050612417565b6124ae60156001860360078110151561247757fe5b600402016002015460148881548110151561248e57fe5b906000526020600020906005020160020154616d2490919063ffffffff16565b91506124f96014878154811015156124c257fe5b9060005260206000209060050201600201546015866007811015156124e357fe5b6004020160020154616d2490919063ffffffff16565b90508181111561251157600184039350819250612515565b8092505b600073ffffffffffffffffffffffffffffffffffffffff16605b600086815260200190815260200160002060009054906101000a900473ffffffffffffffffffffffffffffffffffffffff1673ffffffffffffffffffffffffffffffffffffffff1614806125955750605a60008581526020019081526020016000205483105b156125da576125d9846054600089815260200190815260200160002060009054906101000a900473ffffffffffffffffffffffffffffffffffffffff168589616d3d565b5b5b5b83945050505050919050565b505050565b6031816007811015156125fc57fe5b600502016000915090508060000154908060010160009054906101000a900473ffffffffffffffffffffffffffffffffffffffff16908060020154908060030154908060040154905085565b600560009054906101000a900473ffffffffffffffffffffffffffffffffffffffff1673ffffffffffffffffffffffffffffffffffffffff163373ffffffffffffffffffffffffffffffffffffffff161415156126a457600080fd5b601360009054906101000a900460ff1615601360006101000a81548160ff021916908315150217905550565b6060600560009054906101000a900473ffffffffffffffffffffffffffffffffffffffff1673ffffffffffffffffffffffffffffffffffffffff163373ffffffffffffffffffffffffffffffffffffffff1614151561272e57600080fd5b60098054600181600116156101000203166002900480601f0160208091040260200160405190810160405280929190818152602001828054600181600116156101000203166002900480156127c45780601f10612799576101008083540402835291602001916127c4565b820191906000526020600020905b8154815290600101906020018083116127a757829003601f168201915b5050505050905081600990805190602001906127e1929190618ab9565b507f7ecbd54b3baea533cf57ef049f9e04554be6a660d6dacd477488066eedf27bee818360405180806020018060200180602001848103845260148152602001807f506172616d65746572206a206d6f646966696564000000000000000000000000815250602001848103835286818151815260200191508051906020019080838360005b83811015612881578082015181840152602081019050612866565b50505050905090810190601f1680156128ae5780820380516001836020036101000a031916815260200191505b50848103825285818151815260200191508051906020019080838360005b838110156128e75780820151818401526020810190506128cc565b50505050905090810190601f1680156129145780820380516001836020036101000a031916815260200191505b509550505050505060405180910390a15050565b60158160078110151561293757fe5b60040201600091509050806000018054600181600116156101000203166002900480601f0160208091040260200160405190810160405280929190818152602001828054600181600116156101000203166002900480156129d95780601f106129ae576101008083540402835291602001916129d9565b820191906000526020600020905b8154815290600101906020018083116129bc57829003601f168201915b505050505090806001018054600181600116156101000203166002900480601f016020809104026020016040519081016040528092919081815260200182805460018160011615610100020316600290048015612a775780601f10612a4c57610100808354040283529160200191612a77565b820191906000526020600020905b815481529060010190602001808311612a5a57829003601f168201915b5050505050908060020154908060030154905084565b6056602052806000526040600020600091509050806000018054600181600116156101000203166002900480601f016020809104026020016040519081016040528092919081815260200182805460018160011615610100020316600290048015612b395780601f10612b0e57610100808354040283529160200191612b39565b820191906000526020600020905b815481529060010190602001808311612b1c57829003601f168201915b505050505090806001018054600181600116156101000203166002900480601f016020809104026020016040519081016040528092919081815260200182805460018160011615610100020316600290048015612bd75780601f10612bac57610100808354040283529160200191612bd7565b820191906000526020600020905b815481529060010190602001808311612bba57829003601f168201915b5050505050908060020154908060030160009054906101000a900460ff16908060030160019054906101000a900460ff16908060030160029054906101000a900460ff16905086565b601481815481101515612c2f57fe5b9060005260206000209060050201600091509050806000018054600181600116156101000203166002900480601f016020809104026020016040519081016040528092919081815260200182805460018160011615610100020316600290048015612cdb5780601f10612cb057610100808354040283529160200191612cdb565b820191906000526020600020905b815481529060010190602001808311612cbe57829003601f168201915b505050505090806001018054600181600116156101000203166002900480601f016020809104026020016040519081016040528092919081815260200182805460018160011615610100020316600290048015612d795780601f10612d4e57610100808354040283529160200191612d79565b820191906000526020600020905b815481529060010190602001808311612d5c57829003601f168201915b5050505050908060020154908060030160009054906101000a900473ffffffffffffffffffffffffffffffffffffffff16908060040154905085565b600560009054906101000a900473ffffffffffffffffffffffffffffffffffffffff1673ffffffffffffffffffffffffffffffffffffffff163373ffffffffffffffffffffffffffffffffffffffff16141515612e1157600080fd5b601160008154809291906001019190505550612e2b612648565b612e336145c6565b612e3b614030565b565b600560009054906101000a900473ffffffffffffffffffffffffffffffffffffffff1673ffffffffffffffffffffffffffffffffffffffff163373ffffffffffffffffffffffffffffffffffffffff16141515612e9957600080fd5b600560009054906101000a900473ffffffffffffffffffffffffffffffffffffffff1673ffffffffffffffffffffffffffffffffffffffff167ff8df31144d9c2f0f6b59d69b8b98abd5459d07f2742c4df920b25aae33c6482060405160405180910390a26000600560006101000a81548173ffffffffffffffffffffffffffffffffffffffff021916908373ffffffffffffffffffffffffffffffffffffffff160217905550565b612f4a618b7f565b6000806000600560009054906101000a900473ffffffffffffffffffffffffffffffffffffffff1673ffffffffffffffffffffffffffffffffffffffff163373ffffffffffffffffffffffffffffffffffffffff16141515612fab57600080fd5b60009250600090505b600a5481101561340057809250601581600781101515612fd057fe5b6004020160806040519081016040529081600082018054600181600116156101000203166002900480601f0160208091040260200160405190810160405280929190818152602001828054600181600116156101000203166002900480156130795780601f1061304e57610100808354040283529160200191613079565b820191906000526020600020905b81548152906001019060200180831161305c57829003601f168201915b50505050508152602001600182018054600181600116156101000203166002900480601f01602080910402602001604051908101604052809291908181526020018280546001816001161561010002031660029004801561311b5780601f106130f05761010080835404028352916020019161311b565b820191906000526020600020905b8154815290600101906020018083116130fe57829003601f168201915b505050505081526020016002820154815260200160038201548152505093506001810191505b600a548210156132f75760158260078110151561315a57fe5b6004020160020154846040015111156132ea5760158260078110151561317c57fe5b6004020160806040519081016040529081600082018054600181600116156101000203166002900480601f0160208091040260200160405190810160405280929190818152602001828054600181600116156101000203166002900480156132255780601f106131fa57610100808354040283529160200191613225565b820191906000526020600020905b81548152906001019060200180831161320857829003601f168201915b50505050508152602001600182018054600181600116156101000203166002900480601f0160208091040260200160405190810160405280929190818152602001828054600181600116156101000203166002900480156132c75780601f1061329c576101008083540402835291602001916132c7565b820191906000526020600020905b8154815290600101906020018083116132aa57829003601f168201915b505050505081526020016002820154815260200160038201548152505093508192505b8180600101925050613141565b80831415156133f35760158160078110151561330f57fe5b6004020160158460078110151561332257fe5b600402016000820181600001908054600181600116156101000203166002900461334d929190618ba8565b5060018201816001019080546001816001161561010002031660029004613375929190618ba8565b5060028201548160020155600382015481600301559050508360158260078110151561339d57fe5b6004020160008201518160000190805190602001906133bd929190618c2f565b5060208201518160010190805190602001906133da929190618c2f565b5060408201518160020155606082015181600301559050505b8080600101915050612fb4565b50505050565b6000600560009054906101000a900473ffffffffffffffffffffffffffffffffffffffff1673ffffffffffffffffffffffffffffffffffffffff163373ffffffffffffffffffffffffffffffffffffffff1614151561346457600080fd5b600e54905081600e819055507f9bc068999fb1a0aac007a9b44ca6322a376441f42706bf5163600bb3d1a73164818360405180806020018481526020018381526020018281038252601a8152602001807f4f7261636c697a6520676173206c696d6974206368616e676564000000000000815250602001935050505060405180910390a15050565b6060600560009054906101000a900473ffffffffffffffffffffffffffffffffffffffff1673ffffffffffffffffffffffffffffffffffffffff163373ffffffffffffffffffffffffffffffffffffffff1614151561354a57600080fd5b60068054600181600116156101000203166002900480601f0160208091040260200160405190810160405280929190818152602001828054600181600116156101000203166002900480156135e05780601f106135b5576101008083540402835291602001916135e0565b820191906000526020600020905b8154815290600101906020018083116135c357829003601f168201915b5050505050905081600690805190602001906135fd929190618ab9565b507f7ecbd54b3baea533cf57ef049f9e04554be6a660d6dacd477488066eedf27bee818360405180806020018060200180602001848103845260148152602001807f506172616d657465722062206d6f646966696564000000000000000000000000815250602001848103835286818151815260200191508051906020019080838360005b8381101561369d578082015181840152602081019050613682565b50505050905090810190601f1680156136ca5780820380516001836020036101000a031916815260200191505b50848103825285818151815260200191508051906020019080838360005b838110156137035780820151818401526020810190506136e8565b50505050905090810190601f1680156137305780820380516001836020036101000a031916815260200191505b509550505050505060405180910390a15050565b6000600560009054906101000a900473ffffffffffffffffffffffffffffffffffffffff1673ffffffffffffffffffffffffffffffffffffffff163373ffffffffffffffffffffffffffffffffffffffff161415156137a257600080fd5b600c54905081600c819055507f9bc068999fb1a0aac007a9b44ca6322a376441f42706bf5163600bb3d1a73164818360405180806020018481526020018381526020018281038252601d8152602001807f47656e6572617465207469636b6574207072696365206368616e676564000000815250602001935050505060405180910390a15050565b600560009054906101000a900473ffffffffffffffffffffffffffffffffffffffff1681565b60008061385e600f54616dc5565b6138d56040805190810160405280600c81526020017f576f6c6672616d416c70686100000000000000000000000000000000000000008152506040805190810160405280600f81526020017f342072616e646f6d206e756d6265720000000000000000000000000000000000815250600e54617108565b91508260576000846000191660001916815260200190815260200160002060006101000a81548173ffffffffffffffffffffffffffffffffffffffff021916908373ffffffffffffffffffffffffffffffffffffffff1602179055506139a86040805190810160405280600c81526020017f576f6c6672616d416c70686100000000000000000000000000000000000000008152506040805190810160405280600f81526020017f342072616e646f6d206e756d6265720000000000000000000000000000000000815250600e54617108565b90508260586000836000191660001916815260200190815260200160002060006101000a81548173ffffffffffffffffffffffffffffffffffffffff021916908373ffffffffffffffffffffffffffffffffffffffff160217905550505050565b600560009054906101000a900473ffffffffffffffffffffffffffffffffffffffff1673ffffffffffffffffffffffffffffffffffffffff163373ffffffffffffffffffffffffffffffffffffffff16141515613a6557600080fd5b600a546012541415613a8657613a79612f42565b613a81612648565b613b46565b6000605660003073ffffffffffffffffffffffffffffffffffffffff1673ffffffffffffffffffffffffffffffffffffffff16815260200190815260200160002060030160006101000a81548160ff0219169083151502179055506000605660003073ffffffffffffffffffffffffffffffffffffffff1673ffffffffffffffffffffffffffffffffffffffff16815260200190815260200160002060030160016101000a81548160ff021916908315150217905550613b4530613850565b5b565b33600c543410151515613b5a57600080fd5b336000605660008373ffffffffffffffffffffffffffffffffffffffff1673ffffffffffffffffffffffffffffffffffffffff16815260200190815260200160002060030160006101000a81548160ff0219169083151502179055506000605660008373ffffffffffffffffffffffffffffffffffffffff1673ffffffffffffffffffffffffffffffffffffffff16815260200190815260200160002060030160016101000a81548160ff02191690831515021790555060001515601360009054906101000a900460ff161515141515613c3357600080fd5b613c3c33613850565b5050565b6000600560009054906101000a900473ffffffffffffffffffffffffffffffffffffffff1673ffffffffffffffffffffffffffffffffffffffff163373ffffffffffffffffffffffffffffffffffffffff16141515613c9e57600080fd5b601060009054906101000a900473ffffffffffffffffffffffffffffffffffffffff16905081601060006101000a81548173ffffffffffffffffffffffffffffffffffffffff021916908373ffffffffffffffffffffffffffffffffffffffff1602179055507f223db053947bb148de510715d3c7d8ccd72bdd376752fd735ee7bd0bd0ece5bf818360405180806020018473ffffffffffffffffffffffffffffffffffffffff1673ffffffffffffffffffffffffffffffffffffffff1681526020018373ffffffffffffffffffffffffffffffffffffffff1673ffffffffffffffffffffffffffffffffffffffff168152602001828103825260198152602001807f456e74657270726973652077616c6c6574206368616e67656400000000000000815250602001935050505060405180910390a15050565b6060600560009054906101000a900473ffffffffffffffffffffffffffffffffffffffff1673ffffffffffffffffffffffffffffffffffffffff163373ffffffffffffffffffffffffffffffffffffffff16141515613e3657600080fd5b60088054600181600116156101000203166002900480601f016020809104026020016040519081016040528092919081815260200182805460018160011615610100020316600290048015613ecc5780601f10613ea157610100808354040283529160200191613ecc565b820191906000526020600020905b815481529060010190602001808311613eaf57829003601f168201915b505050505090508160089080519060200190613ee9929190618ab9565b507f7ecbd54b3baea533cf57ef049f9e04554be6a660d6dacd477488066eedf27bee818360405180806020018060200180602001848103845260148152602001807f506172616d657465722070206d6f646966696564000000000000000000000000815250602001848103835286818151815260200191508051906020019080838360005b83811015613f89578082015181840152602081019050613f6e565b50505050905090810190601f168015613fb65780820380516001836020036101000a031916815260200191505b50848103825285818151815260200191508051906020019080838360005b83811015613fef578082015181840152602081019050613fd4565b50505050905090810190601f16801561401c5780820380516001836020036101000a031916815260200191505b509550505050505060405180910390a15050565b600560009054906101000a900473ffffffffffffffffffffffffffffffffffffffff1673ffffffffffffffffffffffffffffffffffffffff163373ffffffffffffffffffffffffffffffffffffffff1614151561408c57600080fd5b600060128190555061409c613a09565b565b6000600560009054906101000a900473ffffffffffffffffffffffffffffffffffffffff1673ffffffffffffffffffffffffffffffffffffffff163373ffffffffffffffffffffffffffffffffffffffff161415156140fc57600080fd5b600d54905081600d819055507f9bc068999fb1a0aac007a9b44ca6322a376441f42706bf5163600bb3d1a7316481836040518080602001848152602001838152602001828103825260198152602001807f53656c6c207469636b6574207072696365206368616e67656400000000000000815250602001935050505060405180910390a15050565b6000600560009054906101000a900473ffffffffffffffffffffffffffffffffffffffff1673ffffffffffffffffffffffffffffffffffffffff163373ffffffffffffffffffffffffffffffffffffffff161415156141e257600080fd5b600d54905081600d819055507f9bc068999fb1a0aac007a9b44ca6322a376441f42706bf5163600bb3d1a7316481836040518080602001848152602001838152602001828103825260198152602001807f53656c6c207469636b6574207072696365206368616e67656400000000000000815250602001935050505060405180910390a15050565b6000600560009054906101000a900473ffffffffffffffffffffffffffffffffffffffff1673ffffffffffffffffffffffffffffffffffffffff163373ffffffffffffffffffffffffffffffffffffffff161415156142c857600080fd5b600b54905081600b819055507f9bc068999fb1a0aac007a9b44ca6322a376441f42706bf5163600bb3d1a7316481836040518080602001848152602001838152602001828103825260198152602001807f4e756d626572206f662077696e6e657273206368616e67656400000000000000815250602001935050505060405180910390a15050565b6000600560009054906101000a900473ffffffffffffffffffffffffffffffffffffffff1673ffffffffffffffffffffffffffffffffffffffff163373ffffffffffffffffffffffffffffffffffffffff161415156143ae57600080fd5b600f54905081600f819055507f9bc068999fb1a0aac007a9b44ca6322a376441f42706bf5163600bb3d1a7316481836040518080602001848152602001838152602001828103825260218152602001807f4f7261636c697a6520637573746f6d20676173207072696365206368616e676581526020017f6400000000000000000000000000000000000000000000000000000000000000815250604001935050505060405180910390a15050565b6000614469600f54616dc5565b6144b36040805190810160405280600c81526020017f576f6c6672616d416c70686100000000000000000000000000000000000000008152506144ab846176b8565b600e54617108565b90508160596000836000191660001916815260200190815260200160002060006101000a81548173ffffffffffffffffffffffffffffffffffffffff021916908373ffffffffffffffffffffffffffffffffffffffff1602179055505050565b605a6020528060005260406000206000915090505481565b605d6020528060005260406000206000915054906101000a900473ffffffffffffffffffffffffffffffffffffffff1681565b600560009054906101000a900473ffffffffffffffffffffffffffffffffffffffff1673ffffffffffffffffffffffffffffffffffffffff163373ffffffffffffffffffffffffffffffffffffffff161415156145ba57600080fd5b6145c381617d78565b50565b600080600080600560009054906101000a900473ffffffffffffffffffffffffffffffffffffffff1673ffffffffffffffffffffffffffffffffffffffff163373ffffffffffffffffffffffffffffffffffffffff1614151561462857600080fd5b61465360073073ffffffffffffffffffffffffffffffffffffffff1631617e7490919063ffffffff16565b9350614669600a85617eac90919063ffffffff16565b935061467f600685617e7490919063ffffffff16565b9250614695600385617e7490919063ffffffff16565b91506146ab600185617e7490919063ffffffff16565b90506146c1600a84617eac90919063ffffffff16565b92506146d7600a83617eac90919063ffffffff16565b91506146ed600a82617eac90919063ffffffff16565b90506146f76110e3565b6031600060078110151561470757fe5b6005020160010160009054906101000a900473ffffffffffffffffffffffffffffffffffffffff1673ffffffffffffffffffffffffffffffffffffffff166108fc849081150290604051600060405180830381858888f19350505050158015614774573d6000803e3d6000fd5b506031600160078110151561478557fe5b6005020160010160009054906101000a900473ffffffffffffffffffffffffffffffffffffffff1673ffffffffffffffffffffffffffffffffffffffff166108fc839081150290604051600060405180830381858888f193505050501580156147f2573d6000803e3d6000fd5b506031600260078110151561480357fe5b6005020160010160009054906101000a900473ffffffffffffffffffffffffffffffffffffffff1673ffffffffffffffffffffffffffffffffffffffff166108fc829081150290604051600060405180830381858888f19350505050158015614870573d6000803e3d6000fd5b50601060009054906101000a900473ffffffffffffffffffffffffffffffffffffffff1673ffffffffffffffffffffffffffffffffffffffff166108fc3073ffffffffffffffffffffffffffffffffffffffff16319081150290604051600060405180830381858888f193505050501580156148f0573d6000803e3d6000fd5b5050505050565b60008060006080604051908101604052806040805190810160405280600181526020017f310000000000000000000000000000000000000000000000000000000000000081525081526020016040805190810160405280600181526020017f32000000000000000000000000000000000000000000000000000000000000008152508152602001606a815260200160008152506015600060078110151561499a57fe5b6004020160008201518160000190805190602001906149ba929190618c2f565b5060208201518160010190805190602001906149d7929190618c2f565b5060408201518160020155606082015181600301559050506080604051908101604052806040805190810160405280600181526020017f310000000000000000000000000000000000000000000000000000000000000081525081526020016040805190810160405280600181526020017f320000000000000000000000000000000000000000000000000000000000000081525081526020016101b18152602001600081525060156001600781101515614a8e57fe5b600402016000820151816000019080519060200190614aae929190618c2f565b506020820151816001019080519060200190614acb929190618c2f565b5060408201518160020155606082015181600301559050506080604051908101604052806040805190810160405280600181526020017f310000000000000000000000000000000000000000000000000000000000000081525081526020016040805190810160405280600181526020017f320000000000000000000000000000000000000000000000000000000000000081525081526020016101c78152602001600081525060156002600781101515614b8257fe5b600402016000820151816000019080519060200190614ba2929190618c2f565b506020820151816001019080519060200190614bbf929190618c2f565b5060408201518160020155606082015181600301559050506080604051908101604052806040805190810160405280600181526020017f310000000000000000000000000000000000000000000000000000000000000081525081526020016040805190810160405280600181526020017f3200000000000000000000000000000000000000000000000000000000000000815250815260200161014b8152602001600081525060156003600781101515614c7657fe5b600402016000820151816000019080519060200190614c96929190618c2f565b506020820151816001019080519060200190614cb3929190618c2f565b5060408201518160020155606082015181600301559050506080604051908101604052806040805190810160405280600181526020017f310000000000000000000000000000000000000000000000000000000000000081525081526020016040805190810160405280600181526020017f320000000000000000000000000000000000000000000000000000000000000081525081526020016101308152602001600081525060156004600781101515614d6a57fe5b600402016000820151816000019080519060200190614d8a929190618c2f565b506020820151816001019080519060200190614da7929190618c2f565b5060408201518160020155606082015181600301559050506080604051908101604052806040805190810160405280600181526020017f310000000000000000000000000000000000000000000000000000000000000081525081526020016040805190810160405280600181526020017f3200000000000000000000000000000000000000000000000000000000000000815250815260200160f28152602001600081525060156005600781101515614e5d57fe5b600402016000820151816000019080519060200190614e7d929190618c2f565b506020820151816001019080519060200190614e9a929190618c2f565b5060408201518160020155606082015181600301559050506080604051908101604052806040805190810160405280600181526020017f310000000000000000000000000000000000000000000000000000000000000081525081526020016040805190810160405280600181526020017f320000000000000000000000000000000000000000000000000000000000000081525081526020016102ef8152602001600081525060156006600781101515614f5157fe5b600402016000820151816000019080519060200190614f71929190618c2f565b506020820151816001019080519060200190614f8e929190618c2f565b506040820151816002015560608201518160030155905050614fae612f42565b7314723a09acff6d2a60dcdf7aa4aff308fddc160c92506001601460a0604051908101604052806040805190810160405280600181526020017f310000000000000000000000000000000000000000000000000000000000000081525081526020016040805190810160405280600181526020017f32000000000000000000000000000000000000000000000000000000000000008152508152602001606b81526020018673ffffffffffffffffffffffffffffffffffffffff16815260200160008152509080600181540180825580915050906001820390600052602060002090600502016000909192909190915060008201518160000190805190602001906150ba929190618c2f565b5060208201518160010190805190602001906150d7929190618c2f565b506040820151816002015560608201518160030160006101000a81548173ffffffffffffffffffffffffffffffffffffffff021916908373ffffffffffffffffffffffffffffffffffffffff160217905550608082015181600401555050039150826054600084815260200190815260200160002060006101000a81548173ffffffffffffffffffffffffffffffffffffffff021916908373ffffffffffffffffffffffffffffffffffffffff160217905550605560008473ffffffffffffffffffffffffffffffffffffffff1673ffffffffffffffffffffffffffffffffffffffff16815260200190815260200160002060008154809291906001019190505550734b0897b0513fdc7c541b6d9d7e929c4e5364d2db92506001601460a0604051908101604052806040805190810160405280600181526020017f310000000000000000000000000000000000000000000000000000000000000081525081526020016040805190810160405280600181526020017f320000000000000000000000000000000000000000000000000000000000000081525081526020016101af81526020018673ffffffffffffffffffffffffffffffffffffffff16815260200160008152509080600181540180825580915050906001820390600052602060002090600502016000909192909190915060008201518160000190805190602001906152e6929190618c2f565b506020820151816001019080519060200190615303929190618c2f565b506040820151816002015560608201518160030160006101000a81548173ffffffffffffffffffffffffffffffffffffffff021916908373ffffffffffffffffffffffffffffffffffffffff160217905550608082015181600401555050039150826054600084815260200190815260200160002060006101000a81548173ffffffffffffffffffffffffffffffffffffffff021916908373ffffffffffffffffffffffffffffffffffffffff160217905550605560008473ffffffffffffffffffffffffffffffffffffffff1673ffffffffffffffffffffffffffffffffffffffff16815260200190815260200160002060008154809291906001019190505550734b0897b0513fdc7c541b6d9d7e929c4e5364d2db92506001601460a0604051908101604052806040805190810160405280600181526020017f310000000000000000000000000000000000000000000000000000000000000081525081526020016040805190810160405280600181526020017f320000000000000000000000000000000000000000000000000000000000000081525081526020016101ca81526020018673ffffffffffffffffffffffffffffffffffffffff1681526020016000815250908060018154018082558091505090600182039060005260206000209060050201600090919290919091506000820151816000019080519060200190615512929190618c2f565b50602082015181600101908051906020019061552f929190618c2f565b506040820151816002015560608201518160030160006101000a81548173ffffffffffffffffffffffffffffffffffffffff021916908373ffffffffffffffffffffffffffffffffffffffff160217905550608082015181600401555050039150826054600084815260200190815260200160002060006101000a81548173ffffffffffffffffffffffffffffffffffffffff021916908373ffffffffffffffffffffffffffffffffffffffff160217905550605560008473ffffffffffffffffffffffffffffffffffffffff1673ffffffffffffffffffffffffffffffffffffffff16815260200190815260200160002060008154809291906001019190505550734b0897b0513fdc7c541b6d9d7e929c4e5364d2db92506001601460a0604051908101604052806040805190810160405280600181526020017f310000000000000000000000000000000000000000000000000000000000000081525081526020016040805190810160405280600181526020017f3200000000000000000000000000000000000000000000000000000000000000815250815260200161014781526020018673ffffffffffffffffffffffffffffffffffffffff168152602001600081525090806001815401808255809150509060018203906000526020600020906005020160009091929091909150600082015181600001908051906020019061573e929190618c2f565b50602082015181600101908051906020019061575b929190618c2f565b506040820151816002015560608201518160030160006101000a81548173ffffffffffffffffffffffffffffffffffffffff021916908373ffffffffffffffffffffffffffffffffffffffff160217905550608082015181600401555050039150826054600084815260200190815260200160002060006101000a81548173ffffffffffffffffffffffffffffffffffffffff021916908373ffffffffffffffffffffffffffffffffffffffff160217905550605560008473ffffffffffffffffffffffffffffffffffffffff1673ffffffffffffffffffffffffffffffffffffffff16815260200190815260200160002060008154809291906001019190505550734b0897b0513fdc7c541b6d9d7e929c4e5364d2db92506001601460a0604051908101604052806040805190810160405280600181526020017f310000000000000000000000000000000000000000000000000000000000000081525081526020016040805190810160405280600181526020017f3200000000000000000000000000000000000000000000000000000000000000815250815260200161013581526020018673ffffffffffffffffffffffffffffffffffffffff168152602001600081525090806001815401808255809150509060018203906000526020600020906005020160009091929091909150600082015181600001908051906020019061596a929190618c2f565b506020820151816001019080519060200190615987929190618c2f565b506040820151816002015560608201518160030160006101000a81548173ffffffffffffffffffffffffffffffffffffffff021916908373ffffffffffffffffffffffffffffffffffffffff160217905550608082015181600401555050039150826054600084815260200190815260200160002060006101000a81548173ffffffffffffffffffffffffffffffffffffffff021916908373ffffffffffffffffffffffffffffffffffffffff160217905550605560008473ffffffffffffffffffffffffffffffffffffffff1673ffffffffffffffffffffffffffffffffffffffff1681526020019081526020016000206000815480929190600101919050555073ca35b7d915458ef540ade6068dfe2f44e8fa733c92506001601460a0604051908101604052806040805190810160405280600181526020017f310000000000000000000000000000000000000000000000000000000000000081525081526020016040805190810160405280600181526020017f3200000000000000000000000000000000000000000000000000000000000000815250815260200160f881526020018673ffffffffffffffffffffffffffffffffffffffff1681526020016000815250908060018154018082558091505090600182039060005260206000209060050201600090919290919091506000820151816000019080519060200190615b95929190618c2f565b506020820151816001019080519060200190615bb2929190618c2f565b506040820151816002015560608201518160030160006101000a81548173ffffffffffffffffffffffffffffffffffffffff021916908373ffffffffffffffffffffffffffffffffffffffff160217905550608082015181600401555050039150826054600084815260200190815260200160002060006101000a81548173ffffffffffffffffffffffffffffffffffffffff021916908373ffffffffffffffffffffffffffffffffffffffff160217905550605560008473ffffffffffffffffffffffffffffffffffffffff1673ffffffffffffffffffffffffffffffffffffffff1681526020019081526020016000206000815480929190600101919050555073583031d1113ad414f02576bd6afabfb30214022592506001601460a0604051908101604052806040805190810160405280600181526020017f310000000000000000000000000000000000000000000000000000000000000081525081526020016040805190810160405280600181526020017f320000000000000000000000000000000000000000000000000000000000000081525081526020016102f881526020018673ffffffffffffffffffffffffffffffffffffffff1681526020016000815250908060018154018082558091505090600182039060005260206000209060050201600090919290919091506000820151816000019080519060200190615dc1929190618c2f565b506020820151816001019080519060200190615dde929190618c2f565b506040820151816002015560608201518160030160006101000a81548173ffffffffffffffffffffffffffffffffffffffff021916908373ffffffffffffffffffffffffffffffffffffffff160217905550608082015181600401555050039150826054600084815260200190815260200160002060006101000a81548173ffffffffffffffffffffffffffffffffffffffff021916908373ffffffffffffffffffffffffffffffffffffffff160217905550605560008473ffffffffffffffffffffffffffffffffffffffff1673ffffffffffffffffffffffffffffffffffffffff1681526020019081526020016000206000815480929190600101919050555073265a5c3dd46ec82e2744f1d0e9fb4ed75d56132a92506001601460a0604051908101604052806040805190810160405280600181526020017f310000000000000000000000000000000000000000000000000000000000000081525081526020016040805190810160405280600181526020017f3200000000000000000000000000000000000000000000000000000000000000815250815260200161013181526020018673ffffffffffffffffffffffffffffffffffffffff1681526020016000815250908060018154018082558091505090600182039060005260206000209060050201600090919290919091506000820151816000019080519060200190615fed929190618c2f565b50602082015181600101908051906020019061600a929190618c2f565b506040820151816002015560608201518160030160006101000a81548173ffffffffffffffffffffffffffffffffffffffff021916908373ffffffffffffffffffffffffffffffffffffffff160217905550608082015181600401555050039150826054600084815260200190815260200160002060006101000a81548173ffffffffffffffffffffffffffffffffffffffff021916908373ffffffffffffffffffffffffffffffffffffffff160217905550605560008473ffffffffffffffffffffffffffffffffffffffff1673ffffffffffffffffffffffffffffffffffffffff16815260200190815260200160002060008154809291906001019190505550600090505b818110156161305761612281612156565b508080600101915050616111565b505050565b33600d54341015151561614757600080fd5b6001605660008373ffffffffffffffffffffffffffffffffffffffff1673ffffffffffffffffffffffffffffffffffffffff16815260200190815260200160002060030160026101000a81548160ff02191690831515021790555060001515601360009054906101000a900460ff1615151415156161c457600080fd5b604051806000019050604051809103902060001916605660003373ffffffffffffffffffffffffffffffffffffffff1673ffffffffffffffffffffffffffffffffffffffff16815260200190815260200160002060000160405180828054600181600116156101000203166002900480156162765780601f10616254576101008083540402835291820191616276565b820191906000526020600020905b815481529060010190602001808311616262575b5050915050604051809103902060001916141580156163565750604051806000019050604051809103902060001916605660003373ffffffffffffffffffffffffffffffffffffffff1673ffffffffffffffffffffffffffffffffffffffff16815260200190815260200160002060010160405180828054600181600116156101000203166002900480156163425780601f10616320576101008083540402835291820191616342565b820191906000526020600020905b81548152906001019060200180831161632e575b505091505060405180910390206000191614155b151561636157600080fd5b61636a3361445c565b50565b6000806000809054906101000a900473ffffffffffffffffffffffffffffffffffffffff1673ffffffffffffffffffffffffffffffffffffffff1614806163dd575060006163db6000809054906101000a900473ffffffffffffffffffffffffffffffffffffffff16617ec2565b145b156163ee576163ec6000617ecd565b505b6000809054906101000a900473ffffffffffffffffffffffffffffffffffffffff1673ffffffffffffffffffffffffffffffffffffffff166338cc48316040518163ffffffff167c0100000000000000000000000000000000000000000000000000000000028152600401602060405180830381600087803b15801561647357600080fd5b505af1158015616487573d6000803e3d6000fd5b505050506040513d602081101561649d57600080fd5b810190808051906020019092919050505073ffffffffffffffffffffffffffffffffffffffff16600160009054906101000a900473ffffffffffffffffffffffffffffffffffffffff1673ffffffffffffffffffffffffffffffffffffffff16141515616605576000809054906101000a900473ffffffffffffffffffffffffffffffffffffffff1673ffffffffffffffffffffffffffffffffffffffff166338cc48316040518163ffffffff167c0100000000000000000000000000000000000000000000000000000000028152600401602060405180830381600087803b15801561658957600080fd5b505af115801561659d573d6000803e3d6000fd5b505050506040513d60208110156165b357600080fd5b8101908080519060200190929190505050600160006101000a81548173ffffffffffffffffffffffffffffffffffffffff021916908373ffffffffffffffffffffffffffffffffffffffff1602179055505b600160009054906101000a900473ffffffffffffffffffffffffffffffffffffffff1673ffffffffffffffffffffffffffffffffffffffff1663c281d19e6040518163ffffffff167c0100000000000000000000000000000000000000000000000000000000028152600401602060405180830381600087803b15801561668b57600080fd5b505af115801561669f573d6000803e3d6000fd5b505050506040513d60208110156166b557600080fd5b8101908080519060200190929190505050905090565b60006166d8826000617ede565b9050919050565b608060405190810160405280605660008473ffffffffffffffffffffffffffffffffffffffff1673ffffffffffffffffffffffffffffffffffffffff1681526020019081526020016000206000018054600181600116156101000203166002900480601f0160208091040260200160405190810160405280929190818152602001828054600181600116156101000203166002900480156167c15780601f10616796576101008083540402835291602001916167c1565b820191906000526020600020905b8154815290600101906020018083116167a457829003601f168201915b50505050508152602001605660008473ffffffffffffffffffffffffffffffffffffffff1673ffffffffffffffffffffffffffffffffffffffff1681526020019081526020016000206001018054600181600116156101000203166002900480601f0160208091040260200160405190810160405280929190818152602001828054600181600116156101000203166002900480156168a15780601f10616876576101008083540402835291602001916168a1565b820191906000526020600020905b81548152906001019060200180831161688457829003601f168201915b50505050508152602001605660008473ffffffffffffffffffffffffffffffffffffffff1673ffffffffffffffffffffffffffffffffffffffff168152602001908152602001600020600201548152602001601154815250601560125460078110151561690a57fe5b60040201600082015181600001908051906020019061692a929190618c2f565b506020820151816001019080519060200190616947929190618c2f565b50604082015181600201556060820151816003015590505060126000815480929190600101919050555050565b60006001601460a060405190810160405280605660008773ffffffffffffffffffffffffffffffffffffffff1673ffffffffffffffffffffffffffffffffffffffff1681526020019081526020016000206000018054600181600116156101000203166002900480601f016020809104026020016040519081016040528092919081815260200182805460018160011615610100020316600290048015616a5c5780601f10616a3157610100808354040283529160200191616a5c565b820191906000526020600020905b815481529060010190602001808311616a3f57829003601f168201915b50505050508152602001605660008773ffffffffffffffffffffffffffffffffffffffff1673ffffffffffffffffffffffffffffffffffffffff1681526020019081526020016000206001018054600181600116156101000203166002900480601f016020809104026020016040519081016040528092919081815260200182805460018160011615610100020316600290048015616b3c5780601f10616b1157610100808354040283529160200191616b3c565b820191906000526020600020905b815481529060010190602001808311616b1f57829003601f168201915b50505050508152602001605660008773ffffffffffffffffffffffffffffffffffffffff1673ffffffffffffffffffffffffffffffffffffffff1681526020019081526020016000206002015481526020018573ffffffffffffffffffffffffffffffffffffffff168152602001601154815250908060018154018082558091505090600182039060005260206000209060050201600090919290919091506000820151816000019080519060200190616bf7929190618c2f565b506020820151816001019080519060200190616c14929190618c2f565b506040820151816002015560608201518160030160006101000a81548173ffffffffffffffffffffffffffffffffffffffff021916908373ffffffffffffffffffffffffffffffffffffffff160217905550608082015181600401555050039050816054600083815260200190815260200160002060006101000a81548173ffffffffffffffffffffffffffffffffffffffff021916908373ffffffffffffffffffffffffffffffffffffffff160217905550605560008373ffffffffffffffffffffffffffffffffffffffff1673ffffffffffffffffffffffffffffffffffffffff16815260200190815260200160002060008154809291906001019190505550616d1f81612156565b505050565b6000828211151515616d3257fe5b818303905092915050565b82605b600086815260200190815260200160002060006101000a81548173ffffffffffffffffffffffffffffffffffffffff021916908373ffffffffffffffffffffffffffffffffffffffff16021790555081605a60008681526020019081526020016000208190555080605c60008681526020019081526020016000208190555050505050565b60008060009054906101000a900473ffffffffffffffffffffffffffffffffffffffff1673ffffffffffffffffffffffffffffffffffffffff161480616e3457506000616e326000809054906101000a900473ffffffffffffffffffffffffffffffffffffffff16617ec2565b145b15616e4557616e436000617ecd565b505b6000809054906101000a900473ffffffffffffffffffffffffffffffffffffffff1673ffffffffffffffffffffffffffffffffffffffff166338cc48316040518163ffffffff167c0100000000000000000000000000000000000000000000000000000000028152600401602060405180830381600087803b158015616eca57600080fd5b505af1158015616ede573d6000803e3d6000fd5b505050506040513d6020811015616ef457600080fd5b810190808051906020019092919050505073ffffffffffffffffffffffffffffffffffffffff16600160009054906101000a900473ffffffffffffffffffffffffffffffffffffffff1673ffffffffffffffffffffffffffffffffffffffff1614151561705c576000809054906101000a900473ffffffffffffffffffffffffffffffffffffffff1673ffffffffffffffffffffffffffffffffffffffff166338cc48316040518163ffffffff167c0100000000000000000000000000000000000000000000000000000000028152600401602060405180830381600087803b158015616fe057600080fd5b505af1158015616ff4573d6000803e3d6000fd5b505050506040513d602081101561700a57600080fd5b8101908080519060200190929190505050600160006101000a81548173ffffffffffffffffffffffffffffffffffffffff021916908373ffffffffffffffffffffffffffffffffffffffff1602179055505b600160009054906101000a900473ffffffffffffffffffffffffffffffffffffffff1673ffffffffffffffffffffffffffffffffffffffff1663ca6ad1e4826040518263ffffffff167c010000000000000000000000000000000000000000000000000000000002815260040180828152602001915050600060405180830381600087803b1580156170ed57600080fd5b505af1158015617101573d6000803e3d6000fd5b5050505050565b60008060008060009054906101000a900473ffffffffffffffffffffffffffffffffffffffff1673ffffffffffffffffffffffffffffffffffffffff16148061717a575060006171786000809054906101000a900473ffffffffffffffffffffffffffffffffffffffff16617ec2565b145b1561718b576171896000617ecd565b505b6000809054906101000a900473ffffffffffffffffffffffffffffffffffffffff1673ffffffffffffffffffffffffffffffffffffffff166338cc48316040518163ffffffff167c0100000000000000000000000000000000000000000000000000000000028152600401602060405180830381600087803b15801561721057600080fd5b505af1158015617224573d6000803e3d6000fd5b505050506040513d602081101561723a57600080fd5b810190808051906020019092919050505073ffffffffffffffffffffffffffffffffffffffff16600160009054906101000a900473ffffffffffffffffffffffffffffffffffffffff1673ffffffffffffffffffffffffffffffffffffffff161415156173a2576000809054906101000a900473ffffffffffffffffffffffffffffffffffffffff1673ffffffffffffffffffffffffffffffffffffffff166338cc48316040518163ffffffff167c0100000000000000000000000000000000000000000000000000000000028152600401602060405180830381600087803b15801561732657600080fd5b505af115801561733a573d6000803e3d6000fd5b505050506040513d602081101561735057600080fd5b8101908080519060200190929190505050600160006101000a81548173ffffffffffffffffffffffffffffffffffffffff021916908373ffffffffffffffffffffffffffffffffffffffff1602179055505b600160009054906101000a900473ffffffffffffffffffffffffffffffffffffffff1673ffffffffffffffffffffffffffffffffffffffff16632ef3accc86856040518363ffffffff167c01000000000000000000000000000000000000000000000000000000000281526004018080602001838152602001828103825284818151815260200191508051906020019080838360005b83811015617453578082015181840152602081019050617438565b50505050905090810190601f1680156174805780820380516001836020036101000a031916815260200191505b509350505050602060405180830381600087803b1580156174a057600080fd5b505af11580156174b4573d6000803e3d6000fd5b505050506040513d60208110156174ca57600080fd5b81019080805190602001909291905050509050823a02670de0b6b3a7640000018111156174fd57600060010291506176b0565b600160009054906101000a900473ffffffffffffffffffffffffffffffffffffffff1673ffffffffffffffffffffffffffffffffffffffff1663c51be90f8260008888886040518663ffffffff167c0100000000000000000000000000000000000000000000000000000000028152600401808581526020018060200180602001848152602001838103835286818151815260200191508051906020019080838360005b838110156175bc5780820151818401526020810190506175a1565b50505050905090810190601f1680156175e95780820380516001836020036101000a031916815260200191505b50838103825285818151815260200191508051906020019080838360005b83811015617622578082015181840152602081019050617607565b50505050905090810190601f16801561764f5780820380516001836020036101000a031916815260200191505b5096505050505050506020604051808303818588803b15801561767157600080fd5b505af1158015617685573d6000803e3d6000fd5b50505050506040513d602081101561769c57600080fd5b810190808051906020019092919050505091505b509392505050565b60608060606178dd6040805190810160405280600b81526020017f6d6f642828312f2831305e00000000000000000000000000000000000000000081525060078054600181600116156101000203166002900480601f01602080910402602001604051908101604052809291908181526020018280546001816001161561010002031660029004801561778c5780601f106177615761010080835404028352916020019161778c565b820191906000526020600020905b81548152906001019060200180831161776f57829003601f168201915b50505050506040805190810160405280600181526020017f2d00000000000000000000000000000000000000000000000000000000000000815250605660008973ffffffffffffffffffffffffffffffffffffffff1673ffffffffffffffffffffffffffffffffffffffff1681526020019081526020016000206000018054600181600116156101000203166002900480601f01602080910402602001604051908101604052809291908181526020018280546001816001161561010002031660029004801561789d5780601f106178725761010080835404028352916020019161789d565b820191906000526020600020905b81548152906001019060200180831161788057829003601f168201915b50505050506040805190810160405280601081526020017f29292a31305e31303030302c31305e28000000000000000000000000000000008152506181d2565b9150617aca8260098054600181600116156101000203166002900480601f0160208091040260200160405190810160405280929190818152602001828054600181600116156101000203166002900480156179795780601f1061794e57610100808354040283529160200191617979565b820191906000526020600020905b81548152906001019060200180831161795c57829003601f168201915b50505050506040805190810160405280600181526020017f2b00000000000000000000000000000000000000000000000000000000000000815250605660008973ffffffffffffffffffffffffffffffffffffffff1673ffffffffffffffffffffffffffffffffffffffff1681526020019081526020016000206001018054600181600116156101000203166002900480601f016020809104026020016040519081016040528092919081815260200182805460018160011615610100020316600290048015617a8a5780601f10617a5f57610100808354040283529160200191617a8a565b820191906000526020600020905b815481529060010190602001808311617a6d57829003601f168201915b50505050506040805190810160405280600281526020017f29290000000000000000000000000000000000000000000000000000000000008152506181d2565b9050617c1d816040805190810160405280600181526020017f2d0000000000000000000000000000000000000000000000000000000000000081525084605660008973ffffffffffffffffffffffffffffffffffffffff1673ffffffffffffffffffffffffffffffffffffffff1681526020019081526020016000206001018054600181600116156101000203166002900480601f016020809104026020016040519081016040528092919081815260200182805460018160011615610100020316600290048015617bdd5780601f10617bb257610100808354040283529160200191617bdd565b820191906000526020600020905b815481529060010190602001808311617bc057829003601f168201915b50505050506040805190810160405280600281526020017f29290000000000000000000000000000000000000000000000000000000000008152506181d2565b9050617d6f6040805190810160405280600181526020017f2800000000000000000000000000000000000000000000000000000000000000815250826040805190810160405280600581526020017f292f31305e000000000000000000000000000000000000000000000000000000815250605660008973ffffffffffffffffffffffffffffffffffffffff1673ffffffffffffffffffffffffffffffffffffffff1681526020019081526020016000206001018054600181600116156101000203166002900480601f016020809104026020016040519081016040528092919081815260200182805460018160011615610100020316600290048015617d655780601f10617d3a57610100808354040283529160200191617d65565b820191906000526020600020905b815481529060010190602001808311617d4857829003601f168201915b50505050506185e7565b92505050919050565b600073ffffffffffffffffffffffffffffffffffffffff168173ffffffffffffffffffffffffffffffffffffffff1614151515617db457600080fd5b8073ffffffffffffffffffffffffffffffffffffffff16600560009054906101000a900473ffffffffffffffffffffffffffffffffffffffff1673ffffffffffffffffffffffffffffffffffffffff167f8be0079c531659141344cd1fd0a4f28419497f9722a3daafe3b4186f6b6457e060405160405180910390a380600560006101000a81548173ffffffffffffffffffffffffffffffffffffffff021916908373ffffffffffffffffffffffffffffffffffffffff16021790555050565b600080831415617e875760009050617ea6565b8183029050818382811515617e9857fe5b04141515617ea257fe5b8090505b92915050565b60008183811515617eb957fe5b04905092915050565b6000813b9050919050565b6000617ed7618610565b9050919050565b6000606060008060008693506000925060009150600090505b83518110156181b35760307f0100000000000000000000000000000000000000000000000000000000000000028482815181101515617f3257fe5b9060200101517f010000000000000000000000000000000000000000000000000000000000000090047f0100000000000000000000000000000000000000000000000000000000000000027effffffffffffffffffffffffffffffffffffffffffffffffffffffffffffff19161015801561804a575060397f0100000000000000000000000000000000000000000000000000000000000000028482815181101515617fda57fe5b9060200101517f010000000000000000000000000000000000000000000000000000000000000090047f0100000000000000000000000000000000000000000000000000000000000000027effffffffffffffffffffffffffffffffffffffffffffffffffffffffffffff191611155b156180fb57811561806d576000861415618063576181b3565b8580600190039650505b600a830292506030848281518110151561808357fe5b9060200101517f010000000000000000000000000000000000000000000000000000000000000090047f0100000000000000000000000000000000000000000000000000000000000000027f0100000000000000000000000000000000000000000000000000000000000000900403830192506181a6565b602e7f010000000000000000000000000000000000000000000000000000000000000002848281518110151561812d57fe5b9060200101517f010000000000000000000000000000000000000000000000000000000000000090047f0100000000000000000000000000000000000000000000000000000000000000027effffffffffffffffffffffffffffffffffffffffffffffffffffffffffffff191614156181a557600191505b5b8080600101915050617ef7565b60008611156181c55785600a0a830292505b8294505050505092915050565b6060806060806060806060806000808e98508d97508c96508b95508a94508451865188518a518c51010101016040519080825280601f01601f1916602001820160405280156182305781602001602082028038833980820191505090505b50935083925060009150600090505b88518110156182f257888181518110151561825657fe5b9060200101517f010000000000000000000000000000000000000000000000000000000000000090047f01000000000000000000000000000000000000000000000000000000000000000283838060010194508151811015156182b557fe5b9060200101907effffffffffffffffffffffffffffffffffffffffffffffffffffffffffffff1916908160001a905350808060010191505061823f565b600090505b87518110156183aa57878181518110151561830e57fe5b9060200101517f010000000000000000000000000000000000000000000000000000000000000090047f010000000000000000000000000000000000000000000000000000000000000002838380600101945081518110151561836d57fe5b9060200101907effffffffffffffffffffffffffffffffffffffffffffffffffffffffffffff1916908160001a90535080806001019150506182f7565b600090505b86518110156184625786818151811015156183c657fe5b9060200101517f010000000000000000000000000000000000000000000000000000000000000090047f010000000000000000000000000000000000000000000000000000000000000002838380600101945081518110151561842557fe5b9060200101907effffffffffffffffffffffffffffffffffffffffffffffffffffffffffffff1916908160001a90535080806001019150506183af565b600090505b855181101561851a57858181518110151561847e57fe5b9060200101517f010000000000000000000000000000000000000000000000000000000000000090047f01000000000000000000000000000000000000000000000000000000000000000283838060010194508151811015156184dd57fe5b9060200101907effffffffffffffffffffffffffffffffffffffffffffffffffffffffffffff1916908160001a9053508080600101915050618467565b600090505b84518110156185d257848181518110151561853657fe5b9060200101517f010000000000000000000000000000000000000000000000000000000000000090047f010000000000000000000000000000000000000000000000000000000000000002838380600101945081518110151561859557fe5b9060200101907effffffffffffffffffffffffffffffffffffffffffffffffffffffffffffff1916908160001a905350808060010191505061851f565b82995050505050505050505095945050505050565b60606186068585858560206040519081016040528060008152506181d2565b9050949350505050565b600080618630731d3b2638a7cc9f2cb3d298a3da7a90b67e5506ed617ec2565b11156186d157731d3b2638a7cc9f2cb3d298a3da7a90b67e5506ed6000806101000a81548173ffffffffffffffffffffffffffffffffffffffff021916908373ffffffffffffffffffffffffffffffffffffffff1602179055506186c86040805190810160405280600b81526020017f6574685f6d61696e6e6574000000000000000000000000000000000000000000815250618a9f565b60019050618a9c565b60006186f073c03a2615d5efaf5f49f60b7bb6583eaec212fdf1617ec2565b11156187915773c03a2615d5efaf5f49f60b7bb6583eaec212fdf16000806101000a81548173ffffffffffffffffffffffffffffffffffffffff021916908373ffffffffffffffffffffffffffffffffffffffff1602179055506187886040805190810160405280600c81526020017f6574685f726f707374656e330000000000000000000000000000000000000000815250618a9f565b60019050618a9c565b60006187b073b7a07bcf2ba2f2703b24c0691b5278999c59ac7e617ec2565b11156188515773b7a07bcf2ba2f2703b24c0691b5278999c59ac7e6000806101000a81548173ffffffffffffffffffffffffffffffffffffffff021916908373ffffffffffffffffffffffffffffffffffffffff1602179055506188486040805190810160405280600981526020017f6574685f6b6f76616e0000000000000000000000000000000000000000000000815250618a9f565b60019050618a9c565b600061887073146500cfd35b22e4a392fe0adc06de1a1368ed48617ec2565b11156189115773146500cfd35b22e4a392fe0adc06de1a1368ed486000806101000a81548173ffffffffffffffffffffffffffffffffffffffff021916908373ffffffffffffffffffffffffffffffffffffffff1602179055506189086040805190810160405280600b81526020017f6574685f72696e6b656279000000000000000000000000000000000000000000815250618a9f565b60019050618a9c565b6000618930736f485c8bf6fc43ea212e93bbf8ce046c7f1cb475617ec2565b111561899357736f485c8bf6fc43ea212e93bbf8ce046c7f1cb4756000806101000a81548173ffffffffffffffffffffffffffffffffffffffff021916908373ffffffffffffffffffffffffffffffffffffffff16021790555060019050618a9c565b60006189b27320e12a1f859b3feae5fb2a0a32c18f5a65555bbf617ec2565b1115618a15577320e12a1f859b3feae5fb2a0a32c18f5a65555bbf6000806101000a81548173ffffffffffffffffffffffffffffffffffffffff021916908373ffffffffffffffffffffffffffffffffffffffff16021790555060019050618a9c565b6000618a347351efaf4c8b3c9afbd5ab9f4bbc82784ab6ef8faa617ec2565b1115618a97577351efaf4c8b3c9afbd5ab9f4bbc82784ab6ef8faa6000806101000a81548173ffffffffffffffffffffffffffffffffffffffff021916908373ffffffffffffffffffffffffffffffffffffffff16021790555060019050618a9c565b600090505b90565b8060029080519060200190618ab5929190618ab9565b5050565b828054600181600116156101000203166002900490600052602060002090601f016020900481019282601f10618afa57805160ff1916838001178555618b28565b82800160010185558215618b28579182015b82811115618b27578251825591602001919060010190618b0c565b5b509050618b359190618caf565b5090565b60a06040519081016040528060008152602001600073ffffffffffffffffffffffffffffffffffffffff1681526020016000815260200160008152602001600081525090565b608060405190810160405280606081526020016060815260200160008152602001600081525090565b828054600181600116156101000203166002900490600052602060002090601f016020900481019282601f10618be15780548555618c1e565b82800160010185558215618c1e57600052602060002091601f016020900482015b82811115618c1d578254825591600101919060010190618c02565b5b509050618c2b9190618caf565b5090565b828054600181600116156101000203166002900490600052602060002090601f016020900481019282601f10618c7057805160ff1916838001178555618c9e565b82800160010185558215618c9e579182015b82811115618c9d578251825591602001919060010190618c82565b5b509050618cab9190618caf565b5090565b618cd191905b80821115618ccd576000816000905550600101618cb5565b5090565b905600a165627a7a72305820b423542f46dfbf7bac05e85072c63a36ad139ca2278458050164def0642961a50029",
  "source": "pragma solidity ^0.4.20;\nimport \"./Lucky7Ballot.sol\";\n\ncontract Lucky7Store is Lucky7Ballot{\n    \n    using SafeMath for uint256;\n    \n    modifier userBoughtTicket(address _ticketOwner){\n        require(msg.value >= sellTicketPrice);\n        userValues[_ticketOwner].userPaidTicket = true;\n        _;\n    }\n    \n    modifier userBoughtParameters(address _ticketOwner){\n        require(msg.value >= generateTicketPrice);\n        _;\n    }\n    \n    \n    modifier setParametersToReady(address _ticketOwner){\n        userValues[_ticketOwner].muReady = false;\n        userValues[_ticketOwner].iReady = false;\n        _;\n    }\n    \n    //Circuit breakers--------\n    \n    modifier sellingIsActive {\n        require(settingLucky7Numbers==false);\n        _;\n    }\n    //------------------------\n    \n    \n    function sellRandomTicket() \n        public\n        payable \n        userBoughtTicket(msg.sender)\n        setParametersToReady(msg.sender)\n        sellingIsActive\n    {\n        _askForParameters(msg.sender);\n    }\n    \n    function generateTicket() \n        public \n        payable \n        userBoughtParameters(msg.sender)\n        setParametersToReady(msg.sender)\n        sellingIsActive\n    {\n        _askForParameters(msg.sender);\n    }\n    \n    function sellTicket() \n        public \n        payable \n        userBoughtTicket(msg.sender)\n        sellingIsActive\n    {\n        require(keccak256(userValues[msg.sender].mu)!=keccak256(\"\") && keccak256(userValues[msg.sender].i)!=keccak256(\"\"));\n        _askForTicket(msg.sender);\n    }\n    \n    function setNewLucky7Numbers()                                      \n        public \n        payable \n        onlyOwner \n    {\n        //Increase drawNumber\n        drawNumber++;\n        //Set on Lucky7NumbersSetting\n        toggleLucky7Setting();\n        //Deliver Prizes\n        //Deliver lot for enterprise\n        _deliverPrizes();\n        //Generate Lucky7Numbers\n        _startLucky7NumbersGeneration();\n        //Set off Lucky7NumbersSetting\n    }\n    \n}   \n                                           \n",
  "sourcePath": "/Users/matiasbarrios/Desktop/Proyecto Consensys/luckyseven/contracts/Lucky7Store.sol",
  "compiler": {
    "name": "solc",
    "version": "0.4.24+commit.e67f0147.Emscripten.clang"
  },
  "schemaVersion": "2.0.1",
  "updatedAt": "2018-08-13T15:32:01.675Z"
}