{
  "contractName": "Lucky7Ballot",
  "abi": [
    {
      "constant": false,
      "inputs": [
        {
          "name": "_newValue",
          "type": "string"
        }
      ],
      "name": "modifyParameterN",
      "outputs": [],
      "payable": false,
      "stateMutability": "nonpayable",
      "type": "function"
    },
    {
      "constant": true,
      "inputs": [
        {
          "name": "",
          "type": "uint256"
        }
      ],
      "name": "lucky7TicketID",
      "outputs": [
        {
          "name": "",
          "type": "uint256"
        }
      ],
      "payable": false,
      "stateMutability": "view",
      "type": "function"
    },
    {
      "constant": true,
      "inputs": [
        {
          "name": "",
          "type": "uint256"
        }
      ],
      "name": "lucky7TicketOwner",
      "outputs": [
        {
          "name": "",
          "type": "address"
        }
      ],
      "payable": false,
      "stateMutability": "view",
      "type": "function"
    },
    {
      "constant": false,
      "inputs": [
        {
          "name": "_ticketOwner",
          "type": "address"
        }
      ],
      "name": "_askForMuParameter",
      "outputs": [],
      "payable": true,
      "stateMutability": "payable",
      "type": "function"
    },
    {
      "constant": false,
      "inputs": [
        {
          "name": "myid",
          "type": "bytes32"
        },
        {
          "name": "result",
          "type": "string"
        }
      ],
      "name": "__callback",
      "outputs": [],
      "payable": false,
      "stateMutability": "nonpayable",
      "type": "function"
    },
    {
      "constant": true,
      "inputs": [],
      "name": "settingLucky7Numbers",
      "outputs": [
        {
          "name": "",
          "type": "bool"
        }
      ],
      "payable": false,
      "stateMutability": "view",
      "type": "function"
    },
    {
      "constant": false,
      "inputs": [
        {
          "name": "_ticketID",
          "type": "uint256"
        }
      ],
      "name": "_checkForLucky7Ticket",
      "outputs": [],
      "payable": false,
      "stateMutability": "nonpayable",
      "type": "function"
    },
    {
      "constant": true,
      "inputs": [],
      "name": "n",
      "outputs": [
        {
          "name": "",
          "type": "string"
        }
      ],
      "payable": false,
      "stateMutability": "view",
      "type": "function"
    },
    {
      "constant": false,
      "inputs": [
        {
          "name": "myid",
          "type": "bytes32"
        },
        {
          "name": "result",
          "type": "string"
        },
        {
          "name": "proof",
          "type": "bytes"
        }
      ],
      "name": "__callback",
      "outputs": [],
      "payable": false,
      "stateMutability": "nonpayable",
      "type": "function"
    },
    {
      "constant": true,
      "inputs": [
        {
          "name": "",
          "type": "uint256"
        }
      ],
      "name": "lucky7Tickets",
      "outputs": [
        {
          "name": "difference",
          "type": "uint256"
        },
        {
          "name": "owner",
          "type": "address"
        },
        {
          "name": "ticketID",
          "type": "uint256"
        },
        {
          "name": "ticketValue",
          "type": "uint256"
        },
        {
          "name": "lucky7Number",
          "type": "uint256"
        },
        {
          "name": "lucky7NumberID",
          "type": "uint256"
        },
        {
          "name": "drawID",
          "type": "uint256"
        }
      ],
      "payable": false,
      "stateMutability": "view",
      "type": "function"
    },
    {
      "constant": false,
      "inputs": [],
      "name": "toggleLucky7Setting",
      "outputs": [],
      "payable": false,
      "stateMutability": "nonpayable",
      "type": "function"
    },
    {
      "constant": false,
      "inputs": [
        {
          "name": "_newValue",
          "type": "string"
        }
      ],
      "name": "modifyParameterJ",
      "outputs": [],
      "payable": false,
      "stateMutability": "nonpayable",
      "type": "function"
    },
    {
      "constant": true,
      "inputs": [
        {
          "name": "",
          "type": "uint256"
        }
      ],
      "name": "lucky7Numbers",
      "outputs": [
        {
          "name": "mu",
          "type": "string"
        },
        {
          "name": "i",
          "type": "string"
        },
        {
          "name": "ticketValue",
          "type": "uint256"
        },
        {
          "name": "drawID",
          "type": "uint256"
        }
      ],
      "payable": false,
      "stateMutability": "view",
      "type": "function"
    },
    {
      "constant": false,
      "inputs": [
        {
          "name": "_newAddress",
          "type": "address"
        }
      ],
      "name": "modifyEnterpriseWallet",
      "outputs": [],
      "payable": false,
      "stateMutability": "nonpayable",
      "type": "function"
    },
    {
      "constant": true,
      "inputs": [
        {
          "name": "",
          "type": "address"
        }
      ],
      "name": "userValues",
      "outputs": [
        {
          "name": "mu",
          "type": "string"
        },
        {
          "name": "i",
          "type": "string"
        },
        {
          "name": "ticketValue",
          "type": "uint256"
        },
        {
          "name": "muReady",
          "type": "bool"
        },
        {
          "name": "iReady",
          "type": "bool"
        },
        {
          "name": "userPaidTicket",
          "type": "bool"
        }
      ],
      "payable": false,
      "stateMutability": "view",
      "type": "function"
    },
    {
      "constant": true,
      "inputs": [],
      "name": "b",
      "outputs": [
        {
          "name": "",
          "type": "string"
        }
      ],
      "payable": false,
      "stateMutability": "view",
      "type": "function"
    },
    {
      "constant": true,
      "inputs": [
        {
          "name": "",
          "type": "uint256"
        }
      ],
      "name": "tickets",
      "outputs": [
        {
          "name": "mu",
          "type": "string"
        },
        {
          "name": "i",
          "type": "string"
        },
        {
          "name": "ticketValue",
          "type": "uint256"
        },
        {
          "name": "owner",
          "type": "address"
        },
        {
          "name": "drawID",
          "type": "uint256"
        }
      ],
      "payable": false,
      "stateMutability": "view",
      "type": "function"
    },
    {
      "constant": true,
      "inputs": [],
      "name": "oraclizeGasLimit",
      "outputs": [
        {
          "name": "",
          "type": "uint256"
        }
      ],
      "payable": false,
      "stateMutability": "view",
      "type": "function"
    },
    {
      "constant": true,
      "inputs": [],
      "name": "numberOfLucky7Numbers",
      "outputs": [
        {
          "name": "",
          "type": "uint256"
        }
      ],
      "payable": false,
      "stateMutability": "view",
      "type": "function"
    },
    {
      "constant": false,
      "inputs": [],
      "name": "renounceOwnership",
      "outputs": [],
      "payable": false,
      "stateMutability": "nonpayable",
      "type": "function"
    },
    {
      "constant": true,
      "inputs": [],
      "name": "enterpriseWallet",
      "outputs": [
        {
          "name": "",
          "type": "address"
        }
      ],
      "payable": false,
      "stateMutability": "view",
      "type": "function"
    },
    {
      "constant": false,
      "inputs": [
        {
          "name": "_ticketOwner",
          "type": "address"
        }
      ],
      "name": "_generateTicket",
      "outputs": [],
      "payable": false,
      "stateMutability": "nonpayable",
      "type": "function"
    },
    {
      "constant": false,
      "inputs": [
        {
          "name": "_newValue",
          "type": "uint256"
        }
      ],
      "name": "modifyOraclizeGasLimit",
      "outputs": [],
      "payable": false,
      "stateMutability": "nonpayable",
      "type": "function"
    },
    {
      "constant": false,
      "inputs": [
        {
          "name": "_newValue",
          "type": "string"
        }
      ],
      "name": "modifyParameterB",
      "outputs": [],
      "payable": false,
      "stateMutability": "nonpayable",
      "type": "function"
    },
    {
      "constant": false,
      "inputs": [
        {
          "name": "_newValue",
          "type": "uint256"
        }
      ],
      "name": "modifyGenerateTicketPrice",
      "outputs": [],
      "payable": false,
      "stateMutability": "nonpayable",
      "type": "function"
    },
    {
      "constant": true,
      "inputs": [],
      "name": "owner",
      "outputs": [
        {
          "name": "",
          "type": "address"
        }
      ],
      "payable": false,
      "stateMutability": "view",
      "type": "function"
    },
    {
      "constant": true,
      "inputs": [],
      "name": "oraclizeCustomGasPrice",
      "outputs": [
        {
          "name": "",
          "type": "uint256"
        }
      ],
      "payable": false,
      "stateMutability": "view",
      "type": "function"
    },
    {
      "constant": true,
      "inputs": [],
      "name": "p",
      "outputs": [
        {
          "name": "",
          "type": "string"
        }
      ],
      "payable": false,
      "stateMutability": "view",
      "type": "function"
    },
    {
      "constant": false,
      "inputs": [
        {
          "name": "_newValue",
          "type": "string"
        }
      ],
      "name": "modifyParameterP",
      "outputs": [],
      "payable": false,
      "stateMutability": "nonpayable",
      "type": "function"
    },
    {
      "constant": true,
      "inputs": [],
      "name": "j",
      "outputs": [
        {
          "name": "",
          "type": "string"
        }
      ],
      "payable": false,
      "stateMutability": "view",
      "type": "function"
    },
    {
      "constant": true,
      "inputs": [],
      "name": "balance",
      "outputs": [
        {
          "name": "",
          "type": "uint256"
        }
      ],
      "payable": false,
      "stateMutability": "view",
      "type": "function"
    },
    {
      "constant": true,
      "inputs": [],
      "name": "initialLucky7TicketPosition",
      "outputs": [
        {
          "name": "",
          "type": "uint256"
        }
      ],
      "payable": false,
      "stateMutability": "view",
      "type": "function"
    },
    {
      "constant": false,
      "inputs": [
        {
          "name": "_newValue",
          "type": "uint256"
        }
      ],
      "name": "modifySellTicketPrice",
      "outputs": [],
      "payable": false,
      "stateMutability": "nonpayable",
      "type": "function"
    },
    {
      "constant": true,
      "inputs": [],
      "name": "indexForLucky7Array",
      "outputs": [
        {
          "name": "",
          "type": "uint256"
        }
      ],
      "payable": false,
      "stateMutability": "view",
      "type": "function"
    },
    {
      "constant": false,
      "inputs": [
        {
          "name": "_newValue",
          "type": "uint256"
        }
      ],
      "name": "modifyNumberOfLucky7Numbers",
      "outputs": [],
      "payable": false,
      "stateMutability": "nonpayable",
      "type": "function"
    },
    {
      "constant": false,
      "inputs": [
        {
          "name": "_newValue",
          "type": "uint256"
        }
      ],
      "name": "modifyOraclizeCustomGasPrice",
      "outputs": [],
      "payable": false,
      "stateMutability": "nonpayable",
      "type": "function"
    },
    {
      "constant": true,
      "inputs": [],
      "name": "generateTicketPrice",
      "outputs": [
        {
          "name": "",
          "type": "uint256"
        }
      ],
      "payable": false,
      "stateMutability": "view",
      "type": "function"
    },
    {
      "constant": true,
      "inputs": [],
      "name": "drawNumber",
      "outputs": [
        {
          "name": "",
          "type": "uint256"
        }
      ],
      "payable": false,
      "stateMutability": "view",
      "type": "function"
    },
    {
      "constant": false,
      "inputs": [
        {
          "name": "_ticketOwner",
          "type": "address"
        }
      ],
      "name": "_askForTicket",
      "outputs": [],
      "payable": false,
      "stateMutability": "nonpayable",
      "type": "function"
    },
    {
      "constant": true,
      "inputs": [],
      "name": "sellTicketPrice",
      "outputs": [
        {
          "name": "",
          "type": "uint256"
        }
      ],
      "payable": false,
      "stateMutability": "view",
      "type": "function"
    },
    {
      "constant": true,
      "inputs": [
        {
          "name": "",
          "type": "uint256"
        }
      ],
      "name": "lucky7TicketDifference",
      "outputs": [
        {
          "name": "",
          "type": "uint256"
        }
      ],
      "payable": false,
      "stateMutability": "view",
      "type": "function"
    },
    {
      "constant": false,
      "inputs": [
        {
          "name": "_newOwner",
          "type": "address"
        }
      ],
      "name": "transferOwnership",
      "outputs": [],
      "payable": false,
      "stateMutability": "nonpayable",
      "type": "function"
    },
    {
      "constant": true,
      "inputs": [
        {
          "name": "",
          "type": "address"
        }
      ],
      "name": "pendingWithdrawals",
      "outputs": [
        {
          "name": "",
          "type": "uint256"
        }
      ],
      "payable": false,
      "stateMutability": "view",
      "type": "function"
    },
    {
      "constant": false,
      "inputs": [
        {
          "name": "_ticketOwner",
          "type": "address"
        }
      ],
      "name": "_askForIParameter",
      "outputs": [],
      "payable": false,
      "stateMutability": "nonpayable",
      "type": "function"
    },
    {
      "inputs": [],
      "payable": true,
      "stateMutability": "payable",
      "type": "constructor"
    },
    {
      "payable": true,
      "stateMutability": "payable",
      "type": "fallback"
    },
    {
      "anonymous": false,
      "inputs": [
        {
          "indexed": false,
          "name": "description",
          "type": "string"
        }
      ],
      "name": "NewOraclizeQuery",
      "type": "event"
    },
    {
      "anonymous": false,
      "inputs": [
        {
          "indexed": false,
          "name": "muParameter",
          "type": "string"
        }
      ],
      "name": "NewMuReceived",
      "type": "event"
    },
    {
      "anonymous": false,
      "inputs": [
        {
          "indexed": false,
          "name": "iParameter",
          "type": "string"
        }
      ],
      "name": "NewIReceived",
      "type": "event"
    },
    {
      "anonymous": false,
      "inputs": [
        {
          "indexed": false,
          "name": "newTicket",
          "type": "string"
        }
      ],
      "name": "NewTicketReceived",
      "type": "event"
    },
    {
      "anonymous": false,
      "inputs": [
        {
          "indexed": false,
          "name": "feeType",
          "type": "string"
        },
        {
          "indexed": false,
          "name": "_oldValue",
          "type": "uint256"
        },
        {
          "indexed": false,
          "name": "_newValue",
          "type": "uint256"
        }
      ],
      "name": "numberModified",
      "type": "event"
    },
    {
      "anonymous": false,
      "inputs": [
        {
          "indexed": false,
          "name": "parameter",
          "type": "string"
        },
        {
          "indexed": false,
          "name": "_oldValue",
          "type": "string"
        },
        {
          "indexed": false,
          "name": "_newValue",
          "type": "string"
        }
      ],
      "name": "parameterModified",
      "type": "event"
    },
    {
      "anonymous": false,
      "inputs": [
        {
          "indexed": false,
          "name": "parameter",
          "type": "string"
        },
        {
          "indexed": false,
          "name": "_oldValue",
          "type": "address"
        },
        {
          "indexed": false,
          "name": "_newValue",
          "type": "address"
        }
      ],
      "name": "walletModified",
      "type": "event"
    },
    {
      "anonymous": false,
      "inputs": [
        {
          "indexed": true,
          "name": "previousOwner",
          "type": "address"
        }
      ],
      "name": "OwnershipRenounced",
      "type": "event"
    },
    {
      "anonymous": false,
      "inputs": [
        {
          "indexed": true,
          "name": "previousOwner",
          "type": "address"
        },
        {
          "indexed": true,
          "name": "newOwner",
          "type": "address"
        }
      ],
      "name": "OwnershipTransferred",
      "type": "event"
    },
    {
      "constant": false,
      "inputs": [],
      "name": "_generateLucky7Number",
      "outputs": [],
      "payable": false,
      "stateMutability": "nonpayable",
      "type": "function"
    },
    {
      "constant": false,
      "inputs": [],
      "name": "setNewGame",
      "outputs": [],
      "payable": false,
      "stateMutability": "nonpayable",
      "type": "function"
    },
    {
      "constant": false,
      "inputs": [],
      "name": "_orderLucky7Numbers",
      "outputs": [],
      "payable": false,
      "stateMutability": "nonpayable",
      "type": "function"
    },
    {
      "constant": false,
      "inputs": [],
      "name": "_orderLucky7Tickets",
      "outputs": [],
      "payable": false,
      "stateMutability": "nonpayable",
      "type": "function"
    },
    {
      "constant": false,
      "inputs": [],
      "name": "_deliverPrizes",
      "outputs": [],
      "payable": false,
      "stateMutability": "nonpayable",
      "type": "function"
    },
    {
      "constant": false,
      "inputs": [],
      "name": "withdraw",
      "outputs": [],
      "payable": false,
      "stateMutability": "nonpayable",
      "type": "function"
    },
    {
      "constant": true,
      "inputs": [],
      "name": "getlucky7Numbers",
      "outputs": [
        {
          "name": "",
          "type": "uint256[7]"
        }
      ],
      "payable": false,
      "stateMutability": "view",
      "type": "function"
    },
    {
      "constant": true,
      "inputs": [],
      "name": "getlucky7Tickets",
      "outputs": [
        {
          "name": "",
          "type": "uint256[7]"
        }
      ],
      "payable": false,
      "stateMutability": "view",
      "type": "function"
    }
  ],
  "bytecode": "0x60c0604052600160808190527f310000000000000000000000000000000000000000000000000000000000000060a09081526200003e919081620001aa565b506040805180820190915260018082527f380000000000000000000000000000000000000000000000000000000000000060209092019182526200008591600291620001aa565b506040805180820190915260058082527f31303030300000000000000000000000000000000000000000000000000000006020909201918252620000cc91600391620001aa565b506040805180820190915260028082527f323000000000000000000000000000000000000000000000000000000000000060209092019182526200011391600491620001aa565b50600760058190556611c37937e08000600655662aa1efb94e00009055620493e060085563ee6b280060095560008054600a8054600160a060020a0319908116600160a060020a03841617909155601083905560118390556012805460ff1916600117905560388390559081163317909155600b8054909116736f485c8bf6fc43ea212e93bbf8ce046c7f1cb4751790556200024f565b828054600181600116156101000203166002900490600052602060002090601f016020900481019282601f10620001ed57805160ff19168380011785556200021d565b828001600101855582156200021d579182015b828111156200021d57825182559160200191906001019062000200565b506200022b9291506200022f565b5090565b6200024c91905b808211156200022b576000815560010162000236565b90565b61555c806200025f6000396000f3006080604052600436106102585763ffffffff60e060020a60003504166301591f13811461025a5780630cc38b2b146102a757806310cd4b8a146103005780631c3ed1d31461032a5780631cf4c3d11461035e57806323d370ba1461037357806327dc297e146103875780632caf9eee146103e55780632de729eb1461040e5780632e52d6061461042657806338bbfa50146104b0578063396fb4221461054c57806339df3f4f146105a45780633bb7daf4146105b95780633ccfd60b146106125780633eba346614610627578063400149111461072b57806349f6b030146107405780634acfd9b8146107615780634df7e3d01461088057806350b447121461089557806350b9c428146109a857806359f9fe82146109bd5780635edbc36b146109d2578063715018a6146109e7578063741606b5146109fc57806375edd25714610a1157806377d8a83014610a26578063809fc15314610a4757806383bb7bb714610a5f5780638aa5fafa14610ab85780638da5cb5b14610ad057806390c31c4c14610ae55780639ac2bf9114610afa5780639ae8886a14610b0f5780639dec38ab14610b24578063b582ec5f14610b7d578063b69ef8a814610b92578063bb49516b14610ba7578063bcb740ab14610bbc578063c56969ab14610bd4578063c71f04ac14610be9578063d383e86214610c01578063d566bcf014610c19578063d80ffb2014610c2e578063ddc110fa14610c43578063e5663c4814610c64578063e802ae1414610c79578063f2fde38b14610c91578063f3f4370314610cb2578063f405228914610cd3578063fd9be1b214610ce8575b005b34801561026657600080fd5b5061026f610d09565b604051808260e080838360005b8381101561029457818101518382015260200161027c565b5050505090500191505060405180910390f35b3480156102b357600080fd5b506040805160206004803580820135601f8101849004840285018401909552848452610258943694929360249392840191908190840183828082843750949750610d809650505050505050565b34801561030c57600080fd5b50610318600435610f65565b60408051918252519081900360200190f35b34801561033657600080fd5b50610342600435610f77565b60408051600160a060020a039092168252519081900360200190f35b34801561036a57600080fd5b50610258610f92565b610258600160a060020a0360043516611366565b34801561039357600080fd5b5060408051602060046024803582810135601f81018590048502860185019096528585526102589583359536956044949193909101919081908401838280828437509497506114789650505050505050565b3480156103f157600080fd5b506103fa611a2d565b604080519115158252519081900360200190f35b34801561041a57600080fd5b50610258600435611a36565b34801561043257600080fd5b5061043b611c78565b6040805160208082528351818301528351919283929083019185019080838360005b8381101561047557818101518382015260200161045d565b50505050905090810190601f1680156104a25780820380516001836020036101000a031916815260200191505b509250505060405180910390f35b3480156104bc57600080fd5b5060408051602060046024803582810135601f810185900485028601850190965285855261025895833595369560449491939091019190819084018382808284375050604080516020601f89358b018035918201839004830284018301909452808352979a999881019791965091820194509250829150840183828082843750949750611d039650505050505050565b34801561055857600080fd5b50610564600435611d08565b60408051978852600160a060020a039096166020880152868601949094526060860192909252608085015260a084015260c0830152519081900360e00190f35b3480156105b057600080fd5b50610258611d5f565b3480156105c557600080fd5b506040805160206004803580820135601f8101849004840285018401909552848452610258943694929360249392840191908190840183828082843750949750611d8a9650505050505050565b34801561061e57600080fd5b50610258611ed0565b34801561063357600080fd5b5061063f600435611f11565b604051808060200180602001858152602001848152602001838103835287818151815260200191508051906020019080838360005b8381101561068c578181015183820152602001610674565b50505050905090810190601f1680156106b95780820380516001836020036101000a031916815260200191505b50838103825286518152865160209182019188019080838360005b838110156106ec5781810151838201526020016106d4565b50505050905090810190601f1680156107195780820380516001836020036101000a031916815260200191505b50965050505050505060405180910390f35b34801561073757600080fd5b5061025861205d565b34801561074c57600080fd5b50610258600160a060020a0360043516612098565b34801561076d57600080fd5b50610782600160a060020a0360043516612147565b604080519081018590528315156060820152821515608082015281151560a082015260c08082528751908201528651819060208083019160e08401918b019080838360005b838110156107df5781810151838201526020016107c7565b50505050905090810190601f16801561080c5780820380516001836020036101000a031916815260200191505b5083810382528851815288516020918201918a019080838360005b8381101561083f578181015183820152602001610827565b50505050905090810190601f16801561086c5780820380516001836020036101000a031916815260200191505b509850505050505050505060405180910390f35b34801561088c57600080fd5b5061043b6122a7565b3480156108a157600080fd5b506108ad600435612301565b60408051908101849052600160a060020a03831660608201526080810182905260a08082528651908201528551819060208083019160c08401918a019080838360005b838110156109085781810151838201526020016108f0565b50505050905090810190601f1680156109355780820380516001836020036101000a031916815260200191505b50838103825287518152875160209182019189019080838360005b83811015610968578181015183820152602001610950565b50505050905090810190601f1680156109955780820380516001836020036101000a031916815260200191505b5097505050505050505060405180910390f35b3480156109b457600080fd5b5061031861246e565b3480156109c957600080fd5b50610318612474565b3480156109de57600080fd5b5061026f61247a565b3480156109f357600080fd5b5061025861250b565b348015610a0857600080fd5b5061034261256a565b348015610a1d57600080fd5b50610258612579565b348015610a3257600080fd5b50610258600160a060020a03600435166129b5565b348015610a5357600080fd5b506102586004356129ca565b348015610a6b57600080fd5b506040805160206004803580820135601f8101849004840285018401909552848452610258943694929360249392840191908190840183828082843750949750612a4b9650505050505050565b348015610ac457600080fd5b50610258600435612b90565b348015610adc57600080fd5b50610342612c11565b348015610af157600080fd5b50610258612c20565b348015610b0657600080fd5b50610318612c81565b348015610b1b57600080fd5b5061043b612c87565b348015610b3057600080fd5b506040805160206004803580820135601f8101849004840285018401909552848452610258943694929360249392840191908190840183828082843750949750612ce29650505050505050565b348015610b8957600080fd5b5061043b612e28565b348015610b9e57600080fd5b50610318612e83565b348015610bb357600080fd5b50610318612ea2565b348015610bc857600080fd5b50610258600435612ea8565b348015610be057600080fd5b50610318612f29565b348015610bf557600080fd5b50610258600435612f2f565b348015610c0d57600080fd5b50610258600435612fb0565b348015610c2557600080fd5b50610318613057565b348015610c3a57600080fd5b5061031861305d565b348015610c4f57600080fd5b50610258600160a060020a0360043516613063565b348015610c7057600080fd5b5061031861314a565b348015610c8557600080fd5b50610318600435613150565b348015610c9d57600080fd5b50610258600160a060020a0360043516613162565b348015610cbe57600080fd5b50610318600160a060020a0360043516613182565b348015610cdf57600080fd5b50610258613194565b348015610cf457600080fd5b50610258600160a060020a0360043516613598565b610d11615354565b6000805b600554811015610d4c5760158160078110610d2c57fe5b60040201600201548282600781101515610d4257fe5b0155600101610d15565b6040805160e081019182905290839060079082845b815481526020019060010190808311610d615750505050509250505090565b600054606090600160a060020a03163314610d9a57600080fd5b6002805460408051602060018416156101000260001901909316849004601f81018490048402820184019092528181529291830182828015610e1d5780601f10610df257610100808354040283529160200191610e1d565b820191906000526020600020905b815481529060010190602001808311610e0057829003601f168201915b50508551939450610e3993600293506020870192509050615373565b50600080516020615511833981519152818360405180806020018060200180602001848103845260148152602001807f506172616d65746572206e206d6f646966696564000000000000000000000000815250602001848103835286818151815260200191508051906020019080838360005b83811015610ec4578181015183820152602001610eac565b50505050905090810190601f168015610ef15780820380516001836020036101000a031916815260200191505b50848103825285518152855160209182019187019080838360005b83811015610f24578181015183820152602001610f0c565b50505050905090810190601f168015610f515780820380516001836020036101000a031916815260200191505b509550505050505060405180910390a15050565b60376020526000908152604090205481565b603660205260009081526040902054600160a060020a031681565b610f9a6153f1565b6000805481908190600160a060020a03163314610fb657600080fd5b5060005b6005548110156110e4576040805160e0810182526000838152603560209081528382205483528482526036815283822054600160a060020a031681840152848252603780825284832054948401859052918590525260148054601393606084019291811061102457fe5b906000526020600020906005020160020154815260200160158460078110151561104a57fe5b600490810291909101600290810154835260208084018790526010546040948501528554600180820188556000978852968290208651600790920201908155908501518187018054600160a060020a031916600160a060020a0390921691909117905592840151908301556060830151600383015560808301519082015560a0820151600582015560c09091015160069091015501610fba565b506038545b603854600554018110156113605780925060138181548110151561110957fe5b60009182526020918290206040805160e081018252600790930290910180548352600180820154600160a060020a0316948401949094526002810154918301919091526003810154606083015260048101546080830152600581015460a08301526006015460c08201529450810191505b6038546005540182101561123857601380548390811061119657fe5b60009182526020909120600790910201548451111561122d5760138054839081106111bd57fe5b60009182526020918290206040805160e0810182526007909302909101805483526001810154600160a060020a0316938301939093526002830154908201526003820154606082015260048201546080820152600582015460a082015260069091015460c0820152935090915081905b60019091019061117a565b82811461135857601380548290811061124d57fe5b906000526020600020906007020160138481548110151561126a57fe5b6000918252602090912082546007909202019081556001808301549082018054600160a060020a031916600160a060020a039092169190911790556002808301549082015560038083015490820155600480830154908201556005808301549082015560069182015491015560138054859190839081106112e757fe5b600091825260209182902083516007929092020190815590820151600182018054600160a060020a031916600160a060020a0390921691909117905560408201516002820155606082015160038201556080820151600482015560a0820151600582015560c0909101516006909101555b6001016110e9565b50505050565b60006113736009546136ac565b604080516020808252808201527f41736b696e6720666f722061206e6577206d7520706172616d657465722e2e2e8183015290517f096835e36c2ccea88ff2b3aca87dfc938b977e52ea656873ff76a8dba50d4d349181900360600190a16114486040805190810160405280600c81526020017f576f6c6672616d416c70686100000000000000000000000000000000000000008152506040805190810160405280600f81526020017f342072616e646f6d206e756d6265720000000000000000000000000000000000815250600854613894565b60009081526032602052604090208054600160a060020a031916600160a060020a03939093169290921790915550565b611480613c99565b600160a060020a0316331461149457600080fd5b600082815260326020526040902054600160a060020a0316158015906114e25750600082815260326020908152604080832054600160a060020a03168352603190915290206003015460ff16155b1561167f57600082815260326020908152604080832054600160a060020a0316835260318252909120825161151992840190615373565b507f6a28dd23c76ba6cc6f4f148a0e2e0e147d8b876cb74ec1e5e2b8e9a8119eb702816040518080602001828103825283818151815260200191508051906020019080838360005b83811015611579578181015183820152602001611561565b50505050905090810190601f1680156115a65780820380516001836020036101000a031916815260200191505b509250505060405180910390a160008281526032602090815260408083208054600160a060020a03908116855260319093528184206003908101805460ff191660019081179091559154909316845292200154610100900460ff1615151480156116545750600082815260326020908152604080832054600160a060020a03168352603190915290206003015460ff6201000090910416151560011480611654575060125460ff1615156001145b1561167a5760008281526032602052604090205461167a90600160a060020a0316613063565b611a29565b600082815260336020526040902054600160a060020a0316158015906116d25750600082815260336020908152604080832054600160a060020a031683526031909152902060030154610100900460ff16155b1561186d57600082815260336020908152604080832054600160a060020a0316835260318252909120825161170f92600190920191840190615373565b507f716a554dec57e3a217a923b974660c0c8ebee07b09b1ac7d4a3a8f328d10cc89816040518080602001828103825283818151815260200191508051906020019080838360005b8381101561176f578181015183820152602001611757565b50505050905090810190601f16801561179c5780820380516001836020036101000a031916815260200191505b509250505060405180910390a160008281526033602090815260408083208054600160a060020a03908116855260319093528184206003908101805461ff00191661010017905590549092168352909120015460ff16151560011480156118475750600082815260336020908152604080832054600160a060020a03168352603190915290206003015460ff6201000090910416151560011480611847575060125460ff1615156001145b1561167a5760008281526033602052604090205461167a90600160a060020a0316613063565b600082815260346020526040902054600160a060020a0316158015906118d75750600082815260346020908152604080832054600160a060020a03168352603190915290206003015460ff62010000909104161515600114806118d7575060125460ff1615156001145b15611a29576118e581613e8e565b600083815260346020908152604080832054600160a060020a031683526031825280832060020193909355825181815284518183015284517f0efef3a277391dda0d5747fd15566e85fcd8a4fb588d9853173841e45cc5ae8a9486949293849391840192908601918190849084905b8381101561196c578181015183820152602001611954565b50505050905090810190601f1680156119995780820380516001836020036101000a031916815260200191505b509250505060405180910390a1600082815260346020908152604080832054600160a060020a0316835260319091529020600301805462ff00001916905560125460ff16151560011415611a085760008281526034602052604090205461167a90600160a060020a0316613ea1565b600082815260346020526040902054611a2990600160a060020a03166140aa565b5050565b60125460ff1681565b6000806000806015600160055403600781101515611a5057fe5b6004020160020154601486815481101515611a6757fe5b9060005260206000209060050201600201541115611ad657600554600019019350611acf60158560078110611a9857fe5b6004020160020154601487815481101515611aaf57fe5b9060005260206000209060050201600201546142e590919063ffffffff16565b9250611bd7565b6017546014805487908110611ae757fe5b9060005260206000209060050201600201541015611b4c5760009350611acf601486815481101515611b1557fe5b906000526020600020906005020160020154601586600781101515611b3657fe5b60040201600201546142e590919063ffffffff16565b60158460078110611b5957fe5b6004020160020154601486815481101515611b7057fe5b9060005260206000209060050201600201541115611b9357600190930192611b4c565b611ba76015600019860160078110611a9857fe5b9150611bbb601486815481101515611b1557fe5b905081811115611bd357600184039350819250611bd7565b8092505b600084815260366020526040902054600160a060020a03161580611c08575060008481526035602052604090205483105b15611c71576014805486908110611c1b57fe5b60009182526020808320600360059093020191909101548683526036825260408084208054600160a060020a031916600160a060020a039093169290921790915560358252808320869055603790915290208590555b5050505050565b6002805460408051602060018416156101000260001901909316849004601f81018490048402820184019092528181529291830182828015611cfb5780601f10611cd057610100808354040283529160200191611cfb565b820191906000526020600020905b815481529060010190602001808311611cde57829003601f168201915b505050505081565b505050565b6013805482908110611d1657fe5b60009182526020909120600790910201805460018201546002830154600384015460048501546005860154600690960154949650600160a060020a039093169491939092919087565b600054600160a060020a03163314611d7657600080fd5b6012805460ff19811660ff90911615179055565b600054606090600160a060020a03163314611da457600080fd5b6004805460408051602060026001851615610100026000190190941693909304601f81018490048402820184019092528181529291830182828015611e2a5780601f10611dff57610100808354040283529160200191611e2a565b820191906000526020600020905b815481529060010190602001808311611e0d57829003601f168201915b50508551939450611e4693600493506020870192509050615373565b50600080516020615511833981519152818360405180806020018060200180602001848103845260148152602001807f506172616d65746572206a206d6f6469666965640000000000000000000000008152506020018481038352868181518152602001915080519060200190808383600083811015610ec4578181015183820152602001610eac565b33600081815260396020526040808220805490839055905190929183156108fc02918491818181858888f19350505050158015611a29573d6000803e3d6000fd5b60158160078110611f1e57fe5b60040201805460408051602060026001851615610100026000190190941693909304601f81018490048402820184019092528181529293508391830182828015611fa95780601f10611f7e57610100808354040283529160200191611fa9565b820191906000526020600020905b815481529060010190602001808311611f8c57829003601f168201915b505050505090806001018054600181600116156101000203166002900480601f0160208091040260200160405190810160405280929190818152602001828054600181600116156101000203166002900480156120475780601f1061201c57610100808354040283529160200191612047565b820191906000526020600020905b81548152906001019060200180831161202a57829003601f168201915b5050505050908060020154908060030154905084565b600054600160a060020a0316331461207457600080fd5b60055460105402603855612086611d5f565b61208e610f92565b612096613194565b565b60008054600160a060020a031633146120b057600080fd5b50600a8054600160a060020a03838116600160a060020a0319831681179093556040805191909216602082018190528183019390935260608082526019908201527f456e74657270726973652077616c6c6574206368616e67656400000000000000608082015290517f223db053947bb148de510715d3c7d8ccd72bdd376752fd735ee7bd0bd0ece5bf9181900360a00190a15050565b60316020908152600091825260409182902080548351601f600260001961010060018616150201909316929092049182018490048402810184019094528084529092918391908301828280156121de5780601f106121b3576101008083540402835291602001916121de565b820191906000526020600020905b8154815290600101906020018083116121c157829003601f168201915b505050505090806001018054600181600116156101000203166002900480601f01602080910402602001604051908101604052809291908181526020018280546001816001161561010002031660029004801561227c5780601f106122515761010080835404028352916020019161227c565b820191906000526020600020905b81548152906001019060200180831161225f57829003601f168201915b50505050600283015460039093015491929160ff808216925061010082048116916201000090041686565b60018054604080516020600284861615610100026000190190941693909304601f81018490048402820184019092528181529291830182828015611cfb5780601f10611cd057610100808354040283529160200191611cfb565b601480548290811061230f57fe5b60009182526020918290206005919091020180546040805160026001841615610100026000190190931692909204601f8101859004850283018501909152808252919350918391908301828280156123a85780601f1061237d576101008083540402835291602001916123a8565b820191906000526020600020905b81548152906001019060200180831161238b57829003601f168201915b505050505090806001018054600181600116156101000203166002900480601f0160208091040260200160405190810160405280929190818152602001828054600181600116156101000203166002900480156124465780601f1061241b57610100808354040283529160200191612446565b820191906000526020600020905b81548152906001019060200180831161242957829003601f168201915b505050506002830154600384015460049094015492939092600160a060020a03909116915085565b60085481565b60055481565b612482615354565b6000805b600554811015610d4c57600081815260366020526040902054600160a060020a0316156124f2576000818152603760205260409020546014805490919081106124cb57fe5b90600052602060002090600502016002015482826007811015156124eb57fe5b0155612503565b600082826007811061250057fe5b01555b600101612486565b600054600160a060020a0316331461252257600080fd5b60008054604051600160a060020a03909116917ff8df31144d9c2f0f6b59d69b8b98abd5459d07f2742c4df920b25aae33c6482091a260008054600160a060020a0319169055565b600a54600160a060020a031681565b612581615438565b6000805481908190600160a060020a0316331461259d57600080fd5b5060005b60055481101561136057915081601581600781106125bb57fe5b6040805160049290920292909201805460a06020601f60026000196101006001871615020190941693909304928301819004028401810190945260808301818152929391928492909184918401828280156126575780601f1061262c57610100808354040283529160200191612657565b820191906000526020600020905b81548152906001019060200180831161263a57829003601f168201915b50505050508152602001600182018054600181600116156101000203166002900480601f0160208091040260200160405190810160405280929190818152602001828054600181600116156101000203166002900480156126f95780601f106126ce576101008083540402835291602001916126f9565b820191906000526020600020905b8154815290600101906020018083116126dc57829003601f168201915b505050505081526020016002820154815260200160038201548152505093508060010191505b6005548210156128c2576015826007811061273657fe5b6004020160020154846040015111156128b7576015826007811061275657fe5b6040805160049290920292909201805460a06020601f60026000196101006001871615020190941693909304928301819004028401810190945260808301818152929391928492909184918401828280156127f25780601f106127c7576101008083540402835291602001916127f2565b820191906000526020600020905b8154815290600101906020018083116127d557829003601f168201915b50505050508152602001600182018054600181600116156101000203166002900480601f0160208091040260200160405190810160405280929190818152602001828054600181600116156101000203166002900480156128945780601f1061286957610100808354040283529160200191612894565b820191906000526020600020905b81548152906001019060200180831161287757829003601f168201915b505050505081526020016002820154815260200160038201548152505093508192505b60019091019061271f565b8281146129ad57601581600781106128d657fe5b60040201601584600781106128e757fe5b6004020160008201816000019080546001816001161561010002031660029004612912929190615461565b506001820181600101908054600181600116156101000203166002900461293a929190615461565b5060028281015490820155600391820154910155836015826007811061295c57fe5b60040201600082015181600001908051906020019061297c929190615373565b5060208281015180516129959260018501920190615373565b50604082015160028201556060909101516003909101555b6001016125a1565b6129be81611366565b6129c781613598565b50565b60008054600160a060020a031633146129e257600080fd5b50600880549082905560408051602081018390528082018490526060808252601a908201527f4f7261636c697a6520676173206c696d6974206368616e676564000000000000608082015290516000805160206154f18339815191529181900360a00190a15050565b600054606090600160a060020a03163314612a6557600080fd5b60018054604080516020600284861615610100026000190190941693909304601f81018490048402820184019092528181529291830182828015612aea5780601f10612abf57610100808354040283529160200191612aea565b820191906000526020600020905b815481529060010190602001808311612acd57829003601f168201915b50508551939450612b0693600193506020870192509050615373565b50600080516020615511833981519152818360405180806020018060200180602001848103845260148152602001807f506172616d657465722062206d6f6469666965640000000000000000000000008152506020018481038352868181518152602001915080519060200190808383600083811015610ec4578181015183820152602001610eac565b60008054600160a060020a03163314612ba857600080fd5b50600680549082905560408051602081018390528082018490526060808252601d908201527f47656e6572617465207469636b6574207072696365206368616e676564000000608082015290516000805160206154f18339815191529181900360a00190a15050565b600054600160a060020a031681565b600054600160a060020a03163314612c3757600080fd5b6005546011541415612c5d57612c4b612579565b6000601155612c58611d5f565b612096565b306000818152603160205260409020600301805461ffff19169055612096906129b5565b60095481565b6003805460408051602060026001851615610100026000190190941693909304601f81018490048402820184019092528181529291830182828015611cfb5780601f10611cd057610100808354040283529160200191611cfb565b600054606090600160a060020a03163314612cfc57600080fd5b6003805460408051602060026001851615610100026000190190941693909304601f81018490048402820184019092528181529291830182828015612d825780601f10612d5757610100808354040283529160200191612d82565b820191906000526020600020905b815481529060010190602001808311612d6557829003601f168201915b50508551939450612d9e93600393506020870192509050615373565b50600080516020615511833981519152818360405180806020018060200180602001848103845260148152602001807f506172616d657465722070206d6f6469666965640000000000000000000000008152506020018481038352868181518152602001915080519060200190808383600083811015610ec4578181015183820152602001610eac565b6004805460408051602060026001851615610100026000190190941693909304601f81018490048402820184019092528181529291830182828015611cfb5780601f10611cd057610100808354040283529160200191611cfb565b60008054600160a060020a03163314612e9b57600080fd5b5030315b90565b60385481565b60008054600160a060020a03163314612ec057600080fd5b506007805490829055604080516020810183905280820184905260608082526019908201527f53656c6c207469636b6574207072696365206368616e67656400000000000000608082015290516000805160206154f18339815191529181900360a00190a15050565b60115481565b60008054600160a060020a03163314612f4757600080fd5b506005805490829055604080516020810183905280820184905260608082526019908201527f53656c6c207469636b6574207072696365206368616e67656400000000000000608082015290516000805160206154f18339815191529181900360a00190a15050565b60008054600160a060020a03163314612fc857600080fd5b506009805490829055604080516020810183905280820184905260608082526021908201527f4f7261636c697a6520637573746f6d20676173207072696365206368616e676560808201527f640000000000000000000000000000000000000000000000000000000000000060a082015290516000805160206154f18339815191529181900360c00190a15050565b60065481565b60105481565b60006130706009546136ac565b604080516020808252601a908201527f41736b696e6720666f722061206e6577207469636b65742e2e2e0000000000008183015290517f096835e36c2ccea88ff2b3aca87dfc938b977e52ea656873ff76a8dba50d4d349181900360600190a161311a6040805190810160405280600c81526020017f576f6c6672616d416c7068610000000000000000000000000000000000000000815250613112846142f7565b600854613894565b60009081526034602052604090208054600160a060020a031916600160a060020a03939093169290921790915550565b60075481565b60356020526000908152604090205481565b600054600160a060020a0316331461317957600080fd5b6129c781614b8c565b60396020526000908152604090205481565b600080548190819081908190600160a060020a031633146131b457600080fd5b6131c63031600763ffffffff614bfc16565b94506131d985600a63ffffffff614c2516565b94506131ec85600663ffffffff614bfc16565b93506131ff85600363ffffffff614bfc16565b925061321285600163ffffffff614bfc16565b915061322584600a63ffffffff614c2516565b935061323883600a63ffffffff614c2516565b925061324b82600a63ffffffff614c2516565b915060385490505b603854600554018110156132ea5760138054600091908390811061327357fe5b6000918252602090912060016007909202010154600160a060020a0316146132e25783603960006013848154811015156132a957fe5b6000918252602080832060016007909302019190910154600160a060020a031683528201929092526040019020805490910190556132ea565b600101613253565b6001015b603854600554018110156133855760138054600091908390811061330e57fe5b6000918252602090912060016007909202010154600160a060020a03161461337d57826039600060138481548110151561334457fe5b6000918252602080832060016007909302019190910154600160a060020a03168352820192909252604001902080549091019055613385565b6001016132ee565b6001015b60385460055401811015613420576013805460009190839081106133a957fe5b6000918252602090912060016007909202010154600160a060020a0316146134185781603960006013848154811015156133df57fe5b6000918252602080832060016007909302019190910154600160a060020a03168352820192909252604001902080549091019055613420565b600101613389565b601080546001019055600a54604051600160a060020a0390911690303180156108fc02916000818181858888f19350505050158015613463573d6000803e3d6000fd5b50600090505b600554811015611c715760008181526036602090815260408083208054600160a060020a03191690556035825280832083905560378252808320929092558151808301909252600182527f300000000000000000000000000000000000000000000000000000000000000090820152601582600781106134e557fe5b6004020160000190805190602001906134ff929190615373565b5060408051808201909152600181527f300000000000000000000000000000000000000000000000000000000000000060208201526015826007811061354157fe5b60040201600101908051906020019061355b929190615373565b5060006015826007811061356b57fe5b600402016002018190555060105460158260078110151561358857fe5b6004020160030155600101613469565b60006135a56009546136ac565b604080516020808252601f908201527f41736b696e6720666f722061206e6577206920706172616d657465722e2e2e008183015290517f096835e36c2ccea88ff2b3aca87dfc938b977e52ea656873ff76a8dba50d4d349181900360600190a161367c6040805190810160405280600c81526020017f576f6c6672616d416c70686100000000000000000000000000000000000000008152506040805190810160405280600f81526020017f342072616e646f6d206e756d6265720000000000000000000000000000000000815250600854613894565b60009081526033602052604090208054600160a060020a031916600160a060020a03939093169290921790915550565b600b54600160a060020a031615806136d65750600b546136d490600160a060020a0316614c3a565b155b156136e7576136e56000614c3e565b505b600b60009054906101000a9004600160a060020a0316600160a060020a03166338cc48316040518163ffffffff1660e060020a028152600401602060405180830381600087803b15801561373a57600080fd5b505af115801561374e573d6000803e3d6000fd5b505050506040513d602081101561376457600080fd5b5051600c54600160a060020a0390811691161461381a57600b60009054906101000a9004600160a060020a0316600160a060020a03166338cc48316040518163ffffffff1660e060020a028152600401602060405180830381600087803b1580156137ce57600080fd5b505af11580156137e2573d6000803e3d6000fd5b505050506040513d60208110156137f857600080fd5b5051600c8054600160a060020a031916600160a060020a039092169190911790555b600c54604080517fca6ad1e4000000000000000000000000000000000000000000000000000000008152600481018490529051600160a060020a039092169163ca6ad1e49160248082019260009290919082900301818387803b15801561388057600080fd5b505af1158015611c71573d6000803e3d6000fd5b600b546000908190600160a060020a031615806138c35750600b546138c190600160a060020a0316614c3a565b155b156138d4576138d26000614c3e565b505b600b60009054906101000a9004600160a060020a0316600160a060020a03166338cc48316040518163ffffffff1660e060020a028152600401602060405180830381600087803b15801561392757600080fd5b505af115801561393b573d6000803e3d6000fd5b505050506040513d602081101561395157600080fd5b5051600c54600160a060020a03908116911614613a0757600b60009054906101000a9004600160a060020a0316600160a060020a03166338cc48316040518163ffffffff1660e060020a028152600401602060405180830381600087803b1580156139bb57600080fd5b505af11580156139cf573d6000803e3d6000fd5b505050506040513d60208110156139e557600080fd5b5051600c8054600160a060020a031916600160a060020a039092169190911790555b600c54604080517f2ef3accc0000000000000000000000000000000000000000000000000000000081526024810186905260048101918252875160448201528751600160a060020a0390931692632ef3accc9289928892829160640190602086019080838360005b83811015613a87578181015183820152602001613a6f565b50505050905090810190601f168015613ab45780820380516001836020036101000a031916815260200191505b509350505050602060405180830381600087803b158015613ad457600080fd5b505af1158015613ae8573d6000803e3d6000fd5b505050506040513d6020811015613afe57600080fd5b50519050670de0b6b3a76400003a840201811115613b1f5760009150613c91565b600c546040517fc51be90f00000000000000000000000000000000000000000000000000000000815260006004820181815260648301879052608060248401908152895160848501528951600160a060020a039095169463c51be90f948794938c938c938c93604481019160a49091019060208801908083838c5b83811015613bb2578181015183820152602001613b9a565b50505050905090810190601f168015613bdf5780820380516001836020036101000a031916815260200191505b50838103825285518152855160209182019187019080838360005b83811015613c12578181015183820152602001613bfa565b50505050905090810190601f168015613c3f5780820380516001836020036101000a031916815260200191505b5096505050505050506020604051808303818588803b158015613c6157600080fd5b505af1158015613c75573d6000803e3d6000fd5b50505050506040513d6020811015613c8c57600080fd5b505191505b509392505050565b600b54600090600160a060020a03161580613cc65750600b54613cc490600160a060020a0316614c3a565b155b15613cd757613cd56000614c3e565b505b600b60009054906101000a9004600160a060020a0316600160a060020a03166338cc48316040518163ffffffff1660e060020a028152600401602060405180830381600087803b158015613d2a57600080fd5b505af1158015613d3e573d6000803e3d6000fd5b505050506040513d6020811015613d5457600080fd5b5051600c54600160a060020a03908116911614613e0a57600b60009054906101000a9004600160a060020a0316600160a060020a03166338cc48316040518163ffffffff1660e060020a028152600401602060405180830381600087803b158015613dbe57600080fd5b505af1158015613dd2573d6000803e3d6000fd5b505050506040513d6020811015613de857600080fd5b5051600c8054600160a060020a031916600160a060020a039092169190911790555b600c60009054906101000a9004600160a060020a0316600160a060020a031663c281d19e6040518163ffffffff1660e060020a028152600401602060405180830381600087803b158015613e5d57600080fd5b505af1158015613e71573d6000803e3d6000fd5b505050506040513d6020811015613e8757600080fd5b5051905090565b6000613e9b826000614c48565b92915050565b60408051600160a060020a03831660009081526031602090815290839020805460026001821615610100026000190190911604601f8101839004909202830160a090810190945260808301828152929384939290840182828015613f465780601f10613f1b57610100808354040283529160200191613f46565b820191906000526020600020905b815481529060010190602001808311613f2957829003601f168201915b505050505081526020016031600084600160a060020a0316600160a060020a031681526020019081526020016000206001018054600181600116156101000203166002900480601f01602080910402602001604051908101604052809291908181526020018280546001816001161561010002031660029004801561400c5780601f10613fe15761010080835404028352916020019161400c565b820191906000526020600020905b815481529060010190602001808311613fef57829003601f168201915b5050509183525050600160a060020a03831660009081526031602090815260409182902060020154908301526010549101526011546015906007811061404e57fe5b60040201600082015181600001908051906020019061406e929190615373565b5060208281015180516140879260018501920190615373565b506040820151600282015560609091015160039091015550601180546001019055565b60408051600160a060020a03831660009081526031602090815283822080546002600180831615610100026000190190921604601f8101849004909302850160c090810190965260a08501838152939590946014949093849391928401828280156141565780601f1061412b57610100808354040283529160200191614156565b820191906000526020600020905b81548152906001019060200180831161413957829003601f168201915b505050505081526020016031600087600160a060020a0316600160a060020a031681526020019081526020016000206001018054600181600116156101000203166002900480601f01602080910402602001604051908101604052809291908181526020018280546001816001161561010002031660029004801561421c5780601f106141f15761010080835404028352916020019161421c565b820191906000526020600020905b8154815290600101906020018083116141ff57829003601f168201915b5050509183525050600160a060020a0386166000818152603160209081526040808320600201548286015284019290925260105460609093019290925283546001810180865594835291819020835180516005909402909101926142839284920190615373565b50602082810151805161429c9260018501920190615373565b50604082015160028201556060820151600382018054600160a060020a031916600160a060020a03909216919091179055608090910151600490910155039050611a2981611a36565b6000828211156142f157fe5b50900390565b604080518082018252600c81527f286d6f642828312f2831305e000000000000000000000000000000000000000060208083019190915260028054845160018216156101000260001901909116829004601f810184900484028201840190955284815260609485946144ce94909391908301828280156143b85780601f1061438d576101008083540402835291602001916143b8565b820191906000526020600020905b81548152906001019060200180831161439b57829003601f168201915b505060408051808201825260018082527f2d00000000000000000000000000000000000000000000000000000000000000602080840191909152600160a060020a038d1660009081526031825284902080548551600294821615610100026000190190911693909304601f810183900483028401830190955284835292965090945090925083018282801561448e5780601f106144635761010080835404028352916020019161448e565b820191906000526020600020905b81548152906001019060200180831161447157829003601f168201915b50505050506040805190810160405280600681526020017f29292a31305e0000000000000000000000000000000000000000000000000000815250614dba565b60038054604080516020601f60026000196101006001881615020190951694909404938401819004810282018101909252828152939450614662938593909290918301828280156145605780601f1061453557610100808354040283529160200191614560565b820191906000526020600020905b81548152906001019060200180831161454357829003601f168201915b5050604080518082018252600581527f2c31305e2800000000000000000000000000000000000000000000000000000060208083019190915260048054845160026001831615610100026000190190921691909104601f81018490048402820184019095528481529296509194509092508301828280156146225780601f106145f757610100808354040283529160200191614622565b820191906000526020600020905b81548152906001019060200180831161460557829003601f168201915b50505050506040805190810160405280600181526020017f2b00000000000000000000000000000000000000000000000000000000000000815250614dba565b9050614823816031600086600160a060020a0316600160a060020a031681526020019081526020016000206001018054600181600116156101000203166002900480601f0160208091040260200160405190810160405280929190818152602001828054600181600116156101000203166002900480156147245780601f106146f957610100808354040283529160200191614724565b820191906000526020600020905b81548152906001019060200180831161470757829003601f168201915b5050604080518082018252600d81527f292d6d6f642828312f2831305e0000000000000000000000000000000000000060208083019190915260028054845160018216156101000260001901909116829004601f81018490048402820184019095528481529296509194509092508301828280156147e35780601f106147b8576101008083540402835291602001916147e3565b820191906000526020600020905b8154815290600101906020018083116147c657829003601f168201915b50505050506040805190810160405280600181526020017f2d00000000000000000000000000000000000000000000000000000000000000815250614dba565b600160a060020a03841660009081526031602090815260409182902080548351601f600260001961010060018616150201909316929092049182018490048402810184019094528084529394506149ca938593928301828280156148c85780601f1061489d576101008083540402835291602001916148c8565b820191906000526020600020905b8154815290600101906020018083116148ab57829003601f168201915b5050604080518082018252600681527f29292a31305e000000000000000000000000000000000000000000000000000060208083019190915260038054845160026001831615610100026000190190921691909104601f810184900484028201840190955284815292965091945090925083018282801561498a5780601f1061495f5761010080835404028352916020019161498a565b820191906000526020600020905b81548152906001019060200180831161496d57829003601f168201915b50505050506040805190810160405280600481526020017f2c31305e00000000000000000000000000000000000000000000000000000000815250614dba565b60408051808201825260018082527f2800000000000000000000000000000000000000000000000000000000000000602080840191909152600160a060020a038816600090815260318252849020820180548551600294821615610100026000190190911693909304601f8101839004830284018301909552848352949550614b859486949091830182828015614aa25780601f10614a7757610100808354040283529160200191614aa2565b820191906000526020600020905b815481529060010190602001808311614a8557829003601f168201915b5050604080518082018252600781527f2929292f31305e00000000000000000000000000000000000000000000000000602080830191909152600160a060020a038d16600090815260318252839020600190810180548551600293821615610100026000190190911692909204601f81018490048402830184019095528482529296509450909250830182828015614b7b5780601f10614b5057610100808354040283529160200191614b7b565b820191906000526020600020905b815481529060010190602001808311614b5e57829003601f168201915b5050505050614dba565b9392505050565b600160a060020a0381161515614ba157600080fd5b60008054604051600160a060020a03808516939216917f8be0079c531659141344cd1fd0a4f28419497f9722a3daafe3b4186f6b6457e091a360008054600160a060020a031916600160a060020a0392909216919091179055565b6000821515614c0d57506000613e9b565b50818102818382811515614c1d57fe5b0414613e9b57fe5b60008183811515614c3257fe5b049392505050565b3b90565b6000613e9b61501b565b6000828180805b8351811015614d9d5783517f300000000000000000000000000000000000000000000000000000000000000090859083908110614c8857fe5b90602001015160f860020a900460f860020a02600160f860020a03191610158015614cfe575083517f390000000000000000000000000000000000000000000000000000000000000090859083908110614cde57fe5b90602001015160f860020a900460f860020a02600160f860020a03191611155b15614d57578115614d1d57851515614d1557614d9d565b600019909501945b600a8302925060308482815181101515614d3357fe5b90602001015160f860020a900460f860020a0260f860020a90040383019250614d95565b8381815181101515614d6557fe5b90602001015160f860020a900460f860020a02600160f860020a031916602e60f860020a021415614d9557600191505b600101614c4f565b6000861115614daf5785600a0a830292505b509095945050505050565b6060806060806060806060806000808e98508d97508c96508b95508a94508451865188518a518c51010101016040519080825280601f01601f191660200182016040528015614e13578160200160208202803883390190505b50935083925060009150600090505b8851811015614e80578881815181101515614e3957fe5b90602001015160f860020a900460f860020a028383806001019450815181101515614e6057fe5b906020010190600160f860020a031916908160001a905350600101614e22565b5060005b8751811015614ee2578781815181101515614e9b57fe5b90602001015160f860020a900460f860020a028383806001019450815181101515614ec257fe5b906020010190600160f860020a031916908160001a905350600101614e84565b5060005b8651811015614f44578681815181101515614efd57fe5b90602001015160f860020a900460f860020a028383806001019450815181101515614f2457fe5b906020010190600160f860020a031916908160001a905350600101614ee6565b5060005b8551811015614fa6578581815181101515614f5f57fe5b90602001015160f860020a900460f860020a028383806001019450815181101515614f8657fe5b906020010190600160f860020a031916908160001a905350600101614f48565b5060005b8451811015615008578481815181101515614fc157fe5b90602001015160f860020a900460f860020a028383806001019450815181101515614fe857fe5b906020010190600160f860020a031916908160001a905350600101614faa565b50909d9c50505050505050505050505050565b60008061503b731d3b2638a7cc9f2cb3d298a3da7a90b67e5506ed614c3a565b11156150ab57600b8054600160a060020a031916731d3b2638a7cc9f2cb3d298a3da7a90b67e5506ed178155604080518082019091529081527f6574685f6d61696e6e657400000000000000000000000000000000000000000060208201526150a390615341565b506001612e9f565b60006150ca73c03a2615d5efaf5f49f60b7bb6583eaec212fdf1614c3a565b111561513357600b8054600160a060020a03191673c03a2615d5efaf5f49f60b7bb6583eaec212fdf117905560408051808201909152600c81527f6574685f726f707374656e33000000000000000000000000000000000000000060208201526150a390615341565b600061515273b7a07bcf2ba2f2703b24c0691b5278999c59ac7e614c3a565b11156151bb57600b8054600160a060020a03191673b7a07bcf2ba2f2703b24c0691b5278999c59ac7e17905560408051808201909152600981527f6574685f6b6f76616e000000000000000000000000000000000000000000000060208201526150a390615341565b60006151da73146500cfd35b22e4a392fe0adc06de1a1368ed48614c3a565b111561524257600b8054600160a060020a03191673146500cfd35b22e4a392fe0adc06de1a1368ed48178155604080518082019091529081527f6574685f72696e6b65627900000000000000000000000000000000000000000060208201526150a390615341565b6000615261736f485c8bf6fc43ea212e93bbf8ce046c7f1cb475614c3a565b11156152955750600b8054600160a060020a031916736f485c8bf6fc43ea212e93bbf8ce046c7f1cb4751790556001612e9f565b60006152b47320e12a1f859b3feae5fb2a0a32c18f5a65555bbf614c3a565b11156152e85750600b8054600160a060020a0319167320e12a1f859b3feae5fb2a0a32c18f5a65555bbf1790556001612e9f565b60006153077351efaf4c8b3c9afbd5ab9f4bbc82784ab6ef8faa614c3a565b111561533b5750600b8054600160a060020a0319167351efaf4c8b3c9afbd5ab9f4bbc82784ab6ef8faa1790556001612e9f565b50600090565b8051611a2990600d906020840190615373565b60e0604051908101604052806007906020820280388339509192915050565b828054600181600116156101000203166002900490600052602060002090601f016020900481019282601f106153b457805160ff19168380011785556153e1565b828001600101855582156153e1579182015b828111156153e15782518255916020019190600101906153c6565b506153ed9291506154d6565b5090565b60e060405190810160405280600081526020016000600160a060020a0316815260200160008152602001600081526020016000815260200160008152602001600081525090565b608060405190810160405280606081526020016060815260200160008152602001600081525090565b828054600181600116156101000203166002900490600052602060002090601f016020900481019282601f1061549a57805485556153e1565b828001600101855582156153e157600052602060002091601f016020900482015b828111156153e15782548255916001019190600101906154bb565b612e9f91905b808211156153ed57600081556001016154dc56009bc068999fb1a0aac007a9b44ca6322a376441f42706bf5163600bb3d1a731647ecbd54b3baea533cf57ef049f9e04554be6a660d6dacd477488066eedf27beea165627a7a7230582015d5c331625227b37e339b347fa6d56a1d0f34020f6463183cd3b3c3a0457a750029",
  "source": "pragma solidity ^0.4.20;\n\nimport \"./Lucky7TicketFactory.sol\";\n\ncontract Lucky7Ballot is Lucky7TicketFactory{\n    \n    \n    uint public initialLucky7TicketPosition=0;\n    mapping (address => uint) public pendingWithdrawals;\n\n\n    function Lucky7Ballot() payable {\n        \n    }\n    \n    function _generateLucky7Number() public onlyOwner{\n        if(indexForLucky7Array == numberOfLucky7Numbers){\n            _orderLucky7Numbers();\n            indexForLucky7Array = 0;\n            toggleLucky7Setting();\n        }\n        else{\n            userValues[this].muReady = false;\n            userValues[this].iReady = false;\n            _generateTicket(this);\n        }\n    }\n    \n    function setNewGame()                                      \n        public \n        onlyOwner \n    {\n        //Set initial index for Lucky7Tickets\n        initialLucky7TicketPosition=drawNumber*numberOfLucky7Numbers;\n        //Increase drawNumber\n        //Set on Lucky7NumbersSetting\n        toggleLucky7Setting();\n        //Deliver Prizes\n        //Deliver lot for enterprise\n        _orderLucky7Tickets();\n        _deliverPrizes();\n    }\n    \n    function _orderLucky7Numbers() public onlyOwner{\n        Lucky7Number memory smallest;\n        uint aux;\n        uint j;\n        uint i;\n        for(i=0; i<numberOfLucky7Numbers; i++){\n            aux = i;\n            smallest = lucky7Numbers[i];\n            for (j=i+1; j<numberOfLucky7Numbers; j++){\n                if(smallest.ticketValue>lucky7Numbers[j].ticketValue){\n                    smallest = lucky7Numbers[j];\n                    aux = j;\n                }\n            }\n            if(aux!=i){\n                lucky7Numbers[aux]=lucky7Numbers[i];\n                lucky7Numbers[i] = smallest;\n            }\n        }\n    }\n    \n    function _orderLucky7Tickets() public onlyOwner{\n        Lucky7Ticket memory smallest;\n        uint aux;\n        uint j;\n        uint i;\n        for (i=0; i<numberOfLucky7Numbers; i++){\n            lucky7Tickets.push(\n                Lucky7Ticket(\n                    lucky7TicketDifference[i],\n                    lucky7TicketOwner[i],\n                    lucky7TicketID[i],\n                    tickets[lucky7TicketID[i]].ticketValue,\n                    lucky7Numbers[i].ticketValue,\n                    i,\n                    drawNumber)\n                    );\n        }\n        for(i=initialLucky7TicketPosition; i<numberOfLucky7Numbers+initialLucky7TicketPosition; i++){\n            aux = i;\n            smallest = lucky7Tickets[i];\n            for (j=i+1; j<numberOfLucky7Numbers+initialLucky7TicketPosition; j++){\n                if(smallest.difference>lucky7Tickets[j].difference){\n                    smallest = lucky7Tickets[j];\n                    aux = j;\n                }\n            }\n            if(aux!=i){\n                lucky7Tickets[aux]=lucky7Tickets[i];\n                lucky7Tickets[i] = smallest;\n            }\n        }\n    }\n\n    function _deliverPrizes() public onlyOwner{\n        uint winnersPrize = address(this).balance.mul(7);\n        winnersPrize = winnersPrize.div(10);\n        uint firstPrize = winnersPrize.mul(6);\n        uint secondPrize = winnersPrize.mul(3);\n        uint thirdPrize = winnersPrize.mul(1);\n        firstPrize = firstPrize.div(10);\n        secondPrize = secondPrize.div(10);\n        thirdPrize = thirdPrize.div(10);\n        uint i;\n        for(i=initialLucky7TicketPosition; i<numberOfLucky7Numbers+initialLucky7TicketPosition; i++){\n            if(lucky7Tickets[i].owner!=address(0x0)){\n                pendingWithdrawals[lucky7Tickets[i].owner] += firstPrize;\n                break;\n            }\n        }\n        \n        for(i++; i<numberOfLucky7Numbers+initialLucky7TicketPosition; i++){\n            if(lucky7Tickets[i].owner!=address(0x0)){\n                pendingWithdrawals[lucky7Tickets[i].owner] += secondPrize;\n                break;\n            }\n        }\n        \n        for(i++; i<numberOfLucky7Numbers+initialLucky7TicketPosition; i++){\n            if(lucky7Tickets[i].owner!=address(0x0)){\n                pendingWithdrawals[lucky7Tickets[i].owner] += thirdPrize;\n                break;\n            }\n        }\n        drawNumber++;\n        enterpriseWallet.transfer(address(this).balance);\n        for(i=0; i<numberOfLucky7Numbers; i++){\n            lucky7TicketOwner[i] = address(0x0);\n            lucky7TicketDifference[i] = 0;\n            lucky7TicketID[i] = 0;\n            lucky7Numbers[i].mu=\"0\";\n            lucky7Numbers[i].i=\"0\";\n            lucky7Numbers[i].ticketValue=0;\n            lucky7Numbers[i].drawID=drawNumber;\n        }\n    }\n    \n    function withdraw() public {\n        uint amount = pendingWithdrawals[msg.sender];\n        pendingWithdrawals[msg.sender] = 0;\n        msg.sender.transfer(amount);\n    }\n\n    function getlucky7Numbers() public view returns (uint[7]) {\n        uint[7] luckySevenNumbers;\n        for(uint i=0; i<numberOfLucky7Numbers; i++){\n            luckySevenNumbers[i]=lucky7Numbers[i].ticketValue;\n        }\n        return luckySevenNumbers;\n    }\n\n    function getlucky7Tickets() public view returns (uint[7]) {\n        uint[7] luckySevenTickets;\n        for(uint i=0; i<numberOfLucky7Numbers; i++){\n            if(lucky7TicketOwner[i]!=address(0x0)){\n                luckySevenTickets[i] = tickets[lucky7TicketID[i]].ticketValue;\n            }\n            else{\n                luckySevenTickets[i]=0;\n            }\n        }\n        return luckySevenTickets;\n    }\n\n    function () public payable {\n        \n    }\n}",
  "sourcePath": "/Users/matiasbarrios/Desktop/Proyecto Consensys/luckyseven/contracts/Lucky7Ballot.sol",
  "compiler": {
    "name": "solc",
    "version": "0.4.24+commit.e67f0147.Emscripten.clang"
  },
  "schemaVersion": "2.0.1",
  "updatedAt": "2018-08-24T20:45:46.124Z"
}