{
  "contractName": "Lucky7TicketArrenger",
  "abi": [
    {
      "constant": false,
      "inputs": [
        {
          "name": "_newValue",
          "type": "string"
        }
      ],
      "name": "modifyParameterN",
      "outputs": [],
      "payable": false,
      "stateMutability": "nonpayable",
      "type": "function"
    },
    {
      "constant": true,
      "inputs": [
        {
          "name": "",
          "type": "uint256"
        }
      ],
      "name": "lucky7TicketID",
      "outputs": [
        {
          "name": "",
          "type": "uint256"
        }
      ],
      "payable": false,
      "stateMutability": "view",
      "type": "function"
    },
    {
      "constant": true,
      "inputs": [
        {
          "name": "",
          "type": "uint256"
        }
      ],
      "name": "lucky7TicketOwner",
      "outputs": [
        {
          "name": "",
          "type": "address"
        }
      ],
      "payable": false,
      "stateMutability": "view",
      "type": "function"
    },
    {
      "constant": true,
      "inputs": [
        {
          "name": "",
          "type": "uint256"
        }
      ],
      "name": "ticketToOwner",
      "outputs": [
        {
          "name": "",
          "type": "address"
        }
      ],
      "payable": false,
      "stateMutability": "view",
      "type": "function"
    },
    {
      "constant": true,
      "inputs": [
        {
          "name": "",
          "type": "uint256"
        }
      ],
      "name": "lucky7Tickets",
      "outputs": [
        {
          "name": "difference",
          "type": "uint256"
        },
        {
          "name": "owner",
          "type": "address"
        },
        {
          "name": "ticketID",
          "type": "uint256"
        },
        {
          "name": "ticketValue",
          "type": "uint256"
        },
        {
          "name": "lucky7Number",
          "type": "uint256"
        }
      ],
      "payable": false,
      "stateMutability": "view",
      "type": "function"
    },
    {
      "constant": false,
      "inputs": [
        {
          "name": "_newValue",
          "type": "string"
        }
      ],
      "name": "modifyParameterJ",
      "outputs": [],
      "payable": false,
      "stateMutability": "nonpayable",
      "type": "function"
    },
    {
      "constant": true,
      "inputs": [
        {
          "name": "",
          "type": "uint256"
        }
      ],
      "name": "lucky7Numbers",
      "outputs": [
        {
          "name": "mu",
          "type": "string"
        },
        {
          "name": "i",
          "type": "string"
        },
        {
          "name": "ticketValue",
          "type": "uint256"
        },
        {
          "name": "drawID",
          "type": "uint256"
        }
      ],
      "payable": false,
      "stateMutability": "view",
      "type": "function"
    },
    {
      "constant": true,
      "inputs": [
        {
          "name": "",
          "type": "address"
        }
      ],
      "name": "userValues",
      "outputs": [
        {
          "name": "mu",
          "type": "string"
        },
        {
          "name": "i",
          "type": "string"
        },
        {
          "name": "ticketValue",
          "type": "uint256"
        },
        {
          "name": "muReady",
          "type": "bool"
        },
        {
          "name": "iReady",
          "type": "bool"
        },
        {
          "name": "userPaidTicket",
          "type": "bool"
        }
      ],
      "payable": false,
      "stateMutability": "view",
      "type": "function"
    },
    {
      "constant": true,
      "inputs": [
        {
          "name": "",
          "type": "uint256"
        }
      ],
      "name": "tickets",
      "outputs": [
        {
          "name": "mu",
          "type": "string"
        },
        {
          "name": "i",
          "type": "string"
        },
        {
          "name": "ticketValue",
          "type": "uint256"
        },
        {
          "name": "owner",
          "type": "address"
        },
        {
          "name": "drawID",
          "type": "uint256"
        }
      ],
      "payable": false,
      "stateMutability": "view",
      "type": "function"
    },
    {
      "constant": false,
      "inputs": [],
      "name": "renounceOwnership",
      "outputs": [],
      "payable": false,
      "stateMutability": "nonpayable",
      "type": "function"
    },
    {
      "constant": false,
      "inputs": [
        {
          "name": "_newValue",
          "type": "uint256"
        }
      ],
      "name": "modifyOraclizeGasLimit",
      "outputs": [],
      "payable": false,
      "stateMutability": "nonpayable",
      "type": "function"
    },
    {
      "constant": false,
      "inputs": [
        {
          "name": "_newValue",
          "type": "string"
        }
      ],
      "name": "modifyParameterB",
      "outputs": [],
      "payable": false,
      "stateMutability": "nonpayable",
      "type": "function"
    },
    {
      "constant": false,
      "inputs": [
        {
          "name": "_newValue",
          "type": "uint256"
        }
      ],
      "name": "modifyGenerateTicketPrice",
      "outputs": [],
      "payable": false,
      "stateMutability": "nonpayable",
      "type": "function"
    },
    {
      "constant": true,
      "inputs": [],
      "name": "owner",
      "outputs": [
        {
          "name": "",
          "type": "address"
        }
      ],
      "payable": false,
      "stateMutability": "view",
      "type": "function"
    },
    {
      "constant": false,
      "inputs": [
        {
          "name": "_newAddress",
          "type": "address"
        }
      ],
      "name": "modifyEnterprisePrize",
      "outputs": [],
      "payable": false,
      "stateMutability": "nonpayable",
      "type": "function"
    },
    {
      "constant": false,
      "inputs": [
        {
          "name": "_newValue",
          "type": "string"
        }
      ],
      "name": "modifyParameterP",
      "outputs": [],
      "payable": false,
      "stateMutability": "nonpayable",
      "type": "function"
    },
    {
      "constant": false,
      "inputs": [
        {
          "name": "_newValue",
          "type": "uint256"
        }
      ],
      "name": "modifySellTicketPrice",
      "outputs": [],
      "payable": false,
      "stateMutability": "nonpayable",
      "type": "function"
    },
    {
      "constant": false,
      "inputs": [
        {
          "name": "_newValue",
          "type": "uint256"
        }
      ],
      "name": "modifyNumberOfLucky7Numbers",
      "outputs": [],
      "payable": false,
      "stateMutability": "nonpayable",
      "type": "function"
    },
    {
      "constant": false,
      "inputs": [
        {
          "name": "_newValue",
          "type": "uint256"
        }
      ],
      "name": "modifyNumberOfWinners",
      "outputs": [],
      "payable": false,
      "stateMutability": "nonpayable",
      "type": "function"
    },
    {
      "constant": false,
      "inputs": [
        {
          "name": "_newValue",
          "type": "uint256"
        }
      ],
      "name": "modifyOraclizeCustomGasPrice",
      "outputs": [],
      "payable": false,
      "stateMutability": "nonpayable",
      "type": "function"
    },
    {
      "constant": true,
      "inputs": [
        {
          "name": "",
          "type": "uint256"
        }
      ],
      "name": "lucky7TicketDifference",
      "outputs": [
        {
          "name": "",
          "type": "uint256"
        }
      ],
      "payable": false,
      "stateMutability": "view",
      "type": "function"
    },
    {
      "constant": true,
      "inputs": [
        {
          "name": "",
          "type": "uint256"
        }
      ],
      "name": "ExactLucky7TicketOwner",
      "outputs": [
        {
          "name": "",
          "type": "address"
        }
      ],
      "payable": false,
      "stateMutability": "view",
      "type": "function"
    },
    {
      "constant": false,
      "inputs": [
        {
          "name": "_newOwner",
          "type": "address"
        }
      ],
      "name": "transferOwnership",
      "outputs": [],
      "payable": false,
      "stateMutability": "nonpayable",
      "type": "function"
    },
    {
      "anonymous": false,
      "inputs": [
        {
          "indexed": false,
          "name": "feeType",
          "type": "string"
        },
        {
          "indexed": false,
          "name": "_oldValue",
          "type": "uint256"
        },
        {
          "indexed": false,
          "name": "_newValue",
          "type": "uint256"
        }
      ],
      "name": "numberModified",
      "type": "event"
    },
    {
      "anonymous": false,
      "inputs": [
        {
          "indexed": false,
          "name": "parameter",
          "type": "string"
        },
        {
          "indexed": false,
          "name": "_oldValue",
          "type": "string"
        },
        {
          "indexed": false,
          "name": "_newValue",
          "type": "string"
        }
      ],
      "name": "parameterModified",
      "type": "event"
    },
    {
      "anonymous": false,
      "inputs": [
        {
          "indexed": false,
          "name": "parameter",
          "type": "string"
        },
        {
          "indexed": false,
          "name": "_oldValue",
          "type": "address"
        },
        {
          "indexed": false,
          "name": "_newValue",
          "type": "address"
        }
      ],
      "name": "walletModified",
      "type": "event"
    },
    {
      "anonymous": false,
      "inputs": [
        {
          "indexed": true,
          "name": "previousOwner",
          "type": "address"
        }
      ],
      "name": "OwnershipRenounced",
      "type": "event"
    },
    {
      "anonymous": false,
      "inputs": [
        {
          "indexed": true,
          "name": "previousOwner",
          "type": "address"
        },
        {
          "indexed": true,
          "name": "newOwner",
          "type": "address"
        }
      ],
      "name": "OwnershipTransferred",
      "type": "event"
    },
    {
      "constant": false,
      "inputs": [],
      "name": "toggleLucky7Setting",
      "outputs": [],
      "payable": false,
      "stateMutability": "nonpayable",
      "type": "function"
    },
    {
      "constant": false,
      "inputs": [
        {
          "name": "_ticketID",
          "type": "uint256"
        }
      ],
      "name": "_checkForLucky7Ticket",
      "outputs": [
        {
          "name": "",
          "type": "uint256"
        }
      ],
      "payable": false,
      "stateMutability": "nonpayable",
      "type": "function"
    }
  ],
  "bytecode": "0x60806040526040805190810160405280600181526020017f310000000000000000000000000000000000000000000000000000000000000081525060019080519060200190620000519291906200022b565b506040805190810160405280600181526020017f3800000000000000000000000000000000000000000000000000000000000000815250600290805190602001906200009f9291906200022b565b506040805190810160405280600481526020017f313030300000000000000000000000000000000000000000000000000000000081525060039080519060200190620000ed9291906200022b565b506040805190810160405280600281526020017f3230000000000000000000000000000000000000000000000000000000000000815250600490805190602001906200013b9291906200022b565b5060076005556003600655660110d9316ec000600755660aa87bee538000600855624c4b4060095563ee6b2800600a5573265a5c3dd46ec82e2744f1d0e9fb4ed75d56132a600b60006101000a81548173ffffffffffffffffffffffffffffffffffffffff021916908373ffffffffffffffffffffffffffffffffffffffff1602179055506001600b60146101000a81548160ff0219169083151502179055506000600c556000600d55336000806101000a81548173ffffffffffffffffffffffffffffffffffffffff021916908373ffffffffffffffffffffffffffffffffffffffff160217905550620002da565b828054600181600116156101000203166002900490600052602060002090601f016020900481019282601f106200026e57805160ff19168380011785556200029f565b828001600101855582156200029f579182015b828111156200029e57825182559160200191906001019062000281565b5b509050620002ae9190620002b2565b5090565b620002d791905b80821115620002d3576000816000905550600101620002b9565b5090565b90565b612a9c80620002ea6000396000f300608060405260043610610149576000357c0100000000000000000000000000000000000000000000000000000000900463ffffffff1680630cc38b2b1461014e57806310cd4b8a146101b75780631c3ed1d3146101f85780632b08e824146102655780632de729eb146102d2578063396fb4221461031357806339df3f4f1461039c5780633bb7daf4146103b35780633eba34661461041c5780634acfd9b81461053c57806350b447121461068c578063715018a6146107df578063809fc153146107f657806383bb7bb7146108235780638aa5fafa1461088c5780638da5cb5b146108b957806396701ce9146109105780639dec38ab14610953578063bcb740ab146109bc578063c71f04ac146109e9578063c90cdc7e14610a16578063d383e86214610a43578063e802ae1414610a70578063eaaa680a14610ab1578063f2fde38b14610b1e575b600080fd5b34801561015a57600080fd5b506101b5600480360381019080803590602001908201803590602001908080601f0160208091040260200160405190810160405280939291908181526020018383808284378201915050505050509192919290505050610b61565b005b3480156101c357600080fd5b506101e260048036038101908080359060200190929190505050610db8565b6040518082815260200191505060405180910390f35b34801561020457600080fd5b5061022360048036038101908080359060200190929190505050610dd0565b604051808273ffffffffffffffffffffffffffffffffffffffff1673ffffffffffffffffffffffffffffffffffffffff16815260200191505060405180910390f35b34801561027157600080fd5b5061029060048036038101908080359060200190929190505050610e03565b604051808273ffffffffffffffffffffffffffffffffffffffff1673ffffffffffffffffffffffffffffffffffffffff16815260200191505060405180910390f35b3480156102de57600080fd5b506102fd60048036038101908080359060200190929190505050610e36565b6040518082815260200191505060405180910390f35b34801561031f57600080fd5b5061033e600480360381019080803590602001909291905050506112c8565b604051808681526020018573ffffffffffffffffffffffffffffffffffffffff1673ffffffffffffffffffffffffffffffffffffffff1681526020018481526020018381526020018281526020019550505050505060405180910390f35b3480156103a857600080fd5b506103b1611323565b005b3480156103bf57600080fd5b5061041a600480360381019080803590602001908201803590602001908080601f01602080910402602001604051908101604052809392919081815260200183838082843782019150505050505091929192905050506113aa565b005b34801561042857600080fd5b5061044760048036038101908080359060200190929190505050611601565b604051808060200180602001858152602001848152602001838103835287818151815260200191508051906020019080838360005b8381101561049757808201518184015260208101905061047c565b50505050905090810190601f1680156104c45780820380516001836020036101000a031916815260200191505b50838103825286818151815260200191508051906020019080838360005b838110156104fd5780820151818401526020810190506104e2565b50505050905090810190601f16801561052a5780820380516001836020036101000a031916815260200191505b50965050505050505060405180910390f35b34801561054857600080fd5b5061057d600480360381019080803573ffffffffffffffffffffffffffffffffffffffff169060200190929190505050611766565b604051808060200180602001878152602001861515151581526020018515151515815260200184151515158152602001838103835289818151815260200191508051906020019080838360005b838110156105e55780820151818401526020810190506105ca565b50505050905090810190601f1680156106125780820380516001836020036101000a031916815260200191505b50838103825288818151815260200191508051906020019080838360005b8381101561064b578082015181840152602081019050610630565b50505050905090810190601f1680156106785780820380516001836020036101000a031916815260200191505b509850505050505050505060405180910390f35b34801561069857600080fd5b506106b7600480360381019080803590602001909291905050506118f9565b6040518080602001806020018681526020018573ffffffffffffffffffffffffffffffffffffffff1673ffffffffffffffffffffffffffffffffffffffff168152602001848152602001838103835288818151815260200191508051906020019080838360005b8381101561073957808201518184015260208101905061071e565b50505050905090810190601f1680156107665780820380516001836020036101000a031916815260200191505b50838103825287818151815260200191508051906020019080838360005b8381101561079f578082015181840152602081019050610784565b50505050905090810190601f1680156107cc5780820380516001836020036101000a031916815260200191505b5097505050505050505060405180910390f35b3480156107eb57600080fd5b506107f4611a8e565b005b34801561080257600080fd5b5061082160048036038101908080359060200190929190505050611b90565b005b34801561082f57600080fd5b5061088a600480360381019080803590602001908201803590602001908080601f0160208091040260200160405190810160405280939291908181526020018383808284378201915050505050509192919290505050611c75565b005b34801561089857600080fd5b506108b760048036038101908080359060200190929190505050611ecc565b005b3480156108c557600080fd5b506108ce611fb1565b604051808273ffffffffffffffffffffffffffffffffffffffff1673ffffffffffffffffffffffffffffffffffffffff16815260200191505060405180910390f35b34801561091c57600080fd5b50610951600480360381019080803573ffffffffffffffffffffffffffffffffffffffff169060200190929190505050611fd6565b005b34801561095f57600080fd5b506109ba600480360381019080803590602001908201803590602001908080601f016020809104026020016040519081016040528093929190818152602001838380828437820191505050505050919291929050505061216d565b005b3480156109c857600080fd5b506109e7600480360381019080803590602001909291905050506123c4565b005b3480156109f557600080fd5b50610a14600480360381019080803590602001909291905050506124a9565b005b348015610a2257600080fd5b50610a416004803603810190808035906020019092919050505061258e565b005b348015610a4f57600080fd5b50610a6e60048036038101908080359060200190929190505050612673565b005b348015610a7c57600080fd5b50610a9b6004803603810190808035906020019092919050505061277e565b6040518082815260200191505060405180910390f35b348015610abd57600080fd5b50610adc60048036038101908080359060200190929190505050612796565b604051808273ffffffffffffffffffffffffffffffffffffffff1673ffffffffffffffffffffffffffffffffffffffff16815260200191505060405180910390f35b348015610b2a57600080fd5b50610b5f600480360381019080803573ffffffffffffffffffffffffffffffffffffffff1690602001909291905050506127c9565b005b60606000809054906101000a900473ffffffffffffffffffffffffffffffffffffffff1673ffffffffffffffffffffffffffffffffffffffff163373ffffffffffffffffffffffffffffffffffffffff16141515610bbe57600080fd5b60028054600181600116156101000203166002900480601f016020809104026020016040519081016040528092919081815260200182805460018160011615610100020316600290048015610c545780601f10610c2957610100808354040283529160200191610c54565b820191906000526020600020905b815481529060010190602001808311610c3757829003601f168201915b505050505090508160029080519060200190610c719291906129cb565b507f7ecbd54b3baea533cf57ef049f9e04554be6a660d6dacd477488066eedf27bee818360405180806020018060200180602001848103845260148152602001807f506172616d65746572206e206d6f646966696564000000000000000000000000815250602001848103835286818151815260200191508051906020019080838360005b83811015610d11578082015181840152602081019050610cf6565b50505050905090810190601f168015610d3e5780820380516001836020036101000a031916815260200191505b50848103825285818151815260200191508051906020019080838360005b83811015610d77578082015181840152602081019050610d5c565b50505050905090810190601f168015610da45780820380516001836020036101000a031916815260200191505b509550505050505060405180910390a15050565b60536020528060005260406000206000915090505481565b60526020528060005260406000206000915054906101000a900473ffffffffffffffffffffffffffffffffffffffff1681565b604f6020528060005260406000206000915054906101000a900473ffffffffffffffffffffffffffffffffffffffff1681565b6000806000806000600f600160055403600781101515610e5257fe5b6004020160020154600e87815481101515610e6957fe5b9060005260206000209060050201600201541115610f9e576001600554039350610ed2600f85600781101515610e9b57fe5b6004020160020154600e88815481101515610eb257fe5b90600052602060002090600502016002015461283090919063ffffffff16565b9250600073ffffffffffffffffffffffffffffffffffffffff166052600086815260200190815260200160002060009054906101000a900473ffffffffffffffffffffffffffffffffffffffff1673ffffffffffffffffffffffffffffffffffffffff161480610f545750605160008581526020019081526020016000205483105b15610f9957610f9884604f600089815260200190815260200160002060009054906101000a900473ffffffffffffffffffffffffffffffffffffffff168589612849565b5b6112bc565b600f6000600781101515610fae57fe5b6004020160020154600e87815481101515610fc557fe5b90600052602060002090600502016002015410156110f6576000935061102a600e87815481101515610ff357fe5b906000526020600020906005020160020154600f8660078110151561101457fe5b600402016002015461283090919063ffffffff16565b9250600073ffffffffffffffffffffffffffffffffffffffff166052600086815260200190815260200160002060009054906101000a900473ffffffffffffffffffffffffffffffffffffffff1673ffffffffffffffffffffffffffffffffffffffff1614806110ac5750605160008581526020019081526020016000205483105b156110f1576110f084604f600089815260200190815260200160002060009054906101000a900473ffffffffffffffffffffffffffffffffffffffff168589612849565b5b6112bb565b5b600f8460078110151561110657fe5b6004020160020154600e8781548110151561111d57fe5b90600052602060002090600502016002015411156111425783806001019450506110f7565b61118e600f6001860360078110151561115757fe5b6004020160020154600e8881548110151561116e57fe5b90600052602060002090600502016002015461283090919063ffffffff16565b91506111d9600e878154811015156111a257fe5b906000526020600020906005020160020154600f866007811015156111c357fe5b600402016002015461283090919063ffffffff16565b9050818111156111f1576001840393508192506111f5565b8092505b600073ffffffffffffffffffffffffffffffffffffffff166052600086815260200190815260200160002060009054906101000a900473ffffffffffffffffffffffffffffffffffffffff1673ffffffffffffffffffffffffffffffffffffffff1614806112755750605160008581526020019081526020016000205483105b156112ba576112b984604f600089815260200190815260200160002060009054906101000a900473ffffffffffffffffffffffffffffffffffffffff168589612849565b5b5b5b83945050505050919050565b602b816007811015156112d757fe5b600502016000915090508060000154908060010160009054906101000a900473ffffffffffffffffffffffffffffffffffffffff16908060020154908060030154908060040154905085565b6000809054906101000a900473ffffffffffffffffffffffffffffffffffffffff1673ffffffffffffffffffffffffffffffffffffffff163373ffffffffffffffffffffffffffffffffffffffff1614151561137e57600080fd5b600b60149054906101000a900460ff1615600b60146101000a81548160ff021916908315150217905550565b60606000809054906101000a900473ffffffffffffffffffffffffffffffffffffffff1673ffffffffffffffffffffffffffffffffffffffff163373ffffffffffffffffffffffffffffffffffffffff1614151561140757600080fd5b60048054600181600116156101000203166002900480601f01602080910402602001604051908101604052809291908181526020018280546001816001161561010002031660029004801561149d5780601f106114725761010080835404028352916020019161149d565b820191906000526020600020905b81548152906001019060200180831161148057829003601f168201915b5050505050905081600490805190602001906114ba9291906129cb565b507f7ecbd54b3baea533cf57ef049f9e04554be6a660d6dacd477488066eedf27bee818360405180806020018060200180602001848103845260148152602001807f506172616d65746572206a206d6f646966696564000000000000000000000000815250602001848103835286818151815260200191508051906020019080838360005b8381101561155a57808201518184015260208101905061153f565b50505050905090810190601f1680156115875780820380516001836020036101000a031916815260200191505b50848103825285818151815260200191508051906020019080838360005b838110156115c05780820151818401526020810190506115a5565b50505050905090810190601f1680156115ed5780820380516001836020036101000a031916815260200191505b509550505050505060405180910390a15050565b600f8160078110151561161057fe5b60040201600091509050806000018054600181600116156101000203166002900480601f0160208091040260200160405190810160405280929190818152602001828054600181600116156101000203166002900480156116b25780601f10611687576101008083540402835291602001916116b2565b820191906000526020600020905b81548152906001019060200180831161169557829003601f168201915b505050505090806001018054600181600116156101000203166002900480601f0160208091040260200160405190810160405280929190818152602001828054600181600116156101000203166002900480156117505780601f1061172557610100808354040283529160200191611750565b820191906000526020600020905b81548152906001019060200180831161173357829003601f168201915b5050505050908060020154908060030154905084565b604e602052806000526040600020600091509050806000018054600181600116156101000203166002900480601f0160208091040260200160405190810160405280929190818152602001828054600181600116156101000203166002900480156118125780601f106117e757610100808354040283529160200191611812565b820191906000526020600020905b8154815290600101906020018083116117f557829003601f168201915b505050505090806001018054600181600116156101000203166002900480601f0160208091040260200160405190810160405280929190818152602001828054600181600116156101000203166002900480156118b05780601f10611885576101008083540402835291602001916118b0565b820191906000526020600020905b81548152906001019060200180831161189357829003601f168201915b5050505050908060020154908060030160009054906101000a900460ff16908060030160019054906101000a900460ff16908060030160029054906101000a900460ff16905086565b600e8181548110151561190857fe5b9060005260206000209060050201600091509050806000018054600181600116156101000203166002900480601f0160208091040260200160405190810160405280929190818152602001828054600181600116156101000203166002900480156119b45780601f10611989576101008083540402835291602001916119b4565b820191906000526020600020905b81548152906001019060200180831161199757829003601f168201915b505050505090806001018054600181600116156101000203166002900480601f016020809104026020016040519081016040528092919081815260200182805460018160011615610100020316600290048015611a525780601f10611a2757610100808354040283529160200191611a52565b820191906000526020600020905b815481529060010190602001808311611a3557829003601f168201915b5050505050908060020154908060030160009054906101000a900473ffffffffffffffffffffffffffffffffffffffff16908060040154905085565b6000809054906101000a900473ffffffffffffffffffffffffffffffffffffffff1673ffffffffffffffffffffffffffffffffffffffff163373ffffffffffffffffffffffffffffffffffffffff16141515611ae957600080fd5b6000809054906101000a900473ffffffffffffffffffffffffffffffffffffffff1673ffffffffffffffffffffffffffffffffffffffff167ff8df31144d9c2f0f6b59d69b8b98abd5459d07f2742c4df920b25aae33c6482060405160405180910390a260008060006101000a81548173ffffffffffffffffffffffffffffffffffffffff021916908373ffffffffffffffffffffffffffffffffffffffff160217905550565b60008060009054906101000a900473ffffffffffffffffffffffffffffffffffffffff1673ffffffffffffffffffffffffffffffffffffffff163373ffffffffffffffffffffffffffffffffffffffff16141515611bed57600080fd5b6009549050816009819055507f9bc068999fb1a0aac007a9b44ca6322a376441f42706bf5163600bb3d1a73164818360405180806020018481526020018381526020018281038252601a8152602001807f4f7261636c697a6520676173206c696d6974206368616e676564000000000000815250602001935050505060405180910390a15050565b60606000809054906101000a900473ffffffffffffffffffffffffffffffffffffffff1673ffffffffffffffffffffffffffffffffffffffff163373ffffffffffffffffffffffffffffffffffffffff16141515611cd257600080fd5b60018054600181600116156101000203166002900480601f016020809104026020016040519081016040528092919081815260200182805460018160011615610100020316600290048015611d685780601f10611d3d57610100808354040283529160200191611d68565b820191906000526020600020905b815481529060010190602001808311611d4b57829003601f168201915b505050505090508160019080519060200190611d859291906129cb565b507f7ecbd54b3baea533cf57ef049f9e04554be6a660d6dacd477488066eedf27bee818360405180806020018060200180602001848103845260148152602001807f506172616d657465722062206d6f646966696564000000000000000000000000815250602001848103835286818151815260200191508051906020019080838360005b83811015611e25578082015181840152602081019050611e0a565b50505050905090810190601f168015611e525780820380516001836020036101000a031916815260200191505b50848103825285818151815260200191508051906020019080838360005b83811015611e8b578082015181840152602081019050611e70565b50505050905090810190601f168015611eb85780820380516001836020036101000a031916815260200191505b509550505050505060405180910390a15050565b60008060009054906101000a900473ffffffffffffffffffffffffffffffffffffffff1673ffffffffffffffffffffffffffffffffffffffff163373ffffffffffffffffffffffffffffffffffffffff16141515611f2957600080fd5b6007549050816007819055507f9bc068999fb1a0aac007a9b44ca6322a376441f42706bf5163600bb3d1a73164818360405180806020018481526020018381526020018281038252601d8152602001807f47656e6572617465207469636b6574207072696365206368616e676564000000815250602001935050505060405180910390a15050565b6000809054906101000a900473ffffffffffffffffffffffffffffffffffffffff1681565b60008060009054906101000a900473ffffffffffffffffffffffffffffffffffffffff1673ffffffffffffffffffffffffffffffffffffffff163373ffffffffffffffffffffffffffffffffffffffff1614151561203357600080fd5b600b60009054906101000a900473ffffffffffffffffffffffffffffffffffffffff16905081600b60006101000a81548173ffffffffffffffffffffffffffffffffffffffff021916908373ffffffffffffffffffffffffffffffffffffffff1602179055507f223db053947bb148de510715d3c7d8ccd72bdd376752fd735ee7bd0bd0ece5bf818360405180806020018473ffffffffffffffffffffffffffffffffffffffff1673ffffffffffffffffffffffffffffffffffffffff1681526020018373ffffffffffffffffffffffffffffffffffffffff1673ffffffffffffffffffffffffffffffffffffffff168152602001828103825260198152602001807f456e74657270726973652077616c6c6574206368616e67656400000000000000815250602001935050505060405180910390a15050565b60606000809054906101000a900473ffffffffffffffffffffffffffffffffffffffff1673ffffffffffffffffffffffffffffffffffffffff163373ffffffffffffffffffffffffffffffffffffffff161415156121ca57600080fd5b60038054600181600116156101000203166002900480601f0160208091040260200160405190810160405280929190818152602001828054600181600116156101000203166002900480156122605780601f1061223557610100808354040283529160200191612260565b820191906000526020600020905b81548152906001019060200180831161224357829003601f168201915b50505050509050816003908051906020019061227d9291906129cb565b507f7ecbd54b3baea533cf57ef049f9e04554be6a660d6dacd477488066eedf27bee818360405180806020018060200180602001848103845260148152602001807f506172616d657465722070206d6f646966696564000000000000000000000000815250602001848103835286818151815260200191508051906020019080838360005b8381101561231d578082015181840152602081019050612302565b50505050905090810190601f16801561234a5780820380516001836020036101000a031916815260200191505b50848103825285818151815260200191508051906020019080838360005b83811015612383578082015181840152602081019050612368565b50505050905090810190601f1680156123b05780820380516001836020036101000a031916815260200191505b509550505050505060405180910390a15050565b60008060009054906101000a900473ffffffffffffffffffffffffffffffffffffffff1673ffffffffffffffffffffffffffffffffffffffff163373ffffffffffffffffffffffffffffffffffffffff1614151561242157600080fd5b6008549050816008819055507f9bc068999fb1a0aac007a9b44ca6322a376441f42706bf5163600bb3d1a7316481836040518080602001848152602001838152602001828103825260198152602001807f53656c6c207469636b6574207072696365206368616e67656400000000000000815250602001935050505060405180910390a15050565b60008060009054906101000a900473ffffffffffffffffffffffffffffffffffffffff1673ffffffffffffffffffffffffffffffffffffffff163373ffffffffffffffffffffffffffffffffffffffff1614151561250657600080fd5b6008549050816008819055507f9bc068999fb1a0aac007a9b44ca6322a376441f42706bf5163600bb3d1a7316481836040518080602001848152602001838152602001828103825260198152602001807f53656c6c207469636b6574207072696365206368616e67656400000000000000815250602001935050505060405180910390a15050565b60008060009054906101000a900473ffffffffffffffffffffffffffffffffffffffff1673ffffffffffffffffffffffffffffffffffffffff163373ffffffffffffffffffffffffffffffffffffffff161415156125eb57600080fd5b6006549050816006819055507f9bc068999fb1a0aac007a9b44ca6322a376441f42706bf5163600bb3d1a7316481836040518080602001848152602001838152602001828103825260198152602001807f4e756d626572206f662077696e6e657273206368616e67656400000000000000815250602001935050505060405180910390a15050565b60008060009054906101000a900473ffffffffffffffffffffffffffffffffffffffff1673ffffffffffffffffffffffffffffffffffffffff163373ffffffffffffffffffffffffffffffffffffffff161415156126d057600080fd5b600a54905081600a819055507f9bc068999fb1a0aac007a9b44ca6322a376441f42706bf5163600bb3d1a7316481836040518080602001848152602001838152602001828103825260218152602001807f4f7261636c697a6520637573746f6d20676173207072696365206368616e676581526020017f6400000000000000000000000000000000000000000000000000000000000000815250604001935050505060405180910390a15050565b60516020528060005260406000206000915090505481565b60546020528060005260406000206000915054906101000a900473ffffffffffffffffffffffffffffffffffffffff1681565b6000809054906101000a900473ffffffffffffffffffffffffffffffffffffffff1673ffffffffffffffffffffffffffffffffffffffff163373ffffffffffffffffffffffffffffffffffffffff1614151561282457600080fd5b61282d816128d1565b50565b600082821115151561283e57fe5b818303905092915050565b826052600086815260200190815260200160002060006101000a81548173ffffffffffffffffffffffffffffffffffffffff021916908373ffffffffffffffffffffffffffffffffffffffff16021790555081605160008681526020019081526020016000208190555080605360008681526020019081526020016000208190555050505050565b600073ffffffffffffffffffffffffffffffffffffffff168173ffffffffffffffffffffffffffffffffffffffff161415151561290d57600080fd5b8073ffffffffffffffffffffffffffffffffffffffff166000809054906101000a900473ffffffffffffffffffffffffffffffffffffffff1673ffffffffffffffffffffffffffffffffffffffff167f8be0079c531659141344cd1fd0a4f28419497f9722a3daafe3b4186f6b6457e060405160405180910390a3806000806101000a81548173ffffffffffffffffffffffffffffffffffffffff021916908373ffffffffffffffffffffffffffffffffffffffff16021790555050565b828054600181600116156101000203166002900490600052602060002090601f016020900481019282601f10612a0c57805160ff1916838001178555612a3a565b82800160010185558215612a3a579182015b82811115612a39578251825591602001919060010190612a1e565b5b509050612a479190612a4b565b5090565b612a6d91905b80821115612a69576000816000905550600101612a51565b5090565b905600a165627a7a72305820bce7304115a88b41f5ad60a19c4a0ffcd52301613fe90521f05704a9aa332bbc0029",
  "source": "pragma solidity ^0.4.20;\nimport \"./Lucky7Admin.sol\";\n\n\ncontract Lucky7TicketArrenger is Lucky7Admin{\n    \n    //Circuit breakers\n    bool internal settingLucky7Numbers = true;\n    \n    function toggleLucky7Setting() public onlyOwner{\n        settingLucky7Numbers = !settingLucky7Numbers;\n    }\n    \n    uint drawNumber = 0;\n    uint indexForLucky7Array = 0;\n\n    struct Ticket{\n        string mu;\n        string i;\n        uint ticketValue;\n        address owner;\n        uint drawID;\n    }\n    \n    struct Lucky7Number{\n        string mu;\n        string i;\n        uint ticketValue;\n        uint drawID;\n    }\n    \n    struct Lucky7Ticket{\n        uint difference;\n        address owner;\n        uint ticketID;\n        uint ticketValue;\n        uint lucky7Number;\n    }\n\n    struct UserParametersValue{\n        string mu;\n        string i;\n        uint ticketValue;\n        bool muReady;\n        bool iReady;\n        bool userPaidTicket;\n    }\n    \n    Ticket[] public tickets;    \n    Lucky7Number[7] public lucky7Numbers;\n    Lucky7Ticket[7] public lucky7Tickets;\n    \n    mapping (address => UserParametersValue) public userValues;\n    mapping (uint => address) public ticketToOwner;\n    mapping (address => uint) ownerTicketCount;\n    mapping (uint => uint) public lucky7TicketDifference;\n    mapping (uint => address) public lucky7TicketOwner;\n    mapping (uint => uint) public lucky7TicketID;\n    mapping (uint => address) public ExactLucky7TicketOwner;\n    \n    function _insertTicket(address _ticketOwner) internal {\n        uint id = tickets.push(Ticket(userValues[_ticketOwner].mu,userValues[_ticketOwner].i,userValues[_ticketOwner].ticketValue,_ticketOwner,drawNumber)) - 1;\n        ticketToOwner[id] = _ticketOwner;\n        ownerTicketCount[_ticketOwner]++;\n        _checkForLucky7Ticket(id);\n    }\n    \n    function _insertLucky7Number(address _ticketOwner) internal {\n        lucky7Numbers[indexForLucky7Array] = Lucky7Number(userValues[_ticketOwner].mu,userValues[_ticketOwner].i,userValues[_ticketOwner].ticketValue,drawNumber);\n        indexForLucky7Array++;\n    }\n    \n    function _checkForLucky7Ticket(uint _ticketID) public/*internal*/ returns (uint256){\n        uint256 i;\n        uint difference;\n        uint lowerLucky7NumberDifference;\n        uint upperLucky7NumberDifference;\n        \n        if(tickets[_ticketID].ticketValue>lucky7Numbers[numberOfLucky7Numbers-1].ticketValue){\n            i=numberOfLucky7Numbers-1;\n            difference = tickets[_ticketID].ticketValue.sub(lucky7Numbers[i].ticketValue);\n            if(lucky7TicketOwner[i] == address(0x0) || difference<lucky7TicketDifference[i]){\n                _updateLucky7Ticket(i,ticketToOwner[_ticketID],difference,_ticketID);\n            }\n        }\n        else if (tickets[_ticketID].ticketValue<lucky7Numbers[0].ticketValue){\n            i=0;\n            difference = lucky7Numbers[i].ticketValue.sub(tickets[_ticketID].ticketValue);\n            if(lucky7TicketOwner[i] == address(0x0) || difference<lucky7TicketDifference[i]){\n                _updateLucky7Ticket(i,ticketToOwner[_ticketID],difference,_ticketID);\n            }\n        }\n        else{\n            while(tickets[_ticketID].ticketValue>lucky7Numbers[i].ticketValue){\n                i++;\n            }\n            \n            lowerLucky7NumberDifference = tickets[_ticketID].ticketValue.sub(lucky7Numbers[i-1].ticketValue);\n            upperLucky7NumberDifference = lucky7Numbers[i].ticketValue.sub(tickets[_ticketID].ticketValue);\n            \n            if(upperLucky7NumberDifference>lowerLucky7NumberDifference){\n                i=i-1;\n                difference = lowerLucky7NumberDifference;\n            }\n            else{\n                difference = upperLucky7NumberDifference;\n            }\n            \n            if(lucky7TicketOwner[i] == address(0x0) || difference<lucky7TicketDifference[i]){\n                _updateLucky7Ticket(i,ticketToOwner[_ticketID],difference,_ticketID);\n            }\n        }\n        return i;\n    }\n    \n    function _updateLucky7Ticket(uint _i, address _ticketOwner, uint _difference, uint _ticketID) \n        internal{\n        lucky7TicketOwner[_i] = _ticketOwner;\n        lucky7TicketDifference[_i] = _difference;\n        lucky7TicketID[_i] = _ticketID;\n    }\n}   \n                                           \n",
  "sourcePath": "/Users/matiasbarrios/Desktop/Proyecto Consensys/luckyseven/contracts/Lucky7TicketArrenger.sol",
  "compiler": {
    "name": "solc",
    "version": "0.4.24+commit.e67f0147.Emscripten.clang"
  },
  "schemaVersion": "2.0.1",
  "updatedAt": "2018-08-13T13:55:35.162Z"
}