{
  "contractName": "Lucky7Store",
  "abi": [
    {
      "constant": false,
      "inputs": [
        {
          "name": "_newValue",
          "type": "string"
        }
      ],
      "name": "modifyParameterN",
      "outputs": [],
      "payable": false,
      "stateMutability": "nonpayable",
      "type": "function"
    },
    {
      "constant": true,
      "inputs": [
        {
          "name": "",
          "type": "uint256"
        }
      ],
      "name": "lucky7TicketID",
      "outputs": [
        {
          "name": "",
          "type": "uint256"
        }
      ],
      "payable": false,
      "stateMutability": "view",
      "type": "function"
    },
    {
      "constant": true,
      "inputs": [
        {
          "name": "",
          "type": "uint256"
        }
      ],
      "name": "lucky7TicketOwner",
      "outputs": [
        {
          "name": "",
          "type": "address"
        }
      ],
      "payable": false,
      "stateMutability": "view",
      "type": "function"
    },
    {
      "constant": false,
      "inputs": [],
      "name": "_orderLucky7Tickets",
      "outputs": [],
      "payable": false,
      "stateMutability": "nonpayable",
      "type": "function"
    },
    {
      "constant": false,
      "inputs": [
        {
          "name": "_ticketOwner",
          "type": "address"
        }
      ],
      "name": "_askForMuParameter",
      "outputs": [],
      "payable": false,
      "stateMutability": "nonpayable",
      "type": "function"
    },
    {
      "constant": false,
      "inputs": [
        {
          "name": "myid",
          "type": "bytes32"
        },
        {
          "name": "result",
          "type": "string"
        }
      ],
      "name": "__callback",
      "outputs": [],
      "payable": false,
      "stateMutability": "nonpayable",
      "type": "function"
    },
    {
      "constant": true,
      "inputs": [],
      "name": "settingLucky7Numbers",
      "outputs": [
        {
          "name": "",
          "type": "bool"
        }
      ],
      "payable": false,
      "stateMutability": "view",
      "type": "function"
    },
    {
      "constant": false,
      "inputs": [
        {
          "name": "_ticketID",
          "type": "uint256"
        }
      ],
      "name": "_checkForLucky7Ticket",
      "outputs": [],
      "payable": false,
      "stateMutability": "nonpayable",
      "type": "function"
    },
    {
      "constant": true,
      "inputs": [],
      "name": "n",
      "outputs": [
        {
          "name": "",
          "type": "string"
        }
      ],
      "payable": false,
      "stateMutability": "view",
      "type": "function"
    },
    {
      "constant": false,
      "inputs": [
        {
          "name": "myid",
          "type": "bytes32"
        },
        {
          "name": "result",
          "type": "string"
        },
        {
          "name": "proof",
          "type": "bytes"
        }
      ],
      "name": "__callback",
      "outputs": [],
      "payable": false,
      "stateMutability": "nonpayable",
      "type": "function"
    },
    {
      "constant": true,
      "inputs": [
        {
          "name": "",
          "type": "uint256"
        }
      ],
      "name": "lucky7Tickets",
      "outputs": [
        {
          "name": "difference",
          "type": "uint256"
        },
        {
          "name": "owner",
          "type": "address"
        },
        {
          "name": "ticketID",
          "type": "uint256"
        },
        {
          "name": "ticketValue",
          "type": "uint256"
        },
        {
          "name": "lucky7Number",
          "type": "uint256"
        },
        {
          "name": "lucky7NumberID",
          "type": "uint256"
        },
        {
          "name": "drawID",
          "type": "uint256"
        }
      ],
      "payable": false,
      "stateMutability": "view",
      "type": "function"
    },
    {
      "constant": false,
      "inputs": [],
      "name": "toggleLucky7Setting",
      "outputs": [],
      "payable": false,
      "stateMutability": "nonpayable",
      "type": "function"
    },
    {
      "constant": false,
      "inputs": [
        {
          "name": "_newValue",
          "type": "string"
        }
      ],
      "name": "modifyParameterJ",
      "outputs": [],
      "payable": false,
      "stateMutability": "nonpayable",
      "type": "function"
    },
    {
      "constant": true,
      "inputs": [
        {
          "name": "",
          "type": "uint256"
        }
      ],
      "name": "lucky7Numbers",
      "outputs": [
        {
          "name": "mu",
          "type": "string"
        },
        {
          "name": "i",
          "type": "string"
        },
        {
          "name": "ticketValue",
          "type": "uint256"
        },
        {
          "name": "drawID",
          "type": "uint256"
        }
      ],
      "payable": false,
      "stateMutability": "view",
      "type": "function"
    },
    {
      "constant": false,
      "inputs": [],
      "name": "setNewGame",
      "outputs": [],
      "payable": false,
      "stateMutability": "nonpayable",
      "type": "function"
    },
    {
      "constant": true,
      "inputs": [
        {
          "name": "",
          "type": "address"
        }
      ],
      "name": "userValues",
      "outputs": [
        {
          "name": "mu",
          "type": "string"
        },
        {
          "name": "i",
          "type": "string"
        },
        {
          "name": "ticketValue",
          "type": "uint256"
        },
        {
          "name": "muReady",
          "type": "bool"
        },
        {
          "name": "iReady",
          "type": "bool"
        },
        {
          "name": "userPaidTicket",
          "type": "bool"
        }
      ],
      "payable": false,
      "stateMutability": "view",
      "type": "function"
    },
    {
      "constant": true,
      "inputs": [],
      "name": "b",
      "outputs": [
        {
          "name": "",
          "type": "string"
        }
      ],
      "payable": false,
      "stateMutability": "view",
      "type": "function"
    },
    {
      "constant": true,
      "inputs": [
        {
          "name": "",
          "type": "uint256"
        }
      ],
      "name": "tickets",
      "outputs": [
        {
          "name": "mu",
          "type": "string"
        },
        {
          "name": "i",
          "type": "string"
        },
        {
          "name": "ticketValue",
          "type": "uint256"
        },
        {
          "name": "owner",
          "type": "address"
        },
        {
          "name": "drawID",
          "type": "uint256"
        }
      ],
      "payable": false,
      "stateMutability": "view",
      "type": "function"
    },
    {
      "constant": true,
      "inputs": [],
      "name": "oraclizeGasLimit",
      "outputs": [
        {
          "name": "",
          "type": "uint256"
        }
      ],
      "payable": false,
      "stateMutability": "view",
      "type": "function"
    },
    {
      "constant": true,
      "inputs": [],
      "name": "numberOfLucky7Numbers",
      "outputs": [
        {
          "name": "",
          "type": "uint256"
        }
      ],
      "payable": false,
      "stateMutability": "view",
      "type": "function"
    },
    {
      "constant": false,
      "inputs": [],
      "name": "renounceOwnership",
      "outputs": [],
      "payable": false,
      "stateMutability": "nonpayable",
      "type": "function"
    },
    {
      "constant": true,
      "inputs": [],
      "name": "enterpriseWallet",
      "outputs": [
        {
          "name": "",
          "type": "address"
        }
      ],
      "payable": false,
      "stateMutability": "view",
      "type": "function"
    },
    {
      "constant": false,
      "inputs": [],
      "name": "_orderLucky7Numbers",
      "outputs": [],
      "payable": false,
      "stateMutability": "nonpayable",
      "type": "function"
    },
    {
      "constant": false,
      "inputs": [
        {
          "name": "_ticketOwner",
          "type": "address"
        }
      ],
      "name": "_generateTicket",
      "outputs": [],
      "payable": false,
      "stateMutability": "nonpayable",
      "type": "function"
    },
    {
      "constant": false,
      "inputs": [
        {
          "name": "_newValue",
          "type": "uint256"
        }
      ],
      "name": "modifyOraclizeGasLimit",
      "outputs": [],
      "payable": false,
      "stateMutability": "nonpayable",
      "type": "function"
    },
    {
      "constant": false,
      "inputs": [],
      "name": "destroy",
      "outputs": [],
      "payable": false,
      "stateMutability": "nonpayable",
      "type": "function"
    },
    {
      "constant": false,
      "inputs": [
        {
          "name": "_newValue",
          "type": "string"
        }
      ],
      "name": "modifyParameterB",
      "outputs": [],
      "payable": false,
      "stateMutability": "nonpayable",
      "type": "function"
    },
    {
      "constant": false,
      "inputs": [
        {
          "name": "_newValue",
          "type": "uint256"
        }
      ],
      "name": "modifyGenerateTicketPrice",
      "outputs": [],
      "payable": false,
      "stateMutability": "nonpayable",
      "type": "function"
    },
    {
      "constant": true,
      "inputs": [],
      "name": "numberOfWinners",
      "outputs": [
        {
          "name": "",
          "type": "uint256"
        }
      ],
      "payable": false,
      "stateMutability": "view",
      "type": "function"
    },
    {
      "constant": true,
      "inputs": [],
      "name": "owner",
      "outputs": [
        {
          "name": "",
          "type": "address"
        }
      ],
      "payable": false,
      "stateMutability": "view",
      "type": "function"
    },
    {
      "constant": false,
      "inputs": [],
      "name": "_generateLucky7Number",
      "outputs": [],
      "payable": false,
      "stateMutability": "nonpayable",
      "type": "function"
    },
    {
      "constant": false,
      "inputs": [
        {
          "name": "_newAddress",
          "type": "address"
        }
      ],
      "name": "modifyEnterprisePrize",
      "outputs": [],
      "payable": false,
      "stateMutability": "nonpayable",
      "type": "function"
    },
    {
      "constant": true,
      "inputs": [],
      "name": "oraclizeCustomGasPrice",
      "outputs": [
        {
          "name": "",
          "type": "uint256"
        }
      ],
      "payable": false,
      "stateMutability": "view",
      "type": "function"
    },
    {
      "constant": true,
      "inputs": [],
      "name": "p",
      "outputs": [
        {
          "name": "",
          "type": "string"
        }
      ],
      "payable": false,
      "stateMutability": "view",
      "type": "function"
    },
    {
      "constant": false,
      "inputs": [
        {
          "name": "_newValue",
          "type": "string"
        }
      ],
      "name": "modifyParameterP",
      "outputs": [],
      "payable": false,
      "stateMutability": "nonpayable",
      "type": "function"
    },
    {
      "constant": true,
      "inputs": [],
      "name": "j",
      "outputs": [
        {
          "name": "",
          "type": "string"
        }
      ],
      "payable": false,
      "stateMutability": "view",
      "type": "function"
    },
    {
      "constant": true,
      "inputs": [],
      "name": "initialLucky7TicketPosition",
      "outputs": [
        {
          "name": "",
          "type": "uint256"
        }
      ],
      "payable": false,
      "stateMutability": "view",
      "type": "function"
    },
    {
      "constant": false,
      "inputs": [
        {
          "name": "_newValue",
          "type": "uint256"
        }
      ],
      "name": "modifySellTicketPrice",
      "outputs": [],
      "payable": false,
      "stateMutability": "nonpayable",
      "type": "function"
    },
    {
      "constant": true,
      "inputs": [],
      "name": "indexForLucky7Array",
      "outputs": [
        {
          "name": "",
          "type": "uint256"
        }
      ],
      "payable": false,
      "stateMutability": "view",
      "type": "function"
    },
    {
      "constant": false,
      "inputs": [
        {
          "name": "_newValue",
          "type": "uint256"
        }
      ],
      "name": "modifyNumberOfLucky7Numbers",
      "outputs": [],
      "payable": false,
      "stateMutability": "nonpayable",
      "type": "function"
    },
    {
      "constant": false,
      "inputs": [
        {
          "name": "_newValue",
          "type": "uint256"
        }
      ],
      "name": "modifyNumberOfWinners",
      "outputs": [],
      "payable": false,
      "stateMutability": "nonpayable",
      "type": "function"
    },
    {
      "constant": false,
      "inputs": [
        {
          "name": "_newValue",
          "type": "uint256"
        }
      ],
      "name": "modifyOraclizeCustomGasPrice",
      "outputs": [],
      "payable": false,
      "stateMutability": "nonpayable",
      "type": "function"
    },
    {
      "constant": true,
      "inputs": [],
      "name": "generateTicketPrice",
      "outputs": [
        {
          "name": "",
          "type": "uint256"
        }
      ],
      "payable": false,
      "stateMutability": "view",
      "type": "function"
    },
    {
      "constant": true,
      "inputs": [],
      "name": "drawNumber",
      "outputs": [
        {
          "name": "",
          "type": "uint256"
        }
      ],
      "payable": false,
      "stateMutability": "view",
      "type": "function"
    },
    {
      "constant": false,
      "inputs": [
        {
          "name": "_ticketOwner",
          "type": "address"
        }
      ],
      "name": "_askForTicket",
      "outputs": [],
      "payable": false,
      "stateMutability": "nonpayable",
      "type": "function"
    },
    {
      "constant": true,
      "inputs": [],
      "name": "sellTicketPrice",
      "outputs": [
        {
          "name": "",
          "type": "uint256"
        }
      ],
      "payable": false,
      "stateMutability": "view",
      "type": "function"
    },
    {
      "constant": true,
      "inputs": [
        {
          "name": "",
          "type": "uint256"
        }
      ],
      "name": "lucky7TicketDifference",
      "outputs": [
        {
          "name": "",
          "type": "uint256"
        }
      ],
      "payable": false,
      "stateMutability": "view",
      "type": "function"
    },
    {
      "constant": false,
      "inputs": [
        {
          "name": "_newOwner",
          "type": "address"
        }
      ],
      "name": "transferOwnership",
      "outputs": [],
      "payable": false,
      "stateMutability": "nonpayable",
      "type": "function"
    },
    {
      "constant": false,
      "inputs": [],
      "name": "_deliverPrizes",
      "outputs": [],
      "payable": false,
      "stateMutability": "nonpayable",
      "type": "function"
    },
    {
      "constant": false,
      "inputs": [
        {
          "name": "_recipient",
          "type": "address"
        }
      ],
      "name": "destroyAndSend",
      "outputs": [],
      "payable": false,
      "stateMutability": "nonpayable",
      "type": "function"
    },
    {
      "constant": false,
      "inputs": [
        {
          "name": "_ticketOwner",
          "type": "address"
        }
      ],
      "name": "_askForIParameter",
      "outputs": [],
      "payable": false,
      "stateMutability": "nonpayable",
      "type": "function"
    },
    {
      "inputs": [],
      "payable": true,
      "stateMutability": "payable",
      "type": "constructor"
    },
    {
      "payable": true,
      "stateMutability": "payable",
      "type": "fallback"
    },
    {
      "anonymous": false,
      "inputs": [
        {
          "indexed": false,
          "name": "description",
          "type": "string"
        }
      ],
      "name": "newOraclizeQuery",
      "type": "event"
    },
    {
      "anonymous": false,
      "inputs": [
        {
          "indexed": false,
          "name": "parameterOwner",
          "type": "address"
        },
        {
          "indexed": false,
          "name": "muParameter",
          "type": "string"
        }
      ],
      "name": "newMuReceived",
      "type": "event"
    },
    {
      "anonymous": false,
      "inputs": [
        {
          "indexed": false,
          "name": "parameterOwner",
          "type": "address"
        },
        {
          "indexed": false,
          "name": "iParameter",
          "type": "string"
        }
      ],
      "name": "newIReceived",
      "type": "event"
    },
    {
      "anonymous": false,
      "inputs": [
        {
          "indexed": false,
          "name": "parameterOwner",
          "type": "address"
        },
        {
          "indexed": false,
          "name": "newTicket",
          "type": "string"
        }
      ],
      "name": "newTicketReceived",
      "type": "event"
    },
    {
      "anonymous": false,
      "inputs": [
        {
          "indexed": false,
          "name": "feeType",
          "type": "string"
        },
        {
          "indexed": false,
          "name": "_oldValue",
          "type": "uint256"
        },
        {
          "indexed": false,
          "name": "_newValue",
          "type": "uint256"
        }
      ],
      "name": "numberModified",
      "type": "event"
    },
    {
      "anonymous": false,
      "inputs": [
        {
          "indexed": false,
          "name": "parameter",
          "type": "string"
        },
        {
          "indexed": false,
          "name": "_oldValue",
          "type": "string"
        },
        {
          "indexed": false,
          "name": "_newValue",
          "type": "string"
        }
      ],
      "name": "parameterModified",
      "type": "event"
    },
    {
      "anonymous": false,
      "inputs": [
        {
          "indexed": false,
          "name": "parameter",
          "type": "string"
        },
        {
          "indexed": false,
          "name": "_oldValue",
          "type": "address"
        },
        {
          "indexed": false,
          "name": "_newValue",
          "type": "address"
        }
      ],
      "name": "walletModified",
      "type": "event"
    },
    {
      "anonymous": false,
      "inputs": [
        {
          "indexed": true,
          "name": "previousOwner",
          "type": "address"
        }
      ],
      "name": "OwnershipRenounced",
      "type": "event"
    },
    {
      "anonymous": false,
      "inputs": [
        {
          "indexed": true,
          "name": "previousOwner",
          "type": "address"
        },
        {
          "indexed": true,
          "name": "newOwner",
          "type": "address"
        }
      ],
      "name": "OwnershipTransferred",
      "type": "event"
    },
    {
      "constant": false,
      "inputs": [],
      "name": "sellRandomTicket",
      "outputs": [],
      "payable": true,
      "stateMutability": "payable",
      "type": "function"
    },
    {
      "constant": false,
      "inputs": [],
      "name": "generateRandomTicket",
      "outputs": [],
      "payable": true,
      "stateMutability": "payable",
      "type": "function"
    },
    {
      "constant": false,
      "inputs": [],
      "name": "sellGeneratedTicket",
      "outputs": [],
      "payable": true,
      "stateMutability": "payable",
      "type": "function"
    }
  ],
  "bytecode": "0x60c0604052600160808190527f310000000000000000000000000000000000000000000000000000000000000060a0908152620000409160069190620001b9565b506040805180820190915260018082527f380000000000000000000000000000000000000000000000000000000000000060209092019182526200008791600791620001b9565b506040805180820190915260058082527f31303030300000000000000000000000000000000000000000000000000000006020909201918252620000ce91600891620001b9565b506040805180820190915260028082527f323000000000000000000000000000000000000000000000000000000000000060209092019182526200011591600991620001b9565b506007600a556003600b556611c37937e08000600c55662aa1efb94e0000600d55620493e0600e5563ee6b2800600f5560108054600160a060020a031990811673265a5c3dd46ec82e2744f1d0e9fb4ed75d56132a179091556000601181905560128190556013805460ff191660011790556039819055600580548316331790558054909116736f485c8bf6fc43ea212e93bbf8ce046c7f1cb4751790556200025e565b828054600181600116156101000203166002900490600052602060002090601f016020900481019282601f10620001fc57805160ff19168380011785556200022c565b828001600101855582156200022c579182015b828111156200022c5782518255916020019190600101906200020f565b506200023a9291506200023e565b5090565b6200025b91905b808211156200023a576000815560010162000245565b90565b6153e1806200026e6000396000f30060806040526004361061026e5763ffffffff60e060020a6000350416630b8ec74081146102705780630cc38b2b1461027857806310cd4b8a146102d15780631c3ed1d3146102fb5780631cf4c3d11461032f5780631ded3bec1461034457806323d370ba1461034c57806327dc297e1461036d5780632caf9eee146103cb5780632de729eb146103f45780632e52d6061461040c57806338bbfa5014610496578063396fb4221461053257806339df3f4f1461058a5780633bb7daf41461059f5780633eba3466146105f857806340014911146106fc5780634acfd9b8146107115780634df7e3d01461083057806350b447121461084557806350b9c4281461095857806359f9fe821461096d578063715018a61461098257806372c3477d14610997578063741606b51461099f57806375edd257146109b457806377d8a830146109c9578063809fc153146109ea57806383197ef014610a0257806383bb7bb714610a175780638aa5fafa14610a705780638acfaca914610a885780638da5cb5b14610a9d57806390c31c4c14610ab257806396701ce914610ac75780639ac2bf9114610ae85780639ae8886a14610afd5780639dec38ab14610b12578063b582ec5f14610b6b578063bb49516b14610b80578063bcb740ab14610b95578063c56969ab14610bad578063c71f04ac14610b95578063c90cdc7e14610bc2578063d383e86214610bda578063d566bcf014610bf2578063d80ffb2014610c07578063ddc110fa14610c1c578063e5663c4814610c3d578063e802ae1414610c52578063f2fde38b14610c6a578063f405228914610c8b578063f5074f4114610ca0578063fd9be1b214610cc1575b005b61026e610ce2565b34801561028457600080fd5b506040805160206004803580820135601f810184900484028501840190955284845261026e943694929360249392840191908190840183828082843750949750610e9e9650505050505050565b3480156102dd57600080fd5b506102e9600435611086565b60408051918252519081900360200190f35b34801561030757600080fd5b50610313600435611098565b60408051600160a060020a039092168252519081900360200190f35b34801561033b57600080fd5b5061026e6110b3565b61026e611489565b34801561035857600080fd5b5061026e600160a060020a03600435166114f8565b34801561037957600080fd5b5060408051602060046024803582810135601f810185900485028601850190965285855261026e95833595369560449491939091019190819084018382808284375094975061160a9650505050505050565b3480156103d757600080fd5b506103e0611c1d565b604080519115158252519081900360200190f35b34801561040057600080fd5b5061026e600435611c26565b34801561041857600080fd5b50610421611e68565b6040805160208082528351818301528351919283929083019185019080838360005b8381101561045b578181015183820152602001610443565b50505050905090810190601f1680156104885780820380516001836020036101000a031916815260200191505b509250505060405180910390f35b3480156104a257600080fd5b5060408051602060046024803582810135601f810185900485028601850190965285855261026e95833595369560449491939091019190819084018382808284375050604080516020601f89358b018035918201839004830284018301909452808352979a999881019791965091820194509250829150840183828082843750949750611ef69650505050505050565b34801561053e57600080fd5b5061054a600435611efb565b60408051978852600160a060020a039096166020880152868601949094526060860192909252608085015260a084015260c0830152519081900360e00190f35b34801561059657600080fd5b5061026e611f52565b3480156105ab57600080fd5b506040805160206004803580820135601f810184900484028501840190955284845261026e943694929360249392840191908190840183828082843750949750611f7d9650505050505050565b34801561060457600080fd5b506106106004356120c3565b604051808060200180602001858152602001848152602001838103835287818151815260200191508051906020019080838360005b8381101561065d578181015183820152602001610645565b50505050905090810190601f16801561068a5780820380516001836020036101000a031916815260200191505b50838103825286518152865160209182019188019080838360005b838110156106bd5781810151838201526020016106a5565b50505050905090810190601f1680156106ea5780820380516001836020036101000a031916815260200191505b50965050505050505060405180910390f35b34801561070857600080fd5b5061026e61220f565b34801561071d57600080fd5b50610732600160a060020a036004351661224a565b604080519081018590528315156060820152821515608082015281151560a082015260c08082528751908201528651819060208083019160e08401918b019080838360005b8381101561078f578181015183820152602001610777565b50505050905090810190601f1680156107bc5780820380516001836020036101000a031916815260200191505b5083810382528851815288516020918201918a019080838360005b838110156107ef5781810151838201526020016107d7565b50505050905090810190601f16801561081c5780820380516001836020036101000a031916815260200191505b509850505050505050505060405180910390f35b34801561083c57600080fd5b506104216123aa565b34801561085157600080fd5b5061085d600435612405565b60408051908101849052600160a060020a03831660608201526080810182905260a08082528651908201528551819060208083019160c08401918a019080838360005b838110156108b85781810151838201526020016108a0565b50505050905090810190601f1680156108e55780820380516001836020036101000a031916815260200191505b50838103825287518152875160209182019189019080838360005b83811015610918578181015183820152602001610900565b50505050905090810190601f1680156109455780820380516001836020036101000a031916815260200191505b5097505050505050505060405180910390f35b34801561096457600080fd5b506102e9612572565b34801561097957600080fd5b506102e9612578565b34801561098e57600080fd5b5061026e61257e565b61026e6125df565b3480156109ab57600080fd5b5061031361262d565b3480156109c057600080fd5b5061026e61263c565b3480156109d557600080fd5b5061026e600160a060020a0360043516612a7a565b3480156109f657600080fd5b5061026e600435612a8c565b348015610a0e57600080fd5b5061026e612b0f565b348015610a2357600080fd5b506040805160206004803580820135601f810184900484028501840190955284845261026e943694929360249392840191908190840183828082843750949750612b349650505050505050565b348015610a7c57600080fd5b5061026e600435612c7a565b348015610a9457600080fd5b506102e9612cfd565b348015610aa957600080fd5b50610313612d03565b348015610abe57600080fd5b5061026e612d12565b348015610ad357600080fd5b5061026e600160a060020a0360043516612d73565b348015610af457600080fd5b506102e9612e24565b348015610b0957600080fd5b50610421612e2a565b348015610b1e57600080fd5b506040805160206004803580820135601f810184900484028501840190955284845261026e943694929360249392840191908190840183828082843750949750612e859650505050505050565b348015610b7757600080fd5b50610421612fcb565b348015610b8c57600080fd5b506102e9613026565b348015610ba157600080fd5b5061026e60043561302c565b348015610bb957600080fd5b506102e96130af565b348015610bce57600080fd5b5061026e6004356130b5565b348015610be657600080fd5b5061026e600435613138565b348015610bfe57600080fd5b506102e96131e1565b348015610c1357600080fd5b506102e96131e7565b348015610c2857600080fd5b5061026e600160a060020a03600435166131ed565b348015610c4957600080fd5b506102e96132d4565b348015610c5e57600080fd5b506102e96004356132da565b348015610c7657600080fd5b5061026e600160a060020a03600435166132ec565b348015610c9757600080fd5b5061026e61330c565b348015610cac57600080fd5b5061026e600160a060020a036004351661373f565b348015610ccd57600080fd5b5061026e600160a060020a0360043516613762565b600d543390341015610cf357600080fd5b600160a060020a0381166000908152603260205260409020600301805462ff000019166201000017905560135460ff1615610d2d57600080fd5b6040805133600090815260326020529190912080547fc5d2460186f7233c927e7db2dcc703c0e500b653ca82273b7bfad8045d85a470929081908390600261010060018316150260001901909116048015610dbf5780601f10610d9d576101008083540402835291820191610dbf565b820191906000526020600020905b815481529060010190602001808311610dab575b505091505060405180910390206000191614158015610e87575060408051336000908152603260205291909120600190810180547fc5d2460186f7233c927e7db2dcc703c0e500b653ca82273b7bfad8045d85a470939192829184916002610100918316159190910260001901909116048015610e735780601f10610e51576101008083540402835291820191610e73565b820191906000526020600020905b815481529060010190602001808311610e5f575b505091505060405180910390206000191614155b1515610e9257600080fd5b610e9b336131ed565b50565b600554606090600160a060020a03163314610eb857600080fd5b6007805460408051602060026001851615610100026000190190941693909304601f81018490048402820184019092528181529291830182828015610f3e5780601f10610f1357610100808354040283529160200191610f3e565b820191906000526020600020905b815481529060010190602001808311610f2157829003601f168201915b50508551939450610f5a936007935060208701925090506151f8565b50600080516020615396833981519152818360405180806020018060200180602001848103845260148152602001807f506172616d65746572206e206d6f646966696564000000000000000000000000815250602001848103835286818151815260200191508051906020019080838360005b83811015610fe5578181015183820152602001610fcd565b50505050905090810190601f1680156110125780820380516001836020036101000a031916815260200191505b50848103825285518152855160209182019187019080838360005b8381101561104557818101518382015260200161102d565b50505050905090810190601f1680156110725780820380516001836020036101000a031916815260200191505b509550505050505060405180910390a15050565b60386020526000908152604090205481565b603760205260009081526040902054600160a060020a031681565b6110bb615276565b60055460009081908190600160a060020a031633146110d957600080fd5b5060005b600a54811015611207576040805160e0810182526000838152603660209081528382205483528482526037815283822054600160a060020a031681840152848252603880825284832054948401859052918590525260158054601493606084019291811061114757fe5b906000526020600020906005020160020154815260200160168460078110151561116d57fe5b600490810291909101600290810154835260208084018790526011546040948501528554600180820188556000978852968290208651600790920201908155908501518187018054600160a060020a031916600160a060020a0390921691909117905592840151908301556060830151600383015560808301519082015560a0820151600582015560c090910151600690910155016110dd565b506039545b603954600a54018110156114835780925060148181548110151561122c57fe5b60009182526020918290206040805160e081018252600790930290910180548352600180820154600160a060020a0316948401949094526002810154918301919091526003810154606083015260048101546080830152600581015460a08301526006015460c08201529450810191505b603954600a540182101561135b5760148054839081106112b957fe5b6000918252602090912060079091020154845111156113505760148054839081106112e057fe5b60009182526020918290206040805160e0810182526007909302909101805483526001810154600160a060020a0316938301939093526002830154908201526003820154606082015260048201546080820152600582015460a082015260069091015460c0820152935090915081905b60019091019061129d565b82811461147b57601480548290811061137057fe5b906000526020600020906007020160148481548110151561138d57fe5b6000918252602090912082546007909202019081556001808301549082018054600160a060020a031916600160a060020a0390921691909117905560028083015490820155600380830154908201556004808301549082015560058083015490820155600691820154910155601480548591908390811061140a57fe5b600091825260209182902083516007929092020190815590820151600182018054600160a060020a031916600160a060020a0390921691909117905560408201516002820155606082015160038201556080820151600482015560a0820151600582015560c0909101516006909101555b60010161120c565b50505050565b600d54339034101561149a57600080fd5b600160a060020a0381166000908152603260205260408082206003908101805462ff00001916620100001790553380845291909220909101805461ffff1916905560135460ff16156114eb57600080fd5b6114f433612a7a565b5050565b6000611505600f54613876565b604080516020808252808201527f41736b696e6720666f722061206e6577206d7520706172616d657465722e2e2e8183015290517f46cb989ef9cef13e930e3b7f286225a086e716a90d63e0b7da85d310a9db0c9a9181900360600190a16115da6040805190810160405280600c81526020017f576f6c6672616d416c70686100000000000000000000000000000000000000008152506040805190810160405280600f81526020017f342072616e646f6d206e756d6265720000000000000000000000000000000000815250600e54613a5c565b60009081526033602052604090208054600160a060020a031916600160a060020a03939093169290921790915550565b611612613e5d565b600160a060020a0316331461162657600080fd5b600082815260336020526040902054600160a060020a0316158015906116745750600082815260336020908152604080832054600160a060020a03168352603290915290206003015460ff16155b1561183657600082815260336020908152604080832054600160a060020a031683526032825290912082516116ab928401906151f8565b506000828152603360209081526040808320548151600160a060020a0390911680825281840183815286519383019390935285517f47eedbcfd0da23d2413b78bd7807ecbde2a9754fa0dc19185984a244d9cd773a959194879492606085019291860191908190849084905b8381101561172f578181015183820152602001611717565b50505050905090810190601f16801561175c5780820380516001836020036101000a031916815260200191505b50935050505060405180910390a160008281526033602090815260408083208054600160a060020a03908116855260329093528184206003908101805460ff191660019081179091559154909316845292200154610100900460ff16151514801561180b5750600082815260336020908152604080832054600160a060020a03168352603290915290206003015460ff620100009091041615156001148061180b575060135460ff1615156001145b156118315760008281526033602052604090205461183190600160a060020a03166131ed565b6114f4565b600082815260346020526040902054600160a060020a0316158015906118895750600082815260346020908152604080832054600160a060020a031683526032909152902060030154610100900460ff16155b15611a4957600082815260346020908152604080832054600160a060020a031683526032825290912082516118c6926001909201918401906151f8565b506000828152603460209081526040808320548151600160a060020a0390911680825281840183815286519383019390935285517f493aa57ad5f18480f956f6979e26052f3c3e9b6f4985b1331bfa696904e10cd5959194879492606085019291860191908190849084905b8381101561194a578181015183820152602001611932565b50505050905090810190601f1680156119775780820380516001836020036101000a031916815260200191505b50935050505060405180910390a160008281526034602090815260408083208054600160a060020a03908116855260329093528184206003908101805461ff00191661010017905590549092168352909120015460ff1615156001148015611a235750600082815260346020908152604080832054600160a060020a03168352603290915290206003015460ff6201000090910416151560011480611a23575060135460ff1615156001145b156118315760008281526034602052604090205461183190600160a060020a03166131ed565b600082815260356020526040902054600160a060020a031615801590611ab35750600082815260356020908152604080832054600160a060020a03168352603290915290206003015460ff6201000090910416151560011480611ab3575060135460ff1615156001145b156114f457611ac18161404f565b60008381526035602081815260408084208054600160a060020a039081168652603284528286206002019690965587855292825291548251941680855284820183815286519386019390935285517f3c6507a39df055ecbb0672078b29c556fa529767da7d5676e77478914e3b5987959194879492936060850192908601918190849084905b83811015611b5f578181015183820152602001611b47565b50505050905090810190601f168015611b8c5780820380516001836020036101000a031916815260200191505b50935050505060405180910390a1600082815260356020908152604080832054600160a060020a0316835260329091529020600301805462ff00001916905560135460ff16151560011415611bfc5760008281526035602052604090205461183190600160a060020a0316614062565b6000828152603560205260409020546114f490600160a060020a031661426b565b60135460ff1681565b60008060008060166001600a5403600781101515611c4057fe5b6004020160020154601586815481101515611c5757fe5b9060005260206000209060050201600201541115611cc657600a54600019019350611cbf60168560078110611c8857fe5b6004020160020154601587815481101515611c9f57fe5b9060005260206000209060050201600201546144a690919063ffffffff16565b9250611dc7565b6018546015805487908110611cd757fe5b9060005260206000209060050201600201541015611d3c5760009350611cbf601586815481101515611d0557fe5b906000526020600020906005020160020154601686600781101515611d2657fe5b60040201600201546144a690919063ffffffff16565b60168460078110611d4957fe5b6004020160020154601586815481101515611d6057fe5b9060005260206000209060050201600201541115611d8357600190930192611d3c565b611d976016600019860160078110611c8857fe5b9150611dab601586815481101515611d0557fe5b905081811115611dc357600184039350819250611dc7565b8092505b600084815260376020526040902054600160a060020a03161580611df8575060008481526036602052604090205483105b15611e61576015805486908110611e0b57fe5b60009182526020808320600360059093020191909101548683526037825260408084208054600160a060020a031916600160a060020a039093169290921790915560368252808320869055603890915290208590555b5050505050565b6007805460408051602060026001851615610100026000190190941693909304601f81018490048402820184019092528181529291830182828015611eee5780601f10611ec357610100808354040283529160200191611eee565b820191906000526020600020905b815481529060010190602001808311611ed157829003601f168201915b505050505081565b505050565b6014805482908110611f0957fe5b60009182526020909120600790910201805460018201546002830154600384015460048501546005860154600690960154949650600160a060020a039093169491939092919087565b600554600160a060020a03163314611f6957600080fd5b6013805460ff19811660ff90911615179055565b600554606090600160a060020a03163314611f9757600080fd5b6009805460408051602060026001851615610100026000190190941693909304601f8101849004840282018401909252818152929183018282801561201d5780601f10611ff25761010080835404028352916020019161201d565b820191906000526020600020905b81548152906001019060200180831161200057829003601f168201915b50508551939450612039936009935060208701925090506151f8565b50600080516020615396833981519152818360405180806020018060200180602001848103845260148152602001807f506172616d65746572206a206d6f6469666965640000000000000000000000008152506020018481038352868181518152602001915080519060200190808383600083811015610fe5578181015183820152602001610fcd565b601681600781106120d057fe5b60040201805460408051602060026001851615610100026000190190941693909304601f8101849004840282018401909252818152929350839183018282801561215b5780601f106121305761010080835404028352916020019161215b565b820191906000526020600020905b81548152906001019060200180831161213e57829003601f168201915b505050505090806001018054600181600116156101000203166002900480601f0160208091040260200160405190810160405280929190818152602001828054600181600116156101000203166002900480156121f95780601f106121ce576101008083540402835291602001916121f9565b820191906000526020600020905b8154815290600101906020018083116121dc57829003601f168201915b5050505050908060020154908060030154905084565b600554600160a060020a0316331461222657600080fd5b600a5460115402603955612238611f52565b6122406110b3565b61224861330c565b565b60326020908152600091825260409182902080548351601f600260001961010060018616150201909316929092049182018490048402810184019094528084529092918391908301828280156122e15780601f106122b6576101008083540402835291602001916122e1565b820191906000526020600020905b8154815290600101906020018083116122c457829003601f168201915b505050505090806001018054600181600116156101000203166002900480601f01602080910402602001604051908101604052809291908181526020018280546001816001161561010002031660029004801561237f5780601f106123545761010080835404028352916020019161237f565b820191906000526020600020905b81548152906001019060200180831161236257829003601f168201915b50505050600283015460039093015491929160ff808216925061010082048116916201000090041686565b6006805460408051602060026001851615610100026000190190941693909304601f81018490048402820184019092528181529291830182828015611eee5780601f10611ec357610100808354040283529160200191611eee565b601580548290811061241357fe5b60009182526020918290206005919091020180546040805160026001841615610100026000190190931692909204601f8101859004850283018501909152808252919350918391908301828280156124ac5780601f10612481576101008083540402835291602001916124ac565b820191906000526020600020905b81548152906001019060200180831161248f57829003601f168201915b505050505090806001018054600181600116156101000203166002900480601f01602080910402602001604051908101604052809291908181526020018280546001816001161561010002031660029004801561254a5780601f1061251f5761010080835404028352916020019161254a565b820191906000526020600020905b81548152906001019060200180831161252d57829003601f168201915b505050506002830154600384015460049094015492939092600160a060020a03909116915085565b600e5481565b600a5481565b600554600160a060020a0316331461259557600080fd5b600554604051600160a060020a03909116907ff8df31144d9c2f0f6b59d69b8b98abd5459d07f2742c4df920b25aae33c6482090600090a260058054600160a060020a0319169055565b600c5433903410156125f057600080fd5b336000818152603260205260409020600301805461ffff1916905560135460ff161561261b57600080fd5b612624336114f8565b6114f433613762565b601054600160a060020a031681565b6126446152bd565b60055460009081908190600160a060020a0316331461266257600080fd5b5060005b600a54811015611483579150816016816007811061268057fe5b6040805160049290920292909201805460a06020601f600260001961010060018716150201909416939093049283018190040284018101909452608083018181529293919284929091849184018282801561271c5780601f106126f15761010080835404028352916020019161271c565b820191906000526020600020905b8154815290600101906020018083116126ff57829003601f168201915b50505050508152602001600182018054600181600116156101000203166002900480601f0160208091040260200160405190810160405280929190818152602001828054600181600116156101000203166002900480156127be5780601f10612793576101008083540402835291602001916127be565b820191906000526020600020905b8154815290600101906020018083116127a157829003601f168201915b505050505081526020016002820154815260200160038201548152505093508060010191505b600a5482101561298757601682600781106127fb57fe5b60040201600201548460400151111561297c576016826007811061281b57fe5b6040805160049290920292909201805460a06020601f60026000196101006001871615020190941693909304928301819004028401810190945260808301818152929391928492909184918401828280156128b75780601f1061288c576101008083540402835291602001916128b7565b820191906000526020600020905b81548152906001019060200180831161289a57829003601f168201915b50505050508152602001600182018054600181600116156101000203166002900480601f0160208091040260200160405190810160405280929190818152602001828054600181600116156101000203166002900480156129595780601f1061292e57610100808354040283529160200191612959565b820191906000526020600020905b81548152906001019060200180831161293c57829003601f168201915b505050505081526020016002820154815260200160038201548152505093508192505b6001909101906127e4565b828114612a72576016816007811061299b57fe5b60040201601684600781106129ac57fe5b60040201600082018160000190805460018160011615610100020316600290046129d79291906152e6565b50600182018160010190805460018160011615610100020316600290046129ff9291906152e6565b50600282810154908201556003918201549101558360168260078110612a2157fe5b600402016000820151816000019080519060200190612a419291906151f8565b506020828101518051612a5a92600185019201906151f8565b50604082015160028201556060909101516003909101555b600101612666565b612a83816114f8565b610e9b81613762565b600554600090600160a060020a03163314612aa657600080fd5b50600e80549082905560408051602081018390528082018490526060808252601a908201527f4f7261636c697a6520676173206c696d6974206368616e676564000000000000608082015290516000805160206153768339815191529181900360a00190a15050565b600554600160a060020a03163314612b2657600080fd5b600554600160a060020a0316ff5b600554606090600160a060020a03163314612b4e57600080fd5b6006805460408051602060026001851615610100026000190190941693909304601f81018490048402820184019092528181529291830182828015612bd45780601f10612ba957610100808354040283529160200191612bd4565b820191906000526020600020905b815481529060010190602001808311612bb757829003601f168201915b50508551939450612bf0936006935060208701925090506151f8565b50600080516020615396833981519152818360405180806020018060200180602001848103845260148152602001807f506172616d657465722062206d6f6469666965640000000000000000000000008152506020018481038352868181518152602001915080519060200190808383600083811015610fe5578181015183820152602001610fcd565b600554600090600160a060020a03163314612c9457600080fd5b50600c80549082905560408051602081018390528082018490526060808252601d908201527f47656e6572617465207469636b6574207072696365206368616e676564000000608082015290516000805160206153768339815191529181900360a00190a15050565b600b5481565b600554600160a060020a031681565b600554600160a060020a03163314612d2957600080fd5b600a546012541415612d4f57612d3d61263c565b6000601255612d4a611f52565b612248565b306000818152603260205260409020600301805461ffff1916905561224890612a7a565b600554600090600160a060020a03163314612d8d57600080fd5b5060108054600160a060020a03838116600160a060020a0319831681179093556040805191909216602082018190528183019390935260608082526019908201527f456e74657270726973652077616c6c6574206368616e67656400000000000000608082015290517f223db053947bb148de510715d3c7d8ccd72bdd376752fd735ee7bd0bd0ece5bf9181900360a00190a15050565b600f5481565b6008805460408051602060026001851615610100026000190190941693909304601f81018490048402820184019092528181529291830182828015611eee5780601f10611ec357610100808354040283529160200191611eee565b600554606090600160a060020a03163314612e9f57600080fd5b6008805460408051602060026001851615610100026000190190941693909304601f81018490048402820184019092528181529291830182828015612f255780601f10612efa57610100808354040283529160200191612f25565b820191906000526020600020905b815481529060010190602001808311612f0857829003601f168201915b50508551939450612f41936008935060208701925090506151f8565b50600080516020615396833981519152818360405180806020018060200180602001848103845260148152602001807f506172616d657465722070206d6f6469666965640000000000000000000000008152506020018481038352868181518152602001915080519060200190808383600083811015610fe5578181015183820152602001610fcd565b6009805460408051602060026001851615610100026000190190941693909304601f81018490048402820184019092528181529291830182828015611eee5780601f10611ec357610100808354040283529160200191611eee565b60395481565b600554600090600160a060020a0316331461304657600080fd5b50600d805490829055604080516020810183905280820184905260608082526019908201527f53656c6c207469636b6574207072696365206368616e67656400000000000000608082015290516000805160206153768339815191529181900360a00190a15050565b60125481565b600554600090600160a060020a031633146130cf57600080fd5b50600b805490829055604080516020810183905280820184905260608082526019908201527f4e756d626572206f662077696e6e657273206368616e67656400000000000000608082015290516000805160206153768339815191529181900360a00190a15050565b600554600090600160a060020a0316331461315257600080fd5b50600f805490829055604080516020810183905280820184905260608082526021908201527f4f7261636c697a6520637573746f6d20676173207072696365206368616e676560808201527f640000000000000000000000000000000000000000000000000000000000000060a082015290516000805160206153768339815191529181900360c00190a15050565b600c5481565b60115481565b60006131fa600f54613876565b604080516020808252601a908201527f41736b696e6720666f722061206e6577207469636b65742e2e2e0000000000008183015290517f46cb989ef9cef13e930e3b7f286225a086e716a90d63e0b7da85d310a9db0c9a9181900360600190a16132a46040805190810160405280600c81526020017f576f6c6672616d416c706861000000000000000000000000000000000000000081525061329c846144b8565b600e54613a5c565b60009081526035602052604090208054600160a060020a031916600160a060020a03939093169290921790915550565b600d5481565b60366020526000908152604090205481565b600554600160a060020a0316331461330357600080fd5b610e9b81614a09565b6005546000908190819081908190600160a060020a0316331461332e57600080fd5b6133403031600763ffffffff614a7a16565b945061335385600a63ffffffff614aa316565b945061336685600663ffffffff614a7a16565b935061337985600363ffffffff614a7a16565b925061338c85600163ffffffff614a7a16565b915061339f84600a63ffffffff614aa316565b93506133b283600a63ffffffff614aa316565b92506133c582600a63ffffffff614aa316565b915060395490505b603954600a5401811015613473576014805460009190839081106133ed57fe5b6000918252602090912060016007909202010154600160a060020a03161461346b57601480548290811061341d57fe5b60009182526020822060016007909202010154604051600160a060020a039091169186156108fc02918791818181858888f19350505050158015613465573d6000803e3d6000fd5b50613473565b6001016133cd565b6001015b603954600a540181101561351d5760148054600091908390811061349757fe5b6000918252602090912060016007909202010154600160a060020a0316146135155760148054829081106134c757fe5b60009182526020822060016007909202010154604051600160a060020a039091169185156108fc02918691818181858888f1935050505015801561350f573d6000803e3d6000fd5b5061351d565b600101613477565b6001015b603954600a54018110156135c75760148054600091908390811061354157fe5b6000918252602090912060016007909202010154600160a060020a0316146135bf57601480548290811061357157fe5b60009182526020822060016007909202010154604051600160a060020a039091169184156108fc02918591818181858888f193505050501580156135b9573d6000803e3d6000fd5b506135c7565b600101613521565b601180546001019055601054604051600160a060020a0390911690303180156108fc02916000818181858888f1935050505015801561360a573d6000803e3d6000fd5b50600090505b600a54811015611e615760008181526037602090815260408083208054600160a060020a03191690556036825280832083905560388252808320929092558151808301909252600182527f3000000000000000000000000000000000000000000000000000000000000000908201526016826007811061368c57fe5b6004020160000190805190602001906136a69291906151f8565b5060408051808201909152600181527f30000000000000000000000000000000000000000000000000000000000000006020820152601682600781106136e857fe5b6004020160010190805190602001906137029291906151f8565b5060006016826007811061371257fe5b600402016002018190555060115460168260078110151561372f57fe5b6004020160030155600101613610565b600554600160a060020a0316331461375657600080fd5b80600160a060020a0316ff5b600061376f600f54613876565b604080516020808252601f908201527f41736b696e6720666f722061206e6577206920706172616d657465722e2e2e008183015290517f46cb989ef9cef13e930e3b7f286225a086e716a90d63e0b7da85d310a9db0c9a9181900360600190a16138466040805190810160405280600c81526020017f576f6c6672616d416c70686100000000000000000000000000000000000000008152506040805190810160405280600f81526020017f342072616e646f6d206e756d6265720000000000000000000000000000000000815250600e54613a5c565b60009081526034602052604090208054600160a060020a031916600160a060020a03939093169290921790915550565b600054600160a060020a031615806138a0575060005461389e90600160a060020a0316614ab8565b155b156138b1576138af6000614abc565b505b6000809054906101000a9004600160a060020a0316600160a060020a03166338cc48316040518163ffffffff1660e060020a028152600401602060405180830381600087803b15801561390357600080fd5b505af1158015613917573d6000803e3d6000fd5b505050506040513d602081101561392d57600080fd5b5051600154600160a060020a039081169116146139e2576000809054906101000a9004600160a060020a0316600160a060020a03166338cc48316040518163ffffffff1660e060020a028152600401602060405180830381600087803b15801561399657600080fd5b505af11580156139aa573d6000803e3d6000fd5b505050506040513d60208110156139c057600080fd5b505160018054600160a060020a031916600160a060020a039092169190911790555b600154604080517fca6ad1e4000000000000000000000000000000000000000000000000000000008152600481018490529051600160a060020a039092169163ca6ad1e49160248082019260009290919082900301818387803b158015613a4857600080fd5b505af1158015611e61573d6000803e3d6000fd5b600080548190600160a060020a03161580613a895750600054613a8790600160a060020a0316614ab8565b155b15613a9a57613a986000614abc565b505b6000809054906101000a9004600160a060020a0316600160a060020a03166338cc48316040518163ffffffff1660e060020a028152600401602060405180830381600087803b158015613aec57600080fd5b505af1158015613b00573d6000803e3d6000fd5b505050506040513d6020811015613b1657600080fd5b5051600154600160a060020a03908116911614613bcb576000809054906101000a9004600160a060020a0316600160a060020a03166338cc48316040518163ffffffff1660e060020a028152600401602060405180830381600087803b158015613b7f57600080fd5b505af1158015613b93573d6000803e3d6000fd5b505050506040513d6020811015613ba957600080fd5b505160018054600160a060020a031916600160a060020a039092169190911790555b600154604080517f2ef3accc0000000000000000000000000000000000000000000000000000000081526024810186905260048101918252875160448201528751600160a060020a0390931692632ef3accc9289928892829160640190602086019080838360005b83811015613c4b578181015183820152602001613c33565b50505050905090810190601f168015613c785780820380516001836020036101000a031916815260200191505b509350505050602060405180830381600087803b158015613c9857600080fd5b505af1158015613cac573d6000803e3d6000fd5b505050506040513d6020811015613cc257600080fd5b50519050670de0b6b3a76400003a840201811115613ce35760009150613e55565b6001546040517fc51be90f00000000000000000000000000000000000000000000000000000000815260006004820181815260648301879052608060248401908152895160848501528951600160a060020a039095169463c51be90f948794938c938c938c93604481019160a49091019060208801908083838c5b83811015613d76578181015183820152602001613d5e565b50505050905090810190601f168015613da35780820380516001836020036101000a031916815260200191505b50838103825285518152855160209182019187019080838360005b83811015613dd6578181015183820152602001613dbe565b50505050905090810190601f168015613e035780820380516001836020036101000a031916815260200191505b5096505050505050506020604051808303818588803b158015613e2557600080fd5b505af1158015613e39573d6000803e3d6000fd5b50505050506040513d6020811015613e5057600080fd5b505191505b509392505050565b60008054600160a060020a03161580613e885750600054613e8690600160a060020a0316614ab8565b155b15613e9957613e976000614abc565b505b6000809054906101000a9004600160a060020a0316600160a060020a03166338cc48316040518163ffffffff1660e060020a028152600401602060405180830381600087803b158015613eeb57600080fd5b505af1158015613eff573d6000803e3d6000fd5b505050506040513d6020811015613f1557600080fd5b5051600154600160a060020a03908116911614613fca576000809054906101000a9004600160a060020a0316600160a060020a03166338cc48316040518163ffffffff1660e060020a028152600401602060405180830381600087803b158015613f7e57600080fd5b505af1158015613f92573d6000803e3d6000fd5b505050506040513d6020811015613fa857600080fd5b505160018054600160a060020a031916600160a060020a039092169190911790555b600160009054906101000a9004600160a060020a0316600160a060020a031663c281d19e6040518163ffffffff1660e060020a028152600401602060405180830381600087803b15801561401d57600080fd5b505af1158015614031573d6000803e3d6000fd5b505050506040513d602081101561404757600080fd5b505190505b90565b600061405c826000614ac6565b92915050565b60408051600160a060020a03831660009081526032602090815290839020805460026001821615610100026000190190911604601f8101839004909202830160a0908101909452608083018281529293849392908401828280156141075780601f106140dc57610100808354040283529160200191614107565b820191906000526020600020905b8154815290600101906020018083116140ea57829003601f168201915b505050505081526020016032600084600160a060020a0316600160a060020a031681526020019081526020016000206001018054600181600116156101000203166002900480601f0160208091040260200160405190810160405280929190818152602001828054600181600116156101000203166002900480156141cd5780601f106141a2576101008083540402835291602001916141cd565b820191906000526020600020905b8154815290600101906020018083116141b057829003601f168201915b5050509183525050600160a060020a03831660009081526032602090815260409182902060020154908301526011549101526012546016906007811061420f57fe5b60040201600082015181600001908051906020019061422f9291906151f8565b50602082810151805161424892600185019201906151f8565b506040820151600282015560609091015160039091015550601280546001019055565b60408051600160a060020a03831660009081526032602090815283822080546002600180831615610100026000190190921604601f8101849004909302850160c090810190965260a08501838152939590946015949093849391928401828280156143175780601f106142ec57610100808354040283529160200191614317565b820191906000526020600020905b8154815290600101906020018083116142fa57829003601f168201915b505050505081526020016032600087600160a060020a0316600160a060020a031681526020019081526020016000206001018054600181600116156101000203166002900480601f0160208091040260200160405190810160405280929190818152602001828054600181600116156101000203166002900480156143dd5780601f106143b2576101008083540402835291602001916143dd565b820191906000526020600020905b8154815290600101906020018083116143c057829003601f168201915b5050509183525050600160a060020a03861660008181526032602090815260408083206002015482860152840192909252601154606090930192909252835460018101808655948352918190208351805160059094029091019261444492849201906151f8565b50602082810151805161445d92600185019201906151f8565b50604082015160028201556060820151600382018054600160a060020a031916600160a060020a039092169190911790556080909101516004909101550390506114f481611c26565b6000828211156144b257fe5b50900390565b604080518082018252600b81527f6d6f642828312f2831305e000000000000000000000000000000000000000000602080830191909152600780548451601f60026000196101006001861615020190931692909204918201849004840281018401909552808552606094859485946146949491939083018282801561457e5780601f106145535761010080835404028352916020019161457e565b820191906000526020600020905b81548152906001019060200180831161456157829003601f168201915b505060408051808201825260018082527f2d00000000000000000000000000000000000000000000000000000000000000602080840191909152600160a060020a038e1660009081526032825284902080548551600294821615610100026000190190911693909304601f81018390048302840183019095528483529296509094509092508301828280156146545780601f1061462957610100808354040283529160200191614654565b820191906000526020600020905b81548152906001019060200180831161463757829003601f168201915b50505050506040805190810160405280601081526020017f29292a31305e31303030302c31305e2800000000000000000000000000000000815250614c38565b60098054604080516020601f6002600019610100600188161502019095169490940493840181900481028201810190925282815293955061483e938693909290918301828280156147265780601f106146fb57610100808354040283529160200191614726565b820191906000526020600020905b81548152906001019060200180831161470957829003601f168201915b505060408051808201825260018082527f2b00000000000000000000000000000000000000000000000000000000000000602080840191909152600160a060020a038e16600090815260328252849020820180548551600294821615610100026000190190911693909304601f81018390048302840183019095528483529296509094509092508301828280156147fe5780601f106147d3576101008083540402835291602001916147fe565b820191906000526020600020905b8154815290600101906020018083116147e157829003601f168201915b50505050506040805190810160405280600281526020017f2929000000000000000000000000000000000000000000000000000000000000815250614c38565b60408051808201825260018082527f2d00000000000000000000000000000000000000000000000000000000000000602080840191909152600160a060020a038916600090815260328252849020820180548551600294821615610100026000190190911693909304601f81018390048302840183019095528483529495506148ec9486948893928301828280156147fe5780601f106147d3576101008083540402835291602001916147fe565b60408051808201825260018082527f280000000000000000000000000000000000000000000000000000000000000060208084019190915283518085018552600581527f292f31305e00000000000000000000000000000000000000000000000000000081830152600160a060020a038a16600090815260328352859020830180548651600295821615610100026000190190911694909404601f8101849004840285018401909652858452959650614a0195939487949193928301828280156149f75780601f106149cc576101008083540402835291602001916149f7565b820191906000526020600020905b8154815290600101906020018083116149da57829003601f168201915b5050505050614e99565b949350505050565b600160a060020a0381161515614a1e57600080fd5b600554604051600160a060020a038084169216907f8be0079c531659141344cd1fd0a4f28419497f9722a3daafe3b4186f6b6457e090600090a360058054600160a060020a031916600160a060020a0392909216919091179055565b6000821515614a8b5750600061405c565b50818102818382811515614a9b57fe5b041461405c57fe5b60008183811515614ab057fe5b049392505050565b3b90565b600061405c614ec1565b6000828180805b8351811015614c1b5783517f300000000000000000000000000000000000000000000000000000000000000090859083908110614b0657fe5b90602001015160f860020a900460f860020a02600160f860020a03191610158015614b7c575083517f390000000000000000000000000000000000000000000000000000000000000090859083908110614b5c57fe5b90602001015160f860020a900460f860020a02600160f860020a03191611155b15614bd5578115614b9b57851515614b9357614c1b565b600019909501945b600a8302925060308482815181101515614bb157fe5b90602001015160f860020a900460f860020a0260f860020a90040383019250614c13565b8381815181101515614be357fe5b90602001015160f860020a900460f860020a02600160f860020a031916602e60f860020a021415614c1357600191505b600101614acd565b6000861115614c2d5785600a0a830292505b509095945050505050565b6060806060806060806060806000808e98508d97508c96508b95508a94508451865188518a518c51010101016040519080825280601f01601f191660200182016040528015614c91578160200160208202803883390190505b50935083925060009150600090505b8851811015614cfe578881815181101515614cb757fe5b90602001015160f860020a900460f860020a028383806001019450815181101515614cde57fe5b906020010190600160f860020a031916908160001a905350600101614ca0565b5060005b8751811015614d60578781815181101515614d1957fe5b90602001015160f860020a900460f860020a028383806001019450815181101515614d4057fe5b906020010190600160f860020a031916908160001a905350600101614d02565b5060005b8651811015614dc2578681815181101515614d7b57fe5b90602001015160f860020a900460f860020a028383806001019450815181101515614da257fe5b906020010190600160f860020a031916908160001a905350600101614d64565b5060005b8551811015614e24578581815181101515614ddd57fe5b90602001015160f860020a900460f860020a028383806001019450815181101515614e0457fe5b906020010190600160f860020a031916908160001a905350600101614dc6565b5060005b8451811015614e86578481815181101515614e3f57fe5b90602001015160f860020a900460f860020a028383806001019450815181101515614e6657fe5b906020010190600160f860020a031916908160001a905350600101614e28565b50909d9c50505050505050505050505050565b6060614eb8858585856020604051908101604052806000815250614c38565b95945050505050565b600080614ee1731d3b2638a7cc9f2cb3d298a3da7a90b67e5506ed614ab8565b1115614f525760008054600160a060020a031916731d3b2638a7cc9f2cb3d298a3da7a90b67e5506ed17905560408051808201909152600b81527f6574685f6d61696e6e65740000000000000000000000000000000000000000006020820152614f4a906151e9565b50600161404c565b6000614f7173c03a2615d5efaf5f49f60b7bb6583eaec212fdf1614ab8565b1115614fda5760008054600160a060020a03191673c03a2615d5efaf5f49f60b7bb6583eaec212fdf117905560408051808201909152600c81527f6574685f726f707374656e3300000000000000000000000000000000000000006020820152614f4a906151e9565b6000614ff973b7a07bcf2ba2f2703b24c0691b5278999c59ac7e614ab8565b11156150625760008054600160a060020a03191673b7a07bcf2ba2f2703b24c0691b5278999c59ac7e17905560408051808201909152600981527f6574685f6b6f76616e00000000000000000000000000000000000000000000006020820152614f4a906151e9565b600061508173146500cfd35b22e4a392fe0adc06de1a1368ed48614ab8565b11156150ea5760008054600160a060020a03191673146500cfd35b22e4a392fe0adc06de1a1368ed4817905560408051808201909152600b81527f6574685f72696e6b6562790000000000000000000000000000000000000000006020820152614f4a906151e9565b6000615109736f485c8bf6fc43ea212e93bbf8ce046c7f1cb475614ab8565b111561513d575060008054600160a060020a031916736f485c8bf6fc43ea212e93bbf8ce046c7f1cb475179055600161404c565b600061515c7320e12a1f859b3feae5fb2a0a32c18f5a65555bbf614ab8565b1115615190575060008054600160a060020a0319167320e12a1f859b3feae5fb2a0a32c18f5a65555bbf179055600161404c565b60006151af7351efaf4c8b3c9afbd5ab9f4bbc82784ab6ef8faa614ab8565b11156151e3575060008054600160a060020a0319167351efaf4c8b3c9afbd5ab9f4bbc82784ab6ef8faa179055600161404c565b50600090565b80516114f49060029060208401905b828054600181600116156101000203166002900490600052602060002090601f016020900481019282601f1061523957805160ff1916838001178555615266565b82800160010185558215615266579182015b8281111561526657825182559160200191906001019061524b565b5061527292915061535b565b5090565b60e060405190810160405280600081526020016000600160a060020a0316815260200160008152602001600081526020016000815260200160008152602001600081525090565b608060405190810160405280606081526020016060815260200160008152602001600081525090565b828054600181600116156101000203166002900490600052602060002090601f016020900481019282601f1061531f5780548555615266565b8280016001018555821561526657600052602060002091601f016020900482015b82811115615266578254825591600101919060010190615340565b61404c91905b80821115615272576000815560010161536156009bc068999fb1a0aac007a9b44ca6322a376441f42706bf5163600bb3d1a731647ecbd54b3baea533cf57ef049f9e04554be6a660d6dacd477488066eedf27beea165627a7a72305820767662eff37ca124c5725ff9dc13f79198be348dc14e80283591e5ff60e1aa480029",
  "source": "pragma solidity ^0.4.20;\nimport \"./Lucky7Ballot.sol\";\nimport \"./Destructible.sol\";\n\ncontract Lucky7Store is Lucky7Ballot, Destructible{\n    \n    using SafeMath for uint256;\n    \n    function Lucky7Store() payable public{\n        \n    }\n    \n    modifier userBoughtTicket(address _ticketOwner){\n        require(msg.value >= sellTicketPrice);\n        userValues[_ticketOwner].userPaidTicket = true;\n        _;\n    }\n    \n    modifier userBoughtParameters(address _ticketOwner){\n        require(msg.value >= generateTicketPrice);\n        _;\n    }\n    \n    \n    modifier setParametersToReady(address _ticketOwner){\n        userValues[_ticketOwner].muReady = false;\n        userValues[_ticketOwner].iReady = false;\n        _;\n    }\n    \n    //Circuit breakers--------\n    \n    modifier sellingIsActive {\n        require(settingLucky7Numbers==false);\n        _;\n    }\n    //------------------------\n    \n    \n    function sellRandomTicket() \n        public\n        payable \n        userBoughtTicket(msg.sender)\n        setParametersToReady(msg.sender)\n        sellingIsActive\n    {\n        _generateTicket(msg.sender);\n    }\n    \n    function generateRandomTicket() \n        public \n        payable \n        userBoughtParameters(msg.sender)\n        setParametersToReady(msg.sender)\n        sellingIsActive\n    {\n        _askForMuParameter(msg.sender);\n        _askForIParameter(msg.sender);\n    }\n    \n    function sellGeneratedTicket() \n        public \n        payable \n        userBoughtTicket(msg.sender)\n        sellingIsActive\n    {\n        require(keccak256(userValues[msg.sender].mu)!=keccak256('') && keccak256(userValues[msg.sender].i)!=keccak256(''));\n        _askForTicket(msg.sender);\n    }\n    \n    function () public payable{\n        \n    }\n}   \n                                           \n",
  "sourcePath": "/Users/matiasbarrios/Desktop/Proyecto Consensys/luckyseven/contracts/Lucky7Store.sol",
  "compiler": {
    "name": "solc",
    "version": "0.4.24+commit.e67f0147.Emscripten.clang"
  },
  "schemaVersion": "2.0.1",
  "updatedAt": "2018-08-15T23:52:03.246Z"
}