{
  "contractName": "Lucky7Test",
  "abi": [
    {
      "constant": true,
      "inputs": [],
      "name": "getlucky7Numbers",
      "outputs": [
        {
          "name": "",
          "type": "uint256[7]"
        }
      ],
      "payable": false,
      "stateMutability": "view",
      "type": "function"
    },
    {
      "constant": false,
      "inputs": [],
      "name": "sellGeneratedTicket",
      "outputs": [],
      "payable": true,
      "stateMutability": "payable",
      "type": "function"
    },
    {
      "constant": false,
      "inputs": [
        {
          "name": "_newValue",
          "type": "string"
        }
      ],
      "name": "modifyParameterN",
      "outputs": [],
      "payable": false,
      "stateMutability": "nonpayable",
      "type": "function"
    },
    {
      "constant": true,
      "inputs": [
        {
          "name": "",
          "type": "uint256"
        }
      ],
      "name": "lucky7TicketID",
      "outputs": [
        {
          "name": "",
          "type": "uint256"
        }
      ],
      "payable": false,
      "stateMutability": "view",
      "type": "function"
    },
    {
      "constant": true,
      "inputs": [
        {
          "name": "",
          "type": "uint256"
        }
      ],
      "name": "lucky7TicketOwner",
      "outputs": [
        {
          "name": "",
          "type": "address"
        }
      ],
      "payable": false,
      "stateMutability": "view",
      "type": "function"
    },
    {
      "constant": false,
      "inputs": [],
      "name": "_orderLucky7Tickets",
      "outputs": [],
      "payable": false,
      "stateMutability": "nonpayable",
      "type": "function"
    },
    {
      "constant": false,
      "inputs": [],
      "name": "sellRandomTicket",
      "outputs": [],
      "payable": true,
      "stateMutability": "payable",
      "type": "function"
    },
    {
      "constant": false,
      "inputs": [
        {
          "name": "_ticketOwner",
          "type": "address"
        }
      ],
      "name": "_askForMuParameter",
      "outputs": [],
      "payable": true,
      "stateMutability": "payable",
      "type": "function"
    },
    {
      "constant": false,
      "inputs": [
        {
          "name": "myid",
          "type": "bytes32"
        },
        {
          "name": "result",
          "type": "string"
        }
      ],
      "name": "__callback",
      "outputs": [],
      "payable": false,
      "stateMutability": "nonpayable",
      "type": "function"
    },
    {
      "constant": true,
      "inputs": [],
      "name": "settingLucky7Numbers",
      "outputs": [
        {
          "name": "",
          "type": "bool"
        }
      ],
      "payable": false,
      "stateMutability": "view",
      "type": "function"
    },
    {
      "constant": false,
      "inputs": [
        {
          "name": "_ticketID",
          "type": "uint256"
        }
      ],
      "name": "_checkForLucky7Ticket",
      "outputs": [],
      "payable": false,
      "stateMutability": "nonpayable",
      "type": "function"
    },
    {
      "constant": true,
      "inputs": [],
      "name": "n",
      "outputs": [
        {
          "name": "",
          "type": "string"
        }
      ],
      "payable": false,
      "stateMutability": "view",
      "type": "function"
    },
    {
      "constant": false,
      "inputs": [
        {
          "name": "myid",
          "type": "bytes32"
        },
        {
          "name": "result",
          "type": "string"
        },
        {
          "name": "proof",
          "type": "bytes"
        }
      ],
      "name": "__callback",
      "outputs": [],
      "payable": false,
      "stateMutability": "nonpayable",
      "type": "function"
    },
    {
      "constant": true,
      "inputs": [
        {
          "name": "",
          "type": "uint256"
        }
      ],
      "name": "lucky7Tickets",
      "outputs": [
        {
          "name": "difference",
          "type": "uint256"
        },
        {
          "name": "owner",
          "type": "address"
        },
        {
          "name": "ticketID",
          "type": "uint256"
        },
        {
          "name": "ticketValue",
          "type": "uint256"
        },
        {
          "name": "lucky7Number",
          "type": "uint256"
        },
        {
          "name": "lucky7NumberID",
          "type": "uint256"
        },
        {
          "name": "drawID",
          "type": "uint256"
        }
      ],
      "payable": false,
      "stateMutability": "view",
      "type": "function"
    },
    {
      "constant": false,
      "inputs": [],
      "name": "toggleLucky7Setting",
      "outputs": [],
      "payable": false,
      "stateMutability": "nonpayable",
      "type": "function"
    },
    {
      "constant": false,
      "inputs": [
        {
          "name": "_newValue",
          "type": "string"
        }
      ],
      "name": "modifyParameterJ",
      "outputs": [],
      "payable": false,
      "stateMutability": "nonpayable",
      "type": "function"
    },
    {
      "constant": false,
      "inputs": [],
      "name": "withdraw",
      "outputs": [],
      "payable": false,
      "stateMutability": "nonpayable",
      "type": "function"
    },
    {
      "constant": true,
      "inputs": [
        {
          "name": "",
          "type": "uint256"
        }
      ],
      "name": "lucky7Numbers",
      "outputs": [
        {
          "name": "mu",
          "type": "string"
        },
        {
          "name": "i",
          "type": "string"
        },
        {
          "name": "ticketValue",
          "type": "uint256"
        },
        {
          "name": "drawID",
          "type": "uint256"
        }
      ],
      "payable": false,
      "stateMutability": "view",
      "type": "function"
    },
    {
      "constant": false,
      "inputs": [],
      "name": "setNewGame",
      "outputs": [],
      "payable": false,
      "stateMutability": "nonpayable",
      "type": "function"
    },
    {
      "constant": false,
      "inputs": [
        {
          "name": "_newAddress",
          "type": "address"
        }
      ],
      "name": "modifyEnterpriseWallet",
      "outputs": [],
      "payable": false,
      "stateMutability": "nonpayable",
      "type": "function"
    },
    {
      "constant": true,
      "inputs": [
        {
          "name": "",
          "type": "address"
        }
      ],
      "name": "userValues",
      "outputs": [
        {
          "name": "mu",
          "type": "string"
        },
        {
          "name": "i",
          "type": "string"
        },
        {
          "name": "ticketValue",
          "type": "uint256"
        },
        {
          "name": "muReady",
          "type": "bool"
        },
        {
          "name": "iReady",
          "type": "bool"
        },
        {
          "name": "userPaidTicket",
          "type": "bool"
        }
      ],
      "payable": false,
      "stateMutability": "view",
      "type": "function"
    },
    {
      "constant": true,
      "inputs": [],
      "name": "b",
      "outputs": [
        {
          "name": "",
          "type": "string"
        }
      ],
      "payable": false,
      "stateMutability": "view",
      "type": "function"
    },
    {
      "constant": true,
      "inputs": [
        {
          "name": "",
          "type": "uint256"
        }
      ],
      "name": "tickets",
      "outputs": [
        {
          "name": "mu",
          "type": "string"
        },
        {
          "name": "i",
          "type": "string"
        },
        {
          "name": "ticketValue",
          "type": "uint256"
        },
        {
          "name": "owner",
          "type": "address"
        },
        {
          "name": "drawID",
          "type": "uint256"
        }
      ],
      "payable": false,
      "stateMutability": "view",
      "type": "function"
    },
    {
      "constant": true,
      "inputs": [],
      "name": "oraclizeGasLimit",
      "outputs": [
        {
          "name": "",
          "type": "uint256"
        }
      ],
      "payable": false,
      "stateMutability": "view",
      "type": "function"
    },
    {
      "constant": true,
      "inputs": [],
      "name": "numberOfLucky7Numbers",
      "outputs": [
        {
          "name": "",
          "type": "uint256"
        }
      ],
      "payable": false,
      "stateMutability": "view",
      "type": "function"
    },
    {
      "constant": true,
      "inputs": [],
      "name": "getlucky7Tickets",
      "outputs": [
        {
          "name": "",
          "type": "uint256[7]"
        }
      ],
      "payable": false,
      "stateMutability": "view",
      "type": "function"
    },
    {
      "constant": false,
      "inputs": [],
      "name": "renounceOwnership",
      "outputs": [],
      "payable": false,
      "stateMutability": "nonpayable",
      "type": "function"
    },
    {
      "constant": false,
      "inputs": [],
      "name": "generateRandomTicket",
      "outputs": [],
      "payable": true,
      "stateMutability": "payable",
      "type": "function"
    },
    {
      "constant": true,
      "inputs": [],
      "name": "enterpriseWallet",
      "outputs": [
        {
          "name": "",
          "type": "address"
        }
      ],
      "payable": false,
      "stateMutability": "view",
      "type": "function"
    },
    {
      "constant": false,
      "inputs": [],
      "name": "_orderLucky7Numbers",
      "outputs": [],
      "payable": false,
      "stateMutability": "nonpayable",
      "type": "function"
    },
    {
      "constant": false,
      "inputs": [
        {
          "name": "_ticketOwner",
          "type": "address"
        }
      ],
      "name": "_generateTicket",
      "outputs": [],
      "payable": false,
      "stateMutability": "nonpayable",
      "type": "function"
    },
    {
      "constant": false,
      "inputs": [
        {
          "name": "_newValue",
          "type": "uint256"
        }
      ],
      "name": "modifyOraclizeGasLimit",
      "outputs": [],
      "payable": false,
      "stateMutability": "nonpayable",
      "type": "function"
    },
    {
      "constant": false,
      "inputs": [],
      "name": "destroy",
      "outputs": [],
      "payable": false,
      "stateMutability": "nonpayable",
      "type": "function"
    },
    {
      "constant": false,
      "inputs": [
        {
          "name": "_newValue",
          "type": "string"
        }
      ],
      "name": "modifyParameterB",
      "outputs": [],
      "payable": false,
      "stateMutability": "nonpayable",
      "type": "function"
    },
    {
      "constant": false,
      "inputs": [
        {
          "name": "_newValue",
          "type": "uint256"
        }
      ],
      "name": "modifyGenerateTicketPrice",
      "outputs": [],
      "payable": false,
      "stateMutability": "nonpayable",
      "type": "function"
    },
    {
      "constant": true,
      "inputs": [],
      "name": "owner",
      "outputs": [
        {
          "name": "",
          "type": "address"
        }
      ],
      "payable": false,
      "stateMutability": "view",
      "type": "function"
    },
    {
      "constant": false,
      "inputs": [],
      "name": "_generateLucky7Number",
      "outputs": [],
      "payable": false,
      "stateMutability": "nonpayable",
      "type": "function"
    },
    {
      "constant": true,
      "inputs": [],
      "name": "oraclizeCustomGasPrice",
      "outputs": [
        {
          "name": "",
          "type": "uint256"
        }
      ],
      "payable": false,
      "stateMutability": "view",
      "type": "function"
    },
    {
      "constant": true,
      "inputs": [],
      "name": "p",
      "outputs": [
        {
          "name": "",
          "type": "string"
        }
      ],
      "payable": false,
      "stateMutability": "view",
      "type": "function"
    },
    {
      "constant": false,
      "inputs": [
        {
          "name": "_newValue",
          "type": "string"
        }
      ],
      "name": "modifyParameterP",
      "outputs": [],
      "payable": false,
      "stateMutability": "nonpayable",
      "type": "function"
    },
    {
      "constant": true,
      "inputs": [],
      "name": "j",
      "outputs": [
        {
          "name": "",
          "type": "string"
        }
      ],
      "payable": false,
      "stateMutability": "view",
      "type": "function"
    },
    {
      "constant": true,
      "inputs": [],
      "name": "balance",
      "outputs": [
        {
          "name": "",
          "type": "uint256"
        }
      ],
      "payable": false,
      "stateMutability": "view",
      "type": "function"
    },
    {
      "constant": true,
      "inputs": [],
      "name": "initialLucky7TicketPosition",
      "outputs": [
        {
          "name": "",
          "type": "uint256"
        }
      ],
      "payable": false,
      "stateMutability": "view",
      "type": "function"
    },
    {
      "constant": false,
      "inputs": [
        {
          "name": "_newValue",
          "type": "uint256"
        }
      ],
      "name": "modifySellTicketPrice",
      "outputs": [],
      "payable": false,
      "stateMutability": "nonpayable",
      "type": "function"
    },
    {
      "constant": true,
      "inputs": [],
      "name": "indexForLucky7Array",
      "outputs": [
        {
          "name": "",
          "type": "uint256"
        }
      ],
      "payable": false,
      "stateMutability": "view",
      "type": "function"
    },
    {
      "constant": false,
      "inputs": [
        {
          "name": "_newValue",
          "type": "uint256"
        }
      ],
      "name": "modifyNumberOfLucky7Numbers",
      "outputs": [],
      "payable": false,
      "stateMutability": "nonpayable",
      "type": "function"
    },
    {
      "constant": false,
      "inputs": [
        {
          "name": "_newValue",
          "type": "uint256"
        }
      ],
      "name": "modifyOraclizeCustomGasPrice",
      "outputs": [],
      "payable": false,
      "stateMutability": "nonpayable",
      "type": "function"
    },
    {
      "constant": true,
      "inputs": [],
      "name": "generateTicketPrice",
      "outputs": [
        {
          "name": "",
          "type": "uint256"
        }
      ],
      "payable": false,
      "stateMutability": "view",
      "type": "function"
    },
    {
      "constant": true,
      "inputs": [],
      "name": "drawNumber",
      "outputs": [
        {
          "name": "",
          "type": "uint256"
        }
      ],
      "payable": false,
      "stateMutability": "view",
      "type": "function"
    },
    {
      "constant": false,
      "inputs": [
        {
          "name": "_ticketOwner",
          "type": "address"
        }
      ],
      "name": "_askForTicket",
      "outputs": [],
      "payable": false,
      "stateMutability": "nonpayable",
      "type": "function"
    },
    {
      "constant": true,
      "inputs": [],
      "name": "sellTicketPrice",
      "outputs": [
        {
          "name": "",
          "type": "uint256"
        }
      ],
      "payable": false,
      "stateMutability": "view",
      "type": "function"
    },
    {
      "constant": true,
      "inputs": [
        {
          "name": "",
          "type": "uint256"
        }
      ],
      "name": "lucky7TicketDifference",
      "outputs": [
        {
          "name": "",
          "type": "uint256"
        }
      ],
      "payable": false,
      "stateMutability": "view",
      "type": "function"
    },
    {
      "constant": false,
      "inputs": [
        {
          "name": "_newOwner",
          "type": "address"
        }
      ],
      "name": "transferOwnership",
      "outputs": [],
      "payable": false,
      "stateMutability": "nonpayable",
      "type": "function"
    },
    {
      "constant": true,
      "inputs": [
        {
          "name": "",
          "type": "address"
        }
      ],
      "name": "pendingWithdrawals",
      "outputs": [
        {
          "name": "",
          "type": "uint256"
        }
      ],
      "payable": false,
      "stateMutability": "view",
      "type": "function"
    },
    {
      "constant": false,
      "inputs": [],
      "name": "_deliverPrizes",
      "outputs": [],
      "payable": false,
      "stateMutability": "nonpayable",
      "type": "function"
    },
    {
      "constant": false,
      "inputs": [
        {
          "name": "_recipient",
          "type": "address"
        }
      ],
      "name": "destroyAndSend",
      "outputs": [],
      "payable": false,
      "stateMutability": "nonpayable",
      "type": "function"
    },
    {
      "constant": false,
      "inputs": [
        {
          "name": "_ticketOwner",
          "type": "address"
        }
      ],
      "name": "_askForIParameter",
      "outputs": [],
      "payable": false,
      "stateMutability": "nonpayable",
      "type": "function"
    },
    {
      "inputs": [],
      "payable": true,
      "stateMutability": "payable",
      "type": "constructor"
    },
    {
      "payable": true,
      "stateMutability": "payable",
      "type": "fallback"
    },
    {
      "anonymous": false,
      "inputs": [
        {
          "indexed": false,
          "name": "description",
          "type": "string"
        }
      ],
      "name": "NewOraclizeQuery",
      "type": "event"
    },
    {
      "anonymous": false,
      "inputs": [
        {
          "indexed": false,
          "name": "muParameter",
          "type": "string"
        }
      ],
      "name": "NewMuReceived",
      "type": "event"
    },
    {
      "anonymous": false,
      "inputs": [
        {
          "indexed": false,
          "name": "iParameter",
          "type": "string"
        }
      ],
      "name": "NewIReceived",
      "type": "event"
    },
    {
      "anonymous": false,
      "inputs": [
        {
          "indexed": false,
          "name": "newTicket",
          "type": "string"
        }
      ],
      "name": "NewTicketReceived",
      "type": "event"
    },
    {
      "anonymous": false,
      "inputs": [
        {
          "indexed": false,
          "name": "feeType",
          "type": "string"
        },
        {
          "indexed": false,
          "name": "_oldValue",
          "type": "uint256"
        },
        {
          "indexed": false,
          "name": "_newValue",
          "type": "uint256"
        }
      ],
      "name": "numberModified",
      "type": "event"
    },
    {
      "anonymous": false,
      "inputs": [
        {
          "indexed": false,
          "name": "parameter",
          "type": "string"
        },
        {
          "indexed": false,
          "name": "_oldValue",
          "type": "string"
        },
        {
          "indexed": false,
          "name": "_newValue",
          "type": "string"
        }
      ],
      "name": "parameterModified",
      "type": "event"
    },
    {
      "anonymous": false,
      "inputs": [
        {
          "indexed": false,
          "name": "parameter",
          "type": "string"
        },
        {
          "indexed": false,
          "name": "_oldValue",
          "type": "address"
        },
        {
          "indexed": false,
          "name": "_newValue",
          "type": "address"
        }
      ],
      "name": "walletModified",
      "type": "event"
    },
    {
      "anonymous": false,
      "inputs": [
        {
          "indexed": true,
          "name": "previousOwner",
          "type": "address"
        }
      ],
      "name": "OwnershipRenounced",
      "type": "event"
    },
    {
      "anonymous": false,
      "inputs": [
        {
          "indexed": true,
          "name": "previousOwner",
          "type": "address"
        },
        {
          "indexed": true,
          "name": "newOwner",
          "type": "address"
        }
      ],
      "name": "OwnershipTransferred",
      "type": "event"
    },
    {
      "constant": false,
      "inputs": [],
      "name": "insertTestLucky7Numbers",
      "outputs": [],
      "payable": false,
      "stateMutability": "nonpayable",
      "type": "function"
    }
  ],
  "bytecode": "0x60c0604052600160808190527f310000000000000000000000000000000000000000000000000000000000000060a09081526200003e919081620001aa565b506040805180820190915260018082527f380000000000000000000000000000000000000000000000000000000000000060209092019182526200008591600291620001aa565b506040805180820190915260058082527f31303030300000000000000000000000000000000000000000000000000000006020909201918252620000cc91600391620001aa565b506040805180820190915260028082527f323000000000000000000000000000000000000000000000000000000000000060209092019182526200011391600491620001aa565b50600760058190556611c37937e08000600655662aa1efb94e00009055620493e060085563ee6b280060095560008054600a8054600160a060020a0319908116600160a060020a03841617909155601083905560118390556012805460ff1916600117905560388390559081163317909155600b8054909116736f485c8bf6fc43ea212e93bbf8ce046c7f1cb4751790556200024f565b828054600181600116156101000203166002900490600052602060002090601f016020900481019282601f10620001ed57805160ff19168380011785556200021d565b828001600101855582156200021d579182015b828111156200021d57825182559160200191906001019062000200565b506200022b9291506200022f565b5090565b6200024c91905b808211156200022b576000815560010162000236565b90565b615d43806200025f6000396000f30060806040526004361061029a5763ffffffff60e060020a60003504166301591f13811461029c5780630b8ec740146102e95780630cc38b2b146102f15780630ef309851461034a57806310cd4b8a1461035f5780631c3ed1d3146103895780631cf4c3d1146103bd5780631ded3bec146103d257806323d370ba146103da57806327dc297e146103ee5780632caf9eee1461044c5780632de729eb146104755780632e52d6061461048d57806338bbfa5014610517578063396fb422146105b357806339df3f4f1461060b5780633bb7daf4146106205780633ccfd60b146106795780633eba34661461068e578063400149111461079257806349f6b030146107a75780634acfd9b8146107c85780634df7e3d0146108e757806350b44712146108fc57806350b9c42814610a0f57806359f9fe8214610a245780635edbc36b14610a39578063715018a614610a4e57806372c3477d14610a63578063741606b514610a6b57806375edd25714610a8057806377d8a83014610a95578063809fc15314610ab657806383197ef014610ace57806383bb7bb714610ae35780638aa5fafa14610b3c5780638da5cb5b14610b5457806390c31c4c14610b695780639ac2bf9114610b7e5780639ae8886a14610b935780639dec38ab14610ba8578063b582ec5f14610c01578063b69ef8a814610c16578063bb49516b14610c2b578063bcb740ab14610c40578063c56969ab14610c58578063c71f04ac14610c6d578063d383e86214610c85578063d566bcf014610c9d578063d80ffb2014610cb2578063ddc110fa14610cc7578063e5663c4814610ce8578063e802ae1414610cfd578063f2fde38b14610d15578063f3f4370314610d36578063f405228914610d57578063f5074f4114610d6c578063fd9be1b214610d8d575b005b3480156102a857600080fd5b506102b1610dae565b604051808260e080838360005b838110156102d65781810151838201526020016102be565b5050505090500191505060405180910390f35b61029a610e25565b3480156102fd57600080fd5b506040805160206004803580820135601f810184900484028501840190955284845261029a943694929360249392840191908190840183828082843750949750610fe19650505050505050565b34801561035657600080fd5b5061029a6111c6565b34801561036b57600080fd5b5061037760043561164e565b60408051918252519081900360200190f35b34801561039557600080fd5b506103a1600435611660565b60408051600160a060020a039092168252519081900360200190f35b3480156103c957600080fd5b5061029a61167b565b61029a611a4f565b61029a600160a060020a0360043516611abe565b3480156103fa57600080fd5b5060408051602060046024803582810135601f810185900485028601850190965285855261029a958335953695604494919390910191908190840183828082843750949750611bd09650505050505050565b34801561045857600080fd5b50610461612181565b604080519115158252519081900360200190f35b34801561048157600080fd5b5061029a60043561218a565b34801561049957600080fd5b506104a26123cc565b6040805160208082528351818301528351919283929083019185019080838360005b838110156104dc5781810151838201526020016104c4565b50505050905090810190601f1680156105095780820380516001836020036101000a031916815260200191505b509250505060405180910390f35b34801561052357600080fd5b5060408051602060046024803582810135601f810185900485028601850190965285855261029a95833595369560449491939091019190819084018382808284375050604080516020601f89358b018035918201839004830284018301909452808352979a9998810197919650918201945092508291508401838280828437509497506124579650505050505050565b3480156105bf57600080fd5b506105cb60043561245c565b60408051978852600160a060020a039096166020880152868601949094526060860192909252608085015260a084015260c0830152519081900360e00190f35b34801561061757600080fd5b5061029a6124b3565b34801561062c57600080fd5b506040805160206004803580820135601f810184900484028501840190955284845261029a9436949293602493928401919081908401838280828437509497506124de9650505050505050565b34801561068557600080fd5b5061029a612624565b34801561069a57600080fd5b506106a6600435612665565b604051808060200180602001858152602001848152602001838103835287818151815260200191508051906020019080838360005b838110156106f35781810151838201526020016106db565b50505050905090810190601f1680156107205780820380516001836020036101000a031916815260200191505b50838103825286518152865160209182019188019080838360005b8381101561075357818101518382015260200161073b565b50505050905090810190601f1680156107805780820380516001836020036101000a031916815260200191505b50965050505050505060405180910390f35b34801561079e57600080fd5b5061029a6127b1565b3480156107b357600080fd5b5061029a600160a060020a03600435166127ec565b3480156107d457600080fd5b506107e9600160a060020a036004351661289b565b604080519081018590528315156060820152821515608082015281151560a082015260c08082528751908201528651819060208083019160e08401918b019080838360005b8381101561084657818101518382015260200161082e565b50505050905090810190601f1680156108735780820380516001836020036101000a031916815260200191505b5083810382528851815288516020918201918a019080838360005b838110156108a657818101518382015260200161088e565b50505050905090810190601f1680156108d35780820380516001836020036101000a031916815260200191505b509850505050505050505060405180910390f35b3480156108f357600080fd5b506104a26129fb565b34801561090857600080fd5b50610914600435612a55565b60408051908101849052600160a060020a03831660608201526080810182905260a08082528651908201528551819060208083019160c08401918a019080838360005b8381101561096f578181015183820152602001610957565b50505050905090810190601f16801561099c5780820380516001836020036101000a031916815260200191505b50838103825287518152875160209182019189019080838360005b838110156109cf5781810151838201526020016109b7565b50505050905090810190601f1680156109fc5780820380516001836020036101000a031916815260200191505b5097505050505050505060405180910390f35b348015610a1b57600080fd5b50610377612bc2565b348015610a3057600080fd5b50610377612bc8565b348015610a4557600080fd5b506102b1612bce565b348015610a5a57600080fd5b5061029a612c5f565b61029a612cbe565b348015610a7757600080fd5b506103a1612d0c565b348015610a8c57600080fd5b5061029a612d1b565b348015610aa157600080fd5b5061029a600160a060020a0360043516613157565b348015610ac257600080fd5b5061029a600435613169565b348015610ada57600080fd5b5061029a6131ea565b348015610aef57600080fd5b506040805160206004803580820135601f810184900484028501840190955284845261029a94369492936024939284019190819084018382808284375094975061320f9650505050505050565b348015610b4857600080fd5b5061029a600435613354565b348015610b6057600080fd5b506103a16133d5565b348015610b7557600080fd5b5061029a6133e4565b348015610b8a57600080fd5b50610377613445565b348015610b9f57600080fd5b506104a261344b565b348015610bb457600080fd5b506040805160206004803580820135601f810184900484028501840190955284845261029a9436949293602493928401919081908401838280828437509497506134a69650505050505050565b348015610c0d57600080fd5b506104a26135ec565b348015610c2257600080fd5b50610377613647565b348015610c3757600080fd5b50610377613666565b348015610c4c57600080fd5b5061029a60043561366c565b348015610c6457600080fd5b506103776136ed565b348015610c7957600080fd5b5061029a6004356136f3565b348015610c9157600080fd5b5061029a600435613774565b348015610ca957600080fd5b5061037761381b565b348015610cbe57600080fd5b50610377613821565b348015610cd357600080fd5b5061029a600160a060020a0360043516613827565b348015610cf457600080fd5b5061037761390e565b348015610d0957600080fd5b50610377600435613914565b348015610d2157600080fd5b5061029a600160a060020a0360043516613926565b348015610d4257600080fd5b50610377600160a060020a0360043516613946565b348015610d6357600080fd5b5061029a613958565b348015610d7857600080fd5b5061029a600160a060020a0360043516613d5c565b348015610d9957600080fd5b5061029a600160a060020a0360043516613d7f565b610db6615b3b565b6000805b600554811015610df15760158160078110610dd157fe5b60040201600201548282600781101515610de757fe5b0155600101610dba565b6040805160e081019182905290839060079082845b815481526020019060010190808311610e065750505050509250505090565b6007543390341015610e3657600080fd5b600160a060020a0381166000908152603160205260409020600301805462ff000019166201000017905560125460ff1615610e7057600080fd5b6040805133600090815260316020529190912080547fc5d2460186f7233c927e7db2dcc703c0e500b653ca82273b7bfad8045d85a470929081908390600261010060018316150260001901909116048015610f025780601f10610ee0576101008083540402835291820191610f02565b820191906000526020600020905b815481529060010190602001808311610eee575b505091505060405180910390206000191614158015610fca575060408051336000908152603160205291909120600190810180547fc5d2460186f7233c927e7db2dcc703c0e500b653ca82273b7bfad8045d85a470939192829184916002610100918316159190910260001901909116048015610fb65780601f10610f94576101008083540402835291820191610fb6565b820191906000526020600020905b815481529060010190602001808311610fa2575b505091505060405180910390206000191614155b1515610fd557600080fd5b610fde33613827565b50565b600054606090600160a060020a03163314610ffb57600080fd5b6002805460408051602060018416156101000260001901909316849004601f8101849004840282018401909252818152929183018282801561107e5780601f106110535761010080835404028352916020019161107e565b820191906000526020600020905b81548152906001019060200180831161106157829003601f168201915b5050855193945061109a93600293506020870192509050615b5a565b50600080516020615cf8833981519152818360405180806020018060200180602001848103845260148152602001807f506172616d65746572206e206d6f646966696564000000000000000000000000815250602001848103835286818151815260200191508051906020019080838360005b8381101561112557818101518382015260200161110d565b50505050905090810190601f1680156111525780820380516001836020036101000a031916815260200191505b50848103825285518152855160209182019187019080838360005b8381101561118557818101518382015260200161116d565b50505050905090810190601f1680156111b25780820380516001836020036101000a031916815260200191505b509550505050505060405180910390a15050565b6040805160c08101825260016080820181815260f860020a60310260a084015282528251808401845290815260f960020a601902602080830191909152808301919091526793d0f60dbe0594069282019290925260105460608201528051805191926015926112389284920190615b5a565b5060208281015180516112519260018501920190615b5a565b506040828101516002830155606092830151600390920191909155805160c08101825260016080820181815260f860020a60310260a084015282528251808401845290815260f960020a601902602082810191909152808301919091526804c5fa0329ef99d22a9282019290925260105492810192909252815180516019926112de928492910190615b5a565b5060208281015180516112f79260018501920190615b5a565b506040828101516002830155606092830151600390920191909155805160c08101825260016080820181815260f860020a60310260a084015282528251808401845290815260f960020a601902602082810191909152808301919091526802d72da9b820819e87928201929092526010549281019290925281518051601d92611384928492910190615b5a565b50602082810151805161139d9260018501920190615b5a565b506040828101516002830155606092830151600390920191909155805160c08101825260016080820181815260f860020a60310260a084015282528251808401845290815260f960020a601902602082810191909152808301919091526804e850f1d2e1ec145292820192909252601054928101929092528151805160219261142a928492910190615b5a565b5060208281015180516114439260018501920190615b5a565b506040828101516002830155606092830151600390920191909155805160c08101825260016080820181815260f860020a60310260a084015282528251808401845290815260f960020a601902602082810191909152808301919091526801a704d637c3501f979282019290925260105492810192909252815180516025926114d0928492910190615b5a565b5060208281015180516114e99260018501920190615b5a565b506040828101516002830155606092830151600390920191909155805160c08101825260016080820181815260f860020a60310260a084015282528251808401845290815260f960020a60190260208281019190915280830191909152680151d16e9cb32a55e8928201929092526010549281019290925281518051602992611576928492910190615b5a565b50602082810151805161158f9260018501920190615b5a565b506040828101516002830155606092830151600390920191909155805160c08101825260016080820181815260f860020a60310260a084015282528251808401845290815260f960020a6019026020828101919091528083019190915268041295da4332def270928201929092526010549281019290925281518051602d9261161c928492910190615b5a565b5060208281015180516116359260018501920190615b5a565b5060408201516002820155606090910151600390910155565b60376020526000908152604090205481565b603660205260009081526040902054600160a060020a031681565b611683615bd8565b6000805481908190600160a060020a0316331461169f57600080fd5b5060005b6005548110156117cd576040805160e0810182526000838152603560209081528382205483528482526036815283822054600160a060020a031681840152848252603780825284832054948401859052918590525260148054601393606084019291811061170d57fe5b906000526020600020906005020160020154815260200160158460078110151561173357fe5b600490810291909101600290810154835260208084018790526010546040948501528554600180820188556000978852968290208651600790920201908155908501518187018054600160a060020a031916600160a060020a0390921691909117905592840151908301556060830151600383015560808301519082015560a0820151600582015560c090910151600690910155016116a3565b506038545b60385460055401811015611a49578092506013818154811015156117f257fe5b60009182526020918290206040805160e081018252600790930290910180548352600180820154600160a060020a0316948401949094526002810154918301919091526003810154606083015260048101546080830152600581015460a08301526006015460c08201529450810191505b6038546005540182101561192157601380548390811061187f57fe5b6000918252602090912060079091020154845111156119165760138054839081106118a657fe5b60009182526020918290206040805160e0810182526007909302909101805483526001810154600160a060020a0316938301939093526002830154908201526003820154606082015260048201546080820152600582015460a082015260069091015460c0820152935090915081905b600190910190611863565b828114611a4157601380548290811061193657fe5b906000526020600020906007020160138481548110151561195357fe5b6000918252602090912082546007909202019081556001808301549082018054600160a060020a031916600160a060020a039092169190911790556002808301549082015560038083015490820155600480830154908201556005808301549082015560069182015491015560138054859190839081106119d057fe5b600091825260209182902083516007929092020190815590820151600182018054600160a060020a031916600160a060020a0390921691909117905560408201516002820155606082015160038201556080820151600482015560a0820151600582015560c0909101516006909101555b6001016117d2565b50505050565b6007543390341015611a6057600080fd5b600160a060020a0381166000908152603160205260408082206003908101805462ff00001916620100001790553380845291909220909101805461ffff1916905560125460ff1615611ab157600080fd5b611aba33613157565b5050565b6000611acb600954613e93565b604080516020808252808201527f41736b696e6720666f722061206e6577206d7520706172616d657465722e2e2e8183015290517f096835e36c2ccea88ff2b3aca87dfc938b977e52ea656873ff76a8dba50d4d349181900360600190a1611ba06040805190810160405280600c81526020017f576f6c6672616d416c70686100000000000000000000000000000000000000008152506040805190810160405280600f81526020017f342072616e646f6d206e756d626572000000000000000000000000000000000081525060085461407b565b60009081526032602052604090208054600160a060020a031916600160a060020a03939093169290921790915550565b611bd8614480565b600160a060020a03163314611bec57600080fd5b600082815260326020526040902054600160a060020a031615801590611c3a5750600082815260326020908152604080832054600160a060020a03168352603190915290206003015460ff16155b15611dd757600082815260326020908152604080832054600160a060020a03168352603182529091208251611c7192840190615b5a565b507f6a28dd23c76ba6cc6f4f148a0e2e0e147d8b876cb74ec1e5e2b8e9a8119eb702816040518080602001828103825283818151815260200191508051906020019080838360005b83811015611cd1578181015183820152602001611cb9565b50505050905090810190601f168015611cfe5780820380516001836020036101000a031916815260200191505b509250505060405180910390a160008281526032602090815260408083208054600160a060020a03908116855260319093528184206003908101805460ff191660019081179091559154909316845292200154610100900460ff161515148015611dac5750600082815260326020908152604080832054600160a060020a03168352603190915290206003015460ff6201000090910416151560011480611dac575060125460ff1615156001145b15611dd257600082815260326020526040902054611dd290600160a060020a0316613827565b611aba565b600082815260336020526040902054600160a060020a031615801590611e2a5750600082815260336020908152604080832054600160a060020a031683526031909152902060030154610100900460ff16155b15611fc557600082815260336020908152604080832054600160a060020a03168352603182529091208251611e6792600190920191840190615b5a565b507f716a554dec57e3a217a923b974660c0c8ebee07b09b1ac7d4a3a8f328d10cc89816040518080602001828103825283818151815260200191508051906020019080838360005b83811015611ec7578181015183820152602001611eaf565b50505050905090810190601f168015611ef45780820380516001836020036101000a031916815260200191505b509250505060405180910390a160008281526033602090815260408083208054600160a060020a03908116855260319093528184206003908101805461ff00191661010017905590549092168352909120015460ff1615156001148015611f9f5750600082815260336020908152604080832054600160a060020a03168352603190915290206003015460ff6201000090910416151560011480611f9f575060125460ff1615156001145b15611dd257600082815260336020526040902054611dd290600160a060020a0316613827565b600082815260346020526040902054600160a060020a03161580159061202f5750600082815260346020908152604080832054600160a060020a03168352603190915290206003015460ff620100009091041615156001148061202f575060125460ff1615156001145b15611aba5761203d81614675565b600083815260346020908152604080832054600160a060020a031683526031825280832060020193909355825181815284518183015284517f0efef3a277391dda0d5747fd15566e85fcd8a4fb588d9853173841e45cc5ae8a9486949293849391840192908601918190849084905b838110156120c45781810151838201526020016120ac565b50505050905090810190601f1680156120f15780820380516001836020036101000a031916815260200191505b509250505060405180910390a1600082815260346020908152604080832054600160a060020a0316835260319091529020600301805462ff00001916905560125460ff1615156001141561216057600082815260346020526040902054611dd290600160a060020a0316614688565b600082815260346020526040902054611aba90600160a060020a0316614891565b60125460ff1681565b60008060008060156001600554036007811015156121a457fe5b60040201600201546014868154811015156121bb57fe5b906000526020600020906005020160020154111561222a57600554600019019350612223601585600781106121ec57fe5b600402016002015460148781548110151561220357fe5b906000526020600020906005020160020154614acc90919063ffffffff16565b925061232b565b601754601480548790811061223b57fe5b90600052602060002090600502016002015410156122a0576000935061222360148681548110151561226957fe5b90600052602060002090600502016002015460158660078110151561228a57fe5b6004020160020154614acc90919063ffffffff16565b601584600781106122ad57fe5b60040201600201546014868154811015156122c457fe5b90600052602060002090600502016002015411156122e7576001909301926122a0565b6122fb60156000198601600781106121ec57fe5b915061230f60148681548110151561226957fe5b9050818111156123275760018403935081925061232b565b8092505b600084815260366020526040902054600160a060020a0316158061235c575060008481526035602052604090205483105b156123c557601480548690811061236f57fe5b60009182526020808320600360059093020191909101548683526036825260408084208054600160a060020a031916600160a060020a039093169290921790915560358252808320869055603790915290208590555b5050505050565b6002805460408051602060018416156101000260001901909316849004601f8101849004840282018401909252818152929183018282801561244f5780601f106124245761010080835404028352916020019161244f565b820191906000526020600020905b81548152906001019060200180831161243257829003601f168201915b505050505081565b505050565b601380548290811061246a57fe5b60009182526020909120600790910201805460018201546002830154600384015460048501546005860154600690960154949650600160a060020a039093169491939092919087565b600054600160a060020a031633146124ca57600080fd5b6012805460ff19811660ff90911615179055565b600054606090600160a060020a031633146124f857600080fd5b6004805460408051602060026001851615610100026000190190941693909304601f8101849004840282018401909252818152929183018282801561257e5780601f106125535761010080835404028352916020019161257e565b820191906000526020600020905b81548152906001019060200180831161256157829003601f168201915b5050855193945061259a93600493506020870192509050615b5a565b50600080516020615cf8833981519152818360405180806020018060200180602001848103845260148152602001807f506172616d65746572206a206d6f646966696564000000000000000000000000815250602001848103835286818151815260200191508051906020019080838360008381101561112557818101518382015260200161110d565b33600081815260396020526040808220805490839055905190929183156108fc02918491818181858888f19350505050158015611aba573d6000803e3d6000fd5b6015816007811061267257fe5b60040201805460408051602060026001851615610100026000190190941693909304601f810184900484028201840190925281815292935083918301828280156126fd5780601f106126d2576101008083540402835291602001916126fd565b820191906000526020600020905b8154815290600101906020018083116126e057829003601f168201915b505050505090806001018054600181600116156101000203166002900480601f01602080910402602001604051908101604052809291908181526020018280546001816001161561010002031660029004801561279b5780601f106127705761010080835404028352916020019161279b565b820191906000526020600020905b81548152906001019060200180831161277e57829003601f168201915b5050505050908060020154908060030154905084565b600054600160a060020a031633146127c857600080fd5b600554601054026038556127da6124b3565b6127e261167b565b6127ea613958565b565b60008054600160a060020a0316331461280457600080fd5b50600a8054600160a060020a03838116600160a060020a0319831681179093556040805191909216602082018190528183019390935260608082526019908201527f456e74657270726973652077616c6c6574206368616e67656400000000000000608082015290517f223db053947bb148de510715d3c7d8ccd72bdd376752fd735ee7bd0bd0ece5bf9181900360a00190a15050565b60316020908152600091825260409182902080548351601f600260001961010060018616150201909316929092049182018490048402810184019094528084529092918391908301828280156129325780601f1061290757610100808354040283529160200191612932565b820191906000526020600020905b81548152906001019060200180831161291557829003601f168201915b505050505090806001018054600181600116156101000203166002900480601f0160208091040260200160405190810160405280929190818152602001828054600181600116156101000203166002900480156129d05780601f106129a5576101008083540402835291602001916129d0565b820191906000526020600020905b8154815290600101906020018083116129b357829003601f168201915b50505050600283015460039093015491929160ff808216925061010082048116916201000090041686565b60018054604080516020600284861615610100026000190190941693909304601f8101849004840282018401909252818152929183018282801561244f5780601f106124245761010080835404028352916020019161244f565b6014805482908110612a6357fe5b60009182526020918290206005919091020180546040805160026001841615610100026000190190931692909204601f810185900485028301850190915280825291935091839190830182828015612afc5780601f10612ad157610100808354040283529160200191612afc565b820191906000526020600020905b815481529060010190602001808311612adf57829003601f168201915b505050505090806001018054600181600116156101000203166002900480601f016020809104026020016040519081016040528092919081815260200182805460018160011615610100020316600290048015612b9a5780601f10612b6f57610100808354040283529160200191612b9a565b820191906000526020600020905b815481529060010190602001808311612b7d57829003601f168201915b505050506002830154600384015460049094015492939092600160a060020a03909116915085565b60085481565b60055481565b612bd6615b3b565b6000805b600554811015610df157600081815260366020526040902054600160a060020a031615612c4657600081815260376020526040902054601480549091908110612c1f57fe5b9060005260206000209060050201600201548282600781101515612c3f57fe5b0155612c57565b6000828260078110612c5457fe5b01555b600101612bda565b600054600160a060020a03163314612c7657600080fd5b60008054604051600160a060020a03909116917ff8df31144d9c2f0f6b59d69b8b98abd5459d07f2742c4df920b25aae33c6482091a260008054600160a060020a0319169055565b6006543390341015612ccf57600080fd5b336000818152603160205260409020600301805461ffff1916905560125460ff1615612cfa57600080fd5b612d0333611abe565b611aba33613d7f565b600a54600160a060020a031681565b612d23615c1f565b6000805481908190600160a060020a03163314612d3f57600080fd5b5060005b600554811015611a495791508160158160078110612d5d57fe5b6040805160049290920292909201805460a06020601f6002600019610100600187161502019094169390930492830181900402840181019094526080830181815292939192849290918491840182828015612df95780601f10612dce57610100808354040283529160200191612df9565b820191906000526020600020905b815481529060010190602001808311612ddc57829003601f168201915b50505050508152602001600182018054600181600116156101000203166002900480601f016020809104026020016040519081016040528092919081815260200182805460018160011615610100020316600290048015612e9b5780601f10612e7057610100808354040283529160200191612e9b565b820191906000526020600020905b815481529060010190602001808311612e7e57829003601f168201915b505050505081526020016002820154815260200160038201548152505093508060010191505b6005548210156130645760158260078110612ed857fe5b6004020160020154846040015111156130595760158260078110612ef857fe5b6040805160049290920292909201805460a06020601f6002600019610100600187161502019094169390930492830181900402840181019094526080830181815292939192849290918491840182828015612f945780601f10612f6957610100808354040283529160200191612f94565b820191906000526020600020905b815481529060010190602001808311612f7757829003601f168201915b50505050508152602001600182018054600181600116156101000203166002900480601f0160208091040260200160405190810160405280929190818152602001828054600181600116156101000203166002900480156130365780601f1061300b57610100808354040283529160200191613036565b820191906000526020600020905b81548152906001019060200180831161301957829003601f168201915b505050505081526020016002820154815260200160038201548152505093508192505b600190910190612ec1565b82811461314f576015816007811061307857fe5b600402016015846007811061308957fe5b60040201600082018160000190805460018160011615610100020316600290046130b4929190615c48565b50600182018160010190805460018160011615610100020316600290046130dc929190615c48565b506002828101549082015560039182015491015583601582600781106130fe57fe5b60040201600082015181600001908051906020019061311e929190615b5a565b5060208281015180516131379260018501920190615b5a565b50604082015160028201556060909101516003909101555b600101612d43565b61316081611abe565b610fde81613d7f565b60008054600160a060020a0316331461318157600080fd5b50600880549082905560408051602081018390528082018490526060808252601a908201527f4f7261636c697a6520676173206c696d6974206368616e67656400000000000060808201529051600080516020615cd88339815191529181900360a00190a15050565b600054600160a060020a0316331461320157600080fd5b600054600160a060020a0316ff5b600054606090600160a060020a0316331461322957600080fd5b60018054604080516020600284861615610100026000190190941693909304601f810184900484028201840190925281815292918301828280156132ae5780601f10613283576101008083540402835291602001916132ae565b820191906000526020600020905b81548152906001019060200180831161329157829003601f168201915b505085519394506132ca93600193506020870192509050615b5a565b50600080516020615cf8833981519152818360405180806020018060200180602001848103845260148152602001807f506172616d657465722062206d6f646966696564000000000000000000000000815250602001848103835286818151815260200191508051906020019080838360008381101561112557818101518382015260200161110d565b60008054600160a060020a0316331461336c57600080fd5b50600680549082905560408051602081018390528082018490526060808252601d908201527f47656e6572617465207469636b6574207072696365206368616e67656400000060808201529051600080516020615cd88339815191529181900360a00190a15050565b600054600160a060020a031681565b600054600160a060020a031633146133fb57600080fd5b60055460115414156134215761340f612d1b565b600060115561341c6124b3565b6127ea565b306000818152603160205260409020600301805461ffff191690556127ea90613157565b60095481565b6003805460408051602060026001851615610100026000190190941693909304601f8101849004840282018401909252818152929183018282801561244f5780601f106124245761010080835404028352916020019161244f565b600054606090600160a060020a031633146134c057600080fd5b6003805460408051602060026001851615610100026000190190941693909304601f810184900484028201840190925281815292918301828280156135465780601f1061351b57610100808354040283529160200191613546565b820191906000526020600020905b81548152906001019060200180831161352957829003601f168201915b5050855193945061356293600393506020870192509050615b5a565b50600080516020615cf8833981519152818360405180806020018060200180602001848103845260148152602001807f506172616d657465722070206d6f646966696564000000000000000000000000815250602001848103835286818151815260200191508051906020019080838360008381101561112557818101518382015260200161110d565b6004805460408051602060026001851615610100026000190190941693909304601f8101849004840282018401909252818152929183018282801561244f5780601f106124245761010080835404028352916020019161244f565b60008054600160a060020a0316331461365f57600080fd5b5030315b90565b60385481565b60008054600160a060020a0316331461368457600080fd5b506007805490829055604080516020810183905280820184905260608082526019908201527f53656c6c207469636b6574207072696365206368616e6765640000000000000060808201529051600080516020615cd88339815191529181900360a00190a15050565b60115481565b60008054600160a060020a0316331461370b57600080fd5b506005805490829055604080516020810183905280820184905260608082526019908201527f53656c6c207469636b6574207072696365206368616e6765640000000000000060808201529051600080516020615cd88339815191529181900360a00190a15050565b60008054600160a060020a0316331461378c57600080fd5b506009805490829055604080516020810183905280820184905260608082526021908201527f4f7261636c697a6520637573746f6d20676173207072696365206368616e676560808201527f640000000000000000000000000000000000000000000000000000000000000060a08201529051600080516020615cd88339815191529181900360c00190a15050565b60065481565b60105481565b6000613834600954613e93565b604080516020808252601a908201527f41736b696e6720666f722061206e6577207469636b65742e2e2e0000000000008183015290517f096835e36c2ccea88ff2b3aca87dfc938b977e52ea656873ff76a8dba50d4d349181900360600190a16138de6040805190810160405280600c81526020017f576f6c6672616d416c70686100000000000000000000000000000000000000008152506138d684614ade565b60085461407b565b60009081526034602052604090208054600160a060020a031916600160a060020a03939093169290921790915550565b60075481565b60356020526000908152604090205481565b600054600160a060020a0316331461393d57600080fd5b610fde81615373565b60396020526000908152604090205481565b600080548190819081908190600160a060020a0316331461397857600080fd5b61398a3031600763ffffffff6153e316565b945061399d85600a63ffffffff61540c16565b94506139b085600663ffffffff6153e316565b93506139c385600363ffffffff6153e316565b92506139d685600163ffffffff6153e316565b91506139e984600a63ffffffff61540c16565b93506139fc83600a63ffffffff61540c16565b9250613a0f82600a63ffffffff61540c16565b915060385490505b60385460055401811015613aae57601380546000919083908110613a3757fe5b6000918252602090912060016007909202010154600160a060020a031614613aa6578360396000601384815481101515613a6d57fe5b6000918252602080832060016007909302019190910154600160a060020a03168352820192909252604001902080549091019055613aae565b600101613a17565b6001015b60385460055401811015613b4957601380546000919083908110613ad257fe5b6000918252602090912060016007909202010154600160a060020a031614613b41578260396000601384815481101515613b0857fe5b6000918252602080832060016007909302019190910154600160a060020a03168352820192909252604001902080549091019055613b49565b600101613ab2565b6001015b60385460055401811015613be457601380546000919083908110613b6d57fe5b6000918252602090912060016007909202010154600160a060020a031614613bdc578160396000601384815481101515613ba357fe5b6000918252602080832060016007909302019190910154600160a060020a03168352820192909252604001902080549091019055613be4565b600101613b4d565b601080546001019055600a54604051600160a060020a0390911690303180156108fc02916000818181858888f19350505050158015613c27573d6000803e3d6000fd5b50600090505b6005548110156123c55760008181526036602090815260408083208054600160a060020a03191690556035825280832083905560378252808320929092558151808301909252600182527f30000000000000000000000000000000000000000000000000000000000000009082015260158260078110613ca957fe5b600402016000019080519060200190613cc3929190615b5a565b5060408051808201909152600181527f3000000000000000000000000000000000000000000000000000000000000000602082015260158260078110613d0557fe5b600402016001019080519060200190613d1f929190615b5a565b50600060158260078110613d2f57fe5b6004020160020181905550601054601582600781101515613d4c57fe5b6004020160030155600101613c2d565b600054600160a060020a03163314613d7357600080fd5b80600160a060020a0316ff5b6000613d8c600954613e93565b604080516020808252601f908201527f41736b696e6720666f722061206e6577206920706172616d657465722e2e2e008183015290517f096835e36c2ccea88ff2b3aca87dfc938b977e52ea656873ff76a8dba50d4d349181900360600190a1613e636040805190810160405280600c81526020017f576f6c6672616d416c70686100000000000000000000000000000000000000008152506040805190810160405280600f81526020017f342072616e646f6d206e756d626572000000000000000000000000000000000081525060085461407b565b60009081526033602052604090208054600160a060020a031916600160a060020a03939093169290921790915550565b600b54600160a060020a03161580613ebd5750600b54613ebb90600160a060020a0316615421565b155b15613ece57613ecc6000615425565b505b600b60009054906101000a9004600160a060020a0316600160a060020a03166338cc48316040518163ffffffff1660e060020a028152600401602060405180830381600087803b158015613f2157600080fd5b505af1158015613f35573d6000803e3d6000fd5b505050506040513d6020811015613f4b57600080fd5b5051600c54600160a060020a0390811691161461400157600b60009054906101000a9004600160a060020a0316600160a060020a03166338cc48316040518163ffffffff1660e060020a028152600401602060405180830381600087803b158015613fb557600080fd5b505af1158015613fc9573d6000803e3d6000fd5b505050506040513d6020811015613fdf57600080fd5b5051600c8054600160a060020a031916600160a060020a039092169190911790555b600c54604080517fca6ad1e4000000000000000000000000000000000000000000000000000000008152600481018490529051600160a060020a039092169163ca6ad1e49160248082019260009290919082900301818387803b15801561406757600080fd5b505af11580156123c5573d6000803e3d6000fd5b600b546000908190600160a060020a031615806140aa5750600b546140a890600160a060020a0316615421565b155b156140bb576140b96000615425565b505b600b60009054906101000a9004600160a060020a0316600160a060020a03166338cc48316040518163ffffffff1660e060020a028152600401602060405180830381600087803b15801561410e57600080fd5b505af1158015614122573d6000803e3d6000fd5b505050506040513d602081101561413857600080fd5b5051600c54600160a060020a039081169116146141ee57600b60009054906101000a9004600160a060020a0316600160a060020a03166338cc48316040518163ffffffff1660e060020a028152600401602060405180830381600087803b1580156141a257600080fd5b505af11580156141b6573d6000803e3d6000fd5b505050506040513d60208110156141cc57600080fd5b5051600c8054600160a060020a031916600160a060020a039092169190911790555b600c54604080517f2ef3accc0000000000000000000000000000000000000000000000000000000081526024810186905260048101918252875160448201528751600160a060020a0390931692632ef3accc9289928892829160640190602086019080838360005b8381101561426e578181015183820152602001614256565b50505050905090810190601f16801561429b5780820380516001836020036101000a031916815260200191505b509350505050602060405180830381600087803b1580156142bb57600080fd5b505af11580156142cf573d6000803e3d6000fd5b505050506040513d60208110156142e557600080fd5b50519050670de0b6b3a76400003a8402018111156143065760009150614478565b600c546040517fc51be90f00000000000000000000000000000000000000000000000000000000815260006004820181815260648301879052608060248401908152895160848501528951600160a060020a039095169463c51be90f948794938c938c938c93604481019160a49091019060208801908083838c5b83811015614399578181015183820152602001614381565b50505050905090810190601f1680156143c65780820380516001836020036101000a031916815260200191505b50838103825285518152855160209182019187019080838360005b838110156143f95781810151838201526020016143e1565b50505050905090810190601f1680156144265780820380516001836020036101000a031916815260200191505b5096505050505050506020604051808303818588803b15801561444857600080fd5b505af115801561445c573d6000803e3d6000fd5b50505050506040513d602081101561447357600080fd5b505191505b509392505050565b600b54600090600160a060020a031615806144ad5750600b546144ab90600160a060020a0316615421565b155b156144be576144bc6000615425565b505b600b60009054906101000a9004600160a060020a0316600160a060020a03166338cc48316040518163ffffffff1660e060020a028152600401602060405180830381600087803b15801561451157600080fd5b505af1158015614525573d6000803e3d6000fd5b505050506040513d602081101561453b57600080fd5b5051600c54600160a060020a039081169116146145f157600b60009054906101000a9004600160a060020a0316600160a060020a03166338cc48316040518163ffffffff1660e060020a028152600401602060405180830381600087803b1580156145a557600080fd5b505af11580156145b9573d6000803e3d6000fd5b505050506040513d60208110156145cf57600080fd5b5051600c8054600160a060020a031916600160a060020a039092169190911790555b600c60009054906101000a9004600160a060020a0316600160a060020a031663c281d19e6040518163ffffffff1660e060020a028152600401602060405180830381600087803b15801561464457600080fd5b505af1158015614658573d6000803e3d6000fd5b505050506040513d602081101561466e57600080fd5b5051905090565b600061468282600061542f565b92915050565b60408051600160a060020a03831660009081526031602090815290839020805460026001821615610100026000190190911604601f8101839004909202830160a09081019094526080830182815292938493929084018282801561472d5780601f106147025761010080835404028352916020019161472d565b820191906000526020600020905b81548152906001019060200180831161471057829003601f168201915b505050505081526020016031600084600160a060020a0316600160a060020a031681526020019081526020016000206001018054600181600116156101000203166002900480601f0160208091040260200160405190810160405280929190818152602001828054600181600116156101000203166002900480156147f35780601f106147c8576101008083540402835291602001916147f3565b820191906000526020600020905b8154815290600101906020018083116147d657829003601f168201915b5050509183525050600160a060020a03831660009081526031602090815260409182902060020154908301526010549101526011546015906007811061483557fe5b600402016000820151816000019080519060200190614855929190615b5a565b50602082810151805161486e9260018501920190615b5a565b506040820151600282015560609091015160039091015550601180546001019055565b60408051600160a060020a03831660009081526031602090815283822080546002600180831615610100026000190190921604601f8101849004909302850160c090810190965260a085018381529395909460149490938493919284018282801561493d5780601f106149125761010080835404028352916020019161493d565b820191906000526020600020905b81548152906001019060200180831161492057829003601f168201915b505050505081526020016031600087600160a060020a0316600160a060020a031681526020019081526020016000206001018054600181600116156101000203166002900480601f016020809104026020016040519081016040528092919081815260200182805460018160011615610100020316600290048015614a035780601f106149d857610100808354040283529160200191614a03565b820191906000526020600020905b8154815290600101906020018083116149e657829003601f168201915b5050509183525050600160a060020a038616600081815260316020908152604080832060020154828601528401929092526010546060909301929092528354600181018086559483529181902083518051600590940290910192614a6a9284920190615b5a565b506020828101518051614a839260018501920190615b5a565b50604082015160028201556060820151600382018054600160a060020a031916600160a060020a03909216919091179055608090910151600490910155039050611aba8161218a565b600082821115614ad857fe5b50900390565b604080518082018252600c81527f286d6f642828312f2831305e000000000000000000000000000000000000000060208083019190915260028054845160018216156101000260001901909116829004601f81018490048402820184019095528481526060948594614cb59490939190830182828015614b9f5780601f10614b7457610100808354040283529160200191614b9f565b820191906000526020600020905b815481529060010190602001808311614b8257829003601f168201915b505060408051808201825260018082527f2d00000000000000000000000000000000000000000000000000000000000000602080840191909152600160a060020a038d1660009081526031825284902080548551600294821615610100026000190190911693909304601f8101839004830284018301909552848352929650909450909250830182828015614c755780601f10614c4a57610100808354040283529160200191614c75565b820191906000526020600020905b815481529060010190602001808311614c5857829003601f168201915b50505050506040805190810160405280600681526020017f29292a31305e00000000000000000000000000000000000000000000000000008152506155a1565b60038054604080516020601f60026000196101006001881615020190951694909404938401819004810282018101909252828152939450614e4993859390929091830182828015614d475780601f10614d1c57610100808354040283529160200191614d47565b820191906000526020600020905b815481529060010190602001808311614d2a57829003601f168201915b5050604080518082018252600581527f2c31305e2800000000000000000000000000000000000000000000000000000060208083019190915260048054845160026001831615610100026000190190921691909104601f8101849004840282018401909552848152929650919450909250830182828015614e095780601f10614dde57610100808354040283529160200191614e09565b820191906000526020600020905b815481529060010190602001808311614dec57829003601f168201915b50505050506040805190810160405280600181526020017f2b000000000000000000000000000000000000000000000000000000000000008152506155a1565b905061500a816031600086600160a060020a0316600160a060020a031681526020019081526020016000206001018054600181600116156101000203166002900480601f016020809104026020016040519081016040528092919081815260200182805460018160011615610100020316600290048015614f0b5780601f10614ee057610100808354040283529160200191614f0b565b820191906000526020600020905b815481529060010190602001808311614eee57829003601f168201915b5050604080518082018252600d81527f292d6d6f642828312f2831305e0000000000000000000000000000000000000060208083019190915260028054845160018216156101000260001901909116829004601f8101849004840282018401909552848152929650919450909250830182828015614fca5780601f10614f9f57610100808354040283529160200191614fca565b820191906000526020600020905b815481529060010190602001808311614fad57829003601f168201915b50505050506040805190810160405280600181526020017f2d000000000000000000000000000000000000000000000000000000000000008152506155a1565b600160a060020a03841660009081526031602090815260409182902080548351601f600260001961010060018616150201909316929092049182018490048402810184019094528084529394506151b1938593928301828280156150af5780601f10615084576101008083540402835291602001916150af565b820191906000526020600020905b81548152906001019060200180831161509257829003601f168201915b5050604080518082018252600681527f29292a31305e000000000000000000000000000000000000000000000000000060208083019190915260038054845160026001831615610100026000190190921691909104601f81018490048402820184019095528481529296509194509092508301828280156151715780601f1061514657610100808354040283529160200191615171565b820191906000526020600020905b81548152906001019060200180831161515457829003601f168201915b50505050506040805190810160405280600481526020017f2c31305e000000000000000000000000000000000000000000000000000000008152506155a1565b60408051808201825260018082527f2800000000000000000000000000000000000000000000000000000000000000602080840191909152600160a060020a038816600090815260318252849020820180548551600294821615610100026000190190911693909304601f810183900483028401830190955284835294955061536c94869490918301828280156152895780601f1061525e57610100808354040283529160200191615289565b820191906000526020600020905b81548152906001019060200180831161526c57829003601f168201915b5050604080518082018252600781527f2929292f31305e00000000000000000000000000000000000000000000000000602080830191909152600160a060020a038d16600090815260318252839020600190810180548551600293821615610100026000190190911692909204601f810184900484028301840190955284825292965094509092508301828280156153625780601f1061533757610100808354040283529160200191615362565b820191906000526020600020905b81548152906001019060200180831161534557829003601f168201915b50505050506155a1565b9392505050565b600160a060020a038116151561538857600080fd5b60008054604051600160a060020a03808516939216917f8be0079c531659141344cd1fd0a4f28419497f9722a3daafe3b4186f6b6457e091a360008054600160a060020a031916600160a060020a0392909216919091179055565b60008215156153f457506000614682565b5081810281838281151561540457fe5b041461468257fe5b6000818381151561541957fe5b049392505050565b3b90565b6000614682615802565b6000828180805b83518110156155845783517f30000000000000000000000000000000000000000000000000000000000000009085908390811061546f57fe5b90602001015160f860020a900460f860020a02600160f860020a031916101580156154e5575083517f3900000000000000000000000000000000000000000000000000000000000000908590839081106154c557fe5b90602001015160f860020a900460f860020a02600160f860020a03191611155b1561553e578115615504578515156154fc57615584565b600019909501945b600a830292506030848281518110151561551a57fe5b90602001015160f860020a900460f860020a0260f860020a9004038301925061557c565b838181518110151561554c57fe5b90602001015160f860020a900460f860020a02600160f860020a031916602e60f860020a02141561557c57600191505b600101615436565b60008611156155965785600a0a830292505b509095945050505050565b6060806060806060806060806000808e98508d97508c96508b95508a94508451865188518a518c51010101016040519080825280601f01601f1916602001820160405280156155fa578160200160208202803883390190505b50935083925060009150600090505b885181101561566757888181518110151561562057fe5b90602001015160f860020a900460f860020a02838380600101945081518110151561564757fe5b906020010190600160f860020a031916908160001a905350600101615609565b5060005b87518110156156c957878181518110151561568257fe5b90602001015160f860020a900460f860020a0283838060010194508151811015156156a957fe5b906020010190600160f860020a031916908160001a90535060010161566b565b5060005b865181101561572b5786818151811015156156e457fe5b90602001015160f860020a900460f860020a02838380600101945081518110151561570b57fe5b906020010190600160f860020a031916908160001a9053506001016156cd565b5060005b855181101561578d57858181518110151561574657fe5b90602001015160f860020a900460f860020a02838380600101945081518110151561576d57fe5b906020010190600160f860020a031916908160001a90535060010161572f565b5060005b84518110156157ef5784818151811015156157a857fe5b90602001015160f860020a900460f860020a0283838060010194508151811015156157cf57fe5b906020010190600160f860020a031916908160001a905350600101615791565b50909d9c50505050505050505050505050565b600080615822731d3b2638a7cc9f2cb3d298a3da7a90b67e5506ed615421565b111561589257600b8054600160a060020a031916731d3b2638a7cc9f2cb3d298a3da7a90b67e5506ed178155604080518082019091529081527f6574685f6d61696e6e6574000000000000000000000000000000000000000000602082015261588a90615b28565b506001613663565b60006158b173c03a2615d5efaf5f49f60b7bb6583eaec212fdf1615421565b111561591a57600b8054600160a060020a03191673c03a2615d5efaf5f49f60b7bb6583eaec212fdf117905560408051808201909152600c81527f6574685f726f707374656e330000000000000000000000000000000000000000602082015261588a90615b28565b600061593973b7a07bcf2ba2f2703b24c0691b5278999c59ac7e615421565b11156159a257600b8054600160a060020a03191673b7a07bcf2ba2f2703b24c0691b5278999c59ac7e17905560408051808201909152600981527f6574685f6b6f76616e0000000000000000000000000000000000000000000000602082015261588a90615b28565b60006159c173146500cfd35b22e4a392fe0adc06de1a1368ed48615421565b1115615a2957600b8054600160a060020a03191673146500cfd35b22e4a392fe0adc06de1a1368ed48178155604080518082019091529081527f6574685f72696e6b656279000000000000000000000000000000000000000000602082015261588a90615b28565b6000615a48736f485c8bf6fc43ea212e93bbf8ce046c7f1cb475615421565b1115615a7c5750600b8054600160a060020a031916736f485c8bf6fc43ea212e93bbf8ce046c7f1cb4751790556001613663565b6000615a9b7320e12a1f859b3feae5fb2a0a32c18f5a65555bbf615421565b1115615acf5750600b8054600160a060020a0319167320e12a1f859b3feae5fb2a0a32c18f5a65555bbf1790556001613663565b6000615aee7351efaf4c8b3c9afbd5ab9f4bbc82784ab6ef8faa615421565b1115615b225750600b8054600160a060020a0319167351efaf4c8b3c9afbd5ab9f4bbc82784ab6ef8faa1790556001613663565b50600090565b8051611aba90600d906020840190615b5a565b60e0604051908101604052806007906020820280388339509192915050565b828054600181600116156101000203166002900490600052602060002090601f016020900481019282601f10615b9b57805160ff1916838001178555615bc8565b82800160010185558215615bc8579182015b82811115615bc8578251825591602001919060010190615bad565b50615bd4929150615cbd565b5090565b60e060405190810160405280600081526020016000600160a060020a0316815260200160008152602001600081526020016000815260200160008152602001600081525090565b608060405190810160405280606081526020016060815260200160008152602001600081525090565b828054600181600116156101000203166002900490600052602060002090601f016020900481019282601f10615c815780548555615bc8565b82800160010185558215615bc857600052602060002091601f016020900482015b82811115615bc8578254825591600101919060010190615ca2565b61366391905b80821115615bd45760008155600101615cc356009bc068999fb1a0aac007a9b44ca6322a376441f42706bf5163600bb3d1a731647ecbd54b3baea533cf57ef049f9e04554be6a660d6dacd477488066eedf27beea165627a7a72305820cb62e15fbe5c4814295db0578b4b5a706f8528b98ad0fa295f51f8f7de551ac80029",
  "source": "pragma solidity ^0.4.20;\n\nimport \"./Lucky7Store.sol\";\n\ncontract Lucky7Test is Lucky7Store{\n\n    function Lucky7Test() payable{\n    }\n    \n    function insertTestLucky7Numbers() public{\n        lucky7Numbers[0] = Lucky7Number(\"1\",\"2\",10651283657614267398,drawNumber);\n        lucky7Numbers[1] = Lucky7Number(\"1\",\"2\",88052694543136051754,drawNumber);\n        lucky7Numbers[2] = Lucky7Number(\"1\",\"2\",52398723847810031239,drawNumber);\n        lucky7Numbers[3] = Lucky7Number(\"1\",\"2\",90527121997810111570,drawNumber);\n        lucky7Numbers[4] = Lucky7Number(\"1\",\"2\",30481723712938712983,drawNumber);\n        lucky7Numbers[5] = Lucky7Number(\"1\",\"2\",24342359080214091240,drawNumber);\n        lucky7Numbers[6] = Lucky7Number(\"1\",\"2\",75126192741201932912,drawNumber);\n    } \n\n    function() public payable{\n    }\n}\n",
  "sourcePath": "/Users/matiasbarrios/Desktop/Proyecto Consensys/luckyseven/contracts/Lucky7Test.sol",
  "compiler": {
    "name": "solc",
    "version": "0.4.24+commit.e67f0147.Emscripten.clang"
  },
  "schemaVersion": "2.0.1",
  "updatedAt": "2018-08-24T20:45:46.096Z"
}