{
  "contractName": "Lucky7Store",
  "abi": [
    {
      "constant": true,
      "inputs": [],
      "name": "getlucky7Numbers",
      "outputs": [
        {
          "name": "",
          "type": "uint256[7]"
        }
      ],
      "payable": false,
      "stateMutability": "view",
      "type": "function"
    },
    {
      "constant": false,
      "inputs": [
        {
          "name": "_newValue",
          "type": "string"
        }
      ],
      "name": "modifyParameterN",
      "outputs": [],
      "payable": false,
      "stateMutability": "nonpayable",
      "type": "function"
    },
    {
      "constant": true,
      "inputs": [
        {
          "name": "",
          "type": "uint256"
        }
      ],
      "name": "lucky7TicketID",
      "outputs": [
        {
          "name": "",
          "type": "uint256"
        }
      ],
      "payable": false,
      "stateMutability": "view",
      "type": "function"
    },
    {
      "constant": true,
      "inputs": [
        {
          "name": "",
          "type": "uint256"
        }
      ],
      "name": "lucky7TicketOwner",
      "outputs": [
        {
          "name": "",
          "type": "address"
        }
      ],
      "payable": false,
      "stateMutability": "view",
      "type": "function"
    },
    {
      "constant": false,
      "inputs": [],
      "name": "_orderLucky7Tickets",
      "outputs": [],
      "payable": false,
      "stateMutability": "nonpayable",
      "type": "function"
    },
    {
      "constant": false,
      "inputs": [
        {
          "name": "_ticketOwner",
          "type": "address"
        }
      ],
      "name": "_askForMuParameter",
      "outputs": [],
      "payable": false,
      "stateMutability": "nonpayable",
      "type": "function"
    },
    {
      "constant": false,
      "inputs": [
        {
          "name": "myid",
          "type": "bytes32"
        },
        {
          "name": "result",
          "type": "string"
        }
      ],
      "name": "__callback",
      "outputs": [],
      "payable": false,
      "stateMutability": "nonpayable",
      "type": "function"
    },
    {
      "constant": true,
      "inputs": [],
      "name": "settingLucky7Numbers",
      "outputs": [
        {
          "name": "",
          "type": "bool"
        }
      ],
      "payable": false,
      "stateMutability": "view",
      "type": "function"
    },
    {
      "constant": false,
      "inputs": [
        {
          "name": "_ticketID",
          "type": "uint256"
        }
      ],
      "name": "_checkForLucky7Ticket",
      "outputs": [],
      "payable": false,
      "stateMutability": "nonpayable",
      "type": "function"
    },
    {
      "constant": true,
      "inputs": [],
      "name": "n",
      "outputs": [
        {
          "name": "",
          "type": "string"
        }
      ],
      "payable": false,
      "stateMutability": "view",
      "type": "function"
    },
    {
      "constant": false,
      "inputs": [
        {
          "name": "myid",
          "type": "bytes32"
        },
        {
          "name": "result",
          "type": "string"
        },
        {
          "name": "proof",
          "type": "bytes"
        }
      ],
      "name": "__callback",
      "outputs": [],
      "payable": false,
      "stateMutability": "nonpayable",
      "type": "function"
    },
    {
      "constant": true,
      "inputs": [
        {
          "name": "",
          "type": "uint256"
        }
      ],
      "name": "lucky7Tickets",
      "outputs": [
        {
          "name": "difference",
          "type": "uint256"
        },
        {
          "name": "owner",
          "type": "address"
        },
        {
          "name": "ticketID",
          "type": "uint256"
        },
        {
          "name": "ticketValue",
          "type": "uint256"
        },
        {
          "name": "lucky7Number",
          "type": "uint256"
        },
        {
          "name": "lucky7NumberID",
          "type": "uint256"
        },
        {
          "name": "drawID",
          "type": "uint256"
        }
      ],
      "payable": false,
      "stateMutability": "view",
      "type": "function"
    },
    {
      "constant": false,
      "inputs": [],
      "name": "toggleLucky7Setting",
      "outputs": [],
      "payable": false,
      "stateMutability": "nonpayable",
      "type": "function"
    },
    {
      "constant": false,
      "inputs": [
        {
          "name": "_newValue",
          "type": "string"
        }
      ],
      "name": "modifyParameterJ",
      "outputs": [],
      "payable": false,
      "stateMutability": "nonpayable",
      "type": "function"
    },
    {
      "constant": false,
      "inputs": [],
      "name": "withdraw",
      "outputs": [],
      "payable": false,
      "stateMutability": "nonpayable",
      "type": "function"
    },
    {
      "constant": true,
      "inputs": [
        {
          "name": "",
          "type": "uint256"
        }
      ],
      "name": "lucky7Numbers",
      "outputs": [
        {
          "name": "mu",
          "type": "string"
        },
        {
          "name": "i",
          "type": "string"
        },
        {
          "name": "ticketValue",
          "type": "uint256"
        },
        {
          "name": "drawID",
          "type": "uint256"
        }
      ],
      "payable": false,
      "stateMutability": "view",
      "type": "function"
    },
    {
      "constant": false,
      "inputs": [],
      "name": "setNewGame",
      "outputs": [],
      "payable": false,
      "stateMutability": "nonpayable",
      "type": "function"
    },
    {
      "constant": true,
      "inputs": [
        {
          "name": "",
          "type": "address"
        }
      ],
      "name": "userValues",
      "outputs": [
        {
          "name": "mu",
          "type": "string"
        },
        {
          "name": "i",
          "type": "string"
        },
        {
          "name": "ticketValue",
          "type": "uint256"
        },
        {
          "name": "muReady",
          "type": "bool"
        },
        {
          "name": "iReady",
          "type": "bool"
        },
        {
          "name": "userPaidTicket",
          "type": "bool"
        }
      ],
      "payable": false,
      "stateMutability": "view",
      "type": "function"
    },
    {
      "constant": true,
      "inputs": [],
      "name": "b",
      "outputs": [
        {
          "name": "",
          "type": "string"
        }
      ],
      "payable": false,
      "stateMutability": "view",
      "type": "function"
    },
    {
      "constant": true,
      "inputs": [
        {
          "name": "",
          "type": "uint256"
        }
      ],
      "name": "tickets",
      "outputs": [
        {
          "name": "mu",
          "type": "string"
        },
        {
          "name": "i",
          "type": "string"
        },
        {
          "name": "ticketValue",
          "type": "uint256"
        },
        {
          "name": "owner",
          "type": "address"
        },
        {
          "name": "drawID",
          "type": "uint256"
        }
      ],
      "payable": false,
      "stateMutability": "view",
      "type": "function"
    },
    {
      "constant": true,
      "inputs": [],
      "name": "oraclizeGasLimit",
      "outputs": [
        {
          "name": "",
          "type": "uint256"
        }
      ],
      "payable": false,
      "stateMutability": "view",
      "type": "function"
    },
    {
      "constant": true,
      "inputs": [],
      "name": "numberOfLucky7Numbers",
      "outputs": [
        {
          "name": "",
          "type": "uint256"
        }
      ],
      "payable": false,
      "stateMutability": "view",
      "type": "function"
    },
    {
      "constant": true,
      "inputs": [],
      "name": "getlucky7Tickets",
      "outputs": [
        {
          "name": "",
          "type": "uint256[7]"
        }
      ],
      "payable": false,
      "stateMutability": "view",
      "type": "function"
    },
    {
      "constant": false,
      "inputs": [],
      "name": "renounceOwnership",
      "outputs": [],
      "payable": false,
      "stateMutability": "nonpayable",
      "type": "function"
    },
    {
      "constant": true,
      "inputs": [],
      "name": "enterpriseWallet",
      "outputs": [
        {
          "name": "",
          "type": "address"
        }
      ],
      "payable": false,
      "stateMutability": "view",
      "type": "function"
    },
    {
      "constant": false,
      "inputs": [],
      "name": "_orderLucky7Numbers",
      "outputs": [],
      "payable": false,
      "stateMutability": "nonpayable",
      "type": "function"
    },
    {
      "constant": false,
      "inputs": [
        {
          "name": "_ticketOwner",
          "type": "address"
        }
      ],
      "name": "_generateTicket",
      "outputs": [],
      "payable": false,
      "stateMutability": "nonpayable",
      "type": "function"
    },
    {
      "constant": false,
      "inputs": [
        {
          "name": "_newValue",
          "type": "uint256"
        }
      ],
      "name": "modifyOraclizeGasLimit",
      "outputs": [],
      "payable": false,
      "stateMutability": "nonpayable",
      "type": "function"
    },
    {
      "constant": false,
      "inputs": [],
      "name": "destroy",
      "outputs": [],
      "payable": false,
      "stateMutability": "nonpayable",
      "type": "function"
    },
    {
      "constant": false,
      "inputs": [
        {
          "name": "_newValue",
          "type": "string"
        }
      ],
      "name": "modifyParameterB",
      "outputs": [],
      "payable": false,
      "stateMutability": "nonpayable",
      "type": "function"
    },
    {
      "constant": false,
      "inputs": [
        {
          "name": "_newValue",
          "type": "uint256"
        }
      ],
      "name": "modifyGenerateTicketPrice",
      "outputs": [],
      "payable": false,
      "stateMutability": "nonpayable",
      "type": "function"
    },
    {
      "constant": true,
      "inputs": [],
      "name": "numberOfWinners",
      "outputs": [
        {
          "name": "",
          "type": "uint256"
        }
      ],
      "payable": false,
      "stateMutability": "view",
      "type": "function"
    },
    {
      "constant": true,
      "inputs": [],
      "name": "owner",
      "outputs": [
        {
          "name": "",
          "type": "address"
        }
      ],
      "payable": false,
      "stateMutability": "view",
      "type": "function"
    },
    {
      "constant": false,
      "inputs": [],
      "name": "_generateLucky7Number",
      "outputs": [],
      "payable": false,
      "stateMutability": "nonpayable",
      "type": "function"
    },
    {
      "constant": false,
      "inputs": [
        {
          "name": "_newAddress",
          "type": "address"
        }
      ],
      "name": "modifyEnterprisePrize",
      "outputs": [],
      "payable": false,
      "stateMutability": "nonpayable",
      "type": "function"
    },
    {
      "constant": true,
      "inputs": [],
      "name": "oraclizeCustomGasPrice",
      "outputs": [
        {
          "name": "",
          "type": "uint256"
        }
      ],
      "payable": false,
      "stateMutability": "view",
      "type": "function"
    },
    {
      "constant": true,
      "inputs": [],
      "name": "p",
      "outputs": [
        {
          "name": "",
          "type": "string"
        }
      ],
      "payable": false,
      "stateMutability": "view",
      "type": "function"
    },
    {
      "constant": false,
      "inputs": [
        {
          "name": "_newValue",
          "type": "string"
        }
      ],
      "name": "modifyParameterP",
      "outputs": [],
      "payable": false,
      "stateMutability": "nonpayable",
      "type": "function"
    },
    {
      "constant": true,
      "inputs": [],
      "name": "j",
      "outputs": [
        {
          "name": "",
          "type": "string"
        }
      ],
      "payable": false,
      "stateMutability": "view",
      "type": "function"
    },
    {
      "constant": true,
      "inputs": [],
      "name": "balance",
      "outputs": [
        {
          "name": "",
          "type": "uint256"
        }
      ],
      "payable": false,
      "stateMutability": "view",
      "type": "function"
    },
    {
      "constant": true,
      "inputs": [],
      "name": "initialLucky7TicketPosition",
      "outputs": [
        {
          "name": "",
          "type": "uint256"
        }
      ],
      "payable": false,
      "stateMutability": "view",
      "type": "function"
    },
    {
      "constant": false,
      "inputs": [
        {
          "name": "_newValue",
          "type": "uint256"
        }
      ],
      "name": "modifySellTicketPrice",
      "outputs": [],
      "payable": false,
      "stateMutability": "nonpayable",
      "type": "function"
    },
    {
      "constant": true,
      "inputs": [],
      "name": "indexForLucky7Array",
      "outputs": [
        {
          "name": "",
          "type": "uint256"
        }
      ],
      "payable": false,
      "stateMutability": "view",
      "type": "function"
    },
    {
      "constant": false,
      "inputs": [
        {
          "name": "_newValue",
          "type": "uint256"
        }
      ],
      "name": "modifyNumberOfLucky7Numbers",
      "outputs": [],
      "payable": false,
      "stateMutability": "nonpayable",
      "type": "function"
    },
    {
      "constant": false,
      "inputs": [
        {
          "name": "_newValue",
          "type": "uint256"
        }
      ],
      "name": "modifyNumberOfWinners",
      "outputs": [],
      "payable": false,
      "stateMutability": "nonpayable",
      "type": "function"
    },
    {
      "constant": false,
      "inputs": [
        {
          "name": "_newValue",
          "type": "uint256"
        }
      ],
      "name": "modifyOraclizeCustomGasPrice",
      "outputs": [],
      "payable": false,
      "stateMutability": "nonpayable",
      "type": "function"
    },
    {
      "constant": true,
      "inputs": [],
      "name": "generateTicketPrice",
      "outputs": [
        {
          "name": "",
          "type": "uint256"
        }
      ],
      "payable": false,
      "stateMutability": "view",
      "type": "function"
    },
    {
      "constant": true,
      "inputs": [],
      "name": "drawNumber",
      "outputs": [
        {
          "name": "",
          "type": "uint256"
        }
      ],
      "payable": false,
      "stateMutability": "view",
      "type": "function"
    },
    {
      "constant": false,
      "inputs": [
        {
          "name": "_ticketOwner",
          "type": "address"
        }
      ],
      "name": "_askForTicket",
      "outputs": [],
      "payable": false,
      "stateMutability": "nonpayable",
      "type": "function"
    },
    {
      "constant": true,
      "inputs": [],
      "name": "sellTicketPrice",
      "outputs": [
        {
          "name": "",
          "type": "uint256"
        }
      ],
      "payable": false,
      "stateMutability": "view",
      "type": "function"
    },
    {
      "constant": true,
      "inputs": [
        {
          "name": "",
          "type": "uint256"
        }
      ],
      "name": "lucky7TicketDifference",
      "outputs": [
        {
          "name": "",
          "type": "uint256"
        }
      ],
      "payable": false,
      "stateMutability": "view",
      "type": "function"
    },
    {
      "constant": false,
      "inputs": [
        {
          "name": "_newOwner",
          "type": "address"
        }
      ],
      "name": "transferOwnership",
      "outputs": [],
      "payable": false,
      "stateMutability": "nonpayable",
      "type": "function"
    },
    {
      "constant": true,
      "inputs": [
        {
          "name": "",
          "type": "address"
        }
      ],
      "name": "pendingWithdrawals",
      "outputs": [
        {
          "name": "",
          "type": "uint256"
        }
      ],
      "payable": false,
      "stateMutability": "view",
      "type": "function"
    },
    {
      "constant": false,
      "inputs": [],
      "name": "_deliverPrizes",
      "outputs": [],
      "payable": false,
      "stateMutability": "nonpayable",
      "type": "function"
    },
    {
      "constant": false,
      "inputs": [
        {
          "name": "_recipient",
          "type": "address"
        }
      ],
      "name": "destroyAndSend",
      "outputs": [],
      "payable": false,
      "stateMutability": "nonpayable",
      "type": "function"
    },
    {
      "constant": false,
      "inputs": [
        {
          "name": "_ticketOwner",
          "type": "address"
        }
      ],
      "name": "_askForIParameter",
      "outputs": [],
      "payable": false,
      "stateMutability": "nonpayable",
      "type": "function"
    },
    {
      "inputs": [],
      "payable": true,
      "stateMutability": "payable",
      "type": "constructor"
    },
    {
      "payable": true,
      "stateMutability": "payable",
      "type": "fallback"
    },
    {
      "anonymous": false,
      "inputs": [
        {
          "indexed": false,
          "name": "description",
          "type": "string"
        }
      ],
      "name": "newOraclizeQuery",
      "type": "event"
    },
    {
      "anonymous": false,
      "inputs": [
        {
          "indexed": false,
          "name": "parameterOwner",
          "type": "address"
        },
        {
          "indexed": false,
          "name": "muParameter",
          "type": "string"
        }
      ],
      "name": "newMuReceived",
      "type": "event"
    },
    {
      "anonymous": false,
      "inputs": [
        {
          "indexed": false,
          "name": "parameterOwner",
          "type": "address"
        },
        {
          "indexed": false,
          "name": "iParameter",
          "type": "string"
        }
      ],
      "name": "newIReceived",
      "type": "event"
    },
    {
      "anonymous": false,
      "inputs": [
        {
          "indexed": false,
          "name": "parameterOwner",
          "type": "address"
        },
        {
          "indexed": false,
          "name": "newTicket",
          "type": "string"
        }
      ],
      "name": "newTicketReceived",
      "type": "event"
    },
    {
      "anonymous": false,
      "inputs": [
        {
          "indexed": false,
          "name": "feeType",
          "type": "string"
        },
        {
          "indexed": false,
          "name": "_oldValue",
          "type": "uint256"
        },
        {
          "indexed": false,
          "name": "_newValue",
          "type": "uint256"
        }
      ],
      "name": "numberModified",
      "type": "event"
    },
    {
      "anonymous": false,
      "inputs": [
        {
          "indexed": false,
          "name": "parameter",
          "type": "string"
        },
        {
          "indexed": false,
          "name": "_oldValue",
          "type": "string"
        },
        {
          "indexed": false,
          "name": "_newValue",
          "type": "string"
        }
      ],
      "name": "parameterModified",
      "type": "event"
    },
    {
      "anonymous": false,
      "inputs": [
        {
          "indexed": false,
          "name": "parameter",
          "type": "string"
        },
        {
          "indexed": false,
          "name": "_oldValue",
          "type": "address"
        },
        {
          "indexed": false,
          "name": "_newValue",
          "type": "address"
        }
      ],
      "name": "walletModified",
      "type": "event"
    },
    {
      "anonymous": false,
      "inputs": [
        {
          "indexed": true,
          "name": "previousOwner",
          "type": "address"
        }
      ],
      "name": "OwnershipRenounced",
      "type": "event"
    },
    {
      "anonymous": false,
      "inputs": [
        {
          "indexed": true,
          "name": "previousOwner",
          "type": "address"
        },
        {
          "indexed": true,
          "name": "newOwner",
          "type": "address"
        }
      ],
      "name": "OwnershipTransferred",
      "type": "event"
    },
    {
      "constant": false,
      "inputs": [],
      "name": "sellRandomTicket",
      "outputs": [],
      "payable": true,
      "stateMutability": "payable",
      "type": "function"
    },
    {
      "constant": false,
      "inputs": [],
      "name": "generateRandomTicket",
      "outputs": [],
      "payable": true,
      "stateMutability": "payable",
      "type": "function"
    },
    {
      "constant": false,
      "inputs": [],
      "name": "sellGeneratedTicket",
      "outputs": [],
      "payable": true,
      "stateMutability": "payable",
      "type": "function"
    }
  ],
  "bytecode": "0x60c0604052600160808190527f310000000000000000000000000000000000000000000000000000000000000060a0908152620000409160069190620001b0565b506040805180820190915260018082527f380000000000000000000000000000000000000000000000000000000000000060209092019182526200008791600791620001b0565b506040805180820190915260058082527f31303030300000000000000000000000000000000000000000000000000000006020909201918252620000ce91600891620001b0565b506040805180820190915260028082527f323000000000000000000000000000000000000000000000000000000000000060209092019182526200011591600991620001b0565b506007600a556003600b556611c37937e08000600c55662aa1efb94e0000600d55620493e0600e5563ee6b2800600f556005805460108054600160a060020a0319908116600160a060020a038416179091556000601181905560128190556013805460ff19166001179055603981905591811633179092558054909116736f485c8bf6fc43ea212e93bbf8ce046c7f1cb47517905562000255565b828054600181600116156101000203166002900490600052602060002090601f016020900481019282601f10620001f357805160ff191683800117855562000223565b8280016001018555821562000223579182015b828111156200022357825182559160200191906001019062000206565b506200023192915062000235565b5090565b6200025291905b808211156200023157600081556001016200023c565b90565b6156d180620002656000396000f3006080604052600436106102a55763ffffffff60e060020a60003504166301591f1381146102a75780630b8ec740146102f45780630cc38b2b146102fc57806310cd4b8a146103555780631c3ed1d31461037f5780631cf4c3d1146103b35780631ded3bec146103c857806323d370ba146103d057806327dc297e146103f15780632caf9eee1461044f5780632de729eb146104785780632e52d6061461049057806338bbfa501461051a578063396fb422146105b657806339df3f4f1461060e5780633bb7daf4146106235780633ccfd60b1461067c5780633eba34661461069157806340014911146107955780634acfd9b8146107aa5780634df7e3d0146108c957806350b44712146108de57806350b9c428146109f157806359f9fe8214610a065780635edbc36b14610a1b578063715018a614610a3057806372c3477d14610a45578063741606b514610a4d57806375edd25714610a6257806377d8a83014610a77578063809fc15314610a9857806383197ef014610ab057806383bb7bb714610ac55780638aa5fafa14610b1e5780638acfaca914610b365780638da5cb5b14610b4b57806390c31c4c14610b6057806396701ce914610b755780639ac2bf9114610b965780639ae8886a14610bab5780639dec38ab14610bc0578063b582ec5f14610c19578063b69ef8a814610c2e578063bb49516b14610c43578063bcb740ab14610c58578063c56969ab14610c70578063c71f04ac14610c85578063c90cdc7e14610c9d578063d383e86214610cb5578063d566bcf014610ccd578063d80ffb2014610ce2578063ddc110fa14610cf7578063e5663c4814610d18578063e802ae1414610d2d578063f2fde38b14610d45578063f3f4370314610d66578063f405228914610d87578063f5074f4114610d9c578063fd9be1b214610dbd575b005b3480156102b357600080fd5b506102bc610dde565b604051808260e080838360005b838110156102e15781810151838201526020016102c9565b5050505090500191505060405180910390f35b6102a5610e55565b34801561030857600080fd5b506040805160206004803580820135601f81018490048402850184019095528484526102a59436949293602493928401919081908401838280828437509497506110119650505050505050565b34801561036157600080fd5b5061036d6004356111f9565b60408051918252519081900360200190f35b34801561038b57600080fd5b5061039760043561120b565b60408051600160a060020a039092168252519081900360200190f35b3480156103bf57600080fd5b506102a5611226565b6102a56115fc565b3480156103dc57600080fd5b506102a5600160a060020a036004351661166b565b3480156103fd57600080fd5b5060408051602060046024803582810135601f81018590048502860185019096528585526102a595833595369560449491939091019190819084018382808284375094975061177d9650505050505050565b34801561045b57600080fd5b50610464611d90565b604080519115158252519081900360200190f35b34801561048457600080fd5b506102a5600435611d99565b34801561049c57600080fd5b506104a5611fdb565b6040805160208082528351818301528351919283929083019185019080838360005b838110156104df5781810151838201526020016104c7565b50505050905090810190601f16801561050c5780820380516001836020036101000a031916815260200191505b509250505060405180910390f35b34801561052657600080fd5b5060408051602060046024803582810135601f81018590048502860185019096528585526102a595833595369560449491939091019190819084018382808284375050604080516020601f89358b018035918201839004830284018301909452808352979a9998810197919650918201945092508291508401838280828437509497506120699650505050505050565b3480156105c257600080fd5b506105ce60043561206e565b60408051978852600160a060020a039096166020880152868601949094526060860192909252608085015260a084015260c0830152519081900360e00190f35b34801561061a57600080fd5b506102a56120c5565b34801561062f57600080fd5b506040805160206004803580820135601f81018490048402850184019095528484526102a59436949293602493928401919081908401838280828437509497506120f09650505050505050565b34801561068857600080fd5b506102a5612236565b34801561069d57600080fd5b506106a9600435612277565b604051808060200180602001858152602001848152602001838103835287818151815260200191508051906020019080838360005b838110156106f65781810151838201526020016106de565b50505050905090810190601f1680156107235780820380516001836020036101000a031916815260200191505b50838103825286518152865160209182019188019080838360005b8381101561075657818101518382015260200161073e565b50505050905090810190601f1680156107835780820380516001836020036101000a031916815260200191505b50965050505050505060405180910390f35b3480156107a157600080fd5b506102a56123c3565b3480156107b657600080fd5b506107cb600160a060020a03600435166123fe565b604080519081018590528315156060820152821515608082015281151560a082015260c08082528751908201528651819060208083019160e08401918b019080838360005b83811015610828578181015183820152602001610810565b50505050905090810190601f1680156108555780820380516001836020036101000a031916815260200191505b5083810382528851815288516020918201918a019080838360005b83811015610888578181015183820152602001610870565b50505050905090810190601f1680156108b55780820380516001836020036101000a031916815260200191505b509850505050505050505060405180910390f35b3480156108d557600080fd5b506104a561255e565b3480156108ea57600080fd5b506108f66004356125b9565b60408051908101849052600160a060020a03831660608201526080810182905260a08082528651908201528551819060208083019160c08401918a019080838360005b83811015610951578181015183820152602001610939565b50505050905090810190601f16801561097e5780820380516001836020036101000a031916815260200191505b50838103825287518152875160209182019189019080838360005b838110156109b1578181015183820152602001610999565b50505050905090810190601f1680156109de5780820380516001836020036101000a031916815260200191505b5097505050505050505060405180910390f35b3480156109fd57600080fd5b5061036d612726565b348015610a1257600080fd5b5061036d61272c565b348015610a2757600080fd5b506102bc612732565b348015610a3c57600080fd5b506102a56127c3565b6102a5612824565b348015610a5957600080fd5b50610397612872565b348015610a6e57600080fd5b506102a5612881565b348015610a8357600080fd5b506102a5600160a060020a0360043516612cbf565b348015610aa457600080fd5b506102a5600435612cd1565b348015610abc57600080fd5b506102a5612d54565b348015610ad157600080fd5b506040805160206004803580820135601f81018490048402850184019095528484526102a5943694929360249392840191908190840183828082843750949750612d799650505050505050565b348015610b2a57600080fd5b506102a5600435612ebf565b348015610b4257600080fd5b5061036d612f42565b348015610b5757600080fd5b50610397612f48565b348015610b6c57600080fd5b506102a5612f57565b348015610b8157600080fd5b506102a5600160a060020a0360043516612fb8565b348015610ba257600080fd5b5061036d613069565b348015610bb757600080fd5b506104a561306f565b348015610bcc57600080fd5b506040805160206004803580820135601f81018490048402850184019095528484526102a59436949293602493928401919081908401838280828437509497506130ca9650505050505050565b348015610c2557600080fd5b506104a5613210565b348015610c3a57600080fd5b5061036d61326b565b348015610c4f57600080fd5b5061036d61328c565b348015610c6457600080fd5b506102a5600435613292565b348015610c7c57600080fd5b5061036d613315565b348015610c9157600080fd5b506102a560043561331b565b348015610ca957600080fd5b506102a560043561339e565b348015610cc157600080fd5b506102a5600435613421565b348015610cd957600080fd5b5061036d6134ca565b348015610cee57600080fd5b5061036d6134d0565b348015610d0357600080fd5b506102a5600160a060020a03600435166134d6565b348015610d2457600080fd5b5061036d6135bd565b348015610d3957600080fd5b5061036d6004356135c3565b348015610d5157600080fd5b506102a5600160a060020a03600435166135d5565b348015610d7257600080fd5b5061036d600160a060020a03600435166135f5565b348015610d9357600080fd5b506102a5613607565b348015610da857600080fd5b506102a5600160a060020a0360043516613a0d565b348015610dc957600080fd5b506102a5600160a060020a0360043516613a30565b610de66154c9565b6000805b600a54811015610e215760168160078110610e0157fe5b60040201600201548282600781101515610e1757fe5b0155600101610dea565b6040805160e081019182905290839060079082845b815481526020019060010190808311610e365750505050509250505090565b600d543390341015610e6657600080fd5b600160a060020a0381166000908152603260205260409020600301805462ff000019166201000017905560135460ff1615610ea057600080fd5b6040805133600090815260326020529190912080547fc5d2460186f7233c927e7db2dcc703c0e500b653ca82273b7bfad8045d85a470929081908390600261010060018316150260001901909116048015610f325780601f10610f10576101008083540402835291820191610f32565b820191906000526020600020905b815481529060010190602001808311610f1e575b505091505060405180910390206000191614158015610ffa575060408051336000908152603260205291909120600190810180547fc5d2460186f7233c927e7db2dcc703c0e500b653ca82273b7bfad8045d85a470939192829184916002610100918316159190910260001901909116048015610fe65780601f10610fc4576101008083540402835291820191610fe6565b820191906000526020600020905b815481529060010190602001808311610fd2575b505091505060405180910390206000191614155b151561100557600080fd5b61100e336134d6565b50565b600554606090600160a060020a0316331461102b57600080fd5b6007805460408051602060026001851615610100026000190190941693909304601f810184900484028201840190925281815292918301828280156110b15780601f10611086576101008083540402835291602001916110b1565b820191906000526020600020905b81548152906001019060200180831161109457829003601f168201915b505085519394506110cd936007935060208701925090506154e8565b50600080516020615686833981519152818360405180806020018060200180602001848103845260148152602001807f506172616d65746572206e206d6f646966696564000000000000000000000000815250602001848103835286818151815260200191508051906020019080838360005b83811015611158578181015183820152602001611140565b50505050905090810190601f1680156111855780820380516001836020036101000a031916815260200191505b50848103825285518152855160209182019187019080838360005b838110156111b85781810151838201526020016111a0565b50505050905090810190601f1680156111e55780820380516001836020036101000a031916815260200191505b509550505050505060405180910390a15050565b60386020526000908152604090205481565b603760205260009081526040902054600160a060020a031681565b61122e615566565b60055460009081908190600160a060020a0316331461124c57600080fd5b5060005b600a5481101561137a576040805160e0810182526000838152603660209081528382205483528482526037815283822054600160a060020a03168184015284825260388082528483205494840185905291859052526015805460149360608401929181106112ba57fe5b90600052602060002090600502016002015481526020016016846007811015156112e057fe5b600490810291909101600290810154835260208084018790526011546040948501528554600180820188556000978852968290208651600790920201908155908501518187018054600160a060020a031916600160a060020a0390921691909117905592840151908301556060830151600383015560808301519082015560a0820151600582015560c09091015160069091015501611250565b506039545b603954600a54018110156115f65780925060148181548110151561139f57fe5b60009182526020918290206040805160e081018252600790930290910180548352600180820154600160a060020a0316948401949094526002810154918301919091526003810154606083015260048101546080830152600581015460a08301526006015460c08201529450810191505b603954600a54018210156114ce57601480548390811061142c57fe5b6000918252602090912060079091020154845111156114c357601480548390811061145357fe5b60009182526020918290206040805160e0810182526007909302909101805483526001810154600160a060020a0316938301939093526002830154908201526003820154606082015260048201546080820152600582015460a082015260069091015460c0820152935090915081905b600190910190611410565b8281146115ee5760148054829081106114e357fe5b906000526020600020906007020160148481548110151561150057fe5b6000918252602090912082546007909202019081556001808301549082018054600160a060020a031916600160a060020a0390921691909117905560028083015490820155600380830154908201556004808301549082015560058083015490820155600691820154910155601480548591908390811061157d57fe5b600091825260209182902083516007929092020190815590820151600182018054600160a060020a031916600160a060020a0390921691909117905560408201516002820155606082015160038201556080820151600482015560a0820151600582015560c0909101516006909101555b60010161137f565b50505050565b600d54339034101561160d57600080fd5b600160a060020a0381166000908152603260205260408082206003908101805462ff00001916620100001790553380845291909220909101805461ffff1916905560135460ff161561165e57600080fd5b61166733612cbf565b5050565b6000611678600f54613b44565b604080516020808252808201527f41736b696e6720666f722061206e6577206d7520706172616d657465722e2e2e8183015290517f46cb989ef9cef13e930e3b7f286225a086e716a90d63e0b7da85d310a9db0c9a9181900360600190a161174d6040805190810160405280600c81526020017f576f6c6672616d416c70686100000000000000000000000000000000000000008152506040805190810160405280600f81526020017f342072616e646f6d206e756d6265720000000000000000000000000000000000815250600e54613d2a565b60009081526033602052604090208054600160a060020a031916600160a060020a03939093169290921790915550565b61178561412b565b600160a060020a0316331461179957600080fd5b600082815260336020526040902054600160a060020a0316158015906117e75750600082815260336020908152604080832054600160a060020a03168352603290915290206003015460ff16155b156119a957600082815260336020908152604080832054600160a060020a0316835260328252909120825161181e928401906154e8565b506000828152603360209081526040808320548151600160a060020a0390911680825281840183815286519383019390935285517f47eedbcfd0da23d2413b78bd7807ecbde2a9754fa0dc19185984a244d9cd773a959194879492606085019291860191908190849084905b838110156118a257818101518382015260200161188a565b50505050905090810190601f1680156118cf5780820380516001836020036101000a031916815260200191505b50935050505060405180910390a160008281526033602090815260408083208054600160a060020a03908116855260329093528184206003908101805460ff191660019081179091559154909316845292200154610100900460ff16151514801561197e5750600082815260336020908152604080832054600160a060020a03168352603290915290206003015460ff620100009091041615156001148061197e575060135460ff1615156001145b156119a4576000828152603360205260409020546119a490600160a060020a03166134d6565b611667565b600082815260346020526040902054600160a060020a0316158015906119fc5750600082815260346020908152604080832054600160a060020a031683526032909152902060030154610100900460ff16155b15611bbc57600082815260346020908152604080832054600160a060020a03168352603282529091208251611a39926001909201918401906154e8565b506000828152603460209081526040808320548151600160a060020a0390911680825281840183815286519383019390935285517f493aa57ad5f18480f956f6979e26052f3c3e9b6f4985b1331bfa696904e10cd5959194879492606085019291860191908190849084905b83811015611abd578181015183820152602001611aa5565b50505050905090810190601f168015611aea5780820380516001836020036101000a031916815260200191505b50935050505060405180910390a160008281526034602090815260408083208054600160a060020a03908116855260329093528184206003908101805461ff00191661010017905590549092168352909120015460ff1615156001148015611b965750600082815260346020908152604080832054600160a060020a03168352603290915290206003015460ff6201000090910416151560011480611b96575060135460ff1615156001145b156119a4576000828152603460205260409020546119a490600160a060020a03166134d6565b600082815260356020526040902054600160a060020a031615801590611c265750600082815260356020908152604080832054600160a060020a03168352603290915290206003015460ff6201000090910416151560011480611c26575060135460ff1615156001145b1561166757611c348161431c565b60008381526035602081815260408084208054600160a060020a039081168652603284528286206002019690965587855292825291548251941680855284820183815286519386019390935285517f3c6507a39df055ecbb0672078b29c556fa529767da7d5676e77478914e3b5987959194879492936060850192908601918190849084905b83811015611cd2578181015183820152602001611cba565b50505050905090810190601f168015611cff5780820380516001836020036101000a031916815260200191505b50935050505060405180910390a1600082815260356020908152604080832054600160a060020a0316835260329091529020600301805462ff00001916905560135460ff16151560011415611d6f576000828152603560205260409020546119a490600160a060020a031661432f565b60008281526035602052604090205461166790600160a060020a0316614538565b60135460ff1681565b60008060008060166001600a5403600781101515611db357fe5b6004020160020154601586815481101515611dca57fe5b9060005260206000209060050201600201541115611e3957600a54600019019350611e3260168560078110611dfb57fe5b6004020160020154601587815481101515611e1257fe5b90600052602060002090600502016002015461477390919063ffffffff16565b9250611f3a565b6018546015805487908110611e4a57fe5b9060005260206000209060050201600201541015611eaf5760009350611e32601586815481101515611e7857fe5b906000526020600020906005020160020154601686600781101515611e9957fe5b600402016002015461477390919063ffffffff16565b60168460078110611ebc57fe5b6004020160020154601586815481101515611ed357fe5b9060005260206000209060050201600201541115611ef657600190930192611eaf565b611f0a6016600019860160078110611dfb57fe5b9150611f1e601586815481101515611e7857fe5b905081811115611f3657600184039350819250611f3a565b8092505b600084815260376020526040902054600160a060020a03161580611f6b575060008481526036602052604090205483105b15611fd4576015805486908110611f7e57fe5b60009182526020808320600360059093020191909101548683526037825260408084208054600160a060020a031916600160a060020a039093169290921790915560368252808320869055603890915290208590555b5050505050565b6007805460408051602060026001851615610100026000190190941693909304601f810184900484028201840190925281815292918301828280156120615780601f1061203657610100808354040283529160200191612061565b820191906000526020600020905b81548152906001019060200180831161204457829003601f168201915b505050505081565b505050565b601480548290811061207c57fe5b60009182526020909120600790910201805460018201546002830154600384015460048501546005860154600690960154949650600160a060020a039093169491939092919087565b600554600160a060020a031633146120dc57600080fd5b6013805460ff19811660ff90911615179055565b600554606090600160a060020a0316331461210a57600080fd5b6009805460408051602060026001851615610100026000190190941693909304601f810184900484028201840190925281815292918301828280156121905780601f1061216557610100808354040283529160200191612190565b820191906000526020600020905b81548152906001019060200180831161217357829003601f168201915b505085519394506121ac936009935060208701925090506154e8565b50600080516020615686833981519152818360405180806020018060200180602001848103845260148152602001807f506172616d65746572206a206d6f6469666965640000000000000000000000008152506020018481038352868181518152602001915080519060200190808383600083811015611158578181015183820152602001611140565b336000818152603a6020526040808220805490839055905190929183156108fc02918491818181858888f19350505050158015611667573d6000803e3d6000fd5b6016816007811061228457fe5b60040201805460408051602060026001851615610100026000190190941693909304601f8101849004840282018401909252818152929350839183018282801561230f5780601f106122e45761010080835404028352916020019161230f565b820191906000526020600020905b8154815290600101906020018083116122f257829003601f168201915b505050505090806001018054600181600116156101000203166002900480601f0160208091040260200160405190810160405280929190818152602001828054600181600116156101000203166002900480156123ad5780601f10612382576101008083540402835291602001916123ad565b820191906000526020600020905b81548152906001019060200180831161239057829003601f168201915b5050505050908060020154908060030154905084565b600554600160a060020a031633146123da57600080fd5b600a54601154026039556123ec6120c5565b6123f4611226565b6123fc613607565b565b60326020908152600091825260409182902080548351601f600260001961010060018616150201909316929092049182018490048402810184019094528084529092918391908301828280156124955780601f1061246a57610100808354040283529160200191612495565b820191906000526020600020905b81548152906001019060200180831161247857829003601f168201915b505050505090806001018054600181600116156101000203166002900480601f0160208091040260200160405190810160405280929190818152602001828054600181600116156101000203166002900480156125335780601f1061250857610100808354040283529160200191612533565b820191906000526020600020905b81548152906001019060200180831161251657829003601f168201915b50505050600283015460039093015491929160ff808216925061010082048116916201000090041686565b6006805460408051602060026001851615610100026000190190941693909304601f810184900484028201840190925281815292918301828280156120615780601f1061203657610100808354040283529160200191612061565b60158054829081106125c757fe5b60009182526020918290206005919091020180546040805160026001841615610100026000190190931692909204601f8101859004850283018501909152808252919350918391908301828280156126605780601f1061263557610100808354040283529160200191612660565b820191906000526020600020905b81548152906001019060200180831161264357829003601f168201915b505050505090806001018054600181600116156101000203166002900480601f0160208091040260200160405190810160405280929190818152602001828054600181600116156101000203166002900480156126fe5780601f106126d3576101008083540402835291602001916126fe565b820191906000526020600020905b8154815290600101906020018083116126e157829003601f168201915b505050506002830154600384015460049094015492939092600160a060020a03909116915085565b600e5481565b600a5481565b61273a6154c9565b6000805b600a54811015610e2157600081815260376020526040902054600160a060020a0316156127aa5760008181526038602052604090205460158054909190811061278357fe5b90600052602060002090600502016002015482826007811015156127a357fe5b01556127bb565b60008282600781106127b857fe5b01555b60010161273e565b600554600160a060020a031633146127da57600080fd5b600554604051600160a060020a03909116907ff8df31144d9c2f0f6b59d69b8b98abd5459d07f2742c4df920b25aae33c6482090600090a260058054600160a060020a0319169055565b600c54339034101561283557600080fd5b336000818152603260205260409020600301805461ffff1916905560135460ff161561286057600080fd5b6128693361166b565b61166733613a30565b601054600160a060020a031681565b6128896155ad565b60055460009081908190600160a060020a031633146128a757600080fd5b5060005b600a548110156115f657915081601681600781106128c557fe5b6040805160049290920292909201805460a06020601f60026000196101006001871615020190941693909304928301819004028401810190945260808301818152929391928492909184918401828280156129615780601f1061293657610100808354040283529160200191612961565b820191906000526020600020905b81548152906001019060200180831161294457829003601f168201915b50505050508152602001600182018054600181600116156101000203166002900480601f016020809104026020016040519081016040528092919081815260200182805460018160011615610100020316600290048015612a035780601f106129d857610100808354040283529160200191612a03565b820191906000526020600020905b8154815290600101906020018083116129e657829003601f168201915b505050505081526020016002820154815260200160038201548152505093508060010191505b600a54821015612bcc5760168260078110612a4057fe5b600402016002015484604001511115612bc15760168260078110612a6057fe5b6040805160049290920292909201805460a06020601f6002600019610100600187161502019094169390930492830181900402840181019094526080830181815292939192849290918491840182828015612afc5780601f10612ad157610100808354040283529160200191612afc565b820191906000526020600020905b815481529060010190602001808311612adf57829003601f168201915b50505050508152602001600182018054600181600116156101000203166002900480601f016020809104026020016040519081016040528092919081815260200182805460018160011615610100020316600290048015612b9e5780601f10612b7357610100808354040283529160200191612b9e565b820191906000526020600020905b815481529060010190602001808311612b8157829003601f168201915b505050505081526020016002820154815260200160038201548152505093508192505b600190910190612a29565b828114612cb75760168160078110612be057fe5b6004020160168460078110612bf157fe5b6004020160008201816000019080546001816001161561010002031660029004612c1c9291906155d6565b5060018201816001019080546001816001161561010002031660029004612c449291906155d6565b50600282810154908201556003918201549101558360168260078110612c6657fe5b600402016000820151816000019080519060200190612c869291906154e8565b506020828101518051612c9f92600185019201906154e8565b50604082015160028201556060909101516003909101555b6001016128ab565b612cc88161166b565b61100e81613a30565b600554600090600160a060020a03163314612ceb57600080fd5b50600e80549082905560408051602081018390528082018490526060808252601a908201527f4f7261636c697a6520676173206c696d6974206368616e676564000000000000608082015290516000805160206156668339815191529181900360a00190a15050565b600554600160a060020a03163314612d6b57600080fd5b600554600160a060020a0316ff5b600554606090600160a060020a03163314612d9357600080fd5b6006805460408051602060026001851615610100026000190190941693909304601f81018490048402820184019092528181529291830182828015612e195780601f10612dee57610100808354040283529160200191612e19565b820191906000526020600020905b815481529060010190602001808311612dfc57829003601f168201915b50508551939450612e35936006935060208701925090506154e8565b50600080516020615686833981519152818360405180806020018060200180602001848103845260148152602001807f506172616d657465722062206d6f6469666965640000000000000000000000008152506020018481038352868181518152602001915080519060200190808383600083811015611158578181015183820152602001611140565b600554600090600160a060020a03163314612ed957600080fd5b50600c80549082905560408051602081018390528082018490526060808252601d908201527f47656e6572617465207469636b6574207072696365206368616e676564000000608082015290516000805160206156668339815191529181900360a00190a15050565b600b5481565b600554600160a060020a031681565b600554600160a060020a03163314612f6e57600080fd5b600a546012541415612f9457612f82612881565b6000601255612f8f6120c5565b6123fc565b306000818152603260205260409020600301805461ffff191690556123fc90612cbf565b600554600090600160a060020a03163314612fd257600080fd5b5060108054600160a060020a03838116600160a060020a0319831681179093556040805191909216602082018190528183019390935260608082526019908201527f456e74657270726973652077616c6c6574206368616e67656400000000000000608082015290517f223db053947bb148de510715d3c7d8ccd72bdd376752fd735ee7bd0bd0ece5bf9181900360a00190a15050565b600f5481565b6008805460408051602060026001851615610100026000190190941693909304601f810184900484028201840190925281815292918301828280156120615780601f1061203657610100808354040283529160200191612061565b600554606090600160a060020a031633146130e457600080fd5b6008805460408051602060026001851615610100026000190190941693909304601f8101849004840282018401909252818152929183018282801561316a5780601f1061313f5761010080835404028352916020019161316a565b820191906000526020600020905b81548152906001019060200180831161314d57829003601f168201915b50508551939450613186936008935060208701925090506154e8565b50600080516020615686833981519152818360405180806020018060200180602001848103845260148152602001807f506172616d657465722070206d6f6469666965640000000000000000000000008152506020018481038352868181518152602001915080519060200190808383600083811015611158578181015183820152602001611140565b6009805460408051602060026001851615610100026000190190941693909304601f810184900484028201840190925281815292918301828280156120615780601f1061203657610100808354040283529160200191612061565b600554600090600160a060020a0316331461328557600080fd5b5030315b90565b60395481565b600554600090600160a060020a031633146132ac57600080fd5b50600d805490829055604080516020810183905280820184905260608082526019908201527f53656c6c207469636b6574207072696365206368616e67656400000000000000608082015290516000805160206156668339815191529181900360a00190a15050565b60125481565b600554600090600160a060020a0316331461333557600080fd5b50600a805490829055604080516020810183905280820184905260608082526019908201527f53656c6c207469636b6574207072696365206368616e67656400000000000000608082015290516000805160206156668339815191529181900360a00190a15050565b600554600090600160a060020a031633146133b857600080fd5b50600b805490829055604080516020810183905280820184905260608082526019908201527f4e756d626572206f662077696e6e657273206368616e67656400000000000000608082015290516000805160206156668339815191529181900360a00190a15050565b600554600090600160a060020a0316331461343b57600080fd5b50600f805490829055604080516020810183905280820184905260608082526021908201527f4f7261636c697a6520637573746f6d20676173207072696365206368616e676560808201527f640000000000000000000000000000000000000000000000000000000000000060a082015290516000805160206156668339815191529181900360c00190a15050565b600c5481565b60115481565b60006134e3600f54613b44565b604080516020808252601a908201527f41736b696e6720666f722061206e6577207469636b65742e2e2e0000000000008183015290517f46cb989ef9cef13e930e3b7f286225a086e716a90d63e0b7da85d310a9db0c9a9181900360600190a161358d6040805190810160405280600c81526020017f576f6c6672616d416c706861000000000000000000000000000000000000000081525061358584614785565b600e54613d2a565b60009081526035602052604090208054600160a060020a031916600160a060020a03939093169290921790915550565b600d5481565b60366020526000908152604090205481565b600554600160a060020a031633146135ec57600080fd5b61100e81614cd6565b603a6020526000908152604090205481565b6005546000908190819081908190600160a060020a0316331461362957600080fd5b61363b3031600763ffffffff614d4716565b945061364e85600a63ffffffff614d7016565b945061366185600663ffffffff614d4716565b935061367485600363ffffffff614d4716565b925061368785600163ffffffff614d4716565b915061369a84600a63ffffffff614d7016565b93506136ad83600a63ffffffff614d7016565b92506136c082600a63ffffffff614d7016565b915060395490505b603954600a540181101561375f576014805460009190839081106136e857fe5b6000918252602090912060016007909202010154600160a060020a0316146137575783603a600060148481548110151561371e57fe5b6000918252602080832060016007909302019190910154600160a060020a0316835282019290925260400190208054909101905561375f565b6001016136c8565b6001015b603954600a54018110156137fa5760148054600091908390811061378357fe5b6000918252602090912060016007909202010154600160a060020a0316146137f25782603a60006014848154811015156137b957fe5b6000918252602080832060016007909302019190910154600160a060020a031683528201929092526040019020805490910190556137fa565b600101613763565b6001015b603954600a54018110156138955760148054600091908390811061381e57fe5b6000918252602090912060016007909202010154600160a060020a03161461388d5781603a600060148481548110151561385457fe5b6000918252602080832060016007909302019190910154600160a060020a03168352820192909252604001902080549091019055613895565b6001016137fe565b601180546001019055601054604051600160a060020a0390911690303180156108fc02916000818181858888f193505050501580156138d8573d6000803e3d6000fd5b50600090505b600a54811015611fd45760008181526037602090815260408083208054600160a060020a03191690556036825280832083905560388252808320929092558151808301909252600182527f3000000000000000000000000000000000000000000000000000000000000000908201526016826007811061395a57fe5b6004020160000190805190602001906139749291906154e8565b5060408051808201909152600181527f30000000000000000000000000000000000000000000000000000000000000006020820152601682600781106139b657fe5b6004020160010190805190602001906139d09291906154e8565b506000601682600781106139e057fe5b60040201600201819055506011546016826007811015156139fd57fe5b60040201600301556001016138de565b600554600160a060020a03163314613a2457600080fd5b80600160a060020a0316ff5b6000613a3d600f54613b44565b604080516020808252601f908201527f41736b696e6720666f722061206e6577206920706172616d657465722e2e2e008183015290517f46cb989ef9cef13e930e3b7f286225a086e716a90d63e0b7da85d310a9db0c9a9181900360600190a1613b146040805190810160405280600c81526020017f576f6c6672616d416c70686100000000000000000000000000000000000000008152506040805190810160405280600f81526020017f342072616e646f6d206e756d6265720000000000000000000000000000000000815250600e54613d2a565b60009081526034602052604090208054600160a060020a031916600160a060020a03939093169290921790915550565b600054600160a060020a03161580613b6e5750600054613b6c90600160a060020a0316614d85565b155b15613b7f57613b7d6000614d89565b505b6000809054906101000a9004600160a060020a0316600160a060020a03166338cc48316040518163ffffffff1660e060020a028152600401602060405180830381600087803b158015613bd157600080fd5b505af1158015613be5573d6000803e3d6000fd5b505050506040513d6020811015613bfb57600080fd5b5051600154600160a060020a03908116911614613cb0576000809054906101000a9004600160a060020a0316600160a060020a03166338cc48316040518163ffffffff1660e060020a028152600401602060405180830381600087803b158015613c6457600080fd5b505af1158015613c78573d6000803e3d6000fd5b505050506040513d6020811015613c8e57600080fd5b505160018054600160a060020a031916600160a060020a039092169190911790555b600154604080517fca6ad1e4000000000000000000000000000000000000000000000000000000008152600481018490529051600160a060020a039092169163ca6ad1e49160248082019260009290919082900301818387803b158015613d1657600080fd5b505af1158015611fd4573d6000803e3d6000fd5b600080548190600160a060020a03161580613d575750600054613d5590600160a060020a0316614d85565b155b15613d6857613d666000614d89565b505b6000809054906101000a9004600160a060020a0316600160a060020a03166338cc48316040518163ffffffff1660e060020a028152600401602060405180830381600087803b158015613dba57600080fd5b505af1158015613dce573d6000803e3d6000fd5b505050506040513d6020811015613de457600080fd5b5051600154600160a060020a03908116911614613e99576000809054906101000a9004600160a060020a0316600160a060020a03166338cc48316040518163ffffffff1660e060020a028152600401602060405180830381600087803b158015613e4d57600080fd5b505af1158015613e61573d6000803e3d6000fd5b505050506040513d6020811015613e7757600080fd5b505160018054600160a060020a031916600160a060020a039092169190911790555b600154604080517f2ef3accc0000000000000000000000000000000000000000000000000000000081526024810186905260048101918252875160448201528751600160a060020a0390931692632ef3accc9289928892829160640190602086019080838360005b83811015613f19578181015183820152602001613f01565b50505050905090810190601f168015613f465780820380516001836020036101000a031916815260200191505b509350505050602060405180830381600087803b158015613f6657600080fd5b505af1158015613f7a573d6000803e3d6000fd5b505050506040513d6020811015613f9057600080fd5b50519050670de0b6b3a76400003a840201811115613fb15760009150614123565b6001546040517fc51be90f00000000000000000000000000000000000000000000000000000000815260006004820181815260648301879052608060248401908152895160848501528951600160a060020a039095169463c51be90f948794938c938c938c93604481019160a49091019060208801908083838c5b8381101561404457818101518382015260200161402c565b50505050905090810190601f1680156140715780820380516001836020036101000a031916815260200191505b50838103825285518152855160209182019187019080838360005b838110156140a457818101518382015260200161408c565b50505050905090810190601f1680156140d15780820380516001836020036101000a031916815260200191505b5096505050505050506020604051808303818588803b1580156140f357600080fd5b505af1158015614107573d6000803e3d6000fd5b50505050506040513d602081101561411e57600080fd5b505191505b509392505050565b60008054600160a060020a03161580614156575060005461415490600160a060020a0316614d85565b155b15614167576141656000614d89565b505b6000809054906101000a9004600160a060020a0316600160a060020a03166338cc48316040518163ffffffff1660e060020a028152600401602060405180830381600087803b1580156141b957600080fd5b505af11580156141cd573d6000803e3d6000fd5b505050506040513d60208110156141e357600080fd5b5051600154600160a060020a03908116911614614298576000809054906101000a9004600160a060020a0316600160a060020a03166338cc48316040518163ffffffff1660e060020a028152600401602060405180830381600087803b15801561424c57600080fd5b505af1158015614260573d6000803e3d6000fd5b505050506040513d602081101561427657600080fd5b505160018054600160a060020a031916600160a060020a039092169190911790555b600160009054906101000a9004600160a060020a0316600160a060020a031663c281d19e6040518163ffffffff1660e060020a028152600401602060405180830381600087803b1580156142eb57600080fd5b505af11580156142ff573d6000803e3d6000fd5b505050506040513d602081101561431557600080fd5b5051905090565b6000614329826000614d93565b92915050565b60408051600160a060020a03831660009081526032602090815290839020805460026001821615610100026000190190911604601f8101839004909202830160a0908101909452608083018281529293849392908401828280156143d45780601f106143a9576101008083540402835291602001916143d4565b820191906000526020600020905b8154815290600101906020018083116143b757829003601f168201915b505050505081526020016032600084600160a060020a0316600160a060020a031681526020019081526020016000206001018054600181600116156101000203166002900480601f01602080910402602001604051908101604052809291908181526020018280546001816001161561010002031660029004801561449a5780601f1061446f5761010080835404028352916020019161449a565b820191906000526020600020905b81548152906001019060200180831161447d57829003601f168201915b5050509183525050600160a060020a0383166000908152603260209081526040918290206002015490830152601154910152601254601690600781106144dc57fe5b6004020160008201518160000190805190602001906144fc9291906154e8565b50602082810151805161451592600185019201906154e8565b506040820151600282015560609091015160039091015550601280546001019055565b60408051600160a060020a03831660009081526032602090815283822080546002600180831615610100026000190190921604601f8101849004909302850160c090810190965260a08501838152939590946015949093849391928401828280156145e45780601f106145b9576101008083540402835291602001916145e4565b820191906000526020600020905b8154815290600101906020018083116145c757829003601f168201915b505050505081526020016032600087600160a060020a0316600160a060020a031681526020019081526020016000206001018054600181600116156101000203166002900480601f0160208091040260200160405190810160405280929190818152602001828054600181600116156101000203166002900480156146aa5780601f1061467f576101008083540402835291602001916146aa565b820191906000526020600020905b81548152906001019060200180831161468d57829003601f168201915b5050509183525050600160a060020a03861660008181526032602090815260408083206002015482860152840192909252601154606090930192909252835460018101808655948352918190208351805160059094029091019261471192849201906154e8565b50602082810151805161472a92600185019201906154e8565b50604082015160028201556060820151600382018054600160a060020a031916600160a060020a0390921691909117905560809091015160049091015503905061166781611d99565b60008282111561477f57fe5b50900390565b604080518082018252600b81527f6d6f642828312f2831305e000000000000000000000000000000000000000000602080830191909152600780548451601f60026000196101006001861615020190931692909204918201849004840281018401909552808552606094859485946149619491939083018282801561484b5780601f106148205761010080835404028352916020019161484b565b820191906000526020600020905b81548152906001019060200180831161482e57829003601f168201915b505060408051808201825260018082527f2d00000000000000000000000000000000000000000000000000000000000000602080840191909152600160a060020a038e1660009081526032825284902080548551600294821615610100026000190190911693909304601f81018390048302840183019095528483529296509094509092508301828280156149215780601f106148f657610100808354040283529160200191614921565b820191906000526020600020905b81548152906001019060200180831161490457829003601f168201915b50505050506040805190810160405280601081526020017f29292a31305e31303030302c31305e2800000000000000000000000000000000815250614f05565b60098054604080516020601f60026000196101006001881615020190951694909404938401819004810282018101909252828152939550614b0b938693909290918301828280156149f35780601f106149c8576101008083540402835291602001916149f3565b820191906000526020600020905b8154815290600101906020018083116149d657829003601f168201915b505060408051808201825260018082527f2b00000000000000000000000000000000000000000000000000000000000000602080840191909152600160a060020a038e16600090815260328252849020820180548551600294821615610100026000190190911693909304601f8101839004830284018301909552848352929650909450909250830182828015614acb5780601f10614aa057610100808354040283529160200191614acb565b820191906000526020600020905b815481529060010190602001808311614aae57829003601f168201915b50505050506040805190810160405280600281526020017f2929000000000000000000000000000000000000000000000000000000000000815250614f05565b60408051808201825260018082527f2d00000000000000000000000000000000000000000000000000000000000000602080840191909152600160a060020a038916600090815260328252849020820180548551600294821615610100026000190190911693909304601f8101839004830284018301909552848352949550614bb9948694889392830182828015614acb5780601f10614aa057610100808354040283529160200191614acb565b60408051808201825260018082527f280000000000000000000000000000000000000000000000000000000000000060208084019190915283518085018552600581527f292f31305e00000000000000000000000000000000000000000000000000000081830152600160a060020a038a16600090815260328352859020830180548651600295821615610100026000190190911694909404601f8101849004840285018401909652858452959650614cce9593948794919392830182828015614cc45780601f10614c9957610100808354040283529160200191614cc4565b820191906000526020600020905b815481529060010190602001808311614ca757829003601f168201915b5050505050615166565b949350505050565b600160a060020a0381161515614ceb57600080fd5b600554604051600160a060020a038084169216907f8be0079c531659141344cd1fd0a4f28419497f9722a3daafe3b4186f6b6457e090600090a360058054600160a060020a031916600160a060020a0392909216919091179055565b6000821515614d5857506000614329565b50818102818382811515614d6857fe5b041461432957fe5b60008183811515614d7d57fe5b049392505050565b3b90565b600061432961518e565b6000828180805b8351811015614ee85783517f300000000000000000000000000000000000000000000000000000000000000090859083908110614dd357fe5b90602001015160f860020a900460f860020a02600160f860020a03191610158015614e49575083517f390000000000000000000000000000000000000000000000000000000000000090859083908110614e2957fe5b90602001015160f860020a900460f860020a02600160f860020a03191611155b15614ea2578115614e6857851515614e6057614ee8565b600019909501945b600a8302925060308482815181101515614e7e57fe5b90602001015160f860020a900460f860020a0260f860020a90040383019250614ee0565b8381815181101515614eb057fe5b90602001015160f860020a900460f860020a02600160f860020a031916602e60f860020a021415614ee057600191505b600101614d9a565b6000861115614efa5785600a0a830292505b509095945050505050565b6060806060806060806060806000808e98508d97508c96508b95508a94508451865188518a518c51010101016040519080825280601f01601f191660200182016040528015614f5e578160200160208202803883390190505b50935083925060009150600090505b8851811015614fcb578881815181101515614f8457fe5b90602001015160f860020a900460f860020a028383806001019450815181101515614fab57fe5b906020010190600160f860020a031916908160001a905350600101614f6d565b5060005b875181101561502d578781815181101515614fe657fe5b90602001015160f860020a900460f860020a02838380600101945081518110151561500d57fe5b906020010190600160f860020a031916908160001a905350600101614fcf565b5060005b865181101561508f57868181518110151561504857fe5b90602001015160f860020a900460f860020a02838380600101945081518110151561506f57fe5b906020010190600160f860020a031916908160001a905350600101615031565b5060005b85518110156150f15785818151811015156150aa57fe5b90602001015160f860020a900460f860020a0283838060010194508151811015156150d157fe5b906020010190600160f860020a031916908160001a905350600101615093565b5060005b845181101561515357848181518110151561510c57fe5b90602001015160f860020a900460f860020a02838380600101945081518110151561513357fe5b906020010190600160f860020a031916908160001a9053506001016150f5565b50909d9c50505050505050505050505050565b6060615185858585856020604051908101604052806000815250614f05565b95945050505050565b6000806151ae731d3b2638a7cc9f2cb3d298a3da7a90b67e5506ed614d85565b111561521f5760008054600160a060020a031916731d3b2638a7cc9f2cb3d298a3da7a90b67e5506ed17905560408051808201909152600b81527f6574685f6d61696e6e65740000000000000000000000000000000000000000006020820152615217906154b6565b506001613289565b600061523e73c03a2615d5efaf5f49f60b7bb6583eaec212fdf1614d85565b11156152a75760008054600160a060020a03191673c03a2615d5efaf5f49f60b7bb6583eaec212fdf117905560408051808201909152600c81527f6574685f726f707374656e3300000000000000000000000000000000000000006020820152615217906154b6565b60006152c673b7a07bcf2ba2f2703b24c0691b5278999c59ac7e614d85565b111561532f5760008054600160a060020a03191673b7a07bcf2ba2f2703b24c0691b5278999c59ac7e17905560408051808201909152600981527f6574685f6b6f76616e00000000000000000000000000000000000000000000006020820152615217906154b6565b600061534e73146500cfd35b22e4a392fe0adc06de1a1368ed48614d85565b11156153b75760008054600160a060020a03191673146500cfd35b22e4a392fe0adc06de1a1368ed4817905560408051808201909152600b81527f6574685f72696e6b6562790000000000000000000000000000000000000000006020820152615217906154b6565b60006153d6736f485c8bf6fc43ea212e93bbf8ce046c7f1cb475614d85565b111561540a575060008054600160a060020a031916736f485c8bf6fc43ea212e93bbf8ce046c7f1cb4751790556001613289565b60006154297320e12a1f859b3feae5fb2a0a32c18f5a65555bbf614d85565b111561545d575060008054600160a060020a0319167320e12a1f859b3feae5fb2a0a32c18f5a65555bbf1790556001613289565b600061547c7351efaf4c8b3c9afbd5ab9f4bbc82784ab6ef8faa614d85565b11156154b0575060008054600160a060020a0319167351efaf4c8b3c9afbd5ab9f4bbc82784ab6ef8faa1790556001613289565b50600090565b80516116679060029060208401906154e8565b60e0604051908101604052806007906020820280388339509192915050565b828054600181600116156101000203166002900490600052602060002090601f016020900481019282601f1061552957805160ff1916838001178555615556565b82800160010185558215615556579182015b8281111561555657825182559160200191906001019061553b565b5061556292915061564b565b5090565b60e060405190810160405280600081526020016000600160a060020a0316815260200160008152602001600081526020016000815260200160008152602001600081525090565b608060405190810160405280606081526020016060815260200160008152602001600081525090565b828054600181600116156101000203166002900490600052602060002090601f016020900481019282601f1061560f5780548555615556565b8280016001018555821561555657600052602060002091601f016020900482015b82811115615556578254825591600101919060010190615630565b61328991905b80821115615562576000815560010161565156009bc068999fb1a0aac007a9b44ca6322a376441f42706bf5163600bb3d1a731647ecbd54b3baea533cf57ef049f9e04554be6a660d6dacd477488066eedf27beea165627a7a72305820e11a17a3e980b72e3ae2d3aeb3f29ac71e25bd33dcb0ba6da8b82d7730487dd20029",
  "source": "pragma solidity ^0.4.20;\nimport \"./Lucky7Ballot.sol\";\nimport \"./Destructible.sol\";\n\ncontract Lucky7Store is Lucky7Ballot, Destructible{\n    \n    using SafeMath for uint256;\n    \n    function Lucky7Store() payable public{\n        \n    }\n    \n    modifier userBoughtTicket(address _ticketOwner){\n        require(msg.value >= sellTicketPrice);\n        userValues[_ticketOwner].userPaidTicket = true;\n        _;\n    }\n    \n    modifier userBoughtParameters(address _ticketOwner){\n        require(msg.value >= generateTicketPrice);\n        _;\n    }\n    \n    \n    modifier setParametersToReady(address _ticketOwner){\n        userValues[_ticketOwner].muReady = false;\n        userValues[_ticketOwner].iReady = false;\n        _;\n    }\n    \n    //Circuit breakers--------\n    \n    modifier sellingIsActive {\n        require(settingLucky7Numbers==false);\n        _;\n    }\n    //------------------------\n    \n    \n    function sellRandomTicket() \n        public\n        payable \n        userBoughtTicket(msg.sender)\n        setParametersToReady(msg.sender)\n        sellingIsActive\n    {\n        _generateTicket(msg.sender);\n    }\n    \n    function generateRandomTicket() \n        public \n        payable \n        userBoughtParameters(msg.sender)\n        setParametersToReady(msg.sender)\n        sellingIsActive\n    {\n        _askForMuParameter(msg.sender);\n        _askForIParameter(msg.sender);\n    }\n    \n    function sellGeneratedTicket() \n        public \n        payable \n        userBoughtTicket(msg.sender)\n        sellingIsActive\n    {\n        require(keccak256(userValues[msg.sender].mu)!=keccak256('') && keccak256(userValues[msg.sender].i)!=keccak256(''));\n        _askForTicket(msg.sender);\n    }\n    \n    function () public payable{\n        \n    }\n}   \n                                           \n",
  "sourcePath": "/Users/matiasbarrios/Desktop/Proyecto Consensys/luckyseven/contracts/Lucky7Store.sol",
  "compiler": {
    "name": "solc",
    "version": "0.4.24+commit.e67f0147.Emscripten.clang"
  },
  "schemaVersion": "2.0.1",
  "updatedAt": "2018-08-24T13:16:41.250Z"
}