{
  "contractName": "Lucky7Storage",
  "abi": [
    {
      "constant": true,
      "inputs": [
        {
          "name": "_operator",
          "type": "address"
        },
        {
          "name": "_role",
          "type": "string"
        }
      ],
      "name": "checkRole",
      "outputs": [],
      "payable": false,
      "stateMutability": "view",
      "type": "function"
    },
    {
      "constant": true,
      "inputs": [
        {
          "name": "",
          "type": "uint256"
        }
      ],
      "name": "lucky7TicketID",
      "outputs": [
        {
          "name": "",
          "type": "uint256"
        }
      ],
      "payable": false,
      "stateMutability": "view",
      "type": "function"
    },
    {
      "constant": true,
      "inputs": [],
      "name": "lastSecondPrizeAmount",
      "outputs": [
        {
          "name": "",
          "type": "uint256"
        }
      ],
      "payable": false,
      "stateMutability": "view",
      "type": "function"
    },
    {
      "constant": true,
      "inputs": [],
      "name": "ROLE_WHITELISTED",
      "outputs": [
        {
          "name": "",
          "type": "string"
        }
      ],
      "payable": false,
      "stateMutability": "view",
      "type": "function"
    },
    {
      "constant": true,
      "inputs": [
        {
          "name": "",
          "type": "uint256"
        }
      ],
      "name": "lucky7TicketOwner",
      "outputs": [
        {
          "name": "",
          "type": "address"
        }
      ],
      "payable": false,
      "stateMutability": "view",
      "type": "function"
    },
    {
      "constant": true,
      "inputs": [
        {
          "name": "_operator",
          "type": "address"
        },
        {
          "name": "_role",
          "type": "string"
        }
      ],
      "name": "hasRole",
      "outputs": [
        {
          "name": "",
          "type": "bool"
        }
      ],
      "payable": false,
      "stateMutability": "view",
      "type": "function"
    },
    {
      "constant": false,
      "inputs": [
        {
          "name": "_operators",
          "type": "address[]"
        }
      ],
      "name": "removeAddressesFromWhitelist",
      "outputs": [],
      "payable": false,
      "stateMutability": "nonpayable",
      "type": "function"
    },
    {
      "constant": false,
      "inputs": [
        {
          "name": "_operator",
          "type": "address"
        }
      ],
      "name": "removeAddressFromWhitelist",
      "outputs": [],
      "payable": false,
      "stateMutability": "nonpayable",
      "type": "function"
    },
    {
      "constant": true,
      "inputs": [],
      "name": "lastFifthPrizeWinner",
      "outputs": [
        {
          "name": "",
          "type": "address"
        }
      ],
      "payable": false,
      "stateMutability": "view",
      "type": "function"
    },
    {
      "constant": true,
      "inputs": [],
      "name": "lastFourthPrizeWinner",
      "outputs": [
        {
          "name": "",
          "type": "address"
        }
      ],
      "payable": false,
      "stateMutability": "view",
      "type": "function"
    },
    {
      "constant": true,
      "inputs": [],
      "name": "numberOfLucky7Numbers",
      "outputs": [
        {
          "name": "",
          "type": "uint256"
        }
      ],
      "payable": false,
      "stateMutability": "view",
      "type": "function"
    },
    {
      "constant": true,
      "inputs": [],
      "name": "lastFifthPrizeAmount",
      "outputs": [
        {
          "name": "",
          "type": "uint256"
        }
      ],
      "payable": false,
      "stateMutability": "view",
      "type": "function"
    },
    {
      "constant": false,
      "inputs": [],
      "name": "renounceOwnership",
      "outputs": [],
      "payable": false,
      "stateMutability": "nonpayable",
      "type": "function"
    },
    {
      "constant": false,
      "inputs": [
        {
          "name": "_operator",
          "type": "address"
        }
      ],
      "name": "addAddressToWhitelist",
      "outputs": [],
      "payable": false,
      "stateMutability": "nonpayable",
      "type": "function"
    },
    {
      "constant": true,
      "inputs": [],
      "name": "lastSecondPrizeWinner",
      "outputs": [
        {
          "name": "",
          "type": "address"
        }
      ],
      "payable": false,
      "stateMutability": "view",
      "type": "function"
    },
    {
      "constant": true,
      "inputs": [
        {
          "name": "",
          "type": "uint256"
        }
      ],
      "name": "ExactLucky7TicketValue",
      "outputs": [
        {
          "name": "",
          "type": "uint256"
        }
      ],
      "payable": false,
      "stateMutability": "view",
      "type": "function"
    },
    {
      "constant": true,
      "inputs": [
        {
          "name": "",
          "type": "uint256"
        }
      ],
      "name": "ExactLucky7TicketID",
      "outputs": [
        {
          "name": "",
          "type": "uint256"
        }
      ],
      "payable": false,
      "stateMutability": "view",
      "type": "function"
    },
    {
      "constant": true,
      "inputs": [],
      "name": "owner",
      "outputs": [
        {
          "name": "",
          "type": "address"
        }
      ],
      "payable": false,
      "stateMutability": "view",
      "type": "function"
    },
    {
      "constant": true,
      "inputs": [
        {
          "name": "",
          "type": "uint256"
        }
      ],
      "name": "lucky7NumbersArray",
      "outputs": [
        {
          "name": "mu",
          "type": "string"
        },
        {
          "name": "i",
          "type": "string"
        },
        {
          "name": "ticketValue",
          "type": "uint256"
        },
        {
          "name": "drawID",
          "type": "uint256"
        }
      ],
      "payable": false,
      "stateMutability": "view",
      "type": "function"
    },
    {
      "constant": true,
      "inputs": [],
      "name": "lastFirstPrizeWinner",
      "outputs": [
        {
          "name": "",
          "type": "address"
        }
      ],
      "payable": false,
      "stateMutability": "view",
      "type": "function"
    },
    {
      "constant": true,
      "inputs": [],
      "name": "lastFirstPrizeAmount",
      "outputs": [
        {
          "name": "",
          "type": "uint256"
        }
      ],
      "payable": false,
      "stateMutability": "view",
      "type": "function"
    },
    {
      "constant": true,
      "inputs": [
        {
          "name": "_operator",
          "type": "address"
        }
      ],
      "name": "whitelist",
      "outputs": [
        {
          "name": "",
          "type": "bool"
        }
      ],
      "payable": false,
      "stateMutability": "view",
      "type": "function"
    },
    {
      "constant": true,
      "inputs": [
        {
          "name": "",
          "type": "uint256"
        }
      ],
      "name": "ticketsArray",
      "outputs": [
        {
          "name": "mu",
          "type": "string"
        },
        {
          "name": "i",
          "type": "string"
        },
        {
          "name": "ticketValue",
          "type": "uint256"
        },
        {
          "name": "owner",
          "type": "address"
        },
        {
          "name": "drawID",
          "type": "uint256"
        }
      ],
      "payable": false,
      "stateMutability": "view",
      "type": "function"
    },
    {
      "constant": true,
      "inputs": [],
      "name": "initialLucky7TicketPosition",
      "outputs": [
        {
          "name": "",
          "type": "uint256"
        }
      ],
      "payable": false,
      "stateMutability": "view",
      "type": "function"
    },
    {
      "constant": true,
      "inputs": [],
      "name": "indexForLucky7Array",
      "outputs": [
        {
          "name": "",
          "type": "uint256"
        }
      ],
      "payable": false,
      "stateMutability": "view",
      "type": "function"
    },
    {
      "constant": true,
      "inputs": [
        {
          "name": "",
          "type": "uint256"
        }
      ],
      "name": "lucky7TicketsArray",
      "outputs": [
        {
          "name": "difference",
          "type": "uint256"
        },
        {
          "name": "owner",
          "type": "address"
        },
        {
          "name": "ticketID",
          "type": "uint256"
        },
        {
          "name": "ticketValue",
          "type": "uint256"
        },
        {
          "name": "lucky7Number",
          "type": "uint256"
        },
        {
          "name": "lucky7NumberID",
          "type": "uint256"
        },
        {
          "name": "drawID",
          "type": "uint256"
        }
      ],
      "payable": false,
      "stateMutability": "view",
      "type": "function"
    },
    {
      "constant": true,
      "inputs": [],
      "name": "lastSixthPrizeWinner",
      "outputs": [
        {
          "name": "",
          "type": "address"
        }
      ],
      "payable": false,
      "stateMutability": "view",
      "type": "function"
    },
    {
      "constant": true,
      "inputs": [],
      "name": "lastSixthPrizeAmount",
      "outputs": [
        {
          "name": "",
          "type": "uint256"
        }
      ],
      "payable": false,
      "stateMutability": "view",
      "type": "function"
    },
    {
      "constant": true,
      "inputs": [],
      "name": "drawNumber",
      "outputs": [
        {
          "name": "",
          "type": "uint256"
        }
      ],
      "payable": false,
      "stateMutability": "view",
      "type": "function"
    },
    {
      "constant": true,
      "inputs": [],
      "name": "indexForExactLucky7Ticket",
      "outputs": [
        {
          "name": "",
          "type": "uint256"
        }
      ],
      "payable": false,
      "stateMutability": "view",
      "type": "function"
    },
    {
      "constant": false,
      "inputs": [
        {
          "name": "_operators",
          "type": "address[]"
        }
      ],
      "name": "addAddressesToWhitelist",
      "outputs": [],
      "payable": false,
      "stateMutability": "nonpayable",
      "type": "function"
    },
    {
      "constant": true,
      "inputs": [],
      "name": "lastSeventhPrizeAmount",
      "outputs": [
        {
          "name": "",
          "type": "uint256"
        }
      ],
      "payable": false,
      "stateMutability": "view",
      "type": "function"
    },
    {
      "constant": true,
      "inputs": [
        {
          "name": "",
          "type": "uint256"
        }
      ],
      "name": "lucky7TicketDifference",
      "outputs": [
        {
          "name": "",
          "type": "uint256"
        }
      ],
      "payable": false,
      "stateMutability": "view",
      "type": "function"
    },
    {
      "constant": true,
      "inputs": [
        {
          "name": "",
          "type": "uint256"
        }
      ],
      "name": "ExactLucky7TicketOwner",
      "outputs": [
        {
          "name": "",
          "type": "address"
        }
      ],
      "payable": false,
      "stateMutability": "view",
      "type": "function"
    },
    {
      "constant": true,
      "inputs": [],
      "name": "lastFourthPrizeAmount",
      "outputs": [
        {
          "name": "",
          "type": "uint256"
        }
      ],
      "payable": false,
      "stateMutability": "view",
      "type": "function"
    },
    {
      "constant": false,
      "inputs": [
        {
          "name": "_newOwner",
          "type": "address"
        }
      ],
      "name": "transferOwnership",
      "outputs": [],
      "payable": false,
      "stateMutability": "nonpayable",
      "type": "function"
    },
    {
      "constant": true,
      "inputs": [
        {
          "name": "",
          "type": "address"
        }
      ],
      "name": "pendingWithdrawals",
      "outputs": [
        {
          "name": "",
          "type": "uint256"
        }
      ],
      "payable": false,
      "stateMutability": "view",
      "type": "function"
    },
    {
      "constant": true,
      "inputs": [],
      "name": "currentTicketID",
      "outputs": [
        {
          "name": "",
          "type": "uint256"
        }
      ],
      "payable": false,
      "stateMutability": "view",
      "type": "function"
    },
    {
      "constant": true,
      "inputs": [],
      "name": "lastThirdPrizeAmount",
      "outputs": [
        {
          "name": "",
          "type": "uint256"
        }
      ],
      "payable": false,
      "stateMutability": "view",
      "type": "function"
    },
    {
      "constant": true,
      "inputs": [],
      "name": "lastSeventhPrizeWinner",
      "outputs": [
        {
          "name": "",
          "type": "address"
        }
      ],
      "payable": false,
      "stateMutability": "view",
      "type": "function"
    },
    {
      "constant": true,
      "inputs": [],
      "name": "lastThirdPrizeWinner",
      "outputs": [
        {
          "name": "",
          "type": "address"
        }
      ],
      "payable": false,
      "stateMutability": "view",
      "type": "function"
    },
    {
      "anonymous": false,
      "inputs": [
        {
          "indexed": false,
          "name": "ticketID",
          "type": "uint256"
        }
      ],
      "name": "NewLucky7Ticket",
      "type": "event"
    },
    {
      "anonymous": false,
      "inputs": [
        {
          "indexed": false,
          "name": "value",
          "type": "uint256"
        }
      ],
      "name": "NewLucky7Number",
      "type": "event"
    },
    {
      "anonymous": false,
      "inputs": [
        {
          "indexed": true,
          "name": "operator",
          "type": "address"
        },
        {
          "indexed": false,
          "name": "role",
          "type": "string"
        }
      ],
      "name": "RoleAdded",
      "type": "event"
    },
    {
      "anonymous": false,
      "inputs": [
        {
          "indexed": true,
          "name": "operator",
          "type": "address"
        },
        {
          "indexed": false,
          "name": "role",
          "type": "string"
        }
      ],
      "name": "RoleRemoved",
      "type": "event"
    },
    {
      "anonymous": false,
      "inputs": [
        {
          "indexed": true,
          "name": "previousOwner",
          "type": "address"
        }
      ],
      "name": "OwnershipRenounced",
      "type": "event"
    },
    {
      "anonymous": false,
      "inputs": [
        {
          "indexed": true,
          "name": "previousOwner",
          "type": "address"
        },
        {
          "indexed": true,
          "name": "newOwner",
          "type": "address"
        }
      ],
      "name": "OwnershipTransferred",
      "type": "event"
    },
    {
      "constant": false,
      "inputs": [
        {
          "name": "_ticketID",
          "type": "uint256"
        }
      ],
      "name": "_checkForLucky7Ticket",
      "outputs": [],
      "payable": false,
      "stateMutability": "nonpayable",
      "type": "function"
    },
    {
      "constant": false,
      "inputs": [],
      "name": "_orderLucky7Numbers",
      "outputs": [],
      "payable": false,
      "stateMutability": "nonpayable",
      "type": "function"
    },
    {
      "constant": false,
      "inputs": [],
      "name": "_orderLucky7Tickets",
      "outputs": [],
      "payable": false,
      "stateMutability": "nonpayable",
      "type": "function"
    },
    {
      "constant": false,
      "inputs": [],
      "name": "_cleanMappings",
      "outputs": [],
      "payable": false,
      "stateMutability": "nonpayable",
      "type": "function"
    },
    {
      "constant": false,
      "inputs": [
        {
          "name": "_mu",
          "type": "string"
        },
        {
          "name": "_i",
          "type": "string"
        },
        {
          "name": "_ticketValue",
          "type": "uint256"
        },
        {
          "name": "_owner",
          "type": "address"
        }
      ],
      "name": "storageTicket",
      "outputs": [
        {
          "name": "",
          "type": "uint256"
        }
      ],
      "payable": false,
      "stateMutability": "nonpayable",
      "type": "function"
    },
    {
      "constant": false,
      "inputs": [
        {
          "name": "_mu",
          "type": "string"
        },
        {
          "name": "_i",
          "type": "string"
        },
        {
          "name": "_ticketValue",
          "type": "uint256"
        }
      ],
      "name": "storageLucky7Number",
      "outputs": [],
      "payable": false,
      "stateMutability": "nonpayable",
      "type": "function"
    },
    {
      "constant": false,
      "inputs": [],
      "name": "increaseCounters",
      "outputs": [],
      "payable": false,
      "stateMutability": "nonpayable",
      "type": "function"
    },
    {
      "constant": false,
      "inputs": [
        {
          "name": "_firstPrize",
          "type": "uint256"
        },
        {
          "name": "_secondPrize",
          "type": "uint256"
        },
        {
          "name": "_thirdPrize",
          "type": "uint256"
        },
        {
          "name": "_fourthPrize",
          "type": "uint256"
        },
        {
          "name": "_fifthPrize",
          "type": "uint256"
        },
        {
          "name": "_sixthPrize",
          "type": "uint256"
        },
        {
          "name": "_seventhPrize",
          "type": "uint256"
        }
      ],
      "name": "setWinners",
      "outputs": [
        {
          "name": "",
          "type": "address"
        },
        {
          "name": "",
          "type": "address"
        },
        {
          "name": "",
          "type": "address"
        },
        {
          "name": "",
          "type": "address"
        },
        {
          "name": "",
          "type": "address"
        },
        {
          "name": "",
          "type": "address"
        },
        {
          "name": "",
          "type": "address"
        }
      ],
      "payable": false,
      "stateMutability": "nonpayable",
      "type": "function"
    },
    {
      "constant": false,
      "inputs": [],
      "name": "setIndexForLucky7ArrayToZero",
      "outputs": [],
      "payable": false,
      "stateMutability": "nonpayable",
      "type": "function"
    }
  ],
  "bytecode": "0x608060405260006026819055602781905560288190556003602955602a819055602b819055602c8054600160a060020a0319908116909155602d805482169055602e805482169055602f805482169055603080548216905560318054821690556032805482169055603382905560348290556035829055603682905560378290556038829055603982905581541633179055612d01806100a06000396000f30060806040526004361061025b5763ffffffff7c01000000000000000000000000000000000000000000000000000000006000350416630988ca8c811461026057806310cd4b8a146102c957806315968e56146102f357806318b919e9146103085780631c3ed1d3146103925780631cf4c3d1146103c6578063217fe6c6146103db57806324953eaa14610456578063286dd3f5146104ab5780632c48a08f146104cc5780632de729eb146104e157806337d42c4e146104f95780635053cbe11461050e57806359f9fe82146105235780635d0462aa14610538578063715018a61461054d57806375edd257146105625780637b9417c8146105775780637fd4ecde146105985780638a1dd740146105ad5780638ce3da3c146105c55780638da5cb5b146105dd5780638df3dc86146105f257806396853e1314610607578063980d988c1461070b5780639932f119146107205780639b19251a146107355780639e6a1b0414610756578063b4f8eadd146107ef578063bb49516b14610902578063bdaaf43214610917578063c53d6e471461098c578063c56969ab146109a1578063c629dad9146109b6578063c6a99dc414610a0e578063ce47d84b14610a23578063d6efcd4014610a38578063d80ffb2014610ae0578063d84ca03a14610af5578063e2ec6ec314610b0a578063e3514b5914610b5f578063e802ae1414610b74578063eaaa680a14610b8c578063f06cf78014610ba4578063f2fde38b14610bb9578063f3f4370314610bda578063f53c7d0814610bfb578063f5ac6a1114610c10578063f62440ca14610c25578063fc22d3e414610c3a575b600080fd5b34801561026c57600080fd5b5060408051602060046024803582810135601f81018590048502860185019096528585526102c7958335600160a060020a0316953695604494919390910191908190840183828082843750949750610c4f9650505050505050565b005b3480156102d557600080fd5b506102e1600435610cbd565b60408051918252519081900360200190f35b3480156102ff57600080fd5b506102e1610ccf565b34801561031457600080fd5b5061031d610cd5565b6040805160208082528351818301528351919283929083019185019080838360005b8381101561035757818101518382015260200161033f565b50505050905090810190601f1680156103845780820380516001836020036101000a031916815260200191505b509250505060405180910390f35b34801561039e57600080fd5b506103aa600435610cfa565b60408051600160a060020a039092168252519081900360200190f35b3480156103d257600080fd5b506102c7610d15565b3480156103e757600080fd5b5060408051602060046024803582810135601f8101859004850286018501909652858552610442958335600160a060020a03169536956044949193909101919081908401838280828437509497506110d39650505050505050565b604080519115158252519081900360200190f35b34801561046257600080fd5b50604080516020600480358082013583810280860185019096528085526102c7953695939460249493850192918291850190849080828437509497506111469650505050505050565b3480156104b757600080fd5b506102c7600160a060020a0360043516611193565b3480156104d857600080fd5b506102c76111da565b3480156104ed57600080fd5b506102c76004356111f5565b34801561050557600080fd5b506103aa61154f565b34801561051a57600080fd5b506103aa61155e565b34801561052f57600080fd5b506102e161156d565b34801561054457600080fd5b506102e1611573565b34801561055957600080fd5b506102c7611579565b34801561056e57600080fd5b506102c76115d8565b34801561058357600080fd5b506102c7600160a060020a0360043516611a01565b3480156105a457600080fd5b506103aa611a45565b3480156105b957600080fd5b506102e1600435611a54565b3480156105d157600080fd5b506102e1600435611a66565b3480156105e957600080fd5b506103aa611a78565b3480156105fe57600080fd5b506102c7611a87565b34801561061357600080fd5b5061061f600435611a8e565b604051808060200180602001858152602001848152602001838103835287818151815260200191508051906020019080838360005b8381101561066c578181015183820152602001610654565b50505050905090810190601f1680156106995780820380516001836020036101000a031916815260200191505b50838103825286518152865160209182019188019080838360005b838110156106cc5781810151838201526020016106b4565b50505050905090810190601f1680156106f95780820380516001836020036101000a031916815260200191505b50965050505050505060405180910390f35b34801561071757600080fd5b506103aa611bda565b34801561072c57600080fd5b506102e1611be9565b34801561074157600080fd5b50610442600160a060020a0360043516611bef565b34801561076257600080fd5b506040805160206004803580820135601f81018490048402850184019095528484526102c794369492936024939284019190819084018382808284375050604080516020601f89358b018035918201839004830284018301909452808352979a9998810197919650918201945092508291508401838280828437509497505093359450611c249350505050565b3480156107fb57600080fd5b50610807600435611ce6565b60408051908101849052600160a060020a03831660608201526080810182905260a08082528651908201528551819060208083019160c08401918a019080838360005b8381101561086257818101518382015260200161084a565b50505050905090810190601f16801561088f5780820380516001836020036101000a031916815260200191505b50838103825287518152875160209182019189019080838360005b838110156108c25781810151838201526020016108aa565b50505050905090810190601f1680156108ef5780820380516001836020036101000a031916815260200191505b5097505050505050505060405180910390f35b34801561090e57600080fd5b506102e1611e53565b34801561092357600080fd5b5061094160043560243560443560643560843560a43560c435611e59565b60408051600160a060020a03988916815296881660208801529487168686015292861660608601529085166080850152841660a084015290921660c082015290519081900360e00190f35b34801561099857600080fd5b506102c761248b565b3480156109ad57600080fd5b506102e16125f4565b3480156109c257600080fd5b506109ce6004356125fa565b60408051978852600160a060020a039096166020880152868601949094526060860192909252608085015260a084015260c0830152519081900360e00190f35b348015610a1a57600080fd5b506103aa612651565b348015610a2f57600080fd5b506102e1612660565b348015610a4457600080fd5b506040805160206004803580820135601f81018490048402850184019095528484526102e194369492936024939284019190819084018382808284375050604080516020601f89358b018035918201839004830284018301909452808352979a9998810197919650918201945092508291508401838280828437509497505084359550505050602090910135600160a060020a03169050612666565b348015610aec57600080fd5b506102e1612749565b348015610b0157600080fd5b506102e161274f565b348015610b1657600080fd5b50604080516020600480358082013583810280860185019096528085526102c7953695939460249493850192918291850190849080828437509497506127559650505050505050565b348015610b6b57600080fd5b506102e16127a2565b348015610b8057600080fd5b506102e16004356127a8565b348015610b9857600080fd5b506103aa6004356127b9565b348015610bb057600080fd5b506102e16127d4565b348015610bc557600080fd5b506102c7600160a060020a03600435166127da565b348015610be657600080fd5b506102e1600160a060020a03600435166127fa565b348015610c0757600080fd5b506102e161280c565b348015610c1c57600080fd5b506102e1612812565b348015610c3157600080fd5b506103aa612818565b348015610c4657600080fd5b506103aa612827565b610cb9826001836040518082805190602001908083835b60208310610c855780518252601f199092019160209182019101610c66565b51815160209384036101000a6000190180199092169116179052920194855250604051938490030190922092915050612836565b5050565b60226020526000908152604090205481565b60345481565b6040805180820190915260098152600080516020612cb6833981519152602082015281565b602160205260009081526040902054600160a060020a031681565b610d1d612b16565b60008080805b602954831015610e4e576040805160e081018252600085815260208080528382205483528682526021815283822054600160a060020a0316818401528682526022808252848320549484018590529187905252600380546002936060840192918110610d8b57fe5b9060005260206000209060050201600201548152602001600486600781101515610db157fe5b600490810291909101600290810154835260208084018990526026546040948501528554600180820188556000978852968290208651600790920201908155908501518187018054600160a060020a031916600160a060020a0390921691909117905592840151908301556060830151600383015560808301519082015560a0820151600582015560c09091015160069091015590920191610d23565b602a5491505b602a54602954018210156110cc57819350600282815481101515610e7457fe5b60009182526020918290206040805160e081018252600790930290910180548352600180820154600160a060020a0316948401949094526002810154918301919091526003810154606083015260048101546080830152600581015460a08301526006015460c08201529550820190505b602a5460295401811015610f9e576002805482908110610f0157fe5b600091825260209091206007909102015485511115610f96576002805482908110610f2857fe5b60009182526020918290206040805160e0810182526007909302909101805483526001810154600160a060020a0316938301939093526002830154908201526003820154606082015260048201546080820152600582015460a082015260069091015460c082015294509250825b600101610ee5565b8382146110c1576002805483908110610fb357fe5b9060005260206000209060070201600285815481101515610fd057fe5b6000918252602090912082546007909202019081556001808301549082018054600160a060020a031916600160a060020a0390921691909117905560028083015481830155600380840154908301556004808401549083015560058084015490830155600692830154929091019190915580548691908490811061105057fe5b600091825260209182902083516007929092020190815590820151600182018054600160a060020a031916600160a060020a0390921691909117905560408201516002820155606082015160038201556080820151600482015560a0820151600582015560c0909101516006909101555b600190910190610e54565b5050505050565b600061113f836001846040518082805190602001908083835b6020831061110b5780518252601f1990920191602091820191016110ec565b51815160209384036101000a600019018019909216911617905292019485525060405193849003019092209291505061284b565b9392505050565b60008054600160a060020a0316331461115e57600080fd5b5060005b8151811015610cb95761118b828281518110151561117c57fe5b90602001906020020151611193565b600101611162565b600054600160a060020a031633146111aa57600080fd5b6111d781604080519081016040528060098152602001600080516020612cb683398151915281525061286a565b50565b6026805460010190819055602954602a805491909202019055565b600080600080600460016029540360078110151561120f57fe5b600402016002015460038681548110151561122657fe5b90600052602060002090600502016002015411156112955760295460001901935061128e6004856007811061125757fe5b600402016002015460038781548110151561126e57fe5b90600052602060002090600502016002015461297b90919063ffffffff16565b92506113db565b60065460038054879081106112a657fe5b906000526020600020906005020160020154101561130b576000935061128e6003868154811015156112d457fe5b9060005260206000209060050201600201546004866007811015156112f557fe5b600402016002015461297b90919063ffffffff16565b6004846007811061131857fe5b600402016002015460038681548110151561132f57fe5b90600052602060002090600502016002015411156113525760019093019261130b565b6004846007811061135f57fe5b600402016002015460038681548110151561137657fe5b906000526020600020906005020160020154141561139757600092506113db565b6113ab600460001986016007811061125757fe5b91506113bf6003868154811015156112d457fe5b9050818111156113d7576001840393508192506113db565b8092505b600084815260216020526040902054600160a060020a0316158061140b5750600084815260208052604090205483105b156114a557600380548690811061141e57fe5b60009182526020808320600360059093020191909101548683526021825260408084208054600160a060020a031916600160a060020a03909316929092179091558180528083208690556022825291829020879055815187815291517fed4436a39d9a77d0c6c3be4f0e28f018750eb25c5c2d30ded16ef07ced4c00719281900390910190a15b8215156110cc5760038054869081106114ba57fe5b6000918252602080832060036005909302018201546028548452602490915260409092208054600160a060020a031916600160a060020a039093169290921790915580548690811061150857fe5b600091825260208083206002600590930201919091015460288054845260238352604080852092909255805484526025909252909120869055805460010190555050505050565b603054600160a060020a031681565b602f54600160a060020a031681565b60295481565b60375481565b600054600160a060020a0316331461159057600080fd5b60008054604051600160a060020a03909116917ff8df31144d9c2f0f6b59d69b8b98abd5459d07f2742c4df920b25aae33c6482091a260008054600160a060020a0319169055565b6115e0612b5d565b600080805b6029548110156119fb57915081600481600781106115ff57fe5b6040805160049290920292909201805460a06020601f600260001961010060018716150201909416939093049283018190040284018101909452608083018181529293919284929091849184018282801561169b5780601f106116705761010080835404028352916020019161169b565b820191906000526020600020905b81548152906001019060200180831161167e57829003601f168201915b50505050508152602001600182018054600181600116156101000203166002900480601f01602080910402602001604051908101604052809291908181526020018280546001816001161561010002031660029004801561173d5780601f106117125761010080835404028352916020019161173d565b820191906000526020600020905b81548152906001019060200180831161172057829003601f168201915b505050505081526020016002820154815260200160038201548152505093508060010191505b602954821015611906576004826007811061177a57fe5b6004020160020154846040015111156118fb576004826007811061179a57fe5b6040805160049290920292909201805460a06020601f60026000196101006001871615020190941693909304928301819004028401810190945260808301818152929391928492909184918401828280156118365780601f1061180b57610100808354040283529160200191611836565b820191906000526020600020905b81548152906001019060200180831161181957829003601f168201915b50505050508152602001600182018054600181600116156101000203166002900480601f0160208091040260200160405190810160405280929190818152602001828054600181600116156101000203166002900480156118d85780601f106118ad576101008083540402835291602001916118d8565b820191906000526020600020905b8154815290600101906020018083116118bb57829003601f168201915b505050505081526020016002820154815260200160038201548152505093508192505b600190910190611763565b8281146119f3576004816007811061191a57fe5b6004020160048460078110151561192d57fe5b6004020160008201816000019080546001816001161561010002031660029004611958929190612b86565b5060018201816001019080546001816001161561010002031660029004611980929190612b86565b506002828101549082015560039182015491015583600482600781106119a257fe5b6004020160008201518160000190805190602001906119c2929190612c0b565b5060208281015180516119db9260018501920190612c0b565b50604082015160028201556060909101516003909101555b6001016115e5565b50505050565b600054600160a060020a03163314611a1857600080fd5b6111d781604080519081016040528060098152602001600080516020612cb683398151915281525061298d565b602d54600160a060020a031681565b60236020526000908152604090205481565b60256020526000908152604090205481565b600054600160a060020a031681565b6000602755565b60048160078110611a9b57fe5b60040201805460408051602060026001851615610100026000190190941693909304601f81018490048402820184019092528181529293508391830182828015611b265780601f10611afb57610100808354040283529160200191611b26565b820191906000526020600020905b815481529060010190602001808311611b0957829003601f168201915b505050505090806001018054600181600116156101000203166002900480601f016020809104026020016040519081016040528092919081815260200182805460018160011615610100020316600290048015611bc45780601f10611b9957610100808354040283529160200191611bc4565b820191906000526020600020905b815481529060010190602001808311611ba757829003601f168201915b5050505050908060020154908060030154905084565b602c54600160a060020a031681565b60335481565b6000611c1e82604080519081016040528060098152602001600080516020612cb68339815191528152506110d3565b92915050565b6040805160808101825284815260208101849052908101829052602654606082015260275460049060078110611c5657fe5b600402016000820151816000019080519060200190611c76929190612c0b565b506020828101518051611c8f9260018501920190612c0b565b506040828101516002830155606090920151600390910155602780546001019055805182815290517fec2692b386f7e992f219e405f018eeaf8da1b95736760596812e564f2e709cfd9181900360200190a1505050565b6003805482908110611cf457fe5b60009182526020918290206005919091020180546040805160026001841615610100026000190190931692909204601f810185900485028301850190915280825291935091839190830182828015611d8d5780601f10611d6257610100808354040283529160200191611d8d565b820191906000526020600020905b815481529060010190602001808311611d7057829003601f168201915b505050505090806001018054600181600116156101000203166002900480601f016020809104026020016040519081016040528092919081815260200182805460018160011615610100020316600290048015611e2b5780601f10611e0057610100808354040283529160200191611e2b565b820191906000526020600020905b815481529060010190602001808311611e0e57829003601f168201915b505050506002830154600384015460049094015492939092600160a060020a03909116915085565b602a5481565b600080600080600080600080611e6d612c79565b602a5491505b602a5460295401821015611f5857600280546000919084908110611e9357fe5b6000918252602090912060016007909202010154600160a060020a031614611f4d576002805483908110611ec357fe5b60009182526020822060016007909202010154600160a060020a03169082906020020190600160a060020a03169081600160a060020a0316815250508f603381905550600282815481101515611f1557fe5b6000918252602090912060016007909202010154602c8054600160a060020a031916600160a060020a03909216919091179055611f58565b600190910190611e73565b6001909101905b602a546029540182101561202757600280546000919084908110611f7f57fe5b6000918252602090912060016007909202010154600160a060020a03161461201c576002805483908110611faf57fe5b600091825260209182902060079091020160010154600160a060020a03169082015260348f90556002805483908110611fe457fe5b6000918252602090912060016007909202010154602d8054600160a060020a031916600160a060020a03909216919091179055612027565b600190910190611f5f565b6001909101905b602a54602954018210156120f65760028054600091908490811061204e57fe5b6000918252602090912060016007909202010154600160a060020a0316146120eb57600280548390811061207e57fe5b6000918252602090912060079091020160010154600160a060020a0316604082015260358e905560028054839081106120b357fe5b6000918252602090912060016007909202010154602e8054600160a060020a031916600160a060020a039092169190911790556120f6565b60019091019061202e565b6001909101905b602a54602954018210156121c55760028054600091908490811061211d57fe5b6000918252602090912060016007909202010154600160a060020a0316146121ba57600280548390811061214d57fe5b6000918252602090912060079091020160010154600160a060020a0316606082015260368d9055600280548390811061218257fe5b6000918252602090912060016007909202010154602f8054600160a060020a031916600160a060020a039092169190911790556121c5565b6001909101906120fd565b6001909101905b602a5460295401821015612294576002805460009190849081106121ec57fe5b6000918252602090912060016007909202010154600160a060020a03161461228957600280548390811061221c57fe5b6000918252602090912060079091020160010154600160a060020a0316608082015260378c9055600280548390811061225157fe5b600091825260209091206001600790920201015460308054600160a060020a031916600160a060020a03909216919091179055612294565b6001909101906121cc565b6001909101905b602a5460295401821015612363576002805460009190849081106122bb57fe5b6000918252602090912060016007909202010154600160a060020a0316146123585760028054839081106122eb57fe5b6000918252602090912060079091020160010154600160a060020a031660a082015260388b9055600280548390811061232057fe5b600091825260209091206001600790920201015460318054600160a060020a031916600160a060020a03909216919091179055612363565b60019091019061229b565b6001909101905b602a54602954018210156124325760028054600091908490811061238a57fe5b6000918252602090912060016007909202010154600160a060020a0316146124275760028054839081106123ba57fe5b6000918252602090912060079091020160010154600160a060020a031660c082015260398a905560028054839081106123ef57fe5b600091825260209091206001600790920201015460328054600160a060020a031916600160a060020a03909216919091179055612432565b60019091019061236a565b806000602002015181600160200201518260026020020151836003602002015184600460200201518560056020020151866006602002015198509850985098509850985098505050975097509750975097509750979050565b60005b6029548110156125ec57600081815260208080526040808320839055602182528083208054600160a060020a031916905560228252808320929092558151808301909252600182527f3000000000000000000000000000000000000000000000000000000000000000908201526004826007811061250857fe5b600402016000019080519060200190612522929190612c0b565b5060408051808201909152600181527f300000000000000000000000000000000000000000000000000000000000000060208201526004826007811061256457fe5b60040201600101908051906020019061257e929190612c0b565b5060006004826007811061258e57fe5b60040201600201819055506026546004826007811015156125ab57fe5b60040201600301556000818152602360209081526040808320839055602482528083208054600160a060020a0319169055602590915281205560010161248e565b506000602855565b60275481565b600280548290811061260857fe5b60009182526020909120600790910201805460018201546002830154600384015460048501546005860154600690960154949650600160a060020a039093169491939092919087565b603154600160a060020a031681565b60385481565b6040805160a0810182528581526020808201869052918101849052600160a060020a0383166060820152602654608082015260038054600181810180845560009384528451805194968796939592946005027fc2575a0e9e593c00f959f8c92f12db2869c3395a3b0502d05e2516446f71f85b01926126e89284920190612c0b565b5060208281015180516127019260018501920190612c0b565b50604082015160028201556060820151600382018054600160a060020a031916600160a060020a03909216919091179055608090910151600490910155039695505050505050565b60265481565b60285481565b60008054600160a060020a0316331461276d57600080fd5b5060005b8151811015610cb95761279a828281518110151561278b57fe5b90602001906020020151611a01565b600101612771565b60395481565b602080526000908152604090205481565b602460205260009081526040902054600160a060020a031681565b60365481565b600054600160a060020a031633146127f157600080fd5b6111d781612a5f565b603a6020526000908152604090205481565b602b5481565b60355481565b603254600160a060020a031681565b602e54600160a060020a031681565b612840828261284b565b1515610cb957600080fd5b600160a060020a03166000908152602091909152604090205460ff1690565b6128d4826001836040518082805190602001908083835b602083106128a05780518252601f199092019160209182019101612881565b51815160209384036101000a6000190180199092169116179052920194855250604051938490030190922092915050612acf565b81600160a060020a03167fd211483f91fc6eff862467f8de606587a30c8fc9981056f051b897a418df803a826040518080602001828103825283818151815260200191508051906020019080838360005b8381101561293d578181015183820152602001612925565b50505050905090810190601f16801561296a5780820380516001836020036101000a031916815260200191505b509250505060405180910390a25050565b60008282111561298757fe5b50900390565b6129f7826001836040518082805190602001908083835b602083106129c35780518252601f1990920191602091820191016129a4565b51815160209384036101000a6000190180199092169116179052920194855250604051938490030190922092915050612af1565b81600160a060020a03167fbfec83d64eaa953f2708271a023ab9ee82057f8f3578d548c1a4ba0b5b700489826040518080602001828103825283818151815260200191508051906020019080838360008381101561293d578181015183820152602001612925565b600160a060020a0381161515612a7457600080fd5b60008054604051600160a060020a03808516939216917f8be0079c531659141344cd1fd0a4f28419497f9722a3daafe3b4186f6b6457e091a360008054600160a060020a031916600160a060020a0392909216919091179055565b600160a060020a0316600090815260209190915260409020805460ff19169055565b600160a060020a0316600090815260209190915260409020805460ff19166001179055565b60e060405190810160405280600081526020016000600160a060020a0316815260200160008152602001600081526020016000815260200160008152602001600081525090565b608060405190810160405280606081526020016060815260200160008152602001600081525090565b828054600181600116156101000203166002900490600052602060002090601f016020900481019282601f10612bbf5780548555612bfb565b82800160010185558215612bfb57600052602060002091601f016020900482015b82811115612bfb578254825591600101919060010190612be0565b50612c07929150612c98565b5090565b828054600181600116156101000203166002900490600052602060002090601f016020900481019282601f10612c4c57805160ff1916838001178555612bfb565b82800160010185558215612bfb579182015b82811115612bfb578251825591602001919060010190612c5e565b60e0604051908101604052806007906020820280388339509192915050565b612cb291905b80821115612c075760008155600101612c9e565b90560077686974656c6973740000000000000000000000000000000000000000000000a165627a7a72305820edc777db14bddd404195cb1dc25e9c82b147ddd86ce13adef4bc570f2317fadc0029",
  "source": "/**\n  * @author Matias Barrios\n  * @version 1.0\n  */\n\n\n/** @title Lucky7Storage. \n  * This contract is meant to storage all the important information of the game, i.e. Tickets, Lucky7Numbers and Lucky7Tickets related info.\n  */\n\npragma solidity ^0.4.20;\n\nimport \"openzeppelin-solidity/contracts/math/SafeMath.sol\";\nimport \"openzeppelin-solidity/contracts/access/Whitelist.sol\";\nimport \"./Lucky7Library.sol\";\n\ncontract Lucky7Storage is Whitelist{\n    using SafeMath for uint256;\n    /**@dev The events are used mainly for testing purposes\n      */\n    event NewLucky7Ticket(uint ticketID);\n    event NewLucky7Number(uint value);\n\n    /** @pdev Ticket is a struct to store information of the tickets. It information is stored permanently through the tickets array.\n      * @param mu is a parameter of the pseudo-random number generator (PRNG).\n      * @param i is a parameter of the pseudo-random number generator (PRNG).\n      * @param ticketValue is the value of ticket.\n      * @param owner is the owner of the ticket.\n      * @param drawID is the number of the draw for this ticket, i.e. the game where this ticket was emitted.\n      */\n    struct Ticket{\n        string mu;\n        string i;\n        uint ticketValue;\n        address owner;\n        uint drawID;\n    }\n    \n    /** @dev Lucky7Number is a struct to store the information of the Lucky7Numbers. Is used for the lucky7Numbers array\n      * and it information is erased when a new game is setted, i.e. it information is replaced with the Lucky7Numbers information\n      * of the new game.\n      * @param mu is a parameter of the pseudo-random number generator (PRNG).\n      * @param i is a parameter of the pseudo-random number generator (PRNG).\n      * @param ticketValue is the value of the Lucky7Number.\n      * @param drawID is the number of the draw for this Lucky7Number, i.e. the game where this Lucky7Number was emitted. \n      */\n    struct Lucky7Number{\n        string mu;\n        string i;\n        uint ticketValue;\n        uint drawID;\n    }\n    \n    /** @dev Lucky7Ticket is a struct to store the information of the Lucky7Tickets. Is used once a new game is setted, and it store the information of the final\n      * Lucky7Tickets permanently.\n      * @param difference is the difference (in absolute value) of the ticket with the Lucky7Number.\n      * @param owner is the owner of the Lucky7Ticket.\n      * @param ticketID is the ticket ID of the ticket which was selected as Lucky7Ticket. Is helpful to look up in the ticketID mapping to verify\n      * past games and results.\n      * @param ticketValue is the value of the ticket associated to this Lucky7Ticket.\n      * @param lucky7Number is the value of the Lucky7Number associated to this Lucky7Ticket.\n      * @param lucky7NumberID is the ID of the Lucky7Number associated to this Lucky7Ticket, i.e. if 0 is the first Lucky7Number of the draw.\n      * @param drawID is the number of the draw for this Lucky7Ticket, i.e. the game where this Lucky7Ticket was emitted.\n      */\n    struct Lucky7Ticket{\n        uint difference;\n        address owner;\n        uint ticketID;\n        uint ticketValue;\n        uint lucky7Number;\n        uint lucky7NumberID;\n        uint drawID;\n    }\n    \n    /** @dev The next two arrays are used to store information of the game permanently.\n      * @param lucky7TicketsArray stores the Lucky7Tickets once a new game is setted.\n      * @param ticketsArray stores the tickets everytime a user buys a ticket.\n      */\n    Lucky7Ticket[] public lucky7TicketsArray;\n    Ticket[] public ticketsArray;\n    \n    /** @param lucky7NumbersArray stores the Lucky7Numbers for the current draw. Once a new game is called, it is cleand to 0 to be reused. \n      */\n    Lucky7Number[7] public lucky7NumbersArray;\n\n    /** @dev The next three mapping are used to state the Lucky7Ticket values while a game is on course. This is because is expensive to look up on the Lucky7Ticket\n      * struct everytime a new ticket is inserted in the tickets array.\n      * They all maps from the lucky7NumberID, i.e. the id of the Lucky7Number of the current game. \n      * @param lucky7TicketDifference points to an uint which is the difference between the Lucky7Number of it _KeyType and the ticket selected as Lucky7Ticket, \n      * e.g. lucky7TicketDifference[0] is the difference between the first Lucky7Number with the ticket which was selected as his Lucky7Ticket.\n      * @param lucky7TicketOwner points to the address of the owner of the Lucky7Ticket associated to the Lucky7Number of it _KeyType, \n      * e.g. lucky7TicketOwner[0] is the owner of the Lucky7Ticket associated to the first Lucky7Number.\n      * @param lucky7TicketID points to the id of the ticket which was selected as Lucky7Ticket for the Lucky7Number of it _KeyType, \n      * e.g. lucky7TicketID[0] is the ticketID of the ticket owned by lucky7TicketOwner[0], with a difference of lucky7TicketDiffference[0] with the Lucky7Number[0].\n      */\n    mapping (uint => uint) public lucky7TicketDifference;\n    mapping (uint => address) public lucky7TicketOwner;\n    mapping (uint => uint) public lucky7TicketID;\n\n    /** @dev The next three mappings are used to storage ExactLucky7Ticket, i.e. tickets which difference with a Lucky7Number is 0 \n      * They follow the same logic as the previous three mapings. They're setted for future development, because this project is meant to emit tokens and ExactLucky7Tickets\n      * are going to be specially awarded.\n      * They're cleaned to 0 everytime a new game is setted.\n      */\n    mapping (uint => uint) public ExactLucky7TicketValue;\n    mapping (uint => address) public ExactLucky7TicketOwner;\n    mapping (uint => uint) public ExactLucky7TicketID;\n\n    /** @param drawNumber is the number of the current draw. Is used to help storage Lucky7Tickets, look up for current game winners and others functions.\n      * Is incremented by 1 everytime a new game is setted.\n      * @param indexForLucky7Array is a uint used to count the number of Lucky7Numbers generated everytime a new game is setted. Is used to know if all the Lucky7Numbers \n      * were setted, and if they did, order them by them values in ascendant order and let users start buying tickets. Is setted to 0 after all this process.\n      * @param indexForExactLucky7Ticket is a uint which increments everytime a ExactLucky7Ticket is detected and stored. It's used to look up in in the ExactLucky7 mappings\n      * and is cleaned to 0 everytime a new game is setted.\n      */\n    uint public drawNumber = 0;\n    uint public indexForLucky7Array = 0;\n    uint public indexForExactLucky7Ticket = 0;\n\n    /** @param numberOfLucky7Numbers is the parameter that indicates the number of Lucky7Numbers which are going to be generated\n      * before letting users start buying a ticket. Is used for other functions to shutdown a circuit breaker, lookup in arrays and\n      * order the Lucky7Numbers\n      */\n    uint public numberOfLucky7Numbers = 3;\n\n    /** @param initialLucky7TicketPosition is a uint used for the _orderLucky7Tickets function of this contract. \n      * Because is necessary to store the information of previous games permanently is necessary then to know what it the starting point to store in the \n      * lucky7TicketsArray array of the Lucky77TicketFactory.sol contract. \n      * This way, the _orderLucky7Tickets function starts storing in the \"initialLucky7TicketPosition\" and finish storing in the \n      * \"numberOfLucky7Numbers+initialLucky7TicketPosition\" position of the lucky7TicketsArray array. \n      * Defaults to 0, and is getting incremented by \"numberOfLucky7Numbers\" value every time the setNewGame function of this contract is called.\n      * @param currentTicketID is a uint which points to the position in the ticketsArray array of the Lucky7TicketFactory contract where was pushed the last ticket\n      * inserted by the insertCustomizedTicket function of this contract. That function and this parameter are used for testing purposes only.\n      * @param lastFirstPrizeWinner is and address which stores the address of the last first prize winner. Is setted on the _deliverPrizes function of this contract \n      * and is used to set to 0 the amount of the prize for the last first prize winner before start delivering prizes for security reasons.\n      * @param lastSecondPrizeWinner is and address which stores the address of the last second prize winner. Is setted on the _deliverPrizes function of this contract \n      * and is used to set to 0 the amount of the prize for the last second prize winner before start delivering prizes for security reasons.\n      * @param lastThirdPrizeWinner is and address which stores the address of the last third prize winner. Is setted on the _deliverPrizes function of this contract \n      * and is used to set to 0 the amount of the prize for the last third prize winner before start delivering prizes for security reasons.\n      * @param lastFirstPrizeAmount is and uint which stores the amount of the last first prize. Is setted on the _deliverPrizes function of this contract.\n      * @param lastSecondPrizeAmount is and uint which stores the uint of the last second prize winner. Is setted on the _deliverPrizes function of this contract.\n      * @param lastThirdPrizeAmount is and uint which stores the uint of the last third prize winner. Is setted on the _deliverPrizes function of this contract.\n      * @param pendingWithdrawals is a mapping that points from an address to an uint. Is used for the _deliverPrizes function of this contract to store the \n      * the correspondent prize with the correspondent winner. The prizes are setted to 0 every time the _deliverPrizes function is called for security reasons.\n      * To claim a prize, user have to call the withdraw function of this contract, so the prize is delivered and the amount for him prize is setted to 0 again.\n      \n      */\n    uint public initialLucky7TicketPosition = 0;\n    uint public currentTicketID = 0;\n    address public lastFirstPrizeWinner = address(0);\n    address public lastSecondPrizeWinner = address(0);\n    address public lastThirdPrizeWinner = address(0);\n    address public lastFourthPrizeWinner = address(0);\n    address public lastFifthPrizeWinner = address(0);\n    address public lastSixthPrizeWinner = address(0);\n    address public lastSeventhPrizeWinner = address(0);\n    uint public lastFirstPrizeAmount = 0;\n    uint public lastSecondPrizeAmount = 0;\n    uint public lastThirdPrizeAmount = 0;\n    uint public lastFourthPrizeAmount = 0;\n    uint public lastFifthPrizeAmount = 0;\n    uint public lastSixthPrizeAmount = 0;\n    uint public lastSeventhPrizeAmount = 0;\n    mapping (address => uint) public pendingWithdrawals;\n\n     /** @dev _checkForLucky7Ticket is a function that check if a ticket recently inserted in the ticketsArray is a Lucky7Ticket.\n      * @param _ticketID is the ticket which is going to be checked.\n      * At this point, the Lucky7Numbers are ordered by them values in ascedant order.\n      * This function uses the SafeMath library to avoid integer underflow or overflow, or to check that the difference is not 0, which is a special case.\n      */\n    function _checkForLucky7Ticket(uint _ticketID) \n        public\n    {\n        uint i;\n        uint difference;\n        /** @dev First it checks if the ticket is bigger than the last Lucky7Number.\n          * If so, sets the auxiliary parameter i to the id of the last Lucky7Number, numberOfLucky7Numbers-1 in this case. Don't confuse with the i parameter of the PRNG.\n          * Then the difference between them is obtained through the sub function of the SafeMath library, knowing that the ticket is bigger than the last Lucky7Number.\n          */\n        if(ticketsArray[_ticketID].ticketValue>lucky7NumbersArray[numberOfLucky7Numbers-1].ticketValue){\n            i = numberOfLucky7Numbers-1;\n            difference = ticketsArray[_ticketID].ticketValue.sub(lucky7NumbersArray[i].ticketValue);\n            \n        }\n        /** @dev If it is not bigger than the last Lucky7Number, then checks if it is smaller thant the first Lucky7Number.\n          * If so, sets the auxiliary parameter i to the id of the first Lucky7Number, 0 in this case. Don't confuse with the i parameter of the PRNG.\n          * Then the difference between them is obtained through the sub function of the SafeMath library, knowing that the ticket is smaller than the first Lucky7Number.\n          */\n        else if (ticketsArray[_ticketID].ticketValue<lucky7NumbersArray[0].ticketValue){\n            i = 0;\n            difference = lucky7NumbersArray[i].ticketValue.sub(ticketsArray[_ticketID].ticketValue);\n        }\n\n        /** @dev If none of the above fits, then the ticket could be bigger or equal than the first Lucky7Number or smaller or equal than the last Lucky7Number.\n          * The function proceeds then to look which is it interval,i.e. it should be between two Lucky7Numbers or equal to one Lucky7Number.\n          */\n        else{\n            /** @dev The function then proceed to increment i until the ticket is bigger than the Lucky7Number[i].\n              */\n            while(ticketsArray[_ticketID].ticketValue>lucky7NumbersArray[i].ticketValue){ \n                i++;\n            }\n            /** @dev If the ticket and the correspondent Lucky7Numbers are equal, then the ticket is a ExactLucky7Ticket\n              */\n            if(ticketsArray[_ticketID].ticketValue==lucky7NumbersArray[i].ticketValue){\n                difference = 0;\n            }\n            else{\n                /** @dev If not, then it will have to check if the Lucky7Number above or below the ticket is closer\n                  * if the below Lucky7Number is closer to the ticket than the above Lucky7Number (if(upperLucky7NumberDifference>lowerLucky7NumberDifference)) then the \n                  * correspondent candidate to Lucky7Ticket is the Lucky7Number which is below the ticket.\n                  * Else, the above Lucky7Number is the correspondent candidate.\n                  * Then saves the value of difference.\n                  */\n                uint lowerLucky7NumberDifference = ticketsArray[_ticketID].ticketValue.sub(lucky7NumbersArray[i-1].ticketValue);\n                uint upperLucky7NumberDifference = lucky7NumbersArray[i].ticketValue.sub(ticketsArray[_ticketID].ticketValue);\n                \n                if(upperLucky7NumberDifference>lowerLucky7NumberDifference){\n                    i=i-1;\n                    difference = lowerLucky7NumberDifference;\n                }\n                else{\n                    difference = upperLucky7NumberDifference;\n                }\n            }\n        }\n        /** @dev Now the function proceed to check if it is in fact a Lucky7Ticket.\n          * If the Lucky7Ticket[i] hasn't an owner, then the ticket is automatically assigned as Lucky7Ticket.\n          * If it has an owner, then check if the difference is smaller than the difference of the current owner.\n          * If it is smaller, then the ticket is a Lucky7Ticket and is stored in the Lucky7Ticket mappings.\n          * Then an event is emitted.\n          */\n        if(lucky7TicketOwner[i] == address(0x0) || difference<lucky7TicketDifference[i]){\n            lucky7TicketOwner[i] = ticketsArray[_ticketID].owner;\n            lucky7TicketDifference[i] = difference;\n            lucky7TicketID[i] = _ticketID;\n            emit NewLucky7Ticket(_ticketID);\n        }\n        /** @dev Then, checks if it's a ExactLucky7Ticket.\n          * Due to the high entropy of the PRNG is pretty unfeasible to get an ExactLucky7Ticket without having the same mu and i parameters than the\n          * Lucky7Number. The probability of having two identical ExactLucky7Tickets in the same game is even lower.\n          * If in determinated unfortunate case an user gets a ExacyLucky7Ticket which is already occupied, then it will not replace the old one.\n          * That's why is necessary to storage all the ExactLucky7Tickets to award them specially, e.g. giving them tokens according to some rules, which would be\n          * specified in future developments.\n          * The next step, then, is to check if it is indeed a ExactLucky7Ticket. If so, then store the information in the ExactLucky7Tickets mappings and increment\n          * indexForExactLucky7Ticket by 1.\n          */\n        if(difference == 0){\n            ExactLucky7TicketOwner[indexForExactLucky7Ticket] = ticketsArray[_ticketID].owner;\n            ExactLucky7TicketValue[indexForExactLucky7Ticket] = ticketsArray[_ticketID].ticketValue;\n            ExactLucky7TicketID[indexForExactLucky7Ticket] = _ticketID;\n            indexForExactLucky7Ticket++;\n        }\n    }\n    \n    \n    /** @dev _orderLucky7Numbers is a function designed to order the Lucky7Numbers. It is called from the _generateLucky7Number function of this contract (above function).\n      * First, it generates 4 auxiliary parameters; a Lucky7Number struct called smallest, and aux, j and i which are uint initiated to 0.\n      * Then it loops over the Lucky7Numbers array, comparing the i Lucky7Number value with the i+1, i+2, i+3 until reachs the numberOfLucky7Numbers-1 value. \n      * If none of them is smaller than it, then jumps to the next Lucky7Number. It then starts comparing it (the i+1 for this case) with the subsequents number. If one of \n      * them is smaller, changes positions and starts comparing the new one with the subsequents. \n      */\n    function _orderLucky7Numbers() \n        public \n        // onlyOwner\n    {\n        Lucky7Number memory smallest;\n        uint aux;\n        uint j;\n        uint i;\n        for(i=0; i<numberOfLucky7Numbers; i++){\n            /** @dev At this point, aux is going to be ever equal to i and smallest is the Lucky7Number which is going to be compared with the next.\n              */\n            aux = i;\n            smallest = lucky7NumbersArray[i];\n            for (j=i+1; j<numberOfLucky7Numbers; j++){\n                /** @dev At this point, the function starts comparing \"smallest\" with the next to it, j+1 in this case.\n                  * If \"smallest\" is not smaller than the next ticketValue (or Lucky7Number[j] value), then it saves the value of the new \"smallest\" value, \n                  * and saves aux as the j value.\n                  */\n                if(smallest.ticketValue>lucky7NumbersArray[j].ticketValue){\n                    smallest = lucky7NumbersArray[j];\n                    aux = j;\n                }\n            }\n\n            /** @dev Once the previous loop is finished, i.e. the comparison of \"smallest\" with all the other above it, it checks if aux changed.\n              * If it changed, it means that there was one Lucky7Number which value was lower than \"smallest\", and change the position of \"smallest\" with the Lucky7Number[j]\n              * which is actually smalller than \"smallest\". This way, in next hopes former \"smallest\" Lucky7Number is going to be compared again until it fits the state of\n              * \"smallest than every Lucky7Number above itself\"\n              */\n            if(aux!=i){\n                lucky7NumbersArray[aux]=lucky7NumbersArray[i];\n                lucky7NumbersArray[i] = smallest;\n            }\n        }\n    }\n    /** @dev _orderLucky7Tickets is a function designed to store and order the Lucky7Tickets according to its difference in asceding order.\n      * First, it stores all the current Lucky7Ticket values, i.e. lucky7TicketDifference, lucky7TicketOwner and lucky7TicketID mappings from the Lucky7TicketFactory contract,\n      * the ticketValue associated to it, the Lucky7Number and Lucky7NumberID (first, second, third) associated to it, and the drawID. This is thought to be capable of verify\n      * in the future possible problems delivering prizes.\n      * Then, it order the Lucky7Tickets depending on them difference value of the Lucky7Ticket struct of the Lucky7TicketFactory contract. The order logic is the same defined\n      * in the _orderLucky7Numbers function of this contract (the above function).\n      */\n    function _orderLucky7Tickets() \n        public \n        // onlyOwner\n    {\n        Lucky7Ticket memory smallest;\n        uint aux;\n        uint i;\n        uint j;\n        uint k;\n        for (i=0; i<numberOfLucky7Numbers; i++){\n            lucky7TicketsArray.push(\n                /** @dev The Lucky7Ticket struct is as follows:   \n                  *     struct Lucky7Ticket{\n                  *         uint difference;\n                  *         address owner;\n                  *         uint ticketID;\n                  *         uint ticketValue;\n                  *         uint lucky7Number;\n                  *         uint lucky7NumberID;\n                  *         uint drawID;\n                  *     }  \n                  */\n                Lucky7Ticket(\n                    lucky7TicketDifference[i],\n                    lucky7TicketOwner[i],\n                    lucky7TicketID[i],\n                    ticketsArray[lucky7TicketID[i]].ticketValue,\n                    lucky7NumbersArray[i].ticketValue,\n                    i,\n                    drawNumber)\n                    );\n        }\n        for(j=initialLucky7TicketPosition; j<numberOfLucky7Numbers+initialLucky7TicketPosition; j++){\n            aux = j;\n            smallest = lucky7TicketsArray[j];\n            for (k=j+1; k<numberOfLucky7Numbers+initialLucky7TicketPosition; k++){\n                if(smallest.difference>lucky7TicketsArray[k].difference){\n                    smallest = lucky7TicketsArray[k];\n                    aux = k;\n                }\n            }\n            if(aux!=j){\n                lucky7TicketsArray[aux]=lucky7TicketsArray[j];\n                lucky7TicketsArray[j] = smallest;\n\n            }\n        }\n    }\n\n    /** @dev _cleanMappings is a function used by the setNewGame function of this contract to clean the necessary mappings, \n      * i.e. lucky7TicketDifference, lucky7TicketOwner, lucky7TicketID, lucky7NumbersArray, ExactLucky7TicketValue, ExactLucky7TicketOwner and\n      * ExactLucky7TicketID. This, because for new games the old winners needs to been cleaned up.\n      */\n    //Should clean \n    function _cleanMappings() \n        public\n    {\n        for(uint i=0; i<numberOfLucky7Numbers; i++){\n            lucky7TicketDifference[i]=0;\n            lucky7TicketOwner[i]=0;\n            lucky7TicketID[i]=0;\n            lucky7NumbersArray[i].mu=\"0\";\n            lucky7NumbersArray[i].i=\"0\";\n            lucky7NumbersArray[i].ticketValue=0;\n            lucky7NumbersArray[i].drawID=drawNumber;\n            ExactLucky7TicketValue[i]=0;\n            ExactLucky7TicketOwner[i]=0;\n            ExactLucky7TicketID[i]=0;\n        }\n        indexForExactLucky7Ticket =0;\n    }\n\n    /** @dev Storage functions.\n      *  Functions created to be called through other contracts to storage data in this contract.\n      */\n\n    function storageTicket(string _mu, string _i, uint _ticketValue, address _owner)\n        public    \n        //onlyOwner\n        returns(uint)\n    {\n        uint id = ticketsArray.push(Ticket(_mu, _i,_ticketValue,_owner,drawNumber)) - 1;\n        return id;\n    }\n\n    function storageLucky7Number(string _mu, string _i, uint _ticketValue)\n        public \n        //onlyOwner\n    {\n        lucky7NumbersArray[indexForLucky7Array] = Lucky7Number(_mu, _i, _ticketValue, drawNumber);\n        indexForLucky7Array++;\n        emit NewLucky7Number(_ticketValue);\n    }\n\n    function increaseCounters() \n        public \n        // onlyOwner\n    {\n        drawNumber++;\n        initialLucky7TicketPosition+=drawNumber*numberOfLucky7Numbers;\n    }\n\n    function setWinners(uint _firstPrize, uint _secondPrize, uint _thirdPrize, uint _fourthPrize, uint _fifthPrize, uint _sixthPrize, uint _seventhPrize)   \n        public \n        // onlyOwner \n        returns(address,address,address,address,address,address,address)\n    {\n        uint i;\n        address[7] memory winners;\n        for(i=initialLucky7TicketPosition; i<numberOfLucky7Numbers+initialLucky7TicketPosition; i++){\n            if(lucky7TicketsArray[i].owner!=address(0x0)){\n                winners[0]=lucky7TicketsArray[i].owner;\n                lastFirstPrizeAmount = _firstPrize;\n                lastFirstPrizeWinner = lucky7TicketsArray[i].owner;\n                break;\n            }\n        }\n        \n        for(i++; i<numberOfLucky7Numbers+initialLucky7TicketPosition; i++){\n            if(lucky7TicketsArray[i].owner!=address(0x0)){\n                winners[1]=lucky7TicketsArray[i].owner;\n                lastSecondPrizeAmount = _secondPrize;\n                lastSecondPrizeWinner = lucky7TicketsArray[i].owner;\n                break;\n            }\n        }\n        \n        for(i++; i<numberOfLucky7Numbers+initialLucky7TicketPosition; i++){\n            if(lucky7TicketsArray[i].owner!=address(0x0)){\n                winners[2]=lucky7TicketsArray[i].owner;\n                lastThirdPrizeAmount = _thirdPrize;\n                lastThirdPrizeWinner = lucky7TicketsArray[i].owner;\n                break;\n            }\n        }\n\n        for(i++; i<numberOfLucky7Numbers+initialLucky7TicketPosition; i++){\n            if(lucky7TicketsArray[i].owner!=address(0x0)){\n                winners[3]=lucky7TicketsArray[i].owner;\n                lastFourthPrizeAmount = _fourthPrize;\n                lastFourthPrizeWinner = lucky7TicketsArray[i].owner;\n                break;\n            }\n        }\n\n        for(i++; i<numberOfLucky7Numbers+initialLucky7TicketPosition; i++){\n            if(lucky7TicketsArray[i].owner!=address(0x0)){\n                winners[4]=lucky7TicketsArray[i].owner;\n                lastFifthPrizeAmount = _fifthPrize;\n                lastFifthPrizeWinner = lucky7TicketsArray[i].owner;\n                break;\n            }\n        }\n\n        for(i++; i<numberOfLucky7Numbers+initialLucky7TicketPosition; i++){\n            if(lucky7TicketsArray[i].owner!=address(0x0)){\n                winners[5]=lucky7TicketsArray[i].owner;\n                lastSixthPrizeAmount = _sixthPrize;\n                lastSixthPrizeWinner = lucky7TicketsArray[i].owner;\n                break;\n            }\n        }\n\n        for(i++; i<numberOfLucky7Numbers+initialLucky7TicketPosition; i++){\n            if(lucky7TicketsArray[i].owner!=address(0x0)){\n                winners[6]=lucky7TicketsArray[i].owner;\n                lastSeventhPrizeAmount = _seventhPrize;\n                lastSeventhPrizeWinner = lucky7TicketsArray[i].owner;\n                break;\n            }\n        }\n        return(winners[0],winners[1],winners[2],winners[3],winners[4],winners[5],winners[6]);\n    }\n\n    function setIndexForLucky7ArrayToZero() \n        public \n        // onlyOwner\n    {\n        indexForLucky7Array = 0;\n    }\n}",
  "sourcePath": "/Users/matiasbarrios/Desktop/Proyecto Consensys/luckyseven/contracts/Lucky7Storage.sol",
  "compiler": {
    "name": "solc",
    "version": "0.4.24+commit.e67f0147.Emscripten.clang"
  },
  "schemaVersion": "2.0.1",
  "updatedAt": "2018-09-26T00:34:37.426Z"
}