{
  "contractName": "Lucky7Test",
  "abi": [
    {
      "constant": false,
      "inputs": [],
      "name": "sellGeneratedTicket",
      "outputs": [],
      "payable": true,
      "stateMutability": "payable",
      "type": "function"
    },
    {
      "constant": false,
      "inputs": [
        {
          "name": "_newValue",
          "type": "string"
        }
      ],
      "name": "modifyParameterN",
      "outputs": [],
      "payable": false,
      "stateMutability": "nonpayable",
      "type": "function"
    },
    {
      "constant": true,
      "inputs": [
        {
          "name": "",
          "type": "uint256"
        }
      ],
      "name": "lucky7TicketID",
      "outputs": [
        {
          "name": "",
          "type": "uint256"
        }
      ],
      "payable": false,
      "stateMutability": "view",
      "type": "function"
    },
    {
      "constant": true,
      "inputs": [
        {
          "name": "",
          "type": "uint256"
        }
      ],
      "name": "lucky7TicketOwner",
      "outputs": [
        {
          "name": "",
          "type": "address"
        }
      ],
      "payable": false,
      "stateMutability": "view",
      "type": "function"
    },
    {
      "constant": false,
      "inputs": [],
      "name": "_orderLucky7Tickets",
      "outputs": [],
      "payable": false,
      "stateMutability": "nonpayable",
      "type": "function"
    },
    {
      "constant": false,
      "inputs": [],
      "name": "sellRandomTicket",
      "outputs": [],
      "payable": true,
      "stateMutability": "payable",
      "type": "function"
    },
    {
      "constant": false,
      "inputs": [
        {
          "name": "_ticketOwner",
          "type": "address"
        }
      ],
      "name": "_askForMuParameter",
      "outputs": [],
      "payable": false,
      "stateMutability": "nonpayable",
      "type": "function"
    },
    {
      "constant": false,
      "inputs": [
        {
          "name": "myid",
          "type": "bytes32"
        },
        {
          "name": "result",
          "type": "string"
        }
      ],
      "name": "__callback",
      "outputs": [],
      "payable": false,
      "stateMutability": "nonpayable",
      "type": "function"
    },
    {
      "constant": true,
      "inputs": [],
      "name": "settingLucky7Numbers",
      "outputs": [
        {
          "name": "",
          "type": "bool"
        }
      ],
      "payable": false,
      "stateMutability": "view",
      "type": "function"
    },
    {
      "constant": false,
      "inputs": [
        {
          "name": "_ticketID",
          "type": "uint256"
        }
      ],
      "name": "_checkForLucky7Ticket",
      "outputs": [],
      "payable": false,
      "stateMutability": "nonpayable",
      "type": "function"
    },
    {
      "constant": true,
      "inputs": [],
      "name": "n",
      "outputs": [
        {
          "name": "",
          "type": "string"
        }
      ],
      "payable": false,
      "stateMutability": "view",
      "type": "function"
    },
    {
      "constant": false,
      "inputs": [
        {
          "name": "myid",
          "type": "bytes32"
        },
        {
          "name": "result",
          "type": "string"
        },
        {
          "name": "proof",
          "type": "bytes"
        }
      ],
      "name": "__callback",
      "outputs": [],
      "payable": false,
      "stateMutability": "nonpayable",
      "type": "function"
    },
    {
      "constant": true,
      "inputs": [
        {
          "name": "",
          "type": "uint256"
        }
      ],
      "name": "lucky7Tickets",
      "outputs": [
        {
          "name": "difference",
          "type": "uint256"
        },
        {
          "name": "owner",
          "type": "address"
        },
        {
          "name": "ticketID",
          "type": "uint256"
        },
        {
          "name": "ticketValue",
          "type": "uint256"
        },
        {
          "name": "lucky7Number",
          "type": "uint256"
        },
        {
          "name": "lucky7NumberID",
          "type": "uint256"
        },
        {
          "name": "drawID",
          "type": "uint256"
        }
      ],
      "payable": false,
      "stateMutability": "view",
      "type": "function"
    },
    {
      "constant": false,
      "inputs": [],
      "name": "toggleLucky7Setting",
      "outputs": [],
      "payable": false,
      "stateMutability": "nonpayable",
      "type": "function"
    },
    {
      "constant": false,
      "inputs": [
        {
          "name": "_newValue",
          "type": "string"
        }
      ],
      "name": "modifyParameterJ",
      "outputs": [],
      "payable": false,
      "stateMutability": "nonpayable",
      "type": "function"
    },
    {
      "constant": true,
      "inputs": [
        {
          "name": "",
          "type": "uint256"
        }
      ],
      "name": "lucky7Numbers",
      "outputs": [
        {
          "name": "mu",
          "type": "string"
        },
        {
          "name": "i",
          "type": "string"
        },
        {
          "name": "ticketValue",
          "type": "uint256"
        },
        {
          "name": "drawID",
          "type": "uint256"
        }
      ],
      "payable": false,
      "stateMutability": "view",
      "type": "function"
    },
    {
      "constant": false,
      "inputs": [],
      "name": "setNewGame",
      "outputs": [],
      "payable": false,
      "stateMutability": "nonpayable",
      "type": "function"
    },
    {
      "constant": true,
      "inputs": [
        {
          "name": "",
          "type": "address"
        }
      ],
      "name": "userValues",
      "outputs": [
        {
          "name": "mu",
          "type": "string"
        },
        {
          "name": "i",
          "type": "string"
        },
        {
          "name": "ticketValue",
          "type": "uint256"
        },
        {
          "name": "muReady",
          "type": "bool"
        },
        {
          "name": "iReady",
          "type": "bool"
        },
        {
          "name": "userPaidTicket",
          "type": "bool"
        }
      ],
      "payable": false,
      "stateMutability": "view",
      "type": "function"
    },
    {
      "constant": true,
      "inputs": [],
      "name": "b",
      "outputs": [
        {
          "name": "",
          "type": "string"
        }
      ],
      "payable": false,
      "stateMutability": "view",
      "type": "function"
    },
    {
      "constant": true,
      "inputs": [
        {
          "name": "",
          "type": "uint256"
        }
      ],
      "name": "tickets",
      "outputs": [
        {
          "name": "mu",
          "type": "string"
        },
        {
          "name": "i",
          "type": "string"
        },
        {
          "name": "ticketValue",
          "type": "uint256"
        },
        {
          "name": "owner",
          "type": "address"
        },
        {
          "name": "drawID",
          "type": "uint256"
        }
      ],
      "payable": false,
      "stateMutability": "view",
      "type": "function"
    },
    {
      "constant": true,
      "inputs": [],
      "name": "oraclizeGasLimit",
      "outputs": [
        {
          "name": "",
          "type": "uint256"
        }
      ],
      "payable": false,
      "stateMutability": "view",
      "type": "function"
    },
    {
      "constant": true,
      "inputs": [],
      "name": "numberOfLucky7Numbers",
      "outputs": [
        {
          "name": "",
          "type": "uint256"
        }
      ],
      "payable": false,
      "stateMutability": "view",
      "type": "function"
    },
    {
      "constant": false,
      "inputs": [],
      "name": "renounceOwnership",
      "outputs": [],
      "payable": false,
      "stateMutability": "nonpayable",
      "type": "function"
    },
    {
      "constant": false,
      "inputs": [],
      "name": "generateRandomTicket",
      "outputs": [],
      "payable": true,
      "stateMutability": "payable",
      "type": "function"
    },
    {
      "constant": true,
      "inputs": [],
      "name": "enterpriseWallet",
      "outputs": [
        {
          "name": "",
          "type": "address"
        }
      ],
      "payable": false,
      "stateMutability": "view",
      "type": "function"
    },
    {
      "constant": false,
      "inputs": [],
      "name": "_orderLucky7Numbers",
      "outputs": [],
      "payable": false,
      "stateMutability": "nonpayable",
      "type": "function"
    },
    {
      "constant": false,
      "inputs": [
        {
          "name": "_ticketOwner",
          "type": "address"
        }
      ],
      "name": "_generateTicket",
      "outputs": [],
      "payable": false,
      "stateMutability": "nonpayable",
      "type": "function"
    },
    {
      "constant": false,
      "inputs": [
        {
          "name": "_newValue",
          "type": "uint256"
        }
      ],
      "name": "modifyOraclizeGasLimit",
      "outputs": [],
      "payable": false,
      "stateMutability": "nonpayable",
      "type": "function"
    },
    {
      "constant": false,
      "inputs": [],
      "name": "destroy",
      "outputs": [],
      "payable": false,
      "stateMutability": "nonpayable",
      "type": "function"
    },
    {
      "constant": false,
      "inputs": [
        {
          "name": "_newValue",
          "type": "string"
        }
      ],
      "name": "modifyParameterB",
      "outputs": [],
      "payable": false,
      "stateMutability": "nonpayable",
      "type": "function"
    },
    {
      "constant": false,
      "inputs": [
        {
          "name": "_newValue",
          "type": "uint256"
        }
      ],
      "name": "modifyGenerateTicketPrice",
      "outputs": [],
      "payable": false,
      "stateMutability": "nonpayable",
      "type": "function"
    },
    {
      "constant": true,
      "inputs": [],
      "name": "numberOfWinners",
      "outputs": [
        {
          "name": "",
          "type": "uint256"
        }
      ],
      "payable": false,
      "stateMutability": "view",
      "type": "function"
    },
    {
      "constant": true,
      "inputs": [],
      "name": "owner",
      "outputs": [
        {
          "name": "",
          "type": "address"
        }
      ],
      "payable": false,
      "stateMutability": "view",
      "type": "function"
    },
    {
      "constant": false,
      "inputs": [],
      "name": "_generateLucky7Number",
      "outputs": [],
      "payable": false,
      "stateMutability": "nonpayable",
      "type": "function"
    },
    {
      "constant": false,
      "inputs": [
        {
          "name": "_newAddress",
          "type": "address"
        }
      ],
      "name": "modifyEnterprisePrize",
      "outputs": [],
      "payable": false,
      "stateMutability": "nonpayable",
      "type": "function"
    },
    {
      "constant": true,
      "inputs": [],
      "name": "oraclizeCustomGasPrice",
      "outputs": [
        {
          "name": "",
          "type": "uint256"
        }
      ],
      "payable": false,
      "stateMutability": "view",
      "type": "function"
    },
    {
      "constant": true,
      "inputs": [],
      "name": "p",
      "outputs": [
        {
          "name": "",
          "type": "string"
        }
      ],
      "payable": false,
      "stateMutability": "view",
      "type": "function"
    },
    {
      "constant": false,
      "inputs": [
        {
          "name": "_newValue",
          "type": "string"
        }
      ],
      "name": "modifyParameterP",
      "outputs": [],
      "payable": false,
      "stateMutability": "nonpayable",
      "type": "function"
    },
    {
      "constant": true,
      "inputs": [],
      "name": "j",
      "outputs": [
        {
          "name": "",
          "type": "string"
        }
      ],
      "payable": false,
      "stateMutability": "view",
      "type": "function"
    },
    {
      "constant": true,
      "inputs": [],
      "name": "initialLucky7TicketPosition",
      "outputs": [
        {
          "name": "",
          "type": "uint256"
        }
      ],
      "payable": false,
      "stateMutability": "view",
      "type": "function"
    },
    {
      "constant": false,
      "inputs": [
        {
          "name": "_newValue",
          "type": "uint256"
        }
      ],
      "name": "modifySellTicketPrice",
      "outputs": [],
      "payable": false,
      "stateMutability": "nonpayable",
      "type": "function"
    },
    {
      "constant": true,
      "inputs": [],
      "name": "indexForLucky7Array",
      "outputs": [
        {
          "name": "",
          "type": "uint256"
        }
      ],
      "payable": false,
      "stateMutability": "view",
      "type": "function"
    },
    {
      "constant": false,
      "inputs": [
        {
          "name": "_newValue",
          "type": "uint256"
        }
      ],
      "name": "modifyNumberOfLucky7Numbers",
      "outputs": [],
      "payable": false,
      "stateMutability": "nonpayable",
      "type": "function"
    },
    {
      "constant": false,
      "inputs": [
        {
          "name": "_newValue",
          "type": "uint256"
        }
      ],
      "name": "modifyNumberOfWinners",
      "outputs": [],
      "payable": false,
      "stateMutability": "nonpayable",
      "type": "function"
    },
    {
      "constant": false,
      "inputs": [
        {
          "name": "_newValue",
          "type": "uint256"
        }
      ],
      "name": "modifyOraclizeCustomGasPrice",
      "outputs": [],
      "payable": false,
      "stateMutability": "nonpayable",
      "type": "function"
    },
    {
      "constant": true,
      "inputs": [],
      "name": "generateTicketPrice",
      "outputs": [
        {
          "name": "",
          "type": "uint256"
        }
      ],
      "payable": false,
      "stateMutability": "view",
      "type": "function"
    },
    {
      "constant": true,
      "inputs": [],
      "name": "drawNumber",
      "outputs": [
        {
          "name": "",
          "type": "uint256"
        }
      ],
      "payable": false,
      "stateMutability": "view",
      "type": "function"
    },
    {
      "constant": false,
      "inputs": [
        {
          "name": "_ticketOwner",
          "type": "address"
        }
      ],
      "name": "_askForTicket",
      "outputs": [],
      "payable": false,
      "stateMutability": "nonpayable",
      "type": "function"
    },
    {
      "constant": true,
      "inputs": [],
      "name": "sellTicketPrice",
      "outputs": [
        {
          "name": "",
          "type": "uint256"
        }
      ],
      "payable": false,
      "stateMutability": "view",
      "type": "function"
    },
    {
      "constant": true,
      "inputs": [
        {
          "name": "",
          "type": "uint256"
        }
      ],
      "name": "lucky7TicketDifference",
      "outputs": [
        {
          "name": "",
          "type": "uint256"
        }
      ],
      "payable": false,
      "stateMutability": "view",
      "type": "function"
    },
    {
      "constant": false,
      "inputs": [
        {
          "name": "_newOwner",
          "type": "address"
        }
      ],
      "name": "transferOwnership",
      "outputs": [],
      "payable": false,
      "stateMutability": "nonpayable",
      "type": "function"
    },
    {
      "constant": false,
      "inputs": [],
      "name": "_deliverPrizes",
      "outputs": [],
      "payable": false,
      "stateMutability": "nonpayable",
      "type": "function"
    },
    {
      "constant": false,
      "inputs": [
        {
          "name": "_recipient",
          "type": "address"
        }
      ],
      "name": "destroyAndSend",
      "outputs": [],
      "payable": false,
      "stateMutability": "nonpayable",
      "type": "function"
    },
    {
      "constant": false,
      "inputs": [
        {
          "name": "_ticketOwner",
          "type": "address"
        }
      ],
      "name": "_askForIParameter",
      "outputs": [],
      "payable": false,
      "stateMutability": "nonpayable",
      "type": "function"
    },
    {
      "payable": true,
      "stateMutability": "payable",
      "type": "fallback"
    },
    {
      "anonymous": false,
      "inputs": [
        {
          "indexed": false,
          "name": "description",
          "type": "string"
        }
      ],
      "name": "newOraclizeQuery",
      "type": "event"
    },
    {
      "anonymous": false,
      "inputs": [
        {
          "indexed": false,
          "name": "parameterOwner",
          "type": "address"
        },
        {
          "indexed": false,
          "name": "muParameter",
          "type": "string"
        }
      ],
      "name": "newMuReceived",
      "type": "event"
    },
    {
      "anonymous": false,
      "inputs": [
        {
          "indexed": false,
          "name": "parameterOwner",
          "type": "address"
        },
        {
          "indexed": false,
          "name": "iParameter",
          "type": "string"
        }
      ],
      "name": "newIReceived",
      "type": "event"
    },
    {
      "anonymous": false,
      "inputs": [
        {
          "indexed": false,
          "name": "parameterOwner",
          "type": "address"
        },
        {
          "indexed": false,
          "name": "newTicket",
          "type": "string"
        }
      ],
      "name": "newTicketReceived",
      "type": "event"
    },
    {
      "anonymous": false,
      "inputs": [
        {
          "indexed": false,
          "name": "feeType",
          "type": "string"
        },
        {
          "indexed": false,
          "name": "_oldValue",
          "type": "uint256"
        },
        {
          "indexed": false,
          "name": "_newValue",
          "type": "uint256"
        }
      ],
      "name": "numberModified",
      "type": "event"
    },
    {
      "anonymous": false,
      "inputs": [
        {
          "indexed": false,
          "name": "parameter",
          "type": "string"
        },
        {
          "indexed": false,
          "name": "_oldValue",
          "type": "string"
        },
        {
          "indexed": false,
          "name": "_newValue",
          "type": "string"
        }
      ],
      "name": "parameterModified",
      "type": "event"
    },
    {
      "anonymous": false,
      "inputs": [
        {
          "indexed": false,
          "name": "parameter",
          "type": "string"
        },
        {
          "indexed": false,
          "name": "_oldValue",
          "type": "address"
        },
        {
          "indexed": false,
          "name": "_newValue",
          "type": "address"
        }
      ],
      "name": "walletModified",
      "type": "event"
    },
    {
      "anonymous": false,
      "inputs": [
        {
          "indexed": true,
          "name": "previousOwner",
          "type": "address"
        }
      ],
      "name": "OwnershipRenounced",
      "type": "event"
    },
    {
      "anonymous": false,
      "inputs": [
        {
          "indexed": true,
          "name": "previousOwner",
          "type": "address"
        },
        {
          "indexed": true,
          "name": "newOwner",
          "type": "address"
        }
      ],
      "name": "OwnershipTransferred",
      "type": "event"
    },
    {
      "constant": false,
      "inputs": [],
      "name": "insertTestLucky7Numbers",
      "outputs": [],
      "payable": false,
      "stateMutability": "nonpayable",
      "type": "function"
    },
    {
      "constant": false,
      "inputs": [],
      "name": "insertTestTickets",
      "outputs": [],
      "payable": false,
      "stateMutability": "nonpayable",
      "type": "function"
    },
    {
      "constant": true,
      "inputs": [],
      "name": "_balance",
      "outputs": [
        {
          "name": "",
          "type": "uint256"
        }
      ],
      "payable": false,
      "stateMutability": "view",
      "type": "function"
    }
  ],
  "bytecode": "0x60c0604052600160808190527f310000000000000000000000000000000000000000000000000000000000000060a0908152620000409160069190620001b9565b506040805180820190915260018082527f380000000000000000000000000000000000000000000000000000000000000060209092019182526200008791600791620001b9565b506040805180820190915260058082527f31303030300000000000000000000000000000000000000000000000000000006020909201918252620000ce91600891620001b9565b506040805180820190915260028082527f323000000000000000000000000000000000000000000000000000000000000060209092019182526200011591600991620001b9565b506007600a556003600b556611c37937e08000600c55662aa1efb94e0000600d55620493e0600e5563ee6b2800600f5560108054600160a060020a031990811673265a5c3dd46ec82e2744f1d0e9fb4ed75d56132a179091556000601181905560128190556013805460ff191660011790556039819055600580548316331790558054909116736f485c8bf6fc43ea212e93bbf8ce046c7f1cb4751790556200025e565b828054600181600116156101000203166002900490600052602060002090601f016020900481019282601f10620001fc57805160ff19168380011785556200022c565b828001600101855582156200022c579182015b828111156200022c5782518255916020019190600101906200020f565b506200023a9291506200023e565b5090565b6200025b91905b808211156200023a576000815560010162000245565b90565b615ef8806200026e6000396000f30060806040526004361061028f5763ffffffff60e060020a6000350416630b8ec74081146102915780630cc38b2b146102995780630ef30985146102f257806310cd4b8a146103075780631c3ed1d3146103315780631cf4c3d1146103655780631ded3bec1461037a57806323d370ba14610382578063242c6ef1146103a357806327dc297e146103b85780632caf9eee146104165780632de729eb1461043f5780632e52d6061461045757806338bbfa50146104e1578063396fb4221461057d57806339df3f4f146105d55780633bb7daf4146105ea5780633eba34661461064357806340014911146107475780634acfd9b81461075c5780634df7e3d01461087b57806350b447121461089057806350b9c428146109a357806356c4e05a146109b857806359f9fe82146109cd578063715018a6146109e257806372c3477d146109f7578063741606b5146109ff57806375edd25714610a1457806377d8a83014610a29578063809fc15314610a4a57806383197ef014610a6257806383bb7bb714610a775780638aa5fafa14610ad05780638acfaca914610ae85780638da5cb5b14610afd57806390c31c4c14610b1257806396701ce914610b275780639ac2bf9114610b485780639ae8886a14610b5d5780639dec38ab14610b72578063b582ec5f14610bcb578063bb49516b14610be0578063bcb740ab14610bf5578063c56969ab14610c0d578063c71f04ac14610bf5578063c90cdc7e14610c22578063d383e86214610c3a578063d566bcf014610c52578063d80ffb2014610c67578063ddc110fa14610c7c578063e5663c4814610c9d578063e802ae1414610cb2578063f2fde38b14610cca578063f405228914610ceb578063f5074f4114610d00578063fd9be1b214610d21575b005b61028f610d42565b3480156102a557600080fd5b506040805160206004803580820135601f810184900484028501840190955284845261028f943694929360249392840191908190840183828082843750949750610efe9650505050505050565b3480156102fe57600080fd5b5061028f6110e6565b34801561031357600080fd5b5061031f60043561142a565b60408051918252519081900360200190f35b34801561033d57600080fd5b5061034960043561143c565b60408051600160a060020a039092168252519081900360200190f35b34801561037157600080fd5b5061028f611457565b61028f61182d565b34801561038e57600080fd5b5061028f600160a060020a036004351661189c565b3480156103af57600080fd5b5061028f6119ae565b3480156103c457600080fd5b5060408051602060046024803582810135601f810185900485028601850190965285855261028f9583359536956044949193909101919081908401838280828437509497506120fe9650505050505050565b34801561042257600080fd5b5061042b612711565b604080519115158252519081900360200190f35b34801561044b57600080fd5b5061028f60043561271a565b34801561046357600080fd5b5061046c61295c565b6040805160208082528351818301528351919283929083019185019080838360005b838110156104a657818101518382015260200161048e565b50505050905090810190601f1680156104d35780820380516001836020036101000a031916815260200191505b509250505060405180910390f35b3480156104ed57600080fd5b5060408051602060046024803582810135601f810185900485028601850190965285855261028f95833595369560449491939091019190819084018382808284375050604080516020601f89358b018035918201839004830284018301909452808352979a9998810197919650918201945092508291508401838280828437509497506129ea9650505050505050565b34801561058957600080fd5b506105956004356129ef565b60408051978852600160a060020a039096166020880152868601949094526060860192909252608085015260a084015260c0830152519081900360e00190f35b3480156105e157600080fd5b5061028f612a46565b3480156105f657600080fd5b506040805160206004803580820135601f810184900484028501840190955284845261028f943694929360249392840191908190840183828082843750949750612a719650505050505050565b34801561064f57600080fd5b5061065b600435612bb7565b604051808060200180602001858152602001848152602001838103835287818151815260200191508051906020019080838360005b838110156106a8578181015183820152602001610690565b50505050905090810190601f1680156106d55780820380516001836020036101000a031916815260200191505b50838103825286518152865160209182019188019080838360005b838110156107085781810151838201526020016106f0565b50505050905090810190601f1680156107355780820380516001836020036101000a031916815260200191505b50965050505050505060405180910390f35b34801561075357600080fd5b5061028f612d03565b34801561076857600080fd5b5061077d600160a060020a0360043516612d3c565b604080519081018590528315156060820152821515608082015281151560a082015260c08082528751908201528651819060208083019160e08401918b019080838360005b838110156107da5781810151838201526020016107c2565b50505050905090810190601f1680156108075780820380516001836020036101000a031916815260200191505b5083810382528851815288516020918201918a019080838360005b8381101561083a578181015183820152602001610822565b50505050905090810190601f1680156108675780820380516001836020036101000a031916815260200191505b509850505050505050505060405180910390f35b34801561088757600080fd5b5061046c612e9c565b34801561089c57600080fd5b506108a8600435612ef7565b60408051908101849052600160a060020a03831660608201526080810182905260a08082528651908201528551819060208083019160c08401918a019080838360005b838110156109035781810151838201526020016108eb565b50505050905090810190601f1680156109305780820380516001836020036101000a031916815260200191505b50838103825287518152875160209182019189019080838360005b8381101561096357818101518382015260200161094b565b50505050905090810190601f1680156109905780820380516001836020036101000a031916815260200191505b5097505050505050505060405180910390f35b3480156109af57600080fd5b5061031f613064565b3480156109c457600080fd5b5061031f61306a565b3480156109d957600080fd5b5061031f613070565b3480156109ee57600080fd5b5061028f613076565b61028f6130d7565b348015610a0b57600080fd5b50610349613125565b348015610a2057600080fd5b5061028f613134565b348015610a3557600080fd5b5061028f600160a060020a0360043516613572565b348015610a5657600080fd5b5061028f600435613584565b348015610a6e57600080fd5b5061028f613607565b348015610a8357600080fd5b506040805160206004803580820135601f810184900484028501840190955284845261028f94369492936024939284019190819084018382808284375094975061362c9650505050505050565b348015610adc57600080fd5b5061028f600435613772565b348015610af457600080fd5b5061031f6137f5565b348015610b0957600080fd5b506103496137fb565b348015610b1e57600080fd5b5061028f61380a565b348015610b3357600080fd5b5061028f600160a060020a036004351661386b565b348015610b5457600080fd5b5061031f61391c565b348015610b6957600080fd5b5061046c613922565b348015610b7e57600080fd5b506040805160206004803580820135601f810184900484028501840190955284845261028f94369492936024939284019190819084018382808284375094975061397d9650505050505050565b348015610bd757600080fd5b5061046c613ac3565b348015610bec57600080fd5b5061031f613b1e565b348015610c0157600080fd5b5061028f600435613b24565b348015610c1957600080fd5b5061031f613ba7565b348015610c2e57600080fd5b5061028f600435613bad565b348015610c4657600080fd5b5061028f600435613c30565b348015610c5e57600080fd5b5061031f613cd9565b348015610c7357600080fd5b5061031f613cdf565b348015610c8857600080fd5b5061028f600160a060020a0360043516613ce5565b348015610ca957600080fd5b5061031f613dcc565b348015610cbe57600080fd5b5061031f600435613dd2565b348015610cd657600080fd5b5061028f600160a060020a0360043516613de4565b348015610cf757600080fd5b5061028f613e04565b348015610d0c57600080fd5b5061028f600160a060020a0360043516614237565b348015610d2d57600080fd5b5061028f600160a060020a036004351661425a565b600d543390341015610d5357600080fd5b600160a060020a0381166000908152603260205260409020600301805462ff000019166201000017905560135460ff1615610d8d57600080fd5b6040805133600090815260326020529190912080547fc5d2460186f7233c927e7db2dcc703c0e500b653ca82273b7bfad8045d85a470929081908390600261010060018316150260001901909116048015610e1f5780601f10610dfd576101008083540402835291820191610e1f565b820191906000526020600020905b815481529060010190602001808311610e0b575b505091505060405180910390206000191614158015610ee7575060408051336000908152603260205291909120600190810180547fc5d2460186f7233c927e7db2dcc703c0e500b653ca82273b7bfad8045d85a470939192829184916002610100918316159190910260001901909116048015610ed35780601f10610eb1576101008083540402835291820191610ed3565b820191906000526020600020905b815481529060010190602001808311610ebf575b505091505060405180910390206000191614155b1515610ef257600080fd5b610efb33613ce5565b50565b600554606090600160a060020a03163314610f1857600080fd5b6007805460408051602060026001851615610100026000190190941693909304601f81018490048402820184019092528181529291830182828015610f9e5780601f10610f7357610100808354040283529160200191610f9e565b820191906000526020600020905b815481529060010190602001808311610f8157829003601f168201915b50508551939450610fba93600793506020870192509050615cef565b50600080516020615ead833981519152818360405180806020018060200180602001848103845260148152602001807f506172616d65746572206e206d6f646966696564000000000000000000000000815250602001848103835286818151815260200191508051906020019080838360005b8381101561104557818101518382015260200161102d565b50505050905090810190601f1680156110725780820380516001836020036101000a031916815260200191505b50848103825285518152855160209182019187019080838360005b838110156110a557818101518382015260200161108d565b50505050905090810190601f1680156110d25780820380516001836020036101000a031916815260200191505b509550505050505060405180910390a15050565b6040805160c08101825260016080820181815260f860020a60310260a084015282528251808401845290815260f960020a601902602080830191909152808301919091526793d0f60dbe0594069282019290925260115460608201528051805191926016926111589284920190615cef565b5060208281015180516111719260018501920190615cef565b506040828101516002830155606092830151600390920191909155805160c08101825260016080820181815260f860020a60310260a084015282528251808401845290815260f960020a601902602082810191909152808301919091526802d72da9b820819e87928201929092526011549281019290925281518051601e926111fe928492910190615cef565b5060208281015180516112179260018501920190615cef565b506040828101516002830155606092830151600390920191909155805160c08101825260016080820181815260f860020a60310260a084015282528251808401845290815260f960020a601902602082810191909152808301919091526801a704d637c3501f979282019290925260115492810192909252815180516026926112a4928492910190615cef565b5060208281015180516112bd9260018501920190615cef565b506040828101516002830155606092830151600390920191909155805160c08101825260016080820181815260f860020a60310260a084015282528251808401845290815260f960020a60190260208281019190915280830191909152680151d16e9cb32a55e8928201929092526011549281019290925281518051602a9261134a928492910190615cef565b5060208281015180516113639260018501920190615cef565b506040828101516002830155606092830151600390920191909155805160c08101825260016080820181815260f860020a60310260a084015282528251808401845290815260f960020a6019026020828101919091528083019190915268041295da4332def270928201929092526011549281019290925281518051602e926113f0928492910190615cef565b5060208281015180516114099260018501920190615cef565b5060408201516002820155606090910151600390910155611428613134565b565b60386020526000908152604090205481565b603760205260009081526040902054600160a060020a031681565b61145f615d6d565b60055460009081908190600160a060020a0316331461147d57600080fd5b5060005b600a548110156115ab576040805160e0810182526000838152603660209081528382205483528482526037815283822054600160a060020a03168184015284825260388082528483205494840185905291859052526015805460149360608401929181106114eb57fe5b906000526020600020906005020160020154815260200160168460078110151561151157fe5b600490810291909101600290810154835260208084018790526011546040948501528554600180820188556000978852968290208651600790920201908155908501518187018054600160a060020a031916600160a060020a0390921691909117905592840151908301556060830151600383015560808301519082015560a0820151600582015560c09091015160069091015501611481565b506039545b603954600a5401811015611827578092506014818154811015156115d057fe5b60009182526020918290206040805160e081018252600790930290910180548352600180820154600160a060020a0316948401949094526002810154918301919091526003810154606083015260048101546080830152600581015460a08301526006015460c08201529450810191505b603954600a54018210156116ff57601480548390811061165d57fe5b6000918252602090912060079091020154845111156116f457601480548390811061168457fe5b60009182526020918290206040805160e0810182526007909302909101805483526001810154600160a060020a0316938301939093526002830154908201526003820154606082015260048201546080820152600582015460a082015260069091015460c0820152935090915081905b600190910190611641565b82811461181f57601480548290811061171457fe5b906000526020600020906007020160148481548110151561173157fe5b6000918252602090912082546007909202019081556001808301549082018054600160a060020a031916600160a060020a039092169190911790556002808301549082015560038083015490820155600480830154908201556005808301549082015560069182015491015560148054859190839081106117ae57fe5b600091825260209182902083516007929092020190815590820151600182018054600160a060020a031916600160a060020a0390921691909117905560408201516002820155606082015160038201556080820151600482015560a0820151600582015560c0909101516006909101555b6001016115b0565b50505050565b600d54339034101561183e57600080fd5b600160a060020a0381166000908152603260205260408082206003908101805462ff00001916620100001790553380845291909220909101805461ffff1916905560135460ff161561188f57600080fd5b61189833613572565b5050565b60006118a9600f5461436e565b604080516020808252808201527f41736b696e6720666f722061206e6577206d7520706172616d657465722e2e2e8183015290517f46cb989ef9cef13e930e3b7f286225a086e716a90d63e0b7da85d310a9db0c9a9181900360600190a161197e6040805190810160405280600c81526020017f576f6c6672616d416c70686100000000000000000000000000000000000000008152506040805190810160405280600f81526020017f342072616e646f6d206e756d6265720000000000000000000000000000000000815250600e54614554565b60009081526033602052604090208054600160a060020a031916600160a060020a03939093169290921790915550565b6040805160e081018252600160a0820181815260f860020a60310260c084015282528251808401845281815260f960020a6019026020828101919091528084019190915268014d4a2de4798c45829383019390935230606083015260115460808301526015805480830180835560009283528451805193969495919491936005909302600080516020615e6d8339815191520192611a4f9284920190615cef565b506020828101518051611a689260018501920190615cef565b50604082015160028201556060820151600382018054600160a060020a031916600160a060020a03909216919091179055608090910151600490910155039050611ab18161271a565b6040805160e081018252600160a0820181815260f860020a60310260c084015282528251808401845281815260f960020a6019026020828101919091528084019190915268023bebe2bb8e7aa07b938301939093523060608301526011546080830152601580548083018083556000929092528351805193959294936005909202600080516020615e6d8339815191520192611b5292849290910190615cef565b506020828101518051611b6b9260018501920190615cef565b50604082015160028201556060820151600382018054600160a060020a031916600160a060020a03909216919091179055608090910151600490910155039050611bb48161271a565b6040805160e081018252600160a0820181815260f860020a60310260c084015282528251808401845281815260f960020a6019026020828101919091528084019190915268041961e0f64e384bb8938301939093523060608301526011546080830152601580548083018083556000929092528351805193959294936005909202600080516020615e6d8339815191520192611c5592849290910190615cef565b506020828101518051611c6e9260018501920190615cef565b50604082015160028201556060820151600382018054600160a060020a031916600160a060020a03909216919091179055608090910151600490910155039050611cb78161271a565b6040805160e081018252600160a0820181815260f860020a60310260c084015282528251808401845281815260f960020a601902602082810191909152808401919091526802d7c39cbe25af956c93830193909352736401b4cde3fdf3f857f9e62c1760700750b8470960608301526011546080830152601580548083018083556000929092528351805193959294936005909202600080516020615e6d8339815191520192611d6c92849290910190615cef565b506020828101518051611d859260018501920190615cef565b50604082015160028201556060820151600382018054600160a060020a031916600160a060020a03909216919091179055608090910151600490910155039050611dce8161271a565b6040805160e081018252600160a0820181815260f860020a60310260c084015282528251808401845281815260f960020a601902602082810191909152808401919091526801a568f27605158e4e9383019390935273366348aaaf19fab5b082baf3d1060fcd778fae3f60608301526011546080830152601580548083018083556000929092528351805193959294936005909202600080516020615e6d8339815191520192611e8392849290910190615cef565b506020828101518051611e9c9260018501920190615cef565b50604082015160028201556060820151600382018054600160a060020a031916600160a060020a03909216919091179055608090910151600490910155039050611ee58161271a565b6040805160e081018252600160a0820181815260f860020a60310260c084015282528251808401845281815260f960020a601902602082810191909152808401919091526801d2e54ab38bd8b0f1938301939093523060608301526011546080830152601580548083018083556000929092528351805193959294936005909202600080516020615e6d8339815191520192611f8692849290910190615cef565b506020828101518051611f9f9260018501920190615cef565b50604082015160028201556060820151600382018054600160a060020a031916600160a060020a03909216919091179055608090910151600490910155039050611fe88161271a565b6040805160e081018252600160a0820181815260f860020a60310260c084015282528251808401845281815260f960020a60190260208281019190915280840191909152679750f46409fffcec9383019390935273f294525b3d0ddeba7bb8f0be22fbfca6833e301560608301526011546080830152601580548083018083556000929092528351805193959294936005909202600080516020615e6d833981519152019261209c92849290910190615cef565b5060208281015180516120b59260018501920190615cef565b50604082015160028201556060820151600382018054600160a060020a031916600160a060020a03909216919091179055608090910151600490910155039050610efb8161271a565b612106614955565b600160a060020a0316331461211a57600080fd5b600082815260336020526040902054600160a060020a0316158015906121685750600082815260336020908152604080832054600160a060020a03168352603290915290206003015460ff16155b1561232a57600082815260336020908152604080832054600160a060020a0316835260328252909120825161219f92840190615cef565b506000828152603360209081526040808320548151600160a060020a0390911680825281840183815286519383019390935285517f47eedbcfd0da23d2413b78bd7807ecbde2a9754fa0dc19185984a244d9cd773a959194879492606085019291860191908190849084905b8381101561222357818101518382015260200161220b565b50505050905090810190601f1680156122505780820380516001836020036101000a031916815260200191505b50935050505060405180910390a160008281526033602090815260408083208054600160a060020a03908116855260329093528184206003908101805460ff191660019081179091559154909316845292200154610100900460ff1615151480156122ff5750600082815260336020908152604080832054600160a060020a03168352603290915290206003015460ff62010000909104161515600114806122ff575060135460ff1615156001145b156123255760008281526033602052604090205461232590600160a060020a0316613ce5565b611898565b600082815260346020526040902054600160a060020a03161580159061237d5750600082815260346020908152604080832054600160a060020a031683526032909152902060030154610100900460ff16155b1561253d57600082815260346020908152604080832054600160a060020a031683526032825290912082516123ba92600190920191840190615cef565b506000828152603460209081526040808320548151600160a060020a0390911680825281840183815286519383019390935285517f493aa57ad5f18480f956f6979e26052f3c3e9b6f4985b1331bfa696904e10cd5959194879492606085019291860191908190849084905b8381101561243e578181015183820152602001612426565b50505050905090810190601f16801561246b5780820380516001836020036101000a031916815260200191505b50935050505060405180910390a160008281526034602090815260408083208054600160a060020a03908116855260329093528184206003908101805461ff00191661010017905590549092168352909120015460ff16151560011480156125175750600082815260346020908152604080832054600160a060020a03168352603290915290206003015460ff6201000090910416151560011480612517575060135460ff1615156001145b156123255760008281526034602052604090205461232590600160a060020a0316613ce5565b600082815260356020526040902054600160a060020a0316158015906125a75750600082815260356020908152604080832054600160a060020a03168352603290915290206003015460ff62010000909104161515600114806125a7575060135460ff1615156001145b15611898576125b581614b46565b60008381526035602081815260408084208054600160a060020a039081168652603284528286206002019690965587855292825291548251941680855284820183815286519386019390935285517f3c6507a39df055ecbb0672078b29c556fa529767da7d5676e77478914e3b5987959194879492936060850192908601918190849084905b8381101561265357818101518382015260200161263b565b50505050905090810190601f1680156126805780820380516001836020036101000a031916815260200191505b50935050505060405180910390a1600082815260356020908152604080832054600160a060020a0316835260329091529020600301805462ff00001916905560135460ff161515600114156126f05760008281526035602052604090205461232590600160a060020a0316614b59565b60008281526035602052604090205461189890600160a060020a0316614d62565b60135460ff1681565b60008060008060166001600a540360078110151561273457fe5b600402016002015460158681548110151561274b57fe5b90600052602060002090600502016002015411156127ba57600a546000190193506127b36016856007811061277c57fe5b600402016002015460158781548110151561279357fe5b906000526020600020906005020160020154614f9d90919063ffffffff16565b92506128bb565b60185460158054879081106127cb57fe5b906000526020600020906005020160020154101561283057600093506127b36015868154811015156127f957fe5b90600052602060002090600502016002015460168660078110151561281a57fe5b6004020160020154614f9d90919063ffffffff16565b6016846007811061283d57fe5b600402016002015460158681548110151561285457fe5b906000526020600020906005020160020154111561287757600190930192612830565b61288b601660001986016007811061277c57fe5b915061289f6015868154811015156127f957fe5b9050818111156128b7576001840393508192506128bb565b8092505b600084815260376020526040902054600160a060020a031615806128ec575060008481526036602052604090205483105b156129555760158054869081106128ff57fe5b60009182526020808320600360059093020191909101548683526037825260408084208054600160a060020a031916600160a060020a039093169290921790915560368252808320869055603890915290208590555b5050505050565b6007805460408051602060026001851615610100026000190190941693909304601f810184900484028201840190925281815292918301828280156129e25780601f106129b7576101008083540402835291602001916129e2565b820191906000526020600020905b8154815290600101906020018083116129c557829003601f168201915b505050505081565b505050565b60148054829081106129fd57fe5b60009182526020909120600790910201805460018201546002830154600384015460048501546005860154600690960154949650600160a060020a039093169491939092919087565b600554600160a060020a03163314612a5d57600080fd5b6013805460ff19811660ff90911615179055565b600554606090600160a060020a03163314612a8b57600080fd5b6009805460408051602060026001851615610100026000190190941693909304601f81018490048402820184019092528181529291830182828015612b115780601f10612ae657610100808354040283529160200191612b11565b820191906000526020600020905b815481529060010190602001808311612af457829003601f168201915b50508551939450612b2d93600993506020870192509050615cef565b50600080516020615ead833981519152818360405180806020018060200180602001848103845260148152602001807f506172616d65746572206a206d6f646966696564000000000000000000000000815250602001848103835286818151815260200191508051906020019080838360008381101561104557818101518382015260200161102d565b60168160078110612bc457fe5b60040201805460408051602060026001851615610100026000190190941693909304601f81018490048402820184019092528181529293508391830182828015612c4f5780601f10612c2457610100808354040283529160200191612c4f565b820191906000526020600020905b815481529060010190602001808311612c3257829003601f168201915b505050505090806001018054600181600116156101000203166002900480601f016020809104026020016040519081016040528092919081815260200182805460018160011615610100020316600290048015612ced5780601f10612cc257610100808354040283529160200191612ced565b820191906000526020600020905b815481529060010190602001808311612cd057829003601f168201915b5050505050908060020154908060030154905084565b600554600160a060020a03163314612d1a57600080fd5b600a5460115402603955612d2c612a46565b612d34611457565b611428613e04565b60326020908152600091825260409182902080548351601f60026000196101006001861615020190931692909204918201849004840281018401909452808452909291839190830182828015612dd35780601f10612da857610100808354040283529160200191612dd3565b820191906000526020600020905b815481529060010190602001808311612db657829003601f168201915b505050505090806001018054600181600116156101000203166002900480601f016020809104026020016040519081016040528092919081815260200182805460018160011615610100020316600290048015612e715780601f10612e4657610100808354040283529160200191612e71565b820191906000526020600020905b815481529060010190602001808311612e5457829003601f168201915b50505050600283015460039093015491929160ff808216925061010082048116916201000090041686565b6006805460408051602060026001851615610100026000190190941693909304601f810184900484028201840190925281815292918301828280156129e25780601f106129b7576101008083540402835291602001916129e2565b6015805482908110612f0557fe5b60009182526020918290206005919091020180546040805160026001841615610100026000190190931692909204601f810185900485028301850190915280825291935091839190830182828015612f9e5780601f10612f7357610100808354040283529160200191612f9e565b820191906000526020600020905b815481529060010190602001808311612f8157829003601f168201915b505050505090806001018054600181600116156101000203166002900480601f01602080910402602001604051908101604052809291908181526020018280546001816001161561010002031660029004801561303c5780601f106130115761010080835404028352916020019161303c565b820191906000526020600020905b81548152906001019060200180831161301f57829003601f168201915b505050506002830154600384015460049094015492939092600160a060020a03909116915085565b600e5481565b30315b90565b600a5481565b600554600160a060020a0316331461308d57600080fd5b600554604051600160a060020a03909116907ff8df31144d9c2f0f6b59d69b8b98abd5459d07f2742c4df920b25aae33c6482090600090a260058054600160a060020a0319169055565b600c5433903410156130e857600080fd5b336000818152603260205260409020600301805461ffff1916905560135460ff161561311357600080fd5b61311c3361189c565b6118983361425a565b601054600160a060020a031681565b61313c615db4565b60055460009081908190600160a060020a0316331461315a57600080fd5b5060005b600a54811015611827579150816016816007811061317857fe5b6040805160049290920292909201805460a06020601f60026000196101006001871615020190941693909304928301819004028401810190945260808301818152929391928492909184918401828280156132145780601f106131e957610100808354040283529160200191613214565b820191906000526020600020905b8154815290600101906020018083116131f757829003601f168201915b50505050508152602001600182018054600181600116156101000203166002900480601f0160208091040260200160405190810160405280929190818152602001828054600181600116156101000203166002900480156132b65780601f1061328b576101008083540402835291602001916132b6565b820191906000526020600020905b81548152906001019060200180831161329957829003601f168201915b505050505081526020016002820154815260200160038201548152505093508060010191505b600a5482101561347f57601682600781106132f357fe5b600402016002015484604001511115613474576016826007811061331357fe5b6040805160049290920292909201805460a06020601f60026000196101006001871615020190941693909304928301819004028401810190945260808301818152929391928492909184918401828280156133af5780601f10613384576101008083540402835291602001916133af565b820191906000526020600020905b81548152906001019060200180831161339257829003601f168201915b50505050508152602001600182018054600181600116156101000203166002900480601f0160208091040260200160405190810160405280929190818152602001828054600181600116156101000203166002900480156134515780601f1061342657610100808354040283529160200191613451565b820191906000526020600020905b81548152906001019060200180831161343457829003601f168201915b505050505081526020016002820154815260200160038201548152505093508192505b6001909101906132dc565b82811461356a576016816007811061349357fe5b60040201601684600781106134a457fe5b60040201600082018160000190805460018160011615610100020316600290046134cf929190615ddd565b50600182018160010190805460018160011615610100020316600290046134f7929190615ddd565b5060028281015490820155600391820154910155836016826007811061351957fe5b600402016000820151816000019080519060200190613539929190615cef565b5060208281015180516135529260018501920190615cef565b50604082015160028201556060909101516003909101555b60010161315e565b61357b8161189c565b610efb8161425a565b600554600090600160a060020a0316331461359e57600080fd5b50600e80549082905560408051602081018390528082018490526060808252601a908201527f4f7261636c697a6520676173206c696d6974206368616e67656400000000000060808201529051600080516020615e8d8339815191529181900360a00190a15050565b600554600160a060020a0316331461361e57600080fd5b600554600160a060020a0316ff5b600554606090600160a060020a0316331461364657600080fd5b6006805460408051602060026001851615610100026000190190941693909304601f810184900484028201840190925281815292918301828280156136cc5780601f106136a1576101008083540402835291602001916136cc565b820191906000526020600020905b8154815290600101906020018083116136af57829003601f168201915b505085519394506136e893600693506020870192509050615cef565b50600080516020615ead833981519152818360405180806020018060200180602001848103845260148152602001807f506172616d657465722062206d6f646966696564000000000000000000000000815250602001848103835286818151815260200191508051906020019080838360008381101561104557818101518382015260200161102d565b600554600090600160a060020a0316331461378c57600080fd5b50600c80549082905560408051602081018390528082018490526060808252601d908201527f47656e6572617465207469636b6574207072696365206368616e67656400000060808201529051600080516020615e8d8339815191529181900360a00190a15050565b600b5481565b600554600160a060020a031681565b600554600160a060020a0316331461382157600080fd5b600a54601254141561384757613835613134565b6000601255613842612a46565b611428565b306000818152603260205260409020600301805461ffff1916905561142890613572565b600554600090600160a060020a0316331461388557600080fd5b5060108054600160a060020a03838116600160a060020a0319831681179093556040805191909216602082018190528183019390935260608082526019908201527f456e74657270726973652077616c6c6574206368616e67656400000000000000608082015290517f223db053947bb148de510715d3c7d8ccd72bdd376752fd735ee7bd0bd0ece5bf9181900360a00190a15050565b600f5481565b6008805460408051602060026001851615610100026000190190941693909304601f810184900484028201840190925281815292918301828280156129e25780601f106129b7576101008083540402835291602001916129e2565b600554606090600160a060020a0316331461399757600080fd5b6008805460408051602060026001851615610100026000190190941693909304601f81018490048402820184019092528181529291830182828015613a1d5780601f106139f257610100808354040283529160200191613a1d565b820191906000526020600020905b815481529060010190602001808311613a0057829003601f168201915b50508551939450613a3993600893506020870192509050615cef565b50600080516020615ead833981519152818360405180806020018060200180602001848103845260148152602001807f506172616d657465722070206d6f646966696564000000000000000000000000815250602001848103835286818151815260200191508051906020019080838360008381101561104557818101518382015260200161102d565b6009805460408051602060026001851615610100026000190190941693909304601f810184900484028201840190925281815292918301828280156129e25780601f106129b7576101008083540402835291602001916129e2565b60395481565b600554600090600160a060020a03163314613b3e57600080fd5b50600d805490829055604080516020810183905280820184905260608082526019908201527f53656c6c207469636b6574207072696365206368616e6765640000000000000060808201529051600080516020615e8d8339815191529181900360a00190a15050565b60125481565b600554600090600160a060020a03163314613bc757600080fd5b50600b805490829055604080516020810183905280820184905260608082526019908201527f4e756d626572206f662077696e6e657273206368616e6765640000000000000060808201529051600080516020615e8d8339815191529181900360a00190a15050565b600554600090600160a060020a03163314613c4a57600080fd5b50600f805490829055604080516020810183905280820184905260608082526021908201527f4f7261636c697a6520637573746f6d20676173207072696365206368616e676560808201527f640000000000000000000000000000000000000000000000000000000000000060a08201529051600080516020615e8d8339815191529181900360c00190a15050565b600c5481565b60115481565b6000613cf2600f5461436e565b604080516020808252601a908201527f41736b696e6720666f722061206e6577207469636b65742e2e2e0000000000008183015290517f46cb989ef9cef13e930e3b7f286225a086e716a90d63e0b7da85d310a9db0c9a9181900360600190a1613d9c6040805190810160405280600c81526020017f576f6c6672616d416c7068610000000000000000000000000000000000000000815250613d9484614faf565b600e54614554565b60009081526035602052604090208054600160a060020a031916600160a060020a03939093169290921790915550565b600d5481565b60366020526000908152604090205481565b600554600160a060020a03163314613dfb57600080fd5b610efb81615500565b6005546000908190819081908190600160a060020a03163314613e2657600080fd5b613e383031600763ffffffff61557116565b9450613e4b85600a63ffffffff61559a16565b9450613e5e85600663ffffffff61557116565b9350613e7185600363ffffffff61557116565b9250613e8485600163ffffffff61557116565b9150613e9784600a63ffffffff61559a16565b9350613eaa83600a63ffffffff61559a16565b9250613ebd82600a63ffffffff61559a16565b915060395490505b603954600a5401811015613f6b57601480546000919083908110613ee557fe5b6000918252602090912060016007909202010154600160a060020a031614613f63576014805482908110613f1557fe5b60009182526020822060016007909202010154604051600160a060020a039091169186156108fc02918791818181858888f19350505050158015613f5d573d6000803e3d6000fd5b50613f6b565b600101613ec5565b6001015b603954600a540181101561401557601480546000919083908110613f8f57fe5b6000918252602090912060016007909202010154600160a060020a03161461400d576014805482908110613fbf57fe5b60009182526020822060016007909202010154604051600160a060020a039091169185156108fc02918691818181858888f19350505050158015614007573d6000803e3d6000fd5b50614015565b600101613f6f565b6001015b603954600a54018110156140bf5760148054600091908390811061403957fe5b6000918252602090912060016007909202010154600160a060020a0316146140b757601480548290811061406957fe5b60009182526020822060016007909202010154604051600160a060020a039091169184156108fc02918591818181858888f193505050501580156140b1573d6000803e3d6000fd5b506140bf565b600101614019565b601180546001019055601054604051600160a060020a0390911690303180156108fc02916000818181858888f19350505050158015614102573d6000803e3d6000fd5b50600090505b600a548110156129555760008181526037602090815260408083208054600160a060020a03191690556036825280832083905560388252808320929092558151808301909252600182527f3000000000000000000000000000000000000000000000000000000000000000908201526016826007811061418457fe5b60040201600001908051906020019061419e929190615cef565b5060408051808201909152600181527f30000000000000000000000000000000000000000000000000000000000000006020820152601682600781106141e057fe5b6004020160010190805190602001906141fa929190615cef565b5060006016826007811061420a57fe5b600402016002018190555060115460168260078110151561422757fe5b6004020160030155600101614108565b600554600160a060020a0316331461424e57600080fd5b80600160a060020a0316ff5b6000614267600f5461436e565b604080516020808252601f908201527f41736b696e6720666f722061206e6577206920706172616d657465722e2e2e008183015290517f46cb989ef9cef13e930e3b7f286225a086e716a90d63e0b7da85d310a9db0c9a9181900360600190a161433e6040805190810160405280600c81526020017f576f6c6672616d416c70686100000000000000000000000000000000000000008152506040805190810160405280600f81526020017f342072616e646f6d206e756d6265720000000000000000000000000000000000815250600e54614554565b60009081526034602052604090208054600160a060020a031916600160a060020a03939093169290921790915550565b600054600160a060020a03161580614398575060005461439690600160a060020a03166155af565b155b156143a9576143a760006155b3565b505b6000809054906101000a9004600160a060020a0316600160a060020a03166338cc48316040518163ffffffff1660e060020a028152600401602060405180830381600087803b1580156143fb57600080fd5b505af115801561440f573d6000803e3d6000fd5b505050506040513d602081101561442557600080fd5b5051600154600160a060020a039081169116146144da576000809054906101000a9004600160a060020a0316600160a060020a03166338cc48316040518163ffffffff1660e060020a028152600401602060405180830381600087803b15801561448e57600080fd5b505af11580156144a2573d6000803e3d6000fd5b505050506040513d60208110156144b857600080fd5b505160018054600160a060020a031916600160a060020a039092169190911790555b600154604080517fca6ad1e4000000000000000000000000000000000000000000000000000000008152600481018490529051600160a060020a039092169163ca6ad1e49160248082019260009290919082900301818387803b15801561454057600080fd5b505af1158015612955573d6000803e3d6000fd5b600080548190600160a060020a03161580614581575060005461457f90600160a060020a03166155af565b155b156145925761459060006155b3565b505b6000809054906101000a9004600160a060020a0316600160a060020a03166338cc48316040518163ffffffff1660e060020a028152600401602060405180830381600087803b1580156145e457600080fd5b505af11580156145f8573d6000803e3d6000fd5b505050506040513d602081101561460e57600080fd5b5051600154600160a060020a039081169116146146c3576000809054906101000a9004600160a060020a0316600160a060020a03166338cc48316040518163ffffffff1660e060020a028152600401602060405180830381600087803b15801561467757600080fd5b505af115801561468b573d6000803e3d6000fd5b505050506040513d60208110156146a157600080fd5b505160018054600160a060020a031916600160a060020a039092169190911790555b600154604080517f2ef3accc0000000000000000000000000000000000000000000000000000000081526024810186905260048101918252875160448201528751600160a060020a0390931692632ef3accc9289928892829160640190602086019080838360005b8381101561474357818101518382015260200161472b565b50505050905090810190601f1680156147705780820380516001836020036101000a031916815260200191505b509350505050602060405180830381600087803b15801561479057600080fd5b505af11580156147a4573d6000803e3d6000fd5b505050506040513d60208110156147ba57600080fd5b50519050670de0b6b3a76400003a8402018111156147db576000915061494d565b6001546040517fc51be90f00000000000000000000000000000000000000000000000000000000815260006004820181815260648301879052608060248401908152895160848501528951600160a060020a039095169463c51be90f948794938c938c938c93604481019160a49091019060208801908083838c5b8381101561486e578181015183820152602001614856565b50505050905090810190601f16801561489b5780820380516001836020036101000a031916815260200191505b50838103825285518152855160209182019187019080838360005b838110156148ce5781810151838201526020016148b6565b50505050905090810190601f1680156148fb5780820380516001836020036101000a031916815260200191505b5096505050505050506020604051808303818588803b15801561491d57600080fd5b505af1158015614931573d6000803e3d6000fd5b50505050506040513d602081101561494857600080fd5b505191505b509392505050565b60008054600160a060020a03161580614980575060005461497e90600160a060020a03166155af565b155b156149915761498f60006155b3565b505b6000809054906101000a9004600160a060020a0316600160a060020a03166338cc48316040518163ffffffff1660e060020a028152600401602060405180830381600087803b1580156149e357600080fd5b505af11580156149f7573d6000803e3d6000fd5b505050506040513d6020811015614a0d57600080fd5b5051600154600160a060020a03908116911614614ac2576000809054906101000a9004600160a060020a0316600160a060020a03166338cc48316040518163ffffffff1660e060020a028152600401602060405180830381600087803b158015614a7657600080fd5b505af1158015614a8a573d6000803e3d6000fd5b505050506040513d6020811015614aa057600080fd5b505160018054600160a060020a031916600160a060020a039092169190911790555b600160009054906101000a9004600160a060020a0316600160a060020a031663c281d19e6040518163ffffffff1660e060020a028152600401602060405180830381600087803b158015614b1557600080fd5b505af1158015614b29573d6000803e3d6000fd5b505050506040513d6020811015614b3f57600080fd5b5051905090565b6000614b538260006155bd565b92915050565b60408051600160a060020a03831660009081526032602090815290839020805460026001821615610100026000190190911604601f8101839004909202830160a090810190945260808301828152929384939290840182828015614bfe5780601f10614bd357610100808354040283529160200191614bfe565b820191906000526020600020905b815481529060010190602001808311614be157829003601f168201915b505050505081526020016032600084600160a060020a0316600160a060020a031681526020019081526020016000206001018054600181600116156101000203166002900480601f016020809104026020016040519081016040528092919081815260200182805460018160011615610100020316600290048015614cc45780601f10614c9957610100808354040283529160200191614cc4565b820191906000526020600020905b815481529060010190602001808311614ca757829003601f168201915b5050509183525050600160a060020a038316600090815260326020908152604091829020600201549083015260115491015260125460169060078110614d0657fe5b600402016000820151816000019080519060200190614d26929190615cef565b506020828101518051614d3f9260018501920190615cef565b506040820151600282015560609091015160039091015550601280546001019055565b60408051600160a060020a03831660009081526032602090815283822080546002600180831615610100026000190190921604601f8101849004909302850160c090810190965260a0850183815293959094601594909384939192840182828015614e0e5780601f10614de357610100808354040283529160200191614e0e565b820191906000526020600020905b815481529060010190602001808311614df157829003601f168201915b505050505081526020016032600087600160a060020a0316600160a060020a031681526020019081526020016000206001018054600181600116156101000203166002900480601f016020809104026020016040519081016040528092919081815260200182805460018160011615610100020316600290048015614ed45780601f10614ea957610100808354040283529160200191614ed4565b820191906000526020600020905b815481529060010190602001808311614eb757829003601f168201915b5050509183525050600160a060020a038616600081815260326020908152604080832060020154828601528401929092526011546060909301929092528354600181018086559483529181902083518051600590940290910192614f3b9284920190615cef565b506020828101518051614f549260018501920190615cef565b50604082015160028201556060820151600382018054600160a060020a031916600160a060020a039092169190911790556080909101516004909101550390506118988161271a565b600082821115614fa957fe5b50900390565b604080518082018252600b81527f6d6f642828312f2831305e000000000000000000000000000000000000000000602080830191909152600780548451601f600260001961010060018616150201909316929092049182018490048402810184019095528085526060948594859461518b949193908301828280156150755780601f1061504a57610100808354040283529160200191615075565b820191906000526020600020905b81548152906001019060200180831161505857829003601f168201915b505060408051808201825260018082527f2d00000000000000000000000000000000000000000000000000000000000000602080840191909152600160a060020a038e1660009081526032825284902080548551600294821615610100026000190190911693909304601f810183900483028401830190955284835292965090945090925083018282801561514b5780601f106151205761010080835404028352916020019161514b565b820191906000526020600020905b81548152906001019060200180831161512e57829003601f168201915b50505050506040805190810160405280601081526020017f29292a31305e31303030302c31305e280000000000000000000000000000000081525061572f565b60098054604080516020601f600260001961010060018816150201909516949094049384018190048102820181019092528281529395506153359386939092909183018282801561521d5780601f106151f25761010080835404028352916020019161521d565b820191906000526020600020905b81548152906001019060200180831161520057829003601f168201915b505060408051808201825260018082527f2b00000000000000000000000000000000000000000000000000000000000000602080840191909152600160a060020a038e16600090815260328252849020820180548551600294821615610100026000190190911693909304601f81018390048302840183019095528483529296509094509092508301828280156152f55780601f106152ca576101008083540402835291602001916152f5565b820191906000526020600020905b8154815290600101906020018083116152d857829003601f168201915b50505050506040805190810160405280600281526020017f292900000000000000000000000000000000000000000000000000000000000081525061572f565b60408051808201825260018082527f2d00000000000000000000000000000000000000000000000000000000000000602080840191909152600160a060020a038916600090815260328252849020820180548551600294821615610100026000190190911693909304601f81018390048302840183019095528483529495506153e39486948893928301828280156152f55780601f106152ca576101008083540402835291602001916152f5565b60408051808201825260018082527f280000000000000000000000000000000000000000000000000000000000000060208084019190915283518085018552600581527f292f31305e00000000000000000000000000000000000000000000000000000081830152600160a060020a038a16600090815260328352859020830180548651600295821615610100026000190190911694909404601f81018490048402850184019096528584529596506154f895939487949193928301828280156154ee5780601f106154c3576101008083540402835291602001916154ee565b820191906000526020600020905b8154815290600101906020018083116154d157829003601f168201915b5050505050615990565b949350505050565b600160a060020a038116151561551557600080fd5b600554604051600160a060020a038084169216907f8be0079c531659141344cd1fd0a4f28419497f9722a3daafe3b4186f6b6457e090600090a360058054600160a060020a031916600160a060020a0392909216919091179055565b600082151561558257506000614b53565b5081810281838281151561559257fe5b0414614b5357fe5b600081838115156155a757fe5b049392505050565b3b90565b6000614b536159b8565b6000828180805b83518110156157125783517f3000000000000000000000000000000000000000000000000000000000000000908590839081106155fd57fe5b90602001015160f860020a900460f860020a02600160f860020a03191610158015615673575083517f39000000000000000000000000000000000000000000000000000000000000009085908390811061565357fe5b90602001015160f860020a900460f860020a02600160f860020a03191611155b156156cc5781156156925785151561568a57615712565b600019909501945b600a83029250603084828151811015156156a857fe5b90602001015160f860020a900460f860020a0260f860020a9004038301925061570a565b83818151811015156156da57fe5b90602001015160f860020a900460f860020a02600160f860020a031916602e60f860020a02141561570a57600191505b6001016155c4565b60008611156157245785600a0a830292505b509095945050505050565b6060806060806060806060806000808e98508d97508c96508b95508a94508451865188518a518c51010101016040519080825280601f01601f191660200182016040528015615788578160200160208202803883390190505b50935083925060009150600090505b88518110156157f55788818151811015156157ae57fe5b90602001015160f860020a900460f860020a0283838060010194508151811015156157d557fe5b906020010190600160f860020a031916908160001a905350600101615797565b5060005b875181101561585757878181518110151561581057fe5b90602001015160f860020a900460f860020a02838380600101945081518110151561583757fe5b906020010190600160f860020a031916908160001a9053506001016157f9565b5060005b86518110156158b957868181518110151561587257fe5b90602001015160f860020a900460f860020a02838380600101945081518110151561589957fe5b906020010190600160f860020a031916908160001a90535060010161585b565b5060005b855181101561591b5785818151811015156158d457fe5b90602001015160f860020a900460f860020a0283838060010194508151811015156158fb57fe5b906020010190600160f860020a031916908160001a9053506001016158bd565b5060005b845181101561597d57848181518110151561593657fe5b90602001015160f860020a900460f860020a02838380600101945081518110151561595d57fe5b906020010190600160f860020a031916908160001a90535060010161591f565b50909d9c50505050505050505050505050565b60606159af85858585602060405190810160405280600081525061572f565b95945050505050565b6000806159d8731d3b2638a7cc9f2cb3d298a3da7a90b67e5506ed6155af565b1115615a495760008054600160a060020a031916731d3b2638a7cc9f2cb3d298a3da7a90b67e5506ed17905560408051808201909152600b81527f6574685f6d61696e6e65740000000000000000000000000000000000000000006020820152615a4190615ce0565b50600161306d565b6000615a6873c03a2615d5efaf5f49f60b7bb6583eaec212fdf16155af565b1115615ad15760008054600160a060020a03191673c03a2615d5efaf5f49f60b7bb6583eaec212fdf117905560408051808201909152600c81527f6574685f726f707374656e3300000000000000000000000000000000000000006020820152615a4190615ce0565b6000615af073b7a07bcf2ba2f2703b24c0691b5278999c59ac7e6155af565b1115615b595760008054600160a060020a03191673b7a07bcf2ba2f2703b24c0691b5278999c59ac7e17905560408051808201909152600981527f6574685f6b6f76616e00000000000000000000000000000000000000000000006020820152615a4190615ce0565b6000615b7873146500cfd35b22e4a392fe0adc06de1a1368ed486155af565b1115615be15760008054600160a060020a03191673146500cfd35b22e4a392fe0adc06de1a1368ed4817905560408051808201909152600b81527f6574685f72696e6b6562790000000000000000000000000000000000000000006020820152615a4190615ce0565b6000615c00736f485c8bf6fc43ea212e93bbf8ce046c7f1cb4756155af565b1115615c34575060008054600160a060020a031916736f485c8bf6fc43ea212e93bbf8ce046c7f1cb475179055600161306d565b6000615c537320e12a1f859b3feae5fb2a0a32c18f5a65555bbf6155af565b1115615c87575060008054600160a060020a0319167320e12a1f859b3feae5fb2a0a32c18f5a65555bbf179055600161306d565b6000615ca67351efaf4c8b3c9afbd5ab9f4bbc82784ab6ef8faa6155af565b1115615cda575060008054600160a060020a0319167351efaf4c8b3c9afbd5ab9f4bbc82784ab6ef8faa179055600161306d565b50600090565b80516118989060029060208401905b828054600181600116156101000203166002900490600052602060002090601f016020900481019282601f10615d3057805160ff1916838001178555615d5d565b82800160010185558215615d5d579182015b82811115615d5d578251825591602001919060010190615d42565b50615d69929150615e52565b5090565b60e060405190810160405280600081526020016000600160a060020a0316815260200160008152602001600081526020016000815260200160008152602001600081525090565b608060405190810160405280606081526020016060815260200160008152602001600081525090565b828054600181600116156101000203166002900490600052602060002090601f016020900481019282601f10615e165780548555615d5d565b82800160010185558215615d5d57600052602060002091601f016020900482015b82811115615d5d578254825591600101919060010190615e37565b61306d91905b80821115615d695760008155600101615e58560055f448fdea98c4d29eb340757ef0a66cd03dbb9538908a6a81d96026b71ec4759bc068999fb1a0aac007a9b44ca6322a376441f42706bf5163600bb3d1a731647ecbd54b3baea533cf57ef049f9e04554be6a660d6dacd477488066eedf27beea165627a7a7230582033f9336d28aa27bba747ffb6e5b3bf2fad82b545b50ee09b3a22d49fedefdcb40029",
  "source": "pragma solidity ^0.4.20;\n\nimport \"./Lucky7Store.sol\";\n\ncontract Lucky7Test is Lucky7Store{\n    \n    function insertTestLucky7Numbers() public{\n        lucky7Numbers[0] = Lucky7Number(\"1\",\"2\",10651283657614267398,drawNumber);\n        lucky7Numbers[2] = Lucky7Number(\"1\",\"2\",52398723847810031239,drawNumber);\n        lucky7Numbers[4] = Lucky7Number(\"1\",\"2\",30481723712938712983,drawNumber);\n        lucky7Numbers[5] = Lucky7Number(\"1\",\"2\",24342359080214091240,drawNumber);\n        lucky7Numbers[6] = Lucky7Number(\"1\",\"2\",75126192741201932912,drawNumber);\n        _orderLucky7Numbers();\n    }    \n    \n    function insertTestTickets() public{\n        uint id=tickets.push(Ticket(\"1\",\"2\",24016058422221620610,address(this),drawNumber))-1;\n        _checkForLucky7Ticket(id);\n        id=tickets.push(Ticket(\"1\",\"2\",41211282110361018491,address(this),drawNumber))-1;\n        _checkForLucky7Ticket(id);\n        id=tickets.push(Ticket(\"1\",\"2\",75615966567006227384,address(this),drawNumber))-1;\n        _checkForLucky7Ticket(id);\n        id=tickets.push(Ticket(\"1\",\"2\",52440930826522170732,address(0x6401b4cde3fdf3f857f9e62c1760700750b84709),drawNumber))-1;\n        _checkForLucky7Ticket(id);\n        id=tickets.push(Ticket(\"1\",\"2\",30365787076250930766,address(0x366348aaaf19fab5b082baf3d1060fcd778fae3f),drawNumber))-1;\n        _checkForLucky7Ticket(id);\n        id=tickets.push(Ticket(\"1\",\"2\",33643378726346993905,address(this),drawNumber))-1;\n        _checkForLucky7Ticket(id);\n        id=tickets.push(Ticket(\"1\",\"2\",10903483408365649132,address(0xf294525b3d0ddeba7bb8f0be22fbfca6833e3015),drawNumber))-1;\n        _checkForLucky7Ticket(id);\n    }\n    \n    function _balance() public view returns (uint256){\n        return this.balance;\n    }\n}\n",
  "sourcePath": "/Users/matiasbarrios/Desktop/Proyecto Consensys/luckyseven/contracts/Lucky7Test.sol",
  "compiler": {
    "name": "solc",
    "version": "0.4.24+commit.e67f0147.Emscripten.clang"
  },
  "schemaVersion": "2.0.1",
  "updatedAt": "2018-08-15T23:52:00.397Z"
}