{
  "contractName": "Lucky7Test",
  "abi": [
    {
      "constant": true,
      "inputs": [],
      "name": "getlucky7Numbers",
      "outputs": [
        {
          "name": "",
          "type": "uint256[7]"
        }
      ],
      "payable": false,
      "stateMutability": "view",
      "type": "function"
    },
    {
      "constant": false,
      "inputs": [],
      "name": "sellGeneratedTicket",
      "outputs": [],
      "payable": true,
      "stateMutability": "payable",
      "type": "function"
    },
    {
      "constant": false,
      "inputs": [
        {
          "name": "_newValue",
          "type": "string"
        }
      ],
      "name": "modifyParameterN",
      "outputs": [],
      "payable": false,
      "stateMutability": "nonpayable",
      "type": "function"
    },
    {
      "constant": true,
      "inputs": [
        {
          "name": "",
          "type": "uint256"
        }
      ],
      "name": "lucky7TicketID",
      "outputs": [
        {
          "name": "",
          "type": "uint256"
        }
      ],
      "payable": false,
      "stateMutability": "view",
      "type": "function"
    },
    {
      "constant": true,
      "inputs": [
        {
          "name": "",
          "type": "uint256"
        }
      ],
      "name": "lucky7TicketOwner",
      "outputs": [
        {
          "name": "",
          "type": "address"
        }
      ],
      "payable": false,
      "stateMutability": "view",
      "type": "function"
    },
    {
      "constant": false,
      "inputs": [],
      "name": "_orderLucky7Tickets",
      "outputs": [],
      "payable": false,
      "stateMutability": "nonpayable",
      "type": "function"
    },
    {
      "constant": false,
      "inputs": [],
      "name": "sellRandomTicket",
      "outputs": [],
      "payable": true,
      "stateMutability": "payable",
      "type": "function"
    },
    {
      "constant": false,
      "inputs": [
        {
          "name": "_ticketOwner",
          "type": "address"
        }
      ],
      "name": "_askForMuParameter",
      "outputs": [],
      "payable": true,
      "stateMutability": "payable",
      "type": "function"
    },
    {
      "constant": false,
      "inputs": [
        {
          "name": "myid",
          "type": "bytes32"
        },
        {
          "name": "result",
          "type": "string"
        }
      ],
      "name": "__callback",
      "outputs": [],
      "payable": false,
      "stateMutability": "nonpayable",
      "type": "function"
    },
    {
      "constant": true,
      "inputs": [],
      "name": "settingLucky7Numbers",
      "outputs": [
        {
          "name": "",
          "type": "bool"
        }
      ],
      "payable": false,
      "stateMutability": "view",
      "type": "function"
    },
    {
      "constant": false,
      "inputs": [
        {
          "name": "_ticketID",
          "type": "uint256"
        }
      ],
      "name": "_checkForLucky7Ticket",
      "outputs": [],
      "payable": false,
      "stateMutability": "nonpayable",
      "type": "function"
    },
    {
      "constant": true,
      "inputs": [],
      "name": "n",
      "outputs": [
        {
          "name": "",
          "type": "string"
        }
      ],
      "payable": false,
      "stateMutability": "view",
      "type": "function"
    },
    {
      "constant": false,
      "inputs": [
        {
          "name": "myid",
          "type": "bytes32"
        },
        {
          "name": "result",
          "type": "string"
        },
        {
          "name": "proof",
          "type": "bytes"
        }
      ],
      "name": "__callback",
      "outputs": [],
      "payable": false,
      "stateMutability": "nonpayable",
      "type": "function"
    },
    {
      "constant": true,
      "inputs": [
        {
          "name": "",
          "type": "uint256"
        }
      ],
      "name": "lucky7Tickets",
      "outputs": [
        {
          "name": "difference",
          "type": "uint256"
        },
        {
          "name": "owner",
          "type": "address"
        },
        {
          "name": "ticketID",
          "type": "uint256"
        },
        {
          "name": "ticketValue",
          "type": "uint256"
        },
        {
          "name": "lucky7Number",
          "type": "uint256"
        },
        {
          "name": "lucky7NumberID",
          "type": "uint256"
        },
        {
          "name": "drawID",
          "type": "uint256"
        }
      ],
      "payable": false,
      "stateMutability": "view",
      "type": "function"
    },
    {
      "constant": false,
      "inputs": [],
      "name": "toggleLucky7Setting",
      "outputs": [],
      "payable": false,
      "stateMutability": "nonpayable",
      "type": "function"
    },
    {
      "constant": false,
      "inputs": [
        {
          "name": "_newValue",
          "type": "string"
        }
      ],
      "name": "modifyParameterJ",
      "outputs": [],
      "payable": false,
      "stateMutability": "nonpayable",
      "type": "function"
    },
    {
      "constant": false,
      "inputs": [],
      "name": "withdraw",
      "outputs": [],
      "payable": false,
      "stateMutability": "nonpayable",
      "type": "function"
    },
    {
      "constant": true,
      "inputs": [
        {
          "name": "",
          "type": "uint256"
        }
      ],
      "name": "lucky7Numbers",
      "outputs": [
        {
          "name": "mu",
          "type": "string"
        },
        {
          "name": "i",
          "type": "string"
        },
        {
          "name": "ticketValue",
          "type": "uint256"
        },
        {
          "name": "drawID",
          "type": "uint256"
        }
      ],
      "payable": false,
      "stateMutability": "view",
      "type": "function"
    },
    {
      "constant": false,
      "inputs": [],
      "name": "setNewGame",
      "outputs": [],
      "payable": false,
      "stateMutability": "nonpayable",
      "type": "function"
    },
    {
      "constant": false,
      "inputs": [
        {
          "name": "_newAddress",
          "type": "address"
        }
      ],
      "name": "modifyEnterpriseWallet",
      "outputs": [],
      "payable": false,
      "stateMutability": "nonpayable",
      "type": "function"
    },
    {
      "constant": true,
      "inputs": [
        {
          "name": "",
          "type": "address"
        }
      ],
      "name": "userValues",
      "outputs": [
        {
          "name": "mu",
          "type": "string"
        },
        {
          "name": "i",
          "type": "string"
        },
        {
          "name": "ticketValue",
          "type": "uint256"
        },
        {
          "name": "muReady",
          "type": "bool"
        },
        {
          "name": "iReady",
          "type": "bool"
        },
        {
          "name": "userPaidTicket",
          "type": "bool"
        }
      ],
      "payable": false,
      "stateMutability": "view",
      "type": "function"
    },
    {
      "constant": true,
      "inputs": [],
      "name": "b",
      "outputs": [
        {
          "name": "",
          "type": "string"
        }
      ],
      "payable": false,
      "stateMutability": "view",
      "type": "function"
    },
    {
      "constant": true,
      "inputs": [
        {
          "name": "",
          "type": "uint256"
        }
      ],
      "name": "tickets",
      "outputs": [
        {
          "name": "mu",
          "type": "string"
        },
        {
          "name": "i",
          "type": "string"
        },
        {
          "name": "ticketValue",
          "type": "uint256"
        },
        {
          "name": "owner",
          "type": "address"
        },
        {
          "name": "drawID",
          "type": "uint256"
        }
      ],
      "payable": false,
      "stateMutability": "view",
      "type": "function"
    },
    {
      "constant": true,
      "inputs": [],
      "name": "oraclizeGasLimit",
      "outputs": [
        {
          "name": "",
          "type": "uint256"
        }
      ],
      "payable": false,
      "stateMutability": "view",
      "type": "function"
    },
    {
      "constant": true,
      "inputs": [],
      "name": "numberOfLucky7Numbers",
      "outputs": [
        {
          "name": "",
          "type": "uint256"
        }
      ],
      "payable": false,
      "stateMutability": "view",
      "type": "function"
    },
    {
      "constant": true,
      "inputs": [],
      "name": "getlucky7Tickets",
      "outputs": [
        {
          "name": "",
          "type": "uint256[7]"
        }
      ],
      "payable": false,
      "stateMutability": "view",
      "type": "function"
    },
    {
      "constant": false,
      "inputs": [
        {
          "name": "_id",
          "type": "uint256"
        },
        {
          "name": "_mu",
          "type": "string"
        },
        {
          "name": "_i",
          "type": "string"
        },
        {
          "name": "_ticketValue",
          "type": "uint256"
        },
        {
          "name": "_drawNumber",
          "type": "uint256"
        }
      ],
      "name": "insertCustomizedLucky7Number",
      "outputs": [],
      "payable": false,
      "stateMutability": "nonpayable",
      "type": "function"
    },
    {
      "constant": false,
      "inputs": [],
      "name": "renounceOwnership",
      "outputs": [],
      "payable": false,
      "stateMutability": "nonpayable",
      "type": "function"
    },
    {
      "constant": false,
      "inputs": [],
      "name": "generateRandomTicket",
      "outputs": [],
      "payable": true,
      "stateMutability": "payable",
      "type": "function"
    },
    {
      "constant": true,
      "inputs": [],
      "name": "enterpriseWallet",
      "outputs": [
        {
          "name": "",
          "type": "address"
        }
      ],
      "payable": false,
      "stateMutability": "view",
      "type": "function"
    },
    {
      "constant": false,
      "inputs": [],
      "name": "_orderLucky7Numbers",
      "outputs": [],
      "payable": false,
      "stateMutability": "nonpayable",
      "type": "function"
    },
    {
      "constant": false,
      "inputs": [
        {
          "name": "_ticketOwner",
          "type": "address"
        }
      ],
      "name": "_generateTicket",
      "outputs": [],
      "payable": false,
      "stateMutability": "nonpayable",
      "type": "function"
    },
    {
      "constant": false,
      "inputs": [
        {
          "name": "_newValue",
          "type": "uint256"
        }
      ],
      "name": "modifyOraclizeGasLimit",
      "outputs": [],
      "payable": false,
      "stateMutability": "nonpayable",
      "type": "function"
    },
    {
      "constant": false,
      "inputs": [],
      "name": "destroy",
      "outputs": [],
      "payable": false,
      "stateMutability": "nonpayable",
      "type": "function"
    },
    {
      "constant": false,
      "inputs": [
        {
          "name": "_newValue",
          "type": "string"
        }
      ],
      "name": "modifyParameterB",
      "outputs": [],
      "payable": false,
      "stateMutability": "nonpayable",
      "type": "function"
    },
    {
      "constant": false,
      "inputs": [
        {
          "name": "_newValue",
          "type": "uint256"
        }
      ],
      "name": "modifyGenerateTicketPrice",
      "outputs": [],
      "payable": false,
      "stateMutability": "nonpayable",
      "type": "function"
    },
    {
      "constant": true,
      "inputs": [],
      "name": "owner",
      "outputs": [
        {
          "name": "",
          "type": "address"
        }
      ],
      "payable": false,
      "stateMutability": "view",
      "type": "function"
    },
    {
      "constant": false,
      "inputs": [],
      "name": "_generateLucky7Number",
      "outputs": [],
      "payable": false,
      "stateMutability": "nonpayable",
      "type": "function"
    },
    {
      "constant": true,
      "inputs": [],
      "name": "oraclizeCustomGasPrice",
      "outputs": [
        {
          "name": "",
          "type": "uint256"
        }
      ],
      "payable": false,
      "stateMutability": "view",
      "type": "function"
    },
    {
      "constant": true,
      "inputs": [],
      "name": "p",
      "outputs": [
        {
          "name": "",
          "type": "string"
        }
      ],
      "payable": false,
      "stateMutability": "view",
      "type": "function"
    },
    {
      "constant": false,
      "inputs": [
        {
          "name": "_newValue",
          "type": "string"
        }
      ],
      "name": "modifyParameterP",
      "outputs": [],
      "payable": false,
      "stateMutability": "nonpayable",
      "type": "function"
    },
    {
      "constant": true,
      "inputs": [],
      "name": "j",
      "outputs": [
        {
          "name": "",
          "type": "string"
        }
      ],
      "payable": false,
      "stateMutability": "view",
      "type": "function"
    },
    {
      "constant": true,
      "inputs": [],
      "name": "balance",
      "outputs": [
        {
          "name": "",
          "type": "uint256"
        }
      ],
      "payable": false,
      "stateMutability": "view",
      "type": "function"
    },
    {
      "constant": false,
      "inputs": [
        {
          "name": "_mu",
          "type": "string"
        },
        {
          "name": "_i",
          "type": "string"
        },
        {
          "name": "_ticketValue",
          "type": "uint256"
        },
        {
          "name": "_ticketOwner",
          "type": "address"
        },
        {
          "name": "_drawNumber",
          "type": "uint256"
        }
      ],
      "name": "insertCustomizedTicket",
      "outputs": [
        {
          "name": "",
          "type": "uint256"
        }
      ],
      "payable": false,
      "stateMutability": "nonpayable",
      "type": "function"
    },
    {
      "constant": true,
      "inputs": [],
      "name": "initialLucky7TicketPosition",
      "outputs": [
        {
          "name": "",
          "type": "uint256"
        }
      ],
      "payable": false,
      "stateMutability": "view",
      "type": "function"
    },
    {
      "constant": false,
      "inputs": [
        {
          "name": "_newValue",
          "type": "uint256"
        }
      ],
      "name": "modifySellTicketPrice",
      "outputs": [],
      "payable": false,
      "stateMutability": "nonpayable",
      "type": "function"
    },
    {
      "constant": true,
      "inputs": [],
      "name": "indexForLucky7Array",
      "outputs": [
        {
          "name": "",
          "type": "uint256"
        }
      ],
      "payable": false,
      "stateMutability": "view",
      "type": "function"
    },
    {
      "constant": false,
      "inputs": [
        {
          "name": "_newValue",
          "type": "uint256"
        }
      ],
      "name": "modifyNumberOfLucky7Numbers",
      "outputs": [],
      "payable": false,
      "stateMutability": "nonpayable",
      "type": "function"
    },
    {
      "constant": false,
      "inputs": [
        {
          "name": "_newValue",
          "type": "uint256"
        }
      ],
      "name": "modifyOraclizeCustomGasPrice",
      "outputs": [],
      "payable": false,
      "stateMutability": "nonpayable",
      "type": "function"
    },
    {
      "constant": true,
      "inputs": [],
      "name": "generateTicketPrice",
      "outputs": [
        {
          "name": "",
          "type": "uint256"
        }
      ],
      "payable": false,
      "stateMutability": "view",
      "type": "function"
    },
    {
      "constant": true,
      "inputs": [],
      "name": "drawNumber",
      "outputs": [
        {
          "name": "",
          "type": "uint256"
        }
      ],
      "payable": false,
      "stateMutability": "view",
      "type": "function"
    },
    {
      "constant": false,
      "inputs": [
        {
          "name": "_ticketOwner",
          "type": "address"
        }
      ],
      "name": "_askForTicket",
      "outputs": [],
      "payable": false,
      "stateMutability": "nonpayable",
      "type": "function"
    },
    {
      "constant": true,
      "inputs": [],
      "name": "sellTicketPrice",
      "outputs": [
        {
          "name": "",
          "type": "uint256"
        }
      ],
      "payable": false,
      "stateMutability": "view",
      "type": "function"
    },
    {
      "constant": true,
      "inputs": [
        {
          "name": "",
          "type": "uint256"
        }
      ],
      "name": "lucky7TicketDifference",
      "outputs": [
        {
          "name": "",
          "type": "uint256"
        }
      ],
      "payable": false,
      "stateMutability": "view",
      "type": "function"
    },
    {
      "constant": false,
      "inputs": [
        {
          "name": "_newOwner",
          "type": "address"
        }
      ],
      "name": "transferOwnership",
      "outputs": [],
      "payable": false,
      "stateMutability": "nonpayable",
      "type": "function"
    },
    {
      "constant": true,
      "inputs": [
        {
          "name": "",
          "type": "address"
        }
      ],
      "name": "pendingWithdrawals",
      "outputs": [
        {
          "name": "",
          "type": "uint256"
        }
      ],
      "payable": false,
      "stateMutability": "view",
      "type": "function"
    },
    {
      "constant": false,
      "inputs": [],
      "name": "_deliverPrizes",
      "outputs": [],
      "payable": false,
      "stateMutability": "nonpayable",
      "type": "function"
    },
    {
      "constant": false,
      "inputs": [
        {
          "name": "_recipient",
          "type": "address"
        }
      ],
      "name": "destroyAndSend",
      "outputs": [],
      "payable": false,
      "stateMutability": "nonpayable",
      "type": "function"
    },
    {
      "constant": false,
      "inputs": [
        {
          "name": "_ticketOwner",
          "type": "address"
        }
      ],
      "name": "_askForIParameter",
      "outputs": [],
      "payable": false,
      "stateMutability": "nonpayable",
      "type": "function"
    },
    {
      "inputs": [],
      "payable": true,
      "stateMutability": "payable",
      "type": "constructor"
    },
    {
      "payable": true,
      "stateMutability": "payable",
      "type": "fallback"
    },
    {
      "anonymous": false,
      "inputs": [
        {
          "indexed": false,
          "name": "description",
          "type": "string"
        }
      ],
      "name": "NewOraclizeQuery",
      "type": "event"
    },
    {
      "anonymous": false,
      "inputs": [
        {
          "indexed": false,
          "name": "muParameter",
          "type": "string"
        }
      ],
      "name": "NewMuReceived",
      "type": "event"
    },
    {
      "anonymous": false,
      "inputs": [
        {
          "indexed": false,
          "name": "iParameter",
          "type": "string"
        }
      ],
      "name": "NewIReceived",
      "type": "event"
    },
    {
      "anonymous": false,
      "inputs": [
        {
          "indexed": false,
          "name": "newTicket",
          "type": "string"
        }
      ],
      "name": "NewTicketReceived",
      "type": "event"
    },
    {
      "anonymous": false,
      "inputs": [
        {
          "indexed": false,
          "name": "description",
          "type": "string"
        }
      ],
      "name": "NewWolframQuery",
      "type": "event"
    },
    {
      "anonymous": false,
      "inputs": [
        {
          "indexed": false,
          "name": "ticketID",
          "type": "uint256"
        }
      ],
      "name": "NewLucky7Ticket",
      "type": "event"
    },
    {
      "anonymous": false,
      "inputs": [
        {
          "indexed": false,
          "name": "value",
          "type": "uint256"
        }
      ],
      "name": "NewLucky7Number",
      "type": "event"
    },
    {
      "anonymous": false,
      "inputs": [
        {
          "indexed": false,
          "name": "feeType",
          "type": "string"
        },
        {
          "indexed": false,
          "name": "_oldValue",
          "type": "uint256"
        },
        {
          "indexed": false,
          "name": "_newValue",
          "type": "uint256"
        }
      ],
      "name": "numberModified",
      "type": "event"
    },
    {
      "anonymous": false,
      "inputs": [
        {
          "indexed": false,
          "name": "parameter",
          "type": "string"
        },
        {
          "indexed": false,
          "name": "_oldValue",
          "type": "string"
        },
        {
          "indexed": false,
          "name": "_newValue",
          "type": "string"
        }
      ],
      "name": "parameterModified",
      "type": "event"
    },
    {
      "anonymous": false,
      "inputs": [
        {
          "indexed": false,
          "name": "parameter",
          "type": "string"
        },
        {
          "indexed": false,
          "name": "_oldValue",
          "type": "address"
        },
        {
          "indexed": false,
          "name": "_newValue",
          "type": "address"
        }
      ],
      "name": "walletModified",
      "type": "event"
    },
    {
      "anonymous": false,
      "inputs": [
        {
          "indexed": true,
          "name": "previousOwner",
          "type": "address"
        }
      ],
      "name": "OwnershipRenounced",
      "type": "event"
    },
    {
      "anonymous": false,
      "inputs": [
        {
          "indexed": true,
          "name": "previousOwner",
          "type": "address"
        },
        {
          "indexed": true,
          "name": "newOwner",
          "type": "address"
        }
      ],
      "name": "OwnershipTransferred",
      "type": "event"
    },
    {
      "constant": false,
      "inputs": [],
      "name": "insertTestLucky7Numbers",
      "outputs": [],
      "payable": false,
      "stateMutability": "nonpayable",
      "type": "function"
    }
  ],
  "bytecode": "0x60c0604052600160808190527f310000000000000000000000000000000000000000000000000000000000000060a09081526200003e919081620001aa565b506040805180820190915260018082527f380000000000000000000000000000000000000000000000000000000000000060209092019182526200008591600291620001aa565b506040805180820190915260058082527f31303030300000000000000000000000000000000000000000000000000000006020909201918252620000cc91600391620001aa565b506040805180820190915260028082527f323000000000000000000000000000000000000000000000000000000000000060209092019182526200011391600491620001aa565b50600760058190556611c37937e08000600655662aa1efb94e00009055620493e060085563ee6b280060095560008054600a8054600160a060020a0319908116600160a060020a03841617909155601083905560118390556012805460ff1916600117905560388390559081163317909155600b805490911673de6ddb95052e8072de64d814077148b95e43e1e01790556200024f565b828054600181600116156101000203166002900490600052602060002090601f016020900481019282601f10620001ed57805160ff19168380011785556200021d565b828001600101855582156200021d579182015b828111156200021d57825182559160200191906001019062000200565b506200022b9291506200022f565b5090565b6200024c91905b808211156200022b576000815560010162000236565b90565b61616a806200025f6000396000f3006080604052600436106102b05763ffffffff60e060020a60003504166301591f1381146102b25780630b8ec740146102ff5780630cc38b2b146103075780630ef309851461036057806310cd4b8a146103755780631c3ed1d31461039f5780631cf4c3d1146103d35780631ded3bec146103e857806323d370ba146103f057806327dc297e146104045780632caf9eee146104625780632de729eb1461048b5780632e52d606146104a357806338bbfa501461052d578063396fb422146105c957806339df3f4f146106215780633bb7daf4146106365780633ccfd60b1461068f5780633eba3466146106a457806340014911146107a857806349f6b030146107bd5780634acfd9b8146107de5780634df7e3d0146108fd57806350b447121461091257806350b9c42814610a2557806359f9fe8214610a3a5780635edbc36b14610a4f5780635fff9ae314610a64578063715018a614610b0957806372c3477d14610b1e578063741606b514610b2657806375edd25714610b3b57806377d8a83014610b50578063809fc15314610b7157806383197ef014610b8957806383bb7bb714610b9e5780638aa5fafa14610bf75780638da5cb5b14610c0f57806390c31c4c14610c245780639ac2bf9114610c395780639ae8886a14610c4e5780639dec38ab14610c63578063b582ec5f14610cbc578063b69ef8a814610cd1578063bb4127e814610ce6578063bb49516b14610d92578063bcb740ab14610da7578063c56969ab14610dbf578063c71f04ac14610dd4578063d383e86214610dec578063d566bcf014610e04578063d80ffb2014610e19578063ddc110fa14610e2e578063e5663c4814610e4f578063e802ae1414610e64578063f2fde38b14610e7c578063f3f4370314610e9d578063f405228914610ebe578063f5074f4114610ed3578063fd9be1b214610ef4575b005b3480156102be57600080fd5b506102c7610f15565b604051808260e080838360005b838110156102ec5781810151838201526020016102d4565b5050505090500191505060405180910390f35b6102b0610f8c565b34801561031357600080fd5b506040805160206004803580820135601f81018490048402850184019095528484526102b09436949293602493928401919081908401838280828437509497506111489650505050505050565b34801561036c57600080fd5b506102b061132d565b34801561038157600080fd5b5061038d6004356117b5565b60408051918252519081900360200190f35b3480156103ab57600080fd5b506103b76004356117c7565b60408051600160a060020a039092168252519081900360200190f35b3480156103df57600080fd5b506102b06117e2565b6102b0611bb6565b6102b0600160a060020a0360043516611c25565b34801561041057600080fd5b5060408051602060046024803582810135601f81018590048502860185019096528585526102b0958335953695604494919390910191908190840183828082843750949750611d379650505050505050565b34801561046e57600080fd5b506104776122e8565b604080519115158252519081900360200190f35b34801561049757600080fd5b506102b06004356122f1565b3480156104af57600080fd5b506104b8612565565b6040805160208082528351818301528351919283929083019185019080838360005b838110156104f25781810151838201526020016104da565b50505050905090810190601f16801561051f5780820380516001836020036101000a031916815260200191505b509250505060405180910390f35b34801561053957600080fd5b5060408051602060046024803582810135601f81018590048502860185019096528585526102b095833595369560449491939091019190819084018382808284375050604080516020601f89358b018035918201839004830284018301909452808352979a9998810197919650918201945092508291508401838280828437509497506125f09650505050505050565b3480156105d557600080fd5b506105e16004356125f5565b60408051978852600160a060020a039096166020880152868601949094526060860192909252608085015260a084015260c0830152519081900360e00190f35b34801561062d57600080fd5b506102b061264c565b34801561064257600080fd5b506040805160206004803580820135601f81018490048402850184019095528484526102b09436949293602493928401919081908401838280828437509497506126779650505050505050565b34801561069b57600080fd5b506102b06127bd565b3480156106b057600080fd5b506106bc6004356127fe565b604051808060200180602001858152602001848152602001838103835287818151815260200191508051906020019080838360005b838110156107095781810151838201526020016106f1565b50505050905090810190601f1680156107365780820380516001836020036101000a031916815260200191505b50838103825286518152865160209182019188019080838360005b83811015610769578181015183820152602001610751565b50505050905090810190601f1680156107965780820380516001836020036101000a031916815260200191505b50965050505050505060405180910390f35b3480156107b457600080fd5b506102b061294a565b3480156107c957600080fd5b506102b0600160a060020a0360043516612985565b3480156107ea57600080fd5b506107ff600160a060020a0360043516612a34565b604080519081018590528315156060820152821515608082015281151560a082015260c08082528751908201528651819060208083019160e08401918b019080838360005b8381101561085c578181015183820152602001610844565b50505050905090810190601f1680156108895780820380516001836020036101000a031916815260200191505b5083810382528851815288516020918201918a019080838360005b838110156108bc5781810151838201526020016108a4565b50505050905090810190601f1680156108e95780820380516001836020036101000a031916815260200191505b509850505050505050505060405180910390f35b34801561090957600080fd5b506104b8612b94565b34801561091e57600080fd5b5061092a600435612bee565b60408051908101849052600160a060020a03831660608201526080810182905260a08082528651908201528551819060208083019160c08401918a019080838360005b8381101561098557818101518382015260200161096d565b50505050905090810190601f1680156109b25780820380516001836020036101000a031916815260200191505b50838103825287518152875160209182019189019080838360005b838110156109e55781810151838201526020016109cd565b50505050905090810190601f168015610a125780820380516001836020036101000a031916815260200191505b5097505050505050505060405180910390f35b348015610a3157600080fd5b5061038d612d5b565b348015610a4657600080fd5b5061038d612d61565b348015610a5b57600080fd5b506102c7612d67565b348015610a7057600080fd5b5060408051602060046024803582810135601f81018590048502860185019096528585526102b095833595369560449491939091019190819084018382808284375050604080516020601f89358b018035918201839004830284018301909452808352979a999881019791965091820194509250829150840183828082843750949750508435955050506020909201359150612df89050565b348015610b1557600080fd5b506102b0612e94565b6102b0612ef3565b348015610b3257600080fd5b506103b7612f41565b348015610b4757600080fd5b506102b0612f50565b348015610b5c57600080fd5b506102b0600160a060020a036004351661338c565b348015610b7d57600080fd5b506102b060043561339e565b348015610b9557600080fd5b506102b061341f565b348015610baa57600080fd5b506040805160206004803580820135601f81018490048402850184019095528484526102b09436949293602493928401919081908401838280828437509497506134449650505050505050565b348015610c0357600080fd5b506102b0600435613589565b348015610c1b57600080fd5b506103b761360a565b348015610c3057600080fd5b506102b0613619565b348015610c4557600080fd5b5061038d61367a565b348015610c5a57600080fd5b506104b8613680565b348015610c6f57600080fd5b506040805160206004803580820135601f81018490048402850184019095528484526102b09436949293602493928401919081908401838280828437509497506136db9650505050505050565b348015610cc857600080fd5b506104b8613821565b348015610cdd57600080fd5b5061038d61387c565b348015610cf257600080fd5b506040805160206004803580820135601f810184900484028501840190955284845261038d94369492936024939284019190819084018382808284375050604080516020601f89358b018035918201839004830284018301909452808352979a99988101979196509182019450925082915084018382808284375094975050843595505050506020820135600160a060020a03169160400135905061389b565b348015610d9e57600080fd5b5061038d61399b565b348015610db357600080fd5b506102b06004356139a1565b348015610dcb57600080fd5b5061038d613a22565b348015610de057600080fd5b506102b0600435613a28565b348015610df857600080fd5b506102b0600435613aa9565b348015610e1057600080fd5b5061038d613b50565b348015610e2557600080fd5b5061038d613b56565b348015610e3a57600080fd5b506102b0600160a060020a0360043516613b5c565b348015610e5b57600080fd5b5061038d613c43565b348015610e7057600080fd5b5061038d600435613c49565b348015610e8857600080fd5b506102b0600160a060020a0360043516613c5b565b348015610ea957600080fd5b5061038d600160a060020a0360043516613c7b565b348015610eca57600080fd5b506102b0613c8d565b348015610edf57600080fd5b506102b0600160a060020a0360043516614091565b348015610f0057600080fd5b506102b0600160a060020a03600435166140b4565b610f1d615f62565b6000805b600554811015610f585760158160078110610f3857fe5b60040201600201548282600781101515610f4e57fe5b0155600101610f21565b6040805160e081019182905290839060079082845b815481526020019060010190808311610f6d5750505050509250505090565b6007543390341015610f9d57600080fd5b600160a060020a0381166000908152603160205260409020600301805462ff000019166201000017905560125460ff1615610fd757600080fd5b6040805133600090815260316020529190912080547fc5d2460186f7233c927e7db2dcc703c0e500b653ca82273b7bfad8045d85a4709290819083906002610100600183161502600019019091160480156110695780601f10611047576101008083540402835291820191611069565b820191906000526020600020905b815481529060010190602001808311611055575b505091505060405180910390206000191614158015611131575060408051336000908152603160205291909120600190810180547fc5d2460186f7233c927e7db2dcc703c0e500b653ca82273b7bfad8045d85a47093919282918491600261010091831615919091026000190190911604801561111d5780601f106110fb57610100808354040283529182019161111d565b820191906000526020600020905b815481529060010190602001808311611109575b505091505060405180910390206000191614155b151561113c57600080fd5b61114533613b5c565b50565b600054606090600160a060020a0316331461116257600080fd5b6002805460408051602060018416156101000260001901909316849004601f810184900484028201840190925281815292918301828280156111e55780601f106111ba576101008083540402835291602001916111e5565b820191906000526020600020905b8154815290600101906020018083116111c857829003601f168201915b5050855193945061120193600293506020870192509050615f81565b5060008051602061611f833981519152818360405180806020018060200180602001848103845260148152602001807f506172616d65746572206e206d6f646966696564000000000000000000000000815250602001848103835286818151815260200191508051906020019080838360005b8381101561128c578181015183820152602001611274565b50505050905090810190601f1680156112b95780820380516001836020036101000a031916815260200191505b50848103825285518152855160209182019187019080838360005b838110156112ec5781810151838201526020016112d4565b50505050905090810190601f1680156113195780820380516001836020036101000a031916815260200191505b509550505050505060405180910390a15050565b6040805160c08101825260016080820181815260f860020a60310260a084015282528251808401845290815260f960020a601902602080830191909152808301919091526793d0f60dbe05940692820192909252601054606082015280518051919260159261139f9284920190615f81565b5060208281015180516113b89260018501920190615f81565b506040828101516002830155606092830151600390920191909155805160c08101825260016080820181815260f860020a60310260a084015282528251808401845290815260f960020a601902602082810191909152808301919091526804c5fa0329ef99d22a928201929092526010549281019290925281518051601992611445928492910190615f81565b50602082810151805161145e9260018501920190615f81565b506040828101516002830155606092830151600390920191909155805160c08101825260016080820181815260f860020a60310260a084015282528251808401845290815260f960020a601902602082810191909152808301919091526802d72da9b820819e87928201929092526010549281019290925281518051601d926114eb928492910190615f81565b5060208281015180516115049260018501920190615f81565b506040828101516002830155606092830151600390920191909155805160c08101825260016080820181815260f860020a60310260a084015282528251808401845290815260f960020a601902602082810191909152808301919091526804e850f1d2e1ec1452928201929092526010549281019290925281518051602192611591928492910190615f81565b5060208281015180516115aa9260018501920190615f81565b506040828101516002830155606092830151600390920191909155805160c08101825260016080820181815260f860020a60310260a084015282528251808401845290815260f960020a601902602082810191909152808301919091526801a704d637c3501f97928201929092526010549281019290925281518051602592611637928492910190615f81565b5060208281015180516116509260018501920190615f81565b506040828101516002830155606092830151600390920191909155805160c08101825260016080820181815260f860020a60310260a084015282528251808401845290815260f960020a60190260208281019190915280830191909152680151d16e9cb32a55e89282019290925260105492810192909252815180516029926116dd928492910190615f81565b5060208281015180516116f69260018501920190615f81565b506040828101516002830155606092830151600390920191909155805160c08101825260016080820181815260f860020a60310260a084015282528251808401845290815260f960020a6019026020828101919091528083019190915268041295da4332def270928201929092526010549281019290925281518051602d92611783928492910190615f81565b50602082810151805161179c9260018501920190615f81565b5060408201516002820155606090910151600390910155565b60376020526000908152604090205481565b603660205260009081526040902054600160a060020a031681565b6117ea615fff565b6000805481908190600160a060020a0316331461180657600080fd5b5060005b600554811015611934576040805160e0810182526000838152603560209081528382205483528482526036815283822054600160a060020a031681840152848252603780825284832054948401859052918590525260148054601393606084019291811061187457fe5b906000526020600020906005020160020154815260200160158460078110151561189a57fe5b600490810291909101600290810154835260208084018790526010546040948501528554600180820188556000978852968290208651600790920201908155908501518187018054600160a060020a031916600160a060020a0390921691909117905592840151908301556060830151600383015560808301519082015560a0820151600582015560c0909101516006909101550161180a565b506038545b60385460055401811015611bb05780925060138181548110151561195957fe5b60009182526020918290206040805160e081018252600790930290910180548352600180820154600160a060020a0316948401949094526002810154918301919091526003810154606083015260048101546080830152600581015460a08301526006015460c08201529450810191505b60385460055401821015611a885760138054839081106119e657fe5b600091825260209091206007909102015484511115611a7d576013805483908110611a0d57fe5b60009182526020918290206040805160e0810182526007909302909101805483526001810154600160a060020a0316938301939093526002830154908201526003820154606082015260048201546080820152600582015460a082015260069091015460c0820152935090915081905b6001909101906119ca565b828114611ba8576013805482908110611a9d57fe5b9060005260206000209060070201601384815481101515611aba57fe5b6000918252602090912082546007909202019081556001808301549082018054600160a060020a031916600160a060020a03909216919091179055600280830154908201556003808301549082015560048083015490820155600580830154908201556006918201549101556013805485919083908110611b3757fe5b600091825260209182902083516007929092020190815590820151600182018054600160a060020a031916600160a060020a0390921691909117905560408201516002820155606082015160038201556080820151600482015560a0820151600582015560c0909101516006909101555b600101611939565b50505050565b6007543390341015611bc757600080fd5b600160a060020a0381166000908152603160205260408082206003908101805462ff00001916620100001790553380845291909220909101805461ffff1916905560125460ff1615611c1857600080fd5b611c213361338c565b5050565b6000611c326009546141c8565b604080516020808252808201527f41736b696e6720666f722061206e6577206d7520706172616d657465722e2e2e8183015290517f096835e36c2ccea88ff2b3aca87dfc938b977e52ea656873ff76a8dba50d4d349181900360600190a1611d076040805190810160405280600c81526020017f576f6c6672616d416c70686100000000000000000000000000000000000000008152506040805190810160405280600f81526020017f342072616e646f6d206e756d62657200000000000000000000000000000000008152506008546143b0565b60009081526032602052604090208054600160a060020a031916600160a060020a03939093169290921790915550565b611d3f6147b5565b600160a060020a03163314611d5357600080fd5b600082815260326020526040902054600160a060020a031615801590611da15750600082815260326020908152604080832054600160a060020a03168352603190915290206003015460ff16155b15611f3e57600082815260326020908152604080832054600160a060020a03168352603182529091208251611dd892840190615f81565b507f6a28dd23c76ba6cc6f4f148a0e2e0e147d8b876cb74ec1e5e2b8e9a8119eb702816040518080602001828103825283818151815260200191508051906020019080838360005b83811015611e38578181015183820152602001611e20565b50505050905090810190601f168015611e655780820380516001836020036101000a031916815260200191505b509250505060405180910390a160008281526032602090815260408083208054600160a060020a03908116855260319093528184206003908101805460ff191660019081179091559154909316845292200154610100900460ff161515148015611f135750600082815260326020908152604080832054600160a060020a03168352603190915290206003015460ff6201000090910416151560011480611f13575060125460ff1615156001145b15611f3957600082815260326020526040902054611f3990600160a060020a0316613b5c565b611c21565b600082815260336020526040902054600160a060020a031615801590611f915750600082815260336020908152604080832054600160a060020a031683526031909152902060030154610100900460ff16155b1561212c57600082815260336020908152604080832054600160a060020a03168352603182529091208251611fce92600190920191840190615f81565b507f716a554dec57e3a217a923b974660c0c8ebee07b09b1ac7d4a3a8f328d10cc89816040518080602001828103825283818151815260200191508051906020019080838360005b8381101561202e578181015183820152602001612016565b50505050905090810190601f16801561205b5780820380516001836020036101000a031916815260200191505b509250505060405180910390a160008281526033602090815260408083208054600160a060020a03908116855260319093528184206003908101805461ff00191661010017905590549092168352909120015460ff16151560011480156121065750600082815260336020908152604080832054600160a060020a03168352603190915290206003015460ff6201000090910416151560011480612106575060125460ff1615156001145b15611f3957600082815260336020526040902054611f3990600160a060020a0316613b5c565b600082815260346020526040902054600160a060020a0316158015906121965750600082815260346020908152604080832054600160a060020a03168352603190915290206003015460ff6201000090910416151560011480612196575060125460ff1615156001145b15611c21576121a4816149aa565b600083815260346020908152604080832054600160a060020a031683526031825280832060020193909355825181815284518183015284517f0efef3a277391dda0d5747fd15566e85fcd8a4fb588d9853173841e45cc5ae8a9486949293849391840192908601918190849084905b8381101561222b578181015183820152602001612213565b50505050905090810190601f1680156122585780820380516001836020036101000a031916815260200191505b509250505060405180910390a1600082815260346020908152604080832054600160a060020a0316835260319091529020600301805462ff00001916905560125460ff161515600114156122c757600082815260346020526040902054611f3990600160a060020a03166149bd565b600082815260346020526040902054611c2190600160a060020a0316614c1e565b60125460ff1681565b600080600080601560016005540360078110151561230b57fe5b600402016002015460148681548110151561232257fe5b90600052602060002090600502016002015411156123915760055460001901935061238a6015856007811061235357fe5b600402016002015460148781548110151561236a57fe5b906000526020600020906005020160020154614e5990919063ffffffff16565b9250612492565b60175460148054879081106123a257fe5b9060005260206000209060050201600201541015612407576000935061238a6014868154811015156123d057fe5b9060005260206000209060050201600201546015866007811015156123f157fe5b6004020160020154614e5990919063ffffffff16565b6015846007811061241457fe5b600402016002015460148681548110151561242b57fe5b906000526020600020906005020160020154111561244e57600190930192612407565b612462601560001986016007811061235357fe5b91506124766014868154811015156123d057fe5b90508181111561248e57600184039350819250612492565b8092505b600084815260366020526040902054600160a060020a031615806124c3575060008481526035602052604090205483105b1561255e5760148054869081106124d657fe5b60009182526020808320600360059093020191909101548683526036825260408084208054600160a060020a031916600160a060020a0390931692909217909155603582528083208690556037825291829020879055815187815291517fed4436a39d9a77d0c6c3be4f0e28f018750eb25c5c2d30ded16ef07ced4c00719281900390910190a15b5050505050565b6002805460408051602060018416156101000260001901909316849004601f810184900484028201840190925281815292918301828280156125e85780601f106125bd576101008083540402835291602001916125e8565b820191906000526020600020905b8154815290600101906020018083116125cb57829003601f168201915b505050505081565b505050565b601380548290811061260357fe5b60009182526020909120600790910201805460018201546002830154600384015460048501546005860154600690960154949650600160a060020a039093169491939092919087565b600054600160a060020a0316331461266357600080fd5b6012805460ff19811660ff90911615179055565b600054606090600160a060020a0316331461269157600080fd5b6004805460408051602060026001851615610100026000190190941693909304601f810184900484028201840190925281815292918301828280156127175780601f106126ec57610100808354040283529160200191612717565b820191906000526020600020905b8154815290600101906020018083116126fa57829003601f168201915b5050855193945061273393600493506020870192509050615f81565b5060008051602061611f833981519152818360405180806020018060200180602001848103845260148152602001807f506172616d65746572206a206d6f646966696564000000000000000000000000815250602001848103835286818151815260200191508051906020019080838360008381101561128c578181015183820152602001611274565b33600081815260396020526040808220805490839055905190929183156108fc02918491818181858888f19350505050158015611c21573d6000803e3d6000fd5b6015816007811061280b57fe5b60040201805460408051602060026001851615610100026000190190941693909304601f810184900484028201840190925281815292935083918301828280156128965780601f1061286b57610100808354040283529160200191612896565b820191906000526020600020905b81548152906001019060200180831161287957829003601f168201915b505050505090806001018054600181600116156101000203166002900480601f0160208091040260200160405190810160405280929190818152602001828054600181600116156101000203166002900480156129345780601f1061290957610100808354040283529160200191612934565b820191906000526020600020905b81548152906001019060200180831161291757829003601f168201915b5050505050908060020154908060030154905084565b600054600160a060020a0316331461296157600080fd5b6005546010540260385561297361264c565b61297b6117e2565b612983613c8d565b565b60008054600160a060020a0316331461299d57600080fd5b50600a8054600160a060020a03838116600160a060020a0319831681179093556040805191909216602082018190528183019390935260608082526019908201527f456e74657270726973652077616c6c6574206368616e67656400000000000000608082015290517f223db053947bb148de510715d3c7d8ccd72bdd376752fd735ee7bd0bd0ece5bf9181900360a00190a15050565b60316020908152600091825260409182902080548351601f60026000196101006001861615020190931692909204918201849004840281018401909452808452909291839190830182828015612acb5780601f10612aa057610100808354040283529160200191612acb565b820191906000526020600020905b815481529060010190602001808311612aae57829003601f168201915b505050505090806001018054600181600116156101000203166002900480601f016020809104026020016040519081016040528092919081815260200182805460018160011615610100020316600290048015612b695780601f10612b3e57610100808354040283529160200191612b69565b820191906000526020600020905b815481529060010190602001808311612b4c57829003601f168201915b50505050600283015460039093015491929160ff808216925061010082048116916201000090041686565b60018054604080516020600284861615610100026000190190941693909304601f810184900484028201840190925281815292918301828280156125e85780601f106125bd576101008083540402835291602001916125e8565b6014805482908110612bfc57fe5b60009182526020918290206005919091020180546040805160026001841615610100026000190190931692909204601f810185900485028301850190915280825291935091839190830182828015612c955780601f10612c6a57610100808354040283529160200191612c95565b820191906000526020600020905b815481529060010190602001808311612c7857829003601f168201915b505050505090806001018054600181600116156101000203166002900480601f016020809104026020016040519081016040528092919081815260200182805460018160011615610100020316600290048015612d335780601f10612d0857610100808354040283529160200191612d33565b820191906000526020600020905b815481529060010190602001808311612d1657829003601f168201915b505050506002830154600384015460049094015492939092600160a060020a03909116915085565b60085481565b60055481565b612d6f615f62565b6000805b600554811015610f5857600081815260366020526040902054600160a060020a031615612ddf57600081815260376020526040902054601480549091908110612db857fe5b9060005260206000209060050201600201548282600781101515612dd857fe5b0155612df0565b6000828260078110612ded57fe5b01555b600101612d73565b600054600160a060020a03163314612e0f57600080fd5b60408051608081018252858152602081018590529081018390526060810182905260158660078110612e3d57fe5b600402016000820151816000019080519060200190612e5d929190615f81565b506020828101518051612e769260018501920190615f81565b50604082015160028201556060909101516003909101555050505050565b600054600160a060020a03163314612eab57600080fd5b60008054604051600160a060020a03909116917ff8df31144d9c2f0f6b59d69b8b98abd5459d07f2742c4df920b25aae33c6482091a260008054600160a060020a0319169055565b6006543390341015612f0457600080fd5b336000818152603160205260409020600301805461ffff1916905560125460ff1615612f2f57600080fd5b612f3833611c25565b611c21336140b4565b600a54600160a060020a031681565b612f58616046565b6000805481908190600160a060020a03163314612f7457600080fd5b5060005b600554811015611bb05791508160158160078110612f9257fe5b6040805160049290920292909201805460a06020601f600260001961010060018716150201909416939093049283018190040284018101909452608083018181529293919284929091849184018282801561302e5780601f106130035761010080835404028352916020019161302e565b820191906000526020600020905b81548152906001019060200180831161301157829003601f168201915b50505050508152602001600182018054600181600116156101000203166002900480601f0160208091040260200160405190810160405280929190818152602001828054600181600116156101000203166002900480156130d05780601f106130a5576101008083540402835291602001916130d0565b820191906000526020600020905b8154815290600101906020018083116130b357829003601f168201915b505050505081526020016002820154815260200160038201548152505093508060010191505b600554821015613299576015826007811061310d57fe5b60040201600201548460400151111561328e576015826007811061312d57fe5b6040805160049290920292909201805460a06020601f60026000196101006001871615020190941693909304928301819004028401810190945260808301818152929391928492909184918401828280156131c95780601f1061319e576101008083540402835291602001916131c9565b820191906000526020600020905b8154815290600101906020018083116131ac57829003601f168201915b50505050508152602001600182018054600181600116156101000203166002900480601f01602080910402602001604051908101604052809291908181526020018280546001816001161561010002031660029004801561326b5780601f106132405761010080835404028352916020019161326b565b820191906000526020600020905b81548152906001019060200180831161324e57829003601f168201915b505050505081526020016002820154815260200160038201548152505093508192505b6001909101906130f6565b82811461338457601581600781106132ad57fe5b60040201601584600781106132be57fe5b60040201600082018160000190805460018160011615610100020316600290046132e992919061606f565b506001820181600101908054600181600116156101000203166002900461331192919061606f565b5060028281015490820155600391820154910155836015826007811061333357fe5b600402016000820151816000019080519060200190613353929190615f81565b50602082810151805161336c9260018501920190615f81565b50604082015160028201556060909101516003909101555b600101612f78565b61339581611c25565b611145816140b4565b60008054600160a060020a031633146133b657600080fd5b50600880549082905560408051602081018390528082018490526060808252601a908201527f4f7261636c697a6520676173206c696d6974206368616e676564000000000000608082015290516000805160206160ff8339815191529181900360a00190a15050565b600054600160a060020a0316331461343657600080fd5b600054600160a060020a0316ff5b600054606090600160a060020a0316331461345e57600080fd5b60018054604080516020600284861615610100026000190190941693909304601f810184900484028201840190925281815292918301828280156134e35780601f106134b8576101008083540402835291602001916134e3565b820191906000526020600020905b8154815290600101906020018083116134c657829003601f168201915b505085519394506134ff93600193506020870192509050615f81565b5060008051602061611f833981519152818360405180806020018060200180602001848103845260148152602001807f506172616d657465722062206d6f646966696564000000000000000000000000815250602001848103835286818151815260200191508051906020019080838360008381101561128c578181015183820152602001611274565b60008054600160a060020a031633146135a157600080fd5b50600680549082905560408051602081018390528082018490526060808252601d908201527f47656e6572617465207469636b6574207072696365206368616e676564000000608082015290516000805160206160ff8339815191529181900360a00190a15050565b600054600160a060020a031681565b600054600160a060020a0316331461363057600080fd5b600554601154141561365657613644612f50565b600060115561365161264c565b612983565b306000818152603160205260409020600301805461ffff191690556129839061338c565b60095481565b6003805460408051602060026001851615610100026000190190941693909304601f810184900484028201840190925281815292918301828280156125e85780601f106125bd576101008083540402835291602001916125e8565b600054606090600160a060020a031633146136f557600080fd5b6003805460408051602060026001851615610100026000190190941693909304601f8101849004840282018401909252818152929183018282801561377b5780601f106137505761010080835404028352916020019161377b565b820191906000526020600020905b81548152906001019060200180831161375e57829003601f168201915b5050855193945061379793600393506020870192509050615f81565b5060008051602061611f833981519152818360405180806020018060200180602001848103845260148152602001807f506172616d657465722070206d6f646966696564000000000000000000000000815250602001848103835286818151815260200191508051906020019080838360008381101561128c578181015183820152602001611274565b6004805460408051602060026001851615610100026000190190941693909304601f810184900484028201840190925281815292918301828280156125e85780601f106125bd576101008083540402835291602001916125e8565b60008054600160a060020a0316331461389457600080fd5b5030315b90565b600080548190600160a060020a031633146138b557600080fd5b6040805160a0810182528881526020808201899052918101879052600160a060020a0386166060820152601054608082015260148054600181810180845560009390935283518051919593949360059093027fce6d7b5282bd9a3661ae061feed1dbda4e52ab073b1f9285be6e155d9c38d4ec019261393992849290910190615f81565b5060208281015180516139529260018501920190615f81565b50604082015160028201556060820151600382018054600160a060020a031916600160a060020a0390921691909117905560809091015160049091015503979650505050505050565b60385481565b60008054600160a060020a031633146139b957600080fd5b506007805490829055604080516020810183905280820184905260608082526019908201527f53656c6c207469636b6574207072696365206368616e67656400000000000000608082015290516000805160206160ff8339815191529181900360a00190a15050565b60115481565b60008054600160a060020a03163314613a4057600080fd5b506005805490829055604080516020810183905280820184905260608082526019908201527f53656c6c207469636b6574207072696365206368616e67656400000000000000608082015290516000805160206160ff8339815191529181900360a00190a15050565b60008054600160a060020a03163314613ac157600080fd5b506009805490829055604080516020810183905280820184905260608082526021908201527f4f7261636c697a6520637573746f6d20676173207072696365206368616e676560808201527f640000000000000000000000000000000000000000000000000000000000000060a082015290516000805160206160ff8339815191529181900360c00190a15050565b60065481565b60105481565b6000613b696009546141c8565b604080516020808252601a908201527f41736b696e6720666f722061206e6577207469636b65742e2e2e0000000000008183015290517f096835e36c2ccea88ff2b3aca87dfc938b977e52ea656873ff76a8dba50d4d349181900360600190a1613c136040805190810160405280600c81526020017f576f6c6672616d416c7068610000000000000000000000000000000000000000815250613c0b84614e6b565b6008546143b0565b60009081526034602052604090208054600160a060020a031916600160a060020a03939093169290921790915550565b60075481565b60356020526000908152604090205481565b600054600160a060020a03163314613c7257600080fd5b6111458161579a565b60396020526000908152604090205481565b600080548190819081908190600160a060020a03163314613cad57600080fd5b613cbf3031600763ffffffff61580a16565b9450613cd285600a63ffffffff61583316565b9450613ce585600663ffffffff61580a16565b9350613cf885600363ffffffff61580a16565b9250613d0b85600163ffffffff61580a16565b9150613d1e84600a63ffffffff61583316565b9350613d3183600a63ffffffff61583316565b9250613d4482600a63ffffffff61583316565b915060385490505b60385460055401811015613de357601380546000919083908110613d6c57fe5b6000918252602090912060016007909202010154600160a060020a031614613ddb578360396000601384815481101515613da257fe5b6000918252602080832060016007909302019190910154600160a060020a03168352820192909252604001902080549091019055613de3565b600101613d4c565b6001015b60385460055401811015613e7e57601380546000919083908110613e0757fe5b6000918252602090912060016007909202010154600160a060020a031614613e76578260396000601384815481101515613e3d57fe5b6000918252602080832060016007909302019190910154600160a060020a03168352820192909252604001902080549091019055613e7e565b600101613de7565b6001015b60385460055401811015613f1957601380546000919083908110613ea257fe5b6000918252602090912060016007909202010154600160a060020a031614613f11578160396000601384815481101515613ed857fe5b6000918252602080832060016007909302019190910154600160a060020a03168352820192909252604001902080549091019055613f19565b600101613e82565b601080546001019055600a54604051600160a060020a0390911690303180156108fc02916000818181858888f19350505050158015613f5c573d6000803e3d6000fd5b50600090505b60055481101561255e5760008181526036602090815260408083208054600160a060020a03191690556035825280832083905560378252808320929092558151808301909252600182527f30000000000000000000000000000000000000000000000000000000000000009082015260158260078110613fde57fe5b600402016000019080519060200190613ff8929190615f81565b5060408051808201909152600181527f300000000000000000000000000000000000000000000000000000000000000060208201526015826007811061403a57fe5b600402016001019080519060200190614054929190615f81565b5060006015826007811061406457fe5b600402016002018190555060105460158260078110151561408157fe5b6004020160030155600101613f62565b600054600160a060020a031633146140a857600080fd5b80600160a060020a0316ff5b60006140c16009546141c8565b604080516020808252601f908201527f41736b696e6720666f722061206e6577206920706172616d657465722e2e2e008183015290517f096835e36c2ccea88ff2b3aca87dfc938b977e52ea656873ff76a8dba50d4d349181900360600190a16141986040805190810160405280600c81526020017f576f6c6672616d416c70686100000000000000000000000000000000000000008152506040805190810160405280600f81526020017f342072616e646f6d206e756d62657200000000000000000000000000000000008152506008546143b0565b60009081526033602052604090208054600160a060020a031916600160a060020a03939093169290921790915550565b600b54600160a060020a031615806141f25750600b546141f090600160a060020a0316615848565b155b1561420357614201600061584c565b505b600b60009054906101000a9004600160a060020a0316600160a060020a03166338cc48316040518163ffffffff1660e060020a028152600401602060405180830381600087803b15801561425657600080fd5b505af115801561426a573d6000803e3d6000fd5b505050506040513d602081101561428057600080fd5b5051600c54600160a060020a0390811691161461433657600b60009054906101000a9004600160a060020a0316600160a060020a03166338cc48316040518163ffffffff1660e060020a028152600401602060405180830381600087803b1580156142ea57600080fd5b505af11580156142fe573d6000803e3d6000fd5b505050506040513d602081101561431457600080fd5b5051600c8054600160a060020a031916600160a060020a039092169190911790555b600c54604080517fca6ad1e4000000000000000000000000000000000000000000000000000000008152600481018490529051600160a060020a039092169163ca6ad1e49160248082019260009290919082900301818387803b15801561439c57600080fd5b505af115801561255e573d6000803e3d6000fd5b600b546000908190600160a060020a031615806143df5750600b546143dd90600160a060020a0316615848565b155b156143f0576143ee600061584c565b505b600b60009054906101000a9004600160a060020a0316600160a060020a03166338cc48316040518163ffffffff1660e060020a028152600401602060405180830381600087803b15801561444357600080fd5b505af1158015614457573d6000803e3d6000fd5b505050506040513d602081101561446d57600080fd5b5051600c54600160a060020a0390811691161461452357600b60009054906101000a9004600160a060020a0316600160a060020a03166338cc48316040518163ffffffff1660e060020a028152600401602060405180830381600087803b1580156144d757600080fd5b505af11580156144eb573d6000803e3d6000fd5b505050506040513d602081101561450157600080fd5b5051600c8054600160a060020a031916600160a060020a039092169190911790555b600c54604080517f2ef3accc0000000000000000000000000000000000000000000000000000000081526024810186905260048101918252875160448201528751600160a060020a0390931692632ef3accc9289928892829160640190602086019080838360005b838110156145a357818101518382015260200161458b565b50505050905090810190601f1680156145d05780820380516001836020036101000a031916815260200191505b509350505050602060405180830381600087803b1580156145f057600080fd5b505af1158015614604573d6000803e3d6000fd5b505050506040513d602081101561461a57600080fd5b50519050670de0b6b3a76400003a84020181111561463b57600091506147ad565b600c546040517fc51be90f00000000000000000000000000000000000000000000000000000000815260006004820181815260648301879052608060248401908152895160848501528951600160a060020a039095169463c51be90f948794938c938c938c93604481019160a49091019060208801908083838c5b838110156146ce5781810151838201526020016146b6565b50505050905090810190601f1680156146fb5780820380516001836020036101000a031916815260200191505b50838103825285518152855160209182019187019080838360005b8381101561472e578181015183820152602001614716565b50505050905090810190601f16801561475b5780820380516001836020036101000a031916815260200191505b5096505050505050506020604051808303818588803b15801561477d57600080fd5b505af1158015614791573d6000803e3d6000fd5b50505050506040513d60208110156147a857600080fd5b505191505b509392505050565b600b54600090600160a060020a031615806147e25750600b546147e090600160a060020a0316615848565b155b156147f3576147f1600061584c565b505b600b60009054906101000a9004600160a060020a0316600160a060020a03166338cc48316040518163ffffffff1660e060020a028152600401602060405180830381600087803b15801561484657600080fd5b505af115801561485a573d6000803e3d6000fd5b505050506040513d602081101561487057600080fd5b5051600c54600160a060020a0390811691161461492657600b60009054906101000a9004600160a060020a0316600160a060020a03166338cc48316040518163ffffffff1660e060020a028152600401602060405180830381600087803b1580156148da57600080fd5b505af11580156148ee573d6000803e3d6000fd5b505050506040513d602081101561490457600080fd5b5051600c8054600160a060020a031916600160a060020a039092169190911790555b600c60009054906101000a9004600160a060020a0316600160a060020a031663c281d19e6040518163ffffffff1660e060020a028152600401602060405180830381600087803b15801561497957600080fd5b505af115801561498d573d6000803e3d6000fd5b505050506040513d60208110156149a357600080fd5b5051905090565b60006149b7826000615856565b92915050565b60408051600160a060020a03831660009081526031602090815290839020805460026001821615610100026000190190911604601f8101839004909202830160a090810190945260808301828152929384939290840182828015614a625780601f10614a3757610100808354040283529160200191614a62565b820191906000526020600020905b815481529060010190602001808311614a4557829003601f168201915b505050505081526020016031600084600160a060020a0316600160a060020a031681526020019081526020016000206001018054600181600116156101000203166002900480601f016020809104026020016040519081016040528092919081815260200182805460018160011615610100020316600290048015614b285780601f10614afd57610100808354040283529160200191614b28565b820191906000526020600020905b815481529060010190602001808311614b0b57829003601f168201915b5050509183525050600160a060020a038316600090815260316020908152604091829020600201549083015260105491015260115460159060078110614b6a57fe5b600402016000820151816000019080519060200190614b8a929190615f81565b506020828101518051614ba39260018501920190615f81565b50604082810151600280840191909155606090930151600390920191909155601180546001019055600160a060020a0383166000908152603160209081529082902090920154815190815290517fec2692b386f7e992f219e405f018eeaf8da1b95736760596812e564f2e709cfd929181900390910190a150565b60408051600160a060020a03831660009081526031602090815283822080546002600180831615610100026000190190921604601f8101849004909302850160c090810190965260a0850183815293959094601494909384939192840182828015614cca5780601f10614c9f57610100808354040283529160200191614cca565b820191906000526020600020905b815481529060010190602001808311614cad57829003601f168201915b505050505081526020016031600087600160a060020a0316600160a060020a031681526020019081526020016000206001018054600181600116156101000203166002900480601f016020809104026020016040519081016040528092919081815260200182805460018160011615610100020316600290048015614d905780601f10614d6557610100808354040283529160200191614d90565b820191906000526020600020905b815481529060010190602001808311614d7357829003601f168201915b5050509183525050600160a060020a038616600081815260316020908152604080832060020154828601528401929092526010546060909301929092528354600181018086559483529181902083518051600590940290910192614df79284920190615f81565b506020828101518051614e109260018501920190615f81565b50604082015160028201556060820151600382018054600160a060020a031916600160a060020a03909216919091179055608090910151600490910155039050611c21816122f1565b600082821115614e6557fe5b50900390565b604080518082018252600c81527f286d6f642828312f2831305e000000000000000000000000000000000000000060208083019190915260028054845160018216156101000260001901909116829004601f810184900484028201840190955284815260609485946150429490939190830182828015614f2c5780601f10614f0157610100808354040283529160200191614f2c565b820191906000526020600020905b815481529060010190602001808311614f0f57829003601f168201915b505060408051808201825260018082527f2d00000000000000000000000000000000000000000000000000000000000000602080840191909152600160a060020a038d1660009081526031825284902080548551600294821615610100026000190190911693909304601f81018390048302840183019095528483529296509094509092508301828280156150025780601f10614fd757610100808354040283529160200191615002565b820191906000526020600020905b815481529060010190602001808311614fe557829003601f168201915b50505050506040805190810160405280600681526020017f29292a31305e00000000000000000000000000000000000000000000000000008152506159c8565b60038054604080516020601f600260001961010060018816150201909516949094049384018190048102820181019092528281529394506151d6938593909290918301828280156150d45780601f106150a9576101008083540402835291602001916150d4565b820191906000526020600020905b8154815290600101906020018083116150b757829003601f168201915b5050604080518082018252600581527f2c31305e2800000000000000000000000000000000000000000000000000000060208083019190915260048054845160026001831615610100026000190190921691909104601f81018490048402820184019095528481529296509194509092508301828280156151965780601f1061516b57610100808354040283529160200191615196565b820191906000526020600020905b81548152906001019060200180831161517957829003601f168201915b50505050506040805190810160405280600181526020017f2b000000000000000000000000000000000000000000000000000000000000008152506159c8565b9050615397816031600086600160a060020a0316600160a060020a031681526020019081526020016000206001018054600181600116156101000203166002900480601f0160208091040260200160405190810160405280929190818152602001828054600181600116156101000203166002900480156152985780601f1061526d57610100808354040283529160200191615298565b820191906000526020600020905b81548152906001019060200180831161527b57829003601f168201915b5050604080518082018252600e81527f29292d6d6f642828312f2831305e00000000000000000000000000000000000060208083019190915260028054845160018216156101000260001901909116829004601f81018490048402820184019095528481529296509194509092508301828280156153575780601f1061532c57610100808354040283529160200191615357565b820191906000526020600020905b81548152906001019060200180831161533a57829003601f168201915b50505050506040805190810160405280600181526020017f2d000000000000000000000000000000000000000000000000000000000000008152506159c8565b600160a060020a03841660009081526031602090815260409182902080548351601f6002600019610100600186161502019093169290920491820184900484028101840190945280845293945061553e9385939283018282801561543c5780601f106154115761010080835404028352916020019161543c565b820191906000526020600020905b81548152906001019060200180831161541f57829003601f168201915b5050604080518082018252600681527f29292a31305e000000000000000000000000000000000000000000000000000060208083019190915260038054845160026001831615610100026000190190921691909104601f81018490048402820184019095528481529296509194509092508301828280156154fe5780601f106154d3576101008083540402835291602001916154fe565b820191906000526020600020905b8154815290600101906020018083116154e157829003601f168201915b50505050506040805190810160405280600481526020017f2c31305e000000000000000000000000000000000000000000000000000000008152506159c8565b60408051808201825260018082527f2800000000000000000000000000000000000000000000000000000000000000602080840191909152600160a060020a038816600090815260318252849020820180548551600294821615610100026000190190911693909304601f81018390048302840183019095528483529495506156f994869490918301828280156156165780601f106155eb57610100808354040283529160200191615616565b820191906000526020600020905b8154815290600101906020018083116155f957829003601f168201915b5050604080518082018252600781527f2929292f31305e00000000000000000000000000000000000000000000000000602080830191909152600160a060020a038d16600090815260318252839020600190810180548551600293821615610100026000190190911692909204601f810184900484028301840190955284825292965094509092508301828280156156ef5780601f106156c4576101008083540402835291602001916156ef565b820191906000526020600020905b8154815290600101906020018083116156d257829003601f168201915b50505050506159c8565b90507f261af219212047633bb60c8d0cc7e33d217c38edf6fa7e53acb97a3f94180de5816040518080602001828103825283818151815260200191508051906020019080838360005b8381101561575a578181015183820152602001615742565b50505050905090810190601f1680156157875780820380516001836020036101000a031916815260200191505b509250505060405180910390a192915050565b600160a060020a03811615156157af57600080fd5b60008054604051600160a060020a03808516939216917f8be0079c531659141344cd1fd0a4f28419497f9722a3daafe3b4186f6b6457e091a360008054600160a060020a031916600160a060020a0392909216919091179055565b600082151561581b575060006149b7565b5081810281838281151561582b57fe5b04146149b757fe5b6000818381151561584057fe5b049392505050565b3b90565b60006149b7615c29565b6000828180805b83518110156159ab5783517f30000000000000000000000000000000000000000000000000000000000000009085908390811061589657fe5b90602001015160f860020a900460f860020a02600160f860020a0319161015801561590c575083517f3900000000000000000000000000000000000000000000000000000000000000908590839081106158ec57fe5b90602001015160f860020a900460f860020a02600160f860020a03191611155b1561596557811561592b57851515615923576159ab565b600019909501945b600a830292506030848281518110151561594157fe5b90602001015160f860020a900460f860020a0260f860020a900403830192506159a3565b838181518110151561597357fe5b90602001015160f860020a900460f860020a02600160f860020a031916602e60f860020a0214156159a357600191505b60010161585d565b60008611156159bd5785600a0a830292505b509095945050505050565b6060806060806060806060806000808e98508d97508c96508b95508a94508451865188518a518c51010101016040519080825280601f01601f191660200182016040528015615a21578160200160208202803883390190505b50935083925060009150600090505b8851811015615a8e578881815181101515615a4757fe5b90602001015160f860020a900460f860020a028383806001019450815181101515615a6e57fe5b906020010190600160f860020a031916908160001a905350600101615a30565b5060005b8751811015615af0578781815181101515615aa957fe5b90602001015160f860020a900460f860020a028383806001019450815181101515615ad057fe5b906020010190600160f860020a031916908160001a905350600101615a92565b5060005b8651811015615b52578681815181101515615b0b57fe5b90602001015160f860020a900460f860020a028383806001019450815181101515615b3257fe5b906020010190600160f860020a031916908160001a905350600101615af4565b5060005b8551811015615bb4578581815181101515615b6d57fe5b90602001015160f860020a900460f860020a028383806001019450815181101515615b9457fe5b906020010190600160f860020a031916908160001a905350600101615b56565b5060005b8451811015615c16578481815181101515615bcf57fe5b90602001015160f860020a900460f860020a028383806001019450815181101515615bf657fe5b906020010190600160f860020a031916908160001a905350600101615bb8565b50909d9c50505050505050505050505050565b600080615c49731d3b2638a7cc9f2cb3d298a3da7a90b67e5506ed615848565b1115615cb957600b8054600160a060020a031916731d3b2638a7cc9f2cb3d298a3da7a90b67e5506ed178155604080518082019091529081527f6574685f6d61696e6e65740000000000000000000000000000000000000000006020820152615cb190615f4f565b506001613898565b6000615cd873c03a2615d5efaf5f49f60b7bb6583eaec212fdf1615848565b1115615d4157600b8054600160a060020a03191673c03a2615d5efaf5f49f60b7bb6583eaec212fdf117905560408051808201909152600c81527f6574685f726f707374656e3300000000000000000000000000000000000000006020820152615cb190615f4f565b6000615d6073b7a07bcf2ba2f2703b24c0691b5278999c59ac7e615848565b1115615dc957600b8054600160a060020a03191673b7a07bcf2ba2f2703b24c0691b5278999c59ac7e17905560408051808201909152600981527f6574685f6b6f76616e00000000000000000000000000000000000000000000006020820152615cb190615f4f565b6000615de873146500cfd35b22e4a392fe0adc06de1a1368ed48615848565b1115615e5057600b8054600160a060020a03191673146500cfd35b22e4a392fe0adc06de1a1368ed48178155604080518082019091529081527f6574685f72696e6b6562790000000000000000000000000000000000000000006020820152615cb190615f4f565b6000615e6f736f485c8bf6fc43ea212e93bbf8ce046c7f1cb475615848565b1115615ea35750600b8054600160a060020a031916736f485c8bf6fc43ea212e93bbf8ce046c7f1cb4751790556001613898565b6000615ec27320e12a1f859b3feae5fb2a0a32c18f5a65555bbf615848565b1115615ef65750600b8054600160a060020a0319167320e12a1f859b3feae5fb2a0a32c18f5a65555bbf1790556001613898565b6000615f157351efaf4c8b3c9afbd5ab9f4bbc82784ab6ef8faa615848565b1115615f495750600b8054600160a060020a0319167351efaf4c8b3c9afbd5ab9f4bbc82784ab6ef8faa1790556001613898565b50600090565b8051611c2190600d906020840190615f81565b60e0604051908101604052806007906020820280388339509192915050565b828054600181600116156101000203166002900490600052602060002090601f016020900481019282601f10615fc257805160ff1916838001178555615fef565b82800160010185558215615fef579182015b82811115615fef578251825591602001919060010190615fd4565b50615ffb9291506160e4565b5090565b60e060405190810160405280600081526020016000600160a060020a0316815260200160008152602001600081526020016000815260200160008152602001600081525090565b608060405190810160405280606081526020016060815260200160008152602001600081525090565b828054600181600116156101000203166002900490600052602060002090601f016020900481019282601f106160a85780548555615fef565b82800160010185558215615fef57600052602060002091601f016020900482015b82811115615fef5782548255916001019190600101906160c9565b61389891905b80821115615ffb57600081556001016160ea56009bc068999fb1a0aac007a9b44ca6322a376441f42706bf5163600bb3d1a731647ecbd54b3baea533cf57ef049f9e04554be6a660d6dacd477488066eedf27beea165627a7a72305820cc5d660b2a2b30b6e4023b8fc91bbfe0d626e350ba99e4ec9c2d38333105c6ff0029",
  "source": "pragma solidity ^0.4.20;\n\nimport \"./Lucky7Store.sol\";\n\ncontract Lucky7Test is Lucky7Store{\n\n    function Lucky7Test() payable{\n    }\n    \n    function insertTestLucky7Numbers() public{\n        lucky7Numbers[0] = Lucky7Number(\"1\",\"2\",10651283657614267398,drawNumber);\n        lucky7Numbers[1] = Lucky7Number(\"1\",\"2\",88052694543136051754,drawNumber);\n        lucky7Numbers[2] = Lucky7Number(\"1\",\"2\",52398723847810031239,drawNumber);\n        lucky7Numbers[3] = Lucky7Number(\"1\",\"2\",90527121997810111570,drawNumber);\n        lucky7Numbers[4] = Lucky7Number(\"1\",\"2\",30481723712938712983,drawNumber);\n        lucky7Numbers[5] = Lucky7Number(\"1\",\"2\",24342359080214091240,drawNumber);\n        lucky7Numbers[6] = Lucky7Number(\"1\",\"2\",75126192741201932912,drawNumber);\n    } \n\n    function() public payable{\n    }\n}\n",
  "sourcePath": "/Users/matiasbarrios/Desktop/Proyecto Consensys/luckyseven/contracts/Lucky7Test.sol",
  "compiler": {
    "name": "solc",
    "version": "0.4.24+commit.e67f0147.Emscripten.clang"
  },
  "schemaVersion": "2.0.1",
  "updatedAt": "2018-08-25T01:06:24.286Z"
}