{
  "contractName": "Lucky7Test",
  "abi": [
    {
      "constant": true,
      "inputs": [],
      "name": "getlucky7Numbers",
      "outputs": [
        {
          "name": "",
          "type": "uint256[7]"
        }
      ],
      "payable": false,
      "stateMutability": "view",
      "type": "function"
    },
    {
      "constant": false,
      "inputs": [],
      "name": "sellGeneratedTicket",
      "outputs": [],
      "payable": true,
      "stateMutability": "payable",
      "type": "function"
    },
    {
      "constant": false,
      "inputs": [
        {
          "name": "_newValue",
          "type": "string"
        }
      ],
      "name": "modifyParameterN",
      "outputs": [],
      "payable": false,
      "stateMutability": "nonpayable",
      "type": "function"
    },
    {
      "constant": true,
      "inputs": [
        {
          "name": "",
          "type": "uint256"
        }
      ],
      "name": "lucky7TicketID",
      "outputs": [
        {
          "name": "",
          "type": "uint256"
        }
      ],
      "payable": false,
      "stateMutability": "view",
      "type": "function"
    },
    {
      "constant": false,
      "inputs": [
        {
          "name": "_newValue",
          "type": "uint256"
        }
      ],
      "name": "setIndexForLucky7Array",
      "outputs": [],
      "payable": false,
      "stateMutability": "nonpayable",
      "type": "function"
    },
    {
      "constant": true,
      "inputs": [
        {
          "name": "",
          "type": "uint256"
        }
      ],
      "name": "lucky7TicketOwner",
      "outputs": [
        {
          "name": "",
          "type": "address"
        }
      ],
      "payable": false,
      "stateMutability": "view",
      "type": "function"
    },
    {
      "constant": false,
      "inputs": [],
      "name": "_orderLucky7Tickets",
      "outputs": [],
      "payable": false,
      "stateMutability": "nonpayable",
      "type": "function"
    },
    {
      "constant": false,
      "inputs": [],
      "name": "sellRandomTicket",
      "outputs": [],
      "payable": true,
      "stateMutability": "payable",
      "type": "function"
    },
    {
      "constant": true,
      "inputs": [],
      "name": "lastThirdPrize",
      "outputs": [
        {
          "name": "",
          "type": "address"
        }
      ],
      "payable": false,
      "stateMutability": "view",
      "type": "function"
    },
    {
      "constant": false,
      "inputs": [
        {
          "name": "_ticketOwner",
          "type": "address"
        }
      ],
      "name": "_askForMuParameter",
      "outputs": [],
      "payable": false,
      "stateMutability": "nonpayable",
      "type": "function"
    },
    {
      "constant": false,
      "inputs": [
        {
          "name": "myid",
          "type": "bytes32"
        },
        {
          "name": "result",
          "type": "string"
        }
      ],
      "name": "__callback",
      "outputs": [],
      "payable": false,
      "stateMutability": "nonpayable",
      "type": "function"
    },
    {
      "constant": true,
      "inputs": [],
      "name": "settingLucky7Numbers",
      "outputs": [
        {
          "name": "",
          "type": "bool"
        }
      ],
      "payable": false,
      "stateMutability": "view",
      "type": "function"
    },
    {
      "constant": false,
      "inputs": [
        {
          "name": "_ticketID",
          "type": "uint256"
        }
      ],
      "name": "_checkForLucky7Ticket",
      "outputs": [],
      "payable": false,
      "stateMutability": "nonpayable",
      "type": "function"
    },
    {
      "constant": true,
      "inputs": [],
      "name": "n",
      "outputs": [
        {
          "name": "",
          "type": "string"
        }
      ],
      "payable": false,
      "stateMutability": "view",
      "type": "function"
    },
    {
      "constant": false,
      "inputs": [
        {
          "name": "myid",
          "type": "bytes32"
        },
        {
          "name": "result",
          "type": "string"
        },
        {
          "name": "proof",
          "type": "bytes"
        }
      ],
      "name": "__callback",
      "outputs": [],
      "payable": false,
      "stateMutability": "nonpayable",
      "type": "function"
    },
    {
      "constant": true,
      "inputs": [
        {
          "name": "",
          "type": "uint256"
        }
      ],
      "name": "lucky7Tickets",
      "outputs": [
        {
          "name": "difference",
          "type": "uint256"
        },
        {
          "name": "owner",
          "type": "address"
        },
        {
          "name": "ticketID",
          "type": "uint256"
        },
        {
          "name": "ticketValue",
          "type": "uint256"
        },
        {
          "name": "lucky7Number",
          "type": "uint256"
        },
        {
          "name": "lucky7NumberID",
          "type": "uint256"
        },
        {
          "name": "drawID",
          "type": "uint256"
        }
      ],
      "payable": false,
      "stateMutability": "view",
      "type": "function"
    },
    {
      "constant": false,
      "inputs": [],
      "name": "toggleLucky7Setting",
      "outputs": [],
      "payable": false,
      "stateMutability": "nonpayable",
      "type": "function"
    },
    {
      "constant": false,
      "inputs": [
        {
          "name": "_newValue",
          "type": "string"
        }
      ],
      "name": "modifyParameterJ",
      "outputs": [],
      "payable": false,
      "stateMutability": "nonpayable",
      "type": "function"
    },
    {
      "constant": false,
      "inputs": [],
      "name": "withdraw",
      "outputs": [],
      "payable": false,
      "stateMutability": "nonpayable",
      "type": "function"
    },
    {
      "constant": true,
      "inputs": [
        {
          "name": "",
          "type": "uint256"
        }
      ],
      "name": "lucky7Numbers",
      "outputs": [
        {
          "name": "mu",
          "type": "string"
        },
        {
          "name": "i",
          "type": "string"
        },
        {
          "name": "ticketValue",
          "type": "uint256"
        },
        {
          "name": "drawID",
          "type": "uint256"
        }
      ],
      "payable": false,
      "stateMutability": "view",
      "type": "function"
    },
    {
      "constant": false,
      "inputs": [],
      "name": "setNewGame",
      "outputs": [],
      "payable": false,
      "stateMutability": "nonpayable",
      "type": "function"
    },
    {
      "constant": false,
      "inputs": [
        {
          "name": "_newAddress",
          "type": "address"
        }
      ],
      "name": "modifyEnterpriseWallet",
      "outputs": [],
      "payable": false,
      "stateMutability": "nonpayable",
      "type": "function"
    },
    {
      "constant": true,
      "inputs": [
        {
          "name": "",
          "type": "address"
        }
      ],
      "name": "userValues",
      "outputs": [
        {
          "name": "mu",
          "type": "string"
        },
        {
          "name": "i",
          "type": "string"
        },
        {
          "name": "ticketValue",
          "type": "uint256"
        },
        {
          "name": "muReady",
          "type": "bool"
        },
        {
          "name": "iReady",
          "type": "bool"
        },
        {
          "name": "userPaidTicket",
          "type": "bool"
        }
      ],
      "payable": false,
      "stateMutability": "view",
      "type": "function"
    },
    {
      "constant": true,
      "inputs": [],
      "name": "b",
      "outputs": [
        {
          "name": "",
          "type": "string"
        }
      ],
      "payable": false,
      "stateMutability": "view",
      "type": "function"
    },
    {
      "constant": true,
      "inputs": [
        {
          "name": "",
          "type": "uint256"
        }
      ],
      "name": "tickets",
      "outputs": [
        {
          "name": "mu",
          "type": "string"
        },
        {
          "name": "i",
          "type": "string"
        },
        {
          "name": "ticketValue",
          "type": "uint256"
        },
        {
          "name": "owner",
          "type": "address"
        },
        {
          "name": "drawID",
          "type": "uint256"
        }
      ],
      "payable": false,
      "stateMutability": "view",
      "type": "function"
    },
    {
      "constant": true,
      "inputs": [],
      "name": "oraclizeGasLimit",
      "outputs": [
        {
          "name": "",
          "type": "uint256"
        }
      ],
      "payable": false,
      "stateMutability": "view",
      "type": "function"
    },
    {
      "constant": true,
      "inputs": [],
      "name": "numberOfLucky7Numbers",
      "outputs": [
        {
          "name": "",
          "type": "uint256"
        }
      ],
      "payable": false,
      "stateMutability": "view",
      "type": "function"
    },
    {
      "constant": true,
      "inputs": [],
      "name": "getlucky7Tickets",
      "outputs": [
        {
          "name": "",
          "type": "uint256[7]"
        }
      ],
      "payable": false,
      "stateMutability": "view",
      "type": "function"
    },
    {
      "constant": false,
      "inputs": [
        {
          "name": "_id",
          "type": "uint256"
        },
        {
          "name": "_mu",
          "type": "string"
        },
        {
          "name": "_i",
          "type": "string"
        },
        {
          "name": "_ticketValue",
          "type": "uint256"
        },
        {
          "name": "_drawNumber",
          "type": "uint256"
        }
      ],
      "name": "insertCustomizedLucky7Number",
      "outputs": [],
      "payable": false,
      "stateMutability": "nonpayable",
      "type": "function"
    },
    {
      "constant": true,
      "inputs": [],
      "name": "lastFirstPrize",
      "outputs": [
        {
          "name": "",
          "type": "address"
        }
      ],
      "payable": false,
      "stateMutability": "view",
      "type": "function"
    },
    {
      "constant": false,
      "inputs": [],
      "name": "renounceOwnership",
      "outputs": [],
      "payable": false,
      "stateMutability": "nonpayable",
      "type": "function"
    },
    {
      "constant": false,
      "inputs": [],
      "name": "generateRandomTicket",
      "outputs": [],
      "payable": true,
      "stateMutability": "payable",
      "type": "function"
    },
    {
      "constant": true,
      "inputs": [],
      "name": "enterpriseWallet",
      "outputs": [
        {
          "name": "",
          "type": "address"
        }
      ],
      "payable": false,
      "stateMutability": "view",
      "type": "function"
    },
    {
      "constant": false,
      "inputs": [],
      "name": "_orderLucky7Numbers",
      "outputs": [],
      "payable": false,
      "stateMutability": "nonpayable",
      "type": "function"
    },
    {
      "constant": false,
      "inputs": [
        {
          "name": "_ticketOwner",
          "type": "address"
        }
      ],
      "name": "_generateTicket",
      "outputs": [],
      "payable": false,
      "stateMutability": "nonpayable",
      "type": "function"
    },
    {
      "constant": false,
      "inputs": [
        {
          "name": "_newValue",
          "type": "uint256"
        }
      ],
      "name": "modifyOraclizeGasLimit",
      "outputs": [],
      "payable": false,
      "stateMutability": "nonpayable",
      "type": "function"
    },
    {
      "constant": false,
      "inputs": [],
      "name": "destroy",
      "outputs": [],
      "payable": false,
      "stateMutability": "nonpayable",
      "type": "function"
    },
    {
      "constant": false,
      "inputs": [
        {
          "name": "_newValue",
          "type": "string"
        }
      ],
      "name": "modifyParameterB",
      "outputs": [],
      "payable": false,
      "stateMutability": "nonpayable",
      "type": "function"
    },
    {
      "constant": true,
      "inputs": [
        {
          "name": "",
          "type": "uint256"
        }
      ],
      "name": "ExactLucky7TicketValue",
      "outputs": [
        {
          "name": "",
          "type": "uint256"
        }
      ],
      "payable": false,
      "stateMutability": "view",
      "type": "function"
    },
    {
      "constant": false,
      "inputs": [
        {
          "name": "_newValue",
          "type": "uint256"
        }
      ],
      "name": "modifyGenerateTicketPrice",
      "outputs": [],
      "payable": false,
      "stateMutability": "nonpayable",
      "type": "function"
    },
    {
      "constant": true,
      "inputs": [
        {
          "name": "",
          "type": "uint256"
        }
      ],
      "name": "ExactLucky7TicketID",
      "outputs": [
        {
          "name": "",
          "type": "uint256"
        }
      ],
      "payable": false,
      "stateMutability": "view",
      "type": "function"
    },
    {
      "constant": true,
      "inputs": [],
      "name": "owner",
      "outputs": [
        {
          "name": "",
          "type": "address"
        }
      ],
      "payable": false,
      "stateMutability": "view",
      "type": "function"
    },
    {
      "constant": false,
      "inputs": [],
      "name": "_generateLucky7Number",
      "outputs": [],
      "payable": false,
      "stateMutability": "nonpayable",
      "type": "function"
    },
    {
      "constant": true,
      "inputs": [],
      "name": "oraclizeCustomGasPrice",
      "outputs": [
        {
          "name": "",
          "type": "uint256"
        }
      ],
      "payable": false,
      "stateMutability": "view",
      "type": "function"
    },
    {
      "constant": true,
      "inputs": [],
      "name": "p",
      "outputs": [
        {
          "name": "",
          "type": "string"
        }
      ],
      "payable": false,
      "stateMutability": "view",
      "type": "function"
    },
    {
      "constant": false,
      "inputs": [
        {
          "name": "_newValue",
          "type": "string"
        }
      ],
      "name": "modifyParameterP",
      "outputs": [],
      "payable": false,
      "stateMutability": "nonpayable",
      "type": "function"
    },
    {
      "constant": true,
      "inputs": [],
      "name": "j",
      "outputs": [
        {
          "name": "",
          "type": "string"
        }
      ],
      "payable": false,
      "stateMutability": "view",
      "type": "function"
    },
    {
      "constant": true,
      "inputs": [],
      "name": "balance",
      "outputs": [
        {
          "name": "",
          "type": "uint256"
        }
      ],
      "payable": false,
      "stateMutability": "view",
      "type": "function"
    },
    {
      "constant": false,
      "inputs": [
        {
          "name": "_mu",
          "type": "string"
        },
        {
          "name": "_i",
          "type": "string"
        },
        {
          "name": "_ticketValue",
          "type": "uint256"
        },
        {
          "name": "_ticketOwner",
          "type": "address"
        },
        {
          "name": "_drawNumber",
          "type": "uint256"
        }
      ],
      "name": "insertCustomizedTicket",
      "outputs": [
        {
          "name": "",
          "type": "uint256"
        }
      ],
      "payable": false,
      "stateMutability": "nonpayable",
      "type": "function"
    },
    {
      "constant": true,
      "inputs": [],
      "name": "initialLucky7TicketPosition",
      "outputs": [
        {
          "name": "",
          "type": "uint256"
        }
      ],
      "payable": false,
      "stateMutability": "view",
      "type": "function"
    },
    {
      "constant": false,
      "inputs": [
        {
          "name": "_newValue",
          "type": "uint256"
        }
      ],
      "name": "modifySellTicketPrice",
      "outputs": [],
      "payable": false,
      "stateMutability": "nonpayable",
      "type": "function"
    },
    {
      "constant": false,
      "inputs": [],
      "name": "_cleanMappings",
      "outputs": [],
      "payable": false,
      "stateMutability": "nonpayable",
      "type": "function"
    },
    {
      "constant": true,
      "inputs": [],
      "name": "indexForLucky7Array",
      "outputs": [
        {
          "name": "",
          "type": "uint256"
        }
      ],
      "payable": false,
      "stateMutability": "view",
      "type": "function"
    },
    {
      "constant": false,
      "inputs": [
        {
          "name": "_newValue",
          "type": "uint256"
        }
      ],
      "name": "modifyNumberOfLucky7Numbers",
      "outputs": [],
      "payable": false,
      "stateMutability": "nonpayable",
      "type": "function"
    },
    {
      "constant": false,
      "inputs": [
        {
          "name": "_newValue",
          "type": "uint256"
        }
      ],
      "name": "modifyOraclizeCustomGasPrice",
      "outputs": [],
      "payable": false,
      "stateMutability": "nonpayable",
      "type": "function"
    },
    {
      "constant": true,
      "inputs": [],
      "name": "generateTicketPrice",
      "outputs": [
        {
          "name": "",
          "type": "uint256"
        }
      ],
      "payable": false,
      "stateMutability": "view",
      "type": "function"
    },
    {
      "constant": true,
      "inputs": [],
      "name": "drawNumber",
      "outputs": [
        {
          "name": "",
          "type": "uint256"
        }
      ],
      "payable": false,
      "stateMutability": "view",
      "type": "function"
    },
    {
      "constant": true,
      "inputs": [],
      "name": "indexForExactLucky7Ticket",
      "outputs": [
        {
          "name": "",
          "type": "uint256"
        }
      ],
      "payable": false,
      "stateMutability": "view",
      "type": "function"
    },
    {
      "constant": false,
      "inputs": [
        {
          "name": "_ticketOwner",
          "type": "address"
        }
      ],
      "name": "_askForTicket",
      "outputs": [],
      "payable": false,
      "stateMutability": "nonpayable",
      "type": "function"
    },
    {
      "constant": true,
      "inputs": [],
      "name": "sellTicketPrice",
      "outputs": [
        {
          "name": "",
          "type": "uint256"
        }
      ],
      "payable": false,
      "stateMutability": "view",
      "type": "function"
    },
    {
      "constant": true,
      "inputs": [
        {
          "name": "",
          "type": "uint256"
        }
      ],
      "name": "lucky7TicketDifference",
      "outputs": [
        {
          "name": "",
          "type": "uint256"
        }
      ],
      "payable": false,
      "stateMutability": "view",
      "type": "function"
    },
    {
      "constant": true,
      "inputs": [
        {
          "name": "",
          "type": "uint256"
        }
      ],
      "name": "ExactLucky7TicketOwner",
      "outputs": [
        {
          "name": "",
          "type": "address"
        }
      ],
      "payable": false,
      "stateMutability": "view",
      "type": "function"
    },
    {
      "constant": true,
      "inputs": [],
      "name": "lastSecondPrize",
      "outputs": [
        {
          "name": "",
          "type": "address"
        }
      ],
      "payable": false,
      "stateMutability": "view",
      "type": "function"
    },
    {
      "constant": false,
      "inputs": [
        {
          "name": "_newOwner",
          "type": "address"
        }
      ],
      "name": "transferOwnership",
      "outputs": [],
      "payable": false,
      "stateMutability": "nonpayable",
      "type": "function"
    },
    {
      "constant": true,
      "inputs": [
        {
          "name": "",
          "type": "address"
        }
      ],
      "name": "pendingWithdrawals",
      "outputs": [
        {
          "name": "",
          "type": "uint256"
        }
      ],
      "payable": false,
      "stateMutability": "view",
      "type": "function"
    },
    {
      "constant": false,
      "inputs": [],
      "name": "_deliverPrizes",
      "outputs": [],
      "payable": false,
      "stateMutability": "nonpayable",
      "type": "function"
    },
    {
      "constant": false,
      "inputs": [
        {
          "name": "_recipient",
          "type": "address"
        }
      ],
      "name": "destroyAndSend",
      "outputs": [],
      "payable": false,
      "stateMutability": "nonpayable",
      "type": "function"
    },
    {
      "constant": true,
      "inputs": [],
      "name": "currentTicketID",
      "outputs": [
        {
          "name": "",
          "type": "uint256"
        }
      ],
      "payable": false,
      "stateMutability": "view",
      "type": "function"
    },
    {
      "constant": false,
      "inputs": [
        {
          "name": "_ticketOwner",
          "type": "address"
        }
      ],
      "name": "_askForIParameter",
      "outputs": [],
      "payable": false,
      "stateMutability": "nonpayable",
      "type": "function"
    },
    {
      "inputs": [],
      "payable": true,
      "stateMutability": "payable",
      "type": "constructor"
    },
    {
      "payable": true,
      "stateMutability": "payable",
      "type": "fallback"
    },
    {
      "anonymous": false,
      "inputs": [
        {
          "indexed": false,
          "name": "description",
          "type": "string"
        }
      ],
      "name": "NewOraclizeQuery",
      "type": "event"
    },
    {
      "anonymous": false,
      "inputs": [
        {
          "indexed": false,
          "name": "muParameter",
          "type": "string"
        }
      ],
      "name": "NewMuReceived",
      "type": "event"
    },
    {
      "anonymous": false,
      "inputs": [
        {
          "indexed": false,
          "name": "iParameter",
          "type": "string"
        }
      ],
      "name": "NewIReceived",
      "type": "event"
    },
    {
      "anonymous": false,
      "inputs": [
        {
          "indexed": false,
          "name": "newTicket",
          "type": "string"
        }
      ],
      "name": "NewTicketReceived",
      "type": "event"
    },
    {
      "anonymous": false,
      "inputs": [
        {
          "indexed": false,
          "name": "description",
          "type": "string"
        }
      ],
      "name": "NewWolframQuery",
      "type": "event"
    },
    {
      "anonymous": false,
      "inputs": [
        {
          "indexed": false,
          "name": "ticketID",
          "type": "uint256"
        }
      ],
      "name": "NewLucky7Ticket",
      "type": "event"
    },
    {
      "anonymous": false,
      "inputs": [
        {
          "indexed": false,
          "name": "value",
          "type": "uint256"
        }
      ],
      "name": "NewLucky7Number",
      "type": "event"
    },
    {
      "anonymous": false,
      "inputs": [
        {
          "indexed": false,
          "name": "describe",
          "type": "string"
        },
        {
          "indexed": false,
          "name": "_oldValue",
          "type": "uint256"
        },
        {
          "indexed": false,
          "name": "_newValue",
          "type": "uint256"
        }
      ],
      "name": "numberModified",
      "type": "event"
    },
    {
      "anonymous": false,
      "inputs": [
        {
          "indexed": false,
          "name": "describe",
          "type": "string"
        },
        {
          "indexed": false,
          "name": "_oldValue",
          "type": "string"
        },
        {
          "indexed": false,
          "name": "_newValue",
          "type": "string"
        }
      ],
      "name": "parameterModified",
      "type": "event"
    },
    {
      "anonymous": false,
      "inputs": [
        {
          "indexed": false,
          "name": "describe",
          "type": "string"
        },
        {
          "indexed": false,
          "name": "_oldValue",
          "type": "address"
        },
        {
          "indexed": false,
          "name": "_newValue",
          "type": "address"
        }
      ],
      "name": "walletModified",
      "type": "event"
    },
    {
      "anonymous": false,
      "inputs": [
        {
          "indexed": true,
          "name": "previousOwner",
          "type": "address"
        }
      ],
      "name": "OwnershipRenounced",
      "type": "event"
    },
    {
      "anonymous": false,
      "inputs": [
        {
          "indexed": true,
          "name": "previousOwner",
          "type": "address"
        },
        {
          "indexed": true,
          "name": "newOwner",
          "type": "address"
        }
      ],
      "name": "OwnershipTransferred",
      "type": "event"
    },
    {
      "constant": false,
      "inputs": [],
      "name": "insertTestLucky7Numbers",
      "outputs": [],
      "payable": false,
      "stateMutability": "nonpayable",
      "type": "function"
    }
  ],
  "bytecode": "0x60c0604052600160808190527f310000000000000000000000000000000000000000000000000000000000000060a09081526200003e919081620001cc565b506040805180820190915260018082527f380000000000000000000000000000000000000000000000000000000000000060209092019182526200008591600291620001cc565b506040805180820190915260058082527f31303030300000000000000000000000000000000000000000000000000000006020909201918252620000cc91600391620001cc565b506040805180820190915260028082527f323000000000000000000000000000000000000000000000000000000000000060209092019182526200011391600491620001cc565b50600760058190556611c37937e08000600655662aa1efb94e00009055620493e060085563ee6b280060095560008054600a8054600160a060020a0319908116600160a060020a038416179091556010805460ff191660011790556039839055603a839055603b839055603c839055603d839055603e805482169055603f80548216905560408054821690559081163317909155600b8054909116736f485c8bf6fc43ea212e93bbf8ce046c7f1cb47517905562000271565b828054600181600116156101000203166002900490600052602060002090601f016020900481019282601f106200020f57805160ff19168380011785556200023f565b828001600101855582156200023f579182015b828111156200023f57825182559160200191906001019062000222565b506200024d92915062000251565b5090565b6200026e91905b808211156200024d576000815560010162000258565b90565b61652380620002816000396000f30060806040526004361061031e5763ffffffff60e060020a60003504166301591f1381146103205780630b8ec7401461036d5780630cc38b2b146103755780630ef30985146103ce57806310cd4b8a146103e35780631827f45d1461040d5780631c3ed1d3146104255780631cf4c3d1146104595780631ded3bec1461046e5780631faae09f1461047657806323d370ba1461048b57806327dc297e146104ac5780632caf9eee1461050a5780632de729eb146105335780632e52d6061461054b57806338bbfa50146105d5578063396fb4221461067157806339df3f4f146106c95780633bb7daf4146106de5780633ccfd60b146107375780633eba34661461074c578063400149111461085057806349f6b030146108655780634acfd9b8146108865780634df7e3d0146109a557806350b44712146109ba57806350b9c42814610acd57806359f9fe8214610ae25780635edbc36b14610af75780635fff9ae314610b0c5780636982820614610bb1578063715018a614610bc657806372c3477d14610bdb578063741606b514610be357806375edd25714610bf857806377d8a83014610c0d578063809fc15314610c2e57806383197ef014610c4657806383bb7bb714610c5b5780638a1dd74014610cb45780638aa5fafa14610ccc5780638ce3da3c14610ce45780638da5cb5b14610cfc57806390c31c4c14610d115780639ac2bf9114610d265780639ae8886a14610d3b5780639dec38ab14610d50578063b582ec5f14610da9578063b69ef8a814610dbe578063bb4127e814610dd3578063bb49516b14610e7f578063bcb740ab14610e94578063c53d6e4714610eac578063c56969ab14610ec1578063c71f04ac14610ed6578063d383e86214610eee578063d566bcf014610f06578063d80ffb2014610f1b578063d84ca03a14610f30578063ddc110fa14610f45578063e5663c4814610f66578063e802ae1414610f7b578063eaaa680a14610f93578063ef1f460614610fab578063f2fde38b14610fc0578063f3f4370314610fe1578063f405228914611002578063f5074f4114611017578063f53c7d0814611038578063fd9be1b21461104d575b005b34801561032c57600080fd5b5061033561106e565b604051808260e080838360005b8381101561035a578181015183820152602001610342565b5050505090500191505060405180910390f35b61031e6110e5565b34801561038157600080fd5b506040805160206004803580820135601f810184900484028501840190955284845261031e9436949293602493928401919081908401838280828437509497506112a19650505050505050565b3480156103da57600080fd5b5061031e611486565b3480156103ef57600080fd5b506103fb60043561190e565b60408051918252519081900360200190f35b34801561041957600080fd5b5061031e600435611920565b34801561043157600080fd5b5061043d60043561193c565b60408051600160a060020a039092168252519081900360200190f35b34801561046557600080fd5b5061031e611957565b61031e611d2b565b34801561048257600080fd5b5061043d611d9a565b34801561049757600080fd5b5061031e600160a060020a0360043516611da9565b3480156104b857600080fd5b5060408051602060046024803582810135601f810185900485028601850190965285855261031e958335953695604494919390910191908190840183828082843750949750611ebb9650505050505050565b34801561051657600080fd5b5061051f61246c565b604080519115158252519081900360200190f35b34801561053f57600080fd5b5061031e600435612475565b34801561055757600080fd5b506105606127d5565b6040805160208082528351818301528351919283929083019185019080838360005b8381101561059a578181015183820152602001610582565b50505050905090810190601f1680156105c75780820380516001836020036101000a031916815260200191505b509250505060405180910390f35b3480156105e157600080fd5b5060408051602060046024803582810135601f810185900485028601850190965285855261031e95833595369560449491939091019190819084018382808284375050604080516020601f89358b018035918201839004830284018301909452808352979a9998810197919650918201945092508291508401838280828437509497506128609650505050505050565b34801561067d57600080fd5b50610689600435612865565b60408051978852600160a060020a039096166020880152868601949094526060860192909252608085015260a084015260c0830152519081900360e00190f35b3480156106d557600080fd5b5061031e6128bc565b3480156106ea57600080fd5b506040805160206004803580820135601f810184900484028501840190955284845261031e9436949293602493928401919081908401838280828437509497506128e79650505050505050565b34801561074357600080fd5b5061031e612a2d565b34801561075857600080fd5b50610764600435612a6e565b604051808060200180602001858152602001848152602001838103835287818151815260200191508051906020019080838360005b838110156107b1578181015183820152602001610799565b50505050905090810190601f1680156107de5780820380516001836020036101000a031916815260200191505b50838103825286518152865160209182019188019080838360005b838110156108115781810151838201526020016107f9565b50505050905090810190601f16801561083e5780820380516001836020036101000a031916815260200191505b50965050505050505060405180910390f35b34801561085c57600080fd5b5061031e612bba565b34801561087157600080fd5b5061031e600160a060020a0360043516612c0c565b34801561089257600080fd5b506108a7600160a060020a0360043516612cbb565b604080519081018590528315156060820152821515608082015281151560a082015260c08082528751908201528651819060208083019160e08401918b019080838360005b838110156109045781810151838201526020016108ec565b50505050905090810190601f1680156109315780820380516001836020036101000a031916815260200191505b5083810382528851815288516020918201918a019080838360005b8381101561096457818101518382015260200161094c565b50505050905090810190601f1680156109915780820380516001836020036101000a031916815260200191505b509850505050505050505060405180910390f35b3480156109b157600080fd5b50610560612e1b565b3480156109c657600080fd5b506109d2600435612e75565b60408051908101849052600160a060020a03831660608201526080810182905260a08082528651908201528551819060208083019160c08401918a019080838360005b83811015610a2d578181015183820152602001610a15565b50505050905090810190601f168015610a5a5780820380516001836020036101000a031916815260200191505b50838103825287518152875160209182019189019080838360005b83811015610a8d578181015183820152602001610a75565b50505050905090810190601f168015610aba5780820380516001836020036101000a031916815260200191505b5097505050505050505060405180910390f35b348015610ad957600080fd5b506103fb612fe2565b348015610aee57600080fd5b506103fb612fe8565b348015610b0357600080fd5b50610335612fee565b348015610b1857600080fd5b5060408051602060046024803582810135601f810185900485028601850190965285855261031e95833595369560449491939091019190819084018382808284375050604080516020601f89358b018035918201839004830284018301909452808352979a9998810197919650918201945092508291508401838280828437509497505084359550505060209092013591506130929050565b348015610bbd57600080fd5b5061043d61312e565b348015610bd257600080fd5b5061031e61313d565b61031e61319c565b348015610bef57600080fd5b5061043d6131ea565b348015610c0457600080fd5b5061031e6131f9565b348015610c1957600080fd5b5061031e600160a060020a0360043516613635565b348015610c3a57600080fd5b5061031e600435613647565b348015610c5257600080fd5b5061031e6136c8565b348015610c6757600080fd5b506040805160206004803580820135601f810184900484028501840190955284845261031e9436949293602493928401919081908401838280828437509497506136ed9650505050505050565b348015610cc057600080fd5b506103fb600435613832565b348015610cd857600080fd5b5061031e600435613844565b348015610cf057600080fd5b506103fb6004356138c5565b348015610d0857600080fd5b5061043d6138d7565b348015610d1d57600080fd5b5061031e6138e6565b348015610d3257600080fd5b506103fb613947565b348015610d4757600080fd5b5061056061394d565b348015610d5c57600080fd5b506040805160206004803580820135601f810184900484028501840190955284845261031e9436949293602493928401919081908401838280828437509497506139a89650505050505050565b348015610db557600080fd5b50610560613aee565b348015610dca57600080fd5b506103fb613b49565b348015610ddf57600080fd5b506040805160206004803580820135601f81018490048402850184019095528484526103fb94369492936024939284019190819084018382808284375050604080516020601f89358b018035918201839004830284018301909452808352979a99988101979196509182019450925082915084018382808284375094975050843595505050506020820135600160a060020a031691604001359050613b4f565b348015610e8b57600080fd5b506103fb613c50565b348015610ea057600080fd5b5061031e600435613c56565b348015610eb857600080fd5b5061031e613cd7565b348015610ecd57600080fd5b506103fb613e42565b348015610ee257600080fd5b5061031e600435613e48565b348015610efa57600080fd5b5061031e600435613ec9565b348015610f1257600080fd5b506103fb613f70565b348015610f2757600080fd5b506103fb613f76565b348015610f3c57600080fd5b506103fb613f7c565b348015610f5157600080fd5b5061031e600160a060020a0360043516613f82565b348015610f7257600080fd5b506103fb614069565b348015610f8757600080fd5b506103fb60043561406f565b348015610f9f57600080fd5b5061043d600435614081565b348015610fb757600080fd5b5061043d61409c565b348015610fcc57600080fd5b5061031e600160a060020a03600435166140ab565b348015610fed57600080fd5b506103fb600160a060020a03600435166140cb565b34801561100e57600080fd5b5061031e6140dd565b34801561102357600080fd5b5061031e600160a060020a03600435166144de565b34801561104457600080fd5b506103fb614501565b34801561105957600080fd5b5061031e600160a060020a0360043516614507565b61107661631b565b6000805b6005548110156110b1576013816007811061109157fe5b600402016002015482826007811015156110a757fe5b015560010161107a565b6040805160e081019182905290839060079082845b8154815260200190600101908083116110c65750505050509250505090565b60075433903410156110f657600080fd5b600160a060020a0381166000908152602f60205260409020600301805462ff000019166201000017905560105460ff161561113057600080fd5b60408051336000908152602f6020529190912080547fc5d2460186f7233c927e7db2dcc703c0e500b653ca82273b7bfad8045d85a4709290819083906002610100600183161502600019019091160480156111c25780601f106111a05761010080835404028352918201916111c2565b820191906000526020600020905b8154815290600101906020018083116111ae575b50509150506040518091039020600019161415801561128a575060408051336000908152602f60205291909120600190810180547fc5d2460186f7233c927e7db2dcc703c0e500b653ca82273b7bfad8045d85a4709391928291849160026101009183161591909102600019019091160480156112765780601f10611254576101008083540402835291820191611276565b820191906000526020600020905b815481529060010190602001808311611262575b505091505060405180910390206000191614155b151561129557600080fd5b61129e33613f82565b50565b600054606090600160a060020a031633146112bb57600080fd5b6002805460408051602060018416156101000260001901909316849004601f8101849004840282018401909252818152929183018282801561133e5780601f106113135761010080835404028352916020019161133e565b820191906000526020600020905b81548152906001019060200180831161132157829003601f168201915b5050855193945061135a9360029350602087019250905061633a565b506000805160206164d8833981519152818360405180806020018060200180602001848103845260148152602001807f506172616d65746572206e206d6f646966696564000000000000000000000000815250602001848103835286818151815260200191508051906020019080838360005b838110156113e55781810151838201526020016113cd565b50505050905090810190601f1680156114125780820380516001836020036101000a031916815260200191505b50848103825285518152855160209182019187019080838360005b8381101561144557818101518382015260200161142d565b50505050905090810190601f1680156114725780820380516001836020036101000a031916815260200191505b509550505050505060405180910390a15050565b6040805160c08101825260016080820181815260f860020a60310260a084015282528251808401845290815260f960020a601902602080830191909152808301919091526793d0f60dbe0594069282019290925260395460608201528051805191926013926114f8928492019061633a565b506020828101518051611511926001850192019061633a565b506040828101516002830155606092830151600390920191909155805160c08101825260016080820181815260f860020a60310260a084015282528251808401845290815260f960020a601902602082810191909152808301919091526804c5fa0329ef99d22a92820192909252603954928101929092528151805160179261159e92849291019061633a565b5060208281015180516115b7926001850192019061633a565b506040828101516002830155606092830151600390920191909155805160c08101825260016080820181815260f860020a60310260a084015282528251808401845290815260f960020a601902602082810191909152808301919091526802d72da9b820819e87928201929092526039549281019290925281518051601b9261164492849291019061633a565b50602082810151805161165d926001850192019061633a565b506040828101516002830155606092830151600390920191909155805160c08101825260016080820181815260f860020a60310260a084015282528251808401845290815260f960020a601902602082810191909152808301919091526804e850f1d2e1ec1452928201929092526039549281019290925281518051601f926116ea92849291019061633a565b506020828101518051611703926001850192019061633a565b506040828101516002830155606092830151600390920191909155805160c08101825260016080820181815260f860020a60310260a084015282528251808401845290815260f960020a601902602082810191909152808301919091526801a704d637c3501f9792820192909252603954928101929092528151805160239261179092849291019061633a565b5060208281015180516117a9926001850192019061633a565b506040828101516002830155606092830151600390920191909155805160c08101825260016080820181815260f860020a60310260a084015282528251808401845290815260f960020a60190260208281019190915280830191909152680151d16e9cb32a55e892820192909252603954928101929092528151805160279261183692849291019061633a565b50602082810151805161184f926001850192019061633a565b506040828101516002830155606092830151600390920191909155805160c08101825260016080820181815260f860020a60310260a084015282528251808401845290815260f960020a6019026020828101919091528083019190915268041295da4332def270928201929092526039549281019290925281518051602b926118dc92849291019061633a565b5060208281015180516118f5926001850192019061633a565b5060408201516002820155606090910151600390910155565b60356020526000908152604090205481565b600054600160a060020a0316331461193757600080fd5b603a55565b603460205260009081526040902054600160a060020a031681565b61195f6163b8565b6000805481908190600160a060020a0316331461197b57600080fd5b5060005b600554811015611aa9576040805160e0810182526000838152603360209081528382205483528482526034815283822054600160a060020a03168184015284825260358082528483205494840185905291859052526012805460119360608401929181106119e957fe5b9060005260206000209060050201600201548152602001601384600781101515611a0f57fe5b600490810291909101600290810154835260208084018790526039546040948501528554600180820188556000978852968290208651600790920201908155908501518187018054600160a060020a031916600160a060020a0390921691909117905592840151908301556060830151600383015560808301519082015560a0820151600582015560c0909101516006909101550161197f565b50603c545b603c5460055401811015611d2557809250601181815481101515611ace57fe5b60009182526020918290206040805160e081018252600790930290910180548352600180820154600160a060020a0316948401949094526002810154918301919091526003810154606083015260048101546080830152600581015460a08301526006015460c08201529450810191505b603c5460055401821015611bfd576011805483908110611b5b57fe5b600091825260209091206007909102015484511115611bf2576011805483908110611b8257fe5b60009182526020918290206040805160e0810182526007909302909101805483526001810154600160a060020a0316938301939093526002830154908201526003820154606082015260048201546080820152600582015460a082015260069091015460c0820152935090915081905b600190910190611b3f565b828114611d1d576011805482908110611c1257fe5b9060005260206000209060070201601184815481101515611c2f57fe5b6000918252602090912082546007909202019081556001808301549082018054600160a060020a031916600160a060020a03909216919091179055600280830154908201556003808301549082015560048083015490820155600580830154908201556006918201549101556011805485919083908110611cac57fe5b600091825260209182902083516007929092020190815590820151600182018054600160a060020a031916600160a060020a0390921691909117905560408201516002820155606082015160038201556080820151600482015560a0820151600582015560c0909101516006909101555b600101611aae565b50505050565b6007543390341015611d3c57600080fd5b600160a060020a0381166000908152602f60205260408082206003908101805462ff00001916620100001790553380845291909220909101805461ffff1916905560105460ff1615611d8d57600080fd5b611d9633613635565b5050565b604054600160a060020a031681565b6000611db660095461461b565b604080516020808252808201527f41736b696e6720666f722061206e6577206d7520706172616d657465722e2e2e8183015290517f096835e36c2ccea88ff2b3aca87dfc938b977e52ea656873ff76a8dba50d4d349181900360600190a1611e8b6040805190810160405280600c81526020017f576f6c6672616d416c70686100000000000000000000000000000000000000008152506040805190810160405280600f81526020017f342072616e646f6d206e756d6265720000000000000000000000000000000000815250600854614803565b60009081526030602052604090208054600160a060020a031916600160a060020a03939093169290921790915550565b611ec3614c08565b600160a060020a03163314611ed757600080fd5b600082815260306020526040902054600160a060020a031615801590611f255750600082815260306020908152604080832054600160a060020a03168352602f90915290206003015460ff16155b156120c257600082815260306020908152604080832054600160a060020a03168352602f82529091208251611f5c9284019061633a565b507f6a28dd23c76ba6cc6f4f148a0e2e0e147d8b876cb74ec1e5e2b8e9a8119eb702816040518080602001828103825283818151815260200191508051906020019080838360005b83811015611fbc578181015183820152602001611fa4565b50505050905090810190601f168015611fe95780820380516001836020036101000a031916815260200191505b509250505060405180910390a160008281526030602090815260408083208054600160a060020a039081168552602f9093528184206003908101805460ff191660019081179091559154909316845292200154610100900460ff1615151480156120975750600082815260306020908152604080832054600160a060020a03168352602f90915290206003015460ff6201000090910416151560011480612097575060105460ff1615156001145b156120bd576000828152603060205260409020546120bd90600160a060020a0316613f82565b611d96565b600082815260316020526040902054600160a060020a0316158015906121155750600082815260316020908152604080832054600160a060020a03168352602f909152902060030154610100900460ff16155b156122b057600082815260316020908152604080832054600160a060020a03168352602f825290912082516121529260019092019184019061633a565b507f716a554dec57e3a217a923b974660c0c8ebee07b09b1ac7d4a3a8f328d10cc89816040518080602001828103825283818151815260200191508051906020019080838360005b838110156121b257818101518382015260200161219a565b50505050905090810190601f1680156121df5780820380516001836020036101000a031916815260200191505b509250505060405180910390a160008281526031602090815260408083208054600160a060020a039081168552602f9093528184206003908101805461ff00191661010017905590549092168352909120015460ff161515600114801561228a5750600082815260316020908152604080832054600160a060020a03168352602f90915290206003015460ff620100009091041615156001148061228a575060105460ff1615156001145b156120bd576000828152603160205260409020546120bd90600160a060020a0316613f82565b600082815260326020526040902054600160a060020a03161580159061231a5750600082815260326020908152604080832054600160a060020a03168352602f90915290206003015460ff620100009091041615156001148061231a575060105460ff1615156001145b15611d965761232881614dfd565b600083815260326020908152604080832054600160a060020a03168352602f825280832060020193909355825181815284518183015284517f0efef3a277391dda0d5747fd15566e85fcd8a4fb588d9853173841e45cc5ae8a9486949293849391840192908601918190849084905b838110156123af578181015183820152602001612397565b50505050905090810190601f1680156123dc5780820380516001836020036101000a031916815260200191505b509250505060405180910390a1600082815260326020908152604080832054600160a060020a03168352602f9091529020600301805462ff00001916905560105460ff1615156001141561244b576000828152603260205260409020546120bd90600160a060020a0316614e10565b600082815260326020526040902054611d9690600160a060020a0316615071565b60105460ff1681565b600080600080601360016005540360078110151561248f57fe5b60040201600201546012868154811015156124a657fe5b90600052602060002090600502016002015411156125155760055460001901935061250e601385600781106124d757fe5b60040201600201546012878154811015156124ee57fe5b9060005260206000209060050201600201546152ac90919063ffffffff16565b925061265b565b601554601280548790811061252657fe5b906000526020600020906005020160020154101561258b576000935061250e60128681548110151561255457fe5b90600052602060002090600502016002015460138660078110151561257557fe5b60040201600201546152ac90919063ffffffff16565b6013846007811061259857fe5b60040201600201546012868154811015156125af57fe5b90600052602060002090600502016002015411156125d25760019093019261258b565b601384600781106125df57fe5b60040201600201546012868154811015156125f657fe5b9060005260206000209060050201600201541415612617576000925061265b565b61262b60136000198601600781106124d757fe5b915061263f60128681548110151561255457fe5b9050818111156126575760018403935081925061265b565b8092505b600084815260346020526040902054600160a060020a0316158061268c575060008481526033602052604090205483105b1561272757601280548690811061269f57fe5b60009182526020808320600360059093020191909101548683526034825260408084208054600160a060020a031916600160a060020a0390931692909217909155603382528083208690556035825291829020879055815187815291517fed4436a39d9a77d0c6c3be4f0e28f018750eb25c5c2d30ded16ef07ced4c00719281900390910190a15b8215156127ce57601280548690811061273c57fe5b6000918252602080832060036005909302019190910154603b548352603790915260409091208054600160a060020a031916600160a060020a03909216919091179055601280548690811061278d57fe5b6000918252602080832060026005909302019190910154603b8054845260368352604080852092909255805484526038909252909120869055805460010190555b5050505050565b6002805460408051602060018416156101000260001901909316849004601f810184900484028201840190925281815292918301828280156128585780601f1061282d57610100808354040283529160200191612858565b820191906000526020600020905b81548152906001019060200180831161283b57829003601f168201915b505050505081565b505050565b601180548290811061287357fe5b60009182526020909120600790910201805460018201546002830154600384015460048501546005860154600690960154949650600160a060020a039093169491939092919087565b600054600160a060020a031633146128d357600080fd5b6010805460ff19811660ff90911615179055565b600054606090600160a060020a0316331461290157600080fd5b6004805460408051602060026001851615610100026000190190941693909304601f810184900484028201840190925281815292918301828280156129875780601f1061295c57610100808354040283529160200191612987565b820191906000526020600020905b81548152906001019060200180831161296a57829003601f168201915b505085519394506129a39360049350602087019250905061633a565b506000805160206164d8833981519152818360405180806020018060200180602001848103845260148152602001807f506172616d65746572206a206d6f64696669656400000000000000000000000081525060200184810383528681815181526020019150805190602001908083836000838110156113e55781810151838201526020016113cd565b33600081815260416020526040808220805490839055905190929183156108fc02918491818181858888f19350505050158015611d96573d6000803e3d6000fd5b60138160078110612a7b57fe5b60040201805460408051602060026001851615610100026000190190941693909304601f81018490048402820184019092528181529293508391830182828015612b065780601f10612adb57610100808354040283529160200191612b06565b820191906000526020600020905b815481529060010190602001808311612ae957829003601f168201915b505050505090806001018054600181600116156101000203166002900480601f016020809104026020016040519081016040528092919081815260200182805460018160011615610100020316600290048015612ba45780601f10612b7957610100808354040283529160200191612ba4565b820191906000526020600020905b815481529060010190602001808311612b8757829003601f168201915b5050505050908060020154908060030154905084565b600054600160a060020a03163314612bd157600080fd5b612bd96128bc565b612be1611957565b612be96140dd565b6039805460010190819055600554603c805491909202019055612c0a613cd7565b565b60008054600160a060020a03163314612c2457600080fd5b50600a8054600160a060020a03838116600160a060020a0319831681179093556040805191909216602082018190528183019390935260608082526019908201527f456e74657270726973652077616c6c6574206368616e67656400000000000000608082015290517f223db053947bb148de510715d3c7d8ccd72bdd376752fd735ee7bd0bd0ece5bf9181900360a00190a15050565b602f6020908152600091825260409182902080548351601f60026000196101006001861615020190931692909204918201849004840281018401909452808452909291839190830182828015612d525780601f10612d2757610100808354040283529160200191612d52565b820191906000526020600020905b815481529060010190602001808311612d3557829003601f168201915b505050505090806001018054600181600116156101000203166002900480601f016020809104026020016040519081016040528092919081815260200182805460018160011615610100020316600290048015612df05780601f10612dc557610100808354040283529160200191612df0565b820191906000526020600020905b815481529060010190602001808311612dd357829003601f168201915b50505050600283015460039093015491929160ff808216925061010082048116916201000090041686565b60018054604080516020600284861615610100026000190190941693909304601f810184900484028201840190925281815292918301828280156128585780601f1061282d57610100808354040283529160200191612858565b6012805482908110612e8357fe5b60009182526020918290206005919091020180546040805160026001841615610100026000190190931692909204601f810185900485028301850190915280825291935091839190830182828015612f1c5780601f10612ef157610100808354040283529160200191612f1c565b820191906000526020600020905b815481529060010190602001808311612eff57829003601f168201915b505050505090806001018054600181600116156101000203166002900480601f016020809104026020016040519081016040528092919081815260200182805460018160011615610100020316600290048015612fba5780601f10612f8f57610100808354040283529160200191612fba565b820191906000526020600020905b815481529060010190602001808311612f9d57829003601f168201915b505050506002830154600384015460049094015492939092600160a060020a03909116915085565b60085481565b60055481565b612ff661631b565b612ffe61631b565b60005b60055481101561308c57600081815260346020526040902054600160a060020a0316156130705760008181526035602052604090205460128054909190811061304657fe5b906000526020600020906005020160020154828260078110151561306657fe5b6020020152613084565b600082826007811061307e57fe5b60200201525b600101613001565b50919050565b600054600160a060020a031633146130a957600080fd5b604080516080810182528581526020810185905290810183905260608101829052601386600781106130d757fe5b6004020160008201518160000190805190602001906130f792919061633a565b506020828101518051613110926001850192019061633a565b50604082015160028201556060909101516003909101555050505050565b603e54600160a060020a031681565b600054600160a060020a0316331461315457600080fd5b60008054604051600160a060020a03909116917ff8df31144d9c2f0f6b59d69b8b98abd5459d07f2742c4df920b25aae33c6482091a260008054600160a060020a0319169055565b60065433903410156131ad57600080fd5b336000818152602f60205260409020600301805461ffff1916905560105460ff16156131d857600080fd5b6131e133611da9565b611d9633614507565b600a54600160a060020a031681565b6132016163ff565b6000805481908190600160a060020a0316331461321d57600080fd5b5060005b600554811015611d25579150816013816007811061323b57fe5b6040805160049290920292909201805460a06020601f60026000196101006001871615020190941693909304928301819004028401810190945260808301818152929391928492909184918401828280156132d75780601f106132ac576101008083540402835291602001916132d7565b820191906000526020600020905b8154815290600101906020018083116132ba57829003601f168201915b50505050508152602001600182018054600181600116156101000203166002900480601f0160208091040260200160405190810160405280929190818152602001828054600181600116156101000203166002900480156133795780601f1061334e57610100808354040283529160200191613379565b820191906000526020600020905b81548152906001019060200180831161335c57829003601f168201915b505050505081526020016002820154815260200160038201548152505093508060010191505b60055482101561354257601382600781106133b657fe5b60040201600201548460400151111561353757601382600781106133d657fe5b6040805160049290920292909201805460a06020601f60026000196101006001871615020190941693909304928301819004028401810190945260808301818152929391928492909184918401828280156134725780601f1061344757610100808354040283529160200191613472565b820191906000526020600020905b81548152906001019060200180831161345557829003601f168201915b50505050508152602001600182018054600181600116156101000203166002900480601f0160208091040260200160405190810160405280929190818152602001828054600181600116156101000203166002900480156135145780601f106134e957610100808354040283529160200191613514565b820191906000526020600020905b8154815290600101906020018083116134f757829003601f168201915b505050505081526020016002820154815260200160038201548152505093508192505b60019091019061339f565b82811461362d576013816007811061355657fe5b600402016013846007811061356757fe5b6004020160008201816000019080546001816001161561010002031660029004613592929190616428565b50600182018160010190805460018160011615610100020316600290046135ba929190616428565b506002828101549082015560039182015491015583601382600781106135dc57fe5b6004020160008201518160000190805190602001906135fc92919061633a565b506020828101518051613615926001850192019061633a565b50604082015160028201556060909101516003909101555b600101613221565b61363e81611da9565b61129e81614507565b60008054600160a060020a0316331461365f57600080fd5b50600880549082905560408051602081018390528082018490526060808252601a908201527f4f7261636c697a6520676173206c696d6974206368616e676564000000000000608082015290516000805160206164b88339815191529181900360a00190a15050565b600054600160a060020a031633146136df57600080fd5b600054600160a060020a0316ff5b600054606090600160a060020a0316331461370757600080fd5b60018054604080516020600284861615610100026000190190941693909304601f8101849004840282018401909252818152929183018282801561378c5780601f106137615761010080835404028352916020019161378c565b820191906000526020600020905b81548152906001019060200180831161376f57829003601f168201915b505085519394506137a89360019350602087019250905061633a565b506000805160206164d8833981519152818360405180806020018060200180602001848103845260148152602001807f506172616d657465722062206d6f64696669656400000000000000000000000081525060200184810383528681815181526020019150805190602001908083836000838110156113e55781810151838201526020016113cd565b60366020526000908152604090205481565b60008054600160a060020a0316331461385c57600080fd5b50600680549082905560408051602081018390528082018490526060808252601d908201527f47656e6572617465207469636b6574207072696365206368616e676564000000608082015290516000805160206164b88339815191529181900360a00190a15050565b60386020526000908152604090205481565b600054600160a060020a031681565b600054600160a060020a031633146138fd57600080fd5b600554603a541415613923576139116131f9565b6000603a5561391e6128bc565b612c0a565b306000818152602f60205260409020600301805461ffff19169055612c0a90613635565b60095481565b6003805460408051602060026001851615610100026000190190941693909304601f810184900484028201840190925281815292918301828280156128585780601f1061282d57610100808354040283529160200191612858565b600054606090600160a060020a031633146139c257600080fd5b6003805460408051602060026001851615610100026000190190941693909304601f81018490048402820184019092528181529291830182828015613a485780601f10613a1d57610100808354040283529160200191613a48565b820191906000526020600020905b815481529060010190602001808311613a2b57829003601f168201915b50508551939450613a649360039350602087019250905061633a565b506000805160206164d8833981519152818360405180806020018060200180602001848103845260148152602001807f506172616d657465722070206d6f64696669656400000000000000000000000081525060200184810383528681815181526020019150805190602001908083836000838110156113e55781810151838201526020016113cd565b6004805460408051602060026001851615610100026000190190941693909304601f810184900484028201840190925281815292918301828280156128585780601f1061282d57610100808354040283529160200191612858565b30315b90565b600080548190600160a060020a03163314613b6957600080fd5b6040805160a0810182528881526020808201899052918101879052600160a060020a03861660608201526080810185905260128054600181810180845560009390935283518051919593949360059093027fbb8a6a4669ba250d26cd7a459eca9d215f8307e33aebe50379bc5a3617ec34440192613bec9284929091019061633a565b506020828101518051613c05926001850192019061633a565b50604082015160028201556060820151600382018054600160a060020a031916600160a060020a0390921691909117905560809091015160049091015503603d555095945050505050565b603c5481565b60008054600160a060020a03163314613c6e57600080fd5b506007805490829055604080516020810183905280820184905260608082526019908201527f53656c6c207469636b6574207072696365206368616e67656400000000000000608082015290516000805160206164b88339815191529181900360a00190a15050565b60005b600554811015613e3a576000818152603360209081526040808320839055603482528083208054600160a060020a031916905560358252808320929092558151808301909252600182527f30000000000000000000000000000000000000000000000000000000000000009082015260138260078110613d5657fe5b600402016000019080519060200190613d7092919061633a565b5060408051808201909152600181527f3000000000000000000000000000000000000000000000000000000000000000602082015260138260078110613db257fe5b600402016001019080519060200190613dcc92919061633a565b50600060138260078110613ddc57fe5b6004020160020181905550603954601382600781101515613df957fe5b60040201600301556000818152603660209081526040808320839055603782528083208054600160a060020a03191690556038909152812055600101613cda565b506000603b55565b603a5481565b60008054600160a060020a03163314613e6057600080fd5b506005805490829055604080516020810183905280820184905260608082526019908201527f53656c6c207469636b6574207072696365206368616e67656400000000000000608082015290516000805160206164b88339815191529181900360a00190a15050565b60008054600160a060020a03163314613ee157600080fd5b506009805490829055604080516020810183905280820184905260608082526021908201527f4f7261636c697a6520637573746f6d20676173207072696365206368616e676560808201527f640000000000000000000000000000000000000000000000000000000000000060a082015290516000805160206164b88339815191529181900360c00190a15050565b60065481565b60395481565b603b5481565b6000613f8f60095461461b565b604080516020808252601a908201527f41736b696e6720666f722061206e6577207469636b65742e2e2e0000000000008183015290517f096835e36c2ccea88ff2b3aca87dfc938b977e52ea656873ff76a8dba50d4d349181900360600190a16140396040805190810160405280600c81526020017f576f6c6672616d416c7068610000000000000000000000000000000000000000815250614031846152be565b600854614803565b60009081526032602052604090208054600160a060020a031916600160a060020a03939093169290921790915550565b60075481565b60336020526000908152604090205481565b603760205260009081526040902054600160a060020a031681565b603f54600160a060020a031681565b600054600160a060020a031633146140c257600080fd5b61129e81615b53565b60416020526000908152604090205481565b6000805481908190819081908190600160a060020a031633146140ff57600080fd5b603e54600160a060020a03908116600090815260416020526040808220829055603f548316825280822082905580549092168152908120556141493031600763ffffffff615bc316565b955061415c86600a63ffffffff615bec16565b955061416f86600663ffffffff615bc316565b945061418286600363ffffffff615bc316565b935061419586600163ffffffff615bc316565b92506141a885600a63ffffffff615bec16565b94506141bb84600a63ffffffff615bec16565b93506141ce83600a63ffffffff615bec16565b9250603c5491505b603c54600554018210156142b1576011805460009190849081106141f657fe5b6000918252602090912060016007909202010154600160a060020a0316146142a657846041600060118581548110151561422c57fe5b6000918252602080832060016007909302019190910154600160a060020a03168352820192909252604001902080549091019055601180548390811061426e57fe5b6000918252602090912060016007909202010154603e8054600160a060020a031916600160a060020a039092169190911790556142b1565b6001909101906141d6565b6001909101905b603c5460055401821015614393576011805460009190849081106142d857fe5b6000918252602090912060016007909202010154600160a060020a03161461438857836041600060118581548110151561430e57fe5b6000918252602080832060016007909302019190910154600160a060020a03168352820192909252604001902080549091019055601180548390811061435057fe5b6000918252602090912060016007909202010154603f8054600160a060020a031916600160a060020a03909216919091179055614393565b6001909101906142b8565b6001909101905b603c5460055401821015614475576011805460009190849081106143ba57fe5b6000918252602090912060016007909202010154600160a060020a03161461446a5782604160006011858154811015156143f057fe5b6000918252602080832060016007909302019190910154600160a060020a03168352820192909252604001902080549091019055601180548390811061443257fe5b600091825260209091206001600790920201015460408054600160a060020a031916600160a060020a03909216919091179055614475565b60019091019061439a565b6144873031600363ffffffff615bc316565b905061449a81600a63ffffffff615bec16565b600a54604051919250600160a060020a03169082156108fc029083906000818181858888f193505050501580156144d5573d6000803e3d6000fd5b50505050505050565b600054600160a060020a031633146144f557600080fd5b80600160a060020a0316ff5b603d5481565b600061451460095461461b565b604080516020808252601f908201527f41736b696e6720666f722061206e6577206920706172616d657465722e2e2e008183015290517f096835e36c2ccea88ff2b3aca87dfc938b977e52ea656873ff76a8dba50d4d349181900360600190a16145eb6040805190810160405280600c81526020017f576f6c6672616d416c70686100000000000000000000000000000000000000008152506040805190810160405280600f81526020017f342072616e646f6d206e756d6265720000000000000000000000000000000000815250600854614803565b60009081526031602052604090208054600160a060020a031916600160a060020a03939093169290921790915550565b600b54600160a060020a031615806146455750600b5461464390600160a060020a0316615c01565b155b15614656576146546000615c05565b505b600b60009054906101000a9004600160a060020a0316600160a060020a03166338cc48316040518163ffffffff1660e060020a028152600401602060405180830381600087803b1580156146a957600080fd5b505af11580156146bd573d6000803e3d6000fd5b505050506040513d60208110156146d357600080fd5b5051600c54600160a060020a0390811691161461478957600b60009054906101000a9004600160a060020a0316600160a060020a03166338cc48316040518163ffffffff1660e060020a028152600401602060405180830381600087803b15801561473d57600080fd5b505af1158015614751573d6000803e3d6000fd5b505050506040513d602081101561476757600080fd5b5051600c8054600160a060020a031916600160a060020a039092169190911790555b600c54604080517fca6ad1e4000000000000000000000000000000000000000000000000000000008152600481018490529051600160a060020a039092169163ca6ad1e49160248082019260009290919082900301818387803b1580156147ef57600080fd5b505af11580156127ce573d6000803e3d6000fd5b600b546000908190600160a060020a031615806148325750600b5461483090600160a060020a0316615c01565b155b15614843576148416000615c05565b505b600b60009054906101000a9004600160a060020a0316600160a060020a03166338cc48316040518163ffffffff1660e060020a028152600401602060405180830381600087803b15801561489657600080fd5b505af11580156148aa573d6000803e3d6000fd5b505050506040513d60208110156148c057600080fd5b5051600c54600160a060020a0390811691161461497657600b60009054906101000a9004600160a060020a0316600160a060020a03166338cc48316040518163ffffffff1660e060020a028152600401602060405180830381600087803b15801561492a57600080fd5b505af115801561493e573d6000803e3d6000fd5b505050506040513d602081101561495457600080fd5b5051600c8054600160a060020a031916600160a060020a039092169190911790555b600c54604080517f2ef3accc0000000000000000000000000000000000000000000000000000000081526024810186905260048101918252875160448201528751600160a060020a0390931692632ef3accc9289928892829160640190602086019080838360005b838110156149f65781810151838201526020016149de565b50505050905090810190601f168015614a235780820380516001836020036101000a031916815260200191505b509350505050602060405180830381600087803b158015614a4357600080fd5b505af1158015614a57573d6000803e3d6000fd5b505050506040513d6020811015614a6d57600080fd5b50519050670de0b6b3a76400003a840201811115614a8e5760009150614c00565b600c546040517fc51be90f00000000000000000000000000000000000000000000000000000000815260006004820181815260648301879052608060248401908152895160848501528951600160a060020a039095169463c51be90f948794938c938c938c93604481019160a49091019060208801908083838c5b83811015614b21578181015183820152602001614b09565b50505050905090810190601f168015614b4e5780820380516001836020036101000a031916815260200191505b50838103825285518152855160209182019187019080838360005b83811015614b81578181015183820152602001614b69565b50505050905090810190601f168015614bae5780820380516001836020036101000a031916815260200191505b5096505050505050506020604051808303818588803b158015614bd057600080fd5b505af1158015614be4573d6000803e3d6000fd5b50505050506040513d6020811015614bfb57600080fd5b505191505b509392505050565b600b54600090600160a060020a03161580614c355750600b54614c3390600160a060020a0316615c01565b155b15614c4657614c446000615c05565b505b600b60009054906101000a9004600160a060020a0316600160a060020a03166338cc48316040518163ffffffff1660e060020a028152600401602060405180830381600087803b158015614c9957600080fd5b505af1158015614cad573d6000803e3d6000fd5b505050506040513d6020811015614cc357600080fd5b5051600c54600160a060020a03908116911614614d7957600b60009054906101000a9004600160a060020a0316600160a060020a03166338cc48316040518163ffffffff1660e060020a028152600401602060405180830381600087803b158015614d2d57600080fd5b505af1158015614d41573d6000803e3d6000fd5b505050506040513d6020811015614d5757600080fd5b5051600c8054600160a060020a031916600160a060020a039092169190911790555b600c60009054906101000a9004600160a060020a0316600160a060020a031663c281d19e6040518163ffffffff1660e060020a028152600401602060405180830381600087803b158015614dcc57600080fd5b505af1158015614de0573d6000803e3d6000fd5b505050506040513d6020811015614df657600080fd5b5051905090565b6000614e0a826000615c0f565b92915050565b60408051600160a060020a0383166000908152602f602090815290839020805460026001821615610100026000190190911604601f8101839004909202830160a090810190945260808301828152929384939290840182828015614eb55780601f10614e8a57610100808354040283529160200191614eb5565b820191906000526020600020905b815481529060010190602001808311614e9857829003601f168201915b50505050508152602001602f600084600160a060020a0316600160a060020a031681526020019081526020016000206001018054600181600116156101000203166002900480601f016020809104026020016040519081016040528092919081815260200182805460018160011615610100020316600290048015614f7b5780601f10614f5057610100808354040283529160200191614f7b565b820191906000526020600020905b815481529060010190602001808311614f5e57829003601f168201915b5050509183525050600160a060020a0383166000908152602f60209081526040918290206002015490830152603954910152603a5460139060078110614fbd57fe5b600402016000820151816000019080519060200190614fdd92919061633a565b506020828101518051614ff6926001850192019061633a565b50604082810151600280840191909155606090930151600390920191909155603a80546001019055600160a060020a0383166000908152602f60209081529082902090920154815190815290517fec2692b386f7e992f219e405f018eeaf8da1b95736760596812e564f2e709cfd929181900390910190a150565b60408051600160a060020a0383166000908152602f602090815283822080546002600180831615610100026000190190921604601f8101849004909302850160c090810190965260a085018381529395909460129490938493919284018282801561511d5780601f106150f25761010080835404028352916020019161511d565b820191906000526020600020905b81548152906001019060200180831161510057829003601f168201915b50505050508152602001602f600087600160a060020a0316600160a060020a031681526020019081526020016000206001018054600181600116156101000203166002900480601f0160208091040260200160405190810160405280929190818152602001828054600181600116156101000203166002900480156151e35780601f106151b8576101008083540402835291602001916151e3565b820191906000526020600020905b8154815290600101906020018083116151c657829003601f168201915b5050509183525050600160a060020a0386166000818152602f602090815260408083206002015482860152840192909252603954606090930192909252835460018101808655948352918190208351805160059094029091019261524a928492019061633a565b506020828101518051615263926001850192019061633a565b50604082015160028201556060820151600382018054600160a060020a031916600160a060020a03909216919091179055608090910151600490910155039050611d9681612475565b6000828211156152b857fe5b50900390565b604080518082018252600c81527f286d6f642828312f2831305e000000000000000000000000000000000000000060208083019190915260028054845160018216156101000260001901909116829004601f81018490048402820184019095528481526060948594615495949093919083018282801561537f5780601f106153545761010080835404028352916020019161537f565b820191906000526020600020905b81548152906001019060200180831161536257829003601f168201915b505060408051808201825260018082527f2d00000000000000000000000000000000000000000000000000000000000000602080840191909152600160a060020a038d166000908152602f825284902080548551600294821615610100026000190190911693909304601f81018390048302840183019095528483529296509094509092508301828280156154555780601f1061542a57610100808354040283529160200191615455565b820191906000526020600020905b81548152906001019060200180831161543857829003601f168201915b50505050506040805190810160405280600681526020017f29292a31305e0000000000000000000000000000000000000000000000000000815250615d81565b60038054604080516020601f60026000196101006001881615020190951694909404938401819004810282018101909252828152939450615629938593909290918301828280156155275780601f106154fc57610100808354040283529160200191615527565b820191906000526020600020905b81548152906001019060200180831161550a57829003601f168201915b5050604080518082018252600581527f2c31305e2800000000000000000000000000000000000000000000000000000060208083019190915260048054845160026001831615610100026000190190921691909104601f81018490048402820184019095528481529296509194509092508301828280156155e95780601f106155be576101008083540402835291602001916155e9565b820191906000526020600020905b8154815290600101906020018083116155cc57829003601f168201915b50505050506040805190810160405280600181526020017f2b00000000000000000000000000000000000000000000000000000000000000815250615d81565b90506157ea81602f600086600160a060020a0316600160a060020a031681526020019081526020016000206001018054600181600116156101000203166002900480601f0160208091040260200160405190810160405280929190818152602001828054600181600116156101000203166002900480156156eb5780601f106156c0576101008083540402835291602001916156eb565b820191906000526020600020905b8154815290600101906020018083116156ce57829003601f168201915b5050604080518082018252600e81527f29292d6d6f642828312f2831305e00000000000000000000000000000000000060208083019190915260028054845160018216156101000260001901909116829004601f81018490048402820184019095528481529296509194509092508301828280156157aa5780601f1061577f576101008083540402835291602001916157aa565b820191906000526020600020905b81548152906001019060200180831161578d57829003601f168201915b50505050506040805190810160405280600181526020017f2d00000000000000000000000000000000000000000000000000000000000000815250615d81565b600160a060020a0384166000908152602f602090815260409182902080548351601f600260001961010060018616150201909316929092049182018490048402810184019094528084529394506159919385939283018282801561588f5780601f106158645761010080835404028352916020019161588f565b820191906000526020600020905b81548152906001019060200180831161587257829003601f168201915b5050604080518082018252600681527f29292a31305e000000000000000000000000000000000000000000000000000060208083019190915260038054845160026001831615610100026000190190921691909104601f81018490048402820184019095528481529296509194509092508301828280156159515780601f1061592657610100808354040283529160200191615951565b820191906000526020600020905b81548152906001019060200180831161593457829003601f168201915b50505050506040805190810160405280600481526020017f2c31305e00000000000000000000000000000000000000000000000000000000815250615d81565b60408051808201825260018082527f2800000000000000000000000000000000000000000000000000000000000000602080840191909152600160a060020a0388166000908152602f8252849020820180548551600294821615610100026000190190911693909304601f8101839004830284018301909552848352949550615b4c9486949091830182828015615a695780601f10615a3e57610100808354040283529160200191615a69565b820191906000526020600020905b815481529060010190602001808311615a4c57829003601f168201915b5050604080518082018252600781527f2929292f31305e00000000000000000000000000000000000000000000000000602080830191909152600160a060020a038d166000908152602f8252839020600190810180548551600293821615610100026000190190911692909204601f81018490048402830184019095528482529296509450909250830182828015615b425780601f10615b1757610100808354040283529160200191615b42565b820191906000526020600020905b815481529060010190602001808311615b2557829003601f168201915b5050505050615d81565b9392505050565b600160a060020a0381161515615b6857600080fd5b60008054604051600160a060020a03808516939216917f8be0079c531659141344cd1fd0a4f28419497f9722a3daafe3b4186f6b6457e091a360008054600160a060020a031916600160a060020a0392909216919091179055565b6000821515615bd457506000614e0a565b50818102818382811515615be457fe5b0414614e0a57fe5b60008183811515615bf957fe5b049392505050565b3b90565b6000614e0a615fe2565b6000828180805b8351811015615d645783517f300000000000000000000000000000000000000000000000000000000000000090859083908110615c4f57fe5b90602001015160f860020a900460f860020a02600160f860020a03191610158015615cc5575083517f390000000000000000000000000000000000000000000000000000000000000090859083908110615ca557fe5b90602001015160f860020a900460f860020a02600160f860020a03191611155b15615d1e578115615ce457851515615cdc57615d64565b600019909501945b600a8302925060308482815181101515615cfa57fe5b90602001015160f860020a900460f860020a0260f860020a90040383019250615d5c565b8381815181101515615d2c57fe5b90602001015160f860020a900460f860020a02600160f860020a031916602e60f860020a021415615d5c57600191505b600101615c16565b6000861115615d765785600a0a830292505b509095945050505050565b6060806060806060806060806000808e98508d97508c96508b95508a94508451865188518a518c51010101016040519080825280601f01601f191660200182016040528015615dda578160200160208202803883390190505b50935083925060009150600090505b8851811015615e47578881815181101515615e0057fe5b90602001015160f860020a900460f860020a028383806001019450815181101515615e2757fe5b906020010190600160f860020a031916908160001a905350600101615de9565b5060005b8751811015615ea9578781815181101515615e6257fe5b90602001015160f860020a900460f860020a028383806001019450815181101515615e8957fe5b906020010190600160f860020a031916908160001a905350600101615e4b565b5060005b8651811015615f0b578681815181101515615ec457fe5b90602001015160f860020a900460f860020a028383806001019450815181101515615eeb57fe5b906020010190600160f860020a031916908160001a905350600101615ead565b5060005b8551811015615f6d578581815181101515615f2657fe5b90602001015160f860020a900460f860020a028383806001019450815181101515615f4d57fe5b906020010190600160f860020a031916908160001a905350600101615f0f565b5060005b8451811015615fcf578481815181101515615f8857fe5b90602001015160f860020a900460f860020a028383806001019450815181101515615faf57fe5b906020010190600160f860020a031916908160001a905350600101615f71565b50909d9c50505050505050505050505050565b600080616002731d3b2638a7cc9f2cb3d298a3da7a90b67e5506ed615c01565b111561607257600b8054600160a060020a031916731d3b2638a7cc9f2cb3d298a3da7a90b67e5506ed178155604080518082019091529081527f6574685f6d61696e6e6574000000000000000000000000000000000000000000602082015261606a90616308565b506001613b4c565b600061609173c03a2615d5efaf5f49f60b7bb6583eaec212fdf1615c01565b11156160fa57600b8054600160a060020a03191673c03a2615d5efaf5f49f60b7bb6583eaec212fdf117905560408051808201909152600c81527f6574685f726f707374656e330000000000000000000000000000000000000000602082015261606a90616308565b600061611973b7a07bcf2ba2f2703b24c0691b5278999c59ac7e615c01565b111561618257600b8054600160a060020a03191673b7a07bcf2ba2f2703b24c0691b5278999c59ac7e17905560408051808201909152600981527f6574685f6b6f76616e0000000000000000000000000000000000000000000000602082015261606a90616308565b60006161a173146500cfd35b22e4a392fe0adc06de1a1368ed48615c01565b111561620957600b8054600160a060020a03191673146500cfd35b22e4a392fe0adc06de1a1368ed48178155604080518082019091529081527f6574685f72696e6b656279000000000000000000000000000000000000000000602082015261606a90616308565b6000616228736f485c8bf6fc43ea212e93bbf8ce046c7f1cb475615c01565b111561625c5750600b8054600160a060020a031916736f485c8bf6fc43ea212e93bbf8ce046c7f1cb4751790556001613b4c565b600061627b7320e12a1f859b3feae5fb2a0a32c18f5a65555bbf615c01565b11156162af5750600b8054600160a060020a0319167320e12a1f859b3feae5fb2a0a32c18f5a65555bbf1790556001613b4c565b60006162ce7351efaf4c8b3c9afbd5ab9f4bbc82784ab6ef8faa615c01565b11156163025750600b8054600160a060020a0319167351efaf4c8b3c9afbd5ab9f4bbc82784ab6ef8faa1790556001613b4c565b50600090565b8051611d9690600d90602084019061633a565b60e0604051908101604052806007906020820280388339509192915050565b828054600181600116156101000203166002900490600052602060002090601f016020900481019282601f1061637b57805160ff19168380011785556163a8565b828001600101855582156163a8579182015b828111156163a857825182559160200191906001019061638d565b506163b492915061649d565b5090565b60e060405190810160405280600081526020016000600160a060020a0316815260200160008152602001600081526020016000815260200160008152602001600081525090565b608060405190810160405280606081526020016060815260200160008152602001600081525090565b828054600181600116156101000203166002900490600052602060002090601f016020900481019282601f1061646157805485556163a8565b828001600101855582156163a857600052602060002091601f016020900482015b828111156163a8578254825591600101919060010190616482565b613b4c91905b808211156163b457600081556001016164a356009bc068999fb1a0aac007a9b44ca6322a376441f42706bf5163600bb3d1a731647ecbd54b3baea533cf57ef049f9e04554be6a660d6dacd477488066eedf27beea165627a7a7230582085b89ef6870da14c12e0e18ab33e534c1630c231879e5cbaa9a04ed00d1dc8b60029",
  "source": "pragma solidity ^0.4.20;\n\nimport \"./Lucky7Store.sol\";\n\ncontract Lucky7Test is Lucky7Store{\n\n    function Lucky7Test() payable{\n    }\n    \n    function insertTestLucky7Numbers() public{\n        lucky7Numbers[0] = Lucky7Number(\"1\",\"2\",10651283657614267398,drawNumber);\n        lucky7Numbers[1] = Lucky7Number(\"1\",\"2\",88052694543136051754,drawNumber);\n        lucky7Numbers[2] = Lucky7Number(\"1\",\"2\",52398723847810031239,drawNumber);\n        lucky7Numbers[3] = Lucky7Number(\"1\",\"2\",90527121997810111570,drawNumber);\n        lucky7Numbers[4] = Lucky7Number(\"1\",\"2\",30481723712938712983,drawNumber);\n        lucky7Numbers[5] = Lucky7Number(\"1\",\"2\",24342359080214091240,drawNumber);\n        lucky7Numbers[6] = Lucky7Number(\"1\",\"2\",75126192741201932912,drawNumber);\n    } \n\n    function() public payable{\n    }\n}\n",
  "sourcePath": "/Users/matiasbarrios/Desktop/Proyecto Consensys/luckyseven/contracts/Lucky7Test.sol",
  "compiler": {
    "name": "solc",
    "version": "0.4.24+commit.e67f0147.Emscripten.clang"
  },
  "schemaVersion": "2.0.1",
  "updatedAt": "2018-08-26T04:25:44.203Z"
}