{
  "contractName": "Lucky7Store",
  "abi": [
    {
      "constant": false,
      "inputs": [],
      "name": "withdraw",
      "outputs": [],
      "payable": false,
      "stateMutability": "nonpayable",
      "type": "function"
    },
    {
      "constant": false,
      "inputs": [],
      "name": "setNewGame",
      "outputs": [],
      "payable": false,
      "stateMutability": "nonpayable",
      "type": "function"
    },
    {
      "constant": false,
      "inputs": [],
      "name": "renounceOwnership",
      "outputs": [],
      "payable": false,
      "stateMutability": "nonpayable",
      "type": "function"
    },
    {
      "constant": true,
      "inputs": [],
      "name": "owner",
      "outputs": [
        {
          "name": "",
          "type": "address"
        }
      ],
      "payable": false,
      "stateMutability": "view",
      "type": "function"
    },
    {
      "constant": false,
      "inputs": [
        {
          "name": "_newOwner",
          "type": "address"
        }
      ],
      "name": "transferOwnership",
      "outputs": [],
      "payable": false,
      "stateMutability": "nonpayable",
      "type": "function"
    },
    {
      "constant": false,
      "inputs": [],
      "name": "_deliverPrizes",
      "outputs": [],
      "payable": false,
      "stateMutability": "nonpayable",
      "type": "function"
    },
    {
      "inputs": [
        {
          "name": "_lucky7AdminAddress",
          "type": "address"
        },
        {
          "name": "_lucky7StorageAddress",
          "type": "address"
        },
        {
          "name": "_lucky7TicketFactoryAddress",
          "type": "address"
        }
      ],
      "payable": true,
      "stateMutability": "payable",
      "type": "constructor"
    },
    {
      "payable": true,
      "stateMutability": "payable",
      "type": "fallback"
    },
    {
      "anonymous": false,
      "inputs": [
        {
          "indexed": true,
          "name": "previousOwner",
          "type": "address"
        }
      ],
      "name": "OwnershipRenounced",
      "type": "event"
    },
    {
      "anonymous": false,
      "inputs": [
        {
          "indexed": true,
          "name": "previousOwner",
          "type": "address"
        },
        {
          "indexed": true,
          "name": "newOwner",
          "type": "address"
        }
      ],
      "name": "OwnershipTransferred",
      "type": "event"
    },
    {
      "constant": false,
      "inputs": [],
      "name": "sellRandomTicket",
      "outputs": [],
      "payable": true,
      "stateMutability": "payable",
      "type": "function"
    },
    {
      "constant": false,
      "inputs": [],
      "name": "sellGeneratedTicket",
      "outputs": [],
      "payable": true,
      "stateMutability": "payable",
      "type": "function"
    },
    {
      "constant": true,
      "inputs": [],
      "name": "multip",
      "outputs": [
        {
          "name": "",
          "type": "uint256"
        }
      ],
      "payable": false,
      "stateMutability": "view",
      "type": "function"
    },
    {
      "constant": false,
      "inputs": [
        {
          "name": "_lucky7AdminAddress",
          "type": "address"
        },
        {
          "name": "_lucky7StorageAddress",
          "type": "address"
        },
        {
          "name": "_lucky7TicketFactoryAddress",
          "type": "address"
        }
      ],
      "name": "constructor",
      "outputs": [],
      "payable": true,
      "stateMutability": "payable",
      "type": "function"
    },
    {
      "constant": false,
      "inputs": [],
      "name": "generateRandomTicket",
      "outputs": [],
      "payable": true,
      "stateMutability": "payable",
      "type": "function"
    }
  ],
  "bytecode": "0x60806040526040516060806116ab8339810160409081528151602083015191909201516000805433600160a060020a0319918216178255600480548216600160a060020a0396871617905560058054821694861694909417909355600680549093169390911692909217905561163090819061007b90396000f3006080604052600436106100955763ffffffff60e060020a6000350416630b8ec74081146100975780631ded3bec1461009f5780633ccfd60b146100a757806340014911146100bc5780635c48c6fa146100d15780636dd23b5b146100f8578063715018a61461011857806372c3477d1461012d5780638da5cb5b14610135578063f2fde38b14610166578063f405228914610187575b005b61009561019c565b610095610606565b3480156100b357600080fd5b50610095610a58565b3480156100c857600080fd5b50610095610b9c565b3480156100dd57600080fd5b506100e6610cef565b60408051918252519081900360200190f35b610095600160a060020a0360043581169060243581169060443516610e19565b34801561012457600080fd5b50610095610e65565b610095610ed1565b34801561014157600080fd5b5061014a61127d565b60408051600160a060020a039092168252519081900360200190f35b34801561017257600080fd5b50610095600160a060020a036004351661128c565b34801561019357600080fd5b506100956112af565b6000803360008073__Lucky7Library_________________________63e516c960600460009054906101000a9004600160a060020a03166040518263ffffffff1660e060020a0281526004018082600160a060020a0316600160a060020a0316815260200191505060206040518083038186803b15801561021c57600080fd5b505af4158015610230573d6000803e3d6000fd5b505050506040513d602081101561024657600080fd5b505134101561025457600080fd5b600480546040805160e060020a6323913b85028152600160a060020a0390921692820192909252905173__Lucky7Library_________________________916323913b85916024808301926020929190829003018186803b1580156102b857600080fd5b505af41580156102cc573d6000803e3d6000fd5b505050506040513d60208110156102e257600080fd5b5051600480546040805160e060020a63c50f7fbd028152600160a060020a0390921692820192909252905173__Lucky7Library_________________________9163c50f7fbd916024808301926020929190829003018186803b15801561034857600080fd5b505af415801561035c573d6000803e3d6000fd5b505050506040513d602081101561037257600080fd5b5051600654604051929091026002029350600160a060020a03169083156108fc029084906000818181858888f193505050501580156103b5573d6000803e3d6000fd5b5050600654604080517f2005058d000000000000000000000000000000000000000000000000000000008152600160a060020a038581166004830152915191909216918291632005058d9160248082019260009290919082900301818387803b15801561042157600080fd5b505af1158015610435573d6000803e3d6000fd5b5050600654604080517f72f3cca3000000000000000000000000000000000000000000000000000000008152600160a060020a0390921660048301525173__Lucky7Library_________________________93506372f3cca392506024808301926020929190829003018186803b1580156104af57600080fd5b505af41580156104c3573d6000803e3d6000fd5b505050506040513d60208110156104d957600080fd5b5051156104e557600080fd5b600654604080517f2de7412d0000000000000000000000000000000000000000000000000000000081523360048201529051600160a060020a0390921696508691632de7412d916024808201926020929091908290030181600087803b15801561054e57600080fd5b505af1158015610562573d6000803e3d6000fd5b505050506040513d602081101561057857600080fd5b50519350831561058757600080fd5b604080517fddc110fa0000000000000000000000000000000000000000000000000000000081523360048201529051600160a060020a0387169163ddc110fa91602480830192600092919082900301818387803b1580156105e757600080fd5b505af11580156105fb573d6000803e3d6000fd5b505050505050505050565b60003360008073__Lucky7Library_________________________63e516c960600460009054906101000a9004600160a060020a03166040518263ffffffff1660e060020a0281526004018082600160a060020a0316600160a060020a0316815260200191505060206040518083038186803b15801561068557600080fd5b505af4158015610699573d6000803e3d6000fd5b505050506040513d60208110156106af57600080fd5b50513410156106bd57600080fd5b600480546040805160e060020a6323913b85028152600160a060020a0390921692820192909252905173__Lucky7Library_________________________916323913b85916024808301926020929190829003018186803b15801561072157600080fd5b505af4158015610735573d6000803e3d6000fd5b505050506040513d602081101561074b57600080fd5b5051600480546040805160e060020a63c50f7fbd028152600160a060020a0390921692820192909252905173__Lucky7Library_________________________9163c50f7fbd916024808301926020929190829003018186803b1580156107b157600080fd5b505af41580156107c5573d6000803e3d6000fd5b505050506040513d60208110156107db57600080fd5b5051600654604051929091026002029350600160a060020a03169083156108fc029084906000818181858888f1935050505015801561081e573d6000803e3d6000fd5b5050600654604080517f2005058d000000000000000000000000000000000000000000000000000000008152600160a060020a038581166004830152915191909216918291632005058d9160248082019260009290919082900301818387803b15801561088a57600080fd5b505af115801561089e573d6000803e3d6000fd5b5050600654604080517f7282d8a800000000000000000000000000000000000000000000000000000000815233600482018190529151919450600160a060020a0390921692508291637282d8a891602480830192600092919082900301818387803b15801561090c57600080fd5b505af1158015610920573d6000803e3d6000fd5b5050600654604080517f72f3cca3000000000000000000000000000000000000000000000000000000008152600160a060020a0390921660048301525173__Lucky7Library_________________________93506372f3cca392506024808301926020929190829003018186803b15801561099a57600080fd5b505af41580156109ae573d6000803e3d6000fd5b505050506040513d60208110156109c457600080fd5b5051156109d057600080fd5b600654604080517f77d8a8300000000000000000000000000000000000000000000000000000000081523360048201529051600160a060020a03909216975087916377d8a8309160248082019260009290919082900301818387803b158015610a3857600080fd5b505af1158015610a4c573d6000803e3d6000fd5b50505050505050505050565b600254604080517ff3f437030000000000000000000000000000000000000000000000000000000081523360048201529051600160a060020a0390921691600091839163f3f437039160248082019260209290919082900301818787803b158015610ac257600080fd5b505af1158015610ad6573d6000803e3d6000fd5b505050506040513d6020811015610aec57600080fd5b5051604080517fa9c52d790000000000000000000000000000000000000000000000000000000081523360048201529051919250600160a060020a0384169163a9c52d799160248082019260009290919082900301818387803b158015610b5257600080fd5b505af1158015610b66573d6000803e3d6000fd5b505060405133925083156108fc02915083906000818181858888f19350505050158015610b97573d6000803e3d6000fd5b505050565b600080548190600160a060020a03163314610bb657600080fd5b5050600354600254604080517f39df3f4f0000000000000000000000000000000000000000000000000000000081529051600160a060020a03938416939092169183916339df3f4f91600480830192600092919082900301818387803b158015610c1f57600080fd5b505af1158015610c33573d6000803e3d6000fd5b5050505080600160a060020a0316631cf4c3d16040518163ffffffff1660e060020a028152600401600060405180830381600087803b158015610c7557600080fd5b505af1158015610c89573d6000803e3d6000fd5b50505050610c956112af565b80600160a060020a031663c53d6e476040518163ffffffff1660e060020a028152600401600060405180830381600087803b158015610cd357600080fd5b505af1158015610ce7573d6000803e3d6000fd5b505050505050565b600480546040805160e060020a63c50f7fbd028152600160a060020a0390921692820192909252905160009173__Lucky7Library_________________________9163c50f7fbd91602480820192602092909190829003018186803b158015610d5757600080fd5b505af4158015610d6b573d6000803e3d6000fd5b505050506040513d6020811015610d8157600080fd5b5051600480546040805160e060020a6323913b85028152600160a060020a0390921692820192909252905173__Lucky7Library_________________________916323913b85916024808301926020929190829003018186803b158015610de757600080fd5b505af4158015610dfb573d6000803e3d6000fd5b505050506040513d6020811015610e1157600080fd5b505102905090565b60018054600160a060020a0394851673ffffffffffffffffffffffffffffffffffffffff1991821617909155600380549285169282169290921790915560028054929093169116179055565b600054600160a060020a03163314610e7c57600080fd5b60008054604051600160a060020a03909116917ff8df31144d9c2f0f6b59d69b8b98abd5459d07f2742c4df920b25aae33c6482091a26000805473ffffffffffffffffffffffffffffffffffffffff19169055565b600033600073__Lucky7Library_________________________630c453e0b600460009054906101000a9004600160a060020a03166040518263ffffffff1660e060020a0281526004018082600160a060020a0316600160a060020a0316815260200191505060206040518083038186803b158015610f4f57600080fd5b505af4158015610f63573d6000803e3d6000fd5b505050506040513d6020811015610f7957600080fd5b5051341015610f8757600080fd5b600480546040805160e060020a6323913b85028152600160a060020a0390921692820192909252905173__Lucky7Library_________________________916323913b85916024808301926020929190829003018186803b158015610feb57600080fd5b505af4158015610fff573d6000803e3d6000fd5b505050506040513d602081101561101557600080fd5b5051600480546040805160e060020a63c50f7fbd028152600160a060020a0390921692820192909252905173__Lucky7Library_________________________9163c50f7fbd916024808301926020929190829003018186803b15801561107b57600080fd5b505af415801561108f573d6000803e3d6000fd5b505050506040513d60208110156110a557600080fd5b5051600654604051929091026002029250600160a060020a03169082156108fc029083906000818181858888f193505050501580156110e8573d6000803e3d6000fd5b50600654604080517f7282d8a8000000000000000000000000000000000000000000000000000000008152336004820181905291519192600160a060020a0316918291637282d8a891602480830192600092919082900301818387803b15801561115157600080fd5b505af1158015611165573d6000803e3d6000fd5b5050600654604080517f72f3cca3000000000000000000000000000000000000000000000000000000008152600160a060020a0390921660048301525173__Lucky7Library_________________________93506372f3cca392506024808301926020929190829003018186803b1580156111df57600080fd5b505af41580156111f3573d6000803e3d6000fd5b505050506040513d602081101561120957600080fd5b50511561121557600080fd5b600654604080517f77d8a8300000000000000000000000000000000000000000000000000000000081523360048201529051600160a060020a03909216965086916377d8a8309160248082019260009290919082900301818387803b1580156105e757600080fd5b600054600160a060020a031681565b600054600160a060020a031633146112a357600080fd5b6112ac81611543565b50565b600080548190819081908190819081908190819081908190600160a060020a031633146112db57600080fd5b6112ed3031600763ffffffff6115c016565b9a506113008b606463ffffffff6115ef16565b9a506113138b601963ffffffff6115c016565b99506113268b601563ffffffff6115c016565b98506113398b601263ffffffff6115c016565b975061134c8b600e63ffffffff6115c016565b965061135f8b600b63ffffffff6115c016565b95506113728b600763ffffffff6115c016565b94506113858b600463ffffffff6115c016565b600254604080517fbdaaf432000000000000000000000000000000000000000000000000000000008152600481018e9052602481018d9052604481018c9052606481018b9052608481018a905260a4810189905260c481018490529051929650600160a060020a039091169450849163bdaaf4329160e48082019260009290919082900301818387803b15801561141b57600080fd5b505af115801561142f573d6000803e3d6000fd5b5050600154604080517f27748805000000000000000000000000000000000000000000000000000000008152600160a060020a0390921660048301525173__Lucky7Library_________________________9350632774880592506024808301926020929190829003018186803b1580156114a957600080fd5b505af41580156114bd573d6000803e3d6000fd5b505050506040513d60208110156114d357600080fd5b505191506114e93031601e63ffffffff6115c016565b90506114fc81606463ffffffff6115ef16565b604051909150600160a060020a0383169082156108fc029083906000818181858888f19350505050158015611535573d6000803e3d6000fd5b505050505050505050505050565b600160a060020a038116151561155857600080fd5b60008054604051600160a060020a03808516939216917f8be0079c531659141344cd1fd0a4f28419497f9722a3daafe3b4186f6b6457e091a36000805473ffffffffffffffffffffffffffffffffffffffff1916600160a060020a0392909216919091179055565b60008215156115d1575060006115e9565b508181028183828115156115e157fe5b04146115e957fe5b92915050565b600081838115156115fc57fe5b0493925050505600a165627a7a72305820b300af5893525e0c3d204946170bb847d43dc0051d8f23cc0a55abed376858860029",
  "source": "/**\n  * @author Matias Barrios\n  * @version 1.0\n  */\n\n/** @title Lucky7Store. \n  * This contract contains all the functions to generate and sell tickets to the users.\n  * The front end interacts with this functions to make the necessary transactions to play the game.\n*/\n\npragma solidity ^0.4.20;\nimport \"./Lucky7Library.sol\";\nimport \"./Lucky7Admin.sol\";\nimport \"./Lucky7Storage.sol\";\nimport \"./Lucky7TicketFactory.sol\";\nimport \"./Lucky7Ballot.sol\";\n\ncontract Lucky7Store is Lucky7Ballot{\n    /** @dev Library to read messages \n      */\n    using Lucky7Library for *;\n\n    /** @dev Address of the contracts to call functions\n      */\n    address lucky7AdminAddress;\n    address lucky7StorageAddress;\n    address lucky7TicketFactoryAddress;\n    \n    /** @dev Constructor to make the contract payable\n      */\n    function Lucky7Store(address _lucky7AdminAddress, address _lucky7StorageAddress, address _lucky7TicketFactoryAddress) public payable {\n        lucky7AdminAddress = _lucky7AdminAddress;\n        lucky7StorageAddress = _lucky7StorageAddress;\n        lucky7TicketFactoryAddress = _lucky7TicketFactoryAddress;\n    }\n    /** @dev userBoughtTicket is a modifier to check if the user paid the necessary amount to buy a ticket.\n      */\n    modifier userBoughtTicket(address _ticketOwner){\n        require(msg.value >= Lucky7Library.sellTicketPrice(lucky7AdminAddress));\n        uint oraclizePrice = 2*Lucky7Library.oraclizeCustomGasPrice(lucky7AdminAddress)*Lucky7Library.oraclizeGasLimit(lucky7AdminAddress);\n        lucky7TicketFactoryAddress.transfer(oraclizePrice);\n        Lucky7TicketFactory lucky7TicketFactoryContract = Lucky7TicketFactory(lucky7TicketFactoryAddress);\n        lucky7TicketFactoryContract.paidTicketToTrue(_ticketOwner);\n        _;\n    }\n    \n    /** @dev userBoughtParameters is a modifier to check if the user paid the necessary amount to buy parameters, i.e. generate a ticket without buying it.\n      */\n    modifier userBoughtParameters(address _ticketOwner){\n        require(msg.value >= Lucky7Library.generateTicketPrice(lucky7AdminAddress));\n        uint oraclizePrice = 2*Lucky7Library.oraclizeCustomGasPrice(lucky7AdminAddress)*Lucky7Library.oraclizeGasLimit(lucky7AdminAddress);\n        lucky7TicketFactoryAddress.transfer(oraclizePrice);\n        _;\n    }\n    \n    /** @dev setParametersToReady is a modifier to set the muReady and iReady booleans of the UserParametersValue of the Lucky7TicketFactory to false.\n      * This way, the user can call for new parameters or buy ticket without being rejected by teh oraclize's callback function of the Lucky7TicketFactory contract.\n      */\n    modifier setParametersToReady(address _ticketOwner){\n        Lucky7TicketFactory lucky7TicketFactoryContract = Lucky7TicketFactory(lucky7TicketFactoryAddress);\n        lucky7TicketFactoryContract.bothToFalse(_ticketOwner);\n        _;\n    }\n    \n    /** @dev sellingIsActive is a modifier which acts as a circuit breaker. If the settingLucky7Number is true, i.e. the game is in setting Lucky7Numbers phase, then\n      * the users aren't allowed to buy tickets because the Lucky7Number are getting setted. Once the last Lucky7Number is setted and all them are ordered through the\n      * _orderLucky7Numbers function of the Lucky7Ballot contract, the settingLucky7Numbers is setted to false, which means that users are then allowed to buy tickets.\n      */\n    modifier sellingIsActive {\n        require(Lucky7Library.settingLucky7Numbers(lucky7TicketFactoryAddress)==false);\n        _;\n    }\n    //------------------------\n    \n    /** @dev sellRandomTicket is a function used to sell a random ticket to the user. It checks if the user sent the correct amount and if the game is not\n      * in the setting Lucky7Numbers phase. If so, then sets the user muReady and iReady of the UserParameters value of the Lucky7TicketFactory contract to false and \n      calls the _generateTicket function of the Lucky7TicketFactory contract with the msg.sender as the owner.\n      */\n    function sellRandomTicket() \n        public\n        payable \n        userBoughtTicket(msg.sender)\n        setParametersToReady(msg.sender)\n        sellingIsActive\n    {\n        Lucky7TicketFactory lucky7TicketFactoryContract = Lucky7TicketFactory(lucky7TicketFactoryAddress);\n        lucky7TicketFactoryContract._generateTicket(msg.sender);\n    }\n    \n    /** @dev generateRandomTicket is a function used to sell a parameters to the user without selling the ticket. It checks if the user sent the correct amount and \n      * if the game is not in the setting Lucky7Numbers phase. If so, then sets the user muReady and iReady of the UserParameters struct of the Lucky7TicketFactory \n      * contract to false and calls the _askForMuParameter and _askForIParamater functions of the Lucky7TicketFactory contract with the msg.sender as the owner.\n      */\n    function generateRandomTicket() \n        public \n        payable \n        userBoughtParameters(msg.sender)\n        setParametersToReady(msg.sender)\n        sellingIsActive\n    {\n        Lucky7TicketFactory lucky7TicketFactoryContract = Lucky7TicketFactory(lucky7TicketFactoryAddress);\n        lucky7TicketFactoryContract._generateTicket(msg.sender);\n    }\n    \n    /** @dev sellGeneratedTicket is a function used to sell the ticket generated through the parameters the user already bought. \n      * It checks if the user sent the correct amount and if the game is not in the setting Lucky7Numbers phase. \n      * If so, then sets the user muReady and iReady of the UserParameters struct of the Lucky7TicketFactory contract to false \n      * and calls the _generateTicket function of the Lucky7TicketFactory contract with the msg.sender as the owner.\n      */\n    function sellGeneratedTicket() \n        public \n        payable \n        userBoughtTicket(msg.sender)\n        sellingIsActive\n    {\n        Lucky7TicketFactory lucky7TicketFactoryContract = Lucky7TicketFactory(lucky7TicketFactoryAddress);\n        bool userParametersAreEmpty = lucky7TicketFactoryContract.userParametersEmpty(msg.sender);\n        require(userParametersAreEmpty == false);\n        lucky7TicketFactoryContract._askForTicket(msg.sender);\n    }\n    \n    function multip() public view returns(uint){\n        return Lucky7Library.oraclizeGasLimit(lucky7AdminAddress)*Lucky7Library.oraclizeCustomGasPrice(lucky7AdminAddress);\n    }\n\n    function () public payable{\n        \n    }\n}   \n                                           \n",
  "sourcePath": "/Users/matiasbarrios/Desktop/Proyecto Consensys/luckyseven/contracts/Lucky7Store.sol",
  "compiler": {
    "name": "solc",
    "version": "0.4.24+commit.e67f0147.Emscripten.clang"
  },
  "schemaVersion": "2.0.1",
  "updatedAt": "2018-09-29T02:01:41.925Z"
}