{
  "contractName": "Lucky7Test",
  "abi": [
    {
      "constant": true,
      "inputs": [],
      "name": "getlucky7Numbers",
      "outputs": [
        {
          "name": "",
          "type": "uint256[7]"
        }
      ],
      "payable": false,
      "stateMutability": "view",
      "type": "function"
    },
    {
      "constant": false,
      "inputs": [],
      "name": "sellGeneratedTicket",
      "outputs": [],
      "payable": true,
      "stateMutability": "payable",
      "type": "function"
    },
    {
      "constant": false,
      "inputs": [
        {
          "name": "_newValue",
          "type": "string"
        }
      ],
      "name": "modifyParameterN",
      "outputs": [],
      "payable": false,
      "stateMutability": "nonpayable",
      "type": "function"
    },
    {
      "constant": true,
      "inputs": [
        {
          "name": "",
          "type": "uint256"
        }
      ],
      "name": "lucky7TicketID",
      "outputs": [
        {
          "name": "",
          "type": "uint256"
        }
      ],
      "payable": false,
      "stateMutability": "view",
      "type": "function"
    },
    {
      "constant": true,
      "inputs": [
        {
          "name": "",
          "type": "uint256"
        }
      ],
      "name": "lucky7TicketOwner",
      "outputs": [
        {
          "name": "",
          "type": "address"
        }
      ],
      "payable": false,
      "stateMutability": "view",
      "type": "function"
    },
    {
      "constant": false,
      "inputs": [],
      "name": "_orderLucky7Tickets",
      "outputs": [],
      "payable": false,
      "stateMutability": "nonpayable",
      "type": "function"
    },
    {
      "constant": false,
      "inputs": [],
      "name": "sellRandomTicket",
      "outputs": [],
      "payable": true,
      "stateMutability": "payable",
      "type": "function"
    },
    {
      "constant": false,
      "inputs": [
        {
          "name": "_ticketOwner",
          "type": "address"
        }
      ],
      "name": "_askForMuParameter",
      "outputs": [],
      "payable": false,
      "stateMutability": "nonpayable",
      "type": "function"
    },
    {
      "constant": false,
      "inputs": [
        {
          "name": "myid",
          "type": "bytes32"
        },
        {
          "name": "result",
          "type": "string"
        }
      ],
      "name": "__callback",
      "outputs": [],
      "payable": false,
      "stateMutability": "nonpayable",
      "type": "function"
    },
    {
      "constant": true,
      "inputs": [],
      "name": "settingLucky7Numbers",
      "outputs": [
        {
          "name": "",
          "type": "bool"
        }
      ],
      "payable": false,
      "stateMutability": "view",
      "type": "function"
    },
    {
      "constant": false,
      "inputs": [
        {
          "name": "_ticketID",
          "type": "uint256"
        }
      ],
      "name": "_checkForLucky7Ticket",
      "outputs": [],
      "payable": false,
      "stateMutability": "nonpayable",
      "type": "function"
    },
    {
      "constant": true,
      "inputs": [],
      "name": "n",
      "outputs": [
        {
          "name": "",
          "type": "string"
        }
      ],
      "payable": false,
      "stateMutability": "view",
      "type": "function"
    },
    {
      "constant": false,
      "inputs": [
        {
          "name": "myid",
          "type": "bytes32"
        },
        {
          "name": "result",
          "type": "string"
        },
        {
          "name": "proof",
          "type": "bytes"
        }
      ],
      "name": "__callback",
      "outputs": [],
      "payable": false,
      "stateMutability": "nonpayable",
      "type": "function"
    },
    {
      "constant": true,
      "inputs": [
        {
          "name": "",
          "type": "uint256"
        }
      ],
      "name": "lucky7Tickets",
      "outputs": [
        {
          "name": "difference",
          "type": "uint256"
        },
        {
          "name": "owner",
          "type": "address"
        },
        {
          "name": "ticketID",
          "type": "uint256"
        },
        {
          "name": "ticketValue",
          "type": "uint256"
        },
        {
          "name": "lucky7Number",
          "type": "uint256"
        },
        {
          "name": "lucky7NumberID",
          "type": "uint256"
        },
        {
          "name": "drawID",
          "type": "uint256"
        }
      ],
      "payable": false,
      "stateMutability": "view",
      "type": "function"
    },
    {
      "constant": false,
      "inputs": [],
      "name": "toggleLucky7Setting",
      "outputs": [],
      "payable": false,
      "stateMutability": "nonpayable",
      "type": "function"
    },
    {
      "constant": false,
      "inputs": [
        {
          "name": "_newValue",
          "type": "string"
        }
      ],
      "name": "modifyParameterJ",
      "outputs": [],
      "payable": false,
      "stateMutability": "nonpayable",
      "type": "function"
    },
    {
      "constant": false,
      "inputs": [],
      "name": "withdraw",
      "outputs": [],
      "payable": false,
      "stateMutability": "nonpayable",
      "type": "function"
    },
    {
      "constant": true,
      "inputs": [
        {
          "name": "",
          "type": "uint256"
        }
      ],
      "name": "lucky7Numbers",
      "outputs": [
        {
          "name": "mu",
          "type": "string"
        },
        {
          "name": "i",
          "type": "string"
        },
        {
          "name": "ticketValue",
          "type": "uint256"
        },
        {
          "name": "drawID",
          "type": "uint256"
        }
      ],
      "payable": false,
      "stateMutability": "view",
      "type": "function"
    },
    {
      "constant": false,
      "inputs": [],
      "name": "setNewGame",
      "outputs": [],
      "payable": false,
      "stateMutability": "nonpayable",
      "type": "function"
    },
    {
      "constant": true,
      "inputs": [
        {
          "name": "",
          "type": "address"
        }
      ],
      "name": "userValues",
      "outputs": [
        {
          "name": "mu",
          "type": "string"
        },
        {
          "name": "i",
          "type": "string"
        },
        {
          "name": "ticketValue",
          "type": "uint256"
        },
        {
          "name": "muReady",
          "type": "bool"
        },
        {
          "name": "iReady",
          "type": "bool"
        },
        {
          "name": "userPaidTicket",
          "type": "bool"
        }
      ],
      "payable": false,
      "stateMutability": "view",
      "type": "function"
    },
    {
      "constant": true,
      "inputs": [],
      "name": "b",
      "outputs": [
        {
          "name": "",
          "type": "string"
        }
      ],
      "payable": false,
      "stateMutability": "view",
      "type": "function"
    },
    {
      "constant": true,
      "inputs": [
        {
          "name": "",
          "type": "uint256"
        }
      ],
      "name": "tickets",
      "outputs": [
        {
          "name": "mu",
          "type": "string"
        },
        {
          "name": "i",
          "type": "string"
        },
        {
          "name": "ticketValue",
          "type": "uint256"
        },
        {
          "name": "owner",
          "type": "address"
        },
        {
          "name": "drawID",
          "type": "uint256"
        }
      ],
      "payable": false,
      "stateMutability": "view",
      "type": "function"
    },
    {
      "constant": true,
      "inputs": [],
      "name": "oraclizeGasLimit",
      "outputs": [
        {
          "name": "",
          "type": "uint256"
        }
      ],
      "payable": false,
      "stateMutability": "view",
      "type": "function"
    },
    {
      "constant": true,
      "inputs": [],
      "name": "numberOfLucky7Numbers",
      "outputs": [
        {
          "name": "",
          "type": "uint256"
        }
      ],
      "payable": false,
      "stateMutability": "view",
      "type": "function"
    },
    {
      "constant": true,
      "inputs": [],
      "name": "getlucky7Tickets",
      "outputs": [
        {
          "name": "",
          "type": "uint256[7]"
        }
      ],
      "payable": false,
      "stateMutability": "view",
      "type": "function"
    },
    {
      "constant": false,
      "inputs": [],
      "name": "renounceOwnership",
      "outputs": [],
      "payable": false,
      "stateMutability": "nonpayable",
      "type": "function"
    },
    {
      "constant": false,
      "inputs": [],
      "name": "generateRandomTicket",
      "outputs": [],
      "payable": true,
      "stateMutability": "payable",
      "type": "function"
    },
    {
      "constant": true,
      "inputs": [],
      "name": "enterpriseWallet",
      "outputs": [
        {
          "name": "",
          "type": "address"
        }
      ],
      "payable": false,
      "stateMutability": "view",
      "type": "function"
    },
    {
      "constant": false,
      "inputs": [],
      "name": "_orderLucky7Numbers",
      "outputs": [],
      "payable": false,
      "stateMutability": "nonpayable",
      "type": "function"
    },
    {
      "constant": false,
      "inputs": [
        {
          "name": "_ticketOwner",
          "type": "address"
        }
      ],
      "name": "_generateTicket",
      "outputs": [],
      "payable": false,
      "stateMutability": "nonpayable",
      "type": "function"
    },
    {
      "constant": false,
      "inputs": [
        {
          "name": "_newValue",
          "type": "uint256"
        }
      ],
      "name": "modifyOraclizeGasLimit",
      "outputs": [],
      "payable": false,
      "stateMutability": "nonpayable",
      "type": "function"
    },
    {
      "constant": false,
      "inputs": [],
      "name": "destroy",
      "outputs": [],
      "payable": false,
      "stateMutability": "nonpayable",
      "type": "function"
    },
    {
      "constant": false,
      "inputs": [
        {
          "name": "_newValue",
          "type": "string"
        }
      ],
      "name": "modifyParameterB",
      "outputs": [],
      "payable": false,
      "stateMutability": "nonpayable",
      "type": "function"
    },
    {
      "constant": false,
      "inputs": [
        {
          "name": "_newValue",
          "type": "uint256"
        }
      ],
      "name": "modifyGenerateTicketPrice",
      "outputs": [],
      "payable": false,
      "stateMutability": "nonpayable",
      "type": "function"
    },
    {
      "constant": true,
      "inputs": [],
      "name": "numberOfWinners",
      "outputs": [
        {
          "name": "",
          "type": "uint256"
        }
      ],
      "payable": false,
      "stateMutability": "view",
      "type": "function"
    },
    {
      "constant": true,
      "inputs": [],
      "name": "owner",
      "outputs": [
        {
          "name": "",
          "type": "address"
        }
      ],
      "payable": false,
      "stateMutability": "view",
      "type": "function"
    },
    {
      "constant": false,
      "inputs": [],
      "name": "_generateLucky7Number",
      "outputs": [],
      "payable": false,
      "stateMutability": "nonpayable",
      "type": "function"
    },
    {
      "constant": false,
      "inputs": [
        {
          "name": "_newAddress",
          "type": "address"
        }
      ],
      "name": "modifyEnterprisePrize",
      "outputs": [],
      "payable": false,
      "stateMutability": "nonpayable",
      "type": "function"
    },
    {
      "constant": true,
      "inputs": [],
      "name": "oraclizeCustomGasPrice",
      "outputs": [
        {
          "name": "",
          "type": "uint256"
        }
      ],
      "payable": false,
      "stateMutability": "view",
      "type": "function"
    },
    {
      "constant": true,
      "inputs": [],
      "name": "p",
      "outputs": [
        {
          "name": "",
          "type": "string"
        }
      ],
      "payable": false,
      "stateMutability": "view",
      "type": "function"
    },
    {
      "constant": false,
      "inputs": [
        {
          "name": "_newValue",
          "type": "string"
        }
      ],
      "name": "modifyParameterP",
      "outputs": [],
      "payable": false,
      "stateMutability": "nonpayable",
      "type": "function"
    },
    {
      "constant": true,
      "inputs": [],
      "name": "j",
      "outputs": [
        {
          "name": "",
          "type": "string"
        }
      ],
      "payable": false,
      "stateMutability": "view",
      "type": "function"
    },
    {
      "constant": true,
      "inputs": [],
      "name": "balance",
      "outputs": [
        {
          "name": "",
          "type": "uint256"
        }
      ],
      "payable": false,
      "stateMutability": "view",
      "type": "function"
    },
    {
      "constant": true,
      "inputs": [],
      "name": "initialLucky7TicketPosition",
      "outputs": [
        {
          "name": "",
          "type": "uint256"
        }
      ],
      "payable": false,
      "stateMutability": "view",
      "type": "function"
    },
    {
      "constant": false,
      "inputs": [
        {
          "name": "_newValue",
          "type": "uint256"
        }
      ],
      "name": "modifySellTicketPrice",
      "outputs": [],
      "payable": false,
      "stateMutability": "nonpayable",
      "type": "function"
    },
    {
      "constant": true,
      "inputs": [],
      "name": "indexForLucky7Array",
      "outputs": [
        {
          "name": "",
          "type": "uint256"
        }
      ],
      "payable": false,
      "stateMutability": "view",
      "type": "function"
    },
    {
      "constant": false,
      "inputs": [
        {
          "name": "_newValue",
          "type": "uint256"
        }
      ],
      "name": "modifyNumberOfLucky7Numbers",
      "outputs": [],
      "payable": false,
      "stateMutability": "nonpayable",
      "type": "function"
    },
    {
      "constant": false,
      "inputs": [
        {
          "name": "_newValue",
          "type": "uint256"
        }
      ],
      "name": "modifyNumberOfWinners",
      "outputs": [],
      "payable": false,
      "stateMutability": "nonpayable",
      "type": "function"
    },
    {
      "constant": false,
      "inputs": [
        {
          "name": "_newValue",
          "type": "uint256"
        }
      ],
      "name": "modifyOraclizeCustomGasPrice",
      "outputs": [],
      "payable": false,
      "stateMutability": "nonpayable",
      "type": "function"
    },
    {
      "constant": true,
      "inputs": [],
      "name": "generateTicketPrice",
      "outputs": [
        {
          "name": "",
          "type": "uint256"
        }
      ],
      "payable": false,
      "stateMutability": "view",
      "type": "function"
    },
    {
      "constant": true,
      "inputs": [],
      "name": "drawNumber",
      "outputs": [
        {
          "name": "",
          "type": "uint256"
        }
      ],
      "payable": false,
      "stateMutability": "view",
      "type": "function"
    },
    {
      "constant": false,
      "inputs": [
        {
          "name": "_ticketOwner",
          "type": "address"
        }
      ],
      "name": "_askForTicket",
      "outputs": [],
      "payable": false,
      "stateMutability": "nonpayable",
      "type": "function"
    },
    {
      "constant": true,
      "inputs": [],
      "name": "sellTicketPrice",
      "outputs": [
        {
          "name": "",
          "type": "uint256"
        }
      ],
      "payable": false,
      "stateMutability": "view",
      "type": "function"
    },
    {
      "constant": true,
      "inputs": [
        {
          "name": "",
          "type": "uint256"
        }
      ],
      "name": "lucky7TicketDifference",
      "outputs": [
        {
          "name": "",
          "type": "uint256"
        }
      ],
      "payable": false,
      "stateMutability": "view",
      "type": "function"
    },
    {
      "constant": false,
      "inputs": [
        {
          "name": "_newOwner",
          "type": "address"
        }
      ],
      "name": "transferOwnership",
      "outputs": [],
      "payable": false,
      "stateMutability": "nonpayable",
      "type": "function"
    },
    {
      "constant": true,
      "inputs": [
        {
          "name": "",
          "type": "address"
        }
      ],
      "name": "pendingWithdrawals",
      "outputs": [
        {
          "name": "",
          "type": "uint256"
        }
      ],
      "payable": false,
      "stateMutability": "view",
      "type": "function"
    },
    {
      "constant": false,
      "inputs": [],
      "name": "_deliverPrizes",
      "outputs": [],
      "payable": false,
      "stateMutability": "nonpayable",
      "type": "function"
    },
    {
      "constant": false,
      "inputs": [
        {
          "name": "_recipient",
          "type": "address"
        }
      ],
      "name": "destroyAndSend",
      "outputs": [],
      "payable": false,
      "stateMutability": "nonpayable",
      "type": "function"
    },
    {
      "constant": false,
      "inputs": [
        {
          "name": "_ticketOwner",
          "type": "address"
        }
      ],
      "name": "_askForIParameter",
      "outputs": [],
      "payable": false,
      "stateMutability": "nonpayable",
      "type": "function"
    },
    {
      "inputs": [],
      "payable": true,
      "stateMutability": "payable",
      "type": "constructor"
    },
    {
      "payable": true,
      "stateMutability": "payable",
      "type": "fallback"
    },
    {
      "anonymous": false,
      "inputs": [
        {
          "indexed": false,
          "name": "description",
          "type": "string"
        }
      ],
      "name": "newOraclizeQuery",
      "type": "event"
    },
    {
      "anonymous": false,
      "inputs": [
        {
          "indexed": false,
          "name": "parameterOwner",
          "type": "address"
        },
        {
          "indexed": false,
          "name": "muParameter",
          "type": "string"
        }
      ],
      "name": "newMuReceived",
      "type": "event"
    },
    {
      "anonymous": false,
      "inputs": [
        {
          "indexed": false,
          "name": "parameterOwner",
          "type": "address"
        },
        {
          "indexed": false,
          "name": "iParameter",
          "type": "string"
        }
      ],
      "name": "newIReceived",
      "type": "event"
    },
    {
      "anonymous": false,
      "inputs": [
        {
          "indexed": false,
          "name": "parameterOwner",
          "type": "address"
        },
        {
          "indexed": false,
          "name": "newTicket",
          "type": "string"
        }
      ],
      "name": "newTicketReceived",
      "type": "event"
    },
    {
      "anonymous": false,
      "inputs": [
        {
          "indexed": false,
          "name": "feeType",
          "type": "string"
        },
        {
          "indexed": false,
          "name": "_oldValue",
          "type": "uint256"
        },
        {
          "indexed": false,
          "name": "_newValue",
          "type": "uint256"
        }
      ],
      "name": "numberModified",
      "type": "event"
    },
    {
      "anonymous": false,
      "inputs": [
        {
          "indexed": false,
          "name": "parameter",
          "type": "string"
        },
        {
          "indexed": false,
          "name": "_oldValue",
          "type": "string"
        },
        {
          "indexed": false,
          "name": "_newValue",
          "type": "string"
        }
      ],
      "name": "parameterModified",
      "type": "event"
    },
    {
      "anonymous": false,
      "inputs": [
        {
          "indexed": false,
          "name": "parameter",
          "type": "string"
        },
        {
          "indexed": false,
          "name": "_oldValue",
          "type": "address"
        },
        {
          "indexed": false,
          "name": "_newValue",
          "type": "address"
        }
      ],
      "name": "walletModified",
      "type": "event"
    },
    {
      "anonymous": false,
      "inputs": [
        {
          "indexed": true,
          "name": "previousOwner",
          "type": "address"
        }
      ],
      "name": "OwnershipRenounced",
      "type": "event"
    },
    {
      "anonymous": false,
      "inputs": [
        {
          "indexed": true,
          "name": "previousOwner",
          "type": "address"
        },
        {
          "indexed": true,
          "name": "newOwner",
          "type": "address"
        }
      ],
      "name": "OwnershipTransferred",
      "type": "event"
    },
    {
      "constant": false,
      "inputs": [],
      "name": "insertTestLucky7Numbers",
      "outputs": [],
      "payable": false,
      "stateMutability": "nonpayable",
      "type": "function"
    }
  ],
  "bytecode": "0x60c0604052600160808190527f310000000000000000000000000000000000000000000000000000000000000060a0908152620000409160069190620001b0565b506040805180820190915260018082527f380000000000000000000000000000000000000000000000000000000000000060209092019182526200008791600791620001b0565b506040805180820190915260058082527f31303030300000000000000000000000000000000000000000000000000000006020909201918252620000ce91600891620001b0565b506040805180820190915260028082527f323000000000000000000000000000000000000000000000000000000000000060209092019182526200011591600991620001b0565b506007600a556003600b556611c37937e08000600c55662aa1efb94e0000600d55620493e0600e5563ee6b2800600f556005805460108054600160a060020a0319908116600160a060020a038416179091556000601181905560128190556013805460ff19166001179055603981905591811633179092558054909116736f485c8bf6fc43ea212e93bbf8ce046c7f1cb47517905562000255565b828054600181600116156101000203166002900490600052602060002090601f016020900481019282601f10620001f357805160ff191683800117855562000223565b8280016001018555821562000223579182015b828111156200022357825182559160200191906001019062000206565b506200023192915062000235565b5090565b6200025291905b808211156200023157600081556001016200023c565b90565b615b7980620002656000396000f3006080604052600436106102b05763ffffffff60e060020a60003504166301591f1381146102b25780630b8ec740146102ff5780630cc38b2b146103075780630ef309851461036057806310cd4b8a146103755780631c3ed1d31461039f5780631cf4c3d1146103d35780631ded3bec146103e857806323d370ba146103f057806327dc297e146104115780632caf9eee1461046f5780632de729eb146104985780632e52d606146104b057806338bbfa501461053a578063396fb422146105d657806339df3f4f1461062e5780633bb7daf4146106435780633ccfd60b1461069c5780633eba3466146106b157806340014911146107b55780634acfd9b8146107ca5780634df7e3d0146108e957806350b44712146108fe57806350b9c42814610a1157806359f9fe8214610a265780635edbc36b14610a3b578063715018a614610a5057806372c3477d14610a65578063741606b514610a6d57806375edd25714610a8257806377d8a83014610a97578063809fc15314610ab857806383197ef014610ad057806383bb7bb714610ae55780638aa5fafa14610b3e5780638acfaca914610b565780638da5cb5b14610b6b57806390c31c4c14610b8057806396701ce914610b955780639ac2bf9114610bb65780639ae8886a14610bcb5780639dec38ab14610be0578063b582ec5f14610c39578063b69ef8a814610c4e578063bb49516b14610c63578063bcb740ab14610c78578063c56969ab14610c90578063c71f04ac14610ca5578063c90cdc7e14610cbd578063d383e86214610cd5578063d566bcf014610ced578063d80ffb2014610d02578063ddc110fa14610d17578063e5663c4814610d38578063e802ae1414610d4d578063f2fde38b14610d65578063f3f4370314610d86578063f405228914610da7578063f5074f4114610dbc578063fd9be1b214610ddd575b005b3480156102be57600080fd5b506102c7610dfe565b604051808260e080838360005b838110156102ec5781810151838201526020016102d4565b5050505090500191505060405180910390f35b6102b0610e75565b34801561031357600080fd5b506040805160206004803580820135601f81018490048402850184019095528484526102b09436949293602493928401919081908401838280828437509497506110319650505050505050565b34801561036c57600080fd5b506102b0611219565b34801561038157600080fd5b5061038d6004356116a1565b60408051918252519081900360200190f35b3480156103ab57600080fd5b506103b76004356116b3565b60408051600160a060020a039092168252519081900360200190f35b3480156103df57600080fd5b506102b06116ce565b6102b0611aa4565b3480156103fc57600080fd5b506102b0600160a060020a0360043516611b13565b34801561041d57600080fd5b5060408051602060046024803582810135601f81018590048502860185019096528585526102b0958335953695604494919390910191908190840183828082843750949750611c259650505050505050565b34801561047b57600080fd5b50610484612238565b604080519115158252519081900360200190f35b3480156104a457600080fd5b506102b0600435612241565b3480156104bc57600080fd5b506104c5612483565b6040805160208082528351818301528351919283929083019185019080838360005b838110156104ff5781810151838201526020016104e7565b50505050905090810190601f16801561052c5780820380516001836020036101000a031916815260200191505b509250505060405180910390f35b34801561054657600080fd5b5060408051602060046024803582810135601f81018590048502860185019096528585526102b095833595369560449491939091019190819084018382808284375050604080516020601f89358b018035918201839004830284018301909452808352979a9998810197919650918201945092508291508401838280828437509497506125119650505050505050565b3480156105e257600080fd5b506105ee600435612516565b60408051978852600160a060020a039096166020880152868601949094526060860192909252608085015260a084015260c0830152519081900360e00190f35b34801561063a57600080fd5b506102b061256d565b34801561064f57600080fd5b506040805160206004803580820135601f81018490048402850184019095528484526102b09436949293602493928401919081908401838280828437509497506125989650505050505050565b3480156106a857600080fd5b506102b06126de565b3480156106bd57600080fd5b506106c960043561271f565b604051808060200180602001858152602001848152602001838103835287818151815260200191508051906020019080838360005b838110156107165781810151838201526020016106fe565b50505050905090810190601f1680156107435780820380516001836020036101000a031916815260200191505b50838103825286518152865160209182019188019080838360005b8381101561077657818101518382015260200161075e565b50505050905090810190601f1680156107a35780820380516001836020036101000a031916815260200191505b50965050505050505060405180910390f35b3480156107c157600080fd5b506102b061286b565b3480156107d657600080fd5b506107eb600160a060020a03600435166128a6565b604080519081018590528315156060820152821515608082015281151560a082015260c08082528751908201528651819060208083019160e08401918b019080838360005b83811015610848578181015183820152602001610830565b50505050905090810190601f1680156108755780820380516001836020036101000a031916815260200191505b5083810382528851815288516020918201918a019080838360005b838110156108a8578181015183820152602001610890565b50505050905090810190601f1680156108d55780820380516001836020036101000a031916815260200191505b509850505050505050505060405180910390f35b3480156108f557600080fd5b506104c5612a06565b34801561090a57600080fd5b50610916600435612a61565b60408051908101849052600160a060020a03831660608201526080810182905260a08082528651908201528551819060208083019160c08401918a019080838360005b83811015610971578181015183820152602001610959565b50505050905090810190601f16801561099e5780820380516001836020036101000a031916815260200191505b50838103825287518152875160209182019189019080838360005b838110156109d15781810151838201526020016109b9565b50505050905090810190601f1680156109fe5780820380516001836020036101000a031916815260200191505b5097505050505050505060405180910390f35b348015610a1d57600080fd5b5061038d612bce565b348015610a3257600080fd5b5061038d612bd4565b348015610a4757600080fd5b506102c7612bda565b348015610a5c57600080fd5b506102b0612c6b565b6102b0612ccc565b348015610a7957600080fd5b506103b7612d1a565b348015610a8e57600080fd5b506102b0612d29565b348015610aa357600080fd5b506102b0600160a060020a0360043516613167565b348015610ac457600080fd5b506102b0600435613179565b348015610adc57600080fd5b506102b06131fc565b348015610af157600080fd5b506040805160206004803580820135601f81018490048402850184019095528484526102b09436949293602493928401919081908401838280828437509497506132219650505050505050565b348015610b4a57600080fd5b506102b0600435613367565b348015610b6257600080fd5b5061038d6133ea565b348015610b7757600080fd5b506103b76133f0565b348015610b8c57600080fd5b506102b06133ff565b348015610ba157600080fd5b506102b0600160a060020a0360043516613460565b348015610bc257600080fd5b5061038d613511565b348015610bd757600080fd5b506104c5613517565b348015610bec57600080fd5b506040805160206004803580820135601f81018490048402850184019095528484526102b09436949293602493928401919081908401838280828437509497506135729650505050505050565b348015610c4557600080fd5b506104c56136b8565b348015610c5a57600080fd5b5061038d613713565b348015610c6f57600080fd5b5061038d613734565b348015610c8457600080fd5b506102b060043561373a565b348015610c9c57600080fd5b5061038d6137bd565b348015610cb157600080fd5b506102b06004356137c3565b348015610cc957600080fd5b506102b0600435613846565b348015610ce157600080fd5b506102b06004356138c9565b348015610cf957600080fd5b5061038d613972565b348015610d0e57600080fd5b5061038d613978565b348015610d2357600080fd5b506102b0600160a060020a036004351661397e565b348015610d4457600080fd5b5061038d613a65565b348015610d5957600080fd5b5061038d600435613a6b565b348015610d7157600080fd5b506102b0600160a060020a0360043516613a7d565b348015610d9257600080fd5b5061038d600160a060020a0360043516613a9d565b348015610db357600080fd5b506102b0613aaf565b348015610dc857600080fd5b506102b0600160a060020a0360043516613eb5565b348015610de957600080fd5b506102b0600160a060020a0360043516613ed8565b610e06615971565b6000805b600a54811015610e415760168160078110610e2157fe5b60040201600201548282600781101515610e3757fe5b0155600101610e0a565b6040805160e081019182905290839060079082845b815481526020019060010190808311610e565750505050509250505090565b600d543390341015610e8657600080fd5b600160a060020a0381166000908152603260205260409020600301805462ff000019166201000017905560135460ff1615610ec057600080fd5b6040805133600090815260326020529190912080547fc5d2460186f7233c927e7db2dcc703c0e500b653ca82273b7bfad8045d85a470929081908390600261010060018316150260001901909116048015610f525780601f10610f30576101008083540402835291820191610f52565b820191906000526020600020905b815481529060010190602001808311610f3e575b50509150506040518091039020600019161415801561101a575060408051336000908152603260205291909120600190810180547fc5d2460186f7233c927e7db2dcc703c0e500b653ca82273b7bfad8045d85a4709391928291849160026101009183161591909102600019019091160480156110065780601f10610fe4576101008083540402835291820191611006565b820191906000526020600020905b815481529060010190602001808311610ff2575b505091505060405180910390206000191614155b151561102557600080fd5b61102e3361397e565b50565b600554606090600160a060020a0316331461104b57600080fd5b6007805460408051602060026001851615610100026000190190941693909304601f810184900484028201840190925281815292918301828280156110d15780601f106110a6576101008083540402835291602001916110d1565b820191906000526020600020905b8154815290600101906020018083116110b457829003601f168201915b505085519394506110ed93600793506020870192509050615990565b50600080516020615b2e833981519152818360405180806020018060200180602001848103845260148152602001807f506172616d65746572206e206d6f646966696564000000000000000000000000815250602001848103835286818151815260200191508051906020019080838360005b83811015611178578181015183820152602001611160565b50505050905090810190601f1680156111a55780820380516001836020036101000a031916815260200191505b50848103825285518152855160209182019187019080838360005b838110156111d85781810151838201526020016111c0565b50505050905090810190601f1680156112055780820380516001836020036101000a031916815260200191505b509550505050505060405180910390a15050565b6040805160c08101825260016080820181815260f860020a60310260a084015282528251808401845290815260f960020a601902602080830191909152808301919091526793d0f60dbe05940692820192909252601154606082015280518051919260169261128b9284920190615990565b5060208281015180516112a49260018501920190615990565b506040828101516002830155606092830151600390920191909155805160c08101825260016080820181815260f860020a60310260a084015282528251808401845290815260f960020a601902602082810191909152808301919091526804c5fa0329ef99d22a928201929092526011549281019290925281518051601a92611331928492910190615990565b50602082810151805161134a9260018501920190615990565b506040828101516002830155606092830151600390920191909155805160c08101825260016080820181815260f860020a60310260a084015282528251808401845290815260f960020a601902602082810191909152808301919091526802d72da9b820819e87928201929092526011549281019290925281518051601e926113d7928492910190615990565b5060208281015180516113f09260018501920190615990565b506040828101516002830155606092830151600390920191909155805160c08101825260016080820181815260f860020a60310260a084015282528251808401845290815260f960020a601902602082810191909152808301919091526804e850f1d2e1ec145292820192909252601154928101929092528151805160229261147d928492910190615990565b5060208281015180516114969260018501920190615990565b506040828101516002830155606092830151600390920191909155805160c08101825260016080820181815260f860020a60310260a084015282528251808401845290815260f960020a601902602082810191909152808301919091526801a704d637c3501f97928201929092526011549281019290925281518051602692611523928492910190615990565b50602082810151805161153c9260018501920190615990565b506040828101516002830155606092830151600390920191909155805160c08101825260016080820181815260f860020a60310260a084015282528251808401845290815260f960020a60190260208281019190915280830191909152680151d16e9cb32a55e8928201929092526011549281019290925281518051602a926115c9928492910190615990565b5060208281015180516115e29260018501920190615990565b506040828101516002830155606092830151600390920191909155805160c08101825260016080820181815260f860020a60310260a084015282528251808401845290815260f960020a6019026020828101919091528083019190915268041295da4332def270928201929092526011549281019290925281518051602e9261166f928492910190615990565b5060208281015180516116889260018501920190615990565b5060408201516002820155606090910151600390910155565b60386020526000908152604090205481565b603760205260009081526040902054600160a060020a031681565b6116d6615a0e565b60055460009081908190600160a060020a031633146116f457600080fd5b5060005b600a54811015611822576040805160e0810182526000838152603660209081528382205483528482526037815283822054600160a060020a031681840152848252603880825284832054948401859052918590525260158054601493606084019291811061176257fe5b906000526020600020906005020160020154815260200160168460078110151561178857fe5b600490810291909101600290810154835260208084018790526011546040948501528554600180820188556000978852968290208651600790920201908155908501518187018054600160a060020a031916600160a060020a0390921691909117905592840151908301556060830151600383015560808301519082015560a0820151600582015560c090910151600690910155016116f8565b506039545b603954600a5401811015611a9e5780925060148181548110151561184757fe5b60009182526020918290206040805160e081018252600790930290910180548352600180820154600160a060020a0316948401949094526002810154918301919091526003810154606083015260048101546080830152600581015460a08301526006015460c08201529450810191505b603954600a54018210156119765760148054839081106118d457fe5b60009182526020909120600790910201548451111561196b5760148054839081106118fb57fe5b60009182526020918290206040805160e0810182526007909302909101805483526001810154600160a060020a0316938301939093526002830154908201526003820154606082015260048201546080820152600582015460a082015260069091015460c0820152935090915081905b6001909101906118b8565b828114611a9657601480548290811061198b57fe5b90600052602060002090600702016014848154811015156119a857fe5b6000918252602090912082546007909202019081556001808301549082018054600160a060020a031916600160a060020a03909216919091179055600280830154908201556003808301549082015560048083015490820155600580830154908201556006918201549101556014805485919083908110611a2557fe5b600091825260209182902083516007929092020190815590820151600182018054600160a060020a031916600160a060020a0390921691909117905560408201516002820155606082015160038201556080820151600482015560a0820151600582015560c0909101516006909101555b600101611827565b50505050565b600d543390341015611ab557600080fd5b600160a060020a0381166000908152603260205260408082206003908101805462ff00001916620100001790553380845291909220909101805461ffff1916905560135460ff1615611b0657600080fd5b611b0f33613167565b5050565b6000611b20600f54613fec565b604080516020808252808201527f41736b696e6720666f722061206e6577206d7520706172616d657465722e2e2e8183015290517f46cb989ef9cef13e930e3b7f286225a086e716a90d63e0b7da85d310a9db0c9a9181900360600190a1611bf56040805190810160405280600c81526020017f576f6c6672616d416c70686100000000000000000000000000000000000000008152506040805190810160405280600f81526020017f342072616e646f6d206e756d6265720000000000000000000000000000000000815250600e546141d2565b60009081526033602052604090208054600160a060020a031916600160a060020a03939093169290921790915550565b611c2d6145d3565b600160a060020a03163314611c4157600080fd5b600082815260336020526040902054600160a060020a031615801590611c8f5750600082815260336020908152604080832054600160a060020a03168352603290915290206003015460ff16155b15611e5157600082815260336020908152604080832054600160a060020a03168352603282529091208251611cc692840190615990565b506000828152603360209081526040808320548151600160a060020a0390911680825281840183815286519383019390935285517f47eedbcfd0da23d2413b78bd7807ecbde2a9754fa0dc19185984a244d9cd773a959194879492606085019291860191908190849084905b83811015611d4a578181015183820152602001611d32565b50505050905090810190601f168015611d775780820380516001836020036101000a031916815260200191505b50935050505060405180910390a160008281526033602090815260408083208054600160a060020a03908116855260329093528184206003908101805460ff191660019081179091559154909316845292200154610100900460ff161515148015611e265750600082815260336020908152604080832054600160a060020a03168352603290915290206003015460ff6201000090910416151560011480611e26575060135460ff1615156001145b15611e4c57600082815260336020526040902054611e4c90600160a060020a031661397e565b611b0f565b600082815260346020526040902054600160a060020a031615801590611ea45750600082815260346020908152604080832054600160a060020a031683526032909152902060030154610100900460ff16155b1561206457600082815260346020908152604080832054600160a060020a03168352603282529091208251611ee192600190920191840190615990565b506000828152603460209081526040808320548151600160a060020a0390911680825281840183815286519383019390935285517f493aa57ad5f18480f956f6979e26052f3c3e9b6f4985b1331bfa696904e10cd5959194879492606085019291860191908190849084905b83811015611f65578181015183820152602001611f4d565b50505050905090810190601f168015611f925780820380516001836020036101000a031916815260200191505b50935050505060405180910390a160008281526034602090815260408083208054600160a060020a03908116855260329093528184206003908101805461ff00191661010017905590549092168352909120015460ff161515600114801561203e5750600082815260346020908152604080832054600160a060020a03168352603290915290206003015460ff620100009091041615156001148061203e575060135460ff1615156001145b15611e4c57600082815260346020526040902054611e4c90600160a060020a031661397e565b600082815260356020526040902054600160a060020a0316158015906120ce5750600082815260356020908152604080832054600160a060020a03168352603290915290206003015460ff62010000909104161515600114806120ce575060135460ff1615156001145b15611b0f576120dc816147c4565b60008381526035602081815260408084208054600160a060020a039081168652603284528286206002019690965587855292825291548251941680855284820183815286519386019390935285517f3c6507a39df055ecbb0672078b29c556fa529767da7d5676e77478914e3b5987959194879492936060850192908601918190849084905b8381101561217a578181015183820152602001612162565b50505050905090810190601f1680156121a75780820380516001836020036101000a031916815260200191505b50935050505060405180910390a1600082815260356020908152604080832054600160a060020a0316835260329091529020600301805462ff00001916905560135460ff1615156001141561221757600082815260356020526040902054611e4c90600160a060020a03166147d7565b600082815260356020526040902054611b0f90600160a060020a03166149e0565b60135460ff1681565b60008060008060166001600a540360078110151561225b57fe5b600402016002015460158681548110151561227257fe5b90600052602060002090600502016002015411156122e157600a546000190193506122da601685600781106122a357fe5b60040201600201546015878154811015156122ba57fe5b906000526020600020906005020160020154614c1b90919063ffffffff16565b92506123e2565b60185460158054879081106122f257fe5b906000526020600020906005020160020154101561235757600093506122da60158681548110151561232057fe5b90600052602060002090600502016002015460168660078110151561234157fe5b6004020160020154614c1b90919063ffffffff16565b6016846007811061236457fe5b600402016002015460158681548110151561237b57fe5b906000526020600020906005020160020154111561239e57600190930192612357565b6123b260166000198601600781106122a357fe5b91506123c660158681548110151561232057fe5b9050818111156123de576001840393508192506123e2565b8092505b600084815260376020526040902054600160a060020a03161580612413575060008481526036602052604090205483105b1561247c57601580548690811061242657fe5b60009182526020808320600360059093020191909101548683526037825260408084208054600160a060020a031916600160a060020a039093169290921790915560368252808320869055603890915290208590555b5050505050565b6007805460408051602060026001851615610100026000190190941693909304601f810184900484028201840190925281815292918301828280156125095780601f106124de57610100808354040283529160200191612509565b820191906000526020600020905b8154815290600101906020018083116124ec57829003601f168201915b505050505081565b505050565b601480548290811061252457fe5b60009182526020909120600790910201805460018201546002830154600384015460048501546005860154600690960154949650600160a060020a039093169491939092919087565b600554600160a060020a0316331461258457600080fd5b6013805460ff19811660ff90911615179055565b600554606090600160a060020a031633146125b257600080fd5b6009805460408051602060026001851615610100026000190190941693909304601f810184900484028201840190925281815292918301828280156126385780601f1061260d57610100808354040283529160200191612638565b820191906000526020600020905b81548152906001019060200180831161261b57829003601f168201915b5050855193945061265493600993506020870192509050615990565b50600080516020615b2e833981519152818360405180806020018060200180602001848103845260148152602001807f506172616d65746572206a206d6f6469666965640000000000000000000000008152506020018481038352868181518152602001915080519060200190808383600083811015611178578181015183820152602001611160565b336000818152603a6020526040808220805490839055905190929183156108fc02918491818181858888f19350505050158015611b0f573d6000803e3d6000fd5b6016816007811061272c57fe5b60040201805460408051602060026001851615610100026000190190941693909304601f810184900484028201840190925281815292935083918301828280156127b75780601f1061278c576101008083540402835291602001916127b7565b820191906000526020600020905b81548152906001019060200180831161279a57829003601f168201915b505050505090806001018054600181600116156101000203166002900480601f0160208091040260200160405190810160405280929190818152602001828054600181600116156101000203166002900480156128555780601f1061282a57610100808354040283529160200191612855565b820191906000526020600020905b81548152906001019060200180831161283857829003601f168201915b5050505050908060020154908060030154905084565b600554600160a060020a0316331461288257600080fd5b600a546011540260395561289461256d565b61289c6116ce565b6128a4613aaf565b565b60326020908152600091825260409182902080548351601f6002600019610100600186161502019093169290920491820184900484028101840190945280845290929183919083018282801561293d5780601f106129125761010080835404028352916020019161293d565b820191906000526020600020905b81548152906001019060200180831161292057829003601f168201915b505050505090806001018054600181600116156101000203166002900480601f0160208091040260200160405190810160405280929190818152602001828054600181600116156101000203166002900480156129db5780601f106129b0576101008083540402835291602001916129db565b820191906000526020600020905b8154815290600101906020018083116129be57829003601f168201915b50505050600283015460039093015491929160ff808216925061010082048116916201000090041686565b6006805460408051602060026001851615610100026000190190941693909304601f810184900484028201840190925281815292918301828280156125095780601f106124de57610100808354040283529160200191612509565b6015805482908110612a6f57fe5b60009182526020918290206005919091020180546040805160026001841615610100026000190190931692909204601f810185900485028301850190915280825291935091839190830182828015612b085780601f10612add57610100808354040283529160200191612b08565b820191906000526020600020905b815481529060010190602001808311612aeb57829003601f168201915b505050505090806001018054600181600116156101000203166002900480601f016020809104026020016040519081016040528092919081815260200182805460018160011615610100020316600290048015612ba65780601f10612b7b57610100808354040283529160200191612ba6565b820191906000526020600020905b815481529060010190602001808311612b8957829003601f168201915b505050506002830154600384015460049094015492939092600160a060020a03909116915085565b600e5481565b600a5481565b612be2615971565b6000805b600a54811015610e4157600081815260376020526040902054600160a060020a031615612c5257600081815260386020526040902054601580549091908110612c2b57fe5b9060005260206000209060050201600201548282600781101515612c4b57fe5b0155612c63565b6000828260078110612c6057fe5b01555b600101612be6565b600554600160a060020a03163314612c8257600080fd5b600554604051600160a060020a03909116907ff8df31144d9c2f0f6b59d69b8b98abd5459d07f2742c4df920b25aae33c6482090600090a260058054600160a060020a0319169055565b600c543390341015612cdd57600080fd5b336000818152603260205260409020600301805461ffff1916905560135460ff1615612d0857600080fd5b612d1133611b13565b611b0f33613ed8565b601054600160a060020a031681565b612d31615a55565b60055460009081908190600160a060020a03163314612d4f57600080fd5b5060005b600a54811015611a9e5791508160168160078110612d6d57fe5b6040805160049290920292909201805460a06020601f6002600019610100600187161502019094169390930492830181900402840181019094526080830181815292939192849290918491840182828015612e095780601f10612dde57610100808354040283529160200191612e09565b820191906000526020600020905b815481529060010190602001808311612dec57829003601f168201915b50505050508152602001600182018054600181600116156101000203166002900480601f016020809104026020016040519081016040528092919081815260200182805460018160011615610100020316600290048015612eab5780601f10612e8057610100808354040283529160200191612eab565b820191906000526020600020905b815481529060010190602001808311612e8e57829003601f168201915b505050505081526020016002820154815260200160038201548152505093508060010191505b600a548210156130745760168260078110612ee857fe5b6004020160020154846040015111156130695760168260078110612f0857fe5b6040805160049290920292909201805460a06020601f6002600019610100600187161502019094169390930492830181900402840181019094526080830181815292939192849290918491840182828015612fa45780601f10612f7957610100808354040283529160200191612fa4565b820191906000526020600020905b815481529060010190602001808311612f8757829003601f168201915b50505050508152602001600182018054600181600116156101000203166002900480601f0160208091040260200160405190810160405280929190818152602001828054600181600116156101000203166002900480156130465780601f1061301b57610100808354040283529160200191613046565b820191906000526020600020905b81548152906001019060200180831161302957829003601f168201915b505050505081526020016002820154815260200160038201548152505093508192505b600190910190612ed1565b82811461315f576016816007811061308857fe5b600402016016846007811061309957fe5b60040201600082018160000190805460018160011615610100020316600290046130c4929190615a7e565b50600182018160010190805460018160011615610100020316600290046130ec929190615a7e565b5060028281015490820155600391820154910155836016826007811061310e57fe5b60040201600082015181600001908051906020019061312e929190615990565b5060208281015180516131479260018501920190615990565b50604082015160028201556060909101516003909101555b600101612d53565b61317081611b13565b61102e81613ed8565b600554600090600160a060020a0316331461319357600080fd5b50600e80549082905560408051602081018390528082018490526060808252601a908201527f4f7261636c697a6520676173206c696d6974206368616e67656400000000000060808201529051600080516020615b0e8339815191529181900360a00190a15050565b600554600160a060020a0316331461321357600080fd5b600554600160a060020a0316ff5b600554606090600160a060020a0316331461323b57600080fd5b6006805460408051602060026001851615610100026000190190941693909304601f810184900484028201840190925281815292918301828280156132c15780601f10613296576101008083540402835291602001916132c1565b820191906000526020600020905b8154815290600101906020018083116132a457829003601f168201915b505085519394506132dd93600693506020870192509050615990565b50600080516020615b2e833981519152818360405180806020018060200180602001848103845260148152602001807f506172616d657465722062206d6f6469666965640000000000000000000000008152506020018481038352868181518152602001915080519060200190808383600083811015611178578181015183820152602001611160565b600554600090600160a060020a0316331461338157600080fd5b50600c80549082905560408051602081018390528082018490526060808252601d908201527f47656e6572617465207469636b6574207072696365206368616e67656400000060808201529051600080516020615b0e8339815191529181900360a00190a15050565b600b5481565b600554600160a060020a031681565b600554600160a060020a0316331461341657600080fd5b600a54601254141561343c5761342a612d29565b600060125561343761256d565b6128a4565b306000818152603260205260409020600301805461ffff191690556128a490613167565b600554600090600160a060020a0316331461347a57600080fd5b5060108054600160a060020a03838116600160a060020a0319831681179093556040805191909216602082018190528183019390935260608082526019908201527f456e74657270726973652077616c6c6574206368616e67656400000000000000608082015290517f223db053947bb148de510715d3c7d8ccd72bdd376752fd735ee7bd0bd0ece5bf9181900360a00190a15050565b600f5481565b6008805460408051602060026001851615610100026000190190941693909304601f810184900484028201840190925281815292918301828280156125095780601f106124de57610100808354040283529160200191612509565b600554606090600160a060020a0316331461358c57600080fd5b6008805460408051602060026001851615610100026000190190941693909304601f810184900484028201840190925281815292918301828280156136125780601f106135e757610100808354040283529160200191613612565b820191906000526020600020905b8154815290600101906020018083116135f557829003601f168201915b5050855193945061362e93600893506020870192509050615990565b50600080516020615b2e833981519152818360405180806020018060200180602001848103845260148152602001807f506172616d657465722070206d6f6469666965640000000000000000000000008152506020018481038352868181518152602001915080519060200190808383600083811015611178578181015183820152602001611160565b6009805460408051602060026001851615610100026000190190941693909304601f810184900484028201840190925281815292918301828280156125095780601f106124de57610100808354040283529160200191612509565b600554600090600160a060020a0316331461372d57600080fd5b5030315b90565b60395481565b600554600090600160a060020a0316331461375457600080fd5b50600d805490829055604080516020810183905280820184905260608082526019908201527f53656c6c207469636b6574207072696365206368616e6765640000000000000060808201529051600080516020615b0e8339815191529181900360a00190a15050565b60125481565b600554600090600160a060020a031633146137dd57600080fd5b50600a805490829055604080516020810183905280820184905260608082526019908201527f53656c6c207469636b6574207072696365206368616e6765640000000000000060808201529051600080516020615b0e8339815191529181900360a00190a15050565b600554600090600160a060020a0316331461386057600080fd5b50600b805490829055604080516020810183905280820184905260608082526019908201527f4e756d626572206f662077696e6e657273206368616e6765640000000000000060808201529051600080516020615b0e8339815191529181900360a00190a15050565b600554600090600160a060020a031633146138e357600080fd5b50600f805490829055604080516020810183905280820184905260608082526021908201527f4f7261636c697a6520637573746f6d20676173207072696365206368616e676560808201527f640000000000000000000000000000000000000000000000000000000000000060a08201529051600080516020615b0e8339815191529181900360c00190a15050565b600c5481565b60115481565b600061398b600f54613fec565b604080516020808252601a908201527f41736b696e6720666f722061206e6577207469636b65742e2e2e0000000000008183015290517f46cb989ef9cef13e930e3b7f286225a086e716a90d63e0b7da85d310a9db0c9a9181900360600190a1613a356040805190810160405280600c81526020017f576f6c6672616d416c7068610000000000000000000000000000000000000000815250613a2d84614c2d565b600e546141d2565b60009081526035602052604090208054600160a060020a031916600160a060020a03939093169290921790915550565b600d5481565b60366020526000908152604090205481565b600554600160a060020a03163314613a9457600080fd5b61102e8161517e565b603a6020526000908152604090205481565b6005546000908190819081908190600160a060020a03163314613ad157600080fd5b613ae33031600763ffffffff6151ef16565b9450613af685600a63ffffffff61521816565b9450613b0985600663ffffffff6151ef16565b9350613b1c85600363ffffffff6151ef16565b9250613b2f85600163ffffffff6151ef16565b9150613b4284600a63ffffffff61521816565b9350613b5583600a63ffffffff61521816565b9250613b6882600a63ffffffff61521816565b915060395490505b603954600a5401811015613c0757601480546000919083908110613b9057fe5b6000918252602090912060016007909202010154600160a060020a031614613bff5783603a6000601484815481101515613bc657fe5b6000918252602080832060016007909302019190910154600160a060020a03168352820192909252604001902080549091019055613c07565b600101613b70565b6001015b603954600a5401811015613ca257601480546000919083908110613c2b57fe5b6000918252602090912060016007909202010154600160a060020a031614613c9a5782603a6000601484815481101515613c6157fe5b6000918252602080832060016007909302019190910154600160a060020a03168352820192909252604001902080549091019055613ca2565b600101613c0b565b6001015b603954600a5401811015613d3d57601480546000919083908110613cc657fe5b6000918252602090912060016007909202010154600160a060020a031614613d355781603a6000601484815481101515613cfc57fe5b6000918252602080832060016007909302019190910154600160a060020a03168352820192909252604001902080549091019055613d3d565b600101613ca6565b601180546001019055601054604051600160a060020a0390911690303180156108fc02916000818181858888f19350505050158015613d80573d6000803e3d6000fd5b50600090505b600a5481101561247c5760008181526037602090815260408083208054600160a060020a03191690556036825280832083905560388252808320929092558151808301909252600182527f30000000000000000000000000000000000000000000000000000000000000009082015260168260078110613e0257fe5b600402016000019080519060200190613e1c929190615990565b5060408051808201909152600181527f3000000000000000000000000000000000000000000000000000000000000000602082015260168260078110613e5e57fe5b600402016001019080519060200190613e78929190615990565b50600060168260078110613e8857fe5b6004020160020181905550601154601682600781101515613ea557fe5b6004020160030155600101613d86565b600554600160a060020a03163314613ecc57600080fd5b80600160a060020a0316ff5b6000613ee5600f54613fec565b604080516020808252601f908201527f41736b696e6720666f722061206e6577206920706172616d657465722e2e2e008183015290517f46cb989ef9cef13e930e3b7f286225a086e716a90d63e0b7da85d310a9db0c9a9181900360600190a1613fbc6040805190810160405280600c81526020017f576f6c6672616d416c70686100000000000000000000000000000000000000008152506040805190810160405280600f81526020017f342072616e646f6d206e756d6265720000000000000000000000000000000000815250600e546141d2565b60009081526034602052604090208054600160a060020a031916600160a060020a03939093169290921790915550565b600054600160a060020a03161580614016575060005461401490600160a060020a031661522d565b155b15614027576140256000615231565b505b6000809054906101000a9004600160a060020a0316600160a060020a03166338cc48316040518163ffffffff1660e060020a028152600401602060405180830381600087803b15801561407957600080fd5b505af115801561408d573d6000803e3d6000fd5b505050506040513d60208110156140a357600080fd5b5051600154600160a060020a03908116911614614158576000809054906101000a9004600160a060020a0316600160a060020a03166338cc48316040518163ffffffff1660e060020a028152600401602060405180830381600087803b15801561410c57600080fd5b505af1158015614120573d6000803e3d6000fd5b505050506040513d602081101561413657600080fd5b505160018054600160a060020a031916600160a060020a039092169190911790555b600154604080517fca6ad1e4000000000000000000000000000000000000000000000000000000008152600481018490529051600160a060020a039092169163ca6ad1e49160248082019260009290919082900301818387803b1580156141be57600080fd5b505af115801561247c573d6000803e3d6000fd5b600080548190600160a060020a031615806141ff57506000546141fd90600160a060020a031661522d565b155b156142105761420e6000615231565b505b6000809054906101000a9004600160a060020a0316600160a060020a03166338cc48316040518163ffffffff1660e060020a028152600401602060405180830381600087803b15801561426257600080fd5b505af1158015614276573d6000803e3d6000fd5b505050506040513d602081101561428c57600080fd5b5051600154600160a060020a03908116911614614341576000809054906101000a9004600160a060020a0316600160a060020a03166338cc48316040518163ffffffff1660e060020a028152600401602060405180830381600087803b1580156142f557600080fd5b505af1158015614309573d6000803e3d6000fd5b505050506040513d602081101561431f57600080fd5b505160018054600160a060020a031916600160a060020a039092169190911790555b600154604080517f2ef3accc0000000000000000000000000000000000000000000000000000000081526024810186905260048101918252875160448201528751600160a060020a0390931692632ef3accc9289928892829160640190602086019080838360005b838110156143c15781810151838201526020016143a9565b50505050905090810190601f1680156143ee5780820380516001836020036101000a031916815260200191505b509350505050602060405180830381600087803b15801561440e57600080fd5b505af1158015614422573d6000803e3d6000fd5b505050506040513d602081101561443857600080fd5b50519050670de0b6b3a76400003a84020181111561445957600091506145cb565b6001546040517fc51be90f00000000000000000000000000000000000000000000000000000000815260006004820181815260648301879052608060248401908152895160848501528951600160a060020a039095169463c51be90f948794938c938c938c93604481019160a49091019060208801908083838c5b838110156144ec5781810151838201526020016144d4565b50505050905090810190601f1680156145195780820380516001836020036101000a031916815260200191505b50838103825285518152855160209182019187019080838360005b8381101561454c578181015183820152602001614534565b50505050905090810190601f1680156145795780820380516001836020036101000a031916815260200191505b5096505050505050506020604051808303818588803b15801561459b57600080fd5b505af11580156145af573d6000803e3d6000fd5b50505050506040513d60208110156145c657600080fd5b505191505b509392505050565b60008054600160a060020a031615806145fe57506000546145fc90600160a060020a031661522d565b155b1561460f5761460d6000615231565b505b6000809054906101000a9004600160a060020a0316600160a060020a03166338cc48316040518163ffffffff1660e060020a028152600401602060405180830381600087803b15801561466157600080fd5b505af1158015614675573d6000803e3d6000fd5b505050506040513d602081101561468b57600080fd5b5051600154600160a060020a03908116911614614740576000809054906101000a9004600160a060020a0316600160a060020a03166338cc48316040518163ffffffff1660e060020a028152600401602060405180830381600087803b1580156146f457600080fd5b505af1158015614708573d6000803e3d6000fd5b505050506040513d602081101561471e57600080fd5b505160018054600160a060020a031916600160a060020a039092169190911790555b600160009054906101000a9004600160a060020a0316600160a060020a031663c281d19e6040518163ffffffff1660e060020a028152600401602060405180830381600087803b15801561479357600080fd5b505af11580156147a7573d6000803e3d6000fd5b505050506040513d60208110156147bd57600080fd5b5051905090565b60006147d182600061523b565b92915050565b60408051600160a060020a03831660009081526032602090815290839020805460026001821615610100026000190190911604601f8101839004909202830160a09081019094526080830182815292938493929084018282801561487c5780601f106148515761010080835404028352916020019161487c565b820191906000526020600020905b81548152906001019060200180831161485f57829003601f168201915b505050505081526020016032600084600160a060020a0316600160a060020a031681526020019081526020016000206001018054600181600116156101000203166002900480601f0160208091040260200160405190810160405280929190818152602001828054600181600116156101000203166002900480156149425780601f1061491757610100808354040283529160200191614942565b820191906000526020600020905b81548152906001019060200180831161492557829003601f168201915b5050509183525050600160a060020a03831660009081526032602090815260409182902060020154908301526011549101526012546016906007811061498457fe5b6004020160008201518160000190805190602001906149a4929190615990565b5060208281015180516149bd9260018501920190615990565b506040820151600282015560609091015160039091015550601280546001019055565b60408051600160a060020a03831660009081526032602090815283822080546002600180831615610100026000190190921604601f8101849004909302850160c090810190965260a0850183815293959094601594909384939192840182828015614a8c5780601f10614a6157610100808354040283529160200191614a8c565b820191906000526020600020905b815481529060010190602001808311614a6f57829003601f168201915b505050505081526020016032600087600160a060020a0316600160a060020a031681526020019081526020016000206001018054600181600116156101000203166002900480601f016020809104026020016040519081016040528092919081815260200182805460018160011615610100020316600290048015614b525780601f10614b2757610100808354040283529160200191614b52565b820191906000526020600020905b815481529060010190602001808311614b3557829003601f168201915b5050509183525050600160a060020a038616600081815260326020908152604080832060020154828601528401929092526011546060909301929092528354600181018086559483529181902083518051600590940290910192614bb99284920190615990565b506020828101518051614bd29260018501920190615990565b50604082015160028201556060820151600382018054600160a060020a031916600160a060020a03909216919091179055608090910151600490910155039050611b0f81612241565b600082821115614c2757fe5b50900390565b604080518082018252600b81527f6d6f642828312f2831305e000000000000000000000000000000000000000000602080830191909152600780548451601f6002600019610100600186161502019093169290920491820184900484028101840190955280855260609485948594614e0994919390830182828015614cf35780601f10614cc857610100808354040283529160200191614cf3565b820191906000526020600020905b815481529060010190602001808311614cd657829003601f168201915b505060408051808201825260018082527f2d00000000000000000000000000000000000000000000000000000000000000602080840191909152600160a060020a038e1660009081526032825284902080548551600294821615610100026000190190911693909304601f8101839004830284018301909552848352929650909450909250830182828015614dc95780601f10614d9e57610100808354040283529160200191614dc9565b820191906000526020600020905b815481529060010190602001808311614dac57829003601f168201915b50505050506040805190810160405280601081526020017f29292a31305e31303030302c31305e28000000000000000000000000000000008152506153ad565b60098054604080516020601f60026000196101006001881615020190951694909404938401819004810282018101909252828152939550614fb393869390929091830182828015614e9b5780601f10614e7057610100808354040283529160200191614e9b565b820191906000526020600020905b815481529060010190602001808311614e7e57829003601f168201915b505060408051808201825260018082527f2b00000000000000000000000000000000000000000000000000000000000000602080840191909152600160a060020a038e16600090815260328252849020820180548551600294821615610100026000190190911693909304601f8101839004830284018301909552848352929650909450909250830182828015614f735780601f10614f4857610100808354040283529160200191614f73565b820191906000526020600020905b815481529060010190602001808311614f5657829003601f168201915b50505050506040805190810160405280600281526020017f29290000000000000000000000000000000000000000000000000000000000008152506153ad565b60408051808201825260018082527f2d00000000000000000000000000000000000000000000000000000000000000602080840191909152600160a060020a038916600090815260328252849020820180548551600294821615610100026000190190911693909304601f8101839004830284018301909552848352949550615061948694889392830182828015614f735780601f10614f4857610100808354040283529160200191614f73565b60408051808201825260018082527f280000000000000000000000000000000000000000000000000000000000000060208084019190915283518085018552600581527f292f31305e00000000000000000000000000000000000000000000000000000081830152600160a060020a038a16600090815260328352859020830180548651600295821615610100026000190190911694909404601f8101849004840285018401909652858452959650615176959394879491939283018282801561516c5780601f106151415761010080835404028352916020019161516c565b820191906000526020600020905b81548152906001019060200180831161514f57829003601f168201915b505050505061560e565b949350505050565b600160a060020a038116151561519357600080fd5b600554604051600160a060020a038084169216907f8be0079c531659141344cd1fd0a4f28419497f9722a3daafe3b4186f6b6457e090600090a360058054600160a060020a031916600160a060020a0392909216919091179055565b6000821515615200575060006147d1565b5081810281838281151561521057fe5b04146147d157fe5b6000818381151561522557fe5b049392505050565b3b90565b60006147d1615636565b6000828180805b83518110156153905783517f30000000000000000000000000000000000000000000000000000000000000009085908390811061527b57fe5b90602001015160f860020a900460f860020a02600160f860020a031916101580156152f1575083517f3900000000000000000000000000000000000000000000000000000000000000908590839081106152d157fe5b90602001015160f860020a900460f860020a02600160f860020a03191611155b1561534a5781156153105785151561530857615390565b600019909501945b600a830292506030848281518110151561532657fe5b90602001015160f860020a900460f860020a0260f860020a90040383019250615388565b838181518110151561535857fe5b90602001015160f860020a900460f860020a02600160f860020a031916602e60f860020a02141561538857600191505b600101615242565b60008611156153a25785600a0a830292505b509095945050505050565b6060806060806060806060806000808e98508d97508c96508b95508a94508451865188518a518c51010101016040519080825280601f01601f191660200182016040528015615406578160200160208202803883390190505b50935083925060009150600090505b885181101561547357888181518110151561542c57fe5b90602001015160f860020a900460f860020a02838380600101945081518110151561545357fe5b906020010190600160f860020a031916908160001a905350600101615415565b5060005b87518110156154d557878181518110151561548e57fe5b90602001015160f860020a900460f860020a0283838060010194508151811015156154b557fe5b906020010190600160f860020a031916908160001a905350600101615477565b5060005b86518110156155375786818151811015156154f057fe5b90602001015160f860020a900460f860020a02838380600101945081518110151561551757fe5b906020010190600160f860020a031916908160001a9053506001016154d9565b5060005b855181101561559957858181518110151561555257fe5b90602001015160f860020a900460f860020a02838380600101945081518110151561557957fe5b906020010190600160f860020a031916908160001a90535060010161553b565b5060005b84518110156155fb5784818151811015156155b457fe5b90602001015160f860020a900460f860020a0283838060010194508151811015156155db57fe5b906020010190600160f860020a031916908160001a90535060010161559d565b50909d9c50505050505050505050505050565b606061562d8585858560206040519081016040528060008152506153ad565b95945050505050565b600080615656731d3b2638a7cc9f2cb3d298a3da7a90b67e5506ed61522d565b11156156c75760008054600160a060020a031916731d3b2638a7cc9f2cb3d298a3da7a90b67e5506ed17905560408051808201909152600b81527f6574685f6d61696e6e657400000000000000000000000000000000000000000060208201526156bf9061595e565b506001613731565b60006156e673c03a2615d5efaf5f49f60b7bb6583eaec212fdf161522d565b111561574f5760008054600160a060020a03191673c03a2615d5efaf5f49f60b7bb6583eaec212fdf117905560408051808201909152600c81527f6574685f726f707374656e33000000000000000000000000000000000000000060208201526156bf9061595e565b600061576e73b7a07bcf2ba2f2703b24c0691b5278999c59ac7e61522d565b11156157d75760008054600160a060020a03191673b7a07bcf2ba2f2703b24c0691b5278999c59ac7e17905560408051808201909152600981527f6574685f6b6f76616e000000000000000000000000000000000000000000000060208201526156bf9061595e565b60006157f673146500cfd35b22e4a392fe0adc06de1a1368ed4861522d565b111561585f5760008054600160a060020a03191673146500cfd35b22e4a392fe0adc06de1a1368ed4817905560408051808201909152600b81527f6574685f72696e6b65627900000000000000000000000000000000000000000060208201526156bf9061595e565b600061587e736f485c8bf6fc43ea212e93bbf8ce046c7f1cb47561522d565b11156158b2575060008054600160a060020a031916736f485c8bf6fc43ea212e93bbf8ce046c7f1cb4751790556001613731565b60006158d17320e12a1f859b3feae5fb2a0a32c18f5a65555bbf61522d565b1115615905575060008054600160a060020a0319167320e12a1f859b3feae5fb2a0a32c18f5a65555bbf1790556001613731565b60006159247351efaf4c8b3c9afbd5ab9f4bbc82784ab6ef8faa61522d565b1115615958575060008054600160a060020a0319167351efaf4c8b3c9afbd5ab9f4bbc82784ab6ef8faa1790556001613731565b50600090565b8051611b0f906002906020840190615990565b60e0604051908101604052806007906020820280388339509192915050565b828054600181600116156101000203166002900490600052602060002090601f016020900481019282601f106159d157805160ff19168380011785556159fe565b828001600101855582156159fe579182015b828111156159fe5782518255916020019190600101906159e3565b50615a0a929150615af3565b5090565b60e060405190810160405280600081526020016000600160a060020a0316815260200160008152602001600081526020016000815260200160008152602001600081525090565b608060405190810160405280606081526020016060815260200160008152602001600081525090565b828054600181600116156101000203166002900490600052602060002090601f016020900481019282601f10615ab757805485556159fe565b828001600101855582156159fe57600052602060002091601f016020900482015b828111156159fe578254825591600101919060010190615ad8565b61373191905b80821115615a0a5760008155600101615af956009bc068999fb1a0aac007a9b44ca6322a376441f42706bf5163600bb3d1a731647ecbd54b3baea533cf57ef049f9e04554be6a660d6dacd477488066eedf27beea165627a7a723058209e3188495f8575a866d03ed232326a777c83c74cdc139999fbde744adde0e74f0029",
  "source": "pragma solidity ^0.4.20;\n\nimport \"./Lucky7Store.sol\";\n\ncontract Lucky7Test is Lucky7Store{\n\n    function Lucky7Test() payable{\n    }\n    \n    function insertTestLucky7Numbers() public{\n        lucky7Numbers[0] = Lucky7Number(\"1\",\"2\",10651283657614267398,drawNumber);\n        lucky7Numbers[1] = Lucky7Number(\"1\",\"2\",88052694543136051754,drawNumber);\n        lucky7Numbers[2] = Lucky7Number(\"1\",\"2\",52398723847810031239,drawNumber);\n        lucky7Numbers[3] = Lucky7Number(\"1\",\"2\",90527121997810111570,drawNumber);\n        lucky7Numbers[4] = Lucky7Number(\"1\",\"2\",30481723712938712983,drawNumber);\n        lucky7Numbers[5] = Lucky7Number(\"1\",\"2\",24342359080214091240,drawNumber);\n        lucky7Numbers[6] = Lucky7Number(\"1\",\"2\",75126192741201932912,drawNumber);\n    } \n\n    function() public payable{\n    }\n}\n",
  "sourcePath": "/Users/matiasbarrios/Desktop/Proyecto Consensys/luckyseven/contracts/Lucky7Test.sol",
  "compiler": {
    "name": "solc",
    "version": "0.4.24+commit.e67f0147.Emscripten.clang"
  },
  "schemaVersion": "2.0.1",
  "updatedAt": "2018-08-24T13:13:07.313Z"
}