{
  "contractName": "Lucky7Admin",
  "abi": [
    {
      "constant": true,
      "inputs": [],
      "name": "n",
      "outputs": [
        {
          "name": "",
          "type": "string"
        }
      ],
      "payable": false,
      "stateMutability": "view",
      "type": "function"
    },
    {
      "constant": true,
      "inputs": [],
      "name": "b",
      "outputs": [
        {
          "name": "",
          "type": "string"
        }
      ],
      "payable": false,
      "stateMutability": "view",
      "type": "function"
    },
    {
      "constant": true,
      "inputs": [],
      "name": "oraclizeGasLimit",
      "outputs": [
        {
          "name": "",
          "type": "uint256"
        }
      ],
      "payable": false,
      "stateMutability": "view",
      "type": "function"
    },
    {
      "constant": false,
      "inputs": [],
      "name": "renounceOwnership",
      "outputs": [],
      "payable": false,
      "stateMutability": "nonpayable",
      "type": "function"
    },
    {
      "constant": true,
      "inputs": [],
      "name": "enterpriseWallet",
      "outputs": [
        {
          "name": "",
          "type": "address"
        }
      ],
      "payable": false,
      "stateMutability": "view",
      "type": "function"
    },
    {
      "constant": true,
      "inputs": [],
      "name": "owner",
      "outputs": [
        {
          "name": "",
          "type": "address"
        }
      ],
      "payable": false,
      "stateMutability": "view",
      "type": "function"
    },
    {
      "constant": true,
      "inputs": [],
      "name": "oraclizeCustomGasPrice",
      "outputs": [
        {
          "name": "",
          "type": "uint256"
        }
      ],
      "payable": false,
      "stateMutability": "view",
      "type": "function"
    },
    {
      "constant": true,
      "inputs": [],
      "name": "p",
      "outputs": [
        {
          "name": "",
          "type": "string"
        }
      ],
      "payable": false,
      "stateMutability": "view",
      "type": "function"
    },
    {
      "constant": true,
      "inputs": [
        {
          "name": "",
          "type": "address"
        }
      ],
      "name": "whitelist",
      "outputs": [
        {
          "name": "",
          "type": "bool"
        }
      ],
      "payable": false,
      "stateMutability": "view",
      "type": "function"
    },
    {
      "constant": true,
      "inputs": [],
      "name": "j",
      "outputs": [
        {
          "name": "",
          "type": "string"
        }
      ],
      "payable": false,
      "stateMutability": "view",
      "type": "function"
    },
    {
      "constant": true,
      "inputs": [],
      "name": "generateTicketPrice",
      "outputs": [
        {
          "name": "",
          "type": "uint256"
        }
      ],
      "payable": false,
      "stateMutability": "view",
      "type": "function"
    },
    {
      "constant": true,
      "inputs": [],
      "name": "sellTicketPrice",
      "outputs": [
        {
          "name": "",
          "type": "uint256"
        }
      ],
      "payable": false,
      "stateMutability": "view",
      "type": "function"
    },
    {
      "constant": false,
      "inputs": [
        {
          "name": "_newOwner",
          "type": "address"
        }
      ],
      "name": "transferOwnership",
      "outputs": [],
      "payable": false,
      "stateMutability": "nonpayable",
      "type": "function"
    },
    {
      "anonymous": false,
      "inputs": [
        {
          "indexed": false,
          "name": "describe",
          "type": "string"
        },
        {
          "indexed": false,
          "name": "_oldValue",
          "type": "uint256"
        },
        {
          "indexed": false,
          "name": "_newValue",
          "type": "uint256"
        }
      ],
      "name": "numberModified",
      "type": "event"
    },
    {
      "anonymous": false,
      "inputs": [
        {
          "indexed": false,
          "name": "describe",
          "type": "string"
        },
        {
          "indexed": false,
          "name": "_oldValue",
          "type": "string"
        },
        {
          "indexed": false,
          "name": "_newValue",
          "type": "string"
        }
      ],
      "name": "parameterModified",
      "type": "event"
    },
    {
      "anonymous": false,
      "inputs": [
        {
          "indexed": false,
          "name": "describe",
          "type": "string"
        },
        {
          "indexed": false,
          "name": "_oldValue",
          "type": "address"
        },
        {
          "indexed": false,
          "name": "_newValue",
          "type": "address"
        }
      ],
      "name": "walletModified",
      "type": "event"
    },
    {
      "anonymous": false,
      "inputs": [
        {
          "indexed": true,
          "name": "previousOwner",
          "type": "address"
        }
      ],
      "name": "OwnershipRenounced",
      "type": "event"
    },
    {
      "anonymous": false,
      "inputs": [
        {
          "indexed": true,
          "name": "previousOwner",
          "type": "address"
        },
        {
          "indexed": true,
          "name": "newOwner",
          "type": "address"
        }
      ],
      "name": "OwnershipTransferred",
      "type": "event"
    },
    {
      "constant": false,
      "inputs": [
        {
          "name": "_newValue",
          "type": "uint256"
        }
      ],
      "name": "modifySellTicketPrice",
      "outputs": [],
      "payable": false,
      "stateMutability": "nonpayable",
      "type": "function"
    },
    {
      "constant": false,
      "inputs": [
        {
          "name": "_newValue",
          "type": "uint256"
        }
      ],
      "name": "modifyGenerateTicketPrice",
      "outputs": [],
      "payable": false,
      "stateMutability": "nonpayable",
      "type": "function"
    },
    {
      "constant": false,
      "inputs": [
        {
          "name": "_newValue",
          "type": "uint256"
        }
      ],
      "name": "modifyOraclizeGasLimit",
      "outputs": [],
      "payable": false,
      "stateMutability": "nonpayable",
      "type": "function"
    },
    {
      "constant": false,
      "inputs": [
        {
          "name": "_newValue",
          "type": "uint256"
        }
      ],
      "name": "modifyOraclizeCustomGasPrice",
      "outputs": [],
      "payable": false,
      "stateMutability": "nonpayable",
      "type": "function"
    },
    {
      "constant": false,
      "inputs": [
        {
          "name": "_newAddress",
          "type": "address"
        }
      ],
      "name": "modifyEnterpriseWallet",
      "outputs": [],
      "payable": false,
      "stateMutability": "nonpayable",
      "type": "function"
    }
  ],
  "bytecode": "0x60c0604052600160808190527f310000000000000000000000000000000000000000000000000000000000000060a090815261003e916002919061015f565b506040805180820190915260018082527f380000000000000000000000000000000000000000000000000000000000000060209092019182526100839160039161015f565b506040805180820190915260058082527f313030303000000000000000000000000000000000000000000000000000000060209092019182526100c89160049161015f565b506040805180820190915260028082527f3230000000000000000000000000000000000000000000000000000000000000602090920191825261010d9160059161015f565b506611c37937e08000600655662aa1efb94e0000600755620493e060085563ee6b280060095560008054600a8054600160a060020a0319908116600160a060020a0384161790915516331790556101fa565b828054600181600116156101000203166002900490600052602060002090601f016020900481019282601f106101a057805160ff19168380011785556101cd565b828001600101855582156101cd579182015b828111156101cd5782518255916020019190600101906101b2565b506101d99291506101dd565b5090565b6101f791905b808211156101d957600081556001016101e3565b90565b610988806102096000396000f3006080604052600436106100fb5763ffffffff7c01000000000000000000000000000000000000000000000000000000006000350416632e52d606811461010057806349f6b0301461018a5780634df7e3d0146101ad57806350b9c428146101c2578063715018a6146101e9578063741606b5146101fe578063809fc1531461022f5780638aa5fafa146102475780638da5cb5b1461025f5780639ac2bf91146102745780639ae8886a146102895780639b19251a1461029e578063b582ec5f146102d3578063bcb740ab146102e8578063d383e86214610300578063d566bcf014610318578063e5663c481461032d578063f2fde38b14610342575b600080fd5b34801561010c57600080fd5b50610115610363565b6040805160208082528351818301528351919283929083019185019080838360005b8381101561014f578181015183820152602001610137565b50505050905090810190601f16801561017c5780820380516001836020036101000a031916815260200191505b509250505060405180910390f35b34801561019657600080fd5b506101ab600160a060020a03600435166103f1565b005b3480156101b957600080fd5b506101156104ad565b3480156101ce57600080fd5b506101d7610505565b60408051918252519081900360200190f35b3480156101f557600080fd5b506101ab61050b565b34801561020a57600080fd5b50610213610577565b60408051600160a060020a039092168252519081900360200190f35b34801561023b57600080fd5b506101ab600435610586565b34801561025357600080fd5b506101ab600435610607565b34801561026b57600080fd5b50610213610688565b34801561028057600080fd5b506101d7610697565b34801561029557600080fd5b5061011561069d565b3480156102aa57600080fd5b506102bf600160a060020a03600435166106f8565b604080519115158252519081900360200190f35b3480156102df57600080fd5b5061011561070d565b3480156102f457600080fd5b506101ab600435610768565b34801561030c57600080fd5b506101ab6004356107e9565b34801561032457600080fd5b506101d7610890565b34801561033957600080fd5b506101d7610896565b34801561034e57600080fd5b506101ab600160a060020a036004351661089c565b6003805460408051602060026001851615610100026000190190941693909304601f810184900484028201840190925281815292918301828280156103e95780601f106103be576101008083540402835291602001916103e9565b820191906000526020600020905b8154815290600101906020018083116103cc57829003601f168201915b505050505081565b60008054600160a060020a0316331461040957600080fd5b50600a8054600160a060020a0383811673ffffffffffffffffffffffffffffffffffffffff19831681179093556040805191909216602082018190528183019390935260608082526019908201527f456e74657270726973652077616c6c6574206368616e67656400000000000000608082015290517f223db053947bb148de510715d3c7d8ccd72bdd376752fd735ee7bd0bd0ece5bf9181900360a00190a15050565b6002805460408051602060018416156101000260001901909316849004601f810184900484028201840190925281815292918301828280156103e95780601f106103be576101008083540402835291602001916103e9565b60085481565b600054600160a060020a0316331461052257600080fd5b60008054604051600160a060020a03909116917ff8df31144d9c2f0f6b59d69b8b98abd5459d07f2742c4df920b25aae33c6482091a26000805473ffffffffffffffffffffffffffffffffffffffff19169055565b600a54600160a060020a031681565b60008054600160a060020a0316331461059e57600080fd5b50600880549082905560408051602081018390528082018490526060808252601a908201527f4f7261636c697a6520676173206c696d6974206368616e6765640000000000006080820152905160008051602061093d8339815191529181900360a00190a15050565b60008054600160a060020a0316331461061f57600080fd5b50600680549082905560408051602081018390528082018490526060808252601d908201527f47656e6572617465207469636b6574207072696365206368616e6765640000006080820152905160008051602061093d8339815191529181900360a00190a15050565b600054600160a060020a031681565b60095481565b6004805460408051602060026001851615610100026000190190941693909304601f810184900484028201840190925281815292918301828280156103e95780601f106103be576101008083540402835291602001916103e9565b60016020526000908152604090205460ff1681565b6005805460408051602060026001851615610100026000190190941693909304601f810184900484028201840190925281815292918301828280156103e95780601f106103be576101008083540402835291602001916103e9565b60008054600160a060020a0316331461078057600080fd5b506007805490829055604080516020810183905280820184905260608082526019908201527f53656c6c207469636b6574207072696365206368616e676564000000000000006080820152905160008051602061093d8339815191529181900360a00190a15050565b60008054600160a060020a0316331461080157600080fd5b506009805490829055604080516020810183905280820184905260608082526021908201527f4f7261636c697a6520637573746f6d20676173207072696365206368616e676560808201527f640000000000000000000000000000000000000000000000000000000000000060a0820152905160008051602061093d8339815191529181900360c00190a15050565b60065481565b60075481565b600054600160a060020a031633146108b357600080fd5b6108bc816108bf565b50565b600160a060020a03811615156108d457600080fd5b60008054604051600160a060020a03808516939216917f8be0079c531659141344cd1fd0a4f28419497f9722a3daafe3b4186f6b6457e091a36000805473ffffffffffffffffffffffffffffffffffffffff1916600160a060020a039290921691909117905556009bc068999fb1a0aac007a9b44ca6322a376441f42706bf5163600bb3d1a73164a165627a7a723058208f2fef9f10e7b955d972ab36e50bfd2810f244378473c437bb6059a47c9fd0e70029",
  "source": "/**\n  * @author Matias Barrios\n  * @version 1.0\n  */\n\n\n/** @title Lucky7Admin. \n  * This contract contains all the functions to manage the game. \n  * All the functions inside this contract are setted with the onlyOwner modifier.\n  */\n\npragma solidity ^0.4.20;\n\nimport \"openzeppelin-solidity/contracts/ownership/Ownable.sol\";\n\ncontract Lucky7Admin is Ownable{\n\n    /** @dev Whitelist to accept changes over all contracts\n      */\n    mapping(address => bool) public whitelist;\n\n   /** @dev The constructor is used to set the whitelist above.\n       Every parameter is for each contract.\n       All them are known, so they're going to be hardcoded. \n     */\n    // constructor(\n    //   address _lucky7TicketFactoryAddress,\n    //   address _lucky7Ballot,\n    //   address _lucky7Store,\n    //   address _lucky7Storage,\n    //   address _lucky7FrontEndFunctions\n    // ) \n    //   public\n    // {\n    //   whitelist[_lucky7TicketFactoryAddress]=true;\n    //   whitelist[_lucky7Ballot]=true;\n    //   whitelist[_lucky7Store]=true;\n    //   whitelist[_lucky7Storage]=true;\n    //   whitelist[_lucky7FrontEndFunctions]=true;\n    // }\n\n    /** @dev event to register the change of a number */\n    event numberModified(string describe, uint _oldValue, uint _newValue);\n\n    /** @dev event to register the change of a parameter */\n    event parameterModified(string describe, string _oldValue, string _newValue);\n\n    /** @dev event to register the change of the enterprise wallet */\n    event walletModified(string describe, address _oldValue, address _newValue);\n\n\n    /** @param b Pseudo-random number generator parameter\n      * @param n Pseudo-random number generator parameter\n      * @param p Pseudo-random number generator parameter\n      * @param j Pseudo-random number generator parameter\n      */\n    string public b = \"1\";\n    string public n = \"8\";\n    string public p = \"10000\"; \n    string public j = \"20\";\n    \n    /**\n      * @dev This parameters control the prices of the system\n      *    \n      * The user can generate as many tickets as want, but none of them are going to be selectible\n      * for prices if he don't buy it\n      *\n      * @param generateTicketPrice is the price that users pays to generate a ticket without buying it\n      * @param sellTicketPrice is the price that users pays to actually buy a ticket to participate in the game\n      * @param oraclizeGasLimit is the limit of gas for every oraclize query. Is important to have a good idea of the price of the query\n      * because oraclize don't send back the remaining gas\n      * @param oraclizeCustomGasPrice is the price of the gas for the oraclize querys\n      */\n    uint public generateTicketPrice = 0.005 ether;\n    uint public sellTicketPrice = 0.012 ether;\n    uint public oraclizeGasLimit = 300000 wei;\n    uint public oraclizeCustomGasPrice = 4000000000 wei;\n\n    /**\n      * @param enterpriseWallet is the address of the wallet which will recieve 30% of the balance of this contract when the prizes are delivered\n      */\n    address public enterpriseWallet = owner;\n\n    /**\n      * @dev The next functions are self explanatory\n      * Everyone emits an event to register changes, so there is a register of evolution of the game in the time\n     */\n    \n    function modifySellTicketPrice(uint _newValue) public onlyOwner{\n        uint oldValue = sellTicketPrice;\n        sellTicketPrice = _newValue;\n        emit numberModified(\"Sell ticket price changed\", oldValue, _newValue);\n    }\n    \n    function modifyGenerateTicketPrice(uint _newValue) public onlyOwner{\n        uint oldValue = generateTicketPrice;\n        generateTicketPrice = _newValue;\n        emit numberModified(\"Generate ticket price changed\", oldValue, _newValue);\n    }\n    \n    function modifyOraclizeGasLimit(uint _newValue) public onlyOwner{\n        uint oldValue = oraclizeGasLimit;\n        oraclizeGasLimit = _newValue;\n        emit numberModified(\"Oraclize gas limit changed\", oldValue, _newValue);\n    }\n    \n    function modifyOraclizeCustomGasPrice(uint _newValue) public onlyOwner{\n        uint oldValue = oraclizeCustomGasPrice;\n        oraclizeCustomGasPrice = _newValue;\n        emit numberModified(\"Oraclize custom gas price changed\", oldValue, _newValue);\n    }\n    \n    function modifyEnterpriseWallet(address _newAddress) public onlyOwner{\n        address oldAddress = enterpriseWallet;\n        enterpriseWallet = _newAddress;\n        emit walletModified(\"Enterprise wallet changed\", oldAddress, _newAddress);\n    }\n}   \n                                           \n",
  "sourcePath": "/Users/matiasbarrios/Desktop/Proyecto Consensys/luckyseven/contracts/Lucky7Admin.sol",
  "compiler": {
    "name": "solc",
    "version": "0.4.24+commit.e67f0147.Emscripten.clang"
  },
  "schemaVersion": "2.0.1",
  "updatedAt": "2018-09-25T12:27:11.517Z"
}