{
  "contractName": "Lucky7Admin",
  "abi": [
    {
      "constant": true,
      "inputs": [],
      "name": "n",
      "outputs": [
        {
          "name": "",
          "type": "string"
        }
      ],
      "payable": false,
      "stateMutability": "view",
      "type": "function"
    },
    {
      "constant": true,
      "inputs": [],
      "name": "b",
      "outputs": [
        {
          "name": "",
          "type": "string"
        }
      ],
      "payable": false,
      "stateMutability": "view",
      "type": "function"
    },
    {
      "constant": true,
      "inputs": [],
      "name": "oraclizeGasLimit",
      "outputs": [
        {
          "name": "",
          "type": "uint256"
        }
      ],
      "payable": false,
      "stateMutability": "view",
      "type": "function"
    },
    {
      "constant": true,
      "inputs": [],
      "name": "numberOfLucky7Numbers",
      "outputs": [
        {
          "name": "",
          "type": "uint256"
        }
      ],
      "payable": false,
      "stateMutability": "view",
      "type": "function"
    },
    {
      "constant": false,
      "inputs": [],
      "name": "renounceOwnership",
      "outputs": [],
      "payable": false,
      "stateMutability": "nonpayable",
      "type": "function"
    },
    {
      "constant": true,
      "inputs": [],
      "name": "enterpriseWallet",
      "outputs": [
        {
          "name": "",
          "type": "address"
        }
      ],
      "payable": false,
      "stateMutability": "view",
      "type": "function"
    },
    {
      "constant": true,
      "inputs": [],
      "name": "owner",
      "outputs": [
        {
          "name": "",
          "type": "address"
        }
      ],
      "payable": false,
      "stateMutability": "view",
      "type": "function"
    },
    {
      "constant": true,
      "inputs": [],
      "name": "oraclizeCustomGasPrice",
      "outputs": [
        {
          "name": "",
          "type": "uint256"
        }
      ],
      "payable": false,
      "stateMutability": "view",
      "type": "function"
    },
    {
      "constant": true,
      "inputs": [],
      "name": "p",
      "outputs": [
        {
          "name": "",
          "type": "string"
        }
      ],
      "payable": false,
      "stateMutability": "view",
      "type": "function"
    },
    {
      "constant": true,
      "inputs": [],
      "name": "j",
      "outputs": [
        {
          "name": "",
          "type": "string"
        }
      ],
      "payable": false,
      "stateMutability": "view",
      "type": "function"
    },
    {
      "constant": true,
      "inputs": [],
      "name": "generateTicketPrice",
      "outputs": [
        {
          "name": "",
          "type": "uint256"
        }
      ],
      "payable": false,
      "stateMutability": "view",
      "type": "function"
    },
    {
      "constant": true,
      "inputs": [],
      "name": "sellTicketPrice",
      "outputs": [
        {
          "name": "",
          "type": "uint256"
        }
      ],
      "payable": false,
      "stateMutability": "view",
      "type": "function"
    },
    {
      "constant": false,
      "inputs": [
        {
          "name": "_newOwner",
          "type": "address"
        }
      ],
      "name": "transferOwnership",
      "outputs": [],
      "payable": false,
      "stateMutability": "nonpayable",
      "type": "function"
    },
    {
      "anonymous": false,
      "inputs": [
        {
          "indexed": false,
          "name": "feeType",
          "type": "string"
        },
        {
          "indexed": false,
          "name": "_oldValue",
          "type": "uint256"
        },
        {
          "indexed": false,
          "name": "_newValue",
          "type": "uint256"
        }
      ],
      "name": "numberModified",
      "type": "event"
    },
    {
      "anonymous": false,
      "inputs": [
        {
          "indexed": false,
          "name": "parameter",
          "type": "string"
        },
        {
          "indexed": false,
          "name": "_oldValue",
          "type": "string"
        },
        {
          "indexed": false,
          "name": "_newValue",
          "type": "string"
        }
      ],
      "name": "parameterModified",
      "type": "event"
    },
    {
      "anonymous": false,
      "inputs": [
        {
          "indexed": false,
          "name": "parameter",
          "type": "string"
        },
        {
          "indexed": false,
          "name": "_oldValue",
          "type": "address"
        },
        {
          "indexed": false,
          "name": "_newValue",
          "type": "address"
        }
      ],
      "name": "walletModified",
      "type": "event"
    },
    {
      "anonymous": false,
      "inputs": [
        {
          "indexed": true,
          "name": "previousOwner",
          "type": "address"
        }
      ],
      "name": "OwnershipRenounced",
      "type": "event"
    },
    {
      "anonymous": false,
      "inputs": [
        {
          "indexed": true,
          "name": "previousOwner",
          "type": "address"
        },
        {
          "indexed": true,
          "name": "newOwner",
          "type": "address"
        }
      ],
      "name": "OwnershipTransferred",
      "type": "event"
    },
    {
      "constant": false,
      "inputs": [
        {
          "name": "_newValue",
          "type": "uint256"
        }
      ],
      "name": "modifyNumberOfLucky7Numbers",
      "outputs": [],
      "payable": false,
      "stateMutability": "nonpayable",
      "type": "function"
    },
    {
      "constant": false,
      "inputs": [
        {
          "name": "_newValue",
          "type": "uint256"
        }
      ],
      "name": "modifySellTicketPrice",
      "outputs": [],
      "payable": false,
      "stateMutability": "nonpayable",
      "type": "function"
    },
    {
      "constant": false,
      "inputs": [
        {
          "name": "_newValue",
          "type": "uint256"
        }
      ],
      "name": "modifyGenerateTicketPrice",
      "outputs": [],
      "payable": false,
      "stateMutability": "nonpayable",
      "type": "function"
    },
    {
      "constant": false,
      "inputs": [
        {
          "name": "_newValue",
          "type": "uint256"
        }
      ],
      "name": "modifyOraclizeGasLimit",
      "outputs": [],
      "payable": false,
      "stateMutability": "nonpayable",
      "type": "function"
    },
    {
      "constant": false,
      "inputs": [
        {
          "name": "_newValue",
          "type": "uint256"
        }
      ],
      "name": "modifyOraclizeCustomGasPrice",
      "outputs": [],
      "payable": false,
      "stateMutability": "nonpayable",
      "type": "function"
    },
    {
      "constant": false,
      "inputs": [
        {
          "name": "_newValue",
          "type": "string"
        }
      ],
      "name": "modifyParameterB",
      "outputs": [],
      "payable": false,
      "stateMutability": "nonpayable",
      "type": "function"
    },
    {
      "constant": false,
      "inputs": [
        {
          "name": "_newValue",
          "type": "string"
        }
      ],
      "name": "modifyParameterN",
      "outputs": [],
      "payable": false,
      "stateMutability": "nonpayable",
      "type": "function"
    },
    {
      "constant": false,
      "inputs": [
        {
          "name": "_newValue",
          "type": "string"
        }
      ],
      "name": "modifyParameterP",
      "outputs": [],
      "payable": false,
      "stateMutability": "nonpayable",
      "type": "function"
    },
    {
      "constant": false,
      "inputs": [
        {
          "name": "_newValue",
          "type": "string"
        }
      ],
      "name": "modifyParameterJ",
      "outputs": [],
      "payable": false,
      "stateMutability": "nonpayable",
      "type": "function"
    },
    {
      "constant": false,
      "inputs": [
        {
          "name": "_newAddress",
          "type": "address"
        }
      ],
      "name": "modifyEnterpriseWallet",
      "outputs": [],
      "payable": false,
      "stateMutability": "nonpayable",
      "type": "function"
    },
    {
      "constant": true,
      "inputs": [],
      "name": "balance",
      "outputs": [
        {
          "name": "",
          "type": "uint256"
        }
      ],
      "payable": false,
      "stateMutability": "view",
      "type": "function"
    }
  ],
  "bytecode": "0x60c0604052600160808190527f310000000000000000000000000000000000000000000000000000000000000060a09081526200003e9190816200016c565b506040805180820190915260018082527f3800000000000000000000000000000000000000000000000000000000000000602090920191825262000085916002916200016c565b506040805180820190915260058082527f31303030300000000000000000000000000000000000000000000000000000006020909201918252620000cc916003916200016c565b506040805180820190915260028082527f3230000000000000000000000000000000000000000000000000000000000000602090920191825262000113916004916200016c565b50600760058190556611c37937e08000600655662aa1efb94e00009055620493e060085563ee6b280060095560008054600a8054600160a060020a0319908116600160a060020a03841617909155163317905562000211565b828054600181600116156101000203166002900490600052602060002090601f016020900481019282601f10620001af57805160ff1916838001178555620001df565b82800160010185558215620001df579182015b82811115620001df578251825591602001919060010190620001c2565b50620001ed929150620001f1565b5090565b6200020e91905b80821115620001ed5760008155600101620001f8565b90565b61123980620002216000396000f30060806040526004361061013d5763ffffffff7c01000000000000000000000000000000000000000000000000000000006000350416630cc38b2b81146101425780632e52d6061461019d5780633bb7daf41461022757806349f6b030146102805780634df7e3d0146102a157806350b9c428146102b657806359f9fe82146102dd578063715018a6146102f2578063741606b514610307578063809fc1531461033857806383bb7bb7146103505780638aa5fafa146103a95780638da5cb5b146103c15780639ac2bf91146103d65780639ae8886a146103eb5780639dec38ab14610400578063b582ec5f14610459578063b69ef8a81461046e578063bcb740ab14610483578063c71f04ac1461049b578063d383e862146104b3578063d566bcf0146104cb578063e5663c48146104e0578063f2fde38b146104f5575b600080fd5b34801561014e57600080fd5b506040805160206004803580820135601f810184900484028501840190955284845261019b9436949293602493928401919081908401838280828437509497506105169650505050505050565b005b3480156101a957600080fd5b506101b26106fb565b6040805160208082528351818301528351919283929083019185019080838360005b838110156101ec5781810151838201526020016101d4565b50505050905090810190601f1680156102195780820380516001836020036101000a031916815260200191505b509250505060405180910390f35b34801561023357600080fd5b506040805160206004803580820135601f810184900484028501840190955284845261019b9436949293602493928401919081908401838280828437509497506107869650505050505050565b34801561028c57600080fd5b5061019b600160a060020a03600435166108cc565b3480156102ad57600080fd5b506101b2610988565b3480156102c257600080fd5b506102cb6109e2565b60408051918252519081900360200190f35b3480156102e957600080fd5b506102cb6109e8565b3480156102fe57600080fd5b5061019b6109ee565b34801561031357600080fd5b5061031c610a5a565b60408051600160a060020a039092168252519081900360200190f35b34801561034457600080fd5b5061019b600435610a69565b34801561035c57600080fd5b506040805160206004803580820135601f810184900484028501840190955284845261019b943694929360249392840191908190840183828082843750949750610aea9650505050505050565b3480156103b557600080fd5b5061019b600435610c2f565b3480156103cd57600080fd5b5061031c610cb0565b3480156103e257600080fd5b506102cb610cbf565b3480156103f757600080fd5b506101b2610cc5565b34801561040c57600080fd5b506040805160206004803580820135601f810184900484028501840190955284845261019b943694929360249392840191908190840183828082843750949750610d209650505050505050565b34801561046557600080fd5b506101b2610e66565b34801561047a57600080fd5b506102cb610ec1565b34801561048f57600080fd5b5061019b600435610ee0565b3480156104a757600080fd5b5061019b600435610f61565b3480156104bf57600080fd5b5061019b600435610fe2565b3480156104d757600080fd5b506102cb611089565b3480156104ec57600080fd5b506102cb61108f565b34801561050157600080fd5b5061019b600160a060020a0360043516611095565b600054606090600160a060020a0316331461053057600080fd5b6002805460408051602060018416156101000260001901909316849004601f810184900484028201840190925281815292918301828280156105b35780601f10610588576101008083540402835291602001916105b3565b820191906000526020600020905b81548152906001019060200180831161059657829003601f168201915b505085519394506105cf93600293506020870192509050611135565b506000805160206111ee833981519152818360405180806020018060200180602001848103845260148152602001807f506172616d65746572206e206d6f646966696564000000000000000000000000815250602001848103835286818151815260200191508051906020019080838360005b8381101561065a578181015183820152602001610642565b50505050905090810190601f1680156106875780820380516001836020036101000a031916815260200191505b50848103825285518152855160209182019187019080838360005b838110156106ba5781810151838201526020016106a2565b50505050905090810190601f1680156106e75780820380516001836020036101000a031916815260200191505b509550505050505060405180910390a15050565b6002805460408051602060018416156101000260001901909316849004601f8101849004840282018401909252818152929183018282801561077e5780601f106107535761010080835404028352916020019161077e565b820191906000526020600020905b81548152906001019060200180831161076157829003601f168201915b505050505081565b600054606090600160a060020a031633146107a057600080fd5b6004805460408051602060026001851615610100026000190190941693909304601f810184900484028201840190925281815292918301828280156108265780601f106107fb57610100808354040283529160200191610826565b820191906000526020600020905b81548152906001019060200180831161080957829003601f168201915b5050855193945061084293600493506020870192509050611135565b506000805160206111ee833981519152818360405180806020018060200180602001848103845260148152602001807f506172616d65746572206a206d6f646966696564000000000000000000000000815250602001848103835286818151815260200191508051906020019080838360008381101561065a578181015183820152602001610642565b60008054600160a060020a031633146108e457600080fd5b50600a8054600160a060020a0383811673ffffffffffffffffffffffffffffffffffffffff19831681179093556040805191909216602082018190528183019390935260608082526019908201527f456e74657270726973652077616c6c6574206368616e67656400000000000000608082015290517f223db053947bb148de510715d3c7d8ccd72bdd376752fd735ee7bd0bd0ece5bf9181900360a00190a15050565b60018054604080516020600284861615610100026000190190941693909304601f8101849004840282018401909252818152929183018282801561077e5780601f106107535761010080835404028352916020019161077e565b60085481565b60055481565b600054600160a060020a03163314610a0557600080fd5b60008054604051600160a060020a03909116917ff8df31144d9c2f0f6b59d69b8b98abd5459d07f2742c4df920b25aae33c6482091a26000805473ffffffffffffffffffffffffffffffffffffffff19169055565b600a54600160a060020a031681565b60008054600160a060020a03163314610a8157600080fd5b50600880549082905560408051602081018390528082018490526060808252601a908201527f4f7261636c697a6520676173206c696d6974206368616e676564000000000000608082015290516000805160206111ce8339815191529181900360a00190a15050565b600054606090600160a060020a03163314610b0457600080fd5b60018054604080516020600284861615610100026000190190941693909304601f81018490048402820184019092528181529291830182828015610b895780601f10610b5e57610100808354040283529160200191610b89565b820191906000526020600020905b815481529060010190602001808311610b6c57829003601f168201915b50508551939450610ba593600193506020870192509050611135565b506000805160206111ee833981519152818360405180806020018060200180602001848103845260148152602001807f506172616d657465722062206d6f646966696564000000000000000000000000815250602001848103835286818151815260200191508051906020019080838360008381101561065a578181015183820152602001610642565b60008054600160a060020a03163314610c4757600080fd5b50600680549082905560408051602081018390528082018490526060808252601d908201527f47656e6572617465207469636b6574207072696365206368616e676564000000608082015290516000805160206111ce8339815191529181900360a00190a15050565b600054600160a060020a031681565b60095481565b6003805460408051602060026001851615610100026000190190941693909304601f8101849004840282018401909252818152929183018282801561077e5780601f106107535761010080835404028352916020019161077e565b600054606090600160a060020a03163314610d3a57600080fd5b6003805460408051602060026001851615610100026000190190941693909304601f81018490048402820184019092528181529291830182828015610dc05780601f10610d9557610100808354040283529160200191610dc0565b820191906000526020600020905b815481529060010190602001808311610da357829003601f168201915b50508551939450610ddc93600393506020870192509050611135565b506000805160206111ee833981519152818360405180806020018060200180602001848103845260148152602001807f506172616d657465722070206d6f646966696564000000000000000000000000815250602001848103835286818151815260200191508051906020019080838360008381101561065a578181015183820152602001610642565b6004805460408051602060026001851615610100026000190190941693909304601f8101849004840282018401909252818152929183018282801561077e5780601f106107535761010080835404028352916020019161077e565b60008054600160a060020a03163314610ed957600080fd5b5030315b90565b60008054600160a060020a03163314610ef857600080fd5b506007805490829055604080516020810183905280820184905260608082526019908201527f53656c6c207469636b6574207072696365206368616e67656400000000000000608082015290516000805160206111ce8339815191529181900360a00190a15050565b60008054600160a060020a03163314610f7957600080fd5b506005805490829055604080516020810183905280820184905260608082526019908201527f53656c6c207469636b6574207072696365206368616e67656400000000000000608082015290516000805160206111ce8339815191529181900360a00190a15050565b60008054600160a060020a03163314610ffa57600080fd5b506009805490829055604080516020810183905280820184905260608082526021908201527f4f7261636c697a6520637573746f6d20676173207072696365206368616e676560808201527f640000000000000000000000000000000000000000000000000000000000000060a082015290516000805160206111ce8339815191529181900360c00190a15050565b60065481565b60075481565b600054600160a060020a031633146110ac57600080fd5b6110b5816110b8565b50565b600160a060020a03811615156110cd57600080fd5b60008054604051600160a060020a03808516939216917f8be0079c531659141344cd1fd0a4f28419497f9722a3daafe3b4186f6b6457e091a36000805473ffffffffffffffffffffffffffffffffffffffff1916600160a060020a0392909216919091179055565b828054600181600116156101000203166002900490600052602060002090601f016020900481019282601f1061117657805160ff19168380011785556111a3565b828001600101855582156111a3579182015b828111156111a3578251825591602001919060010190611188565b506111af9291506111b3565b5090565b610edd91905b808211156111af57600081556001016111b956009bc068999fb1a0aac007a9b44ca6322a376441f42706bf5163600bb3d1a731647ecbd54b3baea533cf57ef049f9e04554be6a660d6dacd477488066eedf27beea165627a7a7230582002aeee28dd4a19bf4e55a190f411b06fa7d2a9589af314fba43f98a23f7fa5340029",
  "source": "pragma solidity ^0.4.20;\nimport \"./Ownable.sol\";\nimport \"./SafeMath.sol\";\n\n\ncontract Lucky7Admin is Ownable{\n    using SafeMath for uint256;\n    \n    event numberModified(string feeType, uint _oldValue, uint _newValue);\n    event parameterModified(string parameter, string _oldValue, string _newValue);\n    event walletModified(string parameter, address _oldValue, address _newValue);\n\n    \n    string public b = \"1\";\n    string public n = \"8\";\n    string public p = \"10000\"; \n    string public j = \"20\";\n    \n    uint public numberOfLucky7Numbers = 7;\n    \n    uint public generateTicketPrice = 0.005 ether;\n    uint public sellTicketPrice = 0.012 ether;\n    uint public oraclizeGasLimit = 300000 wei;\n    uint public oraclizeCustomGasPrice = 4000000000 wei;\n    address public enterpriseWallet = owner;\n    \n    function modifyNumberOfLucky7Numbers(uint _newValue) public onlyOwner{\n        uint oldValue = numberOfLucky7Numbers;\n        numberOfLucky7Numbers = _newValue;\n        numberModified(\"Sell ticket price changed\", oldValue, _newValue);\n    }\n        \n    function modifySellTicketPrice(uint _newValue) public onlyOwner{\n        uint oldValue = sellTicketPrice;\n        sellTicketPrice = _newValue;\n        numberModified(\"Sell ticket price changed\", oldValue, _newValue);\n    }\n    \n    function modifyGenerateTicketPrice(uint _newValue) public onlyOwner{\n        uint oldValue = generateTicketPrice;\n        generateTicketPrice = _newValue;\n        numberModified(\"Generate ticket price changed\", oldValue, _newValue);\n        \n    }\n    \n    function modifyOraclizeGasLimit(uint _newValue) public onlyOwner{\n        uint oldValue = oraclizeGasLimit;\n        oraclizeGasLimit = _newValue;\n        numberModified(\"Oraclize gas limit changed\", oldValue, _newValue);\n    }\n    \n    function modifyOraclizeCustomGasPrice(uint _newValue) public onlyOwner{\n        uint oldValue = oraclizeCustomGasPrice;\n        oraclizeCustomGasPrice = _newValue;\n        numberModified(\"Oraclize custom gas price changed\", oldValue, _newValue);\n    }\n    \n    function modifyParameterB(string _newValue) public onlyOwner{\n        string memory oldValue = b;\n        b = _newValue;\n        parameterModified(\"Parameter b modified\", oldValue, _newValue);\n    }\n    \n    function modifyParameterN(string _newValue) public onlyOwner{\n        string memory oldValue = n;\n        n = _newValue;\n        parameterModified(\"Parameter n modified\", oldValue, _newValue);\n    }\n    \n    function modifyParameterP(string _newValue) public onlyOwner{\n        string memory oldValue = p;\n        p = _newValue;\n        parameterModified(\"Parameter p modified\", oldValue, _newValue);\n    }\n    \n    function modifyParameterJ(string _newValue) public onlyOwner{\n        string memory oldValue = j;\n        j = _newValue;\n        parameterModified(\"Parameter j modified\", oldValue, _newValue);\n    }\n    \n    function modifyEnterpriseWallet(address _newAddress) public onlyOwner{\n        address oldAddress = enterpriseWallet;\n        enterpriseWallet = _newAddress;\n        walletModified(\"Enterprise wallet changed\", oldAddress, _newAddress);\n    }\n    \n    function balance() public view onlyOwner returns(uint256){\n        return address(this).balance;\n    }\n}   \n                                           \n",
  "sourcePath": "/Users/matiasbarrios/Desktop/Proyecto Consensys/luckyseven/contracts/Lucky7Admin.sol",
  "compiler": {
    "name": "solc",
    "version": "0.4.24+commit.e67f0147.Emscripten.clang"
  },
  "schemaVersion": "2.0.1",
  "updatedAt": "2018-08-24T20:45:46.104Z"
}