{
  "contractName": "Lucky7TicketFactory",
  "abi": [
    {
      "constant": false,
      "inputs": [
        {
          "name": "_newValue",
          "type": "string"
        }
      ],
      "name": "modifyParameterN",
      "outputs": [],
      "payable": false,
      "stateMutability": "nonpayable",
      "type": "function"
    },
    {
      "constant": true,
      "inputs": [
        {
          "name": "",
          "type": "uint256"
        }
      ],
      "name": "lucky7TicketID",
      "outputs": [
        {
          "name": "",
          "type": "uint256"
        }
      ],
      "payable": false,
      "stateMutability": "view",
      "type": "function"
    },
    {
      "constant": true,
      "inputs": [
        {
          "name": "",
          "type": "uint256"
        }
      ],
      "name": "lucky7TicketOwner",
      "outputs": [
        {
          "name": "",
          "type": "address"
        }
      ],
      "payable": false,
      "stateMutability": "view",
      "type": "function"
    },
    {
      "constant": true,
      "inputs": [],
      "name": "settingLucky7Numbers",
      "outputs": [
        {
          "name": "",
          "type": "bool"
        }
      ],
      "payable": false,
      "stateMutability": "view",
      "type": "function"
    },
    {
      "constant": true,
      "inputs": [],
      "name": "n",
      "outputs": [
        {
          "name": "",
          "type": "string"
        }
      ],
      "payable": false,
      "stateMutability": "view",
      "type": "function"
    },
    {
      "constant": true,
      "inputs": [
        {
          "name": "",
          "type": "uint256"
        }
      ],
      "name": "lucky7Tickets",
      "outputs": [
        {
          "name": "difference",
          "type": "uint256"
        },
        {
          "name": "owner",
          "type": "address"
        },
        {
          "name": "ticketID",
          "type": "uint256"
        },
        {
          "name": "ticketValue",
          "type": "uint256"
        },
        {
          "name": "lucky7Number",
          "type": "uint256"
        },
        {
          "name": "lucky7NumberID",
          "type": "uint256"
        },
        {
          "name": "drawID",
          "type": "uint256"
        }
      ],
      "payable": false,
      "stateMutability": "view",
      "type": "function"
    },
    {
      "constant": false,
      "inputs": [
        {
          "name": "_newValue",
          "type": "string"
        }
      ],
      "name": "modifyParameterJ",
      "outputs": [],
      "payable": false,
      "stateMutability": "nonpayable",
      "type": "function"
    },
    {
      "constant": true,
      "inputs": [
        {
          "name": "",
          "type": "uint256"
        }
      ],
      "name": "lucky7Numbers",
      "outputs": [
        {
          "name": "mu",
          "type": "string"
        },
        {
          "name": "i",
          "type": "string"
        },
        {
          "name": "ticketValue",
          "type": "uint256"
        },
        {
          "name": "drawID",
          "type": "uint256"
        }
      ],
      "payable": false,
      "stateMutability": "view",
      "type": "function"
    },
    {
      "constant": true,
      "inputs": [
        {
          "name": "",
          "type": "address"
        }
      ],
      "name": "userValues",
      "outputs": [
        {
          "name": "mu",
          "type": "string"
        },
        {
          "name": "i",
          "type": "string"
        },
        {
          "name": "ticketValue",
          "type": "uint256"
        },
        {
          "name": "muReady",
          "type": "bool"
        },
        {
          "name": "iReady",
          "type": "bool"
        },
        {
          "name": "userPaidTicket",
          "type": "bool"
        }
      ],
      "payable": false,
      "stateMutability": "view",
      "type": "function"
    },
    {
      "constant": true,
      "inputs": [],
      "name": "b",
      "outputs": [
        {
          "name": "",
          "type": "string"
        }
      ],
      "payable": false,
      "stateMutability": "view",
      "type": "function"
    },
    {
      "constant": true,
      "inputs": [
        {
          "name": "",
          "type": "uint256"
        }
      ],
      "name": "tickets",
      "outputs": [
        {
          "name": "mu",
          "type": "string"
        },
        {
          "name": "i",
          "type": "string"
        },
        {
          "name": "ticketValue",
          "type": "uint256"
        },
        {
          "name": "owner",
          "type": "address"
        },
        {
          "name": "drawID",
          "type": "uint256"
        }
      ],
      "payable": false,
      "stateMutability": "view",
      "type": "function"
    },
    {
      "constant": true,
      "inputs": [],
      "name": "oraclizeGasLimit",
      "outputs": [
        {
          "name": "",
          "type": "uint256"
        }
      ],
      "payable": false,
      "stateMutability": "view",
      "type": "function"
    },
    {
      "constant": true,
      "inputs": [],
      "name": "numberOfLucky7Numbers",
      "outputs": [
        {
          "name": "",
          "type": "uint256"
        }
      ],
      "payable": false,
      "stateMutability": "view",
      "type": "function"
    },
    {
      "constant": false,
      "inputs": [],
      "name": "renounceOwnership",
      "outputs": [],
      "payable": false,
      "stateMutability": "nonpayable",
      "type": "function"
    },
    {
      "constant": true,
      "inputs": [],
      "name": "enterpriseWallet",
      "outputs": [
        {
          "name": "",
          "type": "address"
        }
      ],
      "payable": false,
      "stateMutability": "view",
      "type": "function"
    },
    {
      "constant": false,
      "inputs": [
        {
          "name": "_newValue",
          "type": "uint256"
        }
      ],
      "name": "modifyOraclizeGasLimit",
      "outputs": [],
      "payable": false,
      "stateMutability": "nonpayable",
      "type": "function"
    },
    {
      "constant": false,
      "inputs": [
        {
          "name": "_newValue",
          "type": "string"
        }
      ],
      "name": "modifyParameterB",
      "outputs": [],
      "payable": false,
      "stateMutability": "nonpayable",
      "type": "function"
    },
    {
      "constant": false,
      "inputs": [
        {
          "name": "_newValue",
          "type": "uint256"
        }
      ],
      "name": "modifyGenerateTicketPrice",
      "outputs": [],
      "payable": false,
      "stateMutability": "nonpayable",
      "type": "function"
    },
    {
      "constant": true,
      "inputs": [],
      "name": "numberOfWinners",
      "outputs": [
        {
          "name": "",
          "type": "uint256"
        }
      ],
      "payable": false,
      "stateMutability": "view",
      "type": "function"
    },
    {
      "constant": true,
      "inputs": [],
      "name": "owner",
      "outputs": [
        {
          "name": "",
          "type": "address"
        }
      ],
      "payable": false,
      "stateMutability": "view",
      "type": "function"
    },
    {
      "constant": false,
      "inputs": [
        {
          "name": "_newAddress",
          "type": "address"
        }
      ],
      "name": "modifyEnterprisePrize",
      "outputs": [],
      "payable": false,
      "stateMutability": "nonpayable",
      "type": "function"
    },
    {
      "constant": true,
      "inputs": [],
      "name": "oraclizeCustomGasPrice",
      "outputs": [
        {
          "name": "",
          "type": "uint256"
        }
      ],
      "payable": false,
      "stateMutability": "view",
      "type": "function"
    },
    {
      "constant": true,
      "inputs": [],
      "name": "p",
      "outputs": [
        {
          "name": "",
          "type": "string"
        }
      ],
      "payable": false,
      "stateMutability": "view",
      "type": "function"
    },
    {
      "constant": false,
      "inputs": [
        {
          "name": "_newValue",
          "type": "string"
        }
      ],
      "name": "modifyParameterP",
      "outputs": [],
      "payable": false,
      "stateMutability": "nonpayable",
      "type": "function"
    },
    {
      "constant": true,
      "inputs": [],
      "name": "j",
      "outputs": [
        {
          "name": "",
          "type": "string"
        }
      ],
      "payable": false,
      "stateMutability": "view",
      "type": "function"
    },
    {
      "constant": false,
      "inputs": [
        {
          "name": "_newValue",
          "type": "uint256"
        }
      ],
      "name": "modifySellTicketPrice",
      "outputs": [],
      "payable": false,
      "stateMutability": "nonpayable",
      "type": "function"
    },
    {
      "constant": true,
      "inputs": [],
      "name": "indexForLucky7Array",
      "outputs": [
        {
          "name": "",
          "type": "uint256"
        }
      ],
      "payable": false,
      "stateMutability": "view",
      "type": "function"
    },
    {
      "constant": false,
      "inputs": [
        {
          "name": "_newValue",
          "type": "uint256"
        }
      ],
      "name": "modifyNumberOfLucky7Numbers",
      "outputs": [],
      "payable": false,
      "stateMutability": "nonpayable",
      "type": "function"
    },
    {
      "constant": false,
      "inputs": [
        {
          "name": "_newValue",
          "type": "uint256"
        }
      ],
      "name": "modifyNumberOfWinners",
      "outputs": [],
      "payable": false,
      "stateMutability": "nonpayable",
      "type": "function"
    },
    {
      "constant": false,
      "inputs": [
        {
          "name": "_newValue",
          "type": "uint256"
        }
      ],
      "name": "modifyOraclizeCustomGasPrice",
      "outputs": [],
      "payable": false,
      "stateMutability": "nonpayable",
      "type": "function"
    },
    {
      "constant": true,
      "inputs": [],
      "name": "generateTicketPrice",
      "outputs": [
        {
          "name": "",
          "type": "uint256"
        }
      ],
      "payable": false,
      "stateMutability": "view",
      "type": "function"
    },
    {
      "constant": true,
      "inputs": [],
      "name": "drawNumber",
      "outputs": [
        {
          "name": "",
          "type": "uint256"
        }
      ],
      "payable": false,
      "stateMutability": "view",
      "type": "function"
    },
    {
      "constant": true,
      "inputs": [],
      "name": "sellTicketPrice",
      "outputs": [
        {
          "name": "",
          "type": "uint256"
        }
      ],
      "payable": false,
      "stateMutability": "view",
      "type": "function"
    },
    {
      "constant": true,
      "inputs": [
        {
          "name": "",
          "type": "uint256"
        }
      ],
      "name": "lucky7TicketDifference",
      "outputs": [
        {
          "name": "",
          "type": "uint256"
        }
      ],
      "payable": false,
      "stateMutability": "view",
      "type": "function"
    },
    {
      "constant": false,
      "inputs": [
        {
          "name": "_newOwner",
          "type": "address"
        }
      ],
      "name": "transferOwnership",
      "outputs": [],
      "payable": false,
      "stateMutability": "nonpayable",
      "type": "function"
    },
    {
      "inputs": [],
      "payable": true,
      "stateMutability": "payable",
      "type": "constructor"
    },
    {
      "anonymous": false,
      "inputs": [
        {
          "indexed": false,
          "name": "description",
          "type": "string"
        }
      ],
      "name": "newOraclizeQuery",
      "type": "event"
    },
    {
      "anonymous": false,
      "inputs": [
        {
          "indexed": false,
          "name": "parameterOwner",
          "type": "address"
        },
        {
          "indexed": false,
          "name": "muParameter",
          "type": "string"
        }
      ],
      "name": "newMuReceived",
      "type": "event"
    },
    {
      "anonymous": false,
      "inputs": [
        {
          "indexed": false,
          "name": "parameterOwner",
          "type": "address"
        },
        {
          "indexed": false,
          "name": "iParameter",
          "type": "string"
        }
      ],
      "name": "newIReceived",
      "type": "event"
    },
    {
      "anonymous": false,
      "inputs": [
        {
          "indexed": false,
          "name": "parameterOwner",
          "type": "address"
        },
        {
          "indexed": false,
          "name": "newTicket",
          "type": "string"
        }
      ],
      "name": "newTicketReceived",
      "type": "event"
    },
    {
      "anonymous": false,
      "inputs": [
        {
          "indexed": false,
          "name": "feeType",
          "type": "string"
        },
        {
          "indexed": false,
          "name": "_oldValue",
          "type": "uint256"
        },
        {
          "indexed": false,
          "name": "_newValue",
          "type": "uint256"
        }
      ],
      "name": "numberModified",
      "type": "event"
    },
    {
      "anonymous": false,
      "inputs": [
        {
          "indexed": false,
          "name": "parameter",
          "type": "string"
        },
        {
          "indexed": false,
          "name": "_oldValue",
          "type": "string"
        },
        {
          "indexed": false,
          "name": "_newValue",
          "type": "string"
        }
      ],
      "name": "parameterModified",
      "type": "event"
    },
    {
      "anonymous": false,
      "inputs": [
        {
          "indexed": false,
          "name": "parameter",
          "type": "string"
        },
        {
          "indexed": false,
          "name": "_oldValue",
          "type": "address"
        },
        {
          "indexed": false,
          "name": "_newValue",
          "type": "address"
        }
      ],
      "name": "walletModified",
      "type": "event"
    },
    {
      "anonymous": false,
      "inputs": [
        {
          "indexed": true,
          "name": "previousOwner",
          "type": "address"
        }
      ],
      "name": "OwnershipRenounced",
      "type": "event"
    },
    {
      "anonymous": false,
      "inputs": [
        {
          "indexed": true,
          "name": "previousOwner",
          "type": "address"
        },
        {
          "indexed": true,
          "name": "newOwner",
          "type": "address"
        }
      ],
      "name": "OwnershipTransferred",
      "type": "event"
    },
    {
      "constant": false,
      "inputs": [],
      "name": "toggleLucky7Setting",
      "outputs": [],
      "payable": false,
      "stateMutability": "nonpayable",
      "type": "function"
    },
    {
      "constant": false,
      "inputs": [
        {
          "name": "_ticketOwner",
          "type": "address"
        }
      ],
      "name": "_askForMuParameter",
      "outputs": [],
      "payable": false,
      "stateMutability": "nonpayable",
      "type": "function"
    },
    {
      "constant": false,
      "inputs": [
        {
          "name": "_ticketOwner",
          "type": "address"
        }
      ],
      "name": "_askForIParameter",
      "outputs": [],
      "payable": false,
      "stateMutability": "nonpayable",
      "type": "function"
    },
    {
      "constant": false,
      "inputs": [
        {
          "name": "_ticketOwner",
          "type": "address"
        }
      ],
      "name": "_askForTicket",
      "outputs": [],
      "payable": false,
      "stateMutability": "nonpayable",
      "type": "function"
    },
    {
      "constant": false,
      "inputs": [
        {
          "name": "_ticketOwner",
          "type": "address"
        }
      ],
      "name": "_generateTicket",
      "outputs": [],
      "payable": false,
      "stateMutability": "nonpayable",
      "type": "function"
    },
    {
      "constant": false,
      "inputs": [
        {
          "name": "_ticketID",
          "type": "uint256"
        }
      ],
      "name": "_checkForLucky7Ticket",
      "outputs": [],
      "payable": false,
      "stateMutability": "nonpayable",
      "type": "function"
    },
    {
      "constant": false,
      "inputs": [
        {
          "name": "myid",
          "type": "bytes32"
        },
        {
          "name": "result",
          "type": "string"
        }
      ],
      "name": "__callback",
      "outputs": [],
      "payable": false,
      "stateMutability": "nonpayable",
      "type": "function"
    },
    {
      "constant": false,
      "inputs": [
        {
          "name": "myid",
          "type": "bytes32"
        },
        {
          "name": "result",
          "type": "string"
        },
        {
          "name": "proof",
          "type": "bytes"
        }
      ],
      "name": "__callback",
      "outputs": [],
      "payable": false,
      "stateMutability": "nonpayable",
      "type": "function"
    }
  ],
  "bytecode": "0x60c0604052600160808190527f310000000000000000000000000000000000000000000000000000000000000060a0908152620000409160069190620001b4565b506040805180820190915260018082527f380000000000000000000000000000000000000000000000000000000000000060209092019182526200008791600791620001b4565b506040805180820190915260058082527f31303030300000000000000000000000000000000000000000000000000000006020909201918252620000ce91600891620001b4565b506040805180820190915260028082527f323000000000000000000000000000000000000000000000000000000000000060209092019182526200011591600991620001b4565b506007600a556003600b556611c37937e08000600c55662aa1efb94e0000600d55620493e0600e5563ee6b2800600f5560108054600160a060020a031990811673265a5c3dd46ec82e2744f1d0e9fb4ed75d56132a179091556000601181905560128190556013805460ff19166001179055600580548316331790558054909116736f485c8bf6fc43ea212e93bbf8ce046c7f1cb47517905562000259565b828054600181600116156101000203166002900490600052602060002090601f016020900481019282601f10620001f757805160ff191683800117855562000227565b8280016001018555821562000227579182015b82811115620002275782518255916020019190600101906200020a565b506200023592915062000239565b5090565b6200025691905b8082111562000235576000815560010162000240565b90565b6141db80620002696000396000f3006080604052600436106101f55763ffffffff60e060020a6000350416630cc38b2b81146101fa57806310cd4b8a146102555780631c3ed1d31461027f57806323d370ba146102b357806327dc297e146102d45780632caf9eee146103325780632de729eb1461035b5780632e52d6061461037357806338bbfa50146103fd578063396fb4221461049957806339df3f4f146104f15780633bb7daf4146105065780633eba34661461055f5780634acfd9b8146106635780634df7e3d01461078257806350b447121461079757806350b9c428146108aa57806359f9fe82146108bf578063715018a6146108d4578063741606b5146108e957806377d8a830146108fe578063809fc1531461091f57806383bb7bb7146109375780638aa5fafa146109905780638acfaca9146109a85780638da5cb5b146109bd57806396701ce9146109d25780639ac2bf91146109f35780639ae8886a14610a085780639dec38ab14610a1d578063b582ec5f14610a76578063bcb740ab14610a8b578063c56969ab14610aa3578063c71f04ac14610a8b578063c90cdc7e14610ab8578063d383e86214610ad0578063d566bcf014610ae8578063d80ffb2014610afd578063ddc110fa14610b12578063e5663c4814610b33578063e802ae1414610b48578063f2fde38b14610b60578063fd9be1b214610b81575b600080fd5b34801561020657600080fd5b506040805160206004803580820135601f8101849004840285018401909552848452610253943694929360249392840191908190840183828082843750949750610ba29650505050505050565b005b34801561026157600080fd5b5061026d600435610d8a565b60408051918252519081900360200190f35b34801561028b57600080fd5b50610297600435610d9c565b60408051600160a060020a039092168252519081900360200190f35b3480156102bf57600080fd5b50610253600160a060020a0360043516610db7565b3480156102e057600080fd5b5060408051602060046024803582810135601f8101859004850286018501909652858552610253958335953695604494919390910191908190840183828082843750949750610ec99650505050505050565b34801561033e57600080fd5b506103476114e0565b604080519115158252519081900360200190f35b34801561036757600080fd5b506102536004356114e9565b34801561037f57600080fd5b5061038861172b565b6040805160208082528351818301528351919283929083019185019080838360005b838110156103c25781810151838201526020016103aa565b50505050905090810190601f1680156103ef5780820380516001836020036101000a031916815260200191505b509250505060405180910390f35b34801561040957600080fd5b5060408051602060046024803582810135601f810185900485028601850190965285855261025395833595369560449491939091019190819084018382808284375050604080516020601f89358b018035918201839004830284018301909452808352979a9998810197919650918201945092508291508401838280828437509497506117b99650505050505050565b3480156104a557600080fd5b506104b16004356117be565b60408051978852600160a060020a039096166020880152868601949094526060860192909252608085015260a084015260c0830152519081900360e00190f35b3480156104fd57600080fd5b50610253611815565b34801561051257600080fd5b506040805160206004803580820135601f81018490048402850184019095528484526102539436949293602493928401919081908401838280828437509497506118409650505050505050565b34801561056b57600080fd5b50610577600435611986565b604051808060200180602001858152602001848152602001838103835287818151815260200191508051906020019080838360005b838110156105c45781810151838201526020016105ac565b50505050905090810190601f1680156105f15780820380516001836020036101000a031916815260200191505b50838103825286518152865160209182019188019080838360005b8381101561062457818101518382015260200161060c565b50505050905090810190601f1680156106515780820380516001836020036101000a031916815260200191505b50965050505050505060405180910390f35b34801561066f57600080fd5b50610684600160a060020a0360043516611ad2565b604080519081018590528315156060820152821515608082015281151560a082015260c08082528751908201528651819060208083019160e08401918b019080838360005b838110156106e15781810151838201526020016106c9565b50505050905090810190601f16801561070e5780820380516001836020036101000a031916815260200191505b5083810382528851815288516020918201918a019080838360005b83811015610741578181015183820152602001610729565b50505050905090810190601f16801561076e5780820380516001836020036101000a031916815260200191505b509850505050505050505060405180910390f35b34801561078e57600080fd5b50610388611c32565b3480156107a357600080fd5b506107af600435611c8d565b60408051908101849052600160a060020a03831660608201526080810182905260a08082528651908201528551819060208083019160c08401918a019080838360005b8381101561080a5781810151838201526020016107f2565b50505050905090810190601f1680156108375780820380516001836020036101000a031916815260200191505b50838103825287518152875160209182019189019080838360005b8381101561086a578181015183820152602001610852565b50505050905090810190601f1680156108975780820380516001836020036101000a031916815260200191505b5097505050505050505060405180910390f35b3480156108b657600080fd5b5061026d611dfa565b3480156108cb57600080fd5b5061026d611e00565b3480156108e057600080fd5b50610253611e06565b3480156108f557600080fd5b50610297611e67565b34801561090a57600080fd5b50610253600160a060020a0360043516611e76565b34801561092b57600080fd5b50610253600435611e8b565b34801561094357600080fd5b506040805160206004803580820135601f8101849004840285018401909552848452610253943694929360249392840191908190840183828082843750949750611f0e9650505050505050565b34801561099c57600080fd5b50610253600435612054565b3480156109b457600080fd5b5061026d6120d7565b3480156109c957600080fd5b506102976120dd565b3480156109de57600080fd5b50610253600160a060020a03600435166120ec565b3480156109ff57600080fd5b5061026d61219d565b348015610a1457600080fd5b506103886121a3565b348015610a2957600080fd5b506040805160206004803580820135601f81018490048402850184019095528484526102539436949293602493928401919081908401838280828437509497506121fe9650505050505050565b348015610a8257600080fd5b50610388612344565b348015610a9757600080fd5b5061025360043561239f565b348015610aaf57600080fd5b5061026d612422565b348015610ac457600080fd5b50610253600435612428565b348015610adc57600080fd5b506102536004356124ab565b348015610af457600080fd5b5061026d612554565b348015610b0957600080fd5b5061026d61255a565b348015610b1e57600080fd5b50610253600160a060020a0360043516612560565b348015610b3f57600080fd5b5061026d612647565b348015610b5457600080fd5b5061026d60043561264d565b348015610b6c57600080fd5b50610253600160a060020a036004351661265f565b348015610b8d57600080fd5b50610253600160a060020a036004351661267f565b600554606090600160a060020a03163314610bbc57600080fd5b6007805460408051602060026001851615610100026000190190941693909304601f81018490048402820184019092528181529291830182828015610c425780601f10610c1757610100808354040283529160200191610c42565b820191906000526020600020905b815481529060010190602001808311610c2557829003601f168201915b50508551939450610c5e936007935060208701925090506140d7565b50600080516020614190833981519152818360405180806020018060200180602001848103845260148152602001807f506172616d65746572206e206d6f646966696564000000000000000000000000815250602001848103835286818151815260200191508051906020019080838360005b83811015610ce9578181015183820152602001610cd1565b50505050905090810190601f168015610d165780820380516001836020036101000a031916815260200191505b50848103825285518152855160209182019187019080838360005b83811015610d49578181015183820152602001610d31565b50505050905090810190601f168015610d765780820380516001836020036101000a031916815260200191505b509550505050505060405180910390a15050565b60386020526000908152604090205481565b603760205260009081526040902054600160a060020a031681565b6000610dc4600f54612793565b604080516020808252808201527f41736b696e6720666f722061206e6577206d7520706172616d657465722e2e2e8183015290517f46cb989ef9cef13e930e3b7f286225a086e716a90d63e0b7da85d310a9db0c9a9181900360600190a1610e996040805190810160405280600c81526020017f576f6c6672616d416c70686100000000000000000000000000000000000000008152506040805190810160405280600f81526020017f342072616e646f6d206e756d6265720000000000000000000000000000000000815250600e54612979565b60009081526033602052604090208054600160a060020a031916600160a060020a03939093169290921790915550565b610ed1612d7a565b600160a060020a03163314610ee557600080fd5b600082815260336020526040902054600160a060020a031615801590610f335750600082815260336020908152604080832054600160a060020a03168352603290915290206003015460ff16155b156110f557600082815260336020908152604080832054600160a060020a03168352603282529091208251610f6a928401906140d7565b506000828152603360209081526040808320548151600160a060020a0390911680825281840183815286519383019390935285517f47eedbcfd0da23d2413b78bd7807ecbde2a9754fa0dc19185984a244d9cd773a959194879492606085019291860191908190849084905b83811015610fee578181015183820152602001610fd6565b50505050905090810190601f16801561101b5780820380516001836020036101000a031916815260200191505b50935050505060405180910390a160008281526033602090815260408083208054600160a060020a03908116855260329093528184206003908101805460ff191660019081179091559154909316845292200154610100900460ff1615151480156110ca5750600082815260336020908152604080832054600160a060020a03168352603290915290206003015460ff62010000909104161515600114806110ca575060135460ff1615156001145b156110f0576000828152603360205260409020546110f090600160a060020a0316612560565b6114dc565b600082815260346020526040902054600160a060020a0316158015906111485750600082815260346020908152604080832054600160a060020a031683526032909152902060030154610100900460ff16155b1561130857600082815260346020908152604080832054600160a060020a03168352603282529091208251611185926001909201918401906140d7565b506000828152603460209081526040808320548151600160a060020a0390911680825281840183815286519383019390935285517f493aa57ad5f18480f956f6979e26052f3c3e9b6f4985b1331bfa696904e10cd5959194879492606085019291860191908190849084905b838110156112095781810151838201526020016111f1565b50505050905090810190601f1680156112365780820380516001836020036101000a031916815260200191505b50935050505060405180910390a160008281526034602090815260408083208054600160a060020a03908116855260329093528184206003908101805461ff00191661010017905590549092168352909120015460ff16151560011480156112e25750600082815260346020908152604080832054600160a060020a03168352603290915290206003015460ff62010000909104161515600114806112e2575060135460ff1615156001145b156110f0576000828152603460205260409020546110f090600160a060020a0316612560565b600082815260356020526040902054600160a060020a0316158015906113725750600082815260356020908152604080832054600160a060020a03168352603290915290206003015460ff6201000090910416151560011480611372575060135460ff1615156001145b156114dc5761138081612f6c565b60008381526035602081815260408084208054600160a060020a039081168652603284528286206002019690965587855292825291548251941680855284820183815286519386019390935285517f3c6507a39df055ecbb0672078b29c556fa529767da7d5676e77478914e3b5987959194879492936060850192908601918190849084905b8381101561141e578181015183820152602001611406565b50505050905090810190601f16801561144b5780820380516001836020036101000a031916815260200191505b50935050505060405180910390a1600082815260356020908152604080832054600160a060020a0316835260329091529020600301805462ff00001916905560135460ff161515600114156114bb576000828152603560205260409020546110f090600160a060020a0316612f7f565b6000828152603560205260409020546114dc90600160a060020a0316613188565b5050565b60135460ff1681565b60008060008060166001600a540360078110151561150357fe5b600402016002015460158681548110151561151a57fe5b906000526020600020906005020160020154111561158957600a546000190193506115826016856007811061154b57fe5b600402016002015460158781548110151561156257fe5b9060005260206000209060050201600201546133c390919063ffffffff16565b925061168a565b601854601580548790811061159a57fe5b90600052602060002090600502016002015410156115ff57600093506115826015868154811015156115c857fe5b9060005260206000209060050201600201546016866007811015156115e957fe5b60040201600201546133c390919063ffffffff16565b6016846007811061160c57fe5b600402016002015460158681548110151561162357fe5b9060005260206000209060050201600201541115611646576001909301926115ff565b61165a601660001986016007811061154b57fe5b915061166e6015868154811015156115c857fe5b9050818111156116865760018403935081925061168a565b8092505b600084815260376020526040902054600160a060020a031615806116bb575060008481526036602052604090205483105b156117245760158054869081106116ce57fe5b60009182526020808320600360059093020191909101548683526037825260408084208054600160a060020a031916600160a060020a039093169290921790915560368252808320869055603890915290208590555b5050505050565b6007805460408051602060026001851615610100026000190190941693909304601f810184900484028201840190925281815292918301828280156117b15780601f10611786576101008083540402835291602001916117b1565b820191906000526020600020905b81548152906001019060200180831161179457829003601f168201915b505050505081565b505050565b60148054829081106117cc57fe5b60009182526020909120600790910201805460018201546002830154600384015460048501546005860154600690960154949650600160a060020a039093169491939092919087565b600554600160a060020a0316331461182c57600080fd5b6013805460ff19811660ff90911615179055565b600554606090600160a060020a0316331461185a57600080fd5b6009805460408051602060026001851615610100026000190190941693909304601f810184900484028201840190925281815292918301828280156118e05780601f106118b5576101008083540402835291602001916118e0565b820191906000526020600020905b8154815290600101906020018083116118c357829003601f168201915b505085519394506118fc936009935060208701925090506140d7565b50600080516020614190833981519152818360405180806020018060200180602001848103845260148152602001807f506172616d65746572206a206d6f6469666965640000000000000000000000008152506020018481038352868181518152602001915080519060200190808383600083811015610ce9578181015183820152602001610cd1565b6016816007811061199357fe5b60040201805460408051602060026001851615610100026000190190941693909304601f81018490048402820184019092528181529293508391830182828015611a1e5780601f106119f357610100808354040283529160200191611a1e565b820191906000526020600020905b815481529060010190602001808311611a0157829003601f168201915b505050505090806001018054600181600116156101000203166002900480601f016020809104026020016040519081016040528092919081815260200182805460018160011615610100020316600290048015611abc5780601f10611a9157610100808354040283529160200191611abc565b820191906000526020600020905b815481529060010190602001808311611a9f57829003601f168201915b5050505050908060020154908060030154905084565b60326020908152600091825260409182902080548351601f60026000196101006001861615020190931692909204918201849004840281018401909452808452909291839190830182828015611b695780601f10611b3e57610100808354040283529160200191611b69565b820191906000526020600020905b815481529060010190602001808311611b4c57829003601f168201915b505050505090806001018054600181600116156101000203166002900480601f016020809104026020016040519081016040528092919081815260200182805460018160011615610100020316600290048015611c075780601f10611bdc57610100808354040283529160200191611c07565b820191906000526020600020905b815481529060010190602001808311611bea57829003601f168201915b50505050600283015460039093015491929160ff808216925061010082048116916201000090041686565b6006805460408051602060026001851615610100026000190190941693909304601f810184900484028201840190925281815292918301828280156117b15780601f10611786576101008083540402835291602001916117b1565b6015805482908110611c9b57fe5b60009182526020918290206005919091020180546040805160026001841615610100026000190190931692909204601f810185900485028301850190915280825291935091839190830182828015611d345780601f10611d0957610100808354040283529160200191611d34565b820191906000526020600020905b815481529060010190602001808311611d1757829003601f168201915b505050505090806001018054600181600116156101000203166002900480601f016020809104026020016040519081016040528092919081815260200182805460018160011615610100020316600290048015611dd25780601f10611da757610100808354040283529160200191611dd2565b820191906000526020600020905b815481529060010190602001808311611db557829003601f168201915b505050506002830154600384015460049094015492939092600160a060020a03909116915085565b600e5481565b600a5481565b600554600160a060020a03163314611e1d57600080fd5b600554604051600160a060020a03909116907ff8df31144d9c2f0f6b59d69b8b98abd5459d07f2742c4df920b25aae33c6482090600090a260058054600160a060020a0319169055565b601054600160a060020a031681565b611e7f81610db7565b611e888161267f565b50565b600554600090600160a060020a03163314611ea557600080fd5b50600e80549082905560408051602081018390528082018490526060808252601a908201527f4f7261636c697a6520676173206c696d6974206368616e676564000000000000608082015290516000805160206141708339815191529181900360a00190a15050565b600554606090600160a060020a03163314611f2857600080fd5b6006805460408051602060026001851615610100026000190190941693909304601f81018490048402820184019092528181529291830182828015611fae5780601f10611f8357610100808354040283529160200191611fae565b820191906000526020600020905b815481529060010190602001808311611f9157829003601f168201915b50508551939450611fca936006935060208701925090506140d7565b50600080516020614190833981519152818360405180806020018060200180602001848103845260148152602001807f506172616d657465722062206d6f6469666965640000000000000000000000008152506020018481038352868181518152602001915080519060200190808383600083811015610ce9578181015183820152602001610cd1565b600554600090600160a060020a0316331461206e57600080fd5b50600c80549082905560408051602081018390528082018490526060808252601d908201527f47656e6572617465207469636b6574207072696365206368616e676564000000608082015290516000805160206141708339815191529181900360a00190a15050565b600b5481565b600554600160a060020a031681565b600554600090600160a060020a0316331461210657600080fd5b5060108054600160a060020a03838116600160a060020a0319831681179093556040805191909216602082018190528183019390935260608082526019908201527f456e74657270726973652077616c6c6574206368616e67656400000000000000608082015290517f223db053947bb148de510715d3c7d8ccd72bdd376752fd735ee7bd0bd0ece5bf9181900360a00190a15050565b600f5481565b6008805460408051602060026001851615610100026000190190941693909304601f810184900484028201840190925281815292918301828280156117b15780601f10611786576101008083540402835291602001916117b1565b600554606090600160a060020a0316331461221857600080fd5b6008805460408051602060026001851615610100026000190190941693909304601f8101849004840282018401909252818152929183018282801561229e5780601f106122735761010080835404028352916020019161229e565b820191906000526020600020905b81548152906001019060200180831161228157829003601f168201915b505085519394506122ba936008935060208701925090506140d7565b50600080516020614190833981519152818360405180806020018060200180602001848103845260148152602001807f506172616d657465722070206d6f6469666965640000000000000000000000008152506020018481038352868181518152602001915080519060200190808383600083811015610ce9578181015183820152602001610cd1565b6009805460408051602060026001851615610100026000190190941693909304601f810184900484028201840190925281815292918301828280156117b15780601f10611786576101008083540402835291602001916117b1565b600554600090600160a060020a031633146123b957600080fd5b50600d805490829055604080516020810183905280820184905260608082526019908201527f53656c6c207469636b6574207072696365206368616e67656400000000000000608082015290516000805160206141708339815191529181900360a00190a15050565b60125481565b600554600090600160a060020a0316331461244257600080fd5b50600b805490829055604080516020810183905280820184905260608082526019908201527f4e756d626572206f662077696e6e657273206368616e67656400000000000000608082015290516000805160206141708339815191529181900360a00190a15050565b600554600090600160a060020a031633146124c557600080fd5b50600f805490829055604080516020810183905280820184905260608082526021908201527f4f7261636c697a6520637573746f6d20676173207072696365206368616e676560808201527f640000000000000000000000000000000000000000000000000000000000000060a082015290516000805160206141708339815191529181900360c00190a15050565b600c5481565b60115481565b600061256d600f54612793565b604080516020808252601a908201527f41736b696e6720666f722061206e6577207469636b65742e2e2e0000000000008183015290517f46cb989ef9cef13e930e3b7f286225a086e716a90d63e0b7da85d310a9db0c9a9181900360600190a16126176040805190810160405280600c81526020017f576f6c6672616d416c706861000000000000000000000000000000000000000081525061260f846133d5565b600e54612979565b60009081526035602052604090208054600160a060020a031916600160a060020a03939093169290921790915550565b600d5481565b60366020526000908152604090205481565b600554600160a060020a0316331461267657600080fd5b611e8881613926565b600061268c600f54612793565b604080516020808252601f908201527f41736b696e6720666f722061206e6577206920706172616d657465722e2e2e008183015290517f46cb989ef9cef13e930e3b7f286225a086e716a90d63e0b7da85d310a9db0c9a9181900360600190a16127636040805190810160405280600c81526020017f576f6c6672616d416c70686100000000000000000000000000000000000000008152506040805190810160405280600f81526020017f342072616e646f6d206e756d6265720000000000000000000000000000000000815250600e54612979565b60009081526034602052604090208054600160a060020a031916600160a060020a03939093169290921790915550565b600054600160a060020a031615806127bd57506000546127bb90600160a060020a0316613997565b155b156127ce576127cc600061399b565b505b6000809054906101000a9004600160a060020a0316600160a060020a03166338cc48316040518163ffffffff1660e060020a028152600401602060405180830381600087803b15801561282057600080fd5b505af1158015612834573d6000803e3d6000fd5b505050506040513d602081101561284a57600080fd5b5051600154600160a060020a039081169116146128ff576000809054906101000a9004600160a060020a0316600160a060020a03166338cc48316040518163ffffffff1660e060020a028152600401602060405180830381600087803b1580156128b357600080fd5b505af11580156128c7573d6000803e3d6000fd5b505050506040513d60208110156128dd57600080fd5b505160018054600160a060020a031916600160a060020a039092169190911790555b600154604080517fca6ad1e4000000000000000000000000000000000000000000000000000000008152600481018490529051600160a060020a039092169163ca6ad1e49160248082019260009290919082900301818387803b15801561296557600080fd5b505af1158015611724573d6000803e3d6000fd5b600080548190600160a060020a031615806129a657506000546129a490600160a060020a0316613997565b155b156129b7576129b5600061399b565b505b6000809054906101000a9004600160a060020a0316600160a060020a03166338cc48316040518163ffffffff1660e060020a028152600401602060405180830381600087803b158015612a0957600080fd5b505af1158015612a1d573d6000803e3d6000fd5b505050506040513d6020811015612a3357600080fd5b5051600154600160a060020a03908116911614612ae8576000809054906101000a9004600160a060020a0316600160a060020a03166338cc48316040518163ffffffff1660e060020a028152600401602060405180830381600087803b158015612a9c57600080fd5b505af1158015612ab0573d6000803e3d6000fd5b505050506040513d6020811015612ac657600080fd5b505160018054600160a060020a031916600160a060020a039092169190911790555b600154604080517f2ef3accc0000000000000000000000000000000000000000000000000000000081526024810186905260048101918252875160448201528751600160a060020a0390931692632ef3accc9289928892829160640190602086019080838360005b83811015612b68578181015183820152602001612b50565b50505050905090810190601f168015612b955780820380516001836020036101000a031916815260200191505b509350505050602060405180830381600087803b158015612bb557600080fd5b505af1158015612bc9573d6000803e3d6000fd5b505050506040513d6020811015612bdf57600080fd5b50519050670de0b6b3a76400003a840201811115612c005760009150612d72565b6001546040517fc51be90f00000000000000000000000000000000000000000000000000000000815260006004820181815260648301879052608060248401908152895160848501528951600160a060020a039095169463c51be90f948794938c938c938c93604481019160a49091019060208801908083838c5b83811015612c93578181015183820152602001612c7b565b50505050905090810190601f168015612cc05780820380516001836020036101000a031916815260200191505b50838103825285518152855160209182019187019080838360005b83811015612cf3578181015183820152602001612cdb565b50505050905090810190601f168015612d205780820380516001836020036101000a031916815260200191505b5096505050505050506020604051808303818588803b158015612d4257600080fd5b505af1158015612d56573d6000803e3d6000fd5b50505050506040513d6020811015612d6d57600080fd5b505191505b509392505050565b60008054600160a060020a03161580612da55750600054612da390600160a060020a0316613997565b155b15612db657612db4600061399b565b505b6000809054906101000a9004600160a060020a0316600160a060020a03166338cc48316040518163ffffffff1660e060020a028152600401602060405180830381600087803b158015612e0857600080fd5b505af1158015612e1c573d6000803e3d6000fd5b505050506040513d6020811015612e3257600080fd5b5051600154600160a060020a03908116911614612ee7576000809054906101000a9004600160a060020a0316600160a060020a03166338cc48316040518163ffffffff1660e060020a028152600401602060405180830381600087803b158015612e9b57600080fd5b505af1158015612eaf573d6000803e3d6000fd5b505050506040513d6020811015612ec557600080fd5b505160018054600160a060020a031916600160a060020a039092169190911790555b600160009054906101000a9004600160a060020a0316600160a060020a031663c281d19e6040518163ffffffff1660e060020a028152600401602060405180830381600087803b158015612f3a57600080fd5b505af1158015612f4e573d6000803e3d6000fd5b505050506040513d6020811015612f6457600080fd5b505190505b90565b6000612f798260006139a5565b92915050565b60408051600160a060020a03831660009081526032602090815290839020805460026001821615610100026000190190911604601f8101839004909202830160a0908101909452608083018281529293849392908401828280156130245780601f10612ff957610100808354040283529160200191613024565b820191906000526020600020905b81548152906001019060200180831161300757829003601f168201915b505050505081526020016032600084600160a060020a0316600160a060020a031681526020019081526020016000206001018054600181600116156101000203166002900480601f0160208091040260200160405190810160405280929190818152602001828054600181600116156101000203166002900480156130ea5780601f106130bf576101008083540402835291602001916130ea565b820191906000526020600020905b8154815290600101906020018083116130cd57829003601f168201915b5050509183525050600160a060020a03831660009081526032602090815260409182902060020154908301526011549101526012546016906007811061312c57fe5b60040201600082015181600001908051906020019061314c9291906140d7565b50602082810151805161316592600185019201906140d7565b506040820151600282015560609091015160039091015550601280546001019055565b60408051600160a060020a03831660009081526032602090815283822080546002600180831615610100026000190190921604601f8101849004909302850160c090810190965260a08501838152939590946015949093849391928401828280156132345780601f1061320957610100808354040283529160200191613234565b820191906000526020600020905b81548152906001019060200180831161321757829003601f168201915b505050505081526020016032600087600160a060020a0316600160a060020a031681526020019081526020016000206001018054600181600116156101000203166002900480601f0160208091040260200160405190810160405280929190818152602001828054600181600116156101000203166002900480156132fa5780601f106132cf576101008083540402835291602001916132fa565b820191906000526020600020905b8154815290600101906020018083116132dd57829003601f168201915b5050509183525050600160a060020a03861660008181526032602090815260408083206002015482860152840192909252601154606090930192909252835460018101808655948352918190208351805160059094029091019261336192849201906140d7565b50602082810151805161337a92600185019201906140d7565b50604082015160028201556060820151600382018054600160a060020a031916600160a060020a039092169190911790556080909101516004909101550390506114dc816114e9565b6000828211156133cf57fe5b50900390565b604080518082018252600b81527f6d6f642828312f2831305e000000000000000000000000000000000000000000602080830191909152600780548451601f60026000196101006001861615020190931692909204918201849004840281018401909552808552606094859485946135b19491939083018282801561349b5780601f106134705761010080835404028352916020019161349b565b820191906000526020600020905b81548152906001019060200180831161347e57829003601f168201915b505060408051808201825260018082527f2d00000000000000000000000000000000000000000000000000000000000000602080840191909152600160a060020a038e1660009081526032825284902080548551600294821615610100026000190190911693909304601f81018390048302840183019095528483529296509094509092508301828280156135715780601f1061354657610100808354040283529160200191613571565b820191906000526020600020905b81548152906001019060200180831161355457829003601f168201915b50505050506040805190810160405280601081526020017f29292a31305e31303030302c31305e2800000000000000000000000000000000815250613b17565b60098054604080516020601f6002600019610100600188161502019095169490940493840181900481028201810190925282815293955061375b938693909290918301828280156136435780601f1061361857610100808354040283529160200191613643565b820191906000526020600020905b81548152906001019060200180831161362657829003601f168201915b505060408051808201825260018082527f2b00000000000000000000000000000000000000000000000000000000000000602080840191909152600160a060020a038e16600090815260328252849020820180548551600294821615610100026000190190911693909304601f810183900483028401830190955284835292965090945090925083018282801561371b5780601f106136f05761010080835404028352916020019161371b565b820191906000526020600020905b8154815290600101906020018083116136fe57829003601f168201915b50505050506040805190810160405280600281526020017f2929000000000000000000000000000000000000000000000000000000000000815250613b17565b60408051808201825260018082527f2d00000000000000000000000000000000000000000000000000000000000000602080840191909152600160a060020a038916600090815260328252849020820180548551600294821615610100026000190190911693909304601f810183900483028401830190955284835294955061380994869488939283018282801561371b5780601f106136f05761010080835404028352916020019161371b565b60408051808201825260018082527f280000000000000000000000000000000000000000000000000000000000000060208084019190915283518085018552600581527f292f31305e00000000000000000000000000000000000000000000000000000081830152600160a060020a038a16600090815260328352859020830180548651600295821615610100026000190190911694909404601f810184900484028501840190965285845295965061391e95939487949193928301828280156139145780601f106138e957610100808354040283529160200191613914565b820191906000526020600020905b8154815290600101906020018083116138f757829003601f168201915b5050505050613d78565b949350505050565b600160a060020a038116151561393b57600080fd5b600554604051600160a060020a038084169216907f8be0079c531659141344cd1fd0a4f28419497f9722a3daafe3b4186f6b6457e090600090a360058054600160a060020a031916600160a060020a0392909216919091179055565b3b90565b6000612f79613da0565b6000828180805b8351811015613afa5783517f3000000000000000000000000000000000000000000000000000000000000000908590839081106139e557fe5b90602001015160f860020a900460f860020a02600160f860020a03191610158015613a5b575083517f390000000000000000000000000000000000000000000000000000000000000090859083908110613a3b57fe5b90602001015160f860020a900460f860020a02600160f860020a03191611155b15613ab4578115613a7a57851515613a7257613afa565b600019909501945b600a8302925060308482815181101515613a9057fe5b90602001015160f860020a900460f860020a0260f860020a90040383019250613af2565b8381815181101515613ac257fe5b90602001015160f860020a900460f860020a02600160f860020a031916602e60f860020a021415613af257600191505b6001016139ac565b6000861115613b0c5785600a0a830292505b509095945050505050565b6060806060806060806060806000808e98508d97508c96508b95508a94508451865188518a518c51010101016040519080825280601f01601f191660200182016040528015613b70578160200160208202803883390190505b50935083925060009150600090505b8851811015613bdd578881815181101515613b9657fe5b90602001015160f860020a900460f860020a028383806001019450815181101515613bbd57fe5b906020010190600160f860020a031916908160001a905350600101613b7f565b5060005b8751811015613c3f578781815181101515613bf857fe5b90602001015160f860020a900460f860020a028383806001019450815181101515613c1f57fe5b906020010190600160f860020a031916908160001a905350600101613be1565b5060005b8651811015613ca1578681815181101515613c5a57fe5b90602001015160f860020a900460f860020a028383806001019450815181101515613c8157fe5b906020010190600160f860020a031916908160001a905350600101613c43565b5060005b8551811015613d03578581815181101515613cbc57fe5b90602001015160f860020a900460f860020a028383806001019450815181101515613ce357fe5b906020010190600160f860020a031916908160001a905350600101613ca5565b5060005b8451811015613d65578481815181101515613d1e57fe5b90602001015160f860020a900460f860020a028383806001019450815181101515613d4557fe5b906020010190600160f860020a031916908160001a905350600101613d07565b50909d9c50505050505050505050505050565b6060613d97858585856020604051908101604052806000815250613b17565b95945050505050565b600080613dc0731d3b2638a7cc9f2cb3d298a3da7a90b67e5506ed613997565b1115613e315760008054600160a060020a031916731d3b2638a7cc9f2cb3d298a3da7a90b67e5506ed17905560408051808201909152600b81527f6574685f6d61696e6e65740000000000000000000000000000000000000000006020820152613e29906140c8565b506001612f69565b6000613e5073c03a2615d5efaf5f49f60b7bb6583eaec212fdf1613997565b1115613eb95760008054600160a060020a03191673c03a2615d5efaf5f49f60b7bb6583eaec212fdf117905560408051808201909152600c81527f6574685f726f707374656e3300000000000000000000000000000000000000006020820152613e29906140c8565b6000613ed873b7a07bcf2ba2f2703b24c0691b5278999c59ac7e613997565b1115613f415760008054600160a060020a03191673b7a07bcf2ba2f2703b24c0691b5278999c59ac7e17905560408051808201909152600981527f6574685f6b6f76616e00000000000000000000000000000000000000000000006020820152613e29906140c8565b6000613f6073146500cfd35b22e4a392fe0adc06de1a1368ed48613997565b1115613fc95760008054600160a060020a03191673146500cfd35b22e4a392fe0adc06de1a1368ed4817905560408051808201909152600b81527f6574685f72696e6b6562790000000000000000000000000000000000000000006020820152613e29906140c8565b6000613fe8736f485c8bf6fc43ea212e93bbf8ce046c7f1cb475613997565b111561401c575060008054600160a060020a031916736f485c8bf6fc43ea212e93bbf8ce046c7f1cb4751790556001612f69565b600061403b7320e12a1f859b3feae5fb2a0a32c18f5a65555bbf613997565b111561406f575060008054600160a060020a0319167320e12a1f859b3feae5fb2a0a32c18f5a65555bbf1790556001612f69565b600061408e7351efaf4c8b3c9afbd5ab9f4bbc82784ab6ef8faa613997565b11156140c2575060008054600160a060020a0319167351efaf4c8b3c9afbd5ab9f4bbc82784ab6ef8faa1790556001612f69565b50600090565b80516114dc9060029060208401905b828054600181600116156101000203166002900490600052602060002090601f016020900481019282601f1061411857805160ff1916838001178555614145565b82800160010185558215614145579182015b8281111561414557825182559160200191906001019061412a565b50614151929150614155565b5090565b612f6991905b80821115614151576000815560010161415b56009bc068999fb1a0aac007a9b44ca6322a376441f42706bf5163600bb3d1a731647ecbd54b3baea533cf57ef049f9e04554be6a660d6dacd477488066eedf27beea165627a7a723058208617f7a2a7200d0fc76dad1595d6548e9709e08c9f2717279de409e3e513a0c60029",
  "source": "pragma solidity ^0.4.20;\nimport \"./usingOraclize.sol\";\n//import \"github.com/oraclize/ethereum-api/oraclizeAPI.sol\";\nimport \"./Lucky7Admin.sol\";\n\n\ncontract Lucky7TicketFactory is usingOraclize, Lucky7Admin{\n    \n    function Lucky7TicketFactory() payable {\n        OAR = OraclizeAddrResolverI(0x6f485c8bf6fc43ea212e93bbf8ce046c7f1cb475);\n    }\n    \n    using SafeMath for uint256;\n    \n    event newOraclizeQuery(string description);\n    event newMuReceived(address parameterOwner, string muParameter);\n    event newIReceived(address parameterOwner, string iParameter);\n    event newTicketReceived(address parameterOwner, string newTicket);\n\n    \n    modifier oraclizeGasPriceCustomized{\n        oraclize_setCustomGasPrice(oraclizeCustomGasPrice);\n        _;\n    }\n    \n    uint public drawNumber = 0;\n    uint public indexForLucky7Array = 0;\n    \n    //Circuit breakers\n    bool public settingLucky7Numbers = true;\n    \n    function toggleLucky7Setting() public onlyOwner{\n        settingLucky7Numbers = !settingLucky7Numbers;\n    }\n    \n    struct UserParametersValue{\n        string mu;\n        string i;\n        uint ticketValue;\n        bool muReady;\n        bool iReady;\n        bool userPaidTicket;\n    }\n    \n    struct Ticket{\n        string mu;\n        string i;\n        uint ticketValue;\n        address owner;\n        uint drawID;\n    }\n    \n    struct Lucky7Number{\n        string mu;\n        string i;\n        uint ticketValue;\n        uint drawID;\n    }\n    \n    struct Lucky7Ticket{\n        uint difference;\n        address owner;\n        uint ticketID;\n        uint ticketValue;\n        uint lucky7Number;\n        uint lucky7NumberID;\n        uint drawID;\n    }\n    \n    Lucky7Ticket[] public lucky7Tickets;\n    Ticket[] public tickets;    \n    Lucky7Number[7] public lucky7Numbers;\n\n    mapping (address => UserParametersValue) public userValues;\n    mapping (bytes32 => address) muParameterID;\n    mapping (bytes32 => address) iParameterID;\n    mapping (bytes32 => address) ticketID;\n    mapping (uint => uint) public lucky7TicketDifference;\n    mapping (uint => address) public lucky7TicketOwner;\n    mapping (uint => uint) public lucky7TicketID;\n\n    function _askForMuParameter(address _ticketOwner) oraclizeGasPriceCustomized{\n        newOraclizeQuery(\"Asking for a new mu parameter...\");\n        bytes32 muID = oraclize_query(\"WolframAlpha\",\"4 random number\",oraclizeGasLimit);\n        muParameterID[muID] = _ticketOwner;\n    }\n\n    function _askForIParameter(address _ticketOwner) oraclizeGasPriceCustomized{\n        newOraclizeQuery(\"Asking for a new i parameter...\");\n        bytes32 iID = oraclize_query(\"WolframAlpha\",\"4 random number\",oraclizeGasLimit);\n        iParameterID[iID] = _ticketOwner;\n    }\n    \n    function _askForTicket(address _ticketOwner) oraclizeGasPriceCustomized{\n        newOraclizeQuery(\"Asking for a new ticket...\");\n        bytes32 userTicketID = oraclize_query(\"WolframAlpha\", _setTicketQuery(_ticketOwner), oraclizeGasLimit);\n        ticketID[userTicketID] = _ticketOwner;\n    }\n    \n    function _generateTicket(address _ticketOwner) {\n        _askForMuParameter(_ticketOwner);\n        _askForIParameter(_ticketOwner);\n    }\n    \n    function _insertTicket(address _ticketOwner) internal {\n        uint id = tickets.push(Ticket(userValues[_ticketOwner].mu,userValues[_ticketOwner].i,userValues[_ticketOwner].ticketValue,_ticketOwner,drawNumber)) - 1;\n        _checkForLucky7Ticket(id);\n    }\n    \n    function _insertLucky7Number(address _ticketOwner) internal {\n        lucky7Numbers[indexForLucky7Array] = Lucky7Number(userValues[_ticketOwner].mu,userValues[_ticketOwner].i,userValues[_ticketOwner].ticketValue,drawNumber);\n        indexForLucky7Array++;\n    }\n    //SafeMath\n    function _checkForLucky7Ticket(uint _ticketID) public/*internal*/{\n        uint i;\n        uint difference;\n        \n        if(tickets[_ticketID].ticketValue>lucky7Numbers[numberOfLucky7Numbers-1].ticketValue){\n            i=numberOfLucky7Numbers-1;\n            difference = tickets[_ticketID].ticketValue.sub(lucky7Numbers[i].ticketValue);\n            \n        }\n        else if (tickets[_ticketID].ticketValue<lucky7Numbers[0].ticketValue){\n            i=0;\n            difference = lucky7Numbers[i].ticketValue.sub(tickets[_ticketID].ticketValue);\n        }\n        else{\n            while(tickets[_ticketID].ticketValue>lucky7Numbers[i].ticketValue){\n                i++;\n            }\n            \n            uint lowerLucky7NumberDifference = tickets[_ticketID].ticketValue.sub(lucky7Numbers[i-1].ticketValue);\n            uint upperLucky7NumberDifference = lucky7Numbers[i].ticketValue.sub(tickets[_ticketID].ticketValue);\n            \n            if(upperLucky7NumberDifference>lowerLucky7NumberDifference){\n                i=i-1;\n                difference = lowerLucky7NumberDifference;\n            }\n            else{\n                difference = upperLucky7NumberDifference;\n            }\n        }\n        \n        if(lucky7TicketOwner[i] == address(0x0) || difference<lucky7TicketDifference[i]){\n            lucky7TicketOwner[i] = tickets[_ticketID].owner;\n            lucky7TicketDifference[i] = difference;\n            lucky7TicketID[i] = _ticketID;\n        }\n    }\n    \n    function _setTicketQuery(address _parametersOwner) internal returns (string){\n        string memory queryWolframA;\n        string memory queryWolframB;\n        //This line => mod((1/(10^n-mu))*10^217,10^(    \n        queryWolframA = strConcat(\"mod((1/(10^\",n,\"-\",userValues[_parametersOwner].mu,\"))*10^10000,10^(\");\n        //This line => mod((1/(10^n-mu))*10^10000,10^(j+i))\n        queryWolframB = strConcat(queryWolframA,j,\"+\",userValues[_parametersOwner].i,\"))\");\n        //This line => mod((1/(10^n-mu))*10^10000,10^(j+i))-mod((1/(10^n-mu))*10^10000,10^(i))\n        queryWolframB = strConcat(queryWolframB,\"-\",queryWolframA,userValues[_parametersOwner].i,\"))\");\n        //This line => (mod((1/(10^n-mu))*10^10000,10^(j+i))-mod((1/(10^n-mu))*10^10000,10^(i)))/10^i\n        return strConcat(\"(\",queryWolframB,\")/10^\",userValues[_parametersOwner].i);\n    }\n    \n    function __callback(bytes32 myid, string result) public{\n        require(msg.sender == oraclize_cbAddress());\n        if(muParameterID[myid]!=0 && userValues[muParameterID[myid]].muReady==false){\n            userValues[muParameterID[myid]].mu=result;\n            newMuReceived(muParameterID[myid], result);\n            userValues[muParameterID[myid]].muReady=true;\n            if(userValues[muParameterID[myid]].iReady == true && (userValues[muParameterID[myid]].userPaidTicket==true || settingLucky7Numbers==true )){\n                _askForTicket(muParameterID[myid]);\n            }\n        }\n        else if (iParameterID[myid]!=0 && userValues[iParameterID[myid]].iReady==false){\n            userValues[iParameterID[myid]].i=result;\n            newIReceived(iParameterID[myid], result);\n            userValues[iParameterID[myid]].iReady=true;\n            if(userValues[iParameterID[myid]].muReady == true && (userValues[iParameterID[myid]].userPaidTicket==true || settingLucky7Numbers==true )){\n                _askForTicket(iParameterID[myid]);\n            }\n        }\n        else if (ticketID[myid]!=0 &&  (userValues[ticketID[myid]].userPaidTicket==true || settingLucky7Numbers==true )){\n            userValues[ticketID[myid]].ticketValue=parseInt(result);\n            newTicketReceived(ticketID[myid], result);\n            userValues[ticketID[myid]].userPaidTicket=false;\n            if(settingLucky7Numbers==true){\n                _insertLucky7Number(ticketID[myid]);\n            }\n            else{\n                _insertTicket(ticketID[myid]);\n            }\n        }\n    }\n}   \n                                           \n",
  "sourcePath": "/Users/matiasbarrios/Desktop/Proyecto Consensys/luckyseven/contracts/Lucky7TicketFactory.sol",
  "compiler": {
    "name": "solc",
    "version": "0.4.24+commit.e67f0147.Emscripten.clang"
  },
  "schemaVersion": "2.0.1",
  "updatedAt": "2018-08-15T23:52:00.399Z"
}