{
  "contractName": "Lucky7TicketFactory",
  "abi": [
    {
      "constant": true,
      "inputs": [],
      "name": "settingLucky7Numbers",
      "outputs": [
        {
          "name": "",
          "type": "bool"
        }
      ],
      "payable": false,
      "stateMutability": "view",
      "type": "function"
    },
    {
      "constant": true,
      "inputs": [],
      "name": "lucky7AdminAddress",
      "outputs": [
        {
          "name": "",
          "type": "address"
        }
      ],
      "payable": false,
      "stateMutability": "view",
      "type": "function"
    },
    {
      "constant": true,
      "inputs": [
        {
          "name": "",
          "type": "address"
        }
      ],
      "name": "userValues",
      "outputs": [
        {
          "name": "mu",
          "type": "string"
        },
        {
          "name": "i",
          "type": "string"
        },
        {
          "name": "ticketValue",
          "type": "uint256"
        },
        {
          "name": "muReady",
          "type": "bool"
        },
        {
          "name": "iReady",
          "type": "bool"
        },
        {
          "name": "userPaidTicket",
          "type": "bool"
        }
      ],
      "payable": false,
      "stateMutability": "view",
      "type": "function"
    },
    {
      "constant": false,
      "inputs": [],
      "name": "renounceOwnership",
      "outputs": [],
      "payable": false,
      "stateMutability": "nonpayable",
      "type": "function"
    },
    {
      "constant": true,
      "inputs": [],
      "name": "owner",
      "outputs": [
        {
          "name": "",
          "type": "address"
        }
      ],
      "payable": false,
      "stateMutability": "view",
      "type": "function"
    },
    {
      "constant": false,
      "inputs": [
        {
          "name": "_newOwner",
          "type": "address"
        }
      ],
      "name": "transferOwnership",
      "outputs": [],
      "payable": false,
      "stateMutability": "nonpayable",
      "type": "function"
    },
    {
      "constant": true,
      "inputs": [],
      "name": "lucky7StorageAddress",
      "outputs": [
        {
          "name": "",
          "type": "address"
        }
      ],
      "payable": false,
      "stateMutability": "view",
      "type": "function"
    },
    {
      "inputs": [
        {
          "name": "_lucky7AdminAddress",
          "type": "address"
        },
        {
          "name": "_lucky7StorageAddress",
          "type": "address"
        }
      ],
      "payable": true,
      "stateMutability": "payable",
      "type": "constructor"
    },
    {
      "payable": true,
      "stateMutability": "payable",
      "type": "fallback"
    },
    {
      "anonymous": false,
      "inputs": [
        {
          "indexed": false,
          "name": "description",
          "type": "string"
        }
      ],
      "name": "NewOraclizeQuery",
      "type": "event"
    },
    {
      "anonymous": false,
      "inputs": [
        {
          "indexed": false,
          "name": "muParameter",
          "type": "string"
        }
      ],
      "name": "NewMuReceived",
      "type": "event"
    },
    {
      "anonymous": false,
      "inputs": [
        {
          "indexed": false,
          "name": "iParameter",
          "type": "string"
        }
      ],
      "name": "NewIReceived",
      "type": "event"
    },
    {
      "anonymous": false,
      "inputs": [
        {
          "indexed": false,
          "name": "newTicket",
          "type": "string"
        }
      ],
      "name": "NewTicketReceived",
      "type": "event"
    },
    {
      "anonymous": false,
      "inputs": [
        {
          "indexed": false,
          "name": "description",
          "type": "string"
        }
      ],
      "name": "NewWolframQuery",
      "type": "event"
    },
    {
      "anonymous": false,
      "inputs": [
        {
          "indexed": true,
          "name": "previousOwner",
          "type": "address"
        }
      ],
      "name": "OwnershipRenounced",
      "type": "event"
    },
    {
      "anonymous": false,
      "inputs": [
        {
          "indexed": true,
          "name": "previousOwner",
          "type": "address"
        },
        {
          "indexed": true,
          "name": "newOwner",
          "type": "address"
        }
      ],
      "name": "OwnershipTransferred",
      "type": "event"
    },
    {
      "constant": false,
      "inputs": [
        {
          "name": "_newOAR",
          "type": "address"
        }
      ],
      "name": "changeOAR",
      "outputs": [],
      "payable": false,
      "stateMutability": "nonpayable",
      "type": "function"
    },
    {
      "constant": false,
      "inputs": [],
      "name": "toggleLucky7Setting",
      "outputs": [],
      "payable": false,
      "stateMutability": "nonpayable",
      "type": "function"
    },
    {
      "constant": false,
      "inputs": [
        {
          "name": "_ticketOwner",
          "type": "address"
        }
      ],
      "name": "_askForMuParameter",
      "outputs": [],
      "payable": false,
      "stateMutability": "nonpayable",
      "type": "function"
    },
    {
      "constant": false,
      "inputs": [
        {
          "name": "_ticketOwner",
          "type": "address"
        }
      ],
      "name": "_askForIParameter",
      "outputs": [],
      "payable": false,
      "stateMutability": "nonpayable",
      "type": "function"
    },
    {
      "constant": false,
      "inputs": [
        {
          "name": "_ticketOwner",
          "type": "address"
        }
      ],
      "name": "_askForTicket",
      "outputs": [],
      "payable": false,
      "stateMutability": "nonpayable",
      "type": "function"
    },
    {
      "constant": false,
      "inputs": [
        {
          "name": "_ticketOwner",
          "type": "address"
        }
      ],
      "name": "_generateTicket",
      "outputs": [],
      "payable": false,
      "stateMutability": "nonpayable",
      "type": "function"
    },
    {
      "constant": false,
      "inputs": [],
      "name": "_generateLucky7Number",
      "outputs": [],
      "payable": false,
      "stateMutability": "nonpayable",
      "type": "function"
    },
    {
      "constant": false,
      "inputs": [
        {
          "name": "myid",
          "type": "bytes32"
        },
        {
          "name": "result",
          "type": "string"
        }
      ],
      "name": "__callback",
      "outputs": [],
      "payable": false,
      "stateMutability": "nonpayable",
      "type": "function"
    },
    {
      "constant": false,
      "inputs": [
        {
          "name": "myid",
          "type": "bytes32"
        },
        {
          "name": "result",
          "type": "string"
        },
        {
          "name": "proof",
          "type": "bytes"
        }
      ],
      "name": "__callback",
      "outputs": [],
      "payable": false,
      "stateMutability": "nonpayable",
      "type": "function"
    },
    {
      "constant": false,
      "inputs": [],
      "name": "testCall",
      "outputs": [],
      "payable": false,
      "stateMutability": "nonpayable",
      "type": "function"
    }
  ],
  "bytecode": "0x6080604081815260065460088054600160a060020a0319908116600160a060020a03938416179091556007546009805460a060020a60ff02199316919093161716740100000000000000000000000000000000000000001790558061338183398101604052805160209091015160058054600160a060020a03199081163317909155600080548216736f485c8bf6fc43ea212e93bbf8ce046c7f1cb47517905560068054600160a060020a03948516908316179055600780549390921692169190911790556132ae806100d36000396000f3006080604052600436106100d75763ffffffff60e060020a60003504166323d370ba81146100d957806327dc297e146100fa5780632caf9eee146101585780632db3e7da1461018157806338bbfa50146101b257806339df3f4f1461024e5780634acfd9b8146102635780635807095114610382578063715018a6146103a357806377d8a830146103b85780638da5cb5b146103d957806390c31c4c146103ee578063b7f0583614610403578063ddc110fa14610418578063f2fde38b14610439578063fb0dcaff1461045a578063fd9be1b21461046f575b005b3480156100e557600080fd5b506100d7600160a060020a0360043516610490565b34801561010657600080fd5b5060408051602060046024803582810135601f81018590048502860185019096528585526100d79583359536956044949193909101919081908401838280828437509497506106f09650505050505050565b34801561016457600080fd5b5061016d610ed8565b604080519115158252519081900360200190f35b34801561018d57600080fd5b50610196610ee8565b60408051600160a060020a039092168252519081900360200190f35b3480156101be57600080fd5b5060408051602060046024803582810135601f81018590048502860185019096528585526100d795833595369560449491939091019190819084018382808284375050604080516020601f89358b018035918201839004830284018301909452808352979a999881019791965091820194509250829150840183828082843750949750610ef79650505050505050565b34801561025a57600080fd5b506100d7610efc565b34801561026f57600080fd5b50610284600160a060020a0360043516610f45565b604080519081018590528315156060820152821515608082015281151560a082015260c08082528751908201528651819060208083019160e08401918b019080838360005b838110156102e15781810151838201526020016102c9565b50505050905090810190601f16801561030e5780820380516001836020036101000a031916815260200191505b5083810382528851815288516020918201918a019080838360005b83811015610341578181015183820152602001610329565b50505050905090810190601f16801561036e5780820380516001836020036101000a031916815260200191505b509850505050505050505060405180910390f35b34801561038e57600080fd5b506100d7600160a060020a03600435166110a5565b3480156103af57600080fd5b506100d76110c7565b3480156103c457600080fd5b506100d7600160a060020a0360043516611128565b3480156103e557600080fd5b5061019661113d565b3480156103fa57600080fd5b506100d761114c565b34801561040f57600080fd5b506100d7611409565b34801561042457600080fd5b506100d7600160a060020a03600435166114f8565b34801561044557600080fd5b506100d7600160a060020a036004351661172d565b34801561046657600080fd5b5061019661174d565b34801561047b57600080fd5b506100d7600160a060020a036004351661175c565b600654604080517fc50f7fbd000000000000000000000000000000000000000000000000000000008152600160a060020a039092166004830152516000918291829173__Lucky7Library_________________________9163c50f7fbd91602480820192602092909190829003018186803b15801561050e57600080fd5b505af4158015610522573d6000803e3d6000fd5b505050506040513d602081101561053857600080fd5b50519050610545816119be565b600654604080517f23913b85000000000000000000000000000000000000000000000000000000008152600160a060020a0390921660048301525173__Lucky7Library_________________________916323913b85916024808301926020929190829003018186803b1580156105bb57600080fd5b505af41580156105cf573d6000803e3d6000fd5b505050506040513d60208110156105e557600080fd5b5051604080516020808252818101527f41736b696e6720666f722061206e6577206d7520706172616d657465722e2e2e8183015290519194507f096835e36c2ccea88ff2b3aca87dfc938b977e52ea656873ff76a8dba50d4d34919081900360600190a16106be6040805190810160405280600c81526020017f576f6c6672616d416c70686100000000000000000000000000000000000000008152506040805190810160405280600f81526020017f342072616e646f6d206e756d626572000000000000000000000000000000000081525085611bab565b6000908152600b602052604090208054600160a060020a031916600160a060020a039590951694909417909355505050565b6106f8611fac565b600160a060020a0316331461070c57600080fd5b6000828152600b6020526040902054600160a060020a03161580159061075a57506000828152600b6020908152604080832054600160a060020a03168352600a90915290206003015460ff16155b156108fe576000828152600b6020908152604080832054600160a060020a03168352600a82529091208251610791928401906131ea565b507f6a28dd23c76ba6cc6f4f148a0e2e0e147d8b876cb74ec1e5e2b8e9a8119eb702816040518080602001828103825283818151815260200191508051906020019080838360005b838110156107f15781810151838201526020016107d9565b50505050905090810190601f16801561081e5780820380516001836020036101000a031916815260200191505b509250505060405180910390a16000828152600b602090815260408083208054600160a060020a039081168552600a9093528184206003908101805460ff191660019081179091559154909316845292200154610100900460ff1615151480156108d357506000828152600b6020908152604080832054600160a060020a03168352600a90915290206003015460ff62010000909104161515600114806108d3575060095460a060020a900460ff1615156001145b156108f9576000828152600b60205260409020546108f990600160a060020a03166114f8565b610ed4565b6000828152600c6020526040902054600160a060020a03161580159061095157506000828152600c6020908152604080832054600160a060020a03168352600a909152902060030154610100900460ff16155b15610af3576000828152600c6020908152604080832054600160a060020a03168352600a8252909120825161098e926001909201918401906131ea565b507f716a554dec57e3a217a923b974660c0c8ebee07b09b1ac7d4a3a8f328d10cc89816040518080602001828103825283818151815260200191508051906020019080838360005b838110156109ee5781810151838201526020016109d6565b50505050905090810190601f168015610a1b5780820380516001836020036101000a031916815260200191505b509250505060405180910390a16000828152600c602090815260408083208054600160a060020a039081168552600a9093528184206003908101805461ff00191661010017905590549092168352909120015460ff1615156001148015610acd57506000828152600c6020908152604080832054600160a060020a03168352600a90915290206003015460ff6201000090910416151560011480610acd575060095460a060020a900460ff1615156001145b156108f9576000828152600c60205260409020546108f990600160a060020a03166114f8565b6000828152600d6020526040902054600160a060020a031615801590610b6457506000828152600d6020908152604080832054600160a060020a03168352600a90915290206003015460ff6201000090910416151560011480610b64575060095460a060020a900460ff1615156001145b15610ed457610b728161219e565b6000838152600d6020908152604080832054600160a060020a03168352600a825280832060020193909355825181815284518183015284517f0efef3a277391dda0d5747fd15566e85fcd8a4fb588d9853173841e45cc5ae8a9486949293849391840192908601918190849084905b83811015610bf9578181015183820152602001610be1565b50505050905090810190601f168015610c265780820380516001836020036101000a031916815260200191505b509250505060405180910390a16000828152600d6020908152604080832054600160a060020a03168352600a9091529020600301805462ff00001916905560095460a060020a900460ff16151560011415610d1d576009546000838152600d6020908152604080832054600160a060020a039081168452600a9092528083206002015481517f9494cdc9000000000000000000000000000000000000000000000000000000008152600481019190915290519190931692639494cdc992602480830193919282900301818387803b158015610d0057600080fd5b505af1158015610d14573d6000803e3d6000fd5b50505050610ed4565b600754604080517f73746f726167655469636b657428737472696e672c737472696e672c75696e7481527f2c6164647265737329000000000000000000000000000000000000000000000060208083019190915282519182900360290182206000878152600d80845285822054600160a060020a03908116808452600a8652968320600280820154948c90529290955263ffffffff60e060020a948590049081169094028652845497169692959394600186810195939460049092019283928892811615610100026000190116048015610e385780601f10610e0d57610100808354040283529160200191610e38565b820191906000526020600020905b815481529060010190602001808311610e1b57829003601f168201915b505084805460018160011615610100020316600290048015610e9b5780601f10610e7057610100808354040283529160200191610e9b565b820191906000526020600020905b815481529060010190602001808311610e7e57829003601f168201915b505083815260200182600160a060020a0316600160a060020a031681526020019450505050506000604051808303816000875af1505050505b5050565b60095460a060020a900460ff1681565b600654600160a060020a031681565b505050565b600554600160a060020a03163314610f1357600080fd5b6009805474ff000000000000000000000000000000000000000019811660a060020a9182900460ff1615909102179055565b600a6020908152600091825260409182902080548351601f60026000196101006001861615020190931692909204918201849004840281018401909452808452909291839190830182828015610fdc5780601f10610fb157610100808354040283529160200191610fdc565b820191906000526020600020905b815481529060010190602001808311610fbf57829003601f168201915b505050505090806001018054600181600116156101000203166002900480601f01602080910402602001604051908101604052809291908181526020018280546001816001161561010002031660029004801561107a5780601f1061104f5761010080835404028352916020019161107a565b820191906000526020600020905b81548152906001019060200180831161105d57829003601f168201915b50505050600283015460039093015491929160ff808216925061010082048116916201000090041686565b60008054600160a060020a031916600160a060020a0392909216919091179055565b600554600160a060020a031633146110de57600080fd5b600554604051600160a060020a03909116907ff8df31144d9c2f0f6b59d69b8b98abd5459d07f2742c4df920b25aae33c6482090600090a260058054600160a060020a0319169055565b61113181610490565b61113a8161175c565b50565b600554600160a060020a031681565b6005546000908190600160a060020a0316331461116857600080fd5b60095460a060020a900460ff16151560011461118357600080fd5b600754604080517fdbc6ac88000000000000000000000000000000000000000000000000000000008152600160a060020a0390921660048301525173__Lucky7Library_________________________9163dbc6ac88916024808301926020929190829003018186803b1580156111f957600080fd5b505af415801561120d573d6000803e3d6000fd5b505050506040513d602081101561122357600080fd5b5051600754604080517f3d579ff8000000000000000000000000000000000000000000000000000000008152600160a060020a0390921660048301525191935073__Lucky7Library_________________________91633d579ff891602480820192602092909190829003018186803b15801561129f57600080fd5b505af41580156112b3573d6000803e3d6000fd5b505050506040513d60208110156112c957600080fd5b50519050818114156113e557600760009054906101000a9004600160a060020a0316600160a060020a031660405180807f5f6f726465724c75636b79374e756d62657273282900000000000000000000008152506015019050604051809103902060e060020a90046040518163ffffffff1660e060020a0281526004016000604051808303816000875af19250505050600760009054906101000a9004600160a060020a0316600160a060020a031660405180807f736574496e646578466f724c75636b79374172726179546f5a65726f28290000815250601e019050604051809103902060e060020a90046040518163ffffffff1660e060020a0281526004016000604051808303816000875af192505050506108f9610efc565b306000818152600a60205260409020600301805461ffff19169055610ed490611128565b600754604080517f73746f726167654c75636b79374e756d62657228737472696e672c737472696e81527f672c75696e7429000000000000000000000000000000000000000000000000006020820152815190819003602701812063ffffffff60e060020a9182900490811690910282527f310000000000000000000000000000000000000000000000000000000000000060048301527f3200000000000000000000000000000000000000000000000000000000000000602483015263499602d260448301529151600160a060020a03909316926064808301926000929190829003018183875af150505050565b600654604080517fc50f7fbd000000000000000000000000000000000000000000000000000000008152600160a060020a039092166004830152516000918291829173__Lucky7Library_________________________9163c50f7fbd91602480820192602092909190829003018186803b15801561157657600080fd5b505af415801561158a573d6000803e3d6000fd5b505050506040513d60208110156115a057600080fd5b505190506115ad816119be565b600654604080517f23913b85000000000000000000000000000000000000000000000000000000008152600160a060020a0390921660048301525173__Lucky7Library_________________________916323913b85916024808301926020929190829003018186803b15801561162357600080fd5b505af4158015611637573d6000803e3d6000fd5b505050506040513d602081101561164d57600080fd5b5051604080516020808252601a908201527f41736b696e6720666f722061206e6577207469636b65742e2e2e0000000000008183015290519194507f096835e36c2ccea88ff2b3aca87dfc938b977e52ea656873ff76a8dba50d4d34919081900360600190a16116fb6040805190810160405280600c81526020017f576f6c6672616d416c70686100000000000000000000000000000000000000008152506116f5866121b1565b85611bab565b6000908152600d602052604090208054600160a060020a031916600160a060020a039590951694909417909355505050565b600554600160a060020a0316331461174457600080fd5b61113a81612a61565b600754600160a060020a031681565b600654604080517fc50f7fbd000000000000000000000000000000000000000000000000000000008152600160a060020a039092166004830152516000918291829173__Lucky7Library_________________________9163c50f7fbd91602480820192602092909190829003018186803b1580156117da57600080fd5b505af41580156117ee573d6000803e3d6000fd5b505050506040513d602081101561180457600080fd5b50519050611811816119be565b600654604080517f23913b85000000000000000000000000000000000000000000000000000000008152600160a060020a0390921660048301525173__Lucky7Library_________________________916323913b85916024808301926020929190829003018186803b15801561188757600080fd5b505af415801561189b573d6000803e3d6000fd5b505050506040513d60208110156118b157600080fd5b5051604080516020808252601f908201527f41736b696e6720666f722061206e6577206920706172616d657465722e2e2e008183015290519194507f096835e36c2ccea88ff2b3aca87dfc938b977e52ea656873ff76a8dba50d4d34919081900360600190a161198c6040805190810160405280600c81526020017f576f6c6672616d416c70686100000000000000000000000000000000000000008152506040805190810160405280600f81526020017f342072616e646f6d206e756d626572000000000000000000000000000000000081525085611bab565b6000908152600c602052604090208054600160a060020a031916600160a060020a039590951694909417909355505050565b600054600160a060020a031615806119e857506000546119e690600160a060020a0316612ad2565b155b156119f9576119f76000612ad6565b505b6000809054906101000a9004600160a060020a0316600160a060020a03166338cc48316040518163ffffffff1660e060020a028152600401602060405180830381600087803b158015611a4b57600080fd5b505af1158015611a5f573d6000803e3d6000fd5b505050506040513d6020811015611a7557600080fd5b5051600154600160a060020a03908116911614611b2a576000809054906101000a9004600160a060020a0316600160a060020a03166338cc48316040518163ffffffff1660e060020a028152600401602060405180830381600087803b158015611ade57600080fd5b505af1158015611af2573d6000803e3d6000fd5b505050506040513d6020811015611b0857600080fd5b505160018054600160a060020a031916600160a060020a039092169190911790555b600154604080517fca6ad1e4000000000000000000000000000000000000000000000000000000008152600481018490529051600160a060020a039092169163ca6ad1e49160248082019260009290919082900301818387803b158015611b9057600080fd5b505af1158015611ba4573d6000803e3d6000fd5b5050505050565b600080548190600160a060020a03161580611bd85750600054611bd690600160a060020a0316612ad2565b155b15611be957611be76000612ad6565b505b6000809054906101000a9004600160a060020a0316600160a060020a03166338cc48316040518163ffffffff1660e060020a028152600401602060405180830381600087803b158015611c3b57600080fd5b505af1158015611c4f573d6000803e3d6000fd5b505050506040513d6020811015611c6557600080fd5b5051600154600160a060020a03908116911614611d1a576000809054906101000a9004600160a060020a0316600160a060020a03166338cc48316040518163ffffffff1660e060020a028152600401602060405180830381600087803b158015611cce57600080fd5b505af1158015611ce2573d6000803e3d6000fd5b505050506040513d6020811015611cf857600080fd5b505160018054600160a060020a031916600160a060020a039092169190911790555b600154604080517f2ef3accc0000000000000000000000000000000000000000000000000000000081526024810186905260048101918252875160448201528751600160a060020a0390931692632ef3accc9289928892829160640190602086019080838360005b83811015611d9a578181015183820152602001611d82565b50505050905090810190601f168015611dc75780820380516001836020036101000a031916815260200191505b509350505050602060405180830381600087803b158015611de757600080fd5b505af1158015611dfb573d6000803e3d6000fd5b505050506040513d6020811015611e1157600080fd5b50519050670de0b6b3a76400003a840201811115611e325760009150611fa4565b6001546040517fc51be90f00000000000000000000000000000000000000000000000000000000815260006004820181815260648301879052608060248401908152895160848501528951600160a060020a039095169463c51be90f948794938c938c938c93604481019160a49091019060208801908083838c5b83811015611ec5578181015183820152602001611ead565b50505050905090810190601f168015611ef25780820380516001836020036101000a031916815260200191505b50838103825285518152855160209182019187019080838360005b83811015611f25578181015183820152602001611f0d565b50505050905090810190601f168015611f525780820380516001836020036101000a031916815260200191505b5096505050505050506020604051808303818588803b158015611f7457600080fd5b505af1158015611f88573d6000803e3d6000fd5b50505050506040513d6020811015611f9f57600080fd5b505191505b509392505050565b60008054600160a060020a03161580611fd75750600054611fd590600160a060020a0316612ad2565b155b15611fe857611fe66000612ad6565b505b6000809054906101000a9004600160a060020a0316600160a060020a03166338cc48316040518163ffffffff1660e060020a028152600401602060405180830381600087803b15801561203a57600080fd5b505af115801561204e573d6000803e3d6000fd5b505050506040513d602081101561206457600080fd5b5051600154600160a060020a03908116911614612119576000809054906101000a9004600160a060020a0316600160a060020a03166338cc48316040518163ffffffff1660e060020a028152600401602060405180830381600087803b1580156120cd57600080fd5b505af11580156120e1573d6000803e3d6000fd5b505050506040513d60208110156120f757600080fd5b505160018054600160a060020a031916600160a060020a039092169190911790555b600160009054906101000a9004600160a060020a0316600160a060020a031663c281d19e6040518163ffffffff1660e060020a028152600401602060405180830381600087803b15801561216c57600080fd5b505af1158015612180573d6000803e3d6000fd5b505050506040513d602081101561219657600080fd5b505190505b90565b60006121ab826000612ae0565b92915050565b600654604080517f59c96c11000000000000000000000000000000000000000000000000000000008152600160a060020a039092166004830152516060918291829182918291829173__Lucky7Library_________________________916359c96c11916024808301926000929190829003018186803b15801561223457600080fd5b505af4158015612248573d6000803e3d6000fd5b505050506040513d6000823e601f3d908101601f19168201604052608081101561227157600080fd5b81019080805164010000000081111561228957600080fd5b8201602081018481111561229c57600080fd5b81516401000000008111828201871017156122b657600080fd5b505092919060200180516401000000008111156122d257600080fd5b820160208101848111156122e557600080fd5b81516401000000008111828201871017156122ff57600080fd5b5050929190602001805164010000000081111561231b57600080fd5b8201602081018481111561232e57600080fd5b815164010000000081118282018710171561234857600080fd5b5050929190602001805164010000000081111561236457600080fd5b8201602081018481111561237757600080fd5b815164010000000081118282018710171561239157600080fd5b5050929190505050809550819650829750839850505050506125156040805190810160405280600c81526020017f286d6f642828312f2831305e0000000000000000000000000000000000000000815250856040805190810160405280600181526020017f2d00000000000000000000000000000000000000000000000000000000000000815250600a60008c600160a060020a0316600160a060020a031681526020019081526020016000206000018054600181600116156101000203166002900480601f0160208091040260200160405190810160405280929190818152602001828054600181600116156101000203166002900480156124d55780601f106124aa576101008083540402835291602001916124d5565b820191906000526020600020905b8154815290600101906020018083116124b857829003601f168201915b50505050506040805190810160405280600681526020017f29292a31305e0000000000000000000000000000000000000000000000000000815250612c52565b905061258e81846040805190810160405280600581526020017f2c31305e28000000000000000000000000000000000000000000000000000000815250856040805190810160405280600181526020017f2b00000000000000000000000000000000000000000000000000000000000000815250612c52565b90506126c781600a60008a600160a060020a0316600160a060020a031681526020019081526020016000206001018054600181600116156101000203166002900480601f0160208091040260200160405190810160405280929190818152602001828054600181600116156101000203166002900480156126505780601f1061262557610100808354040283529160200191612650565b820191906000526020600020905b81548152906001019060200180831161263357829003601f168201915b50505050506040805190810160405280600e81526020017f29292d6d6f642828312f2831305e000000000000000000000000000000000000815250876040805190810160405280600181526020017f2d00000000000000000000000000000000000000000000000000000000000000815250612c52565b600160a060020a0388166000908152600a602090815260409182902080548351601f600260001961010060018616150201909316929092049182018490048402810184019094528084529394506127e39385939283018282801561276c5780601f106127415761010080835404028352916020019161276c565b820191906000526020600020905b81548152906001019060200180831161274f57829003601f168201915b50505050506040805190810160405280600681526020017f29292a31305e0000000000000000000000000000000000000000000000000000815250866040805190810160405280600481526020017f2c31305e00000000000000000000000000000000000000000000000000000000815250612c52565b60408051808201825260018082527f2800000000000000000000000000000000000000000000000000000000000000602080840191909152600160a060020a038c166000908152600a8252849020820180548551600294821615610100026000190190911693909304601f81018390048302840183019095528483529495506129bc94869490918301828280156128bb5780601f10612890576101008083540402835291602001916128bb565b820191906000526020600020905b81548152906001019060200180831161289e57829003601f168201915b50505050506040805190810160405280600781526020017f2929292f31305e00000000000000000000000000000000000000000000000000815250600a60008d600160a060020a0316600160a060020a031681526020019081526020016000206001018054600181600116156101000203166002900480601f0160208091040260200160405190810160405280929190818152602001828054600181600116156101000203166002900480156129b25780601f10612987576101008083540402835291602001916129b2565b820191906000526020600020905b81548152906001019060200180831161299557829003601f168201915b5050505050612c52565b90507f261af219212047633bb60c8d0cc7e33d217c38edf6fa7e53acb97a3f94180de5816040518080602001828103825283818151815260200191508051906020019080838360005b83811015612a1d578181015183820152602001612a05565b50505050905090810190601f168015612a4a5780820380516001836020036101000a031916815260200191505b509250505060405180910390a19695505050505050565b600160a060020a0381161515612a7657600080fd5b600554604051600160a060020a038084169216907f8be0079c531659141344cd1fd0a4f28419497f9722a3daafe3b4186f6b6457e090600090a360058054600160a060020a031916600160a060020a0392909216919091179055565b3b90565b60006121ab612eb3565b6000828180805b8351811015612c355783517f300000000000000000000000000000000000000000000000000000000000000090859083908110612b2057fe5b90602001015160f860020a900460f860020a02600160f860020a03191610158015612b96575083517f390000000000000000000000000000000000000000000000000000000000000090859083908110612b7657fe5b90602001015160f860020a900460f860020a02600160f860020a03191611155b15612bef578115612bb557851515612bad57612c35565b600019909501945b600a8302925060308482815181101515612bcb57fe5b90602001015160f860020a900460f860020a0260f860020a90040383019250612c2d565b8381815181101515612bfd57fe5b90602001015160f860020a900460f860020a02600160f860020a031916602e60f860020a021415612c2d57600191505b600101612ae7565b6000861115612c475785600a0a830292505b509095945050505050565b6060806060806060806060806000808e98508d97508c96508b95508a94508451865188518a518c51010101016040519080825280601f01601f191660200182016040528015612cab578160200160208202803883390190505b50935083925060009150600090505b8851811015612d18578881815181101515612cd157fe5b90602001015160f860020a900460f860020a028383806001019450815181101515612cf857fe5b906020010190600160f860020a031916908160001a905350600101612cba565b5060005b8751811015612d7a578781815181101515612d3357fe5b90602001015160f860020a900460f860020a028383806001019450815181101515612d5a57fe5b906020010190600160f860020a031916908160001a905350600101612d1c565b5060005b8651811015612ddc578681815181101515612d9557fe5b90602001015160f860020a900460f860020a028383806001019450815181101515612dbc57fe5b906020010190600160f860020a031916908160001a905350600101612d7e565b5060005b8551811015612e3e578581815181101515612df757fe5b90602001015160f860020a900460f860020a028383806001019450815181101515612e1e57fe5b906020010190600160f860020a031916908160001a905350600101612de0565b5060005b8451811015612ea0578481815181101515612e5957fe5b90602001015160f860020a900460f860020a028383806001019450815181101515612e8057fe5b906020010190600160f860020a031916908160001a905350600101612e42565b50909d9c50505050505050505050505050565b600080612ed3731d3b2638a7cc9f2cb3d298a3da7a90b67e5506ed612ad2565b1115612f445760008054600160a060020a031916731d3b2638a7cc9f2cb3d298a3da7a90b67e5506ed17905560408051808201909152600b81527f6574685f6d61696e6e65740000000000000000000000000000000000000000006020820152612f3c906131db565b50600161219b565b6000612f6373c03a2615d5efaf5f49f60b7bb6583eaec212fdf1612ad2565b1115612fcc5760008054600160a060020a03191673c03a2615d5efaf5f49f60b7bb6583eaec212fdf117905560408051808201909152600c81527f6574685f726f707374656e3300000000000000000000000000000000000000006020820152612f3c906131db565b6000612feb73b7a07bcf2ba2f2703b24c0691b5278999c59ac7e612ad2565b11156130545760008054600160a060020a03191673b7a07bcf2ba2f2703b24c0691b5278999c59ac7e17905560408051808201909152600981527f6574685f6b6f76616e00000000000000000000000000000000000000000000006020820152612f3c906131db565b600061307373146500cfd35b22e4a392fe0adc06de1a1368ed48612ad2565b11156130dc5760008054600160a060020a03191673146500cfd35b22e4a392fe0adc06de1a1368ed4817905560408051808201909152600b81527f6574685f72696e6b6562790000000000000000000000000000000000000000006020820152612f3c906131db565b60006130fb736f485c8bf6fc43ea212e93bbf8ce046c7f1cb475612ad2565b111561312f575060008054600160a060020a031916736f485c8bf6fc43ea212e93bbf8ce046c7f1cb475179055600161219b565b600061314e7320e12a1f859b3feae5fb2a0a32c18f5a65555bbf612ad2565b1115613182575060008054600160a060020a0319167320e12a1f859b3feae5fb2a0a32c18f5a65555bbf179055600161219b565b60006131a17351efaf4c8b3c9afbd5ab9f4bbc82784ab6ef8faa612ad2565b11156131d5575060008054600160a060020a0319167351efaf4c8b3c9afbd5ab9f4bbc82784ab6ef8faa179055600161219b565b50600090565b8051610ed49060029060208401905b828054600181600116156101000203166002900490600052602060002090601f016020900481019282601f1061322b57805160ff1916838001178555613258565b82800160010185558215613258579182015b8281111561325857825182559160200191906001019061323d565b50613264929150613268565b5090565b61219b91905b80821115613264576000815560010161326e5600a165627a7a72305820207b11817a1a1c4ffbd861bf2a2a3ef4d9d0590594c31f98447eb1430a8c23b90029",
  "source": "/**\n  * @author Matias Barrios\n  * @version 1.0\n  */\n\n/** @title Lucky7TicketFactor. \n  * This contract contains all the functions to generate tickets and Lucky7Numbers.\n  * Inherits from Lucky7Admin and usingOraclize to do the oraclize querys. \n*/\n\npragma solidity ^0.4.20;\nimport \"./usingOraclize.sol\";\nimport \"./Lucky7Admin.sol\";\nimport \"./Lucky7Storage.sol\";\nimport \"./Lucky7Library.sol\";\nimport \"openzeppelin-solidity/contracts/math/SafeMath.sol\";\nimport \"openzeppelin-solidity/contracts/ownership/Ownable.sol\";\n\n\ncontract Lucky7TicketFactory is usingOraclize,Ownable{\n    /** @dev SafeMath library is used for the _checkForLucky7Ticket of this contract. \n        @dev Lucky7Library is a library used to get values from other contracts.\n      */\n    using Lucky7Library for *;\n    using SafeMath for uint256;\n    \n    /** @dev Address of the Lucky7Storage contract\n      */\n    address public lucky7AdminAddress;\n    address public lucky7StorageAddress;\n    /** @dev The constructor needs to set the OAR, Oraclize Address Resolver\n      * OAR is the Oraclize Address Resolver to use oraclize on localhost\n      */\n    function Lucky7TicketFactory(address _lucky7AdminAddress,address _lucky7StorageAddress) payable{\n        OAR = OraclizeAddrResolverI(0x6f485C8BF6fc43eA212E93BBF8ce046C7f1cb475);\n        lucky7AdminAddress = _lucky7AdminAddress;\n        lucky7StorageAddress = _lucky7StorageAddress;\n    }\n\n    /** @dev Invoke both Lucky7Admin and Lucky7Storage contracts. \n      */\n    Lucky7Admin lucky7AdminContract = Lucky7Admin(lucky7AdminAddress);\n    Lucky7Storage lucky7StorageContract = Lucky7Storage(lucky7StorageAddress);\n    /** @dev This function is to change the OAR without compiling again and deploying again\n      * Used only for testing purposes.\n      */\n    function changeOAR(address _newOAR){\n        OAR = OraclizeAddrResolverI(_newOAR);\n    }\n    \n    /**@dev The events are used mainly for testing purposes\n      */\n    event NewOraclizeQuery(string description);\n    event NewMuReceived(string muParameter);\n    event NewIReceived(string iParameter);\n    event NewTicketReceived(string newTicket);\n    event NewWolframQuery(string description);\n    \n    /** @dev This modifier is used to set the gas price on the functions which do oraclize querys.\n      *  It uses the oraclizeCustomGasPrice of the Lucky7Admin contract.\n      */\n    modifier oraclizeGasPriceCustomized{\n        uint oraclizeCustomGasPrice = Lucky7Library.oraclizeCustomGasPrice(lucky7AdminAddress);\n        oraclize_setCustomGasPrice(oraclizeCustomGasPrice);\n        _;\n    }\n\n    /** @dev This modifier is meant to block the Lucky7Number generation when the game is on course\n      * Is used to block the action of the _generateLucky7Number function of this contract if the circuit breaker\n      * is not \n      */\n    modifier gameNotInCourse(){\n        require(settingLucky7Numbers==true);\n        _;\n    }\n\n    /** @param settingLucky7Numbers is a circuit breaker to stop users of buying tickets while the game is getting setted\n      *i.e. when a new game is started, previous winners are erased, the Lucky7Numbers are getting setted and prizes are delivered.\n      */\n    bool public settingLucky7Numbers = true;\n    \n    /** @dev Function to toggle the settingLucky7Numbers to stop users to buy tickets. \n      */\n    function toggleLucky7Setting() public onlyOwner{\n        settingLucky7Numbers = !settingLucky7Numbers;\n    }\n\n    /** @dev UserParametersValue is a struct where the values of the user ticket is stored temporarily.\n      * While the user is just generating (not buying) tickets, the values of this struct for each user are going to change.\n      * Once the user buys a ticket, all the parameters of this struct are used to generate a ticket and store it in the tickets array.\n      * where they will be stored permanently.\n      * @param mu is a parameter of the pseudo-random number generator (PRNG).\n      * @param i is a parameter of the pseudo-random number generator (PRNG).\n      * @param ticketValue is the value of the last buyed ticket of the user.\n      * @param muReady is a boolean value used for the oraclize's callback function to verify if the mu parameter for the current ticket was already setted.\n      * @param iReady is a boolean value used for the oraclize's callback function to verify if the i parameter for the current ticket was already setted.\n      * @param userPaidTicket is a boolean value to verify if the user which is calling for the oraclize query actually paid for the ticket or is just generating\n      * parameters to choose a ticket.\n    */\n    struct UserParametersValue{\n        string mu;\n        string i;\n        uint ticketValue;\n        bool muReady;\n        bool iReady;\n        bool userPaidTicket;\n    }\n    \n    /** @dev Because addresses are not correlatives, is better to use a mapping. \n      * @param userValues maps from the user address to it UserParametersValue struct.\n      */\n    mapping (address => UserParametersValue) public userValues;\n\n\n    /** @dev The next three mapping are used for the functions which do oraclize querys to being identified in the oraclize's callback function\n      * as mu parameter, i parameter or a ticket.\n      * @param muParameterID maps from a bytes32 generated everytime the oraclize_query function is called and points to the address of the user which did the call.\n      * @param iParameterID maps from a bytes32 generated everytime the oraclize_query function is called and points to the address of the user which did the call.\n      * @param newTicketID maps from a bytes32 generated everytime the oraclize_query function is called and points to the address of the user which did the call.\n      */\n    mapping (bytes32 => address) muParameterID;\n    mapping (bytes32 => address) iParameterID;\n    mapping (bytes32 => address) newTicketID;\n\n    \n    /** @dev _askForMuParameter is a function to ask for a new mu parameter through an oraclize query.\n      * @param _ticketOwner is the address of the user which is calling this function through a generation of new parameters or by buying a new random ticket.\n      * First, it emit an event to register the query. Then it do the query and save the bytes32 value generated to the muID.\n      * Finally it associate this muID with the _ticketOwner through the muParameterID mapping, so the oraclize's callback function know it is a mu petition and it belongs to the _ticketOwner user.\n      */\n    function _askForMuParameter(address _ticketOwner) public oraclizeGasPriceCustomized{\n        uint oraclizeGasLimit = Lucky7Library.oraclizeGasLimit(lucky7AdminAddress);\n        emit NewOraclizeQuery(\"Asking for a new mu parameter...\");\n        bytes32 muID = oraclize_query(\"WolframAlpha\",\"4 random number\",oraclizeGasLimit);\n        muParameterID[muID] = _ticketOwner;\n    }\n\n    /** @dev _askForIParameter is a function to ask for a new I parameter through an oraclize query.\n      * @param _ticketOwner is the address of the user which is calling this function through a generation of new parameters or by buying a new random ticket.\n      * First, it emit an event to register the query. Then it do the query and save the bytes32 value generated to the iID.\n      * Finally it associate this iID with the _ticketOwner through the iParameterID mapping, so the oraclize's callback function know it is a i petition and it belongs to the _ticketOwner user.\n      */\n    function _askForIParameter(address _ticketOwner) public oraclizeGasPriceCustomized{\n        uint oraclizeGasLimit = Lucky7Library.oraclizeGasLimit(lucky7AdminAddress);\n        emit NewOraclizeQuery(\"Asking for a new i parameter...\");\n        bytes32 iID = oraclize_query(\"WolframAlpha\",\"4 random number\",oraclizeGasLimit);\n        iParameterID[iID] = _ticketOwner;\n    }\n    \n    /** @dev _askForTicket is a function to ask for a new ticket through an oraclize query.\n      * @param _ticketOwner is the address of the user which is calling this function through by buying a new random ticket or buying the ticket generated by it parameters.\n      * First, it emit an event to register the query. Then it do the query and save the bytes32 value generated to the userTicketID.\n      * Finally it associate this userTicketID with the _ticketOwner through the newTicketID mapping, so the oraclize's callback function know it \n      * is a ticket petition and it belongs to the _ticketOwner user. Inside the oraclize_query function it calls the _setTicketQuery function, so it generate the query \n      * depending on the UserParametersValue struct of the _ticketOwner user.\n      */\n    function _askForTicket(address _ticketOwner) public oraclizeGasPriceCustomized{\n        uint oraclizeGasLimit = Lucky7Library.oraclizeGasLimit(lucky7AdminAddress);\n        emit NewOraclizeQuery(\"Asking for a new ticket...\");\n        bytes32 userTicketID = oraclize_query(\"WolframAlpha\", _setTicketQuery(_ticketOwner), oraclizeGasLimit);\n        newTicketID[userTicketID] = _ticketOwner;\n    }\n\n    /** @dev _setTicketQuery is a function which sets the query to ask for a ticket to WolframAlpha through oraclize.\n      * @param _parametersOwner is the address of the user which is going to receive the ticket, e.g. a user asking for a ticket or the admin of the contract when calling for a\n      * Lucky7Number. The final shape of the query is (mod((1/(10^n-mu))*10^p,10^(j+i))-mod((1/(10^n-mu))*10^p,10^(i)))/10^i, and this function uses the strConcat function of\n      * the usingOraclize contract to concat the parts with the parameters of the user.\n      * Every line explains how the query is getting it shape. The meaning of this query is going to be explained on the paper of the project.\n      */\n    function _setTicketQuery(address _parametersOwner) internal returns (string){\n        string memory b;\n        string memory n;\n        string memory p;\n        string memory j;\n        (b,n,p,j) = Lucky7Library.getParameters(lucky7AdminAddress);\n        string memory queryWolfram;\n        //This line => (mod((1/(10^n-mu))*10^    \n        queryWolfram = strConcat(\"(mod((1/(10^\",n,\"-\",userValues[_parametersOwner].mu,\"))*10^\");\n        //This line => (mod((1/(10^n-mu))*10^p,10^(j+\n        queryWolfram = strConcat(queryWolfram,p,\",10^(\",j,\"+\");\n        //This line => (mod((1/(10^n-mu))*10^p,10^(j+i))-mod((1/(10^n-\n        queryWolfram = strConcat(queryWolfram,userValues[_parametersOwner].i,\"))-mod((1/(10^\",n,\"-\");\n        //This line => (mod((1/(10^n-mu))*10^p,10^(j+i))-mod((1/(10^n-mu))*10^p,10^\n        queryWolfram = strConcat(queryWolfram,userValues[_parametersOwner].mu,\"))*10^\",p,\",10^\");\n        //This line => (mod((1/(10^n-mu))*10^p,10^(j+i))-mod((1/(10^n-mu))*10^p,10^(i)))/10^i\n        queryWolfram = strConcat(queryWolfram,\"(\",userValues[_parametersOwner].i,\")))/10^\",userValues[_parametersOwner].i);\n        emit NewWolframQuery(queryWolfram);\n        return queryWolfram;\n    }\n\n    /** @dev _generateTicket is used for another contract. Invokes _askForMuParameter and _askForIparameter\n      */\n    function _generateTicket(address _ticketOwner) public {\n        _askForMuParameter(_ticketOwner);\n        _askForIParameter(_ticketOwner);\n    }\n    \n    /** @dev _generateLucky7Number is the function that is actually used to generate the Lucky7Numbers. It have the business logic for generating the Lucky7Numbers, i.e. if \n      * the indexForLucky7Array is different than the numberOfLucky7Numbers, then sets the muReady and iReady booleans of the UserParametersValue struct of the \n      * Lucky7TicketFactory contract to true and calls for the _askForMuParameter and _askForIParameter function of the Lucky7TicketFactory contract. This way it can ask for both mu and i parameters\n      * to oraclize and when the oraclize respond with both, ask for a ticket which is going to be a Lucky7Number.\n      * If the indexForLucky7Array is equal to the numberOfLucky7Numbers, then proceed to order the Lucky7Numbers through the _orderLucky7Numbers function of this contract.\n      * Then it sets the indexForLucky7Array to 0 so the next time a new game is setted, this function starts storing the Lucky7Numbers from the position 0, to finally shut off\n      * the settingLucky7Numbers circuit breaker to allow users to start buying tickets.\n      */\n    function _generateLucky7Number() public onlyOwner gameNotInCourse{\n        uint indexForLucky7Array = Lucky7Library.indexForLucky7Array(lucky7StorageAddress);\n        uint numberOfLucky7Numbers = Lucky7Library.numberOfLucky7Numbers(lucky7StorageAddress);\n        if(indexForLucky7Array == numberOfLucky7Numbers){\n            lucky7StorageAddress.call(bytes4(sha3(\"_orderLucky7Numbers()\")));\n            lucky7StorageAddress.call(bytes4(sha3(\"setIndexForLucky7ArrayToZero()\")));\n            toggleLucky7Setting();\n        }\n        else{\n            userValues[this].muReady = false;\n            userValues[this].iReady = false;\n            _generateTicket(this);\n        }\n    }\n\n    /** @dev __callback is a function used for oraclize to send back the query emitted to oraclize.\n      * @param myid is the id of the query, same as the muID, iID or userTicketID of the _askForMuParameter, _askForIParameter and _askForTicket functions above.\n      * @param result is the result of the query.\n      * Once the query is resolved, oraclize sends back the answer, and the function check that the one calling the function is indeed a oraclize contract. \n      */\n    function __callback(bytes32 myid, string result) public{\n        require(msg.sender == oraclize_cbAddress());\n        /** @dev First, the function checks if there's an muParameterID value associated to myid,i.e. the response is a mu parameter of the  \n          * \"muParameterID[myid]\" user (remember that muParameterID[] maps from an bytes32, the id, to an user address).\n          * Then it will check if the muReady boolean of the user's UserParametersValue struct is setted to false (explained in later contracts).\n          * If so, stores the result as the mu parameter of the user's UserParametersValue struct, emits an event and set the muReady of the struct to true.\n          * Then checks if the iReady boolen is setted to true. If so, it means that the user already recieved both parameters and is ready to generate a new ticket.\n          * To do so, the function checks if the user already paid for the ticket through checking if the userPaidTicket boolean of the user's UserParametersValue struct\n          * is true, or if the settingLucky7Numbers circuit breaker is on, which means that currently the game is in the setting Lucky7Numbers phase.\n          * In any of those cases, the function calls the _askForTicketFunction for the \"muParameterID[myid]\" user.\n          */\n        if(muParameterID[myid]!=0 && userValues[muParameterID[myid]].muReady==false){\n            userValues[muParameterID[myid]].mu=result;\n            emit NewMuReceived(result);\n            userValues[muParameterID[myid]].muReady=true;\n            if(userValues[muParameterID[myid]].iReady == true && (userValues[muParameterID[myid]].userPaidTicket==true || settingLucky7Numbers==true )){\n                _askForTicket(muParameterID[myid]);\n            }\n        }\n\n        /** @dev If above don't fit, then checks if the result is the i parameter of the user and proceeds the same way, checking if already have the mu parameter setted,\n          * and if the user paid for the ticket or the game is in the setting Lucky7Number phase.\n          */\n        else if (iParameterID[myid]!=0 && userValues[iParameterID[myid]].iReady==false){\n            userValues[iParameterID[myid]].i=result;\n            emit NewIReceived(result);\n            userValues[iParameterID[myid]].iReady=true;\n            if(userValues[iParameterID[myid]].muReady == true && (userValues[iParameterID[myid]].userPaidTicket==true || settingLucky7Numbers==true )){\n                _askForTicket(iParameterID[myid]);\n            }\n        }\n\n        /** @dev If not, then proceed the same way as above, but once the ticket is inserted and the event is emitted, the userPaidTicket of the user's UserValuesStruct is \n          * setted to 0, marking that the ticket thet user paid is already stored and it have to pay again if it wants to buy another ticket.\n          * Finally, it checks if the game is currently in the setting Lucky7Numbers phase. If so, calls the storageLuckyNumber function, else it calls the \n          * storageTicket function. Both functions are on the Lucky7Storage contract.\n          */\n        else if (newTicketID[myid]!=0 &&  (userValues[newTicketID[myid]].userPaidTicket==true || settingLucky7Numbers==true )){\n            userValues[newTicketID[myid]].ticketValue=parseInt(result);\n            emit NewTicketReceived(result);\n            userValues[newTicketID[myid]].userPaidTicket=false;\n            if(settingLucky7Numbers==true){\n                lucky7StorageContract.storageLucky7Number(\n                    userValues[newTicketID[myid]].ticketValue\n                    );\n                // lucky7StorageAddress.call(\n                //     bytes4(\n                //         keccak256(\n                //             \"storageLucky7Number(string,string,uint)\")), \n                //             userValues[newTicketID[myid]].mu,\n                //             userValues[newTicketID[myid]].i,\n                //             userValues[newTicketID[myid]].ticketValue\n                //         );\n            }\n            else{\n                lucky7StorageAddress.call(\n                    bytes4(\n                        sha3(\n                            \"storageTicket(string,string,uint,address)\")), \n                            userValues[newTicketID[myid]].mu,\n                            userValues[newTicketID[myid]].i,\n                            userValues[newTicketID[myid]].ticketValue,\n                            newTicketID[myid]\n                        );\n            }\n        }\n    }\n    function testCall() public {\n        lucky7StorageAddress.call(\n                    bytes4(\n                        sha3(\n                            \"storageLucky7Number(string,string,uint)\")), \n                            \"1\",\n                            \"2\",\n                            1234567890\n                        );\n    }\n    function() public payable{}\n} ",
  "sourcePath": "/Users/matiasbarrios/Desktop/Proyecto Consensys/luckyseven/contracts/Lucky7TicketFactory.sol",
  "compiler": {
    "name": "solc",
    "version": "0.4.24+commit.e67f0147.Emscripten.clang"
  },
  "schemaVersion": "2.0.1",
  "updatedAt": "2018-09-25T12:27:11.534Z"
}