{
  "contractName": "Lucky7Admin",
  "abi": [
    {
      "constant": true,
      "inputs": [],
      "name": "n",
      "outputs": [
        {
          "name": "",
          "type": "string"
        }
      ],
      "payable": false,
      "stateMutability": "view",
      "type": "function"
    },
    {
      "constant": true,
      "inputs": [],
      "name": "b",
      "outputs": [
        {
          "name": "",
          "type": "string"
        }
      ],
      "payable": false,
      "stateMutability": "view",
      "type": "function"
    },
    {
      "constant": true,
      "inputs": [],
      "name": "oraclizeGasLimit",
      "outputs": [
        {
          "name": "",
          "type": "uint256"
        }
      ],
      "payable": false,
      "stateMutability": "view",
      "type": "function"
    },
    {
      "constant": true,
      "inputs": [],
      "name": "numberOfLucky7Numbers",
      "outputs": [
        {
          "name": "",
          "type": "uint256"
        }
      ],
      "payable": false,
      "stateMutability": "view",
      "type": "function"
    },
    {
      "constant": false,
      "inputs": [],
      "name": "renounceOwnership",
      "outputs": [],
      "payable": false,
      "stateMutability": "nonpayable",
      "type": "function"
    },
    {
      "constant": true,
      "inputs": [],
      "name": "enterpriseWallet",
      "outputs": [
        {
          "name": "",
          "type": "address"
        }
      ],
      "payable": false,
      "stateMutability": "view",
      "type": "function"
    },
    {
      "constant": true,
      "inputs": [],
      "name": "numberOfWinners",
      "outputs": [
        {
          "name": "",
          "type": "uint256"
        }
      ],
      "payable": false,
      "stateMutability": "view",
      "type": "function"
    },
    {
      "constant": true,
      "inputs": [],
      "name": "owner",
      "outputs": [
        {
          "name": "",
          "type": "address"
        }
      ],
      "payable": false,
      "stateMutability": "view",
      "type": "function"
    },
    {
      "constant": true,
      "inputs": [],
      "name": "oraclizeCustomGasPrice",
      "outputs": [
        {
          "name": "",
          "type": "uint256"
        }
      ],
      "payable": false,
      "stateMutability": "view",
      "type": "function"
    },
    {
      "constant": true,
      "inputs": [],
      "name": "p",
      "outputs": [
        {
          "name": "",
          "type": "string"
        }
      ],
      "payable": false,
      "stateMutability": "view",
      "type": "function"
    },
    {
      "constant": true,
      "inputs": [],
      "name": "j",
      "outputs": [
        {
          "name": "",
          "type": "string"
        }
      ],
      "payable": false,
      "stateMutability": "view",
      "type": "function"
    },
    {
      "constant": true,
      "inputs": [],
      "name": "generateTicketPrice",
      "outputs": [
        {
          "name": "",
          "type": "uint256"
        }
      ],
      "payable": false,
      "stateMutability": "view",
      "type": "function"
    },
    {
      "constant": true,
      "inputs": [],
      "name": "sellTicketPrice",
      "outputs": [
        {
          "name": "",
          "type": "uint256"
        }
      ],
      "payable": false,
      "stateMutability": "view",
      "type": "function"
    },
    {
      "constant": false,
      "inputs": [
        {
          "name": "_newOwner",
          "type": "address"
        }
      ],
      "name": "transferOwnership",
      "outputs": [],
      "payable": false,
      "stateMutability": "nonpayable",
      "type": "function"
    },
    {
      "anonymous": false,
      "inputs": [
        {
          "indexed": false,
          "name": "feeType",
          "type": "string"
        },
        {
          "indexed": false,
          "name": "_oldValue",
          "type": "uint256"
        },
        {
          "indexed": false,
          "name": "_newValue",
          "type": "uint256"
        }
      ],
      "name": "numberModified",
      "type": "event"
    },
    {
      "anonymous": false,
      "inputs": [
        {
          "indexed": false,
          "name": "parameter",
          "type": "string"
        },
        {
          "indexed": false,
          "name": "_oldValue",
          "type": "string"
        },
        {
          "indexed": false,
          "name": "_newValue",
          "type": "string"
        }
      ],
      "name": "parameterModified",
      "type": "event"
    },
    {
      "anonymous": false,
      "inputs": [
        {
          "indexed": false,
          "name": "parameter",
          "type": "string"
        },
        {
          "indexed": false,
          "name": "_oldValue",
          "type": "address"
        },
        {
          "indexed": false,
          "name": "_newValue",
          "type": "address"
        }
      ],
      "name": "walletModified",
      "type": "event"
    },
    {
      "anonymous": false,
      "inputs": [
        {
          "indexed": true,
          "name": "previousOwner",
          "type": "address"
        }
      ],
      "name": "OwnershipRenounced",
      "type": "event"
    },
    {
      "anonymous": false,
      "inputs": [
        {
          "indexed": true,
          "name": "previousOwner",
          "type": "address"
        },
        {
          "indexed": true,
          "name": "newOwner",
          "type": "address"
        }
      ],
      "name": "OwnershipTransferred",
      "type": "event"
    },
    {
      "constant": false,
      "inputs": [
        {
          "name": "_newValue",
          "type": "uint256"
        }
      ],
      "name": "modifyNumberOfLucky7Numbers",
      "outputs": [],
      "payable": false,
      "stateMutability": "nonpayable",
      "type": "function"
    },
    {
      "constant": false,
      "inputs": [
        {
          "name": "_newValue",
          "type": "uint256"
        }
      ],
      "name": "modifyNumberOfWinners",
      "outputs": [],
      "payable": false,
      "stateMutability": "nonpayable",
      "type": "function"
    },
    {
      "constant": false,
      "inputs": [
        {
          "name": "_newValue",
          "type": "uint256"
        }
      ],
      "name": "modifySellTicketPrice",
      "outputs": [],
      "payable": false,
      "stateMutability": "nonpayable",
      "type": "function"
    },
    {
      "constant": false,
      "inputs": [
        {
          "name": "_newValue",
          "type": "uint256"
        }
      ],
      "name": "modifyGenerateTicketPrice",
      "outputs": [],
      "payable": false,
      "stateMutability": "nonpayable",
      "type": "function"
    },
    {
      "constant": false,
      "inputs": [
        {
          "name": "_newValue",
          "type": "uint256"
        }
      ],
      "name": "modifyOraclizeGasLimit",
      "outputs": [],
      "payable": false,
      "stateMutability": "nonpayable",
      "type": "function"
    },
    {
      "constant": false,
      "inputs": [
        {
          "name": "_newValue",
          "type": "uint256"
        }
      ],
      "name": "modifyOraclizeCustomGasPrice",
      "outputs": [],
      "payable": false,
      "stateMutability": "nonpayable",
      "type": "function"
    },
    {
      "constant": false,
      "inputs": [
        {
          "name": "_newValue",
          "type": "string"
        }
      ],
      "name": "modifyParameterB",
      "outputs": [],
      "payable": false,
      "stateMutability": "nonpayable",
      "type": "function"
    },
    {
      "constant": false,
      "inputs": [
        {
          "name": "_newValue",
          "type": "string"
        }
      ],
      "name": "modifyParameterN",
      "outputs": [],
      "payable": false,
      "stateMutability": "nonpayable",
      "type": "function"
    },
    {
      "constant": false,
      "inputs": [
        {
          "name": "_newValue",
          "type": "string"
        }
      ],
      "name": "modifyParameterP",
      "outputs": [],
      "payable": false,
      "stateMutability": "nonpayable",
      "type": "function"
    },
    {
      "constant": false,
      "inputs": [
        {
          "name": "_newValue",
          "type": "string"
        }
      ],
      "name": "modifyParameterJ",
      "outputs": [],
      "payable": false,
      "stateMutability": "nonpayable",
      "type": "function"
    },
    {
      "constant": false,
      "inputs": [
        {
          "name": "_newAddress",
          "type": "address"
        }
      ],
      "name": "modifyEnterprisePrize",
      "outputs": [],
      "payable": false,
      "stateMutability": "nonpayable",
      "type": "function"
    }
  ],
  "bytecode": "0x60c0604052600160808190527f310000000000000000000000000000000000000000000000000000000000000060a09081526200003e9190816200017e565b506040805180820190915260018082527f3800000000000000000000000000000000000000000000000000000000000000602090920191825262000085916002916200017e565b506040805180820190915260058082527f31303030300000000000000000000000000000000000000000000000000000006020909201918252620000cc916003916200017e565b506040805180820190915260028082527f3230000000000000000000000000000000000000000000000000000000000000602090920191825262000113916004916200017e565b506007600581905560036006556611c37937e080009055662aa1efb94e0000600855620493e060095563ee6b2800600a55600b8054600160a060020a031990811673265a5c3dd46ec82e2744f1d0e9fb4ed75d56132a17909155600080549091163317905562000223565b828054600181600116156101000203166002900490600052602060002090601f016020900481019282601f10620001c157805160ff1916838001178555620001f1565b82800160010185558215620001f1579182015b82811115620001f1578251825591602001919060010190620001d4565b50620001ff92915062000203565b5090565b6200022091905b80821115620001ff57600081556001016200020a565b90565b61122e80620002336000396000f3006080604052600436106101485763ffffffff7c01000000000000000000000000000000000000000000000000000000006000350416630cc38b2b811461014d5780632e52d606146101a85780633bb7daf4146102325780634df7e3d01461028b57806350b9c428146102a057806359f9fe82146102c7578063715018a6146102dc578063741606b5146102f1578063809fc1531461032257806383bb7bb71461033a5780638aa5fafa146103935780638acfaca9146103ab5780638da5cb5b146103c057806396701ce9146103d55780639ac2bf91146103f65780639ae8886a1461040b5780639dec38ab14610420578063b582ec5f14610479578063bcb740ab1461048e578063c71f04ac1461048e578063c90cdc7e146104a6578063d383e862146104be578063d566bcf0146104d6578063e5663c48146104eb578063f2fde38b14610500575b600080fd5b34801561015957600080fd5b506040805160206004803580820135601f81018490048402850184019095528484526101a69436949293602493928401919081908401838280828437509497506105219650505050505050565b005b3480156101b457600080fd5b506101bd610706565b6040805160208082528351818301528351919283929083019185019080838360005b838110156101f75781810151838201526020016101df565b50505050905090810190601f1680156102245780820380516001836020036101000a031916815260200191505b509250505060405180910390f35b34801561023e57600080fd5b506040805160206004803580820135601f81018490048402850184019095528484526101a69436949293602493928401919081908401838280828437509497506107919650505050505050565b34801561029757600080fd5b506101bd6108d7565b3480156102ac57600080fd5b506102b5610931565b60408051918252519081900360200190f35b3480156102d357600080fd5b506102b5610937565b3480156102e857600080fd5b506101a661093d565b3480156102fd57600080fd5b506103066109a9565b60408051600160a060020a039092168252519081900360200190f35b34801561032e57600080fd5b506101a66004356109b8565b34801561034657600080fd5b506040805160206004803580820135601f81018490048402850184019095528484526101a6943694929360249392840191908190840183828082843750949750610a399650505050505050565b34801561039f57600080fd5b506101a6600435610b7e565b3480156103b757600080fd5b506102b5610bff565b3480156103cc57600080fd5b50610306610c05565b3480156103e157600080fd5b506101a6600160a060020a0360043516610c14565b34801561040257600080fd5b506102b5610cd0565b34801561041757600080fd5b506101bd610cd6565b34801561042c57600080fd5b506040805160206004803580820135601f81018490048402850184019095528484526101a6943694929360249392840191908190840183828082843750949750610d319650505050505050565b34801561048557600080fd5b506101bd610e77565b34801561049a57600080fd5b506101a6600435610ed2565b3480156104b257600080fd5b506101a6600435610f53565b3480156104ca57600080fd5b506101a6600435610fd4565b3480156104e257600080fd5b506102b561107b565b3480156104f757600080fd5b506102b5611081565b34801561050c57600080fd5b506101a6600160a060020a0360043516611087565b600054606090600160a060020a0316331461053b57600080fd5b6002805460408051602060018416156101000260001901909316849004601f810184900484028201840190925281815292918301828280156105be5780601f10610593576101008083540402835291602001916105be565b820191906000526020600020905b8154815290600101906020018083116105a157829003601f168201915b505085519394506105da93600293506020870192509050611127565b506000805160206111e3833981519152818360405180806020018060200180602001848103845260148152602001807f506172616d65746572206e206d6f646966696564000000000000000000000000815250602001848103835286818151815260200191508051906020019080838360005b8381101561066557818101518382015260200161064d565b50505050905090810190601f1680156106925780820380516001836020036101000a031916815260200191505b50848103825285518152855160209182019187019080838360005b838110156106c55781810151838201526020016106ad565b50505050905090810190601f1680156106f25780820380516001836020036101000a031916815260200191505b509550505050505060405180910390a15050565b6002805460408051602060018416156101000260001901909316849004601f810184900484028201840190925281815292918301828280156107895780601f1061075e57610100808354040283529160200191610789565b820191906000526020600020905b81548152906001019060200180831161076c57829003601f168201915b505050505081565b600054606090600160a060020a031633146107ab57600080fd5b6004805460408051602060026001851615610100026000190190941693909304601f810184900484028201840190925281815292918301828280156108315780601f1061080657610100808354040283529160200191610831565b820191906000526020600020905b81548152906001019060200180831161081457829003601f168201915b5050855193945061084d93600493506020870192509050611127565b506000805160206111e3833981519152818360405180806020018060200180602001848103845260148152602001807f506172616d65746572206a206d6f646966696564000000000000000000000000815250602001848103835286818151815260200191508051906020019080838360008381101561066557818101518382015260200161064d565b60018054604080516020600284861615610100026000190190941693909304601f810184900484028201840190925281815292918301828280156107895780601f1061075e57610100808354040283529160200191610789565b60095481565b60055481565b600054600160a060020a0316331461095457600080fd5b60008054604051600160a060020a03909116917ff8df31144d9c2f0f6b59d69b8b98abd5459d07f2742c4df920b25aae33c6482091a26000805473ffffffffffffffffffffffffffffffffffffffff19169055565b600b54600160a060020a031681565b60008054600160a060020a031633146109d057600080fd5b50600980549082905560408051602081018390528082018490526060808252601a908201527f4f7261636c697a6520676173206c696d6974206368616e676564000000000000608082015290516000805160206111c38339815191529181900360a00190a15050565b600054606090600160a060020a03163314610a5357600080fd5b60018054604080516020600284861615610100026000190190941693909304601f81018490048402820184019092528181529291830182828015610ad85780601f10610aad57610100808354040283529160200191610ad8565b820191906000526020600020905b815481529060010190602001808311610abb57829003601f168201915b50508551939450610af493600193506020870192509050611127565b506000805160206111e3833981519152818360405180806020018060200180602001848103845260148152602001807f506172616d657465722062206d6f646966696564000000000000000000000000815250602001848103835286818151815260200191508051906020019080838360008381101561066557818101518382015260200161064d565b60008054600160a060020a03163314610b9657600080fd5b50600780549082905560408051602081018390528082018490526060808252601d908201527f47656e6572617465207469636b6574207072696365206368616e676564000000608082015290516000805160206111c38339815191529181900360a00190a15050565b60065481565b600054600160a060020a031681565b60008054600160a060020a03163314610c2c57600080fd5b50600b8054600160a060020a0383811673ffffffffffffffffffffffffffffffffffffffff19831681179093556040805191909216602082018190528183019390935260608082526019908201527f456e74657270726973652077616c6c6574206368616e67656400000000000000608082015290517f223db053947bb148de510715d3c7d8ccd72bdd376752fd735ee7bd0bd0ece5bf9181900360a00190a15050565b600a5481565b6003805460408051602060026001851615610100026000190190941693909304601f810184900484028201840190925281815292918301828280156107895780601f1061075e57610100808354040283529160200191610789565b600054606090600160a060020a03163314610d4b57600080fd5b6003805460408051602060026001851615610100026000190190941693909304601f81018490048402820184019092528181529291830182828015610dd15780601f10610da657610100808354040283529160200191610dd1565b820191906000526020600020905b815481529060010190602001808311610db457829003601f168201915b50508551939450610ded93600393506020870192509050611127565b506000805160206111e3833981519152818360405180806020018060200180602001848103845260148152602001807f506172616d657465722070206d6f646966696564000000000000000000000000815250602001848103835286818151815260200191508051906020019080838360008381101561066557818101518382015260200161064d565b6004805460408051602060026001851615610100026000190190941693909304601f810184900484028201840190925281815292918301828280156107895780601f1061075e57610100808354040283529160200191610789565b60008054600160a060020a03163314610eea57600080fd5b506008805490829055604080516020810183905280820184905260608082526019908201527f53656c6c207469636b6574207072696365206368616e67656400000000000000608082015290516000805160206111c38339815191529181900360a00190a15050565b60008054600160a060020a03163314610f6b57600080fd5b506006805490829055604080516020810183905280820184905260608082526019908201527f4e756d626572206f662077696e6e657273206368616e67656400000000000000608082015290516000805160206111c38339815191529181900360a00190a15050565b60008054600160a060020a03163314610fec57600080fd5b50600a805490829055604080516020810183905280820184905260608082526021908201527f4f7261636c697a6520637573746f6d20676173207072696365206368616e676560808201527f640000000000000000000000000000000000000000000000000000000000000060a082015290516000805160206111c38339815191529181900360c00190a15050565b60075481565b60085481565b600054600160a060020a0316331461109e57600080fd5b6110a7816110aa565b50565b600160a060020a03811615156110bf57600080fd5b60008054604051600160a060020a03808516939216917f8be0079c531659141344cd1fd0a4f28419497f9722a3daafe3b4186f6b6457e091a36000805473ffffffffffffffffffffffffffffffffffffffff1916600160a060020a0392909216919091179055565b828054600181600116156101000203166002900490600052602060002090601f016020900481019282601f1061116857805160ff1916838001178555611195565b82800160010185558215611195579182015b8281111561119557825182559160200191906001019061117a565b506111a19291506111a5565b5090565b6111bf91905b808211156111a157600081556001016111ab565b9056009bc068999fb1a0aac007a9b44ca6322a376441f42706bf5163600bb3d1a731647ecbd54b3baea533cf57ef049f9e04554be6a660d6dacd477488066eedf27beea165627a7a7230582071130f6644a32f375150b530badeff86487843e51ecea207d8b755d6e94678cb0029",
  "source": "pragma solidity ^0.4.20;\nimport \"./Ownable.sol\";\nimport \"./SafeMath.sol\";\n\n\ncontract Lucky7Admin is Ownable{\n    using SafeMath for uint256;\n    \n    event numberModified(string feeType, uint _oldValue, uint _newValue);\n    event parameterModified(string parameter, string _oldValue, string _newValue);\n    event walletModified(string parameter, address _oldValue, address _newValue);\n\n    \n    string public b = \"1\";\n    string public n = \"8\";\n    string public p = \"10000\"; \n    string public j = \"20\";\n    \n    uint public numberOfLucky7Numbers = 7;\n    uint public numberOfWinners = 3;\n    \n    uint public generateTicketPrice = 0.005 ether;\n    uint public sellTicketPrice = 0.012 ether;\n    uint public oraclizeGasLimit = 300000 wei;\n    uint public oraclizeCustomGasPrice = 4000000000 wei;\n    address public enterpriseWallet = address(0x265a5c3dd46ec82e2744f1d0e9fb4ed75d56132a);\n    \n    function modifyNumberOfLucky7Numbers(uint _newValue) public onlyOwner{\n        uint oldValue = sellTicketPrice;\n        sellTicketPrice = _newValue;\n        numberModified(\"Sell ticket price changed\", oldValue, _newValue);\n    }\n    \n    function modifyNumberOfWinners(uint _newValue) public onlyOwner{\n        uint oldValue = numberOfWinners;\n        numberOfWinners = _newValue;\n        numberModified(\"Number of winners changed\", oldValue, _newValue);\n    }\n    \n    function modifySellTicketPrice(uint _newValue) public onlyOwner{\n        uint oldValue = sellTicketPrice;\n        sellTicketPrice = _newValue;\n        numberModified(\"Sell ticket price changed\", oldValue, _newValue);\n    }\n    \n    function modifyGenerateTicketPrice(uint _newValue) public onlyOwner{\n        uint oldValue = generateTicketPrice;\n        generateTicketPrice = _newValue;\n        numberModified(\"Generate ticket price changed\", oldValue, _newValue);\n        \n    }\n    \n    function modifyOraclizeGasLimit(uint _newValue) public onlyOwner{\n        uint oldValue = oraclizeGasLimit;\n        oraclizeGasLimit = _newValue;\n        numberModified(\"Oraclize gas limit changed\", oldValue, _newValue);\n    }\n    \n    function modifyOraclizeCustomGasPrice(uint _newValue) public onlyOwner{\n        uint oldValue = oraclizeCustomGasPrice;\n        oraclizeCustomGasPrice = _newValue;\n        numberModified(\"Oraclize custom gas price changed\", oldValue, _newValue);\n    }\n    \n    function modifyParameterB(string _newValue) public onlyOwner{\n        string memory oldValue = b;\n        b = _newValue;\n        parameterModified(\"Parameter b modified\", oldValue, _newValue);\n    }\n    \n    function modifyParameterN(string _newValue) public onlyOwner{\n        string memory oldValue = n;\n        n = _newValue;\n        parameterModified(\"Parameter n modified\", oldValue, _newValue);\n    }\n    \n    function modifyParameterP(string _newValue) public onlyOwner{\n        string memory oldValue = p;\n        p = _newValue;\n        parameterModified(\"Parameter p modified\", oldValue, _newValue);\n    }\n    \n    function modifyParameterJ(string _newValue) public onlyOwner{\n        string memory oldValue = j;\n        j = _newValue;\n        parameterModified(\"Parameter j modified\", oldValue, _newValue);\n    }\n    \n    function modifyEnterprisePrize(address _newAddress) public onlyOwner{\n        address oldAddress = enterpriseWallet;\n        enterpriseWallet = _newAddress;\n        walletModified(\"Enterprise wallet changed\", oldAddress, _newAddress);\n    }\n}   \n                                           \n",
  "sourcePath": "/Users/matiasbarrios/Desktop/Proyecto Consensys/luckyseven/contracts/Lucky7Admin.sol",
  "compiler": {
    "name": "solc",
    "version": "0.4.24+commit.e67f0147.Emscripten.clang"
  },
  "schemaVersion": "2.0.1",
  "updatedAt": "2018-08-15T23:52:00.390Z"
}