{
  "contractName": "Lucky7TicketFactory",
  "abi": [
    {
      "constant": false,
      "inputs": [
        {
          "name": "_newValue",
          "type": "string"
        }
      ],
      "name": "modifyParameterN",
      "outputs": [],
      "payable": false,
      "stateMutability": "nonpayable",
      "type": "function"
    },
    {
      "constant": true,
      "inputs": [
        {
          "name": "",
          "type": "uint256"
        }
      ],
      "name": "lucky7TicketID",
      "outputs": [
        {
          "name": "",
          "type": "uint256"
        }
      ],
      "payable": false,
      "stateMutability": "view",
      "type": "function"
    },
    {
      "constant": true,
      "inputs": [
        {
          "name": "",
          "type": "uint256"
        }
      ],
      "name": "lucky7TicketOwner",
      "outputs": [
        {
          "name": "",
          "type": "address"
        }
      ],
      "payable": false,
      "stateMutability": "view",
      "type": "function"
    },
    {
      "constant": true,
      "inputs": [],
      "name": "settingLucky7Numbers",
      "outputs": [
        {
          "name": "",
          "type": "bool"
        }
      ],
      "payable": false,
      "stateMutability": "view",
      "type": "function"
    },
    {
      "constant": true,
      "inputs": [],
      "name": "n",
      "outputs": [
        {
          "name": "",
          "type": "string"
        }
      ],
      "payable": false,
      "stateMutability": "view",
      "type": "function"
    },
    {
      "constant": true,
      "inputs": [
        {
          "name": "",
          "type": "uint256"
        }
      ],
      "name": "lucky7Tickets",
      "outputs": [
        {
          "name": "difference",
          "type": "uint256"
        },
        {
          "name": "owner",
          "type": "address"
        },
        {
          "name": "ticketID",
          "type": "uint256"
        },
        {
          "name": "ticketValue",
          "type": "uint256"
        },
        {
          "name": "lucky7Number",
          "type": "uint256"
        },
        {
          "name": "lucky7NumberID",
          "type": "uint256"
        },
        {
          "name": "drawID",
          "type": "uint256"
        }
      ],
      "payable": false,
      "stateMutability": "view",
      "type": "function"
    },
    {
      "constant": false,
      "inputs": [
        {
          "name": "_newValue",
          "type": "string"
        }
      ],
      "name": "modifyParameterJ",
      "outputs": [],
      "payable": false,
      "stateMutability": "nonpayable",
      "type": "function"
    },
    {
      "constant": true,
      "inputs": [
        {
          "name": "",
          "type": "uint256"
        }
      ],
      "name": "lucky7Numbers",
      "outputs": [
        {
          "name": "mu",
          "type": "string"
        },
        {
          "name": "i",
          "type": "string"
        },
        {
          "name": "ticketValue",
          "type": "uint256"
        },
        {
          "name": "drawID",
          "type": "uint256"
        }
      ],
      "payable": false,
      "stateMutability": "view",
      "type": "function"
    },
    {
      "constant": false,
      "inputs": [
        {
          "name": "_newAddress",
          "type": "address"
        }
      ],
      "name": "modifyEnterpriseWallet",
      "outputs": [],
      "payable": false,
      "stateMutability": "nonpayable",
      "type": "function"
    },
    {
      "constant": true,
      "inputs": [
        {
          "name": "",
          "type": "address"
        }
      ],
      "name": "userValues",
      "outputs": [
        {
          "name": "mu",
          "type": "string"
        },
        {
          "name": "i",
          "type": "string"
        },
        {
          "name": "ticketValue",
          "type": "uint256"
        },
        {
          "name": "muReady",
          "type": "bool"
        },
        {
          "name": "iReady",
          "type": "bool"
        },
        {
          "name": "userPaidTicket",
          "type": "bool"
        }
      ],
      "payable": false,
      "stateMutability": "view",
      "type": "function"
    },
    {
      "constant": true,
      "inputs": [],
      "name": "b",
      "outputs": [
        {
          "name": "",
          "type": "string"
        }
      ],
      "payable": false,
      "stateMutability": "view",
      "type": "function"
    },
    {
      "constant": true,
      "inputs": [
        {
          "name": "",
          "type": "uint256"
        }
      ],
      "name": "tickets",
      "outputs": [
        {
          "name": "mu",
          "type": "string"
        },
        {
          "name": "i",
          "type": "string"
        },
        {
          "name": "ticketValue",
          "type": "uint256"
        },
        {
          "name": "owner",
          "type": "address"
        },
        {
          "name": "drawID",
          "type": "uint256"
        }
      ],
      "payable": false,
      "stateMutability": "view",
      "type": "function"
    },
    {
      "constant": true,
      "inputs": [],
      "name": "oraclizeGasLimit",
      "outputs": [
        {
          "name": "",
          "type": "uint256"
        }
      ],
      "payable": false,
      "stateMutability": "view",
      "type": "function"
    },
    {
      "constant": true,
      "inputs": [],
      "name": "numberOfLucky7Numbers",
      "outputs": [
        {
          "name": "",
          "type": "uint256"
        }
      ],
      "payable": false,
      "stateMutability": "view",
      "type": "function"
    },
    {
      "constant": false,
      "inputs": [],
      "name": "renounceOwnership",
      "outputs": [],
      "payable": false,
      "stateMutability": "nonpayable",
      "type": "function"
    },
    {
      "constant": true,
      "inputs": [],
      "name": "enterpriseWallet",
      "outputs": [
        {
          "name": "",
          "type": "address"
        }
      ],
      "payable": false,
      "stateMutability": "view",
      "type": "function"
    },
    {
      "constant": false,
      "inputs": [
        {
          "name": "_newValue",
          "type": "uint256"
        }
      ],
      "name": "modifyOraclizeGasLimit",
      "outputs": [],
      "payable": false,
      "stateMutability": "nonpayable",
      "type": "function"
    },
    {
      "constant": false,
      "inputs": [
        {
          "name": "_newValue",
          "type": "string"
        }
      ],
      "name": "modifyParameterB",
      "outputs": [],
      "payable": false,
      "stateMutability": "nonpayable",
      "type": "function"
    },
    {
      "constant": false,
      "inputs": [
        {
          "name": "_newValue",
          "type": "uint256"
        }
      ],
      "name": "modifyGenerateTicketPrice",
      "outputs": [],
      "payable": false,
      "stateMutability": "nonpayable",
      "type": "function"
    },
    {
      "constant": true,
      "inputs": [],
      "name": "owner",
      "outputs": [
        {
          "name": "",
          "type": "address"
        }
      ],
      "payable": false,
      "stateMutability": "view",
      "type": "function"
    },
    {
      "constant": true,
      "inputs": [],
      "name": "oraclizeCustomGasPrice",
      "outputs": [
        {
          "name": "",
          "type": "uint256"
        }
      ],
      "payable": false,
      "stateMutability": "view",
      "type": "function"
    },
    {
      "constant": true,
      "inputs": [],
      "name": "p",
      "outputs": [
        {
          "name": "",
          "type": "string"
        }
      ],
      "payable": false,
      "stateMutability": "view",
      "type": "function"
    },
    {
      "constant": false,
      "inputs": [
        {
          "name": "_newValue",
          "type": "string"
        }
      ],
      "name": "modifyParameterP",
      "outputs": [],
      "payable": false,
      "stateMutability": "nonpayable",
      "type": "function"
    },
    {
      "constant": true,
      "inputs": [],
      "name": "j",
      "outputs": [
        {
          "name": "",
          "type": "string"
        }
      ],
      "payable": false,
      "stateMutability": "view",
      "type": "function"
    },
    {
      "constant": true,
      "inputs": [],
      "name": "balance",
      "outputs": [
        {
          "name": "",
          "type": "uint256"
        }
      ],
      "payable": false,
      "stateMutability": "view",
      "type": "function"
    },
    {
      "constant": false,
      "inputs": [
        {
          "name": "_newValue",
          "type": "uint256"
        }
      ],
      "name": "modifySellTicketPrice",
      "outputs": [],
      "payable": false,
      "stateMutability": "nonpayable",
      "type": "function"
    },
    {
      "constant": true,
      "inputs": [],
      "name": "indexForLucky7Array",
      "outputs": [
        {
          "name": "",
          "type": "uint256"
        }
      ],
      "payable": false,
      "stateMutability": "view",
      "type": "function"
    },
    {
      "constant": false,
      "inputs": [
        {
          "name": "_newValue",
          "type": "uint256"
        }
      ],
      "name": "modifyNumberOfLucky7Numbers",
      "outputs": [],
      "payable": false,
      "stateMutability": "nonpayable",
      "type": "function"
    },
    {
      "constant": false,
      "inputs": [
        {
          "name": "_newValue",
          "type": "uint256"
        }
      ],
      "name": "modifyOraclizeCustomGasPrice",
      "outputs": [],
      "payable": false,
      "stateMutability": "nonpayable",
      "type": "function"
    },
    {
      "constant": true,
      "inputs": [],
      "name": "generateTicketPrice",
      "outputs": [
        {
          "name": "",
          "type": "uint256"
        }
      ],
      "payable": false,
      "stateMutability": "view",
      "type": "function"
    },
    {
      "constant": true,
      "inputs": [],
      "name": "drawNumber",
      "outputs": [
        {
          "name": "",
          "type": "uint256"
        }
      ],
      "payable": false,
      "stateMutability": "view",
      "type": "function"
    },
    {
      "constant": true,
      "inputs": [],
      "name": "sellTicketPrice",
      "outputs": [
        {
          "name": "",
          "type": "uint256"
        }
      ],
      "payable": false,
      "stateMutability": "view",
      "type": "function"
    },
    {
      "constant": true,
      "inputs": [
        {
          "name": "",
          "type": "uint256"
        }
      ],
      "name": "lucky7TicketDifference",
      "outputs": [
        {
          "name": "",
          "type": "uint256"
        }
      ],
      "payable": false,
      "stateMutability": "view",
      "type": "function"
    },
    {
      "constant": false,
      "inputs": [
        {
          "name": "_newOwner",
          "type": "address"
        }
      ],
      "name": "transferOwnership",
      "outputs": [],
      "payable": false,
      "stateMutability": "nonpayable",
      "type": "function"
    },
    {
      "inputs": [],
      "payable": true,
      "stateMutability": "payable",
      "type": "constructor"
    },
    {
      "payable": true,
      "stateMutability": "payable",
      "type": "fallback"
    },
    {
      "anonymous": false,
      "inputs": [
        {
          "indexed": false,
          "name": "description",
          "type": "string"
        }
      ],
      "name": "NewOraclizeQuery",
      "type": "event"
    },
    {
      "anonymous": false,
      "inputs": [
        {
          "indexed": false,
          "name": "muParameter",
          "type": "string"
        }
      ],
      "name": "NewMuReceived",
      "type": "event"
    },
    {
      "anonymous": false,
      "inputs": [
        {
          "indexed": false,
          "name": "iParameter",
          "type": "string"
        }
      ],
      "name": "NewIReceived",
      "type": "event"
    },
    {
      "anonymous": false,
      "inputs": [
        {
          "indexed": false,
          "name": "newTicket",
          "type": "string"
        }
      ],
      "name": "NewTicketReceived",
      "type": "event"
    },
    {
      "anonymous": false,
      "inputs": [
        {
          "indexed": false,
          "name": "feeType",
          "type": "string"
        },
        {
          "indexed": false,
          "name": "_oldValue",
          "type": "uint256"
        },
        {
          "indexed": false,
          "name": "_newValue",
          "type": "uint256"
        }
      ],
      "name": "numberModified",
      "type": "event"
    },
    {
      "anonymous": false,
      "inputs": [
        {
          "indexed": false,
          "name": "parameter",
          "type": "string"
        },
        {
          "indexed": false,
          "name": "_oldValue",
          "type": "string"
        },
        {
          "indexed": false,
          "name": "_newValue",
          "type": "string"
        }
      ],
      "name": "parameterModified",
      "type": "event"
    },
    {
      "anonymous": false,
      "inputs": [
        {
          "indexed": false,
          "name": "parameter",
          "type": "string"
        },
        {
          "indexed": false,
          "name": "_oldValue",
          "type": "address"
        },
        {
          "indexed": false,
          "name": "_newValue",
          "type": "address"
        }
      ],
      "name": "walletModified",
      "type": "event"
    },
    {
      "anonymous": false,
      "inputs": [
        {
          "indexed": true,
          "name": "previousOwner",
          "type": "address"
        }
      ],
      "name": "OwnershipRenounced",
      "type": "event"
    },
    {
      "anonymous": false,
      "inputs": [
        {
          "indexed": true,
          "name": "previousOwner",
          "type": "address"
        },
        {
          "indexed": true,
          "name": "newOwner",
          "type": "address"
        }
      ],
      "name": "OwnershipTransferred",
      "type": "event"
    },
    {
      "constant": false,
      "inputs": [],
      "name": "toggleLucky7Setting",
      "outputs": [],
      "payable": false,
      "stateMutability": "nonpayable",
      "type": "function"
    },
    {
      "constant": false,
      "inputs": [
        {
          "name": "_ticketOwner",
          "type": "address"
        }
      ],
      "name": "_askForMuParameter",
      "outputs": [],
      "payable": true,
      "stateMutability": "payable",
      "type": "function"
    },
    {
      "constant": false,
      "inputs": [
        {
          "name": "_ticketOwner",
          "type": "address"
        }
      ],
      "name": "_askForIParameter",
      "outputs": [],
      "payable": false,
      "stateMutability": "nonpayable",
      "type": "function"
    },
    {
      "constant": false,
      "inputs": [
        {
          "name": "_ticketOwner",
          "type": "address"
        }
      ],
      "name": "_askForTicket",
      "outputs": [],
      "payable": false,
      "stateMutability": "nonpayable",
      "type": "function"
    },
    {
      "constant": false,
      "inputs": [
        {
          "name": "_ticketOwner",
          "type": "address"
        }
      ],
      "name": "_generateTicket",
      "outputs": [],
      "payable": false,
      "stateMutability": "nonpayable",
      "type": "function"
    },
    {
      "constant": false,
      "inputs": [
        {
          "name": "_ticketID",
          "type": "uint256"
        }
      ],
      "name": "_checkForLucky7Ticket",
      "outputs": [],
      "payable": false,
      "stateMutability": "nonpayable",
      "type": "function"
    },
    {
      "constant": false,
      "inputs": [
        {
          "name": "myid",
          "type": "bytes32"
        },
        {
          "name": "result",
          "type": "string"
        }
      ],
      "name": "__callback",
      "outputs": [],
      "payable": false,
      "stateMutability": "nonpayable",
      "type": "function"
    },
    {
      "constant": false,
      "inputs": [
        {
          "name": "myid",
          "type": "bytes32"
        },
        {
          "name": "result",
          "type": "string"
        },
        {
          "name": "proof",
          "type": "bytes"
        }
      ],
      "name": "__callback",
      "outputs": [],
      "payable": false,
      "stateMutability": "nonpayable",
      "type": "function"
    }
  ],
  "bytecode": "0x60c0604052600160808190527f310000000000000000000000000000000000000000000000000000000000000060a09081526200003e919081620001a5565b506040805180820190915260018082527f380000000000000000000000000000000000000000000000000000000000000060209092019182526200008591600291620001a5565b506040805180820190915260058082527f31303030300000000000000000000000000000000000000000000000000000006020909201918252620000cc91600391620001a5565b506040805180820190915260028082527f323000000000000000000000000000000000000000000000000000000000000060209092019182526200011391600491620001a5565b50600760058190556611c37937e08000600655662aa1efb94e00009055620493e060085563ee6b280060095560008054600a8054600160a060020a0319908116600160a060020a03841617909155601083905560118390556012805460ff191660011790559081163317909155600b8054909116736f485c8bf6fc43ea212e93bbf8ce046c7f1cb4751790556200024a565b828054600181600116156101000203166002900490600052602060002090601f016020900481019282601f10620001e857805160ff191683800117855562000218565b8280016001018555821562000218579182015b8281111562000218578251825591602001919060010190620001fb565b50620002269291506200022a565b5090565b6200024791905b8082111562000226576000815560010162000231565b90565b614481806200025a6000396000f3006080604052600436106101ea5763ffffffff60e060020a6000350416630cc38b2b81146101ec57806310cd4b8a146102455780631c3ed1d31461026f57806323d370ba146102a357806327dc297e146102b75780632caf9eee146103155780632de729eb1461033e5780632e52d6061461035657806338bbfa50146103e0578063396fb4221461047c57806339df3f4f146104d45780633bb7daf4146104e95780633eba34661461054257806349f6b030146106465780634acfd9b8146106675780634df7e3d01461078657806350b447121461079b57806350b9c428146108ae57806359f9fe82146108c3578063715018a6146108d8578063741606b5146108ed57806377d8a83014610902578063809fc1531461092357806383bb7bb71461093b5780638aa5fafa146109945780638da5cb5b146109ac5780639ac2bf91146109c15780639ae8886a146109d65780639dec38ab146109eb578063b582ec5f14610a44578063b69ef8a814610a59578063bcb740ab14610a6e578063c56969ab14610a86578063c71f04ac14610a9b578063d383e86214610ab3578063d566bcf014610acb578063d80ffb2014610ae0578063ddc110fa14610af5578063e5663c4814610b16578063e802ae1414610b2b578063f2fde38b14610b43578063fd9be1b214610b64575b005b3480156101f857600080fd5b506040805160206004803580820135601f81018490048402850184019095528484526101ea943694929360249392840191908190840183828082843750949750610b859650505050505050565b34801561025157600080fd5b5061025d600435610d6a565b60408051918252519081900360200190f35b34801561027b57600080fd5b50610287600435610d7c565b60408051600160a060020a039092168252519081900360200190f35b6101ea600160a060020a0360043516610d97565b3480156102c357600080fd5b5060408051602060046024803582810135601f81018590048502860185019096528585526101ea958335953695604494919390910191908190840183828082843750949750610ea99650505050505050565b34801561032157600080fd5b5061032a61145e565b604080519115158252519081900360200190f35b34801561034a57600080fd5b506101ea600435611467565b34801561036257600080fd5b5061036b6116a9565b6040805160208082528351818301528351919283929083019185019080838360005b838110156103a557818101518382015260200161038d565b50505050905090810190601f1680156103d25780820380516001836020036101000a031916815260200191505b509250505060405180910390f35b3480156103ec57600080fd5b5060408051602060046024803582810135601f81018590048502860185019096528585526101ea95833595369560449491939091019190819084018382808284375050604080516020601f89358b018035918201839004830284018301909452808352979a9998810197919650918201945092508291508401838280828437509497506117349650505050505050565b34801561048857600080fd5b50610494600435611739565b60408051978852600160a060020a039096166020880152868601949094526060860192909252608085015260a084015260c0830152519081900360e00190f35b3480156104e057600080fd5b506101ea611790565b3480156104f557600080fd5b506040805160206004803580820135601f81018490048402850184019095528484526101ea9436949293602493928401919081908401838280828437509497506117bb9650505050505050565b34801561054e57600080fd5b5061055a600435611901565b604051808060200180602001858152602001848152602001838103835287818151815260200191508051906020019080838360005b838110156105a757818101518382015260200161058f565b50505050905090810190601f1680156105d45780820380516001836020036101000a031916815260200191505b50838103825286518152865160209182019188019080838360005b838110156106075781810151838201526020016105ef565b50505050905090810190601f1680156106345780820380516001836020036101000a031916815260200191505b50965050505050505060405180910390f35b34801561065257600080fd5b506101ea600160a060020a0360043516611a4d565b34801561067357600080fd5b50610688600160a060020a0360043516611afc565b604080519081018590528315156060820152821515608082015281151560a082015260c08082528751908201528651819060208083019160e08401918b019080838360005b838110156106e55781810151838201526020016106cd565b50505050905090810190601f1680156107125780820380516001836020036101000a031916815260200191505b5083810382528851815288516020918201918a019080838360005b8381101561074557818101518382015260200161072d565b50505050905090810190601f1680156107725780820380516001836020036101000a031916815260200191505b509850505050505050505060405180910390f35b34801561079257600080fd5b5061036b611c5c565b3480156107a757600080fd5b506107b3600435611cb6565b60408051908101849052600160a060020a03831660608201526080810182905260a08082528651908201528551819060208083019160c08401918a019080838360005b8381101561080e5781810151838201526020016107f6565b50505050905090810190601f16801561083b5780820380516001836020036101000a031916815260200191505b50838103825287518152875160209182019189019080838360005b8381101561086e578181015183820152602001610856565b50505050905090810190601f16801561089b5780820380516001836020036101000a031916815260200191505b5097505050505050505060405180910390f35b3480156108ba57600080fd5b5061025d611e23565b3480156108cf57600080fd5b5061025d611e29565b3480156108e457600080fd5b506101ea611e2f565b3480156108f957600080fd5b50610287611e8e565b34801561090e57600080fd5b506101ea600160a060020a0360043516611e9d565b34801561092f57600080fd5b506101ea600435611eb2565b34801561094757600080fd5b506040805160206004803580820135601f81018490048402850184019095528484526101ea943694929360249392840191908190840183828082843750949750611f339650505050505050565b3480156109a057600080fd5b506101ea600435612078565b3480156109b857600080fd5b506102876120f9565b3480156109cd57600080fd5b5061025d612108565b3480156109e257600080fd5b5061036b61210e565b3480156109f757600080fd5b506040805160206004803580820135601f81018490048402850184019095528484526101ea9436949293602493928401919081908401838280828437509497506121699650505050505050565b348015610a5057600080fd5b5061036b6122af565b348015610a6557600080fd5b5061025d61230a565b348015610a7a57600080fd5b506101ea600435612329565b348015610a9257600080fd5b5061025d6123aa565b348015610aa757600080fd5b506101ea6004356123b0565b348015610abf57600080fd5b506101ea600435612431565b348015610ad757600080fd5b5061025d6124d8565b348015610aec57600080fd5b5061025d6124de565b348015610b0157600080fd5b506101ea600160a060020a03600435166124e4565b348015610b2257600080fd5b5061025d6125cb565b348015610b3757600080fd5b5061025d6004356125d1565b348015610b4f57600080fd5b506101ea600160a060020a03600435166125e3565b348015610b7057600080fd5b506101ea600160a060020a0360043516612603565b600054606090600160a060020a03163314610b9f57600080fd5b6002805460408051602060018416156101000260001901909316849004601f81018490048402820184019092528181529291830182828015610c225780601f10610bf757610100808354040283529160200191610c22565b820191906000526020600020905b815481529060010190602001808311610c0557829003601f168201915b50508551939450610c3e9360029350602087019250905061437d565b50600080516020614436833981519152818360405180806020018060200180602001848103845260148152602001807f506172616d65746572206e206d6f646966696564000000000000000000000000815250602001848103835286818151815260200191508051906020019080838360005b83811015610cc9578181015183820152602001610cb1565b50505050905090810190601f168015610cf65780820380516001836020036101000a031916815260200191505b50848103825285518152855160209182019187019080838360005b83811015610d29578181015183820152602001610d11565b50505050905090810190601f168015610d565780820380516001836020036101000a031916815260200191505b509550505050505060405180910390a15050565b60376020526000908152604090205481565b603660205260009081526040902054600160a060020a031681565b6000610da4600954612717565b604080516020808252808201527f41736b696e6720666f722061206e6577206d7520706172616d657465722e2e2e8183015290517f096835e36c2ccea88ff2b3aca87dfc938b977e52ea656873ff76a8dba50d4d349181900360600190a1610e796040805190810160405280600c81526020017f576f6c6672616d416c70686100000000000000000000000000000000000000008152506040805190810160405280600f81526020017f342072616e646f6d206e756d62657200000000000000000000000000000000008152506008546128ff565b60009081526032602052604090208054600160a060020a031916600160a060020a03939093169290921790915550565b610eb1612d04565b600160a060020a03163314610ec557600080fd5b600082815260326020526040902054600160a060020a031615801590610f135750600082815260326020908152604080832054600160a060020a03168352603190915290206003015460ff16155b156110b057600082815260326020908152604080832054600160a060020a03168352603182529091208251610f4a9284019061437d565b507f6a28dd23c76ba6cc6f4f148a0e2e0e147d8b876cb74ec1e5e2b8e9a8119eb702816040518080602001828103825283818151815260200191508051906020019080838360005b83811015610faa578181015183820152602001610f92565b50505050905090810190601f168015610fd75780820380516001836020036101000a031916815260200191505b509250505060405180910390a160008281526032602090815260408083208054600160a060020a03908116855260319093528184206003908101805460ff191660019081179091559154909316845292200154610100900460ff1615151480156110855750600082815260326020908152604080832054600160a060020a03168352603190915290206003015460ff6201000090910416151560011480611085575060125460ff1615156001145b156110ab576000828152603260205260409020546110ab90600160a060020a03166124e4565b61145a565b600082815260336020526040902054600160a060020a0316158015906111035750600082815260336020908152604080832054600160a060020a031683526031909152902060030154610100900460ff16155b1561129e57600082815260336020908152604080832054600160a060020a031683526031825290912082516111409260019092019184019061437d565b507f716a554dec57e3a217a923b974660c0c8ebee07b09b1ac7d4a3a8f328d10cc89816040518080602001828103825283818151815260200191508051906020019080838360005b838110156111a0578181015183820152602001611188565b50505050905090810190601f1680156111cd5780820380516001836020036101000a031916815260200191505b509250505060405180910390a160008281526033602090815260408083208054600160a060020a03908116855260319093528184206003908101805461ff00191661010017905590549092168352909120015460ff16151560011480156112785750600082815260336020908152604080832054600160a060020a03168352603190915290206003015460ff6201000090910416151560011480611278575060125460ff1615156001145b156110ab576000828152603360205260409020546110ab90600160a060020a03166124e4565b600082815260346020526040902054600160a060020a0316158015906113085750600082815260346020908152604080832054600160a060020a03168352603190915290206003015460ff6201000090910416151560011480611308575060125460ff1615156001145b1561145a5761131681612ef9565b600083815260346020908152604080832054600160a060020a031683526031825280832060020193909355825181815284518183015284517f0efef3a277391dda0d5747fd15566e85fcd8a4fb588d9853173841e45cc5ae8a9486949293849391840192908601918190849084905b8381101561139d578181015183820152602001611385565b50505050905090810190601f1680156113ca5780820380516001836020036101000a031916815260200191505b509250505060405180910390a1600082815260346020908152604080832054600160a060020a0316835260319091529020600301805462ff00001916905560125460ff16151560011415611439576000828152603460205260409020546110ab90600160a060020a0316612f0c565b60008281526034602052604090205461145a90600160a060020a0316613115565b5050565b60125460ff1681565b600080600080601560016005540360078110151561148157fe5b600402016002015460148681548110151561149857fe5b906000526020600020906005020160020154111561150757600554600019019350611500601585600781106114c957fe5b60040201600201546014878154811015156114e057fe5b90600052602060002090600502016002015461335090919063ffffffff16565b9250611608565b601754601480548790811061151857fe5b906000526020600020906005020160020154101561157d576000935061150060148681548110151561154657fe5b90600052602060002090600502016002015460158660078110151561156757fe5b600402016002015461335090919063ffffffff16565b6015846007811061158a57fe5b60040201600201546014868154811015156115a157fe5b90600052602060002090600502016002015411156115c45760019093019261157d565b6115d860156000198601600781106114c957fe5b91506115ec60148681548110151561154657fe5b90508181111561160457600184039350819250611608565b8092505b600084815260366020526040902054600160a060020a03161580611639575060008481526035602052604090205483105b156116a257601480548690811061164c57fe5b60009182526020808320600360059093020191909101548683526036825260408084208054600160a060020a031916600160a060020a039093169290921790915560358252808320869055603790915290208590555b5050505050565b6002805460408051602060018416156101000260001901909316849004601f8101849004840282018401909252818152929183018282801561172c5780601f106117015761010080835404028352916020019161172c565b820191906000526020600020905b81548152906001019060200180831161170f57829003601f168201915b505050505081565b505050565b601380548290811061174757fe5b60009182526020909120600790910201805460018201546002830154600384015460048501546005860154600690960154949650600160a060020a039093169491939092919087565b600054600160a060020a031633146117a757600080fd5b6012805460ff19811660ff90911615179055565b600054606090600160a060020a031633146117d557600080fd5b6004805460408051602060026001851615610100026000190190941693909304601f8101849004840282018401909252818152929183018282801561185b5780601f106118305761010080835404028352916020019161185b565b820191906000526020600020905b81548152906001019060200180831161183e57829003601f168201915b505085519394506118779360049350602087019250905061437d565b50600080516020614436833981519152818360405180806020018060200180602001848103845260148152602001807f506172616d65746572206a206d6f6469666965640000000000000000000000008152506020018481038352868181518152602001915080519060200190808383600083811015610cc9578181015183820152602001610cb1565b6015816007811061190e57fe5b60040201805460408051602060026001851615610100026000190190941693909304601f810184900484028201840190925281815292935083918301828280156119995780601f1061196e57610100808354040283529160200191611999565b820191906000526020600020905b81548152906001019060200180831161197c57829003601f168201915b505050505090806001018054600181600116156101000203166002900480601f016020809104026020016040519081016040528092919081815260200182805460018160011615610100020316600290048015611a375780601f10611a0c57610100808354040283529160200191611a37565b820191906000526020600020905b815481529060010190602001808311611a1a57829003601f168201915b5050505050908060020154908060030154905084565b60008054600160a060020a03163314611a6557600080fd5b50600a8054600160a060020a03838116600160a060020a0319831681179093556040805191909216602082018190528183019390935260608082526019908201527f456e74657270726973652077616c6c6574206368616e67656400000000000000608082015290517f223db053947bb148de510715d3c7d8ccd72bdd376752fd735ee7bd0bd0ece5bf9181900360a00190a15050565b60316020908152600091825260409182902080548351601f60026000196101006001861615020190931692909204918201849004840281018401909452808452909291839190830182828015611b935780601f10611b6857610100808354040283529160200191611b93565b820191906000526020600020905b815481529060010190602001808311611b7657829003601f168201915b505050505090806001018054600181600116156101000203166002900480601f016020809104026020016040519081016040528092919081815260200182805460018160011615610100020316600290048015611c315780601f10611c0657610100808354040283529160200191611c31565b820191906000526020600020905b815481529060010190602001808311611c1457829003601f168201915b50505050600283015460039093015491929160ff808216925061010082048116916201000090041686565b60018054604080516020600284861615610100026000190190941693909304601f8101849004840282018401909252818152929183018282801561172c5780601f106117015761010080835404028352916020019161172c565b6014805482908110611cc457fe5b60009182526020918290206005919091020180546040805160026001841615610100026000190190931692909204601f810185900485028301850190915280825291935091839190830182828015611d5d5780601f10611d3257610100808354040283529160200191611d5d565b820191906000526020600020905b815481529060010190602001808311611d4057829003601f168201915b505050505090806001018054600181600116156101000203166002900480601f016020809104026020016040519081016040528092919081815260200182805460018160011615610100020316600290048015611dfb5780601f10611dd057610100808354040283529160200191611dfb565b820191906000526020600020905b815481529060010190602001808311611dde57829003601f168201915b505050506002830154600384015460049094015492939092600160a060020a03909116915085565b60085481565b60055481565b600054600160a060020a03163314611e4657600080fd5b60008054604051600160a060020a03909116917ff8df31144d9c2f0f6b59d69b8b98abd5459d07f2742c4df920b25aae33c6482091a260008054600160a060020a0319169055565b600a54600160a060020a031681565b611ea681610d97565b611eaf81612603565b50565b60008054600160a060020a03163314611eca57600080fd5b50600880549082905560408051602081018390528082018490526060808252601a908201527f4f7261636c697a6520676173206c696d6974206368616e676564000000000000608082015290516000805160206144168339815191529181900360a00190a15050565b600054606090600160a060020a03163314611f4d57600080fd5b60018054604080516020600284861615610100026000190190941693909304601f81018490048402820184019092528181529291830182828015611fd25780601f10611fa757610100808354040283529160200191611fd2565b820191906000526020600020905b815481529060010190602001808311611fb557829003601f168201915b50508551939450611fee9360019350602087019250905061437d565b50600080516020614436833981519152818360405180806020018060200180602001848103845260148152602001807f506172616d657465722062206d6f6469666965640000000000000000000000008152506020018481038352868181518152602001915080519060200190808383600083811015610cc9578181015183820152602001610cb1565b60008054600160a060020a0316331461209057600080fd5b50600680549082905560408051602081018390528082018490526060808252601d908201527f47656e6572617465207469636b6574207072696365206368616e676564000000608082015290516000805160206144168339815191529181900360a00190a15050565b600054600160a060020a031681565b60095481565b6003805460408051602060026001851615610100026000190190941693909304601f8101849004840282018401909252818152929183018282801561172c5780601f106117015761010080835404028352916020019161172c565b600054606090600160a060020a0316331461218357600080fd5b6003805460408051602060026001851615610100026000190190941693909304601f810184900484028201840190925281815292918301828280156122095780601f106121de57610100808354040283529160200191612209565b820191906000526020600020905b8154815290600101906020018083116121ec57829003601f168201915b505085519394506122259360039350602087019250905061437d565b50600080516020614436833981519152818360405180806020018060200180602001848103845260148152602001807f506172616d657465722070206d6f6469666965640000000000000000000000008152506020018481038352868181518152602001915080519060200190808383600083811015610cc9578181015183820152602001610cb1565b6004805460408051602060026001851615610100026000190190941693909304601f8101849004840282018401909252818152929183018282801561172c5780601f106117015761010080835404028352916020019161172c565b60008054600160a060020a0316331461232257600080fd5b5030315b90565b60008054600160a060020a0316331461234157600080fd5b506007805490829055604080516020810183905280820184905260608082526019908201527f53656c6c207469636b6574207072696365206368616e67656400000000000000608082015290516000805160206144168339815191529181900360a00190a15050565b60115481565b60008054600160a060020a031633146123c857600080fd5b506005805490829055604080516020810183905280820184905260608082526019908201527f53656c6c207469636b6574207072696365206368616e67656400000000000000608082015290516000805160206144168339815191529181900360a00190a15050565b60008054600160a060020a0316331461244957600080fd5b506009805490829055604080516020810183905280820184905260608082526021908201527f4f7261636c697a6520637573746f6d20676173207072696365206368616e676560808201527f640000000000000000000000000000000000000000000000000000000000000060a082015290516000805160206144168339815191529181900360c00190a15050565b60065481565b60105481565b60006124f1600954612717565b604080516020808252601a908201527f41736b696e6720666f722061206e6577207469636b65742e2e2e0000000000008183015290517f096835e36c2ccea88ff2b3aca87dfc938b977e52ea656873ff76a8dba50d4d349181900360600190a161259b6040805190810160405280600c81526020017f576f6c6672616d416c706861000000000000000000000000000000000000000081525061259384613362565b6008546128ff565b60009081526034602052604090208054600160a060020a031916600160a060020a03939093169290921790915550565b60075481565b60356020526000908152604090205481565b600054600160a060020a031633146125fa57600080fd5b611eaf81613bf7565b6000612610600954612717565b604080516020808252601f908201527f41736b696e6720666f722061206e6577206920706172616d657465722e2e2e008183015290517f096835e36c2ccea88ff2b3aca87dfc938b977e52ea656873ff76a8dba50d4d349181900360600190a16126e76040805190810160405280600c81526020017f576f6c6672616d416c70686100000000000000000000000000000000000000008152506040805190810160405280600f81526020017f342072616e646f6d206e756d62657200000000000000000000000000000000008152506008546128ff565b60009081526033602052604090208054600160a060020a031916600160a060020a03939093169290921790915550565b600b54600160a060020a031615806127415750600b5461273f90600160a060020a0316613c67565b155b15612752576127506000613c6b565b505b600b60009054906101000a9004600160a060020a0316600160a060020a03166338cc48316040518163ffffffff1660e060020a028152600401602060405180830381600087803b1580156127a557600080fd5b505af11580156127b9573d6000803e3d6000fd5b505050506040513d60208110156127cf57600080fd5b5051600c54600160a060020a0390811691161461288557600b60009054906101000a9004600160a060020a0316600160a060020a03166338cc48316040518163ffffffff1660e060020a028152600401602060405180830381600087803b15801561283957600080fd5b505af115801561284d573d6000803e3d6000fd5b505050506040513d602081101561286357600080fd5b5051600c8054600160a060020a031916600160a060020a039092169190911790555b600c54604080517fca6ad1e4000000000000000000000000000000000000000000000000000000008152600481018490529051600160a060020a039092169163ca6ad1e49160248082019260009290919082900301818387803b1580156128eb57600080fd5b505af11580156116a2573d6000803e3d6000fd5b600b546000908190600160a060020a0316158061292e5750600b5461292c90600160a060020a0316613c67565b155b1561293f5761293d6000613c6b565b505b600b60009054906101000a9004600160a060020a0316600160a060020a03166338cc48316040518163ffffffff1660e060020a028152600401602060405180830381600087803b15801561299257600080fd5b505af11580156129a6573d6000803e3d6000fd5b505050506040513d60208110156129bc57600080fd5b5051600c54600160a060020a03908116911614612a7257600b60009054906101000a9004600160a060020a0316600160a060020a03166338cc48316040518163ffffffff1660e060020a028152600401602060405180830381600087803b158015612a2657600080fd5b505af1158015612a3a573d6000803e3d6000fd5b505050506040513d6020811015612a5057600080fd5b5051600c8054600160a060020a031916600160a060020a039092169190911790555b600c54604080517f2ef3accc0000000000000000000000000000000000000000000000000000000081526024810186905260048101918252875160448201528751600160a060020a0390931692632ef3accc9289928892829160640190602086019080838360005b83811015612af2578181015183820152602001612ada565b50505050905090810190601f168015612b1f5780820380516001836020036101000a031916815260200191505b509350505050602060405180830381600087803b158015612b3f57600080fd5b505af1158015612b53573d6000803e3d6000fd5b505050506040513d6020811015612b6957600080fd5b50519050670de0b6b3a76400003a840201811115612b8a5760009150612cfc565b600c546040517fc51be90f00000000000000000000000000000000000000000000000000000000815260006004820181815260648301879052608060248401908152895160848501528951600160a060020a039095169463c51be90f948794938c938c938c93604481019160a49091019060208801908083838c5b83811015612c1d578181015183820152602001612c05565b50505050905090810190601f168015612c4a5780820380516001836020036101000a031916815260200191505b50838103825285518152855160209182019187019080838360005b83811015612c7d578181015183820152602001612c65565b50505050905090810190601f168015612caa5780820380516001836020036101000a031916815260200191505b5096505050505050506020604051808303818588803b158015612ccc57600080fd5b505af1158015612ce0573d6000803e3d6000fd5b50505050506040513d6020811015612cf757600080fd5b505191505b509392505050565b600b54600090600160a060020a03161580612d315750600b54612d2f90600160a060020a0316613c67565b155b15612d4257612d406000613c6b565b505b600b60009054906101000a9004600160a060020a0316600160a060020a03166338cc48316040518163ffffffff1660e060020a028152600401602060405180830381600087803b158015612d9557600080fd5b505af1158015612da9573d6000803e3d6000fd5b505050506040513d6020811015612dbf57600080fd5b5051600c54600160a060020a03908116911614612e7557600b60009054906101000a9004600160a060020a0316600160a060020a03166338cc48316040518163ffffffff1660e060020a028152600401602060405180830381600087803b158015612e2957600080fd5b505af1158015612e3d573d6000803e3d6000fd5b505050506040513d6020811015612e5357600080fd5b5051600c8054600160a060020a031916600160a060020a039092169190911790555b600c60009054906101000a9004600160a060020a0316600160a060020a031663c281d19e6040518163ffffffff1660e060020a028152600401602060405180830381600087803b158015612ec857600080fd5b505af1158015612edc573d6000803e3d6000fd5b505050506040513d6020811015612ef257600080fd5b5051905090565b6000612f06826000613c75565b92915050565b60408051600160a060020a03831660009081526031602090815290839020805460026001821615610100026000190190911604601f8101839004909202830160a090810190945260808301828152929384939290840182828015612fb15780601f10612f8657610100808354040283529160200191612fb1565b820191906000526020600020905b815481529060010190602001808311612f9457829003601f168201915b505050505081526020016031600084600160a060020a0316600160a060020a031681526020019081526020016000206001018054600181600116156101000203166002900480601f0160208091040260200160405190810160405280929190818152602001828054600181600116156101000203166002900480156130775780601f1061304c57610100808354040283529160200191613077565b820191906000526020600020905b81548152906001019060200180831161305a57829003601f168201915b5050509183525050600160a060020a0383166000908152603160209081526040918290206002015490830152601054910152601154601590600781106130b957fe5b6004020160008201518160000190805190602001906130d992919061437d565b5060208281015180516130f2926001850192019061437d565b506040820151600282015560609091015160039091015550601180546001019055565b60408051600160a060020a03831660009081526031602090815283822080546002600180831615610100026000190190921604601f8101849004909302850160c090810190965260a08501838152939590946014949093849391928401828280156131c15780601f10613196576101008083540402835291602001916131c1565b820191906000526020600020905b8154815290600101906020018083116131a457829003601f168201915b505050505081526020016031600087600160a060020a0316600160a060020a031681526020019081526020016000206001018054600181600116156101000203166002900480601f0160208091040260200160405190810160405280929190818152602001828054600181600116156101000203166002900480156132875780601f1061325c57610100808354040283529160200191613287565b820191906000526020600020905b81548152906001019060200180831161326a57829003601f168201915b5050509183525050600160a060020a0386166000818152603160209081526040808320600201548286015284019290925260105460609093019290925283546001810180865594835291819020835180516005909402909101926132ee928492019061437d565b506020828101518051613307926001850192019061437d565b50604082015160028201556060820151600382018054600160a060020a031916600160a060020a0390921691909117905560809091015160049091015503905061145a81611467565b60008282111561335c57fe5b50900390565b604080518082018252600c81527f286d6f642828312f2831305e000000000000000000000000000000000000000060208083019190915260028054845160018216156101000260001901909116829004601f8101849004840282018401909552848152606094859461353994909391908301828280156134235780601f106133f857610100808354040283529160200191613423565b820191906000526020600020905b81548152906001019060200180831161340657829003601f168201915b505060408051808201825260018082527f2d00000000000000000000000000000000000000000000000000000000000000602080840191909152600160a060020a038d1660009081526031825284902080548551600294821615610100026000190190911693909304601f81018390048302840183019095528483529296509094509092508301828280156134f95780601f106134ce576101008083540402835291602001916134f9565b820191906000526020600020905b8154815290600101906020018083116134dc57829003601f168201915b50505050506040805190810160405280600681526020017f29292a31305e0000000000000000000000000000000000000000000000000000815250613de7565b60038054604080516020601f600260001961010060018816150201909516949094049384018190048102820181019092528281529394506136cd938593909290918301828280156135cb5780601f106135a0576101008083540402835291602001916135cb565b820191906000526020600020905b8154815290600101906020018083116135ae57829003601f168201915b5050604080518082018252600581527f2c31305e2800000000000000000000000000000000000000000000000000000060208083019190915260048054845160026001831615610100026000190190921691909104601f810184900484028201840190955284815292965091945090925083018282801561368d5780601f106136625761010080835404028352916020019161368d565b820191906000526020600020905b81548152906001019060200180831161367057829003601f168201915b50505050506040805190810160405280600181526020017f2b00000000000000000000000000000000000000000000000000000000000000815250613de7565b905061388e816031600086600160a060020a0316600160a060020a031681526020019081526020016000206001018054600181600116156101000203166002900480601f01602080910402602001604051908101604052809291908181526020018280546001816001161561010002031660029004801561378f5780601f106137645761010080835404028352916020019161378f565b820191906000526020600020905b81548152906001019060200180831161377257829003601f168201915b5050604080518082018252600d81527f292d6d6f642828312f2831305e0000000000000000000000000000000000000060208083019190915260028054845160018216156101000260001901909116829004601f810184900484028201840190955284815292965091945090925083018282801561384e5780601f106138235761010080835404028352916020019161384e565b820191906000526020600020905b81548152906001019060200180831161383157829003601f168201915b50505050506040805190810160405280600181526020017f2d00000000000000000000000000000000000000000000000000000000000000815250613de7565b600160a060020a03841660009081526031602090815260409182902080548351601f60026000196101006001861615020190931692909204918201849004840281018401909452808452939450613a35938593928301828280156139335780601f1061390857610100808354040283529160200191613933565b820191906000526020600020905b81548152906001019060200180831161391657829003601f168201915b5050604080518082018252600681527f29292a31305e000000000000000000000000000000000000000000000000000060208083019190915260038054845160026001831615610100026000190190921691909104601f81018490048402820184019095528481529296509194509092508301828280156139f55780601f106139ca576101008083540402835291602001916139f5565b820191906000526020600020905b8154815290600101906020018083116139d857829003601f168201915b50505050506040805190810160405280600481526020017f2c31305e00000000000000000000000000000000000000000000000000000000815250613de7565b60408051808201825260018082527f2800000000000000000000000000000000000000000000000000000000000000602080840191909152600160a060020a038816600090815260318252849020820180548551600294821615610100026000190190911693909304601f8101839004830284018301909552848352949550613bf09486949091830182828015613b0d5780601f10613ae257610100808354040283529160200191613b0d565b820191906000526020600020905b815481529060010190602001808311613af057829003601f168201915b5050604080518082018252600781527f2929292f31305e00000000000000000000000000000000000000000000000000602080830191909152600160a060020a038d16600090815260318252839020600190810180548551600293821615610100026000190190911692909204601f81018490048402830184019095528482529296509450909250830182828015613be65780601f10613bbb57610100808354040283529160200191613be6565b820191906000526020600020905b815481529060010190602001808311613bc957829003601f168201915b5050505050613de7565b9392505050565b600160a060020a0381161515613c0c57600080fd5b60008054604051600160a060020a03808516939216917f8be0079c531659141344cd1fd0a4f28419497f9722a3daafe3b4186f6b6457e091a360008054600160a060020a031916600160a060020a0392909216919091179055565b3b90565b6000612f06614048565b6000828180805b8351811015613dca5783517f300000000000000000000000000000000000000000000000000000000000000090859083908110613cb557fe5b90602001015160f860020a900460f860020a02600160f860020a03191610158015613d2b575083517f390000000000000000000000000000000000000000000000000000000000000090859083908110613d0b57fe5b90602001015160f860020a900460f860020a02600160f860020a03191611155b15613d84578115613d4a57851515613d4257613dca565b600019909501945b600a8302925060308482815181101515613d6057fe5b90602001015160f860020a900460f860020a0260f860020a90040383019250613dc2565b8381815181101515613d9257fe5b90602001015160f860020a900460f860020a02600160f860020a031916602e60f860020a021415613dc257600191505b600101613c7c565b6000861115613ddc5785600a0a830292505b509095945050505050565b6060806060806060806060806000808e98508d97508c96508b95508a94508451865188518a518c51010101016040519080825280601f01601f191660200182016040528015613e40578160200160208202803883390190505b50935083925060009150600090505b8851811015613ead578881815181101515613e6657fe5b90602001015160f860020a900460f860020a028383806001019450815181101515613e8d57fe5b906020010190600160f860020a031916908160001a905350600101613e4f565b5060005b8751811015613f0f578781815181101515613ec857fe5b90602001015160f860020a900460f860020a028383806001019450815181101515613eef57fe5b906020010190600160f860020a031916908160001a905350600101613eb1565b5060005b8651811015613f71578681815181101515613f2a57fe5b90602001015160f860020a900460f860020a028383806001019450815181101515613f5157fe5b906020010190600160f860020a031916908160001a905350600101613f13565b5060005b8551811015613fd3578581815181101515613f8c57fe5b90602001015160f860020a900460f860020a028383806001019450815181101515613fb357fe5b906020010190600160f860020a031916908160001a905350600101613f75565b5060005b8451811015614035578481815181101515613fee57fe5b90602001015160f860020a900460f860020a02838380600101945081518110151561401557fe5b906020010190600160f860020a031916908160001a905350600101613fd7565b50909d9c50505050505050505050505050565b600080614068731d3b2638a7cc9f2cb3d298a3da7a90b67e5506ed613c67565b11156140d857600b8054600160a060020a031916731d3b2638a7cc9f2cb3d298a3da7a90b67e5506ed178155604080518082019091529081527f6574685f6d61696e6e657400000000000000000000000000000000000000000060208201526140d09061436e565b506001612326565b60006140f773c03a2615d5efaf5f49f60b7bb6583eaec212fdf1613c67565b111561416057600b8054600160a060020a03191673c03a2615d5efaf5f49f60b7bb6583eaec212fdf117905560408051808201909152600c81527f6574685f726f707374656e33000000000000000000000000000000000000000060208201526140d09061436e565b600061417f73b7a07bcf2ba2f2703b24c0691b5278999c59ac7e613c67565b11156141e857600b8054600160a060020a03191673b7a07bcf2ba2f2703b24c0691b5278999c59ac7e17905560408051808201909152600981527f6574685f6b6f76616e000000000000000000000000000000000000000000000060208201526140d09061436e565b600061420773146500cfd35b22e4a392fe0adc06de1a1368ed48613c67565b111561426f57600b8054600160a060020a03191673146500cfd35b22e4a392fe0adc06de1a1368ed48178155604080518082019091529081527f6574685f72696e6b65627900000000000000000000000000000000000000000060208201526140d09061436e565b600061428e736f485c8bf6fc43ea212e93bbf8ce046c7f1cb475613c67565b11156142c25750600b8054600160a060020a031916736f485c8bf6fc43ea212e93bbf8ce046c7f1cb4751790556001612326565b60006142e17320e12a1f859b3feae5fb2a0a32c18f5a65555bbf613c67565b11156143155750600b8054600160a060020a0319167320e12a1f859b3feae5fb2a0a32c18f5a65555bbf1790556001612326565b60006143347351efaf4c8b3c9afbd5ab9f4bbc82784ab6ef8faa613c67565b11156143685750600b8054600160a060020a0319167351efaf4c8b3c9afbd5ab9f4bbc82784ab6ef8faa1790556001612326565b50600090565b805161145a90600d9060208401905b828054600181600116156101000203166002900490600052602060002090601f016020900481019282601f106143be57805160ff19168380011785556143eb565b828001600101855582156143eb579182015b828111156143eb5782518255916020019190600101906143d0565b506143f79291506143fb565b5090565b61232691905b808211156143f7576000815560010161440156009bc068999fb1a0aac007a9b44ca6322a376441f42706bf5163600bb3d1a731647ecbd54b3baea533cf57ef049f9e04554be6a660d6dacd477488066eedf27beea165627a7a72305820c6121be509a3705271e4aca7a611c13968a16d4998eb162d86fb283e7b31011d0029",
  "source": "pragma solidity ^0.4.20;\nimport \"./usingOraclize.sol\";\n//import \"github.com/oraclize/ethereum-api/oraclizeAPI.sol\";\nimport \"./Lucky7Admin.sol\";\n\n\ncontract Lucky7TicketFactory is Lucky7Admin, usingOraclize{\n    \n    function Lucky7TicketFactory() payable{\n        OAR = OraclizeAddrResolverI(0x6f485c8bf6fc43ea212e93bbf8ce046c7f1cb475);\n    }\n    \n    using SafeMath for uint256;\n    \n    event NewOraclizeQuery(string description);\n    event NewMuReceived(string muParameter);\n    event NewIReceived(string iParameter);\n    event NewTicketReceived(string newTicket);\n\n    \n    modifier oraclizeGasPriceCustomized{\n        oraclize_setCustomGasPrice(oraclizeCustomGasPrice);\n        _;\n    }\n    \n    uint public drawNumber = 0;\n    uint public indexForLucky7Array = 0;\n    \n    //Circuit breakers\n    bool public settingLucky7Numbers = true;\n    \n    function toggleLucky7Setting() public onlyOwner{\n        settingLucky7Numbers = !settingLucky7Numbers;\n    }\n    \n    struct UserParametersValue{\n        string mu;\n        string i;\n        uint ticketValue;\n        bool muReady;\n        bool iReady;\n        bool userPaidTicket;\n    }\n    \n    struct Ticket{\n        string mu;\n        string i;\n        uint ticketValue;\n        address owner;\n        uint drawID;\n    }\n    \n    struct Lucky7Number{\n        string mu;\n        string i;\n        uint ticketValue;\n        uint drawID;\n    }\n    \n    struct Lucky7Ticket{\n        uint difference;\n        address owner;\n        uint ticketID;\n        uint ticketValue;\n        uint lucky7Number;\n        uint lucky7NumberID;\n        uint drawID;\n    }\n    \n    Lucky7Ticket[] public lucky7Tickets;\n    Ticket[] public tickets;    \n    Lucky7Number[7] public lucky7Numbers;\n\n    mapping (address => UserParametersValue) public userValues;\n    mapping (bytes32 => address) muParameterID;\n    mapping (bytes32 => address) iParameterID;\n    mapping (bytes32 => address) ticketID;\n    mapping (uint => uint) public lucky7TicketDifference;\n    mapping (uint => address) public lucky7TicketOwner;\n    mapping (uint => uint) public lucky7TicketID;\n\n    function _askForMuParameter(address _ticketOwner) payable oraclizeGasPriceCustomized{\n        NewOraclizeQuery(\"Asking for a new mu parameter...\");\n        bytes32 muID = oraclize_query(\"WolframAlpha\",\"4 random number\",oraclizeGasLimit);\n        muParameterID[muID] = _ticketOwner;\n    }\n\n    function _askForIParameter(address _ticketOwner) oraclizeGasPriceCustomized{\n        NewOraclizeQuery(\"Asking for a new i parameter...\");\n        bytes32 iID = oraclize_query(\"WolframAlpha\",\"4 random number\",oraclizeGasLimit);\n        iParameterID[iID] = _ticketOwner;\n    }\n    \n    function _askForTicket(address _ticketOwner) oraclizeGasPriceCustomized{\n        NewOraclizeQuery(\"Asking for a new ticket...\");\n        bytes32 userTicketID = oraclize_query(\"WolframAlpha\", _setTicketQuery(_ticketOwner), oraclizeGasLimit);\n        ticketID[userTicketID] = _ticketOwner;\n    }\n    \n    function _generateTicket(address _ticketOwner) {\n        _askForMuParameter(_ticketOwner);\n        _askForIParameter(_ticketOwner);\n    }\n    \n    function _insertTicket(address _ticketOwner) internal {\n        uint id = tickets.push(Ticket(userValues[_ticketOwner].mu,userValues[_ticketOwner].i,userValues[_ticketOwner].ticketValue,_ticketOwner,drawNumber)) - 1;\n        _checkForLucky7Ticket(id);\n    }\n    \n    function _insertLucky7Number(address _ticketOwner) internal {\n        lucky7Numbers[indexForLucky7Array] = Lucky7Number(userValues[_ticketOwner].mu,userValues[_ticketOwner].i,userValues[_ticketOwner].ticketValue,drawNumber);\n        indexForLucky7Array++;\n    }\n    //SafeMath\n    function _checkForLucky7Ticket(uint _ticketID) public/*internal*/{\n        uint i;\n        uint difference;\n        \n        if(tickets[_ticketID].ticketValue>lucky7Numbers[numberOfLucky7Numbers-1].ticketValue){\n            i=numberOfLucky7Numbers-1;\n            difference = tickets[_ticketID].ticketValue.sub(lucky7Numbers[i].ticketValue);\n            \n        }\n        else if (tickets[_ticketID].ticketValue<lucky7Numbers[0].ticketValue){\n            i=0;\n            difference = lucky7Numbers[i].ticketValue.sub(tickets[_ticketID].ticketValue);\n        }\n        else{\n            while(tickets[_ticketID].ticketValue>lucky7Numbers[i].ticketValue){\n                i++;\n            }\n            \n            uint lowerLucky7NumberDifference = tickets[_ticketID].ticketValue.sub(lucky7Numbers[i-1].ticketValue);\n            uint upperLucky7NumberDifference = lucky7Numbers[i].ticketValue.sub(tickets[_ticketID].ticketValue);\n            \n            if(upperLucky7NumberDifference>lowerLucky7NumberDifference){\n                i=i-1;\n                difference = lowerLucky7NumberDifference;\n            }\n            else{\n                difference = upperLucky7NumberDifference;\n            }\n        }\n        \n        if(lucky7TicketOwner[i] == address(0x0) || difference<lucky7TicketDifference[i]){\n            lucky7TicketOwner[i] = tickets[_ticketID].owner;\n            lucky7TicketDifference[i] = difference;\n            lucky7TicketID[i] = _ticketID;\n        }\n    }\n    \n    function _setTicketQuery(address _parametersOwner) internal returns (string){\n        string memory queryWolfram;\n        //This line => (mod((1/(10^n-mu))*10^    \n        queryWolfram = strConcat(\"(mod((1/(10^\",n,\"-\",userValues[_parametersOwner].mu,\"))*10^\");\n        //This line => (mod((1/(10^n-mu))*10^p,10^(j+\n        queryWolfram = strConcat(queryWolfram,p,\",10^(\",j,\"+\");\n        //This line => (mod((1/(10^n-mu))*10^p,10^(j+i))-mod((1/(10^n-\n        queryWolfram = strConcat(queryWolfram,userValues[_parametersOwner].i,\")-mod((1/(10^\",n,\"-\");\n        //This line => (mod((1/(10^n-mu))*10^p,10^(j+i))-mod((1/(10^n-mu))*10^p,10^\n        queryWolfram = strConcat(queryWolfram,userValues[_parametersOwner].mu,\"))*10^\",p,\",10^\");\n        //This line => (mod((1/(10^n-mu))*10^p,10^(j+i))-mod((1/(10^n-mu))*10^p,10^(i)))/10^i\n        queryWolfram = strConcat(queryWolfram,\"(\",userValues[_parametersOwner].i,\")))/10^\",userValues[_parametersOwner].i);\n        return queryWolfram;\n    }\n    \n    function __callback(bytes32 myid, string result) public{\n        require(msg.sender == oraclize_cbAddress());\n        if(muParameterID[myid]!=0 && userValues[muParameterID[myid]].muReady==false){\n            userValues[muParameterID[myid]].mu=result;\n            NewMuReceived(result);\n            userValues[muParameterID[myid]].muReady=true;\n            if(userValues[muParameterID[myid]].iReady == true && (userValues[muParameterID[myid]].userPaidTicket==true || settingLucky7Numbers==true )){\n                _askForTicket(muParameterID[myid]);\n            }\n        }\n        else if (iParameterID[myid]!=0 && userValues[iParameterID[myid]].iReady==false){\n            userValues[iParameterID[myid]].i=result;\n            NewIReceived(result);\n            userValues[iParameterID[myid]].iReady=true;\n            if(userValues[iParameterID[myid]].muReady == true && (userValues[iParameterID[myid]].userPaidTicket==true || settingLucky7Numbers==true )){\n                _askForTicket(iParameterID[myid]);\n            }\n        }\n        else if (ticketID[myid]!=0 &&  (userValues[ticketID[myid]].userPaidTicket==true || settingLucky7Numbers==true )){\n            userValues[ticketID[myid]].ticketValue=parseInt(result);\n            NewTicketReceived(result);\n            userValues[ticketID[myid]].userPaidTicket=false;\n            if(settingLucky7Numbers==true){\n                _insertLucky7Number(ticketID[myid]);\n            }\n            else{\n                _insertTicket(ticketID[myid]);\n            }\n        }\n    }\n\n    function() public payable{}\n}   \n                                           \n",
  "sourcePath": "/Users/matiasbarrios/Desktop/Proyecto Consensys/luckyseven/contracts/Lucky7TicketFactory.sol",
  "compiler": {
    "name": "solc",
    "version": "0.4.24+commit.e67f0147.Emscripten.clang"
  },
  "schemaVersion": "2.0.1",
  "updatedAt": "2018-08-24T20:45:46.141Z"
}