{
  "contractName": "Lucky7TicketFactory",
  "abi": [
    {
      "constant": false,
      "inputs": [
        {
          "name": "_newValue",
          "type": "string"
        }
      ],
      "name": "modifyParameterN",
      "outputs": [],
      "payable": false,
      "stateMutability": "nonpayable",
      "type": "function"
    },
    {
      "constant": true,
      "inputs": [
        {
          "name": "",
          "type": "uint256"
        }
      ],
      "name": "lucky7TicketID",
      "outputs": [
        {
          "name": "",
          "type": "uint256"
        }
      ],
      "payable": false,
      "stateMutability": "view",
      "type": "function"
    },
    {
      "constant": true,
      "inputs": [
        {
          "name": "",
          "type": "uint256"
        }
      ],
      "name": "lucky7TicketOwner",
      "outputs": [
        {
          "name": "",
          "type": "address"
        }
      ],
      "payable": false,
      "stateMutability": "view",
      "type": "function"
    },
    {
      "constant": true,
      "inputs": [],
      "name": "settingLucky7Numbers",
      "outputs": [
        {
          "name": "",
          "type": "bool"
        }
      ],
      "payable": false,
      "stateMutability": "view",
      "type": "function"
    },
    {
      "constant": true,
      "inputs": [],
      "name": "n",
      "outputs": [
        {
          "name": "",
          "type": "string"
        }
      ],
      "payable": false,
      "stateMutability": "view",
      "type": "function"
    },
    {
      "constant": true,
      "inputs": [
        {
          "name": "",
          "type": "uint256"
        }
      ],
      "name": "lucky7Tickets",
      "outputs": [
        {
          "name": "difference",
          "type": "uint256"
        },
        {
          "name": "owner",
          "type": "address"
        },
        {
          "name": "ticketID",
          "type": "uint256"
        },
        {
          "name": "ticketValue",
          "type": "uint256"
        },
        {
          "name": "lucky7Number",
          "type": "uint256"
        },
        {
          "name": "lucky7NumberID",
          "type": "uint256"
        },
        {
          "name": "drawID",
          "type": "uint256"
        }
      ],
      "payable": false,
      "stateMutability": "view",
      "type": "function"
    },
    {
      "constant": false,
      "inputs": [
        {
          "name": "_newValue",
          "type": "string"
        }
      ],
      "name": "modifyParameterJ",
      "outputs": [],
      "payable": false,
      "stateMutability": "nonpayable",
      "type": "function"
    },
    {
      "constant": true,
      "inputs": [
        {
          "name": "",
          "type": "uint256"
        }
      ],
      "name": "lucky7Numbers",
      "outputs": [
        {
          "name": "mu",
          "type": "string"
        },
        {
          "name": "i",
          "type": "string"
        },
        {
          "name": "ticketValue",
          "type": "uint256"
        },
        {
          "name": "drawID",
          "type": "uint256"
        }
      ],
      "payable": false,
      "stateMutability": "view",
      "type": "function"
    },
    {
      "constant": true,
      "inputs": [
        {
          "name": "",
          "type": "address"
        }
      ],
      "name": "userValues",
      "outputs": [
        {
          "name": "mu",
          "type": "string"
        },
        {
          "name": "i",
          "type": "string"
        },
        {
          "name": "ticketValue",
          "type": "uint256"
        },
        {
          "name": "muReady",
          "type": "bool"
        },
        {
          "name": "iReady",
          "type": "bool"
        },
        {
          "name": "userPaidTicket",
          "type": "bool"
        }
      ],
      "payable": false,
      "stateMutability": "view",
      "type": "function"
    },
    {
      "constant": true,
      "inputs": [],
      "name": "b",
      "outputs": [
        {
          "name": "",
          "type": "string"
        }
      ],
      "payable": false,
      "stateMutability": "view",
      "type": "function"
    },
    {
      "constant": true,
      "inputs": [
        {
          "name": "",
          "type": "uint256"
        }
      ],
      "name": "tickets",
      "outputs": [
        {
          "name": "mu",
          "type": "string"
        },
        {
          "name": "i",
          "type": "string"
        },
        {
          "name": "ticketValue",
          "type": "uint256"
        },
        {
          "name": "owner",
          "type": "address"
        },
        {
          "name": "drawID",
          "type": "uint256"
        }
      ],
      "payable": false,
      "stateMutability": "view",
      "type": "function"
    },
    {
      "constant": true,
      "inputs": [],
      "name": "oraclizeGasLimit",
      "outputs": [
        {
          "name": "",
          "type": "uint256"
        }
      ],
      "payable": false,
      "stateMutability": "view",
      "type": "function"
    },
    {
      "constant": true,
      "inputs": [],
      "name": "numberOfLucky7Numbers",
      "outputs": [
        {
          "name": "",
          "type": "uint256"
        }
      ],
      "payable": false,
      "stateMutability": "view",
      "type": "function"
    },
    {
      "constant": false,
      "inputs": [],
      "name": "renounceOwnership",
      "outputs": [],
      "payable": false,
      "stateMutability": "nonpayable",
      "type": "function"
    },
    {
      "constant": true,
      "inputs": [],
      "name": "enterpriseWallet",
      "outputs": [
        {
          "name": "",
          "type": "address"
        }
      ],
      "payable": false,
      "stateMutability": "view",
      "type": "function"
    },
    {
      "constant": false,
      "inputs": [
        {
          "name": "_newValue",
          "type": "uint256"
        }
      ],
      "name": "modifyOraclizeGasLimit",
      "outputs": [],
      "payable": false,
      "stateMutability": "nonpayable",
      "type": "function"
    },
    {
      "constant": false,
      "inputs": [
        {
          "name": "_newValue",
          "type": "string"
        }
      ],
      "name": "modifyParameterB",
      "outputs": [],
      "payable": false,
      "stateMutability": "nonpayable",
      "type": "function"
    },
    {
      "constant": false,
      "inputs": [
        {
          "name": "_newValue",
          "type": "uint256"
        }
      ],
      "name": "modifyGenerateTicketPrice",
      "outputs": [],
      "payable": false,
      "stateMutability": "nonpayable",
      "type": "function"
    },
    {
      "constant": true,
      "inputs": [],
      "name": "numberOfWinners",
      "outputs": [
        {
          "name": "",
          "type": "uint256"
        }
      ],
      "payable": false,
      "stateMutability": "view",
      "type": "function"
    },
    {
      "constant": true,
      "inputs": [],
      "name": "owner",
      "outputs": [
        {
          "name": "",
          "type": "address"
        }
      ],
      "payable": false,
      "stateMutability": "view",
      "type": "function"
    },
    {
      "constant": false,
      "inputs": [
        {
          "name": "_newAddress",
          "type": "address"
        }
      ],
      "name": "modifyEnterprisePrize",
      "outputs": [],
      "payable": false,
      "stateMutability": "nonpayable",
      "type": "function"
    },
    {
      "constant": true,
      "inputs": [],
      "name": "oraclizeCustomGasPrice",
      "outputs": [
        {
          "name": "",
          "type": "uint256"
        }
      ],
      "payable": false,
      "stateMutability": "view",
      "type": "function"
    },
    {
      "constant": true,
      "inputs": [],
      "name": "p",
      "outputs": [
        {
          "name": "",
          "type": "string"
        }
      ],
      "payable": false,
      "stateMutability": "view",
      "type": "function"
    },
    {
      "constant": false,
      "inputs": [
        {
          "name": "_newValue",
          "type": "string"
        }
      ],
      "name": "modifyParameterP",
      "outputs": [],
      "payable": false,
      "stateMutability": "nonpayable",
      "type": "function"
    },
    {
      "constant": true,
      "inputs": [],
      "name": "j",
      "outputs": [
        {
          "name": "",
          "type": "string"
        }
      ],
      "payable": false,
      "stateMutability": "view",
      "type": "function"
    },
    {
      "constant": true,
      "inputs": [],
      "name": "balance",
      "outputs": [
        {
          "name": "",
          "type": "uint256"
        }
      ],
      "payable": false,
      "stateMutability": "view",
      "type": "function"
    },
    {
      "constant": false,
      "inputs": [
        {
          "name": "_newValue",
          "type": "uint256"
        }
      ],
      "name": "modifySellTicketPrice",
      "outputs": [],
      "payable": false,
      "stateMutability": "nonpayable",
      "type": "function"
    },
    {
      "constant": true,
      "inputs": [],
      "name": "indexForLucky7Array",
      "outputs": [
        {
          "name": "",
          "type": "uint256"
        }
      ],
      "payable": false,
      "stateMutability": "view",
      "type": "function"
    },
    {
      "constant": false,
      "inputs": [
        {
          "name": "_newValue",
          "type": "uint256"
        }
      ],
      "name": "modifyNumberOfLucky7Numbers",
      "outputs": [],
      "payable": false,
      "stateMutability": "nonpayable",
      "type": "function"
    },
    {
      "constant": false,
      "inputs": [
        {
          "name": "_newValue",
          "type": "uint256"
        }
      ],
      "name": "modifyNumberOfWinners",
      "outputs": [],
      "payable": false,
      "stateMutability": "nonpayable",
      "type": "function"
    },
    {
      "constant": false,
      "inputs": [
        {
          "name": "_newValue",
          "type": "uint256"
        }
      ],
      "name": "modifyOraclizeCustomGasPrice",
      "outputs": [],
      "payable": false,
      "stateMutability": "nonpayable",
      "type": "function"
    },
    {
      "constant": true,
      "inputs": [],
      "name": "generateTicketPrice",
      "outputs": [
        {
          "name": "",
          "type": "uint256"
        }
      ],
      "payable": false,
      "stateMutability": "view",
      "type": "function"
    },
    {
      "constant": true,
      "inputs": [],
      "name": "drawNumber",
      "outputs": [
        {
          "name": "",
          "type": "uint256"
        }
      ],
      "payable": false,
      "stateMutability": "view",
      "type": "function"
    },
    {
      "constant": true,
      "inputs": [],
      "name": "sellTicketPrice",
      "outputs": [
        {
          "name": "",
          "type": "uint256"
        }
      ],
      "payable": false,
      "stateMutability": "view",
      "type": "function"
    },
    {
      "constant": true,
      "inputs": [
        {
          "name": "",
          "type": "uint256"
        }
      ],
      "name": "lucky7TicketDifference",
      "outputs": [
        {
          "name": "",
          "type": "uint256"
        }
      ],
      "payable": false,
      "stateMutability": "view",
      "type": "function"
    },
    {
      "constant": false,
      "inputs": [
        {
          "name": "_newOwner",
          "type": "address"
        }
      ],
      "name": "transferOwnership",
      "outputs": [],
      "payable": false,
      "stateMutability": "nonpayable",
      "type": "function"
    },
    {
      "inputs": [],
      "payable": true,
      "stateMutability": "payable",
      "type": "constructor"
    },
    {
      "anonymous": false,
      "inputs": [
        {
          "indexed": false,
          "name": "description",
          "type": "string"
        }
      ],
      "name": "newOraclizeQuery",
      "type": "event"
    },
    {
      "anonymous": false,
      "inputs": [
        {
          "indexed": false,
          "name": "parameterOwner",
          "type": "address"
        },
        {
          "indexed": false,
          "name": "muParameter",
          "type": "string"
        }
      ],
      "name": "newMuReceived",
      "type": "event"
    },
    {
      "anonymous": false,
      "inputs": [
        {
          "indexed": false,
          "name": "parameterOwner",
          "type": "address"
        },
        {
          "indexed": false,
          "name": "iParameter",
          "type": "string"
        }
      ],
      "name": "newIReceived",
      "type": "event"
    },
    {
      "anonymous": false,
      "inputs": [
        {
          "indexed": false,
          "name": "parameterOwner",
          "type": "address"
        },
        {
          "indexed": false,
          "name": "newTicket",
          "type": "string"
        }
      ],
      "name": "newTicketReceived",
      "type": "event"
    },
    {
      "anonymous": false,
      "inputs": [
        {
          "indexed": false,
          "name": "feeType",
          "type": "string"
        },
        {
          "indexed": false,
          "name": "_oldValue",
          "type": "uint256"
        },
        {
          "indexed": false,
          "name": "_newValue",
          "type": "uint256"
        }
      ],
      "name": "numberModified",
      "type": "event"
    },
    {
      "anonymous": false,
      "inputs": [
        {
          "indexed": false,
          "name": "parameter",
          "type": "string"
        },
        {
          "indexed": false,
          "name": "_oldValue",
          "type": "string"
        },
        {
          "indexed": false,
          "name": "_newValue",
          "type": "string"
        }
      ],
      "name": "parameterModified",
      "type": "event"
    },
    {
      "anonymous": false,
      "inputs": [
        {
          "indexed": false,
          "name": "parameter",
          "type": "string"
        },
        {
          "indexed": false,
          "name": "_oldValue",
          "type": "address"
        },
        {
          "indexed": false,
          "name": "_newValue",
          "type": "address"
        }
      ],
      "name": "walletModified",
      "type": "event"
    },
    {
      "anonymous": false,
      "inputs": [
        {
          "indexed": true,
          "name": "previousOwner",
          "type": "address"
        }
      ],
      "name": "OwnershipRenounced",
      "type": "event"
    },
    {
      "anonymous": false,
      "inputs": [
        {
          "indexed": true,
          "name": "previousOwner",
          "type": "address"
        },
        {
          "indexed": true,
          "name": "newOwner",
          "type": "address"
        }
      ],
      "name": "OwnershipTransferred",
      "type": "event"
    },
    {
      "constant": false,
      "inputs": [],
      "name": "toggleLucky7Setting",
      "outputs": [],
      "payable": false,
      "stateMutability": "nonpayable",
      "type": "function"
    },
    {
      "constant": false,
      "inputs": [
        {
          "name": "_ticketOwner",
          "type": "address"
        }
      ],
      "name": "_askForMuParameter",
      "outputs": [],
      "payable": false,
      "stateMutability": "nonpayable",
      "type": "function"
    },
    {
      "constant": false,
      "inputs": [
        {
          "name": "_ticketOwner",
          "type": "address"
        }
      ],
      "name": "_askForIParameter",
      "outputs": [],
      "payable": false,
      "stateMutability": "nonpayable",
      "type": "function"
    },
    {
      "constant": false,
      "inputs": [
        {
          "name": "_ticketOwner",
          "type": "address"
        }
      ],
      "name": "_askForTicket",
      "outputs": [],
      "payable": false,
      "stateMutability": "nonpayable",
      "type": "function"
    },
    {
      "constant": false,
      "inputs": [
        {
          "name": "_ticketOwner",
          "type": "address"
        }
      ],
      "name": "_generateTicket",
      "outputs": [],
      "payable": false,
      "stateMutability": "nonpayable",
      "type": "function"
    },
    {
      "constant": false,
      "inputs": [
        {
          "name": "_ticketID",
          "type": "uint256"
        }
      ],
      "name": "_checkForLucky7Ticket",
      "outputs": [],
      "payable": false,
      "stateMutability": "nonpayable",
      "type": "function"
    },
    {
      "constant": false,
      "inputs": [
        {
          "name": "myid",
          "type": "bytes32"
        },
        {
          "name": "result",
          "type": "string"
        }
      ],
      "name": "__callback",
      "outputs": [],
      "payable": false,
      "stateMutability": "nonpayable",
      "type": "function"
    },
    {
      "constant": false,
      "inputs": [
        {
          "name": "myid",
          "type": "bytes32"
        },
        {
          "name": "result",
          "type": "string"
        },
        {
          "name": "proof",
          "type": "bytes"
        }
      ],
      "name": "__callback",
      "outputs": [],
      "payable": false,
      "stateMutability": "nonpayable",
      "type": "function"
    }
  ],
  "bytecode": "0x60c0604052600160808190527f310000000000000000000000000000000000000000000000000000000000000060a0908152620000409160069190620001ab565b506040805180820190915260018082527f380000000000000000000000000000000000000000000000000000000000000060209092019182526200008791600791620001ab565b506040805180820190915260058082527f31303030300000000000000000000000000000000000000000000000000000006020909201918252620000ce91600891620001ab565b506040805180820190915260028082527f323000000000000000000000000000000000000000000000000000000000000060209092019182526200011591600991620001ab565b506007600a556003600b556611c37937e08000600c55662aa1efb94e0000600d55620493e0600e5563ee6b2800600f556005805460108054600160a060020a0319908116600160a060020a038416179091556000601181905560128190556013805460ff1916600117905591811633179092558054909116736f485c8bf6fc43ea212e93bbf8ce046c7f1cb47517905562000250565b828054600181600116156101000203166002900490600052602060002090601f016020900481019282601f10620001ee57805160ff19168380011785556200021e565b828001600101855582156200021e579182015b828111156200021e57825182559160200191906001019062000201565b506200022c92915062000230565b5090565b6200024d91905b808211156200022c576000815560010162000237565b90565b6142b680620002606000396000f3006080604052600436106102005763ffffffff60e060020a6000350416630cc38b2b811461020557806310cd4b8a146102605780631c3ed1d31461028a57806323d370ba146102be57806327dc297e146102df5780632caf9eee1461033d5780632de729eb146103665780632e52d6061461037e57806338bbfa5014610408578063396fb422146104a457806339df3f4f146104fc5780633bb7daf4146105115780633eba34661461056a5780634acfd9b81461066e5780634df7e3d01461078d57806350b44712146107a257806350b9c428146108b557806359f9fe82146108ca578063715018a6146108df578063741606b5146108f457806377d8a83014610909578063809fc1531461092a57806383bb7bb7146109425780638aa5fafa1461099b5780638acfaca9146109b35780638da5cb5b146109c857806396701ce9146109dd5780639ac2bf91146109fe5780639ae8886a14610a135780639dec38ab14610a28578063b582ec5f14610a81578063b69ef8a814610a96578063bcb740ab14610aab578063c56969ab14610ac3578063c71f04ac14610ad8578063c90cdc7e14610af0578063d383e86214610b08578063d566bcf014610b20578063d80ffb2014610b35578063ddc110fa14610b4a578063e5663c4814610b6b578063e802ae1414610b80578063f2fde38b14610b98578063fd9be1b214610bb9575b600080fd5b34801561021157600080fd5b506040805160206004803580820135601f810184900484028501840190955284845261025e943694929360249392840191908190840183828082843750949750610bda9650505050505050565b005b34801561026c57600080fd5b50610278600435610dc2565b60408051918252519081900360200190f35b34801561029657600080fd5b506102a2600435610dd4565b60408051600160a060020a039092168252519081900360200190f35b3480156102ca57600080fd5b5061025e600160a060020a0360043516610def565b3480156102eb57600080fd5b5060408051602060046024803582810135601f810185900485028601850190965285855261025e958335953695604494919390910191908190840183828082843750949750610f019650505050505050565b34801561034957600080fd5b50610352611518565b604080519115158252519081900360200190f35b34801561037257600080fd5b5061025e600435611521565b34801561038a57600080fd5b50610393611763565b6040805160208082528351818301528351919283929083019185019080838360005b838110156103cd5781810151838201526020016103b5565b50505050905090810190601f1680156103fa5780820380516001836020036101000a031916815260200191505b509250505060405180910390f35b34801561041457600080fd5b5060408051602060046024803582810135601f810185900485028601850190965285855261025e95833595369560449491939091019190819084018382808284375050604080516020601f89358b018035918201839004830284018301909452808352979a9998810197919650918201945092508291508401838280828437509497506117f19650505050505050565b3480156104b057600080fd5b506104bc6004356117f6565b60408051978852600160a060020a039096166020880152868601949094526060860192909252608085015260a084015260c0830152519081900360e00190f35b34801561050857600080fd5b5061025e61184d565b34801561051d57600080fd5b506040805160206004803580820135601f810184900484028501840190955284845261025e9436949293602493928401919081908401838280828437509497506118789650505050505050565b34801561057657600080fd5b506105826004356119be565b604051808060200180602001858152602001848152602001838103835287818151815260200191508051906020019080838360005b838110156105cf5781810151838201526020016105b7565b50505050905090810190601f1680156105fc5780820380516001836020036101000a031916815260200191505b50838103825286518152865160209182019188019080838360005b8381101561062f578181015183820152602001610617565b50505050905090810190601f16801561065c5780820380516001836020036101000a031916815260200191505b50965050505050505060405180910390f35b34801561067a57600080fd5b5061068f600160a060020a0360043516611b0a565b604080519081018590528315156060820152821515608082015281151560a082015260c08082528751908201528651819060208083019160e08401918b019080838360005b838110156106ec5781810151838201526020016106d4565b50505050905090810190601f1680156107195780820380516001836020036101000a031916815260200191505b5083810382528851815288516020918201918a019080838360005b8381101561074c578181015183820152602001610734565b50505050905090810190601f1680156107795780820380516001836020036101000a031916815260200191505b509850505050505050505060405180910390f35b34801561079957600080fd5b50610393611c6a565b3480156107ae57600080fd5b506107ba600435611cc5565b60408051908101849052600160a060020a03831660608201526080810182905260a08082528651908201528551819060208083019160c08401918a019080838360005b838110156108155781810151838201526020016107fd565b50505050905090810190601f1680156108425780820380516001836020036101000a031916815260200191505b50838103825287518152875160209182019189019080838360005b8381101561087557818101518382015260200161085d565b50505050905090810190601f1680156108a25780820380516001836020036101000a031916815260200191505b5097505050505050505060405180910390f35b3480156108c157600080fd5b50610278611e32565b3480156108d657600080fd5b50610278611e38565b3480156108eb57600080fd5b5061025e611e3e565b34801561090057600080fd5b506102a2611e9f565b34801561091557600080fd5b5061025e600160a060020a0360043516611eae565b34801561093657600080fd5b5061025e600435611ec3565b34801561094e57600080fd5b506040805160206004803580820135601f810184900484028501840190955284845261025e943694929360249392840191908190840183828082843750949750611f469650505050505050565b3480156109a757600080fd5b5061025e60043561208c565b3480156109bf57600080fd5b5061027861210f565b3480156109d457600080fd5b506102a2612115565b3480156109e957600080fd5b5061025e600160a060020a0360043516612124565b348015610a0a57600080fd5b506102786121d5565b348015610a1f57600080fd5b506103936121db565b348015610a3457600080fd5b506040805160206004803580820135601f810184900484028501840190955284845261025e9436949293602493928401919081908401838280828437509497506122369650505050505050565b348015610a8d57600080fd5b5061039361237c565b348015610aa257600080fd5b506102786123d7565b348015610ab757600080fd5b5061025e6004356123f8565b348015610acf57600080fd5b5061027861247b565b348015610ae457600080fd5b5061025e600435612481565b348015610afc57600080fd5b5061025e600435612504565b348015610b1457600080fd5b5061025e600435612587565b348015610b2c57600080fd5b50610278612630565b348015610b4157600080fd5b50610278612636565b348015610b5657600080fd5b5061025e600160a060020a036004351661263c565b348015610b7757600080fd5b50610278612723565b348015610b8c57600080fd5b50610278600435612729565b348015610ba457600080fd5b5061025e600160a060020a036004351661273b565b348015610bc557600080fd5b5061025e600160a060020a036004351661275b565b600554606090600160a060020a03163314610bf457600080fd5b6007805460408051602060026001851615610100026000190190941693909304601f81018490048402820184019092528181529291830182828015610c7a5780601f10610c4f57610100808354040283529160200191610c7a565b820191906000526020600020905b815481529060010190602001808311610c5d57829003601f168201915b50508551939450610c96936007935060208701925090506141b2565b5060008051602061426b833981519152818360405180806020018060200180602001848103845260148152602001807f506172616d65746572206e206d6f646966696564000000000000000000000000815250602001848103835286818151815260200191508051906020019080838360005b83811015610d21578181015183820152602001610d09565b50505050905090810190601f168015610d4e5780820380516001836020036101000a031916815260200191505b50848103825285518152855160209182019187019080838360005b83811015610d81578181015183820152602001610d69565b50505050905090810190601f168015610dae5780820380516001836020036101000a031916815260200191505b509550505050505060405180910390a15050565b60386020526000908152604090205481565b603760205260009081526040902054600160a060020a031681565b6000610dfc600f5461286f565b604080516020808252808201527f41736b696e6720666f722061206e6577206d7520706172616d657465722e2e2e8183015290517f46cb989ef9cef13e930e3b7f286225a086e716a90d63e0b7da85d310a9db0c9a9181900360600190a1610ed16040805190810160405280600c81526020017f576f6c6672616d416c70686100000000000000000000000000000000000000008152506040805190810160405280600f81526020017f342072616e646f6d206e756d6265720000000000000000000000000000000000815250600e54612a55565b60009081526033602052604090208054600160a060020a031916600160a060020a03939093169290921790915550565b610f09612e56565b600160a060020a03163314610f1d57600080fd5b600082815260336020526040902054600160a060020a031615801590610f6b5750600082815260336020908152604080832054600160a060020a03168352603290915290206003015460ff16155b1561112d57600082815260336020908152604080832054600160a060020a03168352603282529091208251610fa2928401906141b2565b506000828152603360209081526040808320548151600160a060020a0390911680825281840183815286519383019390935285517f47eedbcfd0da23d2413b78bd7807ecbde2a9754fa0dc19185984a244d9cd773a959194879492606085019291860191908190849084905b8381101561102657818101518382015260200161100e565b50505050905090810190601f1680156110535780820380516001836020036101000a031916815260200191505b50935050505060405180910390a160008281526033602090815260408083208054600160a060020a03908116855260329093528184206003908101805460ff191660019081179091559154909316845292200154610100900460ff1615151480156111025750600082815260336020908152604080832054600160a060020a03168352603290915290206003015460ff6201000090910416151560011480611102575060135460ff1615156001145b156111285760008281526033602052604090205461112890600160a060020a031661263c565b611514565b600082815260346020526040902054600160a060020a0316158015906111805750600082815260346020908152604080832054600160a060020a031683526032909152902060030154610100900460ff16155b1561134057600082815260346020908152604080832054600160a060020a031683526032825290912082516111bd926001909201918401906141b2565b506000828152603460209081526040808320548151600160a060020a0390911680825281840183815286519383019390935285517f493aa57ad5f18480f956f6979e26052f3c3e9b6f4985b1331bfa696904e10cd5959194879492606085019291860191908190849084905b83811015611241578181015183820152602001611229565b50505050905090810190601f16801561126e5780820380516001836020036101000a031916815260200191505b50935050505060405180910390a160008281526034602090815260408083208054600160a060020a03908116855260329093528184206003908101805461ff00191661010017905590549092168352909120015460ff161515600114801561131a5750600082815260346020908152604080832054600160a060020a03168352603290915290206003015460ff620100009091041615156001148061131a575060135460ff1615156001145b156111285760008281526034602052604090205461112890600160a060020a031661263c565b600082815260356020526040902054600160a060020a0316158015906113aa5750600082815260356020908152604080832054600160a060020a03168352603290915290206003015460ff62010000909104161515600114806113aa575060135460ff1615156001145b15611514576113b881613047565b60008381526035602081815260408084208054600160a060020a039081168652603284528286206002019690965587855292825291548251941680855284820183815286519386019390935285517f3c6507a39df055ecbb0672078b29c556fa529767da7d5676e77478914e3b5987959194879492936060850192908601918190849084905b8381101561145657818101518382015260200161143e565b50505050905090810190601f1680156114835780820380516001836020036101000a031916815260200191505b50935050505060405180910390a1600082815260356020908152604080832054600160a060020a0316835260329091529020600301805462ff00001916905560135460ff161515600114156114f35760008281526035602052604090205461112890600160a060020a031661305a565b60008281526035602052604090205461151490600160a060020a0316613263565b5050565b60135460ff1681565b60008060008060166001600a540360078110151561153b57fe5b600402016002015460158681548110151561155257fe5b90600052602060002090600502016002015411156115c157600a546000190193506115ba6016856007811061158357fe5b600402016002015460158781548110151561159a57fe5b90600052602060002090600502016002015461349e90919063ffffffff16565b92506116c2565b60185460158054879081106115d257fe5b906000526020600020906005020160020154101561163757600093506115ba60158681548110151561160057fe5b90600052602060002090600502016002015460168660078110151561162157fe5b600402016002015461349e90919063ffffffff16565b6016846007811061164457fe5b600402016002015460158681548110151561165b57fe5b906000526020600020906005020160020154111561167e57600190930192611637565b611692601660001986016007811061158357fe5b91506116a660158681548110151561160057fe5b9050818111156116be576001840393508192506116c2565b8092505b600084815260376020526040902054600160a060020a031615806116f3575060008481526036602052604090205483105b1561175c57601580548690811061170657fe5b60009182526020808320600360059093020191909101548683526037825260408084208054600160a060020a031916600160a060020a039093169290921790915560368252808320869055603890915290208590555b5050505050565b6007805460408051602060026001851615610100026000190190941693909304601f810184900484028201840190925281815292918301828280156117e95780601f106117be576101008083540402835291602001916117e9565b820191906000526020600020905b8154815290600101906020018083116117cc57829003601f168201915b505050505081565b505050565b601480548290811061180457fe5b60009182526020909120600790910201805460018201546002830154600384015460048501546005860154600690960154949650600160a060020a039093169491939092919087565b600554600160a060020a0316331461186457600080fd5b6013805460ff19811660ff90911615179055565b600554606090600160a060020a0316331461189257600080fd5b6009805460408051602060026001851615610100026000190190941693909304601f810184900484028201840190925281815292918301828280156119185780601f106118ed57610100808354040283529160200191611918565b820191906000526020600020905b8154815290600101906020018083116118fb57829003601f168201915b50508551939450611934936009935060208701925090506141b2565b5060008051602061426b833981519152818360405180806020018060200180602001848103845260148152602001807f506172616d65746572206a206d6f6469666965640000000000000000000000008152506020018481038352868181518152602001915080519060200190808383600083811015610d21578181015183820152602001610d09565b601681600781106119cb57fe5b60040201805460408051602060026001851615610100026000190190941693909304601f81018490048402820184019092528181529293508391830182828015611a565780601f10611a2b57610100808354040283529160200191611a56565b820191906000526020600020905b815481529060010190602001808311611a3957829003601f168201915b505050505090806001018054600181600116156101000203166002900480601f016020809104026020016040519081016040528092919081815260200182805460018160011615610100020316600290048015611af45780601f10611ac957610100808354040283529160200191611af4565b820191906000526020600020905b815481529060010190602001808311611ad757829003601f168201915b5050505050908060020154908060030154905084565b60326020908152600091825260409182902080548351601f60026000196101006001861615020190931692909204918201849004840281018401909452808452909291839190830182828015611ba15780601f10611b7657610100808354040283529160200191611ba1565b820191906000526020600020905b815481529060010190602001808311611b8457829003601f168201915b505050505090806001018054600181600116156101000203166002900480601f016020809104026020016040519081016040528092919081815260200182805460018160011615610100020316600290048015611c3f5780601f10611c1457610100808354040283529160200191611c3f565b820191906000526020600020905b815481529060010190602001808311611c2257829003601f168201915b50505050600283015460039093015491929160ff808216925061010082048116916201000090041686565b6006805460408051602060026001851615610100026000190190941693909304601f810184900484028201840190925281815292918301828280156117e95780601f106117be576101008083540402835291602001916117e9565b6015805482908110611cd357fe5b60009182526020918290206005919091020180546040805160026001841615610100026000190190931692909204601f810185900485028301850190915280825291935091839190830182828015611d6c5780601f10611d4157610100808354040283529160200191611d6c565b820191906000526020600020905b815481529060010190602001808311611d4f57829003601f168201915b505050505090806001018054600181600116156101000203166002900480601f016020809104026020016040519081016040528092919081815260200182805460018160011615610100020316600290048015611e0a5780601f10611ddf57610100808354040283529160200191611e0a565b820191906000526020600020905b815481529060010190602001808311611ded57829003601f168201915b505050506002830154600384015460049094015492939092600160a060020a03909116915085565b600e5481565b600a5481565b600554600160a060020a03163314611e5557600080fd5b600554604051600160a060020a03909116907ff8df31144d9c2f0f6b59d69b8b98abd5459d07f2742c4df920b25aae33c6482090600090a260058054600160a060020a0319169055565b601054600160a060020a031681565b611eb781610def565b611ec08161275b565b50565b600554600090600160a060020a03163314611edd57600080fd5b50600e80549082905560408051602081018390528082018490526060808252601a908201527f4f7261636c697a6520676173206c696d6974206368616e6765640000000000006080820152905160008051602061424b8339815191529181900360a00190a15050565b600554606090600160a060020a03163314611f6057600080fd5b6006805460408051602060026001851615610100026000190190941693909304601f81018490048402820184019092528181529291830182828015611fe65780601f10611fbb57610100808354040283529160200191611fe6565b820191906000526020600020905b815481529060010190602001808311611fc957829003601f168201915b50508551939450612002936006935060208701925090506141b2565b5060008051602061426b833981519152818360405180806020018060200180602001848103845260148152602001807f506172616d657465722062206d6f6469666965640000000000000000000000008152506020018481038352868181518152602001915080519060200190808383600083811015610d21578181015183820152602001610d09565b600554600090600160a060020a031633146120a657600080fd5b50600c80549082905560408051602081018390528082018490526060808252601d908201527f47656e6572617465207469636b6574207072696365206368616e6765640000006080820152905160008051602061424b8339815191529181900360a00190a15050565b600b5481565b600554600160a060020a031681565b600554600090600160a060020a0316331461213e57600080fd5b5060108054600160a060020a03838116600160a060020a0319831681179093556040805191909216602082018190528183019390935260608082526019908201527f456e74657270726973652077616c6c6574206368616e67656400000000000000608082015290517f223db053947bb148de510715d3c7d8ccd72bdd376752fd735ee7bd0bd0ece5bf9181900360a00190a15050565b600f5481565b6008805460408051602060026001851615610100026000190190941693909304601f810184900484028201840190925281815292918301828280156117e95780601f106117be576101008083540402835291602001916117e9565b600554606090600160a060020a0316331461225057600080fd5b6008805460408051602060026001851615610100026000190190941693909304601f810184900484028201840190925281815292918301828280156122d65780601f106122ab576101008083540402835291602001916122d6565b820191906000526020600020905b8154815290600101906020018083116122b957829003601f168201915b505085519394506122f2936008935060208701925090506141b2565b5060008051602061426b833981519152818360405180806020018060200180602001848103845260148152602001807f506172616d657465722070206d6f6469666965640000000000000000000000008152506020018481038352868181518152602001915080519060200190808383600083811015610d21578181015183820152602001610d09565b6009805460408051602060026001851615610100026000190190941693909304601f810184900484028201840190925281815292918301828280156117e95780601f106117be576101008083540402835291602001916117e9565b600554600090600160a060020a031633146123f157600080fd5b5030315b90565b600554600090600160a060020a0316331461241257600080fd5b50600d805490829055604080516020810183905280820184905260608082526019908201527f53656c6c207469636b6574207072696365206368616e676564000000000000006080820152905160008051602061424b8339815191529181900360a00190a15050565b60125481565b600554600090600160a060020a0316331461249b57600080fd5b50600a805490829055604080516020810183905280820184905260608082526019908201527f53656c6c207469636b6574207072696365206368616e676564000000000000006080820152905160008051602061424b8339815191529181900360a00190a15050565b600554600090600160a060020a0316331461251e57600080fd5b50600b805490829055604080516020810183905280820184905260608082526019908201527f4e756d626572206f662077696e6e657273206368616e676564000000000000006080820152905160008051602061424b8339815191529181900360a00190a15050565b600554600090600160a060020a031633146125a157600080fd5b50600f805490829055604080516020810183905280820184905260608082526021908201527f4f7261636c697a6520637573746f6d20676173207072696365206368616e676560808201527f640000000000000000000000000000000000000000000000000000000000000060a0820152905160008051602061424b8339815191529181900360c00190a15050565b600c5481565b60115481565b6000612649600f5461286f565b604080516020808252601a908201527f41736b696e6720666f722061206e6577207469636b65742e2e2e0000000000008183015290517f46cb989ef9cef13e930e3b7f286225a086e716a90d63e0b7da85d310a9db0c9a9181900360600190a16126f36040805190810160405280600c81526020017f576f6c6672616d416c70686100000000000000000000000000000000000000008152506126eb846134b0565b600e54612a55565b60009081526035602052604090208054600160a060020a031916600160a060020a03939093169290921790915550565b600d5481565b60366020526000908152604090205481565b600554600160a060020a0316331461275257600080fd5b611ec081613a01565b6000612768600f5461286f565b604080516020808252601f908201527f41736b696e6720666f722061206e6577206920706172616d657465722e2e2e008183015290517f46cb989ef9cef13e930e3b7f286225a086e716a90d63e0b7da85d310a9db0c9a9181900360600190a161283f6040805190810160405280600c81526020017f576f6c6672616d416c70686100000000000000000000000000000000000000008152506040805190810160405280600f81526020017f342072616e646f6d206e756d6265720000000000000000000000000000000000815250600e54612a55565b60009081526034602052604090208054600160a060020a031916600160a060020a03939093169290921790915550565b600054600160a060020a03161580612899575060005461289790600160a060020a0316613a72565b155b156128aa576128a86000613a76565b505b6000809054906101000a9004600160a060020a0316600160a060020a03166338cc48316040518163ffffffff1660e060020a028152600401602060405180830381600087803b1580156128fc57600080fd5b505af1158015612910573d6000803e3d6000fd5b505050506040513d602081101561292657600080fd5b5051600154600160a060020a039081169116146129db576000809054906101000a9004600160a060020a0316600160a060020a03166338cc48316040518163ffffffff1660e060020a028152600401602060405180830381600087803b15801561298f57600080fd5b505af11580156129a3573d6000803e3d6000fd5b505050506040513d60208110156129b957600080fd5b505160018054600160a060020a031916600160a060020a039092169190911790555b600154604080517fca6ad1e4000000000000000000000000000000000000000000000000000000008152600481018490529051600160a060020a039092169163ca6ad1e49160248082019260009290919082900301818387803b158015612a4157600080fd5b505af115801561175c573d6000803e3d6000fd5b600080548190600160a060020a03161580612a825750600054612a8090600160a060020a0316613a72565b155b15612a9357612a916000613a76565b505b6000809054906101000a9004600160a060020a0316600160a060020a03166338cc48316040518163ffffffff1660e060020a028152600401602060405180830381600087803b158015612ae557600080fd5b505af1158015612af9573d6000803e3d6000fd5b505050506040513d6020811015612b0f57600080fd5b5051600154600160a060020a03908116911614612bc4576000809054906101000a9004600160a060020a0316600160a060020a03166338cc48316040518163ffffffff1660e060020a028152600401602060405180830381600087803b158015612b7857600080fd5b505af1158015612b8c573d6000803e3d6000fd5b505050506040513d6020811015612ba257600080fd5b505160018054600160a060020a031916600160a060020a039092169190911790555b600154604080517f2ef3accc0000000000000000000000000000000000000000000000000000000081526024810186905260048101918252875160448201528751600160a060020a0390931692632ef3accc9289928892829160640190602086019080838360005b83811015612c44578181015183820152602001612c2c565b50505050905090810190601f168015612c715780820380516001836020036101000a031916815260200191505b509350505050602060405180830381600087803b158015612c9157600080fd5b505af1158015612ca5573d6000803e3d6000fd5b505050506040513d6020811015612cbb57600080fd5b50519050670de0b6b3a76400003a840201811115612cdc5760009150612e4e565b6001546040517fc51be90f00000000000000000000000000000000000000000000000000000000815260006004820181815260648301879052608060248401908152895160848501528951600160a060020a039095169463c51be90f948794938c938c938c93604481019160a49091019060208801908083838c5b83811015612d6f578181015183820152602001612d57565b50505050905090810190601f168015612d9c5780820380516001836020036101000a031916815260200191505b50838103825285518152855160209182019187019080838360005b83811015612dcf578181015183820152602001612db7565b50505050905090810190601f168015612dfc5780820380516001836020036101000a031916815260200191505b5096505050505050506020604051808303818588803b158015612e1e57600080fd5b505af1158015612e32573d6000803e3d6000fd5b50505050506040513d6020811015612e4957600080fd5b505191505b509392505050565b60008054600160a060020a03161580612e815750600054612e7f90600160a060020a0316613a72565b155b15612e9257612e906000613a76565b505b6000809054906101000a9004600160a060020a0316600160a060020a03166338cc48316040518163ffffffff1660e060020a028152600401602060405180830381600087803b158015612ee457600080fd5b505af1158015612ef8573d6000803e3d6000fd5b505050506040513d6020811015612f0e57600080fd5b5051600154600160a060020a03908116911614612fc3576000809054906101000a9004600160a060020a0316600160a060020a03166338cc48316040518163ffffffff1660e060020a028152600401602060405180830381600087803b158015612f7757600080fd5b505af1158015612f8b573d6000803e3d6000fd5b505050506040513d6020811015612fa157600080fd5b505160018054600160a060020a031916600160a060020a039092169190911790555b600160009054906101000a9004600160a060020a0316600160a060020a031663c281d19e6040518163ffffffff1660e060020a028152600401602060405180830381600087803b15801561301657600080fd5b505af115801561302a573d6000803e3d6000fd5b505050506040513d602081101561304057600080fd5b5051905090565b6000613054826000613a80565b92915050565b60408051600160a060020a03831660009081526032602090815290839020805460026001821615610100026000190190911604601f8101839004909202830160a0908101909452608083018281529293849392908401828280156130ff5780601f106130d4576101008083540402835291602001916130ff565b820191906000526020600020905b8154815290600101906020018083116130e257829003601f168201915b505050505081526020016032600084600160a060020a0316600160a060020a031681526020019081526020016000206001018054600181600116156101000203166002900480601f0160208091040260200160405190810160405280929190818152602001828054600181600116156101000203166002900480156131c55780601f1061319a576101008083540402835291602001916131c5565b820191906000526020600020905b8154815290600101906020018083116131a857829003601f168201915b5050509183525050600160a060020a03831660009081526032602090815260409182902060020154908301526011549101526012546016906007811061320757fe5b6004020160008201518160000190805190602001906132279291906141b2565b50602082810151805161324092600185019201906141b2565b506040820151600282015560609091015160039091015550601280546001019055565b60408051600160a060020a03831660009081526032602090815283822080546002600180831615610100026000190190921604601f8101849004909302850160c090810190965260a085018381529395909460159490938493919284018282801561330f5780601f106132e45761010080835404028352916020019161330f565b820191906000526020600020905b8154815290600101906020018083116132f257829003601f168201915b505050505081526020016032600087600160a060020a0316600160a060020a031681526020019081526020016000206001018054600181600116156101000203166002900480601f0160208091040260200160405190810160405280929190818152602001828054600181600116156101000203166002900480156133d55780601f106133aa576101008083540402835291602001916133d5565b820191906000526020600020905b8154815290600101906020018083116133b857829003601f168201915b5050509183525050600160a060020a03861660008181526032602090815260408083206002015482860152840192909252601154606090930192909252835460018101808655948352918190208351805160059094029091019261343c92849201906141b2565b50602082810151805161345592600185019201906141b2565b50604082015160028201556060820151600382018054600160a060020a031916600160a060020a0390921691909117905560809091015160049091015503905061151481611521565b6000828211156134aa57fe5b50900390565b604080518082018252600b81527f6d6f642828312f2831305e000000000000000000000000000000000000000000602080830191909152600780548451601f600260001961010060018616150201909316929092049182018490048402810184019095528085526060948594859461368c949193908301828280156135765780601f1061354b57610100808354040283529160200191613576565b820191906000526020600020905b81548152906001019060200180831161355957829003601f168201915b505060408051808201825260018082527f2d00000000000000000000000000000000000000000000000000000000000000602080840191909152600160a060020a038e1660009081526032825284902080548551600294821615610100026000190190911693909304601f810183900483028401830190955284835292965090945090925083018282801561364c5780601f106136215761010080835404028352916020019161364c565b820191906000526020600020905b81548152906001019060200180831161362f57829003601f168201915b50505050506040805190810160405280601081526020017f29292a31305e31303030302c31305e2800000000000000000000000000000000815250613bf2565b60098054604080516020601f600260001961010060018816150201909516949094049384018190048102820181019092528281529395506138369386939092909183018282801561371e5780601f106136f35761010080835404028352916020019161371e565b820191906000526020600020905b81548152906001019060200180831161370157829003601f168201915b505060408051808201825260018082527f2b00000000000000000000000000000000000000000000000000000000000000602080840191909152600160a060020a038e16600090815260328252849020820180548551600294821615610100026000190190911693909304601f81018390048302840183019095528483529296509094509092508301828280156137f65780601f106137cb576101008083540402835291602001916137f6565b820191906000526020600020905b8154815290600101906020018083116137d957829003601f168201915b50505050506040805190810160405280600281526020017f2929000000000000000000000000000000000000000000000000000000000000815250613bf2565b60408051808201825260018082527f2d00000000000000000000000000000000000000000000000000000000000000602080840191909152600160a060020a038916600090815260328252849020820180548551600294821615610100026000190190911693909304601f81018390048302840183019095528483529495506138e49486948893928301828280156137f65780601f106137cb576101008083540402835291602001916137f6565b60408051808201825260018082527f280000000000000000000000000000000000000000000000000000000000000060208084019190915283518085018552600581527f292f31305e00000000000000000000000000000000000000000000000000000081830152600160a060020a038a16600090815260328352859020830180548651600295821615610100026000190190911694909404601f81018490048402850184019096528584529596506139f995939487949193928301828280156139ef5780601f106139c4576101008083540402835291602001916139ef565b820191906000526020600020905b8154815290600101906020018083116139d257829003601f168201915b5050505050613e53565b949350505050565b600160a060020a0381161515613a1657600080fd5b600554604051600160a060020a038084169216907f8be0079c531659141344cd1fd0a4f28419497f9722a3daafe3b4186f6b6457e090600090a360058054600160a060020a031916600160a060020a0392909216919091179055565b3b90565b6000613054613e7b565b6000828180805b8351811015613bd55783517f300000000000000000000000000000000000000000000000000000000000000090859083908110613ac057fe5b90602001015160f860020a900460f860020a02600160f860020a03191610158015613b36575083517f390000000000000000000000000000000000000000000000000000000000000090859083908110613b1657fe5b90602001015160f860020a900460f860020a02600160f860020a03191611155b15613b8f578115613b5557851515613b4d57613bd5565b600019909501945b600a8302925060308482815181101515613b6b57fe5b90602001015160f860020a900460f860020a0260f860020a90040383019250613bcd565b8381815181101515613b9d57fe5b90602001015160f860020a900460f860020a02600160f860020a031916602e60f860020a021415613bcd57600191505b600101613a87565b6000861115613be75785600a0a830292505b509095945050505050565b6060806060806060806060806000808e98508d97508c96508b95508a94508451865188518a518c51010101016040519080825280601f01601f191660200182016040528015613c4b578160200160208202803883390190505b50935083925060009150600090505b8851811015613cb8578881815181101515613c7157fe5b90602001015160f860020a900460f860020a028383806001019450815181101515613c9857fe5b906020010190600160f860020a031916908160001a905350600101613c5a565b5060005b8751811015613d1a578781815181101515613cd357fe5b90602001015160f860020a900460f860020a028383806001019450815181101515613cfa57fe5b906020010190600160f860020a031916908160001a905350600101613cbc565b5060005b8651811015613d7c578681815181101515613d3557fe5b90602001015160f860020a900460f860020a028383806001019450815181101515613d5c57fe5b906020010190600160f860020a031916908160001a905350600101613d1e565b5060005b8551811015613dde578581815181101515613d9757fe5b90602001015160f860020a900460f860020a028383806001019450815181101515613dbe57fe5b906020010190600160f860020a031916908160001a905350600101613d80565b5060005b8451811015613e40578481815181101515613df957fe5b90602001015160f860020a900460f860020a028383806001019450815181101515613e2057fe5b906020010190600160f860020a031916908160001a905350600101613de2565b50909d9c50505050505050505050505050565b6060613e72858585856020604051908101604052806000815250613bf2565b95945050505050565b600080613e9b731d3b2638a7cc9f2cb3d298a3da7a90b67e5506ed613a72565b1115613f0c5760008054600160a060020a031916731d3b2638a7cc9f2cb3d298a3da7a90b67e5506ed17905560408051808201909152600b81527f6574685f6d61696e6e65740000000000000000000000000000000000000000006020820152613f04906141a3565b5060016123f5565b6000613f2b73c03a2615d5efaf5f49f60b7bb6583eaec212fdf1613a72565b1115613f945760008054600160a060020a03191673c03a2615d5efaf5f49f60b7bb6583eaec212fdf117905560408051808201909152600c81527f6574685f726f707374656e3300000000000000000000000000000000000000006020820152613f04906141a3565b6000613fb373b7a07bcf2ba2f2703b24c0691b5278999c59ac7e613a72565b111561401c5760008054600160a060020a03191673b7a07bcf2ba2f2703b24c0691b5278999c59ac7e17905560408051808201909152600981527f6574685f6b6f76616e00000000000000000000000000000000000000000000006020820152613f04906141a3565b600061403b73146500cfd35b22e4a392fe0adc06de1a1368ed48613a72565b11156140a45760008054600160a060020a03191673146500cfd35b22e4a392fe0adc06de1a1368ed4817905560408051808201909152600b81527f6574685f72696e6b6562790000000000000000000000000000000000000000006020820152613f04906141a3565b60006140c3736f485c8bf6fc43ea212e93bbf8ce046c7f1cb475613a72565b11156140f7575060008054600160a060020a031916736f485c8bf6fc43ea212e93bbf8ce046c7f1cb47517905560016123f5565b60006141167320e12a1f859b3feae5fb2a0a32c18f5a65555bbf613a72565b111561414a575060008054600160a060020a0319167320e12a1f859b3feae5fb2a0a32c18f5a65555bbf17905560016123f5565b60006141697351efaf4c8b3c9afbd5ab9f4bbc82784ab6ef8faa613a72565b111561419d575060008054600160a060020a0319167351efaf4c8b3c9afbd5ab9f4bbc82784ab6ef8faa17905560016123f5565b50600090565b80516115149060029060208401905b828054600181600116156101000203166002900490600052602060002090601f016020900481019282601f106141f357805160ff1916838001178555614220565b82800160010185558215614220579182015b82811115614220578251825591602001919060010190614205565b5061422c929150614230565b5090565b6123f591905b8082111561422c576000815560010161423656009bc068999fb1a0aac007a9b44ca6322a376441f42706bf5163600bb3d1a731647ecbd54b3baea533cf57ef049f9e04554be6a660d6dacd477488066eedf27beea165627a7a72305820172d05e0bf753fdaeb967959e82cbd68d38f76f4a09d0c07db37422b43f9fe2b0029",
  "source": "pragma solidity ^0.4.20;\nimport \"./usingOraclize.sol\";\n//import \"github.com/oraclize/ethereum-api/oraclizeAPI.sol\";\nimport \"./Lucky7Admin.sol\";\n\n\ncontract Lucky7TicketFactory is usingOraclize, Lucky7Admin{\n    \n    function Lucky7TicketFactory() payable {\n        OAR = OraclizeAddrResolverI(0x6f485C8BF6fc43eA212E93BBF8ce046C7f1cb475);\n    }\n    \n    using SafeMath for uint256;\n    \n    event newOraclizeQuery(string description);\n    event newMuReceived(address parameterOwner, string muParameter);\n    event newIReceived(address parameterOwner, string iParameter);\n    event newTicketReceived(address parameterOwner, string newTicket);\n\n    \n    modifier oraclizeGasPriceCustomized{\n        oraclize_setCustomGasPrice(oraclizeCustomGasPrice);\n        _;\n    }\n    \n    uint public drawNumber = 0;\n    uint public indexForLucky7Array = 0;\n    \n    //Circuit breakers\n    bool public settingLucky7Numbers = true;\n    \n    function toggleLucky7Setting() public onlyOwner{\n        settingLucky7Numbers = !settingLucky7Numbers;\n    }\n    \n    struct UserParametersValue{\n        string mu;\n        string i;\n        uint ticketValue;\n        bool muReady;\n        bool iReady;\n        bool userPaidTicket;\n    }\n    \n    struct Ticket{\n        string mu;\n        string i;\n        uint ticketValue;\n        address owner;\n        uint drawID;\n    }\n    \n    struct Lucky7Number{\n        string mu;\n        string i;\n        uint ticketValue;\n        uint drawID;\n    }\n    \n    struct Lucky7Ticket{\n        uint difference;\n        address owner;\n        uint ticketID;\n        uint ticketValue;\n        uint lucky7Number;\n        uint lucky7NumberID;\n        uint drawID;\n    }\n    \n    Lucky7Ticket[] public lucky7Tickets;\n    Ticket[] public tickets;    \n    Lucky7Number[7] public lucky7Numbers;\n\n    mapping (address => UserParametersValue) public userValues;\n    mapping (bytes32 => address) muParameterID;\n    mapping (bytes32 => address) iParameterID;\n    mapping (bytes32 => address) ticketID;\n    mapping (uint => uint) public lucky7TicketDifference;\n    mapping (uint => address) public lucky7TicketOwner;\n    mapping (uint => uint) public lucky7TicketID;\n\n    function _askForMuParameter(address _ticketOwner) oraclizeGasPriceCustomized{\n        newOraclizeQuery(\"Asking for a new mu parameter...\");\n        bytes32 muID = oraclize_query(\"WolframAlpha\",\"4 random number\",oraclizeGasLimit);\n        muParameterID[muID] = _ticketOwner;\n    }\n\n    function _askForIParameter(address _ticketOwner) oraclizeGasPriceCustomized{\n        newOraclizeQuery(\"Asking for a new i parameter...\");\n        bytes32 iID = oraclize_query(\"WolframAlpha\",\"4 random number\",oraclizeGasLimit);\n        iParameterID[iID] = _ticketOwner;\n    }\n    \n    function _askForTicket(address _ticketOwner) oraclizeGasPriceCustomized{\n        newOraclizeQuery(\"Asking for a new ticket...\");\n        bytes32 userTicketID = oraclize_query(\"WolframAlpha\", _setTicketQuery(_ticketOwner), oraclizeGasLimit);\n        ticketID[userTicketID] = _ticketOwner;\n    }\n    \n    function _generateTicket(address _ticketOwner) {\n        _askForMuParameter(_ticketOwner);\n        _askForIParameter(_ticketOwner);\n    }\n    \n    function _insertTicket(address _ticketOwner) internal {\n        uint id = tickets.push(Ticket(userValues[_ticketOwner].mu,userValues[_ticketOwner].i,userValues[_ticketOwner].ticketValue,_ticketOwner,drawNumber)) - 1;\n        _checkForLucky7Ticket(id);\n    }\n    \n    function _insertLucky7Number(address _ticketOwner) internal {\n        lucky7Numbers[indexForLucky7Array] = Lucky7Number(userValues[_ticketOwner].mu,userValues[_ticketOwner].i,userValues[_ticketOwner].ticketValue,drawNumber);\n        indexForLucky7Array++;\n    }\n    //SafeMath\n    function _checkForLucky7Ticket(uint _ticketID) public/*internal*/{\n        uint i;\n        uint difference;\n        \n        if(tickets[_ticketID].ticketValue>lucky7Numbers[numberOfLucky7Numbers-1].ticketValue){\n            i=numberOfLucky7Numbers-1;\n            difference = tickets[_ticketID].ticketValue.sub(lucky7Numbers[i].ticketValue);\n            \n        }\n        else if (tickets[_ticketID].ticketValue<lucky7Numbers[0].ticketValue){\n            i=0;\n            difference = lucky7Numbers[i].ticketValue.sub(tickets[_ticketID].ticketValue);\n        }\n        else{\n            while(tickets[_ticketID].ticketValue>lucky7Numbers[i].ticketValue){\n                i++;\n            }\n            \n            uint lowerLucky7NumberDifference = tickets[_ticketID].ticketValue.sub(lucky7Numbers[i-1].ticketValue);\n            uint upperLucky7NumberDifference = lucky7Numbers[i].ticketValue.sub(tickets[_ticketID].ticketValue);\n            \n            if(upperLucky7NumberDifference>lowerLucky7NumberDifference){\n                i=i-1;\n                difference = lowerLucky7NumberDifference;\n            }\n            else{\n                difference = upperLucky7NumberDifference;\n            }\n        }\n        \n        if(lucky7TicketOwner[i] == address(0x0) || difference<lucky7TicketDifference[i]){\n            lucky7TicketOwner[i] = tickets[_ticketID].owner;\n            lucky7TicketDifference[i] = difference;\n            lucky7TicketID[i] = _ticketID;\n        }\n    }\n    \n    function _setTicketQuery(address _parametersOwner) internal returns (string){\n        string memory queryWolframA;\n        string memory queryWolframB;\n        //This line => mod((1/(10^n-mu))*10^217,10^(    \n        queryWolframA = strConcat(\"mod((1/(10^\",n,\"-\",userValues[_parametersOwner].mu,\"))*10^10000,10^(\");\n        //This line => mod((1/(10^n-mu))*10^10000,10^(j+i))\n        queryWolframB = strConcat(queryWolframA,j,\"+\",userValues[_parametersOwner].i,\"))\");\n        //This line => mod((1/(10^n-mu))*10^10000,10^(j+i))-mod((1/(10^n-mu))*10^10000,10^(i))\n        queryWolframB = strConcat(queryWolframB,\"-\",queryWolframA,userValues[_parametersOwner].i,\"))\");\n        //This line => (mod((1/(10^n-mu))*10^10000,10^(j+i))-mod((1/(10^n-mu))*10^10000,10^(i)))/10^i\n        return strConcat(\"(\",queryWolframB,\")/10^\",userValues[_parametersOwner].i);\n    }\n    \n    function __callback(bytes32 myid, string result) public{\n        require(msg.sender == oraclize_cbAddress());\n        if(muParameterID[myid]!=0 && userValues[muParameterID[myid]].muReady==false){\n            userValues[muParameterID[myid]].mu=result;\n            newMuReceived(muParameterID[myid], result);\n            userValues[muParameterID[myid]].muReady=true;\n            if(userValues[muParameterID[myid]].iReady == true && (userValues[muParameterID[myid]].userPaidTicket==true || settingLucky7Numbers==true )){\n                _askForTicket(muParameterID[myid]);\n            }\n        }\n        else if (iParameterID[myid]!=0 && userValues[iParameterID[myid]].iReady==false){\n            userValues[iParameterID[myid]].i=result;\n            newIReceived(iParameterID[myid], result);\n            userValues[iParameterID[myid]].iReady=true;\n            if(userValues[iParameterID[myid]].muReady == true && (userValues[iParameterID[myid]].userPaidTicket==true || settingLucky7Numbers==true )){\n                _askForTicket(iParameterID[myid]);\n            }\n        }\n        else if (ticketID[myid]!=0 &&  (userValues[ticketID[myid]].userPaidTicket==true || settingLucky7Numbers==true )){\n            userValues[ticketID[myid]].ticketValue=parseInt(result);\n            newTicketReceived(ticketID[myid], result);\n            userValues[ticketID[myid]].userPaidTicket=false;\n            if(settingLucky7Numbers==true){\n                _insertLucky7Number(ticketID[myid]);\n            }\n            else{\n                _insertTicket(ticketID[myid]);\n            }\n        }\n    }\n}   \n                                           \n",
  "sourcePath": "/Users/matiasbarrios/Desktop/Proyecto Consensys/luckyseven/contracts/Lucky7TicketFactory.sol",
  "compiler": {
    "name": "solc",
    "version": "0.4.24+commit.e67f0147.Emscripten.clang"
  },
  "schemaVersion": "2.0.1",
  "updatedAt": "2018-08-24T13:16:41.286Z"
}