{
  "contractName": "Lucky7Store",
  "abi": [
    {
      "constant": true,
      "inputs": [],
      "name": "getlucky7Numbers",
      "outputs": [
        {
          "name": "",
          "type": "uint256[7]"
        }
      ],
      "payable": false,
      "stateMutability": "view",
      "type": "function"
    },
    {
      "constant": false,
      "inputs": [
        {
          "name": "_newValue",
          "type": "string"
        }
      ],
      "name": "modifyParameterN",
      "outputs": [],
      "payable": false,
      "stateMutability": "nonpayable",
      "type": "function"
    },
    {
      "constant": true,
      "inputs": [
        {
          "name": "",
          "type": "uint256"
        }
      ],
      "name": "lucky7TicketID",
      "outputs": [
        {
          "name": "",
          "type": "uint256"
        }
      ],
      "payable": false,
      "stateMutability": "view",
      "type": "function"
    },
    {
      "constant": true,
      "inputs": [
        {
          "name": "",
          "type": "uint256"
        }
      ],
      "name": "lucky7TicketOwner",
      "outputs": [
        {
          "name": "",
          "type": "address"
        }
      ],
      "payable": false,
      "stateMutability": "view",
      "type": "function"
    },
    {
      "constant": false,
      "inputs": [],
      "name": "_orderLucky7Tickets",
      "outputs": [],
      "payable": false,
      "stateMutability": "nonpayable",
      "type": "function"
    },
    {
      "constant": false,
      "inputs": [
        {
          "name": "_ticketOwner",
          "type": "address"
        }
      ],
      "name": "_askForMuParameter",
      "outputs": [],
      "payable": true,
      "stateMutability": "payable",
      "type": "function"
    },
    {
      "constant": false,
      "inputs": [
        {
          "name": "myid",
          "type": "bytes32"
        },
        {
          "name": "result",
          "type": "string"
        }
      ],
      "name": "__callback",
      "outputs": [],
      "payable": false,
      "stateMutability": "nonpayable",
      "type": "function"
    },
    {
      "constant": true,
      "inputs": [],
      "name": "settingLucky7Numbers",
      "outputs": [
        {
          "name": "",
          "type": "bool"
        }
      ],
      "payable": false,
      "stateMutability": "view",
      "type": "function"
    },
    {
      "constant": false,
      "inputs": [
        {
          "name": "_ticketID",
          "type": "uint256"
        }
      ],
      "name": "_checkForLucky7Ticket",
      "outputs": [],
      "payable": false,
      "stateMutability": "nonpayable",
      "type": "function"
    },
    {
      "constant": true,
      "inputs": [],
      "name": "n",
      "outputs": [
        {
          "name": "",
          "type": "string"
        }
      ],
      "payable": false,
      "stateMutability": "view",
      "type": "function"
    },
    {
      "constant": false,
      "inputs": [
        {
          "name": "myid",
          "type": "bytes32"
        },
        {
          "name": "result",
          "type": "string"
        },
        {
          "name": "proof",
          "type": "bytes"
        }
      ],
      "name": "__callback",
      "outputs": [],
      "payable": false,
      "stateMutability": "nonpayable",
      "type": "function"
    },
    {
      "constant": true,
      "inputs": [
        {
          "name": "",
          "type": "uint256"
        }
      ],
      "name": "lucky7Tickets",
      "outputs": [
        {
          "name": "difference",
          "type": "uint256"
        },
        {
          "name": "owner",
          "type": "address"
        },
        {
          "name": "ticketID",
          "type": "uint256"
        },
        {
          "name": "ticketValue",
          "type": "uint256"
        },
        {
          "name": "lucky7Number",
          "type": "uint256"
        },
        {
          "name": "lucky7NumberID",
          "type": "uint256"
        },
        {
          "name": "drawID",
          "type": "uint256"
        }
      ],
      "payable": false,
      "stateMutability": "view",
      "type": "function"
    },
    {
      "constant": false,
      "inputs": [],
      "name": "toggleLucky7Setting",
      "outputs": [],
      "payable": false,
      "stateMutability": "nonpayable",
      "type": "function"
    },
    {
      "constant": false,
      "inputs": [
        {
          "name": "_newValue",
          "type": "string"
        }
      ],
      "name": "modifyParameterJ",
      "outputs": [],
      "payable": false,
      "stateMutability": "nonpayable",
      "type": "function"
    },
    {
      "constant": false,
      "inputs": [],
      "name": "withdraw",
      "outputs": [],
      "payable": false,
      "stateMutability": "nonpayable",
      "type": "function"
    },
    {
      "constant": true,
      "inputs": [
        {
          "name": "",
          "type": "uint256"
        }
      ],
      "name": "lucky7Numbers",
      "outputs": [
        {
          "name": "mu",
          "type": "string"
        },
        {
          "name": "i",
          "type": "string"
        },
        {
          "name": "ticketValue",
          "type": "uint256"
        },
        {
          "name": "drawID",
          "type": "uint256"
        }
      ],
      "payable": false,
      "stateMutability": "view",
      "type": "function"
    },
    {
      "constant": false,
      "inputs": [],
      "name": "setNewGame",
      "outputs": [],
      "payable": false,
      "stateMutability": "nonpayable",
      "type": "function"
    },
    {
      "constant": false,
      "inputs": [
        {
          "name": "_newAddress",
          "type": "address"
        }
      ],
      "name": "modifyEnterpriseWallet",
      "outputs": [],
      "payable": false,
      "stateMutability": "nonpayable",
      "type": "function"
    },
    {
      "constant": true,
      "inputs": [
        {
          "name": "",
          "type": "address"
        }
      ],
      "name": "userValues",
      "outputs": [
        {
          "name": "mu",
          "type": "string"
        },
        {
          "name": "i",
          "type": "string"
        },
        {
          "name": "ticketValue",
          "type": "uint256"
        },
        {
          "name": "muReady",
          "type": "bool"
        },
        {
          "name": "iReady",
          "type": "bool"
        },
        {
          "name": "userPaidTicket",
          "type": "bool"
        }
      ],
      "payable": false,
      "stateMutability": "view",
      "type": "function"
    },
    {
      "constant": true,
      "inputs": [],
      "name": "b",
      "outputs": [
        {
          "name": "",
          "type": "string"
        }
      ],
      "payable": false,
      "stateMutability": "view",
      "type": "function"
    },
    {
      "constant": true,
      "inputs": [
        {
          "name": "",
          "type": "uint256"
        }
      ],
      "name": "tickets",
      "outputs": [
        {
          "name": "mu",
          "type": "string"
        },
        {
          "name": "i",
          "type": "string"
        },
        {
          "name": "ticketValue",
          "type": "uint256"
        },
        {
          "name": "owner",
          "type": "address"
        },
        {
          "name": "drawID",
          "type": "uint256"
        }
      ],
      "payable": false,
      "stateMutability": "view",
      "type": "function"
    },
    {
      "constant": true,
      "inputs": [],
      "name": "oraclizeGasLimit",
      "outputs": [
        {
          "name": "",
          "type": "uint256"
        }
      ],
      "payable": false,
      "stateMutability": "view",
      "type": "function"
    },
    {
      "constant": true,
      "inputs": [],
      "name": "numberOfLucky7Numbers",
      "outputs": [
        {
          "name": "",
          "type": "uint256"
        }
      ],
      "payable": false,
      "stateMutability": "view",
      "type": "function"
    },
    {
      "constant": true,
      "inputs": [],
      "name": "getlucky7Tickets",
      "outputs": [
        {
          "name": "",
          "type": "uint256[7]"
        }
      ],
      "payable": false,
      "stateMutability": "view",
      "type": "function"
    },
    {
      "constant": false,
      "inputs": [],
      "name": "renounceOwnership",
      "outputs": [],
      "payable": false,
      "stateMutability": "nonpayable",
      "type": "function"
    },
    {
      "constant": true,
      "inputs": [],
      "name": "enterpriseWallet",
      "outputs": [
        {
          "name": "",
          "type": "address"
        }
      ],
      "payable": false,
      "stateMutability": "view",
      "type": "function"
    },
    {
      "constant": false,
      "inputs": [],
      "name": "_orderLucky7Numbers",
      "outputs": [],
      "payable": false,
      "stateMutability": "nonpayable",
      "type": "function"
    },
    {
      "constant": false,
      "inputs": [
        {
          "name": "_ticketOwner",
          "type": "address"
        }
      ],
      "name": "_generateTicket",
      "outputs": [],
      "payable": false,
      "stateMutability": "nonpayable",
      "type": "function"
    },
    {
      "constant": false,
      "inputs": [
        {
          "name": "_newValue",
          "type": "uint256"
        }
      ],
      "name": "modifyOraclizeGasLimit",
      "outputs": [],
      "payable": false,
      "stateMutability": "nonpayable",
      "type": "function"
    },
    {
      "constant": false,
      "inputs": [],
      "name": "destroy",
      "outputs": [],
      "payable": false,
      "stateMutability": "nonpayable",
      "type": "function"
    },
    {
      "constant": false,
      "inputs": [
        {
          "name": "_newValue",
          "type": "string"
        }
      ],
      "name": "modifyParameterB",
      "outputs": [],
      "payable": false,
      "stateMutability": "nonpayable",
      "type": "function"
    },
    {
      "constant": false,
      "inputs": [
        {
          "name": "_newValue",
          "type": "uint256"
        }
      ],
      "name": "modifyGenerateTicketPrice",
      "outputs": [],
      "payable": false,
      "stateMutability": "nonpayable",
      "type": "function"
    },
    {
      "constant": true,
      "inputs": [],
      "name": "owner",
      "outputs": [
        {
          "name": "",
          "type": "address"
        }
      ],
      "payable": false,
      "stateMutability": "view",
      "type": "function"
    },
    {
      "constant": false,
      "inputs": [],
      "name": "_generateLucky7Number",
      "outputs": [],
      "payable": false,
      "stateMutability": "nonpayable",
      "type": "function"
    },
    {
      "constant": true,
      "inputs": [],
      "name": "oraclizeCustomGasPrice",
      "outputs": [
        {
          "name": "",
          "type": "uint256"
        }
      ],
      "payable": false,
      "stateMutability": "view",
      "type": "function"
    },
    {
      "constant": true,
      "inputs": [],
      "name": "p",
      "outputs": [
        {
          "name": "",
          "type": "string"
        }
      ],
      "payable": false,
      "stateMutability": "view",
      "type": "function"
    },
    {
      "constant": false,
      "inputs": [
        {
          "name": "_newValue",
          "type": "string"
        }
      ],
      "name": "modifyParameterP",
      "outputs": [],
      "payable": false,
      "stateMutability": "nonpayable",
      "type": "function"
    },
    {
      "constant": true,
      "inputs": [],
      "name": "j",
      "outputs": [
        {
          "name": "",
          "type": "string"
        }
      ],
      "payable": false,
      "stateMutability": "view",
      "type": "function"
    },
    {
      "constant": true,
      "inputs": [],
      "name": "balance",
      "outputs": [
        {
          "name": "",
          "type": "uint256"
        }
      ],
      "payable": false,
      "stateMutability": "view",
      "type": "function"
    },
    {
      "constant": true,
      "inputs": [],
      "name": "initialLucky7TicketPosition",
      "outputs": [
        {
          "name": "",
          "type": "uint256"
        }
      ],
      "payable": false,
      "stateMutability": "view",
      "type": "function"
    },
    {
      "constant": false,
      "inputs": [
        {
          "name": "_newValue",
          "type": "uint256"
        }
      ],
      "name": "modifySellTicketPrice",
      "outputs": [],
      "payable": false,
      "stateMutability": "nonpayable",
      "type": "function"
    },
    {
      "constant": true,
      "inputs": [],
      "name": "indexForLucky7Array",
      "outputs": [
        {
          "name": "",
          "type": "uint256"
        }
      ],
      "payable": false,
      "stateMutability": "view",
      "type": "function"
    },
    {
      "constant": false,
      "inputs": [
        {
          "name": "_newValue",
          "type": "uint256"
        }
      ],
      "name": "modifyNumberOfLucky7Numbers",
      "outputs": [],
      "payable": false,
      "stateMutability": "nonpayable",
      "type": "function"
    },
    {
      "constant": false,
      "inputs": [
        {
          "name": "_newValue",
          "type": "uint256"
        }
      ],
      "name": "modifyOraclizeCustomGasPrice",
      "outputs": [],
      "payable": false,
      "stateMutability": "nonpayable",
      "type": "function"
    },
    {
      "constant": true,
      "inputs": [],
      "name": "generateTicketPrice",
      "outputs": [
        {
          "name": "",
          "type": "uint256"
        }
      ],
      "payable": false,
      "stateMutability": "view",
      "type": "function"
    },
    {
      "constant": true,
      "inputs": [],
      "name": "drawNumber",
      "outputs": [
        {
          "name": "",
          "type": "uint256"
        }
      ],
      "payable": false,
      "stateMutability": "view",
      "type": "function"
    },
    {
      "constant": false,
      "inputs": [
        {
          "name": "_ticketOwner",
          "type": "address"
        }
      ],
      "name": "_askForTicket",
      "outputs": [],
      "payable": false,
      "stateMutability": "nonpayable",
      "type": "function"
    },
    {
      "constant": true,
      "inputs": [],
      "name": "sellTicketPrice",
      "outputs": [
        {
          "name": "",
          "type": "uint256"
        }
      ],
      "payable": false,
      "stateMutability": "view",
      "type": "function"
    },
    {
      "constant": true,
      "inputs": [
        {
          "name": "",
          "type": "uint256"
        }
      ],
      "name": "lucky7TicketDifference",
      "outputs": [
        {
          "name": "",
          "type": "uint256"
        }
      ],
      "payable": false,
      "stateMutability": "view",
      "type": "function"
    },
    {
      "constant": false,
      "inputs": [
        {
          "name": "_newOwner",
          "type": "address"
        }
      ],
      "name": "transferOwnership",
      "outputs": [],
      "payable": false,
      "stateMutability": "nonpayable",
      "type": "function"
    },
    {
      "constant": true,
      "inputs": [
        {
          "name": "",
          "type": "address"
        }
      ],
      "name": "pendingWithdrawals",
      "outputs": [
        {
          "name": "",
          "type": "uint256"
        }
      ],
      "payable": false,
      "stateMutability": "view",
      "type": "function"
    },
    {
      "constant": false,
      "inputs": [],
      "name": "_deliverPrizes",
      "outputs": [],
      "payable": false,
      "stateMutability": "nonpayable",
      "type": "function"
    },
    {
      "constant": false,
      "inputs": [
        {
          "name": "_recipient",
          "type": "address"
        }
      ],
      "name": "destroyAndSend",
      "outputs": [],
      "payable": false,
      "stateMutability": "nonpayable",
      "type": "function"
    },
    {
      "constant": false,
      "inputs": [
        {
          "name": "_ticketOwner",
          "type": "address"
        }
      ],
      "name": "_askForIParameter",
      "outputs": [],
      "payable": false,
      "stateMutability": "nonpayable",
      "type": "function"
    },
    {
      "inputs": [],
      "payable": true,
      "stateMutability": "payable",
      "type": "constructor"
    },
    {
      "payable": true,
      "stateMutability": "payable",
      "type": "fallback"
    },
    {
      "anonymous": false,
      "inputs": [
        {
          "indexed": false,
          "name": "description",
          "type": "string"
        }
      ],
      "name": "NewOraclizeQuery",
      "type": "event"
    },
    {
      "anonymous": false,
      "inputs": [
        {
          "indexed": false,
          "name": "muParameter",
          "type": "string"
        }
      ],
      "name": "NewMuReceived",
      "type": "event"
    },
    {
      "anonymous": false,
      "inputs": [
        {
          "indexed": false,
          "name": "iParameter",
          "type": "string"
        }
      ],
      "name": "NewIReceived",
      "type": "event"
    },
    {
      "anonymous": false,
      "inputs": [
        {
          "indexed": false,
          "name": "newTicket",
          "type": "string"
        }
      ],
      "name": "NewTicketReceived",
      "type": "event"
    },
    {
      "anonymous": false,
      "inputs": [
        {
          "indexed": false,
          "name": "feeType",
          "type": "string"
        },
        {
          "indexed": false,
          "name": "_oldValue",
          "type": "uint256"
        },
        {
          "indexed": false,
          "name": "_newValue",
          "type": "uint256"
        }
      ],
      "name": "numberModified",
      "type": "event"
    },
    {
      "anonymous": false,
      "inputs": [
        {
          "indexed": false,
          "name": "parameter",
          "type": "string"
        },
        {
          "indexed": false,
          "name": "_oldValue",
          "type": "string"
        },
        {
          "indexed": false,
          "name": "_newValue",
          "type": "string"
        }
      ],
      "name": "parameterModified",
      "type": "event"
    },
    {
      "anonymous": false,
      "inputs": [
        {
          "indexed": false,
          "name": "parameter",
          "type": "string"
        },
        {
          "indexed": false,
          "name": "_oldValue",
          "type": "address"
        },
        {
          "indexed": false,
          "name": "_newValue",
          "type": "address"
        }
      ],
      "name": "walletModified",
      "type": "event"
    },
    {
      "anonymous": false,
      "inputs": [
        {
          "indexed": true,
          "name": "previousOwner",
          "type": "address"
        }
      ],
      "name": "OwnershipRenounced",
      "type": "event"
    },
    {
      "anonymous": false,
      "inputs": [
        {
          "indexed": true,
          "name": "previousOwner",
          "type": "address"
        },
        {
          "indexed": true,
          "name": "newOwner",
          "type": "address"
        }
      ],
      "name": "OwnershipTransferred",
      "type": "event"
    },
    {
      "constant": false,
      "inputs": [],
      "name": "sellRandomTicket",
      "outputs": [],
      "payable": true,
      "stateMutability": "payable",
      "type": "function"
    },
    {
      "constant": false,
      "inputs": [],
      "name": "generateRandomTicket",
      "outputs": [],
      "payable": true,
      "stateMutability": "payable",
      "type": "function"
    },
    {
      "constant": false,
      "inputs": [],
      "name": "sellGeneratedTicket",
      "outputs": [],
      "payable": true,
      "stateMutability": "payable",
      "type": "function"
    }
  ],
  "bytecode": "0x60c0604052600160808190527f310000000000000000000000000000000000000000000000000000000000000060a09081526200003e919081620001aa565b506040805180820190915260018082527f380000000000000000000000000000000000000000000000000000000000000060209092019182526200008591600291620001aa565b506040805180820190915260058082527f31303030300000000000000000000000000000000000000000000000000000006020909201918252620000cc91600391620001aa565b506040805180820190915260028082527f323000000000000000000000000000000000000000000000000000000000000060209092019182526200011391600491620001aa565b50600760058190556611c37937e08000600655662aa1efb94e00009055620493e060085563ee6b280060095560008054600a8054600160a060020a0319908116600160a060020a03841617909155601083905560118390556012805460ff1916600117905560388390559081163317909155600b8054909116736f485c8bf6fc43ea212e93bbf8ce046c7f1cb4751790556200024f565b828054600181600116156101000203166002900490600052602060002090601f016020900481019282601f10620001ed57805160ff19168380011785556200021d565b828001600101855582156200021d579182015b828111156200021d57825182559160200191906001019062000200565b506200022b9291506200022f565b5090565b6200024c91905b808211156200022b576000815560010162000236565b90565b61589b806200025f6000396000f30060806040526004361061028f5763ffffffff60e060020a60003504166301591f1381146102915780630b8ec740146102de5780630cc38b2b146102e657806310cd4b8a1461033f5780631c3ed1d3146103695780631cf4c3d11461039d5780631ded3bec146103b257806323d370ba146103ba57806327dc297e146103ce5780632caf9eee1461042c5780632de729eb146104555780632e52d6061461046d57806338bbfa50146104f7578063396fb4221461059357806339df3f4f146105eb5780633bb7daf4146106005780633ccfd60b146106595780633eba34661461066e578063400149111461077257806349f6b030146107875780634acfd9b8146107a85780634df7e3d0146108c757806350b44712146108dc57806350b9c428146109ef57806359f9fe8214610a045780635edbc36b14610a19578063715018a614610a2e57806372c3477d14610a43578063741606b514610a4b57806375edd25714610a6057806377d8a83014610a75578063809fc15314610a9657806383197ef014610aae57806383bb7bb714610ac35780638aa5fafa14610b1c5780638da5cb5b14610b3457806390c31c4c14610b495780639ac2bf9114610b5e5780639ae8886a14610b735780639dec38ab14610b88578063b582ec5f14610be1578063b69ef8a814610bf6578063bb49516b14610c0b578063bcb740ab14610c20578063c56969ab14610c38578063c71f04ac14610c4d578063d383e86214610c65578063d566bcf014610c7d578063d80ffb2014610c92578063ddc110fa14610ca7578063e5663c4814610cc8578063e802ae1414610cdd578063f2fde38b14610cf5578063f3f4370314610d16578063f405228914610d37578063f5074f4114610d4c578063fd9be1b214610d6d575b005b34801561029d57600080fd5b506102a6610d8e565b604051808260e080838360005b838110156102cb5781810151838201526020016102b3565b5050505090500191505060405180910390f35b61028f610e05565b3480156102f257600080fd5b506040805160206004803580820135601f810184900484028501840190955284845261028f943694929360249392840191908190840183828082843750949750610fc19650505050505050565b34801561034b57600080fd5b506103576004356111a6565b60408051918252519081900360200190f35b34801561037557600080fd5b506103816004356111b8565b60408051600160a060020a039092168252519081900360200190f35b3480156103a957600080fd5b5061028f6111d3565b61028f6115a7565b61028f600160a060020a0360043516611616565b3480156103da57600080fd5b5060408051602060046024803582810135601f810185900485028601850190965285855261028f9583359536956044949193909101919081908401838280828437509497506117289650505050505050565b34801561043857600080fd5b50610441611cd9565b604080519115158252519081900360200190f35b34801561046157600080fd5b5061028f600435611ce2565b34801561047957600080fd5b50610482611f24565b6040805160208082528351818301528351919283929083019185019080838360005b838110156104bc5781810151838201526020016104a4565b50505050905090810190601f1680156104e95780820380516001836020036101000a031916815260200191505b509250505060405180910390f35b34801561050357600080fd5b5060408051602060046024803582810135601f810185900485028601850190965285855261028f95833595369560449491939091019190819084018382808284375050604080516020601f89358b018035918201839004830284018301909452808352979a999881019791965091820194509250829150840183828082843750949750611faf9650505050505050565b34801561059f57600080fd5b506105ab600435611fb4565b60408051978852600160a060020a039096166020880152868601949094526060860192909252608085015260a084015260c0830152519081900360e00190f35b3480156105f757600080fd5b5061028f61200b565b34801561060c57600080fd5b506040805160206004803580820135601f810184900484028501840190955284845261028f9436949293602493928401919081908401838280828437509497506120369650505050505050565b34801561066557600080fd5b5061028f61217c565b34801561067a57600080fd5b506106866004356121bd565b604051808060200180602001858152602001848152602001838103835287818151815260200191508051906020019080838360005b838110156106d35781810151838201526020016106bb565b50505050905090810190601f1680156107005780820380516001836020036101000a031916815260200191505b50838103825286518152865160209182019188019080838360005b8381101561073357818101518382015260200161071b565b50505050905090810190601f1680156107605780820380516001836020036101000a031916815260200191505b50965050505050505060405180910390f35b34801561077e57600080fd5b5061028f612309565b34801561079357600080fd5b5061028f600160a060020a0360043516612344565b3480156107b457600080fd5b506107c9600160a060020a03600435166123f3565b604080519081018590528315156060820152821515608082015281151560a082015260c08082528751908201528651819060208083019160e08401918b019080838360005b8381101561082657818101518382015260200161080e565b50505050905090810190601f1680156108535780820380516001836020036101000a031916815260200191505b5083810382528851815288516020918201918a019080838360005b8381101561088657818101518382015260200161086e565b50505050905090810190601f1680156108b35780820380516001836020036101000a031916815260200191505b509850505050505050505060405180910390f35b3480156108d357600080fd5b50610482612553565b3480156108e857600080fd5b506108f46004356125ad565b60408051908101849052600160a060020a03831660608201526080810182905260a08082528651908201528551819060208083019160c08401918a019080838360005b8381101561094f578181015183820152602001610937565b50505050905090810190601f16801561097c5780820380516001836020036101000a031916815260200191505b50838103825287518152875160209182019189019080838360005b838110156109af578181015183820152602001610997565b50505050905090810190601f1680156109dc5780820380516001836020036101000a031916815260200191505b5097505050505050505060405180910390f35b3480156109fb57600080fd5b5061035761271a565b348015610a1057600080fd5b50610357612720565b348015610a2557600080fd5b506102a6612726565b348015610a3a57600080fd5b5061028f6127b7565b61028f612816565b348015610a5757600080fd5b50610381612864565b348015610a6c57600080fd5b5061028f612873565b348015610a8157600080fd5b5061028f600160a060020a0360043516612caf565b348015610aa257600080fd5b5061028f600435612cc1565b348015610aba57600080fd5b5061028f612d42565b348015610acf57600080fd5b506040805160206004803580820135601f810184900484028501840190955284845261028f943694929360249392840191908190840183828082843750949750612d679650505050505050565b348015610b2857600080fd5b5061028f600435612eac565b348015610b4057600080fd5b50610381612f2d565b348015610b5557600080fd5b5061028f612f3c565b348015610b6a57600080fd5b50610357612f9d565b348015610b7f57600080fd5b50610482612fa3565b348015610b9457600080fd5b506040805160206004803580820135601f810184900484028501840190955284845261028f943694929360249392840191908190840183828082843750949750612ffe9650505050505050565b348015610bed57600080fd5b50610482613144565b348015610c0257600080fd5b5061035761319f565b348015610c1757600080fd5b506103576131be565b348015610c2c57600080fd5b5061028f6004356131c4565b348015610c4457600080fd5b50610357613245565b348015610c5957600080fd5b5061028f60043561324b565b348015610c7157600080fd5b5061028f6004356132cc565b348015610c8957600080fd5b50610357613373565b348015610c9e57600080fd5b50610357613379565b348015610cb357600080fd5b5061028f600160a060020a036004351661337f565b348015610cd457600080fd5b50610357613466565b348015610ce957600080fd5b5061035760043561346c565b348015610d0157600080fd5b5061028f600160a060020a036004351661347e565b348015610d2257600080fd5b50610357600160a060020a036004351661349e565b348015610d4357600080fd5b5061028f6134b0565b348015610d5857600080fd5b5061028f600160a060020a03600435166138b4565b348015610d7957600080fd5b5061028f600160a060020a03600435166138d7565b610d96615693565b6000805b600554811015610dd15760158160078110610db157fe5b60040201600201548282600781101515610dc757fe5b0155600101610d9a565b6040805160e081019182905290839060079082845b815481526020019060010190808311610de65750505050509250505090565b6007543390341015610e1657600080fd5b600160a060020a0381166000908152603160205260409020600301805462ff000019166201000017905560125460ff1615610e5057600080fd5b6040805133600090815260316020529190912080547fc5d2460186f7233c927e7db2dcc703c0e500b653ca82273b7bfad8045d85a470929081908390600261010060018316150260001901909116048015610ee25780601f10610ec0576101008083540402835291820191610ee2565b820191906000526020600020905b815481529060010190602001808311610ece575b505091505060405180910390206000191614158015610faa575060408051336000908152603160205291909120600190810180547fc5d2460186f7233c927e7db2dcc703c0e500b653ca82273b7bfad8045d85a470939192829184916002610100918316159190910260001901909116048015610f965780601f10610f74576101008083540402835291820191610f96565b820191906000526020600020905b815481529060010190602001808311610f82575b505091505060405180910390206000191614155b1515610fb557600080fd5b610fbe3361337f565b50565b600054606090600160a060020a03163314610fdb57600080fd5b6002805460408051602060018416156101000260001901909316849004601f8101849004840282018401909252818152929183018282801561105e5780601f106110335761010080835404028352916020019161105e565b820191906000526020600020905b81548152906001019060200180831161104157829003601f168201915b5050855193945061107a936002935060208701925090506156b2565b50600080516020615850833981519152818360405180806020018060200180602001848103845260148152602001807f506172616d65746572206e206d6f646966696564000000000000000000000000815250602001848103835286818151815260200191508051906020019080838360005b838110156111055781810151838201526020016110ed565b50505050905090810190601f1680156111325780820380516001836020036101000a031916815260200191505b50848103825285518152855160209182019187019080838360005b8381101561116557818101518382015260200161114d565b50505050905090810190601f1680156111925780820380516001836020036101000a031916815260200191505b509550505050505060405180910390a15050565b60376020526000908152604090205481565b603660205260009081526040902054600160a060020a031681565b6111db615730565b6000805481908190600160a060020a031633146111f757600080fd5b5060005b600554811015611325576040805160e0810182526000838152603560209081528382205483528482526036815283822054600160a060020a031681840152848252603780825284832054948401859052918590525260148054601393606084019291811061126557fe5b906000526020600020906005020160020154815260200160158460078110151561128b57fe5b600490810291909101600290810154835260208084018790526010546040948501528554600180820188556000978852968290208651600790920201908155908501518187018054600160a060020a031916600160a060020a0390921691909117905592840151908301556060830151600383015560808301519082015560a0820151600582015560c090910151600690910155016111fb565b506038545b603854600554018110156115a15780925060138181548110151561134a57fe5b60009182526020918290206040805160e081018252600790930290910180548352600180820154600160a060020a0316948401949094526002810154918301919091526003810154606083015260048101546080830152600581015460a08301526006015460c08201529450810191505b603854600554018210156114795760138054839081106113d757fe5b60009182526020909120600790910201548451111561146e5760138054839081106113fe57fe5b60009182526020918290206040805160e0810182526007909302909101805483526001810154600160a060020a0316938301939093526002830154908201526003820154606082015260048201546080820152600582015460a082015260069091015460c0820152935090915081905b6001909101906113bb565b82811461159957601380548290811061148e57fe5b90600052602060002090600702016013848154811015156114ab57fe5b6000918252602090912082546007909202019081556001808301549082018054600160a060020a031916600160a060020a0390921691909117905560028083015490820155600380830154908201556004808301549082015560058083015490820155600691820154910155601380548591908390811061152857fe5b600091825260209182902083516007929092020190815590820151600182018054600160a060020a031916600160a060020a0390921691909117905560408201516002820155606082015160038201556080820151600482015560a0820151600582015560c0909101516006909101555b60010161132a565b50505050565b60075433903410156115b857600080fd5b600160a060020a0381166000908152603160205260408082206003908101805462ff00001916620100001790553380845291909220909101805461ffff1916905560125460ff161561160957600080fd5b61161233612caf565b5050565b60006116236009546139eb565b604080516020808252808201527f41736b696e6720666f722061206e6577206d7520706172616d657465722e2e2e8183015290517f096835e36c2ccea88ff2b3aca87dfc938b977e52ea656873ff76a8dba50d4d349181900360600190a16116f86040805190810160405280600c81526020017f576f6c6672616d416c70686100000000000000000000000000000000000000008152506040805190810160405280600f81526020017f342072616e646f6d206e756d6265720000000000000000000000000000000000815250600854613bd3565b60009081526032602052604090208054600160a060020a031916600160a060020a03939093169290921790915550565b611730613fd8565b600160a060020a0316331461174457600080fd5b600082815260326020526040902054600160a060020a0316158015906117925750600082815260326020908152604080832054600160a060020a03168352603190915290206003015460ff16155b1561192f57600082815260326020908152604080832054600160a060020a031683526031825290912082516117c9928401906156b2565b507f6a28dd23c76ba6cc6f4f148a0e2e0e147d8b876cb74ec1e5e2b8e9a8119eb702816040518080602001828103825283818151815260200191508051906020019080838360005b83811015611829578181015183820152602001611811565b50505050905090810190601f1680156118565780820380516001836020036101000a031916815260200191505b509250505060405180910390a160008281526032602090815260408083208054600160a060020a03908116855260319093528184206003908101805460ff191660019081179091559154909316845292200154610100900460ff1615151480156119045750600082815260326020908152604080832054600160a060020a03168352603190915290206003015460ff6201000090910416151560011480611904575060125460ff1615156001145b1561192a5760008281526032602052604090205461192a90600160a060020a031661337f565b611612565b600082815260336020526040902054600160a060020a0316158015906119825750600082815260336020908152604080832054600160a060020a031683526031909152902060030154610100900460ff16155b15611b1d57600082815260336020908152604080832054600160a060020a031683526031825290912082516119bf926001909201918401906156b2565b507f716a554dec57e3a217a923b974660c0c8ebee07b09b1ac7d4a3a8f328d10cc89816040518080602001828103825283818151815260200191508051906020019080838360005b83811015611a1f578181015183820152602001611a07565b50505050905090810190601f168015611a4c5780820380516001836020036101000a031916815260200191505b509250505060405180910390a160008281526033602090815260408083208054600160a060020a03908116855260319093528184206003908101805461ff00191661010017905590549092168352909120015460ff1615156001148015611af75750600082815260336020908152604080832054600160a060020a03168352603190915290206003015460ff6201000090910416151560011480611af7575060125460ff1615156001145b1561192a5760008281526033602052604090205461192a90600160a060020a031661337f565b600082815260346020526040902054600160a060020a031615801590611b875750600082815260346020908152604080832054600160a060020a03168352603190915290206003015460ff6201000090910416151560011480611b87575060125460ff1615156001145b1561161257611b95816141cd565b600083815260346020908152604080832054600160a060020a031683526031825280832060020193909355825181815284518183015284517f0efef3a277391dda0d5747fd15566e85fcd8a4fb588d9853173841e45cc5ae8a9486949293849391840192908601918190849084905b83811015611c1c578181015183820152602001611c04565b50505050905090810190601f168015611c495780820380516001836020036101000a031916815260200191505b509250505060405180910390a1600082815260346020908152604080832054600160a060020a0316835260319091529020600301805462ff00001916905560125460ff16151560011415611cb85760008281526034602052604090205461192a90600160a060020a03166141e0565b60008281526034602052604090205461161290600160a060020a03166143e9565b60125460ff1681565b6000806000806015600160055403600781101515611cfc57fe5b6004020160020154601486815481101515611d1357fe5b9060005260206000209060050201600201541115611d8257600554600019019350611d7b60158560078110611d4457fe5b6004020160020154601487815481101515611d5b57fe5b90600052602060002090600502016002015461462490919063ffffffff16565b9250611e83565b6017546014805487908110611d9357fe5b9060005260206000209060050201600201541015611df85760009350611d7b601486815481101515611dc157fe5b906000526020600020906005020160020154601586600781101515611de257fe5b600402016002015461462490919063ffffffff16565b60158460078110611e0557fe5b6004020160020154601486815481101515611e1c57fe5b9060005260206000209060050201600201541115611e3f57600190930192611df8565b611e536015600019860160078110611d4457fe5b9150611e67601486815481101515611dc157fe5b905081811115611e7f57600184039350819250611e83565b8092505b600084815260366020526040902054600160a060020a03161580611eb4575060008481526035602052604090205483105b15611f1d576014805486908110611ec757fe5b60009182526020808320600360059093020191909101548683526036825260408084208054600160a060020a031916600160a060020a039093169290921790915560358252808320869055603790915290208590555b5050505050565b6002805460408051602060018416156101000260001901909316849004601f81018490048402820184019092528181529291830182828015611fa75780601f10611f7c57610100808354040283529160200191611fa7565b820191906000526020600020905b815481529060010190602001808311611f8a57829003601f168201915b505050505081565b505050565b6013805482908110611fc257fe5b60009182526020909120600790910201805460018201546002830154600384015460048501546005860154600690960154949650600160a060020a039093169491939092919087565b600054600160a060020a0316331461202257600080fd5b6012805460ff19811660ff90911615179055565b600054606090600160a060020a0316331461205057600080fd5b6004805460408051602060026001851615610100026000190190941693909304601f810184900484028201840190925281815292918301828280156120d65780601f106120ab576101008083540402835291602001916120d6565b820191906000526020600020905b8154815290600101906020018083116120b957829003601f168201915b505085519394506120f2936004935060208701925090506156b2565b50600080516020615850833981519152818360405180806020018060200180602001848103845260148152602001807f506172616d65746572206a206d6f64696669656400000000000000000000000081525060200184810383528681815181526020019150805190602001908083836000838110156111055781810151838201526020016110ed565b33600081815260396020526040808220805490839055905190929183156108fc02918491818181858888f19350505050158015611612573d6000803e3d6000fd5b601581600781106121ca57fe5b60040201805460408051602060026001851615610100026000190190941693909304601f810184900484028201840190925281815292935083918301828280156122555780601f1061222a57610100808354040283529160200191612255565b820191906000526020600020905b81548152906001019060200180831161223857829003601f168201915b505050505090806001018054600181600116156101000203166002900480601f0160208091040260200160405190810160405280929190818152602001828054600181600116156101000203166002900480156122f35780601f106122c8576101008083540402835291602001916122f3565b820191906000526020600020905b8154815290600101906020018083116122d657829003601f168201915b5050505050908060020154908060030154905084565b600054600160a060020a0316331461232057600080fd5b6005546010540260385561233261200b565b61233a6111d3565b6123426134b0565b565b60008054600160a060020a0316331461235c57600080fd5b50600a8054600160a060020a03838116600160a060020a0319831681179093556040805191909216602082018190528183019390935260608082526019908201527f456e74657270726973652077616c6c6574206368616e67656400000000000000608082015290517f223db053947bb148de510715d3c7d8ccd72bdd376752fd735ee7bd0bd0ece5bf9181900360a00190a15050565b60316020908152600091825260409182902080548351601f6002600019610100600186161502019093169290920491820184900484028101840190945280845290929183919083018282801561248a5780601f1061245f5761010080835404028352916020019161248a565b820191906000526020600020905b81548152906001019060200180831161246d57829003601f168201915b505050505090806001018054600181600116156101000203166002900480601f0160208091040260200160405190810160405280929190818152602001828054600181600116156101000203166002900480156125285780601f106124fd57610100808354040283529160200191612528565b820191906000526020600020905b81548152906001019060200180831161250b57829003601f168201915b50505050600283015460039093015491929160ff808216925061010082048116916201000090041686565b60018054604080516020600284861615610100026000190190941693909304601f81018490048402820184019092528181529291830182828015611fa75780601f10611f7c57610100808354040283529160200191611fa7565b60148054829081106125bb57fe5b60009182526020918290206005919091020180546040805160026001841615610100026000190190931692909204601f8101859004850283018501909152808252919350918391908301828280156126545780601f1061262957610100808354040283529160200191612654565b820191906000526020600020905b81548152906001019060200180831161263757829003601f168201915b505050505090806001018054600181600116156101000203166002900480601f0160208091040260200160405190810160405280929190818152602001828054600181600116156101000203166002900480156126f25780601f106126c7576101008083540402835291602001916126f2565b820191906000526020600020905b8154815290600101906020018083116126d557829003601f168201915b505050506002830154600384015460049094015492939092600160a060020a03909116915085565b60085481565b60055481565b61272e615693565b6000805b600554811015610dd157600081815260366020526040902054600160a060020a03161561279e5760008181526037602052604090205460148054909190811061277757fe5b906000526020600020906005020160020154828260078110151561279757fe5b01556127af565b60008282600781106127ac57fe5b01555b600101612732565b600054600160a060020a031633146127ce57600080fd5b60008054604051600160a060020a03909116917ff8df31144d9c2f0f6b59d69b8b98abd5459d07f2742c4df920b25aae33c6482091a260008054600160a060020a0319169055565b600654339034101561282757600080fd5b336000818152603160205260409020600301805461ffff1916905560125460ff161561285257600080fd5b61285b33611616565b611612336138d7565b600a54600160a060020a031681565b61287b615777565b6000805481908190600160a060020a0316331461289757600080fd5b5060005b6005548110156115a157915081601581600781106128b557fe5b6040805160049290920292909201805460a06020601f60026000196101006001871615020190941693909304928301819004028401810190945260808301818152929391928492909184918401828280156129515780601f1061292657610100808354040283529160200191612951565b820191906000526020600020905b81548152906001019060200180831161293457829003601f168201915b50505050508152602001600182018054600181600116156101000203166002900480601f0160208091040260200160405190810160405280929190818152602001828054600181600116156101000203166002900480156129f35780601f106129c8576101008083540402835291602001916129f3565b820191906000526020600020905b8154815290600101906020018083116129d657829003601f168201915b505050505081526020016002820154815260200160038201548152505093508060010191505b600554821015612bbc5760158260078110612a3057fe5b600402016002015484604001511115612bb15760158260078110612a5057fe5b6040805160049290920292909201805460a06020601f6002600019610100600187161502019094169390930492830181900402840181019094526080830181815292939192849290918491840182828015612aec5780601f10612ac157610100808354040283529160200191612aec565b820191906000526020600020905b815481529060010190602001808311612acf57829003601f168201915b50505050508152602001600182018054600181600116156101000203166002900480601f016020809104026020016040519081016040528092919081815260200182805460018160011615610100020316600290048015612b8e5780601f10612b6357610100808354040283529160200191612b8e565b820191906000526020600020905b815481529060010190602001808311612b7157829003601f168201915b505050505081526020016002820154815260200160038201548152505093508192505b600190910190612a19565b828114612ca75760158160078110612bd057fe5b6004020160158460078110612be157fe5b6004020160008201816000019080546001816001161561010002031660029004612c0c9291906157a0565b5060018201816001019080546001816001161561010002031660029004612c349291906157a0565b50600282810154908201556003918201549101558360158260078110612c5657fe5b600402016000820151816000019080519060200190612c769291906156b2565b506020828101518051612c8f92600185019201906156b2565b50604082015160028201556060909101516003909101555b60010161289b565b612cb881611616565b610fbe816138d7565b60008054600160a060020a03163314612cd957600080fd5b50600880549082905560408051602081018390528082018490526060808252601a908201527f4f7261636c697a6520676173206c696d6974206368616e676564000000000000608082015290516000805160206158308339815191529181900360a00190a15050565b600054600160a060020a03163314612d5957600080fd5b600054600160a060020a0316ff5b600054606090600160a060020a03163314612d8157600080fd5b60018054604080516020600284861615610100026000190190941693909304601f81018490048402820184019092528181529291830182828015612e065780601f10612ddb57610100808354040283529160200191612e06565b820191906000526020600020905b815481529060010190602001808311612de957829003601f168201915b50508551939450612e22936001935060208701925090506156b2565b50600080516020615850833981519152818360405180806020018060200180602001848103845260148152602001807f506172616d657465722062206d6f64696669656400000000000000000000000081525060200184810383528681815181526020019150805190602001908083836000838110156111055781810151838201526020016110ed565b60008054600160a060020a03163314612ec457600080fd5b50600680549082905560408051602081018390528082018490526060808252601d908201527f47656e6572617465207469636b6574207072696365206368616e676564000000608082015290516000805160206158308339815191529181900360a00190a15050565b600054600160a060020a031681565b600054600160a060020a03163314612f5357600080fd5b6005546011541415612f7957612f67612873565b6000601155612f7461200b565b612342565b306000818152603160205260409020600301805461ffff1916905561234290612caf565b60095481565b6003805460408051602060026001851615610100026000190190941693909304601f81018490048402820184019092528181529291830182828015611fa75780601f10611f7c57610100808354040283529160200191611fa7565b600054606090600160a060020a0316331461301857600080fd5b6003805460408051602060026001851615610100026000190190941693909304601f8101849004840282018401909252818152929183018282801561309e5780601f106130735761010080835404028352916020019161309e565b820191906000526020600020905b81548152906001019060200180831161308157829003601f168201915b505085519394506130ba936003935060208701925090506156b2565b50600080516020615850833981519152818360405180806020018060200180602001848103845260148152602001807f506172616d657465722070206d6f64696669656400000000000000000000000081525060200184810383528681815181526020019150805190602001908083836000838110156111055781810151838201526020016110ed565b6004805460408051602060026001851615610100026000190190941693909304601f81018490048402820184019092528181529291830182828015611fa75780601f10611f7c57610100808354040283529160200191611fa7565b60008054600160a060020a031633146131b757600080fd5b5030315b90565b60385481565b60008054600160a060020a031633146131dc57600080fd5b506007805490829055604080516020810183905280820184905260608082526019908201527f53656c6c207469636b6574207072696365206368616e67656400000000000000608082015290516000805160206158308339815191529181900360a00190a15050565b60115481565b60008054600160a060020a0316331461326357600080fd5b506005805490829055604080516020810183905280820184905260608082526019908201527f53656c6c207469636b6574207072696365206368616e67656400000000000000608082015290516000805160206158308339815191529181900360a00190a15050565b60008054600160a060020a031633146132e457600080fd5b506009805490829055604080516020810183905280820184905260608082526021908201527f4f7261636c697a6520637573746f6d20676173207072696365206368616e676560808201527f640000000000000000000000000000000000000000000000000000000000000060a082015290516000805160206158308339815191529181900360c00190a15050565b60065481565b60105481565b600061338c6009546139eb565b604080516020808252601a908201527f41736b696e6720666f722061206e6577207469636b65742e2e2e0000000000008183015290517f096835e36c2ccea88ff2b3aca87dfc938b977e52ea656873ff76a8dba50d4d349181900360600190a16134366040805190810160405280600c81526020017f576f6c6672616d416c706861000000000000000000000000000000000000000081525061342e84614636565b600854613bd3565b60009081526034602052604090208054600160a060020a031916600160a060020a03939093169290921790915550565b60075481565b60356020526000908152604090205481565b600054600160a060020a0316331461349557600080fd5b610fbe81614ecb565b60396020526000908152604090205481565b600080548190819081908190600160a060020a031633146134d057600080fd5b6134e23031600763ffffffff614f3b16565b94506134f585600a63ffffffff614f6416565b945061350885600663ffffffff614f3b16565b935061351b85600363ffffffff614f3b16565b925061352e85600163ffffffff614f3b16565b915061354184600a63ffffffff614f6416565b935061355483600a63ffffffff614f6416565b925061356782600a63ffffffff614f6416565b915060385490505b603854600554018110156136065760138054600091908390811061358f57fe5b6000918252602090912060016007909202010154600160a060020a0316146135fe5783603960006013848154811015156135c557fe5b6000918252602080832060016007909302019190910154600160a060020a03168352820192909252604001902080549091019055613606565b60010161356f565b6001015b603854600554018110156136a15760138054600091908390811061362a57fe5b6000918252602090912060016007909202010154600160a060020a03161461369957826039600060138481548110151561366057fe5b6000918252602080832060016007909302019190910154600160a060020a031683528201929092526040019020805490910190556136a1565b60010161360a565b6001015b6038546005540181101561373c576013805460009190839081106136c557fe5b6000918252602090912060016007909202010154600160a060020a0316146137345781603960006013848154811015156136fb57fe5b6000918252602080832060016007909302019190910154600160a060020a0316835282019290925260400190208054909101905561373c565b6001016136a5565b601080546001019055600a54604051600160a060020a0390911690303180156108fc02916000818181858888f1935050505015801561377f573d6000803e3d6000fd5b50600090505b600554811015611f1d5760008181526036602090815260408083208054600160a060020a03191690556035825280832083905560378252808320929092558151808301909252600182527f3000000000000000000000000000000000000000000000000000000000000000908201526015826007811061380157fe5b60040201600001908051906020019061381b9291906156b2565b5060408051808201909152600181527f300000000000000000000000000000000000000000000000000000000000000060208201526015826007811061385d57fe5b6004020160010190805190602001906138779291906156b2565b5060006015826007811061388757fe5b60040201600201819055506010546015826007811015156138a457fe5b6004020160030155600101613785565b600054600160a060020a031633146138cb57600080fd5b80600160a060020a0316ff5b60006138e46009546139eb565b604080516020808252601f908201527f41736b696e6720666f722061206e6577206920706172616d657465722e2e2e008183015290517f096835e36c2ccea88ff2b3aca87dfc938b977e52ea656873ff76a8dba50d4d349181900360600190a16139bb6040805190810160405280600c81526020017f576f6c6672616d416c70686100000000000000000000000000000000000000008152506040805190810160405280600f81526020017f342072616e646f6d206e756d6265720000000000000000000000000000000000815250600854613bd3565b60009081526033602052604090208054600160a060020a031916600160a060020a03939093169290921790915550565b600b54600160a060020a03161580613a155750600b54613a1390600160a060020a0316614f79565b155b15613a2657613a246000614f7d565b505b600b60009054906101000a9004600160a060020a0316600160a060020a03166338cc48316040518163ffffffff1660e060020a028152600401602060405180830381600087803b158015613a7957600080fd5b505af1158015613a8d573d6000803e3d6000fd5b505050506040513d6020811015613aa357600080fd5b5051600c54600160a060020a03908116911614613b5957600b60009054906101000a9004600160a060020a0316600160a060020a03166338cc48316040518163ffffffff1660e060020a028152600401602060405180830381600087803b158015613b0d57600080fd5b505af1158015613b21573d6000803e3d6000fd5b505050506040513d6020811015613b3757600080fd5b5051600c8054600160a060020a031916600160a060020a039092169190911790555b600c54604080517fca6ad1e4000000000000000000000000000000000000000000000000000000008152600481018490529051600160a060020a039092169163ca6ad1e49160248082019260009290919082900301818387803b158015613bbf57600080fd5b505af1158015611f1d573d6000803e3d6000fd5b600b546000908190600160a060020a03161580613c025750600b54613c0090600160a060020a0316614f79565b155b15613c1357613c116000614f7d565b505b600b60009054906101000a9004600160a060020a0316600160a060020a03166338cc48316040518163ffffffff1660e060020a028152600401602060405180830381600087803b158015613c6657600080fd5b505af1158015613c7a573d6000803e3d6000fd5b505050506040513d6020811015613c9057600080fd5b5051600c54600160a060020a03908116911614613d4657600b60009054906101000a9004600160a060020a0316600160a060020a03166338cc48316040518163ffffffff1660e060020a028152600401602060405180830381600087803b158015613cfa57600080fd5b505af1158015613d0e573d6000803e3d6000fd5b505050506040513d6020811015613d2457600080fd5b5051600c8054600160a060020a031916600160a060020a039092169190911790555b600c54604080517f2ef3accc0000000000000000000000000000000000000000000000000000000081526024810186905260048101918252875160448201528751600160a060020a0390931692632ef3accc9289928892829160640190602086019080838360005b83811015613dc6578181015183820152602001613dae565b50505050905090810190601f168015613df35780820380516001836020036101000a031916815260200191505b509350505050602060405180830381600087803b158015613e1357600080fd5b505af1158015613e27573d6000803e3d6000fd5b505050506040513d6020811015613e3d57600080fd5b50519050670de0b6b3a76400003a840201811115613e5e5760009150613fd0565b600c546040517fc51be90f00000000000000000000000000000000000000000000000000000000815260006004820181815260648301879052608060248401908152895160848501528951600160a060020a039095169463c51be90f948794938c938c938c93604481019160a49091019060208801908083838c5b83811015613ef1578181015183820152602001613ed9565b50505050905090810190601f168015613f1e5780820380516001836020036101000a031916815260200191505b50838103825285518152855160209182019187019080838360005b83811015613f51578181015183820152602001613f39565b50505050905090810190601f168015613f7e5780820380516001836020036101000a031916815260200191505b5096505050505050506020604051808303818588803b158015613fa057600080fd5b505af1158015613fb4573d6000803e3d6000fd5b50505050506040513d6020811015613fcb57600080fd5b505191505b509392505050565b600b54600090600160a060020a031615806140055750600b5461400390600160a060020a0316614f79565b155b15614016576140146000614f7d565b505b600b60009054906101000a9004600160a060020a0316600160a060020a03166338cc48316040518163ffffffff1660e060020a028152600401602060405180830381600087803b15801561406957600080fd5b505af115801561407d573d6000803e3d6000fd5b505050506040513d602081101561409357600080fd5b5051600c54600160a060020a0390811691161461414957600b60009054906101000a9004600160a060020a0316600160a060020a03166338cc48316040518163ffffffff1660e060020a028152600401602060405180830381600087803b1580156140fd57600080fd5b505af1158015614111573d6000803e3d6000fd5b505050506040513d602081101561412757600080fd5b5051600c8054600160a060020a031916600160a060020a039092169190911790555b600c60009054906101000a9004600160a060020a0316600160a060020a031663c281d19e6040518163ffffffff1660e060020a028152600401602060405180830381600087803b15801561419c57600080fd5b505af11580156141b0573d6000803e3d6000fd5b505050506040513d60208110156141c657600080fd5b5051905090565b60006141da826000614f87565b92915050565b60408051600160a060020a03831660009081526031602090815290839020805460026001821615610100026000190190911604601f8101839004909202830160a0908101909452608083018281529293849392908401828280156142855780601f1061425a57610100808354040283529160200191614285565b820191906000526020600020905b81548152906001019060200180831161426857829003601f168201915b505050505081526020016031600084600160a060020a0316600160a060020a031681526020019081526020016000206001018054600181600116156101000203166002900480601f01602080910402602001604051908101604052809291908181526020018280546001816001161561010002031660029004801561434b5780601f106143205761010080835404028352916020019161434b565b820191906000526020600020905b81548152906001019060200180831161432e57829003601f168201915b5050509183525050600160a060020a03831660009081526031602090815260409182902060020154908301526010549101526011546015906007811061438d57fe5b6004020160008201518160000190805190602001906143ad9291906156b2565b5060208281015180516143c692600185019201906156b2565b506040820151600282015560609091015160039091015550601180546001019055565b60408051600160a060020a03831660009081526031602090815283822080546002600180831615610100026000190190921604601f8101849004909302850160c090810190965260a08501838152939590946014949093849391928401828280156144955780601f1061446a57610100808354040283529160200191614495565b820191906000526020600020905b81548152906001019060200180831161447857829003601f168201915b505050505081526020016031600087600160a060020a0316600160a060020a031681526020019081526020016000206001018054600181600116156101000203166002900480601f01602080910402602001604051908101604052809291908181526020018280546001816001161561010002031660029004801561455b5780601f106145305761010080835404028352916020019161455b565b820191906000526020600020905b81548152906001019060200180831161453e57829003601f168201915b5050509183525050600160a060020a0386166000818152603160209081526040808320600201548286015284019290925260105460609093019290925283546001810180865594835291819020835180516005909402909101926145c292849201906156b2565b5060208281015180516145db92600185019201906156b2565b50604082015160028201556060820151600382018054600160a060020a031916600160a060020a0390921691909117905560809091015160049091015503905061161281611ce2565b60008282111561463057fe5b50900390565b604080518082018252600c81527f286d6f642828312f2831305e000000000000000000000000000000000000000060208083019190915260028054845160018216156101000260001901909116829004601f8101849004840282018401909552848152606094859461480d94909391908301828280156146f75780601f106146cc576101008083540402835291602001916146f7565b820191906000526020600020905b8154815290600101906020018083116146da57829003601f168201915b505060408051808201825260018082527f2d00000000000000000000000000000000000000000000000000000000000000602080840191909152600160a060020a038d1660009081526031825284902080548551600294821615610100026000190190911693909304601f81018390048302840183019095528483529296509094509092508301828280156147cd5780601f106147a2576101008083540402835291602001916147cd565b820191906000526020600020905b8154815290600101906020018083116147b057829003601f168201915b50505050506040805190810160405280600681526020017f29292a31305e00000000000000000000000000000000000000000000000000008152506150f9565b60038054604080516020601f600260001961010060018816150201909516949094049384018190048102820181019092528281529394506149a19385939092909183018282801561489f5780601f106148745761010080835404028352916020019161489f565b820191906000526020600020905b81548152906001019060200180831161488257829003601f168201915b5050604080518082018252600581527f2c31305e2800000000000000000000000000000000000000000000000000000060208083019190915260048054845160026001831615610100026000190190921691909104601f81018490048402820184019095528481529296509194509092508301828280156149615780601f1061493657610100808354040283529160200191614961565b820191906000526020600020905b81548152906001019060200180831161494457829003601f168201915b50505050506040805190810160405280600181526020017f2b000000000000000000000000000000000000000000000000000000000000008152506150f9565b9050614b62816031600086600160a060020a0316600160a060020a031681526020019081526020016000206001018054600181600116156101000203166002900480601f016020809104026020016040519081016040528092919081815260200182805460018160011615610100020316600290048015614a635780601f10614a3857610100808354040283529160200191614a63565b820191906000526020600020905b815481529060010190602001808311614a4657829003601f168201915b5050604080518082018252600d81527f292d6d6f642828312f2831305e0000000000000000000000000000000000000060208083019190915260028054845160018216156101000260001901909116829004601f8101849004840282018401909552848152929650919450909250830182828015614b225780601f10614af757610100808354040283529160200191614b22565b820191906000526020600020905b815481529060010190602001808311614b0557829003601f168201915b50505050506040805190810160405280600181526020017f2d000000000000000000000000000000000000000000000000000000000000008152506150f9565b600160a060020a03841660009081526031602090815260409182902080548351601f60026000196101006001861615020190931692909204918201849004840281018401909452808452939450614d0993859392830182828015614c075780601f10614bdc57610100808354040283529160200191614c07565b820191906000526020600020905b815481529060010190602001808311614bea57829003601f168201915b5050604080518082018252600681527f29292a31305e000000000000000000000000000000000000000000000000000060208083019190915260038054845160026001831615610100026000190190921691909104601f8101849004840282018401909552848152929650919450909250830182828015614cc95780601f10614c9e57610100808354040283529160200191614cc9565b820191906000526020600020905b815481529060010190602001808311614cac57829003601f168201915b50505050506040805190810160405280600481526020017f2c31305e000000000000000000000000000000000000000000000000000000008152506150f9565b60408051808201825260018082527f2800000000000000000000000000000000000000000000000000000000000000602080840191909152600160a060020a038816600090815260318252849020820180548551600294821615610100026000190190911693909304601f8101839004830284018301909552848352949550614ec49486949091830182828015614de15780601f10614db657610100808354040283529160200191614de1565b820191906000526020600020905b815481529060010190602001808311614dc457829003601f168201915b5050604080518082018252600781527f2929292f31305e00000000000000000000000000000000000000000000000000602080830191909152600160a060020a038d16600090815260318252839020600190810180548551600293821615610100026000190190911692909204601f81018490048402830184019095528482529296509450909250830182828015614eba5780601f10614e8f57610100808354040283529160200191614eba565b820191906000526020600020905b815481529060010190602001808311614e9d57829003601f168201915b50505050506150f9565b9392505050565b600160a060020a0381161515614ee057600080fd5b60008054604051600160a060020a03808516939216917f8be0079c531659141344cd1fd0a4f28419497f9722a3daafe3b4186f6b6457e091a360008054600160a060020a031916600160a060020a0392909216919091179055565b6000821515614f4c575060006141da565b50818102818382811515614f5c57fe5b04146141da57fe5b60008183811515614f7157fe5b049392505050565b3b90565b60006141da61535a565b6000828180805b83518110156150dc5783517f300000000000000000000000000000000000000000000000000000000000000090859083908110614fc757fe5b90602001015160f860020a900460f860020a02600160f860020a0319161015801561503d575083517f39000000000000000000000000000000000000000000000000000000000000009085908390811061501d57fe5b90602001015160f860020a900460f860020a02600160f860020a03191611155b1561509657811561505c57851515615054576150dc565b600019909501945b600a830292506030848281518110151561507257fe5b90602001015160f860020a900460f860020a0260f860020a900403830192506150d4565b83818151811015156150a457fe5b90602001015160f860020a900460f860020a02600160f860020a031916602e60f860020a0214156150d457600191505b600101614f8e565b60008611156150ee5785600a0a830292505b509095945050505050565b6060806060806060806060806000808e98508d97508c96508b95508a94508451865188518a518c51010101016040519080825280601f01601f191660200182016040528015615152578160200160208202803883390190505b50935083925060009150600090505b88518110156151bf57888181518110151561517857fe5b90602001015160f860020a900460f860020a02838380600101945081518110151561519f57fe5b906020010190600160f860020a031916908160001a905350600101615161565b5060005b87518110156152215787818151811015156151da57fe5b90602001015160f860020a900460f860020a02838380600101945081518110151561520157fe5b906020010190600160f860020a031916908160001a9053506001016151c3565b5060005b865181101561528357868181518110151561523c57fe5b90602001015160f860020a900460f860020a02838380600101945081518110151561526357fe5b906020010190600160f860020a031916908160001a905350600101615225565b5060005b85518110156152e557858181518110151561529e57fe5b90602001015160f860020a900460f860020a0283838060010194508151811015156152c557fe5b906020010190600160f860020a031916908160001a905350600101615287565b5060005b845181101561534757848181518110151561530057fe5b90602001015160f860020a900460f860020a02838380600101945081518110151561532757fe5b906020010190600160f860020a031916908160001a9053506001016152e9565b50909d9c50505050505050505050505050565b60008061537a731d3b2638a7cc9f2cb3d298a3da7a90b67e5506ed614f79565b11156153ea57600b8054600160a060020a031916731d3b2638a7cc9f2cb3d298a3da7a90b67e5506ed178155604080518082019091529081527f6574685f6d61696e6e657400000000000000000000000000000000000000000060208201526153e290615680565b5060016131bb565b600061540973c03a2615d5efaf5f49f60b7bb6583eaec212fdf1614f79565b111561547257600b8054600160a060020a03191673c03a2615d5efaf5f49f60b7bb6583eaec212fdf117905560408051808201909152600c81527f6574685f726f707374656e33000000000000000000000000000000000000000060208201526153e290615680565b600061549173b7a07bcf2ba2f2703b24c0691b5278999c59ac7e614f79565b11156154fa57600b8054600160a060020a03191673b7a07bcf2ba2f2703b24c0691b5278999c59ac7e17905560408051808201909152600981527f6574685f6b6f76616e000000000000000000000000000000000000000000000060208201526153e290615680565b600061551973146500cfd35b22e4a392fe0adc06de1a1368ed48614f79565b111561558157600b8054600160a060020a03191673146500cfd35b22e4a392fe0adc06de1a1368ed48178155604080518082019091529081527f6574685f72696e6b65627900000000000000000000000000000000000000000060208201526153e290615680565b60006155a0736f485c8bf6fc43ea212e93bbf8ce046c7f1cb475614f79565b11156155d45750600b8054600160a060020a031916736f485c8bf6fc43ea212e93bbf8ce046c7f1cb47517905560016131bb565b60006155f37320e12a1f859b3feae5fb2a0a32c18f5a65555bbf614f79565b11156156275750600b8054600160a060020a0319167320e12a1f859b3feae5fb2a0a32c18f5a65555bbf17905560016131bb565b60006156467351efaf4c8b3c9afbd5ab9f4bbc82784ab6ef8faa614f79565b111561567a5750600b8054600160a060020a0319167351efaf4c8b3c9afbd5ab9f4bbc82784ab6ef8faa17905560016131bb565b50600090565b805161161290600d9060208401906156b2565b60e0604051908101604052806007906020820280388339509192915050565b828054600181600116156101000203166002900490600052602060002090601f016020900481019282601f106156f357805160ff1916838001178555615720565b82800160010185558215615720579182015b82811115615720578251825591602001919060010190615705565b5061572c929150615815565b5090565b60e060405190810160405280600081526020016000600160a060020a0316815260200160008152602001600081526020016000815260200160008152602001600081525090565b608060405190810160405280606081526020016060815260200160008152602001600081525090565b828054600181600116156101000203166002900490600052602060002090601f016020900481019282601f106157d95780548555615720565b8280016001018555821561572057600052602060002091601f016020900482015b828111156157205782548255916001019190600101906157fa565b6131bb91905b8082111561572c576000815560010161581b56009bc068999fb1a0aac007a9b44ca6322a376441f42706bf5163600bb3d1a731647ecbd54b3baea533cf57ef049f9e04554be6a660d6dacd477488066eedf27beea165627a7a72305820b114078e46f797078391ce313b0736723d2a64fb3abc1d343d12fedb127d2e750029",
  "source": "pragma solidity ^0.4.20;\nimport \"./Lucky7Ballot.sol\";\nimport \"./Destructible.sol\";\n\ncontract Lucky7Store is Lucky7Ballot, Destructible{\n    \n    using SafeMath for uint256;\n    \n    function Lucky7Store() payable public{\n        \n    }\n    \n    modifier userBoughtTicket(address _ticketOwner){\n        require(msg.value >= sellTicketPrice);\n        userValues[_ticketOwner].userPaidTicket = true;\n        _;\n    }\n    \n    modifier userBoughtParameters(address _ticketOwner){\n        require(msg.value >= generateTicketPrice);\n        _;\n    }\n    \n    \n    modifier setParametersToReady(address _ticketOwner){\n        userValues[_ticketOwner].muReady = false;\n        userValues[_ticketOwner].iReady = false;\n        _;\n    }\n    \n    //Circuit breakers--------\n    \n    modifier sellingIsActive {\n        require(settingLucky7Numbers==false);\n        _;\n    }\n    //------------------------\n    \n    \n    function sellRandomTicket() \n        public\n        payable \n        userBoughtTicket(msg.sender)\n        setParametersToReady(msg.sender)\n        sellingIsActive\n    {\n        _generateTicket(msg.sender);\n    }\n    \n    function generateRandomTicket() \n        public \n        payable \n        userBoughtParameters(msg.sender)\n        setParametersToReady(msg.sender)\n        sellingIsActive\n    {\n        _askForMuParameter(msg.sender);\n        _askForIParameter(msg.sender);\n    }\n    \n    function sellGeneratedTicket() \n        public \n        payable \n        userBoughtTicket(msg.sender)\n        sellingIsActive\n    {\n        require(keccak256(userValues[msg.sender].mu)!=keccak256('') && keccak256(userValues[msg.sender].i)!=keccak256(''));\n        _askForTicket(msg.sender);\n    }\n    \n    function () public payable{\n        \n    }\n}   \n                                           \n",
  "sourcePath": "/Users/matiasbarrios/Desktop/Proyecto Consensys/luckyseven/contracts/Lucky7Store.sol",
  "compiler": {
    "name": "solc",
    "version": "0.4.24+commit.e67f0147.Emscripten.clang"
  },
  "schemaVersion": "2.0.1",
  "updatedAt": "2018-08-24T20:45:46.100Z"
}