{
  "contractName": "Lucky7Ballot",
  "abi": [
    {
      "constant": false,
      "inputs": [
        {
          "name": "_newValue",
          "type": "string"
        }
      ],
      "name": "modifyParameterN",
      "outputs": [],
      "payable": false,
      "stateMutability": "nonpayable",
      "type": "function"
    },
    {
      "constant": true,
      "inputs": [
        {
          "name": "",
          "type": "uint256"
        }
      ],
      "name": "lucky7TicketID",
      "outputs": [
        {
          "name": "",
          "type": "uint256"
        }
      ],
      "payable": false,
      "stateMutability": "view",
      "type": "function"
    },
    {
      "constant": true,
      "inputs": [
        {
          "name": "",
          "type": "uint256"
        }
      ],
      "name": "lucky7TicketOwner",
      "outputs": [
        {
          "name": "",
          "type": "address"
        }
      ],
      "payable": false,
      "stateMutability": "view",
      "type": "function"
    },
    {
      "constant": false,
      "inputs": [
        {
          "name": "_ticketOwner",
          "type": "address"
        }
      ],
      "name": "_askForMuParameter",
      "outputs": [],
      "payable": true,
      "stateMutability": "payable",
      "type": "function"
    },
    {
      "constant": false,
      "inputs": [
        {
          "name": "myid",
          "type": "bytes32"
        },
        {
          "name": "result",
          "type": "string"
        }
      ],
      "name": "__callback",
      "outputs": [],
      "payable": false,
      "stateMutability": "nonpayable",
      "type": "function"
    },
    {
      "constant": true,
      "inputs": [],
      "name": "settingLucky7Numbers",
      "outputs": [
        {
          "name": "",
          "type": "bool"
        }
      ],
      "payable": false,
      "stateMutability": "view",
      "type": "function"
    },
    {
      "constant": false,
      "inputs": [
        {
          "name": "_ticketID",
          "type": "uint256"
        }
      ],
      "name": "_checkForLucky7Ticket",
      "outputs": [],
      "payable": false,
      "stateMutability": "nonpayable",
      "type": "function"
    },
    {
      "constant": true,
      "inputs": [],
      "name": "n",
      "outputs": [
        {
          "name": "",
          "type": "string"
        }
      ],
      "payable": false,
      "stateMutability": "view",
      "type": "function"
    },
    {
      "constant": false,
      "inputs": [
        {
          "name": "myid",
          "type": "bytes32"
        },
        {
          "name": "result",
          "type": "string"
        },
        {
          "name": "proof",
          "type": "bytes"
        }
      ],
      "name": "__callback",
      "outputs": [],
      "payable": false,
      "stateMutability": "nonpayable",
      "type": "function"
    },
    {
      "constant": true,
      "inputs": [
        {
          "name": "",
          "type": "uint256"
        }
      ],
      "name": "lucky7Tickets",
      "outputs": [
        {
          "name": "difference",
          "type": "uint256"
        },
        {
          "name": "owner",
          "type": "address"
        },
        {
          "name": "ticketID",
          "type": "uint256"
        },
        {
          "name": "ticketValue",
          "type": "uint256"
        },
        {
          "name": "lucky7Number",
          "type": "uint256"
        },
        {
          "name": "lucky7NumberID",
          "type": "uint256"
        },
        {
          "name": "drawID",
          "type": "uint256"
        }
      ],
      "payable": false,
      "stateMutability": "view",
      "type": "function"
    },
    {
      "constant": false,
      "inputs": [],
      "name": "toggleLucky7Setting",
      "outputs": [],
      "payable": false,
      "stateMutability": "nonpayable",
      "type": "function"
    },
    {
      "constant": false,
      "inputs": [
        {
          "name": "_newValue",
          "type": "string"
        }
      ],
      "name": "modifyParameterJ",
      "outputs": [],
      "payable": false,
      "stateMutability": "nonpayable",
      "type": "function"
    },
    {
      "constant": true,
      "inputs": [
        {
          "name": "",
          "type": "uint256"
        }
      ],
      "name": "lucky7Numbers",
      "outputs": [
        {
          "name": "mu",
          "type": "string"
        },
        {
          "name": "i",
          "type": "string"
        },
        {
          "name": "ticketValue",
          "type": "uint256"
        },
        {
          "name": "drawID",
          "type": "uint256"
        }
      ],
      "payable": false,
      "stateMutability": "view",
      "type": "function"
    },
    {
      "constant": false,
      "inputs": [
        {
          "name": "_newAddress",
          "type": "address"
        }
      ],
      "name": "modifyEnterpriseWallet",
      "outputs": [],
      "payable": false,
      "stateMutability": "nonpayable",
      "type": "function"
    },
    {
      "constant": true,
      "inputs": [
        {
          "name": "",
          "type": "address"
        }
      ],
      "name": "userValues",
      "outputs": [
        {
          "name": "mu",
          "type": "string"
        },
        {
          "name": "i",
          "type": "string"
        },
        {
          "name": "ticketValue",
          "type": "uint256"
        },
        {
          "name": "muReady",
          "type": "bool"
        },
        {
          "name": "iReady",
          "type": "bool"
        },
        {
          "name": "userPaidTicket",
          "type": "bool"
        }
      ],
      "payable": false,
      "stateMutability": "view",
      "type": "function"
    },
    {
      "constant": true,
      "inputs": [],
      "name": "b",
      "outputs": [
        {
          "name": "",
          "type": "string"
        }
      ],
      "payable": false,
      "stateMutability": "view",
      "type": "function"
    },
    {
      "constant": true,
      "inputs": [
        {
          "name": "",
          "type": "uint256"
        }
      ],
      "name": "tickets",
      "outputs": [
        {
          "name": "mu",
          "type": "string"
        },
        {
          "name": "i",
          "type": "string"
        },
        {
          "name": "ticketValue",
          "type": "uint256"
        },
        {
          "name": "owner",
          "type": "address"
        },
        {
          "name": "drawID",
          "type": "uint256"
        }
      ],
      "payable": false,
      "stateMutability": "view",
      "type": "function"
    },
    {
      "constant": true,
      "inputs": [],
      "name": "oraclizeGasLimit",
      "outputs": [
        {
          "name": "",
          "type": "uint256"
        }
      ],
      "payable": false,
      "stateMutability": "view",
      "type": "function"
    },
    {
      "constant": true,
      "inputs": [],
      "name": "numberOfLucky7Numbers",
      "outputs": [
        {
          "name": "",
          "type": "uint256"
        }
      ],
      "payable": false,
      "stateMutability": "view",
      "type": "function"
    },
    {
      "constant": false,
      "inputs": [],
      "name": "renounceOwnership",
      "outputs": [],
      "payable": false,
      "stateMutability": "nonpayable",
      "type": "function"
    },
    {
      "constant": true,
      "inputs": [],
      "name": "enterpriseWallet",
      "outputs": [
        {
          "name": "",
          "type": "address"
        }
      ],
      "payable": false,
      "stateMutability": "view",
      "type": "function"
    },
    {
      "constant": false,
      "inputs": [
        {
          "name": "_ticketOwner",
          "type": "address"
        }
      ],
      "name": "_generateTicket",
      "outputs": [],
      "payable": false,
      "stateMutability": "nonpayable",
      "type": "function"
    },
    {
      "constant": false,
      "inputs": [
        {
          "name": "_newValue",
          "type": "uint256"
        }
      ],
      "name": "modifyOraclizeGasLimit",
      "outputs": [],
      "payable": false,
      "stateMutability": "nonpayable",
      "type": "function"
    },
    {
      "constant": false,
      "inputs": [
        {
          "name": "_newValue",
          "type": "string"
        }
      ],
      "name": "modifyParameterB",
      "outputs": [],
      "payable": false,
      "stateMutability": "nonpayable",
      "type": "function"
    },
    {
      "constant": false,
      "inputs": [
        {
          "name": "_newValue",
          "type": "uint256"
        }
      ],
      "name": "modifyGenerateTicketPrice",
      "outputs": [],
      "payable": false,
      "stateMutability": "nonpayable",
      "type": "function"
    },
    {
      "constant": true,
      "inputs": [],
      "name": "owner",
      "outputs": [
        {
          "name": "",
          "type": "address"
        }
      ],
      "payable": false,
      "stateMutability": "view",
      "type": "function"
    },
    {
      "constant": true,
      "inputs": [],
      "name": "oraclizeCustomGasPrice",
      "outputs": [
        {
          "name": "",
          "type": "uint256"
        }
      ],
      "payable": false,
      "stateMutability": "view",
      "type": "function"
    },
    {
      "constant": true,
      "inputs": [],
      "name": "p",
      "outputs": [
        {
          "name": "",
          "type": "string"
        }
      ],
      "payable": false,
      "stateMutability": "view",
      "type": "function"
    },
    {
      "constant": false,
      "inputs": [
        {
          "name": "_newValue",
          "type": "string"
        }
      ],
      "name": "modifyParameterP",
      "outputs": [],
      "payable": false,
      "stateMutability": "nonpayable",
      "type": "function"
    },
    {
      "constant": true,
      "inputs": [],
      "name": "j",
      "outputs": [
        {
          "name": "",
          "type": "string"
        }
      ],
      "payable": false,
      "stateMutability": "view",
      "type": "function"
    },
    {
      "constant": true,
      "inputs": [],
      "name": "balance",
      "outputs": [
        {
          "name": "",
          "type": "uint256"
        }
      ],
      "payable": false,
      "stateMutability": "view",
      "type": "function"
    },
    {
      "constant": true,
      "inputs": [],
      "name": "initialLucky7TicketPosition",
      "outputs": [
        {
          "name": "",
          "type": "uint256"
        }
      ],
      "payable": false,
      "stateMutability": "view",
      "type": "function"
    },
    {
      "constant": false,
      "inputs": [
        {
          "name": "_newValue",
          "type": "uint256"
        }
      ],
      "name": "modifySellTicketPrice",
      "outputs": [],
      "payable": false,
      "stateMutability": "nonpayable",
      "type": "function"
    },
    {
      "constant": true,
      "inputs": [],
      "name": "indexForLucky7Array",
      "outputs": [
        {
          "name": "",
          "type": "uint256"
        }
      ],
      "payable": false,
      "stateMutability": "view",
      "type": "function"
    },
    {
      "constant": false,
      "inputs": [
        {
          "name": "_newValue",
          "type": "uint256"
        }
      ],
      "name": "modifyNumberOfLucky7Numbers",
      "outputs": [],
      "payable": false,
      "stateMutability": "nonpayable",
      "type": "function"
    },
    {
      "constant": false,
      "inputs": [
        {
          "name": "_newValue",
          "type": "uint256"
        }
      ],
      "name": "modifyOraclizeCustomGasPrice",
      "outputs": [],
      "payable": false,
      "stateMutability": "nonpayable",
      "type": "function"
    },
    {
      "constant": true,
      "inputs": [],
      "name": "generateTicketPrice",
      "outputs": [
        {
          "name": "",
          "type": "uint256"
        }
      ],
      "payable": false,
      "stateMutability": "view",
      "type": "function"
    },
    {
      "constant": true,
      "inputs": [],
      "name": "drawNumber",
      "outputs": [
        {
          "name": "",
          "type": "uint256"
        }
      ],
      "payable": false,
      "stateMutability": "view",
      "type": "function"
    },
    {
      "constant": false,
      "inputs": [
        {
          "name": "_ticketOwner",
          "type": "address"
        }
      ],
      "name": "_askForTicket",
      "outputs": [],
      "payable": false,
      "stateMutability": "nonpayable",
      "type": "function"
    },
    {
      "constant": true,
      "inputs": [],
      "name": "sellTicketPrice",
      "outputs": [
        {
          "name": "",
          "type": "uint256"
        }
      ],
      "payable": false,
      "stateMutability": "view",
      "type": "function"
    },
    {
      "constant": true,
      "inputs": [
        {
          "name": "",
          "type": "uint256"
        }
      ],
      "name": "lucky7TicketDifference",
      "outputs": [
        {
          "name": "",
          "type": "uint256"
        }
      ],
      "payable": false,
      "stateMutability": "view",
      "type": "function"
    },
    {
      "constant": false,
      "inputs": [
        {
          "name": "_newOwner",
          "type": "address"
        }
      ],
      "name": "transferOwnership",
      "outputs": [],
      "payable": false,
      "stateMutability": "nonpayable",
      "type": "function"
    },
    {
      "constant": true,
      "inputs": [
        {
          "name": "",
          "type": "address"
        }
      ],
      "name": "pendingWithdrawals",
      "outputs": [
        {
          "name": "",
          "type": "uint256"
        }
      ],
      "payable": false,
      "stateMutability": "view",
      "type": "function"
    },
    {
      "constant": false,
      "inputs": [
        {
          "name": "_ticketOwner",
          "type": "address"
        }
      ],
      "name": "_askForIParameter",
      "outputs": [],
      "payable": false,
      "stateMutability": "nonpayable",
      "type": "function"
    },
    {
      "inputs": [],
      "payable": true,
      "stateMutability": "payable",
      "type": "constructor"
    },
    {
      "payable": true,
      "stateMutability": "payable",
      "type": "fallback"
    },
    {
      "anonymous": false,
      "inputs": [
        {
          "indexed": false,
          "name": "description",
          "type": "string"
        }
      ],
      "name": "NewOraclizeQuery",
      "type": "event"
    },
    {
      "anonymous": false,
      "inputs": [
        {
          "indexed": false,
          "name": "muParameter",
          "type": "string"
        }
      ],
      "name": "NewMuReceived",
      "type": "event"
    },
    {
      "anonymous": false,
      "inputs": [
        {
          "indexed": false,
          "name": "iParameter",
          "type": "string"
        }
      ],
      "name": "NewIReceived",
      "type": "event"
    },
    {
      "anonymous": false,
      "inputs": [
        {
          "indexed": false,
          "name": "newTicket",
          "type": "string"
        }
      ],
      "name": "NewTicketReceived",
      "type": "event"
    },
    {
      "anonymous": false,
      "inputs": [
        {
          "indexed": false,
          "name": "description",
          "type": "string"
        }
      ],
      "name": "NewWolframQuery",
      "type": "event"
    },
    {
      "anonymous": false,
      "inputs": [
        {
          "indexed": false,
          "name": "ticketID",
          "type": "uint256"
        }
      ],
      "name": "NewLucky7Ticket",
      "type": "event"
    },
    {
      "anonymous": false,
      "inputs": [
        {
          "indexed": false,
          "name": "value",
          "type": "uint256"
        }
      ],
      "name": "NewLucky7Number",
      "type": "event"
    },
    {
      "anonymous": false,
      "inputs": [
        {
          "indexed": false,
          "name": "feeType",
          "type": "string"
        },
        {
          "indexed": false,
          "name": "_oldValue",
          "type": "uint256"
        },
        {
          "indexed": false,
          "name": "_newValue",
          "type": "uint256"
        }
      ],
      "name": "numberModified",
      "type": "event"
    },
    {
      "anonymous": false,
      "inputs": [
        {
          "indexed": false,
          "name": "parameter",
          "type": "string"
        },
        {
          "indexed": false,
          "name": "_oldValue",
          "type": "string"
        },
        {
          "indexed": false,
          "name": "_newValue",
          "type": "string"
        }
      ],
      "name": "parameterModified",
      "type": "event"
    },
    {
      "anonymous": false,
      "inputs": [
        {
          "indexed": false,
          "name": "parameter",
          "type": "string"
        },
        {
          "indexed": false,
          "name": "_oldValue",
          "type": "address"
        },
        {
          "indexed": false,
          "name": "_newValue",
          "type": "address"
        }
      ],
      "name": "walletModified",
      "type": "event"
    },
    {
      "anonymous": false,
      "inputs": [
        {
          "indexed": true,
          "name": "previousOwner",
          "type": "address"
        }
      ],
      "name": "OwnershipRenounced",
      "type": "event"
    },
    {
      "anonymous": false,
      "inputs": [
        {
          "indexed": true,
          "name": "previousOwner",
          "type": "address"
        },
        {
          "indexed": true,
          "name": "newOwner",
          "type": "address"
        }
      ],
      "name": "OwnershipTransferred",
      "type": "event"
    },
    {
      "constant": false,
      "inputs": [],
      "name": "_generateLucky7Number",
      "outputs": [],
      "payable": false,
      "stateMutability": "nonpayable",
      "type": "function"
    },
    {
      "constant": false,
      "inputs": [],
      "name": "setNewGame",
      "outputs": [],
      "payable": false,
      "stateMutability": "nonpayable",
      "type": "function"
    },
    {
      "constant": false,
      "inputs": [],
      "name": "_orderLucky7Numbers",
      "outputs": [],
      "payable": false,
      "stateMutability": "nonpayable",
      "type": "function"
    },
    {
      "constant": false,
      "inputs": [],
      "name": "_orderLucky7Tickets",
      "outputs": [],
      "payable": false,
      "stateMutability": "nonpayable",
      "type": "function"
    },
    {
      "constant": false,
      "inputs": [],
      "name": "_deliverPrizes",
      "outputs": [],
      "payable": false,
      "stateMutability": "nonpayable",
      "type": "function"
    },
    {
      "constant": false,
      "inputs": [],
      "name": "withdraw",
      "outputs": [],
      "payable": false,
      "stateMutability": "nonpayable",
      "type": "function"
    },
    {
      "constant": true,
      "inputs": [],
      "name": "getlucky7Numbers",
      "outputs": [
        {
          "name": "",
          "type": "uint256[7]"
        }
      ],
      "payable": false,
      "stateMutability": "view",
      "type": "function"
    },
    {
      "constant": true,
      "inputs": [],
      "name": "getlucky7Tickets",
      "outputs": [
        {
          "name": "",
          "type": "uint256[7]"
        }
      ],
      "payable": false,
      "stateMutability": "view",
      "type": "function"
    },
    {
      "constant": false,
      "inputs": [
        {
          "name": "_id",
          "type": "uint256"
        },
        {
          "name": "_mu",
          "type": "string"
        },
        {
          "name": "_i",
          "type": "string"
        },
        {
          "name": "_ticketValue",
          "type": "uint256"
        },
        {
          "name": "_drawNumber",
          "type": "uint256"
        }
      ],
      "name": "insertCustomizedLucky7Number",
      "outputs": [],
      "payable": false,
      "stateMutability": "nonpayable",
      "type": "function"
    },
    {
      "constant": false,
      "inputs": [
        {
          "name": "_mu",
          "type": "string"
        },
        {
          "name": "_i",
          "type": "string"
        },
        {
          "name": "_ticketValue",
          "type": "uint256"
        },
        {
          "name": "_ticketOwner",
          "type": "address"
        },
        {
          "name": "_drawNumber",
          "type": "uint256"
        }
      ],
      "name": "insertCustomizedTicket",
      "outputs": [
        {
          "name": "",
          "type": "uint256"
        }
      ],
      "payable": false,
      "stateMutability": "nonpayable",
      "type": "function"
    }
  ],
  "bytecode": "0x60c0604052600160808190527f310000000000000000000000000000000000000000000000000000000000000060a09081526200003e919081620001aa565b506040805180820190915260018082527f380000000000000000000000000000000000000000000000000000000000000060209092019182526200008591600291620001aa565b506040805180820190915260058082527f31303030300000000000000000000000000000000000000000000000000000006020909201918252620000cc91600391620001aa565b506040805180820190915260028082527f323000000000000000000000000000000000000000000000000000000000000060209092019182526200011391600491620001aa565b50600760058190556611c37937e08000600655662aa1efb94e00009055620493e060085563ee6b280060095560008054600a8054600160a060020a0319908116600160a060020a03841617909155601083905560118390556012805460ff1916600117905560388390559081163317909155600b805490911673de6ddb95052e8072de64d814077148b95e43e1e01790556200024f565b828054600181600116156101000203166002900490600052602060002090601f016020900481019282601f10620001ed57805160ff19168380011785556200021d565b828001600101855582156200021d579182015b828111156200021d57825182559160200191906001019062000200565b506200022b9291506200022f565b5090565b6200024c91905b808211156200022b576000815560010162000236565b90565b615983806200025f6000396000f30060806040526004361061026e5763ffffffff60e060020a60003504166301591f1381146102705780630cc38b2b146102bd57806310cd4b8a146103165780631c3ed1d3146103405780631cf4c3d11461037457806323d370ba1461038957806327dc297e1461039d5780632caf9eee146103fb5780632de729eb146104245780632e52d6061461043c57806338bbfa50146104c6578063396fb4221461056257806339df3f4f146105ba5780633bb7daf4146105cf5780633ccfd60b146106285780633eba34661461063d578063400149111461074157806349f6b030146107565780634acfd9b8146107775780634df7e3d01461089657806350b44712146108ab57806350b9c428146109be57806359f9fe82146109d35780635edbc36b146109e85780635fff9ae3146109fd578063715018a614610aa2578063741606b514610ab757806375edd25714610acc57806377d8a83014610ae1578063809fc15314610b0257806383bb7bb714610b1a5780638aa5fafa14610b735780638da5cb5b14610b8b57806390c31c4c14610ba05780639ac2bf9114610bb55780639ae8886a14610bca5780639dec38ab14610bdf578063b582ec5f14610c38578063b69ef8a814610c4d578063bb4127e814610c62578063bb49516b14610d0e578063bcb740ab14610d23578063c56969ab14610d3b578063c71f04ac14610d50578063d383e86214610d68578063d566bcf014610d80578063d80ffb2014610d95578063ddc110fa14610daa578063e5663c4814610dcb578063e802ae1414610de0578063f2fde38b14610df8578063f3f4370314610e19578063f405228914610e3a578063fd9be1b214610e4f575b005b34801561027c57600080fd5b50610285610e70565b604051808260e080838360005b838110156102aa578181015183820152602001610292565b5050505090500191505060405180910390f35b3480156102c957600080fd5b506040805160206004803580820135601f810184900484028501840190955284845261026e943694929360249392840191908190840183828082843750949750610ee79650505050505050565b34801561032257600080fd5b5061032e6004356110cc565b60408051918252519081900360200190f35b34801561034c57600080fd5b506103586004356110de565b60408051600160a060020a039092168252519081900360200190f35b34801561038057600080fd5b5061026e6110f9565b61026e600160a060020a03600435166114cd565b3480156103a957600080fd5b5060408051602060046024803582810135601f810185900485028601850190965285855261026e9583359536956044949193909101919081908401838280828437509497506115df9650505050505050565b34801561040757600080fd5b50610410611b94565b604080519115158252519081900360200190f35b34801561043057600080fd5b5061026e600435611b9d565b34801561044857600080fd5b50610451611e11565b6040805160208082528351818301528351919283929083019185019080838360005b8381101561048b578181015183820152602001610473565b50505050905090810190601f1680156104b85780820380516001836020036101000a031916815260200191505b509250505060405180910390f35b3480156104d257600080fd5b5060408051602060046024803582810135601f810185900485028601850190965285855261026e95833595369560449491939091019190819084018382808284375050604080516020601f89358b018035918201839004830284018301909452808352979a999881019791965091820194509250829150840183828082843750949750611e9c9650505050505050565b34801561056e57600080fd5b5061057a600435611ea1565b60408051978852600160a060020a039096166020880152868601949094526060860192909252608085015260a084015260c0830152519081900360e00190f35b3480156105c657600080fd5b5061026e611ef8565b3480156105db57600080fd5b506040805160206004803580820135601f810184900484028501840190955284845261026e943694929360249392840191908190840183828082843750949750611f239650505050505050565b34801561063457600080fd5b5061026e612069565b34801561064957600080fd5b506106556004356120aa565b604051808060200180602001858152602001848152602001838103835287818151815260200191508051906020019080838360005b838110156106a257818101518382015260200161068a565b50505050905090810190601f1680156106cf5780820380516001836020036101000a031916815260200191505b50838103825286518152865160209182019188019080838360005b838110156107025781810151838201526020016106ea565b50505050905090810190601f16801561072f5780820380516001836020036101000a031916815260200191505b50965050505050505060405180910390f35b34801561074d57600080fd5b5061026e6121f6565b34801561076257600080fd5b5061026e600160a060020a0360043516612231565b34801561078357600080fd5b50610798600160a060020a03600435166122e0565b604080519081018590528315156060820152821515608082015281151560a082015260c08082528751908201528651819060208083019160e08401918b019080838360005b838110156107f55781810151838201526020016107dd565b50505050905090810190601f1680156108225780820380516001836020036101000a031916815260200191505b5083810382528851815288516020918201918a019080838360005b8381101561085557818101518382015260200161083d565b50505050905090810190601f1680156108825780820380516001836020036101000a031916815260200191505b509850505050505050505060405180910390f35b3480156108a257600080fd5b50610451612440565b3480156108b757600080fd5b506108c360043561249a565b60408051908101849052600160a060020a03831660608201526080810182905260a08082528651908201528551819060208083019160c08401918a019080838360005b8381101561091e578181015183820152602001610906565b50505050905090810190601f16801561094b5780820380516001836020036101000a031916815260200191505b50838103825287518152875160209182019189019080838360005b8381101561097e578181015183820152602001610966565b50505050905090810190601f1680156109ab5780820380516001836020036101000a031916815260200191505b5097505050505050505060405180910390f35b3480156109ca57600080fd5b5061032e612607565b3480156109df57600080fd5b5061032e61260d565b3480156109f457600080fd5b50610285612613565b348015610a0957600080fd5b5060408051602060046024803582810135601f810185900485028601850190965285855261026e95833595369560449491939091019190819084018382808284375050604080516020601f89358b018035918201839004830284018301909452808352979a9998810197919650918201945092508291508401838280828437509497505084359550505060209092013591506126a49050565b348015610aae57600080fd5b5061026e612740565b348015610ac357600080fd5b5061035861279f565b348015610ad857600080fd5b5061026e6127ae565b348015610aed57600080fd5b5061026e600160a060020a0360043516612bea565b348015610b0e57600080fd5b5061026e600435612bff565b348015610b2657600080fd5b506040805160206004803580820135601f810184900484028501840190955284845261026e943694929360249392840191908190840183828082843750949750612c809650505050505050565b348015610b7f57600080fd5b5061026e600435612dc5565b348015610b9757600080fd5b50610358612e46565b348015610bac57600080fd5b5061026e612e55565b348015610bc157600080fd5b5061032e612eb6565b348015610bd657600080fd5b50610451612ebc565b348015610beb57600080fd5b506040805160206004803580820135601f810184900484028501840190955284845261026e943694929360249392840191908190840183828082843750949750612f179650505050505050565b348015610c4457600080fd5b5061045161305d565b348015610c5957600080fd5b5061032e6130b8565b348015610c6e57600080fd5b506040805160206004803580820135601f810184900484028501840190955284845261032e94369492936024939284019190819084018382808284375050604080516020601f89358b018035918201839004830284018301909452808352979a99988101979196509182019450925082915084018382808284375094975050843595505050506020820135600160a060020a0316916040013590506130d7565b348015610d1a57600080fd5b5061032e6131d7565b348015610d2f57600080fd5b5061026e6004356131dd565b348015610d4757600080fd5b5061032e61325e565b348015610d5c57600080fd5b5061026e600435613264565b348015610d7457600080fd5b5061026e6004356132e5565b348015610d8c57600080fd5b5061032e61338c565b348015610da157600080fd5b5061032e613392565b348015610db657600080fd5b5061026e600160a060020a0360043516613398565b348015610dd757600080fd5b5061032e61347f565b348015610dec57600080fd5b5061032e600435613485565b348015610e0457600080fd5b5061026e600160a060020a0360043516613497565b348015610e2557600080fd5b5061032e600160a060020a03600435166134b7565b348015610e4657600080fd5b5061026e6134c9565b348015610e5b57600080fd5b5061026e600160a060020a03600435166138cd565b610e7861577b565b6000805b600554811015610eb35760158160078110610e9357fe5b60040201600201548282600781101515610ea957fe5b0155600101610e7c565b6040805160e081019182905290839060079082845b815481526020019060010190808311610ec85750505050509250505090565b600054606090600160a060020a03163314610f0157600080fd5b6002805460408051602060018416156101000260001901909316849004601f81018490048402820184019092528181529291830182828015610f845780601f10610f5957610100808354040283529160200191610f84565b820191906000526020600020905b815481529060010190602001808311610f6757829003601f168201915b50508551939450610fa09360029350602087019250905061579a565b50600080516020615938833981519152818360405180806020018060200180602001848103845260148152602001807f506172616d65746572206e206d6f646966696564000000000000000000000000815250602001848103835286818151815260200191508051906020019080838360005b8381101561102b578181015183820152602001611013565b50505050905090810190601f1680156110585780820380516001836020036101000a031916815260200191505b50848103825285518152855160209182019187019080838360005b8381101561108b578181015183820152602001611073565b50505050905090810190601f1680156110b85780820380516001836020036101000a031916815260200191505b509550505050505060405180910390a15050565b60376020526000908152604090205481565b603660205260009081526040902054600160a060020a031681565b611101615818565b6000805481908190600160a060020a0316331461111d57600080fd5b5060005b60055481101561124b576040805160e0810182526000838152603560209081528382205483528482526036815283822054600160a060020a031681840152848252603780825284832054948401859052918590525260148054601393606084019291811061118b57fe5b90600052602060002090600502016002015481526020016015846007811015156111b157fe5b600490810291909101600290810154835260208084018790526010546040948501528554600180820188556000978852968290208651600790920201908155908501518187018054600160a060020a031916600160a060020a0390921691909117905592840151908301556060830151600383015560808301519082015560a0820151600582015560c09091015160069091015501611121565b506038545b603854600554018110156114c75780925060138181548110151561127057fe5b60009182526020918290206040805160e081018252600790930290910180548352600180820154600160a060020a0316948401949094526002810154918301919091526003810154606083015260048101546080830152600581015460a08301526006015460c08201529450810191505b6038546005540182101561139f5760138054839081106112fd57fe5b60009182526020909120600790910201548451111561139457601380548390811061132457fe5b60009182526020918290206040805160e0810182526007909302909101805483526001810154600160a060020a0316938301939093526002830154908201526003820154606082015260048201546080820152600582015460a082015260069091015460c0820152935090915081905b6001909101906112e1565b8281146114bf5760138054829081106113b457fe5b90600052602060002090600702016013848154811015156113d157fe5b6000918252602090912082546007909202019081556001808301549082018054600160a060020a031916600160a060020a0390921691909117905560028083015490820155600380830154908201556004808301549082015560058083015490820155600691820154910155601380548591908390811061144e57fe5b600091825260209182902083516007929092020190815590820151600182018054600160a060020a031916600160a060020a0390921691909117905560408201516002820155606082015160038201556080820151600482015560a0820151600582015560c0909101516006909101555b600101611250565b50505050565b60006114da6009546139e1565b604080516020808252808201527f41736b696e6720666f722061206e6577206d7520706172616d657465722e2e2e8183015290517f096835e36c2ccea88ff2b3aca87dfc938b977e52ea656873ff76a8dba50d4d349181900360600190a16115af6040805190810160405280600c81526020017f576f6c6672616d416c70686100000000000000000000000000000000000000008152506040805190810160405280600f81526020017f342072616e646f6d206e756d6265720000000000000000000000000000000000815250600854613bc9565b60009081526032602052604090208054600160a060020a031916600160a060020a03939093169290921790915550565b6115e7613fce565b600160a060020a031633146115fb57600080fd5b600082815260326020526040902054600160a060020a0316158015906116495750600082815260326020908152604080832054600160a060020a03168352603190915290206003015460ff16155b156117e657600082815260326020908152604080832054600160a060020a031683526031825290912082516116809284019061579a565b507f6a28dd23c76ba6cc6f4f148a0e2e0e147d8b876cb74ec1e5e2b8e9a8119eb702816040518080602001828103825283818151815260200191508051906020019080838360005b838110156116e05781810151838201526020016116c8565b50505050905090810190601f16801561170d5780820380516001836020036101000a031916815260200191505b509250505060405180910390a160008281526032602090815260408083208054600160a060020a03908116855260319093528184206003908101805460ff191660019081179091559154909316845292200154610100900460ff1615151480156117bb5750600082815260326020908152604080832054600160a060020a03168352603190915290206003015460ff62010000909104161515600114806117bb575060125460ff1615156001145b156117e1576000828152603260205260409020546117e190600160a060020a0316613398565b611b90565b600082815260336020526040902054600160a060020a0316158015906118395750600082815260336020908152604080832054600160a060020a031683526031909152902060030154610100900460ff16155b156119d457600082815260336020908152604080832054600160a060020a031683526031825290912082516118769260019092019184019061579a565b507f716a554dec57e3a217a923b974660c0c8ebee07b09b1ac7d4a3a8f328d10cc89816040518080602001828103825283818151815260200191508051906020019080838360005b838110156118d65781810151838201526020016118be565b50505050905090810190601f1680156119035780820380516001836020036101000a031916815260200191505b509250505060405180910390a160008281526033602090815260408083208054600160a060020a03908116855260319093528184206003908101805461ff00191661010017905590549092168352909120015460ff16151560011480156119ae5750600082815260336020908152604080832054600160a060020a03168352603190915290206003015460ff62010000909104161515600114806119ae575060125460ff1615156001145b156117e1576000828152603360205260409020546117e190600160a060020a0316613398565b600082815260346020526040902054600160a060020a031615801590611a3e5750600082815260346020908152604080832054600160a060020a03168352603190915290206003015460ff6201000090910416151560011480611a3e575060125460ff1615156001145b15611b9057611a4c816141c3565b600083815260346020908152604080832054600160a060020a031683526031825280832060020193909355825181815284518183015284517f0efef3a277391dda0d5747fd15566e85fcd8a4fb588d9853173841e45cc5ae8a9486949293849391840192908601918190849084905b83811015611ad3578181015183820152602001611abb565b50505050905090810190601f168015611b005780820380516001836020036101000a031916815260200191505b509250505060405180910390a1600082815260346020908152604080832054600160a060020a0316835260319091529020600301805462ff00001916905560125460ff16151560011415611b6f576000828152603460205260409020546117e190600160a060020a03166141d6565b600082815260346020526040902054611b9090600160a060020a0316614437565b5050565b60125460ff1681565b6000806000806015600160055403600781101515611bb757fe5b6004020160020154601486815481101515611bce57fe5b9060005260206000209060050201600201541115611c3d57600554600019019350611c3660158560078110611bff57fe5b6004020160020154601487815481101515611c1657fe5b90600052602060002090600502016002015461467290919063ffffffff16565b9250611d3e565b6017546014805487908110611c4e57fe5b9060005260206000209060050201600201541015611cb35760009350611c36601486815481101515611c7c57fe5b906000526020600020906005020160020154601586600781101515611c9d57fe5b600402016002015461467290919063ffffffff16565b60158460078110611cc057fe5b6004020160020154601486815481101515611cd757fe5b9060005260206000209060050201600201541115611cfa57600190930192611cb3565b611d0e6015600019860160078110611bff57fe5b9150611d22601486815481101515611c7c57fe5b905081811115611d3a57600184039350819250611d3e565b8092505b600084815260366020526040902054600160a060020a03161580611d6f575060008481526035602052604090205483105b15611e0a576014805486908110611d8257fe5b60009182526020808320600360059093020191909101548683526036825260408084208054600160a060020a031916600160a060020a0390931692909217909155603582528083208690556037825291829020879055815187815291517fed4436a39d9a77d0c6c3be4f0e28f018750eb25c5c2d30ded16ef07ced4c00719281900390910190a15b5050505050565b6002805460408051602060018416156101000260001901909316849004601f81018490048402820184019092528181529291830182828015611e945780601f10611e6957610100808354040283529160200191611e94565b820191906000526020600020905b815481529060010190602001808311611e7757829003601f168201915b505050505081565b505050565b6013805482908110611eaf57fe5b60009182526020909120600790910201805460018201546002830154600384015460048501546005860154600690960154949650600160a060020a039093169491939092919087565b600054600160a060020a03163314611f0f57600080fd5b6012805460ff19811660ff90911615179055565b600054606090600160a060020a03163314611f3d57600080fd5b6004805460408051602060026001851615610100026000190190941693909304601f81018490048402820184019092528181529291830182828015611fc35780601f10611f9857610100808354040283529160200191611fc3565b820191906000526020600020905b815481529060010190602001808311611fa657829003601f168201915b50508551939450611fdf9360049350602087019250905061579a565b50600080516020615938833981519152818360405180806020018060200180602001848103845260148152602001807f506172616d65746572206a206d6f646966696564000000000000000000000000815250602001848103835286818151815260200191508051906020019080838360008381101561102b578181015183820152602001611013565b33600081815260396020526040808220805490839055905190929183156108fc02918491818181858888f19350505050158015611b90573d6000803e3d6000fd5b601581600781106120b757fe5b60040201805460408051602060026001851615610100026000190190941693909304601f810184900484028201840190925281815292935083918301828280156121425780601f1061211757610100808354040283529160200191612142565b820191906000526020600020905b81548152906001019060200180831161212557829003601f168201915b505050505090806001018054600181600116156101000203166002900480601f0160208091040260200160405190810160405280929190818152602001828054600181600116156101000203166002900480156121e05780601f106121b5576101008083540402835291602001916121e0565b820191906000526020600020905b8154815290600101906020018083116121c357829003601f168201915b5050505050908060020154908060030154905084565b600054600160a060020a0316331461220d57600080fd5b6005546010540260385561221f611ef8565b6122276110f9565b61222f6134c9565b565b60008054600160a060020a0316331461224957600080fd5b50600a8054600160a060020a03838116600160a060020a0319831681179093556040805191909216602082018190528183019390935260608082526019908201527f456e74657270726973652077616c6c6574206368616e67656400000000000000608082015290517f223db053947bb148de510715d3c7d8ccd72bdd376752fd735ee7bd0bd0ece5bf9181900360a00190a15050565b60316020908152600091825260409182902080548351601f600260001961010060018616150201909316929092049182018490048402810184019094528084529092918391908301828280156123775780601f1061234c57610100808354040283529160200191612377565b820191906000526020600020905b81548152906001019060200180831161235a57829003601f168201915b505050505090806001018054600181600116156101000203166002900480601f0160208091040260200160405190810160405280929190818152602001828054600181600116156101000203166002900480156124155780601f106123ea57610100808354040283529160200191612415565b820191906000526020600020905b8154815290600101906020018083116123f857829003601f168201915b50505050600283015460039093015491929160ff808216925061010082048116916201000090041686565b60018054604080516020600284861615610100026000190190941693909304601f81018490048402820184019092528181529291830182828015611e945780601f10611e6957610100808354040283529160200191611e94565b60148054829081106124a857fe5b60009182526020918290206005919091020180546040805160026001841615610100026000190190931692909204601f8101859004850283018501909152808252919350918391908301828280156125415780601f1061251657610100808354040283529160200191612541565b820191906000526020600020905b81548152906001019060200180831161252457829003601f168201915b505050505090806001018054600181600116156101000203166002900480601f0160208091040260200160405190810160405280929190818152602001828054600181600116156101000203166002900480156125df5780601f106125b4576101008083540402835291602001916125df565b820191906000526020600020905b8154815290600101906020018083116125c257829003601f168201915b505050506002830154600384015460049094015492939092600160a060020a03909116915085565b60085481565b60055481565b61261b61577b565b6000805b600554811015610eb357600081815260366020526040902054600160a060020a03161561268b5760008181526037602052604090205460148054909190811061266457fe5b906000526020600020906005020160020154828260078110151561268457fe5b015561269c565b600082826007811061269957fe5b01555b60010161261f565b600054600160a060020a031633146126bb57600080fd5b604080516080810182528581526020810185905290810183905260608101829052601586600781106126e957fe5b60040201600082015181600001908051906020019061270992919061579a565b506020828101518051612722926001850192019061579a565b50604082015160028201556060909101516003909101555050505050565b600054600160a060020a0316331461275757600080fd5b60008054604051600160a060020a03909116917ff8df31144d9c2f0f6b59d69b8b98abd5459d07f2742c4df920b25aae33c6482091a260008054600160a060020a0319169055565b600a54600160a060020a031681565b6127b661585f565b6000805481908190600160a060020a031633146127d257600080fd5b5060005b6005548110156114c757915081601581600781106127f057fe5b6040805160049290920292909201805460a06020601f600260001961010060018716150201909416939093049283018190040284018101909452608083018181529293919284929091849184018282801561288c5780601f106128615761010080835404028352916020019161288c565b820191906000526020600020905b81548152906001019060200180831161286f57829003601f168201915b50505050508152602001600182018054600181600116156101000203166002900480601f01602080910402602001604051908101604052809291908181526020018280546001816001161561010002031660029004801561292e5780601f106129035761010080835404028352916020019161292e565b820191906000526020600020905b81548152906001019060200180831161291157829003601f168201915b505050505081526020016002820154815260200160038201548152505093508060010191505b600554821015612af7576015826007811061296b57fe5b600402016002015484604001511115612aec576015826007811061298b57fe5b6040805160049290920292909201805460a06020601f6002600019610100600187161502019094169390930492830181900402840181019094526080830181815292939192849290918491840182828015612a275780601f106129fc57610100808354040283529160200191612a27565b820191906000526020600020905b815481529060010190602001808311612a0a57829003601f168201915b50505050508152602001600182018054600181600116156101000203166002900480601f016020809104026020016040519081016040528092919081815260200182805460018160011615610100020316600290048015612ac95780601f10612a9e57610100808354040283529160200191612ac9565b820191906000526020600020905b815481529060010190602001808311612aac57829003601f168201915b505050505081526020016002820154815260200160038201548152505093508192505b600190910190612954565b828114612be25760158160078110612b0b57fe5b6004020160158460078110612b1c57fe5b6004020160008201816000019080546001816001161561010002031660029004612b47929190615888565b5060018201816001019080546001816001161561010002031660029004612b6f929190615888565b50600282810154908201556003918201549101558360158260078110612b9157fe5b600402016000820151816000019080519060200190612bb192919061579a565b506020828101518051612bca926001850192019061579a565b50604082015160028201556060909101516003909101555b6001016127d6565b612bf3816114cd565b612bfc816138cd565b50565b60008054600160a060020a03163314612c1757600080fd5b50600880549082905560408051602081018390528082018490526060808252601a908201527f4f7261636c697a6520676173206c696d6974206368616e676564000000000000608082015290516000805160206159188339815191529181900360a00190a15050565b600054606090600160a060020a03163314612c9a57600080fd5b60018054604080516020600284861615610100026000190190941693909304601f81018490048402820184019092528181529291830182828015612d1f5780601f10612cf457610100808354040283529160200191612d1f565b820191906000526020600020905b815481529060010190602001808311612d0257829003601f168201915b50508551939450612d3b9360019350602087019250905061579a565b50600080516020615938833981519152818360405180806020018060200180602001848103845260148152602001807f506172616d657465722062206d6f646966696564000000000000000000000000815250602001848103835286818151815260200191508051906020019080838360008381101561102b578181015183820152602001611013565b60008054600160a060020a03163314612ddd57600080fd5b50600680549082905560408051602081018390528082018490526060808252601d908201527f47656e6572617465207469636b6574207072696365206368616e676564000000608082015290516000805160206159188339815191529181900360a00190a15050565b600054600160a060020a031681565b600054600160a060020a03163314612e6c57600080fd5b6005546011541415612e9257612e806127ae565b6000601155612e8d611ef8565b61222f565b306000818152603160205260409020600301805461ffff1916905561222f90612bea565b60095481565b6003805460408051602060026001851615610100026000190190941693909304601f81018490048402820184019092528181529291830182828015611e945780601f10611e6957610100808354040283529160200191611e94565b600054606090600160a060020a03163314612f3157600080fd5b6003805460408051602060026001851615610100026000190190941693909304601f81018490048402820184019092528181529291830182828015612fb75780601f10612f8c57610100808354040283529160200191612fb7565b820191906000526020600020905b815481529060010190602001808311612f9a57829003601f168201915b50508551939450612fd39360039350602087019250905061579a565b50600080516020615938833981519152818360405180806020018060200180602001848103845260148152602001807f506172616d657465722070206d6f646966696564000000000000000000000000815250602001848103835286818151815260200191508051906020019080838360008381101561102b578181015183820152602001611013565b6004805460408051602060026001851615610100026000190190941693909304601f81018490048402820184019092528181529291830182828015611e945780601f10611e6957610100808354040283529160200191611e94565b60008054600160a060020a031633146130d057600080fd5b5030315b90565b600080548190600160a060020a031633146130f157600080fd5b6040805160a0810182528881526020808201899052918101879052600160a060020a0386166060820152601054608082015260148054600181810180845560009390935283518051919593949360059093027fce6d7b5282bd9a3661ae061feed1dbda4e52ab073b1f9285be6e155d9c38d4ec01926131759284929091019061579a565b50602082810151805161318e926001850192019061579a565b50604082015160028201556060820151600382018054600160a060020a031916600160a060020a0390921691909117905560809091015160049091015503979650505050505050565b60385481565b60008054600160a060020a031633146131f557600080fd5b506007805490829055604080516020810183905280820184905260608082526019908201527f53656c6c207469636b6574207072696365206368616e67656400000000000000608082015290516000805160206159188339815191529181900360a00190a15050565b60115481565b60008054600160a060020a0316331461327c57600080fd5b506005805490829055604080516020810183905280820184905260608082526019908201527f53656c6c207469636b6574207072696365206368616e67656400000000000000608082015290516000805160206159188339815191529181900360a00190a15050565b60008054600160a060020a031633146132fd57600080fd5b506009805490829055604080516020810183905280820184905260608082526021908201527f4f7261636c697a6520637573746f6d20676173207072696365206368616e676560808201527f640000000000000000000000000000000000000000000000000000000000000060a082015290516000805160206159188339815191529181900360c00190a15050565b60065481565b60105481565b60006133a56009546139e1565b604080516020808252601a908201527f41736b696e6720666f722061206e6577207469636b65742e2e2e0000000000008183015290517f096835e36c2ccea88ff2b3aca87dfc938b977e52ea656873ff76a8dba50d4d349181900360600190a161344f6040805190810160405280600c81526020017f576f6c6672616d416c706861000000000000000000000000000000000000000081525061344784614684565b600854613bc9565b60009081526034602052604090208054600160a060020a031916600160a060020a03939093169290921790915550565b60075481565b60356020526000908152604090205481565b600054600160a060020a031633146134ae57600080fd5b612bfc81614fb3565b60396020526000908152604090205481565b600080548190819081908190600160a060020a031633146134e957600080fd5b6134fb3031600763ffffffff61502316565b945061350e85600a63ffffffff61504c16565b945061352185600663ffffffff61502316565b935061353485600363ffffffff61502316565b925061354785600163ffffffff61502316565b915061355a84600a63ffffffff61504c16565b935061356d83600a63ffffffff61504c16565b925061358082600a63ffffffff61504c16565b915060385490505b6038546005540181101561361f576013805460009190839081106135a857fe5b6000918252602090912060016007909202010154600160a060020a0316146136175783603960006013848154811015156135de57fe5b6000918252602080832060016007909302019190910154600160a060020a0316835282019290925260400190208054909101905561361f565b600101613588565b6001015b603854600554018110156136ba5760138054600091908390811061364357fe5b6000918252602090912060016007909202010154600160a060020a0316146136b257826039600060138481548110151561367957fe5b6000918252602080832060016007909302019190910154600160a060020a031683528201929092526040019020805490910190556136ba565b600101613623565b6001015b60385460055401811015613755576013805460009190839081106136de57fe5b6000918252602090912060016007909202010154600160a060020a03161461374d57816039600060138481548110151561371457fe5b6000918252602080832060016007909302019190910154600160a060020a03168352820192909252604001902080549091019055613755565b6001016136be565b601080546001019055600a54604051600160a060020a0390911690303180156108fc02916000818181858888f19350505050158015613798573d6000803e3d6000fd5b50600090505b600554811015611e0a5760008181526036602090815260408083208054600160a060020a03191690556035825280832083905560378252808320929092558151808301909252600182527f3000000000000000000000000000000000000000000000000000000000000000908201526015826007811061381a57fe5b60040201600001908051906020019061383492919061579a565b5060408051808201909152600181527f300000000000000000000000000000000000000000000000000000000000000060208201526015826007811061387657fe5b60040201600101908051906020019061389092919061579a565b506000601582600781106138a057fe5b60040201600201819055506010546015826007811015156138bd57fe5b600402016003015560010161379e565b60006138da6009546139e1565b604080516020808252601f908201527f41736b696e6720666f722061206e6577206920706172616d657465722e2e2e008183015290517f096835e36c2ccea88ff2b3aca87dfc938b977e52ea656873ff76a8dba50d4d349181900360600190a16139b16040805190810160405280600c81526020017f576f6c6672616d416c70686100000000000000000000000000000000000000008152506040805190810160405280600f81526020017f342072616e646f6d206e756d6265720000000000000000000000000000000000815250600854613bc9565b60009081526033602052604090208054600160a060020a031916600160a060020a03939093169290921790915550565b600b54600160a060020a03161580613a0b5750600b54613a0990600160a060020a0316615061565b155b15613a1c57613a1a6000615065565b505b600b60009054906101000a9004600160a060020a0316600160a060020a03166338cc48316040518163ffffffff1660e060020a028152600401602060405180830381600087803b158015613a6f57600080fd5b505af1158015613a83573d6000803e3d6000fd5b505050506040513d6020811015613a9957600080fd5b5051600c54600160a060020a03908116911614613b4f57600b60009054906101000a9004600160a060020a0316600160a060020a03166338cc48316040518163ffffffff1660e060020a028152600401602060405180830381600087803b158015613b0357600080fd5b505af1158015613b17573d6000803e3d6000fd5b505050506040513d6020811015613b2d57600080fd5b5051600c8054600160a060020a031916600160a060020a039092169190911790555b600c54604080517fca6ad1e4000000000000000000000000000000000000000000000000000000008152600481018490529051600160a060020a039092169163ca6ad1e49160248082019260009290919082900301818387803b158015613bb557600080fd5b505af1158015611e0a573d6000803e3d6000fd5b600b546000908190600160a060020a03161580613bf85750600b54613bf690600160a060020a0316615061565b155b15613c0957613c076000615065565b505b600b60009054906101000a9004600160a060020a0316600160a060020a03166338cc48316040518163ffffffff1660e060020a028152600401602060405180830381600087803b158015613c5c57600080fd5b505af1158015613c70573d6000803e3d6000fd5b505050506040513d6020811015613c8657600080fd5b5051600c54600160a060020a03908116911614613d3c57600b60009054906101000a9004600160a060020a0316600160a060020a03166338cc48316040518163ffffffff1660e060020a028152600401602060405180830381600087803b158015613cf057600080fd5b505af1158015613d04573d6000803e3d6000fd5b505050506040513d6020811015613d1a57600080fd5b5051600c8054600160a060020a031916600160a060020a039092169190911790555b600c54604080517f2ef3accc0000000000000000000000000000000000000000000000000000000081526024810186905260048101918252875160448201528751600160a060020a0390931692632ef3accc9289928892829160640190602086019080838360005b83811015613dbc578181015183820152602001613da4565b50505050905090810190601f168015613de95780820380516001836020036101000a031916815260200191505b509350505050602060405180830381600087803b158015613e0957600080fd5b505af1158015613e1d573d6000803e3d6000fd5b505050506040513d6020811015613e3357600080fd5b50519050670de0b6b3a76400003a840201811115613e545760009150613fc6565b600c546040517fc51be90f00000000000000000000000000000000000000000000000000000000815260006004820181815260648301879052608060248401908152895160848501528951600160a060020a039095169463c51be90f948794938c938c938c93604481019160a49091019060208801908083838c5b83811015613ee7578181015183820152602001613ecf565b50505050905090810190601f168015613f145780820380516001836020036101000a031916815260200191505b50838103825285518152855160209182019187019080838360005b83811015613f47578181015183820152602001613f2f565b50505050905090810190601f168015613f745780820380516001836020036101000a031916815260200191505b5096505050505050506020604051808303818588803b158015613f9657600080fd5b505af1158015613faa573d6000803e3d6000fd5b50505050506040513d6020811015613fc157600080fd5b505191505b509392505050565b600b54600090600160a060020a03161580613ffb5750600b54613ff990600160a060020a0316615061565b155b1561400c5761400a6000615065565b505b600b60009054906101000a9004600160a060020a0316600160a060020a03166338cc48316040518163ffffffff1660e060020a028152600401602060405180830381600087803b15801561405f57600080fd5b505af1158015614073573d6000803e3d6000fd5b505050506040513d602081101561408957600080fd5b5051600c54600160a060020a0390811691161461413f57600b60009054906101000a9004600160a060020a0316600160a060020a03166338cc48316040518163ffffffff1660e060020a028152600401602060405180830381600087803b1580156140f357600080fd5b505af1158015614107573d6000803e3d6000fd5b505050506040513d602081101561411d57600080fd5b5051600c8054600160a060020a031916600160a060020a039092169190911790555b600c60009054906101000a9004600160a060020a0316600160a060020a031663c281d19e6040518163ffffffff1660e060020a028152600401602060405180830381600087803b15801561419257600080fd5b505af11580156141a6573d6000803e3d6000fd5b505050506040513d60208110156141bc57600080fd5b5051905090565b60006141d082600061506f565b92915050565b60408051600160a060020a03831660009081526031602090815290839020805460026001821615610100026000190190911604601f8101839004909202830160a09081019094526080830182815292938493929084018282801561427b5780601f106142505761010080835404028352916020019161427b565b820191906000526020600020905b81548152906001019060200180831161425e57829003601f168201915b505050505081526020016031600084600160a060020a0316600160a060020a031681526020019081526020016000206001018054600181600116156101000203166002900480601f0160208091040260200160405190810160405280929190818152602001828054600181600116156101000203166002900480156143415780601f1061431657610100808354040283529160200191614341565b820191906000526020600020905b81548152906001019060200180831161432457829003601f168201915b5050509183525050600160a060020a03831660009081526031602090815260409182902060020154908301526010549101526011546015906007811061438357fe5b6004020160008201518160000190805190602001906143a392919061579a565b5060208281015180516143bc926001850192019061579a565b50604082810151600280840191909155606090930151600390920191909155601180546001019055600160a060020a0383166000908152603160209081529082902090920154815190815290517fec2692b386f7e992f219e405f018eeaf8da1b95736760596812e564f2e709cfd929181900390910190a150565b60408051600160a060020a03831660009081526031602090815283822080546002600180831615610100026000190190921604601f8101849004909302850160c090810190965260a08501838152939590946014949093849391928401828280156144e35780601f106144b8576101008083540402835291602001916144e3565b820191906000526020600020905b8154815290600101906020018083116144c657829003601f168201915b505050505081526020016031600087600160a060020a0316600160a060020a031681526020019081526020016000206001018054600181600116156101000203166002900480601f0160208091040260200160405190810160405280929190818152602001828054600181600116156101000203166002900480156145a95780601f1061457e576101008083540402835291602001916145a9565b820191906000526020600020905b81548152906001019060200180831161458c57829003601f168201915b5050509183525050600160a060020a038616600081815260316020908152604080832060020154828601528401929092526010546060909301929092528354600181018086559483529181902083518051600590940290910192614610928492019061579a565b506020828101518051614629926001850192019061579a565b50604082015160028201556060820151600382018054600160a060020a031916600160a060020a03909216919091179055608090910151600490910155039050611b9081611b9d565b60008282111561467e57fe5b50900390565b604080518082018252600c81527f286d6f642828312f2831305e000000000000000000000000000000000000000060208083019190915260028054845160018216156101000260001901909116829004601f8101849004840282018401909552848152606094859461485b94909391908301828280156147455780601f1061471a57610100808354040283529160200191614745565b820191906000526020600020905b81548152906001019060200180831161472857829003601f168201915b505060408051808201825260018082527f2d00000000000000000000000000000000000000000000000000000000000000602080840191909152600160a060020a038d1660009081526031825284902080548551600294821615610100026000190190911693909304601f810183900483028401830190955284835292965090945090925083018282801561481b5780601f106147f05761010080835404028352916020019161481b565b820191906000526020600020905b8154815290600101906020018083116147fe57829003601f168201915b50505050506040805190810160405280600681526020017f29292a31305e00000000000000000000000000000000000000000000000000008152506151e1565b60038054604080516020601f600260001961010060018816150201909516949094049384018190048102820181019092528281529394506149ef938593909290918301828280156148ed5780601f106148c2576101008083540402835291602001916148ed565b820191906000526020600020905b8154815290600101906020018083116148d057829003601f168201915b5050604080518082018252600581527f2c31305e2800000000000000000000000000000000000000000000000000000060208083019190915260048054845160026001831615610100026000190190921691909104601f81018490048402820184019095528481529296509194509092508301828280156149af5780601f10614984576101008083540402835291602001916149af565b820191906000526020600020905b81548152906001019060200180831161499257829003601f168201915b50505050506040805190810160405280600181526020017f2b000000000000000000000000000000000000000000000000000000000000008152506151e1565b9050614bb0816031600086600160a060020a0316600160a060020a031681526020019081526020016000206001018054600181600116156101000203166002900480601f016020809104026020016040519081016040528092919081815260200182805460018160011615610100020316600290048015614ab15780601f10614a8657610100808354040283529160200191614ab1565b820191906000526020600020905b815481529060010190602001808311614a9457829003601f168201915b5050604080518082018252600e81527f29292d6d6f642828312f2831305e00000000000000000000000000000000000060208083019190915260028054845160018216156101000260001901909116829004601f8101849004840282018401909552848152929650919450909250830182828015614b705780601f10614b4557610100808354040283529160200191614b70565b820191906000526020600020905b815481529060010190602001808311614b5357829003601f168201915b50505050506040805190810160405280600181526020017f2d000000000000000000000000000000000000000000000000000000000000008152506151e1565b600160a060020a03841660009081526031602090815260409182902080548351601f60026000196101006001861615020190931692909204918201849004840281018401909452808452939450614d5793859392830182828015614c555780601f10614c2a57610100808354040283529160200191614c55565b820191906000526020600020905b815481529060010190602001808311614c3857829003601f168201915b5050604080518082018252600681527f29292a31305e000000000000000000000000000000000000000000000000000060208083019190915260038054845160026001831615610100026000190190921691909104601f8101849004840282018401909552848152929650919450909250830182828015614d175780601f10614cec57610100808354040283529160200191614d17565b820191906000526020600020905b815481529060010190602001808311614cfa57829003601f168201915b50505050506040805190810160405280600481526020017f2c31305e000000000000000000000000000000000000000000000000000000008152506151e1565b60408051808201825260018082527f2800000000000000000000000000000000000000000000000000000000000000602080840191909152600160a060020a038816600090815260318252849020820180548551600294821615610100026000190190911693909304601f8101839004830284018301909552848352949550614f129486949091830182828015614e2f5780601f10614e0457610100808354040283529160200191614e2f565b820191906000526020600020905b815481529060010190602001808311614e1257829003601f168201915b5050604080518082018252600781527f2929292f31305e00000000000000000000000000000000000000000000000000602080830191909152600160a060020a038d16600090815260318252839020600190810180548551600293821615610100026000190190911692909204601f81018490048402830184019095528482529296509450909250830182828015614f085780601f10614edd57610100808354040283529160200191614f08565b820191906000526020600020905b815481529060010190602001808311614eeb57829003601f168201915b50505050506151e1565b90507f261af219212047633bb60c8d0cc7e33d217c38edf6fa7e53acb97a3f94180de5816040518080602001828103825283818151815260200191508051906020019080838360005b83811015614f73578181015183820152602001614f5b565b50505050905090810190601f168015614fa05780820380516001836020036101000a031916815260200191505b509250505060405180910390a192915050565b600160a060020a0381161515614fc857600080fd5b60008054604051600160a060020a03808516939216917f8be0079c531659141344cd1fd0a4f28419497f9722a3daafe3b4186f6b6457e091a360008054600160a060020a031916600160a060020a0392909216919091179055565b6000821515615034575060006141d0565b5081810281838281151561504457fe5b04146141d057fe5b6000818381151561505957fe5b049392505050565b3b90565b60006141d0615442565b6000828180805b83518110156151c45783517f3000000000000000000000000000000000000000000000000000000000000000908590839081106150af57fe5b90602001015160f860020a900460f860020a02600160f860020a03191610158015615125575083517f39000000000000000000000000000000000000000000000000000000000000009085908390811061510557fe5b90602001015160f860020a900460f860020a02600160f860020a03191611155b1561517e5781156151445785151561513c576151c4565b600019909501945b600a830292506030848281518110151561515a57fe5b90602001015160f860020a900460f860020a0260f860020a900403830192506151bc565b838181518110151561518c57fe5b90602001015160f860020a900460f860020a02600160f860020a031916602e60f860020a0214156151bc57600191505b600101615076565b60008611156151d65785600a0a830292505b509095945050505050565b6060806060806060806060806000808e98508d97508c96508b95508a94508451865188518a518c51010101016040519080825280601f01601f19166020018201604052801561523a578160200160208202803883390190505b50935083925060009150600090505b88518110156152a757888181518110151561526057fe5b90602001015160f860020a900460f860020a02838380600101945081518110151561528757fe5b906020010190600160f860020a031916908160001a905350600101615249565b5060005b87518110156153095787818151811015156152c257fe5b90602001015160f860020a900460f860020a0283838060010194508151811015156152e957fe5b906020010190600160f860020a031916908160001a9053506001016152ab565b5060005b865181101561536b57868181518110151561532457fe5b90602001015160f860020a900460f860020a02838380600101945081518110151561534b57fe5b906020010190600160f860020a031916908160001a90535060010161530d565b5060005b85518110156153cd57858181518110151561538657fe5b90602001015160f860020a900460f860020a0283838060010194508151811015156153ad57fe5b906020010190600160f860020a031916908160001a90535060010161536f565b5060005b845181101561542f5784818151811015156153e857fe5b90602001015160f860020a900460f860020a02838380600101945081518110151561540f57fe5b906020010190600160f860020a031916908160001a9053506001016153d1565b50909d9c50505050505050505050505050565b600080615462731d3b2638a7cc9f2cb3d298a3da7a90b67e5506ed615061565b11156154d257600b8054600160a060020a031916731d3b2638a7cc9f2cb3d298a3da7a90b67e5506ed178155604080518082019091529081527f6574685f6d61696e6e657400000000000000000000000000000000000000000060208201526154ca90615768565b5060016130d4565b60006154f173c03a2615d5efaf5f49f60b7bb6583eaec212fdf1615061565b111561555a57600b8054600160a060020a03191673c03a2615d5efaf5f49f60b7bb6583eaec212fdf117905560408051808201909152600c81527f6574685f726f707374656e33000000000000000000000000000000000000000060208201526154ca90615768565b600061557973b7a07bcf2ba2f2703b24c0691b5278999c59ac7e615061565b11156155e257600b8054600160a060020a03191673b7a07bcf2ba2f2703b24c0691b5278999c59ac7e17905560408051808201909152600981527f6574685f6b6f76616e000000000000000000000000000000000000000000000060208201526154ca90615768565b600061560173146500cfd35b22e4a392fe0adc06de1a1368ed48615061565b111561566957600b8054600160a060020a03191673146500cfd35b22e4a392fe0adc06de1a1368ed48178155604080518082019091529081527f6574685f72696e6b65627900000000000000000000000000000000000000000060208201526154ca90615768565b6000615688736f485c8bf6fc43ea212e93bbf8ce046c7f1cb475615061565b11156156bc5750600b8054600160a060020a031916736f485c8bf6fc43ea212e93bbf8ce046c7f1cb47517905560016130d4565b60006156db7320e12a1f859b3feae5fb2a0a32c18f5a65555bbf615061565b111561570f5750600b8054600160a060020a0319167320e12a1f859b3feae5fb2a0a32c18f5a65555bbf17905560016130d4565b600061572e7351efaf4c8b3c9afbd5ab9f4bbc82784ab6ef8faa615061565b11156157625750600b8054600160a060020a0319167351efaf4c8b3c9afbd5ab9f4bbc82784ab6ef8faa17905560016130d4565b50600090565b8051611b9090600d90602084019061579a565b60e0604051908101604052806007906020820280388339509192915050565b828054600181600116156101000203166002900490600052602060002090601f016020900481019282601f106157db57805160ff1916838001178555615808565b82800160010185558215615808579182015b828111156158085782518255916020019190600101906157ed565b506158149291506158fd565b5090565b60e060405190810160405280600081526020016000600160a060020a0316815260200160008152602001600081526020016000815260200160008152602001600081525090565b608060405190810160405280606081526020016060815260200160008152602001600081525090565b828054600181600116156101000203166002900490600052602060002090601f016020900481019282601f106158c15780548555615808565b8280016001018555821561580857600052602060002091601f016020900482015b828111156158085782548255916001019190600101906158e2565b6130d491905b80821115615814576000815560010161590356009bc068999fb1a0aac007a9b44ca6322a376441f42706bf5163600bb3d1a731647ecbd54b3baea533cf57ef049f9e04554be6a660d6dacd477488066eedf27beea165627a7a72305820513ae981132ca7e289c08870974eefa259e76df8b15bfb3b9d5c8737dd9072440029",
  "source": "pragma solidity ^0.4.20;\n\nimport \"./Lucky7TicketFactory.sol\";\n\ncontract Lucky7Ballot is Lucky7TicketFactory{\n    \n    \n    uint public initialLucky7TicketPosition=0;\n    mapping (address => uint) public pendingWithdrawals;\n\n\n    function Lucky7Ballot() payable {\n        \n    }\n    \n    function _generateLucky7Number() public onlyOwner{\n        if(indexForLucky7Array == numberOfLucky7Numbers){\n            _orderLucky7Numbers();\n            indexForLucky7Array = 0;\n            toggleLucky7Setting();\n        }\n        else{\n            userValues[this].muReady = false;\n            userValues[this].iReady = false;\n            _generateTicket(this);\n        }\n    }\n    \n    function setNewGame()                                      \n        public \n        onlyOwner \n    {\n        //Set initial index for Lucky7Tickets\n        initialLucky7TicketPosition=drawNumber*numberOfLucky7Numbers;\n        //Increase drawNumber\n        //Set on Lucky7NumbersSetting\n        toggleLucky7Setting();\n        //Deliver Prizes\n        //Deliver lot for enterprise\n        _orderLucky7Tickets();\n        _deliverPrizes();\n    }\n    \n    function _orderLucky7Numbers() public onlyOwner{\n        Lucky7Number memory smallest;\n        uint aux;\n        uint j;\n        uint i;\n        for(i=0; i<numberOfLucky7Numbers; i++){\n            aux = i;\n            smallest = lucky7Numbers[i];\n            for (j=i+1; j<numberOfLucky7Numbers; j++){\n                if(smallest.ticketValue>lucky7Numbers[j].ticketValue){\n                    smallest = lucky7Numbers[j];\n                    aux = j;\n                }\n            }\n            if(aux!=i){\n                lucky7Numbers[aux]=lucky7Numbers[i];\n                lucky7Numbers[i] = smallest;\n            }\n        }\n    }\n    \n    function _orderLucky7Tickets() public onlyOwner{\n        Lucky7Ticket memory smallest;\n        uint aux;\n        uint j;\n        uint i;\n        for (i=0; i<numberOfLucky7Numbers; i++){\n            lucky7Tickets.push(\n                Lucky7Ticket(\n                    lucky7TicketDifference[i],\n                    lucky7TicketOwner[i],\n                    lucky7TicketID[i],\n                    tickets[lucky7TicketID[i]].ticketValue,\n                    lucky7Numbers[i].ticketValue,\n                    i,\n                    drawNumber)\n                    );\n        }\n        for(i=initialLucky7TicketPosition; i<numberOfLucky7Numbers+initialLucky7TicketPosition; i++){\n            aux = i;\n            smallest = lucky7Tickets[i];\n            for (j=i+1; j<numberOfLucky7Numbers+initialLucky7TicketPosition; j++){\n                if(smallest.difference>lucky7Tickets[j].difference){\n                    smallest = lucky7Tickets[j];\n                    aux = j;\n                }\n            }\n            if(aux!=i){\n                lucky7Tickets[aux]=lucky7Tickets[i];\n                lucky7Tickets[i] = smallest;\n            }\n        }\n    }\n\n    function _deliverPrizes() public onlyOwner{\n        uint winnersPrize = address(this).balance.mul(7);\n        winnersPrize = winnersPrize.div(10);\n        uint firstPrize = winnersPrize.mul(6);\n        uint secondPrize = winnersPrize.mul(3);\n        uint thirdPrize = winnersPrize.mul(1);\n        firstPrize = firstPrize.div(10);\n        secondPrize = secondPrize.div(10);\n        thirdPrize = thirdPrize.div(10);\n        uint i;\n        for(i=initialLucky7TicketPosition; i<numberOfLucky7Numbers+initialLucky7TicketPosition; i++){\n            if(lucky7Tickets[i].owner!=address(0x0)){\n                pendingWithdrawals[lucky7Tickets[i].owner] += firstPrize;\n                break;\n            }\n        }\n        \n        for(i++; i<numberOfLucky7Numbers+initialLucky7TicketPosition; i++){\n            if(lucky7Tickets[i].owner!=address(0x0)){\n                pendingWithdrawals[lucky7Tickets[i].owner] += secondPrize;\n                break;\n            }\n        }\n        \n        for(i++; i<numberOfLucky7Numbers+initialLucky7TicketPosition; i++){\n            if(lucky7Tickets[i].owner!=address(0x0)){\n                pendingWithdrawals[lucky7Tickets[i].owner] += thirdPrize;\n                break;\n            }\n        }\n        drawNumber++;\n        enterpriseWallet.transfer(address(this).balance);\n        for(i=0; i<numberOfLucky7Numbers; i++){\n            lucky7TicketOwner[i] = address(0x0);\n            lucky7TicketDifference[i] = 0;\n            lucky7TicketID[i] = 0;\n            lucky7Numbers[i].mu=\"0\";\n            lucky7Numbers[i].i=\"0\";\n            lucky7Numbers[i].ticketValue=0;\n            lucky7Numbers[i].drawID=drawNumber;\n        }\n    }\n    \n    function withdraw() public {\n        uint amount = pendingWithdrawals[msg.sender];\n        pendingWithdrawals[msg.sender] = 0;\n        msg.sender.transfer(amount);\n    }\n\n\n    //For front-end conection\n    function getlucky7Numbers() public view returns (uint[7]) {\n        uint[7] luckySevenNumbers;\n        for(uint i=0; i<numberOfLucky7Numbers; i++){\n            luckySevenNumbers[i]=lucky7Numbers[i].ticketValue;\n        }\n        return luckySevenNumbers;\n    }\n\n    function getlucky7Tickets() public view returns (uint[7]) {\n        uint[7] luckySevenTickets;\n        for(uint i=0; i<numberOfLucky7Numbers; i++){\n            if(lucky7TicketOwner[i]!=address(0x0)){\n                luckySevenTickets[i] = tickets[lucky7TicketID[i]].ticketValue;\n            }\n            else{\n                luckySevenTickets[i]=0;\n            }\n        }\n        return luckySevenTickets;\n    }\n\n    //For testing purposes\n    function insertCustomizedLucky7Number(uint _id, string _mu, string _i, uint _ticketValue,uint _drawNumber) public onlyOwner{\n        lucky7Numbers[_id] = Lucky7Number(_mu, _i, _ticketValue, _drawNumber);\n    }\n    \n    function insertCustomizedTicket(string _mu, string _i, uint _ticketValue,address _ticketOwner, uint _drawNumber) \n        public \n        onlyOwner \n        returns (uint){\n            uint id = tickets.push(Ticket(_mu,_i,_ticketValue,_ticketOwner,drawNumber)) - 1;\n            return id;\n        }\n    function () public payable {\n        \n    }\n}",
  "sourcePath": "/Users/matiasbarrios/Desktop/Proyecto Consensys/luckyseven/contracts/Lucky7Ballot.sol",
  "compiler": {
    "name": "solc",
    "version": "0.4.24+commit.e67f0147.Emscripten.clang"
  },
  "schemaVersion": "2.0.1",
  "updatedAt": "2018-08-25T01:06:24.339Z"
}