{
  "contractName": "Lucky7Ballot",
  "abi": [
    {
      "constant": false,
      "inputs": [
        {
          "name": "_newValue",
          "type": "string"
        }
      ],
      "name": "modifyParameterN",
      "outputs": [],
      "payable": false,
      "stateMutability": "nonpayable",
      "type": "function"
    },
    {
      "constant": true,
      "inputs": [
        {
          "name": "",
          "type": "uint256"
        }
      ],
      "name": "lucky7TicketID",
      "outputs": [
        {
          "name": "",
          "type": "uint256"
        }
      ],
      "payable": false,
      "stateMutability": "view",
      "type": "function"
    },
    {
      "constant": true,
      "inputs": [
        {
          "name": "",
          "type": "uint256"
        }
      ],
      "name": "lucky7TicketOwner",
      "outputs": [
        {
          "name": "",
          "type": "address"
        }
      ],
      "payable": false,
      "stateMutability": "view",
      "type": "function"
    },
    {
      "constant": false,
      "inputs": [
        {
          "name": "myid",
          "type": "bytes32"
        },
        {
          "name": "result",
          "type": "string"
        }
      ],
      "name": "__callback",
      "outputs": [],
      "payable": false,
      "stateMutability": "nonpayable",
      "type": "function"
    },
    {
      "constant": true,
      "inputs": [
        {
          "name": "",
          "type": "uint256"
        }
      ],
      "name": "ticketToOwner",
      "outputs": [
        {
          "name": "",
          "type": "address"
        }
      ],
      "payable": false,
      "stateMutability": "view",
      "type": "function"
    },
    {
      "constant": false,
      "inputs": [
        {
          "name": "_ticketID",
          "type": "uint256"
        }
      ],
      "name": "_checkForLucky7Ticket",
      "outputs": [
        {
          "name": "",
          "type": "uint256"
        }
      ],
      "payable": false,
      "stateMutability": "nonpayable",
      "type": "function"
    },
    {
      "constant": false,
      "inputs": [
        {
          "name": "myid",
          "type": "bytes32"
        },
        {
          "name": "result",
          "type": "string"
        },
        {
          "name": "proof",
          "type": "bytes"
        }
      ],
      "name": "__callback",
      "outputs": [],
      "payable": false,
      "stateMutability": "nonpayable",
      "type": "function"
    },
    {
      "constant": true,
      "inputs": [
        {
          "name": "",
          "type": "uint256"
        }
      ],
      "name": "lucky7Tickets",
      "outputs": [
        {
          "name": "difference",
          "type": "uint256"
        },
        {
          "name": "owner",
          "type": "address"
        },
        {
          "name": "ticketID",
          "type": "uint256"
        },
        {
          "name": "ticketValue",
          "type": "uint256"
        },
        {
          "name": "lucky7Number",
          "type": "uint256"
        }
      ],
      "payable": false,
      "stateMutability": "view",
      "type": "function"
    },
    {
      "constant": false,
      "inputs": [],
      "name": "toggleLucky7Setting",
      "outputs": [],
      "payable": false,
      "stateMutability": "nonpayable",
      "type": "function"
    },
    {
      "constant": false,
      "inputs": [
        {
          "name": "_newValue",
          "type": "string"
        }
      ],
      "name": "modifyParameterJ",
      "outputs": [],
      "payable": false,
      "stateMutability": "nonpayable",
      "type": "function"
    },
    {
      "constant": true,
      "inputs": [
        {
          "name": "",
          "type": "uint256"
        }
      ],
      "name": "lucky7Numbers",
      "outputs": [
        {
          "name": "mu",
          "type": "string"
        },
        {
          "name": "i",
          "type": "string"
        },
        {
          "name": "ticketValue",
          "type": "uint256"
        },
        {
          "name": "drawID",
          "type": "uint256"
        }
      ],
      "payable": false,
      "stateMutability": "view",
      "type": "function"
    },
    {
      "constant": true,
      "inputs": [
        {
          "name": "",
          "type": "address"
        }
      ],
      "name": "userValues",
      "outputs": [
        {
          "name": "mu",
          "type": "string"
        },
        {
          "name": "i",
          "type": "string"
        },
        {
          "name": "ticketValue",
          "type": "uint256"
        },
        {
          "name": "muReady",
          "type": "bool"
        },
        {
          "name": "iReady",
          "type": "bool"
        },
        {
          "name": "userPaidTicket",
          "type": "bool"
        }
      ],
      "payable": false,
      "stateMutability": "view",
      "type": "function"
    },
    {
      "constant": true,
      "inputs": [
        {
          "name": "",
          "type": "uint256"
        }
      ],
      "name": "tickets",
      "outputs": [
        {
          "name": "mu",
          "type": "string"
        },
        {
          "name": "i",
          "type": "string"
        },
        {
          "name": "ticketValue",
          "type": "uint256"
        },
        {
          "name": "owner",
          "type": "address"
        },
        {
          "name": "drawID",
          "type": "uint256"
        }
      ],
      "payable": false,
      "stateMutability": "view",
      "type": "function"
    },
    {
      "constant": false,
      "inputs": [],
      "name": "renounceOwnership",
      "outputs": [],
      "payable": false,
      "stateMutability": "nonpayable",
      "type": "function"
    },
    {
      "constant": false,
      "inputs": [
        {
          "name": "_newValue",
          "type": "uint256"
        }
      ],
      "name": "modifyOraclizeGasLimit",
      "outputs": [],
      "payable": false,
      "stateMutability": "nonpayable",
      "type": "function"
    },
    {
      "constant": false,
      "inputs": [
        {
          "name": "_newValue",
          "type": "string"
        }
      ],
      "name": "modifyParameterB",
      "outputs": [],
      "payable": false,
      "stateMutability": "nonpayable",
      "type": "function"
    },
    {
      "constant": false,
      "inputs": [
        {
          "name": "_newValue",
          "type": "uint256"
        }
      ],
      "name": "modifyGenerateTicketPrice",
      "outputs": [],
      "payable": false,
      "stateMutability": "nonpayable",
      "type": "function"
    },
    {
      "constant": true,
      "inputs": [],
      "name": "owner",
      "outputs": [
        {
          "name": "",
          "type": "address"
        }
      ],
      "payable": false,
      "stateMutability": "view",
      "type": "function"
    },
    {
      "constant": false,
      "inputs": [
        {
          "name": "_ticketOwner",
          "type": "address"
        }
      ],
      "name": "_askForParameters",
      "outputs": [],
      "payable": false,
      "stateMutability": "nonpayable",
      "type": "function"
    },
    {
      "constant": false,
      "inputs": [
        {
          "name": "_newAddress",
          "type": "address"
        }
      ],
      "name": "modifyEnterprisePrize",
      "outputs": [],
      "payable": false,
      "stateMutability": "nonpayable",
      "type": "function"
    },
    {
      "constant": false,
      "inputs": [
        {
          "name": "_newValue",
          "type": "string"
        }
      ],
      "name": "modifyParameterP",
      "outputs": [],
      "payable": false,
      "stateMutability": "nonpayable",
      "type": "function"
    },
    {
      "constant": false,
      "inputs": [
        {
          "name": "_newValue",
          "type": "uint256"
        }
      ],
      "name": "modifySellTicketPrice",
      "outputs": [],
      "payable": false,
      "stateMutability": "nonpayable",
      "type": "function"
    },
    {
      "constant": false,
      "inputs": [
        {
          "name": "_newValue",
          "type": "uint256"
        }
      ],
      "name": "modifyNumberOfLucky7Numbers",
      "outputs": [],
      "payable": false,
      "stateMutability": "nonpayable",
      "type": "function"
    },
    {
      "constant": false,
      "inputs": [
        {
          "name": "_newValue",
          "type": "uint256"
        }
      ],
      "name": "modifyNumberOfWinners",
      "outputs": [],
      "payable": false,
      "stateMutability": "nonpayable",
      "type": "function"
    },
    {
      "constant": false,
      "inputs": [
        {
          "name": "_newValue",
          "type": "uint256"
        }
      ],
      "name": "modifyOraclizeCustomGasPrice",
      "outputs": [],
      "payable": false,
      "stateMutability": "nonpayable",
      "type": "function"
    },
    {
      "constant": false,
      "inputs": [
        {
          "name": "_ticketOwner",
          "type": "address"
        }
      ],
      "name": "_askForTicket",
      "outputs": [],
      "payable": false,
      "stateMutability": "nonpayable",
      "type": "function"
    },
    {
      "constant": true,
      "inputs": [
        {
          "name": "",
          "type": "uint256"
        }
      ],
      "name": "lucky7TicketDifference",
      "outputs": [
        {
          "name": "",
          "type": "uint256"
        }
      ],
      "payable": false,
      "stateMutability": "view",
      "type": "function"
    },
    {
      "constant": true,
      "inputs": [
        {
          "name": "",
          "type": "uint256"
        }
      ],
      "name": "ExactLucky7TicketOwner",
      "outputs": [
        {
          "name": "",
          "type": "address"
        }
      ],
      "payable": false,
      "stateMutability": "view",
      "type": "function"
    },
    {
      "constant": false,
      "inputs": [
        {
          "name": "_newOwner",
          "type": "address"
        }
      ],
      "name": "transferOwnership",
      "outputs": [],
      "payable": false,
      "stateMutability": "nonpayable",
      "type": "function"
    },
    {
      "anonymous": false,
      "inputs": [
        {
          "indexed": false,
          "name": "feeType",
          "type": "string"
        },
        {
          "indexed": false,
          "name": "_oldValue",
          "type": "uint256"
        },
        {
          "indexed": false,
          "name": "_newValue",
          "type": "uint256"
        }
      ],
      "name": "numberModified",
      "type": "event"
    },
    {
      "anonymous": false,
      "inputs": [
        {
          "indexed": false,
          "name": "parameter",
          "type": "string"
        },
        {
          "indexed": false,
          "name": "_oldValue",
          "type": "string"
        },
        {
          "indexed": false,
          "name": "_newValue",
          "type": "string"
        }
      ],
      "name": "parameterModified",
      "type": "event"
    },
    {
      "anonymous": false,
      "inputs": [
        {
          "indexed": false,
          "name": "parameter",
          "type": "string"
        },
        {
          "indexed": false,
          "name": "_oldValue",
          "type": "address"
        },
        {
          "indexed": false,
          "name": "_newValue",
          "type": "address"
        }
      ],
      "name": "walletModified",
      "type": "event"
    },
    {
      "anonymous": false,
      "inputs": [
        {
          "indexed": true,
          "name": "previousOwner",
          "type": "address"
        }
      ],
      "name": "OwnershipRenounced",
      "type": "event"
    },
    {
      "anonymous": false,
      "inputs": [
        {
          "indexed": true,
          "name": "previousOwner",
          "type": "address"
        },
        {
          "indexed": true,
          "name": "newOwner",
          "type": "address"
        }
      ],
      "name": "OwnershipTransferred",
      "type": "event"
    },
    {
      "constant": false,
      "inputs": [],
      "name": "test",
      "outputs": [],
      "payable": true,
      "stateMutability": "payable",
      "type": "function"
    },
    {
      "constant": false,
      "inputs": [],
      "name": "_startLucky7NumbersGeneration",
      "outputs": [],
      "payable": true,
      "stateMutability": "payable",
      "type": "function"
    },
    {
      "constant": false,
      "inputs": [],
      "name": "_generateLucky7Number",
      "outputs": [],
      "payable": true,
      "stateMutability": "payable",
      "type": "function"
    },
    {
      "constant": false,
      "inputs": [],
      "name": "_orderLucky7Numbers",
      "outputs": [],
      "payable": false,
      "stateMutability": "nonpayable",
      "type": "function"
    },
    {
      "constant": false,
      "inputs": [],
      "name": "_orderLucky7Tickets",
      "outputs": [],
      "payable": false,
      "stateMutability": "nonpayable",
      "type": "function"
    },
    {
      "constant": false,
      "inputs": [],
      "name": "_deliverPrizes",
      "outputs": [],
      "payable": false,
      "stateMutability": "nonpayable",
      "type": "function"
    }
  ],
  "bytecode": "0x60806040526040805190810160405280600181526020017f310000000000000000000000000000000000000000000000000000000000000081525060069080519060200190620000519291906200022c565b506040805190810160405280600181526020017f3800000000000000000000000000000000000000000000000000000000000000815250600790805190602001906200009f9291906200022c565b506040805190810160405280600481526020017f313030300000000000000000000000000000000000000000000000000000000081525060089080519060200190620000ed9291906200022c565b506040805190810160405280600281526020017f3230000000000000000000000000000000000000000000000000000000000000815250600990805190602001906200013b9291906200022c565b506007600a556003600b55660110d9316ec000600c55660aa87bee538000600d55624c4b40600e5563ee6b2800600f5573265a5c3dd46ec82e2744f1d0e9fb4ed75d56132a601060006101000a81548173ffffffffffffffffffffffffffffffffffffffff021916908373ffffffffffffffffffffffffffffffffffffffff160217905550600060115560006012556001601360006101000a81548160ff02191690831515021790555033600560006101000a81548173ffffffffffffffffffffffffffffffffffffffff021916908373ffffffffffffffffffffffffffffffffffffffff160217905550620002db565b828054600181600116156101000203166002900490600052602060002090601f016020900481019282601f106200026f57805160ff1916838001178555620002a0565b82800160010185558215620002a0579182015b828111156200029f57825182559160200191906001019062000282565b5b509050620002af9190620002b3565b5090565b620002d891905b80821115620002d4576000816000905550600101620002ba565b5090565b90565b6187a180620002eb6000396000f3006080604052600436106101b7576000357c0100000000000000000000000000000000000000000000000000000000900463ffffffff1680630cc38b2b146101bc57806310cd4b8a146102255780631c3ed1d3146102665780631cf4c3d1146102d357806327dc297e146102ea5780632b08e824146103615780632de729eb146103ce57806338bbfa501461040f578063396fb422146104cc57806339df3f4f146105555780633bb7daf41461056c5780633eba3466146105d55780634acfd9b8146106f557806350b4471214610845578063715018a61461099857806375edd257146109af578063809fc153146109c657806383bb7bb7146109f35780638aa5fafa14610a5c5780638da5cb5b14610a895780638f7e4d9b14610ae057806390c31c4c14610b2357806396701ce914610b2d5780639dec38ab14610b70578063ab59ff2614610bd9578063bcb740ab14610be3578063c71f04ac14610c10578063c90cdc7e14610c3d578063d383e86214610c6a578063ddc110fa14610c97578063e802ae1414610cda578063eaaa680a14610d1b578063f2fde38b14610d88578063f405228914610dcb578063f8a8fd6d14610de2575b600080fd5b3480156101c857600080fd5b50610223600480360381019080803590602001908201803590602001908080601f0160208091040260200160405190810160405280939291908181526020018383808284378201915050505050509192919290505050610dec565b005b34801561023157600080fd5b5061025060048036038101908080359060200190929190505050611044565b6040518082815260200191505060405180910390f35b34801561027257600080fd5b506102916004803603810190808035906020019092919050505061105c565b604051808273ffffffffffffffffffffffffffffffffffffffff1673ffffffffffffffffffffffffffffffffffffffff16815260200191505060405180910390f35b3480156102df57600080fd5b506102e861108f565b005b3480156102f657600080fd5b5061035f6004803603810190808035600019169060200190929190803590602001908201803590602001908080601f01602080910402602001604051908101604052809392919081815260200183838082843782019150505050505091929192905050506114eb565b005b34801561036d57600080fd5b5061038c60048036038101908080359060200190929190505050611f7c565b604051808273ffffffffffffffffffffffffffffffffffffffff1673ffffffffffffffffffffffffffffffffffffffff16815260200191505060405180910390f35b3480156103da57600080fd5b506103f960048036038101908080359060200190929190505050611faf565b6040518082815260200191505060405180910390f35b34801561041b57600080fd5b506104ca6004803603810190808035600019169060200190929190803590602001908201803590602001908080601f0160208091040260200160405190810160405280939291908181526020018383808284378201915050505050509192919290803590602001908201803590602001908080601f0160208091040260200160405190810160405280939291908181526020018383808284378201915050505050509192919290505050612441565b005b3480156104d857600080fd5b506104f760048036038101908080359060200190929190505050612446565b604051808681526020018573ffffffffffffffffffffffffffffffffffffffff1673ffffffffffffffffffffffffffffffffffffffff1681526020018481526020018381526020018281526020019550505050505060405180910390f35b34801561056157600080fd5b5061056a6124a1565b005b34801561057857600080fd5b506105d3600480360381019080803590602001908201803590602001908080601f0160208091040260200160405190810160405280939291908181526020018383808284378201915050505050509192919290505050612529565b005b3480156105e157600080fd5b5061060060048036038101908080359060200190929190505050612781565b604051808060200180602001858152602001848152602001838103835287818151815260200191508051906020019080838360005b83811015610650578082015181840152602081019050610635565b50505050905090810190601f16801561067d5780820380516001836020036101000a031916815260200191505b50838103825286818151815260200191508051906020019080838360005b838110156106b657808201518184015260208101905061069b565b50505050905090810190601f1680156106e35780820380516001836020036101000a031916815260200191505b50965050505050505060405180910390f35b34801561070157600080fd5b50610736600480360381019080803573ffffffffffffffffffffffffffffffffffffffff1690602001909291905050506128e6565b604051808060200180602001878152602001861515151581526020018515151515815260200184151515158152602001838103835289818151815260200191508051906020019080838360005b8381101561079e578082015181840152602081019050610783565b50505050905090810190601f1680156107cb5780820380516001836020036101000a031916815260200191505b50838103825288818151815260200191508051906020019080838360005b838110156108045780820151818401526020810190506107e9565b50505050905090810190601f1680156108315780820380516001836020036101000a031916815260200191505b509850505050505050505060405180910390f35b34801561085157600080fd5b5061087060048036038101908080359060200190929190505050612a79565b6040518080602001806020018681526020018573ffffffffffffffffffffffffffffffffffffffff1673ffffffffffffffffffffffffffffffffffffffff168152602001848152602001838103835288818151815260200191508051906020019080838360005b838110156108f25780820151818401526020810190506108d7565b50505050905090810190601f16801561091f5780820380516001836020036101000a031916815260200191505b50838103825287818151815260200191508051906020019080838360005b8381101561095857808201518184015260208101905061093d565b50505050905090810190601f1680156109855780820380516001836020036101000a031916815260200191505b5097505050505050505060405180910390f35b3480156109a457600080fd5b506109ad612c0e565b005b3480156109bb57600080fd5b506109c4612d13565b005b3480156109d257600080fd5b506109f1600480360381019080803590602001909291905050506131d7565b005b3480156109ff57600080fd5b50610a5a600480360381019080803590602001908201803590602001908080601f01602080910402602001604051908101604052809392919081815260200183838082843782019150505050505091929192905050506132bd565b005b348015610a6857600080fd5b50610a8760048036038101908080359060200190929190505050613515565b005b348015610a9557600080fd5b50610a9e6135fb565b604051808273ffffffffffffffffffffffffffffffffffffffff1673ffffffffffffffffffffffffffffffffffffffff16815260200191505060405180910390f35b348015610aec57600080fd5b50610b21600480360381019080803573ffffffffffffffffffffffffffffffffffffffff169060200190929190505050613621565b005b610b2b6137da565b005b348015610b3957600080fd5b50610b6e600480360381019080803573ffffffffffffffffffffffffffffffffffffffff169060200190929190505050613919565b005b348015610b7c57600080fd5b50610bd7600480360381019080803590602001908201803590602001908080601f0160208091040260200160405190810160405280939291908181526020018383808284378201915050505050509192919290505050613ab1565b005b610be1613d09565b005b348015610bef57600080fd5b50610c0e60048036038101908080359060200190929190505050613d77565b005b348015610c1c57600080fd5b50610c3b60048036038101908080359060200190929190505050613e5d565b005b348015610c4957600080fd5b50610c6860048036038101908080359060200190929190505050613f43565b005b348015610c7657600080fd5b50610c9560048036038101908080359060200190929190505050614029565b005b348015610ca357600080fd5b50610cd8600480360381019080803573ffffffffffffffffffffffffffffffffffffffff169060200190929190505050614135565b005b348015610ce657600080fd5b50610d05600480360381019080803590602001909291905050506141ec565b6040518082815260200191505060405180910390f35b348015610d2757600080fd5b50610d4660048036038101908080359060200190929190505050614204565b604051808273ffffffffffffffffffffffffffffffffffffffff1673ffffffffffffffffffffffffffffffffffffffff16815260200191505060405180910390f35b348015610d9457600080fd5b50610dc9600480360381019080803573ffffffffffffffffffffffffffffffffffffffff169060200190929190505050614237565b005b348015610dd757600080fd5b50610de061429f565b005b610dea6145d0565b005b6060600560009054906101000a900473ffffffffffffffffffffffffffffffffffffffff1673ffffffffffffffffffffffffffffffffffffffff163373ffffffffffffffffffffffffffffffffffffffff16141515610e4a57600080fd5b60078054600181600116156101000203166002900480601f016020809104026020016040519081016040528092919081815260200182805460018160011615610100020316600290048015610ee05780601f10610eb557610100808354040283529160200191610ee0565b820191906000526020600020905b815481529060010190602001808311610ec357829003601f168201915b505050505090508160079080519060200190610efd92919061855a565b507f7ecbd54b3baea533cf57ef049f9e04554be6a660d6dacd477488066eedf27bee818360405180806020018060200180602001848103845260148152602001807f506172616d65746572206e206d6f646966696564000000000000000000000000815250602001848103835286818151815260200191508051906020019080838360005b83811015610f9d578082015181840152602081019050610f82565b50505050905090810190601f168015610fca5780820380516001836020036101000a031916815260200191505b50848103825285818151815260200191508051906020019080838360005b83811015611003578082015181840152602081019050610fe8565b50505050905090810190601f1680156110305780820380516001836020036101000a031916815260200191505b509550505050505060405180910390a15050565b605c6020528060005260406000206000915090505481565b605b6020528060005260406000206000915054906101000a900473ffffffffffffffffffffffffffffffffffffffff1681565b6110976185da565b6000806000600560009054906101000a900473ffffffffffffffffffffffffffffffffffffffff1673ffffffffffffffffffffffffffffffffffffffff163373ffffffffffffffffffffffffffffffffffffffff161415156110f857600080fd5b60009250600090505b600a548110156111fc57605a60008281526020019081526020016000205460318260078110151561112e57fe5b6005020160000181905550605b600082815260200190815260200160002060009054906101000a900473ffffffffffffffffffffffffffffffffffffffff1660318260078110151561117c57fe5b6005020160010160006101000a81548173ffffffffffffffffffffffffffffffffffffffff021916908373ffffffffffffffffffffffffffffffffffffffff160217905550605c6000828152602001908152602001600020546031826007811015156111e457fe5b60050201600201819055508080600101915050611101565b600090505b600a548110156114e55780925060318160078110151561121d57fe5b6005020160a06040519081016040529081600082015481526020016001820160009054906101000a900473ffffffffffffffffffffffffffffffffffffffff1673ffffffffffffffffffffffffffffffffffffffff1673ffffffffffffffffffffffffffffffffffffffff168152602001600282015481526020016003820154815260200160048201548152505093506001810191505b600a54821015611390576031826007811015156112cd57fe5b600502016000015484600001511115611383576031826007811015156112ef57fe5b6005020160a06040519081016040529081600082015481526020016001820160009054906101000a900473ffffffffffffffffffffffffffffffffffffffff1673ffffffffffffffffffffffffffffffffffffffff1673ffffffffffffffffffffffffffffffffffffffff168152602001600282015481526020016003820154815260200160048201548152505093508192505b81806001019250506112b4565b80831415156114d8576031816007811015156113a857fe5b600502016031846007811015156113bb57fe5b60050201600082015481600001556001820160009054906101000a900473ffffffffffffffffffffffffffffffffffffffff168160010160006101000a81548173ffffffffffffffffffffffffffffffffffffffff021916908373ffffffffffffffffffffffffffffffffffffffff1602179055506002820154816002015560038201548160030155600482015481600401559050508360318260078110151561146157fe5b600502016000820151816000015560208201518160010160006101000a81548173ffffffffffffffffffffffffffffffffffffffff021916908373ffffffffffffffffffffffffffffffffffffffff1602179055506040820151816002015560608201518160030155608082015181600401559050505b8080600101915050611201565b50505050565b6114f3615e0e565b73ffffffffffffffffffffffffffffffffffffffff163373ffffffffffffffffffffffffffffffffffffffff1614151561152c57600080fd5b600060576000846000191660001916815260200190815260200160002060009054906101000a900473ffffffffffffffffffffffffffffffffffffffff1673ffffffffffffffffffffffffffffffffffffffff161415801561161c5750600015156056600060576000866000191660001916815260200190815260200160002060009054906101000a900473ffffffffffffffffffffffffffffffffffffffff1673ffffffffffffffffffffffffffffffffffffffff1673ffffffffffffffffffffffffffffffffffffffff16815260200190815260200160002060030160009054906101000a900460ff161515145b156118e257806056600060576000866000191660001916815260200190815260200160002060009054906101000a900473ffffffffffffffffffffffffffffffffffffffff1673ffffffffffffffffffffffffffffffffffffffff1673ffffffffffffffffffffffffffffffffffffffff16815260200190815260200160002060000190805190602001906116b292919061855a565b5060016056600060576000866000191660001916815260200190815260200160002060009054906101000a900473ffffffffffffffffffffffffffffffffffffffff1673ffffffffffffffffffffffffffffffffffffffff1673ffffffffffffffffffffffffffffffffffffffff16815260200190815260200160002060030160006101000a81548160ff021916908315150217905550600115156056600060576000866000191660001916815260200190815260200160002060009054906101000a900473ffffffffffffffffffffffffffffffffffffffff1673ffffffffffffffffffffffffffffffffffffffff1673ffffffffffffffffffffffffffffffffffffffff16815260200190815260200160002060030160019054906101000a900460ff1615151480156118935750600115156056600060576000866000191660001916815260200190815260200160002060009054906101000a900473ffffffffffffffffffffffffffffffffffffffff1673ffffffffffffffffffffffffffffffffffffffff1673ffffffffffffffffffffffffffffffffffffffff16815260200190815260200160002060030160029054906101000a900460ff1615151480611892575060011515601360009054906101000a900460ff161515145b5b156118dd576118dc60576000846000191660001916815260200190815260200160002060009054906101000a900473ffffffffffffffffffffffffffffffffffffffff16614135565b5b611f78565b600060586000846000191660001916815260200190815260200160002060009054906101000a900473ffffffffffffffffffffffffffffffffffffffff1673ffffffffffffffffffffffffffffffffffffffff16141580156119d25750600015156056600060586000866000191660001916815260200190815260200160002060009054906101000a900473ffffffffffffffffffffffffffffffffffffffff1673ffffffffffffffffffffffffffffffffffffffff1673ffffffffffffffffffffffffffffffffffffffff16815260200190815260200160002060030160019054906101000a900460ff161515145b15611c9857806056600060586000866000191660001916815260200190815260200160002060009054906101000a900473ffffffffffffffffffffffffffffffffffffffff1673ffffffffffffffffffffffffffffffffffffffff1673ffffffffffffffffffffffffffffffffffffffff1681526020019081526020016000206001019080519060200190611a6892919061855a565b5060016056600060586000866000191660001916815260200190815260200160002060009054906101000a900473ffffffffffffffffffffffffffffffffffffffff1673ffffffffffffffffffffffffffffffffffffffff1673ffffffffffffffffffffffffffffffffffffffff16815260200190815260200160002060030160016101000a81548160ff021916908315150217905550600115156056600060586000866000191660001916815260200190815260200160002060009054906101000a900473ffffffffffffffffffffffffffffffffffffffff1673ffffffffffffffffffffffffffffffffffffffff1673ffffffffffffffffffffffffffffffffffffffff16815260200190815260200160002060030160009054906101000a900460ff161515148015611c495750600115156056600060586000866000191660001916815260200190815260200160002060009054906101000a900473ffffffffffffffffffffffffffffffffffffffff1673ffffffffffffffffffffffffffffffffffffffff1673ffffffffffffffffffffffffffffffffffffffff16815260200190815260200160002060030160029054906101000a900460ff1615151480611c48575060011515601360009054906101000a900460ff161515145b5b15611c9357611c9260586000846000191660001916815260200190815260200160002060009054906101000a900473ffffffffffffffffffffffffffffffffffffffff16614135565b5b611f77565b600060596000846000191660001916815260200190815260200160002060009054906101000a900473ffffffffffffffffffffffffffffffffffffffff1673ffffffffffffffffffffffffffffffffffffffff1614158015611da65750600115156056600060596000866000191660001916815260200190815260200160002060009054906101000a900473ffffffffffffffffffffffffffffffffffffffff1673ffffffffffffffffffffffffffffffffffffffff1673ffffffffffffffffffffffffffffffffffffffff16815260200190815260200160002060030160029054906101000a900460ff1615151480611da5575060011515601360009054906101000a900460ff161515145b5b15611f7657611db48161616c565b6056600060596000866000191660001916815260200190815260200160002060009054906101000a900473ffffffffffffffffffffffffffffffffffffffff1673ffffffffffffffffffffffffffffffffffffffff1673ffffffffffffffffffffffffffffffffffffffff1681526020019081526020016000206002018190555060006056600060596000866000191660001916815260200190815260200160002060009054906101000a900473ffffffffffffffffffffffffffffffffffffffff1673ffffffffffffffffffffffffffffffffffffffff1673ffffffffffffffffffffffffffffffffffffffff16815260200190815260200160002060030160026101000a81548160ff02191690831515021790555060011515601360009054906101000a900460ff1615151415611f3057611f2b60596000846000191660001916815260200190815260200160002060009054906101000a900473ffffffffffffffffffffffffffffffffffffffff16616180565b611f75565b611f7460596000846000191660001916815260200190815260200160002060009054906101000a900473ffffffffffffffffffffffffffffffffffffffff16616415565b5b5b5b5b5050565b60546020528060005260406000206000915054906101000a900473ffffffffffffffffffffffffffffffffffffffff1681565b600080600080600060156001600a5403600781101515611fcb57fe5b6004020160020154601487815481101515611fe257fe5b9060005260206000209060050201600201541115612117576001600a5403935061204b60158560078110151561201457fe5b600402016002015460148881548110151561202b57fe5b9060005260206000209060050201600201546167c590919063ffffffff16565b9250600073ffffffffffffffffffffffffffffffffffffffff16605b600086815260200190815260200160002060009054906101000a900473ffffffffffffffffffffffffffffffffffffffff1673ffffffffffffffffffffffffffffffffffffffff1614806120cd5750605a60008581526020019081526020016000205483105b1561211257612111846054600089815260200190815260200160002060009054906101000a900473ffffffffffffffffffffffffffffffffffffffff1685896167de565b5b612435565b6015600060078110151561212757fe5b600402016002015460148781548110151561213e57fe5b906000526020600020906005020160020154101561226f57600093506121a360148781548110151561216c57fe5b90600052602060002090600502016002015460158660078110151561218d57fe5b60040201600201546167c590919063ffffffff16565b9250600073ffffffffffffffffffffffffffffffffffffffff16605b600086815260200190815260200160002060009054906101000a900473ffffffffffffffffffffffffffffffffffffffff1673ffffffffffffffffffffffffffffffffffffffff1614806122255750605a60008581526020019081526020016000205483105b1561226a57612269846054600089815260200190815260200160002060009054906101000a900473ffffffffffffffffffffffffffffffffffffffff1685896167de565b5b612434565b5b60158460078110151561227f57fe5b600402016002015460148781548110151561229657fe5b90600052602060002090600502016002015411156122bb578380600101945050612270565b6123076015600186036007811015156122d057fe5b60040201600201546014888154811015156122e757fe5b9060005260206000209060050201600201546167c590919063ffffffff16565b915061235260148781548110151561231b57fe5b90600052602060002090600502016002015460158660078110151561233c57fe5b60040201600201546167c590919063ffffffff16565b90508181111561236a5760018403935081925061236e565b8092505b600073ffffffffffffffffffffffffffffffffffffffff16605b600086815260200190815260200160002060009054906101000a900473ffffffffffffffffffffffffffffffffffffffff1673ffffffffffffffffffffffffffffffffffffffff1614806123ee5750605a60008581526020019081526020016000205483105b1561243357612432846054600089815260200190815260200160002060009054906101000a900473ffffffffffffffffffffffffffffffffffffffff1685896167de565b5b5b5b83945050505050919050565b505050565b60318160078110151561245557fe5b600502016000915090508060000154908060010160009054906101000a900473ffffffffffffffffffffffffffffffffffffffff16908060020154908060030154908060040154905085565b600560009054906101000a900473ffffffffffffffffffffffffffffffffffffffff1673ffffffffffffffffffffffffffffffffffffffff163373ffffffffffffffffffffffffffffffffffffffff161415156124fd57600080fd5b601360009054906101000a900460ff1615601360006101000a81548160ff021916908315150217905550565b6060600560009054906101000a900473ffffffffffffffffffffffffffffffffffffffff1673ffffffffffffffffffffffffffffffffffffffff163373ffffffffffffffffffffffffffffffffffffffff1614151561258757600080fd5b60098054600181600116156101000203166002900480601f01602080910402602001604051908101604052809291908181526020018280546001816001161561010002031660029004801561261d5780601f106125f25761010080835404028352916020019161261d565b820191906000526020600020905b81548152906001019060200180831161260057829003601f168201915b50505050509050816009908051906020019061263a92919061855a565b507f7ecbd54b3baea533cf57ef049f9e04554be6a660d6dacd477488066eedf27bee818360405180806020018060200180602001848103845260148152602001807f506172616d65746572206a206d6f646966696564000000000000000000000000815250602001848103835286818151815260200191508051906020019080838360005b838110156126da5780820151818401526020810190506126bf565b50505050905090810190601f1680156127075780820380516001836020036101000a031916815260200191505b50848103825285818151815260200191508051906020019080838360005b83811015612740578082015181840152602081019050612725565b50505050905090810190601f16801561276d5780820380516001836020036101000a031916815260200191505b509550505050505060405180910390a15050565b60158160078110151561279057fe5b60040201600091509050806000018054600181600116156101000203166002900480601f0160208091040260200160405190810160405280929190818152602001828054600181600116156101000203166002900480156128325780601f1061280757610100808354040283529160200191612832565b820191906000526020600020905b81548152906001019060200180831161281557829003601f168201915b505050505090806001018054600181600116156101000203166002900480601f0160208091040260200160405190810160405280929190818152602001828054600181600116156101000203166002900480156128d05780601f106128a5576101008083540402835291602001916128d0565b820191906000526020600020905b8154815290600101906020018083116128b357829003601f168201915b5050505050908060020154908060030154905084565b6056602052806000526040600020600091509050806000018054600181600116156101000203166002900480601f0160208091040260200160405190810160405280929190818152602001828054600181600116156101000203166002900480156129925780601f1061296757610100808354040283529160200191612992565b820191906000526020600020905b81548152906001019060200180831161297557829003601f168201915b505050505090806001018054600181600116156101000203166002900480601f016020809104026020016040519081016040528092919081815260200182805460018160011615610100020316600290048015612a305780601f10612a0557610100808354040283529160200191612a30565b820191906000526020600020905b815481529060010190602001808311612a1357829003601f168201915b5050505050908060020154908060030160009054906101000a900460ff16908060030160019054906101000a900460ff16908060030160029054906101000a900460ff16905086565b601481815481101515612a8857fe5b9060005260206000209060050201600091509050806000018054600181600116156101000203166002900480601f016020809104026020016040519081016040528092919081815260200182805460018160011615610100020316600290048015612b345780601f10612b0957610100808354040283529160200191612b34565b820191906000526020600020905b815481529060010190602001808311612b1757829003601f168201915b505050505090806001018054600181600116156101000203166002900480601f016020809104026020016040519081016040528092919081815260200182805460018160011615610100020316600290048015612bd25780601f10612ba757610100808354040283529160200191612bd2565b820191906000526020600020905b815481529060010190602001808311612bb557829003601f168201915b5050505050908060020154908060030160009054906101000a900473ffffffffffffffffffffffffffffffffffffffff16908060040154905085565b600560009054906101000a900473ffffffffffffffffffffffffffffffffffffffff1673ffffffffffffffffffffffffffffffffffffffff163373ffffffffffffffffffffffffffffffffffffffff16141515612c6a57600080fd5b600560009054906101000a900473ffffffffffffffffffffffffffffffffffffffff1673ffffffffffffffffffffffffffffffffffffffff167ff8df31144d9c2f0f6b59d69b8b98abd5459d07f2742c4df920b25aae33c6482060405160405180910390a26000600560006101000a81548173ffffffffffffffffffffffffffffffffffffffff021916908373ffffffffffffffffffffffffffffffffffffffff160217905550565b612d1b618620565b6000806000600560009054906101000a900473ffffffffffffffffffffffffffffffffffffffff1673ffffffffffffffffffffffffffffffffffffffff163373ffffffffffffffffffffffffffffffffffffffff16141515612d7c57600080fd5b60009250600090505b600a548110156131d157809250601581600781101515612da157fe5b6004020160806040519081016040529081600082018054600181600116156101000203166002900480601f016020809104026020016040519081016040528092919081815260200182805460018160011615610100020316600290048015612e4a5780601f10612e1f57610100808354040283529160200191612e4a565b820191906000526020600020905b815481529060010190602001808311612e2d57829003601f168201915b50505050508152602001600182018054600181600116156101000203166002900480601f016020809104026020016040519081016040528092919081815260200182805460018160011615610100020316600290048015612eec5780601f10612ec157610100808354040283529160200191612eec565b820191906000526020600020905b815481529060010190602001808311612ecf57829003601f168201915b505050505081526020016002820154815260200160038201548152505093506001810191505b600a548210156130c857601582600781101515612f2b57fe5b6004020160020154846040015111156130bb57601582600781101515612f4d57fe5b6004020160806040519081016040529081600082018054600181600116156101000203166002900480601f016020809104026020016040519081016040528092919081815260200182805460018160011615610100020316600290048015612ff65780601f10612fcb57610100808354040283529160200191612ff6565b820191906000526020600020905b815481529060010190602001808311612fd957829003601f168201915b50505050508152602001600182018054600181600116156101000203166002900480601f0160208091040260200160405190810160405280929190818152602001828054600181600116156101000203166002900480156130985780601f1061306d57610100808354040283529160200191613098565b820191906000526020600020905b81548152906001019060200180831161307b57829003601f168201915b505050505081526020016002820154815260200160038201548152505093508192505b8180600101925050612f12565b80831415156131c4576015816007811015156130e057fe5b600402016015846007811015156130f357fe5b600402016000820181600001908054600181600116156101000203166002900461311e929190618649565b5060018201816001019080546001816001161561010002031660029004613146929190618649565b5060028201548160020155600382015481600301559050508360158260078110151561316e57fe5b60040201600082015181600001908051906020019061318e9291906186d0565b5060208201518160010190805190602001906131ab9291906186d0565b5060408201518160020155606082015181600301559050505b8080600101915050612d85565b50505050565b6000600560009054906101000a900473ffffffffffffffffffffffffffffffffffffffff1673ffffffffffffffffffffffffffffffffffffffff163373ffffffffffffffffffffffffffffffffffffffff1614151561323557600080fd5b600e54905081600e819055507f9bc068999fb1a0aac007a9b44ca6322a376441f42706bf5163600bb3d1a73164818360405180806020018481526020018381526020018281038252601a8152602001807f4f7261636c697a6520676173206c696d6974206368616e676564000000000000815250602001935050505060405180910390a15050565b6060600560009054906101000a900473ffffffffffffffffffffffffffffffffffffffff1673ffffffffffffffffffffffffffffffffffffffff163373ffffffffffffffffffffffffffffffffffffffff1614151561331b57600080fd5b60068054600181600116156101000203166002900480601f0160208091040260200160405190810160405280929190818152602001828054600181600116156101000203166002900480156133b15780601f10613386576101008083540402835291602001916133b1565b820191906000526020600020905b81548152906001019060200180831161339457829003601f168201915b5050505050905081600690805190602001906133ce92919061855a565b507f7ecbd54b3baea533cf57ef049f9e04554be6a660d6dacd477488066eedf27bee818360405180806020018060200180602001848103845260148152602001807f506172616d657465722062206d6f646966696564000000000000000000000000815250602001848103835286818151815260200191508051906020019080838360005b8381101561346e578082015181840152602081019050613453565b50505050905090810190601f16801561349b5780820380516001836020036101000a031916815260200191505b50848103825285818151815260200191508051906020019080838360005b838110156134d45780820151818401526020810190506134b9565b50505050905090810190601f1680156135015780820380516001836020036101000a031916815260200191505b509550505050505060405180910390a15050565b6000600560009054906101000a900473ffffffffffffffffffffffffffffffffffffffff1673ffffffffffffffffffffffffffffffffffffffff163373ffffffffffffffffffffffffffffffffffffffff1614151561357357600080fd5b600c54905081600c819055507f9bc068999fb1a0aac007a9b44ca6322a376441f42706bf5163600bb3d1a73164818360405180806020018481526020018381526020018281038252601d8152602001807f47656e6572617465207469636b6574207072696365206368616e676564000000815250602001935050505060405180910390a15050565b600560009054906101000a900473ffffffffffffffffffffffffffffffffffffffff1681565b60008061362f600f54616866565b6136a66040805190810160405280600c81526020017f576f6c6672616d416c70686100000000000000000000000000000000000000008152506040805190810160405280600f81526020017f342072616e646f6d206e756d6265720000000000000000000000000000000000815250600e54616ba9565b91508260576000846000191660001916815260200190815260200160002060006101000a81548173ffffffffffffffffffffffffffffffffffffffff021916908373ffffffffffffffffffffffffffffffffffffffff1602179055506137796040805190810160405280600c81526020017f576f6c6672616d416c70686100000000000000000000000000000000000000008152506040805190810160405280600f81526020017f342072616e646f6d206e756d6265720000000000000000000000000000000000815250600e54616ba9565b90508260586000836000191660001916815260200190815260200160002060006101000a81548173ffffffffffffffffffffffffffffffffffffffff021916908373ffffffffffffffffffffffffffffffffffffffff160217905550505050565b600560009054906101000a900473ffffffffffffffffffffffffffffffffffffffff1673ffffffffffffffffffffffffffffffffffffffff163373ffffffffffffffffffffffffffffffffffffffff1614151561383657600080fd5b600a5460125414156138575761384a612d13565b6138526124a1565b613917565b6000605660003073ffffffffffffffffffffffffffffffffffffffff1673ffffffffffffffffffffffffffffffffffffffff16815260200190815260200160002060030160006101000a81548160ff0219169083151502179055506000605660003073ffffffffffffffffffffffffffffffffffffffff1673ffffffffffffffffffffffffffffffffffffffff16815260200190815260200160002060030160016101000a81548160ff02191690831515021790555061391630613621565b5b565b6000600560009054906101000a900473ffffffffffffffffffffffffffffffffffffffff1673ffffffffffffffffffffffffffffffffffffffff163373ffffffffffffffffffffffffffffffffffffffff1614151561397757600080fd5b601060009054906101000a900473ffffffffffffffffffffffffffffffffffffffff16905081601060006101000a81548173ffffffffffffffffffffffffffffffffffffffff021916908373ffffffffffffffffffffffffffffffffffffffff1602179055507f223db053947bb148de510715d3c7d8ccd72bdd376752fd735ee7bd0bd0ece5bf818360405180806020018473ffffffffffffffffffffffffffffffffffffffff1673ffffffffffffffffffffffffffffffffffffffff1681526020018373ffffffffffffffffffffffffffffffffffffffff1673ffffffffffffffffffffffffffffffffffffffff168152602001828103825260198152602001807f456e74657270726973652077616c6c6574206368616e67656400000000000000815250602001935050505060405180910390a15050565b6060600560009054906101000a900473ffffffffffffffffffffffffffffffffffffffff1673ffffffffffffffffffffffffffffffffffffffff163373ffffffffffffffffffffffffffffffffffffffff16141515613b0f57600080fd5b60088054600181600116156101000203166002900480601f016020809104026020016040519081016040528092919081815260200182805460018160011615610100020316600290048015613ba55780601f10613b7a57610100808354040283529160200191613ba5565b820191906000526020600020905b815481529060010190602001808311613b8857829003601f168201915b505050505090508160089080519060200190613bc292919061855a565b507f7ecbd54b3baea533cf57ef049f9e04554be6a660d6dacd477488066eedf27bee818360405180806020018060200180602001848103845260148152602001807f506172616d657465722070206d6f646966696564000000000000000000000000815250602001848103835286818151815260200191508051906020019080838360005b83811015613c62578082015181840152602081019050613c47565b50505050905090810190601f168015613c8f5780820380516001836020036101000a031916815260200191505b50848103825285818151815260200191508051906020019080838360005b83811015613cc8578082015181840152602081019050613cad565b50505050905090810190601f168015613cf55780820380516001836020036101000a031916815260200191505b509550505050505060405180910390a15050565b600560009054906101000a900473ffffffffffffffffffffffffffffffffffffffff1673ffffffffffffffffffffffffffffffffffffffff163373ffffffffffffffffffffffffffffffffffffffff16141515613d6557600080fd5b6000601281905550613d756137da565b565b6000600560009054906101000a900473ffffffffffffffffffffffffffffffffffffffff1673ffffffffffffffffffffffffffffffffffffffff163373ffffffffffffffffffffffffffffffffffffffff16141515613dd557600080fd5b600d54905081600d819055507f9bc068999fb1a0aac007a9b44ca6322a376441f42706bf5163600bb3d1a7316481836040518080602001848152602001838152602001828103825260198152602001807f53656c6c207469636b6574207072696365206368616e67656400000000000000815250602001935050505060405180910390a15050565b6000600560009054906101000a900473ffffffffffffffffffffffffffffffffffffffff1673ffffffffffffffffffffffffffffffffffffffff163373ffffffffffffffffffffffffffffffffffffffff16141515613ebb57600080fd5b600d54905081600d819055507f9bc068999fb1a0aac007a9b44ca6322a376441f42706bf5163600bb3d1a7316481836040518080602001848152602001838152602001828103825260198152602001807f53656c6c207469636b6574207072696365206368616e67656400000000000000815250602001935050505060405180910390a15050565b6000600560009054906101000a900473ffffffffffffffffffffffffffffffffffffffff1673ffffffffffffffffffffffffffffffffffffffff163373ffffffffffffffffffffffffffffffffffffffff16141515613fa157600080fd5b600b54905081600b819055507f9bc068999fb1a0aac007a9b44ca6322a376441f42706bf5163600bb3d1a7316481836040518080602001848152602001838152602001828103825260198152602001807f4e756d626572206f662077696e6e657273206368616e67656400000000000000815250602001935050505060405180910390a15050565b6000600560009054906101000a900473ffffffffffffffffffffffffffffffffffffffff1673ffffffffffffffffffffffffffffffffffffffff163373ffffffffffffffffffffffffffffffffffffffff1614151561408757600080fd5b600f54905081600f819055507f9bc068999fb1a0aac007a9b44ca6322a376441f42706bf5163600bb3d1a7316481836040518080602001848152602001838152602001828103825260218152602001807f4f7261636c697a6520637573746f6d20676173207072696365206368616e676581526020017f6400000000000000000000000000000000000000000000000000000000000000815250604001935050505060405180910390a15050565b6000614142600f54616866565b61418c6040805190810160405280600c81526020017f576f6c6672616d416c706861000000000000000000000000000000000000000081525061418484617159565b600e54616ba9565b90508160596000836000191660001916815260200190815260200160002060006101000a81548173ffffffffffffffffffffffffffffffffffffffff021916908373ffffffffffffffffffffffffffffffffffffffff1602179055505050565b605a6020528060005260406000206000915090505481565b605d6020528060005260406000206000915054906101000a900473ffffffffffffffffffffffffffffffffffffffff1681565b600560009054906101000a900473ffffffffffffffffffffffffffffffffffffffff1673ffffffffffffffffffffffffffffffffffffffff163373ffffffffffffffffffffffffffffffffffffffff1614151561429357600080fd5b61429c81617819565b50565b600080600080600560009054906101000a900473ffffffffffffffffffffffffffffffffffffffff1673ffffffffffffffffffffffffffffffffffffffff163373ffffffffffffffffffffffffffffffffffffffff1614151561430157600080fd5b61432c60073073ffffffffffffffffffffffffffffffffffffffff163161791590919063ffffffff16565b9350614342600a8561794d90919063ffffffff16565b935061435860068561791590919063ffffffff16565b925061436e60038561791590919063ffffffff16565b915061438460018561791590919063ffffffff16565b905061439a600a8461794d90919063ffffffff16565b92506143b0600a8361794d90919063ffffffff16565b91506143c6600a8261794d90919063ffffffff16565b90506143d061108f565b603160006007811015156143e057fe5b6005020160010160009054906101000a900473ffffffffffffffffffffffffffffffffffffffff1673ffffffffffffffffffffffffffffffffffffffff166108fc849081150290604051600060405180830381858888f1935050505015801561444d573d6000803e3d6000fd5b506031600160078110151561445e57fe5b6005020160010160009054906101000a900473ffffffffffffffffffffffffffffffffffffffff1673ffffffffffffffffffffffffffffffffffffffff166108fc839081150290604051600060405180830381858888f193505050501580156144cb573d6000803e3d6000fd5b50603160026007811015156144dc57fe5b6005020160010160009054906101000a900473ffffffffffffffffffffffffffffffffffffffff1673ffffffffffffffffffffffffffffffffffffffff166108fc829081150290604051600060405180830381858888f19350505050158015614549573d6000803e3d6000fd5b50601060009054906101000a900473ffffffffffffffffffffffffffffffffffffffff1673ffffffffffffffffffffffffffffffffffffffff166108fc3073ffffffffffffffffffffffffffffffffffffffff16319081150290604051600060405180830381858888f193505050501580156145c9573d6000803e3d6000fd5b5050505050565b60008060006080604051908101604052806040805190810160405280600181526020017f310000000000000000000000000000000000000000000000000000000000000081525081526020016040805190810160405280600181526020017f32000000000000000000000000000000000000000000000000000000000000008152508152602001606a815260200160008152506015600060078110151561467357fe5b6004020160008201518160000190805190602001906146939291906186d0565b5060208201518160010190805190602001906146b09291906186d0565b5060408201518160020155606082015181600301559050506080604051908101604052806040805190810160405280600181526020017f310000000000000000000000000000000000000000000000000000000000000081525081526020016040805190810160405280600181526020017f320000000000000000000000000000000000000000000000000000000000000081525081526020016101b1815260200160008152506015600160078110151561476757fe5b6004020160008201518160000190805190602001906147879291906186d0565b5060208201518160010190805190602001906147a49291906186d0565b5060408201518160020155606082015181600301559050506080604051908101604052806040805190810160405280600181526020017f310000000000000000000000000000000000000000000000000000000000000081525081526020016040805190810160405280600181526020017f320000000000000000000000000000000000000000000000000000000000000081525081526020016101c7815260200160008152506015600260078110151561485b57fe5b60040201600082015181600001908051906020019061487b9291906186d0565b5060208201518160010190805190602001906148989291906186d0565b5060408201518160020155606082015181600301559050506080604051908101604052806040805190810160405280600181526020017f310000000000000000000000000000000000000000000000000000000000000081525081526020016040805190810160405280600181526020017f3200000000000000000000000000000000000000000000000000000000000000815250815260200161014b815260200160008152506015600360078110151561494f57fe5b60040201600082015181600001908051906020019061496f9291906186d0565b50602082015181600101908051906020019061498c9291906186d0565b5060408201518160020155606082015181600301559050506080604051908101604052806040805190810160405280600181526020017f310000000000000000000000000000000000000000000000000000000000000081525081526020016040805190810160405280600181526020017f320000000000000000000000000000000000000000000000000000000000000081525081526020016101308152602001600081525060156004600781101515614a4357fe5b600402016000820151816000019080519060200190614a639291906186d0565b506020820151816001019080519060200190614a809291906186d0565b5060408201518160020155606082015181600301559050506080604051908101604052806040805190810160405280600181526020017f310000000000000000000000000000000000000000000000000000000000000081525081526020016040805190810160405280600181526020017f3200000000000000000000000000000000000000000000000000000000000000815250815260200160f28152602001600081525060156005600781101515614b3657fe5b600402016000820151816000019080519060200190614b569291906186d0565b506020820151816001019080519060200190614b739291906186d0565b5060408201518160020155606082015181600301559050506080604051908101604052806040805190810160405280600181526020017f310000000000000000000000000000000000000000000000000000000000000081525081526020016040805190810160405280600181526020017f320000000000000000000000000000000000000000000000000000000000000081525081526020016102ef8152602001600081525060156006600781101515614c2a57fe5b600402016000820151816000019080519060200190614c4a9291906186d0565b506020820151816001019080519060200190614c679291906186d0565b506040820151816002015560608201518160030155905050614c87612d13565b7314723a09acff6d2a60dcdf7aa4aff308fddc160c92506001601460a0604051908101604052806040805190810160405280600181526020017f310000000000000000000000000000000000000000000000000000000000000081525081526020016040805190810160405280600181526020017f32000000000000000000000000000000000000000000000000000000000000008152508152602001606b81526020018673ffffffffffffffffffffffffffffffffffffffff1681526020016000815250908060018154018082558091505090600182039060005260206000209060050201600090919290919091506000820151816000019080519060200190614d939291906186d0565b506020820151816001019080519060200190614db09291906186d0565b506040820151816002015560608201518160030160006101000a81548173ffffffffffffffffffffffffffffffffffffffff021916908373ffffffffffffffffffffffffffffffffffffffff160217905550608082015181600401555050039150826054600084815260200190815260200160002060006101000a81548173ffffffffffffffffffffffffffffffffffffffff021916908373ffffffffffffffffffffffffffffffffffffffff160217905550605560008473ffffffffffffffffffffffffffffffffffffffff1673ffffffffffffffffffffffffffffffffffffffff16815260200190815260200160002060008154809291906001019190505550734b0897b0513fdc7c541b6d9d7e929c4e5364d2db92506001601460a0604051908101604052806040805190810160405280600181526020017f310000000000000000000000000000000000000000000000000000000000000081525081526020016040805190810160405280600181526020017f320000000000000000000000000000000000000000000000000000000000000081525081526020016101af81526020018673ffffffffffffffffffffffffffffffffffffffff1681526020016000815250908060018154018082558091505090600182039060005260206000209060050201600090919290919091506000820151816000019080519060200190614fbf9291906186d0565b506020820151816001019080519060200190614fdc9291906186d0565b506040820151816002015560608201518160030160006101000a81548173ffffffffffffffffffffffffffffffffffffffff021916908373ffffffffffffffffffffffffffffffffffffffff160217905550608082015181600401555050039150826054600084815260200190815260200160002060006101000a81548173ffffffffffffffffffffffffffffffffffffffff021916908373ffffffffffffffffffffffffffffffffffffffff160217905550605560008473ffffffffffffffffffffffffffffffffffffffff1673ffffffffffffffffffffffffffffffffffffffff16815260200190815260200160002060008154809291906001019190505550734b0897b0513fdc7c541b6d9d7e929c4e5364d2db92506001601460a0604051908101604052806040805190810160405280600181526020017f310000000000000000000000000000000000000000000000000000000000000081525081526020016040805190810160405280600181526020017f320000000000000000000000000000000000000000000000000000000000000081525081526020016101ca81526020018673ffffffffffffffffffffffffffffffffffffffff16815260200160008152509080600181540180825580915050906001820390600052602060002090600502016000909192909190915060008201518160000190805190602001906151eb9291906186d0565b5060208201518160010190805190602001906152089291906186d0565b506040820151816002015560608201518160030160006101000a81548173ffffffffffffffffffffffffffffffffffffffff021916908373ffffffffffffffffffffffffffffffffffffffff160217905550608082015181600401555050039150826054600084815260200190815260200160002060006101000a81548173ffffffffffffffffffffffffffffffffffffffff021916908373ffffffffffffffffffffffffffffffffffffffff160217905550605560008473ffffffffffffffffffffffffffffffffffffffff1673ffffffffffffffffffffffffffffffffffffffff16815260200190815260200160002060008154809291906001019190505550734b0897b0513fdc7c541b6d9d7e929c4e5364d2db92506001601460a0604051908101604052806040805190810160405280600181526020017f310000000000000000000000000000000000000000000000000000000000000081525081526020016040805190810160405280600181526020017f3200000000000000000000000000000000000000000000000000000000000000815250815260200161014781526020018673ffffffffffffffffffffffffffffffffffffffff16815260200160008152509080600181540180825580915050906001820390600052602060002090600502016000909192909190915060008201518160000190805190602001906154179291906186d0565b5060208201518160010190805190602001906154349291906186d0565b506040820151816002015560608201518160030160006101000a81548173ffffffffffffffffffffffffffffffffffffffff021916908373ffffffffffffffffffffffffffffffffffffffff160217905550608082015181600401555050039150826054600084815260200190815260200160002060006101000a81548173ffffffffffffffffffffffffffffffffffffffff021916908373ffffffffffffffffffffffffffffffffffffffff160217905550605560008473ffffffffffffffffffffffffffffffffffffffff1673ffffffffffffffffffffffffffffffffffffffff16815260200190815260200160002060008154809291906001019190505550734b0897b0513fdc7c541b6d9d7e929c4e5364d2db92506001601460a0604051908101604052806040805190810160405280600181526020017f310000000000000000000000000000000000000000000000000000000000000081525081526020016040805190810160405280600181526020017f3200000000000000000000000000000000000000000000000000000000000000815250815260200161013581526020018673ffffffffffffffffffffffffffffffffffffffff16815260200160008152509080600181540180825580915050906001820390600052602060002090600502016000909192909190915060008201518160000190805190602001906156439291906186d0565b5060208201518160010190805190602001906156609291906186d0565b506040820151816002015560608201518160030160006101000a81548173ffffffffffffffffffffffffffffffffffffffff021916908373ffffffffffffffffffffffffffffffffffffffff160217905550608082015181600401555050039150826054600084815260200190815260200160002060006101000a81548173ffffffffffffffffffffffffffffffffffffffff021916908373ffffffffffffffffffffffffffffffffffffffff160217905550605560008473ffffffffffffffffffffffffffffffffffffffff1673ffffffffffffffffffffffffffffffffffffffff1681526020019081526020016000206000815480929190600101919050555073ca35b7d915458ef540ade6068dfe2f44e8fa733c92506001601460a0604051908101604052806040805190810160405280600181526020017f310000000000000000000000000000000000000000000000000000000000000081525081526020016040805190810160405280600181526020017f3200000000000000000000000000000000000000000000000000000000000000815250815260200160f881526020018673ffffffffffffffffffffffffffffffffffffffff168152602001600081525090806001815401808255809150509060018203906000526020600020906005020160009091929091909150600082015181600001908051906020019061586e9291906186d0565b50602082015181600101908051906020019061588b9291906186d0565b506040820151816002015560608201518160030160006101000a81548173ffffffffffffffffffffffffffffffffffffffff021916908373ffffffffffffffffffffffffffffffffffffffff160217905550608082015181600401555050039150826054600084815260200190815260200160002060006101000a81548173ffffffffffffffffffffffffffffffffffffffff021916908373ffffffffffffffffffffffffffffffffffffffff160217905550605560008473ffffffffffffffffffffffffffffffffffffffff1673ffffffffffffffffffffffffffffffffffffffff1681526020019081526020016000206000815480929190600101919050555073583031d1113ad414f02576bd6afabfb30214022592506001601460a0604051908101604052806040805190810160405280600181526020017f310000000000000000000000000000000000000000000000000000000000000081525081526020016040805190810160405280600181526020017f320000000000000000000000000000000000000000000000000000000000000081525081526020016102f881526020018673ffffffffffffffffffffffffffffffffffffffff1681526020016000815250908060018154018082558091505090600182039060005260206000209060050201600090919290919091506000820151816000019080519060200190615a9a9291906186d0565b506020820151816001019080519060200190615ab79291906186d0565b506040820151816002015560608201518160030160006101000a81548173ffffffffffffffffffffffffffffffffffffffff021916908373ffffffffffffffffffffffffffffffffffffffff160217905550608082015181600401555050039150826054600084815260200190815260200160002060006101000a81548173ffffffffffffffffffffffffffffffffffffffff021916908373ffffffffffffffffffffffffffffffffffffffff160217905550605560008473ffffffffffffffffffffffffffffffffffffffff1673ffffffffffffffffffffffffffffffffffffffff1681526020019081526020016000206000815480929190600101919050555073265a5c3dd46ec82e2744f1d0e9fb4ed75d56132a92506001601460a0604051908101604052806040805190810160405280600181526020017f310000000000000000000000000000000000000000000000000000000000000081525081526020016040805190810160405280600181526020017f3200000000000000000000000000000000000000000000000000000000000000815250815260200161013181526020018673ffffffffffffffffffffffffffffffffffffffff1681526020016000815250908060018154018082558091505090600182039060005260206000209060050201600090919290919091506000820151816000019080519060200190615cc69291906186d0565b506020820151816001019080519060200190615ce39291906186d0565b506040820151816002015560608201518160030160006101000a81548173ffffffffffffffffffffffffffffffffffffffff021916908373ffffffffffffffffffffffffffffffffffffffff160217905550608082015181600401555050039150826054600084815260200190815260200160002060006101000a81548173ffffffffffffffffffffffffffffffffffffffff021916908373ffffffffffffffffffffffffffffffffffffffff160217905550605560008473ffffffffffffffffffffffffffffffffffffffff1673ffffffffffffffffffffffffffffffffffffffff16815260200190815260200160002060008154809291906001019190505550600090505b81811015615e0957615dfb81611faf565b508080600101915050615dea565b505050565b6000806000809054906101000a900473ffffffffffffffffffffffffffffffffffffffff1673ffffffffffffffffffffffffffffffffffffffff161480615e7e57506000615e7c6000809054906101000a900473ffffffffffffffffffffffffffffffffffffffff16617963565b145b15615e8f57615e8d600061796e565b505b6000809054906101000a900473ffffffffffffffffffffffffffffffffffffffff1673ffffffffffffffffffffffffffffffffffffffff166338cc48316040518163ffffffff167c0100000000000000000000000000000000000000000000000000000000028152600401602060405180830381600087803b158015615f1457600080fd5b505af1158015615f28573d6000803e3d6000fd5b505050506040513d6020811015615f3e57600080fd5b810190808051906020019092919050505073ffffffffffffffffffffffffffffffffffffffff16600160009054906101000a900473ffffffffffffffffffffffffffffffffffffffff1673ffffffffffffffffffffffffffffffffffffffff161415156160a6576000809054906101000a900473ffffffffffffffffffffffffffffffffffffffff1673ffffffffffffffffffffffffffffffffffffffff166338cc48316040518163ffffffff167c0100000000000000000000000000000000000000000000000000000000028152600401602060405180830381600087803b15801561602a57600080fd5b505af115801561603e573d6000803e3d6000fd5b505050506040513d602081101561605457600080fd5b8101908080519060200190929190505050600160006101000a81548173ffffffffffffffffffffffffffffffffffffffff021916908373ffffffffffffffffffffffffffffffffffffffff1602179055505b600160009054906101000a900473ffffffffffffffffffffffffffffffffffffffff1673ffffffffffffffffffffffffffffffffffffffff1663c281d19e6040518163ffffffff167c0100000000000000000000000000000000000000000000000000000000028152600401602060405180830381600087803b15801561612c57600080fd5b505af1158015616140573d6000803e3d6000fd5b505050506040513d602081101561615657600080fd5b8101908080519060200190929190505050905090565b600061617982600061797f565b9050919050565b608060405190810160405280605660008473ffffffffffffffffffffffffffffffffffffffff1673ffffffffffffffffffffffffffffffffffffffff1681526020019081526020016000206000018054600181600116156101000203166002900480601f0160208091040260200160405190810160405280929190818152602001828054600181600116156101000203166002900480156162625780601f1061623757610100808354040283529160200191616262565b820191906000526020600020905b81548152906001019060200180831161624557829003601f168201915b50505050508152602001605660008473ffffffffffffffffffffffffffffffffffffffff1673ffffffffffffffffffffffffffffffffffffffff1681526020019081526020016000206001018054600181600116156101000203166002900480601f0160208091040260200160405190810160405280929190818152602001828054600181600116156101000203166002900480156163425780601f1061631757610100808354040283529160200191616342565b820191906000526020600020905b81548152906001019060200180831161632557829003601f168201915b50505050508152602001605660008473ffffffffffffffffffffffffffffffffffffffff1673ffffffffffffffffffffffffffffffffffffffff16815260200190815260200160002060020154815260200160115481525060156012546007811015156163ab57fe5b6004020160008201518160000190805190602001906163cb9291906186d0565b5060208201518160010190805190602001906163e89291906186d0565b50604082015181600201556060820151816003015590505060126000815480929190600101919050555050565b60006001601460a060405190810160405280605660008773ffffffffffffffffffffffffffffffffffffffff1673ffffffffffffffffffffffffffffffffffffffff1681526020019081526020016000206000018054600181600116156101000203166002900480601f0160208091040260200160405190810160405280929190818152602001828054600181600116156101000203166002900480156164fd5780601f106164d2576101008083540402835291602001916164fd565b820191906000526020600020905b8154815290600101906020018083116164e057829003601f168201915b50505050508152602001605660008773ffffffffffffffffffffffffffffffffffffffff1673ffffffffffffffffffffffffffffffffffffffff1681526020019081526020016000206001018054600181600116156101000203166002900480601f0160208091040260200160405190810160405280929190818152602001828054600181600116156101000203166002900480156165dd5780601f106165b2576101008083540402835291602001916165dd565b820191906000526020600020905b8154815290600101906020018083116165c057829003601f168201915b50505050508152602001605660008773ffffffffffffffffffffffffffffffffffffffff1673ffffffffffffffffffffffffffffffffffffffff1681526020019081526020016000206002015481526020018573ffffffffffffffffffffffffffffffffffffffff1681526020016011548152509080600181540180825580915050906001820390600052602060002090600502016000909192909190915060008201518160000190805190602001906166989291906186d0565b5060208201518160010190805190602001906166b59291906186d0565b506040820151816002015560608201518160030160006101000a81548173ffffffffffffffffffffffffffffffffffffffff021916908373ffffffffffffffffffffffffffffffffffffffff160217905550608082015181600401555050039050816054600083815260200190815260200160002060006101000a81548173ffffffffffffffffffffffffffffffffffffffff021916908373ffffffffffffffffffffffffffffffffffffffff160217905550605560008373ffffffffffffffffffffffffffffffffffffffff1673ffffffffffffffffffffffffffffffffffffffff168152602001908152602001600020600081548092919060010191905055506167c081611faf565b505050565b60008282111515156167d357fe5b818303905092915050565b82605b600086815260200190815260200160002060006101000a81548173ffffffffffffffffffffffffffffffffffffffff021916908373ffffffffffffffffffffffffffffffffffffffff16021790555081605a60008681526020019081526020016000208190555080605c60008681526020019081526020016000208190555050505050565b60008060009054906101000a900473ffffffffffffffffffffffffffffffffffffffff1673ffffffffffffffffffffffffffffffffffffffff1614806168d5575060006168d36000809054906101000a900473ffffffffffffffffffffffffffffffffffffffff16617963565b145b156168e6576168e4600061796e565b505b6000809054906101000a900473ffffffffffffffffffffffffffffffffffffffff1673ffffffffffffffffffffffffffffffffffffffff166338cc48316040518163ffffffff167c0100000000000000000000000000000000000000000000000000000000028152600401602060405180830381600087803b15801561696b57600080fd5b505af115801561697f573d6000803e3d6000fd5b505050506040513d602081101561699557600080fd5b810190808051906020019092919050505073ffffffffffffffffffffffffffffffffffffffff16600160009054906101000a900473ffffffffffffffffffffffffffffffffffffffff1673ffffffffffffffffffffffffffffffffffffffff16141515616afd576000809054906101000a900473ffffffffffffffffffffffffffffffffffffffff1673ffffffffffffffffffffffffffffffffffffffff166338cc48316040518163ffffffff167c0100000000000000000000000000000000000000000000000000000000028152600401602060405180830381600087803b158015616a8157600080fd5b505af1158015616a95573d6000803e3d6000fd5b505050506040513d6020811015616aab57600080fd5b8101908080519060200190929190505050600160006101000a81548173ffffffffffffffffffffffffffffffffffffffff021916908373ffffffffffffffffffffffffffffffffffffffff1602179055505b600160009054906101000a900473ffffffffffffffffffffffffffffffffffffffff1673ffffffffffffffffffffffffffffffffffffffff1663ca6ad1e4826040518263ffffffff167c010000000000000000000000000000000000000000000000000000000002815260040180828152602001915050600060405180830381600087803b158015616b8e57600080fd5b505af1158015616ba2573d6000803e3d6000fd5b5050505050565b60008060008060009054906101000a900473ffffffffffffffffffffffffffffffffffffffff1673ffffffffffffffffffffffffffffffffffffffff161480616c1b57506000616c196000809054906101000a900473ffffffffffffffffffffffffffffffffffffffff16617963565b145b15616c2c57616c2a600061796e565b505b6000809054906101000a900473ffffffffffffffffffffffffffffffffffffffff1673ffffffffffffffffffffffffffffffffffffffff166338cc48316040518163ffffffff167c0100000000000000000000000000000000000000000000000000000000028152600401602060405180830381600087803b158015616cb157600080fd5b505af1158015616cc5573d6000803e3d6000fd5b505050506040513d6020811015616cdb57600080fd5b810190808051906020019092919050505073ffffffffffffffffffffffffffffffffffffffff16600160009054906101000a900473ffffffffffffffffffffffffffffffffffffffff1673ffffffffffffffffffffffffffffffffffffffff16141515616e43576000809054906101000a900473ffffffffffffffffffffffffffffffffffffffff1673ffffffffffffffffffffffffffffffffffffffff166338cc48316040518163ffffffff167c0100000000000000000000000000000000000000000000000000000000028152600401602060405180830381600087803b158015616dc757600080fd5b505af1158015616ddb573d6000803e3d6000fd5b505050506040513d6020811015616df157600080fd5b8101908080519060200190929190505050600160006101000a81548173ffffffffffffffffffffffffffffffffffffffff021916908373ffffffffffffffffffffffffffffffffffffffff1602179055505b600160009054906101000a900473ffffffffffffffffffffffffffffffffffffffff1673ffffffffffffffffffffffffffffffffffffffff16632ef3accc86856040518363ffffffff167c01000000000000000000000000000000000000000000000000000000000281526004018080602001838152602001828103825284818151815260200191508051906020019080838360005b83811015616ef4578082015181840152602081019050616ed9565b50505050905090810190601f168015616f215780820380516001836020036101000a031916815260200191505b509350505050602060405180830381600087803b158015616f4157600080fd5b505af1158015616f55573d6000803e3d6000fd5b505050506040513d6020811015616f6b57600080fd5b81019080805190602001909291905050509050823a02670de0b6b3a764000001811115616f9e5760006001029150617151565b600160009054906101000a900473ffffffffffffffffffffffffffffffffffffffff1673ffffffffffffffffffffffffffffffffffffffff1663c51be90f8260008888886040518663ffffffff167c0100000000000000000000000000000000000000000000000000000000028152600401808581526020018060200180602001848152602001838103835286818151815260200191508051906020019080838360005b8381101561705d578082015181840152602081019050617042565b50505050905090810190601f16801561708a5780820380516001836020036101000a031916815260200191505b50838103825285818151815260200191508051906020019080838360005b838110156170c35780820151818401526020810190506170a8565b50505050905090810190601f1680156170f05780820380516001836020036101000a031916815260200191505b5096505050505050506020604051808303818588803b15801561711257600080fd5b505af1158015617126573d6000803e3d6000fd5b50505050506040513d602081101561713d57600080fd5b810190808051906020019092919050505091505b509392505050565b606080606061737e6040805190810160405280600b81526020017f6d6f642828312f2831305e00000000000000000000000000000000000000000081525060078054600181600116156101000203166002900480601f01602080910402602001604051908101604052809291908181526020018280546001816001161561010002031660029004801561722d5780601f106172025761010080835404028352916020019161722d565b820191906000526020600020905b81548152906001019060200180831161721057829003601f168201915b50505050506040805190810160405280600181526020017f2d00000000000000000000000000000000000000000000000000000000000000815250605660008973ffffffffffffffffffffffffffffffffffffffff1673ffffffffffffffffffffffffffffffffffffffff1681526020019081526020016000206000018054600181600116156101000203166002900480601f01602080910402602001604051908101604052809291908181526020018280546001816001161561010002031660029004801561733e5780601f106173135761010080835404028352916020019161733e565b820191906000526020600020905b81548152906001019060200180831161732157829003601f168201915b50505050506040805190810160405280601081526020017f29292a31305e31303030302c31305e2800000000000000000000000000000000815250617c73565b915061756b8260098054600181600116156101000203166002900480601f01602080910402602001604051908101604052809291908181526020018280546001816001161561010002031660029004801561741a5780601f106173ef5761010080835404028352916020019161741a565b820191906000526020600020905b8154815290600101906020018083116173fd57829003601f168201915b50505050506040805190810160405280600181526020017f2b00000000000000000000000000000000000000000000000000000000000000815250605660008973ffffffffffffffffffffffffffffffffffffffff1673ffffffffffffffffffffffffffffffffffffffff1681526020019081526020016000206001018054600181600116156101000203166002900480601f01602080910402602001604051908101604052809291908181526020018280546001816001161561010002031660029004801561752b5780601f106175005761010080835404028352916020019161752b565b820191906000526020600020905b81548152906001019060200180831161750e57829003601f168201915b50505050506040805190810160405280600281526020017f2929000000000000000000000000000000000000000000000000000000000000815250617c73565b90506176be816040805190810160405280600181526020017f2d0000000000000000000000000000000000000000000000000000000000000081525084605660008973ffffffffffffffffffffffffffffffffffffffff1673ffffffffffffffffffffffffffffffffffffffff1681526020019081526020016000206001018054600181600116156101000203166002900480601f01602080910402602001604051908101604052809291908181526020018280546001816001161561010002031660029004801561767e5780601f106176535761010080835404028352916020019161767e565b820191906000526020600020905b81548152906001019060200180831161766157829003601f168201915b50505050506040805190810160405280600281526020017f2929000000000000000000000000000000000000000000000000000000000000815250617c73565b90506178106040805190810160405280600181526020017f2800000000000000000000000000000000000000000000000000000000000000815250826040805190810160405280600581526020017f292f31305e000000000000000000000000000000000000000000000000000000815250605660008973ffffffffffffffffffffffffffffffffffffffff1673ffffffffffffffffffffffffffffffffffffffff1681526020019081526020016000206001018054600181600116156101000203166002900480601f0160208091040260200160405190810160405280929190818152602001828054600181600116156101000203166002900480156178065780601f106177db57610100808354040283529160200191617806565b820191906000526020600020905b8154815290600101906020018083116177e957829003601f168201915b5050505050618088565b92505050919050565b600073ffffffffffffffffffffffffffffffffffffffff168173ffffffffffffffffffffffffffffffffffffffff161415151561785557600080fd5b8073ffffffffffffffffffffffffffffffffffffffff16600560009054906101000a900473ffffffffffffffffffffffffffffffffffffffff1673ffffffffffffffffffffffffffffffffffffffff167f8be0079c531659141344cd1fd0a4f28419497f9722a3daafe3b4186f6b6457e060405160405180910390a380600560006101000a81548173ffffffffffffffffffffffffffffffffffffffff021916908373ffffffffffffffffffffffffffffffffffffffff16021790555050565b6000808314156179285760009050617947565b818302905081838281151561793957fe5b0414151561794357fe5b8090505b92915050565b6000818381151561795a57fe5b04905092915050565b6000813b9050919050565b60006179786180b1565b9050919050565b6000606060008060008693506000925060009150600090505b8351811015617c545760307f01000000000000000000000000000000000000000000000000000000000000000284828151811015156179d357fe5b9060200101517f010000000000000000000000000000000000000000000000000000000000000090047f0100000000000000000000000000000000000000000000000000000000000000027effffffffffffffffffffffffffffffffffffffffffffffffffffffffffffff191610158015617aeb575060397f0100000000000000000000000000000000000000000000000000000000000000028482815181101515617a7b57fe5b9060200101517f010000000000000000000000000000000000000000000000000000000000000090047f0100000000000000000000000000000000000000000000000000000000000000027effffffffffffffffffffffffffffffffffffffffffffffffffffffffffffff191611155b15617b9c578115617b0e576000861415617b0457617c54565b8580600190039650505b600a8302925060308482815181101515617b2457fe5b9060200101517f010000000000000000000000000000000000000000000000000000000000000090047f0100000000000000000000000000000000000000000000000000000000000000027f010000000000000000000000000000000000000000000000000000000000000090040383019250617c47565b602e7f0100000000000000000000000000000000000000000000000000000000000000028482815181101515617bce57fe5b9060200101517f010000000000000000000000000000000000000000000000000000000000000090047f0100000000000000000000000000000000000000000000000000000000000000027effffffffffffffffffffffffffffffffffffffffffffffffffffffffffffff19161415617c4657600191505b5b8080600101915050617998565b6000861115617c665785600a0a830292505b8294505050505092915050565b6060806060806060806060806000808e98508d97508c96508b95508a94508451865188518a518c51010101016040519080825280601f01601f191660200182016040528015617cd15781602001602082028038833980820191505090505b50935083925060009150600090505b8851811015617d93578881815181101515617cf757fe5b9060200101517f010000000000000000000000000000000000000000000000000000000000000090047f0100000000000000000000000000000000000000000000000000000000000000028383806001019450815181101515617d5657fe5b9060200101907effffffffffffffffffffffffffffffffffffffffffffffffffffffffffffff1916908160001a9053508080600101915050617ce0565b600090505b8751811015617e4b578781815181101515617daf57fe5b9060200101517f010000000000000000000000000000000000000000000000000000000000000090047f0100000000000000000000000000000000000000000000000000000000000000028383806001019450815181101515617e0e57fe5b9060200101907effffffffffffffffffffffffffffffffffffffffffffffffffffffffffffff1916908160001a9053508080600101915050617d98565b600090505b8651811015617f03578681815181101515617e6757fe5b9060200101517f010000000000000000000000000000000000000000000000000000000000000090047f0100000000000000000000000000000000000000000000000000000000000000028383806001019450815181101515617ec657fe5b9060200101907effffffffffffffffffffffffffffffffffffffffffffffffffffffffffffff1916908160001a9053508080600101915050617e50565b600090505b8551811015617fbb578581815181101515617f1f57fe5b9060200101517f010000000000000000000000000000000000000000000000000000000000000090047f0100000000000000000000000000000000000000000000000000000000000000028383806001019450815181101515617f7e57fe5b9060200101907effffffffffffffffffffffffffffffffffffffffffffffffffffffffffffff1916908160001a9053508080600101915050617f08565b600090505b8451811015618073578481815181101515617fd757fe5b9060200101517f010000000000000000000000000000000000000000000000000000000000000090047f010000000000000000000000000000000000000000000000000000000000000002838380600101945081518110151561803657fe5b9060200101907effffffffffffffffffffffffffffffffffffffffffffffffffffffffffffff1916908160001a9053508080600101915050617fc0565b82995050505050505050505095945050505050565b60606180a7858585856020604051908101604052806000815250617c73565b9050949350505050565b6000806180d1731d3b2638a7cc9f2cb3d298a3da7a90b67e5506ed617963565b111561817257731d3b2638a7cc9f2cb3d298a3da7a90b67e5506ed6000806101000a81548173ffffffffffffffffffffffffffffffffffffffff021916908373ffffffffffffffffffffffffffffffffffffffff1602179055506181696040805190810160405280600b81526020017f6574685f6d61696e6e6574000000000000000000000000000000000000000000815250618540565b6001905061853d565b600061819173c03a2615d5efaf5f49f60b7bb6583eaec212fdf1617963565b11156182325773c03a2615d5efaf5f49f60b7bb6583eaec212fdf16000806101000a81548173ffffffffffffffffffffffffffffffffffffffff021916908373ffffffffffffffffffffffffffffffffffffffff1602179055506182296040805190810160405280600c81526020017f6574685f726f707374656e330000000000000000000000000000000000000000815250618540565b6001905061853d565b600061825173b7a07bcf2ba2f2703b24c0691b5278999c59ac7e617963565b11156182f25773b7a07bcf2ba2f2703b24c0691b5278999c59ac7e6000806101000a81548173ffffffffffffffffffffffffffffffffffffffff021916908373ffffffffffffffffffffffffffffffffffffffff1602179055506182e96040805190810160405280600981526020017f6574685f6b6f76616e0000000000000000000000000000000000000000000000815250618540565b6001905061853d565b600061831173146500cfd35b22e4a392fe0adc06de1a1368ed48617963565b11156183b25773146500cfd35b22e4a392fe0adc06de1a1368ed486000806101000a81548173ffffffffffffffffffffffffffffffffffffffff021916908373ffffffffffffffffffffffffffffffffffffffff1602179055506183a96040805190810160405280600b81526020017f6574685f72696e6b656279000000000000000000000000000000000000000000815250618540565b6001905061853d565b60006183d1736f485c8bf6fc43ea212e93bbf8ce046c7f1cb475617963565b111561843457736f485c8bf6fc43ea212e93bbf8ce046c7f1cb4756000806101000a81548173ffffffffffffffffffffffffffffffffffffffff021916908373ffffffffffffffffffffffffffffffffffffffff1602179055506001905061853d565b60006184537320e12a1f859b3feae5fb2a0a32c18f5a65555bbf617963565b11156184b6577320e12a1f859b3feae5fb2a0a32c18f5a65555bbf6000806101000a81548173ffffffffffffffffffffffffffffffffffffffff021916908373ffffffffffffffffffffffffffffffffffffffff1602179055506001905061853d565b60006184d57351efaf4c8b3c9afbd5ab9f4bbc82784ab6ef8faa617963565b1115618538577351efaf4c8b3c9afbd5ab9f4bbc82784ab6ef8faa6000806101000a81548173ffffffffffffffffffffffffffffffffffffffff021916908373ffffffffffffffffffffffffffffffffffffffff1602179055506001905061853d565b600090505b90565b806002908051906020019061855692919061855a565b5050565b828054600181600116156101000203166002900490600052602060002090601f016020900481019282601f1061859b57805160ff19168380011785556185c9565b828001600101855582156185c9579182015b828111156185c85782518255916020019190600101906185ad565b5b5090506185d69190618750565b5090565b60a06040519081016040528060008152602001600073ffffffffffffffffffffffffffffffffffffffff1681526020016000815260200160008152602001600081525090565b608060405190810160405280606081526020016060815260200160008152602001600081525090565b828054600181600116156101000203166002900490600052602060002090601f016020900481019282601f1061868257805485556186bf565b828001600101855582156186bf57600052602060002091601f016020900482015b828111156186be5782548255916001019190600101906186a3565b5b5090506186cc9190618750565b5090565b828054600181600116156101000203166002900490600052602060002090601f016020900481019282601f1061871157805160ff191683800117855561873f565b8280016001018555821561873f579182015b8281111561873e578251825591602001919060010190618723565b5b50905061874c9190618750565b5090565b61877291905b8082111561876e576000816000905550600101618756565b5090565b905600a165627a7a723058202fe20c73abb4009daf863c11d733d0ca775a9acede5e2a16211f69f388d449780029",
  "source": "pragma solidity ^0.4.20;\n\nimport \"./Lucky7TicketFactory.sol\";\n\ncontract Lucky7Ballot is Lucky7TicketFactory{\n    \n    //0xca35b7d915458ef540ade6068dfe2f44e8fa733c\n    //0x14723a09acff6d2a60dcdf7aa4aff308fddc160c\n    //0x4b0897b0513fdc7c541b6d9d7e929c4e5364d2db\n    //0x583031d1113ad414f02576bd6afabfb302140225\n    //0xdd870fa1b7c4700f2bd7f44238821c26f7392148\n    //0x265a5c3dd46ec82e2744f1d0e9fb4ed75d56132a\n    \n    function test ()public payable{\n        lucky7Numbers[0] = Lucky7Number(\"1\",\"2\",106,0);\n        lucky7Numbers[1] = Lucky7Number(\"1\",\"2\",433,0);\n        lucky7Numbers[2] = Lucky7Number(\"1\",\"2\",455,0);\n        lucky7Numbers[3] = Lucky7Number(\"1\",\"2\",331,0);\n        lucky7Numbers[4] = Lucky7Number(\"1\",\"2\",304,0);\n        lucky7Numbers[5] = Lucky7Number(\"1\",\"2\",242,0);\n        lucky7Numbers[6] = Lucky7Number(\"1\",\"2\",751,0);\n        _orderLucky7Numbers();\n        \n        address _ticketOwner = address(0x14723a09acff6d2a60dcdf7aa4aff308fddc160c);\n        uint id = tickets.push(Ticket(\"1\",\"2\",107,_ticketOwner,0)) - 1;\n        ticketToOwner[id] = _ticketOwner;\n        ownerTicketCount[_ticketOwner]++;\n        \n        _ticketOwner = address(0x4b0897b0513fdc7c541b6d9d7e929c4e5364d2db);\n        id = tickets.push(Ticket(\"1\",\"2\",431,_ticketOwner,0)) - 1;\n        ticketToOwner[id] = _ticketOwner;\n        ownerTicketCount[_ticketOwner]++;\n        \n        _ticketOwner = address(0x4b0897b0513fdc7c541b6d9d7e929c4e5364d2db);\n        id = tickets.push(Ticket(\"1\",\"2\",458,_ticketOwner,0)) - 1;\n        ticketToOwner[id] = _ticketOwner;\n        ownerTicketCount[_ticketOwner]++;\n        \n        _ticketOwner = address(0x4b0897b0513fdc7c541b6d9d7e929c4e5364d2db);\n        id = tickets.push(Ticket(\"1\",\"2\",327,_ticketOwner,0)) - 1;\n        ticketToOwner[id] = _ticketOwner;\n        ownerTicketCount[_ticketOwner]++;\n        \n        _ticketOwner = address(0x4b0897b0513fdc7c541b6d9d7e929c4e5364d2db);\n        id = tickets.push(Ticket(\"1\",\"2\",309,_ticketOwner,0)) - 1;\n        ticketToOwner[id] = _ticketOwner;\n        ownerTicketCount[_ticketOwner]++;\n        \n        _ticketOwner = address(0xca35b7d915458ef540ade6068dfe2f44e8fa733c);\n        id = tickets.push(Ticket(\"1\",\"2\",248,_ticketOwner,0)) - 1;\n        ticketToOwner[id] = _ticketOwner;\n        ownerTicketCount[_ticketOwner]++;\n        \n        _ticketOwner = address(0x583031d1113ad414f02576bd6afabfb302140225);\n        id = tickets.push(Ticket(\"1\",\"2\",760,_ticketOwner,0)) - 1;\n        ticketToOwner[id] = _ticketOwner;\n        ownerTicketCount[_ticketOwner]++;\n        \n        _ticketOwner = address(0x265a5c3dd46ec82e2744f1d0e9fb4ed75d56132a);\n        id = tickets.push(Ticket(\"1\",\"2\",305,_ticketOwner,0)) - 1;\n        ticketToOwner[id] = _ticketOwner;\n        ownerTicketCount[_ticketOwner]++;\n        \n        for (uint k=0 ; k<id; k++){\n            _checkForLucky7Ticket(k);\n        }    \n    }\n    \n    function _startLucky7NumbersGeneration() public payable onlyOwner{\n        indexForLucky7Array = 0;\n        _generateLucky7Number();\n    }\n    \n    function _generateLucky7Number() public payable onlyOwner{\n        if(indexForLucky7Array == numberOfLucky7Numbers){\n            _orderLucky7Numbers();\n            toggleLucky7Setting();\n        }\n        else{\n            userValues[this].muReady = false;\n            userValues[this].iReady = false;\n            _askForParameters(this);\n        }\n    }\n    \n    function _orderLucky7Numbers() public onlyOwner{\n        Lucky7Number memory smallest;\n        uint aux = 0;\n        uint j;\n        uint i;\n        for(i=0; i<numberOfLucky7Numbers; i++){\n            aux = i;\n            smallest = lucky7Numbers[i];\n            for (j=i+1; j<numberOfLucky7Numbers; j++){\n                if(smallest.ticketValue>lucky7Numbers[j].ticketValue){\n                    smallest = lucky7Numbers[j];\n                    aux = j;\n                }\n            }\n            if(aux!=i){\n                lucky7Numbers[aux]=lucky7Numbers[i];\n                lucky7Numbers[i] = smallest;\n            }\n        }\n    }\n    \n    function _orderLucky7Tickets() public onlyOwner{\n        Lucky7Ticket memory smallest;\n        uint aux = 0;\n        uint j;\n        for (uint i = 0; i < numberOfLucky7Numbers; i++) {\n            lucky7Tickets[i].difference=lucky7TicketDifference[i];\n            lucky7Tickets[i].owner=lucky7TicketOwner[i];\n            lucky7Tickets[i].ticketID=lucky7TicketID[i];\n        }\n        for(i=0; i<numberOfLucky7Numbers; i++){\n            aux = i;\n            smallest = lucky7Tickets[i];\n            for (j=i+1; j<numberOfLucky7Numbers; j++){\n                if(smallest.difference>lucky7Tickets[j].difference){\n                    smallest = lucky7Tickets[j];\n                    aux = j;\n                }\n            }\n            if(aux!=i){\n                lucky7Tickets[aux]=lucky7Tickets[i];\n                lucky7Tickets[i] = smallest;\n            }\n        }\n    }\n    \n    function _deliverPrizes() public onlyOwner{\n        uint winnersPrize = address(this).balance.mul(7);\n        winnersPrize = winnersPrize.div(10);\n        uint firstPrize = winnersPrize.mul(6);\n        uint secondPrize = winnersPrize.mul(3);\n        uint thirdPrize = winnersPrize.mul(1);\n        firstPrize = firstPrize.div(10);\n        secondPrize = secondPrize.div(10);\n        thirdPrize = thirdPrize.div(10);\n        _orderLucky7Tickets();\n        lucky7Tickets[0].owner.transfer(firstPrize);\n        lucky7Tickets[1].owner.transfer(secondPrize);\n        lucky7Tickets[2].owner.transfer(thirdPrize);\n        enterpriseWallet.transfer(this.balance);\n        \n    }\n}",
  "sourcePath": "/Users/matiasbarrios/Desktop/Proyecto Consensys/luckyseven/contracts/Lucky7Ballot.sol",
  "compiler": {
    "name": "solc",
    "version": "0.4.24+commit.e67f0147.Emscripten.clang"
  },
  "schemaVersion": "2.0.1",
  "updatedAt": "2018-08-13T15:32:01.709Z"
}