{
  "contractName": "Lucky7TicketFactory",
  "abi": [
    {
      "constant": false,
      "inputs": [
        {
          "name": "_newValue",
          "type": "string"
        }
      ],
      "name": "modifyParameterN",
      "outputs": [],
      "payable": false,
      "stateMutability": "nonpayable",
      "type": "function"
    },
    {
      "constant": true,
      "inputs": [
        {
          "name": "",
          "type": "uint256"
        }
      ],
      "name": "lucky7TicketID",
      "outputs": [
        {
          "name": "",
          "type": "uint256"
        }
      ],
      "payable": false,
      "stateMutability": "view",
      "type": "function"
    },
    {
      "constant": true,
      "inputs": [
        {
          "name": "",
          "type": "uint256"
        }
      ],
      "name": "lucky7TicketOwner",
      "outputs": [
        {
          "name": "",
          "type": "address"
        }
      ],
      "payable": false,
      "stateMutability": "view",
      "type": "function"
    },
    {
      "constant": true,
      "inputs": [],
      "name": "settingLucky7Numbers",
      "outputs": [
        {
          "name": "",
          "type": "bool"
        }
      ],
      "payable": false,
      "stateMutability": "view",
      "type": "function"
    },
    {
      "constant": true,
      "inputs": [],
      "name": "n",
      "outputs": [
        {
          "name": "",
          "type": "string"
        }
      ],
      "payable": false,
      "stateMutability": "view",
      "type": "function"
    },
    {
      "constant": false,
      "inputs": [
        {
          "name": "_newValue",
          "type": "string"
        }
      ],
      "name": "modifyParameterJ",
      "outputs": [],
      "payable": false,
      "stateMutability": "nonpayable",
      "type": "function"
    },
    {
      "constant": false,
      "inputs": [
        {
          "name": "_newAddress",
          "type": "address"
        }
      ],
      "name": "modifyEnterpriseWallet",
      "outputs": [],
      "payable": false,
      "stateMutability": "nonpayable",
      "type": "function"
    },
    {
      "constant": true,
      "inputs": [
        {
          "name": "",
          "type": "address"
        }
      ],
      "name": "userValues",
      "outputs": [
        {
          "name": "mu",
          "type": "string"
        },
        {
          "name": "i",
          "type": "string"
        },
        {
          "name": "ticketValue",
          "type": "uint256"
        },
        {
          "name": "muReady",
          "type": "bool"
        },
        {
          "name": "iReady",
          "type": "bool"
        },
        {
          "name": "userPaidTicket",
          "type": "bool"
        }
      ],
      "payable": false,
      "stateMutability": "view",
      "type": "function"
    },
    {
      "constant": true,
      "inputs": [],
      "name": "b",
      "outputs": [
        {
          "name": "",
          "type": "string"
        }
      ],
      "payable": false,
      "stateMutability": "view",
      "type": "function"
    },
    {
      "constant": true,
      "inputs": [],
      "name": "oraclizeGasLimit",
      "outputs": [
        {
          "name": "",
          "type": "uint256"
        }
      ],
      "payable": false,
      "stateMutability": "view",
      "type": "function"
    },
    {
      "constant": true,
      "inputs": [],
      "name": "numberOfLucky7Numbers",
      "outputs": [
        {
          "name": "",
          "type": "uint256"
        }
      ],
      "payable": false,
      "stateMutability": "view",
      "type": "function"
    },
    {
      "constant": false,
      "inputs": [],
      "name": "renounceOwnership",
      "outputs": [],
      "payable": false,
      "stateMutability": "nonpayable",
      "type": "function"
    },
    {
      "constant": true,
      "inputs": [],
      "name": "enterpriseWallet",
      "outputs": [
        {
          "name": "",
          "type": "address"
        }
      ],
      "payable": false,
      "stateMutability": "view",
      "type": "function"
    },
    {
      "constant": false,
      "inputs": [
        {
          "name": "_newValue",
          "type": "uint256"
        }
      ],
      "name": "modifyOraclizeGasLimit",
      "outputs": [],
      "payable": false,
      "stateMutability": "nonpayable",
      "type": "function"
    },
    {
      "constant": false,
      "inputs": [
        {
          "name": "_newValue",
          "type": "string"
        }
      ],
      "name": "modifyParameterB",
      "outputs": [],
      "payable": false,
      "stateMutability": "nonpayable",
      "type": "function"
    },
    {
      "constant": true,
      "inputs": [
        {
          "name": "",
          "type": "uint256"
        }
      ],
      "name": "ExactLucky7TicketValue",
      "outputs": [
        {
          "name": "",
          "type": "uint256"
        }
      ],
      "payable": false,
      "stateMutability": "view",
      "type": "function"
    },
    {
      "constant": false,
      "inputs": [
        {
          "name": "_newValue",
          "type": "uint256"
        }
      ],
      "name": "modifyGenerateTicketPrice",
      "outputs": [],
      "payable": false,
      "stateMutability": "nonpayable",
      "type": "function"
    },
    {
      "constant": true,
      "inputs": [
        {
          "name": "",
          "type": "uint256"
        }
      ],
      "name": "ExactLucky7TicketID",
      "outputs": [
        {
          "name": "",
          "type": "uint256"
        }
      ],
      "payable": false,
      "stateMutability": "view",
      "type": "function"
    },
    {
      "constant": true,
      "inputs": [],
      "name": "owner",
      "outputs": [
        {
          "name": "",
          "type": "address"
        }
      ],
      "payable": false,
      "stateMutability": "view",
      "type": "function"
    },
    {
      "constant": true,
      "inputs": [
        {
          "name": "",
          "type": "uint256"
        }
      ],
      "name": "lucky7NumbersArray",
      "outputs": [
        {
          "name": "mu",
          "type": "string"
        },
        {
          "name": "i",
          "type": "string"
        },
        {
          "name": "ticketValue",
          "type": "uint256"
        },
        {
          "name": "drawID",
          "type": "uint256"
        }
      ],
      "payable": false,
      "stateMutability": "view",
      "type": "function"
    },
    {
      "constant": true,
      "inputs": [],
      "name": "oraclizeCustomGasPrice",
      "outputs": [
        {
          "name": "",
          "type": "uint256"
        }
      ],
      "payable": false,
      "stateMutability": "view",
      "type": "function"
    },
    {
      "constant": true,
      "inputs": [],
      "name": "p",
      "outputs": [
        {
          "name": "",
          "type": "string"
        }
      ],
      "payable": false,
      "stateMutability": "view",
      "type": "function"
    },
    {
      "constant": false,
      "inputs": [
        {
          "name": "_newValue",
          "type": "string"
        }
      ],
      "name": "modifyParameterP",
      "outputs": [],
      "payable": false,
      "stateMutability": "nonpayable",
      "type": "function"
    },
    {
      "constant": true,
      "inputs": [
        {
          "name": "",
          "type": "uint256"
        }
      ],
      "name": "ticketsArray",
      "outputs": [
        {
          "name": "mu",
          "type": "string"
        },
        {
          "name": "i",
          "type": "string"
        },
        {
          "name": "ticketValue",
          "type": "uint256"
        },
        {
          "name": "owner",
          "type": "address"
        },
        {
          "name": "drawID",
          "type": "uint256"
        }
      ],
      "payable": false,
      "stateMutability": "view",
      "type": "function"
    },
    {
      "constant": true,
      "inputs": [],
      "name": "j",
      "outputs": [
        {
          "name": "",
          "type": "string"
        }
      ],
      "payable": false,
      "stateMutability": "view",
      "type": "function"
    },
    {
      "constant": true,
      "inputs": [],
      "name": "balance",
      "outputs": [
        {
          "name": "",
          "type": "uint256"
        }
      ],
      "payable": false,
      "stateMutability": "view",
      "type": "function"
    },
    {
      "constant": false,
      "inputs": [
        {
          "name": "_newValue",
          "type": "uint256"
        }
      ],
      "name": "modifySellTicketPrice",
      "outputs": [],
      "payable": false,
      "stateMutability": "nonpayable",
      "type": "function"
    },
    {
      "constant": true,
      "inputs": [],
      "name": "indexForLucky7Array",
      "outputs": [
        {
          "name": "",
          "type": "uint256"
        }
      ],
      "payable": false,
      "stateMutability": "view",
      "type": "function"
    },
    {
      "constant": true,
      "inputs": [
        {
          "name": "",
          "type": "uint256"
        }
      ],
      "name": "lucky7TicketsArray",
      "outputs": [
        {
          "name": "difference",
          "type": "uint256"
        },
        {
          "name": "owner",
          "type": "address"
        },
        {
          "name": "ticketID",
          "type": "uint256"
        },
        {
          "name": "ticketValue",
          "type": "uint256"
        },
        {
          "name": "lucky7Number",
          "type": "uint256"
        },
        {
          "name": "lucky7NumberID",
          "type": "uint256"
        },
        {
          "name": "drawID",
          "type": "uint256"
        }
      ],
      "payable": false,
      "stateMutability": "view",
      "type": "function"
    },
    {
      "constant": false,
      "inputs": [
        {
          "name": "_newValue",
          "type": "uint256"
        }
      ],
      "name": "modifyNumberOfLucky7Numbers",
      "outputs": [],
      "payable": false,
      "stateMutability": "nonpayable",
      "type": "function"
    },
    {
      "constant": false,
      "inputs": [
        {
          "name": "_newValue",
          "type": "uint256"
        }
      ],
      "name": "modifyOraclizeCustomGasPrice",
      "outputs": [],
      "payable": false,
      "stateMutability": "nonpayable",
      "type": "function"
    },
    {
      "constant": true,
      "inputs": [],
      "name": "generateTicketPrice",
      "outputs": [
        {
          "name": "",
          "type": "uint256"
        }
      ],
      "payable": false,
      "stateMutability": "view",
      "type": "function"
    },
    {
      "constant": true,
      "inputs": [],
      "name": "drawNumber",
      "outputs": [
        {
          "name": "",
          "type": "uint256"
        }
      ],
      "payable": false,
      "stateMutability": "view",
      "type": "function"
    },
    {
      "constant": true,
      "inputs": [],
      "name": "indexForExactLucky7Ticket",
      "outputs": [
        {
          "name": "",
          "type": "uint256"
        }
      ],
      "payable": false,
      "stateMutability": "view",
      "type": "function"
    },
    {
      "constant": true,
      "inputs": [],
      "name": "sellTicketPrice",
      "outputs": [
        {
          "name": "",
          "type": "uint256"
        }
      ],
      "payable": false,
      "stateMutability": "view",
      "type": "function"
    },
    {
      "constant": true,
      "inputs": [
        {
          "name": "",
          "type": "uint256"
        }
      ],
      "name": "lucky7TicketDifference",
      "outputs": [
        {
          "name": "",
          "type": "uint256"
        }
      ],
      "payable": false,
      "stateMutability": "view",
      "type": "function"
    },
    {
      "constant": true,
      "inputs": [
        {
          "name": "",
          "type": "uint256"
        }
      ],
      "name": "ExactLucky7TicketOwner",
      "outputs": [
        {
          "name": "",
          "type": "address"
        }
      ],
      "payable": false,
      "stateMutability": "view",
      "type": "function"
    },
    {
      "constant": false,
      "inputs": [
        {
          "name": "_newOwner",
          "type": "address"
        }
      ],
      "name": "transferOwnership",
      "outputs": [],
      "payable": false,
      "stateMutability": "nonpayable",
      "type": "function"
    },
    {
      "inputs": [],
      "payable": true,
      "stateMutability": "payable",
      "type": "constructor"
    },
    {
      "payable": true,
      "stateMutability": "payable",
      "type": "fallback"
    },
    {
      "anonymous": false,
      "inputs": [
        {
          "indexed": false,
          "name": "description",
          "type": "string"
        }
      ],
      "name": "NewOraclizeQuery",
      "type": "event"
    },
    {
      "anonymous": false,
      "inputs": [
        {
          "indexed": false,
          "name": "muParameter",
          "type": "string"
        }
      ],
      "name": "NewMuReceived",
      "type": "event"
    },
    {
      "anonymous": false,
      "inputs": [
        {
          "indexed": false,
          "name": "iParameter",
          "type": "string"
        }
      ],
      "name": "NewIReceived",
      "type": "event"
    },
    {
      "anonymous": false,
      "inputs": [
        {
          "indexed": false,
          "name": "newTicket",
          "type": "string"
        }
      ],
      "name": "NewTicketReceived",
      "type": "event"
    },
    {
      "anonymous": false,
      "inputs": [
        {
          "indexed": false,
          "name": "description",
          "type": "string"
        }
      ],
      "name": "NewWolframQuery",
      "type": "event"
    },
    {
      "anonymous": false,
      "inputs": [
        {
          "indexed": false,
          "name": "ticketID",
          "type": "uint256"
        }
      ],
      "name": "NewLucky7Ticket",
      "type": "event"
    },
    {
      "anonymous": false,
      "inputs": [
        {
          "indexed": false,
          "name": "value",
          "type": "uint256"
        }
      ],
      "name": "NewLucky7Number",
      "type": "event"
    },
    {
      "anonymous": false,
      "inputs": [
        {
          "indexed": false,
          "name": "describe",
          "type": "string"
        },
        {
          "indexed": false,
          "name": "_oldValue",
          "type": "uint256"
        },
        {
          "indexed": false,
          "name": "_newValue",
          "type": "uint256"
        }
      ],
      "name": "numberModified",
      "type": "event"
    },
    {
      "anonymous": false,
      "inputs": [
        {
          "indexed": false,
          "name": "describe",
          "type": "string"
        },
        {
          "indexed": false,
          "name": "_oldValue",
          "type": "string"
        },
        {
          "indexed": false,
          "name": "_newValue",
          "type": "string"
        }
      ],
      "name": "parameterModified",
      "type": "event"
    },
    {
      "anonymous": false,
      "inputs": [
        {
          "indexed": false,
          "name": "describe",
          "type": "string"
        },
        {
          "indexed": false,
          "name": "_oldValue",
          "type": "address"
        },
        {
          "indexed": false,
          "name": "_newValue",
          "type": "address"
        }
      ],
      "name": "walletModified",
      "type": "event"
    },
    {
      "anonymous": false,
      "inputs": [
        {
          "indexed": true,
          "name": "previousOwner",
          "type": "address"
        }
      ],
      "name": "OwnershipRenounced",
      "type": "event"
    },
    {
      "anonymous": false,
      "inputs": [
        {
          "indexed": true,
          "name": "previousOwner",
          "type": "address"
        },
        {
          "indexed": true,
          "name": "newOwner",
          "type": "address"
        }
      ],
      "name": "OwnershipTransferred",
      "type": "event"
    },
    {
      "constant": false,
      "inputs": [],
      "name": "toggleLucky7Setting",
      "outputs": [],
      "payable": false,
      "stateMutability": "nonpayable",
      "type": "function"
    },
    {
      "constant": false,
      "inputs": [
        {
          "name": "_ticketOwner",
          "type": "address"
        }
      ],
      "name": "_askForMuParameter",
      "outputs": [],
      "payable": false,
      "stateMutability": "nonpayable",
      "type": "function"
    },
    {
      "constant": false,
      "inputs": [
        {
          "name": "_ticketOwner",
          "type": "address"
        }
      ],
      "name": "_askForIParameter",
      "outputs": [],
      "payable": false,
      "stateMutability": "nonpayable",
      "type": "function"
    },
    {
      "constant": false,
      "inputs": [
        {
          "name": "_ticketOwner",
          "type": "address"
        }
      ],
      "name": "_askForTicket",
      "outputs": [],
      "payable": false,
      "stateMutability": "nonpayable",
      "type": "function"
    },
    {
      "constant": false,
      "inputs": [
        {
          "name": "_ticketOwner",
          "type": "address"
        }
      ],
      "name": "_generateTicket",
      "outputs": [],
      "payable": false,
      "stateMutability": "nonpayable",
      "type": "function"
    },
    {
      "constant": false,
      "inputs": [
        {
          "name": "_ticketID",
          "type": "uint256"
        }
      ],
      "name": "_checkForLucky7Ticket",
      "outputs": [],
      "payable": false,
      "stateMutability": "nonpayable",
      "type": "function"
    },
    {
      "constant": false,
      "inputs": [
        {
          "name": "myid",
          "type": "bytes32"
        },
        {
          "name": "result",
          "type": "string"
        }
      ],
      "name": "__callback",
      "outputs": [],
      "payable": false,
      "stateMutability": "nonpayable",
      "type": "function"
    },
    {
      "constant": false,
      "inputs": [
        {
          "name": "myid",
          "type": "bytes32"
        },
        {
          "name": "result",
          "type": "string"
        },
        {
          "name": "proof",
          "type": "bytes"
        }
      ],
      "name": "__callback",
      "outputs": [],
      "payable": false,
      "stateMutability": "nonpayable",
      "type": "function"
    }
  ],
  "bytecode": "0x60c0604052600160808190527f310000000000000000000000000000000000000000000000000000000000000060a09081526200003e919081620001aa565b506040805180820190915260018082527f380000000000000000000000000000000000000000000000000000000000000060209092019182526200008591600291620001aa565b506040805180820190915260058082527f31303030300000000000000000000000000000000000000000000000000000006020909201918252620000cc91600391620001aa565b506040805180820190915260028082527f323000000000000000000000000000000000000000000000000000000000000060209092019182526200011391600491620001aa565b50600760058190556611c37937e08000600655662aa1efb94e00009055620493e060085563ee6b280060095560008054600a8054600160a060020a0319908116600160a060020a038416179091556010805460ff191660011790556039839055603a839055603b8390559081163317909155600b8054909116736f485c8bf6fc43ea212e93bbf8ce046c7f1cb4751790556200024f565b828054600181600116156101000203166002900490600052602060002090601f016020900481019282601f10620001ed57805160ff19168380011785556200021d565b828001600101855582156200021d579182015b828111156200021d57825182559160200191906001019062000200565b506200022b9291506200022f565b5090565b6200024c91905b808211156200022b576000815560010162000236565b90565b6146b9806200025f6000396000f3006080604052600436106102165763ffffffff60e060020a6000350416630cc38b2b811461021857806310cd4b8a146102715780631c3ed1d31461029b57806323d370ba146102cf57806327dc297e146102f05780632caf9eee1461034e5780632de729eb146103775780632e52d6061461038f57806338bbfa501461041957806339df3f4f146104b55780633bb7daf4146104ca57806349f6b030146105235780634acfd9b8146105445780634df7e3d01461066357806350b9c4281461067857806359f9fe821461068d578063715018a6146106a2578063741606b5146106b757806377d8a830146106cc578063809fc153146106ed57806383bb7bb7146107055780638a1dd7401461075e5780638aa5fafa146107765780638ce3da3c1461078e5780638da5cb5b146107a657806396853e13146107bb5780639ac2bf91146108bf5780639ae8886a146108d45780639dec38ab146108e9578063b4f8eadd14610942578063b582ec5f14610a55578063b69ef8a814610a6a578063bcb740ab14610a7f578063c56969ab14610a97578063c629dad914610aac578063c71f04ac14610b04578063d383e86214610b1c578063d566bcf014610b34578063d80ffb2014610b49578063d84ca03a14610b5e578063ddc110fa14610b73578063e5663c4814610b94578063e802ae1414610ba9578063eaaa680a14610bc1578063f2fde38b14610bd9578063fd9be1b214610bfa575b005b34801561022457600080fd5b506040805160206004803580820135601f8101849004840285018401909552848452610216943694929360249392840191908190840183828082843750949750610c1b9650505050505050565b34801561027d57600080fd5b50610289600435610e00565b60408051918252519081900360200190f35b3480156102a757600080fd5b506102b3600435610e12565b60408051600160a060020a039092168252519081900360200190f35b3480156102db57600080fd5b50610216600160a060020a0360043516610e2d565b3480156102fc57600080fd5b5060408051602060046024803582810135601f8101859004850286018501909652858552610216958335953695604494919390910191908190840183828082843750949750610f3f9650505050505050565b34801561035a57600080fd5b506103636114f4565b604080519115158252519081900360200190f35b34801561038357600080fd5b506102166004356114fd565b34801561039b57600080fd5b506103a461185d565b6040805160208082528351818301528351919283929083019185019080838360005b838110156103de5781810151838201526020016103c6565b50505050905090810190601f16801561040b5780820380516001836020036101000a031916815260200191505b509250505060405180910390f35b34801561042557600080fd5b5060408051602060046024803582810135601f810185900485028601850190965285855261021695833595369560449491939091019190819084018382808284375050604080516020601f89358b018035918201839004830284018301909452808352979a9998810197919650918201945092508291508401838280828437509497506118e89650505050505050565b3480156104c157600080fd5b506102166118ed565b3480156104d657600080fd5b506040805160206004803580820135601f81018490048402850184019095528484526102169436949293602493928401919081908401838280828437509497506119189650505050505050565b34801561052f57600080fd5b50610216600160a060020a0360043516611a5e565b34801561055057600080fd5b50610565600160a060020a0360043516611b0d565b604080519081018590528315156060820152821515608082015281151560a082015260c08082528751908201528651819060208083019160e08401918b019080838360005b838110156105c25781810151838201526020016105aa565b50505050905090810190601f1680156105ef5780820380516001836020036101000a031916815260200191505b5083810382528851815288516020918201918a019080838360005b8381101561062257818101518382015260200161060a565b50505050905090810190601f16801561064f5780820380516001836020036101000a031916815260200191505b509850505050505050505060405180910390f35b34801561066f57600080fd5b506103a4611c6d565b34801561068457600080fd5b50610289611cc7565b34801561069957600080fd5b50610289611ccd565b3480156106ae57600080fd5b50610216611cd3565b3480156106c357600080fd5b506102b3611d32565b3480156106d857600080fd5b50610216600160a060020a0360043516611d41565b3480156106f957600080fd5b50610216600435611d56565b34801561071157600080fd5b506040805160206004803580820135601f8101849004840285018401909552848452610216943694929360249392840191908190840183828082843750949750611dd79650505050505050565b34801561076a57600080fd5b50610289600435611f1c565b34801561078257600080fd5b50610216600435611f2e565b34801561079a57600080fd5b50610289600435611faf565b3480156107b257600080fd5b506102b3611fc1565b3480156107c757600080fd5b506107d3600435611fd0565b604051808060200180602001858152602001848152602001838103835287818151815260200191508051906020019080838360005b83811015610820578181015183820152602001610808565b50505050905090810190601f16801561084d5780820380516001836020036101000a031916815260200191505b50838103825286518152865160209182019188019080838360005b83811015610880578181015183820152602001610868565b50505050905090810190601f1680156108ad5780820380516001836020036101000a031916815260200191505b50965050505050505060405180910390f35b3480156108cb57600080fd5b5061028961211c565b3480156108e057600080fd5b506103a4612122565b3480156108f557600080fd5b506040805160206004803580820135601f810184900484028501840190955284845261021694369492936024939284019190819084018382808284375094975061217d9650505050505050565b34801561094e57600080fd5b5061095a6004356122c3565b60408051908101849052600160a060020a03831660608201526080810182905260a08082528651908201528551819060208083019160c08401918a019080838360005b838110156109b557818101518382015260200161099d565b50505050905090810190601f1680156109e25780820380516001836020036101000a031916815260200191505b50838103825287518152875160209182019189019080838360005b83811015610a155781810151838201526020016109fd565b50505050905090810190601f168015610a425780820380516001836020036101000a031916815260200191505b5097505050505050505060405180910390f35b348015610a6157600080fd5b506103a4612430565b348015610a7657600080fd5b5061028961248b565b348015610a8b57600080fd5b50610216600435612491565b348015610aa357600080fd5b50610289612512565b348015610ab857600080fd5b50610ac4600435612518565b60408051978852600160a060020a039096166020880152868601949094526060860192909252608085015260a084015260c0830152519081900360e00190f35b348015610b1057600080fd5b5061021660043561256f565b348015610b2857600080fd5b506102166004356125f0565b348015610b4057600080fd5b50610289612697565b348015610b5557600080fd5b5061028961269d565b348015610b6a57600080fd5b506102896126a3565b348015610b7f57600080fd5b50610216600160a060020a03600435166126a9565b348015610ba057600080fd5b50610289612790565b348015610bb557600080fd5b50610289600435612796565b348015610bcd57600080fd5b506102b36004356127a8565b348015610be557600080fd5b50610216600160a060020a03600435166127c3565b348015610c0657600080fd5b50610216600160a060020a03600435166127e3565b600054606090600160a060020a03163314610c3557600080fd5b6002805460408051602060018416156101000260001901909316849004601f81018490048402820184019092528181529291830182828015610cb85780601f10610c8d57610100808354040283529160200191610cb8565b820191906000526020600020905b815481529060010190602001808311610c9b57829003601f168201915b50508551939450610cd4936002935060208701925090506145b5565b5060008051602061466e833981519152818360405180806020018060200180602001848103845260148152602001807f506172616d65746572206e206d6f646966696564000000000000000000000000815250602001848103835286818151815260200191508051906020019080838360005b83811015610d5f578181015183820152602001610d47565b50505050905090810190601f168015610d8c5780820380516001836020036101000a031916815260200191505b50848103825285518152855160209182019187019080838360005b83811015610dbf578181015183820152602001610da7565b50505050905090810190601f168015610dec5780820380516001836020036101000a031916815260200191505b509550505050505060405180910390a15050565b60356020526000908152604090205481565b603460205260009081526040902054600160a060020a031681565b6000610e3a6009546128f7565b604080516020808252808201527f41736b696e6720666f722061206e6577206d7520706172616d657465722e2e2e8183015290517f096835e36c2ccea88ff2b3aca87dfc938b977e52ea656873ff76a8dba50d4d349181900360600190a1610f0f6040805190810160405280600c81526020017f576f6c6672616d416c70686100000000000000000000000000000000000000008152506040805190810160405280600f81526020017f342072616e646f6d206e756d6265720000000000000000000000000000000000815250600854612adf565b60009081526030602052604090208054600160a060020a031916600160a060020a03939093169290921790915550565b610f47612ee4565b600160a060020a03163314610f5b57600080fd5b600082815260306020526040902054600160a060020a031615801590610fa95750600082815260306020908152604080832054600160a060020a03168352602f90915290206003015460ff16155b1561114657600082815260306020908152604080832054600160a060020a03168352602f82529091208251610fe0928401906145b5565b507f6a28dd23c76ba6cc6f4f148a0e2e0e147d8b876cb74ec1e5e2b8e9a8119eb702816040518080602001828103825283818151815260200191508051906020019080838360005b83811015611040578181015183820152602001611028565b50505050905090810190601f16801561106d5780820380516001836020036101000a031916815260200191505b509250505060405180910390a160008281526030602090815260408083208054600160a060020a039081168552602f9093528184206003908101805460ff191660019081179091559154909316845292200154610100900460ff16151514801561111b5750600082815260306020908152604080832054600160a060020a03168352602f90915290206003015460ff620100009091041615156001148061111b575060105460ff1615156001145b156111415760008281526030602052604090205461114190600160a060020a03166126a9565b6114f0565b600082815260316020526040902054600160a060020a0316158015906111995750600082815260316020908152604080832054600160a060020a03168352602f909152902060030154610100900460ff16155b1561133457600082815260316020908152604080832054600160a060020a03168352602f825290912082516111d6926001909201918401906145b5565b507f716a554dec57e3a217a923b974660c0c8ebee07b09b1ac7d4a3a8f328d10cc89816040518080602001828103825283818151815260200191508051906020019080838360005b8381101561123657818101518382015260200161121e565b50505050905090810190601f1680156112635780820380516001836020036101000a031916815260200191505b509250505060405180910390a160008281526031602090815260408083208054600160a060020a039081168552602f9093528184206003908101805461ff00191661010017905590549092168352909120015460ff161515600114801561130e5750600082815260316020908152604080832054600160a060020a03168352602f90915290206003015460ff620100009091041615156001148061130e575060105460ff1615156001145b156111415760008281526031602052604090205461114190600160a060020a03166126a9565b600082815260326020526040902054600160a060020a03161580159061139e5750600082815260326020908152604080832054600160a060020a03168352602f90915290206003015460ff620100009091041615156001148061139e575060105460ff1615156001145b156114f0576113ac816130d9565b600083815260326020908152604080832054600160a060020a03168352602f825280832060020193909355825181815284518183015284517f0efef3a277391dda0d5747fd15566e85fcd8a4fb588d9853173841e45cc5ae8a9486949293849391840192908601918190849084905b8381101561143357818101518382015260200161141b565b50505050905090810190601f1680156114605780820380516001836020036101000a031916815260200191505b509250505060405180910390a1600082815260326020908152604080832054600160a060020a03168352602f9091529020600301805462ff00001916905560105460ff161515600114156114cf5760008281526032602052604090205461114190600160a060020a03166130ec565b6000828152603260205260409020546114f090600160a060020a031661334d565b5050565b60105460ff1681565b600080600080601360016005540360078110151561151757fe5b600402016002015460128681548110151561152e57fe5b906000526020600020906005020160020154111561159d576005546000190193506115966013856007811061155f57fe5b600402016002015460128781548110151561157657fe5b90600052602060002090600502016002015461358890919063ffffffff16565b92506116e3565b60155460128054879081106115ae57fe5b906000526020600020906005020160020154101561161357600093506115966012868154811015156115dc57fe5b9060005260206000209060050201600201546013866007811015156115fd57fe5b600402016002015461358890919063ffffffff16565b6013846007811061162057fe5b600402016002015460128681548110151561163757fe5b906000526020600020906005020160020154111561165a57600190930192611613565b6013846007811061166757fe5b600402016002015460128681548110151561167e57fe5b906000526020600020906005020160020154141561169f57600092506116e3565b6116b3601360001986016007811061155f57fe5b91506116c76012868154811015156115dc57fe5b9050818111156116df576001840393508192506116e3565b8092505b600084815260346020526040902054600160a060020a03161580611714575060008481526033602052604090205483105b156117af57601280548690811061172757fe5b60009182526020808320600360059093020191909101548683526034825260408084208054600160a060020a031916600160a060020a0390931692909217909155603382528083208690556035825291829020879055815187815291517fed4436a39d9a77d0c6c3be4f0e28f018750eb25c5c2d30ded16ef07ced4c00719281900390910190a15b8215156118565760128054869081106117c457fe5b6000918252602080832060036005909302019190910154603b548352603790915260409091208054600160a060020a031916600160a060020a03909216919091179055601280548690811061181557fe5b6000918252602080832060026005909302019190910154603b8054845260368352604080852092909255805484526038909252909120869055805460010190555b5050505050565b6002805460408051602060018416156101000260001901909316849004601f810184900484028201840190925281815292918301828280156118e05780601f106118b5576101008083540402835291602001916118e0565b820191906000526020600020905b8154815290600101906020018083116118c357829003601f168201915b505050505081565b505050565b600054600160a060020a0316331461190457600080fd5b6010805460ff19811660ff90911615179055565b600054606090600160a060020a0316331461193257600080fd5b6004805460408051602060026001851615610100026000190190941693909304601f810184900484028201840190925281815292918301828280156119b85780601f1061198d576101008083540402835291602001916119b8565b820191906000526020600020905b81548152906001019060200180831161199b57829003601f168201915b505085519394506119d4936004935060208701925090506145b5565b5060008051602061466e833981519152818360405180806020018060200180602001848103845260148152602001807f506172616d65746572206a206d6f6469666965640000000000000000000000008152506020018481038352868181518152602001915080519060200190808383600083811015610d5f578181015183820152602001610d47565b60008054600160a060020a03163314611a7657600080fd5b50600a8054600160a060020a03838116600160a060020a0319831681179093556040805191909216602082018190528183019390935260608082526019908201527f456e74657270726973652077616c6c6574206368616e67656400000000000000608082015290517f223db053947bb148de510715d3c7d8ccd72bdd376752fd735ee7bd0bd0ece5bf9181900360a00190a15050565b602f6020908152600091825260409182902080548351601f60026000196101006001861615020190931692909204918201849004840281018401909452808452909291839190830182828015611ba45780601f10611b7957610100808354040283529160200191611ba4565b820191906000526020600020905b815481529060010190602001808311611b8757829003601f168201915b505050505090806001018054600181600116156101000203166002900480601f016020809104026020016040519081016040528092919081815260200182805460018160011615610100020316600290048015611c425780601f10611c1757610100808354040283529160200191611c42565b820191906000526020600020905b815481529060010190602001808311611c2557829003601f168201915b50505050600283015460039093015491929160ff808216925061010082048116916201000090041686565b60018054604080516020600284861615610100026000190190941693909304601f810184900484028201840190925281815292918301828280156118e05780601f106118b5576101008083540402835291602001916118e0565b60085481565b60055481565b600054600160a060020a03163314611cea57600080fd5b60008054604051600160a060020a03909116917ff8df31144d9c2f0f6b59d69b8b98abd5459d07f2742c4df920b25aae33c6482091a260008054600160a060020a0319169055565b600a54600160a060020a031681565b611d4a81610e2d565b611d53816127e3565b50565b60008054600160a060020a03163314611d6e57600080fd5b50600880549082905560408051602081018390528082018490526060808252601a908201527f4f7261636c697a6520676173206c696d6974206368616e6765640000000000006080820152905160008051602061464e8339815191529181900360a00190a15050565b600054606090600160a060020a03163314611df157600080fd5b60018054604080516020600284861615610100026000190190941693909304601f81018490048402820184019092528181529291830182828015611e765780601f10611e4b57610100808354040283529160200191611e76565b820191906000526020600020905b815481529060010190602001808311611e5957829003601f168201915b50508551939450611e92936001935060208701925090506145b5565b5060008051602061466e833981519152818360405180806020018060200180602001848103845260148152602001807f506172616d657465722062206d6f6469666965640000000000000000000000008152506020018481038352868181518152602001915080519060200190808383600083811015610d5f578181015183820152602001610d47565b60366020526000908152604090205481565b60008054600160a060020a03163314611f4657600080fd5b50600680549082905560408051602081018390528082018490526060808252601d908201527f47656e6572617465207469636b6574207072696365206368616e6765640000006080820152905160008051602061464e8339815191529181900360a00190a15050565b60386020526000908152604090205481565b600054600160a060020a031681565b60138160078110611fdd57fe5b60040201805460408051602060026001851615610100026000190190941693909304601f810184900484028201840190925281815292935083918301828280156120685780601f1061203d57610100808354040283529160200191612068565b820191906000526020600020905b81548152906001019060200180831161204b57829003601f168201915b505050505090806001018054600181600116156101000203166002900480601f0160208091040260200160405190810160405280929190818152602001828054600181600116156101000203166002900480156121065780601f106120db57610100808354040283529160200191612106565b820191906000526020600020905b8154815290600101906020018083116120e957829003601f168201915b5050505050908060020154908060030154905084565b60095481565b6003805460408051602060026001851615610100026000190190941693909304601f810184900484028201840190925281815292918301828280156118e05780601f106118b5576101008083540402835291602001916118e0565b600054606090600160a060020a0316331461219757600080fd5b6003805460408051602060026001851615610100026000190190941693909304601f8101849004840282018401909252818152929183018282801561221d5780601f106121f25761010080835404028352916020019161221d565b820191906000526020600020905b81548152906001019060200180831161220057829003601f168201915b50508551939450612239936003935060208701925090506145b5565b5060008051602061466e833981519152818360405180806020018060200180602001848103845260148152602001807f506172616d657465722070206d6f6469666965640000000000000000000000008152506020018481038352868181518152602001915080519060200190808383600083811015610d5f578181015183820152602001610d47565b60128054829081106122d157fe5b60009182526020918290206005919091020180546040805160026001841615610100026000190190931692909204601f81018590048502830185019091528082529193509183919083018282801561236a5780601f1061233f5761010080835404028352916020019161236a565b820191906000526020600020905b81548152906001019060200180831161234d57829003601f168201915b505050505090806001018054600181600116156101000203166002900480601f0160208091040260200160405190810160405280929190818152602001828054600181600116156101000203166002900480156124085780601f106123dd57610100808354040283529160200191612408565b820191906000526020600020905b8154815290600101906020018083116123eb57829003601f168201915b505050506002830154600384015460049094015492939092600160a060020a03909116915085565b6004805460408051602060026001851615610100026000190190941693909304601f810184900484028201840190925281815292918301828280156118e05780601f106118b5576101008083540402835291602001916118e0565b30315b90565b60008054600160a060020a031633146124a957600080fd5b506007805490829055604080516020810183905280820184905260608082526019908201527f53656c6c207469636b6574207072696365206368616e676564000000000000006080820152905160008051602061464e8339815191529181900360a00190a15050565b603a5481565b601180548290811061252657fe5b60009182526020909120600790910201805460018201546002830154600384015460048501546005860154600690960154949650600160a060020a039093169491939092919087565b60008054600160a060020a0316331461258757600080fd5b506005805490829055604080516020810183905280820184905260608082526019908201527f53656c6c207469636b6574207072696365206368616e676564000000000000006080820152905160008051602061464e8339815191529181900360a00190a15050565b60008054600160a060020a0316331461260857600080fd5b506009805490829055604080516020810183905280820184905260608082526021908201527f4f7261636c697a6520637573746f6d20676173207072696365206368616e676560808201527f640000000000000000000000000000000000000000000000000000000000000060a0820152905160008051602061464e8339815191529181900360c00190a15050565b60065481565b60395481565b603b5481565b60006126b66009546128f7565b604080516020808252601a908201527f41736b696e6720666f722061206e6577207469636b65742e2e2e0000000000008183015290517f096835e36c2ccea88ff2b3aca87dfc938b977e52ea656873ff76a8dba50d4d349181900360600190a16127606040805190810160405280600c81526020017f576f6c6672616d416c70686100000000000000000000000000000000000000008152506127588461359a565b600854612adf565b60009081526032602052604090208054600160a060020a031916600160a060020a03939093169290921790915550565b60075481565b60336020526000908152604090205481565b603760205260009081526040902054600160a060020a031681565b600054600160a060020a031633146127da57600080fd5b611d5381613e2f565b60006127f06009546128f7565b604080516020808252601f908201527f41736b696e6720666f722061206e6577206920706172616d657465722e2e2e008183015290517f096835e36c2ccea88ff2b3aca87dfc938b977e52ea656873ff76a8dba50d4d349181900360600190a16128c76040805190810160405280600c81526020017f576f6c6672616d416c70686100000000000000000000000000000000000000008152506040805190810160405280600f81526020017f342072616e646f6d206e756d6265720000000000000000000000000000000000815250600854612adf565b60009081526031602052604090208054600160a060020a031916600160a060020a03939093169290921790915550565b600b54600160a060020a031615806129215750600b5461291f90600160a060020a0316613e9f565b155b15612932576129306000613ea3565b505b600b60009054906101000a9004600160a060020a0316600160a060020a03166338cc48316040518163ffffffff1660e060020a028152600401602060405180830381600087803b15801561298557600080fd5b505af1158015612999573d6000803e3d6000fd5b505050506040513d60208110156129af57600080fd5b5051600c54600160a060020a03908116911614612a6557600b60009054906101000a9004600160a060020a0316600160a060020a03166338cc48316040518163ffffffff1660e060020a028152600401602060405180830381600087803b158015612a1957600080fd5b505af1158015612a2d573d6000803e3d6000fd5b505050506040513d6020811015612a4357600080fd5b5051600c8054600160a060020a031916600160a060020a039092169190911790555b600c54604080517fca6ad1e4000000000000000000000000000000000000000000000000000000008152600481018490529051600160a060020a039092169163ca6ad1e49160248082019260009290919082900301818387803b158015612acb57600080fd5b505af1158015611856573d6000803e3d6000fd5b600b546000908190600160a060020a03161580612b0e5750600b54612b0c90600160a060020a0316613e9f565b155b15612b1f57612b1d6000613ea3565b505b600b60009054906101000a9004600160a060020a0316600160a060020a03166338cc48316040518163ffffffff1660e060020a028152600401602060405180830381600087803b158015612b7257600080fd5b505af1158015612b86573d6000803e3d6000fd5b505050506040513d6020811015612b9c57600080fd5b5051600c54600160a060020a03908116911614612c5257600b60009054906101000a9004600160a060020a0316600160a060020a03166338cc48316040518163ffffffff1660e060020a028152600401602060405180830381600087803b158015612c0657600080fd5b505af1158015612c1a573d6000803e3d6000fd5b505050506040513d6020811015612c3057600080fd5b5051600c8054600160a060020a031916600160a060020a039092169190911790555b600c54604080517f2ef3accc0000000000000000000000000000000000000000000000000000000081526024810186905260048101918252875160448201528751600160a060020a0390931692632ef3accc9289928892829160640190602086019080838360005b83811015612cd2578181015183820152602001612cba565b50505050905090810190601f168015612cff5780820380516001836020036101000a031916815260200191505b509350505050602060405180830381600087803b158015612d1f57600080fd5b505af1158015612d33573d6000803e3d6000fd5b505050506040513d6020811015612d4957600080fd5b50519050670de0b6b3a76400003a840201811115612d6a5760009150612edc565b600c546040517fc51be90f00000000000000000000000000000000000000000000000000000000815260006004820181815260648301879052608060248401908152895160848501528951600160a060020a039095169463c51be90f948794938c938c938c93604481019160a49091019060208801908083838c5b83811015612dfd578181015183820152602001612de5565b50505050905090810190601f168015612e2a5780820380516001836020036101000a031916815260200191505b50838103825285518152855160209182019187019080838360005b83811015612e5d578181015183820152602001612e45565b50505050905090810190601f168015612e8a5780820380516001836020036101000a031916815260200191505b5096505050505050506020604051808303818588803b158015612eac57600080fd5b505af1158015612ec0573d6000803e3d6000fd5b50505050506040513d6020811015612ed757600080fd5b505191505b509392505050565b600b54600090600160a060020a03161580612f115750600b54612f0f90600160a060020a0316613e9f565b155b15612f2257612f206000613ea3565b505b600b60009054906101000a9004600160a060020a0316600160a060020a03166338cc48316040518163ffffffff1660e060020a028152600401602060405180830381600087803b158015612f7557600080fd5b505af1158015612f89573d6000803e3d6000fd5b505050506040513d6020811015612f9f57600080fd5b5051600c54600160a060020a0390811691161461305557600b60009054906101000a9004600160a060020a0316600160a060020a03166338cc48316040518163ffffffff1660e060020a028152600401602060405180830381600087803b15801561300957600080fd5b505af115801561301d573d6000803e3d6000fd5b505050506040513d602081101561303357600080fd5b5051600c8054600160a060020a031916600160a060020a039092169190911790555b600c60009054906101000a9004600160a060020a0316600160a060020a031663c281d19e6040518163ffffffff1660e060020a028152600401602060405180830381600087803b1580156130a857600080fd5b505af11580156130bc573d6000803e3d6000fd5b505050506040513d60208110156130d257600080fd5b5051905090565b60006130e6826000613ead565b92915050565b60408051600160a060020a0383166000908152602f602090815290839020805460026001821615610100026000190190911604601f8101839004909202830160a0908101909452608083018281529293849392908401828280156131915780601f1061316657610100808354040283529160200191613191565b820191906000526020600020905b81548152906001019060200180831161317457829003601f168201915b50505050508152602001602f600084600160a060020a0316600160a060020a031681526020019081526020016000206001018054600181600116156101000203166002900480601f0160208091040260200160405190810160405280929190818152602001828054600181600116156101000203166002900480156132575780601f1061322c57610100808354040283529160200191613257565b820191906000526020600020905b81548152906001019060200180831161323a57829003601f168201915b5050509183525050600160a060020a0383166000908152602f60209081526040918290206002015490830152603954910152603a546013906007811061329957fe5b6004020160008201518160000190805190602001906132b99291906145b5565b5060208281015180516132d292600185019201906145b5565b50604082810151600280840191909155606090930151600390920191909155603a80546001019055600160a060020a0383166000908152602f60209081529082902090920154815190815290517fec2692b386f7e992f219e405f018eeaf8da1b95736760596812e564f2e709cfd929181900390910190a150565b60408051600160a060020a0383166000908152602f602090815283822080546002600180831615610100026000190190921604601f8101849004909302850160c090810190965260a08501838152939590946012949093849391928401828280156133f95780601f106133ce576101008083540402835291602001916133f9565b820191906000526020600020905b8154815290600101906020018083116133dc57829003601f168201915b50505050508152602001602f600087600160a060020a0316600160a060020a031681526020019081526020016000206001018054600181600116156101000203166002900480601f0160208091040260200160405190810160405280929190818152602001828054600181600116156101000203166002900480156134bf5780601f10613494576101008083540402835291602001916134bf565b820191906000526020600020905b8154815290600101906020018083116134a257829003601f168201915b5050509183525050600160a060020a0386166000818152602f602090815260408083206002015482860152840192909252603954606090930192909252835460018101808655948352918190208351805160059094029091019261352692849201906145b5565b50602082810151805161353f92600185019201906145b5565b50604082015160028201556060820151600382018054600160a060020a031916600160a060020a039092169190911790556080909101516004909101550390506114f0816114fd565b60008282111561359457fe5b50900390565b604080518082018252600c81527f286d6f642828312f2831305e000000000000000000000000000000000000000060208083019190915260028054845160018216156101000260001901909116829004601f81018490048402820184019095528481526060948594613771949093919083018282801561365b5780601f106136305761010080835404028352916020019161365b565b820191906000526020600020905b81548152906001019060200180831161363e57829003601f168201915b505060408051808201825260018082527f2d00000000000000000000000000000000000000000000000000000000000000602080840191909152600160a060020a038d166000908152602f825284902080548551600294821615610100026000190190911693909304601f81018390048302840183019095528483529296509094509092508301828280156137315780601f1061370657610100808354040283529160200191613731565b820191906000526020600020905b81548152906001019060200180831161371457829003601f168201915b50505050506040805190810160405280600681526020017f29292a31305e000000000000000000000000000000000000000000000000000081525061401f565b60038054604080516020601f60026000196101006001881615020190951694909404938401819004810282018101909252828152939450613905938593909290918301828280156138035780601f106137d857610100808354040283529160200191613803565b820191906000526020600020905b8154815290600101906020018083116137e657829003601f168201915b5050604080518082018252600581527f2c31305e2800000000000000000000000000000000000000000000000000000060208083019190915260048054845160026001831615610100026000190190921691909104601f81018490048402820184019095528481529296509194509092508301828280156138c55780601f1061389a576101008083540402835291602001916138c5565b820191906000526020600020905b8154815290600101906020018083116138a857829003601f168201915b50505050506040805190810160405280600181526020017f2b0000000000000000000000000000000000000000000000000000000000000081525061401f565b9050613ac681602f600086600160a060020a0316600160a060020a031681526020019081526020016000206001018054600181600116156101000203166002900480601f0160208091040260200160405190810160405280929190818152602001828054600181600116156101000203166002900480156139c75780601f1061399c576101008083540402835291602001916139c7565b820191906000526020600020905b8154815290600101906020018083116139aa57829003601f168201915b5050604080518082018252600e81527f29292d6d6f642828312f2831305e00000000000000000000000000000000000060208083019190915260028054845160018216156101000260001901909116829004601f8101849004840282018401909552848152929650919450909250830182828015613a865780601f10613a5b57610100808354040283529160200191613a86565b820191906000526020600020905b815481529060010190602001808311613a6957829003601f168201915b50505050506040805190810160405280600181526020017f2d0000000000000000000000000000000000000000000000000000000000000081525061401f565b600160a060020a0384166000908152602f602090815260409182902080548351601f60026000196101006001861615020190931692909204918201849004840281018401909452808452939450613c6d93859392830182828015613b6b5780601f10613b4057610100808354040283529160200191613b6b565b820191906000526020600020905b815481529060010190602001808311613b4e57829003601f168201915b5050604080518082018252600681527f29292a31305e000000000000000000000000000000000000000000000000000060208083019190915260038054845160026001831615610100026000190190921691909104601f8101849004840282018401909552848152929650919450909250830182828015613c2d5780601f10613c0257610100808354040283529160200191613c2d565b820191906000526020600020905b815481529060010190602001808311613c1057829003601f168201915b50505050506040805190810160405280600481526020017f2c31305e0000000000000000000000000000000000000000000000000000000081525061401f565b60408051808201825260018082527f2800000000000000000000000000000000000000000000000000000000000000602080840191909152600160a060020a0388166000908152602f8252849020820180548551600294821615610100026000190190911693909304601f8101839004830284018301909552848352949550613e289486949091830182828015613d455780601f10613d1a57610100808354040283529160200191613d45565b820191906000526020600020905b815481529060010190602001808311613d2857829003601f168201915b5050604080518082018252600781527f2929292f31305e00000000000000000000000000000000000000000000000000602080830191909152600160a060020a038d166000908152602f8252839020600190810180548551600293821615610100026000190190911692909204601f81018490048402830184019095528482529296509450909250830182828015613e1e5780601f10613df357610100808354040283529160200191613e1e565b820191906000526020600020905b815481529060010190602001808311613e0157829003601f168201915b505050505061401f565b9392505050565b600160a060020a0381161515613e4457600080fd5b60008054604051600160a060020a03808516939216917f8be0079c531659141344cd1fd0a4f28419497f9722a3daafe3b4186f6b6457e091a360008054600160a060020a031916600160a060020a0392909216919091179055565b3b90565b60006130e6614280565b6000828180805b83518110156140025783517f300000000000000000000000000000000000000000000000000000000000000090859083908110613eed57fe5b90602001015160f860020a900460f860020a02600160f860020a03191610158015613f63575083517f390000000000000000000000000000000000000000000000000000000000000090859083908110613f4357fe5b90602001015160f860020a900460f860020a02600160f860020a03191611155b15613fbc578115613f8257851515613f7a57614002565b600019909501945b600a8302925060308482815181101515613f9857fe5b90602001015160f860020a900460f860020a0260f860020a90040383019250613ffa565b8381815181101515613fca57fe5b90602001015160f860020a900460f860020a02600160f860020a031916602e60f860020a021415613ffa57600191505b600101613eb4565b60008611156140145785600a0a830292505b509095945050505050565b6060806060806060806060806000808e98508d97508c96508b95508a94508451865188518a518c51010101016040519080825280601f01601f191660200182016040528015614078578160200160208202803883390190505b50935083925060009150600090505b88518110156140e557888181518110151561409e57fe5b90602001015160f860020a900460f860020a0283838060010194508151811015156140c557fe5b906020010190600160f860020a031916908160001a905350600101614087565b5060005b875181101561414757878181518110151561410057fe5b90602001015160f860020a900460f860020a02838380600101945081518110151561412757fe5b906020010190600160f860020a031916908160001a9053506001016140e9565b5060005b86518110156141a957868181518110151561416257fe5b90602001015160f860020a900460f860020a02838380600101945081518110151561418957fe5b906020010190600160f860020a031916908160001a90535060010161414b565b5060005b855181101561420b5785818151811015156141c457fe5b90602001015160f860020a900460f860020a0283838060010194508151811015156141eb57fe5b906020010190600160f860020a031916908160001a9053506001016141ad565b5060005b845181101561426d57848181518110151561422657fe5b90602001015160f860020a900460f860020a02838380600101945081518110151561424d57fe5b906020010190600160f860020a031916908160001a90535060010161420f565b50909d9c50505050505050505050505050565b6000806142a0731d3b2638a7cc9f2cb3d298a3da7a90b67e5506ed613e9f565b111561431057600b8054600160a060020a031916731d3b2638a7cc9f2cb3d298a3da7a90b67e5506ed178155604080518082019091529081527f6574685f6d61696e6e65740000000000000000000000000000000000000000006020820152614308906145a6565b50600161248e565b600061432f73c03a2615d5efaf5f49f60b7bb6583eaec212fdf1613e9f565b111561439857600b8054600160a060020a03191673c03a2615d5efaf5f49f60b7bb6583eaec212fdf117905560408051808201909152600c81527f6574685f726f707374656e3300000000000000000000000000000000000000006020820152614308906145a6565b60006143b773b7a07bcf2ba2f2703b24c0691b5278999c59ac7e613e9f565b111561442057600b8054600160a060020a03191673b7a07bcf2ba2f2703b24c0691b5278999c59ac7e17905560408051808201909152600981527f6574685f6b6f76616e00000000000000000000000000000000000000000000006020820152614308906145a6565b600061443f73146500cfd35b22e4a392fe0adc06de1a1368ed48613e9f565b11156144a757600b8054600160a060020a03191673146500cfd35b22e4a392fe0adc06de1a1368ed48178155604080518082019091529081527f6574685f72696e6b6562790000000000000000000000000000000000000000006020820152614308906145a6565b60006144c6736f485c8bf6fc43ea212e93bbf8ce046c7f1cb475613e9f565b11156144fa5750600b8054600160a060020a031916736f485c8bf6fc43ea212e93bbf8ce046c7f1cb475179055600161248e565b60006145197320e12a1f859b3feae5fb2a0a32c18f5a65555bbf613e9f565b111561454d5750600b8054600160a060020a0319167320e12a1f859b3feae5fb2a0a32c18f5a65555bbf179055600161248e565b600061456c7351efaf4c8b3c9afbd5ab9f4bbc82784ab6ef8faa613e9f565b11156145a05750600b8054600160a060020a0319167351efaf4c8b3c9afbd5ab9f4bbc82784ab6ef8faa179055600161248e565b50600090565b80516114f090600d9060208401905b828054600181600116156101000203166002900490600052602060002090601f016020900481019282601f106145f657805160ff1916838001178555614623565b82800160010185558215614623579182015b82811115614623578251825591602001919060010190614608565b5061462f929150614633565b5090565b61248e91905b8082111561462f576000815560010161463956009bc068999fb1a0aac007a9b44ca6322a376441f42706bf5163600bb3d1a731647ecbd54b3baea533cf57ef049f9e04554be6a660d6dacd477488066eedf27beea165627a7a72305820642dc84f242efdf10c8b1f36cd85cde75a7456678f76a5be61742e82e39d81240029",
  "source": "/**\n  * @author Matias Barrios\n  * @version 1.0\n  */\n\n/** @title Lucky7TicketFactor. \n  * This contract contains all the functions to generate tickets and Lucky7Numbers.\n  * Inherits from Lucky7Admin and usingOraclize to do the oraclize querys. \n*/\n\n\npragma solidity ^0.4.20;\nimport \"./usingOraclize.sol\";\nimport \"./Lucky7Admin.sol\";\n\n\ncontract Lucky7TicketFactory is Lucky7Admin, usingOraclize{\n    \n    /** @dev The constructor needs to set the @param OAR parameter to use oraclize on localhost.\n      */\n    function Lucky7TicketFactory() payable{\n        OAR = OraclizeAddrResolverI(0x6f485c8bf6fc43ea212e93bbf8ce046c7f1cb475);\n    }\n    \n    using SafeMath for uint256;\n    \n    /**@dev The events are used mainly for testing purposes\n      */\n    event NewOraclizeQuery(string description);\n    event NewMuReceived(string muParameter);\n    event NewIReceived(string iParameter);\n    event NewTicketReceived(string newTicket);\n    event NewWolframQuery(string description);\n    event NewLucky7Ticket(uint ticketID);\n    event NewLucky7Number(uint value);\n    \n    /** @dev This modifier is used to set the gas price on the functions which do oraclize querys.\n      *  It uses the oraclizeCustomGasPrice of the Lucky7Admin contract.\n      */\n    modifier oraclizeGasPriceCustomized{\n        oraclize_setCustomGasPrice(oraclizeCustomGasPrice);\n        _;\n    }\n\n    /** @param settingLucky7Numbers is a circuit breaker to stop users of buying tickets while the game is getting setted\n      *i.e. when a new game is started, previous winners are erased, the Lucky7Numbers are getting setted and prizes are delivered.\n      */\n    bool public settingLucky7Numbers = true;\n    \n    /** @dev Function to toggle the settingLucky7Numbers to stop users to buy tickets. \n      */\n    function toggleLucky7Setting() public onlyOwner{\n        settingLucky7Numbers = !settingLucky7Numbers;\n    }\n\n    /** @dev UserParametersValue is a struct where the values of the user ticket is stored temporarily.\n      * While the user is just generating (not buying) tickets, the values of this struct for each user are going to change.\n      * Once the user buys a ticket, all the parameters of this struct are used to generate a ticket and store it in the tickets array.\n      * where they will be stored permanently.\n      * @param mu is a parameter of the pseudo-random number generator (PRNG).\n      * @param i is a parameter of the pseudo-random number generator (PRNG).\n      * @param ticketValue is the value of the last buyed ticket of the user.\n      * @param muReady is a boolean value used for the oraclize's callback function to verify if the mu parameter for the current ticket was already setted.\n      * @param iReady is a boolean value used for the oraclize's callback function to verify if the i parameter for the current ticket was already setted.\n      * @param userPaidTicket is a boolean value to verify if the user which is calling for the oraclize query actually paid for the ticket or is just generating\n      * a parameters to choose a ticket.\n    */\n    struct UserParametersValue{\n        string mu;\n        string i;\n        uint ticketValue;\n        bool muReady;\n        bool iReady;\n        bool userPaidTicket;\n    }\n    \n    /** @pdev Ticket is a struct to store information of the tickets. It information is stored permanently through the tickets array.\n      * @param mu is a parameter of the pseudo-random number generator (PRNG).\n      * @param i is a parameter of the pseudo-random number generator (PRNG).\n      * @param ticketValue is the value of ticket.\n      * @param owner is the owner of the ticket.\n      * @param drawID is the number of the draw for this ticket, i.e. the game where this ticket was emitted.\n      */\n    struct Ticket{\n        string mu;\n        string i;\n        uint ticketValue;\n        address owner;\n        uint drawID;\n    }\n    \n    /** @dev Lucky7Number is a struct to store the information of the Lucky7Numbers. Is used for the lucky7Numbers array\n      * and it information is erased when a new game is setted, i.e. it information is replaced with the Lucky7Numbers information\n      * of the new game.\n      * @param mu is a parameter of the pseudo-random number generator (PRNG).\n      * @param i is a parameter of the pseudo-random number generator (PRNG).\n      * @param ticketValue is the value of the Lucky7Number.\n      * @param drawID is the number of the draw for this Lucky7Number, i.e. the game where this Lucky7Number was emitted. \n      */\n    struct Lucky7Number{\n        string mu;\n        string i;\n        uint ticketValue;\n        uint drawID;\n    }\n    \n    /** @dev Lucky7Ticket is a struct to store the information of the Lucky7Tickets. Is used once a new game is setted, and it store the information of the final\n      * Lucky7Tickets permanently.\n      * @param difference is the difference (in absolute value) of the ticket with the Lucky7Number.\n      * @param owner is the owner of the Lucky7Ticket.\n      * @param ticketID is the ticket ID of the ticket which was selected as Lucky7Ticket. Is helpful to look up in the ticketID mapping to verify\n      * past games and results.\n      * @param ticketValue is the value of the ticket associated to this Lucky7Ticket.\n      * @param lucky7Number is the value of the Lucky7Number associated to this Lucky7Ticket.\n      * @param lucky7NumberID is the ID of the Lucky7Number associated to this Lucky7Ticket, i.e. if 0 is the first Lucky7Number of the draw.\n      * @param drawID is the number of the draw for this Lucky7Ticket, i.e. the game where this Lucky7Ticket was emitted.\n      */\n    struct Lucky7Ticket{\n        uint difference;\n        address owner;\n        uint ticketID;\n        uint ticketValue;\n        uint lucky7Number;\n        uint lucky7NumberID;\n        uint drawID;\n    }\n    \n    /** @dev The next two arrays are used to store information of the game permanently.\n      * @param lucky7TicketsArray stores the Lucky7Tickets once a new game is setted.\n      * @param ticketsArray stores the tickets everytime a user buys a ticket.\n      */\n    Lucky7Ticket[] public lucky7TicketsArray;\n    Ticket[] public ticketsArray;\n    \n    /** @param lucky7NumbersArray stores the Lucky7Numbers for the current draw. Once a new game is called, it is cleand to 0 to be reused. \n      */\n    Lucky7Number[7] public lucky7NumbersArray;\n\n    /** @dev Because addresses are not correlatives, is better to use a mapping. \n      * @param userValues maps from the user address to it UserParametersValue struct.\n      */\n    mapping (address => UserParametersValue) public userValues;\n\n    /** @dev The next three mapping are used for the functions which do oraclize querys to being identified in the oraclize's callback function\n      * as mu parameter, i parameter or a ticket.\n      * @param muParameterID maps from a bytes32 generated everytime the oraclize_query function is called and points to the address of the user which did the call.\n      * @param iParameterID maps from a bytes32 generated everytime the oraclize_query function is called and points to the address of the user which did the call.\n      * @param newTicketID maps from a bytes32 generated everytime the oraclize_query function is called and points to the address of the user which did the call.\n      */\n    mapping (bytes32 => address) muParameterID;\n    mapping (bytes32 => address) iParameterID;\n    mapping (bytes32 => address) newTicketID;\n\n    /** @dev The next three mapping are used to state the Lucky7Ticket values while a game is on course. This is because is expensive to look up on the Lucky7Ticket\n      * struct everytime a new ticket is inserted in the tickets array.\n      * They all maps from the lucky7NumberID, i.e. the id of the Lucky7Number of the current game. \n      * @param lucky7TicketDifference points to an uint which is the difference between the Lucky7Number of it _KeyType and the ticket selected as Lucky7Ticket, \n      * e.g. lucky7TicketDifference[0] is the difference between the first Lucky7Number with the ticket which was selected as his Lucky7Ticket.\n      * @param lucky7TicketOwner points to the address of the owner of the Lucky7Ticket associated to the Lucky7Number of it _KeyType, \n      * e.g. lucky7TicketOwner[0] is the owner of the Lucky7Ticket associated to the first Lucky7Number.\n      * @param lucky7TicketID points to the id of the ticket which was selected as Lucky7Ticket for the Lucky7Number of it _KeyType, \n      * e.g. lucky7TicketID[0] is the ticketID of the ticket owned by lucky7TicketOwner[0], with a difference of lucky7TicketDiffference[0] with the Lucky7Number[0].\n      */\n    mapping (uint => uint) public lucky7TicketDifference;\n    mapping (uint => address) public lucky7TicketOwner;\n    mapping (uint => uint) public lucky7TicketID;\n\n    /** @dev The next three mappings are used to storage ExactLucky7Ticket, i.e. tickets which difference with a Lucky7Number is 0 \n      * They follow the same logic as the previous three mapings. They're setted for future development, because this project is meant to emit tokens and ExactLucky7Tickets\n      * are going to be specially awarded.\n      * They're cleaned to 0 everytime a new game is setted.\n      */\n    mapping (uint => uint) public ExactLucky7TicketValue;\n    mapping (uint => address) public ExactLucky7TicketOwner;\n    mapping (uint => uint) public ExactLucky7TicketID;\n\n    /** @param drawNumber is the number of the current draw. Is used to help storage Lucky7Tickets, look up for current game winners and others functions.\n      * Is incremented by 1 everytime a new game is setted.\n      * @param indexForLucky7Array is a uint used to count the number of Lucky7Numbers generated everytime a new game is setted. Is used to know if all the Lucky7Numbers \n      * were setted, and if they did, order them by them values in ascendant order and let users start buying tickets. Is setted to 0 after all this process.\n      * @param indexForExactLucky7Ticket is a uint which increments everytime a ExactLucky7Ticket is detected and stored. It's used to look up in in the ExactLucky7 mappings\n      * and is cleaned to 0 everytime a new game is setted.\n      */\n    uint public drawNumber = 0;\n    uint public indexForLucky7Array = 0;\n    uint public indexForExactLucky7Ticket = 0;\n    \n    /** @dev _askForMuParameter is a function to ask for a new mu parameter through an oraclize query.\n      * @param _ticketOwner is the address of the user which is calling this function through a generation of new parameters or by buying a new random ticket.\n      * First, it emit an event to register the query. Then it do the query and save the bytes32 value generated to the muID.\n      * Finally it associate this muID with the _ticketOwner through the muParameterID mapping, so the oraclize's callback function know it is a mu petition and it belongs to the _ticketOwner user.\n      */\n    function _askForMuParameter(address _ticketOwner) public oraclizeGasPriceCustomized{\n        emit NewOraclizeQuery(\"Asking for a new mu parameter...\");\n        bytes32 muID = oraclize_query(\"WolframAlpha\",\"4 random number\",oraclizeGasLimit);\n        muParameterID[muID] = _ticketOwner;\n    }\n\n    /** @dev _askForIParameter is a function to ask for a new I parameter through an oraclize query.\n      * @param _ticketOwner is the address of the user which is calling this function through a generation of new parameters or by buying a new random ticket.\n      * First, it emit an event to register the query. Then it do the query and save the bytes32 value generated to the iID.\n      * Finally it associate this iID with the _ticketOwner through the iParameterID mapping, so the oraclize's callback function know it is a i petition and it belongs to the _ticketOwner user.\n      */\n    function _askForIParameter(address _ticketOwner) public oraclizeGasPriceCustomized{\n        emit NewOraclizeQuery(\"Asking for a new i parameter...\");\n        bytes32 iID = oraclize_query(\"WolframAlpha\",\"4 random number\",oraclizeGasLimit);\n        iParameterID[iID] = _ticketOwner;\n    }\n    \n    /** @dev _askForTicket is a function to ask for a new ticket through an oraclize query.\n      * @param _ticketOwner is the address of the user which is calling this function through by buying a new random ticket or buying the ticket generated by it parameters.\n      * First, it emit an event to register the query. Then it do the query and save the bytes32 value generated to the userTicketID.\n      * Finally it associate this userTicketID with the _ticketOwner through the newTicketID mapping, so the oraclize's callback function know it \n      * is a ticket petition and it belongs to the _ticketOwner user. Inside the oraclize_query function it calls the _setTicketQuery function, so it generate the query \n      * depending on the UserParametersValue struct of the _ticketOwner user.\n      */\n    function _askForTicket(address _ticketOwner) public oraclizeGasPriceCustomized{\n        emit NewOraclizeQuery(\"Asking for a new ticket...\");\n        bytes32 userTicketID = oraclize_query(\"WolframAlpha\", _setTicketQuery(_ticketOwner), oraclizeGasLimit);\n        newTicketID[userTicketID] = _ticketOwner;\n    }\n    /** @dev _generateTicket is used for another contract. Invokes _askForMuParameter and _askForIparameter\n      */\n    function _generateTicket(address _ticketOwner) public {\n        _askForMuParameter(_ticketOwner);\n        _askForIParameter(_ticketOwner);\n    }\n    \n    /** @dev _insertTicket inserts a ticket in the ticketsArray array.\n      * @param _ticketOwner is the owner of the ticket already generated. It uses the UserParametersValue struct values and the drawNumber value.\n      * Then it call the _checkForLucky7Ticket function to check if the inserted ticket is a Lucky7Ticket.\n      * Because a push return the size of the array, is necessary to decrement the id value in 1 to check the current ticket. \n      */\n    function _insertTicket(address _ticketOwner) internal {\n        uint id = ticketsArray.push(Ticket(userValues[_ticketOwner].mu,userValues[_ticketOwner].i,userValues[_ticketOwner].ticketValue,_ticketOwner,drawNumber)) - 1;\n        _checkForLucky7Ticket(id);\n    }\n\n    /** @dev _insertLucky7Number inserts a Lucky7Number in the lucky7NumbersArray array.\n      * @param _ticketOwner is the owner, but in this case is the owner of the contract. This is setted this way to take advantage of the UserParametersValue struct\n      * and store it the same way the tickets are stored. Once stored, the indexForLucky7Array is incremented by 1, so next time this function is called, the next\n      * Lucky7Number don't replace the last inserted. \n      * Then an event is emited.\n      */\n    function _insertLucky7Number(address _ticketOwner) internal {\n        lucky7NumbersArray[indexForLucky7Array] = Lucky7Number(userValues[_ticketOwner].mu,userValues[_ticketOwner].i,userValues[_ticketOwner].ticketValue,drawNumber);\n        indexForLucky7Array++;\n        emit NewLucky7Number(userValues[_ticketOwner].ticketValue);\n    }\n    \n    /** @dev _checkForLucky7Ticket is a function that check if a ticket recently inserted in the ticketsArray is a Lucky7Ticket.\n      * @param _ticketID is the ticket which is going to be checked.\n      * At this point, the Lucky7Numbers are ordered by them values in ascedant order.\n      * This function uses the SafeMath library to avoid number underflow or overflow, or to check that the difference is not 0, which is a special case.\n      */\n    function _checkForLucky7Ticket(uint _ticketID) public/*internal*/{\n        uint i;\n        uint difference;\n        /** @dev First it checks if the ticket is bigger than the last Lucky7Number.\n          * If so, sets the auxilir parameter i to the id of the last Lucky7Number, numberOfLucky7Numbers-1 in this case. Don't confuse with the i parameter of the PRNG.\n          * Then the difference between them is obtained through the sub function of the SafeMath library, knowing that the ticket is bigger than the last Lucky7Number.\n          */\n        if(ticketsArray[_ticketID].ticketValue>lucky7NumbersArray[numberOfLucky7Numbers-1].ticketValue){\n            i = numberOfLucky7Numbers-1;\n            difference = ticketsArray[_ticketID].ticketValue.sub(lucky7NumbersArray[i].ticketValue);\n            \n        }\n        /** @dev If it is not bigger than the last Lucky7Number, then checks if it is smaller thant the first Lucky7Number.\n          * If so, sets the auxilir parameter i to the id of the first Lucky7Number, 0 in this case. Don't confuse with the i parameter of the PRNG.\n          * Then the difference between them is obtained through the sub function of the SafeMath library, knowing that the ticket is smaller than the first Lucky7Number.\n          */\n        else if (ticketsArray[_ticketID].ticketValue<lucky7NumbersArray[0].ticketValue){\n            i = 0;\n            difference = lucky7NumbersArray[i].ticketValue.sub(ticketsArray[_ticketID].ticketValue);\n        }\n\n        /** @dev If none of the above fits, then the ticket could be bigger or equal than the first Lucky7Number or smaller or equal than the last Lucky7Number.\n          * The function proceeds then to look which is it interval; it should be between two Lucky7Numbers or equal to one Lucky7Number.\n          */\n        else{\n            /** @dev The function then proceed to increment i until the ticket is bigger than the Lucky7Number[i].\n              */\n            while(ticketsArray[_ticketID].ticketValue>lucky7NumbersArray[i].ticketValue){ \n                i++;\n            }\n            /** @dev If the ticket and the correspondent Lucky7Numbers, then the ticket is a ExactLucky7Ticket\n              */\n            if(ticketsArray[_ticketID].ticketValue==lucky7NumbersArray[i].ticketValue){\n                difference = 0;\n            }\n            else{\n                /** @dev If not, then it will have to check if the Lucky7Number above or below the ticket is closer\n                  * if the below Lucky7Number is closer to the ticket than the above ( if(upperLucky7NumberDifference>lowerLucky7NumberDifference)) then the \n                  * correspondent candidate to Lucky7Ticket is the Lucky7Number which is below the ticket.\n                  * Else, the above Lucky7Number is the correspondent candidate.\n                  * Then saves the value of difference.\n                  */\n                uint lowerLucky7NumberDifference = ticketsArray[_ticketID].ticketValue.sub(lucky7NumbersArray[i-1].ticketValue);\n                uint upperLucky7NumberDifference = lucky7NumbersArray[i].ticketValue.sub(ticketsArray[_ticketID].ticketValue);\n                \n                if(upperLucky7NumberDifference>lowerLucky7NumberDifference){\n                    i=i-1;\n                    difference = lowerLucky7NumberDifference;\n                }\n                else{\n                    difference = upperLucky7NumberDifference;\n                }\n            }\n        }\n        /** @dev Now the function proceed to check if it is in fact a Lucky7Ticket.\n          * If the Lucky7Ticket[i] hasn't an owner, then the ticket is automatically assigned as Lucky7Ticket.\n          * If it has an owner, then check if the difference is smaller than the difference of the current owner.\n          * If it is smaller, then the ticket is a Lucky7Ticket and is stored in the Lucky7Ticket mappings.\n          * Then an event is emitted.\n          */\n        if(lucky7TicketOwner[i] == address(0x0) || difference<lucky7TicketDifference[i]){\n            lucky7TicketOwner[i] = ticketsArray[_ticketID].owner;\n            lucky7TicketDifference[i] = difference;\n            lucky7TicketID[i] = _ticketID;\n            emit NewLucky7Ticket(_ticketID);\n        }\n        /** @dev If the ticket is not a Lucky7Ticket, then checks if it's a ExactLucky7Ticket.\n          * Due to the high entropy of the PRNG is pretty unfeasible to get an ExactLucky7Ticket without having the same mu and i parameters than the\n          * Lucky7Number. The probability of having two identical ExactLucky7Tickets in the same game is even lower.\n          * If in determinated unfortunate case an user gets a ExacyLucky7Ticket which is already occupied, then it will not replace the old one.\n          * That's why is necessary to storage all the ExactLucky7Tickets to award them specially, e.g. giving them tokens according to some rules, which would be\n          * specified in future developments.\n          * The next step, then, is to check if it is indeed a ExactLucky7Ticket. If so, then store the information in the ExactLucky7Tickets mappings and increment\n          * indexForExactLucky7Ticket by 1.\n          */\n        if(difference == 0){\n            ExactLucky7TicketOwner[indexForExactLucky7Ticket] = ticketsArray[_ticketID].owner;\n            ExactLucky7TicketValue[indexForExactLucky7Ticket] = ticketsArray[_ticketID].ticketValue;\n            ExactLucky7TicketID[indexForExactLucky7Ticket] = _ticketID;\n            indexForExactLucky7Ticket++;\n        }\n    }\n    \n    function _setTicketQuery(address _parametersOwner) internal returns (string){\n        string memory queryWolfram;\n        //This line => (mod((1/(10^n-mu))*10^    \n        queryWolfram = strConcat(\"(mod((1/(10^\",n,\"-\",userValues[_parametersOwner].mu,\"))*10^\");\n        //This line => (mod((1/(10^n-mu))*10^p,10^(j+\n        queryWolfram = strConcat(queryWolfram,p,\",10^(\",j,\"+\");\n        //This line => (mod((1/(10^n-mu))*10^p,10^(j+i))-mod((1/(10^n-\n        queryWolfram = strConcat(queryWolfram,userValues[_parametersOwner].i,\"))-mod((1/(10^\",n,\"-\");\n        //This line => (mod((1/(10^n-mu))*10^p,10^(j+i))-mod((1/(10^n-mu))*10^p,10^\n        queryWolfram = strConcat(queryWolfram,userValues[_parametersOwner].mu,\"))*10^\",p,\",10^\");\n        //This line => (mod((1/(10^n-mu))*10^p,10^(j+i))-mod((1/(10^n-mu))*10^p,10^(i)))/10^i\n        queryWolfram = strConcat(queryWolfram,\"(\",userValues[_parametersOwner].i,\")))/10^\",userValues[_parametersOwner].i);\n        return queryWolfram;\n    }\n    \n    function __callback(bytes32 myid, string result) public{\n        require(msg.sender == oraclize_cbAddress());\n        if(muParameterID[myid]!=0 && userValues[muParameterID[myid]].muReady==false){\n            userValues[muParameterID[myid]].mu=result;\n            emit NewMuReceived(result);\n            userValues[muParameterID[myid]].muReady=true;\n            if(userValues[muParameterID[myid]].iReady == true && (userValues[muParameterID[myid]].userPaidTicket==true || settingLucky7Numbers==true )){\n                _askForTicket(muParameterID[myid]);\n            }\n        }\n        else if (iParameterID[myid]!=0 && userValues[iParameterID[myid]].iReady==false){\n            userValues[iParameterID[myid]].i=result;\n            emit NewIReceived(result);\n            userValues[iParameterID[myid]].iReady=true;\n            if(userValues[iParameterID[myid]].muReady == true && (userValues[iParameterID[myid]].userPaidTicket==true || settingLucky7Numbers==true )){\n                _askForTicket(iParameterID[myid]);\n            }\n        }\n        else if (newTicketID[myid]!=0 &&  (userValues[newTicketID[myid]].userPaidTicket==true || settingLucky7Numbers==true )){\n            userValues[newTicketID[myid]].ticketValue=parseInt(result);\n            emit NewTicketReceived(result);\n            userValues[newTicketID[myid]].userPaidTicket=false;\n            if(settingLucky7Numbers==true){\n                _insertLucky7Number(newTicketID[myid]);\n            }\n            else{\n                _insertTicket(newTicketID[myid]);\n            }\n        }\n    }\n\n    function() public payable{}\n} ",
  "sourcePath": "/Users/matiasbarrios/Desktop/Proyecto Consensys/luckyseven/contracts/Lucky7TicketFactory.sol",
  "compiler": {
    "name": "solc",
    "version": "0.4.24+commit.e67f0147.Emscripten.clang"
  },
  "schemaVersion": "2.0.1",
  "updatedAt": "2018-08-26T05:24:17.790Z"
}