{
  "contractName": "Lucky7GetValues",
  "abi": [
    {
      "constant": false,
      "inputs": [
        {
          "name": "_lucky7AdminAddress",
          "type": "address"
        }
      ],
      "name": "oraclizeCustomGasPrice",
      "outputs": [
        {
          "name": "",
          "type": "uint256"
        }
      ],
      "payable": false,
      "stateMutability": "nonpayable",
      "type": "function"
    },
    {
      "constant": false,
      "inputs": [
        {
          "name": "_lucky7AdminAddress",
          "type": "address"
        }
      ],
      "name": "oraclizeGasLimit",
      "outputs": [
        {
          "name": "",
          "type": "uint256"
        }
      ],
      "payable": false,
      "stateMutability": "nonpayable",
      "type": "function"
    },
    {
      "constant": false,
      "inputs": [
        {
          "name": "_lucky7AdminAddress",
          "type": "address"
        }
      ],
      "name": "getParameters",
      "outputs": [
        {
          "name": "",
          "type": "string"
        },
        {
          "name": "",
          "type": "string"
        },
        {
          "name": "",
          "type": "string"
        },
        {
          "name": "",
          "type": "string"
        }
      ],
      "payable": false,
      "stateMutability": "nonpayable",
      "type": "function"
    },
    {
      "constant": false,
      "inputs": [
        {
          "name": "_lucky7StorageAddress",
          "type": "address"
        }
      ],
      "name": "indexForLucky7Array",
      "outputs": [
        {
          "name": "",
          "type": "uint256"
        }
      ],
      "payable": false,
      "stateMutability": "nonpayable",
      "type": "function"
    },
    {
      "constant": false,
      "inputs": [
        {
          "name": "_lucky7StorageAddress",
          "type": "address"
        }
      ],
      "name": "numberOfLucky7Numbers",
      "outputs": [
        {
          "name": "",
          "type": "uint256"
        }
      ],
      "payable": false,
      "stateMutability": "nonpayable",
      "type": "function"
    }
  ],
  "bytecode": "0x610786610030600b82828239805160001a6073146000811461002057610022565bfe5b5030600052607381538281f300730000000000000000000000000000000000000000301460806040526004361061006a5763ffffffff60e060020a60003504166323913b85811461006f5780633d579ff8146100a257806359c96c11146100c3578063c50f7fbd1461028e578063dbc6ac88146102af575b600080fd5b81801561007b57600080fd5b50610090600160a060020a03600435166102d0565b60408051918252519081900360200190f35b8180156100ae57600080fd5b50610090600160a060020a0360043516610347565b8180156100cf57600080fd5b506100e4600160a060020a036004351661038b565b6040518080602001806020018060200180602001858103855289818151815260200191508051906020019080838360005b8381101561012d578181015183820152602001610115565b50505050905090810190601f16801561015a5780820380516001836020036101000a031916815260200191505b5085810384528851815288516020918201918a019080838360005b8381101561018d578181015183820152602001610175565b50505050905090810190601f1680156101ba5780820380516001836020036101000a031916815260200191505b50858103835287518152875160209182019189019080838360005b838110156101ed5781810151838201526020016101d5565b50505050905090810190601f16801561021a5780820380516001836020036101000a031916815260200191505b50858103825286518152865160209182019188019080838360005b8381101561024d578181015183820152602001610235565b50505050905090810190601f16801561027a5780820380516001836020036101000a031916815260200191505b509850505050505050505060405180910390f35b81801561029a57600080fd5b50610090600160a060020a03600435166106d2565b8180156102bb57600080fd5b50610090600160a060020a0360043516610716565b60008082905080600160a060020a03166350b9c4286040518163ffffffff1660e060020a028152600401602060405180830381600087803b15801561031457600080fd5b505af1158015610328573d6000803e3d6000fd5b505050506040513d602081101561033e57600080fd5b50519392505050565b60008082905080600160a060020a03166359f9fe826040518163ffffffff1660e060020a028152600401602060405180830381600087803b15801561031457600080fd5b606080606080600060608060608089945084600160a060020a0316634df7e3d06040518163ffffffff1660e060020a028152600401600060405180830381600087803b1580156103da57600080fd5b505af11580156103ee573d6000803e3d6000fd5b505050506040513d6000823e601f3d908101601f19168201604052602081101561041757600080fd5b81019080805164010000000081111561042f57600080fd5b8201602081018481111561044257600080fd5b815164010000000081118282018710171561045c57600080fd5b5050929190505050935084600160a060020a0316632e52d6066040518163ffffffff1660e060020a028152600401600060405180830381600087803b1580156104a457600080fd5b505af11580156104b8573d6000803e3d6000fd5b505050506040513d6000823e601f3d908101601f1916820160405260208110156104e157600080fd5b8101908080516401000000008111156104f957600080fd5b8201602081018481111561050c57600080fd5b815164010000000081118282018710171561052657600080fd5b5050929190505050925084600160a060020a0316639ae8886a6040518163ffffffff1660e060020a028152600401600060405180830381600087803b15801561056e57600080fd5b505af1158015610582573d6000803e3d6000fd5b505050506040513d6000823e601f3d908101601f1916820160405260208110156105ab57600080fd5b8101908080516401000000008111156105c357600080fd5b820160208101848111156105d657600080fd5b81516401000000008111828201871017156105f057600080fd5b5050929190505050915084600160a060020a031663b582ec5f6040518163ffffffff1660e060020a028152600401600060405180830381600087803b15801561063857600080fd5b505af115801561064c573d6000803e3d6000fd5b505050506040513d6000823e601f3d908101601f19168201604052602081101561067557600080fd5b81019080805164010000000081111561068d57600080fd5b820160208101848111156106a057600080fd5b81516401000000008111828201871017156106ba57600080fd5b50979e969d50949b5093995093975050505050505050565b60008082905080600160a060020a0316639ac2bf916040518163ffffffff1660e060020a028152600401602060405180830381600087803b15801561031457600080fd5b60008082905080600160a060020a031663c56969ab6040518163ffffffff1660e060020a028152600401602060405180830381600087803b15801561031457600080fd00a165627a7a72305820b3c5529256d7a061cfe9b91e64cfb3769fa1aaa3188696bc587a4892444d1e070029",
  "source": "/**\n  * @author Matias Barrios\n  * @version 1.0.0\n  */\n\n/** @title Lucky7GetValues. \n  * This contract contains all the functions to generate get values between contracts.\n*/\n\npragma solidity ^0.4.24;\nimport \"./Lucky7Admin.sol\";\nimport \"./Lucky7Storage.sol\";\n\n\nlibrary Lucky7GetValues{  \n    \n  /** @dev Functions to get values from Lucky7Admin\n    */\n  function oraclizeCustomGasPrice(address _lucky7AdminAddress) public returns (uint){\n    Lucky7Admin lucky7AdminContract = Lucky7Admin(_lucky7AdminAddress);\n    return lucky7AdminContract.oraclizeCustomGasPrice();\n  }\n\n  function oraclizeGasLimit(address _lucky7AdminAddress) public returns (uint){\n    Lucky7Admin lucky7AdminContract = Lucky7Admin(_lucky7AdminAddress);\n    return lucky7AdminContract.oraclizeGasLimit();\n  }\n\n  function getParameters(address _lucky7AdminAddress) public returns (string,string,string,string){\n    Lucky7Admin lucky7AdminContract = Lucky7Admin(_lucky7AdminAddress);\n    string memory b = lucky7AdminContract.b();\n    string memory n = lucky7AdminContract.n();\n    string memory p = lucky7AdminContract.p();\n    string memory j = lucky7AdminContract.j();\n    return (b,n,p,j);\n  }\n\n\n  /** @dev Functions to get values from Lucky7Storage\n    */\n  function indexForLucky7Array(address _lucky7StorageAddress) public returns (uint){\n    Lucky7Storage lucky7StorageContract = Lucky7Storage(_lucky7StorageAddress);\n    return lucky7StorageContract.indexForLucky7Array();\n  \n  } \n  function numberOfLucky7Numbers(address _lucky7StorageAddress) public returns (uint){\n    Lucky7Storage lucky7StorageContract = Lucky7Storage(_lucky7StorageAddress);\n    return lucky7StorageContract.numberOfLucky7Numbers();\n  } \n  \n  // function \n} ",
  "sourcePath": "/Users/matiasbarrios/Desktop/Proyecto Consensys/luckyseven/contracts/Lucky7GetValues.sol",
  "compiler": {
    "name": "solc",
    "version": "0.4.24+commit.e67f0147.Emscripten.clang"
  },
  "schemaVersion": "2.0.1",
  "updatedAt": "2018-09-25T01:25:37.851Z"
}