{
  "contractName": "Lucky7FrontEndFunctions",
  "abi": [
    {
      "constant": false,
      "inputs": [],
      "name": "sellGeneratedTicket",
      "outputs": [],
      "payable": true,
      "stateMutability": "payable",
      "type": "function"
    },
    {
      "constant": false,
      "inputs": [
        {
          "name": "_newValue",
          "type": "uint256"
        }
      ],
      "name": "setInitialLucky7TicketPosition",
      "outputs": [],
      "payable": false,
      "stateMutability": "nonpayable",
      "type": "function"
    },
    {
      "constant": true,
      "inputs": [
        {
          "name": "",
          "type": "uint256"
        }
      ],
      "name": "lucky7TicketID",
      "outputs": [
        {
          "name": "",
          "type": "uint256"
        }
      ],
      "payable": false,
      "stateMutability": "view",
      "type": "function"
    },
    {
      "constant": true,
      "inputs": [],
      "name": "lastSecondPrizeAmount",
      "outputs": [
        {
          "name": "",
          "type": "uint256"
        }
      ],
      "payable": false,
      "stateMutability": "view",
      "type": "function"
    },
    {
      "constant": false,
      "inputs": [
        {
          "name": "_newValue",
          "type": "uint256"
        }
      ],
      "name": "setIndexForLucky7Array",
      "outputs": [],
      "payable": false,
      "stateMutability": "nonpayable",
      "type": "function"
    },
    {
      "constant": true,
      "inputs": [
        {
          "name": "",
          "type": "uint256"
        }
      ],
      "name": "lucky7TicketOwner",
      "outputs": [
        {
          "name": "",
          "type": "address"
        }
      ],
      "payable": false,
      "stateMutability": "view",
      "type": "function"
    },
    {
      "constant": false,
      "inputs": [],
      "name": "_orderLucky7Tickets",
      "outputs": [],
      "payable": false,
      "stateMutability": "nonpayable",
      "type": "function"
    },
    {
      "constant": false,
      "inputs": [],
      "name": "sellRandomTicket",
      "outputs": [],
      "payable": true,
      "stateMutability": "payable",
      "type": "function"
    },
    {
      "constant": false,
      "inputs": [
        {
          "name": "_ticketOwner",
          "type": "address"
        }
      ],
      "name": "_askForMuParameter",
      "outputs": [],
      "payable": false,
      "stateMutability": "nonpayable",
      "type": "function"
    },
    {
      "constant": false,
      "inputs": [
        {
          "name": "myid",
          "type": "bytes32"
        },
        {
          "name": "result",
          "type": "string"
        }
      ],
      "name": "__callback",
      "outputs": [],
      "payable": false,
      "stateMutability": "nonpayable",
      "type": "function"
    },
    {
      "constant": true,
      "inputs": [],
      "name": "settingLucky7Numbers",
      "outputs": [
        {
          "name": "",
          "type": "bool"
        }
      ],
      "payable": false,
      "stateMutability": "view",
      "type": "function"
    },
    {
      "constant": false,
      "inputs": [
        {
          "name": "_ticketID",
          "type": "uint256"
        }
      ],
      "name": "_checkForLucky7Ticket",
      "outputs": [],
      "payable": false,
      "stateMutability": "nonpayable",
      "type": "function"
    },
    {
      "constant": true,
      "inputs": [],
      "name": "n",
      "outputs": [
        {
          "name": "",
          "type": "string"
        }
      ],
      "payable": false,
      "stateMutability": "view",
      "type": "function"
    },
    {
      "constant": false,
      "inputs": [
        {
          "name": "myid",
          "type": "bytes32"
        },
        {
          "name": "result",
          "type": "string"
        },
        {
          "name": "proof",
          "type": "bytes"
        }
      ],
      "name": "__callback",
      "outputs": [],
      "payable": false,
      "stateMutability": "nonpayable",
      "type": "function"
    },
    {
      "constant": false,
      "inputs": [],
      "name": "toggleLucky7Setting",
      "outputs": [],
      "payable": false,
      "stateMutability": "nonpayable",
      "type": "function"
    },
    {
      "constant": false,
      "inputs": [],
      "name": "withdraw",
      "outputs": [],
      "payable": false,
      "stateMutability": "nonpayable",
      "type": "function"
    },
    {
      "constant": false,
      "inputs": [],
      "name": "setNewGame",
      "outputs": [],
      "payable": false,
      "stateMutability": "nonpayable",
      "type": "function"
    },
    {
      "constant": false,
      "inputs": [
        {
          "name": "_newAddress",
          "type": "address"
        }
      ],
      "name": "modifyEnterpriseWallet",
      "outputs": [],
      "payable": false,
      "stateMutability": "nonpayable",
      "type": "function"
    },
    {
      "constant": true,
      "inputs": [
        {
          "name": "",
          "type": "address"
        }
      ],
      "name": "userValues",
      "outputs": [
        {
          "name": "mu",
          "type": "string"
        },
        {
          "name": "i",
          "type": "string"
        },
        {
          "name": "ticketValue",
          "type": "uint256"
        },
        {
          "name": "muReady",
          "type": "bool"
        },
        {
          "name": "iReady",
          "type": "bool"
        },
        {
          "name": "userPaidTicket",
          "type": "bool"
        }
      ],
      "payable": false,
      "stateMutability": "view",
      "type": "function"
    },
    {
      "constant": true,
      "inputs": [],
      "name": "b",
      "outputs": [
        {
          "name": "",
          "type": "string"
        }
      ],
      "payable": false,
      "stateMutability": "view",
      "type": "function"
    },
    {
      "constant": true,
      "inputs": [],
      "name": "oraclizeGasLimit",
      "outputs": [
        {
          "name": "",
          "type": "uint256"
        }
      ],
      "payable": false,
      "stateMutability": "view",
      "type": "function"
    },
    {
      "constant": false,
      "inputs": [
        {
          "name": "_newOAR",
          "type": "address"
        }
      ],
      "name": "changeOAR",
      "outputs": [],
      "payable": false,
      "stateMutability": "nonpayable",
      "type": "function"
    },
    {
      "constant": true,
      "inputs": [],
      "name": "numberOfLucky7Numbers",
      "outputs": [
        {
          "name": "",
          "type": "uint256"
        }
      ],
      "payable": false,
      "stateMutability": "view",
      "type": "function"
    },
    {
      "constant": false,
      "inputs": [
        {
          "name": "_id",
          "type": "uint256"
        },
        {
          "name": "_mu",
          "type": "string"
        },
        {
          "name": "_i",
          "type": "string"
        },
        {
          "name": "_ticketValue",
          "type": "uint256"
        },
        {
          "name": "_drawNumber",
          "type": "uint256"
        }
      ],
      "name": "insertCustomizedLucky7Number",
      "outputs": [],
      "payable": false,
      "stateMutability": "nonpayable",
      "type": "function"
    },
    {
      "constant": false,
      "inputs": [],
      "name": "renounceOwnership",
      "outputs": [],
      "payable": false,
      "stateMutability": "nonpayable",
      "type": "function"
    },
    {
      "constant": false,
      "inputs": [],
      "name": "generateRandomTicket",
      "outputs": [],
      "payable": true,
      "stateMutability": "payable",
      "type": "function"
    },
    {
      "constant": true,
      "inputs": [],
      "name": "enterpriseWallet",
      "outputs": [
        {
          "name": "",
          "type": "address"
        }
      ],
      "payable": false,
      "stateMutability": "view",
      "type": "function"
    },
    {
      "constant": false,
      "inputs": [],
      "name": "_orderLucky7Numbers",
      "outputs": [],
      "payable": false,
      "stateMutability": "nonpayable",
      "type": "function"
    },
    {
      "constant": false,
      "inputs": [
        {
          "name": "_ticketOwner",
          "type": "address"
        }
      ],
      "name": "_generateTicket",
      "outputs": [],
      "payable": false,
      "stateMutability": "nonpayable",
      "type": "function"
    },
    {
      "constant": true,
      "inputs": [],
      "name": "lastSecondPrizeWinner",
      "outputs": [
        {
          "name": "",
          "type": "address"
        }
      ],
      "payable": false,
      "stateMutability": "view",
      "type": "function"
    },
    {
      "constant": false,
      "inputs": [
        {
          "name": "_newValue",
          "type": "uint256"
        }
      ],
      "name": "modifyOraclizeGasLimit",
      "outputs": [],
      "payable": false,
      "stateMutability": "nonpayable",
      "type": "function"
    },
    {
      "constant": false,
      "inputs": [],
      "name": "destroy",
      "outputs": [],
      "payable": false,
      "stateMutability": "nonpayable",
      "type": "function"
    },
    {
      "constant": true,
      "inputs": [
        {
          "name": "",
          "type": "uint256"
        }
      ],
      "name": "ExactLucky7TicketValue",
      "outputs": [
        {
          "name": "",
          "type": "uint256"
        }
      ],
      "payable": false,
      "stateMutability": "view",
      "type": "function"
    },
    {
      "constant": false,
      "inputs": [
        {
          "name": "_newValue",
          "type": "uint256"
        }
      ],
      "name": "modifyGenerateTicketPrice",
      "outputs": [],
      "payable": false,
      "stateMutability": "nonpayable",
      "type": "function"
    },
    {
      "constant": true,
      "inputs": [
        {
          "name": "",
          "type": "uint256"
        }
      ],
      "name": "ExactLucky7TicketID",
      "outputs": [
        {
          "name": "",
          "type": "uint256"
        }
      ],
      "payable": false,
      "stateMutability": "view",
      "type": "function"
    },
    {
      "constant": true,
      "inputs": [],
      "name": "owner",
      "outputs": [
        {
          "name": "",
          "type": "address"
        }
      ],
      "payable": false,
      "stateMutability": "view",
      "type": "function"
    },
    {
      "constant": false,
      "inputs": [],
      "name": "_generateLucky7Number",
      "outputs": [],
      "payable": false,
      "stateMutability": "nonpayable",
      "type": "function"
    },
    {
      "constant": true,
      "inputs": [
        {
          "name": "",
          "type": "uint256"
        }
      ],
      "name": "lucky7NumbersArray",
      "outputs": [
        {
          "name": "mu",
          "type": "string"
        },
        {
          "name": "i",
          "type": "string"
        },
        {
          "name": "ticketValue",
          "type": "uint256"
        },
        {
          "name": "drawID",
          "type": "uint256"
        }
      ],
      "payable": false,
      "stateMutability": "view",
      "type": "function"
    },
    {
      "constant": true,
      "inputs": [],
      "name": "lastFirstPrizeWinner",
      "outputs": [
        {
          "name": "",
          "type": "address"
        }
      ],
      "payable": false,
      "stateMutability": "view",
      "type": "function"
    },
    {
      "constant": true,
      "inputs": [],
      "name": "lastFirstPrizeAmount",
      "outputs": [
        {
          "name": "",
          "type": "uint256"
        }
      ],
      "payable": false,
      "stateMutability": "view",
      "type": "function"
    },
    {
      "constant": true,
      "inputs": [],
      "name": "oraclizeCustomGasPrice",
      "outputs": [
        {
          "name": "",
          "type": "uint256"
        }
      ],
      "payable": false,
      "stateMutability": "view",
      "type": "function"
    },
    {
      "constant": true,
      "inputs": [],
      "name": "p",
      "outputs": [
        {
          "name": "",
          "type": "string"
        }
      ],
      "payable": false,
      "stateMutability": "view",
      "type": "function"
    },
    {
      "constant": true,
      "inputs": [
        {
          "name": "",
          "type": "uint256"
        }
      ],
      "name": "ticketsArray",
      "outputs": [
        {
          "name": "mu",
          "type": "string"
        },
        {
          "name": "i",
          "type": "string"
        },
        {
          "name": "ticketValue",
          "type": "uint256"
        },
        {
          "name": "owner",
          "type": "address"
        },
        {
          "name": "drawID",
          "type": "uint256"
        }
      ],
      "payable": false,
      "stateMutability": "view",
      "type": "function"
    },
    {
      "constant": true,
      "inputs": [],
      "name": "j",
      "outputs": [
        {
          "name": "",
          "type": "string"
        }
      ],
      "payable": false,
      "stateMutability": "view",
      "type": "function"
    },
    {
      "constant": false,
      "inputs": [
        {
          "name": "_mu",
          "type": "string"
        },
        {
          "name": "_i",
          "type": "string"
        },
        {
          "name": "_ticketValue",
          "type": "uint256"
        },
        {
          "name": "_ticketOwner",
          "type": "address"
        },
        {
          "name": "_drawNumber",
          "type": "uint256"
        }
      ],
      "name": "insertCustomizedTicket",
      "outputs": [
        {
          "name": "",
          "type": "uint256"
        }
      ],
      "payable": false,
      "stateMutability": "nonpayable",
      "type": "function"
    },
    {
      "constant": true,
      "inputs": [],
      "name": "initialLucky7TicketPosition",
      "outputs": [
        {
          "name": "",
          "type": "uint256"
        }
      ],
      "payable": false,
      "stateMutability": "view",
      "type": "function"
    },
    {
      "constant": false,
      "inputs": [
        {
          "name": "_newValue",
          "type": "uint256"
        }
      ],
      "name": "modifySellTicketPrice",
      "outputs": [],
      "payable": false,
      "stateMutability": "nonpayable",
      "type": "function"
    },
    {
      "constant": false,
      "inputs": [],
      "name": "_cleanMappings",
      "outputs": [],
      "payable": false,
      "stateMutability": "nonpayable",
      "type": "function"
    },
    {
      "constant": true,
      "inputs": [],
      "name": "indexForLucky7Array",
      "outputs": [
        {
          "name": "",
          "type": "uint256"
        }
      ],
      "payable": false,
      "stateMutability": "view",
      "type": "function"
    },
    {
      "constant": true,
      "inputs": [
        {
          "name": "",
          "type": "uint256"
        }
      ],
      "name": "lucky7TicketsArray",
      "outputs": [
        {
          "name": "difference",
          "type": "uint256"
        },
        {
          "name": "owner",
          "type": "address"
        },
        {
          "name": "ticketID",
          "type": "uint256"
        },
        {
          "name": "ticketValue",
          "type": "uint256"
        },
        {
          "name": "lucky7Number",
          "type": "uint256"
        },
        {
          "name": "lucky7NumberID",
          "type": "uint256"
        },
        {
          "name": "drawID",
          "type": "uint256"
        }
      ],
      "payable": false,
      "stateMutability": "view",
      "type": "function"
    },
    {
      "constant": false,
      "inputs": [
        {
          "name": "_newValue",
          "type": "uint256"
        }
      ],
      "name": "modifyNumberOfLucky7Numbers",
      "outputs": [],
      "payable": false,
      "stateMutability": "nonpayable",
      "type": "function"
    },
    {
      "constant": false,
      "inputs": [
        {
          "name": "_newValue",
          "type": "uint256"
        }
      ],
      "name": "modifyOraclizeCustomGasPrice",
      "outputs": [],
      "payable": false,
      "stateMutability": "nonpayable",
      "type": "function"
    },
    {
      "constant": true,
      "inputs": [],
      "name": "generateTicketPrice",
      "outputs": [
        {
          "name": "",
          "type": "uint256"
        }
      ],
      "payable": false,
      "stateMutability": "view",
      "type": "function"
    },
    {
      "constant": true,
      "inputs": [],
      "name": "drawNumber",
      "outputs": [
        {
          "name": "",
          "type": "uint256"
        }
      ],
      "payable": false,
      "stateMutability": "view",
      "type": "function"
    },
    {
      "constant": true,
      "inputs": [],
      "name": "indexForExactLucky7Ticket",
      "outputs": [
        {
          "name": "",
          "type": "uint256"
        }
      ],
      "payable": false,
      "stateMutability": "view",
      "type": "function"
    },
    {
      "constant": false,
      "inputs": [
        {
          "name": "_ticketOwner",
          "type": "address"
        }
      ],
      "name": "_askForTicket",
      "outputs": [],
      "payable": false,
      "stateMutability": "nonpayable",
      "type": "function"
    },
    {
      "constant": true,
      "inputs": [],
      "name": "sellTicketPrice",
      "outputs": [
        {
          "name": "",
          "type": "uint256"
        }
      ],
      "payable": false,
      "stateMutability": "view",
      "type": "function"
    },
    {
      "constant": true,
      "inputs": [
        {
          "name": "",
          "type": "uint256"
        }
      ],
      "name": "lucky7TicketDifference",
      "outputs": [
        {
          "name": "",
          "type": "uint256"
        }
      ],
      "payable": false,
      "stateMutability": "view",
      "type": "function"
    },
    {
      "constant": true,
      "inputs": [
        {
          "name": "",
          "type": "uint256"
        }
      ],
      "name": "ExactLucky7TicketOwner",
      "outputs": [
        {
          "name": "",
          "type": "address"
        }
      ],
      "payable": false,
      "stateMutability": "view",
      "type": "function"
    },
    {
      "constant": false,
      "inputs": [
        {
          "name": "_newOwner",
          "type": "address"
        }
      ],
      "name": "transferOwnership",
      "outputs": [],
      "payable": false,
      "stateMutability": "nonpayable",
      "type": "function"
    },
    {
      "constant": true,
      "inputs": [
        {
          "name": "",
          "type": "address"
        }
      ],
      "name": "pendingWithdrawals",
      "outputs": [
        {
          "name": "",
          "type": "uint256"
        }
      ],
      "payable": false,
      "stateMutability": "view",
      "type": "function"
    },
    {
      "constant": false,
      "inputs": [],
      "name": "_deliverPrizes",
      "outputs": [],
      "payable": false,
      "stateMutability": "nonpayable",
      "type": "function"
    },
    {
      "constant": false,
      "inputs": [
        {
          "name": "_recipient",
          "type": "address"
        }
      ],
      "name": "destroyAndSend",
      "outputs": [],
      "payable": false,
      "stateMutability": "nonpayable",
      "type": "function"
    },
    {
      "constant": true,
      "inputs": [],
      "name": "currentTicketID",
      "outputs": [
        {
          "name": "",
          "type": "uint256"
        }
      ],
      "payable": false,
      "stateMutability": "view",
      "type": "function"
    },
    {
      "constant": true,
      "inputs": [],
      "name": "lastThirdPrizeAmount",
      "outputs": [
        {
          "name": "",
          "type": "uint256"
        }
      ],
      "payable": false,
      "stateMutability": "view",
      "type": "function"
    },
    {
      "constant": true,
      "inputs": [],
      "name": "lastThirdPrizeWinner",
      "outputs": [
        {
          "name": "",
          "type": "address"
        }
      ],
      "payable": false,
      "stateMutability": "view",
      "type": "function"
    },
    {
      "constant": false,
      "inputs": [
        {
          "name": "_ticketOwner",
          "type": "address"
        }
      ],
      "name": "_askForIParameter",
      "outputs": [],
      "payable": false,
      "stateMutability": "nonpayable",
      "type": "function"
    },
    {
      "inputs": [],
      "payable": true,
      "stateMutability": "payable",
      "type": "constructor"
    },
    {
      "payable": true,
      "stateMutability": "payable",
      "type": "fallback"
    },
    {
      "anonymous": false,
      "inputs": [
        {
          "indexed": false,
          "name": "description",
          "type": "string"
        }
      ],
      "name": "NewOraclizeQuery",
      "type": "event"
    },
    {
      "anonymous": false,
      "inputs": [
        {
          "indexed": false,
          "name": "muParameter",
          "type": "string"
        }
      ],
      "name": "NewMuReceived",
      "type": "event"
    },
    {
      "anonymous": false,
      "inputs": [
        {
          "indexed": false,
          "name": "iParameter",
          "type": "string"
        }
      ],
      "name": "NewIReceived",
      "type": "event"
    },
    {
      "anonymous": false,
      "inputs": [
        {
          "indexed": false,
          "name": "newTicket",
          "type": "string"
        }
      ],
      "name": "NewTicketReceived",
      "type": "event"
    },
    {
      "anonymous": false,
      "inputs": [
        {
          "indexed": false,
          "name": "description",
          "type": "string"
        }
      ],
      "name": "NewWolframQuery",
      "type": "event"
    },
    {
      "anonymous": false,
      "inputs": [
        {
          "indexed": false,
          "name": "ticketID",
          "type": "uint256"
        }
      ],
      "name": "NewLucky7Ticket",
      "type": "event"
    },
    {
      "anonymous": false,
      "inputs": [
        {
          "indexed": false,
          "name": "value",
          "type": "uint256"
        }
      ],
      "name": "NewLucky7Number",
      "type": "event"
    },
    {
      "anonymous": false,
      "inputs": [
        {
          "indexed": false,
          "name": "describe",
          "type": "string"
        },
        {
          "indexed": false,
          "name": "_oldValue",
          "type": "uint256"
        },
        {
          "indexed": false,
          "name": "_newValue",
          "type": "uint256"
        }
      ],
      "name": "numberModified",
      "type": "event"
    },
    {
      "anonymous": false,
      "inputs": [
        {
          "indexed": false,
          "name": "describe",
          "type": "string"
        },
        {
          "indexed": false,
          "name": "_oldValue",
          "type": "string"
        },
        {
          "indexed": false,
          "name": "_newValue",
          "type": "string"
        }
      ],
      "name": "parameterModified",
      "type": "event"
    },
    {
      "anonymous": false,
      "inputs": [
        {
          "indexed": false,
          "name": "describe",
          "type": "string"
        },
        {
          "indexed": false,
          "name": "_oldValue",
          "type": "address"
        },
        {
          "indexed": false,
          "name": "_newValue",
          "type": "address"
        }
      ],
      "name": "walletModified",
      "type": "event"
    },
    {
      "anonymous": false,
      "inputs": [
        {
          "indexed": true,
          "name": "previousOwner",
          "type": "address"
        }
      ],
      "name": "OwnershipRenounced",
      "type": "event"
    },
    {
      "anonymous": false,
      "inputs": [
        {
          "indexed": true,
          "name": "previousOwner",
          "type": "address"
        },
        {
          "indexed": true,
          "name": "newOwner",
          "type": "address"
        }
      ],
      "name": "OwnershipTransferred",
      "type": "event"
    },
    {
      "constant": true,
      "inputs": [],
      "name": "getBalance",
      "outputs": [
        {
          "name": "",
          "type": "uint256"
        }
      ],
      "payable": false,
      "stateMutability": "view",
      "type": "function"
    },
    {
      "constant": true,
      "inputs": [],
      "name": "getlucky7Numbers",
      "outputs": [
        {
          "name": "",
          "type": "uint256[7]"
        }
      ],
      "payable": false,
      "stateMutability": "view",
      "type": "function"
    },
    {
      "constant": true,
      "inputs": [],
      "name": "getlucky7TicketsValue",
      "outputs": [
        {
          "name": "",
          "type": "uint256[7]"
        }
      ],
      "payable": false,
      "stateMutability": "view",
      "type": "function"
    },
    {
      "constant": true,
      "inputs": [],
      "name": "getLucky7TicketDifference",
      "outputs": [
        {
          "name": "",
          "type": "uint256[7]"
        }
      ],
      "payable": false,
      "stateMutability": "view",
      "type": "function"
    },
    {
      "constant": true,
      "inputs": [],
      "name": "getLucky7TicketOwner",
      "outputs": [
        {
          "name": "",
          "type": "address[7]"
        }
      ],
      "payable": false,
      "stateMutability": "view",
      "type": "function"
    },
    {
      "constant": true,
      "inputs": [
        {
          "name": "_lucky7TicketOwner",
          "type": "address"
        }
      ],
      "name": "getLastLucky7Difference",
      "outputs": [
        {
          "name": "",
          "type": "uint256"
        }
      ],
      "payable": false,
      "stateMutability": "view",
      "type": "function"
    }
  ],
  "bytecode": "0x60c0604052600160808190527f310000000000000000000000000000000000000000000000000000000000000060a09081526200003e919081620001db565b506040805180820190915260018082527f380000000000000000000000000000000000000000000000000000000000000060209092019182526200008591600291620001db565b506040805180820190915260058082527f31303030300000000000000000000000000000000000000000000000000000006020909201918252620000cc91600391620001db565b506040805180820190915260028082527f323000000000000000000000000000000000000000000000000000000000000060209092019182526200011391600491620001db565b50600760058190556611c37937e08000600655662aa1efb94e00009055620493e060085563ee6b280060095560008054600a8054600160a060020a0319908116600160a060020a038416179091556010805460ff191660011790556039839055603a839055603b839055603c839055603d839055603e805482169055603f80548216905560408054821690556041839055604283905560438390559081163317909155600b8054909116733a78bf1783a0187c1c8000e41c2a008897d0a35f17905562000280565b828054600181600116156101000203166002900490600052602060002090601f016020900481019282601f106200021e57805160ff19168380011785556200024e565b828001600101855582156200024e579182015b828111156200024e57825182559160200191906001019062000231565b506200025c92915062000260565b5090565b6200027d91905b808211156200025c576000815560010162000267565b90565b615c8980620002906000396000f30060806040526004361061033f5763ffffffff60e060020a60003504166301591f13811461034157806301f84bcd1461038e5780630b8ec740146103a35780630d0a4b7f146103ab57806310cd4b8a146103c357806312065fe0146103ed57806315968e56146104025780631827f45d146104175780631c3ed1d31461042f5780631cf4c3d1146104635780631ded3bec1461047857806323d370ba1461048057806327dc297e146104a15780632caf9eee146104ff5780632ce9cd15146105285780632de729eb1461053d5780632e52d6061461055557806338bbfa50146105df57806339df3f4f1461067b5780633ccfd60b1461069057806340014911146106a557806349f6b030146106ba5780634acfd9b8146106db5780634df7e3d0146107fa57806350b9c4281461080f578063580709511461082457806359f9fe82146108455780635fff9ae31461085a5780636b83251c146108ff578063715018a61461092057806372c3477d14610935578063741606b51461093d57806375edd2571461095257806377d8a830146109675780637fd4ecde14610988578063809fc1531461099d57806383197ef0146109b55780638a1dd740146109ca5780638aa5fafa146109e25780638ce3da3c146109fa5780638da5cb5b14610a1257806390c31c4c14610a2757806396853e1314610a3c578063980d988c14610b405780639932f11914610b555780639ac2bf9114610b6a5780639ae8886a14610b7f578063a6b0d87314610b94578063b4f8eadd14610ba9578063b582ec5f14610cbc578063bb4127e814610cd1578063bb49516b14610d7d578063bcb740ab14610d92578063c53d6e4714610daa578063c56969ab14610dbf578063c629dad914610dd4578063c71f04ac14610e2c578063d383e86214610e44578063d566bcf014610e5c578063d80ffb2014610e71578063d84ca03a14610e86578063ddc110fa14610e9b578063e5663c4814610ebc578063e802ae1414610ed1578063eaaa680a14610ee9578063f2fde38b14610f01578063f3f4370314610f22578063f405228914610f43578063f5074f4114610f58578063f53c7d0814610f79578063f5ac6a1114610f8e578063fc22d3e414610fa3578063fd9be1b214610fb8575b005b34801561034d57600080fd5b50610356610fd9565b604051808260e080838360005b8381101561037b578181015183820152602001610363565b5050505090500191505060405180910390f35b34801561039a57600080fd5b5061035661102c565b61033f6110af565b3480156103b757600080fd5b5061033f60043561126b565b3480156103cf57600080fd5b506103db600435611287565b60408051918252519081900360200190f35b3480156103f957600080fd5b506103db611299565b34801561040e57600080fd5b506103db61129f565b34801561042357600080fd5b5061033f6004356112a5565b34801561043b57600080fd5b506104476004356112c1565b60408051600160a060020a039092168252519081900360200190f35b34801561046f57600080fd5b5061033f6112dc565b61033f6116b6565b34801561048c57600080fd5b5061033f600160a060020a0360043516611725565b3480156104ad57600080fd5b5060408051602060046024803582810135601f810185900485028601850190965285855261033f9583359536956044949193909101919081908401838280828437509497506118379650505050505050565b34801561050b57600080fd5b50610514611de8565b604080519115158252519081900360200190f35b34801561053457600080fd5b50610356611df1565b34801561054957600080fd5b5061033f600435611e8f565b34801561056157600080fd5b5061056a6121ee565b6040805160208082528351818301528351919283929083019185019080838360005b838110156105a457818101518382015260200161058c565b50505050905090810190601f1680156105d15780820380516001836020036101000a031916815260200191505b509250505060405180910390f35b3480156105eb57600080fd5b5060408051602060046024803582810135601f810185900485028601850190965285855261033f95833595369560449491939091019190819084018382808284375050604080516020601f89358b018035918201839004830284018301909452808352979a9998810197919650918201945092508291508401838280828437509497506122799650505050505050565b34801561068757600080fd5b5061033f61227e565b34801561069c57600080fd5b5061033f6122a9565b3480156106b157600080fd5b5061033f6122ea565b3480156106c657600080fd5b5061033f600160a060020a036004351661233c565b3480156106e757600080fd5b506106fc600160a060020a03600435166123eb565b604080519081018590528315156060820152821515608082015281151560a082015260c08082528751908201528651819060208083019160e08401918b019080838360005b83811015610759578181015183820152602001610741565b50505050905090810190601f1680156107865780820380516001836020036101000a031916815260200191505b5083810382528851815288516020918201918a019080838360005b838110156107b95781810151838201526020016107a1565b50505050905090810190601f1680156107e65780820380516001836020036101000a031916815260200191505b509850505050505050505060405180910390f35b34801561080657600080fd5b5061056a61254b565b34801561081b57600080fd5b506103db6125a5565b34801561083057600080fd5b5061033f600160a060020a03600435166125ab565b34801561085157600080fd5b506103db6125cd565b34801561086657600080fd5b5060408051602060046024803582810135601f810185900485028601850190965285855261033f95833595369560449491939091019190819084018382808284375050604080516020601f89358b018035918201839004830284018301909452808352979a9998810197919650918201945092508291508401838280828437509497505084359550505060209092013591506125d39050565b34801561090b57600080fd5b506103db600160a060020a036004351661266f565b34801561092c57600080fd5b5061033f61270b565b61033f61276a565b34801561094957600080fd5b506104476127a6565b34801561095e57600080fd5b5061033f6127b5565b34801561097357600080fd5b5061033f600160a060020a0360043516612bf7565b34801561099457600080fd5b50610447612c09565b3480156109a957600080fd5b5061033f600435612c18565b3480156109c157600080fd5b5061033f612c99565b3480156109d657600080fd5b506103db600435612cbe565b3480156109ee57600080fd5b5061033f600435612cd0565b348015610a0657600080fd5b506103db600435612d51565b348015610a1e57600080fd5b50610447612d63565b348015610a3357600080fd5b5061033f612d72565b348015610a4857600080fd5b50610a54600435612de9565b604051808060200180602001858152602001848152602001838103835287818151815260200191508051906020019080838360005b83811015610aa1578181015183820152602001610a89565b50505050905090810190601f168015610ace5780820380516001836020036101000a031916815260200191505b50838103825286518152865160209182019188019080838360005b83811015610b01578181015183820152602001610ae9565b50505050905090810190601f168015610b2e5780820380516001836020036101000a031916815260200191505b50965050505050505060405180910390f35b348015610b4c57600080fd5b50610447612f35565b348015610b6157600080fd5b506103db612f44565b348015610b7657600080fd5b506103db612f4a565b348015610b8b57600080fd5b5061056a612f50565b348015610ba057600080fd5b50610356612fab565b348015610bb557600080fd5b50610bc1600435613007565b60408051908101849052600160a060020a03831660608201526080810182905260a08082528651908201528551819060208083019160c08401918a019080838360005b83811015610c1c578181015183820152602001610c04565b50505050905090810190601f168015610c495780820380516001836020036101000a031916815260200191505b50838103825287518152875160209182019189019080838360005b83811015610c7c578181015183820152602001610c64565b50505050905090810190601f168015610ca95780820380516001836020036101000a031916815260200191505b5097505050505050505060405180910390f35b348015610cc857600080fd5b5061056a613174565b348015610cdd57600080fd5b506040805160206004803580820135601f81018490048402850184019095528484526103db94369492936024939284019190819084018382808284375050604080516020601f89358b018035918201839004830284018301909452808352979a99988101979196509182019450925082915084018382808284375094975050843595505050506020820135600160a060020a0316916040013590506131cf565b348015610d8957600080fd5b506103db6132d0565b348015610d9e57600080fd5b5061033f6004356132d6565b348015610db657600080fd5b5061033f613357565b348015610dcb57600080fd5b506103db6134c2565b348015610de057600080fd5b50610dec6004356134c8565b60408051978852600160a060020a039096166020880152868601949094526060860192909252608085015260a084015260c0830152519081900360e00190f35b348015610e3857600080fd5b5061033f60043561351f565b348015610e5057600080fd5b5061033f6004356135a0565b348015610e6857600080fd5b506103db613647565b348015610e7d57600080fd5b506103db61364d565b348015610e9257600080fd5b506103db613653565b348015610ea757600080fd5b5061033f600160a060020a0360043516613659565b348015610ec857600080fd5b506103db613740565b348015610edd57600080fd5b506103db600435613746565b348015610ef557600080fd5b50610447600435613758565b348015610f0d57600080fd5b5061033f600160a060020a0360043516613773565b348015610f2e57600080fd5b506103db600160a060020a0360043516613793565b348015610f4f57600080fd5b5061033f6137a5565b348015610f6457600080fd5b5061033f600160a060020a0360043516613bb5565b348015610f8557600080fd5b506103db613bd8565b348015610f9a57600080fd5b506103db613bde565b348015610faf57600080fd5b50610447613be4565b348015610fc457600080fd5b5061033f600160a060020a0360043516613bf3565b610fe1615aa1565b610fe9615aa1565b60005b600554811015611026576013816007811061100357fe5b6004020160020154828260078110151561101957fe5b6020020152600101610fec565b50919050565b611034615aa1565b61103c615aa1565b60005b60055481101561102657600081815260346020526040902054600160a060020a03161561108b5760008181526033602052604090205482826007811061108157fe5b60200201526110a7565b6806b14e9f812f366c3b8282600781106110a157fe5b60200201525b60010161103f565b60075433903410156110c057600080fd5b600160a060020a0381166000908152602f60205260409020600301805462ff000019166201000017905560105460ff16156110fa57600080fd5b60408051336000908152602f6020529190912080547fc5d2460186f7233c927e7db2dcc703c0e500b653ca82273b7bfad8045d85a47092908190839060026101006001831615026000190190911604801561118c5780601f1061116a57610100808354040283529182019161118c565b820191906000526020600020905b815481529060010190602001808311611178575b505091505060405180910390206000191614158015611254575060408051336000908152602f60205291909120600190810180547fc5d2460186f7233c927e7db2dcc703c0e500b653ca82273b7bfad8045d85a4709391928291849160026101009183161591909102600019019091160480156112405780601f1061121e576101008083540402835291820191611240565b820191906000526020600020905b81548152906001019060200180831161122c575b505091505060405180910390206000191614155b151561125f57600080fd5b61126833613659565b50565b600054600160a060020a0316331461128257600080fd5b603c55565b60356020526000908152604090205481565b30315b90565b60425481565b600054600160a060020a031633146112bc57600080fd5b603a55565b603460205260009081526040902054600160a060020a031681565b6112e4615ac0565b60008054819081908190600160a060020a0316331461130257600080fd5b600092505b600554831015611434576040805160e0810182526000858152603360209081528382205483528682526034815283822054600160a060020a031681840152868252603580825284832054948401859052918790525260128054601193606084019291811061137157fe5b906000526020600020906005020160020154815260200160138660078110151561139757fe5b600490810291909101600290810154835260208084018990526039546040948501528554600180820188556000978852968290208651600790920201908155908501518187018054600160a060020a031916600160a060020a0390921691909117905592840151908301556060830151600383015560808301519082015560a0820151600582015560c09091015160069091015590920191611307565b603c5491505b603c54600554018210156116af5781935060118281548110151561145a57fe5b60009182526020918290206040805160e081018252600790930290910180548352600180820154600160a060020a0316948401949094526002810154918301919091526003810154606083015260048101546080830152600581015460a08301526006015460c08201529550820190505b603c54600554018110156115845760118054829081106114e757fe5b60009182526020909120600790910201548551111561157c57601180548290811061150e57fe5b60009182526020918290206040805160e0810182526007909302909101805483526001810154600160a060020a0316938301939093526002830154908201526003820154606082015260048201546080820152600582015460a082015260069091015460c082015294509250825b6001016114cb565b8382146116a457601180548390811061159957fe5b90600052602060002090600702016011858154811015156115b657fe5b6000918252602090912082546007909202019081556001808301549082018054600160a060020a031916600160a060020a0390921691909117905560028083015490820155600380830154908201556004808301549082015560058083015490820155600691820154910155601180548691908490811061163357fe5b600091825260209182902083516007929092020190815590820151600182018054600160a060020a031916600160a060020a0390921691909117905560408201516002820155606082015160038201556080820151600482015560a0820151600582015560c0909101516006909101555b60019091019061143a565b5050505050565b60075433903410156116c757600080fd5b600160a060020a0381166000908152602f60205260408082206003908101805462ff00001916620100001790553380845291909220909101805461ffff1916905560105460ff161561171857600080fd5b61172133612bf7565b5050565b6000611732600954613d07565b604080516020808252808201527f41736b696e6720666f722061206e6577206d7520706172616d657465722e2e2e8183015290517f096835e36c2ccea88ff2b3aca87dfc938b977e52ea656873ff76a8dba50d4d349181900360600190a16118076040805190810160405280600c81526020017f576f6c6672616d416c70686100000000000000000000000000000000000000008152506040805190810160405280600f81526020017f342072616e646f6d206e756d6265720000000000000000000000000000000000815250600854613eef565b60009081526030602052604090208054600160a060020a031916600160a060020a03939093169290921790915550565b61183f6142f4565b600160a060020a0316331461185357600080fd5b600082815260306020526040902054600160a060020a0316158015906118a15750600082815260306020908152604080832054600160a060020a03168352602f90915290206003015460ff16155b15611a3e57600082815260306020908152604080832054600160a060020a03168352602f825290912082516118d892840190615b07565b507f6a28dd23c76ba6cc6f4f148a0e2e0e147d8b876cb74ec1e5e2b8e9a8119eb702816040518080602001828103825283818151815260200191508051906020019080838360005b83811015611938578181015183820152602001611920565b50505050905090810190601f1680156119655780820380516001836020036101000a031916815260200191505b509250505060405180910390a160008281526030602090815260408083208054600160a060020a039081168552602f9093528184206003908101805460ff191660019081179091559154909316845292200154610100900460ff161515148015611a135750600082815260306020908152604080832054600160a060020a03168352602f90915290206003015460ff6201000090910416151560011480611a13575060105460ff1615156001145b15611a3957600082815260306020526040902054611a3990600160a060020a0316613659565b611721565b600082815260316020526040902054600160a060020a031615801590611a915750600082815260316020908152604080832054600160a060020a03168352602f909152902060030154610100900460ff16155b15611c2c57600082815260316020908152604080832054600160a060020a03168352602f82529091208251611ace92600190920191840190615b07565b507f716a554dec57e3a217a923b974660c0c8ebee07b09b1ac7d4a3a8f328d10cc89816040518080602001828103825283818151815260200191508051906020019080838360005b83811015611b2e578181015183820152602001611b16565b50505050905090810190601f168015611b5b5780820380516001836020036101000a031916815260200191505b509250505060405180910390a160008281526031602090815260408083208054600160a060020a039081168552602f9093528184206003908101805461ff00191661010017905590549092168352909120015460ff1615156001148015611c065750600082815260316020908152604080832054600160a060020a03168352602f90915290206003015460ff6201000090910416151560011480611c06575060105460ff1615156001145b15611a3957600082815260316020526040902054611a3990600160a060020a0316613659565b600082815260326020526040902054600160a060020a031615801590611c965750600082815260326020908152604080832054600160a060020a03168352602f90915290206003015460ff6201000090910416151560011480611c96575060105460ff1615156001145b1561172157611ca4816144e9565b600083815260326020908152604080832054600160a060020a03168352602f825280832060020193909355825181815284518183015284517f0efef3a277391dda0d5747fd15566e85fcd8a4fb588d9853173841e45cc5ae8a9486949293849391840192908601918190849084905b83811015611d2b578181015183820152602001611d13565b50505050905090810190601f168015611d585780820380516001836020036101000a031916815260200191505b509250505060405180910390a1600082815260326020908152604080832054600160a060020a03168352602f9091529020600301805462ff00001916905560105460ff16151560011415611dc757600082815260326020526040902054611a3990600160a060020a03166144fc565b60008281526032602052604090205461172190600160a060020a031661475d565b60105460ff1681565b611df9615aa1565b611e01615aa1565b60005b60055481101561102657600081815260346020526040902054600160a060020a031615611e7357600081815260356020526040902054601280549091908110611e4957fe5b9060005260206000209060050201600201548282600781101515611e6957fe5b6020020152611e87565b6000828260078110611e8157fe5b60200201525b600101611e04565b6000806000806013600160055403600781101515611ea957fe5b6004020160020154601286815481101515611ec057fe5b9060005260206000209060050201600201541115611f2f57600554600019019350611f2860138560078110611ef157fe5b6004020160020154601287815481101515611f0857fe5b90600052602060002090600502016002015461499890919063ffffffff16565b9250612075565b6015546012805487908110611f4057fe5b9060005260206000209060050201600201541015611fa55760009350611f28601286815481101515611f6e57fe5b906000526020600020906005020160020154601386600781101515611f8f57fe5b600402016002015461499890919063ffffffff16565b60138460078110611fb257fe5b6004020160020154601286815481101515611fc957fe5b9060005260206000209060050201600201541115611fec57600190930192611fa5565b60138460078110611ff957fe5b600402016002015460128681548110151561201057fe5b90600052602060002090600502016002015414156120315760009250612075565b6120456013600019860160078110611ef157fe5b9150612059601286815481101515611f6e57fe5b90508181111561207157600184039350819250612075565b8092505b600084815260346020526040902054600160a060020a031615806120a6575060008481526033602052604090205483105b156121415760128054869081106120b957fe5b60009182526020808320600360059093020191909101548683526034825260408084208054600160a060020a031916600160a060020a0390931692909217909155603382528083208690556035825291829020879055815187815291517fed4436a39d9a77d0c6c3be4f0e28f018750eb25c5c2d30ded16ef07ced4c00719281900390910190a15b8215156116af57601280548690811061215657fe5b6000918252602080832060036005909302019190910154603b548352603790915260409091208054600160a060020a031916600160a060020a0390921691909117905560128054869081106121a757fe5b6000918252602080832060026005909302019190910154603b8054845260368352604080852092909255805484526038909252909120869055805460010190555050505050565b6002805460408051602060018416156101000260001901909316849004601f810184900484028201840190925281815292918301828280156122715780601f1061224657610100808354040283529160200191612271565b820191906000526020600020905b81548152906001019060200180831161225457829003601f168201915b505050505081565b505050565b600054600160a060020a0316331461229557600080fd5b6010805460ff19811660ff90911615179055565b33600081815260446020526040808220805490839055905190929183156108fc02918491818181858888f19350505050158015611721573d6000803e3d6000fd5b600054600160a060020a0316331461230157600080fd5b61230961227e565b6123116112dc565b6123196137a5565b612321613357565b6039805460010190819055600554603c805491909202019055565b60008054600160a060020a0316331461235457600080fd5b50600a8054600160a060020a03838116600160a060020a0319831681179093556040805191909216602082018190528183019390935260608082526019908201527f456e74657270726973652077616c6c6574206368616e67656400000000000000608082015290517f223db053947bb148de510715d3c7d8ccd72bdd376752fd735ee7bd0bd0ece5bf9181900360a00190a15050565b602f6020908152600091825260409182902080548351601f600260001961010060018616150201909316929092049182018490048402810184019094528084529092918391908301828280156124825780601f1061245757610100808354040283529160200191612482565b820191906000526020600020905b81548152906001019060200180831161246557829003601f168201915b505050505090806001018054600181600116156101000203166002900480601f0160208091040260200160405190810160405280929190818152602001828054600181600116156101000203166002900480156125205780601f106124f557610100808354040283529160200191612520565b820191906000526020600020905b81548152906001019060200180831161250357829003601f168201915b50505050600283015460039093015491929160ff808216925061010082048116916201000090041686565b60018054604080516020600284861615610100026000190190941693909304601f810184900484028201840190925281815292918301828280156122715780601f1061224657610100808354040283529160200191612271565b60085481565b600b8054600160a060020a031916600160a060020a0392909216919091179055565b60055481565b600054600160a060020a031633146125ea57600080fd5b6040805160808101825285815260208101859052908101839052606081018290526013866007811061261857fe5b600402016000820151816000019080519060200190612638929190615b07565b5060208281015180516126519260018501920190615b07565b50604082015160028201556060909101516003909101555050505050565b6000806000806039541115612704575060055460395460001901025b600554603954028110156127045783600160a060020a03166011828154811015156126b257fe5b6000918252602090912060016007909202010154600160a060020a031614156126fc5760118054829081106126e357fe5b9060005260206000209060070201600001549150612704565b60010161268b565b5092915050565b600054600160a060020a0316331461272257600080fd5b60008054604051600160a060020a03909116917ff8df31144d9c2f0f6b59d69b8b98abd5459d07f2742c4df920b25aae33c6482091a260008054600160a060020a0319169055565b600654339034101561277b57600080fd5b336000818152602f60205260409020600301805461ffff1916905560105460ff161561171857600080fd5b600a54600160a060020a031681565b6127bd615b85565b6000805481908190600160a060020a031633146127d957600080fd5b5060005b600554811015612bf157915081601381600781106127f757fe5b6040805160049290920292909201805460a06020601f60026000196101006001871615020190941693909304928301819004028401810190945260808301818152929391928492909184918401828280156128935780601f1061286857610100808354040283529160200191612893565b820191906000526020600020905b81548152906001019060200180831161287657829003601f168201915b50505050508152602001600182018054600181600116156101000203166002900480601f0160208091040260200160405190810160405280929190818152602001828054600181600116156101000203166002900480156129355780601f1061290a57610100808354040283529160200191612935565b820191906000526020600020905b81548152906001019060200180831161291857829003601f168201915b505050505081526020016002820154815260200160038201548152505093508060010191505b600554821015612afe576013826007811061297257fe5b600402016002015484604001511115612af3576013826007811061299257fe5b6040805160049290920292909201805460a06020601f6002600019610100600187161502019094169390930492830181900402840181019094526080830181815292939192849290918491840182828015612a2e5780601f10612a0357610100808354040283529160200191612a2e565b820191906000526020600020905b815481529060010190602001808311612a1157829003601f168201915b50505050508152602001600182018054600181600116156101000203166002900480601f016020809104026020016040519081016040528092919081815260200182805460018160011615610100020316600290048015612ad05780601f10612aa557610100808354040283529160200191612ad0565b820191906000526020600020905b815481529060010190602001808311612ab357829003601f168201915b505050505081526020016002820154815260200160038201548152505093508192505b60019091019061295b565b828114612be95760138160078110612b1257fe5b6004020160138460078110612b2357fe5b6004020160008201816000019080546001816001161561010002031660029004612b4e929190615bae565b5060018201816001019080546001816001161561010002031660029004612b76929190615bae565b50600282810154908201556003918201549101558360138260078110612b9857fe5b600402016000820151816000019080519060200190612bb8929190615b07565b506020828101518051612bd19260018501920190615b07565b50604082015160028201556060909101516003909101555b6001016127dd565b50505050565b612c0081611725565b61126881613bf3565b603f54600160a060020a031681565b60008054600160a060020a03163314612c3057600080fd5b50600880549082905560408051602081018390528082018490526060808252601a908201527f4f7261636c697a6520676173206c696d6974206368616e67656400000000000060808201529051600080516020615c3e8339815191529181900360a00190a15050565b600054600160a060020a03163314612cb057600080fd5b600054600160a060020a0316ff5b60366020526000908152604090205481565b60008054600160a060020a03163314612ce857600080fd5b50600680549082905560408051602081018390528082018490526060808252601d908201527f47656e6572617465207469636b6574207072696365206368616e67656400000060808201529051600080516020615c3e8339815191529181900360a00190a15050565b60386020526000908152604090205481565b600054600160a060020a031681565b600054600160a060020a03163314612d8957600080fd5b60105460ff161515600114612d9d57600080fd5b600554603a541415612dc357612db16127b5565b6000603a55612dbe61227e565b612de7565b306000818152602f60205260409020600301805461ffff19169055612de790612bf7565b565b60138160078110612df657fe5b60040201805460408051602060026001851615610100026000190190941693909304601f81018490048402820184019092528181529293508391830182828015612e815780601f10612e5657610100808354040283529160200191612e81565b820191906000526020600020905b815481529060010190602001808311612e6457829003601f168201915b505050505090806001018054600181600116156101000203166002900480601f016020809104026020016040519081016040528092919081815260200182805460018160011615610100020316600290048015612f1f5780601f10612ef457610100808354040283529160200191612f1f565b820191906000526020600020905b815481529060010190602001808311612f0257829003601f168201915b5050505050908060020154908060030154905084565b603e54600160a060020a031681565b60415481565b60095481565b6003805460408051602060026001851615610100026000190190941693909304601f810184900484028201840190925281815292918301828280156122715780601f1061224657610100808354040283529160200191612271565b612fb3615aa1565b612fbb615aa1565b60005b60055481101561102657600081815260346020526040902054600160a060020a0316828260078110612fec57fe5b600160a060020a039092166020929092020152600101612fbe565b601280548290811061301557fe5b60009182526020918290206005919091020180546040805160026001841615610100026000190190931692909204601f8101859004850283018501909152808252919350918391908301828280156130ae5780601f10613083576101008083540402835291602001916130ae565b820191906000526020600020905b81548152906001019060200180831161309157829003601f168201915b505050505090806001018054600181600116156101000203166002900480601f01602080910402602001604051908101604052809291908181526020018280546001816001161561010002031660029004801561314c5780601f106131215761010080835404028352916020019161314c565b820191906000526020600020905b81548152906001019060200180831161312f57829003601f168201915b505050506002830154600384015460049094015492939092600160a060020a03909116915085565b6004805460408051602060026001851615610100026000190190941693909304601f810184900484028201840190925281815292918301828280156122715780601f1061224657610100808354040283529160200191612271565b600080548190600160a060020a031633146131e957600080fd5b6040805160a0810182528881526020808201899052918101879052600160a060020a03861660608201526080810185905260128054600181810180845560009390935283518051919593949360059093027fbb8a6a4669ba250d26cd7a459eca9d215f8307e33aebe50379bc5a3617ec3444019261326c92849290910190615b07565b5060208281015180516132859260018501920190615b07565b50604082015160028201556060820151600382018054600160a060020a031916600160a060020a0390921691909117905560809091015160049091015503603d555095945050505050565b603c5481565b60008054600160a060020a031633146132ee57600080fd5b506007805490829055604080516020810183905280820184905260608082526019908201527f53656c6c207469636b6574207072696365206368616e6765640000000000000060808201529051600080516020615c3e8339815191529181900360a00190a15050565b60005b6005548110156134ba576000818152603360209081526040808320839055603482528083208054600160a060020a031916905560358252808320929092558151808301909252600182527f300000000000000000000000000000000000000000000000000000000000000090820152601382600781106133d657fe5b6004020160000190805190602001906133f0929190615b07565b5060408051808201909152600181527f300000000000000000000000000000000000000000000000000000000000000060208201526013826007811061343257fe5b60040201600101908051906020019061344c929190615b07565b5060006013826007811061345c57fe5b600402016002018190555060395460138260078110151561347957fe5b60040201600301556000818152603660209081526040808320839055603782528083208054600160a060020a0319169055603890915281205560010161335a565b506000603b55565b603a5481565b60118054829081106134d657fe5b60009182526020909120600790910201805460018201546002830154600384015460048501546005860154600690960154949650600160a060020a039093169491939092919087565b60008054600160a060020a0316331461353757600080fd5b506005805490829055604080516020810183905280820184905260608082526019908201527f53656c6c207469636b6574207072696365206368616e6765640000000000000060808201529051600080516020615c3e8339815191529181900360a00190a15050565b60008054600160a060020a031633146135b857600080fd5b506009805490829055604080516020810183905280820184905260608082526021908201527f4f7261636c697a6520637573746f6d20676173207072696365206368616e676560808201527f640000000000000000000000000000000000000000000000000000000000000060a08201529051600080516020615c3e8339815191529181900360c00190a15050565b60065481565b60395481565b603b5481565b6000613666600954613d07565b604080516020808252601a908201527f41736b696e6720666f722061206e6577207469636b65742e2e2e0000000000008183015290517f096835e36c2ccea88ff2b3aca87dfc938b977e52ea656873ff76a8dba50d4d349181900360600190a16137106040805190810160405280600c81526020017f576f6c6672616d416c7068610000000000000000000000000000000000000000815250613708846149aa565b600854613eef565b60009081526032602052604090208054600160a060020a031916600160a060020a03939093169290921790915550565b60075481565b60336020526000908152604090205481565b603760205260009081526040902054600160a060020a031681565b600054600160a060020a0316331461378a57600080fd5b611268816152d9565b60446020526000908152604090205481565b6000805481908190819081908190600160a060020a031633146137c757600080fd5b603e54600160a060020a03908116600090815260446020526040808220829055603f548316825280822082905580549092168152908120556138113031600763ffffffff61534916565b955061382486600a63ffffffff61537216565b955061383786600663ffffffff61534916565b945061384a86600363ffffffff61534916565b935061385d86600163ffffffff61534916565b925061387085600a63ffffffff61537216565b945061388384600a63ffffffff61537216565b935061389683600a63ffffffff61537216565b9250603c5491505b603c546005540182101561397e576011805460009190849081106138be57fe5b6000918252602090912060016007909202010154600160a060020a0316146139735784604460006011858154811015156138f457fe5b6000918252602080832060016007909302019190910154600160a060020a031683528201929092526040019020805490910190556041859055601180548390811061393b57fe5b6000918252602090912060016007909202010154603e8054600160a060020a031916600160a060020a0390921691909117905561397e565b60019091019061389e565b6001909101905b603c5460055401821015613a65576011805460009190849081106139a557fe5b6000918252602090912060016007909202010154600160a060020a031614613a5a5783604460006011858154811015156139db57fe5b6000918252602080832060016007909302019190910154600160a060020a0316835282019290925260400190208054909101905560428490556011805483908110613a2257fe5b6000918252602090912060016007909202010154603f8054600160a060020a031916600160a060020a03909216919091179055613a65565b600190910190613985565b6001909101905b603c5460055401821015613b4c57601180546000919084908110613a8c57fe5b6000918252602090912060016007909202010154600160a060020a031614613b41578260446000601185815481101515613ac257fe5b6000918252602080832060016007909302019190910154600160a060020a0316835282019290925260400190208054909101905560438390556011805483908110613b0957fe5b600091825260209091206001600790920201015460408054600160a060020a031916600160a060020a03909216919091179055613b4c565b600190910190613a6c565b613b5e3031600363ffffffff61534916565b9050613b7181600a63ffffffff61537216565b600a54604051919250600160a060020a03169082156108fc029083906000818181858888f19350505050158015613bac573d6000803e3d6000fd5b50505050505050565b600054600160a060020a03163314613bcc57600080fd5b80600160a060020a0316ff5b603d5481565b60435481565b604054600160a060020a031681565b6000613c00600954613d07565b604080516020808252601f908201527f41736b696e6720666f722061206e6577206920706172616d657465722e2e2e008183015290517f096835e36c2ccea88ff2b3aca87dfc938b977e52ea656873ff76a8dba50d4d349181900360600190a1613cd76040805190810160405280600c81526020017f576f6c6672616d416c70686100000000000000000000000000000000000000008152506040805190810160405280600f81526020017f342072616e646f6d206e756d6265720000000000000000000000000000000000815250600854613eef565b60009081526031602052604090208054600160a060020a031916600160a060020a03939093169290921790915550565b600b54600160a060020a03161580613d315750600b54613d2f90600160a060020a0316615387565b155b15613d4257613d40600061538b565b505b600b60009054906101000a9004600160a060020a0316600160a060020a03166338cc48316040518163ffffffff1660e060020a028152600401602060405180830381600087803b158015613d9557600080fd5b505af1158015613da9573d6000803e3d6000fd5b505050506040513d6020811015613dbf57600080fd5b5051600c54600160a060020a03908116911614613e7557600b60009054906101000a9004600160a060020a0316600160a060020a03166338cc48316040518163ffffffff1660e060020a028152600401602060405180830381600087803b158015613e2957600080fd5b505af1158015613e3d573d6000803e3d6000fd5b505050506040513d6020811015613e5357600080fd5b5051600c8054600160a060020a031916600160a060020a039092169190911790555b600c54604080517fca6ad1e4000000000000000000000000000000000000000000000000000000008152600481018490529051600160a060020a039092169163ca6ad1e49160248082019260009290919082900301818387803b158015613edb57600080fd5b505af11580156116af573d6000803e3d6000fd5b600b546000908190600160a060020a03161580613f1e5750600b54613f1c90600160a060020a0316615387565b155b15613f2f57613f2d600061538b565b505b600b60009054906101000a9004600160a060020a0316600160a060020a03166338cc48316040518163ffffffff1660e060020a028152600401602060405180830381600087803b158015613f8257600080fd5b505af1158015613f96573d6000803e3d6000fd5b505050506040513d6020811015613fac57600080fd5b5051600c54600160a060020a0390811691161461406257600b60009054906101000a9004600160a060020a0316600160a060020a03166338cc48316040518163ffffffff1660e060020a028152600401602060405180830381600087803b15801561401657600080fd5b505af115801561402a573d6000803e3d6000fd5b505050506040513d602081101561404057600080fd5b5051600c8054600160a060020a031916600160a060020a039092169190911790555b600c54604080517f2ef3accc0000000000000000000000000000000000000000000000000000000081526024810186905260048101918252875160448201528751600160a060020a0390931692632ef3accc9289928892829160640190602086019080838360005b838110156140e25781810151838201526020016140ca565b50505050905090810190601f16801561410f5780820380516001836020036101000a031916815260200191505b509350505050602060405180830381600087803b15801561412f57600080fd5b505af1158015614143573d6000803e3d6000fd5b505050506040513d602081101561415957600080fd5b50519050670de0b6b3a76400003a84020181111561417a57600091506142ec565b600c546040517fc51be90f00000000000000000000000000000000000000000000000000000000815260006004820181815260648301879052608060248401908152895160848501528951600160a060020a039095169463c51be90f948794938c938c938c93604481019160a49091019060208801908083838c5b8381101561420d5781810151838201526020016141f5565b50505050905090810190601f16801561423a5780820380516001836020036101000a031916815260200191505b50838103825285518152855160209182019187019080838360005b8381101561426d578181015183820152602001614255565b50505050905090810190601f16801561429a5780820380516001836020036101000a031916815260200191505b5096505050505050506020604051808303818588803b1580156142bc57600080fd5b505af11580156142d0573d6000803e3d6000fd5b50505050506040513d60208110156142e757600080fd5b505191505b509392505050565b600b54600090600160a060020a031615806143215750600b5461431f90600160a060020a0316615387565b155b1561433257614330600061538b565b505b600b60009054906101000a9004600160a060020a0316600160a060020a03166338cc48316040518163ffffffff1660e060020a028152600401602060405180830381600087803b15801561438557600080fd5b505af1158015614399573d6000803e3d6000fd5b505050506040513d60208110156143af57600080fd5b5051600c54600160a060020a0390811691161461446557600b60009054906101000a9004600160a060020a0316600160a060020a03166338cc48316040518163ffffffff1660e060020a028152600401602060405180830381600087803b15801561441957600080fd5b505af115801561442d573d6000803e3d6000fd5b505050506040513d602081101561444357600080fd5b5051600c8054600160a060020a031916600160a060020a039092169190911790555b600c60009054906101000a9004600160a060020a0316600160a060020a031663c281d19e6040518163ffffffff1660e060020a028152600401602060405180830381600087803b1580156144b857600080fd5b505af11580156144cc573d6000803e3d6000fd5b505050506040513d60208110156144e257600080fd5b5051905090565b60006144f6826000615395565b92915050565b60408051600160a060020a0383166000908152602f602090815290839020805460026001821615610100026000190190911604601f8101839004909202830160a0908101909452608083018281529293849392908401828280156145a15780601f10614576576101008083540402835291602001916145a1565b820191906000526020600020905b81548152906001019060200180831161458457829003601f168201915b50505050508152602001602f600084600160a060020a0316600160a060020a031681526020019081526020016000206001018054600181600116156101000203166002900480601f0160208091040260200160405190810160405280929190818152602001828054600181600116156101000203166002900480156146675780601f1061463c57610100808354040283529160200191614667565b820191906000526020600020905b81548152906001019060200180831161464a57829003601f168201915b5050509183525050600160a060020a0383166000908152602f60209081526040918290206002015490830152603954910152603a54601390600781106146a957fe5b6004020160008201518160000190805190602001906146c9929190615b07565b5060208281015180516146e29260018501920190615b07565b50604082810151600280840191909155606090930151600390920191909155603a80546001019055600160a060020a0383166000908152602f60209081529082902090920154815190815290517fec2692b386f7e992f219e405f018eeaf8da1b95736760596812e564f2e709cfd929181900390910190a150565b60408051600160a060020a0383166000908152602f602090815283822080546002600180831615610100026000190190921604601f8101849004909302850160c090810190965260a08501838152939590946012949093849391928401828280156148095780601f106147de57610100808354040283529160200191614809565b820191906000526020600020905b8154815290600101906020018083116147ec57829003601f168201915b50505050508152602001602f600087600160a060020a0316600160a060020a031681526020019081526020016000206001018054600181600116156101000203166002900480601f0160208091040260200160405190810160405280929190818152602001828054600181600116156101000203166002900480156148cf5780601f106148a4576101008083540402835291602001916148cf565b820191906000526020600020905b8154815290600101906020018083116148b257829003601f168201915b5050509183525050600160a060020a0386166000818152602f60209081526040808320600201548286015284019290925260395460609093019290925283546001810180865594835291819020835180516005909402909101926149369284920190615b07565b50602082810151805161494f9260018501920190615b07565b50604082015160028201556060820151600382018054600160a060020a031916600160a060020a0390921691909117905560809091015160049091015503905061172181611e8f565b6000828211156149a457fe5b50900390565b604080518082018252600c81527f286d6f642828312f2831305e000000000000000000000000000000000000000060208083019190915260028054845160018216156101000260001901909116829004601f81018490048402820184019095528481526060948594614b819490939190830182828015614a6b5780601f10614a4057610100808354040283529160200191614a6b565b820191906000526020600020905b815481529060010190602001808311614a4e57829003601f168201915b505060408051808201825260018082527f2d00000000000000000000000000000000000000000000000000000000000000602080840191909152600160a060020a038d166000908152602f825284902080548551600294821615610100026000190190911693909304601f8101839004830284018301909552848352929650909450909250830182828015614b415780601f10614b1657610100808354040283529160200191614b41565b820191906000526020600020905b815481529060010190602001808311614b2457829003601f168201915b50505050506040805190810160405280600681526020017f29292a31305e0000000000000000000000000000000000000000000000000000815250615507565b60038054604080516020601f60026000196101006001881615020190951694909404938401819004810282018101909252828152939450614d1593859390929091830182828015614c135780601f10614be857610100808354040283529160200191614c13565b820191906000526020600020905b815481529060010190602001808311614bf657829003601f168201915b5050604080518082018252600581527f2c31305e2800000000000000000000000000000000000000000000000000000060208083019190915260048054845160026001831615610100026000190190921691909104601f8101849004840282018401909552848152929650919450909250830182828015614cd55780601f10614caa57610100808354040283529160200191614cd5565b820191906000526020600020905b815481529060010190602001808311614cb857829003601f168201915b50505050506040805190810160405280600181526020017f2b00000000000000000000000000000000000000000000000000000000000000815250615507565b9050614ed681602f600086600160a060020a0316600160a060020a031681526020019081526020016000206001018054600181600116156101000203166002900480601f016020809104026020016040519081016040528092919081815260200182805460018160011615610100020316600290048015614dd75780601f10614dac57610100808354040283529160200191614dd7565b820191906000526020600020905b815481529060010190602001808311614dba57829003601f168201915b5050604080518082018252600e81527f29292d6d6f642828312f2831305e00000000000000000000000000000000000060208083019190915260028054845160018216156101000260001901909116829004601f8101849004840282018401909552848152929650919450909250830182828015614e965780601f10614e6b57610100808354040283529160200191614e96565b820191906000526020600020905b815481529060010190602001808311614e7957829003601f168201915b50505050506040805190810160405280600181526020017f2d00000000000000000000000000000000000000000000000000000000000000815250615507565b600160a060020a0384166000908152602f602090815260409182902080548351601f6002600019610100600186161502019093169290920491820184900484028101840190945280845293945061507d93859392830182828015614f7b5780601f10614f5057610100808354040283529160200191614f7b565b820191906000526020600020905b815481529060010190602001808311614f5e57829003601f168201915b5050604080518082018252600681527f29292a31305e000000000000000000000000000000000000000000000000000060208083019190915260038054845160026001831615610100026000190190921691909104601f810184900484028201840190955284815292965091945090925083018282801561503d5780601f106150125761010080835404028352916020019161503d565b820191906000526020600020905b81548152906001019060200180831161502057829003601f168201915b50505050506040805190810160405280600481526020017f2c31305e00000000000000000000000000000000000000000000000000000000815250615507565b60408051808201825260018082527f2800000000000000000000000000000000000000000000000000000000000000602080840191909152600160a060020a0388166000908152602f8252849020820180548551600294821615610100026000190190911693909304601f810183900483028401830190955284835294955061523894869490918301828280156151555780601f1061512a57610100808354040283529160200191615155565b820191906000526020600020905b81548152906001019060200180831161513857829003601f168201915b5050604080518082018252600781527f2929292f31305e00000000000000000000000000000000000000000000000000602080830191909152600160a060020a038d166000908152602f8252839020600190810180548551600293821615610100026000190190911692909204601f8101849004840283018401909552848252929650945090925083018282801561522e5780601f106152035761010080835404028352916020019161522e565b820191906000526020600020905b81548152906001019060200180831161521157829003601f168201915b5050505050615507565b90507f261af219212047633bb60c8d0cc7e33d217c38edf6fa7e53acb97a3f94180de5816040518080602001828103825283818151815260200191508051906020019080838360005b83811015615299578181015183820152602001615281565b50505050905090810190601f1680156152c65780820380516001836020036101000a031916815260200191505b509250505060405180910390a192915050565b600160a060020a03811615156152ee57600080fd5b60008054604051600160a060020a03808516939216917f8be0079c531659141344cd1fd0a4f28419497f9722a3daafe3b4186f6b6457e091a360008054600160a060020a031916600160a060020a0392909216919091179055565b600082151561535a575060006144f6565b5081810281838281151561536a57fe5b04146144f657fe5b6000818381151561537f57fe5b049392505050565b3b90565b60006144f6615768565b6000828180805b83518110156154ea5783517f3000000000000000000000000000000000000000000000000000000000000000908590839081106153d557fe5b90602001015160f860020a900460f860020a02600160f860020a0319161015801561544b575083517f39000000000000000000000000000000000000000000000000000000000000009085908390811061542b57fe5b90602001015160f860020a900460f860020a02600160f860020a03191611155b156154a457811561546a57851515615462576154ea565b600019909501945b600a830292506030848281518110151561548057fe5b90602001015160f860020a900460f860020a0260f860020a900403830192506154e2565b83818151811015156154b257fe5b90602001015160f860020a900460f860020a02600160f860020a031916602e60f860020a0214156154e257600191505b60010161539c565b60008611156154fc5785600a0a830292505b509095945050505050565b6060806060806060806060806000808e98508d97508c96508b95508a94508451865188518a518c51010101016040519080825280601f01601f191660200182016040528015615560578160200160208202803883390190505b50935083925060009150600090505b88518110156155cd57888181518110151561558657fe5b90602001015160f860020a900460f860020a0283838060010194508151811015156155ad57fe5b906020010190600160f860020a031916908160001a90535060010161556f565b5060005b875181101561562f5787818151811015156155e857fe5b90602001015160f860020a900460f860020a02838380600101945081518110151561560f57fe5b906020010190600160f860020a031916908160001a9053506001016155d1565b5060005b865181101561569157868181518110151561564a57fe5b90602001015160f860020a900460f860020a02838380600101945081518110151561567157fe5b906020010190600160f860020a031916908160001a905350600101615633565b5060005b85518110156156f35785818151811015156156ac57fe5b90602001015160f860020a900460f860020a0283838060010194508151811015156156d357fe5b906020010190600160f860020a031916908160001a905350600101615695565b5060005b845181101561575557848181518110151561570e57fe5b90602001015160f860020a900460f860020a02838380600101945081518110151561573557fe5b906020010190600160f860020a031916908160001a9053506001016156f7565b50909d9c50505050505050505050505050565b600080615788731d3b2638a7cc9f2cb3d298a3da7a90b67e5506ed615387565b11156157f857600b8054600160a060020a031916731d3b2638a7cc9f2cb3d298a3da7a90b67e5506ed178155604080518082019091529081527f6574685f6d61696e6e657400000000000000000000000000000000000000000060208201526157f090615a8e565b50600161129c565b600061581773c03a2615d5efaf5f49f60b7bb6583eaec212fdf1615387565b111561588057600b8054600160a060020a03191673c03a2615d5efaf5f49f60b7bb6583eaec212fdf117905560408051808201909152600c81527f6574685f726f707374656e33000000000000000000000000000000000000000060208201526157f090615a8e565b600061589f73b7a07bcf2ba2f2703b24c0691b5278999c59ac7e615387565b111561590857600b8054600160a060020a03191673b7a07bcf2ba2f2703b24c0691b5278999c59ac7e17905560408051808201909152600981527f6574685f6b6f76616e000000000000000000000000000000000000000000000060208201526157f090615a8e565b600061592773146500cfd35b22e4a392fe0adc06de1a1368ed48615387565b111561598f57600b8054600160a060020a03191673146500cfd35b22e4a392fe0adc06de1a1368ed48178155604080518082019091529081527f6574685f72696e6b65627900000000000000000000000000000000000000000060208201526157f090615a8e565b60006159ae736f485c8bf6fc43ea212e93bbf8ce046c7f1cb475615387565b11156159e25750600b8054600160a060020a031916736f485c8bf6fc43ea212e93bbf8ce046c7f1cb475179055600161129c565b6000615a017320e12a1f859b3feae5fb2a0a32c18f5a65555bbf615387565b1115615a355750600b8054600160a060020a0319167320e12a1f859b3feae5fb2a0a32c18f5a65555bbf179055600161129c565b6000615a547351efaf4c8b3c9afbd5ab9f4bbc82784ab6ef8faa615387565b1115615a885750600b8054600160a060020a0319167351efaf4c8b3c9afbd5ab9f4bbc82784ab6ef8faa179055600161129c565b50600090565b805161172190600d906020840190615b07565b60e0604051908101604052806007906020820280388339509192915050565b60e060405190810160405280600081526020016000600160a060020a0316815260200160008152602001600081526020016000815260200160008152602001600081525090565b828054600181600116156101000203166002900490600052602060002090601f016020900481019282601f10615b4857805160ff1916838001178555615b75565b82800160010185558215615b75579182015b82811115615b75578251825591602001919060010190615b5a565b50615b81929150615c23565b5090565b608060405190810160405280606081526020016060815260200160008152602001600081525090565b828054600181600116156101000203166002900490600052602060002090601f016020900481019282601f10615be75780548555615b75565b82800160010185558215615b7557600052602060002091601f016020900482015b82811115615b75578254825591600101919060010190615c08565b61129c91905b80821115615b815760008155600101615c2956009bc068999fb1a0aac007a9b44ca6322a376441f42706bf5163600bb3d1a73164a165627a7a723058202539af8e4d6e9b5e68915b6a90b2cc3a3ef3277896e78040d8ec5464d4b5003f0029",
  "source": "/**\n  * @author Matias Barrios\n  * @version 1.0\n  */\n\n/** @title Lucky7FrontFunctions. \n  * This contract contains all the functions to interact with front end.\n*/\n\npragma solidity ^0.4.20;\n\nimport \"./Lucky7Store.sol\";\n\ncontract Lucky7FrontEndFunctions is Lucky7Store{\n    function Lucky7FrontEndFunctions() payable {\n        \n    }\n\n    /** @dev Function to get the contract balance\n    */\n    function getBalance() public view returns(uint){\n        return address(this).balance;\n    }\n    /** @dev Function to get the lucky7NumbersArray, i.e. the array which contains the Lucky7Numbers\n      */\n    function getlucky7Numbers() public view returns (uint[7]) {\n        uint[7] memory luckySevenNumbers;\n        for(uint i=0; i<numberOfLucky7Numbers; i++){\n            luckySevenNumbers[i]=lucky7NumbersArray[i].ticketValue;\n        }\n        return luckySevenNumbers;\n    }\n    \n    /** @dev Function to get the lucky7Tickets, i.e. the mapping which contains the Lucky7Tickets\n      * @return an array containing the value of the Lucky7Ticket, i.e. the value of the user ticket\n      */\n    function getlucky7TicketsValue() public view returns (uint[7]) {\n        uint[7] memory luckySevenTickets;\n        for(uint i=0; i<numberOfLucky7Numbers; i++){\n            if(lucky7TicketOwner[i]!=address(0x0)){\n                luckySevenTickets[i] = ticketsArray[lucky7TicketID[i]].ticketValue;\n            }\n            else{\n                luckySevenTickets[i]=0;\n            }\n        }\n        return luckySevenTickets;\n    }\n\n    /** @dev Function to get the lucky7TicketDiffernce, i.e. the mapping which contains the difference between\n      * Lucky7Tickets[i] and Lucky7Number[i] in absolut value\n      * @return an array containing those differences\n      */\n    function getLucky7TicketDifference() public view returns (uint[7]) {\n        uint[7] memory luckySevenTicketDifference;\n        for(uint i=0; i<numberOfLucky7Numbers; i++){\n            if(lucky7TicketOwner[i]!=address(0x0)){\n                luckySevenTicketDifference[i] = lucky7TicketDifference[i];\n            }\n            else{\n                luckySevenTicketDifference[i]=123456789012345678907;\n            }\n        }\n        return luckySevenTicketDifference;\n    }\n\n    /** @dev Function to get the lucky7TicketOwner, i.e. the mapping which contains the owners\n      * of the Lucky7Tickets\n      * @return an array containing those differences\n      */\n    function getLucky7TicketOwner() public view returns (address[7]) {\n        address[7] memory luckySevenTicketOwner;\n        for(uint i=0; i<numberOfLucky7Numbers; i++){\n            luckySevenTicketOwner[i] = lucky7TicketOwner[i];\n        }\n        return luckySevenTicketOwner;\n    }\n\n    /** @dev Function to get the difference of the Lucky7Ticket that belogs to an user.\n      * @param _lucky7TicketOwner is the owner which we want to know the difference\n      */\n    function getLastLucky7Difference(address _lucky7TicketOwner) public view returns (uint) {\n        uint difference;\n        if(drawNumber>0){\n          for(uint i=(drawNumber-1)*numberOfLucky7Numbers; i<drawNumber*numberOfLucky7Numbers; i++){\n            if(lucky7TicketsArray[i].owner == _lucky7TicketOwner){\n              difference = lucky7TicketsArray[i].difference;\n              break;\n            }\n          }\n        }\n        \n        return difference;\n    }\n}",
  "sourcePath": "/Users/matiasbarrios/Desktop/Proyecto Consensys/luckyseven/contracts/Lucky7FrontEndFunctions.sol",
  "compiler": {
    "name": "solc",
    "version": "0.4.24+commit.e67f0147.Emscripten.clang"
  },
  "schemaVersion": "2.0.1",
  "updatedAt": "2018-09-03T00:44:21.834Z"
}