{
  "contractName": "Lucky7TicketFactory",
  "abi": [
    {
      "constant": false,
      "inputs": [
        {
          "name": "_newValue",
          "type": "string"
        }
      ],
      "name": "modifyParameterN",
      "outputs": [],
      "payable": false,
      "stateMutability": "nonpayable",
      "type": "function"
    },
    {
      "constant": true,
      "inputs": [
        {
          "name": "",
          "type": "uint256"
        }
      ],
      "name": "lucky7TicketID",
      "outputs": [
        {
          "name": "",
          "type": "uint256"
        }
      ],
      "payable": false,
      "stateMutability": "view",
      "type": "function"
    },
    {
      "constant": true,
      "inputs": [
        {
          "name": "",
          "type": "uint256"
        }
      ],
      "name": "lucky7TicketOwner",
      "outputs": [
        {
          "name": "",
          "type": "address"
        }
      ],
      "payable": false,
      "stateMutability": "view",
      "type": "function"
    },
    {
      "constant": true,
      "inputs": [],
      "name": "settingLucky7Numbers",
      "outputs": [
        {
          "name": "",
          "type": "bool"
        }
      ],
      "payable": false,
      "stateMutability": "view",
      "type": "function"
    },
    {
      "constant": true,
      "inputs": [],
      "name": "n",
      "outputs": [
        {
          "name": "",
          "type": "string"
        }
      ],
      "payable": false,
      "stateMutability": "view",
      "type": "function"
    },
    {
      "constant": true,
      "inputs": [
        {
          "name": "",
          "type": "uint256"
        }
      ],
      "name": "lucky7Tickets",
      "outputs": [
        {
          "name": "difference",
          "type": "uint256"
        },
        {
          "name": "owner",
          "type": "address"
        },
        {
          "name": "ticketID",
          "type": "uint256"
        },
        {
          "name": "ticketValue",
          "type": "uint256"
        },
        {
          "name": "lucky7Number",
          "type": "uint256"
        },
        {
          "name": "lucky7NumberID",
          "type": "uint256"
        },
        {
          "name": "drawID",
          "type": "uint256"
        }
      ],
      "payable": false,
      "stateMutability": "view",
      "type": "function"
    },
    {
      "constant": false,
      "inputs": [
        {
          "name": "_newValue",
          "type": "string"
        }
      ],
      "name": "modifyParameterJ",
      "outputs": [],
      "payable": false,
      "stateMutability": "nonpayable",
      "type": "function"
    },
    {
      "constant": true,
      "inputs": [
        {
          "name": "",
          "type": "uint256"
        }
      ],
      "name": "lucky7Numbers",
      "outputs": [
        {
          "name": "mu",
          "type": "string"
        },
        {
          "name": "i",
          "type": "string"
        },
        {
          "name": "ticketValue",
          "type": "uint256"
        },
        {
          "name": "drawID",
          "type": "uint256"
        }
      ],
      "payable": false,
      "stateMutability": "view",
      "type": "function"
    },
    {
      "constant": false,
      "inputs": [
        {
          "name": "_newAddress",
          "type": "address"
        }
      ],
      "name": "modifyEnterpriseWallet",
      "outputs": [],
      "payable": false,
      "stateMutability": "nonpayable",
      "type": "function"
    },
    {
      "constant": true,
      "inputs": [
        {
          "name": "",
          "type": "address"
        }
      ],
      "name": "userValues",
      "outputs": [
        {
          "name": "mu",
          "type": "string"
        },
        {
          "name": "i",
          "type": "string"
        },
        {
          "name": "ticketValue",
          "type": "uint256"
        },
        {
          "name": "muReady",
          "type": "bool"
        },
        {
          "name": "iReady",
          "type": "bool"
        },
        {
          "name": "userPaidTicket",
          "type": "bool"
        }
      ],
      "payable": false,
      "stateMutability": "view",
      "type": "function"
    },
    {
      "constant": true,
      "inputs": [],
      "name": "b",
      "outputs": [
        {
          "name": "",
          "type": "string"
        }
      ],
      "payable": false,
      "stateMutability": "view",
      "type": "function"
    },
    {
      "constant": true,
      "inputs": [
        {
          "name": "",
          "type": "uint256"
        }
      ],
      "name": "tickets",
      "outputs": [
        {
          "name": "mu",
          "type": "string"
        },
        {
          "name": "i",
          "type": "string"
        },
        {
          "name": "ticketValue",
          "type": "uint256"
        },
        {
          "name": "owner",
          "type": "address"
        },
        {
          "name": "drawID",
          "type": "uint256"
        }
      ],
      "payable": false,
      "stateMutability": "view",
      "type": "function"
    },
    {
      "constant": true,
      "inputs": [],
      "name": "oraclizeGasLimit",
      "outputs": [
        {
          "name": "",
          "type": "uint256"
        }
      ],
      "payable": false,
      "stateMutability": "view",
      "type": "function"
    },
    {
      "constant": true,
      "inputs": [],
      "name": "numberOfLucky7Numbers",
      "outputs": [
        {
          "name": "",
          "type": "uint256"
        }
      ],
      "payable": false,
      "stateMutability": "view",
      "type": "function"
    },
    {
      "constant": false,
      "inputs": [],
      "name": "renounceOwnership",
      "outputs": [],
      "payable": false,
      "stateMutability": "nonpayable",
      "type": "function"
    },
    {
      "constant": true,
      "inputs": [],
      "name": "enterpriseWallet",
      "outputs": [
        {
          "name": "",
          "type": "address"
        }
      ],
      "payable": false,
      "stateMutability": "view",
      "type": "function"
    },
    {
      "constant": false,
      "inputs": [
        {
          "name": "_newValue",
          "type": "uint256"
        }
      ],
      "name": "modifyOraclizeGasLimit",
      "outputs": [],
      "payable": false,
      "stateMutability": "nonpayable",
      "type": "function"
    },
    {
      "constant": false,
      "inputs": [
        {
          "name": "_newValue",
          "type": "string"
        }
      ],
      "name": "modifyParameterB",
      "outputs": [],
      "payable": false,
      "stateMutability": "nonpayable",
      "type": "function"
    },
    {
      "constant": false,
      "inputs": [
        {
          "name": "_newValue",
          "type": "uint256"
        }
      ],
      "name": "modifyGenerateTicketPrice",
      "outputs": [],
      "payable": false,
      "stateMutability": "nonpayable",
      "type": "function"
    },
    {
      "constant": true,
      "inputs": [],
      "name": "owner",
      "outputs": [
        {
          "name": "",
          "type": "address"
        }
      ],
      "payable": false,
      "stateMutability": "view",
      "type": "function"
    },
    {
      "constant": true,
      "inputs": [],
      "name": "oraclizeCustomGasPrice",
      "outputs": [
        {
          "name": "",
          "type": "uint256"
        }
      ],
      "payable": false,
      "stateMutability": "view",
      "type": "function"
    },
    {
      "constant": true,
      "inputs": [],
      "name": "p",
      "outputs": [
        {
          "name": "",
          "type": "string"
        }
      ],
      "payable": false,
      "stateMutability": "view",
      "type": "function"
    },
    {
      "constant": false,
      "inputs": [
        {
          "name": "_newValue",
          "type": "string"
        }
      ],
      "name": "modifyParameterP",
      "outputs": [],
      "payable": false,
      "stateMutability": "nonpayable",
      "type": "function"
    },
    {
      "constant": true,
      "inputs": [],
      "name": "j",
      "outputs": [
        {
          "name": "",
          "type": "string"
        }
      ],
      "payable": false,
      "stateMutability": "view",
      "type": "function"
    },
    {
      "constant": true,
      "inputs": [],
      "name": "balance",
      "outputs": [
        {
          "name": "",
          "type": "uint256"
        }
      ],
      "payable": false,
      "stateMutability": "view",
      "type": "function"
    },
    {
      "constant": false,
      "inputs": [
        {
          "name": "_newValue",
          "type": "uint256"
        }
      ],
      "name": "modifySellTicketPrice",
      "outputs": [],
      "payable": false,
      "stateMutability": "nonpayable",
      "type": "function"
    },
    {
      "constant": true,
      "inputs": [],
      "name": "indexForLucky7Array",
      "outputs": [
        {
          "name": "",
          "type": "uint256"
        }
      ],
      "payable": false,
      "stateMutability": "view",
      "type": "function"
    },
    {
      "constant": false,
      "inputs": [
        {
          "name": "_newValue",
          "type": "uint256"
        }
      ],
      "name": "modifyNumberOfLucky7Numbers",
      "outputs": [],
      "payable": false,
      "stateMutability": "nonpayable",
      "type": "function"
    },
    {
      "constant": false,
      "inputs": [
        {
          "name": "_newValue",
          "type": "uint256"
        }
      ],
      "name": "modifyOraclizeCustomGasPrice",
      "outputs": [],
      "payable": false,
      "stateMutability": "nonpayable",
      "type": "function"
    },
    {
      "constant": true,
      "inputs": [],
      "name": "generateTicketPrice",
      "outputs": [
        {
          "name": "",
          "type": "uint256"
        }
      ],
      "payable": false,
      "stateMutability": "view",
      "type": "function"
    },
    {
      "constant": true,
      "inputs": [],
      "name": "drawNumber",
      "outputs": [
        {
          "name": "",
          "type": "uint256"
        }
      ],
      "payable": false,
      "stateMutability": "view",
      "type": "function"
    },
    {
      "constant": true,
      "inputs": [],
      "name": "sellTicketPrice",
      "outputs": [
        {
          "name": "",
          "type": "uint256"
        }
      ],
      "payable": false,
      "stateMutability": "view",
      "type": "function"
    },
    {
      "constant": true,
      "inputs": [
        {
          "name": "",
          "type": "uint256"
        }
      ],
      "name": "lucky7TicketDifference",
      "outputs": [
        {
          "name": "",
          "type": "uint256"
        }
      ],
      "payable": false,
      "stateMutability": "view",
      "type": "function"
    },
    {
      "constant": false,
      "inputs": [
        {
          "name": "_newOwner",
          "type": "address"
        }
      ],
      "name": "transferOwnership",
      "outputs": [],
      "payable": false,
      "stateMutability": "nonpayable",
      "type": "function"
    },
    {
      "inputs": [],
      "payable": true,
      "stateMutability": "payable",
      "type": "constructor"
    },
    {
      "payable": true,
      "stateMutability": "payable",
      "type": "fallback"
    },
    {
      "anonymous": false,
      "inputs": [
        {
          "indexed": false,
          "name": "description",
          "type": "string"
        }
      ],
      "name": "NewOraclizeQuery",
      "type": "event"
    },
    {
      "anonymous": false,
      "inputs": [
        {
          "indexed": false,
          "name": "muParameter",
          "type": "string"
        }
      ],
      "name": "NewMuReceived",
      "type": "event"
    },
    {
      "anonymous": false,
      "inputs": [
        {
          "indexed": false,
          "name": "iParameter",
          "type": "string"
        }
      ],
      "name": "NewIReceived",
      "type": "event"
    },
    {
      "anonymous": false,
      "inputs": [
        {
          "indexed": false,
          "name": "newTicket",
          "type": "string"
        }
      ],
      "name": "NewTicketReceived",
      "type": "event"
    },
    {
      "anonymous": false,
      "inputs": [
        {
          "indexed": false,
          "name": "description",
          "type": "string"
        }
      ],
      "name": "NewWolframQuery",
      "type": "event"
    },
    {
      "anonymous": false,
      "inputs": [
        {
          "indexed": false,
          "name": "ticketID",
          "type": "uint256"
        }
      ],
      "name": "NewLucky7Ticket",
      "type": "event"
    },
    {
      "anonymous": false,
      "inputs": [
        {
          "indexed": false,
          "name": "value",
          "type": "uint256"
        }
      ],
      "name": "NewLucky7Number",
      "type": "event"
    },
    {
      "anonymous": false,
      "inputs": [
        {
          "indexed": false,
          "name": "feeType",
          "type": "string"
        },
        {
          "indexed": false,
          "name": "_oldValue",
          "type": "uint256"
        },
        {
          "indexed": false,
          "name": "_newValue",
          "type": "uint256"
        }
      ],
      "name": "numberModified",
      "type": "event"
    },
    {
      "anonymous": false,
      "inputs": [
        {
          "indexed": false,
          "name": "parameter",
          "type": "string"
        },
        {
          "indexed": false,
          "name": "_oldValue",
          "type": "string"
        },
        {
          "indexed": false,
          "name": "_newValue",
          "type": "string"
        }
      ],
      "name": "parameterModified",
      "type": "event"
    },
    {
      "anonymous": false,
      "inputs": [
        {
          "indexed": false,
          "name": "parameter",
          "type": "string"
        },
        {
          "indexed": false,
          "name": "_oldValue",
          "type": "address"
        },
        {
          "indexed": false,
          "name": "_newValue",
          "type": "address"
        }
      ],
      "name": "walletModified",
      "type": "event"
    },
    {
      "anonymous": false,
      "inputs": [
        {
          "indexed": true,
          "name": "previousOwner",
          "type": "address"
        }
      ],
      "name": "OwnershipRenounced",
      "type": "event"
    },
    {
      "anonymous": false,
      "inputs": [
        {
          "indexed": true,
          "name": "previousOwner",
          "type": "address"
        },
        {
          "indexed": true,
          "name": "newOwner",
          "type": "address"
        }
      ],
      "name": "OwnershipTransferred",
      "type": "event"
    },
    {
      "constant": false,
      "inputs": [],
      "name": "toggleLucky7Setting",
      "outputs": [],
      "payable": false,
      "stateMutability": "nonpayable",
      "type": "function"
    },
    {
      "constant": false,
      "inputs": [
        {
          "name": "_ticketOwner",
          "type": "address"
        }
      ],
      "name": "_askForMuParameter",
      "outputs": [],
      "payable": true,
      "stateMutability": "payable",
      "type": "function"
    },
    {
      "constant": false,
      "inputs": [
        {
          "name": "_ticketOwner",
          "type": "address"
        }
      ],
      "name": "_askForIParameter",
      "outputs": [],
      "payable": false,
      "stateMutability": "nonpayable",
      "type": "function"
    },
    {
      "constant": false,
      "inputs": [
        {
          "name": "_ticketOwner",
          "type": "address"
        }
      ],
      "name": "_askForTicket",
      "outputs": [],
      "payable": false,
      "stateMutability": "nonpayable",
      "type": "function"
    },
    {
      "constant": false,
      "inputs": [
        {
          "name": "_ticketOwner",
          "type": "address"
        }
      ],
      "name": "_generateTicket",
      "outputs": [],
      "payable": false,
      "stateMutability": "nonpayable",
      "type": "function"
    },
    {
      "constant": false,
      "inputs": [
        {
          "name": "_ticketID",
          "type": "uint256"
        }
      ],
      "name": "_checkForLucky7Ticket",
      "outputs": [],
      "payable": false,
      "stateMutability": "nonpayable",
      "type": "function"
    },
    {
      "constant": false,
      "inputs": [
        {
          "name": "myid",
          "type": "bytes32"
        },
        {
          "name": "result",
          "type": "string"
        }
      ],
      "name": "__callback",
      "outputs": [],
      "payable": false,
      "stateMutability": "nonpayable",
      "type": "function"
    },
    {
      "constant": false,
      "inputs": [
        {
          "name": "myid",
          "type": "bytes32"
        },
        {
          "name": "result",
          "type": "string"
        },
        {
          "name": "proof",
          "type": "bytes"
        }
      ],
      "name": "__callback",
      "outputs": [],
      "payable": false,
      "stateMutability": "nonpayable",
      "type": "function"
    }
  ],
  "bytecode": "0x60c0604052600160808190527f310000000000000000000000000000000000000000000000000000000000000060a09081526200003e919081620001a5565b506040805180820190915260018082527f380000000000000000000000000000000000000000000000000000000000000060209092019182526200008591600291620001a5565b506040805180820190915260058082527f31303030300000000000000000000000000000000000000000000000000000006020909201918252620000cc91600391620001a5565b506040805180820190915260028082527f323000000000000000000000000000000000000000000000000000000000000060209092019182526200011391600491620001a5565b50600760058190556611c37937e08000600655662aa1efb94e00009055620493e060085563ee6b280060095560008054600a8054600160a060020a0319908116600160a060020a03841617909155601083905560118390556012805460ff191660011790559081163317909155600b805490911673de6ddb95052e8072de64d814077148b95e43e1e01790556200024a565b828054600181600116156101000203166002900490600052602060002090601f016020900481019282601f10620001e857805160ff191683800117855562000218565b8280016001018555821562000218579182015b8281111562000218578251825591602001919060010190620001fb565b50620002269291506200022a565b5090565b6200024791905b8082111562000226576000815560010162000231565b90565b6145a5806200025a6000396000f3006080604052600436106101ea5763ffffffff60e060020a6000350416630cc38b2b81146101ec57806310cd4b8a146102455780631c3ed1d31461026f57806323d370ba146102a357806327dc297e146102b75780632caf9eee146103155780632de729eb1461033e5780632e52d6061461035657806338bbfa50146103e0578063396fb4221461047c57806339df3f4f146104d45780633bb7daf4146104e95780633eba34661461054257806349f6b030146106465780634acfd9b8146106675780634df7e3d01461078657806350b447121461079b57806350b9c428146108ae57806359f9fe82146108c3578063715018a6146108d8578063741606b5146108ed57806377d8a83014610902578063809fc1531461092357806383bb7bb71461093b5780638aa5fafa146109945780638da5cb5b146109ac5780639ac2bf91146109c15780639ae8886a146109d65780639dec38ab146109eb578063b582ec5f14610a44578063b69ef8a814610a59578063bcb740ab14610a6e578063c56969ab14610a86578063c71f04ac14610a9b578063d383e86214610ab3578063d566bcf014610acb578063d80ffb2014610ae0578063ddc110fa14610af5578063e5663c4814610b16578063e802ae1414610b2b578063f2fde38b14610b43578063fd9be1b214610b64575b005b3480156101f857600080fd5b506040805160206004803580820135601f81018490048402850184019095528484526101ea943694929360249392840191908190840183828082843750949750610b859650505050505050565b34801561025157600080fd5b5061025d600435610d6a565b60408051918252519081900360200190f35b34801561027b57600080fd5b50610287600435610d7c565b60408051600160a060020a039092168252519081900360200190f35b6101ea600160a060020a0360043516610d97565b3480156102c357600080fd5b5060408051602060046024803582810135601f81018590048502860185019096528585526101ea958335953695604494919390910191908190840183828082843750949750610ea99650505050505050565b34801561032157600080fd5b5061032a61145e565b604080519115158252519081900360200190f35b34801561034a57600080fd5b506101ea600435611467565b34801561036257600080fd5b5061036b6116db565b6040805160208082528351818301528351919283929083019185019080838360005b838110156103a557818101518382015260200161038d565b50505050905090810190601f1680156103d25780820380516001836020036101000a031916815260200191505b509250505060405180910390f35b3480156103ec57600080fd5b5060408051602060046024803582810135601f81018590048502860185019096528585526101ea95833595369560449491939091019190819084018382808284375050604080516020601f89358b018035918201839004830284018301909452808352979a9998810197919650918201945092508291508401838280828437509497506117669650505050505050565b34801561048857600080fd5b5061049460043561176b565b60408051978852600160a060020a039096166020880152868601949094526060860192909252608085015260a084015260c0830152519081900360e00190f35b3480156104e057600080fd5b506101ea6117c2565b3480156104f557600080fd5b506040805160206004803580820135601f81018490048402850184019095528484526101ea9436949293602493928401919081908401838280828437509497506117ed9650505050505050565b34801561054e57600080fd5b5061055a600435611933565b604051808060200180602001858152602001848152602001838103835287818151815260200191508051906020019080838360005b838110156105a757818101518382015260200161058f565b50505050905090810190601f1680156105d45780820380516001836020036101000a031916815260200191505b50838103825286518152865160209182019188019080838360005b838110156106075781810151838201526020016105ef565b50505050905090810190601f1680156106345780820380516001836020036101000a031916815260200191505b50965050505050505060405180910390f35b34801561065257600080fd5b506101ea600160a060020a0360043516611a7f565b34801561067357600080fd5b50610688600160a060020a0360043516611b2e565b604080519081018590528315156060820152821515608082015281151560a082015260c08082528751908201528651819060208083019160e08401918b019080838360005b838110156106e55781810151838201526020016106cd565b50505050905090810190601f1680156107125780820380516001836020036101000a031916815260200191505b5083810382528851815288516020918201918a019080838360005b8381101561074557818101518382015260200161072d565b50505050905090810190601f1680156107725780820380516001836020036101000a031916815260200191505b509850505050505050505060405180910390f35b34801561079257600080fd5b5061036b611c8e565b3480156107a757600080fd5b506107b3600435611ce8565b60408051908101849052600160a060020a03831660608201526080810182905260a08082528651908201528551819060208083019160c08401918a019080838360005b8381101561080e5781810151838201526020016107f6565b50505050905090810190601f16801561083b5780820380516001836020036101000a031916815260200191505b50838103825287518152875160209182019189019080838360005b8381101561086e578181015183820152602001610856565b50505050905090810190601f16801561089b5780820380516001836020036101000a031916815260200191505b5097505050505050505060405180910390f35b3480156108ba57600080fd5b5061025d611e55565b3480156108cf57600080fd5b5061025d611e5b565b3480156108e457600080fd5b506101ea611e61565b3480156108f957600080fd5b50610287611ec0565b34801561090e57600080fd5b506101ea600160a060020a0360043516611ecf565b34801561092f57600080fd5b506101ea600435611ee4565b34801561094757600080fd5b506040805160206004803580820135601f81018490048402850184019095528484526101ea943694929360249392840191908190840183828082843750949750611f659650505050505050565b3480156109a057600080fd5b506101ea6004356120aa565b3480156109b857600080fd5b5061028761212b565b3480156109cd57600080fd5b5061025d61213a565b3480156109e257600080fd5b5061036b612140565b3480156109f757600080fd5b506040805160206004803580820135601f81018490048402850184019095528484526101ea94369492936024939284019190819084018382808284375094975061219b9650505050505050565b348015610a5057600080fd5b5061036b6122e1565b348015610a6557600080fd5b5061025d61233c565b348015610a7a57600080fd5b506101ea60043561235b565b348015610a9257600080fd5b5061025d6123dc565b348015610aa757600080fd5b506101ea6004356123e2565b348015610abf57600080fd5b506101ea600435612463565b348015610ad757600080fd5b5061025d61250a565b348015610aec57600080fd5b5061025d612510565b348015610b0157600080fd5b506101ea600160a060020a0360043516612516565b348015610b2257600080fd5b5061025d6125fd565b348015610b3757600080fd5b5061025d600435612603565b348015610b4f57600080fd5b506101ea600160a060020a0360043516612615565b348015610b7057600080fd5b506101ea600160a060020a0360043516612635565b600054606090600160a060020a03163314610b9f57600080fd5b6002805460408051602060018416156101000260001901909316849004601f81018490048402820184019092528181529291830182828015610c225780601f10610bf757610100808354040283529160200191610c22565b820191906000526020600020905b815481529060010190602001808311610c0557829003601f168201915b50508551939450610c3e936002935060208701925090506144a1565b5060008051602061455a833981519152818360405180806020018060200180602001848103845260148152602001807f506172616d65746572206e206d6f646966696564000000000000000000000000815250602001848103835286818151815260200191508051906020019080838360005b83811015610cc9578181015183820152602001610cb1565b50505050905090810190601f168015610cf65780820380516001836020036101000a031916815260200191505b50848103825285518152855160209182019187019080838360005b83811015610d29578181015183820152602001610d11565b50505050905090810190601f168015610d565780820380516001836020036101000a031916815260200191505b509550505050505060405180910390a15050565b60376020526000908152604090205481565b603660205260009081526040902054600160a060020a031681565b6000610da4600954612749565b604080516020808252808201527f41736b696e6720666f722061206e6577206d7520706172616d657465722e2e2e8183015290517f096835e36c2ccea88ff2b3aca87dfc938b977e52ea656873ff76a8dba50d4d349181900360600190a1610e796040805190810160405280600c81526020017f576f6c6672616d416c70686100000000000000000000000000000000000000008152506040805190810160405280600f81526020017f342072616e646f6d206e756d6265720000000000000000000000000000000000815250600854612931565b60009081526032602052604090208054600160a060020a031916600160a060020a03939093169290921790915550565b610eb1612d36565b600160a060020a03163314610ec557600080fd5b600082815260326020526040902054600160a060020a031615801590610f135750600082815260326020908152604080832054600160a060020a03168352603190915290206003015460ff16155b156110b057600082815260326020908152604080832054600160a060020a03168352603182529091208251610f4a928401906144a1565b507f6a28dd23c76ba6cc6f4f148a0e2e0e147d8b876cb74ec1e5e2b8e9a8119eb702816040518080602001828103825283818151815260200191508051906020019080838360005b83811015610faa578181015183820152602001610f92565b50505050905090810190601f168015610fd75780820380516001836020036101000a031916815260200191505b509250505060405180910390a160008281526032602090815260408083208054600160a060020a03908116855260319093528184206003908101805460ff191660019081179091559154909316845292200154610100900460ff1615151480156110855750600082815260326020908152604080832054600160a060020a03168352603190915290206003015460ff6201000090910416151560011480611085575060125460ff1615156001145b156110ab576000828152603260205260409020546110ab90600160a060020a0316612516565b61145a565b600082815260336020526040902054600160a060020a0316158015906111035750600082815260336020908152604080832054600160a060020a031683526031909152902060030154610100900460ff16155b1561129e57600082815260336020908152604080832054600160a060020a03168352603182529091208251611140926001909201918401906144a1565b507f716a554dec57e3a217a923b974660c0c8ebee07b09b1ac7d4a3a8f328d10cc89816040518080602001828103825283818151815260200191508051906020019080838360005b838110156111a0578181015183820152602001611188565b50505050905090810190601f1680156111cd5780820380516001836020036101000a031916815260200191505b509250505060405180910390a160008281526033602090815260408083208054600160a060020a03908116855260319093528184206003908101805461ff00191661010017905590549092168352909120015460ff16151560011480156112785750600082815260336020908152604080832054600160a060020a03168352603190915290206003015460ff6201000090910416151560011480611278575060125460ff1615156001145b156110ab576000828152603360205260409020546110ab90600160a060020a0316612516565b600082815260346020526040902054600160a060020a0316158015906113085750600082815260346020908152604080832054600160a060020a03168352603190915290206003015460ff6201000090910416151560011480611308575060125460ff1615156001145b1561145a5761131681612f2b565b600083815260346020908152604080832054600160a060020a031683526031825280832060020193909355825181815284518183015284517f0efef3a277391dda0d5747fd15566e85fcd8a4fb588d9853173841e45cc5ae8a9486949293849391840192908601918190849084905b8381101561139d578181015183820152602001611385565b50505050905090810190601f1680156113ca5780820380516001836020036101000a031916815260200191505b509250505060405180910390a1600082815260346020908152604080832054600160a060020a0316835260319091529020600301805462ff00001916905560125460ff16151560011415611439576000828152603460205260409020546110ab90600160a060020a0316612f3e565b60008281526034602052604090205461145a90600160a060020a031661319f565b5050565b60125460ff1681565b600080600080601560016005540360078110151561148157fe5b600402016002015460148681548110151561149857fe5b906000526020600020906005020160020154111561150757600554600019019350611500601585600781106114c957fe5b60040201600201546014878154811015156114e057fe5b9060005260206000209060050201600201546133da90919063ffffffff16565b9250611608565b601754601480548790811061151857fe5b906000526020600020906005020160020154101561157d576000935061150060148681548110151561154657fe5b90600052602060002090600502016002015460158660078110151561156757fe5b60040201600201546133da90919063ffffffff16565b6015846007811061158a57fe5b60040201600201546014868154811015156115a157fe5b90600052602060002090600502016002015411156115c45760019093019261157d565b6115d860156000198601600781106114c957fe5b91506115ec60148681548110151561154657fe5b90508181111561160457600184039350819250611608565b8092505b600084815260366020526040902054600160a060020a03161580611639575060008481526035602052604090205483105b156116d457601480548690811061164c57fe5b60009182526020808320600360059093020191909101548683526036825260408084208054600160a060020a031916600160a060020a0390931692909217909155603582528083208690556037825291829020879055815187815291517fed4436a39d9a77d0c6c3be4f0e28f018750eb25c5c2d30ded16ef07ced4c00719281900390910190a15b5050505050565b6002805460408051602060018416156101000260001901909316849004601f8101849004840282018401909252818152929183018282801561175e5780601f106117335761010080835404028352916020019161175e565b820191906000526020600020905b81548152906001019060200180831161174157829003601f168201915b505050505081565b505050565b601380548290811061177957fe5b60009182526020909120600790910201805460018201546002830154600384015460048501546005860154600690960154949650600160a060020a039093169491939092919087565b600054600160a060020a031633146117d957600080fd5b6012805460ff19811660ff90911615179055565b600054606090600160a060020a0316331461180757600080fd5b6004805460408051602060026001851615610100026000190190941693909304601f8101849004840282018401909252818152929183018282801561188d5780601f106118625761010080835404028352916020019161188d565b820191906000526020600020905b81548152906001019060200180831161187057829003601f168201915b505085519394506118a9936004935060208701925090506144a1565b5060008051602061455a833981519152818360405180806020018060200180602001848103845260148152602001807f506172616d65746572206a206d6f6469666965640000000000000000000000008152506020018481038352868181518152602001915080519060200190808383600083811015610cc9578181015183820152602001610cb1565b6015816007811061194057fe5b60040201805460408051602060026001851615610100026000190190941693909304601f810184900484028201840190925281815292935083918301828280156119cb5780601f106119a0576101008083540402835291602001916119cb565b820191906000526020600020905b8154815290600101906020018083116119ae57829003601f168201915b505050505090806001018054600181600116156101000203166002900480601f016020809104026020016040519081016040528092919081815260200182805460018160011615610100020316600290048015611a695780601f10611a3e57610100808354040283529160200191611a69565b820191906000526020600020905b815481529060010190602001808311611a4c57829003601f168201915b5050505050908060020154908060030154905084565b60008054600160a060020a03163314611a9757600080fd5b50600a8054600160a060020a03838116600160a060020a0319831681179093556040805191909216602082018190528183019390935260608082526019908201527f456e74657270726973652077616c6c6574206368616e67656400000000000000608082015290517f223db053947bb148de510715d3c7d8ccd72bdd376752fd735ee7bd0bd0ece5bf9181900360a00190a15050565b60316020908152600091825260409182902080548351601f60026000196101006001861615020190931692909204918201849004840281018401909452808452909291839190830182828015611bc55780601f10611b9a57610100808354040283529160200191611bc5565b820191906000526020600020905b815481529060010190602001808311611ba857829003601f168201915b505050505090806001018054600181600116156101000203166002900480601f016020809104026020016040519081016040528092919081815260200182805460018160011615610100020316600290048015611c635780601f10611c3857610100808354040283529160200191611c63565b820191906000526020600020905b815481529060010190602001808311611c4657829003601f168201915b50505050600283015460039093015491929160ff808216925061010082048116916201000090041686565b60018054604080516020600284861615610100026000190190941693909304601f8101849004840282018401909252818152929183018282801561175e5780601f106117335761010080835404028352916020019161175e565b6014805482908110611cf657fe5b60009182526020918290206005919091020180546040805160026001841615610100026000190190931692909204601f810185900485028301850190915280825291935091839190830182828015611d8f5780601f10611d6457610100808354040283529160200191611d8f565b820191906000526020600020905b815481529060010190602001808311611d7257829003601f168201915b505050505090806001018054600181600116156101000203166002900480601f016020809104026020016040519081016040528092919081815260200182805460018160011615610100020316600290048015611e2d5780601f10611e0257610100808354040283529160200191611e2d565b820191906000526020600020905b815481529060010190602001808311611e1057829003601f168201915b505050506002830154600384015460049094015492939092600160a060020a03909116915085565b60085481565b60055481565b600054600160a060020a03163314611e7857600080fd5b60008054604051600160a060020a03909116917ff8df31144d9c2f0f6b59d69b8b98abd5459d07f2742c4df920b25aae33c6482091a260008054600160a060020a0319169055565b600a54600160a060020a031681565b611ed881610d97565b611ee181612635565b50565b60008054600160a060020a03163314611efc57600080fd5b50600880549082905560408051602081018390528082018490526060808252601a908201527f4f7261636c697a6520676173206c696d6974206368616e6765640000000000006080820152905160008051602061453a8339815191529181900360a00190a15050565b600054606090600160a060020a03163314611f7f57600080fd5b60018054604080516020600284861615610100026000190190941693909304601f810184900484028201840190925281815292918301828280156120045780601f10611fd957610100808354040283529160200191612004565b820191906000526020600020905b815481529060010190602001808311611fe757829003601f168201915b50508551939450612020936001935060208701925090506144a1565b5060008051602061455a833981519152818360405180806020018060200180602001848103845260148152602001807f506172616d657465722062206d6f6469666965640000000000000000000000008152506020018481038352868181518152602001915080519060200190808383600083811015610cc9578181015183820152602001610cb1565b60008054600160a060020a031633146120c257600080fd5b50600680549082905560408051602081018390528082018490526060808252601d908201527f47656e6572617465207469636b6574207072696365206368616e6765640000006080820152905160008051602061453a8339815191529181900360a00190a15050565b600054600160a060020a031681565b60095481565b6003805460408051602060026001851615610100026000190190941693909304601f8101849004840282018401909252818152929183018282801561175e5780601f106117335761010080835404028352916020019161175e565b600054606090600160a060020a031633146121b557600080fd5b6003805460408051602060026001851615610100026000190190941693909304601f8101849004840282018401909252818152929183018282801561223b5780601f106122105761010080835404028352916020019161223b565b820191906000526020600020905b81548152906001019060200180831161221e57829003601f168201915b50508551939450612257936003935060208701925090506144a1565b5060008051602061455a833981519152818360405180806020018060200180602001848103845260148152602001807f506172616d657465722070206d6f6469666965640000000000000000000000008152506020018481038352868181518152602001915080519060200190808383600083811015610cc9578181015183820152602001610cb1565b6004805460408051602060026001851615610100026000190190941693909304601f8101849004840282018401909252818152929183018282801561175e5780601f106117335761010080835404028352916020019161175e565b60008054600160a060020a0316331461235457600080fd5b5030315b90565b60008054600160a060020a0316331461237357600080fd5b506007805490829055604080516020810183905280820184905260608082526019908201527f53656c6c207469636b6574207072696365206368616e676564000000000000006080820152905160008051602061453a8339815191529181900360a00190a15050565b60115481565b60008054600160a060020a031633146123fa57600080fd5b506005805490829055604080516020810183905280820184905260608082526019908201527f53656c6c207469636b6574207072696365206368616e676564000000000000006080820152905160008051602061453a8339815191529181900360a00190a15050565b60008054600160a060020a0316331461247b57600080fd5b506009805490829055604080516020810183905280820184905260608082526021908201527f4f7261636c697a6520637573746f6d20676173207072696365206368616e676560808201527f640000000000000000000000000000000000000000000000000000000000000060a0820152905160008051602061453a8339815191529181900360c00190a15050565b60065481565b60105481565b6000612523600954612749565b604080516020808252601a908201527f41736b696e6720666f722061206e6577207469636b65742e2e2e0000000000008183015290517f096835e36c2ccea88ff2b3aca87dfc938b977e52ea656873ff76a8dba50d4d349181900360600190a16125cd6040805190810160405280600c81526020017f576f6c6672616d416c70686100000000000000000000000000000000000000008152506125c5846133ec565b600854612931565b60009081526034602052604090208054600160a060020a031916600160a060020a03939093169290921790915550565b60075481565b60356020526000908152604090205481565b600054600160a060020a0316331461262c57600080fd5b611ee181613d1b565b6000612642600954612749565b604080516020808252601f908201527f41736b696e6720666f722061206e6577206920706172616d657465722e2e2e008183015290517f096835e36c2ccea88ff2b3aca87dfc938b977e52ea656873ff76a8dba50d4d349181900360600190a16127196040805190810160405280600c81526020017f576f6c6672616d416c70686100000000000000000000000000000000000000008152506040805190810160405280600f81526020017f342072616e646f6d206e756d6265720000000000000000000000000000000000815250600854612931565b60009081526033602052604090208054600160a060020a031916600160a060020a03939093169290921790915550565b600b54600160a060020a031615806127735750600b5461277190600160a060020a0316613d8b565b155b15612784576127826000613d8f565b505b600b60009054906101000a9004600160a060020a0316600160a060020a03166338cc48316040518163ffffffff1660e060020a028152600401602060405180830381600087803b1580156127d757600080fd5b505af11580156127eb573d6000803e3d6000fd5b505050506040513d602081101561280157600080fd5b5051600c54600160a060020a039081169116146128b757600b60009054906101000a9004600160a060020a0316600160a060020a03166338cc48316040518163ffffffff1660e060020a028152600401602060405180830381600087803b15801561286b57600080fd5b505af115801561287f573d6000803e3d6000fd5b505050506040513d602081101561289557600080fd5b5051600c8054600160a060020a031916600160a060020a039092169190911790555b600c54604080517fca6ad1e4000000000000000000000000000000000000000000000000000000008152600481018490529051600160a060020a039092169163ca6ad1e49160248082019260009290919082900301818387803b15801561291d57600080fd5b505af11580156116d4573d6000803e3d6000fd5b600b546000908190600160a060020a031615806129605750600b5461295e90600160a060020a0316613d8b565b155b156129715761296f6000613d8f565b505b600b60009054906101000a9004600160a060020a0316600160a060020a03166338cc48316040518163ffffffff1660e060020a028152600401602060405180830381600087803b1580156129c457600080fd5b505af11580156129d8573d6000803e3d6000fd5b505050506040513d60208110156129ee57600080fd5b5051600c54600160a060020a03908116911614612aa457600b60009054906101000a9004600160a060020a0316600160a060020a03166338cc48316040518163ffffffff1660e060020a028152600401602060405180830381600087803b158015612a5857600080fd5b505af1158015612a6c573d6000803e3d6000fd5b505050506040513d6020811015612a8257600080fd5b5051600c8054600160a060020a031916600160a060020a039092169190911790555b600c54604080517f2ef3accc0000000000000000000000000000000000000000000000000000000081526024810186905260048101918252875160448201528751600160a060020a0390931692632ef3accc9289928892829160640190602086019080838360005b83811015612b24578181015183820152602001612b0c565b50505050905090810190601f168015612b515780820380516001836020036101000a031916815260200191505b509350505050602060405180830381600087803b158015612b7157600080fd5b505af1158015612b85573d6000803e3d6000fd5b505050506040513d6020811015612b9b57600080fd5b50519050670de0b6b3a76400003a840201811115612bbc5760009150612d2e565b600c546040517fc51be90f00000000000000000000000000000000000000000000000000000000815260006004820181815260648301879052608060248401908152895160848501528951600160a060020a039095169463c51be90f948794938c938c938c93604481019160a49091019060208801908083838c5b83811015612c4f578181015183820152602001612c37565b50505050905090810190601f168015612c7c5780820380516001836020036101000a031916815260200191505b50838103825285518152855160209182019187019080838360005b83811015612caf578181015183820152602001612c97565b50505050905090810190601f168015612cdc5780820380516001836020036101000a031916815260200191505b5096505050505050506020604051808303818588803b158015612cfe57600080fd5b505af1158015612d12573d6000803e3d6000fd5b50505050506040513d6020811015612d2957600080fd5b505191505b509392505050565b600b54600090600160a060020a03161580612d635750600b54612d6190600160a060020a0316613d8b565b155b15612d7457612d726000613d8f565b505b600b60009054906101000a9004600160a060020a0316600160a060020a03166338cc48316040518163ffffffff1660e060020a028152600401602060405180830381600087803b158015612dc757600080fd5b505af1158015612ddb573d6000803e3d6000fd5b505050506040513d6020811015612df157600080fd5b5051600c54600160a060020a03908116911614612ea757600b60009054906101000a9004600160a060020a0316600160a060020a03166338cc48316040518163ffffffff1660e060020a028152600401602060405180830381600087803b158015612e5b57600080fd5b505af1158015612e6f573d6000803e3d6000fd5b505050506040513d6020811015612e8557600080fd5b5051600c8054600160a060020a031916600160a060020a039092169190911790555b600c60009054906101000a9004600160a060020a0316600160a060020a031663c281d19e6040518163ffffffff1660e060020a028152600401602060405180830381600087803b158015612efa57600080fd5b505af1158015612f0e573d6000803e3d6000fd5b505050506040513d6020811015612f2457600080fd5b5051905090565b6000612f38826000613d99565b92915050565b60408051600160a060020a03831660009081526031602090815290839020805460026001821615610100026000190190911604601f8101839004909202830160a090810190945260808301828152929384939290840182828015612fe35780601f10612fb857610100808354040283529160200191612fe3565b820191906000526020600020905b815481529060010190602001808311612fc657829003601f168201915b505050505081526020016031600084600160a060020a0316600160a060020a031681526020019081526020016000206001018054600181600116156101000203166002900480601f0160208091040260200160405190810160405280929190818152602001828054600181600116156101000203166002900480156130a95780601f1061307e576101008083540402835291602001916130a9565b820191906000526020600020905b81548152906001019060200180831161308c57829003601f168201915b5050509183525050600160a060020a0383166000908152603160209081526040918290206002015490830152601054910152601154601590600781106130eb57fe5b60040201600082015181600001908051906020019061310b9291906144a1565b50602082810151805161312492600185019201906144a1565b50604082810151600280840191909155606090930151600390920191909155601180546001019055600160a060020a0383166000908152603160209081529082902090920154815190815290517fec2692b386f7e992f219e405f018eeaf8da1b95736760596812e564f2e709cfd929181900390910190a150565b60408051600160a060020a03831660009081526031602090815283822080546002600180831615610100026000190190921604601f8101849004909302850160c090810190965260a085018381529395909460149490938493919284018282801561324b5780601f106132205761010080835404028352916020019161324b565b820191906000526020600020905b81548152906001019060200180831161322e57829003601f168201915b505050505081526020016031600087600160a060020a0316600160a060020a031681526020019081526020016000206001018054600181600116156101000203166002900480601f0160208091040260200160405190810160405280929190818152602001828054600181600116156101000203166002900480156133115780601f106132e657610100808354040283529160200191613311565b820191906000526020600020905b8154815290600101906020018083116132f457829003601f168201915b5050509183525050600160a060020a03861660008181526031602090815260408083206002015482860152840192909252601054606090930192909252835460018101808655948352918190208351805160059094029091019261337892849201906144a1565b50602082810151805161339192600185019201906144a1565b50604082015160028201556060820151600382018054600160a060020a031916600160a060020a0390921691909117905560809091015160049091015503905061145a81611467565b6000828211156133e657fe5b50900390565b604080518082018252600c81527f286d6f642828312f2831305e000000000000000000000000000000000000000060208083019190915260028054845160018216156101000260001901909116829004601f810184900484028201840190955284815260609485946135c394909391908301828280156134ad5780601f10613482576101008083540402835291602001916134ad565b820191906000526020600020905b81548152906001019060200180831161349057829003601f168201915b505060408051808201825260018082527f2d00000000000000000000000000000000000000000000000000000000000000602080840191909152600160a060020a038d1660009081526031825284902080548551600294821615610100026000190190911693909304601f81018390048302840183019095528483529296509094509092508301828280156135835780601f1061355857610100808354040283529160200191613583565b820191906000526020600020905b81548152906001019060200180831161356657829003601f168201915b50505050506040805190810160405280600681526020017f29292a31305e0000000000000000000000000000000000000000000000000000815250613f0b565b60038054604080516020601f60026000196101006001881615020190951694909404938401819004810282018101909252828152939450613757938593909290918301828280156136555780601f1061362a57610100808354040283529160200191613655565b820191906000526020600020905b81548152906001019060200180831161363857829003601f168201915b5050604080518082018252600581527f2c31305e2800000000000000000000000000000000000000000000000000000060208083019190915260048054845160026001831615610100026000190190921691909104601f81018490048402820184019095528481529296509194509092508301828280156137175780601f106136ec57610100808354040283529160200191613717565b820191906000526020600020905b8154815290600101906020018083116136fa57829003601f168201915b50505050506040805190810160405280600181526020017f2b00000000000000000000000000000000000000000000000000000000000000815250613f0b565b9050613918816031600086600160a060020a0316600160a060020a031681526020019081526020016000206001018054600181600116156101000203166002900480601f0160208091040260200160405190810160405280929190818152602001828054600181600116156101000203166002900480156138195780601f106137ee57610100808354040283529160200191613819565b820191906000526020600020905b8154815290600101906020018083116137fc57829003601f168201915b5050604080518082018252600e81527f29292d6d6f642828312f2831305e00000000000000000000000000000000000060208083019190915260028054845160018216156101000260001901909116829004601f81018490048402820184019095528481529296509194509092508301828280156138d85780601f106138ad576101008083540402835291602001916138d8565b820191906000526020600020905b8154815290600101906020018083116138bb57829003601f168201915b50505050506040805190810160405280600181526020017f2d00000000000000000000000000000000000000000000000000000000000000815250613f0b565b600160a060020a03841660009081526031602090815260409182902080548351601f60026000196101006001861615020190931692909204918201849004840281018401909452808452939450613abf938593928301828280156139bd5780601f10613992576101008083540402835291602001916139bd565b820191906000526020600020905b8154815290600101906020018083116139a057829003601f168201915b5050604080518082018252600681527f29292a31305e000000000000000000000000000000000000000000000000000060208083019190915260038054845160026001831615610100026000190190921691909104601f8101849004840282018401909552848152929650919450909250830182828015613a7f5780601f10613a5457610100808354040283529160200191613a7f565b820191906000526020600020905b815481529060010190602001808311613a6257829003601f168201915b50505050506040805190810160405280600481526020017f2c31305e00000000000000000000000000000000000000000000000000000000815250613f0b565b60408051808201825260018082527f2800000000000000000000000000000000000000000000000000000000000000602080840191909152600160a060020a038816600090815260318252849020820180548551600294821615610100026000190190911693909304601f8101839004830284018301909552848352949550613c7a9486949091830182828015613b975780601f10613b6c57610100808354040283529160200191613b97565b820191906000526020600020905b815481529060010190602001808311613b7a57829003601f168201915b5050604080518082018252600781527f2929292f31305e00000000000000000000000000000000000000000000000000602080830191909152600160a060020a038d16600090815260318252839020600190810180548551600293821615610100026000190190911692909204601f81018490048402830184019095528482529296509450909250830182828015613c705780601f10613c4557610100808354040283529160200191613c70565b820191906000526020600020905b815481529060010190602001808311613c5357829003601f168201915b5050505050613f0b565b90507f261af219212047633bb60c8d0cc7e33d217c38edf6fa7e53acb97a3f94180de5816040518080602001828103825283818151815260200191508051906020019080838360005b83811015613cdb578181015183820152602001613cc3565b50505050905090810190601f168015613d085780820380516001836020036101000a031916815260200191505b509250505060405180910390a192915050565b600160a060020a0381161515613d3057600080fd5b60008054604051600160a060020a03808516939216917f8be0079c531659141344cd1fd0a4f28419497f9722a3daafe3b4186f6b6457e091a360008054600160a060020a031916600160a060020a0392909216919091179055565b3b90565b6000612f3861416c565b6000828180805b8351811015613eee5783517f300000000000000000000000000000000000000000000000000000000000000090859083908110613dd957fe5b90602001015160f860020a900460f860020a02600160f860020a03191610158015613e4f575083517f390000000000000000000000000000000000000000000000000000000000000090859083908110613e2f57fe5b90602001015160f860020a900460f860020a02600160f860020a03191611155b15613ea8578115613e6e57851515613e6657613eee565b600019909501945b600a8302925060308482815181101515613e8457fe5b90602001015160f860020a900460f860020a0260f860020a90040383019250613ee6565b8381815181101515613eb657fe5b90602001015160f860020a900460f860020a02600160f860020a031916602e60f860020a021415613ee657600191505b600101613da0565b6000861115613f005785600a0a830292505b509095945050505050565b6060806060806060806060806000808e98508d97508c96508b95508a94508451865188518a518c51010101016040519080825280601f01601f191660200182016040528015613f64578160200160208202803883390190505b50935083925060009150600090505b8851811015613fd1578881815181101515613f8a57fe5b90602001015160f860020a900460f860020a028383806001019450815181101515613fb157fe5b906020010190600160f860020a031916908160001a905350600101613f73565b5060005b8751811015614033578781815181101515613fec57fe5b90602001015160f860020a900460f860020a02838380600101945081518110151561401357fe5b906020010190600160f860020a031916908160001a905350600101613fd5565b5060005b865181101561409557868181518110151561404e57fe5b90602001015160f860020a900460f860020a02838380600101945081518110151561407557fe5b906020010190600160f860020a031916908160001a905350600101614037565b5060005b85518110156140f75785818151811015156140b057fe5b90602001015160f860020a900460f860020a0283838060010194508151811015156140d757fe5b906020010190600160f860020a031916908160001a905350600101614099565b5060005b845181101561415957848181518110151561411257fe5b90602001015160f860020a900460f860020a02838380600101945081518110151561413957fe5b906020010190600160f860020a031916908160001a9053506001016140fb565b50909d9c50505050505050505050505050565b60008061418c731d3b2638a7cc9f2cb3d298a3da7a90b67e5506ed613d8b565b11156141fc57600b8054600160a060020a031916731d3b2638a7cc9f2cb3d298a3da7a90b67e5506ed178155604080518082019091529081527f6574685f6d61696e6e657400000000000000000000000000000000000000000060208201526141f490614492565b506001612358565b600061421b73c03a2615d5efaf5f49f60b7bb6583eaec212fdf1613d8b565b111561428457600b8054600160a060020a03191673c03a2615d5efaf5f49f60b7bb6583eaec212fdf117905560408051808201909152600c81527f6574685f726f707374656e33000000000000000000000000000000000000000060208201526141f490614492565b60006142a373b7a07bcf2ba2f2703b24c0691b5278999c59ac7e613d8b565b111561430c57600b8054600160a060020a03191673b7a07bcf2ba2f2703b24c0691b5278999c59ac7e17905560408051808201909152600981527f6574685f6b6f76616e000000000000000000000000000000000000000000000060208201526141f490614492565b600061432b73146500cfd35b22e4a392fe0adc06de1a1368ed48613d8b565b111561439357600b8054600160a060020a03191673146500cfd35b22e4a392fe0adc06de1a1368ed48178155604080518082019091529081527f6574685f72696e6b65627900000000000000000000000000000000000000000060208201526141f490614492565b60006143b2736f485c8bf6fc43ea212e93bbf8ce046c7f1cb475613d8b565b11156143e65750600b8054600160a060020a031916736f485c8bf6fc43ea212e93bbf8ce046c7f1cb4751790556001612358565b60006144057320e12a1f859b3feae5fb2a0a32c18f5a65555bbf613d8b565b11156144395750600b8054600160a060020a0319167320e12a1f859b3feae5fb2a0a32c18f5a65555bbf1790556001612358565b60006144587351efaf4c8b3c9afbd5ab9f4bbc82784ab6ef8faa613d8b565b111561448c5750600b8054600160a060020a0319167351efaf4c8b3c9afbd5ab9f4bbc82784ab6ef8faa1790556001612358565b50600090565b805161145a90600d9060208401905b828054600181600116156101000203166002900490600052602060002090601f016020900481019282601f106144e257805160ff191683800117855561450f565b8280016001018555821561450f579182015b8281111561450f5782518255916020019190600101906144f4565b5061451b92915061451f565b5090565b61235891905b8082111561451b576000815560010161452556009bc068999fb1a0aac007a9b44ca6322a376441f42706bf5163600bb3d1a731647ecbd54b3baea533cf57ef049f9e04554be6a660d6dacd477488066eedf27beea165627a7a723058203a072d142921f2f57ca846ad047053e8ffb6939ef407e9c694d5240d51480a750029",
  "source": "pragma solidity ^0.4.20;\nimport \"./usingOraclize.sol\";\n//import \"github.com/oraclize/ethereum-api/oraclizeAPI.sol\";\nimport \"./Lucky7Admin.sol\";\n\n\ncontract Lucky7TicketFactory is Lucky7Admin, usingOraclize{\n    \n    function Lucky7TicketFactory() payable{\n        OAR = OraclizeAddrResolverI(0xde6ddB95052E8072DE64D814077148b95E43E1E0);\n    }\n    \n    using SafeMath for uint256;\n    \n    event NewOraclizeQuery(string description);\n    event NewMuReceived(string muParameter);\n    event NewIReceived(string iParameter);\n    event NewTicketReceived(string newTicket);\n    event NewWolframQuery(string description);\n    event NewLucky7Ticket(uint ticketID);\n    event NewLucky7Number(uint value);\n\n    modifier oraclizeGasPriceCustomized{\n        oraclize_setCustomGasPrice(oraclizeCustomGasPrice);\n        _;\n    }\n    \n    uint public drawNumber = 0;\n    uint public indexForLucky7Array = 0;\n    \n    //Circuit breakers\n    bool public settingLucky7Numbers = true;\n    \n    function toggleLucky7Setting() public onlyOwner{\n        settingLucky7Numbers = !settingLucky7Numbers;\n    }\n    \n    struct UserParametersValue{\n        string mu;\n        string i;\n        uint ticketValue;\n        bool muReady;\n        bool iReady;\n        bool userPaidTicket;\n    }\n    \n    struct Ticket{\n        string mu;\n        string i;\n        uint ticketValue;\n        address owner;\n        uint drawID;\n    }\n    \n    struct Lucky7Number{\n        string mu;\n        string i;\n        uint ticketValue;\n        uint drawID;\n    }\n    \n    struct Lucky7Ticket{\n        uint difference;\n        address owner;\n        uint ticketID;\n        uint ticketValue;\n        uint lucky7Number;\n        uint lucky7NumberID;\n        uint drawID;\n    }\n    \n    Lucky7Ticket[] public lucky7Tickets;\n    Ticket[] public tickets;    \n    Lucky7Number[7] public lucky7Numbers;\n\n    mapping (address => UserParametersValue) public userValues;\n    mapping (bytes32 => address) muParameterID;\n    mapping (bytes32 => address) iParameterID;\n    mapping (bytes32 => address) ticketID;\n    mapping (uint => uint) public lucky7TicketDifference;\n    mapping (uint => address) public lucky7TicketOwner;\n    mapping (uint => uint) public lucky7TicketID;\n\n    function _askForMuParameter(address _ticketOwner) payable oraclizeGasPriceCustomized{\n        NewOraclizeQuery(\"Asking for a new mu parameter...\");\n        bytes32 muID = oraclize_query(\"WolframAlpha\",\"4 random number\",oraclizeGasLimit);\n        muParameterID[muID] = _ticketOwner;\n    }\n\n    function _askForIParameter(address _ticketOwner) oraclizeGasPriceCustomized{\n        NewOraclizeQuery(\"Asking for a new i parameter...\");\n        bytes32 iID = oraclize_query(\"WolframAlpha\",\"4 random number\",oraclizeGasLimit);\n        iParameterID[iID] = _ticketOwner;\n    }\n    \n    function _askForTicket(address _ticketOwner) oraclizeGasPriceCustomized{\n        NewOraclizeQuery(\"Asking for a new ticket...\");\n        bytes32 userTicketID = oraclize_query(\"WolframAlpha\", _setTicketQuery(_ticketOwner), oraclizeGasLimit);\n        ticketID[userTicketID] = _ticketOwner;\n    }\n    \n    function _generateTicket(address _ticketOwner) {\n        _askForMuParameter(_ticketOwner);\n        _askForIParameter(_ticketOwner);\n    }\n    \n    function _insertTicket(address _ticketOwner) internal {\n        uint id = tickets.push(Ticket(userValues[_ticketOwner].mu,userValues[_ticketOwner].i,userValues[_ticketOwner].ticketValue,_ticketOwner,drawNumber)) - 1;\n        _checkForLucky7Ticket(id);\n    }\n    \n    function _insertLucky7Number(address _ticketOwner) internal {\n        lucky7Numbers[indexForLucky7Array] = Lucky7Number(userValues[_ticketOwner].mu,userValues[_ticketOwner].i,userValues[_ticketOwner].ticketValue,drawNumber);\n        indexForLucky7Array++;\n        NewLucky7Number(userValues[_ticketOwner].ticketValue);\n\n    }\n    //SafeMath\n    function _checkForLucky7Ticket(uint _ticketID) public/*internal*/{\n        uint i;\n        uint difference;\n        \n        if(tickets[_ticketID].ticketValue>lucky7Numbers[numberOfLucky7Numbers-1].ticketValue){\n            i=numberOfLucky7Numbers-1;\n            difference = tickets[_ticketID].ticketValue.sub(lucky7Numbers[i].ticketValue);\n            \n        }\n        else if (tickets[_ticketID].ticketValue<lucky7Numbers[0].ticketValue){\n            i=0;\n            difference = lucky7Numbers[i].ticketValue.sub(tickets[_ticketID].ticketValue);\n        }\n        else{\n            while(tickets[_ticketID].ticketValue>lucky7Numbers[i].ticketValue){\n                i++;\n            }\n            \n            uint lowerLucky7NumberDifference = tickets[_ticketID].ticketValue.sub(lucky7Numbers[i-1].ticketValue);\n            uint upperLucky7NumberDifference = lucky7Numbers[i].ticketValue.sub(tickets[_ticketID].ticketValue);\n            \n            if(upperLucky7NumberDifference>lowerLucky7NumberDifference){\n                i=i-1;\n                difference = lowerLucky7NumberDifference;\n            }\n            else{\n                difference = upperLucky7NumberDifference;\n            }\n        }\n        \n        if(lucky7TicketOwner[i] == address(0x0) || difference<lucky7TicketDifference[i]){\n            lucky7TicketOwner[i] = tickets[_ticketID].owner;\n            lucky7TicketDifference[i] = difference;\n            lucky7TicketID[i] = _ticketID;\n            NewLucky7Ticket(_ticketID);\n        }\n    }\n    \n    function _setTicketQuery(address _parametersOwner) internal returns (string){\n        string memory queryWolfram;\n        //This line => (mod((1/(10^n-mu))*10^    \n        queryWolfram = strConcat(\"(mod((1/(10^\",n,\"-\",userValues[_parametersOwner].mu,\"))*10^\");\n        //This line => (mod((1/(10^n-mu))*10^p,10^(j+\n        queryWolfram = strConcat(queryWolfram,p,\",10^(\",j,\"+\");\n        //This line => (mod((1/(10^n-mu))*10^p,10^(j+i))-mod((1/(10^n-\n        queryWolfram = strConcat(queryWolfram,userValues[_parametersOwner].i,\"))-mod((1/(10^\",n,\"-\");\n        //This line => (mod((1/(10^n-mu))*10^p,10^(j+i))-mod((1/(10^n-mu))*10^p,10^\n        queryWolfram = strConcat(queryWolfram,userValues[_parametersOwner].mu,\"))*10^\",p,\",10^\");\n        //This line => (mod((1/(10^n-mu))*10^p,10^(j+i))-mod((1/(10^n-mu))*10^p,10^(i)))/10^i\n        queryWolfram = strConcat(queryWolfram,\"(\",userValues[_parametersOwner].i,\")))/10^\",userValues[_parametersOwner].i);\n        NewWolframQuery(queryWolfram);\n        return queryWolfram;\n    }\n    \n    function __callback(bytes32 myid, string result) public{\n        require(msg.sender == oraclize_cbAddress());\n        if(muParameterID[myid]!=0 && userValues[muParameterID[myid]].muReady==false){\n            userValues[muParameterID[myid]].mu=result;\n            NewMuReceived(result);\n            userValues[muParameterID[myid]].muReady=true;\n            if(userValues[muParameterID[myid]].iReady == true && (userValues[muParameterID[myid]].userPaidTicket==true || settingLucky7Numbers==true )){\n                _askForTicket(muParameterID[myid]);\n            }\n        }\n        else if (iParameterID[myid]!=0 && userValues[iParameterID[myid]].iReady==false){\n            userValues[iParameterID[myid]].i=result;\n            NewIReceived(result);\n            userValues[iParameterID[myid]].iReady=true;\n            if(userValues[iParameterID[myid]].muReady == true && (userValues[iParameterID[myid]].userPaidTicket==true || settingLucky7Numbers==true )){\n                _askForTicket(iParameterID[myid]);\n            }\n        }\n        else if (ticketID[myid]!=0 &&  (userValues[ticketID[myid]].userPaidTicket==true || settingLucky7Numbers==true )){\n            userValues[ticketID[myid]].ticketValue=parseInt(result);\n            NewTicketReceived(result);\n            userValues[ticketID[myid]].userPaidTicket=false;\n            if(settingLucky7Numbers==true){\n                _insertLucky7Number(ticketID[myid]);\n            }\n            else{\n                _insertTicket(ticketID[myid]);\n            }\n        }\n    }\n\n    function() public payable{}\n} ",
  "sourcePath": "/Users/matiasbarrios/Desktop/Proyecto Consensys/luckyseven/contracts/Lucky7TicketFactory.sol",
  "compiler": {
    "name": "solc",
    "version": "0.4.24+commit.e67f0147.Emscripten.clang"
  },
  "schemaVersion": "2.0.1",
  "updatedAt": "2018-08-25T01:06:24.361Z"
}