{
  "contractName": "Lucky7Admin",
  "abi": [
    {
      "constant": true,
      "inputs": [],
      "name": "n",
      "outputs": [
        {
          "name": "",
          "type": "string"
        }
      ],
      "payable": false,
      "stateMutability": "view",
      "type": "function"
    },
    {
      "constant": true,
      "inputs": [],
      "name": "b",
      "outputs": [
        {
          "name": "",
          "type": "string"
        }
      ],
      "payable": false,
      "stateMutability": "view",
      "type": "function"
    },
    {
      "constant": true,
      "inputs": [],
      "name": "oraclizeGasLimit",
      "outputs": [
        {
          "name": "",
          "type": "uint256"
        }
      ],
      "payable": false,
      "stateMutability": "view",
      "type": "function"
    },
    {
      "constant": true,
      "inputs": [],
      "name": "numberOfLucky7Numbers",
      "outputs": [
        {
          "name": "",
          "type": "uint256"
        }
      ],
      "payable": false,
      "stateMutability": "view",
      "type": "function"
    },
    {
      "constant": false,
      "inputs": [],
      "name": "renounceOwnership",
      "outputs": [],
      "payable": false,
      "stateMutability": "nonpayable",
      "type": "function"
    },
    {
      "constant": true,
      "inputs": [],
      "name": "enterpriseWallet",
      "outputs": [
        {
          "name": "",
          "type": "address"
        }
      ],
      "payable": false,
      "stateMutability": "view",
      "type": "function"
    },
    {
      "constant": true,
      "inputs": [],
      "name": "owner",
      "outputs": [
        {
          "name": "",
          "type": "address"
        }
      ],
      "payable": false,
      "stateMutability": "view",
      "type": "function"
    },
    {
      "constant": true,
      "inputs": [],
      "name": "oraclizeCustomGasPrice",
      "outputs": [
        {
          "name": "",
          "type": "uint256"
        }
      ],
      "payable": false,
      "stateMutability": "view",
      "type": "function"
    },
    {
      "constant": true,
      "inputs": [],
      "name": "p",
      "outputs": [
        {
          "name": "",
          "type": "string"
        }
      ],
      "payable": false,
      "stateMutability": "view",
      "type": "function"
    },
    {
      "constant": true,
      "inputs": [],
      "name": "j",
      "outputs": [
        {
          "name": "",
          "type": "string"
        }
      ],
      "payable": false,
      "stateMutability": "view",
      "type": "function"
    },
    {
      "constant": true,
      "inputs": [],
      "name": "generateTicketPrice",
      "outputs": [
        {
          "name": "",
          "type": "uint256"
        }
      ],
      "payable": false,
      "stateMutability": "view",
      "type": "function"
    },
    {
      "constant": true,
      "inputs": [],
      "name": "sellTicketPrice",
      "outputs": [
        {
          "name": "",
          "type": "uint256"
        }
      ],
      "payable": false,
      "stateMutability": "view",
      "type": "function"
    },
    {
      "constant": false,
      "inputs": [
        {
          "name": "_newOwner",
          "type": "address"
        }
      ],
      "name": "transferOwnership",
      "outputs": [],
      "payable": false,
      "stateMutability": "nonpayable",
      "type": "function"
    },
    {
      "anonymous": false,
      "inputs": [
        {
          "indexed": false,
          "name": "describe",
          "type": "string"
        },
        {
          "indexed": false,
          "name": "_oldValue",
          "type": "uint256"
        },
        {
          "indexed": false,
          "name": "_newValue",
          "type": "uint256"
        }
      ],
      "name": "numberModified",
      "type": "event"
    },
    {
      "anonymous": false,
      "inputs": [
        {
          "indexed": false,
          "name": "describe",
          "type": "string"
        },
        {
          "indexed": false,
          "name": "_oldValue",
          "type": "string"
        },
        {
          "indexed": false,
          "name": "_newValue",
          "type": "string"
        }
      ],
      "name": "parameterModified",
      "type": "event"
    },
    {
      "anonymous": false,
      "inputs": [
        {
          "indexed": false,
          "name": "describe",
          "type": "string"
        },
        {
          "indexed": false,
          "name": "_oldValue",
          "type": "address"
        },
        {
          "indexed": false,
          "name": "_newValue",
          "type": "address"
        }
      ],
      "name": "walletModified",
      "type": "event"
    },
    {
      "anonymous": false,
      "inputs": [
        {
          "indexed": true,
          "name": "previousOwner",
          "type": "address"
        }
      ],
      "name": "OwnershipRenounced",
      "type": "event"
    },
    {
      "anonymous": false,
      "inputs": [
        {
          "indexed": true,
          "name": "previousOwner",
          "type": "address"
        },
        {
          "indexed": true,
          "name": "newOwner",
          "type": "address"
        }
      ],
      "name": "OwnershipTransferred",
      "type": "event"
    },
    {
      "constant": false,
      "inputs": [
        {
          "name": "_newValue",
          "type": "uint256"
        }
      ],
      "name": "modifyNumberOfLucky7Numbers",
      "outputs": [],
      "payable": false,
      "stateMutability": "nonpayable",
      "type": "function"
    },
    {
      "constant": false,
      "inputs": [
        {
          "name": "_newValue",
          "type": "uint256"
        }
      ],
      "name": "modifySellTicketPrice",
      "outputs": [],
      "payable": false,
      "stateMutability": "nonpayable",
      "type": "function"
    },
    {
      "constant": false,
      "inputs": [
        {
          "name": "_newValue",
          "type": "uint256"
        }
      ],
      "name": "modifyGenerateTicketPrice",
      "outputs": [],
      "payable": false,
      "stateMutability": "nonpayable",
      "type": "function"
    },
    {
      "constant": false,
      "inputs": [
        {
          "name": "_newValue",
          "type": "uint256"
        }
      ],
      "name": "modifyOraclizeGasLimit",
      "outputs": [],
      "payable": false,
      "stateMutability": "nonpayable",
      "type": "function"
    },
    {
      "constant": false,
      "inputs": [
        {
          "name": "_newValue",
          "type": "uint256"
        }
      ],
      "name": "modifyOraclizeCustomGasPrice",
      "outputs": [],
      "payable": false,
      "stateMutability": "nonpayable",
      "type": "function"
    },
    {
      "constant": false,
      "inputs": [
        {
          "name": "_newAddress",
          "type": "address"
        }
      ],
      "name": "modifyEnterpriseWallet",
      "outputs": [],
      "payable": false,
      "stateMutability": "nonpayable",
      "type": "function"
    }
  ],
  "bytecode": "0x60c0604052600160808190527f310000000000000000000000000000000000000000000000000000000000000060a090815261003c919081610163565b506040805180820190915260018082527f3800000000000000000000000000000000000000000000000000000000000000602090920191825261008191600291610163565b506040805180820190915260058082527f313030303000000000000000000000000000000000000000000000000000000060209092019182526100c691600391610163565b506040805180820190915260028082527f3230000000000000000000000000000000000000000000000000000000000000602090920191825261010b91600491610163565b50600760058190556611c37937e08000600655662aa1efb94e00009055620493e060085563ee6b280060095560008054600a8054600160a060020a0319908116600160a060020a0384161790915516331790556101fe565b828054600181600116156101000203166002900490600052602060002090601f016020900481019282601f106101a457805160ff19168380011785556101d1565b828001600101855582156101d1579182015b828111156101d15782518255916020019190600101906101b6565b506101dd9291506101e1565b5090565b6101fb91905b808211156101dd57600081556001016101e7565b90565b6109fc8061020d6000396000f3006080604052600436106101065763ffffffff7c01000000000000000000000000000000000000000000000000000000006000350416632e52d606811461010b57806349f6b030146101955780634df7e3d0146101b857806350b9c428146101cd57806359f9fe82146101f4578063715018a614610209578063741606b51461021e578063809fc1531461024f5780638aa5fafa146102675780638da5cb5b1461027f5780639ac2bf91146102945780639ae8886a146102a9578063b582ec5f146102be578063bcb740ab146102d3578063c71f04ac146102eb578063d383e86214610303578063d566bcf01461031b578063e5663c4814610330578063f2fde38b14610345575b600080fd5b34801561011757600080fd5b50610120610366565b6040805160208082528351818301528351919283929083019185019080838360005b8381101561015a578181015183820152602001610142565b50505050905090810190601f1680156101875780820380516001836020036101000a031916815260200191505b509250505060405180910390f35b3480156101a157600080fd5b506101b6600160a060020a03600435166103f1565b005b3480156101c457600080fd5b506101206104ad565b3480156101d957600080fd5b506101e2610507565b60408051918252519081900360200190f35b34801561020057600080fd5b506101e261050d565b34801561021557600080fd5b506101b6610513565b34801561022a57600080fd5b5061023361057f565b60408051600160a060020a039092168252519081900360200190f35b34801561025b57600080fd5b506101b660043561058e565b34801561027357600080fd5b506101b660043561060f565b34801561028b57600080fd5b50610233610690565b3480156102a057600080fd5b506101e261069f565b3480156102b557600080fd5b506101206106a5565b3480156102ca57600080fd5b50610120610700565b3480156102df57600080fd5b506101b660043561075b565b3480156102f757600080fd5b506101b66004356107dc565b34801561030f57600080fd5b506101b660043561085d565b34801561032757600080fd5b506101e2610904565b34801561033c57600080fd5b506101e261090a565b34801561035157600080fd5b506101b6600160a060020a0360043516610910565b6002805460408051602060018416156101000260001901909316849004601f810184900484028201840190925281815292918301828280156103e95780601f106103be576101008083540402835291602001916103e9565b820191906000526020600020905b8154815290600101906020018083116103cc57829003601f168201915b505050505081565b60008054600160a060020a0316331461040957600080fd5b50600a8054600160a060020a0383811673ffffffffffffffffffffffffffffffffffffffff19831681179093556040805191909216602082018190528183019390935260608082526019908201527f456e74657270726973652077616c6c6574206368616e67656400000000000000608082015290517f223db053947bb148de510715d3c7d8ccd72bdd376752fd735ee7bd0bd0ece5bf9181900360a00190a15050565b60018054604080516020600284861615610100026000190190941693909304601f810184900484028201840190925281815292918301828280156103e95780601f106103be576101008083540402835291602001916103e9565b60085481565b60055481565b600054600160a060020a0316331461052a57600080fd5b60008054604051600160a060020a03909116917ff8df31144d9c2f0f6b59d69b8b98abd5459d07f2742c4df920b25aae33c6482091a26000805473ffffffffffffffffffffffffffffffffffffffff19169055565b600a54600160a060020a031681565b60008054600160a060020a031633146105a657600080fd5b50600880549082905560408051602081018390528082018490526060808252601a908201527f4f7261636c697a6520676173206c696d6974206368616e676564000000000000608082015290516000805160206109b18339815191529181900360a00190a15050565b60008054600160a060020a0316331461062757600080fd5b50600680549082905560408051602081018390528082018490526060808252601d908201527f47656e6572617465207469636b6574207072696365206368616e676564000000608082015290516000805160206109b18339815191529181900360a00190a15050565b600054600160a060020a031681565b60095481565b6003805460408051602060026001851615610100026000190190941693909304601f810184900484028201840190925281815292918301828280156103e95780601f106103be576101008083540402835291602001916103e9565b6004805460408051602060026001851615610100026000190190941693909304601f810184900484028201840190925281815292918301828280156103e95780601f106103be576101008083540402835291602001916103e9565b60008054600160a060020a0316331461077357600080fd5b506007805490829055604080516020810183905280820184905260608082526019908201527f53656c6c207469636b6574207072696365206368616e67656400000000000000608082015290516000805160206109b18339815191529181900360a00190a15050565b60008054600160a060020a031633146107f457600080fd5b506005805490829055604080516020810183905280820184905260608082526019908201527f53656c6c207469636b6574207072696365206368616e67656400000000000000608082015290516000805160206109b18339815191529181900360a00190a15050565b60008054600160a060020a0316331461087557600080fd5b506009805490829055604080516020810183905280820184905260608082526021908201527f4f7261636c697a6520637573746f6d20676173207072696365206368616e676560808201527f640000000000000000000000000000000000000000000000000000000000000060a082015290516000805160206109b18339815191529181900360c00190a15050565b60065481565b60075481565b600054600160a060020a0316331461092757600080fd5b61093081610933565b50565b600160a060020a038116151561094857600080fd5b60008054604051600160a060020a03808516939216917f8be0079c531659141344cd1fd0a4f28419497f9722a3daafe3b4186f6b6457e091a36000805473ffffffffffffffffffffffffffffffffffffffff1916600160a060020a039290921691909117905556009bc068999fb1a0aac007a9b44ca6322a376441f42706bf5163600bb3d1a73164a165627a7a723058200a929b56bc7dc4668111e8676ad498764f2d7735a4777185a9a90e4d0dc1b3790029",
  "source": "/**\n  * @author Matias Barrios\n  * @version 1.0\n  */\n\n\n/** @title Lucky7Admin. \n  * This contract contains all the functions to manage the game. \n  * All the functions inside this contract are setted with the onlyOwner modifier.\n  */\n\npragma solidity ^0.4.20;\nimport \"./Ownable.sol\";\nimport \"./SafeMath.sol\";\n\ncontract Lucky7Admin is Ownable{\n\n    /** @dev event to register the change of a number */\n    event numberModified(string describe, uint _oldValue, uint _newValue);\n\n    /** @dev event to register the change of a parameter */\n    event parameterModified(string describe, string _oldValue, string _newValue);\n\n    /** @dev event to register the change of the enterprise wallet */\n    event walletModified(string describe, address _oldValue, address _newValue);\n\n\n    /** @param b Pseudo-random number generator parameter\n      * @param n Pseudo-random number generator parameter\n      * @param p Pseudo-random number generator parameter\n      * @param j Pseudo-random number generator parameter\n      */\n    string public b = \"1\";\n    string public n = \"8\";\n    string public p = \"10000\"; \n    string public j = \"20\";\n    \n    /** @param numberOfLucky7Numbers is the parameter that indicates the number of Lucky7Numbers which are going to be generated\n      * before letting users start buying a ticket. Is used for other functions to shutdown a circuit breaker, lookup in arrays and\n      * order the Lucky7Numbers\n      */\n    uint public numberOfLucky7Numbers = 7;\n    \n    /**\n      * @dev This parameters control the prices of the system\n      *    \n      * The user can generate as many tickets as want, but none of them are going to be selectible\n      * for prices if he don't buy it\n      *\n      * @param generateTicketPrice is the price that users pays to generate a ticket without buying it\n      * @param sellTicketPrice is the price that users pays to actually buy a ticket to participate in the game\n      * @param oraclizeGasLimit is the limit of gas for every oraclize query. Is important to have a good idea of the price of the query\n      * because oraclize don't send back the remaining gas\n      * @param oraclizeCustomGasPrice is the price of the gas for the oraclize querys\n      */\n    uint public generateTicketPrice = 0.005 ether;\n    uint public sellTicketPrice = 0.012 ether;\n    uint public oraclizeGasLimit = 300000 wei;\n    uint public oraclizeCustomGasPrice = 4000000000 wei;\n\n    /**\n      * @param enterpriseWallet is the address of the wallet which will recieve 30% of the balance of this contract when the prizes are delivered\n      */\n    address public enterpriseWallet = owner;\n\n    /**\n      * @dev The next functions are self explanatory\n      * Everyone emits an event to register changes, so there is a register of evolution of the game in the time\n     */\n    function modifyNumberOfLucky7Numbers(uint _newValue) public onlyOwner{\n        uint oldValue = numberOfLucky7Numbers;\n        numberOfLucky7Numbers = _newValue;\n        emit numberModified(\"Sell ticket price changed\", oldValue, _newValue);\n    }\n        \n    function modifySellTicketPrice(uint _newValue) public onlyOwner{\n        uint oldValue = sellTicketPrice;\n        sellTicketPrice = _newValue;\n        emit numberModified(\"Sell ticket price changed\", oldValue, _newValue);\n    }\n    \n    function modifyGenerateTicketPrice(uint _newValue) public onlyOwner{\n        uint oldValue = generateTicketPrice;\n        generateTicketPrice = _newValue;\n        emit numberModified(\"Generate ticket price changed\", oldValue, _newValue);\n    }\n    \n    function modifyOraclizeGasLimit(uint _newValue) public onlyOwner{\n        uint oldValue = oraclizeGasLimit;\n        oraclizeGasLimit = _newValue;\n        emit numberModified(\"Oraclize gas limit changed\", oldValue, _newValue);\n    }\n    \n    function modifyOraclizeCustomGasPrice(uint _newValue) public onlyOwner{\n        uint oldValue = oraclizeCustomGasPrice;\n        oraclizeCustomGasPrice = _newValue;\n        emit numberModified(\"Oraclize custom gas price changed\", oldValue, _newValue);\n    }\n    \n    function modifyEnterpriseWallet(address _newAddress) public onlyOwner{\n        address oldAddress = enterpriseWallet;\n        enterpriseWallet = _newAddress;\n        emit walletModified(\"Enterprise wallet changed\", oldAddress, _newAddress);\n    }\n}   \n                                           \n",
  "sourcePath": "/Users/matiasbarrios/Desktop/Proyecto Consensys/luckyseven/contracts/Lucky7Admin.sol",
  "compiler": {
    "name": "solc",
    "version": "0.4.24+commit.e67f0147.Emscripten.clang"
  },
  "schemaVersion": "2.0.1",
  "updatedAt": "2018-08-27T17:51:20.641Z"
}