{
  "contractName": "Lucky7Admin",
  "abi": [
    {
      "constant": false,
      "inputs": [],
      "name": "renounceOwnership",
      "outputs": [],
      "payable": false,
      "stateMutability": "nonpayable",
      "type": "function"
    },
    {
      "constant": true,
      "inputs": [],
      "name": "owner",
      "outputs": [
        {
          "name": "",
          "type": "address"
        }
      ],
      "payable": false,
      "stateMutability": "view",
      "type": "function"
    },
    {
      "constant": false,
      "inputs": [
        {
          "name": "_newOwner",
          "type": "address"
        }
      ],
      "name": "transferOwnership",
      "outputs": [],
      "payable": false,
      "stateMutability": "nonpayable",
      "type": "function"
    },
    {
      "anonymous": false,
      "inputs": [
        {
          "indexed": false,
          "name": "feeType",
          "type": "string"
        },
        {
          "indexed": false,
          "name": "_oldValue",
          "type": "uint256"
        },
        {
          "indexed": false,
          "name": "_newValue",
          "type": "uint256"
        }
      ],
      "name": "numberModified",
      "type": "event"
    },
    {
      "anonymous": false,
      "inputs": [
        {
          "indexed": false,
          "name": "parameter",
          "type": "string"
        },
        {
          "indexed": false,
          "name": "_oldValue",
          "type": "string"
        },
        {
          "indexed": false,
          "name": "_newValue",
          "type": "string"
        }
      ],
      "name": "parameterModified",
      "type": "event"
    },
    {
      "anonymous": false,
      "inputs": [
        {
          "indexed": false,
          "name": "parameter",
          "type": "string"
        },
        {
          "indexed": false,
          "name": "_oldValue",
          "type": "address"
        },
        {
          "indexed": false,
          "name": "_newValue",
          "type": "address"
        }
      ],
      "name": "walletModified",
      "type": "event"
    },
    {
      "anonymous": false,
      "inputs": [
        {
          "indexed": true,
          "name": "previousOwner",
          "type": "address"
        }
      ],
      "name": "OwnershipRenounced",
      "type": "event"
    },
    {
      "anonymous": false,
      "inputs": [
        {
          "indexed": true,
          "name": "previousOwner",
          "type": "address"
        },
        {
          "indexed": true,
          "name": "newOwner",
          "type": "address"
        }
      ],
      "name": "OwnershipTransferred",
      "type": "event"
    },
    {
      "constant": false,
      "inputs": [
        {
          "name": "_newValue",
          "type": "uint256"
        }
      ],
      "name": "modifyNumberOfLucky7Numbers",
      "outputs": [],
      "payable": false,
      "stateMutability": "nonpayable",
      "type": "function"
    },
    {
      "constant": false,
      "inputs": [
        {
          "name": "_newValue",
          "type": "uint256"
        }
      ],
      "name": "modifyNumberOfWinners",
      "outputs": [],
      "payable": false,
      "stateMutability": "nonpayable",
      "type": "function"
    },
    {
      "constant": false,
      "inputs": [
        {
          "name": "_newValue",
          "type": "uint256"
        }
      ],
      "name": "modifySellTicketPrice",
      "outputs": [],
      "payable": false,
      "stateMutability": "nonpayable",
      "type": "function"
    },
    {
      "constant": false,
      "inputs": [
        {
          "name": "_newValue",
          "type": "uint256"
        }
      ],
      "name": "modifyGenerateTicketPrice",
      "outputs": [],
      "payable": false,
      "stateMutability": "nonpayable",
      "type": "function"
    },
    {
      "constant": false,
      "inputs": [
        {
          "name": "_newValue",
          "type": "uint256"
        }
      ],
      "name": "modifyOraclizeGasLimit",
      "outputs": [],
      "payable": false,
      "stateMutability": "nonpayable",
      "type": "function"
    },
    {
      "constant": false,
      "inputs": [
        {
          "name": "_newValue",
          "type": "uint256"
        }
      ],
      "name": "modifyOraclizeCustomGasPrice",
      "outputs": [],
      "payable": false,
      "stateMutability": "nonpayable",
      "type": "function"
    },
    {
      "constant": false,
      "inputs": [
        {
          "name": "_newValue",
          "type": "string"
        }
      ],
      "name": "modifyParameterB",
      "outputs": [],
      "payable": false,
      "stateMutability": "nonpayable",
      "type": "function"
    },
    {
      "constant": false,
      "inputs": [
        {
          "name": "_newValue",
          "type": "string"
        }
      ],
      "name": "modifyParameterN",
      "outputs": [],
      "payable": false,
      "stateMutability": "nonpayable",
      "type": "function"
    },
    {
      "constant": false,
      "inputs": [
        {
          "name": "_newValue",
          "type": "string"
        }
      ],
      "name": "modifyParameterP",
      "outputs": [],
      "payable": false,
      "stateMutability": "nonpayable",
      "type": "function"
    },
    {
      "constant": false,
      "inputs": [
        {
          "name": "_newValue",
          "type": "string"
        }
      ],
      "name": "modifyParameterJ",
      "outputs": [],
      "payable": false,
      "stateMutability": "nonpayable",
      "type": "function"
    },
    {
      "constant": false,
      "inputs": [
        {
          "name": "_newAddress",
          "type": "address"
        }
      ],
      "name": "modifyEnterprisePrize",
      "outputs": [],
      "payable": false,
      "stateMutability": "nonpayable",
      "type": "function"
    }
  ],
  "bytecode": "0x60806040526040805190810160405280600181526020017f3100000000000000000000000000000000000000000000000000000000000000815250600190805190602001906200005192919062000206565b506040805190810160405280600181526020017f3800000000000000000000000000000000000000000000000000000000000000815250600290805190602001906200009f92919062000206565b506040805190810160405280600481526020017f313030300000000000000000000000000000000000000000000000000000000081525060039080519060200190620000ed92919062000206565b506040805190810160405280600281526020017f3230000000000000000000000000000000000000000000000000000000000000815250600490805190602001906200013b92919062000206565b5060076005556003600655660110d9316ec000600755660aa87bee538000600855624c4b4060095563ee6b2800600a5573265a5c3dd46ec82e2744f1d0e9fb4ed75d56132a600b60006101000a81548173ffffffffffffffffffffffffffffffffffffffff021916908373ffffffffffffffffffffffffffffffffffffffff160217905550336000806101000a81548173ffffffffffffffffffffffffffffffffffffffff021916908373ffffffffffffffffffffffffffffffffffffffff160217905550620002b5565b828054600181600116156101000203166002900490600052602060002090601f016020900481019282601f106200024957805160ff19168380011785556200027a565b828001600101855582156200027a579182015b82811115620002795782518255916020019190600101906200025c565b5b5090506200028991906200028d565b5090565b620002b291905b80821115620002ae57600081600090555060010162000294565b5090565b90565b61184b80620002c56000396000f3006080604052600436106100d0576000357c0100000000000000000000000000000000000000000000000000000000900463ffffffff1680630cc38b2b146100d55780633bb7daf41461013e578063715018a6146101a7578063809fc153146101be57806383bb7bb7146101eb5780638aa5fafa146102545780638da5cb5b1461028157806396701ce9146102d85780639dec38ab1461031b578063bcb740ab14610384578063c71f04ac146103b1578063c90cdc7e146103de578063d383e8621461040b578063f2fde38b14610438575b600080fd5b3480156100e157600080fd5b5061013c600480360381019080803590602001908201803590602001908080601f016020809104026020016040519081016040528093929190818152602001838380828437820191505050505050919291929050505061047b565b005b34801561014a57600080fd5b506101a5600480360381019080803590602001908201803590602001908080601f01602080910402602001604051908101604052809392919081815260200183838082843782019150505050505091929192905050506106d2565b005b3480156101b357600080fd5b506101bc610929565b005b3480156101ca57600080fd5b506101e960048036038101908080359060200190929190505050610a2b565b005b3480156101f757600080fd5b50610252600480360381019080803590602001908201803590602001908080601f0160208091040260200160405190810160405280939291908181526020018383808284378201915050505050509192919290505050610b10565b005b34801561026057600080fd5b5061027f60048036038101908080359060200190929190505050610d67565b005b34801561028d57600080fd5b50610296610e4c565b604051808273ffffffffffffffffffffffffffffffffffffffff1673ffffffffffffffffffffffffffffffffffffffff16815260200191505060405180910390f35b3480156102e457600080fd5b50610319600480360381019080803573ffffffffffffffffffffffffffffffffffffffff169060200190929190505050610e71565b005b34801561032757600080fd5b50610382600480360381019080803590602001908201803590602001908080601f0160208091040260200160405190810160405280939291908181526020018383808284378201915050505050509192919290505050611008565b005b34801561039057600080fd5b506103af6004803603810190808035906020019092919050505061125f565b005b3480156103bd57600080fd5b506103dc60048036038101908080359060200190929190505050611344565b005b3480156103ea57600080fd5b5061040960048036038101908080359060200190929190505050611429565b005b34801561041757600080fd5b506104366004803603810190808035906020019092919050505061150e565b005b34801561044457600080fd5b50610479600480360381019080803573ffffffffffffffffffffffffffffffffffffffff169060200190929190505050611619565b005b60606000809054906101000a900473ffffffffffffffffffffffffffffffffffffffff1673ffffffffffffffffffffffffffffffffffffffff163373ffffffffffffffffffffffffffffffffffffffff161415156104d857600080fd5b60028054600181600116156101000203166002900480601f01602080910402602001604051908101604052809291908181526020018280546001816001161561010002031660029004801561056e5780601f106105435761010080835404028352916020019161056e565b820191906000526020600020905b81548152906001019060200180831161055157829003601f168201915b50505050509050816002908051906020019061058b92919061177a565b507f7ecbd54b3baea533cf57ef049f9e04554be6a660d6dacd477488066eedf27bee818360405180806020018060200180602001848103845260148152602001807f506172616d65746572206e206d6f646966696564000000000000000000000000815250602001848103835286818151815260200191508051906020019080838360005b8381101561062b578082015181840152602081019050610610565b50505050905090810190601f1680156106585780820380516001836020036101000a031916815260200191505b50848103825285818151815260200191508051906020019080838360005b83811015610691578082015181840152602081019050610676565b50505050905090810190601f1680156106be5780820380516001836020036101000a031916815260200191505b509550505050505060405180910390a15050565b60606000809054906101000a900473ffffffffffffffffffffffffffffffffffffffff1673ffffffffffffffffffffffffffffffffffffffff163373ffffffffffffffffffffffffffffffffffffffff1614151561072f57600080fd5b60048054600181600116156101000203166002900480601f0160208091040260200160405190810160405280929190818152602001828054600181600116156101000203166002900480156107c55780601f1061079a576101008083540402835291602001916107c5565b820191906000526020600020905b8154815290600101906020018083116107a857829003601f168201915b5050505050905081600490805190602001906107e292919061177a565b507f7ecbd54b3baea533cf57ef049f9e04554be6a660d6dacd477488066eedf27bee818360405180806020018060200180602001848103845260148152602001807f506172616d65746572206a206d6f646966696564000000000000000000000000815250602001848103835286818151815260200191508051906020019080838360005b83811015610882578082015181840152602081019050610867565b50505050905090810190601f1680156108af5780820380516001836020036101000a031916815260200191505b50848103825285818151815260200191508051906020019080838360005b838110156108e85780820151818401526020810190506108cd565b50505050905090810190601f1680156109155780820380516001836020036101000a031916815260200191505b509550505050505060405180910390a15050565b6000809054906101000a900473ffffffffffffffffffffffffffffffffffffffff1673ffffffffffffffffffffffffffffffffffffffff163373ffffffffffffffffffffffffffffffffffffffff1614151561098457600080fd5b6000809054906101000a900473ffffffffffffffffffffffffffffffffffffffff1673ffffffffffffffffffffffffffffffffffffffff167ff8df31144d9c2f0f6b59d69b8b98abd5459d07f2742c4df920b25aae33c6482060405160405180910390a260008060006101000a81548173ffffffffffffffffffffffffffffffffffffffff021916908373ffffffffffffffffffffffffffffffffffffffff160217905550565b60008060009054906101000a900473ffffffffffffffffffffffffffffffffffffffff1673ffffffffffffffffffffffffffffffffffffffff163373ffffffffffffffffffffffffffffffffffffffff16141515610a8857600080fd5b6009549050816009819055507f9bc068999fb1a0aac007a9b44ca6322a376441f42706bf5163600bb3d1a73164818360405180806020018481526020018381526020018281038252601a8152602001807f4f7261636c697a6520676173206c696d6974206368616e676564000000000000815250602001935050505060405180910390a15050565b60606000809054906101000a900473ffffffffffffffffffffffffffffffffffffffff1673ffffffffffffffffffffffffffffffffffffffff163373ffffffffffffffffffffffffffffffffffffffff16141515610b6d57600080fd5b60018054600181600116156101000203166002900480601f016020809104026020016040519081016040528092919081815260200182805460018160011615610100020316600290048015610c035780601f10610bd857610100808354040283529160200191610c03565b820191906000526020600020905b815481529060010190602001808311610be657829003601f168201915b505050505090508160019080519060200190610c2092919061177a565b507f7ecbd54b3baea533cf57ef049f9e04554be6a660d6dacd477488066eedf27bee818360405180806020018060200180602001848103845260148152602001807f506172616d657465722062206d6f646966696564000000000000000000000000815250602001848103835286818151815260200191508051906020019080838360005b83811015610cc0578082015181840152602081019050610ca5565b50505050905090810190601f168015610ced5780820380516001836020036101000a031916815260200191505b50848103825285818151815260200191508051906020019080838360005b83811015610d26578082015181840152602081019050610d0b565b50505050905090810190601f168015610d535780820380516001836020036101000a031916815260200191505b509550505050505060405180910390a15050565b60008060009054906101000a900473ffffffffffffffffffffffffffffffffffffffff1673ffffffffffffffffffffffffffffffffffffffff163373ffffffffffffffffffffffffffffffffffffffff16141515610dc457600080fd5b6007549050816007819055507f9bc068999fb1a0aac007a9b44ca6322a376441f42706bf5163600bb3d1a73164818360405180806020018481526020018381526020018281038252601d8152602001807f47656e6572617465207469636b6574207072696365206368616e676564000000815250602001935050505060405180910390a15050565b6000809054906101000a900473ffffffffffffffffffffffffffffffffffffffff1681565b60008060009054906101000a900473ffffffffffffffffffffffffffffffffffffffff1673ffffffffffffffffffffffffffffffffffffffff163373ffffffffffffffffffffffffffffffffffffffff16141515610ece57600080fd5b600b60009054906101000a900473ffffffffffffffffffffffffffffffffffffffff16905081600b60006101000a81548173ffffffffffffffffffffffffffffffffffffffff021916908373ffffffffffffffffffffffffffffffffffffffff1602179055507f223db053947bb148de510715d3c7d8ccd72bdd376752fd735ee7bd0bd0ece5bf818360405180806020018473ffffffffffffffffffffffffffffffffffffffff1673ffffffffffffffffffffffffffffffffffffffff1681526020018373ffffffffffffffffffffffffffffffffffffffff1673ffffffffffffffffffffffffffffffffffffffff168152602001828103825260198152602001807f456e74657270726973652077616c6c6574206368616e67656400000000000000815250602001935050505060405180910390a15050565b60606000809054906101000a900473ffffffffffffffffffffffffffffffffffffffff1673ffffffffffffffffffffffffffffffffffffffff163373ffffffffffffffffffffffffffffffffffffffff1614151561106557600080fd5b60038054600181600116156101000203166002900480601f0160208091040260200160405190810160405280929190818152602001828054600181600116156101000203166002900480156110fb5780601f106110d0576101008083540402835291602001916110fb565b820191906000526020600020905b8154815290600101906020018083116110de57829003601f168201915b50505050509050816003908051906020019061111892919061177a565b507f7ecbd54b3baea533cf57ef049f9e04554be6a660d6dacd477488066eedf27bee818360405180806020018060200180602001848103845260148152602001807f506172616d657465722070206d6f646966696564000000000000000000000000815250602001848103835286818151815260200191508051906020019080838360005b838110156111b857808201518184015260208101905061119d565b50505050905090810190601f1680156111e55780820380516001836020036101000a031916815260200191505b50848103825285818151815260200191508051906020019080838360005b8381101561121e578082015181840152602081019050611203565b50505050905090810190601f16801561124b5780820380516001836020036101000a031916815260200191505b509550505050505060405180910390a15050565b60008060009054906101000a900473ffffffffffffffffffffffffffffffffffffffff1673ffffffffffffffffffffffffffffffffffffffff163373ffffffffffffffffffffffffffffffffffffffff161415156112bc57600080fd5b6008549050816008819055507f9bc068999fb1a0aac007a9b44ca6322a376441f42706bf5163600bb3d1a7316481836040518080602001848152602001838152602001828103825260198152602001807f53656c6c207469636b6574207072696365206368616e67656400000000000000815250602001935050505060405180910390a15050565b60008060009054906101000a900473ffffffffffffffffffffffffffffffffffffffff1673ffffffffffffffffffffffffffffffffffffffff163373ffffffffffffffffffffffffffffffffffffffff161415156113a157600080fd5b6008549050816008819055507f9bc068999fb1a0aac007a9b44ca6322a376441f42706bf5163600bb3d1a7316481836040518080602001848152602001838152602001828103825260198152602001807f53656c6c207469636b6574207072696365206368616e67656400000000000000815250602001935050505060405180910390a15050565b60008060009054906101000a900473ffffffffffffffffffffffffffffffffffffffff1673ffffffffffffffffffffffffffffffffffffffff163373ffffffffffffffffffffffffffffffffffffffff1614151561148657600080fd5b6006549050816006819055507f9bc068999fb1a0aac007a9b44ca6322a376441f42706bf5163600bb3d1a7316481836040518080602001848152602001838152602001828103825260198152602001807f4e756d626572206f662077696e6e657273206368616e67656400000000000000815250602001935050505060405180910390a15050565b60008060009054906101000a900473ffffffffffffffffffffffffffffffffffffffff1673ffffffffffffffffffffffffffffffffffffffff163373ffffffffffffffffffffffffffffffffffffffff1614151561156b57600080fd5b600a54905081600a819055507f9bc068999fb1a0aac007a9b44ca6322a376441f42706bf5163600bb3d1a7316481836040518080602001848152602001838152602001828103825260218152602001807f4f7261636c697a6520637573746f6d20676173207072696365206368616e676581526020017f6400000000000000000000000000000000000000000000000000000000000000815250604001935050505060405180910390a15050565b6000809054906101000a900473ffffffffffffffffffffffffffffffffffffffff1673ffffffffffffffffffffffffffffffffffffffff163373ffffffffffffffffffffffffffffffffffffffff1614151561167457600080fd5b61167d81611680565b50565b600073ffffffffffffffffffffffffffffffffffffffff168173ffffffffffffffffffffffffffffffffffffffff16141515156116bc57600080fd5b8073ffffffffffffffffffffffffffffffffffffffff166000809054906101000a900473ffffffffffffffffffffffffffffffffffffffff1673ffffffffffffffffffffffffffffffffffffffff167f8be0079c531659141344cd1fd0a4f28419497f9722a3daafe3b4186f6b6457e060405160405180910390a3806000806101000a81548173ffffffffffffffffffffffffffffffffffffffff021916908373ffffffffffffffffffffffffffffffffffffffff16021790555050565b828054600181600116156101000203166002900490600052602060002090601f016020900481019282601f106117bb57805160ff19168380011785556117e9565b828001600101855582156117e9579182015b828111156117e85782518255916020019190600101906117cd565b5b5090506117f691906117fa565b5090565b61181c91905b80821115611818576000816000905550600101611800565b5090565b905600a165627a7a7230582081ed301ffa08ad0a353547b5fd4151f75d09d01a4e1b71ec2c84013e890bedc60029",
  "source": "pragma solidity ^0.4.20;\nimport \"./Ownable.sol\";\nimport \"./SafeMath.sol\";\n\n\ncontract Lucky7Admin is Ownable{\n    \n    using SafeMath for uint256;\n    \n    event numberModified(string feeType, uint _oldValue, uint _newValue);\n    event parameterModified(string parameter, string _oldValue, string _newValue);\n    event walletModified(string parameter, address _oldValue, address _newValue);\n\n    \n    string b = \"1\";\n    string n = \"8\";\n    string p = \"1000\"; \n    string j = \"20\";\n    \n    uint numberOfLucky7Numbers = 7;\n    uint numberOfWinners = 3;\n    \n    uint generateTicketPrice = 0.0003 ether;\n    uint sellTicketPrice = 0.003 ether;\n    uint oraclizeGasLimit = 5000000 wei;\n    uint oraclizeCustomGasPrice = 4000000000 wei;\n    address enterpriseWallet = address(0x265a5c3dd46ec82e2744f1d0e9fb4ed75d56132a);\n    \n    function modifyNumberOfLucky7Numbers(uint _newValue) public onlyOwner{\n        uint oldValue = sellTicketPrice;\n        sellTicketPrice = _newValue;\n        emit numberModified(\"Sell ticket price changed\", oldValue, _newValue);\n    }\n    \n    function modifyNumberOfWinners(uint _newValue) public onlyOwner{\n        uint oldValue = numberOfWinners;\n        numberOfWinners = _newValue;\n        emit numberModified(\"Number of winners changed\", oldValue, _newValue);\n    }\n    \n    function modifySellTicketPrice(uint _newValue) public onlyOwner{\n        uint oldValue = sellTicketPrice;\n        sellTicketPrice = _newValue;\n        emit numberModified(\"Sell ticket price changed\", oldValue, _newValue);\n    }\n    \n    function modifyGenerateTicketPrice(uint _newValue) public onlyOwner{\n        uint oldValue = generateTicketPrice;\n        generateTicketPrice = _newValue;\n        emit numberModified(\"Generate ticket price changed\", oldValue, _newValue);\n        \n    }\n    \n    function modifyOraclizeGasLimit(uint _newValue) public onlyOwner{\n        uint oldValue = oraclizeGasLimit;\n        oraclizeGasLimit = _newValue;\n        emit numberModified(\"Oraclize gas limit changed\", oldValue, _newValue);\n    }\n    \n    function modifyOraclizeCustomGasPrice(uint _newValue) public onlyOwner{\n        uint oldValue = oraclizeCustomGasPrice;\n        oraclizeCustomGasPrice = _newValue;\n        emit numberModified(\"Oraclize custom gas price changed\", oldValue, _newValue);\n    }\n    \n    function modifyParameterB(string _newValue) public onlyOwner{\n        string memory oldValue = b;\n        b = _newValue;\n        emit parameterModified(\"Parameter b modified\", oldValue, _newValue);\n    }\n    \n    function modifyParameterN(string _newValue) public onlyOwner{\n        string memory oldValue = n;\n        n = _newValue;\n        emit parameterModified(\"Parameter n modified\", oldValue, _newValue);\n    }\n    \n    function modifyParameterP(string _newValue) public onlyOwner{\n        string memory oldValue = p;\n        p = _newValue;\n        emit parameterModified(\"Parameter p modified\", oldValue, _newValue);\n    }\n    \n    function modifyParameterJ(string _newValue) public onlyOwner{\n        string memory oldValue = j;\n        j = _newValue;\n        emit parameterModified(\"Parameter j modified\", oldValue, _newValue);\n    }\n    \n    function modifyEnterprisePrize(address _newAddress) public onlyOwner{\n        address oldAddress = enterpriseWallet;\n        enterpriseWallet = _newAddress;\n        emit walletModified(\"Enterprise wallet changed\", oldAddress, _newAddress);\n    }\n}   \n                                           \n",
  "sourcePath": "/Users/matiasbarrios/Desktop/Proyecto Consensys/luckyseven/contracts/Lucky7Admin.sol",
  "compiler": {
    "name": "solc",
    "version": "0.4.24+commit.e67f0147.Emscripten.clang"
  },
  "schemaVersion": "2.0.1",
  "updatedAt": "2018-08-13T15:32:01.669Z"
}