{
  "contractName": "Lucky7Store",
  "abi": [
    {
      "constant": false,
      "inputs": [
        {
          "name": "_newValue",
          "type": "uint256"
        }
      ],
      "name": "setInitialLucky7TicketPosition",
      "outputs": [],
      "payable": false,
      "stateMutability": "nonpayable",
      "type": "function"
    },
    {
      "constant": true,
      "inputs": [
        {
          "name": "",
          "type": "uint256"
        }
      ],
      "name": "lucky7TicketID",
      "outputs": [
        {
          "name": "",
          "type": "uint256"
        }
      ],
      "payable": false,
      "stateMutability": "view",
      "type": "function"
    },
    {
      "constant": false,
      "inputs": [
        {
          "name": "_newValue",
          "type": "uint256"
        }
      ],
      "name": "setIndexForLucky7Array",
      "outputs": [],
      "payable": false,
      "stateMutability": "nonpayable",
      "type": "function"
    },
    {
      "constant": true,
      "inputs": [
        {
          "name": "",
          "type": "uint256"
        }
      ],
      "name": "lucky7TicketOwner",
      "outputs": [
        {
          "name": "",
          "type": "address"
        }
      ],
      "payable": false,
      "stateMutability": "view",
      "type": "function"
    },
    {
      "constant": false,
      "inputs": [],
      "name": "_orderLucky7Tickets",
      "outputs": [],
      "payable": false,
      "stateMutability": "nonpayable",
      "type": "function"
    },
    {
      "constant": false,
      "inputs": [
        {
          "name": "_ticketOwner",
          "type": "address"
        }
      ],
      "name": "_askForMuParameter",
      "outputs": [],
      "payable": false,
      "stateMutability": "nonpayable",
      "type": "function"
    },
    {
      "constant": false,
      "inputs": [
        {
          "name": "myid",
          "type": "bytes32"
        },
        {
          "name": "result",
          "type": "string"
        }
      ],
      "name": "__callback",
      "outputs": [],
      "payable": false,
      "stateMutability": "nonpayable",
      "type": "function"
    },
    {
      "constant": true,
      "inputs": [],
      "name": "settingLucky7Numbers",
      "outputs": [
        {
          "name": "",
          "type": "bool"
        }
      ],
      "payable": false,
      "stateMutability": "view",
      "type": "function"
    },
    {
      "constant": false,
      "inputs": [
        {
          "name": "_ticketID",
          "type": "uint256"
        }
      ],
      "name": "_checkForLucky7Ticket",
      "outputs": [],
      "payable": false,
      "stateMutability": "nonpayable",
      "type": "function"
    },
    {
      "constant": true,
      "inputs": [],
      "name": "n",
      "outputs": [
        {
          "name": "",
          "type": "string"
        }
      ],
      "payable": false,
      "stateMutability": "view",
      "type": "function"
    },
    {
      "constant": false,
      "inputs": [
        {
          "name": "myid",
          "type": "bytes32"
        },
        {
          "name": "result",
          "type": "string"
        },
        {
          "name": "proof",
          "type": "bytes"
        }
      ],
      "name": "__callback",
      "outputs": [],
      "payable": false,
      "stateMutability": "nonpayable",
      "type": "function"
    },
    {
      "constant": false,
      "inputs": [],
      "name": "toggleLucky7Setting",
      "outputs": [],
      "payable": false,
      "stateMutability": "nonpayable",
      "type": "function"
    },
    {
      "constant": false,
      "inputs": [],
      "name": "withdraw",
      "outputs": [],
      "payable": false,
      "stateMutability": "nonpayable",
      "type": "function"
    },
    {
      "constant": false,
      "inputs": [],
      "name": "setNewGame",
      "outputs": [],
      "payable": false,
      "stateMutability": "nonpayable",
      "type": "function"
    },
    {
      "constant": false,
      "inputs": [
        {
          "name": "_newAddress",
          "type": "address"
        }
      ],
      "name": "modifyEnterpriseWallet",
      "outputs": [],
      "payable": false,
      "stateMutability": "nonpayable",
      "type": "function"
    },
    {
      "constant": true,
      "inputs": [
        {
          "name": "",
          "type": "address"
        }
      ],
      "name": "userValues",
      "outputs": [
        {
          "name": "mu",
          "type": "string"
        },
        {
          "name": "i",
          "type": "string"
        },
        {
          "name": "ticketValue",
          "type": "uint256"
        },
        {
          "name": "muReady",
          "type": "bool"
        },
        {
          "name": "iReady",
          "type": "bool"
        },
        {
          "name": "userPaidTicket",
          "type": "bool"
        }
      ],
      "payable": false,
      "stateMutability": "view",
      "type": "function"
    },
    {
      "constant": true,
      "inputs": [],
      "name": "b",
      "outputs": [
        {
          "name": "",
          "type": "string"
        }
      ],
      "payable": false,
      "stateMutability": "view",
      "type": "function"
    },
    {
      "constant": true,
      "inputs": [],
      "name": "oraclizeGasLimit",
      "outputs": [
        {
          "name": "",
          "type": "uint256"
        }
      ],
      "payable": false,
      "stateMutability": "view",
      "type": "function"
    },
    {
      "constant": false,
      "inputs": [
        {
          "name": "_newOAR",
          "type": "address"
        }
      ],
      "name": "changeOAR",
      "outputs": [],
      "payable": false,
      "stateMutability": "nonpayable",
      "type": "function"
    },
    {
      "constant": true,
      "inputs": [],
      "name": "numberOfLucky7Numbers",
      "outputs": [
        {
          "name": "",
          "type": "uint256"
        }
      ],
      "payable": false,
      "stateMutability": "view",
      "type": "function"
    },
    {
      "constant": false,
      "inputs": [
        {
          "name": "_id",
          "type": "uint256"
        },
        {
          "name": "_mu",
          "type": "string"
        },
        {
          "name": "_i",
          "type": "string"
        },
        {
          "name": "_ticketValue",
          "type": "uint256"
        },
        {
          "name": "_drawNumber",
          "type": "uint256"
        }
      ],
      "name": "insertCustomizedLucky7Number",
      "outputs": [],
      "payable": false,
      "stateMutability": "nonpayable",
      "type": "function"
    },
    {
      "constant": false,
      "inputs": [],
      "name": "renounceOwnership",
      "outputs": [],
      "payable": false,
      "stateMutability": "nonpayable",
      "type": "function"
    },
    {
      "constant": true,
      "inputs": [],
      "name": "enterpriseWallet",
      "outputs": [
        {
          "name": "",
          "type": "address"
        }
      ],
      "payable": false,
      "stateMutability": "view",
      "type": "function"
    },
    {
      "constant": false,
      "inputs": [],
      "name": "_orderLucky7Numbers",
      "outputs": [],
      "payable": false,
      "stateMutability": "nonpayable",
      "type": "function"
    },
    {
      "constant": false,
      "inputs": [
        {
          "name": "_ticketOwner",
          "type": "address"
        }
      ],
      "name": "_generateTicket",
      "outputs": [],
      "payable": false,
      "stateMutability": "nonpayable",
      "type": "function"
    },
    {
      "constant": true,
      "inputs": [],
      "name": "lastSecondPrizeWinner",
      "outputs": [
        {
          "name": "",
          "type": "address"
        }
      ],
      "payable": false,
      "stateMutability": "view",
      "type": "function"
    },
    {
      "constant": false,
      "inputs": [
        {
          "name": "_newValue",
          "type": "uint256"
        }
      ],
      "name": "modifyOraclizeGasLimit",
      "outputs": [],
      "payable": false,
      "stateMutability": "nonpayable",
      "type": "function"
    },
    {
      "constant": false,
      "inputs": [],
      "name": "destroy",
      "outputs": [],
      "payable": false,
      "stateMutability": "nonpayable",
      "type": "function"
    },
    {
      "constant": true,
      "inputs": [
        {
          "name": "",
          "type": "uint256"
        }
      ],
      "name": "ExactLucky7TicketValue",
      "outputs": [
        {
          "name": "",
          "type": "uint256"
        }
      ],
      "payable": false,
      "stateMutability": "view",
      "type": "function"
    },
    {
      "constant": false,
      "inputs": [
        {
          "name": "_newValue",
          "type": "uint256"
        }
      ],
      "name": "modifyGenerateTicketPrice",
      "outputs": [],
      "payable": false,
      "stateMutability": "nonpayable",
      "type": "function"
    },
    {
      "constant": true,
      "inputs": [
        {
          "name": "",
          "type": "uint256"
        }
      ],
      "name": "ExactLucky7TicketID",
      "outputs": [
        {
          "name": "",
          "type": "uint256"
        }
      ],
      "payable": false,
      "stateMutability": "view",
      "type": "function"
    },
    {
      "constant": true,
      "inputs": [],
      "name": "owner",
      "outputs": [
        {
          "name": "",
          "type": "address"
        }
      ],
      "payable": false,
      "stateMutability": "view",
      "type": "function"
    },
    {
      "constant": false,
      "inputs": [],
      "name": "_generateLucky7Number",
      "outputs": [],
      "payable": false,
      "stateMutability": "nonpayable",
      "type": "function"
    },
    {
      "constant": true,
      "inputs": [
        {
          "name": "",
          "type": "uint256"
        }
      ],
      "name": "lucky7NumbersArray",
      "outputs": [
        {
          "name": "mu",
          "type": "string"
        },
        {
          "name": "i",
          "type": "string"
        },
        {
          "name": "ticketValue",
          "type": "uint256"
        },
        {
          "name": "drawID",
          "type": "uint256"
        }
      ],
      "payable": false,
      "stateMutability": "view",
      "type": "function"
    },
    {
      "constant": true,
      "inputs": [],
      "name": "lastFirstPrizeWinner",
      "outputs": [
        {
          "name": "",
          "type": "address"
        }
      ],
      "payable": false,
      "stateMutability": "view",
      "type": "function"
    },
    {
      "constant": true,
      "inputs": [],
      "name": "oraclizeCustomGasPrice",
      "outputs": [
        {
          "name": "",
          "type": "uint256"
        }
      ],
      "payable": false,
      "stateMutability": "view",
      "type": "function"
    },
    {
      "constant": true,
      "inputs": [],
      "name": "p",
      "outputs": [
        {
          "name": "",
          "type": "string"
        }
      ],
      "payable": false,
      "stateMutability": "view",
      "type": "function"
    },
    {
      "constant": true,
      "inputs": [
        {
          "name": "",
          "type": "uint256"
        }
      ],
      "name": "ticketsArray",
      "outputs": [
        {
          "name": "mu",
          "type": "string"
        },
        {
          "name": "i",
          "type": "string"
        },
        {
          "name": "ticketValue",
          "type": "uint256"
        },
        {
          "name": "owner",
          "type": "address"
        },
        {
          "name": "drawID",
          "type": "uint256"
        }
      ],
      "payable": false,
      "stateMutability": "view",
      "type": "function"
    },
    {
      "constant": true,
      "inputs": [],
      "name": "j",
      "outputs": [
        {
          "name": "",
          "type": "string"
        }
      ],
      "payable": false,
      "stateMutability": "view",
      "type": "function"
    },
    {
      "constant": false,
      "inputs": [
        {
          "name": "_mu",
          "type": "string"
        },
        {
          "name": "_i",
          "type": "string"
        },
        {
          "name": "_ticketValue",
          "type": "uint256"
        },
        {
          "name": "_ticketOwner",
          "type": "address"
        },
        {
          "name": "_drawNumber",
          "type": "uint256"
        }
      ],
      "name": "insertCustomizedTicket",
      "outputs": [
        {
          "name": "",
          "type": "uint256"
        }
      ],
      "payable": false,
      "stateMutability": "nonpayable",
      "type": "function"
    },
    {
      "constant": true,
      "inputs": [],
      "name": "initialLucky7TicketPosition",
      "outputs": [
        {
          "name": "",
          "type": "uint256"
        }
      ],
      "payable": false,
      "stateMutability": "view",
      "type": "function"
    },
    {
      "constant": false,
      "inputs": [
        {
          "name": "_newValue",
          "type": "uint256"
        }
      ],
      "name": "modifySellTicketPrice",
      "outputs": [],
      "payable": false,
      "stateMutability": "nonpayable",
      "type": "function"
    },
    {
      "constant": false,
      "inputs": [],
      "name": "_cleanMappings",
      "outputs": [],
      "payable": false,
      "stateMutability": "nonpayable",
      "type": "function"
    },
    {
      "constant": true,
      "inputs": [],
      "name": "indexForLucky7Array",
      "outputs": [
        {
          "name": "",
          "type": "uint256"
        }
      ],
      "payable": false,
      "stateMutability": "view",
      "type": "function"
    },
    {
      "constant": true,
      "inputs": [
        {
          "name": "",
          "type": "uint256"
        }
      ],
      "name": "lucky7TicketsArray",
      "outputs": [
        {
          "name": "difference",
          "type": "uint256"
        },
        {
          "name": "owner",
          "type": "address"
        },
        {
          "name": "ticketID",
          "type": "uint256"
        },
        {
          "name": "ticketValue",
          "type": "uint256"
        },
        {
          "name": "lucky7Number",
          "type": "uint256"
        },
        {
          "name": "lucky7NumberID",
          "type": "uint256"
        },
        {
          "name": "drawID",
          "type": "uint256"
        }
      ],
      "payable": false,
      "stateMutability": "view",
      "type": "function"
    },
    {
      "constant": false,
      "inputs": [
        {
          "name": "_newValue",
          "type": "uint256"
        }
      ],
      "name": "modifyNumberOfLucky7Numbers",
      "outputs": [],
      "payable": false,
      "stateMutability": "nonpayable",
      "type": "function"
    },
    {
      "constant": false,
      "inputs": [
        {
          "name": "_newValue",
          "type": "uint256"
        }
      ],
      "name": "modifyOraclizeCustomGasPrice",
      "outputs": [],
      "payable": false,
      "stateMutability": "nonpayable",
      "type": "function"
    },
    {
      "constant": true,
      "inputs": [],
      "name": "generateTicketPrice",
      "outputs": [
        {
          "name": "",
          "type": "uint256"
        }
      ],
      "payable": false,
      "stateMutability": "view",
      "type": "function"
    },
    {
      "constant": true,
      "inputs": [],
      "name": "drawNumber",
      "outputs": [
        {
          "name": "",
          "type": "uint256"
        }
      ],
      "payable": false,
      "stateMutability": "view",
      "type": "function"
    },
    {
      "constant": true,
      "inputs": [],
      "name": "indexForExactLucky7Ticket",
      "outputs": [
        {
          "name": "",
          "type": "uint256"
        }
      ],
      "payable": false,
      "stateMutability": "view",
      "type": "function"
    },
    {
      "constant": false,
      "inputs": [
        {
          "name": "_ticketOwner",
          "type": "address"
        }
      ],
      "name": "_askForTicket",
      "outputs": [],
      "payable": false,
      "stateMutability": "nonpayable",
      "type": "function"
    },
    {
      "constant": true,
      "inputs": [],
      "name": "sellTicketPrice",
      "outputs": [
        {
          "name": "",
          "type": "uint256"
        }
      ],
      "payable": false,
      "stateMutability": "view",
      "type": "function"
    },
    {
      "constant": true,
      "inputs": [
        {
          "name": "",
          "type": "uint256"
        }
      ],
      "name": "lucky7TicketDifference",
      "outputs": [
        {
          "name": "",
          "type": "uint256"
        }
      ],
      "payable": false,
      "stateMutability": "view",
      "type": "function"
    },
    {
      "constant": true,
      "inputs": [
        {
          "name": "",
          "type": "uint256"
        }
      ],
      "name": "ExactLucky7TicketOwner",
      "outputs": [
        {
          "name": "",
          "type": "address"
        }
      ],
      "payable": false,
      "stateMutability": "view",
      "type": "function"
    },
    {
      "constant": false,
      "inputs": [
        {
          "name": "_newOwner",
          "type": "address"
        }
      ],
      "name": "transferOwnership",
      "outputs": [],
      "payable": false,
      "stateMutability": "nonpayable",
      "type": "function"
    },
    {
      "constant": true,
      "inputs": [
        {
          "name": "",
          "type": "address"
        }
      ],
      "name": "pendingWithdrawals",
      "outputs": [
        {
          "name": "",
          "type": "uint256"
        }
      ],
      "payable": false,
      "stateMutability": "view",
      "type": "function"
    },
    {
      "constant": false,
      "inputs": [],
      "name": "_deliverPrizes",
      "outputs": [],
      "payable": false,
      "stateMutability": "nonpayable",
      "type": "function"
    },
    {
      "constant": false,
      "inputs": [
        {
          "name": "_recipient",
          "type": "address"
        }
      ],
      "name": "destroyAndSend",
      "outputs": [],
      "payable": false,
      "stateMutability": "nonpayable",
      "type": "function"
    },
    {
      "constant": true,
      "inputs": [],
      "name": "currentTicketID",
      "outputs": [
        {
          "name": "",
          "type": "uint256"
        }
      ],
      "payable": false,
      "stateMutability": "view",
      "type": "function"
    },
    {
      "constant": true,
      "inputs": [],
      "name": "lastThirdPrizeWinner",
      "outputs": [
        {
          "name": "",
          "type": "address"
        }
      ],
      "payable": false,
      "stateMutability": "view",
      "type": "function"
    },
    {
      "constant": false,
      "inputs": [
        {
          "name": "_ticketOwner",
          "type": "address"
        }
      ],
      "name": "_askForIParameter",
      "outputs": [],
      "payable": false,
      "stateMutability": "nonpayable",
      "type": "function"
    },
    {
      "inputs": [],
      "payable": true,
      "stateMutability": "payable",
      "type": "constructor"
    },
    {
      "payable": true,
      "stateMutability": "payable",
      "type": "fallback"
    },
    {
      "anonymous": false,
      "inputs": [
        {
          "indexed": false,
          "name": "description",
          "type": "string"
        }
      ],
      "name": "NewOraclizeQuery",
      "type": "event"
    },
    {
      "anonymous": false,
      "inputs": [
        {
          "indexed": false,
          "name": "muParameter",
          "type": "string"
        }
      ],
      "name": "NewMuReceived",
      "type": "event"
    },
    {
      "anonymous": false,
      "inputs": [
        {
          "indexed": false,
          "name": "iParameter",
          "type": "string"
        }
      ],
      "name": "NewIReceived",
      "type": "event"
    },
    {
      "anonymous": false,
      "inputs": [
        {
          "indexed": false,
          "name": "newTicket",
          "type": "string"
        }
      ],
      "name": "NewTicketReceived",
      "type": "event"
    },
    {
      "anonymous": false,
      "inputs": [
        {
          "indexed": false,
          "name": "description",
          "type": "string"
        }
      ],
      "name": "NewWolframQuery",
      "type": "event"
    },
    {
      "anonymous": false,
      "inputs": [
        {
          "indexed": false,
          "name": "ticketID",
          "type": "uint256"
        }
      ],
      "name": "NewLucky7Ticket",
      "type": "event"
    },
    {
      "anonymous": false,
      "inputs": [
        {
          "indexed": false,
          "name": "value",
          "type": "uint256"
        }
      ],
      "name": "NewLucky7Number",
      "type": "event"
    },
    {
      "anonymous": false,
      "inputs": [
        {
          "indexed": false,
          "name": "describe",
          "type": "string"
        },
        {
          "indexed": false,
          "name": "_oldValue",
          "type": "uint256"
        },
        {
          "indexed": false,
          "name": "_newValue",
          "type": "uint256"
        }
      ],
      "name": "numberModified",
      "type": "event"
    },
    {
      "anonymous": false,
      "inputs": [
        {
          "indexed": false,
          "name": "describe",
          "type": "string"
        },
        {
          "indexed": false,
          "name": "_oldValue",
          "type": "string"
        },
        {
          "indexed": false,
          "name": "_newValue",
          "type": "string"
        }
      ],
      "name": "parameterModified",
      "type": "event"
    },
    {
      "anonymous": false,
      "inputs": [
        {
          "indexed": false,
          "name": "describe",
          "type": "string"
        },
        {
          "indexed": false,
          "name": "_oldValue",
          "type": "address"
        },
        {
          "indexed": false,
          "name": "_newValue",
          "type": "address"
        }
      ],
      "name": "walletModified",
      "type": "event"
    },
    {
      "anonymous": false,
      "inputs": [
        {
          "indexed": true,
          "name": "previousOwner",
          "type": "address"
        }
      ],
      "name": "OwnershipRenounced",
      "type": "event"
    },
    {
      "anonymous": false,
      "inputs": [
        {
          "indexed": true,
          "name": "previousOwner",
          "type": "address"
        },
        {
          "indexed": true,
          "name": "newOwner",
          "type": "address"
        }
      ],
      "name": "OwnershipTransferred",
      "type": "event"
    },
    {
      "constant": false,
      "inputs": [],
      "name": "sellRandomTicket",
      "outputs": [],
      "payable": true,
      "stateMutability": "payable",
      "type": "function"
    },
    {
      "constant": false,
      "inputs": [],
      "name": "generateRandomTicket",
      "outputs": [],
      "payable": true,
      "stateMutability": "payable",
      "type": "function"
    },
    {
      "constant": false,
      "inputs": [],
      "name": "sellGeneratedTicket",
      "outputs": [],
      "payable": true,
      "stateMutability": "payable",
      "type": "function"
    }
  ],
  "bytecode": "0x60c0604052600160808190527f310000000000000000000000000000000000000000000000000000000000000060a09081526200003e919081620001cc565b506040805180820190915260018082527f380000000000000000000000000000000000000000000000000000000000000060209092019182526200008591600291620001cc565b506040805180820190915260058082527f31303030300000000000000000000000000000000000000000000000000000006020909201918252620000cc91600391620001cc565b506040805180820190915260028082527f323000000000000000000000000000000000000000000000000000000000000060209092019182526200011391600491620001cc565b50600760058190556611c37937e08000600655662aa1efb94e00009055620493e060085563ee6b280060095560008054600a8054600160a060020a0319908116600160a060020a038416179091556010805460ff191660011790556039839055603a839055603b839055603c839055603d839055603e805482169055603f80548216905560408054821690559081163317909155600b805490911673d1a269d9b0dfb66cfdaf89cf0c6e6f8df0615ad017905562000271565b828054600181600116156101000203166002900490600052602060002090601f016020900481019282601f106200020f57805160ff19168380011785556200023f565b828001600101855582156200023f579182015b828111156200023f57825182559160200191906001019062000222565b506200024d92915062000251565b5090565b6200026e91905b808211156200024d576000815560010162000258565b90565b61587480620002816000396000f3006080604052600436106102dc5763ffffffff60e060020a6000350416630b8ec74081146102de5780630d0a4b7f146102e657806310cd4b8a146102fe5780631827f45d146103285780631c3ed1d3146103405780631cf4c3d1146103745780631ded3bec1461038957806323d370ba1461039157806327dc297e146103b25780632caf9eee146104105780632de729eb146104395780632e52d6061461045157806338bbfa50146104db57806339df3f4f146105775780633ccfd60b1461058c57806340014911146105a157806349f6b030146105b65780634acfd9b8146105d75780634df7e3d0146106f657806350b9c4281461070b578063580709511461072057806359f9fe82146107415780635fff9ae314610756578063715018a6146107fb57806372c3477d14610810578063741606b51461081857806375edd2571461082d57806377d8a830146108425780637fd4ecde14610863578063809fc1531461087857806383197ef0146108905780638a1dd740146108a55780638aa5fafa146108bd5780638ce3da3c146108d55780638da5cb5b146108ed57806390c31c4c1461090257806396853e1314610917578063980d988c14610a1b5780639ac2bf9114610a305780639ae8886a14610a45578063b4f8eadd14610a5a578063b582ec5f14610b6d578063bb4127e814610b82578063bb49516b14610c2e578063bcb740ab14610c43578063c53d6e4714610c5b578063c56969ab14610c70578063c629dad914610c85578063c71f04ac14610cdd578063d383e86214610cf5578063d566bcf014610d0d578063d80ffb2014610d22578063d84ca03a14610d37578063ddc110fa14610d4c578063e5663c4814610d6d578063e802ae1414610d82578063eaaa680a14610d9a578063f2fde38b14610db2578063f3f4370314610dd3578063f405228914610df4578063f5074f4114610e09578063f53c7d0814610e2a578063fc22d3e414610e3f578063fd9be1b214610e54575b005b6102dc610e75565b3480156102f257600080fd5b506102dc600435611031565b34801561030a57600080fd5b5061031660043561104d565b60408051918252519081900360200190f35b34801561033457600080fd5b506102dc60043561105f565b34801561034c57600080fd5b5061035860043561107b565b60408051600160a060020a039092168252519081900360200190f35b34801561038057600080fd5b506102dc611096565b6102dc611470565b34801561039d57600080fd5b506102dc600160a060020a03600435166114df565b3480156103be57600080fd5b5060408051602060046024803582810135601f81018590048502860185019096528585526102dc9583359536956044949193909101919081908401838280828437509497506115f19650505050505050565b34801561041c57600080fd5b50610425611ba2565b604080519115158252519081900360200190f35b34801561044557600080fd5b506102dc600435611bab565b34801561045d57600080fd5b50610466611f0a565b6040805160208082528351818301528351919283929083019185019080838360005b838110156104a0578181015183820152602001610488565b50505050905090810190601f1680156104cd5780820380516001836020036101000a031916815260200191505b509250505060405180910390f35b3480156104e757600080fd5b5060408051602060046024803582810135601f81018590048502860185019096528585526102dc95833595369560449491939091019190819084018382808284375050604080516020601f89358b018035918201839004830284018301909452808352979a999881019791965091820194509250829150840183828082843750949750611f959650505050505050565b34801561058357600080fd5b506102dc611f9a565b34801561059857600080fd5b506102dc611fc5565b3480156105ad57600080fd5b506102dc612006565b3480156105c257600080fd5b506102dc600160a060020a0360043516612058565b3480156105e357600080fd5b506105f8600160a060020a0360043516612107565b604080519081018590528315156060820152821515608082015281151560a082015260c08082528751908201528651819060208083019160e08401918b019080838360005b8381101561065557818101518382015260200161063d565b50505050905090810190601f1680156106825780820380516001836020036101000a031916815260200191505b5083810382528851815288516020918201918a019080838360005b838110156106b557818101518382015260200161069d565b50505050905090810190601f1680156106e25780820380516001836020036101000a031916815260200191505b509850505050505050505060405180910390f35b34801561070257600080fd5b50610466612267565b34801561071757600080fd5b506103166122c1565b34801561072c57600080fd5b506102dc600160a060020a03600435166122c7565b34801561074d57600080fd5b506103166122e9565b34801561076257600080fd5b5060408051602060046024803582810135601f81018590048502860185019096528585526102dc95833595369560449491939091019190819084018382808284375050604080516020601f89358b018035918201839004830284018301909452808352979a9998810197919650918201945092508291508401838280828437509497505084359550505060209092013591506122ef9050565b34801561080757600080fd5b506102dc61238b565b6102dc6123ea565b34801561082457600080fd5b50610358612426565b34801561083957600080fd5b506102dc612435565b34801561084e57600080fd5b506102dc600160a060020a0360043516612877565b34801561086f57600080fd5b50610358612889565b34801561088457600080fd5b506102dc600435612898565b34801561089c57600080fd5b506102dc612919565b3480156108b157600080fd5b5061031660043561293e565b3480156108c957600080fd5b506102dc600435612950565b3480156108e157600080fd5b506103166004356129d1565b3480156108f957600080fd5b506103586129e3565b34801561090e57600080fd5b506102dc6129f2565b34801561092357600080fd5b5061092f600435612a69565b604051808060200180602001858152602001848152602001838103835287818151815260200191508051906020019080838360005b8381101561097c578181015183820152602001610964565b50505050905090810190601f1680156109a95780820380516001836020036101000a031916815260200191505b50838103825286518152865160209182019188019080838360005b838110156109dc5781810151838201526020016109c4565b50505050905090810190601f168015610a095780820380516001836020036101000a031916815260200191505b50965050505050505060405180910390f35b348015610a2757600080fd5b50610358612bb5565b348015610a3c57600080fd5b50610316612bc4565b348015610a5157600080fd5b50610466612bca565b348015610a6657600080fd5b50610a72600435612c25565b60408051908101849052600160a060020a03831660608201526080810182905260a08082528651908201528551819060208083019160c08401918a019080838360005b83811015610acd578181015183820152602001610ab5565b50505050905090810190601f168015610afa5780820380516001836020036101000a031916815260200191505b50838103825287518152875160209182019189019080838360005b83811015610b2d578181015183820152602001610b15565b50505050905090810190601f168015610b5a5780820380516001836020036101000a031916815260200191505b5097505050505050505060405180910390f35b348015610b7957600080fd5b50610466612d92565b348015610b8e57600080fd5b506040805160206004803580820135601f810184900484028501840190955284845261031694369492936024939284019190819084018382808284375050604080516020601f89358b018035918201839004830284018301909452808352979a99988101979196509182019450925082915084018382808284375094975050843595505050506020820135600160a060020a031691604001359050612ded565b348015610c3a57600080fd5b50610316612eee565b348015610c4f57600080fd5b506102dc600435612ef4565b348015610c6757600080fd5b506102dc612f75565b348015610c7c57600080fd5b506103166130e0565b348015610c9157600080fd5b50610c9d6004356130e6565b60408051978852600160a060020a039096166020880152868601949094526060860192909252608085015260a084015260c0830152519081900360e00190f35b348015610ce957600080fd5b506102dc60043561313d565b348015610d0157600080fd5b506102dc6004356131be565b348015610d1957600080fd5b50610316613265565b348015610d2e57600080fd5b5061031661326b565b348015610d4357600080fd5b50610316613271565b348015610d5857600080fd5b506102dc600160a060020a0360043516613277565b348015610d7957600080fd5b5061031661335e565b348015610d8e57600080fd5b50610316600435613364565b348015610da657600080fd5b50610358600435613376565b348015610dbe57600080fd5b506102dc600160a060020a0360043516613391565b348015610ddf57600080fd5b50610316600160a060020a03600435166133b1565b348015610e0057600080fd5b506102dc6133c3565b348015610e1557600080fd5b506102dc600160a060020a03600435166137c4565b348015610e3657600080fd5b506103166137e7565b348015610e4b57600080fd5b506103586137ed565b348015610e6057600080fd5b506102dc600160a060020a03600435166137fc565b6007543390341015610e8657600080fd5b600160a060020a0381166000908152602f60205260409020600301805462ff000019166201000017905560105460ff1615610ec057600080fd5b60408051336000908152602f6020529190912080547fc5d2460186f7233c927e7db2dcc703c0e500b653ca82273b7bfad8045d85a470929081908390600261010060018316150260001901909116048015610f525780601f10610f30576101008083540402835291820191610f52565b820191906000526020600020905b815481529060010190602001808311610f3e575b50509150506040518091039020600019161415801561101a575060408051336000908152602f60205291909120600190810180547fc5d2460186f7233c927e7db2dcc703c0e500b653ca82273b7bfad8045d85a4709391928291849160026101009183161591909102600019019091160480156110065780601f10610fe4576101008083540402835291820191611006565b820191906000526020600020905b815481529060010190602001808311610ff2575b505091505060405180910390206000191614155b151561102557600080fd5b61102e33613277565b50565b600054600160a060020a0316331461104857600080fd5b603c55565b60356020526000908152604090205481565b600054600160a060020a0316331461107657600080fd5b603a55565b603460205260009081526040902054600160a060020a031681565b61109e6156ab565b60008054819081908190600160a060020a031633146110bc57600080fd5b600092505b6005548310156111ee576040805160e0810182526000858152603360209081528382205483528682526034815283822054600160a060020a031681840152868252603580825284832054948401859052918790525260128054601193606084019291811061112b57fe5b906000526020600020906005020160020154815260200160138660078110151561115157fe5b600490810291909101600290810154835260208084018990526039546040948501528554600180820188556000978852968290208651600790920201908155908501518187018054600160a060020a031916600160a060020a0390921691909117905592840151908301556060830151600383015560808301519082015560a0820151600582015560c090910151600690910155909201916110c1565b603c5491505b603c54600554018210156114695781935060118281548110151561121457fe5b60009182526020918290206040805160e081018252600790930290910180548352600180820154600160a060020a0316948401949094526002810154918301919091526003810154606083015260048101546080830152600581015460a08301526006015460c08201529550820190505b603c546005540181101561133e5760118054829081106112a157fe5b6000918252602090912060079091020154855111156113365760118054829081106112c857fe5b60009182526020918290206040805160e0810182526007909302909101805483526001810154600160a060020a0316938301939093526002830154908201526003820154606082015260048201546080820152600582015460a082015260069091015460c082015294509250825b600101611285565b83821461145e57601180548390811061135357fe5b906000526020600020906007020160118581548110151561137057fe5b6000918252602090912082546007909202019081556001808301549082018054600160a060020a031916600160a060020a039092169190911790556002808301549082015560038083015490820155600480830154908201556005808301549082015560069182015491015560118054869190849081106113ed57fe5b600091825260209182902083516007929092020190815590820151600182018054600160a060020a031916600160a060020a0390921691909117905560408201516002820155606082015160038201556080820151600482015560a0820151600582015560c0909101516006909101555b6001909101906111f4565b5050505050565b600754339034101561148157600080fd5b600160a060020a0381166000908152602f60205260408082206003908101805462ff00001916620100001790553380845291909220909101805461ffff1916905560105460ff16156114d257600080fd5b6114db33612877565b5050565b60006114ec600954613910565b604080516020808252808201527f41736b696e6720666f722061206e6577206d7520706172616d657465722e2e2e8183015290517f096835e36c2ccea88ff2b3aca87dfc938b977e52ea656873ff76a8dba50d4d349181900360600190a16115c16040805190810160405280600c81526020017f576f6c6672616d416c70686100000000000000000000000000000000000000008152506040805190810160405280600f81526020017f342072616e646f6d206e756d6265720000000000000000000000000000000000815250600854613af8565b60009081526030602052604090208054600160a060020a031916600160a060020a03939093169290921790915550565b6115f9613efd565b600160a060020a0316331461160d57600080fd5b600082815260306020526040902054600160a060020a03161580159061165b5750600082815260306020908152604080832054600160a060020a03168352602f90915290206003015460ff16155b156117f857600082815260306020908152604080832054600160a060020a03168352602f82529091208251611692928401906156f2565b507f6a28dd23c76ba6cc6f4f148a0e2e0e147d8b876cb74ec1e5e2b8e9a8119eb702816040518080602001828103825283818151815260200191508051906020019080838360005b838110156116f25781810151838201526020016116da565b50505050905090810190601f16801561171f5780820380516001836020036101000a031916815260200191505b509250505060405180910390a160008281526030602090815260408083208054600160a060020a039081168552602f9093528184206003908101805460ff191660019081179091559154909316845292200154610100900460ff1615151480156117cd5750600082815260306020908152604080832054600160a060020a03168352602f90915290206003015460ff62010000909104161515600114806117cd575060105460ff1615156001145b156117f3576000828152603060205260409020546117f390600160a060020a0316613277565b6114db565b600082815260316020526040902054600160a060020a03161580159061184b5750600082815260316020908152604080832054600160a060020a03168352602f909152902060030154610100900460ff16155b156119e657600082815260316020908152604080832054600160a060020a03168352602f82529091208251611888926001909201918401906156f2565b507f716a554dec57e3a217a923b974660c0c8ebee07b09b1ac7d4a3a8f328d10cc89816040518080602001828103825283818151815260200191508051906020019080838360005b838110156118e85781810151838201526020016118d0565b50505050905090810190601f1680156119155780820380516001836020036101000a031916815260200191505b509250505060405180910390a160008281526031602090815260408083208054600160a060020a039081168552602f9093528184206003908101805461ff00191661010017905590549092168352909120015460ff16151560011480156119c05750600082815260316020908152604080832054600160a060020a03168352602f90915290206003015460ff62010000909104161515600114806119c0575060105460ff1615156001145b156117f3576000828152603160205260409020546117f390600160a060020a0316613277565b600082815260326020526040902054600160a060020a031615801590611a505750600082815260326020908152604080832054600160a060020a03168352602f90915290206003015460ff6201000090910416151560011480611a50575060105460ff1615156001145b156114db57611a5e816140f3565b600083815260326020908152604080832054600160a060020a03168352602f825280832060020193909355825181815284518183015284517f0efef3a277391dda0d5747fd15566e85fcd8a4fb588d9853173841e45cc5ae8a9486949293849391840192908601918190849084905b83811015611ae5578181015183820152602001611acd565b50505050905090810190601f168015611b125780820380516001836020036101000a031916815260200191505b509250505060405180910390a1600082815260326020908152604080832054600160a060020a03168352602f9091529020600301805462ff00001916905560105460ff16151560011415611b81576000828152603260205260409020546117f390600160a060020a0316614106565b6000828152603260205260409020546114db90600160a060020a0316614367565b60105460ff1681565b6000806000806013600160055403600781101515611bc557fe5b6004020160020154601286815481101515611bdc57fe5b9060005260206000209060050201600201541115611c4b57600554600019019350611c4460138560078110611c0d57fe5b6004020160020154601287815481101515611c2457fe5b9060005260206000209060050201600201546145a290919063ffffffff16565b9250611d91565b6015546012805487908110611c5c57fe5b9060005260206000209060050201600201541015611cc15760009350611c44601286815481101515611c8a57fe5b906000526020600020906005020160020154601386600781101515611cab57fe5b60040201600201546145a290919063ffffffff16565b60138460078110611cce57fe5b6004020160020154601286815481101515611ce557fe5b9060005260206000209060050201600201541115611d0857600190930192611cc1565b60138460078110611d1557fe5b6004020160020154601286815481101515611d2c57fe5b9060005260206000209060050201600201541415611d4d5760009250611d91565b611d616013600019860160078110611c0d57fe5b9150611d75601286815481101515611c8a57fe5b905081811115611d8d57600184039350819250611d91565b8092505b600084815260346020526040902054600160a060020a03161580611dc2575060008481526033602052604090205483105b15611e5d576012805486908110611dd557fe5b60009182526020808320600360059093020191909101548683526034825260408084208054600160a060020a031916600160a060020a0390931692909217909155603382528083208690556035825291829020879055815187815291517fed4436a39d9a77d0c6c3be4f0e28f018750eb25c5c2d30ded16ef07ced4c00719281900390910190a15b821515611469576012805486908110611e7257fe5b6000918252602080832060036005909302019190910154603b548352603790915260409091208054600160a060020a031916600160a060020a039092169190911790556012805486908110611ec357fe5b6000918252602080832060026005909302019190910154603b8054845260368352604080852092909255805484526038909252909120869055805460010190555050505050565b6002805460408051602060018416156101000260001901909316849004601f81018490048402820184019092528181529291830182828015611f8d5780601f10611f6257610100808354040283529160200191611f8d565b820191906000526020600020905b815481529060010190602001808311611f7057829003601f168201915b505050505081565b505050565b600054600160a060020a03163314611fb157600080fd5b6010805460ff19811660ff90911615179055565b33600081815260416020526040808220805490839055905190929183156108fc02918491818181858888f193505050501580156114db573d6000803e3d6000fd5b600054600160a060020a0316331461201d57600080fd5b612025611f9a565b61202d611096565b6120356133c3565b61203d612f75565b6039805460010190819055600554603c805491909202019055565b60008054600160a060020a0316331461207057600080fd5b50600a8054600160a060020a03838116600160a060020a0319831681179093556040805191909216602082018190528183019390935260608082526019908201527f456e74657270726973652077616c6c6574206368616e67656400000000000000608082015290517f223db053947bb148de510715d3c7d8ccd72bdd376752fd735ee7bd0bd0ece5bf9181900360a00190a15050565b602f6020908152600091825260409182902080548351601f6002600019610100600186161502019093169290920491820184900484028101840190945280845290929183919083018282801561219e5780601f106121735761010080835404028352916020019161219e565b820191906000526020600020905b81548152906001019060200180831161218157829003601f168201915b505050505090806001018054600181600116156101000203166002900480601f01602080910402602001604051908101604052809291908181526020018280546001816001161561010002031660029004801561223c5780601f106122115761010080835404028352916020019161223c565b820191906000526020600020905b81548152906001019060200180831161221f57829003601f168201915b50505050600283015460039093015491929160ff808216925061010082048116916201000090041686565b60018054604080516020600284861615610100026000190190941693909304601f81018490048402820184019092528181529291830182828015611f8d5780601f10611f6257610100808354040283529160200191611f8d565b60085481565b600b8054600160a060020a031916600160a060020a0392909216919091179055565b60055481565b600054600160a060020a0316331461230657600080fd5b6040805160808101825285815260208101859052908101839052606081018290526013866007811061233457fe5b6004020160008201518160000190805190602001906123549291906156f2565b50602082810151805161236d92600185019201906156f2565b50604082015160028201556060909101516003909101555050505050565b600054600160a060020a031633146123a257600080fd5b60008054604051600160a060020a03909116917ff8df31144d9c2f0f6b59d69b8b98abd5459d07f2742c4df920b25aae33c6482091a260008054600160a060020a0319169055565b60065433903410156123fb57600080fd5b336000818152602f60205260409020600301805461ffff1916905560105460ff16156114d257600080fd5b600a54600160a060020a031681565b61243d615770565b6000805481908190600160a060020a0316331461245957600080fd5b5060005b600554811015612871579150816013816007811061247757fe5b6040805160049290920292909201805460a06020601f60026000196101006001871615020190941693909304928301819004028401810190945260808301818152929391928492909184918401828280156125135780601f106124e857610100808354040283529160200191612513565b820191906000526020600020905b8154815290600101906020018083116124f657829003601f168201915b50505050508152602001600182018054600181600116156101000203166002900480601f0160208091040260200160405190810160405280929190818152602001828054600181600116156101000203166002900480156125b55780601f1061258a576101008083540402835291602001916125b5565b820191906000526020600020905b81548152906001019060200180831161259857829003601f168201915b505050505081526020016002820154815260200160038201548152505093508060010191505b60055482101561277e57601382600781106125f257fe5b600402016002015484604001511115612773576013826007811061261257fe5b6040805160049290920292909201805460a06020601f60026000196101006001871615020190941693909304928301819004028401810190945260808301818152929391928492909184918401828280156126ae5780601f10612683576101008083540402835291602001916126ae565b820191906000526020600020905b81548152906001019060200180831161269157829003601f168201915b50505050508152602001600182018054600181600116156101000203166002900480601f0160208091040260200160405190810160405280929190818152602001828054600181600116156101000203166002900480156127505780601f1061272557610100808354040283529160200191612750565b820191906000526020600020905b81548152906001019060200180831161273357829003601f168201915b505050505081526020016002820154815260200160038201548152505093508192505b6001909101906125db565b828114612869576013816007811061279257fe5b60040201601384600781106127a357fe5b60040201600082018160000190805460018160011615610100020316600290046127ce929190615799565b50600182018160010190805460018160011615610100020316600290046127f6929190615799565b5060028281015490820155600391820154910155836013826007811061281857fe5b6004020160008201518160000190805190602001906128389291906156f2565b50602082810151805161285192600185019201906156f2565b50604082015160028201556060909101516003909101555b60010161245d565b50505050565b612880816114df565b61102e816137fc565b603f54600160a060020a031681565b60008054600160a060020a031633146128b057600080fd5b50600880549082905560408051602081018390528082018490526060808252601a908201527f4f7261636c697a6520676173206c696d6974206368616e676564000000000000608082015290516000805160206158298339815191529181900360a00190a15050565b600054600160a060020a0316331461293057600080fd5b600054600160a060020a0316ff5b60366020526000908152604090205481565b60008054600160a060020a0316331461296857600080fd5b50600680549082905560408051602081018390528082018490526060808252601d908201527f47656e6572617465207469636b6574207072696365206368616e676564000000608082015290516000805160206158298339815191529181900360a00190a15050565b60386020526000908152604090205481565b600054600160a060020a031681565b600054600160a060020a03163314612a0957600080fd5b60105460ff161515600114612a1d57600080fd5b600554603a541415612a4357612a31612435565b6000603a55612a3e611f9a565b612a67565b306000818152602f60205260409020600301805461ffff19169055612a6790612877565b565b60138160078110612a7657fe5b60040201805460408051602060026001851615610100026000190190941693909304601f81018490048402820184019092528181529293508391830182828015612b015780601f10612ad657610100808354040283529160200191612b01565b820191906000526020600020905b815481529060010190602001808311612ae457829003601f168201915b505050505090806001018054600181600116156101000203166002900480601f016020809104026020016040519081016040528092919081815260200182805460018160011615610100020316600290048015612b9f5780601f10612b7457610100808354040283529160200191612b9f565b820191906000526020600020905b815481529060010190602001808311612b8257829003601f168201915b5050505050908060020154908060030154905084565b603e54600160a060020a031681565b60095481565b6003805460408051602060026001851615610100026000190190941693909304601f81018490048402820184019092528181529291830182828015611f8d5780601f10611f6257610100808354040283529160200191611f8d565b6012805482908110612c3357fe5b60009182526020918290206005919091020180546040805160026001841615610100026000190190931692909204601f810185900485028301850190915280825291935091839190830182828015612ccc5780601f10612ca157610100808354040283529160200191612ccc565b820191906000526020600020905b815481529060010190602001808311612caf57829003601f168201915b505050505090806001018054600181600116156101000203166002900480601f016020809104026020016040519081016040528092919081815260200182805460018160011615610100020316600290048015612d6a5780601f10612d3f57610100808354040283529160200191612d6a565b820191906000526020600020905b815481529060010190602001808311612d4d57829003601f168201915b505050506002830154600384015460049094015492939092600160a060020a03909116915085565b6004805460408051602060026001851615610100026000190190941693909304601f81018490048402820184019092528181529291830182828015611f8d5780601f10611f6257610100808354040283529160200191611f8d565b600080548190600160a060020a03163314612e0757600080fd5b6040805160a0810182528881526020808201899052918101879052600160a060020a03861660608201526080810185905260128054600181810180845560009390935283518051919593949360059093027fbb8a6a4669ba250d26cd7a459eca9d215f8307e33aebe50379bc5a3617ec34440192612e8a928492909101906156f2565b506020828101518051612ea392600185019201906156f2565b50604082015160028201556060820151600382018054600160a060020a031916600160a060020a0390921691909117905560809091015160049091015503603d555095945050505050565b603c5481565b60008054600160a060020a03163314612f0c57600080fd5b506007805490829055604080516020810183905280820184905260608082526019908201527f53656c6c207469636b6574207072696365206368616e67656400000000000000608082015290516000805160206158298339815191529181900360a00190a15050565b60005b6005548110156130d8576000818152603360209081526040808320839055603482528083208054600160a060020a031916905560358252808320929092558151808301909252600182527f30000000000000000000000000000000000000000000000000000000000000009082015260138260078110612ff457fe5b60040201600001908051906020019061300e9291906156f2565b5060408051808201909152600181527f300000000000000000000000000000000000000000000000000000000000000060208201526013826007811061305057fe5b60040201600101908051906020019061306a9291906156f2565b5060006013826007811061307a57fe5b600402016002018190555060395460138260078110151561309757fe5b60040201600301556000818152603660209081526040808320839055603782528083208054600160a060020a03191690556038909152812055600101612f78565b506000603b55565b603a5481565b60118054829081106130f457fe5b60009182526020909120600790910201805460018201546002830154600384015460048501546005860154600690960154949650600160a060020a039093169491939092919087565b60008054600160a060020a0316331461315557600080fd5b506005805490829055604080516020810183905280820184905260608082526019908201527f53656c6c207469636b6574207072696365206368616e67656400000000000000608082015290516000805160206158298339815191529181900360a00190a15050565b60008054600160a060020a031633146131d657600080fd5b506009805490829055604080516020810183905280820184905260608082526021908201527f4f7261636c697a6520637573746f6d20676173207072696365206368616e676560808201527f640000000000000000000000000000000000000000000000000000000000000060a082015290516000805160206158298339815191529181900360c00190a15050565b60065481565b60395481565b603b5481565b6000613284600954613910565b604080516020808252601a908201527f41736b696e6720666f722061206e6577207469636b65742e2e2e0000000000008183015290517f096835e36c2ccea88ff2b3aca87dfc938b977e52ea656873ff76a8dba50d4d349181900360600190a161332e6040805190810160405280600c81526020017f576f6c6672616d416c7068610000000000000000000000000000000000000000815250613326846145b4565b600854613af8565b60009081526032602052604090208054600160a060020a031916600160a060020a03939093169290921790915550565b60075481565b60336020526000908152604090205481565b603760205260009081526040902054600160a060020a031681565b600054600160a060020a031633146133a857600080fd5b61102e81614ee3565b60416020526000908152604090205481565b6000805481908190819081908190600160a060020a031633146133e557600080fd5b603e54600160a060020a03908116600090815260416020526040808220829055603f5483168252808220829055805490921681529081205561342f3031600763ffffffff614f5316565b955061344286600a63ffffffff614f7c16565b955061345586600663ffffffff614f5316565b945061346886600363ffffffff614f5316565b935061347b86600163ffffffff614f5316565b925061348e85600a63ffffffff614f7c16565b94506134a184600a63ffffffff614f7c16565b93506134b483600a63ffffffff614f7c16565b9250603c5491505b603c5460055401821015613597576011805460009190849081106134dc57fe5b6000918252602090912060016007909202010154600160a060020a03161461358c57846041600060118581548110151561351257fe5b6000918252602080832060016007909302019190910154600160a060020a03168352820192909252604001902080549091019055601180548390811061355457fe5b6000918252602090912060016007909202010154603e8054600160a060020a031916600160a060020a03909216919091179055613597565b6001909101906134bc565b6001909101905b603c5460055401821015613679576011805460009190849081106135be57fe5b6000918252602090912060016007909202010154600160a060020a03161461366e5783604160006011858154811015156135f457fe5b6000918252602080832060016007909302019190910154600160a060020a03168352820192909252604001902080549091019055601180548390811061363657fe5b6000918252602090912060016007909202010154603f8054600160a060020a031916600160a060020a03909216919091179055613679565b60019091019061359e565b6001909101905b603c546005540182101561375b576011805460009190849081106136a057fe5b6000918252602090912060016007909202010154600160a060020a0316146137505782604160006011858154811015156136d657fe5b6000918252602080832060016007909302019190910154600160a060020a03168352820192909252604001902080549091019055601180548390811061371857fe5b600091825260209091206001600790920201015460408054600160a060020a031916600160a060020a0390921691909117905561375b565b600190910190613680565b61376d3031600363ffffffff614f5316565b905061378081600a63ffffffff614f7c16565b600a54604051919250600160a060020a03169082156108fc029083906000818181858888f193505050501580156137bb573d6000803e3d6000fd5b50505050505050565b600054600160a060020a031633146137db57600080fd5b80600160a060020a0316ff5b603d5481565b604054600160a060020a031681565b6000613809600954613910565b604080516020808252601f908201527f41736b696e6720666f722061206e6577206920706172616d657465722e2e2e008183015290517f096835e36c2ccea88ff2b3aca87dfc938b977e52ea656873ff76a8dba50d4d349181900360600190a16138e06040805190810160405280600c81526020017f576f6c6672616d416c70686100000000000000000000000000000000000000008152506040805190810160405280600f81526020017f342072616e646f6d206e756d6265720000000000000000000000000000000000815250600854613af8565b60009081526031602052604090208054600160a060020a031916600160a060020a03939093169290921790915550565b600b54600160a060020a0316158061393a5750600b5461393890600160a060020a0316614f91565b155b1561394b576139496000614f95565b505b600b60009054906101000a9004600160a060020a0316600160a060020a03166338cc48316040518163ffffffff1660e060020a028152600401602060405180830381600087803b15801561399e57600080fd5b505af11580156139b2573d6000803e3d6000fd5b505050506040513d60208110156139c857600080fd5b5051600c54600160a060020a03908116911614613a7e57600b60009054906101000a9004600160a060020a0316600160a060020a03166338cc48316040518163ffffffff1660e060020a028152600401602060405180830381600087803b158015613a3257600080fd5b505af1158015613a46573d6000803e3d6000fd5b505050506040513d6020811015613a5c57600080fd5b5051600c8054600160a060020a031916600160a060020a039092169190911790555b600c54604080517fca6ad1e4000000000000000000000000000000000000000000000000000000008152600481018490529051600160a060020a039092169163ca6ad1e49160248082019260009290919082900301818387803b158015613ae457600080fd5b505af1158015611469573d6000803e3d6000fd5b600b546000908190600160a060020a03161580613b275750600b54613b2590600160a060020a0316614f91565b155b15613b3857613b366000614f95565b505b600b60009054906101000a9004600160a060020a0316600160a060020a03166338cc48316040518163ffffffff1660e060020a028152600401602060405180830381600087803b158015613b8b57600080fd5b505af1158015613b9f573d6000803e3d6000fd5b505050506040513d6020811015613bb557600080fd5b5051600c54600160a060020a03908116911614613c6b57600b60009054906101000a9004600160a060020a0316600160a060020a03166338cc48316040518163ffffffff1660e060020a028152600401602060405180830381600087803b158015613c1f57600080fd5b505af1158015613c33573d6000803e3d6000fd5b505050506040513d6020811015613c4957600080fd5b5051600c8054600160a060020a031916600160a060020a039092169190911790555b600c54604080517f2ef3accc0000000000000000000000000000000000000000000000000000000081526024810186905260048101918252875160448201528751600160a060020a0390931692632ef3accc9289928892829160640190602086019080838360005b83811015613ceb578181015183820152602001613cd3565b50505050905090810190601f168015613d185780820380516001836020036101000a031916815260200191505b509350505050602060405180830381600087803b158015613d3857600080fd5b505af1158015613d4c573d6000803e3d6000fd5b505050506040513d6020811015613d6257600080fd5b50519050670de0b6b3a76400003a840201811115613d835760009150613ef5565b600c546040517fc51be90f00000000000000000000000000000000000000000000000000000000815260006004820181815260648301879052608060248401908152895160848501528951600160a060020a039095169463c51be90f948794938c938c938c93604481019160a49091019060208801908083838c5b83811015613e16578181015183820152602001613dfe565b50505050905090810190601f168015613e435780820380516001836020036101000a031916815260200191505b50838103825285518152855160209182019187019080838360005b83811015613e76578181015183820152602001613e5e565b50505050905090810190601f168015613ea35780820380516001836020036101000a031916815260200191505b5096505050505050506020604051808303818588803b158015613ec557600080fd5b505af1158015613ed9573d6000803e3d6000fd5b50505050506040513d6020811015613ef057600080fd5b505191505b509392505050565b600b54600090600160a060020a03161580613f2a5750600b54613f2890600160a060020a0316614f91565b155b15613f3b57613f396000614f95565b505b600b60009054906101000a9004600160a060020a0316600160a060020a03166338cc48316040518163ffffffff1660e060020a028152600401602060405180830381600087803b158015613f8e57600080fd5b505af1158015613fa2573d6000803e3d6000fd5b505050506040513d6020811015613fb857600080fd5b5051600c54600160a060020a0390811691161461406e57600b60009054906101000a9004600160a060020a0316600160a060020a03166338cc48316040518163ffffffff1660e060020a028152600401602060405180830381600087803b15801561402257600080fd5b505af1158015614036573d6000803e3d6000fd5b505050506040513d602081101561404c57600080fd5b5051600c8054600160a060020a031916600160a060020a039092169190911790555b600c60009054906101000a9004600160a060020a0316600160a060020a031663c281d19e6040518163ffffffff1660e060020a028152600401602060405180830381600087803b1580156140c157600080fd5b505af11580156140d5573d6000803e3d6000fd5b505050506040513d60208110156140eb57600080fd5b505190505b90565b6000614100826000614f9f565b92915050565b60408051600160a060020a0383166000908152602f602090815290839020805460026001821615610100026000190190911604601f8101839004909202830160a0908101909452608083018281529293849392908401828280156141ab5780601f10614180576101008083540402835291602001916141ab565b820191906000526020600020905b81548152906001019060200180831161418e57829003601f168201915b50505050508152602001602f600084600160a060020a0316600160a060020a031681526020019081526020016000206001018054600181600116156101000203166002900480601f0160208091040260200160405190810160405280929190818152602001828054600181600116156101000203166002900480156142715780601f1061424657610100808354040283529160200191614271565b820191906000526020600020905b81548152906001019060200180831161425457829003601f168201915b5050509183525050600160a060020a0383166000908152602f60209081526040918290206002015490830152603954910152603a54601390600781106142b357fe5b6004020160008201518160000190805190602001906142d39291906156f2565b5060208281015180516142ec92600185019201906156f2565b50604082810151600280840191909155606090930151600390920191909155603a80546001019055600160a060020a0383166000908152602f60209081529082902090920154815190815290517fec2692b386f7e992f219e405f018eeaf8da1b95736760596812e564f2e709cfd929181900390910190a150565b60408051600160a060020a0383166000908152602f602090815283822080546002600180831615610100026000190190921604601f8101849004909302850160c090810190965260a08501838152939590946012949093849391928401828280156144135780601f106143e857610100808354040283529160200191614413565b820191906000526020600020905b8154815290600101906020018083116143f657829003601f168201915b50505050508152602001602f600087600160a060020a0316600160a060020a031681526020019081526020016000206001018054600181600116156101000203166002900480601f0160208091040260200160405190810160405280929190818152602001828054600181600116156101000203166002900480156144d95780601f106144ae576101008083540402835291602001916144d9565b820191906000526020600020905b8154815290600101906020018083116144bc57829003601f168201915b5050509183525050600160a060020a0386166000818152602f602090815260408083206002015482860152840192909252603954606090930192909252835460018101808655948352918190208351805160059094029091019261454092849201906156f2565b50602082810151805161455992600185019201906156f2565b50604082015160028201556060820151600382018054600160a060020a031916600160a060020a039092169190911790556080909101516004909101550390506114db81611bab565b6000828211156145ae57fe5b50900390565b604080518082018252600c81527f286d6f642828312f2831305e000000000000000000000000000000000000000060208083019190915260028054845160018216156101000260001901909116829004601f8101849004840282018401909552848152606094859461478b94909391908301828280156146755780601f1061464a57610100808354040283529160200191614675565b820191906000526020600020905b81548152906001019060200180831161465857829003601f168201915b505060408051808201825260018082527f2d00000000000000000000000000000000000000000000000000000000000000602080840191909152600160a060020a038d166000908152602f825284902080548551600294821615610100026000190190911693909304601f810183900483028401830190955284835292965090945090925083018282801561474b5780601f106147205761010080835404028352916020019161474b565b820191906000526020600020905b81548152906001019060200180831161472e57829003601f168201915b50505050506040805190810160405280600681526020017f29292a31305e0000000000000000000000000000000000000000000000000000815250615111565b60038054604080516020601f6002600019610100600188161502019095169490940493840181900481028201810190925282815293945061491f9385939092909183018282801561481d5780601f106147f25761010080835404028352916020019161481d565b820191906000526020600020905b81548152906001019060200180831161480057829003601f168201915b5050604080518082018252600581527f2c31305e2800000000000000000000000000000000000000000000000000000060208083019190915260048054845160026001831615610100026000190190921691909104601f81018490048402820184019095528481529296509194509092508301828280156148df5780601f106148b4576101008083540402835291602001916148df565b820191906000526020600020905b8154815290600101906020018083116148c257829003601f168201915b50505050506040805190810160405280600181526020017f2b00000000000000000000000000000000000000000000000000000000000000815250615111565b9050614ae081602f600086600160a060020a0316600160a060020a031681526020019081526020016000206001018054600181600116156101000203166002900480601f0160208091040260200160405190810160405280929190818152602001828054600181600116156101000203166002900480156149e15780601f106149b6576101008083540402835291602001916149e1565b820191906000526020600020905b8154815290600101906020018083116149c457829003601f168201915b5050604080518082018252600e81527f29292d6d6f642828312f2831305e00000000000000000000000000000000000060208083019190915260028054845160018216156101000260001901909116829004601f8101849004840282018401909552848152929650919450909250830182828015614aa05780601f10614a7557610100808354040283529160200191614aa0565b820191906000526020600020905b815481529060010190602001808311614a8357829003601f168201915b50505050506040805190810160405280600181526020017f2d00000000000000000000000000000000000000000000000000000000000000815250615111565b600160a060020a0384166000908152602f602090815260409182902080548351601f60026000196101006001861615020190931692909204918201849004840281018401909452808452939450614c8793859392830182828015614b855780601f10614b5a57610100808354040283529160200191614b85565b820191906000526020600020905b815481529060010190602001808311614b6857829003601f168201915b5050604080518082018252600681527f29292a31305e000000000000000000000000000000000000000000000000000060208083019190915260038054845160026001831615610100026000190190921691909104601f8101849004840282018401909552848152929650919450909250830182828015614c475780601f10614c1c57610100808354040283529160200191614c47565b820191906000526020600020905b815481529060010190602001808311614c2a57829003601f168201915b50505050506040805190810160405280600481526020017f2c31305e00000000000000000000000000000000000000000000000000000000815250615111565b60408051808201825260018082527f2800000000000000000000000000000000000000000000000000000000000000602080840191909152600160a060020a0388166000908152602f8252849020820180548551600294821615610100026000190190911693909304601f8101839004830284018301909552848352949550614e429486949091830182828015614d5f5780601f10614d3457610100808354040283529160200191614d5f565b820191906000526020600020905b815481529060010190602001808311614d4257829003601f168201915b5050604080518082018252600781527f2929292f31305e00000000000000000000000000000000000000000000000000602080830191909152600160a060020a038d166000908152602f8252839020600190810180548551600293821615610100026000190190911692909204601f81018490048402830184019095528482529296509450909250830182828015614e385780601f10614e0d57610100808354040283529160200191614e38565b820191906000526020600020905b815481529060010190602001808311614e1b57829003601f168201915b5050505050615111565b90507f261af219212047633bb60c8d0cc7e33d217c38edf6fa7e53acb97a3f94180de5816040518080602001828103825283818151815260200191508051906020019080838360005b83811015614ea3578181015183820152602001614e8b565b50505050905090810190601f168015614ed05780820380516001836020036101000a031916815260200191505b509250505060405180910390a192915050565b600160a060020a0381161515614ef857600080fd5b60008054604051600160a060020a03808516939216917f8be0079c531659141344cd1fd0a4f28419497f9722a3daafe3b4186f6b6457e091a360008054600160a060020a031916600160a060020a0392909216919091179055565b6000821515614f6457506000614100565b50818102818382811515614f7457fe5b041461410057fe5b60008183811515614f8957fe5b049392505050565b3b90565b6000614100615372565b6000828180805b83518110156150f45783517f300000000000000000000000000000000000000000000000000000000000000090859083908110614fdf57fe5b90602001015160f860020a900460f860020a02600160f860020a03191610158015615055575083517f39000000000000000000000000000000000000000000000000000000000000009085908390811061503557fe5b90602001015160f860020a900460f860020a02600160f860020a03191611155b156150ae5781156150745785151561506c576150f4565b600019909501945b600a830292506030848281518110151561508a57fe5b90602001015160f860020a900460f860020a0260f860020a900403830192506150ec565b83818151811015156150bc57fe5b90602001015160f860020a900460f860020a02600160f860020a031916602e60f860020a0214156150ec57600191505b600101614fa6565b60008611156151065785600a0a830292505b509095945050505050565b6060806060806060806060806000808e98508d97508c96508b95508a94508451865188518a518c51010101016040519080825280601f01601f19166020018201604052801561516a578160200160208202803883390190505b50935083925060009150600090505b88518110156151d757888181518110151561519057fe5b90602001015160f860020a900460f860020a0283838060010194508151811015156151b757fe5b906020010190600160f860020a031916908160001a905350600101615179565b5060005b87518110156152395787818151811015156151f257fe5b90602001015160f860020a900460f860020a02838380600101945081518110151561521957fe5b906020010190600160f860020a031916908160001a9053506001016151db565b5060005b865181101561529b57868181518110151561525457fe5b90602001015160f860020a900460f860020a02838380600101945081518110151561527b57fe5b906020010190600160f860020a031916908160001a90535060010161523d565b5060005b85518110156152fd5785818151811015156152b657fe5b90602001015160f860020a900460f860020a0283838060010194508151811015156152dd57fe5b906020010190600160f860020a031916908160001a90535060010161529f565b5060005b845181101561535f57848181518110151561531857fe5b90602001015160f860020a900460f860020a02838380600101945081518110151561533f57fe5b906020010190600160f860020a031916908160001a905350600101615301565b50909d9c50505050505050505050505050565b600080615392731d3b2638a7cc9f2cb3d298a3da7a90b67e5506ed614f91565b111561540257600b8054600160a060020a031916731d3b2638a7cc9f2cb3d298a3da7a90b67e5506ed178155604080518082019091529081527f6574685f6d61696e6e657400000000000000000000000000000000000000000060208201526153fa90615698565b5060016140f0565b600061542173c03a2615d5efaf5f49f60b7bb6583eaec212fdf1614f91565b111561548a57600b8054600160a060020a03191673c03a2615d5efaf5f49f60b7bb6583eaec212fdf117905560408051808201909152600c81527f6574685f726f707374656e33000000000000000000000000000000000000000060208201526153fa90615698565b60006154a973b7a07bcf2ba2f2703b24c0691b5278999c59ac7e614f91565b111561551257600b8054600160a060020a03191673b7a07bcf2ba2f2703b24c0691b5278999c59ac7e17905560408051808201909152600981527f6574685f6b6f76616e000000000000000000000000000000000000000000000060208201526153fa90615698565b600061553173146500cfd35b22e4a392fe0adc06de1a1368ed48614f91565b111561559957600b8054600160a060020a03191673146500cfd35b22e4a392fe0adc06de1a1368ed48178155604080518082019091529081527f6574685f72696e6b65627900000000000000000000000000000000000000000060208201526153fa90615698565b60006155b8736f485c8bf6fc43ea212e93bbf8ce046c7f1cb475614f91565b11156155ec5750600b8054600160a060020a031916736f485c8bf6fc43ea212e93bbf8ce046c7f1cb47517905560016140f0565b600061560b7320e12a1f859b3feae5fb2a0a32c18f5a65555bbf614f91565b111561563f5750600b8054600160a060020a0319167320e12a1f859b3feae5fb2a0a32c18f5a65555bbf17905560016140f0565b600061565e7351efaf4c8b3c9afbd5ab9f4bbc82784ab6ef8faa614f91565b11156156925750600b8054600160a060020a0319167351efaf4c8b3c9afbd5ab9f4bbc82784ab6ef8faa17905560016140f0565b50600090565b80516114db90600d9060208401906156f2565b60e060405190810160405280600081526020016000600160a060020a0316815260200160008152602001600081526020016000815260200160008152602001600081525090565b828054600181600116156101000203166002900490600052602060002090601f016020900481019282601f1061573357805160ff1916838001178555615760565b82800160010185558215615760579182015b82811115615760578251825591602001919060010190615745565b5061576c92915061580e565b5090565b608060405190810160405280606081526020016060815260200160008152602001600081525090565b828054600181600116156101000203166002900490600052602060002090601f016020900481019282601f106157d25780548555615760565b8280016001018555821561576057600052602060002091601f016020900482015b828111156157605782548255916001019190600101906157f3565b6140f091905b8082111561576c576000815560010161581456009bc068999fb1a0aac007a9b44ca6322a376441f42706bf5163600bb3d1a73164a165627a7a72305820de4547890249be7522abf0ccd8da9a1b019655d7e6bcce98239a227fcef4cd100029",
  "source": "/**\n  * @author Matias Barrios\n  * @version 1.0\n  */\n\n/** @title Lucky7Store. \n  * This contract contains all the functions to generate and sell tickets to the users.\n  * The front end interacts with this functions to make the necessary transactions to play the game.\n*/\n\npragma solidity ^0.4.20;\nimport \"./Lucky7Ballot.sol\";\nimport \"./Destructible.sol\";\n\ncontract Lucky7Store is Lucky7Ballot, Destructible{\n    /** @dev Constructor to make the contract payable\n      */\n    function Lucky7Store() payable public{\n        \n    }\n    /** @dev userBoughtTicket is a modifier to check if the user paid the necessary amount to buy a ticket.\n      */\n    modifier userBoughtTicket(address _ticketOwner){\n        require(msg.value >= sellTicketPrice);\n        userValues[_ticketOwner].userPaidTicket = true;\n        _;\n    }\n    \n    /** @dev userBoughtParameters is a modifier to check if the user paid the necessary amount to buy parameters, i.e. generate a ticket without buying it.\n      */\n    modifier userBoughtParameters(address _ticketOwner){\n        require(msg.value >= generateTicketPrice);\n        _;\n    }\n    \n    /** @dev setParametersToReady is a modifier to set the muReady and iReady booleans of the UserParametersValue of the Lucky7TicketFactory to false.\n      * This way, the user can call for new parameters or buy ticket without being rejected by teh oraclize's callback function of the Lucky7TicketFactory contract.\n      */\n    modifier setParametersToReady(address _ticketOwner){\n        userValues[_ticketOwner].muReady = false;\n        userValues[_ticketOwner].iReady = false;\n        _;\n    }\n    \n    /** @dev sellingIsActive is a modifier which acts as a circuit breaker. If the settingLucky7Number is true, i.e. the game is in setting Lucky7Numbers phase, then\n      * the users aren't allowed to buy tickets because the Lucky7Number are getting setted. Once the last Lucky7Number is setted and all them are ordered through the\n      * _orderLucky7Numbers function of the Lucky7Ballot contract, the settingLucky7Numbers is setted to false, which means that users are then allowed to buy tickets.\n      */\n    modifier sellingIsActive {\n        require(settingLucky7Numbers==false);\n        _;\n    }\n    //------------------------\n    \n    /** @dev sellRandomTicket is a function used to sell a random ticket to the user. It checks if the user sent the correct amount and if the game is not\n      * in the setting Lucky7Numbers phase. If so, then sets the user muReady and iReady of the UserParameters value of the Lucky7TicketFactory contract to false and \n      calls the _generateTicket function of the Lucky7TicketFactory contract with the msg.sender as the owner.\n      */\n    function sellRandomTicket() \n        public\n        payable \n        userBoughtTicket(msg.sender)\n        setParametersToReady(msg.sender)\n        sellingIsActive\n    {\n        _generateTicket(msg.sender);\n    }\n    \n    /** @dev generateRandomTicket is a function used to sell a parameters to the user without selling the ticket. It checks if the user sent the correct amount and \n      * if the game is not in the setting Lucky7Numbers phase. If so, then sets the user muReady and iReady of the UserParameters struct of the Lucky7TicketFactory \n      * contract to false and calls the _askForMuParameter and _askForIParamater functions of the Lucky7TicketFactory contract with the msg.sender as the owner.\n      */\n    function generateRandomTicket() \n        public \n        payable \n        userBoughtParameters(msg.sender)\n        setParametersToReady(msg.sender)\n        sellingIsActive\n    {\n        _generateTicket(msg.sender);\n    }\n    \n    /** @dev sellGeneratedTicket is a function used to sell the ticket generated through the parameters the user already bought. \n      * It checks if the user sent the correct amount and if the game is not in the setting Lucky7Numbers phase. \n      * If so, then sets the user muReady and iReady of the UserParameters struct of the Lucky7TicketFactory contract to false \n      * and calls the _generateTicket function of the Lucky7TicketFactory contract with the msg.sender as the owner.\n      */\n    function sellGeneratedTicket() \n        public \n        payable \n        userBoughtTicket(msg.sender)\n        sellingIsActive\n    {\n        require(keccak256(userValues[msg.sender].mu)!=keccak256('') && keccak256(userValues[msg.sender].i)!=keccak256(''));\n        _askForTicket(msg.sender);\n    }\n    \n    function () public payable{\n        \n    }\n}   \n                                           \n",
  "sourcePath": "/Users/matiasbarrios/Desktop/Proyecto Consensys/luckyseven/contracts/Lucky7Store.sol",
  "compiler": {
    "name": "solc",
    "version": "0.4.24+commit.e67f0147.Emscripten.clang"
  },
  "schemaVersion": "2.0.1",
  "updatedAt": "2018-08-27T14:28:24.812Z"
}