{
  "contractName": "Lucky7Store",
  "abi": [
    {
      "constant": true,
      "inputs": [],
      "name": "getlucky7Numbers",
      "outputs": [
        {
          "name": "",
          "type": "uint256[7]"
        }
      ],
      "payable": false,
      "stateMutability": "view",
      "type": "function"
    },
    {
      "constant": false,
      "inputs": [
        {
          "name": "_newValue",
          "type": "string"
        }
      ],
      "name": "modifyParameterN",
      "outputs": [],
      "payable": false,
      "stateMutability": "nonpayable",
      "type": "function"
    },
    {
      "constant": true,
      "inputs": [
        {
          "name": "",
          "type": "uint256"
        }
      ],
      "name": "lucky7TicketID",
      "outputs": [
        {
          "name": "",
          "type": "uint256"
        }
      ],
      "payable": false,
      "stateMutability": "view",
      "type": "function"
    },
    {
      "constant": false,
      "inputs": [
        {
          "name": "_newValue",
          "type": "uint256"
        }
      ],
      "name": "setIndexForLucky7Array",
      "outputs": [],
      "payable": false,
      "stateMutability": "nonpayable",
      "type": "function"
    },
    {
      "constant": true,
      "inputs": [
        {
          "name": "",
          "type": "uint256"
        }
      ],
      "name": "lucky7TicketOwner",
      "outputs": [
        {
          "name": "",
          "type": "address"
        }
      ],
      "payable": false,
      "stateMutability": "view",
      "type": "function"
    },
    {
      "constant": false,
      "inputs": [],
      "name": "_orderLucky7Tickets",
      "outputs": [],
      "payable": false,
      "stateMutability": "nonpayable",
      "type": "function"
    },
    {
      "constant": true,
      "inputs": [],
      "name": "lastThirdPrize",
      "outputs": [
        {
          "name": "",
          "type": "address"
        }
      ],
      "payable": false,
      "stateMutability": "view",
      "type": "function"
    },
    {
      "constant": false,
      "inputs": [
        {
          "name": "_ticketOwner",
          "type": "address"
        }
      ],
      "name": "_askForMuParameter",
      "outputs": [],
      "payable": false,
      "stateMutability": "nonpayable",
      "type": "function"
    },
    {
      "constant": false,
      "inputs": [
        {
          "name": "myid",
          "type": "bytes32"
        },
        {
          "name": "result",
          "type": "string"
        }
      ],
      "name": "__callback",
      "outputs": [],
      "payable": false,
      "stateMutability": "nonpayable",
      "type": "function"
    },
    {
      "constant": true,
      "inputs": [],
      "name": "settingLucky7Numbers",
      "outputs": [
        {
          "name": "",
          "type": "bool"
        }
      ],
      "payable": false,
      "stateMutability": "view",
      "type": "function"
    },
    {
      "constant": false,
      "inputs": [
        {
          "name": "_ticketID",
          "type": "uint256"
        }
      ],
      "name": "_checkForLucky7Ticket",
      "outputs": [],
      "payable": false,
      "stateMutability": "nonpayable",
      "type": "function"
    },
    {
      "constant": true,
      "inputs": [],
      "name": "n",
      "outputs": [
        {
          "name": "",
          "type": "string"
        }
      ],
      "payable": false,
      "stateMutability": "view",
      "type": "function"
    },
    {
      "constant": false,
      "inputs": [
        {
          "name": "myid",
          "type": "bytes32"
        },
        {
          "name": "result",
          "type": "string"
        },
        {
          "name": "proof",
          "type": "bytes"
        }
      ],
      "name": "__callback",
      "outputs": [],
      "payable": false,
      "stateMutability": "nonpayable",
      "type": "function"
    },
    {
      "constant": false,
      "inputs": [],
      "name": "toggleLucky7Setting",
      "outputs": [],
      "payable": false,
      "stateMutability": "nonpayable",
      "type": "function"
    },
    {
      "constant": false,
      "inputs": [
        {
          "name": "_newValue",
          "type": "string"
        }
      ],
      "name": "modifyParameterJ",
      "outputs": [],
      "payable": false,
      "stateMutability": "nonpayable",
      "type": "function"
    },
    {
      "constant": false,
      "inputs": [],
      "name": "withdraw",
      "outputs": [],
      "payable": false,
      "stateMutability": "nonpayable",
      "type": "function"
    },
    {
      "constant": false,
      "inputs": [],
      "name": "setNewGame",
      "outputs": [],
      "payable": false,
      "stateMutability": "nonpayable",
      "type": "function"
    },
    {
      "constant": false,
      "inputs": [
        {
          "name": "_newAddress",
          "type": "address"
        }
      ],
      "name": "modifyEnterpriseWallet",
      "outputs": [],
      "payable": false,
      "stateMutability": "nonpayable",
      "type": "function"
    },
    {
      "constant": true,
      "inputs": [
        {
          "name": "",
          "type": "address"
        }
      ],
      "name": "userValues",
      "outputs": [
        {
          "name": "mu",
          "type": "string"
        },
        {
          "name": "i",
          "type": "string"
        },
        {
          "name": "ticketValue",
          "type": "uint256"
        },
        {
          "name": "muReady",
          "type": "bool"
        },
        {
          "name": "iReady",
          "type": "bool"
        },
        {
          "name": "userPaidTicket",
          "type": "bool"
        }
      ],
      "payable": false,
      "stateMutability": "view",
      "type": "function"
    },
    {
      "constant": true,
      "inputs": [],
      "name": "b",
      "outputs": [
        {
          "name": "",
          "type": "string"
        }
      ],
      "payable": false,
      "stateMutability": "view",
      "type": "function"
    },
    {
      "constant": true,
      "inputs": [],
      "name": "oraclizeGasLimit",
      "outputs": [
        {
          "name": "",
          "type": "uint256"
        }
      ],
      "payable": false,
      "stateMutability": "view",
      "type": "function"
    },
    {
      "constant": true,
      "inputs": [],
      "name": "numberOfLucky7Numbers",
      "outputs": [
        {
          "name": "",
          "type": "uint256"
        }
      ],
      "payable": false,
      "stateMutability": "view",
      "type": "function"
    },
    {
      "constant": true,
      "inputs": [],
      "name": "getlucky7Tickets",
      "outputs": [
        {
          "name": "",
          "type": "uint256[7]"
        }
      ],
      "payable": false,
      "stateMutability": "view",
      "type": "function"
    },
    {
      "constant": false,
      "inputs": [
        {
          "name": "_id",
          "type": "uint256"
        },
        {
          "name": "_mu",
          "type": "string"
        },
        {
          "name": "_i",
          "type": "string"
        },
        {
          "name": "_ticketValue",
          "type": "uint256"
        },
        {
          "name": "_drawNumber",
          "type": "uint256"
        }
      ],
      "name": "insertCustomizedLucky7Number",
      "outputs": [],
      "payable": false,
      "stateMutability": "nonpayable",
      "type": "function"
    },
    {
      "constant": true,
      "inputs": [],
      "name": "lastFirstPrize",
      "outputs": [
        {
          "name": "",
          "type": "address"
        }
      ],
      "payable": false,
      "stateMutability": "view",
      "type": "function"
    },
    {
      "constant": false,
      "inputs": [],
      "name": "renounceOwnership",
      "outputs": [],
      "payable": false,
      "stateMutability": "nonpayable",
      "type": "function"
    },
    {
      "constant": true,
      "inputs": [],
      "name": "enterpriseWallet",
      "outputs": [
        {
          "name": "",
          "type": "address"
        }
      ],
      "payable": false,
      "stateMutability": "view",
      "type": "function"
    },
    {
      "constant": false,
      "inputs": [],
      "name": "_orderLucky7Numbers",
      "outputs": [],
      "payable": false,
      "stateMutability": "nonpayable",
      "type": "function"
    },
    {
      "constant": false,
      "inputs": [
        {
          "name": "_ticketOwner",
          "type": "address"
        }
      ],
      "name": "_generateTicket",
      "outputs": [],
      "payable": false,
      "stateMutability": "nonpayable",
      "type": "function"
    },
    {
      "constant": false,
      "inputs": [
        {
          "name": "_newValue",
          "type": "uint256"
        }
      ],
      "name": "modifyOraclizeGasLimit",
      "outputs": [],
      "payable": false,
      "stateMutability": "nonpayable",
      "type": "function"
    },
    {
      "constant": false,
      "inputs": [],
      "name": "destroy",
      "outputs": [],
      "payable": false,
      "stateMutability": "nonpayable",
      "type": "function"
    },
    {
      "constant": false,
      "inputs": [
        {
          "name": "_newValue",
          "type": "string"
        }
      ],
      "name": "modifyParameterB",
      "outputs": [],
      "payable": false,
      "stateMutability": "nonpayable",
      "type": "function"
    },
    {
      "constant": true,
      "inputs": [
        {
          "name": "",
          "type": "uint256"
        }
      ],
      "name": "ExactLucky7TicketValue",
      "outputs": [
        {
          "name": "",
          "type": "uint256"
        }
      ],
      "payable": false,
      "stateMutability": "view",
      "type": "function"
    },
    {
      "constant": false,
      "inputs": [
        {
          "name": "_newValue",
          "type": "uint256"
        }
      ],
      "name": "modifyGenerateTicketPrice",
      "outputs": [],
      "payable": false,
      "stateMutability": "nonpayable",
      "type": "function"
    },
    {
      "constant": true,
      "inputs": [
        {
          "name": "",
          "type": "uint256"
        }
      ],
      "name": "ExactLucky7TicketID",
      "outputs": [
        {
          "name": "",
          "type": "uint256"
        }
      ],
      "payable": false,
      "stateMutability": "view",
      "type": "function"
    },
    {
      "constant": true,
      "inputs": [],
      "name": "owner",
      "outputs": [
        {
          "name": "",
          "type": "address"
        }
      ],
      "payable": false,
      "stateMutability": "view",
      "type": "function"
    },
    {
      "constant": false,
      "inputs": [],
      "name": "_generateLucky7Number",
      "outputs": [],
      "payable": false,
      "stateMutability": "nonpayable",
      "type": "function"
    },
    {
      "constant": true,
      "inputs": [
        {
          "name": "",
          "type": "uint256"
        }
      ],
      "name": "lucky7NumbersArray",
      "outputs": [
        {
          "name": "mu",
          "type": "string"
        },
        {
          "name": "i",
          "type": "string"
        },
        {
          "name": "ticketValue",
          "type": "uint256"
        },
        {
          "name": "drawID",
          "type": "uint256"
        }
      ],
      "payable": false,
      "stateMutability": "view",
      "type": "function"
    },
    {
      "constant": true,
      "inputs": [],
      "name": "oraclizeCustomGasPrice",
      "outputs": [
        {
          "name": "",
          "type": "uint256"
        }
      ],
      "payable": false,
      "stateMutability": "view",
      "type": "function"
    },
    {
      "constant": true,
      "inputs": [],
      "name": "p",
      "outputs": [
        {
          "name": "",
          "type": "string"
        }
      ],
      "payable": false,
      "stateMutability": "view",
      "type": "function"
    },
    {
      "constant": false,
      "inputs": [
        {
          "name": "_newValue",
          "type": "string"
        }
      ],
      "name": "modifyParameterP",
      "outputs": [],
      "payable": false,
      "stateMutability": "nonpayable",
      "type": "function"
    },
    {
      "constant": true,
      "inputs": [
        {
          "name": "",
          "type": "uint256"
        }
      ],
      "name": "ticketsArray",
      "outputs": [
        {
          "name": "mu",
          "type": "string"
        },
        {
          "name": "i",
          "type": "string"
        },
        {
          "name": "ticketValue",
          "type": "uint256"
        },
        {
          "name": "owner",
          "type": "address"
        },
        {
          "name": "drawID",
          "type": "uint256"
        }
      ],
      "payable": false,
      "stateMutability": "view",
      "type": "function"
    },
    {
      "constant": true,
      "inputs": [],
      "name": "j",
      "outputs": [
        {
          "name": "",
          "type": "string"
        }
      ],
      "payable": false,
      "stateMutability": "view",
      "type": "function"
    },
    {
      "constant": true,
      "inputs": [],
      "name": "balance",
      "outputs": [
        {
          "name": "",
          "type": "uint256"
        }
      ],
      "payable": false,
      "stateMutability": "view",
      "type": "function"
    },
    {
      "constant": false,
      "inputs": [
        {
          "name": "_mu",
          "type": "string"
        },
        {
          "name": "_i",
          "type": "string"
        },
        {
          "name": "_ticketValue",
          "type": "uint256"
        },
        {
          "name": "_ticketOwner",
          "type": "address"
        },
        {
          "name": "_drawNumber",
          "type": "uint256"
        }
      ],
      "name": "insertCustomizedTicket",
      "outputs": [
        {
          "name": "",
          "type": "uint256"
        }
      ],
      "payable": false,
      "stateMutability": "nonpayable",
      "type": "function"
    },
    {
      "constant": true,
      "inputs": [],
      "name": "initialLucky7TicketPosition",
      "outputs": [
        {
          "name": "",
          "type": "uint256"
        }
      ],
      "payable": false,
      "stateMutability": "view",
      "type": "function"
    },
    {
      "constant": false,
      "inputs": [
        {
          "name": "_newValue",
          "type": "uint256"
        }
      ],
      "name": "modifySellTicketPrice",
      "outputs": [],
      "payable": false,
      "stateMutability": "nonpayable",
      "type": "function"
    },
    {
      "constant": false,
      "inputs": [],
      "name": "_cleanMappings",
      "outputs": [],
      "payable": false,
      "stateMutability": "nonpayable",
      "type": "function"
    },
    {
      "constant": true,
      "inputs": [],
      "name": "indexForLucky7Array",
      "outputs": [
        {
          "name": "",
          "type": "uint256"
        }
      ],
      "payable": false,
      "stateMutability": "view",
      "type": "function"
    },
    {
      "constant": true,
      "inputs": [
        {
          "name": "",
          "type": "uint256"
        }
      ],
      "name": "lucky7TicketsArray",
      "outputs": [
        {
          "name": "difference",
          "type": "uint256"
        },
        {
          "name": "owner",
          "type": "address"
        },
        {
          "name": "ticketID",
          "type": "uint256"
        },
        {
          "name": "ticketValue",
          "type": "uint256"
        },
        {
          "name": "lucky7Number",
          "type": "uint256"
        },
        {
          "name": "lucky7NumberID",
          "type": "uint256"
        },
        {
          "name": "drawID",
          "type": "uint256"
        }
      ],
      "payable": false,
      "stateMutability": "view",
      "type": "function"
    },
    {
      "constant": false,
      "inputs": [
        {
          "name": "_newValue",
          "type": "uint256"
        }
      ],
      "name": "modifyNumberOfLucky7Numbers",
      "outputs": [],
      "payable": false,
      "stateMutability": "nonpayable",
      "type": "function"
    },
    {
      "constant": false,
      "inputs": [
        {
          "name": "_newValue",
          "type": "uint256"
        }
      ],
      "name": "modifyOraclizeCustomGasPrice",
      "outputs": [],
      "payable": false,
      "stateMutability": "nonpayable",
      "type": "function"
    },
    {
      "constant": true,
      "inputs": [],
      "name": "generateTicketPrice",
      "outputs": [
        {
          "name": "",
          "type": "uint256"
        }
      ],
      "payable": false,
      "stateMutability": "view",
      "type": "function"
    },
    {
      "constant": true,
      "inputs": [],
      "name": "drawNumber",
      "outputs": [
        {
          "name": "",
          "type": "uint256"
        }
      ],
      "payable": false,
      "stateMutability": "view",
      "type": "function"
    },
    {
      "constant": true,
      "inputs": [],
      "name": "indexForExactLucky7Ticket",
      "outputs": [
        {
          "name": "",
          "type": "uint256"
        }
      ],
      "payable": false,
      "stateMutability": "view",
      "type": "function"
    },
    {
      "constant": false,
      "inputs": [
        {
          "name": "_ticketOwner",
          "type": "address"
        }
      ],
      "name": "_askForTicket",
      "outputs": [],
      "payable": false,
      "stateMutability": "nonpayable",
      "type": "function"
    },
    {
      "constant": true,
      "inputs": [],
      "name": "sellTicketPrice",
      "outputs": [
        {
          "name": "",
          "type": "uint256"
        }
      ],
      "payable": false,
      "stateMutability": "view",
      "type": "function"
    },
    {
      "constant": true,
      "inputs": [
        {
          "name": "",
          "type": "uint256"
        }
      ],
      "name": "lucky7TicketDifference",
      "outputs": [
        {
          "name": "",
          "type": "uint256"
        }
      ],
      "payable": false,
      "stateMutability": "view",
      "type": "function"
    },
    {
      "constant": true,
      "inputs": [
        {
          "name": "",
          "type": "uint256"
        }
      ],
      "name": "ExactLucky7TicketOwner",
      "outputs": [
        {
          "name": "",
          "type": "address"
        }
      ],
      "payable": false,
      "stateMutability": "view",
      "type": "function"
    },
    {
      "constant": true,
      "inputs": [],
      "name": "lastSecondPrize",
      "outputs": [
        {
          "name": "",
          "type": "address"
        }
      ],
      "payable": false,
      "stateMutability": "view",
      "type": "function"
    },
    {
      "constant": false,
      "inputs": [
        {
          "name": "_newOwner",
          "type": "address"
        }
      ],
      "name": "transferOwnership",
      "outputs": [],
      "payable": false,
      "stateMutability": "nonpayable",
      "type": "function"
    },
    {
      "constant": true,
      "inputs": [
        {
          "name": "",
          "type": "address"
        }
      ],
      "name": "pendingWithdrawals",
      "outputs": [
        {
          "name": "",
          "type": "uint256"
        }
      ],
      "payable": false,
      "stateMutability": "view",
      "type": "function"
    },
    {
      "constant": false,
      "inputs": [],
      "name": "_deliverPrizes",
      "outputs": [],
      "payable": false,
      "stateMutability": "nonpayable",
      "type": "function"
    },
    {
      "constant": false,
      "inputs": [
        {
          "name": "_recipient",
          "type": "address"
        }
      ],
      "name": "destroyAndSend",
      "outputs": [],
      "payable": false,
      "stateMutability": "nonpayable",
      "type": "function"
    },
    {
      "constant": true,
      "inputs": [],
      "name": "currentTicketID",
      "outputs": [
        {
          "name": "",
          "type": "uint256"
        }
      ],
      "payable": false,
      "stateMutability": "view",
      "type": "function"
    },
    {
      "constant": false,
      "inputs": [
        {
          "name": "_ticketOwner",
          "type": "address"
        }
      ],
      "name": "_askForIParameter",
      "outputs": [],
      "payable": false,
      "stateMutability": "nonpayable",
      "type": "function"
    },
    {
      "inputs": [],
      "payable": true,
      "stateMutability": "payable",
      "type": "constructor"
    },
    {
      "payable": true,
      "stateMutability": "payable",
      "type": "fallback"
    },
    {
      "anonymous": false,
      "inputs": [
        {
          "indexed": false,
          "name": "description",
          "type": "string"
        }
      ],
      "name": "NewOraclizeQuery",
      "type": "event"
    },
    {
      "anonymous": false,
      "inputs": [
        {
          "indexed": false,
          "name": "muParameter",
          "type": "string"
        }
      ],
      "name": "NewMuReceived",
      "type": "event"
    },
    {
      "anonymous": false,
      "inputs": [
        {
          "indexed": false,
          "name": "iParameter",
          "type": "string"
        }
      ],
      "name": "NewIReceived",
      "type": "event"
    },
    {
      "anonymous": false,
      "inputs": [
        {
          "indexed": false,
          "name": "newTicket",
          "type": "string"
        }
      ],
      "name": "NewTicketReceived",
      "type": "event"
    },
    {
      "anonymous": false,
      "inputs": [
        {
          "indexed": false,
          "name": "description",
          "type": "string"
        }
      ],
      "name": "NewWolframQuery",
      "type": "event"
    },
    {
      "anonymous": false,
      "inputs": [
        {
          "indexed": false,
          "name": "ticketID",
          "type": "uint256"
        }
      ],
      "name": "NewLucky7Ticket",
      "type": "event"
    },
    {
      "anonymous": false,
      "inputs": [
        {
          "indexed": false,
          "name": "value",
          "type": "uint256"
        }
      ],
      "name": "NewLucky7Number",
      "type": "event"
    },
    {
      "anonymous": false,
      "inputs": [
        {
          "indexed": false,
          "name": "describe",
          "type": "string"
        },
        {
          "indexed": false,
          "name": "_oldValue",
          "type": "uint256"
        },
        {
          "indexed": false,
          "name": "_newValue",
          "type": "uint256"
        }
      ],
      "name": "numberModified",
      "type": "event"
    },
    {
      "anonymous": false,
      "inputs": [
        {
          "indexed": false,
          "name": "describe",
          "type": "string"
        },
        {
          "indexed": false,
          "name": "_oldValue",
          "type": "string"
        },
        {
          "indexed": false,
          "name": "_newValue",
          "type": "string"
        }
      ],
      "name": "parameterModified",
      "type": "event"
    },
    {
      "anonymous": false,
      "inputs": [
        {
          "indexed": false,
          "name": "describe",
          "type": "string"
        },
        {
          "indexed": false,
          "name": "_oldValue",
          "type": "address"
        },
        {
          "indexed": false,
          "name": "_newValue",
          "type": "address"
        }
      ],
      "name": "walletModified",
      "type": "event"
    },
    {
      "anonymous": false,
      "inputs": [
        {
          "indexed": true,
          "name": "previousOwner",
          "type": "address"
        }
      ],
      "name": "OwnershipRenounced",
      "type": "event"
    },
    {
      "anonymous": false,
      "inputs": [
        {
          "indexed": true,
          "name": "previousOwner",
          "type": "address"
        },
        {
          "indexed": true,
          "name": "newOwner",
          "type": "address"
        }
      ],
      "name": "OwnershipTransferred",
      "type": "event"
    },
    {
      "constant": false,
      "inputs": [],
      "name": "sellRandomTicket",
      "outputs": [],
      "payable": true,
      "stateMutability": "payable",
      "type": "function"
    },
    {
      "constant": false,
      "inputs": [],
      "name": "generateRandomTicket",
      "outputs": [],
      "payable": true,
      "stateMutability": "payable",
      "type": "function"
    },
    {
      "constant": false,
      "inputs": [],
      "name": "sellGeneratedTicket",
      "outputs": [],
      "payable": true,
      "stateMutability": "payable",
      "type": "function"
    }
  ],
  "bytecode": "0x60c0604052600160808190527f310000000000000000000000000000000000000000000000000000000000000060a09081526200003e919081620001cc565b506040805180820190915260018082527f380000000000000000000000000000000000000000000000000000000000000060209092019182526200008591600291620001cc565b506040805180820190915260058082527f31303030300000000000000000000000000000000000000000000000000000006020909201918252620000cc91600391620001cc565b506040805180820190915260028082527f323000000000000000000000000000000000000000000000000000000000000060209092019182526200011391600491620001cc565b50600760058190556611c37937e08000600655662aa1efb94e00009055620493e060085563ee6b280060095560008054600a8054600160a060020a0319908116600160a060020a038416179091556010805460ff191660011790556039839055603a839055603b839055603c839055603d839055603e805482169055603f80548216905560408054821690559081163317909155600b8054909116736f485c8bf6fc43ea212e93bbf8ce046c7f1cb47517905562000271565b828054600181600116156101000203166002900490600052602060002090601f016020900481019282601f106200020f57805160ff19168380011785556200023f565b828001600101855582156200023f579182015b828111156200023f57825182559160200191906001019062000222565b506200024d92915062000251565b5090565b6200026e91905b808211156200024d576000815560010162000258565b90565b61607b80620002816000396000f3006080604052600436106103135763ffffffff60e060020a60003504166301591f1381146103155780630b8ec740146103625780630cc38b2b1461036a57806310cd4b8a146103c35780631827f45d146103ed5780631c3ed1d3146104055780631cf4c3d1146104395780631ded3bec1461044e5780631faae09f1461045657806323d370ba1461046b57806327dc297e1461048c5780632caf9eee146104ea5780632de729eb146105135780632e52d6061461052b57806338bbfa50146105b557806339df3f4f146106515780633bb7daf4146106665780633ccfd60b146106bf57806340014911146106d457806349f6b030146106e95780634acfd9b81461070a5780634df7e3d01461082957806350b9c4281461083e57806359f9fe82146108535780635edbc36b146108685780635fff9ae31461087d5780636982820614610922578063715018a61461093757806372c3477d1461094c578063741606b51461095457806375edd2571461096957806377d8a8301461097e578063809fc1531461099f57806383197ef0146109b757806383bb7bb7146109cc5780638a1dd74014610a255780638aa5fafa14610a3d5780638ce3da3c14610a555780638da5cb5b14610a6d57806390c31c4c14610a8257806396853e1314610a975780639ac2bf9114610b9b5780639ae8886a14610bb05780639dec38ab14610bc5578063b4f8eadd14610c1e578063b582ec5f14610d31578063b69ef8a814610d46578063bb4127e814610d5b578063bb49516b14610e07578063bcb740ab14610e1c578063c53d6e4714610e34578063c56969ab14610e49578063c629dad914610e5e578063c71f04ac14610eb6578063d383e86214610ece578063d566bcf014610ee6578063d80ffb2014610efb578063d84ca03a14610f10578063ddc110fa14610f25578063e5663c4814610f46578063e802ae1414610f5b578063eaaa680a14610f73578063ef1f460614610f8b578063f2fde38b14610fa0578063f3f4370314610fc1578063f405228914610fe2578063f5074f4114610ff7578063f53c7d0814611018578063fd9be1b21461102d575b005b34801561032157600080fd5b5061032a61104e565b604051808260e080838360005b8381101561034f578181015183820152602001610337565b5050505090500191505060405180910390f35b6103136110c5565b34801561037657600080fd5b506040805160206004803580820135601f81018490048402850184019095528484526103139436949293602493928401919081908401838280828437509497506112819650505050505050565b3480156103cf57600080fd5b506103db600435611466565b60408051918252519081900360200190f35b3480156103f957600080fd5b50610313600435611478565b34801561041157600080fd5b5061041d600435611494565b60408051600160a060020a039092168252519081900360200190f35b34801561044557600080fd5b506103136114af565b610313611883565b34801561046257600080fd5b5061041d6118f2565b34801561047757600080fd5b50610313600160a060020a0360043516611901565b34801561049857600080fd5b5060408051602060046024803582810135601f8101859004850286018501909652858552610313958335953695604494919390910191908190840183828082843750949750611a139650505050505050565b3480156104f657600080fd5b506104ff611fc4565b604080519115158252519081900360200190f35b34801561051f57600080fd5b50610313600435611fcd565b34801561053757600080fd5b5061054061232d565b6040805160208082528351818301528351919283929083019185019080838360005b8381101561057a578181015183820152602001610562565b50505050905090810190601f1680156105a75780820380516001836020036101000a031916815260200191505b509250505060405180910390f35b3480156105c157600080fd5b5060408051602060046024803582810135601f810185900485028601850190965285855261031395833595369560449491939091019190819084018382808284375050604080516020601f89358b018035918201839004830284018301909452808352979a9998810197919650918201945092508291508401838280828437509497506123b89650505050505050565b34801561065d57600080fd5b506103136123bd565b34801561067257600080fd5b506040805160206004803580820135601f81018490048402850184019095528484526103139436949293602493928401919081908401838280828437509497506123e89650505050505050565b3480156106cb57600080fd5b5061031361252e565b3480156106e057600080fd5b5061031361256f565b3480156106f557600080fd5b50610313600160a060020a03600435166125c1565b34801561071657600080fd5b5061072b600160a060020a0360043516612670565b604080519081018590528315156060820152821515608082015281151560a082015260c08082528751908201528651819060208083019160e08401918b019080838360005b83811015610788578181015183820152602001610770565b50505050905090810190601f1680156107b55780820380516001836020036101000a031916815260200191505b5083810382528851815288516020918201918a019080838360005b838110156107e85781810151838201526020016107d0565b50505050905090810190601f1680156108155780820380516001836020036101000a031916815260200191505b509850505050505050505060405180910390f35b34801561083557600080fd5b506105406127d0565b34801561084a57600080fd5b506103db61282a565b34801561085f57600080fd5b506103db612830565b34801561087457600080fd5b5061032a612836565b34801561088957600080fd5b5060408051602060046024803582810135601f810185900485028601850190965285855261031395833595369560449491939091019190819084018382808284375050604080516020601f89358b018035918201839004830284018301909452808352979a9998810197919650918201945092508291508401838280828437509497505084359550505060209092013591506128da9050565b34801561092e57600080fd5b5061041d612976565b34801561094357600080fd5b50610313612985565b6103136129e4565b34801561096057600080fd5b5061041d612a32565b34801561097557600080fd5b50610313612a41565b34801561098a57600080fd5b50610313600160a060020a0360043516612e7d565b3480156109ab57600080fd5b50610313600435612e8f565b3480156109c357600080fd5b50610313612f10565b3480156109d857600080fd5b506040805160206004803580820135601f8101849004840285018401909552848452610313943694929360249392840191908190840183828082843750949750612f359650505050505050565b348015610a3157600080fd5b506103db60043561307a565b348015610a4957600080fd5b5061031360043561308c565b348015610a6157600080fd5b506103db60043561310d565b348015610a7957600080fd5b5061041d61311f565b348015610a8e57600080fd5b5061031361312e565b348015610aa357600080fd5b50610aaf60043561318f565b604051808060200180602001858152602001848152602001838103835287818151815260200191508051906020019080838360005b83811015610afc578181015183820152602001610ae4565b50505050905090810190601f168015610b295780820380516001836020036101000a031916815260200191505b50838103825286518152865160209182019188019080838360005b83811015610b5c578181015183820152602001610b44565b50505050905090810190601f168015610b895780820380516001836020036101000a031916815260200191505b50965050505050505060405180910390f35b348015610ba757600080fd5b506103db6132db565b348015610bbc57600080fd5b506105406132e1565b348015610bd157600080fd5b506040805160206004803580820135601f810184900484028501840190955284845261031394369492936024939284019190819084018382808284375094975061333c9650505050505050565b348015610c2a57600080fd5b50610c36600435613482565b60408051908101849052600160a060020a03831660608201526080810182905260a08082528651908201528551819060208083019160c08401918a019080838360005b83811015610c91578181015183820152602001610c79565b50505050905090810190601f168015610cbe5780820380516001836020036101000a031916815260200191505b50838103825287518152875160209182019189019080838360005b83811015610cf1578181015183820152602001610cd9565b50505050905090810190601f168015610d1e5780820380516001836020036101000a031916815260200191505b5097505050505050505060405180910390f35b348015610d3d57600080fd5b506105406135ef565b348015610d5257600080fd5b506103db61364a565b348015610d6757600080fd5b506040805160206004803580820135601f81018490048402850184019095528484526103db94369492936024939284019190819084018382808284375050604080516020601f89358b018035918201839004830284018301909452808352979a99988101979196509182019450925082915084018382808284375094975050843595505050506020820135600160a060020a031691604001359050613650565b348015610e1357600080fd5b506103db613751565b348015610e2857600080fd5b50610313600435613757565b348015610e4057600080fd5b506103136137d8565b348015610e5557600080fd5b506103db613943565b348015610e6a57600080fd5b50610e76600435613949565b60408051978852600160a060020a039096166020880152868601949094526060860192909252608085015260a084015260c0830152519081900360e00190f35b348015610ec257600080fd5b506103136004356139a0565b348015610eda57600080fd5b50610313600435613a21565b348015610ef257600080fd5b506103db613ac8565b348015610f0757600080fd5b506103db613ace565b348015610f1c57600080fd5b506103db613ad4565b348015610f3157600080fd5b50610313600160a060020a0360043516613ada565b348015610f5257600080fd5b506103db613bc1565b348015610f6757600080fd5b506103db600435613bc7565b348015610f7f57600080fd5b5061041d600435613bd9565b348015610f9757600080fd5b5061041d613bf4565b348015610fac57600080fd5b50610313600160a060020a0360043516613c03565b348015610fcd57600080fd5b506103db600160a060020a0360043516613c23565b348015610fee57600080fd5b50610313613c35565b34801561100357600080fd5b50610313600160a060020a0360043516614036565b34801561102457600080fd5b506103db614059565b34801561103957600080fd5b50610313600160a060020a036004351661405f565b611056615e73565b6000805b600554811015611091576013816007811061107157fe5b6004020160020154828260078110151561108757fe5b015560010161105a565b6040805160e081019182905290839060079082845b8154815260200190600101908083116110a65750505050509250505090565b60075433903410156110d657600080fd5b600160a060020a0381166000908152602f60205260409020600301805462ff000019166201000017905560105460ff161561111057600080fd5b60408051336000908152602f6020529190912080547fc5d2460186f7233c927e7db2dcc703c0e500b653ca82273b7bfad8045d85a4709290819083906002610100600183161502600019019091160480156111a25780601f106111805761010080835404028352918201916111a2565b820191906000526020600020905b81548152906001019060200180831161118e575b50509150506040518091039020600019161415801561126a575060408051336000908152602f60205291909120600190810180547fc5d2460186f7233c927e7db2dcc703c0e500b653ca82273b7bfad8045d85a4709391928291849160026101009183161591909102600019019091160480156112565780601f10611234576101008083540402835291820191611256565b820191906000526020600020905b815481529060010190602001808311611242575b505091505060405180910390206000191614155b151561127557600080fd5b61127e33613ada565b50565b600054606090600160a060020a0316331461129b57600080fd5b6002805460408051602060018416156101000260001901909316849004601f8101849004840282018401909252818152929183018282801561131e5780601f106112f35761010080835404028352916020019161131e565b820191906000526020600020905b81548152906001019060200180831161130157829003601f168201915b5050855193945061133a93600293506020870192509050615e92565b50600080516020616030833981519152818360405180806020018060200180602001848103845260148152602001807f506172616d65746572206e206d6f646966696564000000000000000000000000815250602001848103835286818151815260200191508051906020019080838360005b838110156113c55781810151838201526020016113ad565b50505050905090810190601f1680156113f25780820380516001836020036101000a031916815260200191505b50848103825285518152855160209182019187019080838360005b8381101561142557818101518382015260200161140d565b50505050905090810190601f1680156114525780820380516001836020036101000a031916815260200191505b509550505050505060405180910390a15050565b60356020526000908152604090205481565b600054600160a060020a0316331461148f57600080fd5b603a55565b603460205260009081526040902054600160a060020a031681565b6114b7615f10565b6000805481908190600160a060020a031633146114d357600080fd5b5060005b600554811015611601576040805160e0810182526000838152603360209081528382205483528482526034815283822054600160a060020a031681840152848252603580825284832054948401859052918590525260128054601193606084019291811061154157fe5b906000526020600020906005020160020154815260200160138460078110151561156757fe5b600490810291909101600290810154835260208084018790526039546040948501528554600180820188556000978852968290208651600790920201908155908501518187018054600160a060020a031916600160a060020a0390921691909117905592840151908301556060830151600383015560808301519082015560a0820151600582015560c090910151600690910155016114d7565b50603c545b603c546005540181101561187d5780925060118181548110151561162657fe5b60009182526020918290206040805160e081018252600790930290910180548352600180820154600160a060020a0316948401949094526002810154918301919091526003810154606083015260048101546080830152600581015460a08301526006015460c08201529450810191505b603c54600554018210156117555760118054839081106116b357fe5b60009182526020909120600790910201548451111561174a5760118054839081106116da57fe5b60009182526020918290206040805160e0810182526007909302909101805483526001810154600160a060020a0316938301939093526002830154908201526003820154606082015260048201546080820152600582015460a082015260069091015460c0820152935090915081905b600190910190611697565b82811461187557601180548290811061176a57fe5b906000526020600020906007020160118481548110151561178757fe5b6000918252602090912082546007909202019081556001808301549082018054600160a060020a031916600160a060020a0390921691909117905560028083015490820155600380830154908201556004808301549082015560058083015490820155600691820154910155601180548591908390811061180457fe5b600091825260209182902083516007929092020190815590820151600182018054600160a060020a031916600160a060020a0390921691909117905560408201516002820155606082015160038201556080820151600482015560a0820151600582015560c0909101516006909101555b600101611606565b50505050565b600754339034101561189457600080fd5b600160a060020a0381166000908152602f60205260408082206003908101805462ff00001916620100001790553380845291909220909101805461ffff1916905560105460ff16156118e557600080fd5b6118ee33612e7d565b5050565b604054600160a060020a031681565b600061190e600954614173565b604080516020808252808201527f41736b696e6720666f722061206e6577206d7520706172616d657465722e2e2e8183015290517f096835e36c2ccea88ff2b3aca87dfc938b977e52ea656873ff76a8dba50d4d349181900360600190a16119e36040805190810160405280600c81526020017f576f6c6672616d416c70686100000000000000000000000000000000000000008152506040805190810160405280600f81526020017f342072616e646f6d206e756d626572000000000000000000000000000000000081525060085461435b565b60009081526030602052604090208054600160a060020a031916600160a060020a03939093169290921790915550565b611a1b614760565b600160a060020a03163314611a2f57600080fd5b600082815260306020526040902054600160a060020a031615801590611a7d5750600082815260306020908152604080832054600160a060020a03168352602f90915290206003015460ff16155b15611c1a57600082815260306020908152604080832054600160a060020a03168352602f82529091208251611ab492840190615e92565b507f6a28dd23c76ba6cc6f4f148a0e2e0e147d8b876cb74ec1e5e2b8e9a8119eb702816040518080602001828103825283818151815260200191508051906020019080838360005b83811015611b14578181015183820152602001611afc565b50505050905090810190601f168015611b415780820380516001836020036101000a031916815260200191505b509250505060405180910390a160008281526030602090815260408083208054600160a060020a039081168552602f9093528184206003908101805460ff191660019081179091559154909316845292200154610100900460ff161515148015611bef5750600082815260306020908152604080832054600160a060020a03168352602f90915290206003015460ff6201000090910416151560011480611bef575060105460ff1615156001145b15611c1557600082815260306020526040902054611c1590600160a060020a0316613ada565b6118ee565b600082815260316020526040902054600160a060020a031615801590611c6d5750600082815260316020908152604080832054600160a060020a03168352602f909152902060030154610100900460ff16155b15611e0857600082815260316020908152604080832054600160a060020a03168352602f82529091208251611caa92600190920191840190615e92565b507f716a554dec57e3a217a923b974660c0c8ebee07b09b1ac7d4a3a8f328d10cc89816040518080602001828103825283818151815260200191508051906020019080838360005b83811015611d0a578181015183820152602001611cf2565b50505050905090810190601f168015611d375780820380516001836020036101000a031916815260200191505b509250505060405180910390a160008281526031602090815260408083208054600160a060020a039081168552602f9093528184206003908101805461ff00191661010017905590549092168352909120015460ff1615156001148015611de25750600082815260316020908152604080832054600160a060020a03168352602f90915290206003015460ff6201000090910416151560011480611de2575060105460ff1615156001145b15611c1557600082815260316020526040902054611c1590600160a060020a0316613ada565b600082815260326020526040902054600160a060020a031615801590611e725750600082815260326020908152604080832054600160a060020a03168352602f90915290206003015460ff6201000090910416151560011480611e72575060105460ff1615156001145b156118ee57611e8081614955565b600083815260326020908152604080832054600160a060020a03168352602f825280832060020193909355825181815284518183015284517f0efef3a277391dda0d5747fd15566e85fcd8a4fb588d9853173841e45cc5ae8a9486949293849391840192908601918190849084905b83811015611f07578181015183820152602001611eef565b50505050905090810190601f168015611f345780820380516001836020036101000a031916815260200191505b509250505060405180910390a1600082815260326020908152604080832054600160a060020a03168352602f9091529020600301805462ff00001916905560105460ff16151560011415611fa357600082815260326020526040902054611c1590600160a060020a0316614968565b6000828152603260205260409020546118ee90600160a060020a0316614bc9565b60105460ff1681565b6000806000806013600160055403600781101515611fe757fe5b6004020160020154601286815481101515611ffe57fe5b906000526020600020906005020160020154111561206d576005546000190193506120666013856007811061202f57fe5b600402016002015460128781548110151561204657fe5b906000526020600020906005020160020154614e0490919063ffffffff16565b92506121b3565b601554601280548790811061207e57fe5b90600052602060002090600502016002015410156120e357600093506120666012868154811015156120ac57fe5b9060005260206000209060050201600201546013866007811015156120cd57fe5b6004020160020154614e0490919063ffffffff16565b601384600781106120f057fe5b600402016002015460128681548110151561210757fe5b906000526020600020906005020160020154111561212a576001909301926120e3565b6013846007811061213757fe5b600402016002015460128681548110151561214e57fe5b906000526020600020906005020160020154141561216f57600092506121b3565b612183601360001986016007811061202f57fe5b91506121976012868154811015156120ac57fe5b9050818111156121af576001840393508192506121b3565b8092505b600084815260346020526040902054600160a060020a031615806121e4575060008481526033602052604090205483105b1561227f5760128054869081106121f757fe5b60009182526020808320600360059093020191909101548683526034825260408084208054600160a060020a031916600160a060020a0390931692909217909155603382528083208690556035825291829020879055815187815291517fed4436a39d9a77d0c6c3be4f0e28f018750eb25c5c2d30ded16ef07ced4c00719281900390910190a15b82151561232657601280548690811061229457fe5b6000918252602080832060036005909302019190910154603b548352603790915260409091208054600160a060020a031916600160a060020a0390921691909117905560128054869081106122e557fe5b6000918252602080832060026005909302019190910154603b8054845260368352604080852092909255805484526038909252909120869055805460010190555b5050505050565b6002805460408051602060018416156101000260001901909316849004601f810184900484028201840190925281815292918301828280156123b05780601f10612385576101008083540402835291602001916123b0565b820191906000526020600020905b81548152906001019060200180831161239357829003601f168201915b505050505081565b505050565b600054600160a060020a031633146123d457600080fd5b6010805460ff19811660ff90911615179055565b600054606090600160a060020a0316331461240257600080fd5b6004805460408051602060026001851615610100026000190190941693909304601f810184900484028201840190925281815292918301828280156124885780601f1061245d57610100808354040283529160200191612488565b820191906000526020600020905b81548152906001019060200180831161246b57829003601f168201915b505085519394506124a493600493506020870192509050615e92565b50600080516020616030833981519152818360405180806020018060200180602001848103845260148152602001807f506172616d65746572206a206d6f64696669656400000000000000000000000081525060200184810383528681815181526020019150805190602001908083836000838110156113c55781810151838201526020016113ad565b33600081815260416020526040808220805490839055905190929183156108fc02918491818181858888f193505050501580156118ee573d6000803e3d6000fd5b600054600160a060020a0316331461258657600080fd5b61258e6123bd565b6125966114af565b61259e613c35565b6039805460010190819055600554603c8054919092020190556125bf6137d8565b565b60008054600160a060020a031633146125d957600080fd5b50600a8054600160a060020a03838116600160a060020a0319831681179093556040805191909216602082018190528183019390935260608082526019908201527f456e74657270726973652077616c6c6574206368616e67656400000000000000608082015290517f223db053947bb148de510715d3c7d8ccd72bdd376752fd735ee7bd0bd0ece5bf9181900360a00190a15050565b602f6020908152600091825260409182902080548351601f600260001961010060018616150201909316929092049182018490048402810184019094528084529092918391908301828280156127075780601f106126dc57610100808354040283529160200191612707565b820191906000526020600020905b8154815290600101906020018083116126ea57829003601f168201915b505050505090806001018054600181600116156101000203166002900480601f0160208091040260200160405190810160405280929190818152602001828054600181600116156101000203166002900480156127a55780601f1061277a576101008083540402835291602001916127a5565b820191906000526020600020905b81548152906001019060200180831161278857829003601f168201915b50505050600283015460039093015491929160ff808216925061010082048116916201000090041686565b60018054604080516020600284861615610100026000190190941693909304601f810184900484028201840190925281815292918301828280156123b05780601f10612385576101008083540402835291602001916123b0565b60085481565b60055481565b61283e615e73565b612846615e73565b60005b6005548110156128d457600081815260346020526040902054600160a060020a0316156128b85760008181526035602052604090205460128054909190811061288e57fe5b90600052602060002090600502016002015482826007811015156128ae57fe5b60200201526128cc565b60008282600781106128c657fe5b60200201525b600101612849565b50919050565b600054600160a060020a031633146128f157600080fd5b6040805160808101825285815260208101859052908101839052606081018290526013866007811061291f57fe5b60040201600082015181600001908051906020019061293f929190615e92565b5060208281015180516129589260018501920190615e92565b50604082015160028201556060909101516003909101555050505050565b603e54600160a060020a031681565b600054600160a060020a0316331461299c57600080fd5b60008054604051600160a060020a03909116917ff8df31144d9c2f0f6b59d69b8b98abd5459d07f2742c4df920b25aae33c6482091a260008054600160a060020a0319169055565b60065433903410156129f557600080fd5b336000818152602f60205260409020600301805461ffff1916905560105460ff1615612a2057600080fd5b612a2933611901565b6118ee3361405f565b600a54600160a060020a031681565b612a49615f57565b6000805481908190600160a060020a03163314612a6557600080fd5b5060005b60055481101561187d5791508160138160078110612a8357fe5b6040805160049290920292909201805460a06020601f6002600019610100600187161502019094169390930492830181900402840181019094526080830181815292939192849290918491840182828015612b1f5780601f10612af457610100808354040283529160200191612b1f565b820191906000526020600020905b815481529060010190602001808311612b0257829003601f168201915b50505050508152602001600182018054600181600116156101000203166002900480601f016020809104026020016040519081016040528092919081815260200182805460018160011615610100020316600290048015612bc15780601f10612b9657610100808354040283529160200191612bc1565b820191906000526020600020905b815481529060010190602001808311612ba457829003601f168201915b505050505081526020016002820154815260200160038201548152505093508060010191505b600554821015612d8a5760138260078110612bfe57fe5b600402016002015484604001511115612d7f5760138260078110612c1e57fe5b6040805160049290920292909201805460a06020601f6002600019610100600187161502019094169390930492830181900402840181019094526080830181815292939192849290918491840182828015612cba5780601f10612c8f57610100808354040283529160200191612cba565b820191906000526020600020905b815481529060010190602001808311612c9d57829003601f168201915b50505050508152602001600182018054600181600116156101000203166002900480601f016020809104026020016040519081016040528092919081815260200182805460018160011615610100020316600290048015612d5c5780601f10612d3157610100808354040283529160200191612d5c565b820191906000526020600020905b815481529060010190602001808311612d3f57829003601f168201915b505050505081526020016002820154815260200160038201548152505093508192505b600190910190612be7565b828114612e755760138160078110612d9e57fe5b6004020160138460078110612daf57fe5b6004020160008201816000019080546001816001161561010002031660029004612dda929190615f80565b5060018201816001019080546001816001161561010002031660029004612e02929190615f80565b50600282810154908201556003918201549101558360138260078110612e2457fe5b600402016000820151816000019080519060200190612e44929190615e92565b506020828101518051612e5d9260018501920190615e92565b50604082015160028201556060909101516003909101555b600101612a69565b612e8681611901565b61127e8161405f565b60008054600160a060020a03163314612ea757600080fd5b50600880549082905560408051602081018390528082018490526060808252601a908201527f4f7261636c697a6520676173206c696d6974206368616e676564000000000000608082015290516000805160206160108339815191529181900360a00190a15050565b600054600160a060020a03163314612f2757600080fd5b600054600160a060020a0316ff5b600054606090600160a060020a03163314612f4f57600080fd5b60018054604080516020600284861615610100026000190190941693909304601f81018490048402820184019092528181529291830182828015612fd45780601f10612fa957610100808354040283529160200191612fd4565b820191906000526020600020905b815481529060010190602001808311612fb757829003601f168201915b50508551939450612ff093600193506020870192509050615e92565b50600080516020616030833981519152818360405180806020018060200180602001848103845260148152602001807f506172616d657465722062206d6f64696669656400000000000000000000000081525060200184810383528681815181526020019150805190602001908083836000838110156113c55781810151838201526020016113ad565b60366020526000908152604090205481565b60008054600160a060020a031633146130a457600080fd5b50600680549082905560408051602081018390528082018490526060808252601d908201527f47656e6572617465207469636b6574207072696365206368616e676564000000608082015290516000805160206160108339815191529181900360a00190a15050565b60386020526000908152604090205481565b600054600160a060020a031681565b600054600160a060020a0316331461314557600080fd5b600554603a54141561316b57613159612a41565b6000603a556131666123bd565b6125bf565b306000818152602f60205260409020600301805461ffff191690556125bf90612e7d565b6013816007811061319c57fe5b60040201805460408051602060026001851615610100026000190190941693909304601f810184900484028201840190925281815292935083918301828280156132275780601f106131fc57610100808354040283529160200191613227565b820191906000526020600020905b81548152906001019060200180831161320a57829003601f168201915b505050505090806001018054600181600116156101000203166002900480601f0160208091040260200160405190810160405280929190818152602001828054600181600116156101000203166002900480156132c55780601f1061329a576101008083540402835291602001916132c5565b820191906000526020600020905b8154815290600101906020018083116132a857829003601f168201915b5050505050908060020154908060030154905084565b60095481565b6003805460408051602060026001851615610100026000190190941693909304601f810184900484028201840190925281815292918301828280156123b05780601f10612385576101008083540402835291602001916123b0565b600054606090600160a060020a0316331461335657600080fd5b6003805460408051602060026001851615610100026000190190941693909304601f810184900484028201840190925281815292918301828280156133dc5780601f106133b1576101008083540402835291602001916133dc565b820191906000526020600020905b8154815290600101906020018083116133bf57829003601f168201915b505085519394506133f893600393506020870192509050615e92565b50600080516020616030833981519152818360405180806020018060200180602001848103845260148152602001807f506172616d657465722070206d6f64696669656400000000000000000000000081525060200184810383528681815181526020019150805190602001908083836000838110156113c55781810151838201526020016113ad565b601280548290811061349057fe5b60009182526020918290206005919091020180546040805160026001841615610100026000190190931692909204601f8101859004850283018501909152808252919350918391908301828280156135295780601f106134fe57610100808354040283529160200191613529565b820191906000526020600020905b81548152906001019060200180831161350c57829003601f168201915b505050505090806001018054600181600116156101000203166002900480601f0160208091040260200160405190810160405280929190818152602001828054600181600116156101000203166002900480156135c75780601f1061359c576101008083540402835291602001916135c7565b820191906000526020600020905b8154815290600101906020018083116135aa57829003601f168201915b505050506002830154600384015460049094015492939092600160a060020a03909116915085565b6004805460408051602060026001851615610100026000190190941693909304601f810184900484028201840190925281815292918301828280156123b05780601f10612385576101008083540402835291602001916123b0565b30315b90565b600080548190600160a060020a0316331461366a57600080fd5b6040805160a0810182528881526020808201899052918101879052600160a060020a03861660608201526080810185905260128054600181810180845560009390935283518051919593949360059093027fbb8a6a4669ba250d26cd7a459eca9d215f8307e33aebe50379bc5a3617ec344401926136ed92849290910190615e92565b5060208281015180516137069260018501920190615e92565b50604082015160028201556060820151600382018054600160a060020a031916600160a060020a0390921691909117905560809091015160049091015503603d555095945050505050565b603c5481565b60008054600160a060020a0316331461376f57600080fd5b506007805490829055604080516020810183905280820184905260608082526019908201527f53656c6c207469636b6574207072696365206368616e67656400000000000000608082015290516000805160206160108339815191529181900360a00190a15050565b60005b60055481101561393b576000818152603360209081526040808320839055603482528083208054600160a060020a031916905560358252808320929092558151808301909252600182527f3000000000000000000000000000000000000000000000000000000000000000908201526013826007811061385757fe5b600402016000019080519060200190613871929190615e92565b5060408051808201909152600181527f30000000000000000000000000000000000000000000000000000000000000006020820152601382600781106138b357fe5b6004020160010190805190602001906138cd929190615e92565b506000601382600781106138dd57fe5b60040201600201819055506039546013826007811015156138fa57fe5b60040201600301556000818152603660209081526040808320839055603782528083208054600160a060020a031916905560389091528120556001016137db565b506000603b55565b603a5481565b601180548290811061395757fe5b60009182526020909120600790910201805460018201546002830154600384015460048501546005860154600690960154949650600160a060020a039093169491939092919087565b60008054600160a060020a031633146139b857600080fd5b506005805490829055604080516020810183905280820184905260608082526019908201527f53656c6c207469636b6574207072696365206368616e67656400000000000000608082015290516000805160206160108339815191529181900360a00190a15050565b60008054600160a060020a03163314613a3957600080fd5b506009805490829055604080516020810183905280820184905260608082526021908201527f4f7261636c697a6520637573746f6d20676173207072696365206368616e676560808201527f640000000000000000000000000000000000000000000000000000000000000060a082015290516000805160206160108339815191529181900360c00190a15050565b60065481565b60395481565b603b5481565b6000613ae7600954614173565b604080516020808252601a908201527f41736b696e6720666f722061206e6577207469636b65742e2e2e0000000000008183015290517f096835e36c2ccea88ff2b3aca87dfc938b977e52ea656873ff76a8dba50d4d349181900360600190a1613b916040805190810160405280600c81526020017f576f6c6672616d416c7068610000000000000000000000000000000000000000815250613b8984614e16565b60085461435b565b60009081526032602052604090208054600160a060020a031916600160a060020a03939093169290921790915550565b60075481565b60336020526000908152604090205481565b603760205260009081526040902054600160a060020a031681565b603f54600160a060020a031681565b600054600160a060020a03163314613c1a57600080fd5b61127e816156ab565b60416020526000908152604090205481565b6000805481908190819081908190600160a060020a03163314613c5757600080fd5b603e54600160a060020a03908116600090815260416020526040808220829055603f54831682528082208290558054909216815290812055613ca13031600763ffffffff61571b16565b9550613cb486600a63ffffffff61574416565b9550613cc786600663ffffffff61571b16565b9450613cda86600363ffffffff61571b16565b9350613ced86600163ffffffff61571b16565b9250613d0085600a63ffffffff61574416565b9450613d1384600a63ffffffff61574416565b9350613d2683600a63ffffffff61574416565b9250603c5491505b603c5460055401821015613e0957601180546000919084908110613d4e57fe5b6000918252602090912060016007909202010154600160a060020a031614613dfe578460416000601185815481101515613d8457fe5b6000918252602080832060016007909302019190910154600160a060020a031683528201929092526040019020805490910190556011805483908110613dc657fe5b6000918252602090912060016007909202010154603e8054600160a060020a031916600160a060020a03909216919091179055613e09565b600190910190613d2e565b6001909101905b603c5460055401821015613eeb57601180546000919084908110613e3057fe5b6000918252602090912060016007909202010154600160a060020a031614613ee0578360416000601185815481101515613e6657fe5b6000918252602080832060016007909302019190910154600160a060020a031683528201929092526040019020805490910190556011805483908110613ea857fe5b6000918252602090912060016007909202010154603f8054600160a060020a031916600160a060020a03909216919091179055613eeb565b600190910190613e10565b6001909101905b603c5460055401821015613fcd57601180546000919084908110613f1257fe5b6000918252602090912060016007909202010154600160a060020a031614613fc2578260416000601185815481101515613f4857fe5b6000918252602080832060016007909302019190910154600160a060020a031683528201929092526040019020805490910190556011805483908110613f8a57fe5b600091825260209091206001600790920201015460408054600160a060020a031916600160a060020a03909216919091179055613fcd565b600190910190613ef2565b613fdf3031600363ffffffff61571b16565b9050613ff281600a63ffffffff61574416565b600a54604051919250600160a060020a03169082156108fc029083906000818181858888f1935050505015801561402d573d6000803e3d6000fd5b50505050505050565b600054600160a060020a0316331461404d57600080fd5b80600160a060020a0316ff5b603d5481565b600061406c600954614173565b604080516020808252601f908201527f41736b696e6720666f722061206e6577206920706172616d657465722e2e2e008183015290517f096835e36c2ccea88ff2b3aca87dfc938b977e52ea656873ff76a8dba50d4d349181900360600190a16141436040805190810160405280600c81526020017f576f6c6672616d416c70686100000000000000000000000000000000000000008152506040805190810160405280600f81526020017f342072616e646f6d206e756d626572000000000000000000000000000000000081525060085461435b565b60009081526031602052604090208054600160a060020a031916600160a060020a03939093169290921790915550565b600b54600160a060020a0316158061419d5750600b5461419b90600160a060020a0316615759565b155b156141ae576141ac600061575d565b505b600b60009054906101000a9004600160a060020a0316600160a060020a03166338cc48316040518163ffffffff1660e060020a028152600401602060405180830381600087803b15801561420157600080fd5b505af1158015614215573d6000803e3d6000fd5b505050506040513d602081101561422b57600080fd5b5051600c54600160a060020a039081169116146142e157600b60009054906101000a9004600160a060020a0316600160a060020a03166338cc48316040518163ffffffff1660e060020a028152600401602060405180830381600087803b15801561429557600080fd5b505af11580156142a9573d6000803e3d6000fd5b505050506040513d60208110156142bf57600080fd5b5051600c8054600160a060020a031916600160a060020a039092169190911790555b600c54604080517fca6ad1e4000000000000000000000000000000000000000000000000000000008152600481018490529051600160a060020a039092169163ca6ad1e49160248082019260009290919082900301818387803b15801561434757600080fd5b505af1158015612326573d6000803e3d6000fd5b600b546000908190600160a060020a0316158061438a5750600b5461438890600160a060020a0316615759565b155b1561439b57614399600061575d565b505b600b60009054906101000a9004600160a060020a0316600160a060020a03166338cc48316040518163ffffffff1660e060020a028152600401602060405180830381600087803b1580156143ee57600080fd5b505af1158015614402573d6000803e3d6000fd5b505050506040513d602081101561441857600080fd5b5051600c54600160a060020a039081169116146144ce57600b60009054906101000a9004600160a060020a0316600160a060020a03166338cc48316040518163ffffffff1660e060020a028152600401602060405180830381600087803b15801561448257600080fd5b505af1158015614496573d6000803e3d6000fd5b505050506040513d60208110156144ac57600080fd5b5051600c8054600160a060020a031916600160a060020a039092169190911790555b600c54604080517f2ef3accc0000000000000000000000000000000000000000000000000000000081526024810186905260048101918252875160448201528751600160a060020a0390931692632ef3accc9289928892829160640190602086019080838360005b8381101561454e578181015183820152602001614536565b50505050905090810190601f16801561457b5780820380516001836020036101000a031916815260200191505b509350505050602060405180830381600087803b15801561459b57600080fd5b505af11580156145af573d6000803e3d6000fd5b505050506040513d60208110156145c557600080fd5b50519050670de0b6b3a76400003a8402018111156145e65760009150614758565b600c546040517fc51be90f00000000000000000000000000000000000000000000000000000000815260006004820181815260648301879052608060248401908152895160848501528951600160a060020a039095169463c51be90f948794938c938c938c93604481019160a49091019060208801908083838c5b83811015614679578181015183820152602001614661565b50505050905090810190601f1680156146a65780820380516001836020036101000a031916815260200191505b50838103825285518152855160209182019187019080838360005b838110156146d95781810151838201526020016146c1565b50505050905090810190601f1680156147065780820380516001836020036101000a031916815260200191505b5096505050505050506020604051808303818588803b15801561472857600080fd5b505af115801561473c573d6000803e3d6000fd5b50505050506040513d602081101561475357600080fd5b505191505b509392505050565b600b54600090600160a060020a0316158061478d5750600b5461478b90600160a060020a0316615759565b155b1561479e5761479c600061575d565b505b600b60009054906101000a9004600160a060020a0316600160a060020a03166338cc48316040518163ffffffff1660e060020a028152600401602060405180830381600087803b1580156147f157600080fd5b505af1158015614805573d6000803e3d6000fd5b505050506040513d602081101561481b57600080fd5b5051600c54600160a060020a039081169116146148d157600b60009054906101000a9004600160a060020a0316600160a060020a03166338cc48316040518163ffffffff1660e060020a028152600401602060405180830381600087803b15801561488557600080fd5b505af1158015614899573d6000803e3d6000fd5b505050506040513d60208110156148af57600080fd5b5051600c8054600160a060020a031916600160a060020a039092169190911790555b600c60009054906101000a9004600160a060020a0316600160a060020a031663c281d19e6040518163ffffffff1660e060020a028152600401602060405180830381600087803b15801561492457600080fd5b505af1158015614938573d6000803e3d6000fd5b505050506040513d602081101561494e57600080fd5b5051905090565b6000614962826000615767565b92915050565b60408051600160a060020a0383166000908152602f602090815290839020805460026001821615610100026000190190911604601f8101839004909202830160a090810190945260808301828152929384939290840182828015614a0d5780601f106149e257610100808354040283529160200191614a0d565b820191906000526020600020905b8154815290600101906020018083116149f057829003601f168201915b50505050508152602001602f600084600160a060020a0316600160a060020a031681526020019081526020016000206001018054600181600116156101000203166002900480601f016020809104026020016040519081016040528092919081815260200182805460018160011615610100020316600290048015614ad35780601f10614aa857610100808354040283529160200191614ad3565b820191906000526020600020905b815481529060010190602001808311614ab657829003601f168201915b5050509183525050600160a060020a0383166000908152602f60209081526040918290206002015490830152603954910152603a5460139060078110614b1557fe5b600402016000820151816000019080519060200190614b35929190615e92565b506020828101518051614b4e9260018501920190615e92565b50604082810151600280840191909155606090930151600390920191909155603a80546001019055600160a060020a0383166000908152602f60209081529082902090920154815190815290517fec2692b386f7e992f219e405f018eeaf8da1b95736760596812e564f2e709cfd929181900390910190a150565b60408051600160a060020a0383166000908152602f602090815283822080546002600180831615610100026000190190921604601f8101849004909302850160c090810190965260a0850183815293959094601294909384939192840182828015614c755780601f10614c4a57610100808354040283529160200191614c75565b820191906000526020600020905b815481529060010190602001808311614c5857829003601f168201915b50505050508152602001602f600087600160a060020a0316600160a060020a031681526020019081526020016000206001018054600181600116156101000203166002900480601f016020809104026020016040519081016040528092919081815260200182805460018160011615610100020316600290048015614d3b5780601f10614d1057610100808354040283529160200191614d3b565b820191906000526020600020905b815481529060010190602001808311614d1e57829003601f168201915b5050509183525050600160a060020a0386166000818152602f6020908152604080832060020154828601528401929092526039546060909301929092528354600181018086559483529181902083518051600590940290910192614da29284920190615e92565b506020828101518051614dbb9260018501920190615e92565b50604082015160028201556060820151600382018054600160a060020a031916600160a060020a039092169190911790556080909101516004909101550390506118ee81611fcd565b600082821115614e1057fe5b50900390565b604080518082018252600c81527f286d6f642828312f2831305e000000000000000000000000000000000000000060208083019190915260028054845160018216156101000260001901909116829004601f81018490048402820184019095528481526060948594614fed9490939190830182828015614ed75780601f10614eac57610100808354040283529160200191614ed7565b820191906000526020600020905b815481529060010190602001808311614eba57829003601f168201915b505060408051808201825260018082527f2d00000000000000000000000000000000000000000000000000000000000000602080840191909152600160a060020a038d166000908152602f825284902080548551600294821615610100026000190190911693909304601f8101839004830284018301909552848352929650909450909250830182828015614fad5780601f10614f8257610100808354040283529160200191614fad565b820191906000526020600020905b815481529060010190602001808311614f9057829003601f168201915b50505050506040805190810160405280600681526020017f29292a31305e00000000000000000000000000000000000000000000000000008152506158d9565b60038054604080516020601f600260001961010060018816150201909516949094049384018190048102820181019092528281529394506151819385939092909183018282801561507f5780601f106150545761010080835404028352916020019161507f565b820191906000526020600020905b81548152906001019060200180831161506257829003601f168201915b5050604080518082018252600581527f2c31305e2800000000000000000000000000000000000000000000000000000060208083019190915260048054845160026001831615610100026000190190921691909104601f81018490048402820184019095528481529296509194509092508301828280156151415780601f1061511657610100808354040283529160200191615141565b820191906000526020600020905b81548152906001019060200180831161512457829003601f168201915b50505050506040805190810160405280600181526020017f2b000000000000000000000000000000000000000000000000000000000000008152506158d9565b905061534281602f600086600160a060020a0316600160a060020a031681526020019081526020016000206001018054600181600116156101000203166002900480601f0160208091040260200160405190810160405280929190818152602001828054600181600116156101000203166002900480156152435780601f1061521857610100808354040283529160200191615243565b820191906000526020600020905b81548152906001019060200180831161522657829003601f168201915b5050604080518082018252600e81527f29292d6d6f642828312f2831305e00000000000000000000000000000000000060208083019190915260028054845160018216156101000260001901909116829004601f81018490048402820184019095528481529296509194509092508301828280156153025780601f106152d757610100808354040283529160200191615302565b820191906000526020600020905b8154815290600101906020018083116152e557829003601f168201915b50505050506040805190810160405280600181526020017f2d000000000000000000000000000000000000000000000000000000000000008152506158d9565b600160a060020a0384166000908152602f602090815260409182902080548351601f600260001961010060018616150201909316929092049182018490048402810184019094528084529394506154e9938593928301828280156153e75780601f106153bc576101008083540402835291602001916153e7565b820191906000526020600020905b8154815290600101906020018083116153ca57829003601f168201915b5050604080518082018252600681527f29292a31305e000000000000000000000000000000000000000000000000000060208083019190915260038054845160026001831615610100026000190190921691909104601f81018490048402820184019095528481529296509194509092508301828280156154a95780601f1061547e576101008083540402835291602001916154a9565b820191906000526020600020905b81548152906001019060200180831161548c57829003601f168201915b50505050506040805190810160405280600481526020017f2c31305e000000000000000000000000000000000000000000000000000000008152506158d9565b60408051808201825260018082527f2800000000000000000000000000000000000000000000000000000000000000602080840191909152600160a060020a0388166000908152602f8252849020820180548551600294821615610100026000190190911693909304601f81018390048302840183019095528483529495506156a494869490918301828280156155c15780601f10615596576101008083540402835291602001916155c1565b820191906000526020600020905b8154815290600101906020018083116155a457829003601f168201915b5050604080518082018252600781527f2929292f31305e00000000000000000000000000000000000000000000000000602080830191909152600160a060020a038d166000908152602f8252839020600190810180548551600293821615610100026000190190911692909204601f8101849004840283018401909552848252929650945090925083018282801561569a5780601f1061566f5761010080835404028352916020019161569a565b820191906000526020600020905b81548152906001019060200180831161567d57829003601f168201915b50505050506158d9565b9392505050565b600160a060020a03811615156156c057600080fd5b60008054604051600160a060020a03808516939216917f8be0079c531659141344cd1fd0a4f28419497f9722a3daafe3b4186f6b6457e091a360008054600160a060020a031916600160a060020a0392909216919091179055565b600082151561572c57506000614962565b5081810281838281151561573c57fe5b041461496257fe5b6000818381151561575157fe5b049392505050565b3b90565b6000614962615b3a565b6000828180805b83518110156158bc5783517f3000000000000000000000000000000000000000000000000000000000000000908590839081106157a757fe5b90602001015160f860020a900460f860020a02600160f860020a0319161015801561581d575083517f3900000000000000000000000000000000000000000000000000000000000000908590839081106157fd57fe5b90602001015160f860020a900460f860020a02600160f860020a03191611155b1561587657811561583c57851515615834576158bc565b600019909501945b600a830292506030848281518110151561585257fe5b90602001015160f860020a900460f860020a0260f860020a900403830192506158b4565b838181518110151561588457fe5b90602001015160f860020a900460f860020a02600160f860020a031916602e60f860020a0214156158b457600191505b60010161576e565b60008611156158ce5785600a0a830292505b509095945050505050565b6060806060806060806060806000808e98508d97508c96508b95508a94508451865188518a518c51010101016040519080825280601f01601f191660200182016040528015615932578160200160208202803883390190505b50935083925060009150600090505b885181101561599f57888181518110151561595857fe5b90602001015160f860020a900460f860020a02838380600101945081518110151561597f57fe5b906020010190600160f860020a031916908160001a905350600101615941565b5060005b8751811015615a015787818151811015156159ba57fe5b90602001015160f860020a900460f860020a0283838060010194508151811015156159e157fe5b906020010190600160f860020a031916908160001a9053506001016159a3565b5060005b8651811015615a63578681815181101515615a1c57fe5b90602001015160f860020a900460f860020a028383806001019450815181101515615a4357fe5b906020010190600160f860020a031916908160001a905350600101615a05565b5060005b8551811015615ac5578581815181101515615a7e57fe5b90602001015160f860020a900460f860020a028383806001019450815181101515615aa557fe5b906020010190600160f860020a031916908160001a905350600101615a67565b5060005b8451811015615b27578481815181101515615ae057fe5b90602001015160f860020a900460f860020a028383806001019450815181101515615b0757fe5b906020010190600160f860020a031916908160001a905350600101615ac9565b50909d9c50505050505050505050505050565b600080615b5a731d3b2638a7cc9f2cb3d298a3da7a90b67e5506ed615759565b1115615bca57600b8054600160a060020a031916731d3b2638a7cc9f2cb3d298a3da7a90b67e5506ed178155604080518082019091529081527f6574685f6d61696e6e65740000000000000000000000000000000000000000006020820152615bc290615e60565b50600161364d565b6000615be973c03a2615d5efaf5f49f60b7bb6583eaec212fdf1615759565b1115615c5257600b8054600160a060020a03191673c03a2615d5efaf5f49f60b7bb6583eaec212fdf117905560408051808201909152600c81527f6574685f726f707374656e3300000000000000000000000000000000000000006020820152615bc290615e60565b6000615c7173b7a07bcf2ba2f2703b24c0691b5278999c59ac7e615759565b1115615cda57600b8054600160a060020a03191673b7a07bcf2ba2f2703b24c0691b5278999c59ac7e17905560408051808201909152600981527f6574685f6b6f76616e00000000000000000000000000000000000000000000006020820152615bc290615e60565b6000615cf973146500cfd35b22e4a392fe0adc06de1a1368ed48615759565b1115615d6157600b8054600160a060020a03191673146500cfd35b22e4a392fe0adc06de1a1368ed48178155604080518082019091529081527f6574685f72696e6b6562790000000000000000000000000000000000000000006020820152615bc290615e60565b6000615d80736f485c8bf6fc43ea212e93bbf8ce046c7f1cb475615759565b1115615db45750600b8054600160a060020a031916736f485c8bf6fc43ea212e93bbf8ce046c7f1cb475179055600161364d565b6000615dd37320e12a1f859b3feae5fb2a0a32c18f5a65555bbf615759565b1115615e075750600b8054600160a060020a0319167320e12a1f859b3feae5fb2a0a32c18f5a65555bbf179055600161364d565b6000615e267351efaf4c8b3c9afbd5ab9f4bbc82784ab6ef8faa615759565b1115615e5a5750600b8054600160a060020a0319167351efaf4c8b3c9afbd5ab9f4bbc82784ab6ef8faa179055600161364d565b50600090565b80516118ee90600d906020840190615e92565b60e0604051908101604052806007906020820280388339509192915050565b828054600181600116156101000203166002900490600052602060002090601f016020900481019282601f10615ed357805160ff1916838001178555615f00565b82800160010185558215615f00579182015b82811115615f00578251825591602001919060010190615ee5565b50615f0c929150615ff5565b5090565b60e060405190810160405280600081526020016000600160a060020a0316815260200160008152602001600081526020016000815260200160008152602001600081525090565b608060405190810160405280606081526020016060815260200160008152602001600081525090565b828054600181600116156101000203166002900490600052602060002090601f016020900481019282601f10615fb95780548555615f00565b82800160010185558215615f0057600052602060002091601f016020900482015b82811115615f00578254825591600101919060010190615fda565b61364d91905b80821115615f0c5760008155600101615ffb56009bc068999fb1a0aac007a9b44ca6322a376441f42706bf5163600bb3d1a731647ecbd54b3baea533cf57ef049f9e04554be6a660d6dacd477488066eedf27beea165627a7a7230582063621eac72d35c39519bfa101dfe690ba215a7062bf223446c798277cc121a490029",
  "source": "pragma solidity ^0.4.20;\nimport \"./Lucky7Ballot.sol\";\nimport \"./Destructible.sol\";\n\ncontract Lucky7Store is Lucky7Ballot, Destructible{\n    \n    using SafeMath for uint256;\n    \n    function Lucky7Store() payable public{\n        \n    }\n    \n    modifier userBoughtTicket(address _ticketOwner){\n        require(msg.value >= sellTicketPrice);\n        userValues[_ticketOwner].userPaidTicket = true;\n        _;\n    }\n    \n    modifier userBoughtParameters(address _ticketOwner){\n        require(msg.value >= generateTicketPrice);\n        _;\n    }\n    \n    \n    modifier setParametersToReady(address _ticketOwner){\n        userValues[_ticketOwner].muReady = false;\n        userValues[_ticketOwner].iReady = false;\n        _;\n    }\n    \n    //Circuit breakers--------\n    \n    modifier sellingIsActive {\n        require(settingLucky7Numbers==false);\n        _;\n    }\n    //------------------------\n    \n    \n    function sellRandomTicket() \n        public\n        payable \n        userBoughtTicket(msg.sender)\n        setParametersToReady(msg.sender)\n        sellingIsActive\n    {\n        _generateTicket(msg.sender);\n    }\n    \n    function generateRandomTicket() \n        public \n        payable \n        userBoughtParameters(msg.sender)\n        setParametersToReady(msg.sender)\n        sellingIsActive\n    {\n        _askForMuParameter(msg.sender);\n        _askForIParameter(msg.sender);\n    }\n    \n    function sellGeneratedTicket() \n        public \n        payable \n        userBoughtTicket(msg.sender)\n        sellingIsActive\n    {\n        require(keccak256(userValues[msg.sender].mu)!=keccak256('') && keccak256(userValues[msg.sender].i)!=keccak256(''));\n        _askForTicket(msg.sender);\n    }\n    \n    function () public payable{\n        \n    }\n}   \n                                           \n",
  "sourcePath": "/Users/matiasbarrios/Desktop/Proyecto Consensys/luckyseven/contracts/Lucky7Store.sol",
  "compiler": {
    "name": "solc",
    "version": "0.4.24+commit.e67f0147.Emscripten.clang"
  },
  "schemaVersion": "2.0.1",
  "updatedAt": "2018-08-26T05:24:17.721Z"
}