{
  "contractName": "Lucky7TicketFactory",
  "abi": [
    {
      "constant": false,
      "inputs": [
        {
          "name": "_newValue",
          "type": "string"
        }
      ],
      "name": "modifyParameterN",
      "outputs": [],
      "payable": false,
      "stateMutability": "nonpayable",
      "type": "function"
    },
    {
      "constant": true,
      "inputs": [
        {
          "name": "",
          "type": "uint256"
        }
      ],
      "name": "lucky7TicketID",
      "outputs": [
        {
          "name": "",
          "type": "uint256"
        }
      ],
      "payable": false,
      "stateMutability": "view",
      "type": "function"
    },
    {
      "constant": true,
      "inputs": [
        {
          "name": "",
          "type": "uint256"
        }
      ],
      "name": "lucky7TicketOwner",
      "outputs": [
        {
          "name": "",
          "type": "address"
        }
      ],
      "payable": false,
      "stateMutability": "view",
      "type": "function"
    },
    {
      "constant": true,
      "inputs": [
        {
          "name": "",
          "type": "uint256"
        }
      ],
      "name": "ticketToOwner",
      "outputs": [
        {
          "name": "",
          "type": "address"
        }
      ],
      "payable": false,
      "stateMutability": "view",
      "type": "function"
    },
    {
      "constant": true,
      "inputs": [
        {
          "name": "",
          "type": "uint256"
        }
      ],
      "name": "lucky7Tickets",
      "outputs": [
        {
          "name": "difference",
          "type": "uint256"
        },
        {
          "name": "owner",
          "type": "address"
        },
        {
          "name": "ticketID",
          "type": "uint256"
        },
        {
          "name": "ticketValue",
          "type": "uint256"
        },
        {
          "name": "lucky7Number",
          "type": "uint256"
        }
      ],
      "payable": false,
      "stateMutability": "view",
      "type": "function"
    },
    {
      "constant": false,
      "inputs": [
        {
          "name": "_newValue",
          "type": "string"
        }
      ],
      "name": "modifyParameterJ",
      "outputs": [],
      "payable": false,
      "stateMutability": "nonpayable",
      "type": "function"
    },
    {
      "constant": true,
      "inputs": [
        {
          "name": "",
          "type": "uint256"
        }
      ],
      "name": "lucky7Numbers",
      "outputs": [
        {
          "name": "mu",
          "type": "string"
        },
        {
          "name": "i",
          "type": "string"
        },
        {
          "name": "ticketValue",
          "type": "uint256"
        },
        {
          "name": "drawID",
          "type": "uint256"
        }
      ],
      "payable": false,
      "stateMutability": "view",
      "type": "function"
    },
    {
      "constant": true,
      "inputs": [
        {
          "name": "",
          "type": "address"
        }
      ],
      "name": "userValues",
      "outputs": [
        {
          "name": "mu",
          "type": "string"
        },
        {
          "name": "i",
          "type": "string"
        },
        {
          "name": "ticketValue",
          "type": "uint256"
        },
        {
          "name": "muReady",
          "type": "bool"
        },
        {
          "name": "iReady",
          "type": "bool"
        },
        {
          "name": "userPaidTicket",
          "type": "bool"
        }
      ],
      "payable": false,
      "stateMutability": "view",
      "type": "function"
    },
    {
      "constant": true,
      "inputs": [
        {
          "name": "",
          "type": "uint256"
        }
      ],
      "name": "tickets",
      "outputs": [
        {
          "name": "mu",
          "type": "string"
        },
        {
          "name": "i",
          "type": "string"
        },
        {
          "name": "ticketValue",
          "type": "uint256"
        },
        {
          "name": "owner",
          "type": "address"
        },
        {
          "name": "drawID",
          "type": "uint256"
        }
      ],
      "payable": false,
      "stateMutability": "view",
      "type": "function"
    },
    {
      "constant": false,
      "inputs": [],
      "name": "renounceOwnership",
      "outputs": [],
      "payable": false,
      "stateMutability": "nonpayable",
      "type": "function"
    },
    {
      "constant": false,
      "inputs": [
        {
          "name": "_newValue",
          "type": "uint256"
        }
      ],
      "name": "modifyOraclizeGasLimit",
      "outputs": [],
      "payable": false,
      "stateMutability": "nonpayable",
      "type": "function"
    },
    {
      "constant": false,
      "inputs": [
        {
          "name": "_newValue",
          "type": "string"
        }
      ],
      "name": "modifyParameterB",
      "outputs": [],
      "payable": false,
      "stateMutability": "nonpayable",
      "type": "function"
    },
    {
      "constant": false,
      "inputs": [
        {
          "name": "_newValue",
          "type": "uint256"
        }
      ],
      "name": "modifyGenerateTicketPrice",
      "outputs": [],
      "payable": false,
      "stateMutability": "nonpayable",
      "type": "function"
    },
    {
      "constant": true,
      "inputs": [],
      "name": "owner",
      "outputs": [
        {
          "name": "",
          "type": "address"
        }
      ],
      "payable": false,
      "stateMutability": "view",
      "type": "function"
    },
    {
      "constant": false,
      "inputs": [
        {
          "name": "_newAddress",
          "type": "address"
        }
      ],
      "name": "modifyEnterprisePrize",
      "outputs": [],
      "payable": false,
      "stateMutability": "nonpayable",
      "type": "function"
    },
    {
      "constant": false,
      "inputs": [
        {
          "name": "_newValue",
          "type": "string"
        }
      ],
      "name": "modifyParameterP",
      "outputs": [],
      "payable": false,
      "stateMutability": "nonpayable",
      "type": "function"
    },
    {
      "constant": false,
      "inputs": [
        {
          "name": "_newValue",
          "type": "uint256"
        }
      ],
      "name": "modifySellTicketPrice",
      "outputs": [],
      "payable": false,
      "stateMutability": "nonpayable",
      "type": "function"
    },
    {
      "constant": false,
      "inputs": [
        {
          "name": "_newValue",
          "type": "uint256"
        }
      ],
      "name": "modifyNumberOfLucky7Numbers",
      "outputs": [],
      "payable": false,
      "stateMutability": "nonpayable",
      "type": "function"
    },
    {
      "constant": false,
      "inputs": [
        {
          "name": "_newValue",
          "type": "uint256"
        }
      ],
      "name": "modifyNumberOfWinners",
      "outputs": [],
      "payable": false,
      "stateMutability": "nonpayable",
      "type": "function"
    },
    {
      "constant": false,
      "inputs": [
        {
          "name": "_newValue",
          "type": "uint256"
        }
      ],
      "name": "modifyOraclizeCustomGasPrice",
      "outputs": [],
      "payable": false,
      "stateMutability": "nonpayable",
      "type": "function"
    },
    {
      "constant": true,
      "inputs": [
        {
          "name": "",
          "type": "uint256"
        }
      ],
      "name": "lucky7TicketDifference",
      "outputs": [
        {
          "name": "",
          "type": "uint256"
        }
      ],
      "payable": false,
      "stateMutability": "view",
      "type": "function"
    },
    {
      "constant": true,
      "inputs": [
        {
          "name": "",
          "type": "uint256"
        }
      ],
      "name": "ExactLucky7TicketOwner",
      "outputs": [
        {
          "name": "",
          "type": "address"
        }
      ],
      "payable": false,
      "stateMutability": "view",
      "type": "function"
    },
    {
      "constant": false,
      "inputs": [
        {
          "name": "_newOwner",
          "type": "address"
        }
      ],
      "name": "transferOwnership",
      "outputs": [],
      "payable": false,
      "stateMutability": "nonpayable",
      "type": "function"
    },
    {
      "anonymous": false,
      "inputs": [
        {
          "indexed": false,
          "name": "feeType",
          "type": "string"
        },
        {
          "indexed": false,
          "name": "_oldValue",
          "type": "uint256"
        },
        {
          "indexed": false,
          "name": "_newValue",
          "type": "uint256"
        }
      ],
      "name": "numberModified",
      "type": "event"
    },
    {
      "anonymous": false,
      "inputs": [
        {
          "indexed": false,
          "name": "parameter",
          "type": "string"
        },
        {
          "indexed": false,
          "name": "_oldValue",
          "type": "string"
        },
        {
          "indexed": false,
          "name": "_newValue",
          "type": "string"
        }
      ],
      "name": "parameterModified",
      "type": "event"
    },
    {
      "anonymous": false,
      "inputs": [
        {
          "indexed": false,
          "name": "parameter",
          "type": "string"
        },
        {
          "indexed": false,
          "name": "_oldValue",
          "type": "address"
        },
        {
          "indexed": false,
          "name": "_newValue",
          "type": "address"
        }
      ],
      "name": "walletModified",
      "type": "event"
    },
    {
      "anonymous": false,
      "inputs": [
        {
          "indexed": true,
          "name": "previousOwner",
          "type": "address"
        }
      ],
      "name": "OwnershipRenounced",
      "type": "event"
    },
    {
      "anonymous": false,
      "inputs": [
        {
          "indexed": true,
          "name": "previousOwner",
          "type": "address"
        },
        {
          "indexed": true,
          "name": "newOwner",
          "type": "address"
        }
      ],
      "name": "OwnershipTransferred",
      "type": "event"
    },
    {
      "constant": false,
      "inputs": [],
      "name": "toggleLucky7Setting",
      "outputs": [],
      "payable": false,
      "stateMutability": "nonpayable",
      "type": "function"
    },
    {
      "constant": false,
      "inputs": [
        {
          "name": "_ticketOwner",
          "type": "address"
        }
      ],
      "name": "_askForParameters",
      "outputs": [],
      "payable": false,
      "stateMutability": "nonpayable",
      "type": "function"
    },
    {
      "constant": false,
      "inputs": [
        {
          "name": "_ticketOwner",
          "type": "address"
        }
      ],
      "name": "_askForTicket",
      "outputs": [],
      "payable": false,
      "stateMutability": "nonpayable",
      "type": "function"
    },
    {
      "constant": false,
      "inputs": [
        {
          "name": "_ticketID",
          "type": "uint256"
        }
      ],
      "name": "_checkForLucky7Ticket",
      "outputs": [
        {
          "name": "",
          "type": "uint256"
        }
      ],
      "payable": false,
      "stateMutability": "nonpayable",
      "type": "function"
    },
    {
      "constant": false,
      "inputs": [
        {
          "name": "myid",
          "type": "bytes32"
        },
        {
          "name": "result",
          "type": "string"
        }
      ],
      "name": "__callback",
      "outputs": [],
      "payable": false,
      "stateMutability": "nonpayable",
      "type": "function"
    },
    {
      "constant": false,
      "inputs": [
        {
          "name": "myid",
          "type": "bytes32"
        },
        {
          "name": "result",
          "type": "string"
        },
        {
          "name": "proof",
          "type": "bytes"
        }
      ],
      "name": "__callback",
      "outputs": [],
      "payable": false,
      "stateMutability": "nonpayable",
      "type": "function"
    }
  ],
  "bytecode": "0x60806040526040805190810160405280600181526020017f310000000000000000000000000000000000000000000000000000000000000081525060069080519060200190620000519291906200022c565b506040805190810160405280600181526020017f3800000000000000000000000000000000000000000000000000000000000000815250600790805190602001906200009f9291906200022c565b506040805190810160405280600481526020017f313030300000000000000000000000000000000000000000000000000000000081525060089080519060200190620000ed9291906200022c565b506040805190810160405280600281526020017f3230000000000000000000000000000000000000000000000000000000000000815250600990805190602001906200013b9291906200022c565b506007600a556003600b55660110d9316ec000600c55660aa87bee538000600d55624c4b40600e5563ee6b2800600f5573265a5c3dd46ec82e2744f1d0e9fb4ed75d56132a601060006101000a81548173ffffffffffffffffffffffffffffffffffffffff021916908373ffffffffffffffffffffffffffffffffffffffff160217905550600060115560006012556001601360006101000a81548160ff02191690831515021790555033600560006101000a81548173ffffffffffffffffffffffffffffffffffffffff021916908373ffffffffffffffffffffffffffffffffffffffff160217905550620002db565b828054600181600116156101000203166002900490600052602060002090601f016020900481019282601f106200026f57805160ff1916838001178555620002a0565b82800160010185558215620002a0579182015b828111156200029f57825182559160200191906001019062000282565b5b509050620002af9190620002b3565b5090565b620002d891905b80821115620002d4576000816000905550600101620002ba565b5090565b90565b615f7c80620002eb6000396000f300608060405260043610610175576000357c0100000000000000000000000000000000000000000000000000000000900463ffffffff1680630cc38b2b1461017a57806310cd4b8a146101e35780631c3ed1d31461022457806327dc297e146102915780632b08e824146103085780632de729eb1461037557806338bbfa50146103b6578063396fb4221461047357806339df3f4f146104fc5780633bb7daf4146105135780633eba34661461057c5780634acfd9b81461069c57806350b44712146107ec578063715018a61461093f578063809fc1531461095657806383bb7bb7146109835780638aa5fafa146109ec5780638da5cb5b14610a195780638f7e4d9b14610a7057806396701ce914610ab35780639dec38ab14610af6578063bcb740ab14610b5f578063c71f04ac14610b8c578063c90cdc7e14610bb9578063d383e86214610be6578063ddc110fa14610c13578063e802ae1414610c56578063eaaa680a14610c97578063f2fde38b14610d04575b600080fd5b34801561018657600080fd5b506101e1600480360381019080803590602001908201803590602001908080601f0160208091040260200160405190810160405280939291908181526020018383808284378201915050505050509192919290505050610d47565b005b3480156101ef57600080fd5b5061020e60048036038101908080359060200190929190505050610f9f565b6040518082815260200191505060405180910390f35b34801561023057600080fd5b5061024f60048036038101908080359060200190929190505050610fb7565b604051808273ffffffffffffffffffffffffffffffffffffffff1673ffffffffffffffffffffffffffffffffffffffff16815260200191505060405180910390f35b34801561029d57600080fd5b506103066004803603810190808035600019169060200190929190803590602001908201803590602001908080601f0160208091040260200160405190810160405280939291908181526020018383808284378201915050505050509192919290505050610fea565b005b34801561031457600080fd5b5061033360048036038101908080359060200190929190505050611a7b565b604051808273ffffffffffffffffffffffffffffffffffffffff1673ffffffffffffffffffffffffffffffffffffffff16815260200191505060405180910390f35b34801561038157600080fd5b506103a060048036038101908080359060200190929190505050611aae565b6040518082815260200191505060405180910390f35b3480156103c257600080fd5b506104716004803603810190808035600019169060200190929190803590602001908201803590602001908080601f0160208091040260200160405190810160405280939291908181526020018383808284378201915050505050509192919290803590602001908201803590602001908080601f0160208091040260200160405190810160405280939291908181526020018383808284378201915050505050509192919290505050611f40565b005b34801561047f57600080fd5b5061049e60048036038101908080359060200190929190505050611f45565b604051808681526020018573ffffffffffffffffffffffffffffffffffffffff1673ffffffffffffffffffffffffffffffffffffffff1681526020018481526020018381526020018281526020019550505050505060405180910390f35b34801561050857600080fd5b50610511611fa0565b005b34801561051f57600080fd5b5061057a600480360381019080803590602001908201803590602001908080601f0160208091040260200160405190810160405280939291908181526020018383808284378201915050505050509192919290505050612028565b005b34801561058857600080fd5b506105a760048036038101908080359060200190929190505050612280565b604051808060200180602001858152602001848152602001838103835287818151815260200191508051906020019080838360005b838110156105f75780820151818401526020810190506105dc565b50505050905090810190601f1680156106245780820380516001836020036101000a031916815260200191505b50838103825286818151815260200191508051906020019080838360005b8381101561065d578082015181840152602081019050610642565b50505050905090810190601f16801561068a5780820380516001836020036101000a031916815260200191505b50965050505050505060405180910390f35b3480156106a857600080fd5b506106dd600480360381019080803573ffffffffffffffffffffffffffffffffffffffff1690602001909291905050506123e5565b604051808060200180602001878152602001861515151581526020018515151515815260200184151515158152602001838103835289818151815260200191508051906020019080838360005b8381101561074557808201518184015260208101905061072a565b50505050905090810190601f1680156107725780820380516001836020036101000a031916815260200191505b50838103825288818151815260200191508051906020019080838360005b838110156107ab578082015181840152602081019050610790565b50505050905090810190601f1680156107d85780820380516001836020036101000a031916815260200191505b509850505050505050505060405180910390f35b3480156107f857600080fd5b5061081760048036038101908080359060200190929190505050612578565b6040518080602001806020018681526020018573ffffffffffffffffffffffffffffffffffffffff1673ffffffffffffffffffffffffffffffffffffffff168152602001848152602001838103835288818151815260200191508051906020019080838360005b8381101561089957808201518184015260208101905061087e565b50505050905090810190601f1680156108c65780820380516001836020036101000a031916815260200191505b50838103825287818151815260200191508051906020019080838360005b838110156108ff5780820151818401526020810190506108e4565b50505050905090810190601f16801561092c5780820380516001836020036101000a031916815260200191505b5097505050505050505060405180910390f35b34801561094b57600080fd5b5061095461270d565b005b34801561096257600080fd5b5061098160048036038101908080359060200190929190505050612812565b005b34801561098f57600080fd5b506109ea600480360381019080803590602001908201803590602001908080601f01602080910402602001604051908101604052809392919081815260200183838082843782019150505050505091929192905050506128f8565b005b3480156109f857600080fd5b50610a1760048036038101908080359060200190929190505050612b50565b005b348015610a2557600080fd5b50610a2e612c36565b604051808273ffffffffffffffffffffffffffffffffffffffff1673ffffffffffffffffffffffffffffffffffffffff16815260200191505060405180910390f35b348015610a7c57600080fd5b50610ab1600480360381019080803573ffffffffffffffffffffffffffffffffffffffff169060200190929190505050612c5c565b005b348015610abf57600080fd5b50610af4600480360381019080803573ffffffffffffffffffffffffffffffffffffffff169060200190929190505050612e15565b005b348015610b0257600080fd5b50610b5d600480360381019080803590602001908201803590602001908080601f0160208091040260200160405190810160405280939291908181526020018383808284378201915050505050509192919290505050612fad565b005b348015610b6b57600080fd5b50610b8a60048036038101908080359060200190929190505050613205565b005b348015610b9857600080fd5b50610bb7600480360381019080803590602001909291905050506132eb565b005b348015610bc557600080fd5b50610be4600480360381019080803590602001909291905050506133d1565b005b348015610bf257600080fd5b50610c11600480360381019080803590602001909291905050506134b7565b005b348015610c1f57600080fd5b50610c54600480360381019080803573ffffffffffffffffffffffffffffffffffffffff1690602001909291905050506135c3565b005b348015610c6257600080fd5b50610c816004803603810190808035906020019092919050505061367a565b6040518082815260200191505060405180910390f35b348015610ca357600080fd5b50610cc260048036038101908080359060200190929190505050613692565b604051808273ffffffffffffffffffffffffffffffffffffffff1673ffffffffffffffffffffffffffffffffffffffff16815260200191505060405180910390f35b348015610d1057600080fd5b50610d45600480360381019080803573ffffffffffffffffffffffffffffffffffffffff1690602001909291905050506136c5565b005b6060600560009054906101000a900473ffffffffffffffffffffffffffffffffffffffff1673ffffffffffffffffffffffffffffffffffffffff163373ffffffffffffffffffffffffffffffffffffffff16141515610da557600080fd5b60078054600181600116156101000203166002900480601f016020809104026020016040519081016040528092919081815260200182805460018160011615610100020316600290048015610e3b5780601f10610e1057610100808354040283529160200191610e3b565b820191906000526020600020905b815481529060010190602001808311610e1e57829003601f168201915b505050505090508160079080519060200190610e58929190615e2b565b507f7ecbd54b3baea533cf57ef049f9e04554be6a660d6dacd477488066eedf27bee818360405180806020018060200180602001848103845260148152602001807f506172616d65746572206e206d6f646966696564000000000000000000000000815250602001848103835286818151815260200191508051906020019080838360005b83811015610ef8578082015181840152602081019050610edd565b50505050905090810190601f168015610f255780820380516001836020036101000a031916815260200191505b50848103825285818151815260200191508051906020019080838360005b83811015610f5e578082015181840152602081019050610f43565b50505050905090810190601f168015610f8b5780820380516001836020036101000a031916815260200191505b509550505050505060405180910390a15050565b605c6020528060005260406000206000915090505481565b605b6020528060005260406000206000915054906101000a900473ffffffffffffffffffffffffffffffffffffffff1681565b610ff261372d565b73ffffffffffffffffffffffffffffffffffffffff163373ffffffffffffffffffffffffffffffffffffffff1614151561102b57600080fd5b600060576000846000191660001916815260200190815260200160002060009054906101000a900473ffffffffffffffffffffffffffffffffffffffff1673ffffffffffffffffffffffffffffffffffffffff161415801561111b5750600015156056600060576000866000191660001916815260200190815260200160002060009054906101000a900473ffffffffffffffffffffffffffffffffffffffff1673ffffffffffffffffffffffffffffffffffffffff1673ffffffffffffffffffffffffffffffffffffffff16815260200190815260200160002060030160009054906101000a900460ff161515145b156113e157806056600060576000866000191660001916815260200190815260200160002060009054906101000a900473ffffffffffffffffffffffffffffffffffffffff1673ffffffffffffffffffffffffffffffffffffffff1673ffffffffffffffffffffffffffffffffffffffff16815260200190815260200160002060000190805190602001906111b1929190615e2b565b5060016056600060576000866000191660001916815260200190815260200160002060009054906101000a900473ffffffffffffffffffffffffffffffffffffffff1673ffffffffffffffffffffffffffffffffffffffff1673ffffffffffffffffffffffffffffffffffffffff16815260200190815260200160002060030160006101000a81548160ff021916908315150217905550600115156056600060576000866000191660001916815260200190815260200160002060009054906101000a900473ffffffffffffffffffffffffffffffffffffffff1673ffffffffffffffffffffffffffffffffffffffff1673ffffffffffffffffffffffffffffffffffffffff16815260200190815260200160002060030160019054906101000a900460ff1615151480156113925750600115156056600060576000866000191660001916815260200190815260200160002060009054906101000a900473ffffffffffffffffffffffffffffffffffffffff1673ffffffffffffffffffffffffffffffffffffffff1673ffffffffffffffffffffffffffffffffffffffff16815260200190815260200160002060030160029054906101000a900460ff1615151480611391575060011515601360009054906101000a900460ff161515145b5b156113dc576113db60576000846000191660001916815260200190815260200160002060009054906101000a900473ffffffffffffffffffffffffffffffffffffffff166135c3565b5b611a77565b600060586000846000191660001916815260200190815260200160002060009054906101000a900473ffffffffffffffffffffffffffffffffffffffff1673ffffffffffffffffffffffffffffffffffffffff16141580156114d15750600015156056600060586000866000191660001916815260200190815260200160002060009054906101000a900473ffffffffffffffffffffffffffffffffffffffff1673ffffffffffffffffffffffffffffffffffffffff1673ffffffffffffffffffffffffffffffffffffffff16815260200190815260200160002060030160019054906101000a900460ff161515145b1561179757806056600060586000866000191660001916815260200190815260200160002060009054906101000a900473ffffffffffffffffffffffffffffffffffffffff1673ffffffffffffffffffffffffffffffffffffffff1673ffffffffffffffffffffffffffffffffffffffff1681526020019081526020016000206001019080519060200190611567929190615e2b565b5060016056600060586000866000191660001916815260200190815260200160002060009054906101000a900473ffffffffffffffffffffffffffffffffffffffff1673ffffffffffffffffffffffffffffffffffffffff1673ffffffffffffffffffffffffffffffffffffffff16815260200190815260200160002060030160016101000a81548160ff021916908315150217905550600115156056600060586000866000191660001916815260200190815260200160002060009054906101000a900473ffffffffffffffffffffffffffffffffffffffff1673ffffffffffffffffffffffffffffffffffffffff1673ffffffffffffffffffffffffffffffffffffffff16815260200190815260200160002060030160009054906101000a900460ff1615151480156117485750600115156056600060586000866000191660001916815260200190815260200160002060009054906101000a900473ffffffffffffffffffffffffffffffffffffffff1673ffffffffffffffffffffffffffffffffffffffff1673ffffffffffffffffffffffffffffffffffffffff16815260200190815260200160002060030160029054906101000a900460ff1615151480611747575060011515601360009054906101000a900460ff161515145b5b156117925761179160586000846000191660001916815260200190815260200160002060009054906101000a900473ffffffffffffffffffffffffffffffffffffffff166135c3565b5b611a76565b600060596000846000191660001916815260200190815260200160002060009054906101000a900473ffffffffffffffffffffffffffffffffffffffff1673ffffffffffffffffffffffffffffffffffffffff16141580156118a55750600115156056600060596000866000191660001916815260200190815260200160002060009054906101000a900473ffffffffffffffffffffffffffffffffffffffff1673ffffffffffffffffffffffffffffffffffffffff1673ffffffffffffffffffffffffffffffffffffffff16815260200190815260200160002060030160029054906101000a900460ff16151514806118a4575060011515601360009054906101000a900460ff161515145b5b15611a75576118b381613a8b565b6056600060596000866000191660001916815260200190815260200160002060009054906101000a900473ffffffffffffffffffffffffffffffffffffffff1673ffffffffffffffffffffffffffffffffffffffff1673ffffffffffffffffffffffffffffffffffffffff1681526020019081526020016000206002018190555060006056600060596000866000191660001916815260200190815260200160002060009054906101000a900473ffffffffffffffffffffffffffffffffffffffff1673ffffffffffffffffffffffffffffffffffffffff1673ffffffffffffffffffffffffffffffffffffffff16815260200190815260200160002060030160026101000a81548160ff02191690831515021790555060011515601360009054906101000a900460ff1615151415611a2f57611a2a60596000846000191660001916815260200190815260200160002060009054906101000a900473ffffffffffffffffffffffffffffffffffffffff16613a9f565b611a74565b611a7360596000846000191660001916815260200190815260200160002060009054906101000a900473ffffffffffffffffffffffffffffffffffffffff16613d34565b5b5b5b5b5050565b60546020528060005260406000206000915054906101000a900473ffffffffffffffffffffffffffffffffffffffff1681565b600080600080600060156001600a5403600781101515611aca57fe5b6004020160020154601487815481101515611ae157fe5b9060005260206000209060050201600201541115611c16576001600a54039350611b4a601585600781101515611b1357fe5b6004020160020154601488815481101515611b2a57fe5b9060005260206000209060050201600201546140e490919063ffffffff16565b9250600073ffffffffffffffffffffffffffffffffffffffff16605b600086815260200190815260200160002060009054906101000a900473ffffffffffffffffffffffffffffffffffffffff1673ffffffffffffffffffffffffffffffffffffffff161480611bcc5750605a60008581526020019081526020016000205483105b15611c1157611c10846054600089815260200190815260200160002060009054906101000a900473ffffffffffffffffffffffffffffffffffffffff1685896140fd565b5b611f34565b60156000600781101515611c2657fe5b6004020160020154601487815481101515611c3d57fe5b9060005260206000209060050201600201541015611d6e5760009350611ca2601487815481101515611c6b57fe5b906000526020600020906005020160020154601586600781101515611c8c57fe5b60040201600201546140e490919063ffffffff16565b9250600073ffffffffffffffffffffffffffffffffffffffff16605b600086815260200190815260200160002060009054906101000a900473ffffffffffffffffffffffffffffffffffffffff1673ffffffffffffffffffffffffffffffffffffffff161480611d245750605a60008581526020019081526020016000205483105b15611d6957611d68846054600089815260200190815260200160002060009054906101000a900473ffffffffffffffffffffffffffffffffffffffff1685896140fd565b5b611f33565b5b601584600781101515611d7e57fe5b6004020160020154601487815481101515611d9557fe5b9060005260206000209060050201600201541115611dba578380600101945050611d6f565b611e06601560018603600781101515611dcf57fe5b6004020160020154601488815481101515611de657fe5b9060005260206000209060050201600201546140e490919063ffffffff16565b9150611e51601487815481101515611e1a57fe5b906000526020600020906005020160020154601586600781101515611e3b57fe5b60040201600201546140e490919063ffffffff16565b905081811115611e6957600184039350819250611e6d565b8092505b600073ffffffffffffffffffffffffffffffffffffffff16605b600086815260200190815260200160002060009054906101000a900473ffffffffffffffffffffffffffffffffffffffff1673ffffffffffffffffffffffffffffffffffffffff161480611eed5750605a60008581526020019081526020016000205483105b15611f3257611f31846054600089815260200190815260200160002060009054906101000a900473ffffffffffffffffffffffffffffffffffffffff1685896140fd565b5b5b5b83945050505050919050565b505050565b603181600781101515611f5457fe5b600502016000915090508060000154908060010160009054906101000a900473ffffffffffffffffffffffffffffffffffffffff16908060020154908060030154908060040154905085565b600560009054906101000a900473ffffffffffffffffffffffffffffffffffffffff1673ffffffffffffffffffffffffffffffffffffffff163373ffffffffffffffffffffffffffffffffffffffff16141515611ffc57600080fd5b601360009054906101000a900460ff1615601360006101000a81548160ff021916908315150217905550565b6060600560009054906101000a900473ffffffffffffffffffffffffffffffffffffffff1673ffffffffffffffffffffffffffffffffffffffff163373ffffffffffffffffffffffffffffffffffffffff1614151561208657600080fd5b60098054600181600116156101000203166002900480601f01602080910402602001604051908101604052809291908181526020018280546001816001161561010002031660029004801561211c5780601f106120f15761010080835404028352916020019161211c565b820191906000526020600020905b8154815290600101906020018083116120ff57829003601f168201915b505050505090508160099080519060200190612139929190615e2b565b507f7ecbd54b3baea533cf57ef049f9e04554be6a660d6dacd477488066eedf27bee818360405180806020018060200180602001848103845260148152602001807f506172616d65746572206a206d6f646966696564000000000000000000000000815250602001848103835286818151815260200191508051906020019080838360005b838110156121d95780820151818401526020810190506121be565b50505050905090810190601f1680156122065780820380516001836020036101000a031916815260200191505b50848103825285818151815260200191508051906020019080838360005b8381101561223f578082015181840152602081019050612224565b50505050905090810190601f16801561226c5780820380516001836020036101000a031916815260200191505b509550505050505060405180910390a15050565b60158160078110151561228f57fe5b60040201600091509050806000018054600181600116156101000203166002900480601f0160208091040260200160405190810160405280929190818152602001828054600181600116156101000203166002900480156123315780601f1061230657610100808354040283529160200191612331565b820191906000526020600020905b81548152906001019060200180831161231457829003601f168201915b505050505090806001018054600181600116156101000203166002900480601f0160208091040260200160405190810160405280929190818152602001828054600181600116156101000203166002900480156123cf5780601f106123a4576101008083540402835291602001916123cf565b820191906000526020600020905b8154815290600101906020018083116123b257829003601f168201915b5050505050908060020154908060030154905084565b6056602052806000526040600020600091509050806000018054600181600116156101000203166002900480601f0160208091040260200160405190810160405280929190818152602001828054600181600116156101000203166002900480156124915780601f1061246657610100808354040283529160200191612491565b820191906000526020600020905b81548152906001019060200180831161247457829003601f168201915b505050505090806001018054600181600116156101000203166002900480601f01602080910402602001604051908101604052809291908181526020018280546001816001161561010002031660029004801561252f5780601f106125045761010080835404028352916020019161252f565b820191906000526020600020905b81548152906001019060200180831161251257829003601f168201915b5050505050908060020154908060030160009054906101000a900460ff16908060030160019054906101000a900460ff16908060030160029054906101000a900460ff16905086565b60148181548110151561258757fe5b9060005260206000209060050201600091509050806000018054600181600116156101000203166002900480601f0160208091040260200160405190810160405280929190818152602001828054600181600116156101000203166002900480156126335780601f1061260857610100808354040283529160200191612633565b820191906000526020600020905b81548152906001019060200180831161261657829003601f168201915b505050505090806001018054600181600116156101000203166002900480601f0160208091040260200160405190810160405280929190818152602001828054600181600116156101000203166002900480156126d15780601f106126a6576101008083540402835291602001916126d1565b820191906000526020600020905b8154815290600101906020018083116126b457829003601f168201915b5050505050908060020154908060030160009054906101000a900473ffffffffffffffffffffffffffffffffffffffff16908060040154905085565b600560009054906101000a900473ffffffffffffffffffffffffffffffffffffffff1673ffffffffffffffffffffffffffffffffffffffff163373ffffffffffffffffffffffffffffffffffffffff1614151561276957600080fd5b600560009054906101000a900473ffffffffffffffffffffffffffffffffffffffff1673ffffffffffffffffffffffffffffffffffffffff167ff8df31144d9c2f0f6b59d69b8b98abd5459d07f2742c4df920b25aae33c6482060405160405180910390a26000600560006101000a81548173ffffffffffffffffffffffffffffffffffffffff021916908373ffffffffffffffffffffffffffffffffffffffff160217905550565b6000600560009054906101000a900473ffffffffffffffffffffffffffffffffffffffff1673ffffffffffffffffffffffffffffffffffffffff163373ffffffffffffffffffffffffffffffffffffffff1614151561287057600080fd5b600e54905081600e819055507f9bc068999fb1a0aac007a9b44ca6322a376441f42706bf5163600bb3d1a73164818360405180806020018481526020018381526020018281038252601a8152602001807f4f7261636c697a6520676173206c696d6974206368616e676564000000000000815250602001935050505060405180910390a15050565b6060600560009054906101000a900473ffffffffffffffffffffffffffffffffffffffff1673ffffffffffffffffffffffffffffffffffffffff163373ffffffffffffffffffffffffffffffffffffffff1614151561295657600080fd5b60068054600181600116156101000203166002900480601f0160208091040260200160405190810160405280929190818152602001828054600181600116156101000203166002900480156129ec5780601f106129c1576101008083540402835291602001916129ec565b820191906000526020600020905b8154815290600101906020018083116129cf57829003601f168201915b505050505090508160069080519060200190612a09929190615e2b565b507f7ecbd54b3baea533cf57ef049f9e04554be6a660d6dacd477488066eedf27bee818360405180806020018060200180602001848103845260148152602001807f506172616d657465722062206d6f646966696564000000000000000000000000815250602001848103835286818151815260200191508051906020019080838360005b83811015612aa9578082015181840152602081019050612a8e565b50505050905090810190601f168015612ad65780820380516001836020036101000a031916815260200191505b50848103825285818151815260200191508051906020019080838360005b83811015612b0f578082015181840152602081019050612af4565b50505050905090810190601f168015612b3c5780820380516001836020036101000a031916815260200191505b509550505050505060405180910390a15050565b6000600560009054906101000a900473ffffffffffffffffffffffffffffffffffffffff1673ffffffffffffffffffffffffffffffffffffffff163373ffffffffffffffffffffffffffffffffffffffff16141515612bae57600080fd5b600c54905081600c819055507f9bc068999fb1a0aac007a9b44ca6322a376441f42706bf5163600bb3d1a73164818360405180806020018481526020018381526020018281038252601d8152602001807f47656e6572617465207469636b6574207072696365206368616e676564000000815250602001935050505060405180910390a15050565b600560009054906101000a900473ffffffffffffffffffffffffffffffffffffffff1681565b600080612c6a600f54614185565b612ce16040805190810160405280600c81526020017f576f6c6672616d416c70686100000000000000000000000000000000000000008152506040805190810160405280600f81526020017f342072616e646f6d206e756d6265720000000000000000000000000000000000815250600e546144c8565b91508260576000846000191660001916815260200190815260200160002060006101000a81548173ffffffffffffffffffffffffffffffffffffffff021916908373ffffffffffffffffffffffffffffffffffffffff160217905550612db46040805190810160405280600c81526020017f576f6c6672616d416c70686100000000000000000000000000000000000000008152506040805190810160405280600f81526020017f342072616e646f6d206e756d6265720000000000000000000000000000000000815250600e546144c8565b90508260586000836000191660001916815260200190815260200160002060006101000a81548173ffffffffffffffffffffffffffffffffffffffff021916908373ffffffffffffffffffffffffffffffffffffffff160217905550505050565b6000600560009054906101000a900473ffffffffffffffffffffffffffffffffffffffff1673ffffffffffffffffffffffffffffffffffffffff163373ffffffffffffffffffffffffffffffffffffffff16141515612e7357600080fd5b601060009054906101000a900473ffffffffffffffffffffffffffffffffffffffff16905081601060006101000a81548173ffffffffffffffffffffffffffffffffffffffff021916908373ffffffffffffffffffffffffffffffffffffffff1602179055507f223db053947bb148de510715d3c7d8ccd72bdd376752fd735ee7bd0bd0ece5bf818360405180806020018473ffffffffffffffffffffffffffffffffffffffff1673ffffffffffffffffffffffffffffffffffffffff1681526020018373ffffffffffffffffffffffffffffffffffffffff1673ffffffffffffffffffffffffffffffffffffffff168152602001828103825260198152602001807f456e74657270726973652077616c6c6574206368616e67656400000000000000815250602001935050505060405180910390a15050565b6060600560009054906101000a900473ffffffffffffffffffffffffffffffffffffffff1673ffffffffffffffffffffffffffffffffffffffff163373ffffffffffffffffffffffffffffffffffffffff1614151561300b57600080fd5b60088054600181600116156101000203166002900480601f0160208091040260200160405190810160405280929190818152602001828054600181600116156101000203166002900480156130a15780601f10613076576101008083540402835291602001916130a1565b820191906000526020600020905b81548152906001019060200180831161308457829003601f168201915b5050505050905081600890805190602001906130be929190615e2b565b507f7ecbd54b3baea533cf57ef049f9e04554be6a660d6dacd477488066eedf27bee818360405180806020018060200180602001848103845260148152602001807f506172616d657465722070206d6f646966696564000000000000000000000000815250602001848103835286818151815260200191508051906020019080838360005b8381101561315e578082015181840152602081019050613143565b50505050905090810190601f16801561318b5780820380516001836020036101000a031916815260200191505b50848103825285818151815260200191508051906020019080838360005b838110156131c45780820151818401526020810190506131a9565b50505050905090810190601f1680156131f15780820380516001836020036101000a031916815260200191505b509550505050505060405180910390a15050565b6000600560009054906101000a900473ffffffffffffffffffffffffffffffffffffffff1673ffffffffffffffffffffffffffffffffffffffff163373ffffffffffffffffffffffffffffffffffffffff1614151561326357600080fd5b600d54905081600d819055507f9bc068999fb1a0aac007a9b44ca6322a376441f42706bf5163600bb3d1a7316481836040518080602001848152602001838152602001828103825260198152602001807f53656c6c207469636b6574207072696365206368616e67656400000000000000815250602001935050505060405180910390a15050565b6000600560009054906101000a900473ffffffffffffffffffffffffffffffffffffffff1673ffffffffffffffffffffffffffffffffffffffff163373ffffffffffffffffffffffffffffffffffffffff1614151561334957600080fd5b600d54905081600d819055507f9bc068999fb1a0aac007a9b44ca6322a376441f42706bf5163600bb3d1a7316481836040518080602001848152602001838152602001828103825260198152602001807f53656c6c207469636b6574207072696365206368616e67656400000000000000815250602001935050505060405180910390a15050565b6000600560009054906101000a900473ffffffffffffffffffffffffffffffffffffffff1673ffffffffffffffffffffffffffffffffffffffff163373ffffffffffffffffffffffffffffffffffffffff1614151561342f57600080fd5b600b54905081600b819055507f9bc068999fb1a0aac007a9b44ca6322a376441f42706bf5163600bb3d1a7316481836040518080602001848152602001838152602001828103825260198152602001807f4e756d626572206f662077696e6e657273206368616e67656400000000000000815250602001935050505060405180910390a15050565b6000600560009054906101000a900473ffffffffffffffffffffffffffffffffffffffff1673ffffffffffffffffffffffffffffffffffffffff163373ffffffffffffffffffffffffffffffffffffffff1614151561351557600080fd5b600f54905081600f819055507f9bc068999fb1a0aac007a9b44ca6322a376441f42706bf5163600bb3d1a7316481836040518080602001848152602001838152602001828103825260218152602001807f4f7261636c697a6520637573746f6d20676173207072696365206368616e676581526020017f6400000000000000000000000000000000000000000000000000000000000000815250604001935050505060405180910390a15050565b60006135d0600f54614185565b61361a6040805190810160405280600c81526020017f576f6c6672616d416c706861000000000000000000000000000000000000000081525061361284614a78565b600e546144c8565b90508160596000836000191660001916815260200190815260200160002060006101000a81548173ffffffffffffffffffffffffffffffffffffffff021916908373ffffffffffffffffffffffffffffffffffffffff1602179055505050565b605a6020528060005260406000206000915090505481565b605d6020528060005260406000206000915054906101000a900473ffffffffffffffffffffffffffffffffffffffff1681565b600560009054906101000a900473ffffffffffffffffffffffffffffffffffffffff1673ffffffffffffffffffffffffffffffffffffffff163373ffffffffffffffffffffffffffffffffffffffff1614151561372157600080fd5b61372a81615138565b50565b6000806000809054906101000a900473ffffffffffffffffffffffffffffffffffffffff1673ffffffffffffffffffffffffffffffffffffffff16148061379d5750600061379b6000809054906101000a900473ffffffffffffffffffffffffffffffffffffffff16615234565b145b156137ae576137ac600061523f565b505b6000809054906101000a900473ffffffffffffffffffffffffffffffffffffffff1673ffffffffffffffffffffffffffffffffffffffff166338cc48316040518163ffffffff167c0100000000000000000000000000000000000000000000000000000000028152600401602060405180830381600087803b15801561383357600080fd5b505af1158015613847573d6000803e3d6000fd5b505050506040513d602081101561385d57600080fd5b810190808051906020019092919050505073ffffffffffffffffffffffffffffffffffffffff16600160009054906101000a900473ffffffffffffffffffffffffffffffffffffffff1673ffffffffffffffffffffffffffffffffffffffff161415156139c5576000809054906101000a900473ffffffffffffffffffffffffffffffffffffffff1673ffffffffffffffffffffffffffffffffffffffff166338cc48316040518163ffffffff167c0100000000000000000000000000000000000000000000000000000000028152600401602060405180830381600087803b15801561394957600080fd5b505af115801561395d573d6000803e3d6000fd5b505050506040513d602081101561397357600080fd5b8101908080519060200190929190505050600160006101000a81548173ffffffffffffffffffffffffffffffffffffffff021916908373ffffffffffffffffffffffffffffffffffffffff1602179055505b600160009054906101000a900473ffffffffffffffffffffffffffffffffffffffff1673ffffffffffffffffffffffffffffffffffffffff1663c281d19e6040518163ffffffff167c0100000000000000000000000000000000000000000000000000000000028152600401602060405180830381600087803b158015613a4b57600080fd5b505af1158015613a5f573d6000803e3d6000fd5b505050506040513d6020811015613a7557600080fd5b8101908080519060200190929190505050905090565b6000613a98826000615250565b9050919050565b608060405190810160405280605660008473ffffffffffffffffffffffffffffffffffffffff1673ffffffffffffffffffffffffffffffffffffffff1681526020019081526020016000206000018054600181600116156101000203166002900480601f016020809104026020016040519081016040528092919081815260200182805460018160011615610100020316600290048015613b815780601f10613b5657610100808354040283529160200191613b81565b820191906000526020600020905b815481529060010190602001808311613b6457829003601f168201915b50505050508152602001605660008473ffffffffffffffffffffffffffffffffffffffff1673ffffffffffffffffffffffffffffffffffffffff1681526020019081526020016000206001018054600181600116156101000203166002900480601f016020809104026020016040519081016040528092919081815260200182805460018160011615610100020316600290048015613c615780601f10613c3657610100808354040283529160200191613c61565b820191906000526020600020905b815481529060010190602001808311613c4457829003601f168201915b50505050508152602001605660008473ffffffffffffffffffffffffffffffffffffffff1673ffffffffffffffffffffffffffffffffffffffff1681526020019081526020016000206002015481526020016011548152506015601254600781101515613cca57fe5b600402016000820151816000019080519060200190613cea929190615eab565b506020820151816001019080519060200190613d07929190615eab565b50604082015181600201556060820151816003015590505060126000815480929190600101919050555050565b60006001601460a060405190810160405280605660008773ffffffffffffffffffffffffffffffffffffffff1673ffffffffffffffffffffffffffffffffffffffff1681526020019081526020016000206000018054600181600116156101000203166002900480601f016020809104026020016040519081016040528092919081815260200182805460018160011615610100020316600290048015613e1c5780601f10613df157610100808354040283529160200191613e1c565b820191906000526020600020905b815481529060010190602001808311613dff57829003601f168201915b50505050508152602001605660008773ffffffffffffffffffffffffffffffffffffffff1673ffffffffffffffffffffffffffffffffffffffff1681526020019081526020016000206001018054600181600116156101000203166002900480601f016020809104026020016040519081016040528092919081815260200182805460018160011615610100020316600290048015613efc5780601f10613ed157610100808354040283529160200191613efc565b820191906000526020600020905b815481529060010190602001808311613edf57829003601f168201915b50505050508152602001605660008773ffffffffffffffffffffffffffffffffffffffff1673ffffffffffffffffffffffffffffffffffffffff1681526020019081526020016000206002015481526020018573ffffffffffffffffffffffffffffffffffffffff168152602001601154815250908060018154018082558091505090600182039060005260206000209060050201600090919290919091506000820151816000019080519060200190613fb7929190615eab565b506020820151816001019080519060200190613fd4929190615eab565b506040820151816002015560608201518160030160006101000a81548173ffffffffffffffffffffffffffffffffffffffff021916908373ffffffffffffffffffffffffffffffffffffffff160217905550608082015181600401555050039050816054600083815260200190815260200160002060006101000a81548173ffffffffffffffffffffffffffffffffffffffff021916908373ffffffffffffffffffffffffffffffffffffffff160217905550605560008373ffffffffffffffffffffffffffffffffffffffff1673ffffffffffffffffffffffffffffffffffffffff168152602001908152602001600020600081548092919060010191905055506140df81611aae565b505050565b60008282111515156140f257fe5b818303905092915050565b82605b600086815260200190815260200160002060006101000a81548173ffffffffffffffffffffffffffffffffffffffff021916908373ffffffffffffffffffffffffffffffffffffffff16021790555081605a60008681526020019081526020016000208190555080605c60008681526020019081526020016000208190555050505050565b60008060009054906101000a900473ffffffffffffffffffffffffffffffffffffffff1673ffffffffffffffffffffffffffffffffffffffff1614806141f4575060006141f26000809054906101000a900473ffffffffffffffffffffffffffffffffffffffff16615234565b145b1561420557614203600061523f565b505b6000809054906101000a900473ffffffffffffffffffffffffffffffffffffffff1673ffffffffffffffffffffffffffffffffffffffff166338cc48316040518163ffffffff167c0100000000000000000000000000000000000000000000000000000000028152600401602060405180830381600087803b15801561428a57600080fd5b505af115801561429e573d6000803e3d6000fd5b505050506040513d60208110156142b457600080fd5b810190808051906020019092919050505073ffffffffffffffffffffffffffffffffffffffff16600160009054906101000a900473ffffffffffffffffffffffffffffffffffffffff1673ffffffffffffffffffffffffffffffffffffffff1614151561441c576000809054906101000a900473ffffffffffffffffffffffffffffffffffffffff1673ffffffffffffffffffffffffffffffffffffffff166338cc48316040518163ffffffff167c0100000000000000000000000000000000000000000000000000000000028152600401602060405180830381600087803b1580156143a057600080fd5b505af11580156143b4573d6000803e3d6000fd5b505050506040513d60208110156143ca57600080fd5b8101908080519060200190929190505050600160006101000a81548173ffffffffffffffffffffffffffffffffffffffff021916908373ffffffffffffffffffffffffffffffffffffffff1602179055505b600160009054906101000a900473ffffffffffffffffffffffffffffffffffffffff1673ffffffffffffffffffffffffffffffffffffffff1663ca6ad1e4826040518263ffffffff167c010000000000000000000000000000000000000000000000000000000002815260040180828152602001915050600060405180830381600087803b1580156144ad57600080fd5b505af11580156144c1573d6000803e3d6000fd5b5050505050565b60008060008060009054906101000a900473ffffffffffffffffffffffffffffffffffffffff1673ffffffffffffffffffffffffffffffffffffffff16148061453a575060006145386000809054906101000a900473ffffffffffffffffffffffffffffffffffffffff16615234565b145b1561454b57614549600061523f565b505b6000809054906101000a900473ffffffffffffffffffffffffffffffffffffffff1673ffffffffffffffffffffffffffffffffffffffff166338cc48316040518163ffffffff167c0100000000000000000000000000000000000000000000000000000000028152600401602060405180830381600087803b1580156145d057600080fd5b505af11580156145e4573d6000803e3d6000fd5b505050506040513d60208110156145fa57600080fd5b810190808051906020019092919050505073ffffffffffffffffffffffffffffffffffffffff16600160009054906101000a900473ffffffffffffffffffffffffffffffffffffffff1673ffffffffffffffffffffffffffffffffffffffff16141515614762576000809054906101000a900473ffffffffffffffffffffffffffffffffffffffff1673ffffffffffffffffffffffffffffffffffffffff166338cc48316040518163ffffffff167c0100000000000000000000000000000000000000000000000000000000028152600401602060405180830381600087803b1580156146e657600080fd5b505af11580156146fa573d6000803e3d6000fd5b505050506040513d602081101561471057600080fd5b8101908080519060200190929190505050600160006101000a81548173ffffffffffffffffffffffffffffffffffffffff021916908373ffffffffffffffffffffffffffffffffffffffff1602179055505b600160009054906101000a900473ffffffffffffffffffffffffffffffffffffffff1673ffffffffffffffffffffffffffffffffffffffff16632ef3accc86856040518363ffffffff167c01000000000000000000000000000000000000000000000000000000000281526004018080602001838152602001828103825284818151815260200191508051906020019080838360005b838110156148135780820151818401526020810190506147f8565b50505050905090810190601f1680156148405780820380516001836020036101000a031916815260200191505b509350505050602060405180830381600087803b15801561486057600080fd5b505af1158015614874573d6000803e3d6000fd5b505050506040513d602081101561488a57600080fd5b81019080805190602001909291905050509050823a02670de0b6b3a7640000018111156148bd5760006001029150614a70565b600160009054906101000a900473ffffffffffffffffffffffffffffffffffffffff1673ffffffffffffffffffffffffffffffffffffffff1663c51be90f8260008888886040518663ffffffff167c0100000000000000000000000000000000000000000000000000000000028152600401808581526020018060200180602001848152602001838103835286818151815260200191508051906020019080838360005b8381101561497c578082015181840152602081019050614961565b50505050905090810190601f1680156149a95780820380516001836020036101000a031916815260200191505b50838103825285818151815260200191508051906020019080838360005b838110156149e25780820151818401526020810190506149c7565b50505050905090810190601f168015614a0f5780820380516001836020036101000a031916815260200191505b5096505050505050506020604051808303818588803b158015614a3157600080fd5b505af1158015614a45573d6000803e3d6000fd5b50505050506040513d6020811015614a5c57600080fd5b810190808051906020019092919050505091505b509392505050565b6060806060614c9d6040805190810160405280600b81526020017f6d6f642828312f2831305e00000000000000000000000000000000000000000081525060078054600181600116156101000203166002900480601f016020809104026020016040519081016040528092919081815260200182805460018160011615610100020316600290048015614b4c5780601f10614b2157610100808354040283529160200191614b4c565b820191906000526020600020905b815481529060010190602001808311614b2f57829003601f168201915b50505050506040805190810160405280600181526020017f2d00000000000000000000000000000000000000000000000000000000000000815250605660008973ffffffffffffffffffffffffffffffffffffffff1673ffffffffffffffffffffffffffffffffffffffff1681526020019081526020016000206000018054600181600116156101000203166002900480601f016020809104026020016040519081016040528092919081815260200182805460018160011615610100020316600290048015614c5d5780601f10614c3257610100808354040283529160200191614c5d565b820191906000526020600020905b815481529060010190602001808311614c4057829003601f168201915b50505050506040805190810160405280601081526020017f29292a31305e31303030302c31305e2800000000000000000000000000000000815250615544565b9150614e8a8260098054600181600116156101000203166002900480601f016020809104026020016040519081016040528092919081815260200182805460018160011615610100020316600290048015614d395780601f10614d0e57610100808354040283529160200191614d39565b820191906000526020600020905b815481529060010190602001808311614d1c57829003601f168201915b50505050506040805190810160405280600181526020017f2b00000000000000000000000000000000000000000000000000000000000000815250605660008973ffffffffffffffffffffffffffffffffffffffff1673ffffffffffffffffffffffffffffffffffffffff1681526020019081526020016000206001018054600181600116156101000203166002900480601f016020809104026020016040519081016040528092919081815260200182805460018160011615610100020316600290048015614e4a5780601f10614e1f57610100808354040283529160200191614e4a565b820191906000526020600020905b815481529060010190602001808311614e2d57829003601f168201915b50505050506040805190810160405280600281526020017f2929000000000000000000000000000000000000000000000000000000000000815250615544565b9050614fdd816040805190810160405280600181526020017f2d0000000000000000000000000000000000000000000000000000000000000081525084605660008973ffffffffffffffffffffffffffffffffffffffff1673ffffffffffffffffffffffffffffffffffffffff1681526020019081526020016000206001018054600181600116156101000203166002900480601f016020809104026020016040519081016040528092919081815260200182805460018160011615610100020316600290048015614f9d5780601f10614f7257610100808354040283529160200191614f9d565b820191906000526020600020905b815481529060010190602001808311614f8057829003601f168201915b50505050506040805190810160405280600281526020017f2929000000000000000000000000000000000000000000000000000000000000815250615544565b905061512f6040805190810160405280600181526020017f2800000000000000000000000000000000000000000000000000000000000000815250826040805190810160405280600581526020017f292f31305e000000000000000000000000000000000000000000000000000000815250605660008973ffffffffffffffffffffffffffffffffffffffff1673ffffffffffffffffffffffffffffffffffffffff1681526020019081526020016000206001018054600181600116156101000203166002900480601f0160208091040260200160405190810160405280929190818152602001828054600181600116156101000203166002900480156151255780601f106150fa57610100808354040283529160200191615125565b820191906000526020600020905b81548152906001019060200180831161510857829003601f168201915b5050505050615959565b92505050919050565b600073ffffffffffffffffffffffffffffffffffffffff168173ffffffffffffffffffffffffffffffffffffffff161415151561517457600080fd5b8073ffffffffffffffffffffffffffffffffffffffff16600560009054906101000a900473ffffffffffffffffffffffffffffffffffffffff1673ffffffffffffffffffffffffffffffffffffffff167f8be0079c531659141344cd1fd0a4f28419497f9722a3daafe3b4186f6b6457e060405160405180910390a380600560006101000a81548173ffffffffffffffffffffffffffffffffffffffff021916908373ffffffffffffffffffffffffffffffffffffffff16021790555050565b6000813b9050919050565b6000615249615982565b9050919050565b6000606060008060008693506000925060009150600090505b83518110156155255760307f01000000000000000000000000000000000000000000000000000000000000000284828151811015156152a457fe5b9060200101517f010000000000000000000000000000000000000000000000000000000000000090047f0100000000000000000000000000000000000000000000000000000000000000027effffffffffffffffffffffffffffffffffffffffffffffffffffffffffffff1916101580156153bc575060397f010000000000000000000000000000000000000000000000000000000000000002848281518110151561534c57fe5b9060200101517f010000000000000000000000000000000000000000000000000000000000000090047f0100000000000000000000000000000000000000000000000000000000000000027effffffffffffffffffffffffffffffffffffffffffffffffffffffffffffff191611155b1561546d5781156153df5760008614156153d557615525565b8580600190039650505b600a83029250603084828151811015156153f557fe5b9060200101517f010000000000000000000000000000000000000000000000000000000000000090047f0100000000000000000000000000000000000000000000000000000000000000027f010000000000000000000000000000000000000000000000000000000000000090040383019250615518565b602e7f010000000000000000000000000000000000000000000000000000000000000002848281518110151561549f57fe5b9060200101517f010000000000000000000000000000000000000000000000000000000000000090047f0100000000000000000000000000000000000000000000000000000000000000027effffffffffffffffffffffffffffffffffffffffffffffffffffffffffffff1916141561551757600191505b5b8080600101915050615269565b60008611156155375785600a0a830292505b8294505050505092915050565b6060806060806060806060806000808e98508d97508c96508b95508a94508451865188518a518c51010101016040519080825280601f01601f1916602001820160405280156155a25781602001602082028038833980820191505090505b50935083925060009150600090505b88518110156156645788818151811015156155c857fe5b9060200101517f010000000000000000000000000000000000000000000000000000000000000090047f010000000000000000000000000000000000000000000000000000000000000002838380600101945081518110151561562757fe5b9060200101907effffffffffffffffffffffffffffffffffffffffffffffffffffffffffffff1916908160001a90535080806001019150506155b1565b600090505b875181101561571c57878181518110151561568057fe5b9060200101517f010000000000000000000000000000000000000000000000000000000000000090047f01000000000000000000000000000000000000000000000000000000000000000283838060010194508151811015156156df57fe5b9060200101907effffffffffffffffffffffffffffffffffffffffffffffffffffffffffffff1916908160001a9053508080600101915050615669565b600090505b86518110156157d457868181518110151561573857fe5b9060200101517f010000000000000000000000000000000000000000000000000000000000000090047f010000000000000000000000000000000000000000000000000000000000000002838380600101945081518110151561579757fe5b9060200101907effffffffffffffffffffffffffffffffffffffffffffffffffffffffffffff1916908160001a9053508080600101915050615721565b600090505b855181101561588c5785818151811015156157f057fe5b9060200101517f010000000000000000000000000000000000000000000000000000000000000090047f010000000000000000000000000000000000000000000000000000000000000002838380600101945081518110151561584f57fe5b9060200101907effffffffffffffffffffffffffffffffffffffffffffffffffffffffffffff1916908160001a90535080806001019150506157d9565b600090505b84518110156159445784818151811015156158a857fe5b9060200101517f010000000000000000000000000000000000000000000000000000000000000090047f010000000000000000000000000000000000000000000000000000000000000002838380600101945081518110151561590757fe5b9060200101907effffffffffffffffffffffffffffffffffffffffffffffffffffffffffffff1916908160001a9053508080600101915050615891565b82995050505050505050505095945050505050565b6060615978858585856020604051908101604052806000815250615544565b9050949350505050565b6000806159a2731d3b2638a7cc9f2cb3d298a3da7a90b67e5506ed615234565b1115615a4357731d3b2638a7cc9f2cb3d298a3da7a90b67e5506ed6000806101000a81548173ffffffffffffffffffffffffffffffffffffffff021916908373ffffffffffffffffffffffffffffffffffffffff160217905550615a3a6040805190810160405280600b81526020017f6574685f6d61696e6e6574000000000000000000000000000000000000000000815250615e11565b60019050615e0e565b6000615a6273c03a2615d5efaf5f49f60b7bb6583eaec212fdf1615234565b1115615b035773c03a2615d5efaf5f49f60b7bb6583eaec212fdf16000806101000a81548173ffffffffffffffffffffffffffffffffffffffff021916908373ffffffffffffffffffffffffffffffffffffffff160217905550615afa6040805190810160405280600c81526020017f6574685f726f707374656e330000000000000000000000000000000000000000815250615e11565b60019050615e0e565b6000615b2273b7a07bcf2ba2f2703b24c0691b5278999c59ac7e615234565b1115615bc35773b7a07bcf2ba2f2703b24c0691b5278999c59ac7e6000806101000a81548173ffffffffffffffffffffffffffffffffffffffff021916908373ffffffffffffffffffffffffffffffffffffffff160217905550615bba6040805190810160405280600981526020017f6574685f6b6f76616e0000000000000000000000000000000000000000000000815250615e11565b60019050615e0e565b6000615be273146500cfd35b22e4a392fe0adc06de1a1368ed48615234565b1115615c835773146500cfd35b22e4a392fe0adc06de1a1368ed486000806101000a81548173ffffffffffffffffffffffffffffffffffffffff021916908373ffffffffffffffffffffffffffffffffffffffff160217905550615c7a6040805190810160405280600b81526020017f6574685f72696e6b656279000000000000000000000000000000000000000000815250615e11565b60019050615e0e565b6000615ca2736f485c8bf6fc43ea212e93bbf8ce046c7f1cb475615234565b1115615d0557736f485c8bf6fc43ea212e93bbf8ce046c7f1cb4756000806101000a81548173ffffffffffffffffffffffffffffffffffffffff021916908373ffffffffffffffffffffffffffffffffffffffff16021790555060019050615e0e565b6000615d247320e12a1f859b3feae5fb2a0a32c18f5a65555bbf615234565b1115615d87577320e12a1f859b3feae5fb2a0a32c18f5a65555bbf6000806101000a81548173ffffffffffffffffffffffffffffffffffffffff021916908373ffffffffffffffffffffffffffffffffffffffff16021790555060019050615e0e565b6000615da67351efaf4c8b3c9afbd5ab9f4bbc82784ab6ef8faa615234565b1115615e09577351efaf4c8b3c9afbd5ab9f4bbc82784ab6ef8faa6000806101000a81548173ffffffffffffffffffffffffffffffffffffffff021916908373ffffffffffffffffffffffffffffffffffffffff16021790555060019050615e0e565b600090505b90565b8060029080519060200190615e27929190615e2b565b5050565b828054600181600116156101000203166002900490600052602060002090601f016020900481019282601f10615e6c57805160ff1916838001178555615e9a565b82800160010185558215615e9a579182015b82811115615e99578251825591602001919060010190615e7e565b5b509050615ea79190615f2b565b5090565b828054600181600116156101000203166002900490600052602060002090601f016020900481019282601f10615eec57805160ff1916838001178555615f1a565b82800160010185558215615f1a579182015b82811115615f19578251825591602001919060010190615efe565b5b509050615f279190615f2b565b5090565b615f4d91905b80821115615f49576000816000905550600101615f31565b5090565b905600a165627a7a723058202c4d4f774cbe5d07f1f630a0c0cc6dae81d388b9207a3f87f5cc67686d4969bb0029",
  "source": "pragma solidity ^0.4.20;\nimport \"./usingOraclize.sol\";\n//import \"github.com/oraclize/ethereum-api/oraclizeAPI.sol\";\nimport \"./SafeMath.sol\";\nimport \"./Lucky7Admin.sol\";\n\n\ncontract Lucky7TicketFactory is usingOraclize, Lucky7Admin{\n    \n    using SafeMath for uint256;\n    \n    modifier oraclizeGasPriceCustomized{\n        oraclize_setCustomGasPrice(oraclizeCustomGasPrice);\n        _;\n    }\n    \n    uint drawNumber = 0;\n    uint indexForLucky7Array = 0;\n    \n    //Circuit breakers\n    bool internal settingLucky7Numbers = true;\n    \n    function toggleLucky7Setting() public onlyOwner{\n        settingLucky7Numbers = !settingLucky7Numbers;\n    }\n    \n    struct UserParametersValue{\n        string mu;\n        string i;\n        uint ticketValue;\n        bool muReady;\n        bool iReady;\n        bool userPaidTicket;\n    }\n    \n    struct Ticket{\n        string mu;\n        string i;\n        uint ticketValue;\n        address owner;\n        uint drawID;\n    }\n    \n    struct Lucky7Number{\n        string mu;\n        string i;\n        uint ticketValue;\n        uint drawID;\n    }\n    \n    struct Lucky7Ticket{\n        uint difference;\n        address owner;\n        uint ticketID;\n        uint ticketValue;\n        uint lucky7Number;\n    }\n    \n    Ticket[] public tickets;    \n    Lucky7Number[7] public lucky7Numbers;\n    Lucky7Ticket[7] public lucky7Tickets;\n    //checkfordoublewinner\n    \n    mapping (uint => address) public ticketToOwner;\n    mapping (address => uint) ownerTicketCount;\n    mapping (address => UserParametersValue) public userValues;\n    mapping (bytes32 => address) muParameterID;\n    mapping (bytes32 => address) iParameterID;\n    mapping (bytes32 => address) ticketID;\n    mapping (uint => uint) public lucky7TicketDifference;\n    mapping (uint => address) public lucky7TicketOwner;\n    mapping (uint => uint) public lucky7TicketID;\n    mapping (uint => address) public ExactLucky7TicketOwner;\n    \n    function _askForParameters(address _ticketOwner) oraclizeGasPriceCustomized{\n        bytes32 muID = oraclize_query(\"WolframAlpha\",\"4 random number\",oraclizeGasLimit);\n        muParameterID[muID] = _ticketOwner;\n        bytes32 iID = oraclize_query(\"WolframAlpha\",\"4 random number\",oraclizeGasLimit);\n        iParameterID[iID] = _ticketOwner;\n    }\n\n    function _askForTicket(address _ticketOwner) oraclizeGasPriceCustomized{\n        bytes32 userTicketID = oraclize_query(\"WolframAlpha\", _setTicketQuery(_ticketOwner), oraclizeGasLimit);\n        ticketID[userTicketID] = _ticketOwner;\n    }\n    \n    function _insertTicket(address _ticketOwner) internal {\n        uint id = tickets.push(Ticket(userValues[_ticketOwner].mu,userValues[_ticketOwner].i,userValues[_ticketOwner].ticketValue,_ticketOwner,drawNumber)) - 1;\n        ticketToOwner[id] = _ticketOwner;\n        ownerTicketCount[_ticketOwner]++;\n        _checkForLucky7Ticket(id);\n    }\n    \n    function _insertLucky7Number(address _ticketOwner) internal {\n        lucky7Numbers[indexForLucky7Array] = Lucky7Number(userValues[_ticketOwner].mu,userValues[_ticketOwner].i,userValues[_ticketOwner].ticketValue,drawNumber);\n        indexForLucky7Array++;\n    }\n    \n    function _checkForLucky7Ticket(uint _ticketID) public/*internal*/ returns (uint256){\n        uint256 i;\n        uint difference;\n        uint lowerLucky7NumberDifference;\n        uint upperLucky7NumberDifference;\n        \n        if(tickets[_ticketID].ticketValue>lucky7Numbers[numberOfLucky7Numbers-1].ticketValue){\n            i=numberOfLucky7Numbers-1;\n            difference = tickets[_ticketID].ticketValue.sub(lucky7Numbers[i].ticketValue);\n            if(lucky7TicketOwner[i] == address(0x0) || difference<lucky7TicketDifference[i]){\n                _updateLucky7Ticket(i,ticketToOwner[_ticketID],difference,_ticketID);\n            }\n        }\n        else if (tickets[_ticketID].ticketValue<lucky7Numbers[0].ticketValue){\n            i=0;\n            difference = lucky7Numbers[i].ticketValue.sub(tickets[_ticketID].ticketValue);\n            if(lucky7TicketOwner[i] == address(0x0) || difference<lucky7TicketDifference[i]){\n                _updateLucky7Ticket(i,ticketToOwner[_ticketID],difference,_ticketID);\n            }\n        }\n        else{\n            while(tickets[_ticketID].ticketValue>lucky7Numbers[i].ticketValue){\n                i++;\n            }\n            \n            lowerLucky7NumberDifference = tickets[_ticketID].ticketValue.sub(lucky7Numbers[i-1].ticketValue);\n            upperLucky7NumberDifference = lucky7Numbers[i].ticketValue.sub(tickets[_ticketID].ticketValue);\n            \n            if(upperLucky7NumberDifference>lowerLucky7NumberDifference){\n                i=i-1;\n                difference = lowerLucky7NumberDifference;\n            }\n            else{\n                difference = upperLucky7NumberDifference;\n            }\n            \n            if(lucky7TicketOwner[i] == address(0x0) || difference<lucky7TicketDifference[i]){\n                _updateLucky7Ticket(i,ticketToOwner[_ticketID],difference,_ticketID);\n            }\n        }\n        return i;\n    }\n    \n    function _updateLucky7Ticket(uint _i, address _ticketOwner, uint _difference, uint _ticketID) \n        internal{\n        lucky7TicketOwner[_i] = _ticketOwner;\n        lucky7TicketDifference[_i] = _difference;\n        lucky7TicketID[_i] = _ticketID;\n    }\n    \n    function _setTicketQuery(address _parametersOwner) internal returns (string){\n        string memory queryWolframA;\n        string memory queryWolframB;\n        //This line => mod((1/(10^n-mu))*10^217,10^(    \n        queryWolframA = strConcat(\"mod((1/(10^\",n,\"-\",userValues[_parametersOwner].mu,\"))*10^10000,10^(\");\n        //This line => mod((1/(10^n-mu))*10^10000,10^(j+i))\n        queryWolframB = strConcat(queryWolframA,j,\"+\",userValues[_parametersOwner].i,\"))\");\n        //This line => mod((1/(10^n-mu))*10^10000,10^(j+i))-mod((1/(10^n-mu))*10^10000,10^(i))\n        queryWolframB = strConcat(queryWolframB,\"-\",queryWolframA,userValues[_parametersOwner].i,\"))\");\n        //This line => (mod((1/(10^n-mu))*10^10000,10^(j+i))-mod((1/(10^n-mu))*10^10000,10^(i)))/10^i\n        return strConcat(\"(\",queryWolframB,\")/10^\",userValues[_parametersOwner].i);\n    }\n    \n    function __callback(bytes32 myid, string result) public{\n        require(msg.sender == oraclize_cbAddress());\n        if(muParameterID[myid]!=0 && userValues[muParameterID[myid]].muReady==false){\n            userValues[muParameterID[myid]].mu=result;\n            userValues[muParameterID[myid]].muReady=true;\n            if(userValues[muParameterID[myid]].iReady == true && (userValues[muParameterID[myid]].userPaidTicket==true || settingLucky7Numbers==true )){\n                _askForTicket(muParameterID[myid]);\n            }\n        }\n        else if (iParameterID[myid]!=0 && userValues[iParameterID[myid]].iReady==false){\n            userValues[iParameterID[myid]].i=result;\n            userValues[iParameterID[myid]].iReady=true;\n            if(userValues[iParameterID[myid]].muReady == true && (userValues[iParameterID[myid]].userPaidTicket==true || settingLucky7Numbers==true )){\n                _askForTicket(iParameterID[myid]);\n            }\n        }\n        else if (ticketID[myid]!=0 &&  (userValues[ticketID[myid]].userPaidTicket==true || settingLucky7Numbers==true )){\n            userValues[ticketID[myid]].ticketValue=parseInt(result);\n            userValues[ticketID[myid]].userPaidTicket=false;\n            if(settingLucky7Numbers==true){\n                _insertLucky7Number(ticketID[myid]);\n            }\n            else{\n                _insertTicket(ticketID[myid]);\n            }\n        }\n    }\n}   \n                                           \n",
  "sourcePath": "/Users/matiasbarrios/Desktop/Proyecto Consensys/luckyseven/contracts/Lucky7TicketFactory.sol",
  "compiler": {
    "name": "solc",
    "version": "0.4.24+commit.e67f0147.Emscripten.clang"
  },
  "schemaVersion": "2.0.1",
  "updatedAt": "2018-08-13T16:08:33.108Z"
}