{
  "contractName": "Lucky7TicketFactory",
  "abi": [
    {
      "constant": true,
      "inputs": [],
      "name": "settingLucky7Numbers",
      "outputs": [
        {
          "name": "",
          "type": "bool"
        }
      ],
      "payable": false,
      "stateMutability": "view",
      "type": "function"
    },
    {
      "constant": true,
      "inputs": [],
      "name": "lucky7AdminAddress",
      "outputs": [
        {
          "name": "",
          "type": "address"
        }
      ],
      "payable": false,
      "stateMutability": "view",
      "type": "function"
    },
    {
      "constant": true,
      "inputs": [
        {
          "name": "",
          "type": "address"
        }
      ],
      "name": "userValues",
      "outputs": [
        {
          "name": "mu",
          "type": "string"
        },
        {
          "name": "i",
          "type": "string"
        },
        {
          "name": "ticketValue",
          "type": "uint256"
        },
        {
          "name": "muReady",
          "type": "bool"
        },
        {
          "name": "iReady",
          "type": "bool"
        },
        {
          "name": "userPaidTicket",
          "type": "bool"
        }
      ],
      "payable": false,
      "stateMutability": "view",
      "type": "function"
    },
    {
      "constant": false,
      "inputs": [],
      "name": "renounceOwnership",
      "outputs": [],
      "payable": false,
      "stateMutability": "nonpayable",
      "type": "function"
    },
    {
      "constant": true,
      "inputs": [],
      "name": "owner",
      "outputs": [
        {
          "name": "",
          "type": "address"
        }
      ],
      "payable": false,
      "stateMutability": "view",
      "type": "function"
    },
    {
      "constant": false,
      "inputs": [
        {
          "name": "_newOwner",
          "type": "address"
        }
      ],
      "name": "transferOwnership",
      "outputs": [],
      "payable": false,
      "stateMutability": "nonpayable",
      "type": "function"
    },
    {
      "constant": true,
      "inputs": [],
      "name": "lucky7StorageAddress",
      "outputs": [
        {
          "name": "",
          "type": "address"
        }
      ],
      "payable": false,
      "stateMutability": "view",
      "type": "function"
    },
    {
      "inputs": [
        {
          "name": "_lucky7AdminAddress",
          "type": "address"
        },
        {
          "name": "_lucky7StorageAddress",
          "type": "address"
        }
      ],
      "payable": true,
      "stateMutability": "payable",
      "type": "constructor"
    },
    {
      "payable": true,
      "stateMutability": "payable",
      "type": "fallback"
    },
    {
      "anonymous": false,
      "inputs": [
        {
          "indexed": false,
          "name": "description",
          "type": "string"
        }
      ],
      "name": "NewOraclizeQuery",
      "type": "event"
    },
    {
      "anonymous": false,
      "inputs": [
        {
          "indexed": false,
          "name": "muParameter",
          "type": "string"
        }
      ],
      "name": "NewMuReceived",
      "type": "event"
    },
    {
      "anonymous": false,
      "inputs": [
        {
          "indexed": false,
          "name": "iParameter",
          "type": "string"
        }
      ],
      "name": "NewIReceived",
      "type": "event"
    },
    {
      "anonymous": false,
      "inputs": [
        {
          "indexed": false,
          "name": "newTicket",
          "type": "string"
        }
      ],
      "name": "NewTicketReceived",
      "type": "event"
    },
    {
      "anonymous": false,
      "inputs": [
        {
          "indexed": false,
          "name": "description",
          "type": "string"
        }
      ],
      "name": "NewWolframQuery",
      "type": "event"
    },
    {
      "anonymous": false,
      "inputs": [
        {
          "indexed": false,
          "name": "value",
          "type": "uint256"
        }
      ],
      "name": "NewValue",
      "type": "event"
    },
    {
      "anonymous": false,
      "inputs": [
        {
          "indexed": true,
          "name": "previousOwner",
          "type": "address"
        }
      ],
      "name": "OwnershipRenounced",
      "type": "event"
    },
    {
      "anonymous": false,
      "inputs": [
        {
          "indexed": true,
          "name": "previousOwner",
          "type": "address"
        },
        {
          "indexed": true,
          "name": "newOwner",
          "type": "address"
        }
      ],
      "name": "OwnershipTransferred",
      "type": "event"
    },
    {
      "constant": false,
      "inputs": [
        {
          "name": "_newOAR",
          "type": "address"
        }
      ],
      "name": "changeOAR",
      "outputs": [],
      "payable": false,
      "stateMutability": "nonpayable",
      "type": "function"
    },
    {
      "constant": false,
      "inputs": [],
      "name": "toggleLucky7Setting",
      "outputs": [],
      "payable": false,
      "stateMutability": "nonpayable",
      "type": "function"
    },
    {
      "constant": false,
      "inputs": [
        {
          "name": "_ticketOwner",
          "type": "address"
        }
      ],
      "name": "_askForMuParameter",
      "outputs": [],
      "payable": false,
      "stateMutability": "nonpayable",
      "type": "function"
    },
    {
      "constant": false,
      "inputs": [
        {
          "name": "_ticketOwner",
          "type": "address"
        }
      ],
      "name": "_askForIParameter",
      "outputs": [],
      "payable": false,
      "stateMutability": "nonpayable",
      "type": "function"
    },
    {
      "constant": false,
      "inputs": [
        {
          "name": "_ticketOwner",
          "type": "address"
        }
      ],
      "name": "_askForTicket",
      "outputs": [],
      "payable": false,
      "stateMutability": "nonpayable",
      "type": "function"
    },
    {
      "constant": false,
      "inputs": [
        {
          "name": "_ticketOwner",
          "type": "address"
        }
      ],
      "name": "_generateTicket",
      "outputs": [],
      "payable": false,
      "stateMutability": "nonpayable",
      "type": "function"
    },
    {
      "constant": false,
      "inputs": [],
      "name": "_generateLucky7Number",
      "outputs": [],
      "payable": false,
      "stateMutability": "nonpayable",
      "type": "function"
    },
    {
      "constant": false,
      "inputs": [
        {
          "name": "myid",
          "type": "bytes32"
        },
        {
          "name": "result",
          "type": "string"
        }
      ],
      "name": "__callback",
      "outputs": [],
      "payable": false,
      "stateMutability": "nonpayable",
      "type": "function"
    },
    {
      "constant": false,
      "inputs": [
        {
          "name": "myid",
          "type": "bytes32"
        },
        {
          "name": "result",
          "type": "string"
        },
        {
          "name": "proof",
          "type": "bytes"
        }
      ],
      "name": "__callback",
      "outputs": [],
      "payable": false,
      "stateMutability": "nonpayable",
      "type": "function"
    }
  ],
  "bytecode": "0x6080604081815260065460088054600160a060020a0319908116600160a060020a03938416179091556007546009805460a060020a60ff02199316919093161716740100000000000000000000000000000000000000001790558061337f83398101604052805160209091015160058054600160a060020a03199081163317909155600080548216736f485c8bf6fc43ea212e93bbf8ce046c7f1cb47517905560068054600160a060020a03948516908316179055600780549390921692169190911790556132ac806100d36000396000f3006080604052600436106100cc5763ffffffff60e060020a60003504166323d370ba81146100ce57806327dc297e146100ef5780632caf9eee1461014d5780632db3e7da1461017657806338bbfa50146101a757806339df3f4f146102435780634acfd9b8146102585780635807095114610377578063715018a61461039857806377d8a830146103ad5780638da5cb5b146103ce57806390c31c4c146103e3578063ddc110fa146103f8578063f2fde38b14610419578063fb0dcaff1461043a578063fd9be1b21461044f575b005b3480156100da57600080fd5b506100cc600160a060020a0360043516610470565b3480156100fb57600080fd5b5060408051602060046024803582810135601f81018590048502860185019096528585526100cc9583359536956044949193909101919081908401838280828437509497506107039650505050505050565b34801561015957600080fd5b50610162611000565b604080519115158252519081900360200190f35b34801561018257600080fd5b5061018b611010565b60408051600160a060020a039092168252519081900360200190f35b3480156101b357600080fd5b5060408051602060046024803582810135601f81018590048502860185019096528585526100cc95833595369560449491939091019190819084018382808284375050604080516020601f89358b018035918201839004830284018301909452808352979a999881019791965091820194509250829150840183828082843750949750610ffb9650505050505050565b34801561024f57600080fd5b506100cc61101f565b34801561026457600080fd5b50610279600160a060020a0360043516611068565b604080519081018590528315156060820152821515608082015281151560a082015260c08082528751908201528651819060208083019160e08401918b019080838360005b838110156102d65781810151838201526020016102be565b50505050905090810190601f1680156103035780820380516001836020036101000a031916815260200191505b5083810382528851815288516020918201918a019080838360005b8381101561033657818101518382015260200161031e565b50505050905090810190601f1680156103635780820380516001836020036101000a031916815260200191505b509850505050505050505060405180910390f35b34801561038357600080fd5b506100cc600160a060020a03600435166111c8565b3480156103a457600080fd5b506100cc6111ea565b3480156103b957600080fd5b506100cc600160a060020a036004351661124b565b3480156103da57600080fd5b5061018b611260565b3480156103ef57600080fd5b506100cc61126f565b34801561040457600080fd5b506100cc600160a060020a03600435166114f5565b34801561042557600080fd5b506100cc600160a060020a036004351661172a565b34801561044657600080fd5b5061018b61174a565b34801561045b57600080fd5b506100cc600160a060020a0360043516611759565b600654604080517fc50f7fbd000000000000000000000000000000000000000000000000000000008152600160a060020a039092166004830152516000918291829173__Lucky7Library_________________________9163c50f7fbd91602480820192602092909190829003018186803b1580156104ee57600080fd5b505af4158015610502573d6000803e3d6000fd5b505050506040513d602081101561051857600080fd5b50519050610525816119bb565b600654604080517f23913b85000000000000000000000000000000000000000000000000000000008152600160a060020a0390921660048301525173__Lucky7Library_________________________916323913b85916024808301926020929190829003018186803b15801561059b57600080fd5b505af41580156105af573d6000803e3d6000fd5b505050506040513d60208110156105c557600080fd5b50516040805182815290519194507fac3e966f295f2d5312f973dc6d42f30a6dc1c1f76ab8ee91cc8ca5dad1fa60fd919081900360200190a1604080516020808252808201527f41736b696e6720666f722061206e6577206d7520706172616d657465722e2e2e8183015290517f096835e36c2ccea88ff2b3aca87dfc938b977e52ea656873ff76a8dba50d4d349181900360600190a16106d16040805190810160405280600c81526020017f576f6c6672616d416c70686100000000000000000000000000000000000000008152506040805190810160405280600f81526020017f342072616e646f6d206e756d626572000000000000000000000000000000000081525085611ba1565b6000908152600b602052604090208054600160a060020a031916600160a060020a039590951694909417909355505050565b600061070d611fa2565b600160a060020a0316331461072157600080fd5b6000838152600b6020526040902054600160a060020a03161580159061076f57506000838152600b6020908152604080832054600160a060020a03168352600a90915290206003015460ff16155b15610913576000838152600b6020908152604080832054600160a060020a03168352600a825290912083516107a6928501906131e8565b507f6a28dd23c76ba6cc6f4f148a0e2e0e147d8b876cb74ec1e5e2b8e9a8119eb702826040518080602001828103825283818151815260200191508051906020019080838360005b838110156108065781810151838201526020016107ee565b50505050905090810190601f1680156108335780820380516001836020036101000a031916815260200191505b509250505060405180910390a16000838152600b602090815260408083208054600160a060020a039081168552600a9093528184206003908101805460ff191660019081179091559154909316845292200154610100900460ff1615151480156108e857506000838152600b6020908152604080832054600160a060020a03168352600a90915290206003015460ff62010000909104161515600114806108e8575060095460a060020a900460ff1615156001145b1561090e576000838152600b602052604090205461090e90600160a060020a03166114f5565b610ffb565b6000838152600c6020526040902054600160a060020a03161580159061096657506000838152600c6020908152604080832054600160a060020a03168352600a909152902060030154610100900460ff16155b15610b08576000838152600c6020908152604080832054600160a060020a03168352600a825290912083516109a3926001909201918501906131e8565b507f716a554dec57e3a217a923b974660c0c8ebee07b09b1ac7d4a3a8f328d10cc89826040518080602001828103825283818151815260200191508051906020019080838360005b83811015610a035781810151838201526020016109eb565b50505050905090810190601f168015610a305780820380516001836020036101000a031916815260200191505b509250505060405180910390a16000838152600c602090815260408083208054600160a060020a039081168552600a9093528184206003908101805461ff00191661010017905590549092168352909120015460ff1615156001148015610ae257506000838152600c6020908152604080832054600160a060020a03168352600a90915290206003015460ff6201000090910416151560011480610ae2575060095460a060020a900460ff1615156001145b1561090e576000838152600c602052604090205461090e90600160a060020a03166114f5565b6000838152600d6020526040902054600160a060020a031615801590610b7957506000838152600d6020908152604080832054600160a060020a03168352600a90915290206003015460ff6201000090910416151560011480610b79575060095460a060020a900460ff1615156001145b15610ffb5750600754600160a060020a0316610b9482612194565b6000848152600d6020908152604080832054600160a060020a03168352600a825280832060020193909355825181815285518183015285517f0efef3a277391dda0d5747fd15566e85fcd8a4fb588d9853173841e45cc5ae8a9487949293849391840192908601918190849084905b83811015610c1b578181015183820152602001610c03565b50505050905090810190601f168015610c485780820380516001836020036101000a031916815260200191505b509250505060405180910390a16000838152600d6020908152604080832054600160a060020a03168352600a9091529020600301805462ff00001916905560095460a060020a900460ff16151560011415610e3c576000838152600d6020908152604080832054600160a060020a039081168452600a9092529182902060028082015493517f9e6a1b040000000000000000000000000000000000000000000000000000000081526044810185905260606004820190815283546001808216156101000260001901909116939093046064830181905294871695639e6a1b0495938501939092829160248201916084019087908015610d885780601f10610d5d57610100808354040283529160200191610d88565b820191906000526020600020905b815481529060010190602001808311610d6b57829003601f168201915b5050838103825285546002600019610100600184161502019091160480825260209091019086908015610dfc5780601f10610dd157610100808354040283529160200191610dfc565b820191906000526020600020905b815481529060010190602001808311610ddf57829003601f168201915b505095505050505050600060405180830381600087803b158015610e1f57600080fd5b505af1158015610e33573d6000803e3d6000fd5b50505050610ffb565b6000838152600d6020818152604080842054600160a060020a03908116808652600a8452828620600280820154978b90529590945291517fd6efcd4000000000000000000000000000000000000000000000000000000000815260448101869052606481018390526080600482019081528454600181811615610100026000190190911696909604608483018190529288169663d6efcd4096860194909390928291602482019160a4019088908015610f365780601f10610f0b57610100808354040283529160200191610f36565b820191906000526020600020905b815481529060010190602001808311610f1957829003601f168201915b5050838103825286546002600019610100600184161502019091160480825260209091019087908015610faa5780601f10610f7f57610100808354040283529160200191610faa565b820191906000526020600020905b815481529060010190602001808311610f8d57829003601f168201915b50509650505050505050602060405180830381600087803b158015610fce57600080fd5b505af1158015610fe2573d6000803e3d6000fd5b505050506040513d6020811015610ff857600080fd5b50505b505050565b60095460a060020a900460ff1681565b600654600160a060020a031681565b600554600160a060020a0316331461103657600080fd5b6009805474ff000000000000000000000000000000000000000019811660a060020a9182900460ff1615909102179055565b600a6020908152600091825260409182902080548351601f600260001961010060018616150201909316929092049182018490048402810184019094528084529092918391908301828280156110ff5780601f106110d4576101008083540402835291602001916110ff565b820191906000526020600020905b8154815290600101906020018083116110e257829003601f168201915b505050505090806001018054600181600116156101000203166002900480601f01602080910402602001604051908101604052809291908181526020018280546001816001161561010002031660029004801561119d5780601f106111725761010080835404028352916020019161119d565b820191906000526020600020905b81548152906001019060200180831161118057829003601f168201915b50505050600283015460039093015491929160ff808216925061010082048116916201000090041686565b60008054600160a060020a031916600160a060020a0392909216919091179055565b600554600160a060020a0316331461120157600080fd5b600554604051600160a060020a03909116907ff8df31144d9c2f0f6b59d69b8b98abd5459d07f2742c4df920b25aae33c6482090600090a260058054600160a060020a0319169055565b61125481610470565b61125d81611759565b50565b600554600160a060020a031681565b60055460009081908190600160a060020a0316331461128d57600080fd5b60095460a060020a900460ff1615156001146112a857600080fd5b600754604080517fdbc6ac88000000000000000000000000000000000000000000000000000000008152600160a060020a0390921660048301525173__Lucky7Library_________________________9163dbc6ac88916024808301926020929190829003018186803b15801561131e57600080fd5b505af4158015611332573d6000803e3d6000fd5b505050506040513d602081101561134857600080fd5b5051600754604080517f3d579ff8000000000000000000000000000000000000000000000000000000008152600160a060020a0390921660048301525191945073__Lucky7Library_________________________91633d579ff891602480820192602092909190829003018186803b1580156113c457600080fd5b505af41580156113d8573d6000803e3d6000fd5b505050506040513d60208110156113ee57600080fd5b50519150828214156114d15750600754604080517f75edd2570000000000000000000000000000000000000000000000000000000081529051600160a060020a039092169182916375edd25791600480830192600092919082900301818387803b15801561145b57600080fd5b505af115801561146f573d6000803e3d6000fd5b5050505080600160a060020a0316638df3dc866040518163ffffffff1660e060020a028152600401600060405180830381600087803b1580156114b157600080fd5b505af11580156114c5573d6000803e3d6000fd5b5050505061090e61101f565b306000818152600a60205260409020600301805461ffff19169055610ffb9061124b565b600654604080517fc50f7fbd000000000000000000000000000000000000000000000000000000008152600160a060020a039092166004830152516000918291829173__Lucky7Library_________________________9163c50f7fbd91602480820192602092909190829003018186803b15801561157357600080fd5b505af4158015611587573d6000803e3d6000fd5b505050506040513d602081101561159d57600080fd5b505190506115aa816119bb565b600654604080517f23913b85000000000000000000000000000000000000000000000000000000008152600160a060020a0390921660048301525173__Lucky7Library_________________________916323913b85916024808301926020929190829003018186803b15801561162057600080fd5b505af4158015611634573d6000803e3d6000fd5b505050506040513d602081101561164a57600080fd5b5051604080516020808252601a908201527f41736b696e6720666f722061206e6577207469636b65742e2e2e0000000000008183015290519194507f096835e36c2ccea88ff2b3aca87dfc938b977e52ea656873ff76a8dba50d4d34919081900360600190a16116f86040805190810160405280600c81526020017f576f6c6672616d416c70686100000000000000000000000000000000000000008152506116f2866121a7565b85611ba1565b6000908152600d602052604090208054600160a060020a031916600160a060020a039590951694909417909355505050565b600554600160a060020a0316331461174157600080fd5b61125d81612a57565b600754600160a060020a031681565b600654604080517fc50f7fbd000000000000000000000000000000000000000000000000000000008152600160a060020a039092166004830152516000918291829173__Lucky7Library_________________________9163c50f7fbd91602480820192602092909190829003018186803b1580156117d757600080fd5b505af41580156117eb573d6000803e3d6000fd5b505050506040513d602081101561180157600080fd5b5051905061180e816119bb565b600654604080517f23913b85000000000000000000000000000000000000000000000000000000008152600160a060020a0390921660048301525173__Lucky7Library_________________________916323913b85916024808301926020929190829003018186803b15801561188457600080fd5b505af4158015611898573d6000803e3d6000fd5b505050506040513d60208110156118ae57600080fd5b5051604080516020808252601f908201527f41736b696e6720666f722061206e6577206920706172616d657465722e2e2e008183015290519194507f096835e36c2ccea88ff2b3aca87dfc938b977e52ea656873ff76a8dba50d4d34919081900360600190a16119896040805190810160405280600c81526020017f576f6c6672616d416c70686100000000000000000000000000000000000000008152506040805190810160405280600f81526020017f342072616e646f6d206e756d626572000000000000000000000000000000000081525085611ba1565b6000908152600c602052604090208054600160a060020a031916600160a060020a039590951694909417909355505050565b600054600160a060020a031615806119e557506000546119e390600160a060020a0316612ac8565b155b156119f6576119f46000612acc565b505b6000809054906101000a9004600160a060020a0316600160a060020a03166338cc48316040518163ffffffff1660e060020a028152600401602060405180830381600087803b158015611a4857600080fd5b505af1158015611a5c573d6000803e3d6000fd5b505050506040513d6020811015611a7257600080fd5b5051600154600160a060020a03908116911614611b27576000809054906101000a9004600160a060020a0316600160a060020a03166338cc48316040518163ffffffff1660e060020a028152600401602060405180830381600087803b158015611adb57600080fd5b505af1158015611aef573d6000803e3d6000fd5b505050506040513d6020811015611b0557600080fd5b505160018054600160a060020a031916600160a060020a039092169190911790555b600154604080517fca6ad1e4000000000000000000000000000000000000000000000000000000008152600481018490529051600160a060020a039092169163ca6ad1e49160248082019260009290919082900301818387803b158015611b8d57600080fd5b505af1158015610ff8573d6000803e3d6000fd5b600080548190600160a060020a03161580611bce5750600054611bcc90600160a060020a0316612ac8565b155b15611bdf57611bdd6000612acc565b505b6000809054906101000a9004600160a060020a0316600160a060020a03166338cc48316040518163ffffffff1660e060020a028152600401602060405180830381600087803b158015611c3157600080fd5b505af1158015611c45573d6000803e3d6000fd5b505050506040513d6020811015611c5b57600080fd5b5051600154600160a060020a03908116911614611d10576000809054906101000a9004600160a060020a0316600160a060020a03166338cc48316040518163ffffffff1660e060020a028152600401602060405180830381600087803b158015611cc457600080fd5b505af1158015611cd8573d6000803e3d6000fd5b505050506040513d6020811015611cee57600080fd5b505160018054600160a060020a031916600160a060020a039092169190911790555b600154604080517f2ef3accc0000000000000000000000000000000000000000000000000000000081526024810186905260048101918252875160448201528751600160a060020a0390931692632ef3accc9289928892829160640190602086019080838360005b83811015611d90578181015183820152602001611d78565b50505050905090810190601f168015611dbd5780820380516001836020036101000a031916815260200191505b509350505050602060405180830381600087803b158015611ddd57600080fd5b505af1158015611df1573d6000803e3d6000fd5b505050506040513d6020811015611e0757600080fd5b50519050670de0b6b3a76400003a840201811115611e285760009150611f9a565b6001546040517fc51be90f00000000000000000000000000000000000000000000000000000000815260006004820181815260648301879052608060248401908152895160848501528951600160a060020a039095169463c51be90f948794938c938c938c93604481019160a49091019060208801908083838c5b83811015611ebb578181015183820152602001611ea3565b50505050905090810190601f168015611ee85780820380516001836020036101000a031916815260200191505b50838103825285518152855160209182019187019080838360005b83811015611f1b578181015183820152602001611f03565b50505050905090810190601f168015611f485780820380516001836020036101000a031916815260200191505b5096505050505050506020604051808303818588803b158015611f6a57600080fd5b505af1158015611f7e573d6000803e3d6000fd5b50505050506040513d6020811015611f9557600080fd5b505191505b509392505050565b60008054600160a060020a03161580611fcd5750600054611fcb90600160a060020a0316612ac8565b155b15611fde57611fdc6000612acc565b505b6000809054906101000a9004600160a060020a0316600160a060020a03166338cc48316040518163ffffffff1660e060020a028152600401602060405180830381600087803b15801561203057600080fd5b505af1158015612044573d6000803e3d6000fd5b505050506040513d602081101561205a57600080fd5b5051600154600160a060020a0390811691161461210f576000809054906101000a9004600160a060020a0316600160a060020a03166338cc48316040518163ffffffff1660e060020a028152600401602060405180830381600087803b1580156120c357600080fd5b505af11580156120d7573d6000803e3d6000fd5b505050506040513d60208110156120ed57600080fd5b505160018054600160a060020a031916600160a060020a039092169190911790555b600160009054906101000a9004600160a060020a0316600160a060020a031663c281d19e6040518163ffffffff1660e060020a028152600401602060405180830381600087803b15801561216257600080fd5b505af1158015612176573d6000803e3d6000fd5b505050506040513d602081101561218c57600080fd5b505190505b90565b60006121a1826000612ad6565b92915050565b600654604080517f59c96c11000000000000000000000000000000000000000000000000000000008152600160a060020a039092166004830152516060918291829182918291829173__Lucky7Library_________________________916359c96c11916024808301926000929190829003018186803b15801561222a57600080fd5b505af415801561223e573d6000803e3d6000fd5b505050506040513d6000823e601f3d908101601f19168201604052608081101561226757600080fd5b81019080805164010000000081111561227f57600080fd5b8201602081018481111561229257600080fd5b81516401000000008111828201871017156122ac57600080fd5b505092919060200180516401000000008111156122c857600080fd5b820160208101848111156122db57600080fd5b81516401000000008111828201871017156122f557600080fd5b5050929190602001805164010000000081111561231157600080fd5b8201602081018481111561232457600080fd5b815164010000000081118282018710171561233e57600080fd5b5050929190602001805164010000000081111561235a57600080fd5b8201602081018481111561236d57600080fd5b815164010000000081118282018710171561238757600080fd5b50509291905050508095508196508297508398505050505061250b6040805190810160405280600c81526020017f286d6f642828312f2831305e0000000000000000000000000000000000000000815250856040805190810160405280600181526020017f2d00000000000000000000000000000000000000000000000000000000000000815250600a60008c600160a060020a0316600160a060020a031681526020019081526020016000206000018054600181600116156101000203166002900480601f0160208091040260200160405190810160405280929190818152602001828054600181600116156101000203166002900480156124cb5780601f106124a0576101008083540402835291602001916124cb565b820191906000526020600020905b8154815290600101906020018083116124ae57829003601f168201915b50505050506040805190810160405280600681526020017f29292a31305e0000000000000000000000000000000000000000000000000000815250612c48565b905061258481846040805190810160405280600581526020017f2c31305e28000000000000000000000000000000000000000000000000000000815250856040805190810160405280600181526020017f2b00000000000000000000000000000000000000000000000000000000000000815250612c48565b90506126bd81600a60008a600160a060020a0316600160a060020a031681526020019081526020016000206001018054600181600116156101000203166002900480601f0160208091040260200160405190810160405280929190818152602001828054600181600116156101000203166002900480156126465780601f1061261b57610100808354040283529160200191612646565b820191906000526020600020905b81548152906001019060200180831161262957829003601f168201915b50505050506040805190810160405280600e81526020017f29292d6d6f642828312f2831305e000000000000000000000000000000000000815250876040805190810160405280600181526020017f2d00000000000000000000000000000000000000000000000000000000000000815250612c48565b600160a060020a0388166000908152600a602090815260409182902080548351601f600260001961010060018616150201909316929092049182018490048402810184019094528084529394506127d9938593928301828280156127625780601f1061273757610100808354040283529160200191612762565b820191906000526020600020905b81548152906001019060200180831161274557829003601f168201915b50505050506040805190810160405280600681526020017f29292a31305e0000000000000000000000000000000000000000000000000000815250866040805190810160405280600481526020017f2c31305e00000000000000000000000000000000000000000000000000000000815250612c48565b60408051808201825260018082527f2800000000000000000000000000000000000000000000000000000000000000602080840191909152600160a060020a038c166000908152600a8252849020820180548551600294821615610100026000190190911693909304601f81018390048302840183019095528483529495506129b294869490918301828280156128b15780601f10612886576101008083540402835291602001916128b1565b820191906000526020600020905b81548152906001019060200180831161289457829003601f168201915b50505050506040805190810160405280600781526020017f2929292f31305e00000000000000000000000000000000000000000000000000815250600a60008d600160a060020a0316600160a060020a031681526020019081526020016000206001018054600181600116156101000203166002900480601f0160208091040260200160405190810160405280929190818152602001828054600181600116156101000203166002900480156129a85780601f1061297d576101008083540402835291602001916129a8565b820191906000526020600020905b81548152906001019060200180831161298b57829003601f168201915b5050505050612c48565b90507f261af219212047633bb60c8d0cc7e33d217c38edf6fa7e53acb97a3f94180de5816040518080602001828103825283818151815260200191508051906020019080838360005b83811015612a135781810151838201526020016129fb565b50505050905090810190601f168015612a405780820380516001836020036101000a031916815260200191505b509250505060405180910390a19695505050505050565b600160a060020a0381161515612a6c57600080fd5b600554604051600160a060020a038084169216907f8be0079c531659141344cd1fd0a4f28419497f9722a3daafe3b4186f6b6457e090600090a360058054600160a060020a031916600160a060020a0392909216919091179055565b3b90565b60006121a1612ea9565b6000828180805b8351811015612c2b5783517f300000000000000000000000000000000000000000000000000000000000000090859083908110612b1657fe5b90602001015160f860020a900460f860020a02600160f860020a03191610158015612b8c575083517f390000000000000000000000000000000000000000000000000000000000000090859083908110612b6c57fe5b90602001015160f860020a900460f860020a02600160f860020a03191611155b15612be5578115612bab57851515612ba357612c2b565b600019909501945b600a8302925060308482815181101515612bc157fe5b90602001015160f860020a900460f860020a0260f860020a90040383019250612c23565b8381815181101515612bf357fe5b90602001015160f860020a900460f860020a02600160f860020a031916602e60f860020a021415612c2357600191505b600101612add565b6000861115612c3d5785600a0a830292505b509095945050505050565b6060806060806060806060806000808e98508d97508c96508b95508a94508451865188518a518c51010101016040519080825280601f01601f191660200182016040528015612ca1578160200160208202803883390190505b50935083925060009150600090505b8851811015612d0e578881815181101515612cc757fe5b90602001015160f860020a900460f860020a028383806001019450815181101515612cee57fe5b906020010190600160f860020a031916908160001a905350600101612cb0565b5060005b8751811015612d70578781815181101515612d2957fe5b90602001015160f860020a900460f860020a028383806001019450815181101515612d5057fe5b906020010190600160f860020a031916908160001a905350600101612d12565b5060005b8651811015612dd2578681815181101515612d8b57fe5b90602001015160f860020a900460f860020a028383806001019450815181101515612db257fe5b906020010190600160f860020a031916908160001a905350600101612d74565b5060005b8551811015612e34578581815181101515612ded57fe5b90602001015160f860020a900460f860020a028383806001019450815181101515612e1457fe5b906020010190600160f860020a031916908160001a905350600101612dd6565b5060005b8451811015612e96578481815181101515612e4f57fe5b90602001015160f860020a900460f860020a028383806001019450815181101515612e7657fe5b906020010190600160f860020a031916908160001a905350600101612e38565b50909d9c50505050505050505050505050565b600080612ec9731d3b2638a7cc9f2cb3d298a3da7a90b67e5506ed612ac8565b1115612f3a5760008054600160a060020a031916731d3b2638a7cc9f2cb3d298a3da7a90b67e5506ed17905560408051808201909152600b81527f6574685f6d61696e6e65740000000000000000000000000000000000000000006020820152612f32906131d1565b506001612191565b6000612f5973c03a2615d5efaf5f49f60b7bb6583eaec212fdf1612ac8565b1115612fc25760008054600160a060020a03191673c03a2615d5efaf5f49f60b7bb6583eaec212fdf117905560408051808201909152600c81527f6574685f726f707374656e3300000000000000000000000000000000000000006020820152612f32906131d1565b6000612fe173b7a07bcf2ba2f2703b24c0691b5278999c59ac7e612ac8565b111561304a5760008054600160a060020a03191673b7a07bcf2ba2f2703b24c0691b5278999c59ac7e17905560408051808201909152600981527f6574685f6b6f76616e00000000000000000000000000000000000000000000006020820152612f32906131d1565b600061306973146500cfd35b22e4a392fe0adc06de1a1368ed48612ac8565b11156130d25760008054600160a060020a03191673146500cfd35b22e4a392fe0adc06de1a1368ed4817905560408051808201909152600b81527f6574685f72696e6b6562790000000000000000000000000000000000000000006020820152612f32906131d1565b60006130f1736f485c8bf6fc43ea212e93bbf8ce046c7f1cb475612ac8565b1115613125575060008054600160a060020a031916736f485c8bf6fc43ea212e93bbf8ce046c7f1cb4751790556001612191565b60006131447320e12a1f859b3feae5fb2a0a32c18f5a65555bbf612ac8565b1115613178575060008054600160a060020a0319167320e12a1f859b3feae5fb2a0a32c18f5a65555bbf1790556001612191565b60006131977351efaf4c8b3c9afbd5ab9f4bbc82784ab6ef8faa612ac8565b11156131cb575060008054600160a060020a0319167351efaf4c8b3c9afbd5ab9f4bbc82784ab6ef8faa1790556001612191565b50600090565b80516131e49060029060208401906131e8565b5050565b828054600181600116156101000203166002900490600052602060002090601f016020900481019282601f1061322957805160ff1916838001178555613256565b82800160010185558215613256579182015b8281111561325657825182559160200191906001019061323b565b50613262929150613266565b5090565b61219191905b80821115613262576000815560010161326c5600a165627a7a72305820ceaeaf1e59c0042ff2179388e63f370ed682db5cc610b73289f47ed0b943772f0029",
  "source": "/**\n  * @author Matias Barrios\n  * @version 1.0\n  */\n\n/** @title Lucky7TicketFactor. \n  * This contract contains all the functions to generate tickets and Lucky7Numbers.\n  * Inherits from Lucky7Admin and usingOraclize to do the oraclize querys. \n*/\n\npragma solidity ^0.4.20;\nimport \"./usingOraclize.sol\";\nimport \"./Lucky7Admin.sol\";\nimport \"./Lucky7Storage.sol\";\nimport \"./Lucky7Library.sol\";\nimport \"openzeppelin-solidity/contracts/math/SafeMath.sol\";\nimport \"openzeppelin-solidity/contracts/ownership/Ownable.sol\";\n\n\ncontract Lucky7TicketFactory is usingOraclize,Ownable{\n    /** @dev SafeMath library is used for the _checkForLucky7Ticket of this contract. \n        @dev Lucky7Library is a library used to get values from other contracts.\n      */\n    using Lucky7Library for *;\n    using SafeMath for uint256;\n    \n    /** @dev Address of the Lucky7Storage contract\n      */\n    address public lucky7AdminAddress;\n    address public lucky7StorageAddress;\n    /** @dev The constructor needs to set the OAR, Oraclize Address Resolver\n      * OAR is the Oraclize Address Resolver to use oraclize on localhost\n      */\n    function Lucky7TicketFactory(address _lucky7AdminAddress,address _lucky7StorageAddress) payable{\n        OAR = OraclizeAddrResolverI(0x6f485C8BF6fc43eA212E93BBF8ce046C7f1cb475);\n        lucky7AdminAddress = _lucky7AdminAddress;\n        lucky7StorageAddress = _lucky7StorageAddress;\n    }\n\n    /** @dev Invoke both Lucky7Admin and Lucky7Storage contracts. \n      */\n    Lucky7Admin lucky7AdminContract = Lucky7Admin(lucky7AdminAddress);\n    Lucky7Storage lucky7StorageContract = Lucky7Storage(lucky7StorageAddress);\n    /** @dev This function is to change the OAR without compiling again and deploying again\n      * Used only for testing purposes.\n      */\n    function changeOAR(address _newOAR){\n        OAR = OraclizeAddrResolverI(_newOAR);\n    }\n    \n    /**@dev The events are used mainly for testing purposes\n      */\n    event NewOraclizeQuery(string description);\n    event NewMuReceived(string muParameter);\n    event NewIReceived(string iParameter);\n    event NewTicketReceived(string newTicket);\n    event NewWolframQuery(string description);\n    event NewValue(uint value);\n    \n    /** @dev This modifier is used to set the gas price on the functions which do oraclize querys.\n      *  It uses the oraclizeCustomGasPrice of the Lucky7Admin contract.\n      */\n    modifier oraclizeGasPriceCustomized{\n        uint oraclizeCustomGasPrice = Lucky7Library.oraclizeCustomGasPrice(lucky7AdminAddress);\n        oraclize_setCustomGasPrice(oraclizeCustomGasPrice);\n        _;\n    }\n\n    /** @dev This modifier is meant to block the Lucky7Number generation when the game is on course\n      * Is used to block the action of the _generateLucky7Number function of this contract if the circuit breaker\n      * is not \n      */\n    modifier gameNotInCourse(){\n        require(settingLucky7Numbers==true);\n        _;\n    }\n\n    /** @param settingLucky7Numbers is a circuit breaker to stop users of buying tickets while the game is getting setted\n      *i.e. when a new game is started, previous winners are erased, the Lucky7Numbers are getting setted and prizes are delivered.\n      */\n    bool public settingLucky7Numbers = true;\n    \n    /** @dev Function to toggle the settingLucky7Numbers to stop users to buy tickets. \n      */\n    function toggleLucky7Setting() public onlyOwner{\n        settingLucky7Numbers = !settingLucky7Numbers;\n    }\n\n    /** @dev UserParametersValue is a struct where the values of the user ticket is stored temporarily.\n      * While the user is just generating (not buying) tickets, the values of this struct for each user are going to change.\n      * Once the user buys a ticket, all the parameters of this struct are used to generate a ticket and store it in the tickets array.\n      * where they will be stored permanently.\n      * @param mu is a parameter of the pseudo-random number generator (PRNG).\n      * @param i is a parameter of the pseudo-random number generator (PRNG).\n      * @param ticketValue is the value of the last buyed ticket of the user.\n      * @param muReady is a boolean value used for the oraclize's callback function to verify if the mu parameter for the current ticket was already setted.\n      * @param iReady is a boolean value used for the oraclize's callback function to verify if the i parameter for the current ticket was already setted.\n      * @param userPaidTicket is a boolean value to verify if the user which is calling for the oraclize query actually paid for the ticket or is just generating\n      * parameters to choose a ticket.\n    */\n    struct UserParametersValue{\n        string mu;\n        string i;\n        uint ticketValue;\n        bool muReady;\n        bool iReady;\n        bool userPaidTicket;\n    }\n    \n    /** @dev Because addresses are not correlatives, is better to use a mapping. \n      * @param userValues maps from the user address to it UserParametersValue struct.\n      */\n    mapping (address => UserParametersValue) public userValues;\n\n\n    /** @dev The next three mapping are used for the functions which do oraclize querys to being identified in the oraclize's callback function\n      * as mu parameter, i parameter or a ticket.\n      * @param muParameterID maps from a bytes32 generated everytime the oraclize_query function is called and points to the address of the user which did the call.\n      * @param iParameterID maps from a bytes32 generated everytime the oraclize_query function is called and points to the address of the user which did the call.\n      * @param newTicketID maps from a bytes32 generated everytime the oraclize_query function is called and points to the address of the user which did the call.\n      */\n    mapping (bytes32 => address) muParameterID;\n    mapping (bytes32 => address) iParameterID;\n    mapping (bytes32 => address) newTicketID;\n\n    \n    /** @dev _askForMuParameter is a function to ask for a new mu parameter through an oraclize query.\n      * @param _ticketOwner is the address of the user which is calling this function through a generation of new parameters or by buying a new random ticket.\n      * First, it emit an event to register the query. Then it do the query and save the bytes32 value generated to the muID.\n      * Finally it associate this muID with the _ticketOwner through the muParameterID mapping, so the oraclize's callback function know it is a mu petition and it belongs to the _ticketOwner user.\n      */\n    function _askForMuParameter(address _ticketOwner) public oraclizeGasPriceCustomized{\n        uint oraclizeGasLimit = Lucky7Library.oraclizeGasLimit(lucky7AdminAddress);\n        emit NewValue(oraclizeGasLimit);\n        emit NewOraclizeQuery(\"Asking for a new mu parameter...\");\n        bytes32 muID = oraclize_query(\"WolframAlpha\",\"4 random number\",oraclizeGasLimit);\n        muParameterID[muID] = _ticketOwner;\n    }\n\n    /** @dev _askForIParameter is a function to ask for a new I parameter through an oraclize query.\n      * @param _ticketOwner is the address of the user which is calling this function through a generation of new parameters or by buying a new random ticket.\n      * First, it emit an event to register the query. Then it do the query and save the bytes32 value generated to the iID.\n      * Finally it associate this iID with the _ticketOwner through the iParameterID mapping, so the oraclize's callback function know it is a i petition and it belongs to the _ticketOwner user.\n      */\n    function _askForIParameter(address _ticketOwner) public oraclizeGasPriceCustomized{\n        uint oraclizeGasLimit = Lucky7Library.oraclizeGasLimit(lucky7AdminAddress);\n        emit NewOraclizeQuery(\"Asking for a new i parameter...\");\n        bytes32 iID = oraclize_query(\"WolframAlpha\",\"4 random number\",oraclizeGasLimit);\n        iParameterID[iID] = _ticketOwner;\n    }\n    \n    /** @dev _askForTicket is a function to ask for a new ticket through an oraclize query.\n      * @param _ticketOwner is the address of the user which is calling this function through by buying a new random ticket or buying the ticket generated by it parameters.\n      * First, it emit an event to register the query. Then it do the query and save the bytes32 value generated to the userTicketID.\n      * Finally it associate this userTicketID with the _ticketOwner through the newTicketID mapping, so the oraclize's callback function know it \n      * is a ticket petition and it belongs to the _ticketOwner user. Inside the oraclize_query function it calls the _setTicketQuery function, so it generate the query \n      * depending on the UserParametersValue struct of the _ticketOwner user.\n      */\n    function _askForTicket(address _ticketOwner) public oraclizeGasPriceCustomized{\n        uint oraclizeGasLimit = Lucky7Library.oraclizeGasLimit(lucky7AdminAddress);\n        emit NewOraclizeQuery(\"Asking for a new ticket...\");\n        bytes32 userTicketID = oraclize_query(\"WolframAlpha\", _setTicketQuery(_ticketOwner), oraclizeGasLimit);\n        newTicketID[userTicketID] = _ticketOwner;\n    }\n\n    /** @dev _setTicketQuery is a function which sets the query to ask for a ticket to WolframAlpha through oraclize.\n      * @param _parametersOwner is the address of the user which is going to receive the ticket, e.g. a user asking for a ticket or the admin of the contract when calling for a\n      * Lucky7Number. The final shape of the query is (mod((1/(10^n-mu))*10^p,10^(j+i))-mod((1/(10^n-mu))*10^p,10^(i)))/10^i, and this function uses the strConcat function of\n      * the usingOraclize contract to concat the parts with the parameters of the user.\n      * Every line explains how the query is getting it shape. The meaning of this query is going to be explained on the paper of the project.\n      */\n    function _setTicketQuery(address _parametersOwner) internal returns (string){\n        string memory b;\n        string memory n;\n        string memory p;\n        string memory j;\n        (b,n,p,j) = Lucky7Library.getParameters(lucky7AdminAddress);\n        string memory queryWolfram;\n        //This line => (mod((1/(10^n-mu))*10^    \n        queryWolfram = strConcat(\"(mod((1/(10^\",n,\"-\",userValues[_parametersOwner].mu,\"))*10^\");\n        //This line => (mod((1/(10^n-mu))*10^p,10^(j+\n        queryWolfram = strConcat(queryWolfram,p,\",10^(\",j,\"+\");\n        //This line => (mod((1/(10^n-mu))*10^p,10^(j+i))-mod((1/(10^n-\n        queryWolfram = strConcat(queryWolfram,userValues[_parametersOwner].i,\"))-mod((1/(10^\",n,\"-\");\n        //This line => (mod((1/(10^n-mu))*10^p,10^(j+i))-mod((1/(10^n-mu))*10^p,10^\n        queryWolfram = strConcat(queryWolfram,userValues[_parametersOwner].mu,\"))*10^\",p,\",10^\");\n        //This line => (mod((1/(10^n-mu))*10^p,10^(j+i))-mod((1/(10^n-mu))*10^p,10^(i)))/10^i\n        queryWolfram = strConcat(queryWolfram,\"(\",userValues[_parametersOwner].i,\")))/10^\",userValues[_parametersOwner].i);\n        emit NewWolframQuery(queryWolfram);\n        return queryWolfram;\n    }\n\n    /** @dev _generateTicket is used for another contract. Invokes _askForMuParameter and _askForIparameter\n      */\n    function _generateTicket(address _ticketOwner) public {\n        _askForMuParameter(_ticketOwner);\n        _askForIParameter(_ticketOwner);\n    }\n    \n    /** @dev _generateLucky7Number is the function that is actually used to generate the Lucky7Numbers. It have the business logic for generating the Lucky7Numbers, i.e. if \n      * the indexForLucky7Array is different than the numberOfLucky7Numbers, then sets the muReady and iReady booleans of the UserParametersValue struct of the \n      * Lucky7TicketFactory contract to true and calls for the _askForMuParameter and _askForIParameter function of the Lucky7TicketFactory contract. This way it can ask for both mu and i parameters\n      * to oraclize and when the oraclize respond with both, ask for a ticket which is going to be a Lucky7Number.\n      * If the indexForLucky7Array is equal to the numberOfLucky7Numbers, then proceed to order the Lucky7Numbers through the _orderLucky7Numbers function of this contract.\n      * Then it sets the indexForLucky7Array to 0 so the next time a new game is setted, this function starts storing the Lucky7Numbers from the position 0, to finally shut off\n      * the settingLucky7Numbers circuit breaker to allow users to start buying tickets.\n      */\n    function _generateLucky7Number() public onlyOwner gameNotInCourse{\n        uint indexForLucky7Array = Lucky7Library.indexForLucky7Array(lucky7StorageAddress);\n        uint numberOfLucky7Numbers = Lucky7Library.numberOfLucky7Numbers(lucky7StorageAddress);\n        if(indexForLucky7Array == numberOfLucky7Numbers){\n            Lucky7Storage lucky7StorageContract = Lucky7Storage(lucky7StorageAddress);\n            lucky7StorageContract._orderLucky7Numbers();\n            lucky7StorageContract.setIndexForLucky7ArrayToZero();\n            toggleLucky7Setting();\n        }\n        else{\n            userValues[this].muReady = false;\n            userValues[this].iReady = false;\n            _generateTicket(this);\n        }\n    }\n\n    /** @dev __callback is a function used for oraclize to send back the query emitted to oraclize.\n      * @param myid is the id of the query, same as the muID, iID or userTicketID of the _askForMuParameter, _askForIParameter and _askForTicket functions above.\n      * @param result is the result of the query.\n      * Once the query is resolved, oraclize sends back the answer, and the function check that the one calling the function is indeed a oraclize contract. \n      */\n    function __callback(bytes32 myid, string result) public{\n        require(msg.sender == oraclize_cbAddress());\n        /** @dev First, the function checks if there's an muParameterID value associated to myid,i.e. the response is a mu parameter of the  \n          * \"muParameterID[myid]\" user (remember that muParameterID[] maps from an bytes32, the id, to an user address).\n          * Then it will check if the muReady boolean of the user's UserParametersValue struct is setted to false (explained in later contracts).\n          * If so, stores the result as the mu parameter of the user's UserParametersValue struct, emits an event and set the muReady of the struct to true.\n          * Then checks if the iReady boolen is setted to true. If so, it means that the user already recieved both parameters and is ready to generate a new ticket.\n          * To do so, the function checks if the user already paid for the ticket through checking if the userPaidTicket boolean of the user's UserParametersValue struct\n          * is true, or if the settingLucky7Numbers circuit breaker is on, which means that currently the game is in the setting Lucky7Numbers phase.\n          * In any of those cases, the function calls the _askForTicketFunction for the \"muParameterID[myid]\" user.\n          */\n        if(muParameterID[myid]!=0 && userValues[muParameterID[myid]].muReady==false){\n            userValues[muParameterID[myid]].mu=result;\n            emit NewMuReceived(result);\n            userValues[muParameterID[myid]].muReady=true;\n            if(userValues[muParameterID[myid]].iReady == true && (userValues[muParameterID[myid]].userPaidTicket==true || settingLucky7Numbers==true )){\n                _askForTicket(muParameterID[myid]);\n            }\n        }\n\n        /** @dev If above don't fit, then checks if the result is the i parameter of the user and proceeds the same way, checking if already have the mu parameter setted,\n          * and if the user paid for the ticket or the game is in the setting Lucky7Number phase.\n          */\n        else if (iParameterID[myid]!=0 && userValues[iParameterID[myid]].iReady==false){\n            userValues[iParameterID[myid]].i=result;\n            emit NewIReceived(result);\n            userValues[iParameterID[myid]].iReady=true;\n            if(userValues[iParameterID[myid]].muReady == true && (userValues[iParameterID[myid]].userPaidTicket==true || settingLucky7Numbers==true )){\n                _askForTicket(iParameterID[myid]);\n            }\n        }\n\n        /** @dev If not, then proceed the same way as above, but once the ticket is inserted and the event is emitted, the userPaidTicket of the user's UserValuesStruct is \n          * setted to 0, marking that the ticket thet user paid is already stored and it have to pay again if it wants to buy another ticket.\n          * Finally, it checks if the game is currently in the setting Lucky7Numbers phase. If so, calls the storageLuckyNumber function, else it calls the \n          * storageTicket function. Both functions are on the Lucky7Storage contract.\n          */\n        else if (newTicketID[myid]!=0 &&  (userValues[newTicketID[myid]].userPaidTicket==true || settingLucky7Numbers==true )){\n            Lucky7Storage lucky7StorageContract = Lucky7Storage(lucky7StorageAddress);\n            userValues[newTicketID[myid]].ticketValue=parseInt(result);\n            emit NewTicketReceived(result);\n            userValues[newTicketID[myid]].userPaidTicket=false;\n            if(settingLucky7Numbers==true){\n                lucky7StorageContract.storageLucky7Number(\n                    userValues[newTicketID[myid]].mu, \n                    userValues[newTicketID[myid]].i, \n                    userValues[newTicketID[myid]].ticketValue\n                    );\n                // lucky7StorageAddress.call(\n                //     bytes4(\n                //         keccak256(\n                //             \"storageLucky7Number(string,string,uint)\")), \n                //             userValues[newTicketID[myid]].mu,\n                //             userValues[newTicketID[myid]].i,\n                //             userValues[newTicketID[myid]].ticketValue\n                //         );\n            }\n            else{\n                lucky7StorageContract.storageTicket(\n                    userValues[newTicketID[myid]].mu, \n                    userValues[newTicketID[myid]].i, \n                    userValues[newTicketID[myid]].ticketValue,\n                    newTicketID[myid]\n                    );\n            }\n        }\n    }\n    // function testCall(address addressContract) public {\n    //     // lucky7StorageAddress.call(\n    //     //             bytes4(\n    //     //                 sha3(\n    //     //                     \"storageLucky7Number(string,string,uint)\")), \n    //     //                     \"1\",\n    //     //                     \"2\",\n    //     //                     1234567890\n    //     //                 );\n    //     Lucky7Storage lucky7StorageContract = Lucky7Storage(addressContract);\n    //     lucky7StorageContract.storageLucky7Number(\n    //                 \"1\", \n    //                 \"2\", \n    //                 123\n    //                 );\n    // }\n    function() public payable{}\n} ",
  "sourcePath": "/Users/matiasbarrios/Desktop/Proyecto Consensys/luckyseven/contracts/Lucky7TicketFactory.sol",
  "compiler": {
    "name": "solc",
    "version": "0.4.24+commit.e67f0147.Emscripten.clang"
  },
  "schemaVersion": "2.0.1",
  "updatedAt": "2018-09-26T00:34:37.387Z"
}