{
  "contractName": "Lucky7Store",
  "abi": [
    {
      "constant": true,
      "inputs": [],
      "name": "getlucky7Numbers",
      "outputs": [
        {
          "name": "",
          "type": "uint256[7]"
        }
      ],
      "payable": false,
      "stateMutability": "view",
      "type": "function"
    },
    {
      "constant": false,
      "inputs": [
        {
          "name": "_newValue",
          "type": "string"
        }
      ],
      "name": "modifyParameterN",
      "outputs": [],
      "payable": false,
      "stateMutability": "nonpayable",
      "type": "function"
    },
    {
      "constant": false,
      "inputs": [
        {
          "name": "_newValue",
          "type": "uint256"
        }
      ],
      "name": "setInitialLucky7TicketPosition",
      "outputs": [],
      "payable": false,
      "stateMutability": "nonpayable",
      "type": "function"
    },
    {
      "constant": true,
      "inputs": [
        {
          "name": "",
          "type": "uint256"
        }
      ],
      "name": "lucky7TicketID",
      "outputs": [
        {
          "name": "",
          "type": "uint256"
        }
      ],
      "payable": false,
      "stateMutability": "view",
      "type": "function"
    },
    {
      "constant": false,
      "inputs": [
        {
          "name": "_newValue",
          "type": "uint256"
        }
      ],
      "name": "setIndexForLucky7Array",
      "outputs": [],
      "payable": false,
      "stateMutability": "nonpayable",
      "type": "function"
    },
    {
      "constant": true,
      "inputs": [
        {
          "name": "",
          "type": "uint256"
        }
      ],
      "name": "lucky7TicketOwner",
      "outputs": [
        {
          "name": "",
          "type": "address"
        }
      ],
      "payable": false,
      "stateMutability": "view",
      "type": "function"
    },
    {
      "constant": false,
      "inputs": [],
      "name": "_orderLucky7Tickets",
      "outputs": [],
      "payable": false,
      "stateMutability": "nonpayable",
      "type": "function"
    },
    {
      "constant": false,
      "inputs": [
        {
          "name": "_ticketOwner",
          "type": "address"
        }
      ],
      "name": "_askForMuParameter",
      "outputs": [],
      "payable": false,
      "stateMutability": "nonpayable",
      "type": "function"
    },
    {
      "constant": false,
      "inputs": [
        {
          "name": "myid",
          "type": "bytes32"
        },
        {
          "name": "result",
          "type": "string"
        }
      ],
      "name": "__callback",
      "outputs": [],
      "payable": false,
      "stateMutability": "nonpayable",
      "type": "function"
    },
    {
      "constant": true,
      "inputs": [],
      "name": "settingLucky7Numbers",
      "outputs": [
        {
          "name": "",
          "type": "bool"
        }
      ],
      "payable": false,
      "stateMutability": "view",
      "type": "function"
    },
    {
      "constant": false,
      "inputs": [
        {
          "name": "_ticketID",
          "type": "uint256"
        }
      ],
      "name": "_checkForLucky7Ticket",
      "outputs": [],
      "payable": false,
      "stateMutability": "nonpayable",
      "type": "function"
    },
    {
      "constant": true,
      "inputs": [],
      "name": "n",
      "outputs": [
        {
          "name": "",
          "type": "string"
        }
      ],
      "payable": false,
      "stateMutability": "view",
      "type": "function"
    },
    {
      "constant": false,
      "inputs": [
        {
          "name": "myid",
          "type": "bytes32"
        },
        {
          "name": "result",
          "type": "string"
        },
        {
          "name": "proof",
          "type": "bytes"
        }
      ],
      "name": "__callback",
      "outputs": [],
      "payable": false,
      "stateMutability": "nonpayable",
      "type": "function"
    },
    {
      "constant": false,
      "inputs": [],
      "name": "toggleLucky7Setting",
      "outputs": [],
      "payable": false,
      "stateMutability": "nonpayable",
      "type": "function"
    },
    {
      "constant": false,
      "inputs": [
        {
          "name": "_newValue",
          "type": "string"
        }
      ],
      "name": "modifyParameterJ",
      "outputs": [],
      "payable": false,
      "stateMutability": "nonpayable",
      "type": "function"
    },
    {
      "constant": false,
      "inputs": [],
      "name": "withdraw",
      "outputs": [],
      "payable": false,
      "stateMutability": "nonpayable",
      "type": "function"
    },
    {
      "constant": false,
      "inputs": [],
      "name": "setNewGame",
      "outputs": [],
      "payable": false,
      "stateMutability": "nonpayable",
      "type": "function"
    },
    {
      "constant": false,
      "inputs": [
        {
          "name": "_newAddress",
          "type": "address"
        }
      ],
      "name": "modifyEnterpriseWallet",
      "outputs": [],
      "payable": false,
      "stateMutability": "nonpayable",
      "type": "function"
    },
    {
      "constant": true,
      "inputs": [
        {
          "name": "",
          "type": "address"
        }
      ],
      "name": "userValues",
      "outputs": [
        {
          "name": "mu",
          "type": "string"
        },
        {
          "name": "i",
          "type": "string"
        },
        {
          "name": "ticketValue",
          "type": "uint256"
        },
        {
          "name": "muReady",
          "type": "bool"
        },
        {
          "name": "iReady",
          "type": "bool"
        },
        {
          "name": "userPaidTicket",
          "type": "bool"
        }
      ],
      "payable": false,
      "stateMutability": "view",
      "type": "function"
    },
    {
      "constant": true,
      "inputs": [],
      "name": "b",
      "outputs": [
        {
          "name": "",
          "type": "string"
        }
      ],
      "payable": false,
      "stateMutability": "view",
      "type": "function"
    },
    {
      "constant": true,
      "inputs": [],
      "name": "oraclizeGasLimit",
      "outputs": [
        {
          "name": "",
          "type": "uint256"
        }
      ],
      "payable": false,
      "stateMutability": "view",
      "type": "function"
    },
    {
      "constant": true,
      "inputs": [],
      "name": "numberOfLucky7Numbers",
      "outputs": [
        {
          "name": "",
          "type": "uint256"
        }
      ],
      "payable": false,
      "stateMutability": "view",
      "type": "function"
    },
    {
      "constant": true,
      "inputs": [],
      "name": "getlucky7Tickets",
      "outputs": [
        {
          "name": "",
          "type": "uint256[7]"
        }
      ],
      "payable": false,
      "stateMutability": "view",
      "type": "function"
    },
    {
      "constant": false,
      "inputs": [
        {
          "name": "_id",
          "type": "uint256"
        },
        {
          "name": "_mu",
          "type": "string"
        },
        {
          "name": "_i",
          "type": "string"
        },
        {
          "name": "_ticketValue",
          "type": "uint256"
        },
        {
          "name": "_drawNumber",
          "type": "uint256"
        }
      ],
      "name": "insertCustomizedLucky7Number",
      "outputs": [],
      "payable": false,
      "stateMutability": "nonpayable",
      "type": "function"
    },
    {
      "constant": false,
      "inputs": [],
      "name": "renounceOwnership",
      "outputs": [],
      "payable": false,
      "stateMutability": "nonpayable",
      "type": "function"
    },
    {
      "constant": true,
      "inputs": [],
      "name": "enterpriseWallet",
      "outputs": [
        {
          "name": "",
          "type": "address"
        }
      ],
      "payable": false,
      "stateMutability": "view",
      "type": "function"
    },
    {
      "constant": false,
      "inputs": [],
      "name": "_orderLucky7Numbers",
      "outputs": [],
      "payable": false,
      "stateMutability": "nonpayable",
      "type": "function"
    },
    {
      "constant": false,
      "inputs": [
        {
          "name": "_ticketOwner",
          "type": "address"
        }
      ],
      "name": "_generateTicket",
      "outputs": [],
      "payable": false,
      "stateMutability": "nonpayable",
      "type": "function"
    },
    {
      "constant": true,
      "inputs": [],
      "name": "lastSecondPrizeWinner",
      "outputs": [
        {
          "name": "",
          "type": "address"
        }
      ],
      "payable": false,
      "stateMutability": "view",
      "type": "function"
    },
    {
      "constant": false,
      "inputs": [
        {
          "name": "_newValue",
          "type": "uint256"
        }
      ],
      "name": "modifyOraclizeGasLimit",
      "outputs": [],
      "payable": false,
      "stateMutability": "nonpayable",
      "type": "function"
    },
    {
      "constant": false,
      "inputs": [],
      "name": "destroy",
      "outputs": [],
      "payable": false,
      "stateMutability": "nonpayable",
      "type": "function"
    },
    {
      "constant": false,
      "inputs": [
        {
          "name": "_newValue",
          "type": "string"
        }
      ],
      "name": "modifyParameterB",
      "outputs": [],
      "payable": false,
      "stateMutability": "nonpayable",
      "type": "function"
    },
    {
      "constant": true,
      "inputs": [
        {
          "name": "",
          "type": "uint256"
        }
      ],
      "name": "ExactLucky7TicketValue",
      "outputs": [
        {
          "name": "",
          "type": "uint256"
        }
      ],
      "payable": false,
      "stateMutability": "view",
      "type": "function"
    },
    {
      "constant": false,
      "inputs": [
        {
          "name": "_newValue",
          "type": "uint256"
        }
      ],
      "name": "modifyGenerateTicketPrice",
      "outputs": [],
      "payable": false,
      "stateMutability": "nonpayable",
      "type": "function"
    },
    {
      "constant": true,
      "inputs": [
        {
          "name": "",
          "type": "uint256"
        }
      ],
      "name": "ExactLucky7TicketID",
      "outputs": [
        {
          "name": "",
          "type": "uint256"
        }
      ],
      "payable": false,
      "stateMutability": "view",
      "type": "function"
    },
    {
      "constant": true,
      "inputs": [],
      "name": "owner",
      "outputs": [
        {
          "name": "",
          "type": "address"
        }
      ],
      "payable": false,
      "stateMutability": "view",
      "type": "function"
    },
    {
      "constant": false,
      "inputs": [],
      "name": "_generateLucky7Number",
      "outputs": [],
      "payable": false,
      "stateMutability": "nonpayable",
      "type": "function"
    },
    {
      "constant": true,
      "inputs": [
        {
          "name": "",
          "type": "uint256"
        }
      ],
      "name": "lucky7NumbersArray",
      "outputs": [
        {
          "name": "mu",
          "type": "string"
        },
        {
          "name": "i",
          "type": "string"
        },
        {
          "name": "ticketValue",
          "type": "uint256"
        },
        {
          "name": "drawID",
          "type": "uint256"
        }
      ],
      "payable": false,
      "stateMutability": "view",
      "type": "function"
    },
    {
      "constant": true,
      "inputs": [],
      "name": "lastFirstPrizeWinner",
      "outputs": [
        {
          "name": "",
          "type": "address"
        }
      ],
      "payable": false,
      "stateMutability": "view",
      "type": "function"
    },
    {
      "constant": true,
      "inputs": [],
      "name": "oraclizeCustomGasPrice",
      "outputs": [
        {
          "name": "",
          "type": "uint256"
        }
      ],
      "payable": false,
      "stateMutability": "view",
      "type": "function"
    },
    {
      "constant": true,
      "inputs": [],
      "name": "p",
      "outputs": [
        {
          "name": "",
          "type": "string"
        }
      ],
      "payable": false,
      "stateMutability": "view",
      "type": "function"
    },
    {
      "constant": false,
      "inputs": [
        {
          "name": "_newValue",
          "type": "string"
        }
      ],
      "name": "modifyParameterP",
      "outputs": [],
      "payable": false,
      "stateMutability": "nonpayable",
      "type": "function"
    },
    {
      "constant": true,
      "inputs": [
        {
          "name": "",
          "type": "uint256"
        }
      ],
      "name": "ticketsArray",
      "outputs": [
        {
          "name": "mu",
          "type": "string"
        },
        {
          "name": "i",
          "type": "string"
        },
        {
          "name": "ticketValue",
          "type": "uint256"
        },
        {
          "name": "owner",
          "type": "address"
        },
        {
          "name": "drawID",
          "type": "uint256"
        }
      ],
      "payable": false,
      "stateMutability": "view",
      "type": "function"
    },
    {
      "constant": true,
      "inputs": [],
      "name": "j",
      "outputs": [
        {
          "name": "",
          "type": "string"
        }
      ],
      "payable": false,
      "stateMutability": "view",
      "type": "function"
    },
    {
      "constant": true,
      "inputs": [],
      "name": "balance",
      "outputs": [
        {
          "name": "",
          "type": "uint256"
        }
      ],
      "payable": false,
      "stateMutability": "view",
      "type": "function"
    },
    {
      "constant": false,
      "inputs": [
        {
          "name": "_mu",
          "type": "string"
        },
        {
          "name": "_i",
          "type": "string"
        },
        {
          "name": "_ticketValue",
          "type": "uint256"
        },
        {
          "name": "_ticketOwner",
          "type": "address"
        },
        {
          "name": "_drawNumber",
          "type": "uint256"
        }
      ],
      "name": "insertCustomizedTicket",
      "outputs": [
        {
          "name": "",
          "type": "uint256"
        }
      ],
      "payable": false,
      "stateMutability": "nonpayable",
      "type": "function"
    },
    {
      "constant": true,
      "inputs": [],
      "name": "initialLucky7TicketPosition",
      "outputs": [
        {
          "name": "",
          "type": "uint256"
        }
      ],
      "payable": false,
      "stateMutability": "view",
      "type": "function"
    },
    {
      "constant": false,
      "inputs": [
        {
          "name": "_newValue",
          "type": "uint256"
        }
      ],
      "name": "modifySellTicketPrice",
      "outputs": [],
      "payable": false,
      "stateMutability": "nonpayable",
      "type": "function"
    },
    {
      "constant": false,
      "inputs": [],
      "name": "_cleanMappings",
      "outputs": [],
      "payable": false,
      "stateMutability": "nonpayable",
      "type": "function"
    },
    {
      "constant": true,
      "inputs": [],
      "name": "indexForLucky7Array",
      "outputs": [
        {
          "name": "",
          "type": "uint256"
        }
      ],
      "payable": false,
      "stateMutability": "view",
      "type": "function"
    },
    {
      "constant": true,
      "inputs": [
        {
          "name": "",
          "type": "uint256"
        }
      ],
      "name": "lucky7TicketsArray",
      "outputs": [
        {
          "name": "difference",
          "type": "uint256"
        },
        {
          "name": "owner",
          "type": "address"
        },
        {
          "name": "ticketID",
          "type": "uint256"
        },
        {
          "name": "ticketValue",
          "type": "uint256"
        },
        {
          "name": "lucky7Number",
          "type": "uint256"
        },
        {
          "name": "lucky7NumberID",
          "type": "uint256"
        },
        {
          "name": "drawID",
          "type": "uint256"
        }
      ],
      "payable": false,
      "stateMutability": "view",
      "type": "function"
    },
    {
      "constant": false,
      "inputs": [
        {
          "name": "_newValue",
          "type": "uint256"
        }
      ],
      "name": "modifyNumberOfLucky7Numbers",
      "outputs": [],
      "payable": false,
      "stateMutability": "nonpayable",
      "type": "function"
    },
    {
      "constant": false,
      "inputs": [
        {
          "name": "_newValue",
          "type": "uint256"
        }
      ],
      "name": "modifyOraclizeCustomGasPrice",
      "outputs": [],
      "payable": false,
      "stateMutability": "nonpayable",
      "type": "function"
    },
    {
      "constant": true,
      "inputs": [],
      "name": "generateTicketPrice",
      "outputs": [
        {
          "name": "",
          "type": "uint256"
        }
      ],
      "payable": false,
      "stateMutability": "view",
      "type": "function"
    },
    {
      "constant": true,
      "inputs": [],
      "name": "drawNumber",
      "outputs": [
        {
          "name": "",
          "type": "uint256"
        }
      ],
      "payable": false,
      "stateMutability": "view",
      "type": "function"
    },
    {
      "constant": true,
      "inputs": [],
      "name": "indexForExactLucky7Ticket",
      "outputs": [
        {
          "name": "",
          "type": "uint256"
        }
      ],
      "payable": false,
      "stateMutability": "view",
      "type": "function"
    },
    {
      "constant": false,
      "inputs": [
        {
          "name": "_ticketOwner",
          "type": "address"
        }
      ],
      "name": "_askForTicket",
      "outputs": [],
      "payable": false,
      "stateMutability": "nonpayable",
      "type": "function"
    },
    {
      "constant": true,
      "inputs": [],
      "name": "sellTicketPrice",
      "outputs": [
        {
          "name": "",
          "type": "uint256"
        }
      ],
      "payable": false,
      "stateMutability": "view",
      "type": "function"
    },
    {
      "constant": true,
      "inputs": [
        {
          "name": "",
          "type": "uint256"
        }
      ],
      "name": "lucky7TicketDifference",
      "outputs": [
        {
          "name": "",
          "type": "uint256"
        }
      ],
      "payable": false,
      "stateMutability": "view",
      "type": "function"
    },
    {
      "constant": true,
      "inputs": [
        {
          "name": "",
          "type": "uint256"
        }
      ],
      "name": "ExactLucky7TicketOwner",
      "outputs": [
        {
          "name": "",
          "type": "address"
        }
      ],
      "payable": false,
      "stateMutability": "view",
      "type": "function"
    },
    {
      "constant": false,
      "inputs": [
        {
          "name": "_newOwner",
          "type": "address"
        }
      ],
      "name": "transferOwnership",
      "outputs": [],
      "payable": false,
      "stateMutability": "nonpayable",
      "type": "function"
    },
    {
      "constant": true,
      "inputs": [
        {
          "name": "",
          "type": "address"
        }
      ],
      "name": "pendingWithdrawals",
      "outputs": [
        {
          "name": "",
          "type": "uint256"
        }
      ],
      "payable": false,
      "stateMutability": "view",
      "type": "function"
    },
    {
      "constant": false,
      "inputs": [],
      "name": "_deliverPrizes",
      "outputs": [],
      "payable": false,
      "stateMutability": "nonpayable",
      "type": "function"
    },
    {
      "constant": false,
      "inputs": [
        {
          "name": "_recipient",
          "type": "address"
        }
      ],
      "name": "destroyAndSend",
      "outputs": [],
      "payable": false,
      "stateMutability": "nonpayable",
      "type": "function"
    },
    {
      "constant": true,
      "inputs": [],
      "name": "currentTicketID",
      "outputs": [
        {
          "name": "",
          "type": "uint256"
        }
      ],
      "payable": false,
      "stateMutability": "view",
      "type": "function"
    },
    {
      "constant": true,
      "inputs": [],
      "name": "lastThirdPrizeWinner",
      "outputs": [
        {
          "name": "",
          "type": "address"
        }
      ],
      "payable": false,
      "stateMutability": "view",
      "type": "function"
    },
    {
      "constant": false,
      "inputs": [
        {
          "name": "_ticketOwner",
          "type": "address"
        }
      ],
      "name": "_askForIParameter",
      "outputs": [],
      "payable": false,
      "stateMutability": "nonpayable",
      "type": "function"
    },
    {
      "inputs": [],
      "payable": true,
      "stateMutability": "payable",
      "type": "constructor"
    },
    {
      "payable": true,
      "stateMutability": "payable",
      "type": "fallback"
    },
    {
      "anonymous": false,
      "inputs": [
        {
          "indexed": false,
          "name": "prizeAmoun",
          "type": "uint256"
        },
        {
          "indexed": false,
          "name": "prizeOwner",
          "type": "address"
        }
      ],
      "name": "NewPrizeStored",
      "type": "event"
    },
    {
      "anonymous": false,
      "inputs": [
        {
          "indexed": false,
          "name": "description",
          "type": "string"
        }
      ],
      "name": "NewOraclizeQuery",
      "type": "event"
    },
    {
      "anonymous": false,
      "inputs": [
        {
          "indexed": false,
          "name": "muParameter",
          "type": "string"
        }
      ],
      "name": "NewMuReceived",
      "type": "event"
    },
    {
      "anonymous": false,
      "inputs": [
        {
          "indexed": false,
          "name": "iParameter",
          "type": "string"
        }
      ],
      "name": "NewIReceived",
      "type": "event"
    },
    {
      "anonymous": false,
      "inputs": [
        {
          "indexed": false,
          "name": "newTicket",
          "type": "string"
        }
      ],
      "name": "NewTicketReceived",
      "type": "event"
    },
    {
      "anonymous": false,
      "inputs": [
        {
          "indexed": false,
          "name": "description",
          "type": "string"
        }
      ],
      "name": "NewWolframQuery",
      "type": "event"
    },
    {
      "anonymous": false,
      "inputs": [
        {
          "indexed": false,
          "name": "ticketID",
          "type": "uint256"
        }
      ],
      "name": "NewLucky7Ticket",
      "type": "event"
    },
    {
      "anonymous": false,
      "inputs": [
        {
          "indexed": false,
          "name": "value",
          "type": "uint256"
        }
      ],
      "name": "NewLucky7Number",
      "type": "event"
    },
    {
      "anonymous": false,
      "inputs": [
        {
          "indexed": false,
          "name": "describe",
          "type": "string"
        },
        {
          "indexed": false,
          "name": "_oldValue",
          "type": "uint256"
        },
        {
          "indexed": false,
          "name": "_newValue",
          "type": "uint256"
        }
      ],
      "name": "numberModified",
      "type": "event"
    },
    {
      "anonymous": false,
      "inputs": [
        {
          "indexed": false,
          "name": "describe",
          "type": "string"
        },
        {
          "indexed": false,
          "name": "_oldValue",
          "type": "string"
        },
        {
          "indexed": false,
          "name": "_newValue",
          "type": "string"
        }
      ],
      "name": "parameterModified",
      "type": "event"
    },
    {
      "anonymous": false,
      "inputs": [
        {
          "indexed": false,
          "name": "describe",
          "type": "string"
        },
        {
          "indexed": false,
          "name": "_oldValue",
          "type": "address"
        },
        {
          "indexed": false,
          "name": "_newValue",
          "type": "address"
        }
      ],
      "name": "walletModified",
      "type": "event"
    },
    {
      "anonymous": false,
      "inputs": [
        {
          "indexed": true,
          "name": "previousOwner",
          "type": "address"
        }
      ],
      "name": "OwnershipRenounced",
      "type": "event"
    },
    {
      "anonymous": false,
      "inputs": [
        {
          "indexed": true,
          "name": "previousOwner",
          "type": "address"
        },
        {
          "indexed": true,
          "name": "newOwner",
          "type": "address"
        }
      ],
      "name": "OwnershipTransferred",
      "type": "event"
    },
    {
      "constant": false,
      "inputs": [],
      "name": "sellRandomTicket",
      "outputs": [],
      "payable": true,
      "stateMutability": "payable",
      "type": "function"
    },
    {
      "constant": false,
      "inputs": [],
      "name": "generateRandomTicket",
      "outputs": [],
      "payable": true,
      "stateMutability": "payable",
      "type": "function"
    },
    {
      "constant": false,
      "inputs": [],
      "name": "sellGeneratedTicket",
      "outputs": [],
      "payable": true,
      "stateMutability": "payable",
      "type": "function"
    }
  ],
  "bytecode": "0x60c0604052600160808190527f310000000000000000000000000000000000000000000000000000000000000060a09081526200003e919081620001cc565b506040805180820190915260018082527f380000000000000000000000000000000000000000000000000000000000000060209092019182526200008591600291620001cc565b506040805180820190915260058082527f31303030300000000000000000000000000000000000000000000000000000006020909201918252620000cc91600391620001cc565b506040805180820190915260028082527f323000000000000000000000000000000000000000000000000000000000000060209092019182526200011391600491620001cc565b50600760058190556611c37937e08000600655662aa1efb94e00009055620493e060085563ee6b280060095560008054600a8054600160a060020a0319908116600160a060020a038416179091556010805460ff191660011790556039839055603a839055603b839055603c839055603d839055603e805482169055603f80548216905560408054821690559081163317909155600b8054909116736f485c8bf6fc43ea212e93bbf8ce046c7f1cb47517905562000271565b828054600181600116156101000203166002900490600052602060002090601f016020900481019282601f106200020f57805160ff19168380011785556200023f565b828001600101855582156200023f579182015b828111156200023f57825182559160200191906001019062000222565b506200024d92915062000251565b5090565b6200026e91905b808211156200024d576000815560010162000258565b90565b6161cb80620002816000396000f30060806040526004361061031e5763ffffffff60e060020a60003504166301591f1381146103205780630b8ec7401461036d5780630cc38b2b146103755780630d0a4b7f146103ce57806310cd4b8a146103e65780631827f45d146104105780631c3ed1d3146104285780631cf4c3d11461045c5780631ded3bec1461047157806323d370ba1461047957806327dc297e1461049a5780632caf9eee146104f85780632de729eb146105215780632e52d6061461053957806338bbfa50146105c357806339df3f4f1461065f5780633bb7daf4146106745780633ccfd60b146106cd57806340014911146106e257806349f6b030146106f75780634acfd9b8146107185780634df7e3d01461083757806350b9c4281461084c57806359f9fe82146108615780635edbc36b146108765780635fff9ae31461088b578063715018a61461093057806372c3477d14610945578063741606b51461094d57806375edd2571461096257806377d8a830146109775780637fd4ecde14610998578063809fc153146109ad57806383197ef0146109c557806383bb7bb7146109da5780638a1dd74014610a335780638aa5fafa14610a4b5780638ce3da3c14610a635780638da5cb5b14610a7b57806390c31c4c14610a9057806396853e1314610aa5578063980d988c14610ba95780639ac2bf9114610bbe5780639ae8886a14610bd35780639dec38ab14610be8578063b4f8eadd14610c41578063b582ec5f14610d54578063b69ef8a814610d69578063bb4127e814610d7e578063bb49516b14610e2a578063bcb740ab14610e3f578063c53d6e4714610e57578063c56969ab14610e6c578063c629dad914610e81578063c71f04ac14610ed9578063d383e86214610ef1578063d566bcf014610f09578063d80ffb2014610f1e578063d84ca03a14610f33578063ddc110fa14610f48578063e5663c4814610f69578063e802ae1414610f7e578063eaaa680a14610f96578063f2fde38b14610fae578063f3f4370314610fcf578063f405228914610ff0578063f5074f4114611005578063f53c7d0814611026578063fc22d3e41461103b578063fd9be1b214611050575b005b34801561032c57600080fd5b50610335611071565b604051808260e080838360005b8381101561035a578181015183820152602001610342565b5050505090500191505060405180910390f35b61031e6110e8565b34801561038157600080fd5b506040805160206004803580820135601f810184900484028501840190955284845261031e9436949293602493928401919081908401838280828437509497506112a49650505050505050565b3480156103da57600080fd5b5061031e600435611489565b3480156103f257600080fd5b506103fe6004356114a5565b60408051918252519081900360200190f35b34801561041c57600080fd5b5061031e6004356114b7565b34801561043457600080fd5b506104406004356114d3565b60408051600160a060020a039092168252519081900360200190f35b34801561046857600080fd5b5061031e6114ee565b61031e611932565b34801561048557600080fd5b5061031e600160a060020a03600435166119a1565b3480156104a657600080fd5b5060408051602060046024803582810135601f810185900485028601850190965285855261031e958335953695604494919390910191908190840183828082843750949750611ab39650505050505050565b34801561050457600080fd5b5061050d612064565b604080519115158252519081900360200190f35b34801561052d57600080fd5b5061031e60043561206d565b34801561054557600080fd5b5061054e6123cc565b6040805160208082528351818301528351919283929083019185019080838360005b83811015610588578181015183820152602001610570565b50505050905090810190601f1680156105b55780820380516001836020036101000a031916815260200191505b509250505060405180910390f35b3480156105cf57600080fd5b5060408051602060046024803582810135601f810185900485028601850190965285855261031e95833595369560449491939091019190819084018382808284375050604080516020601f89358b018035918201839004830284018301909452808352979a9998810197919650918201945092508291508401838280828437509497506124579650505050505050565b34801561066b57600080fd5b5061031e61245c565b34801561068057600080fd5b506040805160206004803580820135601f810184900484028501840190955284845261031e9436949293602493928401919081908401838280828437509497506124879650505050505050565b3480156106d957600080fd5b5061031e6125cd565b3480156106ee57600080fd5b5061031e61260e565b34801561070357600080fd5b5061031e600160a060020a0360043516612660565b34801561072457600080fd5b50610739600160a060020a036004351661270f565b604080519081018590528315156060820152821515608082015281151560a082015260c08082528751908201528651819060208083019160e08401918b019080838360005b8381101561079657818101518382015260200161077e565b50505050905090810190601f1680156107c35780820380516001836020036101000a031916815260200191505b5083810382528851815288516020918201918a019080838360005b838110156107f65781810151838201526020016107de565b50505050905090810190601f1680156108235780820380516001836020036101000a031916815260200191505b509850505050505050505060405180910390f35b34801561084357600080fd5b5061054e61286f565b34801561085857600080fd5b506103fe6128c9565b34801561086d57600080fd5b506103fe6128cf565b34801561088257600080fd5b506103356128d5565b34801561089757600080fd5b5060408051602060046024803582810135601f810185900485028601850190965285855261031e95833595369560449491939091019190819084018382808284375050604080516020601f89358b018035918201839004830284018301909452808352979a9998810197919650918201945092508291508401838280828437509497505084359550505060209092013591506129799050565b34801561093c57600080fd5b5061031e612a15565b61031e612a74565b34801561095957600080fd5b50610440612ac2565b34801561096e57600080fd5b5061031e612ad1565b34801561098357600080fd5b5061031e600160a060020a0360043516612f13565b3480156109a457600080fd5b50610440612f25565b3480156109b957600080fd5b5061031e600435612f34565b3480156109d157600080fd5b5061031e612fb5565b3480156109e657600080fd5b506040805160206004803580820135601f810184900484028501840190955284845261031e943694929360249392840191908190840183828082843750949750612fda9650505050505050565b348015610a3f57600080fd5b506103fe60043561311f565b348015610a5757600080fd5b5061031e600435613131565b348015610a6f57600080fd5b506103fe6004356131b2565b348015610a8757600080fd5b506104406131c4565b348015610a9c57600080fd5b5061031e6131d3565b348015610ab157600080fd5b50610abd600435613236565b604051808060200180602001858152602001848152602001838103835287818151815260200191508051906020019080838360005b83811015610b0a578181015183820152602001610af2565b50505050905090810190601f168015610b375780820380516001836020036101000a031916815260200191505b50838103825286518152865160209182019188019080838360005b83811015610b6a578181015183820152602001610b52565b50505050905090810190601f168015610b975780820380516001836020036101000a031916815260200191505b50965050505050505060405180910390f35b348015610bb557600080fd5b50610440613382565b348015610bca57600080fd5b506103fe613391565b348015610bdf57600080fd5b5061054e613397565b348015610bf457600080fd5b506040805160206004803580820135601f810184900484028501840190955284845261031e9436949293602493928401919081908401838280828437509497506133f29650505050505050565b348015610c4d57600080fd5b50610c59600435613538565b60408051908101849052600160a060020a03831660608201526080810182905260a08082528651908201528551819060208083019160c08401918a019080838360005b83811015610cb4578181015183820152602001610c9c565b50505050905090810190601f168015610ce15780820380516001836020036101000a031916815260200191505b50838103825287518152875160209182019189019080838360005b83811015610d14578181015183820152602001610cfc565b50505050905090810190601f168015610d415780820380516001836020036101000a031916815260200191505b5097505050505050505060405180910390f35b348015610d6057600080fd5b5061054e6136a5565b348015610d7557600080fd5b506103fe613700565b348015610d8a57600080fd5b506040805160206004803580820135601f81018490048402850184019095528484526103fe94369492936024939284019190819084018382808284375050604080516020601f89358b018035918201839004830284018301909452808352979a99988101979196509182019450925082915084018382808284375094975050843595505050506020820135600160a060020a031691604001359050613706565b348015610e3657600080fd5b506103fe613807565b348015610e4b57600080fd5b5061031e60043561380d565b348015610e6357600080fd5b5061031e61388e565b348015610e7857600080fd5b506103fe6139f9565b348015610e8d57600080fd5b50610e996004356139ff565b60408051978852600160a060020a039096166020880152868601949094526060860192909252608085015260a084015260c0830152519081900360e00190f35b348015610ee557600080fd5b5061031e600435613a56565b348015610efd57600080fd5b5061031e600435613ad7565b348015610f1557600080fd5b506103fe613b7e565b348015610f2a57600080fd5b506103fe613b84565b348015610f3f57600080fd5b506103fe613b8a565b348015610f5457600080fd5b5061031e600160a060020a0360043516613b90565b348015610f7557600080fd5b506103fe613c77565b348015610f8a57600080fd5b506103fe600435613c7d565b348015610fa257600080fd5b50610440600435613c8f565b348015610fba57600080fd5b5061031e600160a060020a0360043516613caa565b348015610fdb57600080fd5b506103fe600160a060020a0360043516613cca565b348015610ffc57600080fd5b5061031e613cdc565b34801561101157600080fd5b5061031e600160a060020a03600435166140dd565b34801561103257600080fd5b506103fe614100565b34801561104757600080fd5b50610440614106565b34801561105c57600080fd5b5061031e600160a060020a0360043516614115565b611079615fc3565b6000805b6005548110156110b4576013816007811061109457fe5b600402016002015482826007811015156110aa57fe5b015560010161107d565b6040805160e081019182905290839060079082845b8154815260200190600101908083116110c95750505050509250505090565b60075433903410156110f957600080fd5b600160a060020a0381166000908152602f60205260409020600301805462ff000019166201000017905560105460ff161561113357600080fd5b60408051336000908152602f6020529190912080547fc5d2460186f7233c927e7db2dcc703c0e500b653ca82273b7bfad8045d85a4709290819083906002610100600183161502600019019091160480156111c55780601f106111a35761010080835404028352918201916111c5565b820191906000526020600020905b8154815290600101906020018083116111b1575b50509150506040518091039020600019161415801561128d575060408051336000908152602f60205291909120600190810180547fc5d2460186f7233c927e7db2dcc703c0e500b653ca82273b7bfad8045d85a4709391928291849160026101009183161591909102600019019091160480156112795780601f10611257576101008083540402835291820191611279565b820191906000526020600020905b815481529060010190602001808311611265575b505091505060405180910390206000191614155b151561129857600080fd5b6112a133613b90565b50565b600054606090600160a060020a031633146112be57600080fd5b6002805460408051602060018416156101000260001901909316849004601f810184900484028201840190925281815292918301828280156113415780601f1061131657610100808354040283529160200191611341565b820191906000526020600020905b81548152906001019060200180831161132457829003601f168201915b5050855193945061135d93600293506020870192509050615fe2565b50600080516020616180833981519152818360405180806020018060200180602001848103845260148152602001807f506172616d65746572206e206d6f646966696564000000000000000000000000815250602001848103835286818151815260200191508051906020019080838360005b838110156113e85781810151838201526020016113d0565b50505050905090810190601f1680156114155780820380516001836020036101000a031916815260200191505b50848103825285518152855160209182019187019080838360005b83811015611448578181015183820152602001611430565b50505050905090810190601f1680156114755780820380516001836020036101000a031916815260200191505b509550505050505060405180910390a15050565b600054600160a060020a031633146114a057600080fd5b603c55565b60356020526000908152604090205481565b600054600160a060020a031633146114ce57600080fd5b603a55565b603460205260009081526040902054600160a060020a031681565b6114f6616060565b60008054819081908190600160a060020a0316331461151457600080fd5b600092505b600554831015611646576040805160e0810182526000858152603360209081528382205483528682526034815283822054600160a060020a031681840152868252603580825284832054948401859052918790525260128054601193606084019291811061158357fe5b90600052602060002090600502016002015481526020016013866007811015156115a957fe5b600490810291909101600290810154835260208084018990526039546040948501528554600180820188556000978852968290208651600790920201908155908501518187018054600160a060020a031916600160a060020a0390921691909117905592840151908301556060830151600383015560808301519082015560a0820151600582015560c09091015160069091015590920191611519565b603c5491505b603c546005540182101561192b5781935060118281548110151561166c57fe5b60009182526020918290206040805160e0810182526007909302909101805483526001810154600160a060020a0316938301939093526002830154908201526003820154606082015260048201546080820152600582015460a082015260069091015460c0820152601180549196507fc48f643fe98770b36924a84794b17e0a1fe697e64e275a62b245ae9d59840d3c918491908290811061170a57fe5b60009182526020918290206001600790920201015460408051938452600160a060020a03909116918301919091528051918290030190a150600181015b603c546005540181101561180057601180548290811061176357fe5b6000918252602090912060079091020154855111156117f857601180548290811061178a57fe5b60009182526020918290206040805160e0810182526007909302909101805483526001810154600160a060020a0316938301939093526002830154908201526003820154606082015260048201546080820152600582015460a082015260069091015460c082015294509250825b600101611747565b83821461192057601180548390811061181557fe5b906000526020600020906007020160118581548110151561183257fe5b6000918252602090912082546007909202019081556001808301549082018054600160a060020a031916600160a060020a039092169190911790556002808301549082015560038083015490820155600480830154908201556005808301549082015560069182015491015560118054869190849081106118af57fe5b600091825260209182902083516007929092020190815590820151600182018054600160a060020a031916600160a060020a0390921691909117905560408201516002820155606082015160038201556080820151600482015560a0820151600582015560c0909101516006909101555b60019091019061164c565b5050505050565b600754339034101561194357600080fd5b600160a060020a0381166000908152602f60205260408082206003908101805462ff00001916620100001790553380845291909220909101805461ffff1916905560105460ff161561199457600080fd5b61199d33612f13565b5050565b60006119ae600954614229565b604080516020808252808201527f41736b696e6720666f722061206e6577206d7520706172616d657465722e2e2e8183015290517f096835e36c2ccea88ff2b3aca87dfc938b977e52ea656873ff76a8dba50d4d349181900360600190a1611a836040805190810160405280600c81526020017f576f6c6672616d416c70686100000000000000000000000000000000000000008152506040805190810160405280600f81526020017f342072616e646f6d206e756d6265720000000000000000000000000000000000815250600854614411565b60009081526030602052604090208054600160a060020a031916600160a060020a03939093169290921790915550565b611abb614816565b600160a060020a03163314611acf57600080fd5b600082815260306020526040902054600160a060020a031615801590611b1d5750600082815260306020908152604080832054600160a060020a03168352602f90915290206003015460ff16155b15611cba57600082815260306020908152604080832054600160a060020a03168352602f82529091208251611b5492840190615fe2565b507f6a28dd23c76ba6cc6f4f148a0e2e0e147d8b876cb74ec1e5e2b8e9a8119eb702816040518080602001828103825283818151815260200191508051906020019080838360005b83811015611bb4578181015183820152602001611b9c565b50505050905090810190601f168015611be15780820380516001836020036101000a031916815260200191505b509250505060405180910390a160008281526030602090815260408083208054600160a060020a039081168552602f9093528184206003908101805460ff191660019081179091559154909316845292200154610100900460ff161515148015611c8f5750600082815260306020908152604080832054600160a060020a03168352602f90915290206003015460ff6201000090910416151560011480611c8f575060105460ff1615156001145b15611cb557600082815260306020526040902054611cb590600160a060020a0316613b90565b61199d565b600082815260316020526040902054600160a060020a031615801590611d0d5750600082815260316020908152604080832054600160a060020a03168352602f909152902060030154610100900460ff16155b15611ea857600082815260316020908152604080832054600160a060020a03168352602f82529091208251611d4a92600190920191840190615fe2565b507f716a554dec57e3a217a923b974660c0c8ebee07b09b1ac7d4a3a8f328d10cc89816040518080602001828103825283818151815260200191508051906020019080838360005b83811015611daa578181015183820152602001611d92565b50505050905090810190601f168015611dd75780820380516001836020036101000a031916815260200191505b509250505060405180910390a160008281526031602090815260408083208054600160a060020a039081168552602f9093528184206003908101805461ff00191661010017905590549092168352909120015460ff1615156001148015611e825750600082815260316020908152604080832054600160a060020a03168352602f90915290206003015460ff6201000090910416151560011480611e82575060105460ff1615156001145b15611cb557600082815260316020526040902054611cb590600160a060020a0316613b90565b600082815260326020526040902054600160a060020a031615801590611f125750600082815260326020908152604080832054600160a060020a03168352602f90915290206003015460ff6201000090910416151560011480611f12575060105460ff1615156001145b1561199d57611f2081614a0b565b600083815260326020908152604080832054600160a060020a03168352602f825280832060020193909355825181815284518183015284517f0efef3a277391dda0d5747fd15566e85fcd8a4fb588d9853173841e45cc5ae8a9486949293849391840192908601918190849084905b83811015611fa7578181015183820152602001611f8f565b50505050905090810190601f168015611fd45780820380516001836020036101000a031916815260200191505b509250505060405180910390a1600082815260326020908152604080832054600160a060020a03168352602f9091529020600301805462ff00001916905560105460ff1615156001141561204357600082815260326020526040902054611cb590600160a060020a0316614a1e565b60008281526032602052604090205461199d90600160a060020a0316614c7f565b60105460ff1681565b600080600080601360016005540360078110151561208757fe5b600402016002015460128681548110151561209e57fe5b906000526020600020906005020160020154111561210d57600554600019019350612106601385600781106120cf57fe5b60040201600201546012878154811015156120e657fe5b906000526020600020906005020160020154614eba90919063ffffffff16565b9250612253565b601554601280548790811061211e57fe5b9060005260206000209060050201600201541015612183576000935061210660128681548110151561214c57fe5b90600052602060002090600502016002015460138660078110151561216d57fe5b6004020160020154614eba90919063ffffffff16565b6013846007811061219057fe5b60040201600201546012868154811015156121a757fe5b90600052602060002090600502016002015411156121ca57600190930192612183565b601384600781106121d757fe5b60040201600201546012868154811015156121ee57fe5b906000526020600020906005020160020154141561220f5760009250612253565b61222360136000198601600781106120cf57fe5b915061223760128681548110151561214c57fe5b90508181111561224f57600184039350819250612253565b8092505b600084815260346020526040902054600160a060020a03161580612284575060008481526033602052604090205483105b1561231f57601280548690811061229757fe5b60009182526020808320600360059093020191909101548683526034825260408084208054600160a060020a031916600160a060020a0390931692909217909155603382528083208690556035825291829020879055815187815291517fed4436a39d9a77d0c6c3be4f0e28f018750eb25c5c2d30ded16ef07ced4c00719281900390910190a15b82151561192b57601280548690811061233457fe5b6000918252602080832060036005909302019190910154603b548352603790915260409091208054600160a060020a031916600160a060020a03909216919091179055601280548690811061238557fe5b6000918252602080832060026005909302019190910154603b8054845260368352604080852092909255805484526038909252909120869055805460010190555050505050565b6002805460408051602060018416156101000260001901909316849004601f8101849004840282018401909252818152929183018282801561244f5780601f106124245761010080835404028352916020019161244f565b820191906000526020600020905b81548152906001019060200180831161243257829003601f168201915b505050505081565b505050565b600054600160a060020a0316331461247357600080fd5b6010805460ff19811660ff90911615179055565b600054606090600160a060020a031633146124a157600080fd5b6004805460408051602060026001851615610100026000190190941693909304601f810184900484028201840190925281815292918301828280156125275780601f106124fc57610100808354040283529160200191612527565b820191906000526020600020905b81548152906001019060200180831161250a57829003601f168201915b5050855193945061254393600493506020870192509050615fe2565b50600080516020616180833981519152818360405180806020018060200180602001848103845260148152602001807f506172616d65746572206a206d6f64696669656400000000000000000000000081525060200184810383528681815181526020019150805190602001908083836000838110156113e85781810151838201526020016113d0565b33600081815260416020526040808220805490839055905190929183156108fc02918491818181858888f1935050505015801561199d573d6000803e3d6000fd5b600054600160a060020a0316331461262557600080fd5b61262d61245c565b6126356114ee565b61263d613cdc565b61264561388e565b6039805460010190819055600554603c805491909202019055565b60008054600160a060020a0316331461267857600080fd5b50600a8054600160a060020a03838116600160a060020a0319831681179093556040805191909216602082018190528183019390935260608082526019908201527f456e74657270726973652077616c6c6574206368616e67656400000000000000608082015290517f223db053947bb148de510715d3c7d8ccd72bdd376752fd735ee7bd0bd0ece5bf9181900360a00190a15050565b602f6020908152600091825260409182902080548351601f600260001961010060018616150201909316929092049182018490048402810184019094528084529092918391908301828280156127a65780601f1061277b576101008083540402835291602001916127a6565b820191906000526020600020905b81548152906001019060200180831161278957829003601f168201915b505050505090806001018054600181600116156101000203166002900480601f0160208091040260200160405190810160405280929190818152602001828054600181600116156101000203166002900480156128445780601f1061281957610100808354040283529160200191612844565b820191906000526020600020905b81548152906001019060200180831161282757829003601f168201915b50505050600283015460039093015491929160ff808216925061010082048116916201000090041686565b60018054604080516020600284861615610100026000190190941693909304601f8101849004840282018401909252818152929183018282801561244f5780601f106124245761010080835404028352916020019161244f565b60085481565b60055481565b6128dd615fc3565b6128e5615fc3565b60005b60055481101561297357600081815260346020526040902054600160a060020a0316156129575760008181526035602052604090205460128054909190811061292d57fe5b906000526020600020906005020160020154828260078110151561294d57fe5b602002015261296b565b600082826007811061296557fe5b60200201525b6001016128e8565b50919050565b600054600160a060020a0316331461299057600080fd5b604080516080810182528581526020810185905290810183905260608101829052601386600781106129be57fe5b6004020160008201518160000190805190602001906129de929190615fe2565b5060208281015180516129f79260018501920190615fe2565b50604082015160028201556060909101516003909101555050505050565b600054600160a060020a03163314612a2c57600080fd5b60008054604051600160a060020a03909116917ff8df31144d9c2f0f6b59d69b8b98abd5459d07f2742c4df920b25aae33c6482091a260008054600160a060020a0319169055565b6006543390341015612a8557600080fd5b336000818152602f60205260409020600301805461ffff1916905560105460ff1615612ab057600080fd5b612ab9336119a1565b61199d33614115565b600a54600160a060020a031681565b612ad96160a7565b6000805481908190600160a060020a03163314612af557600080fd5b5060005b600554811015612f0d5791508160138160078110612b1357fe5b6040805160049290920292909201805460a06020601f6002600019610100600187161502019094169390930492830181900402840181019094526080830181815292939192849290918491840182828015612baf5780601f10612b8457610100808354040283529160200191612baf565b820191906000526020600020905b815481529060010190602001808311612b9257829003601f168201915b50505050508152602001600182018054600181600116156101000203166002900480601f016020809104026020016040519081016040528092919081815260200182805460018160011615610100020316600290048015612c515780601f10612c2657610100808354040283529160200191612c51565b820191906000526020600020905b815481529060010190602001808311612c3457829003601f168201915b505050505081526020016002820154815260200160038201548152505093508060010191505b600554821015612e1a5760138260078110612c8e57fe5b600402016002015484604001511115612e0f5760138260078110612cae57fe5b6040805160049290920292909201805460a06020601f6002600019610100600187161502019094169390930492830181900402840181019094526080830181815292939192849290918491840182828015612d4a5780601f10612d1f57610100808354040283529160200191612d4a565b820191906000526020600020905b815481529060010190602001808311612d2d57829003601f168201915b50505050508152602001600182018054600181600116156101000203166002900480601f016020809104026020016040519081016040528092919081815260200182805460018160011615610100020316600290048015612dec5780601f10612dc157610100808354040283529160200191612dec565b820191906000526020600020905b815481529060010190602001808311612dcf57829003601f168201915b505050505081526020016002820154815260200160038201548152505093508192505b600190910190612c77565b828114612f055760138160078110612e2e57fe5b6004020160138460078110612e3f57fe5b6004020160008201816000019080546001816001161561010002031660029004612e6a9291906160d0565b5060018201816001019080546001816001161561010002031660029004612e929291906160d0565b50600282810154908201556003918201549101558360138260078110612eb457fe5b600402016000820151816000019080519060200190612ed4929190615fe2565b506020828101518051612eed9260018501920190615fe2565b50604082015160028201556060909101516003909101555b600101612af9565b50505050565b612f1c816119a1565b6112a181614115565b603f54600160a060020a031681565b60008054600160a060020a03163314612f4c57600080fd5b50600880549082905560408051602081018390528082018490526060808252601a908201527f4f7261636c697a6520676173206c696d6974206368616e676564000000000000608082015290516000805160206161608339815191529181900360a00190a15050565b600054600160a060020a03163314612fcc57600080fd5b600054600160a060020a0316ff5b600054606090600160a060020a03163314612ff457600080fd5b60018054604080516020600284861615610100026000190190941693909304601f810184900484028201840190925281815292918301828280156130795780601f1061304e57610100808354040283529160200191613079565b820191906000526020600020905b81548152906001019060200180831161305c57829003601f168201915b5050855193945061309593600193506020870192509050615fe2565b50600080516020616180833981519152818360405180806020018060200180602001848103845260148152602001807f506172616d657465722062206d6f64696669656400000000000000000000000081525060200184810383528681815181526020019150805190602001908083836000838110156113e85781810151838201526020016113d0565b60366020526000908152604090205481565b60008054600160a060020a0316331461314957600080fd5b50600680549082905560408051602081018390528082018490526060808252601d908201527f47656e6572617465207469636b6574207072696365206368616e676564000000608082015290516000805160206161608339815191529181900360a00190a15050565b60386020526000908152604090205481565b600054600160a060020a031681565b600054600160a060020a031633146131ea57600080fd5b600554603a541415613210576131fe612ad1565b6000603a5561320b61245c565b613234565b306000818152602f60205260409020600301805461ffff1916905561323490612f13565b565b6013816007811061324357fe5b60040201805460408051602060026001851615610100026000190190941693909304601f810184900484028201840190925281815292935083918301828280156132ce5780601f106132a3576101008083540402835291602001916132ce565b820191906000526020600020905b8154815290600101906020018083116132b157829003601f168201915b505050505090806001018054600181600116156101000203166002900480601f01602080910402602001604051908101604052809291908181526020018280546001816001161561010002031660029004801561336c5780601f106133415761010080835404028352916020019161336c565b820191906000526020600020905b81548152906001019060200180831161334f57829003601f168201915b5050505050908060020154908060030154905084565b603e54600160a060020a031681565b60095481565b6003805460408051602060026001851615610100026000190190941693909304601f8101849004840282018401909252818152929183018282801561244f5780601f106124245761010080835404028352916020019161244f565b600054606090600160a060020a0316331461340c57600080fd5b6003805460408051602060026001851615610100026000190190941693909304601f810184900484028201840190925281815292918301828280156134925780601f1061346757610100808354040283529160200191613492565b820191906000526020600020905b81548152906001019060200180831161347557829003601f168201915b505085519394506134ae93600393506020870192509050615fe2565b50600080516020616180833981519152818360405180806020018060200180602001848103845260148152602001807f506172616d657465722070206d6f64696669656400000000000000000000000081525060200184810383528681815181526020019150805190602001908083836000838110156113e85781810151838201526020016113d0565b601280548290811061354657fe5b60009182526020918290206005919091020180546040805160026001841615610100026000190190931692909204601f8101859004850283018501909152808252919350918391908301828280156135df5780601f106135b4576101008083540402835291602001916135df565b820191906000526020600020905b8154815290600101906020018083116135c257829003601f168201915b505050505090806001018054600181600116156101000203166002900480601f01602080910402602001604051908101604052809291908181526020018280546001816001161561010002031660029004801561367d5780601f106136525761010080835404028352916020019161367d565b820191906000526020600020905b81548152906001019060200180831161366057829003601f168201915b505050506002830154600384015460049094015492939092600160a060020a03909116915085565b6004805460408051602060026001851615610100026000190190941693909304601f8101849004840282018401909252818152929183018282801561244f5780601f106124245761010080835404028352916020019161244f565b30315b90565b600080548190600160a060020a0316331461372057600080fd5b6040805160a0810182528881526020808201899052918101879052600160a060020a03861660608201526080810185905260128054600181810180845560009390935283518051919593949360059093027fbb8a6a4669ba250d26cd7a459eca9d215f8307e33aebe50379bc5a3617ec344401926137a392849290910190615fe2565b5060208281015180516137bc9260018501920190615fe2565b50604082015160028201556060820151600382018054600160a060020a031916600160a060020a0390921691909117905560809091015160049091015503603d555095945050505050565b603c5481565b60008054600160a060020a0316331461382557600080fd5b506007805490829055604080516020810183905280820184905260608082526019908201527f53656c6c207469636b6574207072696365206368616e67656400000000000000608082015290516000805160206161608339815191529181900360a00190a15050565b60005b6005548110156139f1576000818152603360209081526040808320839055603482528083208054600160a060020a031916905560358252808320929092558151808301909252600182527f3000000000000000000000000000000000000000000000000000000000000000908201526013826007811061390d57fe5b600402016000019080519060200190613927929190615fe2565b5060408051808201909152600181527f300000000000000000000000000000000000000000000000000000000000000060208201526013826007811061396957fe5b600402016001019080519060200190613983929190615fe2565b5060006013826007811061399357fe5b60040201600201819055506039546013826007811015156139b057fe5b60040201600301556000818152603660209081526040808320839055603782528083208054600160a060020a03191690556038909152812055600101613891565b506000603b55565b603a5481565b6011805482908110613a0d57fe5b60009182526020909120600790910201805460018201546002830154600384015460048501546005860154600690960154949650600160a060020a039093169491939092919087565b60008054600160a060020a03163314613a6e57600080fd5b506005805490829055604080516020810183905280820184905260608082526019908201527f53656c6c207469636b6574207072696365206368616e67656400000000000000608082015290516000805160206161608339815191529181900360a00190a15050565b60008054600160a060020a03163314613aef57600080fd5b506009805490829055604080516020810183905280820184905260608082526021908201527f4f7261636c697a6520637573746f6d20676173207072696365206368616e676560808201527f640000000000000000000000000000000000000000000000000000000000000060a082015290516000805160206161608339815191529181900360c00190a15050565b60065481565b60395481565b603b5481565b6000613b9d600954614229565b604080516020808252601a908201527f41736b696e6720666f722061206e6577207469636b65742e2e2e0000000000008183015290517f096835e36c2ccea88ff2b3aca87dfc938b977e52ea656873ff76a8dba50d4d349181900360600190a1613c476040805190810160405280600c81526020017f576f6c6672616d416c7068610000000000000000000000000000000000000000815250613c3f84614ecc565b600854614411565b60009081526032602052604090208054600160a060020a031916600160a060020a03939093169290921790915550565b60075481565b60336020526000908152604090205481565b603760205260009081526040902054600160a060020a031681565b600054600160a060020a03163314613cc157600080fd5b6112a1816157fb565b60416020526000908152604090205481565b6000805481908190819081908190600160a060020a03163314613cfe57600080fd5b603e54600160a060020a03908116600090815260416020526040808220829055603f54831682528082208290558054909216815290812055613d483031600763ffffffff61586b16565b9550613d5b86600a63ffffffff61589416565b9550613d6e86600663ffffffff61586b16565b9450613d8186600363ffffffff61586b16565b9350613d9486600163ffffffff61586b16565b9250613da785600a63ffffffff61589416565b9450613dba84600a63ffffffff61589416565b9350613dcd83600a63ffffffff61589416565b9250603c5491505b603c5460055401821015613eb057601180546000919084908110613df557fe5b6000918252602090912060016007909202010154600160a060020a031614613ea5578460416000601185815481101515613e2b57fe5b6000918252602080832060016007909302019190910154600160a060020a031683528201929092526040019020805490910190556011805483908110613e6d57fe5b6000918252602090912060016007909202010154603e8054600160a060020a031916600160a060020a03909216919091179055613eb0565b600190910190613dd5565b6001909101905b603c5460055401821015613f9257601180546000919084908110613ed757fe5b6000918252602090912060016007909202010154600160a060020a031614613f87578360416000601185815481101515613f0d57fe5b6000918252602080832060016007909302019190910154600160a060020a031683528201929092526040019020805490910190556011805483908110613f4f57fe5b6000918252602090912060016007909202010154603f8054600160a060020a031916600160a060020a03909216919091179055613f92565b600190910190613eb7565b6001909101905b603c546005540182101561407457601180546000919084908110613fb957fe5b6000918252602090912060016007909202010154600160a060020a031614614069578260416000601185815481101515613fef57fe5b6000918252602080832060016007909302019190910154600160a060020a03168352820192909252604001902080549091019055601180548390811061403157fe5b600091825260209091206001600790920201015460408054600160a060020a031916600160a060020a03909216919091179055614074565b600190910190613f99565b6140863031600363ffffffff61586b16565b905061409981600a63ffffffff61589416565b600a54604051919250600160a060020a03169082156108fc029083906000818181858888f193505050501580156140d4573d6000803e3d6000fd5b50505050505050565b600054600160a060020a031633146140f457600080fd5b80600160a060020a0316ff5b603d5481565b604054600160a060020a031681565b6000614122600954614229565b604080516020808252601f908201527f41736b696e6720666f722061206e6577206920706172616d657465722e2e2e008183015290517f096835e36c2ccea88ff2b3aca87dfc938b977e52ea656873ff76a8dba50d4d349181900360600190a16141f96040805190810160405280600c81526020017f576f6c6672616d416c70686100000000000000000000000000000000000000008152506040805190810160405280600f81526020017f342072616e646f6d206e756d6265720000000000000000000000000000000000815250600854614411565b60009081526031602052604090208054600160a060020a031916600160a060020a03939093169290921790915550565b600b54600160a060020a031615806142535750600b5461425190600160a060020a03166158a9565b155b156142645761426260006158ad565b505b600b60009054906101000a9004600160a060020a0316600160a060020a03166338cc48316040518163ffffffff1660e060020a028152600401602060405180830381600087803b1580156142b757600080fd5b505af11580156142cb573d6000803e3d6000fd5b505050506040513d60208110156142e157600080fd5b5051600c54600160a060020a0390811691161461439757600b60009054906101000a9004600160a060020a0316600160a060020a03166338cc48316040518163ffffffff1660e060020a028152600401602060405180830381600087803b15801561434b57600080fd5b505af115801561435f573d6000803e3d6000fd5b505050506040513d602081101561437557600080fd5b5051600c8054600160a060020a031916600160a060020a039092169190911790555b600c54604080517fca6ad1e4000000000000000000000000000000000000000000000000000000008152600481018490529051600160a060020a039092169163ca6ad1e49160248082019260009290919082900301818387803b1580156143fd57600080fd5b505af115801561192b573d6000803e3d6000fd5b600b546000908190600160a060020a031615806144405750600b5461443e90600160a060020a03166158a9565b155b156144515761444f60006158ad565b505b600b60009054906101000a9004600160a060020a0316600160a060020a03166338cc48316040518163ffffffff1660e060020a028152600401602060405180830381600087803b1580156144a457600080fd5b505af11580156144b8573d6000803e3d6000fd5b505050506040513d60208110156144ce57600080fd5b5051600c54600160a060020a0390811691161461458457600b60009054906101000a9004600160a060020a0316600160a060020a03166338cc48316040518163ffffffff1660e060020a028152600401602060405180830381600087803b15801561453857600080fd5b505af115801561454c573d6000803e3d6000fd5b505050506040513d602081101561456257600080fd5b5051600c8054600160a060020a031916600160a060020a039092169190911790555b600c54604080517f2ef3accc0000000000000000000000000000000000000000000000000000000081526024810186905260048101918252875160448201528751600160a060020a0390931692632ef3accc9289928892829160640190602086019080838360005b838110156146045781810151838201526020016145ec565b50505050905090810190601f1680156146315780820380516001836020036101000a031916815260200191505b509350505050602060405180830381600087803b15801561465157600080fd5b505af1158015614665573d6000803e3d6000fd5b505050506040513d602081101561467b57600080fd5b50519050670de0b6b3a76400003a84020181111561469c576000915061480e565b600c546040517fc51be90f00000000000000000000000000000000000000000000000000000000815260006004820181815260648301879052608060248401908152895160848501528951600160a060020a039095169463c51be90f948794938c938c938c93604481019160a49091019060208801908083838c5b8381101561472f578181015183820152602001614717565b50505050905090810190601f16801561475c5780820380516001836020036101000a031916815260200191505b50838103825285518152855160209182019187019080838360005b8381101561478f578181015183820152602001614777565b50505050905090810190601f1680156147bc5780820380516001836020036101000a031916815260200191505b5096505050505050506020604051808303818588803b1580156147de57600080fd5b505af11580156147f2573d6000803e3d6000fd5b50505050506040513d602081101561480957600080fd5b505191505b509392505050565b600b54600090600160a060020a031615806148435750600b5461484190600160a060020a03166158a9565b155b156148545761485260006158ad565b505b600b60009054906101000a9004600160a060020a0316600160a060020a03166338cc48316040518163ffffffff1660e060020a028152600401602060405180830381600087803b1580156148a757600080fd5b505af11580156148bb573d6000803e3d6000fd5b505050506040513d60208110156148d157600080fd5b5051600c54600160a060020a0390811691161461498757600b60009054906101000a9004600160a060020a0316600160a060020a03166338cc48316040518163ffffffff1660e060020a028152600401602060405180830381600087803b15801561493b57600080fd5b505af115801561494f573d6000803e3d6000fd5b505050506040513d602081101561496557600080fd5b5051600c8054600160a060020a031916600160a060020a039092169190911790555b600c60009054906101000a9004600160a060020a0316600160a060020a031663c281d19e6040518163ffffffff1660e060020a028152600401602060405180830381600087803b1580156149da57600080fd5b505af11580156149ee573d6000803e3d6000fd5b505050506040513d6020811015614a0457600080fd5b5051905090565b6000614a188260006158b7565b92915050565b60408051600160a060020a0383166000908152602f602090815290839020805460026001821615610100026000190190911604601f8101839004909202830160a090810190945260808301828152929384939290840182828015614ac35780601f10614a9857610100808354040283529160200191614ac3565b820191906000526020600020905b815481529060010190602001808311614aa657829003601f168201915b50505050508152602001602f600084600160a060020a0316600160a060020a031681526020019081526020016000206001018054600181600116156101000203166002900480601f016020809104026020016040519081016040528092919081815260200182805460018160011615610100020316600290048015614b895780601f10614b5e57610100808354040283529160200191614b89565b820191906000526020600020905b815481529060010190602001808311614b6c57829003601f168201915b5050509183525050600160a060020a0383166000908152602f60209081526040918290206002015490830152603954910152603a5460139060078110614bcb57fe5b600402016000820151816000019080519060200190614beb929190615fe2565b506020828101518051614c049260018501920190615fe2565b50604082810151600280840191909155606090930151600390920191909155603a80546001019055600160a060020a0383166000908152602f60209081529082902090920154815190815290517fec2692b386f7e992f219e405f018eeaf8da1b95736760596812e564f2e709cfd929181900390910190a150565b60408051600160a060020a0383166000908152602f602090815283822080546002600180831615610100026000190190921604601f8101849004909302850160c090810190965260a0850183815293959094601294909384939192840182828015614d2b5780601f10614d0057610100808354040283529160200191614d2b565b820191906000526020600020905b815481529060010190602001808311614d0e57829003601f168201915b50505050508152602001602f600087600160a060020a0316600160a060020a031681526020019081526020016000206001018054600181600116156101000203166002900480601f016020809104026020016040519081016040528092919081815260200182805460018160011615610100020316600290048015614df15780601f10614dc657610100808354040283529160200191614df1565b820191906000526020600020905b815481529060010190602001808311614dd457829003601f168201915b5050509183525050600160a060020a0386166000818152602f6020908152604080832060020154828601528401929092526039546060909301929092528354600181018086559483529181902083518051600590940290910192614e589284920190615fe2565b506020828101518051614e719260018501920190615fe2565b50604082015160028201556060820151600382018054600160a060020a031916600160a060020a0390921691909117905560809091015160049091015503905061199d8161206d565b600082821115614ec657fe5b50900390565b604080518082018252600c81527f286d6f642828312f2831305e000000000000000000000000000000000000000060208083019190915260028054845160018216156101000260001901909116829004601f810184900484028201840190955284815260609485946150a39490939190830182828015614f8d5780601f10614f6257610100808354040283529160200191614f8d565b820191906000526020600020905b815481529060010190602001808311614f7057829003601f168201915b505060408051808201825260018082527f2d00000000000000000000000000000000000000000000000000000000000000602080840191909152600160a060020a038d166000908152602f825284902080548551600294821615610100026000190190911693909304601f81018390048302840183019095528483529296509094509092508301828280156150635780601f1061503857610100808354040283529160200191615063565b820191906000526020600020905b81548152906001019060200180831161504657829003601f168201915b50505050506040805190810160405280600681526020017f29292a31305e0000000000000000000000000000000000000000000000000000815250615a29565b60038054604080516020601f60026000196101006001881615020190951694909404938401819004810282018101909252828152939450615237938593909290918301828280156151355780601f1061510a57610100808354040283529160200191615135565b820191906000526020600020905b81548152906001019060200180831161511857829003601f168201915b5050604080518082018252600581527f2c31305e2800000000000000000000000000000000000000000000000000000060208083019190915260048054845160026001831615610100026000190190921691909104601f81018490048402820184019095528481529296509194509092508301828280156151f75780601f106151cc576101008083540402835291602001916151f7565b820191906000526020600020905b8154815290600101906020018083116151da57829003601f168201915b50505050506040805190810160405280600181526020017f2b00000000000000000000000000000000000000000000000000000000000000815250615a29565b90506153f881602f600086600160a060020a0316600160a060020a031681526020019081526020016000206001018054600181600116156101000203166002900480601f0160208091040260200160405190810160405280929190818152602001828054600181600116156101000203166002900480156152f95780601f106152ce576101008083540402835291602001916152f9565b820191906000526020600020905b8154815290600101906020018083116152dc57829003601f168201915b5050604080518082018252600e81527f29292d6d6f642828312f2831305e00000000000000000000000000000000000060208083019190915260028054845160018216156101000260001901909116829004601f81018490048402820184019095528481529296509194509092508301828280156153b85780601f1061538d576101008083540402835291602001916153b8565b820191906000526020600020905b81548152906001019060200180831161539b57829003601f168201915b50505050506040805190810160405280600181526020017f2d00000000000000000000000000000000000000000000000000000000000000815250615a29565b600160a060020a0384166000908152602f602090815260409182902080548351601f6002600019610100600186161502019093169290920491820184900484028101840190945280845293945061559f9385939283018282801561549d5780601f106154725761010080835404028352916020019161549d565b820191906000526020600020905b81548152906001019060200180831161548057829003601f168201915b5050604080518082018252600681527f29292a31305e000000000000000000000000000000000000000000000000000060208083019190915260038054845160026001831615610100026000190190921691909104601f810184900484028201840190955284815292965091945090925083018282801561555f5780601f106155345761010080835404028352916020019161555f565b820191906000526020600020905b81548152906001019060200180831161554257829003601f168201915b50505050506040805190810160405280600481526020017f2c31305e00000000000000000000000000000000000000000000000000000000815250615a29565b60408051808201825260018082527f2800000000000000000000000000000000000000000000000000000000000000602080840191909152600160a060020a0388166000908152602f8252849020820180548551600294821615610100026000190190911693909304601f810183900483028401830190955284835294955061575a94869490918301828280156156775780601f1061564c57610100808354040283529160200191615677565b820191906000526020600020905b81548152906001019060200180831161565a57829003601f168201915b5050604080518082018252600781527f2929292f31305e00000000000000000000000000000000000000000000000000602080830191909152600160a060020a038d166000908152602f8252839020600190810180548551600293821615610100026000190190911692909204601f810184900484028301840190955284825292965094509092508301828280156157505780601f1061572557610100808354040283529160200191615750565b820191906000526020600020905b81548152906001019060200180831161573357829003601f168201915b5050505050615a29565b90507f261af219212047633bb60c8d0cc7e33d217c38edf6fa7e53acb97a3f94180de5816040518080602001828103825283818151815260200191508051906020019080838360005b838110156157bb5781810151838201526020016157a3565b50505050905090810190601f1680156157e85780820380516001836020036101000a031916815260200191505b509250505060405180910390a192915050565b600160a060020a038116151561581057600080fd5b60008054604051600160a060020a03808516939216917f8be0079c531659141344cd1fd0a4f28419497f9722a3daafe3b4186f6b6457e091a360008054600160a060020a031916600160a060020a0392909216919091179055565b600082151561587c57506000614a18565b5081810281838281151561588c57fe5b0414614a1857fe5b600081838115156158a157fe5b049392505050565b3b90565b6000614a18615c8a565b6000828180805b8351811015615a0c5783517f3000000000000000000000000000000000000000000000000000000000000000908590839081106158f757fe5b90602001015160f860020a900460f860020a02600160f860020a0319161015801561596d575083517f39000000000000000000000000000000000000000000000000000000000000009085908390811061594d57fe5b90602001015160f860020a900460f860020a02600160f860020a03191611155b156159c657811561598c5785151561598457615a0c565b600019909501945b600a83029250603084828151811015156159a257fe5b90602001015160f860020a900460f860020a0260f860020a90040383019250615a04565b83818151811015156159d457fe5b90602001015160f860020a900460f860020a02600160f860020a031916602e60f860020a021415615a0457600191505b6001016158be565b6000861115615a1e5785600a0a830292505b509095945050505050565b6060806060806060806060806000808e98508d97508c96508b95508a94508451865188518a518c51010101016040519080825280601f01601f191660200182016040528015615a82578160200160208202803883390190505b50935083925060009150600090505b8851811015615aef578881815181101515615aa857fe5b90602001015160f860020a900460f860020a028383806001019450815181101515615acf57fe5b906020010190600160f860020a031916908160001a905350600101615a91565b5060005b8751811015615b51578781815181101515615b0a57fe5b90602001015160f860020a900460f860020a028383806001019450815181101515615b3157fe5b906020010190600160f860020a031916908160001a905350600101615af3565b5060005b8651811015615bb3578681815181101515615b6c57fe5b90602001015160f860020a900460f860020a028383806001019450815181101515615b9357fe5b906020010190600160f860020a031916908160001a905350600101615b55565b5060005b8551811015615c15578581815181101515615bce57fe5b90602001015160f860020a900460f860020a028383806001019450815181101515615bf557fe5b906020010190600160f860020a031916908160001a905350600101615bb7565b5060005b8451811015615c77578481815181101515615c3057fe5b90602001015160f860020a900460f860020a028383806001019450815181101515615c5757fe5b906020010190600160f860020a031916908160001a905350600101615c19565b50909d9c50505050505050505050505050565b600080615caa731d3b2638a7cc9f2cb3d298a3da7a90b67e5506ed6158a9565b1115615d1a57600b8054600160a060020a031916731d3b2638a7cc9f2cb3d298a3da7a90b67e5506ed178155604080518082019091529081527f6574685f6d61696e6e65740000000000000000000000000000000000000000006020820152615d1290615fb0565b506001613703565b6000615d3973c03a2615d5efaf5f49f60b7bb6583eaec212fdf16158a9565b1115615da257600b8054600160a060020a03191673c03a2615d5efaf5f49f60b7bb6583eaec212fdf117905560408051808201909152600c81527f6574685f726f707374656e3300000000000000000000000000000000000000006020820152615d1290615fb0565b6000615dc173b7a07bcf2ba2f2703b24c0691b5278999c59ac7e6158a9565b1115615e2a57600b8054600160a060020a03191673b7a07bcf2ba2f2703b24c0691b5278999c59ac7e17905560408051808201909152600981527f6574685f6b6f76616e00000000000000000000000000000000000000000000006020820152615d1290615fb0565b6000615e4973146500cfd35b22e4a392fe0adc06de1a1368ed486158a9565b1115615eb157600b8054600160a060020a03191673146500cfd35b22e4a392fe0adc06de1a1368ed48178155604080518082019091529081527f6574685f72696e6b6562790000000000000000000000000000000000000000006020820152615d1290615fb0565b6000615ed0736f485c8bf6fc43ea212e93bbf8ce046c7f1cb4756158a9565b1115615f045750600b8054600160a060020a031916736f485c8bf6fc43ea212e93bbf8ce046c7f1cb4751790556001613703565b6000615f237320e12a1f859b3feae5fb2a0a32c18f5a65555bbf6158a9565b1115615f575750600b8054600160a060020a0319167320e12a1f859b3feae5fb2a0a32c18f5a65555bbf1790556001613703565b6000615f767351efaf4c8b3c9afbd5ab9f4bbc82784ab6ef8faa6158a9565b1115615faa5750600b8054600160a060020a0319167351efaf4c8b3c9afbd5ab9f4bbc82784ab6ef8faa1790556001613703565b50600090565b805161199d90600d906020840190615fe2565b60e0604051908101604052806007906020820280388339509192915050565b828054600181600116156101000203166002900490600052602060002090601f016020900481019282601f1061602357805160ff1916838001178555616050565b82800160010185558215616050579182015b82811115616050578251825591602001919060010190616035565b5061605c929150616145565b5090565b60e060405190810160405280600081526020016000600160a060020a0316815260200160008152602001600081526020016000815260200160008152602001600081525090565b608060405190810160405280606081526020016060815260200160008152602001600081525090565b828054600181600116156101000203166002900490600052602060002090601f016020900481019282601f106161095780548555616050565b8280016001018555821561605057600052602060002091601f016020900482015b8281111561605057825482559160010191906001019061612a565b61370391905b8082111561605c576000815560010161614b56009bc068999fb1a0aac007a9b44ca6322a376441f42706bf5163600bb3d1a731647ecbd54b3baea533cf57ef049f9e04554be6a660d6dacd477488066eedf27beea165627a7a72305820cfffdb8f4a877698fd598473f0393beea20d82ff338dfd3056504307553c794f0029",
  "source": "pragma solidity ^0.4.20;\nimport \"./Lucky7Ballot.sol\";\nimport \"./Destructible.sol\";\n\ncontract Lucky7Store is Lucky7Ballot, Destructible{\n    \n    using SafeMath for uint256;\n    \n    function Lucky7Store() payable public{\n        \n    }\n    \n    modifier userBoughtTicket(address _ticketOwner){\n        require(msg.value >= sellTicketPrice);\n        userValues[_ticketOwner].userPaidTicket = true;\n        _;\n    }\n    \n    modifier userBoughtParameters(address _ticketOwner){\n        require(msg.value >= generateTicketPrice);\n        _;\n    }\n    \n    \n    modifier setParametersToReady(address _ticketOwner){\n        userValues[_ticketOwner].muReady = false;\n        userValues[_ticketOwner].iReady = false;\n        _;\n    }\n    \n    //Circuit breakers--------\n    \n    modifier sellingIsActive {\n        require(settingLucky7Numbers==false);\n        _;\n    }\n    //------------------------\n    \n    \n    function sellRandomTicket() \n        public\n        payable \n        userBoughtTicket(msg.sender)\n        setParametersToReady(msg.sender)\n        sellingIsActive\n    {\n        _generateTicket(msg.sender);\n    }\n    \n    function generateRandomTicket() \n        public \n        payable \n        userBoughtParameters(msg.sender)\n        setParametersToReady(msg.sender)\n        sellingIsActive\n    {\n        _askForMuParameter(msg.sender);\n        _askForIParameter(msg.sender);\n    }\n    \n    function sellGeneratedTicket() \n        public \n        payable \n        userBoughtTicket(msg.sender)\n        sellingIsActive\n    {\n        require(keccak256(userValues[msg.sender].mu)!=keccak256('') && keccak256(userValues[msg.sender].i)!=keccak256(''));\n        _askForTicket(msg.sender);\n    }\n    \n    function () public payable{\n        \n    }\n}   \n                                           \n",
  "sourcePath": "/Users/matiasbarrios/Desktop/Proyecto Consensys/luckyseven/contracts/Lucky7Store.sol",
  "compiler": {
    "name": "solc",
    "version": "0.4.24+commit.e67f0147.Emscripten.clang"
  },
  "schemaVersion": "2.0.1",
  "updatedAt": "2018-08-26T17:58:43.565Z"
}