{
  "contractName": "Lucky7Ballot",
  "abi": [
    {
      "constant": false,
      "inputs": [
        {
          "name": "_newValue",
          "type": "string"
        }
      ],
      "name": "modifyParameterN",
      "outputs": [],
      "payable": false,
      "stateMutability": "nonpayable",
      "type": "function"
    },
    {
      "constant": true,
      "inputs": [
        {
          "name": "",
          "type": "uint256"
        }
      ],
      "name": "lucky7TicketID",
      "outputs": [
        {
          "name": "",
          "type": "uint256"
        }
      ],
      "payable": false,
      "stateMutability": "view",
      "type": "function"
    },
    {
      "constant": true,
      "inputs": [
        {
          "name": "",
          "type": "uint256"
        }
      ],
      "name": "lucky7TicketOwner",
      "outputs": [
        {
          "name": "",
          "type": "address"
        }
      ],
      "payable": false,
      "stateMutability": "view",
      "type": "function"
    },
    {
      "constant": true,
      "inputs": [],
      "name": "lastThirdPrize",
      "outputs": [
        {
          "name": "",
          "type": "address"
        }
      ],
      "payable": false,
      "stateMutability": "view",
      "type": "function"
    },
    {
      "constant": false,
      "inputs": [
        {
          "name": "_ticketOwner",
          "type": "address"
        }
      ],
      "name": "_askForMuParameter",
      "outputs": [],
      "payable": false,
      "stateMutability": "nonpayable",
      "type": "function"
    },
    {
      "constant": false,
      "inputs": [
        {
          "name": "myid",
          "type": "bytes32"
        },
        {
          "name": "result",
          "type": "string"
        }
      ],
      "name": "__callback",
      "outputs": [],
      "payable": false,
      "stateMutability": "nonpayable",
      "type": "function"
    },
    {
      "constant": true,
      "inputs": [],
      "name": "settingLucky7Numbers",
      "outputs": [
        {
          "name": "",
          "type": "bool"
        }
      ],
      "payable": false,
      "stateMutability": "view",
      "type": "function"
    },
    {
      "constant": false,
      "inputs": [
        {
          "name": "_ticketID",
          "type": "uint256"
        }
      ],
      "name": "_checkForLucky7Ticket",
      "outputs": [],
      "payable": false,
      "stateMutability": "nonpayable",
      "type": "function"
    },
    {
      "constant": true,
      "inputs": [],
      "name": "n",
      "outputs": [
        {
          "name": "",
          "type": "string"
        }
      ],
      "payable": false,
      "stateMutability": "view",
      "type": "function"
    },
    {
      "constant": false,
      "inputs": [
        {
          "name": "myid",
          "type": "bytes32"
        },
        {
          "name": "result",
          "type": "string"
        },
        {
          "name": "proof",
          "type": "bytes"
        }
      ],
      "name": "__callback",
      "outputs": [],
      "payable": false,
      "stateMutability": "nonpayable",
      "type": "function"
    },
    {
      "constant": false,
      "inputs": [],
      "name": "toggleLucky7Setting",
      "outputs": [],
      "payable": false,
      "stateMutability": "nonpayable",
      "type": "function"
    },
    {
      "constant": false,
      "inputs": [
        {
          "name": "_newValue",
          "type": "string"
        }
      ],
      "name": "modifyParameterJ",
      "outputs": [],
      "payable": false,
      "stateMutability": "nonpayable",
      "type": "function"
    },
    {
      "constant": false,
      "inputs": [
        {
          "name": "_newAddress",
          "type": "address"
        }
      ],
      "name": "modifyEnterpriseWallet",
      "outputs": [],
      "payable": false,
      "stateMutability": "nonpayable",
      "type": "function"
    },
    {
      "constant": true,
      "inputs": [
        {
          "name": "",
          "type": "address"
        }
      ],
      "name": "userValues",
      "outputs": [
        {
          "name": "mu",
          "type": "string"
        },
        {
          "name": "i",
          "type": "string"
        },
        {
          "name": "ticketValue",
          "type": "uint256"
        },
        {
          "name": "muReady",
          "type": "bool"
        },
        {
          "name": "iReady",
          "type": "bool"
        },
        {
          "name": "userPaidTicket",
          "type": "bool"
        }
      ],
      "payable": false,
      "stateMutability": "view",
      "type": "function"
    },
    {
      "constant": true,
      "inputs": [],
      "name": "b",
      "outputs": [
        {
          "name": "",
          "type": "string"
        }
      ],
      "payable": false,
      "stateMutability": "view",
      "type": "function"
    },
    {
      "constant": true,
      "inputs": [],
      "name": "oraclizeGasLimit",
      "outputs": [
        {
          "name": "",
          "type": "uint256"
        }
      ],
      "payable": false,
      "stateMutability": "view",
      "type": "function"
    },
    {
      "constant": true,
      "inputs": [],
      "name": "numberOfLucky7Numbers",
      "outputs": [
        {
          "name": "",
          "type": "uint256"
        }
      ],
      "payable": false,
      "stateMutability": "view",
      "type": "function"
    },
    {
      "constant": true,
      "inputs": [],
      "name": "lastFirstPrize",
      "outputs": [
        {
          "name": "",
          "type": "address"
        }
      ],
      "payable": false,
      "stateMutability": "view",
      "type": "function"
    },
    {
      "constant": false,
      "inputs": [],
      "name": "renounceOwnership",
      "outputs": [],
      "payable": false,
      "stateMutability": "nonpayable",
      "type": "function"
    },
    {
      "constant": true,
      "inputs": [],
      "name": "enterpriseWallet",
      "outputs": [
        {
          "name": "",
          "type": "address"
        }
      ],
      "payable": false,
      "stateMutability": "view",
      "type": "function"
    },
    {
      "constant": false,
      "inputs": [
        {
          "name": "_ticketOwner",
          "type": "address"
        }
      ],
      "name": "_generateTicket",
      "outputs": [],
      "payable": false,
      "stateMutability": "nonpayable",
      "type": "function"
    },
    {
      "constant": false,
      "inputs": [
        {
          "name": "_newValue",
          "type": "uint256"
        }
      ],
      "name": "modifyOraclizeGasLimit",
      "outputs": [],
      "payable": false,
      "stateMutability": "nonpayable",
      "type": "function"
    },
    {
      "constant": false,
      "inputs": [
        {
          "name": "_newValue",
          "type": "string"
        }
      ],
      "name": "modifyParameterB",
      "outputs": [],
      "payable": false,
      "stateMutability": "nonpayable",
      "type": "function"
    },
    {
      "constant": true,
      "inputs": [
        {
          "name": "",
          "type": "uint256"
        }
      ],
      "name": "ExactLucky7TicketValue",
      "outputs": [
        {
          "name": "",
          "type": "uint256"
        }
      ],
      "payable": false,
      "stateMutability": "view",
      "type": "function"
    },
    {
      "constant": false,
      "inputs": [
        {
          "name": "_newValue",
          "type": "uint256"
        }
      ],
      "name": "modifyGenerateTicketPrice",
      "outputs": [],
      "payable": false,
      "stateMutability": "nonpayable",
      "type": "function"
    },
    {
      "constant": true,
      "inputs": [
        {
          "name": "",
          "type": "uint256"
        }
      ],
      "name": "ExactLucky7TicketID",
      "outputs": [
        {
          "name": "",
          "type": "uint256"
        }
      ],
      "payable": false,
      "stateMutability": "view",
      "type": "function"
    },
    {
      "constant": true,
      "inputs": [],
      "name": "owner",
      "outputs": [
        {
          "name": "",
          "type": "address"
        }
      ],
      "payable": false,
      "stateMutability": "view",
      "type": "function"
    },
    {
      "constant": true,
      "inputs": [
        {
          "name": "",
          "type": "uint256"
        }
      ],
      "name": "lucky7NumbersArray",
      "outputs": [
        {
          "name": "mu",
          "type": "string"
        },
        {
          "name": "i",
          "type": "string"
        },
        {
          "name": "ticketValue",
          "type": "uint256"
        },
        {
          "name": "drawID",
          "type": "uint256"
        }
      ],
      "payable": false,
      "stateMutability": "view",
      "type": "function"
    },
    {
      "constant": true,
      "inputs": [],
      "name": "oraclizeCustomGasPrice",
      "outputs": [
        {
          "name": "",
          "type": "uint256"
        }
      ],
      "payable": false,
      "stateMutability": "view",
      "type": "function"
    },
    {
      "constant": true,
      "inputs": [],
      "name": "p",
      "outputs": [
        {
          "name": "",
          "type": "string"
        }
      ],
      "payable": false,
      "stateMutability": "view",
      "type": "function"
    },
    {
      "constant": false,
      "inputs": [
        {
          "name": "_newValue",
          "type": "string"
        }
      ],
      "name": "modifyParameterP",
      "outputs": [],
      "payable": false,
      "stateMutability": "nonpayable",
      "type": "function"
    },
    {
      "constant": true,
      "inputs": [
        {
          "name": "",
          "type": "uint256"
        }
      ],
      "name": "ticketsArray",
      "outputs": [
        {
          "name": "mu",
          "type": "string"
        },
        {
          "name": "i",
          "type": "string"
        },
        {
          "name": "ticketValue",
          "type": "uint256"
        },
        {
          "name": "owner",
          "type": "address"
        },
        {
          "name": "drawID",
          "type": "uint256"
        }
      ],
      "payable": false,
      "stateMutability": "view",
      "type": "function"
    },
    {
      "constant": true,
      "inputs": [],
      "name": "j",
      "outputs": [
        {
          "name": "",
          "type": "string"
        }
      ],
      "payable": false,
      "stateMutability": "view",
      "type": "function"
    },
    {
      "constant": true,
      "inputs": [],
      "name": "balance",
      "outputs": [
        {
          "name": "",
          "type": "uint256"
        }
      ],
      "payable": false,
      "stateMutability": "view",
      "type": "function"
    },
    {
      "constant": true,
      "inputs": [],
      "name": "initialLucky7TicketPosition",
      "outputs": [
        {
          "name": "",
          "type": "uint256"
        }
      ],
      "payable": false,
      "stateMutability": "view",
      "type": "function"
    },
    {
      "constant": false,
      "inputs": [
        {
          "name": "_newValue",
          "type": "uint256"
        }
      ],
      "name": "modifySellTicketPrice",
      "outputs": [],
      "payable": false,
      "stateMutability": "nonpayable",
      "type": "function"
    },
    {
      "constant": true,
      "inputs": [],
      "name": "indexForLucky7Array",
      "outputs": [
        {
          "name": "",
          "type": "uint256"
        }
      ],
      "payable": false,
      "stateMutability": "view",
      "type": "function"
    },
    {
      "constant": true,
      "inputs": [
        {
          "name": "",
          "type": "uint256"
        }
      ],
      "name": "lucky7TicketsArray",
      "outputs": [
        {
          "name": "difference",
          "type": "uint256"
        },
        {
          "name": "owner",
          "type": "address"
        },
        {
          "name": "ticketID",
          "type": "uint256"
        },
        {
          "name": "ticketValue",
          "type": "uint256"
        },
        {
          "name": "lucky7Number",
          "type": "uint256"
        },
        {
          "name": "lucky7NumberID",
          "type": "uint256"
        },
        {
          "name": "drawID",
          "type": "uint256"
        }
      ],
      "payable": false,
      "stateMutability": "view",
      "type": "function"
    },
    {
      "constant": false,
      "inputs": [
        {
          "name": "_newValue",
          "type": "uint256"
        }
      ],
      "name": "modifyNumberOfLucky7Numbers",
      "outputs": [],
      "payable": false,
      "stateMutability": "nonpayable",
      "type": "function"
    },
    {
      "constant": false,
      "inputs": [
        {
          "name": "_newValue",
          "type": "uint256"
        }
      ],
      "name": "modifyOraclizeCustomGasPrice",
      "outputs": [],
      "payable": false,
      "stateMutability": "nonpayable",
      "type": "function"
    },
    {
      "constant": true,
      "inputs": [],
      "name": "generateTicketPrice",
      "outputs": [
        {
          "name": "",
          "type": "uint256"
        }
      ],
      "payable": false,
      "stateMutability": "view",
      "type": "function"
    },
    {
      "constant": true,
      "inputs": [],
      "name": "drawNumber",
      "outputs": [
        {
          "name": "",
          "type": "uint256"
        }
      ],
      "payable": false,
      "stateMutability": "view",
      "type": "function"
    },
    {
      "constant": true,
      "inputs": [],
      "name": "indexForExactLucky7Ticket",
      "outputs": [
        {
          "name": "",
          "type": "uint256"
        }
      ],
      "payable": false,
      "stateMutability": "view",
      "type": "function"
    },
    {
      "constant": false,
      "inputs": [
        {
          "name": "_ticketOwner",
          "type": "address"
        }
      ],
      "name": "_askForTicket",
      "outputs": [],
      "payable": false,
      "stateMutability": "nonpayable",
      "type": "function"
    },
    {
      "constant": true,
      "inputs": [],
      "name": "sellTicketPrice",
      "outputs": [
        {
          "name": "",
          "type": "uint256"
        }
      ],
      "payable": false,
      "stateMutability": "view",
      "type": "function"
    },
    {
      "constant": true,
      "inputs": [
        {
          "name": "",
          "type": "uint256"
        }
      ],
      "name": "lucky7TicketDifference",
      "outputs": [
        {
          "name": "",
          "type": "uint256"
        }
      ],
      "payable": false,
      "stateMutability": "view",
      "type": "function"
    },
    {
      "constant": true,
      "inputs": [
        {
          "name": "",
          "type": "uint256"
        }
      ],
      "name": "ExactLucky7TicketOwner",
      "outputs": [
        {
          "name": "",
          "type": "address"
        }
      ],
      "payable": false,
      "stateMutability": "view",
      "type": "function"
    },
    {
      "constant": true,
      "inputs": [],
      "name": "lastSecondPrize",
      "outputs": [
        {
          "name": "",
          "type": "address"
        }
      ],
      "payable": false,
      "stateMutability": "view",
      "type": "function"
    },
    {
      "constant": false,
      "inputs": [
        {
          "name": "_newOwner",
          "type": "address"
        }
      ],
      "name": "transferOwnership",
      "outputs": [],
      "payable": false,
      "stateMutability": "nonpayable",
      "type": "function"
    },
    {
      "constant": true,
      "inputs": [
        {
          "name": "",
          "type": "address"
        }
      ],
      "name": "pendingWithdrawals",
      "outputs": [
        {
          "name": "",
          "type": "uint256"
        }
      ],
      "payable": false,
      "stateMutability": "view",
      "type": "function"
    },
    {
      "constant": true,
      "inputs": [],
      "name": "currentTicketID",
      "outputs": [
        {
          "name": "",
          "type": "uint256"
        }
      ],
      "payable": false,
      "stateMutability": "view",
      "type": "function"
    },
    {
      "constant": false,
      "inputs": [
        {
          "name": "_ticketOwner",
          "type": "address"
        }
      ],
      "name": "_askForIParameter",
      "outputs": [],
      "payable": false,
      "stateMutability": "nonpayable",
      "type": "function"
    },
    {
      "inputs": [],
      "payable": true,
      "stateMutability": "payable",
      "type": "constructor"
    },
    {
      "payable": true,
      "stateMutability": "payable",
      "type": "fallback"
    },
    {
      "anonymous": false,
      "inputs": [
        {
          "indexed": false,
          "name": "description",
          "type": "string"
        }
      ],
      "name": "NewOraclizeQuery",
      "type": "event"
    },
    {
      "anonymous": false,
      "inputs": [
        {
          "indexed": false,
          "name": "muParameter",
          "type": "string"
        }
      ],
      "name": "NewMuReceived",
      "type": "event"
    },
    {
      "anonymous": false,
      "inputs": [
        {
          "indexed": false,
          "name": "iParameter",
          "type": "string"
        }
      ],
      "name": "NewIReceived",
      "type": "event"
    },
    {
      "anonymous": false,
      "inputs": [
        {
          "indexed": false,
          "name": "newTicket",
          "type": "string"
        }
      ],
      "name": "NewTicketReceived",
      "type": "event"
    },
    {
      "anonymous": false,
      "inputs": [
        {
          "indexed": false,
          "name": "description",
          "type": "string"
        }
      ],
      "name": "NewWolframQuery",
      "type": "event"
    },
    {
      "anonymous": false,
      "inputs": [
        {
          "indexed": false,
          "name": "ticketID",
          "type": "uint256"
        }
      ],
      "name": "NewLucky7Ticket",
      "type": "event"
    },
    {
      "anonymous": false,
      "inputs": [
        {
          "indexed": false,
          "name": "value",
          "type": "uint256"
        }
      ],
      "name": "NewLucky7Number",
      "type": "event"
    },
    {
      "anonymous": false,
      "inputs": [
        {
          "indexed": false,
          "name": "describe",
          "type": "string"
        },
        {
          "indexed": false,
          "name": "_oldValue",
          "type": "uint256"
        },
        {
          "indexed": false,
          "name": "_newValue",
          "type": "uint256"
        }
      ],
      "name": "numberModified",
      "type": "event"
    },
    {
      "anonymous": false,
      "inputs": [
        {
          "indexed": false,
          "name": "describe",
          "type": "string"
        },
        {
          "indexed": false,
          "name": "_oldValue",
          "type": "string"
        },
        {
          "indexed": false,
          "name": "_newValue",
          "type": "string"
        }
      ],
      "name": "parameterModified",
      "type": "event"
    },
    {
      "anonymous": false,
      "inputs": [
        {
          "indexed": false,
          "name": "describe",
          "type": "string"
        },
        {
          "indexed": false,
          "name": "_oldValue",
          "type": "address"
        },
        {
          "indexed": false,
          "name": "_newValue",
          "type": "address"
        }
      ],
      "name": "walletModified",
      "type": "event"
    },
    {
      "anonymous": false,
      "inputs": [
        {
          "indexed": true,
          "name": "previousOwner",
          "type": "address"
        }
      ],
      "name": "OwnershipRenounced",
      "type": "event"
    },
    {
      "anonymous": false,
      "inputs": [
        {
          "indexed": true,
          "name": "previousOwner",
          "type": "address"
        },
        {
          "indexed": true,
          "name": "newOwner",
          "type": "address"
        }
      ],
      "name": "OwnershipTransferred",
      "type": "event"
    },
    {
      "constant": false,
      "inputs": [],
      "name": "_generateLucky7Number",
      "outputs": [],
      "payable": false,
      "stateMutability": "nonpayable",
      "type": "function"
    },
    {
      "constant": false,
      "inputs": [],
      "name": "setNewGame",
      "outputs": [],
      "payable": false,
      "stateMutability": "nonpayable",
      "type": "function"
    },
    {
      "constant": false,
      "inputs": [],
      "name": "_orderLucky7Numbers",
      "outputs": [],
      "payable": false,
      "stateMutability": "nonpayable",
      "type": "function"
    },
    {
      "constant": false,
      "inputs": [],
      "name": "_orderLucky7Tickets",
      "outputs": [],
      "payable": false,
      "stateMutability": "nonpayable",
      "type": "function"
    },
    {
      "constant": false,
      "inputs": [],
      "name": "_deliverPrizes",
      "outputs": [],
      "payable": false,
      "stateMutability": "nonpayable",
      "type": "function"
    },
    {
      "constant": false,
      "inputs": [],
      "name": "_cleanMappings",
      "outputs": [],
      "payable": false,
      "stateMutability": "nonpayable",
      "type": "function"
    },
    {
      "constant": false,
      "inputs": [],
      "name": "withdraw",
      "outputs": [],
      "payable": false,
      "stateMutability": "nonpayable",
      "type": "function"
    },
    {
      "constant": true,
      "inputs": [],
      "name": "getlucky7Numbers",
      "outputs": [
        {
          "name": "",
          "type": "uint256[7]"
        }
      ],
      "payable": false,
      "stateMutability": "view",
      "type": "function"
    },
    {
      "constant": true,
      "inputs": [],
      "name": "getlucky7Tickets",
      "outputs": [
        {
          "name": "",
          "type": "uint256[7]"
        }
      ],
      "payable": false,
      "stateMutability": "view",
      "type": "function"
    },
    {
      "constant": false,
      "inputs": [
        {
          "name": "_id",
          "type": "uint256"
        },
        {
          "name": "_mu",
          "type": "string"
        },
        {
          "name": "_i",
          "type": "string"
        },
        {
          "name": "_ticketValue",
          "type": "uint256"
        },
        {
          "name": "_drawNumber",
          "type": "uint256"
        }
      ],
      "name": "insertCustomizedLucky7Number",
      "outputs": [],
      "payable": false,
      "stateMutability": "nonpayable",
      "type": "function"
    },
    {
      "constant": false,
      "inputs": [
        {
          "name": "_mu",
          "type": "string"
        },
        {
          "name": "_i",
          "type": "string"
        },
        {
          "name": "_ticketValue",
          "type": "uint256"
        },
        {
          "name": "_ticketOwner",
          "type": "address"
        },
        {
          "name": "_drawNumber",
          "type": "uint256"
        }
      ],
      "name": "insertCustomizedTicket",
      "outputs": [
        {
          "name": "",
          "type": "uint256"
        }
      ],
      "payable": false,
      "stateMutability": "nonpayable",
      "type": "function"
    },
    {
      "constant": false,
      "inputs": [
        {
          "name": "_newValue",
          "type": "uint256"
        }
      ],
      "name": "setIndexForLucky7Array",
      "outputs": [],
      "payable": false,
      "stateMutability": "nonpayable",
      "type": "function"
    }
  ],
  "bytecode": "0x60c0604052600160808190527f310000000000000000000000000000000000000000000000000000000000000060a09081526200003e919081620001cc565b506040805180820190915260018082527f380000000000000000000000000000000000000000000000000000000000000060209092019182526200008591600291620001cc565b506040805180820190915260058082527f31303030300000000000000000000000000000000000000000000000000000006020909201918252620000cc91600391620001cc565b506040805180820190915260028082527f323000000000000000000000000000000000000000000000000000000000000060209092019182526200011391600491620001cc565b50600760058190556611c37937e08000600655662aa1efb94e00009055620493e060085563ee6b280060095560008054600a8054600160a060020a0319908116600160a060020a038416179091556010805460ff191660011790556039839055603a839055603b839055603c839055603d839055603e805482169055603f80548216905560408054821690559081163317909155600b8054909116736f485c8bf6fc43ea212e93bbf8ce046c7f1cb47517905562000271565b828054600181600116156101000203166002900490600052602060002090601f016020900481019282601f106200020f57805160ff19168380011785556200023f565b828001600101855582156200023f579182015b828111156200023f57825182559160200191906001019062000222565b506200024d92915062000251565b5090565b6200026e91905b808211156200024d576000815560010162000258565b90565b615d3c80620002816000396000f3006080604052600436106102dc5763ffffffff60e060020a60003504166301591f1381146102de5780630cc38b2b1461032b57806310cd4b8a146103845780631827f45d146103ae5780631c3ed1d3146103c65780631cf4c3d1146103fa5780631faae09f1461040f57806323d370ba1461042457806327dc297e146104455780632caf9eee146104a35780632de729eb146104cc5780632e52d606146104e457806338bbfa501461056e57806339df3f4f1461060a5780633bb7daf41461061f5780633ccfd60b14610678578063400149111461068d57806349f6b030146106a25780634acfd9b8146106c35780634df7e3d0146107e257806350b9c428146107f757806359f9fe821461080c5780635edbc36b146108215780635fff9ae31461083657806369828206146108db578063715018a6146108f0578063741606b51461090557806375edd2571461091a57806377d8a8301461092f578063809fc1531461095057806383bb7bb7146109685780638a1dd740146109c15780638aa5fafa146109d95780638ce3da3c146109f15780638da5cb5b14610a0957806390c31c4c14610a1e57806396853e1314610a335780639ac2bf9114610b375780639ae8886a14610b4c5780639dec38ab14610b61578063b4f8eadd14610bba578063b582ec5f14610ccd578063b69ef8a814610ce2578063bb4127e814610cf7578063bb49516b14610da3578063bcb740ab14610db8578063c53d6e4714610dd0578063c56969ab14610de5578063c629dad914610dfa578063c71f04ac14610e52578063d383e86214610e6a578063d566bcf014610e82578063d80ffb2014610e97578063d84ca03a14610eac578063ddc110fa14610ec1578063e5663c4814610ee2578063e802ae1414610ef7578063eaaa680a14610f0f578063ef1f460614610f27578063f2fde38b14610f3c578063f3f4370314610f5d578063f405228914610f7e578063f53c7d0814610f93578063fd9be1b214610fa8575b005b3480156102ea57600080fd5b506102f3610fc9565b604051808260e080838360005b83811015610318578181015183820152602001610300565b5050505090500191505060405180910390f35b34801561033757600080fd5b506040805160206004803580820135601f81018490048402850184019095528484526102dc9436949293602493928401919081908401838280828437509497506110409650505050505050565b34801561039057600080fd5b5061039c600435611225565b60408051918252519081900360200190f35b3480156103ba57600080fd5b506102dc600435611237565b3480156103d257600080fd5b506103de600435611253565b60408051600160a060020a039092168252519081900360200190f35b34801561040657600080fd5b506102dc61126e565b34801561041b57600080fd5b506103de611642565b34801561043057600080fd5b506102dc600160a060020a0360043516611651565b34801561045157600080fd5b5060408051602060046024803582810135601f81018590048502860185019096528585526102dc9583359536956044949193909101919081908401838280828437509497506117639650505050505050565b3480156104af57600080fd5b506104b8611d18565b604080519115158252519081900360200190f35b3480156104d857600080fd5b506102dc600435611d21565b3480156104f057600080fd5b506104f9612081565b6040805160208082528351818301528351919283929083019185019080838360005b8381101561053357818101518382015260200161051b565b50505050905090810190601f1680156105605780820380516001836020036101000a031916815260200191505b509250505060405180910390f35b34801561057a57600080fd5b5060408051602060046024803582810135601f81018590048502860185019096528585526102dc95833595369560449491939091019190819084018382808284375050604080516020601f89358b018035918201839004830284018301909452808352979a99988101979196509182019450925082915084018382808284375094975061210c9650505050505050565b34801561061657600080fd5b506102dc612111565b34801561062b57600080fd5b506040805160206004803580820135601f81018490048402850184019095528484526102dc94369492936024939284019190819084018382808284375094975061213c9650505050505050565b34801561068457600080fd5b506102dc612282565b34801561069957600080fd5b506102dc6122c3565b3480156106ae57600080fd5b506102dc600160a060020a0360043516612315565b3480156106cf57600080fd5b506106e4600160a060020a03600435166123c4565b604080519081018590528315156060820152821515608082015281151560a082015260c08082528751908201528651819060208083019160e08401918b019080838360005b83811015610741578181015183820152602001610729565b50505050905090810190601f16801561076e5780820380516001836020036101000a031916815260200191505b5083810382528851815288516020918201918a019080838360005b838110156107a1578181015183820152602001610789565b50505050905090810190601f1680156107ce5780820380516001836020036101000a031916815260200191505b509850505050505050505060405180910390f35b3480156107ee57600080fd5b506104f9612524565b34801561080357600080fd5b5061039c61257e565b34801561081857600080fd5b5061039c612584565b34801561082d57600080fd5b506102f361258a565b34801561084257600080fd5b5060408051602060046024803582810135601f81018590048502860185019096528585526102dc95833595369560449491939091019190819084018382808284375050604080516020601f89358b018035918201839004830284018301909452808352979a99988101979196509182019450925082915084018382808284375094975050843595505050602090920135915061262e9050565b3480156108e757600080fd5b506103de6126ca565b3480156108fc57600080fd5b506102dc6126d9565b34801561091157600080fd5b506103de612738565b34801561092657600080fd5b506102dc612747565b34801561093b57600080fd5b506102dc600160a060020a0360043516612b83565b34801561095c57600080fd5b506102dc600435612b98565b34801561097457600080fd5b506040805160206004803580820135601f81018490048402850184019095528484526102dc943694929360249392840191908190840183828082843750949750612c199650505050505050565b3480156109cd57600080fd5b5061039c600435612d5e565b3480156109e557600080fd5b506102dc600435612d70565b3480156109fd57600080fd5b5061039c600435612df1565b348015610a1557600080fd5b506103de612e03565b348015610a2a57600080fd5b506102dc612e12565b348015610a3f57600080fd5b50610a4b600435612e73565b604051808060200180602001858152602001848152602001838103835287818151815260200191508051906020019080838360005b83811015610a98578181015183820152602001610a80565b50505050905090810190601f168015610ac55780820380516001836020036101000a031916815260200191505b50838103825286518152865160209182019188019080838360005b83811015610af8578181015183820152602001610ae0565b50505050905090810190601f168015610b255780820380516001836020036101000a031916815260200191505b50965050505050505060405180910390f35b348015610b4357600080fd5b5061039c612fbf565b348015610b5857600080fd5b506104f9612fc5565b348015610b6d57600080fd5b506040805160206004803580820135601f81018490048402850184019095528484526102dc9436949293602493928401919081908401838280828437509497506130209650505050505050565b348015610bc657600080fd5b50610bd2600435613166565b60408051908101849052600160a060020a03831660608201526080810182905260a08082528651908201528551819060208083019160c08401918a019080838360005b83811015610c2d578181015183820152602001610c15565b50505050905090810190601f168015610c5a5780820380516001836020036101000a031916815260200191505b50838103825287518152875160209182019189019080838360005b83811015610c8d578181015183820152602001610c75565b50505050905090810190601f168015610cba5780820380516001836020036101000a031916815260200191505b5097505050505050505060405180910390f35b348015610cd957600080fd5b506104f96132d3565b348015610cee57600080fd5b5061039c61332e565b348015610d0357600080fd5b506040805160206004803580820135601f810184900484028501840190955284845261039c94369492936024939284019190819084018382808284375050604080516020601f89358b018035918201839004830284018301909452808352979a99988101979196509182019450925082915084018382808284375094975050843595505050506020820135600160a060020a031691604001359050613334565b348015610daf57600080fd5b5061039c613435565b348015610dc457600080fd5b506102dc60043561343b565b348015610ddc57600080fd5b506102dc6134bc565b348015610df157600080fd5b5061039c613627565b348015610e0657600080fd5b50610e1260043561362d565b60408051978852600160a060020a039096166020880152868601949094526060860192909252608085015260a084015260c0830152519081900360e00190f35b348015610e5e57600080fd5b506102dc600435613684565b348015610e7657600080fd5b506102dc600435613705565b348015610e8e57600080fd5b5061039c6137ac565b348015610ea357600080fd5b5061039c6137b2565b348015610eb857600080fd5b5061039c6137b8565b348015610ecd57600080fd5b506102dc600160a060020a03600435166137be565b348015610eee57600080fd5b5061039c6138a5565b348015610f0357600080fd5b5061039c6004356138ab565b348015610f1b57600080fd5b506103de6004356138bd565b348015610f3357600080fd5b506103de6138d8565b348015610f4857600080fd5b506102dc600160a060020a03600435166138e7565b348015610f6957600080fd5b5061039c600160a060020a0360043516613907565b348015610f8a57600080fd5b506102dc613919565b348015610f9f57600080fd5b5061039c613d1a565b348015610fb457600080fd5b506102dc600160a060020a0360043516613d20565b610fd1615b34565b6000805b60055481101561100c5760138160078110610fec57fe5b6004020160020154828260078110151561100257fe5b0155600101610fd5565b6040805160e081019182905290839060079082845b8154815260200190600101908083116110215750505050509250505090565b600054606090600160a060020a0316331461105a57600080fd5b6002805460408051602060018416156101000260001901909316849004601f810184900484028201840190925281815292918301828280156110dd5780601f106110b2576101008083540402835291602001916110dd565b820191906000526020600020905b8154815290600101906020018083116110c057829003601f168201915b505085519394506110f993600293506020870192509050615b53565b50600080516020615cf1833981519152818360405180806020018060200180602001848103845260148152602001807f506172616d65746572206e206d6f646966696564000000000000000000000000815250602001848103835286818151815260200191508051906020019080838360005b8381101561118457818101518382015260200161116c565b50505050905090810190601f1680156111b15780820380516001836020036101000a031916815260200191505b50848103825285518152855160209182019187019080838360005b838110156111e45781810151838201526020016111cc565b50505050905090810190601f1680156112115780820380516001836020036101000a031916815260200191505b509550505050505060405180910390a15050565b60356020526000908152604090205481565b600054600160a060020a0316331461124e57600080fd5b603a55565b603460205260009081526040902054600160a060020a031681565b611276615bd1565b6000805481908190600160a060020a0316331461129257600080fd5b5060005b6005548110156113c0576040805160e0810182526000838152603360209081528382205483528482526034815283822054600160a060020a031681840152848252603580825284832054948401859052918590525260128054601193606084019291811061130057fe5b906000526020600020906005020160020154815260200160138460078110151561132657fe5b600490810291909101600290810154835260208084018790526039546040948501528554600180820188556000978852968290208651600790920201908155908501518187018054600160a060020a031916600160a060020a0390921691909117905592840151908301556060830151600383015560808301519082015560a0820151600582015560c09091015160069091015501611296565b50603c545b603c546005540181101561163c578092506011818154811015156113e557fe5b60009182526020918290206040805160e081018252600790930290910180548352600180820154600160a060020a0316948401949094526002810154918301919091526003810154606083015260048101546080830152600581015460a08301526006015460c08201529450810191505b603c546005540182101561151457601180548390811061147257fe5b60009182526020909120600790910201548451111561150957601180548390811061149957fe5b60009182526020918290206040805160e0810182526007909302909101805483526001810154600160a060020a0316938301939093526002830154908201526003820154606082015260048201546080820152600582015460a082015260069091015460c0820152935090915081905b600190910190611456565b82811461163457601180548290811061152957fe5b906000526020600020906007020160118481548110151561154657fe5b6000918252602090912082546007909202019081556001808301549082018054600160a060020a031916600160a060020a039092169190911790556002808301549082015560038083015490820155600480830154908201556005808301549082015560069182015491015560118054859190839081106115c357fe5b600091825260209182902083516007929092020190815590820151600182018054600160a060020a031916600160a060020a0390921691909117905560408201516002820155606082015160038201556080820151600482015560a0820151600582015560c0909101516006909101555b6001016113c5565b50505050565b604054600160a060020a031681565b600061165e600954613e34565b604080516020808252808201527f41736b696e6720666f722061206e6577206d7520706172616d657465722e2e2e8183015290517f096835e36c2ccea88ff2b3aca87dfc938b977e52ea656873ff76a8dba50d4d349181900360600190a16117336040805190810160405280600c81526020017f576f6c6672616d416c70686100000000000000000000000000000000000000008152506040805190810160405280600f81526020017f342072616e646f6d206e756d626572000000000000000000000000000000000081525060085461401c565b60009081526030602052604090208054600160a060020a031916600160a060020a03939093169290921790915550565b61176b614421565b600160a060020a0316331461177f57600080fd5b600082815260306020526040902054600160a060020a0316158015906117cd5750600082815260306020908152604080832054600160a060020a03168352602f90915290206003015460ff16155b1561196a57600082815260306020908152604080832054600160a060020a03168352602f8252909120825161180492840190615b53565b507f6a28dd23c76ba6cc6f4f148a0e2e0e147d8b876cb74ec1e5e2b8e9a8119eb702816040518080602001828103825283818151815260200191508051906020019080838360005b8381101561186457818101518382015260200161184c565b50505050905090810190601f1680156118915780820380516001836020036101000a031916815260200191505b509250505060405180910390a160008281526030602090815260408083208054600160a060020a039081168552602f9093528184206003908101805460ff191660019081179091559154909316845292200154610100900460ff16151514801561193f5750600082815260306020908152604080832054600160a060020a03168352602f90915290206003015460ff620100009091041615156001148061193f575060105460ff1615156001145b156119655760008281526030602052604090205461196590600160a060020a03166137be565b611d14565b600082815260316020526040902054600160a060020a0316158015906119bd5750600082815260316020908152604080832054600160a060020a03168352602f909152902060030154610100900460ff16155b15611b5857600082815260316020908152604080832054600160a060020a03168352602f825290912082516119fa92600190920191840190615b53565b507f716a554dec57e3a217a923b974660c0c8ebee07b09b1ac7d4a3a8f328d10cc89816040518080602001828103825283818151815260200191508051906020019080838360005b83811015611a5a578181015183820152602001611a42565b50505050905090810190601f168015611a875780820380516001836020036101000a031916815260200191505b509250505060405180910390a160008281526031602090815260408083208054600160a060020a039081168552602f9093528184206003908101805461ff00191661010017905590549092168352909120015460ff1615156001148015611b325750600082815260316020908152604080832054600160a060020a03168352602f90915290206003015460ff6201000090910416151560011480611b32575060105460ff1615156001145b156119655760008281526031602052604090205461196590600160a060020a03166137be565b600082815260326020526040902054600160a060020a031615801590611bc25750600082815260326020908152604080832054600160a060020a03168352602f90915290206003015460ff6201000090910416151560011480611bc2575060105460ff1615156001145b15611d1457611bd081614616565b600083815260326020908152604080832054600160a060020a03168352602f825280832060020193909355825181815284518183015284517f0efef3a277391dda0d5747fd15566e85fcd8a4fb588d9853173841e45cc5ae8a9486949293849391840192908601918190849084905b83811015611c57578181015183820152602001611c3f565b50505050905090810190601f168015611c845780820380516001836020036101000a031916815260200191505b509250505060405180910390a1600082815260326020908152604080832054600160a060020a03168352602f9091529020600301805462ff00001916905560105460ff16151560011415611cf35760008281526032602052604090205461196590600160a060020a0316614629565b600082815260326020526040902054611d1490600160a060020a031661488a565b5050565b60105460ff1681565b6000806000806013600160055403600781101515611d3b57fe5b6004020160020154601286815481101515611d5257fe5b9060005260206000209060050201600201541115611dc157600554600019019350611dba60138560078110611d8357fe5b6004020160020154601287815481101515611d9a57fe5b906000526020600020906005020160020154614ac590919063ffffffff16565b9250611f07565b6015546012805487908110611dd257fe5b9060005260206000209060050201600201541015611e375760009350611dba601286815481101515611e0057fe5b906000526020600020906005020160020154601386600781101515611e2157fe5b6004020160020154614ac590919063ffffffff16565b60138460078110611e4457fe5b6004020160020154601286815481101515611e5b57fe5b9060005260206000209060050201600201541115611e7e57600190930192611e37565b60138460078110611e8b57fe5b6004020160020154601286815481101515611ea257fe5b9060005260206000209060050201600201541415611ec35760009250611f07565b611ed76013600019860160078110611d8357fe5b9150611eeb601286815481101515611e0057fe5b905081811115611f0357600184039350819250611f07565b8092505b600084815260346020526040902054600160a060020a03161580611f38575060008481526033602052604090205483105b15611fd3576012805486908110611f4b57fe5b60009182526020808320600360059093020191909101548683526034825260408084208054600160a060020a031916600160a060020a0390931692909217909155603382528083208690556035825291829020879055815187815291517fed4436a39d9a77d0c6c3be4f0e28f018750eb25c5c2d30ded16ef07ced4c00719281900390910190a15b82151561207a576012805486908110611fe857fe5b6000918252602080832060036005909302019190910154603b548352603790915260409091208054600160a060020a031916600160a060020a03909216919091179055601280548690811061203957fe5b6000918252602080832060026005909302019190910154603b8054845260368352604080852092909255805484526038909252909120869055805460010190555b5050505050565b6002805460408051602060018416156101000260001901909316849004601f810184900484028201840190925281815292918301828280156121045780601f106120d957610100808354040283529160200191612104565b820191906000526020600020905b8154815290600101906020018083116120e757829003601f168201915b505050505081565b505050565b600054600160a060020a0316331461212857600080fd5b6010805460ff19811660ff90911615179055565b600054606090600160a060020a0316331461215657600080fd5b6004805460408051602060026001851615610100026000190190941693909304601f810184900484028201840190925281815292918301828280156121dc5780601f106121b1576101008083540402835291602001916121dc565b820191906000526020600020905b8154815290600101906020018083116121bf57829003601f168201915b505085519394506121f893600493506020870192509050615b53565b50600080516020615cf1833981519152818360405180806020018060200180602001848103845260148152602001807f506172616d65746572206a206d6f646966696564000000000000000000000000815250602001848103835286818151815260200191508051906020019080838360008381101561118457818101518382015260200161116c565b33600081815260416020526040808220805490839055905190929183156108fc02918491818181858888f19350505050158015611d14573d6000803e3d6000fd5b600054600160a060020a031633146122da57600080fd5b6122e2612111565b6122ea61126e565b6122f2613919565b6039805460010190819055600554603c8054919092020190556123136134bc565b565b60008054600160a060020a0316331461232d57600080fd5b50600a8054600160a060020a03838116600160a060020a0319831681179093556040805191909216602082018190528183019390935260608082526019908201527f456e74657270726973652077616c6c6574206368616e67656400000000000000608082015290517f223db053947bb148de510715d3c7d8ccd72bdd376752fd735ee7bd0bd0ece5bf9181900360a00190a15050565b602f6020908152600091825260409182902080548351601f6002600019610100600186161502019093169290920491820184900484028101840190945280845290929183919083018282801561245b5780601f106124305761010080835404028352916020019161245b565b820191906000526020600020905b81548152906001019060200180831161243e57829003601f168201915b505050505090806001018054600181600116156101000203166002900480601f0160208091040260200160405190810160405280929190818152602001828054600181600116156101000203166002900480156124f95780601f106124ce576101008083540402835291602001916124f9565b820191906000526020600020905b8154815290600101906020018083116124dc57829003601f168201915b50505050600283015460039093015491929160ff808216925061010082048116916201000090041686565b60018054604080516020600284861615610100026000190190941693909304601f810184900484028201840190925281815292918301828280156121045780601f106120d957610100808354040283529160200191612104565b60085481565b60055481565b612592615b34565b61259a615b34565b60005b60055481101561262857600081815260346020526040902054600160a060020a03161561260c576000818152603560205260409020546012805490919081106125e257fe5b906000526020600020906005020160020154828260078110151561260257fe5b6020020152612620565b600082826007811061261a57fe5b60200201525b60010161259d565b50919050565b600054600160a060020a0316331461264557600080fd5b6040805160808101825285815260208101859052908101839052606081018290526013866007811061267357fe5b600402016000820151816000019080519060200190612693929190615b53565b5060208281015180516126ac9260018501920190615b53565b50604082015160028201556060909101516003909101555050505050565b603e54600160a060020a031681565b600054600160a060020a031633146126f057600080fd5b60008054604051600160a060020a03909116917ff8df31144d9c2f0f6b59d69b8b98abd5459d07f2742c4df920b25aae33c6482091a260008054600160a060020a0319169055565b600a54600160a060020a031681565b61274f615c18565b6000805481908190600160a060020a0316331461276b57600080fd5b5060005b60055481101561163c579150816013816007811061278957fe5b6040805160049290920292909201805460a06020601f60026000196101006001871615020190941693909304928301819004028401810190945260808301818152929391928492909184918401828280156128255780601f106127fa57610100808354040283529160200191612825565b820191906000526020600020905b81548152906001019060200180831161280857829003601f168201915b50505050508152602001600182018054600181600116156101000203166002900480601f0160208091040260200160405190810160405280929190818152602001828054600181600116156101000203166002900480156128c75780601f1061289c576101008083540402835291602001916128c7565b820191906000526020600020905b8154815290600101906020018083116128aa57829003601f168201915b505050505081526020016002820154815260200160038201548152505093508060010191505b600554821015612a90576013826007811061290457fe5b600402016002015484604001511115612a85576013826007811061292457fe5b6040805160049290920292909201805460a06020601f60026000196101006001871615020190941693909304928301819004028401810190945260808301818152929391928492909184918401828280156129c05780601f10612995576101008083540402835291602001916129c0565b820191906000526020600020905b8154815290600101906020018083116129a357829003601f168201915b50505050508152602001600182018054600181600116156101000203166002900480601f016020809104026020016040519081016040528092919081815260200182805460018160011615610100020316600290048015612a625780601f10612a3757610100808354040283529160200191612a62565b820191906000526020600020905b815481529060010190602001808311612a4557829003601f168201915b505050505081526020016002820154815260200160038201548152505093508192505b6001909101906128ed565b828114612b7b5760138160078110612aa457fe5b6004020160138460078110612ab557fe5b6004020160008201816000019080546001816001161561010002031660029004612ae0929190615c41565b5060018201816001019080546001816001161561010002031660029004612b08929190615c41565b50600282810154908201556003918201549101558360138260078110612b2a57fe5b600402016000820151816000019080519060200190612b4a929190615b53565b506020828101518051612b639260018501920190615b53565b50604082015160028201556060909101516003909101555b60010161276f565b612b8c81611651565b612b9581613d20565b50565b60008054600160a060020a03163314612bb057600080fd5b50600880549082905560408051602081018390528082018490526060808252601a908201527f4f7261636c697a6520676173206c696d6974206368616e67656400000000000060808201529051600080516020615cd18339815191529181900360a00190a15050565b600054606090600160a060020a03163314612c3357600080fd5b60018054604080516020600284861615610100026000190190941693909304601f81018490048402820184019092528181529291830182828015612cb85780601f10612c8d57610100808354040283529160200191612cb8565b820191906000526020600020905b815481529060010190602001808311612c9b57829003601f168201915b50508551939450612cd493600193506020870192509050615b53565b50600080516020615cf1833981519152818360405180806020018060200180602001848103845260148152602001807f506172616d657465722062206d6f646966696564000000000000000000000000815250602001848103835286818151815260200191508051906020019080838360008381101561118457818101518382015260200161116c565b60366020526000908152604090205481565b60008054600160a060020a03163314612d8857600080fd5b50600680549082905560408051602081018390528082018490526060808252601d908201527f47656e6572617465207469636b6574207072696365206368616e67656400000060808201529051600080516020615cd18339815191529181900360a00190a15050565b60386020526000908152604090205481565b600054600160a060020a031681565b600054600160a060020a03163314612e2957600080fd5b600554603a541415612e4f57612e3d612747565b6000603a55612e4a612111565b612313565b306000818152602f60205260409020600301805461ffff1916905561231390612b83565b60138160078110612e8057fe5b60040201805460408051602060026001851615610100026000190190941693909304601f81018490048402820184019092528181529293508391830182828015612f0b5780601f10612ee057610100808354040283529160200191612f0b565b820191906000526020600020905b815481529060010190602001808311612eee57829003601f168201915b505050505090806001018054600181600116156101000203166002900480601f016020809104026020016040519081016040528092919081815260200182805460018160011615610100020316600290048015612fa95780601f10612f7e57610100808354040283529160200191612fa9565b820191906000526020600020905b815481529060010190602001808311612f8c57829003601f168201915b5050505050908060020154908060030154905084565b60095481565b6003805460408051602060026001851615610100026000190190941693909304601f810184900484028201840190925281815292918301828280156121045780601f106120d957610100808354040283529160200191612104565b600054606090600160a060020a0316331461303a57600080fd5b6003805460408051602060026001851615610100026000190190941693909304601f810184900484028201840190925281815292918301828280156130c05780601f10613095576101008083540402835291602001916130c0565b820191906000526020600020905b8154815290600101906020018083116130a357829003601f168201915b505085519394506130dc93600393506020870192509050615b53565b50600080516020615cf1833981519152818360405180806020018060200180602001848103845260148152602001807f506172616d657465722070206d6f646966696564000000000000000000000000815250602001848103835286818151815260200191508051906020019080838360008381101561118457818101518382015260200161116c565b601280548290811061317457fe5b60009182526020918290206005919091020180546040805160026001841615610100026000190190931692909204601f81018590048502830185019091528082529193509183919083018282801561320d5780601f106131e25761010080835404028352916020019161320d565b820191906000526020600020905b8154815290600101906020018083116131f057829003601f168201915b505050505090806001018054600181600116156101000203166002900480601f0160208091040260200160405190810160405280929190818152602001828054600181600116156101000203166002900480156132ab5780601f10613280576101008083540402835291602001916132ab565b820191906000526020600020905b81548152906001019060200180831161328e57829003601f168201915b505050506002830154600384015460049094015492939092600160a060020a03909116915085565b6004805460408051602060026001851615610100026000190190941693909304601f810184900484028201840190925281815292918301828280156121045780601f106120d957610100808354040283529160200191612104565b30315b90565b600080548190600160a060020a0316331461334e57600080fd5b6040805160a0810182528881526020808201899052918101879052600160a060020a03861660608201526080810185905260128054600181810180845560009390935283518051919593949360059093027fbb8a6a4669ba250d26cd7a459eca9d215f8307e33aebe50379bc5a3617ec344401926133d192849290910190615b53565b5060208281015180516133ea9260018501920190615b53565b50604082015160028201556060820151600382018054600160a060020a031916600160a060020a0390921691909117905560809091015160049091015503603d555095945050505050565b603c5481565b60008054600160a060020a0316331461345357600080fd5b506007805490829055604080516020810183905280820184905260608082526019908201527f53656c6c207469636b6574207072696365206368616e6765640000000000000060808201529051600080516020615cd18339815191529181900360a00190a15050565b60005b60055481101561361f576000818152603360209081526040808320839055603482528083208054600160a060020a031916905560358252808320929092558151808301909252600182527f3000000000000000000000000000000000000000000000000000000000000000908201526013826007811061353b57fe5b600402016000019080519060200190613555929190615b53565b5060408051808201909152600181527f300000000000000000000000000000000000000000000000000000000000000060208201526013826007811061359757fe5b6004020160010190805190602001906135b1929190615b53565b506000601382600781106135c157fe5b60040201600201819055506039546013826007811015156135de57fe5b60040201600301556000818152603660209081526040808320839055603782528083208054600160a060020a031916905560389091528120556001016134bf565b506000603b55565b603a5481565b601180548290811061363b57fe5b60009182526020909120600790910201805460018201546002830154600384015460048501546005860154600690960154949650600160a060020a039093169491939092919087565b60008054600160a060020a0316331461369c57600080fd5b506005805490829055604080516020810183905280820184905260608082526019908201527f53656c6c207469636b6574207072696365206368616e6765640000000000000060808201529051600080516020615cd18339815191529181900360a00190a15050565b60008054600160a060020a0316331461371d57600080fd5b506009805490829055604080516020810183905280820184905260608082526021908201527f4f7261636c697a6520637573746f6d20676173207072696365206368616e676560808201527f640000000000000000000000000000000000000000000000000000000000000060a08201529051600080516020615cd18339815191529181900360c00190a15050565b60065481565b60395481565b603b5481565b60006137cb600954613e34565b604080516020808252601a908201527f41736b696e6720666f722061206e6577207469636b65742e2e2e0000000000008183015290517f096835e36c2ccea88ff2b3aca87dfc938b977e52ea656873ff76a8dba50d4d349181900360600190a16138756040805190810160405280600c81526020017f576f6c6672616d416c706861000000000000000000000000000000000000000081525061386d84614ad7565b60085461401c565b60009081526032602052604090208054600160a060020a031916600160a060020a03939093169290921790915550565b60075481565b60336020526000908152604090205481565b603760205260009081526040902054600160a060020a031681565b603f54600160a060020a031681565b600054600160a060020a031633146138fe57600080fd5b612b958161536c565b60416020526000908152604090205481565b6000805481908190819081908190600160a060020a0316331461393b57600080fd5b603e54600160a060020a03908116600090815260416020526040808220829055603f548316825280822082905580549092168152908120556139853031600763ffffffff6153dc16565b955061399886600a63ffffffff61540516565b95506139ab86600663ffffffff6153dc16565b94506139be86600363ffffffff6153dc16565b93506139d186600163ffffffff6153dc16565b92506139e485600a63ffffffff61540516565b94506139f784600a63ffffffff61540516565b9350613a0a83600a63ffffffff61540516565b9250603c5491505b603c5460055401821015613aed57601180546000919084908110613a3257fe5b6000918252602090912060016007909202010154600160a060020a031614613ae2578460416000601185815481101515613a6857fe5b6000918252602080832060016007909302019190910154600160a060020a031683528201929092526040019020805490910190556011805483908110613aaa57fe5b6000918252602090912060016007909202010154603e8054600160a060020a031916600160a060020a03909216919091179055613aed565b600190910190613a12565b6001909101905b603c5460055401821015613bcf57601180546000919084908110613b1457fe5b6000918252602090912060016007909202010154600160a060020a031614613bc4578360416000601185815481101515613b4a57fe5b6000918252602080832060016007909302019190910154600160a060020a031683528201929092526040019020805490910190556011805483908110613b8c57fe5b6000918252602090912060016007909202010154603f8054600160a060020a031916600160a060020a03909216919091179055613bcf565b600190910190613af4565b6001909101905b603c5460055401821015613cb157601180546000919084908110613bf657fe5b6000918252602090912060016007909202010154600160a060020a031614613ca6578260416000601185815481101515613c2c57fe5b6000918252602080832060016007909302019190910154600160a060020a031683528201929092526040019020805490910190556011805483908110613c6e57fe5b600091825260209091206001600790920201015460408054600160a060020a031916600160a060020a03909216919091179055613cb1565b600190910190613bd6565b613cc33031600363ffffffff6153dc16565b9050613cd681600a63ffffffff61540516565b600a54604051919250600160a060020a03169082156108fc029083906000818181858888f19350505050158015613d11573d6000803e3d6000fd5b50505050505050565b603d5481565b6000613d2d600954613e34565b604080516020808252601f908201527f41736b696e6720666f722061206e6577206920706172616d657465722e2e2e008183015290517f096835e36c2ccea88ff2b3aca87dfc938b977e52ea656873ff76a8dba50d4d349181900360600190a1613e046040805190810160405280600c81526020017f576f6c6672616d416c70686100000000000000000000000000000000000000008152506040805190810160405280600f81526020017f342072616e646f6d206e756d626572000000000000000000000000000000000081525060085461401c565b60009081526031602052604090208054600160a060020a031916600160a060020a03939093169290921790915550565b600b54600160a060020a03161580613e5e5750600b54613e5c90600160a060020a031661541a565b155b15613e6f57613e6d600061541e565b505b600b60009054906101000a9004600160a060020a0316600160a060020a03166338cc48316040518163ffffffff1660e060020a028152600401602060405180830381600087803b158015613ec257600080fd5b505af1158015613ed6573d6000803e3d6000fd5b505050506040513d6020811015613eec57600080fd5b5051600c54600160a060020a03908116911614613fa257600b60009054906101000a9004600160a060020a0316600160a060020a03166338cc48316040518163ffffffff1660e060020a028152600401602060405180830381600087803b158015613f5657600080fd5b505af1158015613f6a573d6000803e3d6000fd5b505050506040513d6020811015613f8057600080fd5b5051600c8054600160a060020a031916600160a060020a039092169190911790555b600c54604080517fca6ad1e4000000000000000000000000000000000000000000000000000000008152600481018490529051600160a060020a039092169163ca6ad1e49160248082019260009290919082900301818387803b15801561400857600080fd5b505af115801561207a573d6000803e3d6000fd5b600b546000908190600160a060020a0316158061404b5750600b5461404990600160a060020a031661541a565b155b1561405c5761405a600061541e565b505b600b60009054906101000a9004600160a060020a0316600160a060020a03166338cc48316040518163ffffffff1660e060020a028152600401602060405180830381600087803b1580156140af57600080fd5b505af11580156140c3573d6000803e3d6000fd5b505050506040513d60208110156140d957600080fd5b5051600c54600160a060020a0390811691161461418f57600b60009054906101000a9004600160a060020a0316600160a060020a03166338cc48316040518163ffffffff1660e060020a028152600401602060405180830381600087803b15801561414357600080fd5b505af1158015614157573d6000803e3d6000fd5b505050506040513d602081101561416d57600080fd5b5051600c8054600160a060020a031916600160a060020a039092169190911790555b600c54604080517f2ef3accc0000000000000000000000000000000000000000000000000000000081526024810186905260048101918252875160448201528751600160a060020a0390931692632ef3accc9289928892829160640190602086019080838360005b8381101561420f5781810151838201526020016141f7565b50505050905090810190601f16801561423c5780820380516001836020036101000a031916815260200191505b509350505050602060405180830381600087803b15801561425c57600080fd5b505af1158015614270573d6000803e3d6000fd5b505050506040513d602081101561428657600080fd5b50519050670de0b6b3a76400003a8402018111156142a75760009150614419565b600c546040517fc51be90f00000000000000000000000000000000000000000000000000000000815260006004820181815260648301879052608060248401908152895160848501528951600160a060020a039095169463c51be90f948794938c938c938c93604481019160a49091019060208801908083838c5b8381101561433a578181015183820152602001614322565b50505050905090810190601f1680156143675780820380516001836020036101000a031916815260200191505b50838103825285518152855160209182019187019080838360005b8381101561439a578181015183820152602001614382565b50505050905090810190601f1680156143c75780820380516001836020036101000a031916815260200191505b5096505050505050506020604051808303818588803b1580156143e957600080fd5b505af11580156143fd573d6000803e3d6000fd5b50505050506040513d602081101561441457600080fd5b505191505b509392505050565b600b54600090600160a060020a0316158061444e5750600b5461444c90600160a060020a031661541a565b155b1561445f5761445d600061541e565b505b600b60009054906101000a9004600160a060020a0316600160a060020a03166338cc48316040518163ffffffff1660e060020a028152600401602060405180830381600087803b1580156144b257600080fd5b505af11580156144c6573d6000803e3d6000fd5b505050506040513d60208110156144dc57600080fd5b5051600c54600160a060020a0390811691161461459257600b60009054906101000a9004600160a060020a0316600160a060020a03166338cc48316040518163ffffffff1660e060020a028152600401602060405180830381600087803b15801561454657600080fd5b505af115801561455a573d6000803e3d6000fd5b505050506040513d602081101561457057600080fd5b5051600c8054600160a060020a031916600160a060020a039092169190911790555b600c60009054906101000a9004600160a060020a0316600160a060020a031663c281d19e6040518163ffffffff1660e060020a028152600401602060405180830381600087803b1580156145e557600080fd5b505af11580156145f9573d6000803e3d6000fd5b505050506040513d602081101561460f57600080fd5b5051905090565b6000614623826000615428565b92915050565b60408051600160a060020a0383166000908152602f602090815290839020805460026001821615610100026000190190911604601f8101839004909202830160a0908101909452608083018281529293849392908401828280156146ce5780601f106146a3576101008083540402835291602001916146ce565b820191906000526020600020905b8154815290600101906020018083116146b157829003601f168201915b50505050508152602001602f600084600160a060020a0316600160a060020a031681526020019081526020016000206001018054600181600116156101000203166002900480601f0160208091040260200160405190810160405280929190818152602001828054600181600116156101000203166002900480156147945780601f1061476957610100808354040283529160200191614794565b820191906000526020600020905b81548152906001019060200180831161477757829003601f168201915b5050509183525050600160a060020a0383166000908152602f60209081526040918290206002015490830152603954910152603a54601390600781106147d657fe5b6004020160008201518160000190805190602001906147f6929190615b53565b50602082810151805161480f9260018501920190615b53565b50604082810151600280840191909155606090930151600390920191909155603a80546001019055600160a060020a0383166000908152602f60209081529082902090920154815190815290517fec2692b386f7e992f219e405f018eeaf8da1b95736760596812e564f2e709cfd929181900390910190a150565b60408051600160a060020a0383166000908152602f602090815283822080546002600180831615610100026000190190921604601f8101849004909302850160c090810190965260a08501838152939590946012949093849391928401828280156149365780601f1061490b57610100808354040283529160200191614936565b820191906000526020600020905b81548152906001019060200180831161491957829003601f168201915b50505050508152602001602f600087600160a060020a0316600160a060020a031681526020019081526020016000206001018054600181600116156101000203166002900480601f0160208091040260200160405190810160405280929190818152602001828054600181600116156101000203166002900480156149fc5780601f106149d1576101008083540402835291602001916149fc565b820191906000526020600020905b8154815290600101906020018083116149df57829003601f168201915b5050509183525050600160a060020a0386166000818152602f6020908152604080832060020154828601528401929092526039546060909301929092528354600181018086559483529181902083518051600590940290910192614a639284920190615b53565b506020828101518051614a7c9260018501920190615b53565b50604082015160028201556060820151600382018054600160a060020a031916600160a060020a03909216919091179055608090910151600490910155039050611d1481611d21565b600082821115614ad157fe5b50900390565b604080518082018252600c81527f286d6f642828312f2831305e000000000000000000000000000000000000000060208083019190915260028054845160018216156101000260001901909116829004601f81018490048402820184019095528481526060948594614cae9490939190830182828015614b985780601f10614b6d57610100808354040283529160200191614b98565b820191906000526020600020905b815481529060010190602001808311614b7b57829003601f168201915b505060408051808201825260018082527f2d00000000000000000000000000000000000000000000000000000000000000602080840191909152600160a060020a038d166000908152602f825284902080548551600294821615610100026000190190911693909304601f8101839004830284018301909552848352929650909450909250830182828015614c6e5780601f10614c4357610100808354040283529160200191614c6e565b820191906000526020600020905b815481529060010190602001808311614c5157829003601f168201915b50505050506040805190810160405280600681526020017f29292a31305e000000000000000000000000000000000000000000000000000081525061559a565b60038054604080516020601f60026000196101006001881615020190951694909404938401819004810282018101909252828152939450614e4293859390929091830182828015614d405780601f10614d1557610100808354040283529160200191614d40565b820191906000526020600020905b815481529060010190602001808311614d2357829003601f168201915b5050604080518082018252600581527f2c31305e2800000000000000000000000000000000000000000000000000000060208083019190915260048054845160026001831615610100026000190190921691909104601f8101849004840282018401909552848152929650919450909250830182828015614e025780601f10614dd757610100808354040283529160200191614e02565b820191906000526020600020905b815481529060010190602001808311614de557829003601f168201915b50505050506040805190810160405280600181526020017f2b0000000000000000000000000000000000000000000000000000000000000081525061559a565b905061500381602f600086600160a060020a0316600160a060020a031681526020019081526020016000206001018054600181600116156101000203166002900480601f016020809104026020016040519081016040528092919081815260200182805460018160011615610100020316600290048015614f045780601f10614ed957610100808354040283529160200191614f04565b820191906000526020600020905b815481529060010190602001808311614ee757829003601f168201915b5050604080518082018252600e81527f29292d6d6f642828312f2831305e00000000000000000000000000000000000060208083019190915260028054845160018216156101000260001901909116829004601f8101849004840282018401909552848152929650919450909250830182828015614fc35780601f10614f9857610100808354040283529160200191614fc3565b820191906000526020600020905b815481529060010190602001808311614fa657829003601f168201915b50505050506040805190810160405280600181526020017f2d0000000000000000000000000000000000000000000000000000000000000081525061559a565b600160a060020a0384166000908152602f602090815260409182902080548351601f600260001961010060018616150201909316929092049182018490048402810184019094528084529394506151aa938593928301828280156150a85780601f1061507d576101008083540402835291602001916150a8565b820191906000526020600020905b81548152906001019060200180831161508b57829003601f168201915b5050604080518082018252600681527f29292a31305e000000000000000000000000000000000000000000000000000060208083019190915260038054845160026001831615610100026000190190921691909104601f810184900484028201840190955284815292965091945090925083018282801561516a5780601f1061513f5761010080835404028352916020019161516a565b820191906000526020600020905b81548152906001019060200180831161514d57829003601f168201915b50505050506040805190810160405280600481526020017f2c31305e0000000000000000000000000000000000000000000000000000000081525061559a565b60408051808201825260018082527f2800000000000000000000000000000000000000000000000000000000000000602080840191909152600160a060020a0388166000908152602f8252849020820180548551600294821615610100026000190190911693909304601f810183900483028401830190955284835294955061536594869490918301828280156152825780601f1061525757610100808354040283529160200191615282565b820191906000526020600020905b81548152906001019060200180831161526557829003601f168201915b5050604080518082018252600781527f2929292f31305e00000000000000000000000000000000000000000000000000602080830191909152600160a060020a038d166000908152602f8252839020600190810180548551600293821615610100026000190190911692909204601f8101849004840283018401909552848252929650945090925083018282801561535b5780601f106153305761010080835404028352916020019161535b565b820191906000526020600020905b81548152906001019060200180831161533e57829003601f168201915b505050505061559a565b9392505050565b600160a060020a038116151561538157600080fd5b60008054604051600160a060020a03808516939216917f8be0079c531659141344cd1fd0a4f28419497f9722a3daafe3b4186f6b6457e091a360008054600160a060020a031916600160a060020a0392909216919091179055565b60008215156153ed57506000614623565b508181028183828115156153fd57fe5b041461462357fe5b6000818381151561541257fe5b049392505050565b3b90565b60006146236157fb565b6000828180805b835181101561557d5783517f30000000000000000000000000000000000000000000000000000000000000009085908390811061546857fe5b90602001015160f860020a900460f860020a02600160f860020a031916101580156154de575083517f3900000000000000000000000000000000000000000000000000000000000000908590839081106154be57fe5b90602001015160f860020a900460f860020a02600160f860020a03191611155b156155375781156154fd578515156154f55761557d565b600019909501945b600a830292506030848281518110151561551357fe5b90602001015160f860020a900460f860020a0260f860020a90040383019250615575565b838181518110151561554557fe5b90602001015160f860020a900460f860020a02600160f860020a031916602e60f860020a02141561557557600191505b60010161542f565b600086111561558f5785600a0a830292505b509095945050505050565b6060806060806060806060806000808e98508d97508c96508b95508a94508451865188518a518c51010101016040519080825280601f01601f1916602001820160405280156155f3578160200160208202803883390190505b50935083925060009150600090505b885181101561566057888181518110151561561957fe5b90602001015160f860020a900460f860020a02838380600101945081518110151561564057fe5b906020010190600160f860020a031916908160001a905350600101615602565b5060005b87518110156156c257878181518110151561567b57fe5b90602001015160f860020a900460f860020a0283838060010194508151811015156156a257fe5b906020010190600160f860020a031916908160001a905350600101615664565b5060005b86518110156157245786818151811015156156dd57fe5b90602001015160f860020a900460f860020a02838380600101945081518110151561570457fe5b906020010190600160f860020a031916908160001a9053506001016156c6565b5060005b855181101561578657858181518110151561573f57fe5b90602001015160f860020a900460f860020a02838380600101945081518110151561576657fe5b906020010190600160f860020a031916908160001a905350600101615728565b5060005b84518110156157e85784818151811015156157a157fe5b90602001015160f860020a900460f860020a0283838060010194508151811015156157c857fe5b906020010190600160f860020a031916908160001a90535060010161578a565b50909d9c50505050505050505050505050565b60008061581b731d3b2638a7cc9f2cb3d298a3da7a90b67e5506ed61541a565b111561588b57600b8054600160a060020a031916731d3b2638a7cc9f2cb3d298a3da7a90b67e5506ed178155604080518082019091529081527f6574685f6d61696e6e6574000000000000000000000000000000000000000000602082015261588390615b21565b506001613331565b60006158aa73c03a2615d5efaf5f49f60b7bb6583eaec212fdf161541a565b111561591357600b8054600160a060020a03191673c03a2615d5efaf5f49f60b7bb6583eaec212fdf117905560408051808201909152600c81527f6574685f726f707374656e330000000000000000000000000000000000000000602082015261588390615b21565b600061593273b7a07bcf2ba2f2703b24c0691b5278999c59ac7e61541a565b111561599b57600b8054600160a060020a03191673b7a07bcf2ba2f2703b24c0691b5278999c59ac7e17905560408051808201909152600981527f6574685f6b6f76616e0000000000000000000000000000000000000000000000602082015261588390615b21565b60006159ba73146500cfd35b22e4a392fe0adc06de1a1368ed4861541a565b1115615a2257600b8054600160a060020a03191673146500cfd35b22e4a392fe0adc06de1a1368ed48178155604080518082019091529081527f6574685f72696e6b656279000000000000000000000000000000000000000000602082015261588390615b21565b6000615a41736f485c8bf6fc43ea212e93bbf8ce046c7f1cb47561541a565b1115615a755750600b8054600160a060020a031916736f485c8bf6fc43ea212e93bbf8ce046c7f1cb4751790556001613331565b6000615a947320e12a1f859b3feae5fb2a0a32c18f5a65555bbf61541a565b1115615ac85750600b8054600160a060020a0319167320e12a1f859b3feae5fb2a0a32c18f5a65555bbf1790556001613331565b6000615ae77351efaf4c8b3c9afbd5ab9f4bbc82784ab6ef8faa61541a565b1115615b1b5750600b8054600160a060020a0319167351efaf4c8b3c9afbd5ab9f4bbc82784ab6ef8faa1790556001613331565b50600090565b8051611d1490600d906020840190615b53565b60e0604051908101604052806007906020820280388339509192915050565b828054600181600116156101000203166002900490600052602060002090601f016020900481019282601f10615b9457805160ff1916838001178555615bc1565b82800160010185558215615bc1579182015b82811115615bc1578251825591602001919060010190615ba6565b50615bcd929150615cb6565b5090565b60e060405190810160405280600081526020016000600160a060020a0316815260200160008152602001600081526020016000815260200160008152602001600081525090565b608060405190810160405280606081526020016060815260200160008152602001600081525090565b828054600181600116156101000203166002900490600052602060002090601f016020900481019282601f10615c7a5780548555615bc1565b82800160010185558215615bc157600052602060002091601f016020900482015b82811115615bc1578254825591600101919060010190615c9b565b61333191905b80821115615bcd5760008155600101615cbc56009bc068999fb1a0aac007a9b44ca6322a376441f42706bf5163600bb3d1a731647ecbd54b3baea533cf57ef049f9e04554be6a660d6dacd477488066eedf27beea165627a7a723058205712c6858344c614a5eda3d54f5e890c482536bdee4097ddc70426704340af7d0029",
  "source": "pragma solidity ^0.4.20;\n\nimport \"./Lucky7TicketFactory.sol\";\n\ncontract Lucky7Ballot is Lucky7TicketFactory{\n    \n    \n    uint public initialLucky7TicketPosition=0;\n    uint public currentTicketID=0;\n    address public lastFirstPrize = address(0);\n    address public lastSecondPrize = address(0);\n    address public lastThirdPrize = address(0);\n\n    mapping (address => uint) public pendingWithdrawals;\n\n\n    function Lucky7Ballot() payable {\n        \n    }\n    \n    function _generateLucky7Number() public onlyOwner{\n        if(indexForLucky7Array == numberOfLucky7Numbers){\n            _orderLucky7Numbers();\n            indexForLucky7Array = 0;\n            toggleLucky7Setting();\n        }\n        else{\n            userValues[this].muReady = false;\n            userValues[this].iReady = false;\n            _generateTicket(this);\n        }\n    }\n    \n    function setNewGame()                                      \n        public \n        onlyOwner \n    {\n        //Increase drawNumber\n        //Set on Lucky7NumbersSetting\n        toggleLucky7Setting();\n        //Deliver Prizes\n        //Deliver lot for enterprise\n        _orderLucky7Tickets();\n        _deliverPrizes();\n        drawNumber++;\n        //Set initial index for the Lucky7Tickets for the next game\n        initialLucky7TicketPosition+=drawNumber*numberOfLucky7Numbers;\n        _cleanMappings();\n    }\n    \n    function _orderLucky7Numbers() public onlyOwner{\n        Lucky7Number memory smallest;\n        uint aux;\n        uint j;\n        uint i;\n        for(i=0; i<numberOfLucky7Numbers; i++){\n            aux = i;\n            smallest = lucky7NumbersArray[i];\n            for (j=i+1; j<numberOfLucky7Numbers; j++){\n                if(smallest.ticketValue>lucky7NumbersArray[j].ticketValue){\n                    smallest = lucky7NumbersArray[j];\n                    aux = j;\n                }\n            }\n            if(aux!=i){\n                lucky7NumbersArray[aux]=lucky7NumbersArray[i];\n                lucky7NumbersArray[i] = smallest;\n            }\n        }\n    }\n    \n    function _orderLucky7Tickets() public onlyOwner{\n        Lucky7Ticket memory smallest;\n        uint aux;\n        uint j;\n        uint i;\n        for (i=0; i<numberOfLucky7Numbers; i++){\n            lucky7TicketsArray.push(\n                // struct Lucky7Ticket{\n                //     uint difference;\n                //     address owner;\n                //     uint ticketID;\n                //     uint ticketValue;\n                //     uint lucky7Number;\n                //     uint lucky7NumberID;\n                //     uint drawID;\n                // }\n                Lucky7Ticket(\n                    lucky7TicketDifference[i],\n                    lucky7TicketOwner[i],\n                    lucky7TicketID[i],\n                    ticketsArray[lucky7TicketID[i]].ticketValue,\n                    lucky7NumbersArray[i].ticketValue,\n                    i,\n                    drawNumber)\n                    );\n        }\n        for(i=initialLucky7TicketPosition; i<numberOfLucky7Numbers+initialLucky7TicketPosition; i++){\n            aux = i;\n            smallest = lucky7TicketsArray[i];\n            for (j=i+1; j<numberOfLucky7Numbers+initialLucky7TicketPosition; j++){\n                if(smallest.difference>lucky7TicketsArray[j].difference){\n                    smallest = lucky7TicketsArray[j];\n                    aux = j;\n                }\n            }\n            if(aux!=i){\n                lucky7TicketsArray[aux]=lucky7TicketsArray[i];\n                lucky7TicketsArray[i] = smallest;\n            }\n        }\n    }\n\n    function _deliverPrizes() public onlyOwner{\n        pendingWithdrawals[lastFirstPrize] = 0;\n        pendingWithdrawals[lastSecondPrize] = 0;\n        pendingWithdrawals[lastThirdPrize] = 0;\n        uint winnersPrize = address(this).balance.mul(7);\n        winnersPrize = winnersPrize.div(10);\n        uint firstPrize = winnersPrize.mul(6);\n        uint secondPrize = winnersPrize.mul(3);\n        uint thirdPrize = winnersPrize.mul(1);\n        firstPrize = firstPrize.div(10);\n        secondPrize = secondPrize.div(10);\n        thirdPrize = thirdPrize.div(10);\n        uint i;\n        for(i=initialLucky7TicketPosition; i<numberOfLucky7Numbers+initialLucky7TicketPosition; i++){\n            if(lucky7TicketsArray[i].owner!=address(0x0)){\n                pendingWithdrawals[lucky7TicketsArray[i].owner] += firstPrize;\n                lastFirstPrize = lucky7TicketsArray[i].owner;\n                break;\n            }\n        }\n        \n        for(i++; i<numberOfLucky7Numbers+initialLucky7TicketPosition; i++){\n            if(lucky7TicketsArray[i].owner!=address(0x0)){\n                pendingWithdrawals[lucky7TicketsArray[i].owner] += secondPrize;\n                lastSecondPrize = lucky7TicketsArray[i].owner;\n                break;\n            }\n        }\n        \n        for(i++; i<numberOfLucky7Numbers+initialLucky7TicketPosition; i++){\n            if(lucky7TicketsArray[i].owner!=address(0x0)){\n                pendingWithdrawals[lucky7TicketsArray[i].owner] += thirdPrize;\n                lastThirdPrize = lucky7TicketsArray[i].owner;\n                break;\n            }\n        }\n        uint enterprisePrize = address(this).balance.mul(3);\n        enterprisePrize = enterprisePrize.div(10);\n        enterpriseWallet.transfer(enterprisePrize);\n    }\n    //Should clean lucky7TicketDifference[i], lucky7TicketOwner[i], lucky7TicketID[i],\n    function _cleanMappings() public{\n        for(uint i=0; i<numberOfLucky7Numbers; i++){\n            lucky7TicketDifference[i]=0;\n            lucky7TicketOwner[i]=0;\n            lucky7TicketID[i]=0;\n            lucky7NumbersArray[i].mu=\"0\";\n            lucky7NumbersArray[i].i=\"0\";\n            lucky7NumbersArray[i].ticketValue=0;\n            lucky7NumbersArray[i].drawID=drawNumber;\n            ExactLucky7TicketValue[i]=0;\n            ExactLucky7TicketOwner[i]=0;\n            ExactLucky7TicketID[i]=0;\n        }\n        indexForExactLucky7Ticket =0;\n    }\n\n    function withdraw() public {\n        uint amount = pendingWithdrawals[msg.sender];\n        pendingWithdrawals[msg.sender] = 0;\n        msg.sender.transfer(amount);\n    }\n\n\n    //For front-end conection\n    function getlucky7Numbers() public view returns (uint[7]) {\n        uint[7] luckySevenNumbers;\n        for(uint i=0; i<numberOfLucky7Numbers; i++){\n            luckySevenNumbers[i]=lucky7NumbersArray[i].ticketValue;\n        }\n        return luckySevenNumbers;\n    }\n\n    function getlucky7Tickets() public view returns (uint[7]) {\n        uint[7] memory luckySevenTickets;\n        for(uint i=0; i<numberOfLucky7Numbers; i++){\n            if(lucky7TicketOwner[i]!=address(0x0)){\n                luckySevenTickets[i] = ticketsArray[lucky7TicketID[i]].ticketValue;\n            }\n            else{\n                luckySevenTickets[i]=0;\n            }\n        }\n        return luckySevenTickets;\n    }\n\n    //For testing purposes\n    function insertCustomizedLucky7Number(uint _id, string _mu, string _i, uint _ticketValue,uint _drawNumber) public onlyOwner{\n        lucky7NumbersArray[_id] = Lucky7Number(_mu, _i, _ticketValue, _drawNumber);\n    }\n    \n\n    function insertCustomizedTicket(string _mu, string _i, uint _ticketValue,address _ticketOwner, uint _drawNumber) \n        public \n        onlyOwner \n        returns (uint){\n            uint id = ticketsArray.push(Ticket(_mu,_i,_ticketValue,_ticketOwner,_drawNumber)) - 1;\n            currentTicketID = id;\n        }\n    \n    function setIndexForLucky7Array(uint _newValue) public onlyOwner{\n        indexForLucky7Array = _newValue;\n    }\n    \n    function () public payable {\n        \n    }\n}",
  "sourcePath": "/Users/matiasbarrios/Desktop/Proyecto Consensys/luckyseven/contracts/Lucky7Ballot.sol",
  "compiler": {
    "name": "solc",
    "version": "0.4.24+commit.e67f0147.Emscripten.clang"
  },
  "schemaVersion": "2.0.1",
  "updatedAt": "2018-08-26T05:24:17.763Z"
}