{
  "contractName": "Lucky7Ballot",
  "abi": [
    {
      "constant": false,
      "inputs": [
        {
          "name": "_newValue",
          "type": "string"
        }
      ],
      "name": "modifyParameterN",
      "outputs": [],
      "payable": false,
      "stateMutability": "nonpayable",
      "type": "function"
    },
    {
      "constant": true,
      "inputs": [
        {
          "name": "",
          "type": "uint256"
        }
      ],
      "name": "lucky7TicketID",
      "outputs": [
        {
          "name": "",
          "type": "uint256"
        }
      ],
      "payable": false,
      "stateMutability": "view",
      "type": "function"
    },
    {
      "constant": true,
      "inputs": [
        {
          "name": "",
          "type": "uint256"
        }
      ],
      "name": "lucky7TicketOwner",
      "outputs": [
        {
          "name": "",
          "type": "address"
        }
      ],
      "payable": false,
      "stateMutability": "view",
      "type": "function"
    },
    {
      "constant": false,
      "inputs": [
        {
          "name": "_ticketOwner",
          "type": "address"
        }
      ],
      "name": "_askForMuParameter",
      "outputs": [],
      "payable": false,
      "stateMutability": "nonpayable",
      "type": "function"
    },
    {
      "constant": false,
      "inputs": [
        {
          "name": "myid",
          "type": "bytes32"
        },
        {
          "name": "result",
          "type": "string"
        }
      ],
      "name": "__callback",
      "outputs": [],
      "payable": false,
      "stateMutability": "nonpayable",
      "type": "function"
    },
    {
      "constant": true,
      "inputs": [],
      "name": "settingLucky7Numbers",
      "outputs": [
        {
          "name": "",
          "type": "bool"
        }
      ],
      "payable": false,
      "stateMutability": "view",
      "type": "function"
    },
    {
      "constant": false,
      "inputs": [
        {
          "name": "_ticketID",
          "type": "uint256"
        }
      ],
      "name": "_checkForLucky7Ticket",
      "outputs": [],
      "payable": false,
      "stateMutability": "nonpayable",
      "type": "function"
    },
    {
      "constant": true,
      "inputs": [],
      "name": "n",
      "outputs": [
        {
          "name": "",
          "type": "string"
        }
      ],
      "payable": false,
      "stateMutability": "view",
      "type": "function"
    },
    {
      "constant": false,
      "inputs": [
        {
          "name": "myid",
          "type": "bytes32"
        },
        {
          "name": "result",
          "type": "string"
        },
        {
          "name": "proof",
          "type": "bytes"
        }
      ],
      "name": "__callback",
      "outputs": [],
      "payable": false,
      "stateMutability": "nonpayable",
      "type": "function"
    },
    {
      "constant": false,
      "inputs": [],
      "name": "toggleLucky7Setting",
      "outputs": [],
      "payable": false,
      "stateMutability": "nonpayable",
      "type": "function"
    },
    {
      "constant": false,
      "inputs": [
        {
          "name": "_newValue",
          "type": "string"
        }
      ],
      "name": "modifyParameterJ",
      "outputs": [],
      "payable": false,
      "stateMutability": "nonpayable",
      "type": "function"
    },
    {
      "constant": false,
      "inputs": [
        {
          "name": "_newAddress",
          "type": "address"
        }
      ],
      "name": "modifyEnterpriseWallet",
      "outputs": [],
      "payable": false,
      "stateMutability": "nonpayable",
      "type": "function"
    },
    {
      "constant": true,
      "inputs": [
        {
          "name": "",
          "type": "address"
        }
      ],
      "name": "userValues",
      "outputs": [
        {
          "name": "mu",
          "type": "string"
        },
        {
          "name": "i",
          "type": "string"
        },
        {
          "name": "ticketValue",
          "type": "uint256"
        },
        {
          "name": "muReady",
          "type": "bool"
        },
        {
          "name": "iReady",
          "type": "bool"
        },
        {
          "name": "userPaidTicket",
          "type": "bool"
        }
      ],
      "payable": false,
      "stateMutability": "view",
      "type": "function"
    },
    {
      "constant": true,
      "inputs": [],
      "name": "b",
      "outputs": [
        {
          "name": "",
          "type": "string"
        }
      ],
      "payable": false,
      "stateMutability": "view",
      "type": "function"
    },
    {
      "constant": true,
      "inputs": [],
      "name": "oraclizeGasLimit",
      "outputs": [
        {
          "name": "",
          "type": "uint256"
        }
      ],
      "payable": false,
      "stateMutability": "view",
      "type": "function"
    },
    {
      "constant": true,
      "inputs": [],
      "name": "numberOfLucky7Numbers",
      "outputs": [
        {
          "name": "",
          "type": "uint256"
        }
      ],
      "payable": false,
      "stateMutability": "view",
      "type": "function"
    },
    {
      "constant": false,
      "inputs": [],
      "name": "renounceOwnership",
      "outputs": [],
      "payable": false,
      "stateMutability": "nonpayable",
      "type": "function"
    },
    {
      "constant": true,
      "inputs": [],
      "name": "enterpriseWallet",
      "outputs": [
        {
          "name": "",
          "type": "address"
        }
      ],
      "payable": false,
      "stateMutability": "view",
      "type": "function"
    },
    {
      "constant": false,
      "inputs": [
        {
          "name": "_ticketOwner",
          "type": "address"
        }
      ],
      "name": "_generateTicket",
      "outputs": [],
      "payable": false,
      "stateMutability": "nonpayable",
      "type": "function"
    },
    {
      "constant": true,
      "inputs": [],
      "name": "lastSecondPrizeWinner",
      "outputs": [
        {
          "name": "",
          "type": "address"
        }
      ],
      "payable": false,
      "stateMutability": "view",
      "type": "function"
    },
    {
      "constant": false,
      "inputs": [
        {
          "name": "_newValue",
          "type": "uint256"
        }
      ],
      "name": "modifyOraclizeGasLimit",
      "outputs": [],
      "payable": false,
      "stateMutability": "nonpayable",
      "type": "function"
    },
    {
      "constant": false,
      "inputs": [
        {
          "name": "_newValue",
          "type": "string"
        }
      ],
      "name": "modifyParameterB",
      "outputs": [],
      "payable": false,
      "stateMutability": "nonpayable",
      "type": "function"
    },
    {
      "constant": true,
      "inputs": [
        {
          "name": "",
          "type": "uint256"
        }
      ],
      "name": "ExactLucky7TicketValue",
      "outputs": [
        {
          "name": "",
          "type": "uint256"
        }
      ],
      "payable": false,
      "stateMutability": "view",
      "type": "function"
    },
    {
      "constant": false,
      "inputs": [
        {
          "name": "_newValue",
          "type": "uint256"
        }
      ],
      "name": "modifyGenerateTicketPrice",
      "outputs": [],
      "payable": false,
      "stateMutability": "nonpayable",
      "type": "function"
    },
    {
      "constant": true,
      "inputs": [
        {
          "name": "",
          "type": "uint256"
        }
      ],
      "name": "ExactLucky7TicketID",
      "outputs": [
        {
          "name": "",
          "type": "uint256"
        }
      ],
      "payable": false,
      "stateMutability": "view",
      "type": "function"
    },
    {
      "constant": true,
      "inputs": [],
      "name": "owner",
      "outputs": [
        {
          "name": "",
          "type": "address"
        }
      ],
      "payable": false,
      "stateMutability": "view",
      "type": "function"
    },
    {
      "constant": true,
      "inputs": [
        {
          "name": "",
          "type": "uint256"
        }
      ],
      "name": "lucky7NumbersArray",
      "outputs": [
        {
          "name": "mu",
          "type": "string"
        },
        {
          "name": "i",
          "type": "string"
        },
        {
          "name": "ticketValue",
          "type": "uint256"
        },
        {
          "name": "drawID",
          "type": "uint256"
        }
      ],
      "payable": false,
      "stateMutability": "view",
      "type": "function"
    },
    {
      "constant": true,
      "inputs": [],
      "name": "lastFirstPrizeWinner",
      "outputs": [
        {
          "name": "",
          "type": "address"
        }
      ],
      "payable": false,
      "stateMutability": "view",
      "type": "function"
    },
    {
      "constant": true,
      "inputs": [],
      "name": "oraclizeCustomGasPrice",
      "outputs": [
        {
          "name": "",
          "type": "uint256"
        }
      ],
      "payable": false,
      "stateMutability": "view",
      "type": "function"
    },
    {
      "constant": true,
      "inputs": [],
      "name": "p",
      "outputs": [
        {
          "name": "",
          "type": "string"
        }
      ],
      "payable": false,
      "stateMutability": "view",
      "type": "function"
    },
    {
      "constant": false,
      "inputs": [
        {
          "name": "_newValue",
          "type": "string"
        }
      ],
      "name": "modifyParameterP",
      "outputs": [],
      "payable": false,
      "stateMutability": "nonpayable",
      "type": "function"
    },
    {
      "constant": true,
      "inputs": [
        {
          "name": "",
          "type": "uint256"
        }
      ],
      "name": "ticketsArray",
      "outputs": [
        {
          "name": "mu",
          "type": "string"
        },
        {
          "name": "i",
          "type": "string"
        },
        {
          "name": "ticketValue",
          "type": "uint256"
        },
        {
          "name": "owner",
          "type": "address"
        },
        {
          "name": "drawID",
          "type": "uint256"
        }
      ],
      "payable": false,
      "stateMutability": "view",
      "type": "function"
    },
    {
      "constant": true,
      "inputs": [],
      "name": "j",
      "outputs": [
        {
          "name": "",
          "type": "string"
        }
      ],
      "payable": false,
      "stateMutability": "view",
      "type": "function"
    },
    {
      "constant": true,
      "inputs": [],
      "name": "balance",
      "outputs": [
        {
          "name": "",
          "type": "uint256"
        }
      ],
      "payable": false,
      "stateMutability": "view",
      "type": "function"
    },
    {
      "constant": true,
      "inputs": [],
      "name": "initialLucky7TicketPosition",
      "outputs": [
        {
          "name": "",
          "type": "uint256"
        }
      ],
      "payable": false,
      "stateMutability": "view",
      "type": "function"
    },
    {
      "constant": false,
      "inputs": [
        {
          "name": "_newValue",
          "type": "uint256"
        }
      ],
      "name": "modifySellTicketPrice",
      "outputs": [],
      "payable": false,
      "stateMutability": "nonpayable",
      "type": "function"
    },
    {
      "constant": true,
      "inputs": [],
      "name": "indexForLucky7Array",
      "outputs": [
        {
          "name": "",
          "type": "uint256"
        }
      ],
      "payable": false,
      "stateMutability": "view",
      "type": "function"
    },
    {
      "constant": true,
      "inputs": [
        {
          "name": "",
          "type": "uint256"
        }
      ],
      "name": "lucky7TicketsArray",
      "outputs": [
        {
          "name": "difference",
          "type": "uint256"
        },
        {
          "name": "owner",
          "type": "address"
        },
        {
          "name": "ticketID",
          "type": "uint256"
        },
        {
          "name": "ticketValue",
          "type": "uint256"
        },
        {
          "name": "lucky7Number",
          "type": "uint256"
        },
        {
          "name": "lucky7NumberID",
          "type": "uint256"
        },
        {
          "name": "drawID",
          "type": "uint256"
        }
      ],
      "payable": false,
      "stateMutability": "view",
      "type": "function"
    },
    {
      "constant": false,
      "inputs": [
        {
          "name": "_newValue",
          "type": "uint256"
        }
      ],
      "name": "modifyNumberOfLucky7Numbers",
      "outputs": [],
      "payable": false,
      "stateMutability": "nonpayable",
      "type": "function"
    },
    {
      "constant": false,
      "inputs": [
        {
          "name": "_newValue",
          "type": "uint256"
        }
      ],
      "name": "modifyOraclizeCustomGasPrice",
      "outputs": [],
      "payable": false,
      "stateMutability": "nonpayable",
      "type": "function"
    },
    {
      "constant": true,
      "inputs": [],
      "name": "generateTicketPrice",
      "outputs": [
        {
          "name": "",
          "type": "uint256"
        }
      ],
      "payable": false,
      "stateMutability": "view",
      "type": "function"
    },
    {
      "constant": true,
      "inputs": [],
      "name": "drawNumber",
      "outputs": [
        {
          "name": "",
          "type": "uint256"
        }
      ],
      "payable": false,
      "stateMutability": "view",
      "type": "function"
    },
    {
      "constant": true,
      "inputs": [],
      "name": "indexForExactLucky7Ticket",
      "outputs": [
        {
          "name": "",
          "type": "uint256"
        }
      ],
      "payable": false,
      "stateMutability": "view",
      "type": "function"
    },
    {
      "constant": false,
      "inputs": [
        {
          "name": "_ticketOwner",
          "type": "address"
        }
      ],
      "name": "_askForTicket",
      "outputs": [],
      "payable": false,
      "stateMutability": "nonpayable",
      "type": "function"
    },
    {
      "constant": true,
      "inputs": [],
      "name": "sellTicketPrice",
      "outputs": [
        {
          "name": "",
          "type": "uint256"
        }
      ],
      "payable": false,
      "stateMutability": "view",
      "type": "function"
    },
    {
      "constant": true,
      "inputs": [
        {
          "name": "",
          "type": "uint256"
        }
      ],
      "name": "lucky7TicketDifference",
      "outputs": [
        {
          "name": "",
          "type": "uint256"
        }
      ],
      "payable": false,
      "stateMutability": "view",
      "type": "function"
    },
    {
      "constant": true,
      "inputs": [
        {
          "name": "",
          "type": "uint256"
        }
      ],
      "name": "ExactLucky7TicketOwner",
      "outputs": [
        {
          "name": "",
          "type": "address"
        }
      ],
      "payable": false,
      "stateMutability": "view",
      "type": "function"
    },
    {
      "constant": false,
      "inputs": [
        {
          "name": "_newOwner",
          "type": "address"
        }
      ],
      "name": "transferOwnership",
      "outputs": [],
      "payable": false,
      "stateMutability": "nonpayable",
      "type": "function"
    },
    {
      "constant": true,
      "inputs": [
        {
          "name": "",
          "type": "address"
        }
      ],
      "name": "pendingWithdrawals",
      "outputs": [
        {
          "name": "",
          "type": "uint256"
        }
      ],
      "payable": false,
      "stateMutability": "view",
      "type": "function"
    },
    {
      "constant": true,
      "inputs": [],
      "name": "currentTicketID",
      "outputs": [
        {
          "name": "",
          "type": "uint256"
        }
      ],
      "payable": false,
      "stateMutability": "view",
      "type": "function"
    },
    {
      "constant": true,
      "inputs": [],
      "name": "lastThirdPrizeWinner",
      "outputs": [
        {
          "name": "",
          "type": "address"
        }
      ],
      "payable": false,
      "stateMutability": "view",
      "type": "function"
    },
    {
      "constant": false,
      "inputs": [
        {
          "name": "_ticketOwner",
          "type": "address"
        }
      ],
      "name": "_askForIParameter",
      "outputs": [],
      "payable": false,
      "stateMutability": "nonpayable",
      "type": "function"
    },
    {
      "inputs": [],
      "payable": true,
      "stateMutability": "payable",
      "type": "constructor"
    },
    {
      "payable": true,
      "stateMutability": "payable",
      "type": "fallback"
    },
    {
      "anonymous": false,
      "inputs": [
        {
          "indexed": false,
          "name": "prizeAmoun",
          "type": "uint256"
        },
        {
          "indexed": false,
          "name": "prizeOwner",
          "type": "address"
        }
      ],
      "name": "NewPrizeStored",
      "type": "event"
    },
    {
      "anonymous": false,
      "inputs": [
        {
          "indexed": false,
          "name": "description",
          "type": "string"
        }
      ],
      "name": "NewOraclizeQuery",
      "type": "event"
    },
    {
      "anonymous": false,
      "inputs": [
        {
          "indexed": false,
          "name": "muParameter",
          "type": "string"
        }
      ],
      "name": "NewMuReceived",
      "type": "event"
    },
    {
      "anonymous": false,
      "inputs": [
        {
          "indexed": false,
          "name": "iParameter",
          "type": "string"
        }
      ],
      "name": "NewIReceived",
      "type": "event"
    },
    {
      "anonymous": false,
      "inputs": [
        {
          "indexed": false,
          "name": "newTicket",
          "type": "string"
        }
      ],
      "name": "NewTicketReceived",
      "type": "event"
    },
    {
      "anonymous": false,
      "inputs": [
        {
          "indexed": false,
          "name": "description",
          "type": "string"
        }
      ],
      "name": "NewWolframQuery",
      "type": "event"
    },
    {
      "anonymous": false,
      "inputs": [
        {
          "indexed": false,
          "name": "ticketID",
          "type": "uint256"
        }
      ],
      "name": "NewLucky7Ticket",
      "type": "event"
    },
    {
      "anonymous": false,
      "inputs": [
        {
          "indexed": false,
          "name": "value",
          "type": "uint256"
        }
      ],
      "name": "NewLucky7Number",
      "type": "event"
    },
    {
      "anonymous": false,
      "inputs": [
        {
          "indexed": false,
          "name": "describe",
          "type": "string"
        },
        {
          "indexed": false,
          "name": "_oldValue",
          "type": "uint256"
        },
        {
          "indexed": false,
          "name": "_newValue",
          "type": "uint256"
        }
      ],
      "name": "numberModified",
      "type": "event"
    },
    {
      "anonymous": false,
      "inputs": [
        {
          "indexed": false,
          "name": "describe",
          "type": "string"
        },
        {
          "indexed": false,
          "name": "_oldValue",
          "type": "string"
        },
        {
          "indexed": false,
          "name": "_newValue",
          "type": "string"
        }
      ],
      "name": "parameterModified",
      "type": "event"
    },
    {
      "anonymous": false,
      "inputs": [
        {
          "indexed": false,
          "name": "describe",
          "type": "string"
        },
        {
          "indexed": false,
          "name": "_oldValue",
          "type": "address"
        },
        {
          "indexed": false,
          "name": "_newValue",
          "type": "address"
        }
      ],
      "name": "walletModified",
      "type": "event"
    },
    {
      "anonymous": false,
      "inputs": [
        {
          "indexed": true,
          "name": "previousOwner",
          "type": "address"
        }
      ],
      "name": "OwnershipRenounced",
      "type": "event"
    },
    {
      "anonymous": false,
      "inputs": [
        {
          "indexed": true,
          "name": "previousOwner",
          "type": "address"
        },
        {
          "indexed": true,
          "name": "newOwner",
          "type": "address"
        }
      ],
      "name": "OwnershipTransferred",
      "type": "event"
    },
    {
      "constant": false,
      "inputs": [],
      "name": "setNewGame",
      "outputs": [],
      "payable": false,
      "stateMutability": "nonpayable",
      "type": "function"
    },
    {
      "constant": false,
      "inputs": [],
      "name": "_generateLucky7Number",
      "outputs": [],
      "payable": false,
      "stateMutability": "nonpayable",
      "type": "function"
    },
    {
      "constant": false,
      "inputs": [],
      "name": "_orderLucky7Numbers",
      "outputs": [],
      "payable": false,
      "stateMutability": "nonpayable",
      "type": "function"
    },
    {
      "constant": false,
      "inputs": [],
      "name": "_orderLucky7Tickets",
      "outputs": [],
      "payable": false,
      "stateMutability": "nonpayable",
      "type": "function"
    },
    {
      "constant": false,
      "inputs": [],
      "name": "_deliverPrizes",
      "outputs": [],
      "payable": false,
      "stateMutability": "nonpayable",
      "type": "function"
    },
    {
      "constant": false,
      "inputs": [],
      "name": "_cleanMappings",
      "outputs": [],
      "payable": false,
      "stateMutability": "nonpayable",
      "type": "function"
    },
    {
      "constant": false,
      "inputs": [],
      "name": "withdraw",
      "outputs": [],
      "payable": false,
      "stateMutability": "nonpayable",
      "type": "function"
    },
    {
      "constant": true,
      "inputs": [],
      "name": "getlucky7Numbers",
      "outputs": [
        {
          "name": "",
          "type": "uint256[7]"
        }
      ],
      "payable": false,
      "stateMutability": "view",
      "type": "function"
    },
    {
      "constant": true,
      "inputs": [],
      "name": "getlucky7Tickets",
      "outputs": [
        {
          "name": "",
          "type": "uint256[7]"
        }
      ],
      "payable": false,
      "stateMutability": "view",
      "type": "function"
    },
    {
      "constant": false,
      "inputs": [
        {
          "name": "_id",
          "type": "uint256"
        },
        {
          "name": "_mu",
          "type": "string"
        },
        {
          "name": "_i",
          "type": "string"
        },
        {
          "name": "_ticketValue",
          "type": "uint256"
        },
        {
          "name": "_drawNumber",
          "type": "uint256"
        }
      ],
      "name": "insertCustomizedLucky7Number",
      "outputs": [],
      "payable": false,
      "stateMutability": "nonpayable",
      "type": "function"
    },
    {
      "constant": false,
      "inputs": [
        {
          "name": "_mu",
          "type": "string"
        },
        {
          "name": "_i",
          "type": "string"
        },
        {
          "name": "_ticketValue",
          "type": "uint256"
        },
        {
          "name": "_ticketOwner",
          "type": "address"
        },
        {
          "name": "_drawNumber",
          "type": "uint256"
        }
      ],
      "name": "insertCustomizedTicket",
      "outputs": [
        {
          "name": "",
          "type": "uint256"
        }
      ],
      "payable": false,
      "stateMutability": "nonpayable",
      "type": "function"
    },
    {
      "constant": false,
      "inputs": [
        {
          "name": "_newValue",
          "type": "uint256"
        }
      ],
      "name": "setIndexForLucky7Array",
      "outputs": [],
      "payable": false,
      "stateMutability": "nonpayable",
      "type": "function"
    },
    {
      "constant": false,
      "inputs": [
        {
          "name": "_newValue",
          "type": "uint256"
        }
      ],
      "name": "setInitialLucky7TicketPosition",
      "outputs": [],
      "payable": false,
      "stateMutability": "nonpayable",
      "type": "function"
    }
  ],
  "bytecode": "0x60c0604052600160808190527f310000000000000000000000000000000000000000000000000000000000000060a09081526200003e919081620001cc565b506040805180820190915260018082527f380000000000000000000000000000000000000000000000000000000000000060209092019182526200008591600291620001cc565b506040805180820190915260058082527f31303030300000000000000000000000000000000000000000000000000000006020909201918252620000cc91600391620001cc565b506040805180820190915260028082527f323000000000000000000000000000000000000000000000000000000000000060209092019182526200011391600491620001cc565b50600760058190556611c37937e08000600655662aa1efb94e00009055620493e060085563ee6b280060095560008054600a8054600160a060020a0319908116600160a060020a038416179091556010805460ff191660011790556039839055603a839055603b839055603c839055603d839055603e805482169055603f80548216905560408054821690559081163317909155600b8054909116736f485c8bf6fc43ea212e93bbf8ce046c7f1cb47517905562000271565b828054600181600116156101000203166002900490600052602060002090601f016020900481019282601f106200020f57805160ff19168380011785556200023f565b828001600101855582156200023f579182015b828111156200023f57825182559160200191906001019062000222565b506200024d92915062000251565b5090565b6200026e91905b808211156200024d576000815560010162000258565b90565b615e8c80620002816000396000f3006080604052600436106102e75763ffffffff60e060020a60003504166301591f1381146102e95780630cc38b2b146103365780630d0a4b7f1461038f57806310cd4b8a146103a75780631827f45d146103d15780631c3ed1d3146103e95780631cf4c3d11461041d57806323d370ba1461043257806327dc297e146104535780632caf9eee146104b15780632de729eb146104da5780632e52d606146104f257806338bbfa501461057c57806339df3f4f146106185780633bb7daf41461062d5780633ccfd60b14610686578063400149111461069b57806349f6b030146106b05780634acfd9b8146106d15780634df7e3d0146107f057806350b9c4281461080557806359f9fe821461081a5780635edbc36b1461082f5780635fff9ae314610844578063715018a6146108e9578063741606b5146108fe57806375edd2571461091357806377d8a830146109285780637fd4ecde14610949578063809fc1531461095e57806383bb7bb7146109765780638a1dd740146109cf5780638aa5fafa146109e75780638ce3da3c146109ff5780638da5cb5b14610a1757806390c31c4c14610a2c57806396853e1314610a41578063980d988c14610b455780639ac2bf9114610b5a5780639ae8886a14610b6f5780639dec38ab14610b84578063b4f8eadd14610bdd578063b582ec5f14610cf0578063b69ef8a814610d05578063bb4127e814610d1a578063bb49516b14610dc6578063bcb740ab14610ddb578063c53d6e4714610df3578063c56969ab14610e08578063c629dad914610e1d578063c71f04ac14610e75578063d383e86214610e8d578063d566bcf014610ea5578063d80ffb2014610eba578063d84ca03a14610ecf578063ddc110fa14610ee4578063e5663c4814610f05578063e802ae1414610f1a578063eaaa680a14610f32578063f2fde38b14610f4a578063f3f4370314610f6b578063f405228914610f8c578063f53c7d0814610fa1578063fc22d3e414610fb6578063fd9be1b214610fcb575b005b3480156102f557600080fd5b506102fe610fec565b604051808260e080838360005b8381101561032357818101518382015260200161030b565b5050505090500191505060405180910390f35b34801561034257600080fd5b506040805160206004803580820135601f81018490048402850184019095528484526102e79436949293602493928401919081908401838280828437509497506110639650505050505050565b34801561039b57600080fd5b506102e7600435611248565b3480156103b357600080fd5b506103bf600435611264565b60408051918252519081900360200190f35b3480156103dd57600080fd5b506102e7600435611276565b3480156103f557600080fd5b50610401600435611292565b60408051600160a060020a039092168252519081900360200190f35b34801561042957600080fd5b506102e76112ad565b34801561043e57600080fd5b506102e7600160a060020a03600435166116f1565b34801561045f57600080fd5b5060408051602060046024803582810135601f81018590048502860185019096528585526102e79583359536956044949193909101919081908401838280828437509497506118039650505050505050565b3480156104bd57600080fd5b506104c6611db8565b604080519115158252519081900360200190f35b3480156104e657600080fd5b506102e7600435611dc1565b3480156104fe57600080fd5b50610507612120565b6040805160208082528351818301528351919283929083019185019080838360005b83811015610541578181015183820152602001610529565b50505050905090810190601f16801561056e5780820380516001836020036101000a031916815260200191505b509250505060405180910390f35b34801561058857600080fd5b5060408051602060046024803582810135601f81018590048502860185019096528585526102e795833595369560449491939091019190819084018382808284375050604080516020601f89358b018035918201839004830284018301909452808352979a9998810197919650918201945092508291508401838280828437509497506121ab9650505050505050565b34801561062457600080fd5b506102e76121b0565b34801561063957600080fd5b506040805160206004803580820135601f81018490048402850184019095528484526102e79436949293602493928401919081908401838280828437509497506121db9650505050505050565b34801561069257600080fd5b506102e7612321565b3480156106a757600080fd5b506102e7612362565b3480156106bc57600080fd5b506102e7600160a060020a03600435166123b4565b3480156106dd57600080fd5b506106f2600160a060020a0360043516612463565b604080519081018590528315156060820152821515608082015281151560a082015260c08082528751908201528651819060208083019160e08401918b019080838360005b8381101561074f578181015183820152602001610737565b50505050905090810190601f16801561077c5780820380516001836020036101000a031916815260200191505b5083810382528851815288516020918201918a019080838360005b838110156107af578181015183820152602001610797565b50505050905090810190601f1680156107dc5780820380516001836020036101000a031916815260200191505b509850505050505050505060405180910390f35b3480156107fc57600080fd5b506105076125c3565b34801561081157600080fd5b506103bf61261d565b34801561082657600080fd5b506103bf612623565b34801561083b57600080fd5b506102fe612629565b34801561085057600080fd5b5060408051602060046024803582810135601f81018590048502860185019096528585526102e795833595369560449491939091019190819084018382808284375050604080516020601f89358b018035918201839004830284018301909452808352979a9998810197919650918201945092508291508401838280828437509497505084359550505060209092013591506126cd9050565b3480156108f557600080fd5b506102e7612769565b34801561090a57600080fd5b506104016127c8565b34801561091f57600080fd5b506102e76127d7565b34801561093457600080fd5b506102e7600160a060020a0360043516612c19565b34801561095557600080fd5b50610401612c2e565b34801561096a57600080fd5b506102e7600435612c3d565b34801561098257600080fd5b506040805160206004803580820135601f81018490048402850184019095528484526102e7943694929360249392840191908190840183828082843750949750612cbe9650505050505050565b3480156109db57600080fd5b506103bf600435612e03565b3480156109f357600080fd5b506102e7600435612e15565b348015610a0b57600080fd5b506103bf600435612e96565b348015610a2357600080fd5b50610401612ea8565b348015610a3857600080fd5b506102e7612eb7565b348015610a4d57600080fd5b50610a59600435612f1a565b604051808060200180602001858152602001848152602001838103835287818151815260200191508051906020019080838360005b83811015610aa6578181015183820152602001610a8e565b50505050905090810190601f168015610ad35780820380516001836020036101000a031916815260200191505b50838103825286518152865160209182019188019080838360005b83811015610b06578181015183820152602001610aee565b50505050905090810190601f168015610b335780820380516001836020036101000a031916815260200191505b50965050505050505060405180910390f35b348015610b5157600080fd5b50610401613066565b348015610b6657600080fd5b506103bf613075565b348015610b7b57600080fd5b5061050761307b565b348015610b9057600080fd5b506040805160206004803580820135601f81018490048402850184019095528484526102e79436949293602493928401919081908401838280828437509497506130d69650505050505050565b348015610be957600080fd5b50610bf560043561321c565b60408051908101849052600160a060020a03831660608201526080810182905260a08082528651908201528551819060208083019160c08401918a019080838360005b83811015610c50578181015183820152602001610c38565b50505050905090810190601f168015610c7d5780820380516001836020036101000a031916815260200191505b50838103825287518152875160209182019189019080838360005b83811015610cb0578181015183820152602001610c98565b50505050905090810190601f168015610cdd5780820380516001836020036101000a031916815260200191505b5097505050505050505060405180910390f35b348015610cfc57600080fd5b50610507613389565b348015610d1157600080fd5b506103bf6133e4565b348015610d2657600080fd5b506040805160206004803580820135601f81018490048402850184019095528484526103bf94369492936024939284019190819084018382808284375050604080516020601f89358b018035918201839004830284018301909452808352979a99988101979196509182019450925082915084018382808284375094975050843595505050506020820135600160a060020a0316916040013590506133ea565b348015610dd257600080fd5b506103bf6134eb565b348015610de757600080fd5b506102e76004356134f1565b348015610dff57600080fd5b506102e7613572565b348015610e1457600080fd5b506103bf6136dd565b348015610e2957600080fd5b50610e356004356136e3565b60408051978852600160a060020a039096166020880152868601949094526060860192909252608085015260a084015260c0830152519081900360e00190f35b348015610e8157600080fd5b506102e760043561373a565b348015610e9957600080fd5b506102e76004356137bb565b348015610eb157600080fd5b506103bf613862565b348015610ec657600080fd5b506103bf613868565b348015610edb57600080fd5b506103bf61386e565b348015610ef057600080fd5b506102e7600160a060020a0360043516613874565b348015610f1157600080fd5b506103bf61395b565b348015610f2657600080fd5b506103bf600435613961565b348015610f3e57600080fd5b50610401600435613973565b348015610f5657600080fd5b506102e7600160a060020a036004351661398e565b348015610f7757600080fd5b506103bf600160a060020a03600435166139ae565b348015610f9857600080fd5b506102e76139c0565b348015610fad57600080fd5b506103bf613dc1565b348015610fc257600080fd5b50610401613dc7565b348015610fd757600080fd5b506102e7600160a060020a0360043516613dd6565b610ff4615c84565b6000805b60055481101561102f576013816007811061100f57fe5b6004020160020154828260078110151561102557fe5b0155600101610ff8565b6040805160e081019182905290839060079082845b8154815260200190600101908083116110445750505050509250505090565b600054606090600160a060020a0316331461107d57600080fd5b6002805460408051602060018416156101000260001901909316849004601f810184900484028201840190925281815292918301828280156111005780601f106110d557610100808354040283529160200191611100565b820191906000526020600020905b8154815290600101906020018083116110e357829003601f168201915b5050855193945061111c93600293506020870192509050615ca3565b50600080516020615e41833981519152818360405180806020018060200180602001848103845260148152602001807f506172616d65746572206e206d6f646966696564000000000000000000000000815250602001848103835286818151815260200191508051906020019080838360005b838110156111a757818101518382015260200161118f565b50505050905090810190601f1680156111d45780820380516001836020036101000a031916815260200191505b50848103825285518152855160209182019187019080838360005b838110156112075781810151838201526020016111ef565b50505050905090810190601f1680156112345780820380516001836020036101000a031916815260200191505b509550505050505060405180910390a15050565b600054600160a060020a0316331461125f57600080fd5b603c55565b60356020526000908152604090205481565b600054600160a060020a0316331461128d57600080fd5b603a55565b603460205260009081526040902054600160a060020a031681565b6112b5615d21565b60008054819081908190600160a060020a031633146112d357600080fd5b600092505b600554831015611405576040805160e0810182526000858152603360209081528382205483528682526034815283822054600160a060020a031681840152868252603580825284832054948401859052918790525260128054601193606084019291811061134257fe5b906000526020600020906005020160020154815260200160138660078110151561136857fe5b600490810291909101600290810154835260208084018990526039546040948501528554600180820188556000978852968290208651600790920201908155908501518187018054600160a060020a031916600160a060020a0390921691909117905592840151908301556060830151600383015560808301519082015560a0820151600582015560c090910151600690910155909201916112d8565b603c5491505b603c54600554018210156116ea5781935060118281548110151561142b57fe5b60009182526020918290206040805160e0810182526007909302909101805483526001810154600160a060020a0316938301939093526002830154908201526003820154606082015260048201546080820152600582015460a082015260069091015460c0820152601180549196507fc48f643fe98770b36924a84794b17e0a1fe697e64e275a62b245ae9d59840d3c91849190829081106114c957fe5b60009182526020918290206001600790920201015460408051938452600160a060020a03909116918301919091528051918290030190a150600181015b603c54600554018110156115bf57601180548290811061152257fe5b6000918252602090912060079091020154855111156115b757601180548290811061154957fe5b60009182526020918290206040805160e0810182526007909302909101805483526001810154600160a060020a0316938301939093526002830154908201526003820154606082015260048201546080820152600582015460a082015260069091015460c082015294509250825b600101611506565b8382146116df5760118054839081106115d457fe5b90600052602060002090600702016011858154811015156115f157fe5b6000918252602090912082546007909202019081556001808301549082018054600160a060020a031916600160a060020a0390921691909117905560028083015490820155600380830154908201556004808301549082015560058083015490820155600691820154910155601180548691908490811061166e57fe5b600091825260209182902083516007929092020190815590820151600182018054600160a060020a031916600160a060020a0390921691909117905560408201516002820155606082015160038201556080820151600482015560a0820151600582015560c0909101516006909101555b60019091019061140b565b5050505050565b60006116fe600954613eea565b604080516020808252808201527f41736b696e6720666f722061206e6577206d7520706172616d657465722e2e2e8183015290517f096835e36c2ccea88ff2b3aca87dfc938b977e52ea656873ff76a8dba50d4d349181900360600190a16117d36040805190810160405280600c81526020017f576f6c6672616d416c70686100000000000000000000000000000000000000008152506040805190810160405280600f81526020017f342072616e646f6d206e756d62657200000000000000000000000000000000008152506008546140d2565b60009081526030602052604090208054600160a060020a031916600160a060020a03939093169290921790915550565b61180b6144d7565b600160a060020a0316331461181f57600080fd5b600082815260306020526040902054600160a060020a03161580159061186d5750600082815260306020908152604080832054600160a060020a03168352602f90915290206003015460ff16155b15611a0a57600082815260306020908152604080832054600160a060020a03168352602f825290912082516118a492840190615ca3565b507f6a28dd23c76ba6cc6f4f148a0e2e0e147d8b876cb74ec1e5e2b8e9a8119eb702816040518080602001828103825283818151815260200191508051906020019080838360005b838110156119045781810151838201526020016118ec565b50505050905090810190601f1680156119315780820380516001836020036101000a031916815260200191505b509250505060405180910390a160008281526030602090815260408083208054600160a060020a039081168552602f9093528184206003908101805460ff191660019081179091559154909316845292200154610100900460ff1615151480156119df5750600082815260306020908152604080832054600160a060020a03168352602f90915290206003015460ff62010000909104161515600114806119df575060105460ff1615156001145b15611a0557600082815260306020526040902054611a0590600160a060020a0316613874565b611db4565b600082815260316020526040902054600160a060020a031615801590611a5d5750600082815260316020908152604080832054600160a060020a03168352602f909152902060030154610100900460ff16155b15611bf857600082815260316020908152604080832054600160a060020a03168352602f82529091208251611a9a92600190920191840190615ca3565b507f716a554dec57e3a217a923b974660c0c8ebee07b09b1ac7d4a3a8f328d10cc89816040518080602001828103825283818151815260200191508051906020019080838360005b83811015611afa578181015183820152602001611ae2565b50505050905090810190601f168015611b275780820380516001836020036101000a031916815260200191505b509250505060405180910390a160008281526031602090815260408083208054600160a060020a039081168552602f9093528184206003908101805461ff00191661010017905590549092168352909120015460ff1615156001148015611bd25750600082815260316020908152604080832054600160a060020a03168352602f90915290206003015460ff6201000090910416151560011480611bd2575060105460ff1615156001145b15611a0557600082815260316020526040902054611a0590600160a060020a0316613874565b600082815260326020526040902054600160a060020a031615801590611c625750600082815260326020908152604080832054600160a060020a03168352602f90915290206003015460ff6201000090910416151560011480611c62575060105460ff1615156001145b15611db457611c70816146cc565b600083815260326020908152604080832054600160a060020a03168352602f825280832060020193909355825181815284518183015284517f0efef3a277391dda0d5747fd15566e85fcd8a4fb588d9853173841e45cc5ae8a9486949293849391840192908601918190849084905b83811015611cf7578181015183820152602001611cdf565b50505050905090810190601f168015611d245780820380516001836020036101000a031916815260200191505b509250505060405180910390a1600082815260326020908152604080832054600160a060020a03168352602f9091529020600301805462ff00001916905560105460ff16151560011415611d9357600082815260326020526040902054611a0590600160a060020a03166146df565b600082815260326020526040902054611db490600160a060020a0316614940565b5050565b60105460ff1681565b6000806000806013600160055403600781101515611ddb57fe5b6004020160020154601286815481101515611df257fe5b9060005260206000209060050201600201541115611e6157600554600019019350611e5a60138560078110611e2357fe5b6004020160020154601287815481101515611e3a57fe5b906000526020600020906005020160020154614b7b90919063ffffffff16565b9250611fa7565b6015546012805487908110611e7257fe5b9060005260206000209060050201600201541015611ed75760009350611e5a601286815481101515611ea057fe5b906000526020600020906005020160020154601386600781101515611ec157fe5b6004020160020154614b7b90919063ffffffff16565b60138460078110611ee457fe5b6004020160020154601286815481101515611efb57fe5b9060005260206000209060050201600201541115611f1e57600190930192611ed7565b60138460078110611f2b57fe5b6004020160020154601286815481101515611f4257fe5b9060005260206000209060050201600201541415611f635760009250611fa7565b611f776013600019860160078110611e2357fe5b9150611f8b601286815481101515611ea057fe5b905081811115611fa357600184039350819250611fa7565b8092505b600084815260346020526040902054600160a060020a03161580611fd8575060008481526033602052604090205483105b15612073576012805486908110611feb57fe5b60009182526020808320600360059093020191909101548683526034825260408084208054600160a060020a031916600160a060020a0390931692909217909155603382528083208690556035825291829020879055815187815291517fed4436a39d9a77d0c6c3be4f0e28f018750eb25c5c2d30ded16ef07ced4c00719281900390910190a15b8215156116ea57601280548690811061208857fe5b6000918252602080832060036005909302019190910154603b548352603790915260409091208054600160a060020a031916600160a060020a0390921691909117905560128054869081106120d957fe5b6000918252602080832060026005909302019190910154603b8054845260368352604080852092909255805484526038909252909120869055805460010190555050505050565b6002805460408051602060018416156101000260001901909316849004601f810184900484028201840190925281815292918301828280156121a35780601f10612178576101008083540402835291602001916121a3565b820191906000526020600020905b81548152906001019060200180831161218657829003601f168201915b505050505081565b505050565b600054600160a060020a031633146121c757600080fd5b6010805460ff19811660ff90911615179055565b600054606090600160a060020a031633146121f557600080fd5b6004805460408051602060026001851615610100026000190190941693909304601f8101849004840282018401909252818152929183018282801561227b5780601f106122505761010080835404028352916020019161227b565b820191906000526020600020905b81548152906001019060200180831161225e57829003601f168201915b5050855193945061229793600493506020870192509050615ca3565b50600080516020615e41833981519152818360405180806020018060200180602001848103845260148152602001807f506172616d65746572206a206d6f64696669656400000000000000000000000081525060200184810383528681815181526020019150805190602001908083836000838110156111a757818101518382015260200161118f565b33600081815260416020526040808220805490839055905190929183156108fc02918491818181858888f19350505050158015611db4573d6000803e3d6000fd5b600054600160a060020a0316331461237957600080fd5b6123816121b0565b6123896112ad565b6123916139c0565b612399613572565b6039805460010190819055600554603c805491909202019055565b60008054600160a060020a031633146123cc57600080fd5b50600a8054600160a060020a03838116600160a060020a0319831681179093556040805191909216602082018190528183019390935260608082526019908201527f456e74657270726973652077616c6c6574206368616e67656400000000000000608082015290517f223db053947bb148de510715d3c7d8ccd72bdd376752fd735ee7bd0bd0ece5bf9181900360a00190a15050565b602f6020908152600091825260409182902080548351601f600260001961010060018616150201909316929092049182018490048402810184019094528084529092918391908301828280156124fa5780601f106124cf576101008083540402835291602001916124fa565b820191906000526020600020905b8154815290600101906020018083116124dd57829003601f168201915b505050505090806001018054600181600116156101000203166002900480601f0160208091040260200160405190810160405280929190818152602001828054600181600116156101000203166002900480156125985780601f1061256d57610100808354040283529160200191612598565b820191906000526020600020905b81548152906001019060200180831161257b57829003601f168201915b50505050600283015460039093015491929160ff808216925061010082048116916201000090041686565b60018054604080516020600284861615610100026000190190941693909304601f810184900484028201840190925281815292918301828280156121a35780601f10612178576101008083540402835291602001916121a3565b60085481565b60055481565b612631615c84565b612639615c84565b60005b6005548110156126c757600081815260346020526040902054600160a060020a0316156126ab5760008181526035602052604090205460128054909190811061268157fe5b90600052602060002090600502016002015482826007811015156126a157fe5b60200201526126bf565b60008282600781106126b957fe5b60200201525b60010161263c565b50919050565b600054600160a060020a031633146126e457600080fd5b6040805160808101825285815260208101859052908101839052606081018290526013866007811061271257fe5b600402016000820151816000019080519060200190612732929190615ca3565b50602082810151805161274b9260018501920190615ca3565b50604082015160028201556060909101516003909101555050505050565b600054600160a060020a0316331461278057600080fd5b60008054604051600160a060020a03909116917ff8df31144d9c2f0f6b59d69b8b98abd5459d07f2742c4df920b25aae33c6482091a260008054600160a060020a0319169055565b600a54600160a060020a031681565b6127df615d68565b6000805481908190600160a060020a031633146127fb57600080fd5b5060005b600554811015612c13579150816013816007811061281957fe5b6040805160049290920292909201805460a06020601f60026000196101006001871615020190941693909304928301819004028401810190945260808301818152929391928492909184918401828280156128b55780601f1061288a576101008083540402835291602001916128b5565b820191906000526020600020905b81548152906001019060200180831161289857829003601f168201915b50505050508152602001600182018054600181600116156101000203166002900480601f0160208091040260200160405190810160405280929190818152602001828054600181600116156101000203166002900480156129575780601f1061292c57610100808354040283529160200191612957565b820191906000526020600020905b81548152906001019060200180831161293a57829003601f168201915b505050505081526020016002820154815260200160038201548152505093508060010191505b600554821015612b20576013826007811061299457fe5b600402016002015484604001511115612b1557601382600781106129b457fe5b6040805160049290920292909201805460a06020601f6002600019610100600187161502019094169390930492830181900402840181019094526080830181815292939192849290918491840182828015612a505780601f10612a2557610100808354040283529160200191612a50565b820191906000526020600020905b815481529060010190602001808311612a3357829003601f168201915b50505050508152602001600182018054600181600116156101000203166002900480601f016020809104026020016040519081016040528092919081815260200182805460018160011615610100020316600290048015612af25780601f10612ac757610100808354040283529160200191612af2565b820191906000526020600020905b815481529060010190602001808311612ad557829003601f168201915b505050505081526020016002820154815260200160038201548152505093508192505b60019091019061297d565b828114612c0b5760138160078110612b3457fe5b6004020160138460078110612b4557fe5b6004020160008201816000019080546001816001161561010002031660029004612b70929190615d91565b5060018201816001019080546001816001161561010002031660029004612b98929190615d91565b50600282810154908201556003918201549101558360138260078110612bba57fe5b600402016000820151816000019080519060200190612bda929190615ca3565b506020828101518051612bf39260018501920190615ca3565b50604082015160028201556060909101516003909101555b6001016127ff565b50505050565b612c22816116f1565b612c2b81613dd6565b50565b603f54600160a060020a031681565b60008054600160a060020a03163314612c5557600080fd5b50600880549082905560408051602081018390528082018490526060808252601a908201527f4f7261636c697a6520676173206c696d6974206368616e67656400000000000060808201529051600080516020615e218339815191529181900360a00190a15050565b600054606090600160a060020a03163314612cd857600080fd5b60018054604080516020600284861615610100026000190190941693909304601f81018490048402820184019092528181529291830182828015612d5d5780601f10612d3257610100808354040283529160200191612d5d565b820191906000526020600020905b815481529060010190602001808311612d4057829003601f168201915b50508551939450612d7993600193506020870192509050615ca3565b50600080516020615e41833981519152818360405180806020018060200180602001848103845260148152602001807f506172616d657465722062206d6f64696669656400000000000000000000000081525060200184810383528681815181526020019150805190602001908083836000838110156111a757818101518382015260200161118f565b60366020526000908152604090205481565b60008054600160a060020a03163314612e2d57600080fd5b50600680549082905560408051602081018390528082018490526060808252601d908201527f47656e6572617465207469636b6574207072696365206368616e67656400000060808201529051600080516020615e218339815191529181900360a00190a15050565b60386020526000908152604090205481565b600054600160a060020a031681565b600054600160a060020a03163314612ece57600080fd5b600554603a541415612ef457612ee26127d7565b6000603a55612eef6121b0565b612f18565b306000818152602f60205260409020600301805461ffff19169055612f1890612c19565b565b60138160078110612f2757fe5b60040201805460408051602060026001851615610100026000190190941693909304601f81018490048402820184019092528181529293508391830182828015612fb25780601f10612f8757610100808354040283529160200191612fb2565b820191906000526020600020905b815481529060010190602001808311612f9557829003601f168201915b505050505090806001018054600181600116156101000203166002900480601f0160208091040260200160405190810160405280929190818152602001828054600181600116156101000203166002900480156130505780601f1061302557610100808354040283529160200191613050565b820191906000526020600020905b81548152906001019060200180831161303357829003601f168201915b5050505050908060020154908060030154905084565b603e54600160a060020a031681565b60095481565b6003805460408051602060026001851615610100026000190190941693909304601f810184900484028201840190925281815292918301828280156121a35780601f10612178576101008083540402835291602001916121a3565b600054606090600160a060020a031633146130f057600080fd5b6003805460408051602060026001851615610100026000190190941693909304601f810184900484028201840190925281815292918301828280156131765780601f1061314b57610100808354040283529160200191613176565b820191906000526020600020905b81548152906001019060200180831161315957829003601f168201915b5050855193945061319293600393506020870192509050615ca3565b50600080516020615e41833981519152818360405180806020018060200180602001848103845260148152602001807f506172616d657465722070206d6f64696669656400000000000000000000000081525060200184810383528681815181526020019150805190602001908083836000838110156111a757818101518382015260200161118f565b601280548290811061322a57fe5b60009182526020918290206005919091020180546040805160026001841615610100026000190190931692909204601f8101859004850283018501909152808252919350918391908301828280156132c35780601f10613298576101008083540402835291602001916132c3565b820191906000526020600020905b8154815290600101906020018083116132a657829003601f168201915b505050505090806001018054600181600116156101000203166002900480601f0160208091040260200160405190810160405280929190818152602001828054600181600116156101000203166002900480156133615780601f1061333657610100808354040283529160200191613361565b820191906000526020600020905b81548152906001019060200180831161334457829003601f168201915b505050506002830154600384015460049094015492939092600160a060020a03909116915085565b6004805460408051602060026001851615610100026000190190941693909304601f810184900484028201840190925281815292918301828280156121a35780601f10612178576101008083540402835291602001916121a3565b30315b90565b600080548190600160a060020a0316331461340457600080fd5b6040805160a0810182528881526020808201899052918101879052600160a060020a03861660608201526080810185905260128054600181810180845560009390935283518051919593949360059093027fbb8a6a4669ba250d26cd7a459eca9d215f8307e33aebe50379bc5a3617ec3444019261348792849290910190615ca3565b5060208281015180516134a09260018501920190615ca3565b50604082015160028201556060820151600382018054600160a060020a031916600160a060020a0390921691909117905560809091015160049091015503603d555095945050505050565b603c5481565b60008054600160a060020a0316331461350957600080fd5b506007805490829055604080516020810183905280820184905260608082526019908201527f53656c6c207469636b6574207072696365206368616e6765640000000000000060808201529051600080516020615e218339815191529181900360a00190a15050565b60005b6005548110156136d5576000818152603360209081526040808320839055603482528083208054600160a060020a031916905560358252808320929092558151808301909252600182527f300000000000000000000000000000000000000000000000000000000000000090820152601382600781106135f157fe5b60040201600001908051906020019061360b929190615ca3565b5060408051808201909152600181527f300000000000000000000000000000000000000000000000000000000000000060208201526013826007811061364d57fe5b600402016001019080519060200190613667929190615ca3565b5060006013826007811061367757fe5b600402016002018190555060395460138260078110151561369457fe5b60040201600301556000818152603660209081526040808320839055603782528083208054600160a060020a03191690556038909152812055600101613575565b506000603b55565b603a5481565b60118054829081106136f157fe5b60009182526020909120600790910201805460018201546002830154600384015460048501546005860154600690960154949650600160a060020a039093169491939092919087565b60008054600160a060020a0316331461375257600080fd5b506005805490829055604080516020810183905280820184905260608082526019908201527f53656c6c207469636b6574207072696365206368616e6765640000000000000060808201529051600080516020615e218339815191529181900360a00190a15050565b60008054600160a060020a031633146137d357600080fd5b506009805490829055604080516020810183905280820184905260608082526021908201527f4f7261636c697a6520637573746f6d20676173207072696365206368616e676560808201527f640000000000000000000000000000000000000000000000000000000000000060a08201529051600080516020615e218339815191529181900360c00190a15050565b60065481565b60395481565b603b5481565b6000613881600954613eea565b604080516020808252601a908201527f41736b696e6720666f722061206e6577207469636b65742e2e2e0000000000008183015290517f096835e36c2ccea88ff2b3aca87dfc938b977e52ea656873ff76a8dba50d4d349181900360600190a161392b6040805190810160405280600c81526020017f576f6c6672616d416c706861000000000000000000000000000000000000000081525061392384614b8d565b6008546140d2565b60009081526032602052604090208054600160a060020a031916600160a060020a03939093169290921790915550565b60075481565b60336020526000908152604090205481565b603760205260009081526040902054600160a060020a031681565b600054600160a060020a031633146139a557600080fd5b612c2b816154bc565b60416020526000908152604090205481565b6000805481908190819081908190600160a060020a031633146139e257600080fd5b603e54600160a060020a03908116600090815260416020526040808220829055603f54831682528082208290558054909216815290812055613a2c3031600763ffffffff61552c16565b9550613a3f86600a63ffffffff61555516565b9550613a5286600663ffffffff61552c16565b9450613a6586600363ffffffff61552c16565b9350613a7886600163ffffffff61552c16565b9250613a8b85600a63ffffffff61555516565b9450613a9e84600a63ffffffff61555516565b9350613ab183600a63ffffffff61555516565b9250603c5491505b603c5460055401821015613b9457601180546000919084908110613ad957fe5b6000918252602090912060016007909202010154600160a060020a031614613b89578460416000601185815481101515613b0f57fe5b6000918252602080832060016007909302019190910154600160a060020a031683528201929092526040019020805490910190556011805483908110613b5157fe5b6000918252602090912060016007909202010154603e8054600160a060020a031916600160a060020a03909216919091179055613b94565b600190910190613ab9565b6001909101905b603c5460055401821015613c7657601180546000919084908110613bbb57fe5b6000918252602090912060016007909202010154600160a060020a031614613c6b578360416000601185815481101515613bf157fe5b6000918252602080832060016007909302019190910154600160a060020a031683528201929092526040019020805490910190556011805483908110613c3357fe5b6000918252602090912060016007909202010154603f8054600160a060020a031916600160a060020a03909216919091179055613c76565b600190910190613b9b565b6001909101905b603c5460055401821015613d5857601180546000919084908110613c9d57fe5b6000918252602090912060016007909202010154600160a060020a031614613d4d578260416000601185815481101515613cd357fe5b6000918252602080832060016007909302019190910154600160a060020a031683528201929092526040019020805490910190556011805483908110613d1557fe5b600091825260209091206001600790920201015460408054600160a060020a031916600160a060020a03909216919091179055613d58565b600190910190613c7d565b613d6a3031600363ffffffff61552c16565b9050613d7d81600a63ffffffff61555516565b600a54604051919250600160a060020a03169082156108fc029083906000818181858888f19350505050158015613db8573d6000803e3d6000fd5b50505050505050565b603d5481565b604054600160a060020a031681565b6000613de3600954613eea565b604080516020808252601f908201527f41736b696e6720666f722061206e6577206920706172616d657465722e2e2e008183015290517f096835e36c2ccea88ff2b3aca87dfc938b977e52ea656873ff76a8dba50d4d349181900360600190a1613eba6040805190810160405280600c81526020017f576f6c6672616d416c70686100000000000000000000000000000000000000008152506040805190810160405280600f81526020017f342072616e646f6d206e756d62657200000000000000000000000000000000008152506008546140d2565b60009081526031602052604090208054600160a060020a031916600160a060020a03939093169290921790915550565b600b54600160a060020a03161580613f145750600b54613f1290600160a060020a031661556a565b155b15613f2557613f23600061556e565b505b600b60009054906101000a9004600160a060020a0316600160a060020a03166338cc48316040518163ffffffff1660e060020a028152600401602060405180830381600087803b158015613f7857600080fd5b505af1158015613f8c573d6000803e3d6000fd5b505050506040513d6020811015613fa257600080fd5b5051600c54600160a060020a0390811691161461405857600b60009054906101000a9004600160a060020a0316600160a060020a03166338cc48316040518163ffffffff1660e060020a028152600401602060405180830381600087803b15801561400c57600080fd5b505af1158015614020573d6000803e3d6000fd5b505050506040513d602081101561403657600080fd5b5051600c8054600160a060020a031916600160a060020a039092169190911790555b600c54604080517fca6ad1e4000000000000000000000000000000000000000000000000000000008152600481018490529051600160a060020a039092169163ca6ad1e49160248082019260009290919082900301818387803b1580156140be57600080fd5b505af11580156116ea573d6000803e3d6000fd5b600b546000908190600160a060020a031615806141015750600b546140ff90600160a060020a031661556a565b155b1561411257614110600061556e565b505b600b60009054906101000a9004600160a060020a0316600160a060020a03166338cc48316040518163ffffffff1660e060020a028152600401602060405180830381600087803b15801561416557600080fd5b505af1158015614179573d6000803e3d6000fd5b505050506040513d602081101561418f57600080fd5b5051600c54600160a060020a0390811691161461424557600b60009054906101000a9004600160a060020a0316600160a060020a03166338cc48316040518163ffffffff1660e060020a028152600401602060405180830381600087803b1580156141f957600080fd5b505af115801561420d573d6000803e3d6000fd5b505050506040513d602081101561422357600080fd5b5051600c8054600160a060020a031916600160a060020a039092169190911790555b600c54604080517f2ef3accc0000000000000000000000000000000000000000000000000000000081526024810186905260048101918252875160448201528751600160a060020a0390931692632ef3accc9289928892829160640190602086019080838360005b838110156142c55781810151838201526020016142ad565b50505050905090810190601f1680156142f25780820380516001836020036101000a031916815260200191505b509350505050602060405180830381600087803b15801561431257600080fd5b505af1158015614326573d6000803e3d6000fd5b505050506040513d602081101561433c57600080fd5b50519050670de0b6b3a76400003a84020181111561435d57600091506144cf565b600c546040517fc51be90f00000000000000000000000000000000000000000000000000000000815260006004820181815260648301879052608060248401908152895160848501528951600160a060020a039095169463c51be90f948794938c938c938c93604481019160a49091019060208801908083838c5b838110156143f05781810151838201526020016143d8565b50505050905090810190601f16801561441d5780820380516001836020036101000a031916815260200191505b50838103825285518152855160209182019187019080838360005b83811015614450578181015183820152602001614438565b50505050905090810190601f16801561447d5780820380516001836020036101000a031916815260200191505b5096505050505050506020604051808303818588803b15801561449f57600080fd5b505af11580156144b3573d6000803e3d6000fd5b50505050506040513d60208110156144ca57600080fd5b505191505b509392505050565b600b54600090600160a060020a031615806145045750600b5461450290600160a060020a031661556a565b155b1561451557614513600061556e565b505b600b60009054906101000a9004600160a060020a0316600160a060020a03166338cc48316040518163ffffffff1660e060020a028152600401602060405180830381600087803b15801561456857600080fd5b505af115801561457c573d6000803e3d6000fd5b505050506040513d602081101561459257600080fd5b5051600c54600160a060020a0390811691161461464857600b60009054906101000a9004600160a060020a0316600160a060020a03166338cc48316040518163ffffffff1660e060020a028152600401602060405180830381600087803b1580156145fc57600080fd5b505af1158015614610573d6000803e3d6000fd5b505050506040513d602081101561462657600080fd5b5051600c8054600160a060020a031916600160a060020a039092169190911790555b600c60009054906101000a9004600160a060020a0316600160a060020a031663c281d19e6040518163ffffffff1660e060020a028152600401602060405180830381600087803b15801561469b57600080fd5b505af11580156146af573d6000803e3d6000fd5b505050506040513d60208110156146c557600080fd5b5051905090565b60006146d9826000615578565b92915050565b60408051600160a060020a0383166000908152602f602090815290839020805460026001821615610100026000190190911604601f8101839004909202830160a0908101909452608083018281529293849392908401828280156147845780601f1061475957610100808354040283529160200191614784565b820191906000526020600020905b81548152906001019060200180831161476757829003601f168201915b50505050508152602001602f600084600160a060020a0316600160a060020a031681526020019081526020016000206001018054600181600116156101000203166002900480601f01602080910402602001604051908101604052809291908181526020018280546001816001161561010002031660029004801561484a5780601f1061481f5761010080835404028352916020019161484a565b820191906000526020600020905b81548152906001019060200180831161482d57829003601f168201915b5050509183525050600160a060020a0383166000908152602f60209081526040918290206002015490830152603954910152603a546013906007811061488c57fe5b6004020160008201518160000190805190602001906148ac929190615ca3565b5060208281015180516148c59260018501920190615ca3565b50604082810151600280840191909155606090930151600390920191909155603a80546001019055600160a060020a0383166000908152602f60209081529082902090920154815190815290517fec2692b386f7e992f219e405f018eeaf8da1b95736760596812e564f2e709cfd929181900390910190a150565b60408051600160a060020a0383166000908152602f602090815283822080546002600180831615610100026000190190921604601f8101849004909302850160c090810190965260a08501838152939590946012949093849391928401828280156149ec5780601f106149c1576101008083540402835291602001916149ec565b820191906000526020600020905b8154815290600101906020018083116149cf57829003601f168201915b50505050508152602001602f600087600160a060020a0316600160a060020a031681526020019081526020016000206001018054600181600116156101000203166002900480601f016020809104026020016040519081016040528092919081815260200182805460018160011615610100020316600290048015614ab25780601f10614a8757610100808354040283529160200191614ab2565b820191906000526020600020905b815481529060010190602001808311614a9557829003601f168201915b5050509183525050600160a060020a0386166000818152602f6020908152604080832060020154828601528401929092526039546060909301929092528354600181018086559483529181902083518051600590940290910192614b199284920190615ca3565b506020828101518051614b329260018501920190615ca3565b50604082015160028201556060820151600382018054600160a060020a031916600160a060020a03909216919091179055608090910151600490910155039050611db481611dc1565b600082821115614b8757fe5b50900390565b604080518082018252600c81527f286d6f642828312f2831305e000000000000000000000000000000000000000060208083019190915260028054845160018216156101000260001901909116829004601f81018490048402820184019095528481526060948594614d649490939190830182828015614c4e5780601f10614c2357610100808354040283529160200191614c4e565b820191906000526020600020905b815481529060010190602001808311614c3157829003601f168201915b505060408051808201825260018082527f2d00000000000000000000000000000000000000000000000000000000000000602080840191909152600160a060020a038d166000908152602f825284902080548551600294821615610100026000190190911693909304601f8101839004830284018301909552848352929650909450909250830182828015614d245780601f10614cf957610100808354040283529160200191614d24565b820191906000526020600020905b815481529060010190602001808311614d0757829003601f168201915b50505050506040805190810160405280600681526020017f29292a31305e00000000000000000000000000000000000000000000000000008152506156ea565b60038054604080516020601f60026000196101006001881615020190951694909404938401819004810282018101909252828152939450614ef893859390929091830182828015614df65780601f10614dcb57610100808354040283529160200191614df6565b820191906000526020600020905b815481529060010190602001808311614dd957829003601f168201915b5050604080518082018252600581527f2c31305e2800000000000000000000000000000000000000000000000000000060208083019190915260048054845160026001831615610100026000190190921691909104601f8101849004840282018401909552848152929650919450909250830182828015614eb85780601f10614e8d57610100808354040283529160200191614eb8565b820191906000526020600020905b815481529060010190602001808311614e9b57829003601f168201915b50505050506040805190810160405280600181526020017f2b000000000000000000000000000000000000000000000000000000000000008152506156ea565b90506150b981602f600086600160a060020a0316600160a060020a031681526020019081526020016000206001018054600181600116156101000203166002900480601f016020809104026020016040519081016040528092919081815260200182805460018160011615610100020316600290048015614fba5780601f10614f8f57610100808354040283529160200191614fba565b820191906000526020600020905b815481529060010190602001808311614f9d57829003601f168201915b5050604080518082018252600e81527f29292d6d6f642828312f2831305e00000000000000000000000000000000000060208083019190915260028054845160018216156101000260001901909116829004601f81018490048402820184019095528481529296509194509092508301828280156150795780601f1061504e57610100808354040283529160200191615079565b820191906000526020600020905b81548152906001019060200180831161505c57829003601f168201915b50505050506040805190810160405280600181526020017f2d000000000000000000000000000000000000000000000000000000000000008152506156ea565b600160a060020a0384166000908152602f602090815260409182902080548351601f600260001961010060018616150201909316929092049182018490048402810184019094528084529394506152609385939283018282801561515e5780601f106151335761010080835404028352916020019161515e565b820191906000526020600020905b81548152906001019060200180831161514157829003601f168201915b5050604080518082018252600681527f29292a31305e000000000000000000000000000000000000000000000000000060208083019190915260038054845160026001831615610100026000190190921691909104601f81018490048402820184019095528481529296509194509092508301828280156152205780601f106151f557610100808354040283529160200191615220565b820191906000526020600020905b81548152906001019060200180831161520357829003601f168201915b50505050506040805190810160405280600481526020017f2c31305e000000000000000000000000000000000000000000000000000000008152506156ea565b60408051808201825260018082527f2800000000000000000000000000000000000000000000000000000000000000602080840191909152600160a060020a0388166000908152602f8252849020820180548551600294821615610100026000190190911693909304601f810183900483028401830190955284835294955061541b94869490918301828280156153385780601f1061530d57610100808354040283529160200191615338565b820191906000526020600020905b81548152906001019060200180831161531b57829003601f168201915b5050604080518082018252600781527f2929292f31305e00000000000000000000000000000000000000000000000000602080830191909152600160a060020a038d166000908152602f8252839020600190810180548551600293821615610100026000190190911692909204601f810184900484028301840190955284825292965094509092508301828280156154115780601f106153e657610100808354040283529160200191615411565b820191906000526020600020905b8154815290600101906020018083116153f457829003601f168201915b50505050506156ea565b90507f261af219212047633bb60c8d0cc7e33d217c38edf6fa7e53acb97a3f94180de5816040518080602001828103825283818151815260200191508051906020019080838360005b8381101561547c578181015183820152602001615464565b50505050905090810190601f1680156154a95780820380516001836020036101000a031916815260200191505b509250505060405180910390a192915050565b600160a060020a03811615156154d157600080fd5b60008054604051600160a060020a03808516939216917f8be0079c531659141344cd1fd0a4f28419497f9722a3daafe3b4186f6b6457e091a360008054600160a060020a031916600160a060020a0392909216919091179055565b600082151561553d575060006146d9565b5081810281838281151561554d57fe5b04146146d957fe5b6000818381151561556257fe5b049392505050565b3b90565b60006146d961594b565b6000828180805b83518110156156cd5783517f3000000000000000000000000000000000000000000000000000000000000000908590839081106155b857fe5b90602001015160f860020a900460f860020a02600160f860020a0319161015801561562e575083517f39000000000000000000000000000000000000000000000000000000000000009085908390811061560e57fe5b90602001015160f860020a900460f860020a02600160f860020a03191611155b1561568757811561564d57851515615645576156cd565b600019909501945b600a830292506030848281518110151561566357fe5b90602001015160f860020a900460f860020a0260f860020a900403830192506156c5565b838181518110151561569557fe5b90602001015160f860020a900460f860020a02600160f860020a031916602e60f860020a0214156156c557600191505b60010161557f565b60008611156156df5785600a0a830292505b509095945050505050565b6060806060806060806060806000808e98508d97508c96508b95508a94508451865188518a518c51010101016040519080825280601f01601f191660200182016040528015615743578160200160208202803883390190505b50935083925060009150600090505b88518110156157b057888181518110151561576957fe5b90602001015160f860020a900460f860020a02838380600101945081518110151561579057fe5b906020010190600160f860020a031916908160001a905350600101615752565b5060005b87518110156158125787818151811015156157cb57fe5b90602001015160f860020a900460f860020a0283838060010194508151811015156157f257fe5b906020010190600160f860020a031916908160001a9053506001016157b4565b5060005b865181101561587457868181518110151561582d57fe5b90602001015160f860020a900460f860020a02838380600101945081518110151561585457fe5b906020010190600160f860020a031916908160001a905350600101615816565b5060005b85518110156158d657858181518110151561588f57fe5b90602001015160f860020a900460f860020a0283838060010194508151811015156158b657fe5b906020010190600160f860020a031916908160001a905350600101615878565b5060005b84518110156159385784818151811015156158f157fe5b90602001015160f860020a900460f860020a02838380600101945081518110151561591857fe5b906020010190600160f860020a031916908160001a9053506001016158da565b50909d9c50505050505050505050505050565b60008061596b731d3b2638a7cc9f2cb3d298a3da7a90b67e5506ed61556a565b11156159db57600b8054600160a060020a031916731d3b2638a7cc9f2cb3d298a3da7a90b67e5506ed178155604080518082019091529081527f6574685f6d61696e6e657400000000000000000000000000000000000000000060208201526159d390615c71565b5060016133e7565b60006159fa73c03a2615d5efaf5f49f60b7bb6583eaec212fdf161556a565b1115615a6357600b8054600160a060020a03191673c03a2615d5efaf5f49f60b7bb6583eaec212fdf117905560408051808201909152600c81527f6574685f726f707374656e33000000000000000000000000000000000000000060208201526159d390615c71565b6000615a8273b7a07bcf2ba2f2703b24c0691b5278999c59ac7e61556a565b1115615aeb57600b8054600160a060020a03191673b7a07bcf2ba2f2703b24c0691b5278999c59ac7e17905560408051808201909152600981527f6574685f6b6f76616e000000000000000000000000000000000000000000000060208201526159d390615c71565b6000615b0a73146500cfd35b22e4a392fe0adc06de1a1368ed4861556a565b1115615b7257600b8054600160a060020a03191673146500cfd35b22e4a392fe0adc06de1a1368ed48178155604080518082019091529081527f6574685f72696e6b65627900000000000000000000000000000000000000000060208201526159d390615c71565b6000615b91736f485c8bf6fc43ea212e93bbf8ce046c7f1cb47561556a565b1115615bc55750600b8054600160a060020a031916736f485c8bf6fc43ea212e93bbf8ce046c7f1cb47517905560016133e7565b6000615be47320e12a1f859b3feae5fb2a0a32c18f5a65555bbf61556a565b1115615c185750600b8054600160a060020a0319167320e12a1f859b3feae5fb2a0a32c18f5a65555bbf17905560016133e7565b6000615c377351efaf4c8b3c9afbd5ab9f4bbc82784ab6ef8faa61556a565b1115615c6b5750600b8054600160a060020a0319167351efaf4c8b3c9afbd5ab9f4bbc82784ab6ef8faa17905560016133e7565b50600090565b8051611db490600d906020840190615ca3565b60e0604051908101604052806007906020820280388339509192915050565b828054600181600116156101000203166002900490600052602060002090601f016020900481019282601f10615ce457805160ff1916838001178555615d11565b82800160010185558215615d11579182015b82811115615d11578251825591602001919060010190615cf6565b50615d1d929150615e06565b5090565b60e060405190810160405280600081526020016000600160a060020a0316815260200160008152602001600081526020016000815260200160008152602001600081525090565b608060405190810160405280606081526020016060815260200160008152602001600081525090565b828054600181600116156101000203166002900490600052602060002090601f016020900481019282601f10615dca5780548555615d11565b82800160010185558215615d1157600052602060002091601f016020900482015b82811115615d11578254825591600101919060010190615deb565b6133e791905b80821115615d1d5760008155600101615e0c56009bc068999fb1a0aac007a9b44ca6322a376441f42706bf5163600bb3d1a731647ecbd54b3baea533cf57ef049f9e04554be6a660d6dacd477488066eedf27beea165627a7a7230582066c30345d1d926e55a781c24fa89e3fa45f940d738f4b56b8afb53f1ad84ea380029",
  "source": "/**\n  * @author Matias Barrios\n  * @version 1.0\n  */\n\n/** @title Lucky7Ballot. \n  * This contract contains all the functions to start a new game and deliver prizes.\n  * Particularly contains function that have the business logic for generating Lucky7Numbers and Lucky7Tickets, order them, deliver prizes and clean necessary arrays.\n*/\n\npragma solidity ^0.4.20;\n\nimport \"./Lucky7TicketFactory.sol\";\n\ncontract Lucky7Ballot is Lucky7TicketFactory{\n    \n    event NewPrizeStored(uint prizeAmoun, address prizeOwner);\n\n    function Lucky7Ballot() payable {\n        \n    }\n\n    /** @param initialLucky7TicketPosition is a uint used for the _orderLucky7Tickets function of this contract. \n      * Because is necessary to store the information of previous games permanently is necessary then to know what it the starting point to store in the \n      * lucky7TicketsArray array of the Lucky77TicketFactory.sol contract. \n      * This way, the _orderLucky7Tickets function starts storing in the \"initialLucky7TicketPosition\" and finish storing in the \n      * \"numberOfLucky7Numbers+initialLucky7TicketPosition\" position of the lucky7TicketsArray array. \n      * Defaults to 0, and is getting incremented by \"numberOfLucky7Numbers\" value every time the setNewGame function of this contract is called.\n      * @param currentTicketID is a uint which points to the position in the ticketsArray array of the Lucky7TicketFactory contract where was pushed the last ticket\n      * inserted by the insertCustomizedTicket function of this contract. That function and this parameter are used for testing purposes only.\n      * @param lastFirstParameter is and address which stores the address of the last first prize winner. Is setted on the _deliverPrizes function of this contract \n      * and is used to set to 0 the amount of the prize for the last first prize winner before start delivering prizes for security reasons.\n      * @param lastSecondParameter is and address which stores the address of the last second prize winner. Is setted on the _deliverPrizes function of this contract \n      * and is used to set to 0 the amount of the prize for the last second prize winner before start delivering prizes for security reasons.\n      * @param lastThirdParameter is and address which stores the address of the last third prize winner. Is setted on the _deliverPrizes function of this contract \n      * and is used to set to 0 the amount of the prize for the last third prize winner before start delivering prizes for security reasons.\n      * @param pendingWithdrawals is a mapping that points from an address to an uint. Is used for the _deliverPrizes function of this contract to store the \n      * the correspondent prize with the correspondent winner. The prizes are setted to 0 every time the _deliverPrizes function is called for security reasons.\n      * To claim a prize, user have to call the withdraw function of this contract, so the prize is delivered and the amount for him prize is setted to 0 again.\n      */\n    uint public initialLucky7TicketPosition = 0;\n    uint public currentTicketID = 0;\n    address public lastFirstPrizeWinner = address(0);\n    address public lastSecondPrizeWinner = address(0);\n    address public lastThirdPrizeWinner = address(0);\n    mapping (address => uint) public pendingWithdrawals;\n\n    /** @dev setNewGame is a function designed to call all the functions necessary to start a new game. First, it activate the settingLucky7Numbers circuit breaker.\n      * Then it stores and order the Lucky7Tickets in ascendante order depending on them difference values through the _orderLucky7Tickets. \n      * Then it set the prizes for the last winners to 0 (for security reasons), look up for Lucky7Tickets with owners different than 0 and update the \n      * pendingWithdrawals for the first, second and third winnner, deliver the prize for the enterprise, clean the necessary mappings and arrays (ExactLucky7Ticket and\n      * lucky7NumbersArray), increase the drawNumber parameter to differentiate the Lucky7Tickets and Tickets from each different game in the future, and update the value\n      * of the initialLucky7TicketPosition to store the Lucky7Tickets for every game correctly.\n      */\n    function setNewGame()                                      \n        public \n        onlyOwner \n    {\n        toggleLucky7Setting();\n        _orderLucky7Tickets();\n        _deliverPrizes();\n        _cleanMappings();\n        drawNumber++;\n        initialLucky7TicketPosition+=drawNumber*numberOfLucky7Numbers;\n    }\n    \n    /** @dev _generateLucky7Number is the function that is actually used to generate the Lucky7Numbers. It have the business logic for generating the Lucky7Numbers, i.e. if \n      * the indexForLucky7Array is different than the numberOfLucky7Numbers, then sets the muReady and iReady booleans of the UserParametersValue struct of the \n      * Lucky7TicketFactory contract to true and calls for the _generateTicket function of the Lucky7TicketFactory contract. This way it can ask for both mu and i parameters\n      * to oraclize and when the oraclize respond with both, ask for a ticket which is going to be a Lucky7Number.\n      * If the indexForLucky7Array is equal to the numberOfLucky7Numbers, then proceed to order the Lucky7Numbers through the _orderLucky7Numbers function of this contract.\n      * Then it sets the indexForLucky7Array to 0 so the next time a new game is setted, this function starts storing the Lucky7Numbers from the position 0, to finally shut off\n      * the settingLucky7Numbers circuit breaker to allow users to start buying tickets.\n      */\n    function _generateLucky7Number() public onlyOwner{\n        if(indexForLucky7Array == numberOfLucky7Numbers){\n            _orderLucky7Numbers();\n            indexForLucky7Array = 0;\n            toggleLucky7Setting();\n        }\n        else{\n            userValues[this].muReady = false;\n            userValues[this].iReady = false;\n            _generateTicket(this);\n        }\n    }\n    \n    /** @dev _orderLucky7Numbers is a function designed to order the Lucky7Numbers. It is called from the _generateLucky7Number function of this contract (above function).\n      * First, it generates 4 auxiliary parameters; a Lucky7Number struct called smallest, and aux j and i which are uint.\n      *\n      */\n    function _orderLucky7Numbers() public onlyOwner{\n        Lucky7Number memory smallest;\n        uint aux;\n        uint j;\n        uint i;\n        for(i=0; i<numberOfLucky7Numbers; i++){\n            aux = i;\n            smallest = lucky7NumbersArray[i];\n            for (j=i+1; j<numberOfLucky7Numbers; j++){\n                if(smallest.ticketValue>lucky7NumbersArray[j].ticketValue){\n                    smallest = lucky7NumbersArray[j];\n                    aux = j;\n                }\n            }\n            if(aux!=i){\n                lucky7NumbersArray[aux]=lucky7NumbersArray[i];\n                lucky7NumbersArray[i] = smallest;\n            }\n        }\n    }\n    \n    function _orderLucky7Tickets() public onlyOwner{\n        Lucky7Ticket memory smallest;\n        uint aux;\n        uint i;\n        uint j;\n        uint k;\n        for (i=0; i<numberOfLucky7Numbers; i++){\n            lucky7TicketsArray.push(\n                // struct Lucky7Ticket{\n                //     uint difference;\n                //     address owner;\n                //     uint ticketID;\n                //     uint ticketValue;\n                //     uint lucky7Number;\n                //     uint lucky7NumberID;\n                //     uint drawID;\n                // }\n                Lucky7Ticket(\n                    lucky7TicketDifference[i],\n                    lucky7TicketOwner[i],\n                    lucky7TicketID[i],\n                    ticketsArray[lucky7TicketID[i]].ticketValue,\n                    lucky7NumbersArray[i].ticketValue,\n                    i,\n                    drawNumber)\n                    );\n        }\n        for(j=initialLucky7TicketPosition; j<numberOfLucky7Numbers+initialLucky7TicketPosition; j++){\n            aux = j;\n            smallest = lucky7TicketsArray[j];\n            emit NewPrizeStored(j,lucky7TicketsArray[j].owner);\n            for (k=j+1; k<numberOfLucky7Numbers+initialLucky7TicketPosition; k++){\n                if(smallest.difference>lucky7TicketsArray[k].difference){\n                    smallest = lucky7TicketsArray[k];\n                    aux = k;\n                }\n            }\n            if(aux!=j){\n                lucky7TicketsArray[aux]=lucky7TicketsArray[j];\n                lucky7TicketsArray[j] = smallest;\n\n            }\n        }\n    }\n\n    function _deliverPrizes() public onlyOwner{\n        pendingWithdrawals[lastFirstPrizeWinner] = 0;\n        pendingWithdrawals[lastSecondPrizeWinner] = 0;\n        pendingWithdrawals[lastThirdPrizeWinner] = 0;\n        uint winnersPrize = address(this).balance.mul(7);\n        winnersPrize = winnersPrize.div(10);\n        uint firstPrize = winnersPrize.mul(6);\n        uint secondPrize = winnersPrize.mul(3);\n        uint thirdPrize = winnersPrize.mul(1);\n        firstPrize = firstPrize.div(10);\n        secondPrize = secondPrize.div(10);\n        thirdPrize = thirdPrize.div(10);\n        uint i;\n        for(i=initialLucky7TicketPosition; i<numberOfLucky7Numbers+initialLucky7TicketPosition; i++){\n            if(lucky7TicketsArray[i].owner!=address(0x0)){\n                pendingWithdrawals[lucky7TicketsArray[i].owner] += firstPrize;\n                lastFirstPrizeWinner = lucky7TicketsArray[i].owner;\n                break;\n            }\n        }\n        \n        for(i++; i<numberOfLucky7Numbers+initialLucky7TicketPosition; i++){\n            if(lucky7TicketsArray[i].owner!=address(0x0)){\n                pendingWithdrawals[lucky7TicketsArray[i].owner] += secondPrize;\n                lastSecondPrizeWinner = lucky7TicketsArray[i].owner;\n                break;\n            }\n        }\n        \n        for(i++; i<numberOfLucky7Numbers+initialLucky7TicketPosition; i++){\n            if(lucky7TicketsArray[i].owner!=address(0x0)){\n                pendingWithdrawals[lucky7TicketsArray[i].owner] += thirdPrize;\n                lastThirdPrizeWinner = lucky7TicketsArray[i].owner;\n                break;\n            }\n        }\n        uint enterprisePrize = address(this).balance.mul(3);\n        enterprisePrize = enterprisePrize.div(10);\n        enterpriseWallet.transfer(enterprisePrize);\n    }\n    //Should clean lucky7TicketDifference[i], lucky7TicketOwner[i], lucky7TicketID[i],\n    function _cleanMappings() public{\n        for(uint i=0; i<numberOfLucky7Numbers; i++){\n            lucky7TicketDifference[i]=0;\n            lucky7TicketOwner[i]=0;\n            lucky7TicketID[i]=0;\n            lucky7NumbersArray[i].mu=\"0\";\n            lucky7NumbersArray[i].i=\"0\";\n            lucky7NumbersArray[i].ticketValue=0;\n            lucky7NumbersArray[i].drawID=drawNumber;\n            ExactLucky7TicketValue[i]=0;\n            ExactLucky7TicketOwner[i]=0;\n            ExactLucky7TicketID[i]=0;\n        }\n        indexForExactLucky7Ticket =0;\n    }\n\n    function withdraw() public {\n        uint amount = pendingWithdrawals[msg.sender];\n        pendingWithdrawals[msg.sender] = 0;\n        msg.sender.transfer(amount);\n    }\n\n\n    //For front-end conection\n    function getlucky7Numbers() public view returns (uint[7]) {\n        uint[7] luckySevenNumbers;\n        for(uint i=0; i<numberOfLucky7Numbers; i++){\n            luckySevenNumbers[i]=lucky7NumbersArray[i].ticketValue;\n        }\n        return luckySevenNumbers;\n    }\n\n    function getlucky7Tickets() public view returns (uint[7]) {\n        uint[7] memory luckySevenTickets;\n        for(uint i=0; i<numberOfLucky7Numbers; i++){\n            if(lucky7TicketOwner[i]!=address(0x0)){\n                luckySevenTickets[i] = ticketsArray[lucky7TicketID[i]].ticketValue;\n            }\n            else{\n                luckySevenTickets[i]=0;\n            }\n        }\n        return luckySevenTickets;\n    }\n\n    //For testing purposes\n    function insertCustomizedLucky7Number(uint _id, string _mu, string _i, uint _ticketValue,uint _drawNumber) public onlyOwner{\n        lucky7NumbersArray[_id] = Lucky7Number(_mu, _i, _ticketValue, _drawNumber);\n    }\n    \n\n    function insertCustomizedTicket(string _mu, string _i, uint _ticketValue,address _ticketOwner, uint _drawNumber) \n        public \n        onlyOwner \n        returns (uint){\n            uint id = ticketsArray.push(Ticket(_mu,_i,_ticketValue,_ticketOwner,_drawNumber)) - 1;\n            currentTicketID = id;\n        }\n    \n    function setIndexForLucky7Array(uint _newValue) public onlyOwner{\n        indexForLucky7Array = _newValue;\n    }\n\n    function setInitialLucky7TicketPosition(uint _newValue) public onlyOwner{\n        initialLucky7TicketPosition = _newValue;\n    }\n    \n    function () public payable {\n        \n    }\n}",
  "sourcePath": "/Users/matiasbarrios/Desktop/Proyecto Consensys/luckyseven/contracts/Lucky7Ballot.sol",
  "compiler": {
    "name": "solc",
    "version": "0.4.24+commit.e67f0147.Emscripten.clang"
  },
  "schemaVersion": "2.0.1",
  "updatedAt": "2018-08-26T17:58:43.609Z"
}