{
  "contractName": "Lucky7Library",
  "abi": [
    {
      "constant": false,
      "inputs": [
        {
          "name": "_lucky7AdminAddress",
          "type": "address"
        }
      ],
      "name": "oraclizeCustomGasPrice",
      "outputs": [
        {
          "name": "",
          "type": "uint256"
        }
      ],
      "payable": false,
      "stateMutability": "nonpayable",
      "type": "function"
    },
    {
      "constant": false,
      "inputs": [
        {
          "name": "_lucky7AdminAddress",
          "type": "address"
        }
      ],
      "name": "oraclizeGasLimit",
      "outputs": [
        {
          "name": "",
          "type": "uint256"
        }
      ],
      "payable": false,
      "stateMutability": "nonpayable",
      "type": "function"
    },
    {
      "constant": false,
      "inputs": [
        {
          "name": "_lucky7AdminAddress",
          "type": "address"
        }
      ],
      "name": "sellTicketPrice",
      "outputs": [
        {
          "name": "",
          "type": "uint256"
        }
      ],
      "payable": false,
      "stateMutability": "nonpayable",
      "type": "function"
    },
    {
      "constant": false,
      "inputs": [
        {
          "name": "_lucky7AdminAddress",
          "type": "address"
        }
      ],
      "name": "generateTicketPrice",
      "outputs": [
        {
          "name": "",
          "type": "uint256"
        }
      ],
      "payable": false,
      "stateMutability": "nonpayable",
      "type": "function"
    },
    {
      "constant": false,
      "inputs": [
        {
          "name": "_lucky7AdminAddress",
          "type": "address"
        }
      ],
      "name": "enterpriseWallet",
      "outputs": [
        {
          "name": "",
          "type": "address"
        }
      ],
      "payable": false,
      "stateMutability": "nonpayable",
      "type": "function"
    },
    {
      "constant": false,
      "inputs": [
        {
          "name": "_lucky7AdminAddress",
          "type": "address"
        }
      ],
      "name": "getParameters",
      "outputs": [
        {
          "name": "",
          "type": "string"
        },
        {
          "name": "",
          "type": "string"
        },
        {
          "name": "",
          "type": "string"
        },
        {
          "name": "",
          "type": "string"
        }
      ],
      "payable": false,
      "stateMutability": "nonpayable",
      "type": "function"
    },
    {
      "constant": false,
      "inputs": [
        {
          "name": "_lucky7StorageAddress",
          "type": "address"
        }
      ],
      "name": "indexForLucky7Array",
      "outputs": [
        {
          "name": "",
          "type": "uint256"
        }
      ],
      "payable": false,
      "stateMutability": "nonpayable",
      "type": "function"
    },
    {
      "constant": false,
      "inputs": [
        {
          "name": "_lucky7StorageAddress",
          "type": "address"
        }
      ],
      "name": "numberOfLucky7Numbers",
      "outputs": [
        {
          "name": "",
          "type": "uint256"
        }
      ],
      "payable": false,
      "stateMutability": "nonpayable",
      "type": "function"
    },
    {
      "constant": false,
      "inputs": [
        {
          "name": "_lucky7TicketFactoryAddress",
          "type": "address"
        }
      ],
      "name": "settingLucky7Numbers",
      "outputs": [
        {
          "name": "",
          "type": "bool"
        }
      ],
      "payable": false,
      "stateMutability": "nonpayable",
      "type": "function"
    }
  ],
  "bytecode": "0x610976610030600b82828239805160001a6073146000811461002057610022565bfe5b5030600052607381538281f30073000000000000000000000000000000000000000030146080604052600436106100965763ffffffff60e060020a6000350416630c453e0b811461009b57806323913b85146100ce57806327748805146100ef5780633d579ff81461012c57806359c96c111461014d57806372f3cca314610318578063c50f7fbd1461034d578063dbc6ac881461036e578063e516c9601461038f575b600080fd5b8180156100a757600080fd5b506100bc600160a060020a03600435166103b0565b60408051918252519081900360200190f35b8180156100da57600080fd5b506100bc600160a060020a0360043516610427565b8180156100fb57600080fd5b50610110600160a060020a036004351661046b565b60408051600160a060020a039092168252519081900360200190f35b81801561013857600080fd5b506100bc600160a060020a03600435166104af565b81801561015957600080fd5b5061016e600160a060020a03600435166104f3565b6040518080602001806020018060200180602001858103855289818151815260200191508051906020019080838360005b838110156101b757818101518382015260200161019f565b50505050905090810190601f1680156101e45780820380516001836020036101000a031916815260200191505b5085810384528851815288516020918201918a019080838360005b838110156102175781810151838201526020016101ff565b50505050905090810190601f1680156102445780820380516001836020036101000a031916815260200191505b50858103835287518152875160209182019189019080838360005b8381101561027757818101518382015260200161025f565b50505050905090810190601f1680156102a45780820380516001836020036101000a031916815260200191505b50858103825286518152865160209182019188019080838360005b838110156102d75781810151838201526020016102bf565b50505050905090810190601f1680156103045780820380516001836020036101000a031916815260200191505b509850505050505050505060405180910390f35b81801561032457600080fd5b50610339600160a060020a036004351661083a565b604080519115158252519081900360200190f35b81801561035957600080fd5b506100bc600160a060020a036004351661087e565b81801561037a57600080fd5b506100bc600160a060020a03600435166108c2565b81801561039b57600080fd5b506100bc600160a060020a0360043516610906565b60008082905080600160a060020a031663d566bcf06040518163ffffffff1660e060020a028152600401602060405180830381600087803b1580156103f457600080fd5b505af1158015610408573d6000803e3d6000fd5b505050506040513d602081101561041e57600080fd5b50519392505050565b60008082905080600160a060020a03166350b9c4286040518163ffffffff1660e060020a028152600401602060405180830381600087803b1580156103f457600080fd5b60008082905080600160a060020a031663741606b56040518163ffffffff1660e060020a028152600401602060405180830381600087803b1580156103f457600080fd5b60008082905080600160a060020a03166359f9fe826040518163ffffffff1660e060020a028152600401602060405180830381600087803b1580156103f457600080fd5b606080606080600060608060608089945084600160a060020a0316634df7e3d06040518163ffffffff1660e060020a028152600401600060405180830381600087803b15801561054257600080fd5b505af1158015610556573d6000803e3d6000fd5b505050506040513d6000823e601f3d908101601f19168201604052602081101561057f57600080fd5b81019080805164010000000081111561059757600080fd5b820160208101848111156105aa57600080fd5b81516401000000008111828201871017156105c457600080fd5b5050929190505050935084600160a060020a0316632e52d6066040518163ffffffff1660e060020a028152600401600060405180830381600087803b15801561060c57600080fd5b505af1158015610620573d6000803e3d6000fd5b505050506040513d6000823e601f3d908101601f19168201604052602081101561064957600080fd5b81019080805164010000000081111561066157600080fd5b8201602081018481111561067457600080fd5b815164010000000081118282018710171561068e57600080fd5b5050929190505050925084600160a060020a0316639ae8886a6040518163ffffffff1660e060020a028152600401600060405180830381600087803b1580156106d657600080fd5b505af11580156106ea573d6000803e3d6000fd5b505050506040513d6000823e601f3d908101601f19168201604052602081101561071357600080fd5b81019080805164010000000081111561072b57600080fd5b8201602081018481111561073e57600080fd5b815164010000000081118282018710171561075857600080fd5b5050929190505050915084600160a060020a031663b582ec5f6040518163ffffffff1660e060020a028152600401600060405180830381600087803b1580156107a057600080fd5b505af11580156107b4573d6000803e3d6000fd5b505050506040513d6000823e601f3d908101601f1916820160405260208110156107dd57600080fd5b8101908080516401000000008111156107f557600080fd5b8201602081018481111561080857600080fd5b815164010000000081118282018710171561082257600080fd5b50979e969d50949b5093995093975050505050505050565b60008082905080600160a060020a0316632caf9eee6040518163ffffffff1660e060020a028152600401602060405180830381600087803b1580156103f457600080fd5b60008082905080600160a060020a0316639ac2bf916040518163ffffffff1660e060020a028152600401602060405180830381600087803b1580156103f457600080fd5b60008082905080600160a060020a031663c56969ab6040518163ffffffff1660e060020a028152600401602060405180830381600087803b1580156103f457600080fd5b60008082905080600160a060020a031663e5663c486040518163ffffffff1660e060020a028152600401602060405180830381600087803b1580156103f457600080fd00a165627a7a7230582085676c21163d0505e0780ca2044a26798fdceceee1b4fc0631fb2457eb44f45f0029",
  "source": "/**\n  * @author Matias Barrios\n  * @version 1.0.0\n  */\n\n/** @title Lucky7GetValues. \n  * This contract contains all the functions to get values between contracts.\n*/\n\npragma solidity ^0.4.24;\nimport \"./Lucky7Admin.sol\";\nimport \"./Lucky7Storage.sol\";\nimport \"./Lucky7TicketFactory.sol\";\n\n\nlibrary Lucky7Library{  \n    \n  /** @dev Functions to get values from Lucky7Admin\n    */\n  function oraclizeCustomGasPrice(address _lucky7AdminAddress) public returns (uint){\n    Lucky7Admin lucky7AdminContract = Lucky7Admin(_lucky7AdminAddress);\n    return lucky7AdminContract.oraclizeCustomGasPrice();\n  }\n\n  function oraclizeGasLimit(address _lucky7AdminAddress) public returns (uint){\n    Lucky7Admin lucky7AdminContract = Lucky7Admin(_lucky7AdminAddress);\n    return lucky7AdminContract.oraclizeGasLimit();\n  }\n  \n  function sellTicketPrice(address _lucky7AdminAddress) public returns (uint){\n    Lucky7Admin lucky7AdminContract = Lucky7Admin(_lucky7AdminAddress);\n    return lucky7AdminContract.sellTicketPrice();\n  }\n\n  function generateTicketPrice(address _lucky7AdminAddress) public returns (uint){\n    Lucky7Admin lucky7AdminContract = Lucky7Admin(_lucky7AdminAddress);\n    return lucky7AdminContract.generateTicketPrice();\n  }\n\n  function enterpriseWallet(address _lucky7AdminAddress) public returns (address){\n    Lucky7Admin lucky7AdminContract = Lucky7Admin(_lucky7AdminAddress);\n    return lucky7AdminContract.enterpriseWallet();\n  }\n\n  function getParameters(address _lucky7AdminAddress) public returns (string,string,string,string){\n    Lucky7Admin lucky7AdminContract = Lucky7Admin(_lucky7AdminAddress);\n    string memory b = lucky7AdminContract.b();\n    string memory n = lucky7AdminContract.n();\n    string memory p = lucky7AdminContract.p();\n    string memory j = lucky7AdminContract.j();\n    return (b,n,p,j);\n  }\n\n\n  /** @dev Functions to get values from Lucky7Storage\n    */\n  function indexForLucky7Array(address _lucky7StorageAddress) public returns (uint){\n    Lucky7Storage lucky7StorageContract = Lucky7Storage(_lucky7StorageAddress);\n    return lucky7StorageContract.indexForLucky7Array();\n  } \n\n  function numberOfLucky7Numbers(address _lucky7StorageAddress) public returns (uint){\n    Lucky7Storage lucky7StorageContract = Lucky7Storage(_lucky7StorageAddress);\n    return lucky7StorageContract.numberOfLucky7Numbers();\n  } \n  \n  /** @dev Functions to get values from Lucky7TicketFactory \n    */\n\n  function settingLucky7Numbers(address _lucky7TicketFactoryAddress) public returns (bool){\n    Lucky7TicketFactory lucky7TicketFactoryContract = Lucky7TicketFactory(_lucky7TicketFactoryAddress);\n    return lucky7TicketFactoryContract.settingLucky7Numbers();\n  }\n\n} ",
  "sourcePath": "/Users/matiasbarrios/Desktop/Proyecto Consensys/luckyseven/contracts/Lucky7Library.sol",
  "compiler": {
    "name": "solc",
    "version": "0.4.24+commit.e67f0147.Emscripten.clang"
  },
  "schemaVersion": "2.0.1",
  "updatedAt": "2018-09-29T02:01:41.901Z"
}